{
	"MyHomeToken.sol": {
		"MyHomesToken": {
			"abi": [
				{
					"inputs": [],
					"stateMutability": "nonpayable",
					"type": "constructor"
				},
				{
					"inputs": [
						{
							"internalType": "uint256",
							"name": "",
							"type": "uint256"
						}
					],
					"name": "houseRegister",
					"outputs": [
						{
							"internalType": "string",
							"name": "registrationId",
							"type": "string"
						},
						{
							"internalType": "string",
							"name": "physicalAddress",
							"type": "string"
						}
					],
					"stateMutability": "view",
					"type": "function"
				},
				{
					"inputs": [],
					"name": "owner",
					"outputs": [
						{
							"internalType": "address",
							"name": "",
							"type": "address"
						}
					],
					"stateMutability": "view",
					"type": "function"
				},
				{
					"inputs": [],
					"name": "package",
					"outputs": [
						{
							"internalType": "string",
							"name": "name",
							"type": "string"
						},
						{
							"internalType": "string",
							"name": "description",
							"type": "string"
						},
						{
							"internalType": "uint256",
							"name": "price",
							"type": "uint256"
						}
					],
					"stateMutability": "view",
					"type": "function"
				},
				{
					"inputs": [],
					"name": "shareLimit",
					"outputs": [
						{
							"internalType": "uint256",
							"name": "",
							"type": "uint256"
						}
					],
					"stateMutability": "view",
					"type": "function"
				},
				{
					"inputs": [],
					"name": "totalShares",
					"outputs": [
						{
							"internalType": "uint256",
							"name": "",
							"type": "uint256"
						}
					],
					"stateMutability": "view",
					"type": "function"
				}
			],
			"devdoc": {
				"kind": "dev",
				"methods": {},
				"version": 1
			},
			"evm": {
				"assembly": "    /* \"MyHomeToken.sol\":67:1914  contract MyHomesToken {... */\n  mstore(0x40, 0x80)\n    /* \"MyHomeToken.sol\":219:222  100 */\n  0x64\n    /* \"MyHomeToken.sol\":190:222  uint256 public totalShares = 100 */\n  0x06\n  sstore\n    /* \"MyHomeToken.sol\":256:258  10 */\n  0x0a\n    /* \"MyHomeToken.sol\":228:258  uint256 public shareLimit = 10 */\n  0x07\n  sstore\n    /* \"MyHomeToken.sol\":642:737  constructor() {... */\n  callvalue\n  dup1\n  iszero\n  tag_1\n  jumpi\n  0x00\n  dup1\n  revert\ntag_1:\n  pop\n    /* \"MyHomeToken.sol\":674:684  msg.sender */\n  caller\n    /* \"MyHomeToken.sol\":666:671  owner */\n  0x00\n  dup1\n    /* \"MyHomeToken.sol\":666:684  owner = msg.sender */\n  0x0100\n  exp\n  dup2\n  sload\n  dup2\n  0xffffffffffffffffffffffffffffffffffffffff\n  mul\n  not\n  and\n  swap1\n  dup4\n  0xffffffffffffffffffffffffffffffffffffffff\n  and\n  mul\n  or\n  swap1\n  sstore\n  pop\n    /* \"MyHomeToken.sol\":719:730  totalShares */\n  sload(0x06)\n    /* \"MyHomeToken.sol\":694:704  _balanceOf */\n  0x08\n    /* \"MyHomeToken.sol\":694:716  _balanceOf[msg.sender] */\n  0x00\n    /* \"MyHomeToken.sol\":705:715  msg.sender */\n  caller\n    /* \"MyHomeToken.sol\":694:716  _balanceOf[msg.sender] */\n  0xffffffffffffffffffffffffffffffffffffffff\n  and\n  0xffffffffffffffffffffffffffffffffffffffff\n  and\n  dup2\n  mstore\n  0x20\n  add\n  swap1\n  dup2\n  mstore\n  0x20\n  add\n  0x00\n  keccak256\n    /* \"MyHomeToken.sol\":694:730  _balanceOf[msg.sender] = totalShares */\n  dup2\n  swap1\n  sstore\n  pop\n    /* \"MyHomeToken.sol\":67:1914  contract MyHomesToken {... */\n  dataSize(sub_0)\n  dup1\n  dataOffset(sub_0)\n  0x00\n  codecopy\n  0x00\n  return\nstop\n\nsub_0: assembly {\n        /* \"MyHomeToken.sol\":67:1914  contract MyHomesToken {... */\n      mstore(0x40, 0x80)\n      callvalue\n      dup1\n      iszero\n      tag_1\n      jumpi\n      0x00\n      dup1\n      revert\n    tag_1:\n      pop\n      jumpi(tag_2, lt(calldatasize, 0x04))\n      shr(0xe0, calldataload(0x00))\n      dup1\n      0x3a98ef39\n      eq\n      tag_3\n      jumpi\n      dup1\n      0x3be75aa3\n      eq\n      tag_4\n      jumpi\n      dup1\n      0x8da5cb5b\n      eq\n      tag_5\n      jumpi\n      dup1\n      0xa14ba987\n      eq\n      tag_6\n      jumpi\n      dup1\n      0xaaac9718\n      eq\n      tag_7\n      jumpi\n    tag_2:\n      0x00\n      dup1\n      revert\n        /* \"MyHomeToken.sol\":190:222  uint256 public totalShares = 100 */\n    tag_3:\n      tag_8\n      tag_9\n      jump\t// in\n    tag_8:\n      mload(0x40)\n      tag_10\n      swap2\n      swap1\n      tag_11\n      jump\t// in\n    tag_10:\n      mload(0x40)\n      dup1\n      swap2\n      sub\n      swap1\n      return\n        /* \"MyHomeToken.sol\":228:258  uint256 public shareLimit = 10 */\n    tag_4:\n      tag_12\n      tag_13\n      jump\t// in\n    tag_12:\n      mload(0x40)\n      tag_14\n      swap2\n      swap1\n      tag_11\n      jump\t// in\n    tag_14:\n      mload(0x40)\n      dup1\n      swap2\n      sub\n      swap1\n      return\n        /* \"MyHomeToken.sol\":95:115  address public owner */\n    tag_5:\n      tag_15\n      tag_16\n      jump\t// in\n    tag_15:\n      mload(0x40)\n      tag_17\n      swap2\n      swap1\n      tag_18\n      jump\t// in\n    tag_17:\n      mload(0x40)\n      dup1\n      swap2\n      sub\n      swap1\n      return\n        /* \"MyHomeToken.sol\":156:184  House[] public houseRegister */\n    tag_6:\n      tag_19\n      0x04\n      dup1\n      calldatasize\n      sub\n      dup2\n      add\n      swap1\n      tag_20\n      swap2\n      swap1\n      tag_21\n      jump\t// in\n    tag_20:\n      tag_22\n      jump\t// in\n    tag_19:\n      mload(0x40)\n      tag_23\n      swap3\n      swap2\n      swap1\n      tag_24\n      jump\t// in\n    tag_23:\n      mload(0x40)\n      dup1\n      swap2\n      sub\n      swap1\n      return\n        /* \"MyHomeToken.sol\":121:150  HousingPackage public package */\n    tag_7:\n      tag_25\n      tag_26\n      jump\t// in\n    tag_25:\n      mload(0x40)\n      tag_27\n      swap4\n      swap3\n      swap2\n      swap1\n      tag_28\n      jump\t// in\n    tag_27:\n      mload(0x40)\n      dup1\n      swap2\n      sub\n      swap1\n      return\n        /* \"MyHomeToken.sol\":190:222  uint256 public totalShares = 100 */\n    tag_9:\n      sload(0x06)\n      dup2\n      jump\t// out\n        /* \"MyHomeToken.sol\":228:258  uint256 public shareLimit = 10 */\n    tag_13:\n      sload(0x07)\n      dup2\n      jump\t// out\n        /* \"MyHomeToken.sol\":95:115  address public owner */\n    tag_16:\n      0x00\n      dup1\n      sload\n      swap1\n      0x0100\n      exp\n      swap1\n      div\n      0xffffffffffffffffffffffffffffffffffffffff\n      and\n      dup2\n      jump\t// out\n        /* \"MyHomeToken.sol\":156:184  House[] public houseRegister */\n    tag_22:\n      0x05\n      dup2\n      dup2\n      sload\n      dup2\n      lt\n      tag_29\n      jumpi\n      0x00\n      dup1\n      revert\n    tag_29:\n      swap1\n      0x00\n      mstore\n      keccak256(0x00, 0x20)\n      swap1\n      0x03\n      mul\n      add\n      0x00\n      swap2\n      pop\n      swap1\n      pop\n      dup1\n      0x00\n      add\n      dup1\n      sload\n      tag_31\n      swap1\n      tag_32\n      jump\t// in\n    tag_31:\n      dup1\n      0x1f\n      add\n      0x20\n      dup1\n      swap2\n      div\n      mul\n      0x20\n      add\n      mload(0x40)\n      swap1\n      dup2\n      add\n      0x40\n      mstore\n      dup1\n      swap3\n      swap2\n      swap1\n      dup2\n      dup2\n      mstore\n      0x20\n      add\n      dup3\n      dup1\n      sload\n      tag_33\n      swap1\n      tag_32\n      jump\t// in\n    tag_33:\n      dup1\n      iszero\n      tag_34\n      jumpi\n      dup1\n      0x1f\n      lt\n      tag_35\n      jumpi\n      0x0100\n      dup1\n      dup4\n      sload\n      div\n      mul\n      dup4\n      mstore\n      swap2\n      0x20\n      add\n      swap2\n      jump(tag_34)\n    tag_35:\n      dup3\n      add\n      swap2\n      swap1\n      0x00\n      mstore\n      keccak256(0x00, 0x20)\n      swap1\n    tag_36:\n      dup2\n      sload\n      dup2\n      mstore\n      swap1\n      0x01\n      add\n      swap1\n      0x20\n      add\n      dup1\n      dup4\n      gt\n      tag_36\n      jumpi\n      dup3\n      swap1\n      sub\n      0x1f\n      and\n      dup3\n      add\n      swap2\n    tag_34:\n      pop\n      pop\n      pop\n      pop\n      pop\n      swap1\n      dup1\n      0x01\n      add\n      dup1\n      sload\n      tag_37\n      swap1\n      tag_32\n      jump\t// in\n    tag_37:\n      dup1\n      0x1f\n      add\n      0x20\n      dup1\n      swap2\n      div\n      mul\n      0x20\n      add\n      mload(0x40)\n      swap1\n      dup2\n      add\n      0x40\n      mstore\n      dup1\n      swap3\n      swap2\n      swap1\n      dup2\n      dup2\n      mstore\n      0x20\n      add\n      dup3\n      dup1\n      sload\n      tag_38\n      swap1\n      tag_32\n      jump\t// in\n    tag_38:\n      dup1\n      iszero\n      tag_39\n      jumpi\n      dup1\n      0x1f\n      lt\n      tag_40\n      jumpi\n      0x0100\n      dup1\n      dup4\n      sload\n      div\n      mul\n      dup4\n      mstore\n      swap2\n      0x20\n      add\n      swap2\n      jump(tag_39)\n    tag_40:\n      dup3\n      add\n      swap2\n      swap1\n      0x00\n      mstore\n      keccak256(0x00, 0x20)\n      swap1\n    tag_41:\n      dup2\n      sload\n      dup2\n      mstore\n      swap1\n      0x01\n      add\n      swap1\n      0x20\n      add\n      dup1\n      dup4\n      gt\n      tag_41\n      jumpi\n      dup3\n      swap1\n      sub\n      0x1f\n      and\n      dup3\n      add\n      swap2\n    tag_39:\n      pop\n      pop\n      pop\n      pop\n      pop\n      swap1\n      pop\n      dup3\n      jump\t// out\n        /* \"MyHomeToken.sol\":121:150  HousingPackage public package */\n    tag_26:\n      0x01\n      dup1\n      0x00\n      add\n      dup1\n      sload\n      tag_42\n      swap1\n      tag_32\n      jump\t// in\n    tag_42:\n      dup1\n      0x1f\n      add\n      0x20\n      dup1\n      swap2\n      div\n      mul\n      0x20\n      add\n      mload(0x40)\n      swap1\n      dup2\n      add\n      0x40\n      mstore\n      dup1\n      swap3\n      swap2\n      swap1\n      dup2\n      dup2\n      mstore\n      0x20\n      add\n      dup3\n      dup1\n      sload\n      tag_43\n      swap1\n      tag_32\n      jump\t// in\n    tag_43:\n      dup1\n      iszero\n      tag_44\n      jumpi\n      dup1\n      0x1f\n      lt\n      tag_45\n      jumpi\n      0x0100\n      dup1\n      dup4\n      sload\n      div\n      mul\n      dup4\n      mstore\n      swap2\n      0x20\n      add\n      swap2\n      jump(tag_44)\n    tag_45:\n      dup3\n      add\n      swap2\n      swap1\n      0x00\n      mstore\n      keccak256(0x00, 0x20)\n      swap1\n    tag_46:\n      dup2\n      sload\n      dup2\n      mstore\n      swap1\n      0x01\n      add\n      swap1\n      0x20\n      add\n      dup1\n      dup4\n      gt\n      tag_46\n      jumpi\n      dup3\n      swap1\n      sub\n      0x1f\n      and\n      dup3\n      add\n      swap2\n    tag_44:\n      pop\n      pop\n      pop\n      pop\n      pop\n      swap1\n      dup1\n      0x01\n      add\n      dup1\n      sload\n      tag_47\n      swap1\n      tag_32\n      jump\t// in\n    tag_47:\n      dup1\n      0x1f\n      add\n      0x20\n      dup1\n      swap2\n      div\n      mul\n      0x20\n      add\n      mload(0x40)\n      swap1\n      dup2\n      add\n      0x40\n      mstore\n      dup1\n      swap3\n      swap2\n      swap1\n      dup2\n      dup2\n      mstore\n      0x20\n      add\n      dup3\n      dup1\n      sload\n      tag_48\n      swap1\n      tag_32\n      jump\t// in\n    tag_48:\n      dup1\n      iszero\n      tag_49\n      jumpi\n      dup1\n      0x1f\n      lt\n      tag_50\n      jumpi\n      0x0100\n      dup1\n      dup4\n      sload\n      div\n      mul\n      dup4\n      mstore\n      swap2\n      0x20\n      add\n      swap2\n      jump(tag_49)\n    tag_50:\n      dup3\n      add\n      swap2\n      swap1\n      0x00\n      mstore\n      keccak256(0x00, 0x20)\n      swap1\n    tag_51:\n      dup2\n      sload\n      dup2\n      mstore\n      swap1\n      0x01\n      add\n      swap1\n      0x20\n      add\n      dup1\n      dup4\n      gt\n      tag_51\n      jumpi\n      dup3\n      swap1\n      sub\n      0x1f\n      and\n      dup3\n      add\n      swap2\n    tag_49:\n      pop\n      pop\n      pop\n      pop\n      pop\n      swap1\n      dup1\n      0x03\n      add\n      sload\n      swap1\n      pop\n      dup4\n      jump\t// out\n        /* \"#utility.yul\":7:146   */\n    tag_53:\n        /* \"#utility.yul\":53:58   */\n      0x00\n        /* \"#utility.yul\":91:97   */\n      dup2\n        /* \"#utility.yul\":78:98   */\n      calldataload\n        /* \"#utility.yul\":69:98   */\n      swap1\n      pop\n        /* \"#utility.yul\":107:140   */\n      tag_55\n        /* \"#utility.yul\":134:139   */\n      dup2\n        /* \"#utility.yul\":107:140   */\n      tag_56\n      jump\t// in\n    tag_55:\n        /* \"#utility.yul\":7:146   */\n      swap3\n      swap2\n      pop\n      pop\n      jump\t// out\n        /* \"#utility.yul\":152:481   */\n    tag_21:\n        /* \"#utility.yul\":211:217   */\n      0x00\n        /* \"#utility.yul\":260:262   */\n      0x20\n        /* \"#utility.yul\":248:257   */\n      dup3\n        /* \"#utility.yul\":239:246   */\n      dup5\n        /* \"#utility.yul\":235:258   */\n      sub\n        /* \"#utility.yul\":231:263   */\n      slt\n        /* \"#utility.yul\":228:347   */\n      iszero\n      tag_58\n      jumpi\n        /* \"#utility.yul\":266:345   */\n      tag_59\n      tag_60\n      jump\t// in\n    tag_59:\n        /* \"#utility.yul\":228:347   */\n    tag_58:\n        /* \"#utility.yul\":386:387   */\n      0x00\n        /* \"#utility.yul\":411:464   */\n      tag_61\n        /* \"#utility.yul\":456:463   */\n      dup5\n        /* \"#utility.yul\":447:453   */\n      dup3\n        /* \"#utility.yul\":436:445   */\n      dup6\n        /* \"#utility.yul\":432:454   */\n      add\n        /* \"#utility.yul\":411:464   */\n      tag_53\n      jump\t// in\n    tag_61:\n        /* \"#utility.yul\":401:464   */\n      swap2\n      pop\n        /* \"#utility.yul\":357:474   */\n      pop\n        /* \"#utility.yul\":152:481   */\n      swap3\n      swap2\n      pop\n      pop\n      jump\t// out\n        /* \"#utility.yul\":487:605   */\n    tag_62:\n        /* \"#utility.yul\":574:598   */\n      tag_64\n        /* \"#utility.yul\":592:597   */\n      dup2\n        /* \"#utility.yul\":574:598   */\n      tag_65\n      jump\t// in\n    tag_64:\n        /* \"#utility.yul\":569:572   */\n      dup3\n        /* \"#utility.yul\":562:599   */\n      mstore\n        /* \"#utility.yul\":487:605   */\n      pop\n      pop\n      jump\t// out\n        /* \"#utility.yul\":611:975   */\n    tag_66:\n        /* \"#utility.yul\":699:702   */\n      0x00\n        /* \"#utility.yul\":727:766   */\n      tag_68\n        /* \"#utility.yul\":760:765   */\n      dup3\n        /* \"#utility.yul\":727:766   */\n      tag_69\n      jump\t// in\n    tag_68:\n        /* \"#utility.yul\":782:853   */\n      tag_70\n        /* \"#utility.yul\":846:852   */\n      dup2\n        /* \"#utility.yul\":841:844   */\n      dup6\n        /* \"#utility.yul\":782:853   */\n      tag_71\n      jump\t// in\n    tag_70:\n        /* \"#utility.yul\":775:853   */\n      swap4\n      pop\n        /* \"#utility.yul\":862:914   */\n      tag_72\n        /* \"#utility.yul\":907:913   */\n      dup2\n        /* \"#utility.yul\":902:905   */\n      dup6\n        /* \"#utility.yul\":895:899   */\n      0x20\n        /* \"#utility.yul\":888:893   */\n      dup7\n        /* \"#utility.yul\":884:900   */\n      add\n        /* \"#utility.yul\":862:914   */\n      tag_73\n      jump\t// in\n    tag_72:\n        /* \"#utility.yul\":939:968   */\n      tag_74\n        /* \"#utility.yul\":961:967   */\n      dup2\n        /* \"#utility.yul\":939:968   */\n      tag_75\n      jump\t// in\n    tag_74:\n        /* \"#utility.yul\":934:937   */\n      dup5\n        /* \"#utility.yul\":930:969   */\n      add\n        /* \"#utility.yul\":923:969   */\n      swap2\n      pop\n        /* \"#utility.yul\":703:975   */\n      pop\n        /* \"#utility.yul\":611:975   */\n      swap3\n      swap2\n      pop\n      pop\n      jump\t// out\n        /* \"#utility.yul\":981:1099   */\n    tag_76:\n        /* \"#utility.yul\":1068:1092   */\n      tag_78\n        /* \"#utility.yul\":1086:1091   */\n      dup2\n        /* \"#utility.yul\":1068:1092   */\n      tag_79\n      jump\t// in\n    tag_78:\n        /* \"#utility.yul\":1063:1066   */\n      dup3\n        /* \"#utility.yul\":1056:1093   */\n      mstore\n        /* \"#utility.yul\":981:1099   */\n      pop\n      pop\n      jump\t// out\n        /* \"#utility.yul\":1105:1327   */\n    tag_18:\n        /* \"#utility.yul\":1198:1202   */\n      0x00\n        /* \"#utility.yul\":1236:1238   */\n      0x20\n        /* \"#utility.yul\":1225:1234   */\n      dup3\n        /* \"#utility.yul\":1221:1239   */\n      add\n        /* \"#utility.yul\":1213:1239   */\n      swap1\n      pop\n        /* \"#utility.yul\":1249:1320   */\n      tag_81\n        /* \"#utility.yul\":1317:1318   */\n      0x00\n        /* \"#utility.yul\":1306:1315   */\n      dup4\n        /* \"#utility.yul\":1302:1319   */\n      add\n        /* \"#utility.yul\":1293:1299   */\n      dup5\n        /* \"#utility.yul\":1249:1320   */\n      tag_62\n      jump\t// in\n    tag_81:\n        /* \"#utility.yul\":1105:1327   */\n      swap3\n      swap2\n      pop\n      pop\n      jump\t// out\n        /* \"#utility.yul\":1333:1847   */\n    tag_24:\n        /* \"#utility.yul\":1494:1498   */\n      0x00\n        /* \"#utility.yul\":1532:1534   */\n      0x40\n        /* \"#utility.yul\":1521:1530   */\n      dup3\n        /* \"#utility.yul\":1517:1535   */\n      add\n        /* \"#utility.yul\":1509:1535   */\n      swap1\n      pop\n        /* \"#utility.yul\":1581:1590   */\n      dup2\n        /* \"#utility.yul\":1575:1579   */\n      dup2\n        /* \"#utility.yul\":1571:1591   */\n      sub\n        /* \"#utility.yul\":1567:1568   */\n      0x00\n        /* \"#utility.yul\":1556:1565   */\n      dup4\n        /* \"#utility.yul\":1552:1569   */\n      add\n        /* \"#utility.yul\":1545:1592   */\n      mstore\n        /* \"#utility.yul\":1609:1687   */\n      tag_83\n        /* \"#utility.yul\":1682:1686   */\n      dup2\n        /* \"#utility.yul\":1673:1679   */\n      dup6\n        /* \"#utility.yul\":1609:1687   */\n      tag_66\n      jump\t// in\n    tag_83:\n        /* \"#utility.yul\":1601:1687   */\n      swap1\n      pop\n        /* \"#utility.yul\":1734:1743   */\n      dup2\n        /* \"#utility.yul\":1728:1732   */\n      dup2\n        /* \"#utility.yul\":1724:1744   */\n      sub\n        /* \"#utility.yul\":1719:1721   */\n      0x20\n        /* \"#utility.yul\":1708:1717   */\n      dup4\n        /* \"#utility.yul\":1704:1722   */\n      add\n        /* \"#utility.yul\":1697:1745   */\n      mstore\n        /* \"#utility.yul\":1762:1840   */\n      tag_84\n        /* \"#utility.yul\":1835:1839   */\n      dup2\n        /* \"#utility.yul\":1826:1832   */\n      dup5\n        /* \"#utility.yul\":1762:1840   */\n      tag_66\n      jump\t// in\n    tag_84:\n        /* \"#utility.yul\":1754:1840   */\n      swap1\n      pop\n        /* \"#utility.yul\":1333:1847   */\n      swap4\n      swap3\n      pop\n      pop\n      pop\n      jump\t// out\n        /* \"#utility.yul\":1853:2477   */\n    tag_28:\n        /* \"#utility.yul\":2042:2046   */\n      0x00\n        /* \"#utility.yul\":2080:2082   */\n      0x60\n        /* \"#utility.yul\":2069:2078   */\n      dup3\n        /* \"#utility.yul\":2065:2083   */\n      add\n        /* \"#utility.yul\":2057:2083   */\n      swap1\n      pop\n        /* \"#utility.yul\":2129:2138   */\n      dup2\n        /* \"#utility.yul\":2123:2127   */\n      dup2\n        /* \"#utility.yul\":2119:2139   */\n      sub\n        /* \"#utility.yul\":2115:2116   */\n      0x00\n        /* \"#utility.yul\":2104:2113   */\n      dup4\n        /* \"#utility.yul\":2100:2117   */\n      add\n        /* \"#utility.yul\":2093:2140   */\n      mstore\n        /* \"#utility.yul\":2157:2235   */\n      tag_86\n        /* \"#utility.yul\":2230:2234   */\n      dup2\n        /* \"#utility.yul\":2221:2227   */\n      dup7\n        /* \"#utility.yul\":2157:2235   */\n      tag_66\n      jump\t// in\n    tag_86:\n        /* \"#utility.yul\":2149:2235   */\n      swap1\n      pop\n        /* \"#utility.yul\":2282:2291   */\n      dup2\n        /* \"#utility.yul\":2276:2280   */\n      dup2\n        /* \"#utility.yul\":2272:2292   */\n      sub\n        /* \"#utility.yul\":2267:2269   */\n      0x20\n        /* \"#utility.yul\":2256:2265   */\n      dup4\n        /* \"#utility.yul\":2252:2270   */\n      add\n        /* \"#utility.yul\":2245:2293   */\n      mstore\n        /* \"#utility.yul\":2310:2388   */\n      tag_87\n        /* \"#utility.yul\":2383:2387   */\n      dup2\n        /* \"#utility.yul\":2374:2380   */\n      dup6\n        /* \"#utility.yul\":2310:2388   */\n      tag_66\n      jump\t// in\n    tag_87:\n        /* \"#utility.yul\":2302:2388   */\n      swap1\n      pop\n        /* \"#utility.yul\":2398:2470   */\n      tag_88\n        /* \"#utility.yul\":2466:2468   */\n      0x40\n        /* \"#utility.yul\":2455:2464   */\n      dup4\n        /* \"#utility.yul\":2451:2469   */\n      add\n        /* \"#utility.yul\":2442:2448   */\n      dup5\n        /* \"#utility.yul\":2398:2470   */\n      tag_76\n      jump\t// in\n    tag_88:\n        /* \"#utility.yul\":1853:2477   */\n      swap5\n      swap4\n      pop\n      pop\n      pop\n      pop\n      jump\t// out\n        /* \"#utility.yul\":2483:2705   */\n    tag_11:\n        /* \"#utility.yul\":2576:2580   */\n      0x00\n        /* \"#utility.yul\":2614:2616   */\n      0x20\n        /* \"#utility.yul\":2603:2612   */\n      dup3\n        /* \"#utility.yul\":2599:2617   */\n      add\n        /* \"#utility.yul\":2591:2617   */\n      swap1\n      pop\n        /* \"#utility.yul\":2627:2698   */\n      tag_90\n        /* \"#utility.yul\":2695:2696   */\n      0x00\n        /* \"#utility.yul\":2684:2693   */\n      dup4\n        /* \"#utility.yul\":2680:2697   */\n      add\n        /* \"#utility.yul\":2671:2677   */\n      dup5\n        /* \"#utility.yul\":2627:2698   */\n      tag_76\n      jump\t// in\n    tag_90:\n        /* \"#utility.yul\":2483:2705   */\n      swap3\n      swap2\n      pop\n      pop\n      jump\t// out\n        /* \"#utility.yul\":2792:2891   */\n    tag_69:\n        /* \"#utility.yul\":2844:2850   */\n      0x00\n        /* \"#utility.yul\":2878:2883   */\n      dup2\n        /* \"#utility.yul\":2872:2884   */\n      mload\n        /* \"#utility.yul\":2862:2884   */\n      swap1\n      pop\n        /* \"#utility.yul\":2792:2891   */\n      swap2\n      swap1\n      pop\n      jump\t// out\n        /* \"#utility.yul\":2897:3066   */\n    tag_71:\n        /* \"#utility.yul\":2981:2992   */\n      0x00\n        /* \"#utility.yul\":3015:3021   */\n      dup3\n        /* \"#utility.yul\":3010:3013   */\n      dup3\n        /* \"#utility.yul\":3003:3022   */\n      mstore\n        /* \"#utility.yul\":3055:3059   */\n      0x20\n        /* \"#utility.yul\":3050:3053   */\n      dup3\n        /* \"#utility.yul\":3046:3060   */\n      add\n        /* \"#utility.yul\":3031:3060   */\n      swap1\n      pop\n        /* \"#utility.yul\":2897:3066   */\n      swap3\n      swap2\n      pop\n      pop\n      jump\t// out\n        /* \"#utility.yul\":3072:3168   */\n    tag_65:\n        /* \"#utility.yul\":3109:3116   */\n      0x00\n        /* \"#utility.yul\":3138:3162   */\n      tag_96\n        /* \"#utility.yul\":3156:3161   */\n      dup3\n        /* \"#utility.yul\":3138:3162   */\n      tag_97\n      jump\t// in\n    tag_96:\n        /* \"#utility.yul\":3127:3162   */\n      swap1\n      pop\n        /* \"#utility.yul\":3072:3168   */\n      swap2\n      swap1\n      pop\n      jump\t// out\n        /* \"#utility.yul\":3174:3300   */\n    tag_97:\n        /* \"#utility.yul\":3211:3218   */\n      0x00\n        /* \"#utility.yul\":3251:3293   */\n      0xffffffffffffffffffffffffffffffffffffffff\n        /* \"#utility.yul\":3244:3249   */\n      dup3\n        /* \"#utility.yul\":3240:3294   */\n      and\n        /* \"#utility.yul\":3229:3294   */\n      swap1\n      pop\n        /* \"#utility.yul\":3174:3300   */\n      swap2\n      swap1\n      pop\n      jump\t// out\n        /* \"#utility.yul\":3306:3383   */\n    tag_79:\n        /* \"#utility.yul\":3343:3350   */\n      0x00\n        /* \"#utility.yul\":3372:3377   */\n      dup2\n        /* \"#utility.yul\":3361:3377   */\n      swap1\n      pop\n        /* \"#utility.yul\":3306:3383   */\n      swap2\n      swap1\n      pop\n      jump\t// out\n        /* \"#utility.yul\":3389:3696   */\n    tag_73:\n        /* \"#utility.yul\":3457:3458   */\n      0x00\n        /* \"#utility.yul\":3467:3580   */\n    tag_101:\n        /* \"#utility.yul\":3481:3487   */\n      dup4\n        /* \"#utility.yul\":3478:3479   */\n      dup2\n        /* \"#utility.yul\":3475:3488   */\n      lt\n        /* \"#utility.yul\":3467:3580   */\n      iszero\n      tag_103\n      jumpi\n        /* \"#utility.yul\":3566:3567   */\n      dup1\n        /* \"#utility.yul\":3561:3564   */\n      dup3\n        /* \"#utility.yul\":3557:3568   */\n      add\n        /* \"#utility.yul\":3551:3569   */\n      mload\n        /* \"#utility.yul\":3547:3548   */\n      dup2\n        /* \"#utility.yul\":3542:3545   */\n      dup5\n        /* \"#utility.yul\":3538:3549   */\n      add\n        /* \"#utility.yul\":3531:3570   */\n      mstore\n        /* \"#utility.yul\":3503:3505   */\n      0x20\n        /* \"#utility.yul\":3500:3501   */\n      dup2\n        /* \"#utility.yul\":3496:3506   */\n      add\n        /* \"#utility.yul\":3491:3506   */\n      swap1\n      pop\n        /* \"#utility.yul\":3467:3580   */\n      jump(tag_101)\n    tag_103:\n        /* \"#utility.yul\":3598:3604   */\n      dup4\n        /* \"#utility.yul\":3595:3596   */\n      dup2\n        /* \"#utility.yul\":3592:3605   */\n      gt\n        /* \"#utility.yul\":3589:3690   */\n      iszero\n      tag_104\n      jumpi\n        /* \"#utility.yul\":3678:3679   */\n      0x00\n        /* \"#utility.yul\":3669:3675   */\n      dup5\n        /* \"#utility.yul\":3664:3667   */\n      dup5\n        /* \"#utility.yul\":3660:3676   */\n      add\n        /* \"#utility.yul\":3653:3680   */\n      mstore\n        /* \"#utility.yul\":3589:3690   */\n    tag_104:\n        /* \"#utility.yul\":3438:3696   */\n      pop\n        /* \"#utility.yul\":3389:3696   */\n      pop\n      pop\n      pop\n      jump\t// out\n        /* \"#utility.yul\":3702:4022   */\n    tag_32:\n        /* \"#utility.yul\":3746:3752   */\n      0x00\n        /* \"#utility.yul\":3783:3784   */\n      0x02\n        /* \"#utility.yul\":3777:3781   */\n      dup3\n        /* \"#utility.yul\":3773:3785   */\n      div\n        /* \"#utility.yul\":3763:3785   */\n      swap1\n      pop\n        /* \"#utility.yul\":3830:3831   */\n      0x01\n        /* \"#utility.yul\":3824:3828   */\n      dup3\n        /* \"#utility.yul\":3820:3832   */\n      and\n        /* \"#utility.yul\":3851:3869   */\n      dup1\n        /* \"#utility.yul\":3841:3922   */\n      tag_106\n      jumpi\n        /* \"#utility.yul\":3907:3911   */\n      0x7f\n        /* \"#utility.yul\":3899:3905   */\n      dup3\n        /* \"#utility.yul\":3895:3912   */\n      and\n        /* \"#utility.yul\":3885:3912   */\n      swap2\n      pop\n        /* \"#utility.yul\":3841:3922   */\n    tag_106:\n        /* \"#utility.yul\":3969:3971   */\n      0x20\n        /* \"#utility.yul\":3961:3967   */\n      dup3\n        /* \"#utility.yul\":3958:3972   */\n      lt\n        /* \"#utility.yul\":3938:3956   */\n      dup2\n        /* \"#utility.yul\":3935:3973   */\n      eq\n        /* \"#utility.yul\":3932:4016   */\n      iszero\n      tag_107\n      jumpi\n        /* \"#utility.yul\":3988:4006   */\n      tag_108\n      tag_109\n      jump\t// in\n    tag_108:\n        /* \"#utility.yul\":3932:4016   */\n    tag_107:\n        /* \"#utility.yul\":3753:4022   */\n      pop\n        /* \"#utility.yul\":3702:4022   */\n      swap2\n      swap1\n      pop\n      jump\t// out\n        /* \"#utility.yul\":4028:4208   */\n    tag_109:\n        /* \"#utility.yul\":4076:4153   */\n      0x4e487b7100000000000000000000000000000000000000000000000000000000\n        /* \"#utility.yul\":4073:4074   */\n      0x00\n        /* \"#utility.yul\":4066:4154   */\n      mstore\n        /* \"#utility.yul\":4173:4177   */\n      0x22\n        /* \"#utility.yul\":4170:4171   */\n      0x04\n        /* \"#utility.yul\":4163:4178   */\n      mstore\n        /* \"#utility.yul\":4197:4201   */\n      0x24\n        /* \"#utility.yul\":4194:4195   */\n      0x00\n        /* \"#utility.yul\":4187:4202   */\n      revert\n        /* \"#utility.yul\":4337:4454   */\n    tag_60:\n        /* \"#utility.yul\":4446:4447   */\n      0x00\n        /* \"#utility.yul\":4443:4444   */\n      dup1\n        /* \"#utility.yul\":4436:4448   */\n      revert\n        /* \"#utility.yul\":4460:4562   */\n    tag_75:\n        /* \"#utility.yul\":4501:4507   */\n      0x00\n        /* \"#utility.yul\":4552:4554   */\n      0x1f\n        /* \"#utility.yul\":4548:4555   */\n      not\n        /* \"#utility.yul\":4543:4545   */\n      0x1f\n        /* \"#utility.yul\":4536:4541   */\n      dup4\n        /* \"#utility.yul\":4532:4546   */\n      add\n        /* \"#utility.yul\":4528:4556   */\n      and\n        /* \"#utility.yul\":4518:4556   */\n      swap1\n      pop\n        /* \"#utility.yul\":4460:4562   */\n      swap2\n      swap1\n      pop\n      jump\t// out\n        /* \"#utility.yul\":4568:4690   */\n    tag_56:\n        /* \"#utility.yul\":4641:4665   */\n      tag_116\n        /* \"#utility.yul\":4659:4664   */\n      dup2\n        /* \"#utility.yul\":4641:4665   */\n      tag_79\n      jump\t// in\n    tag_116:\n        /* \"#utility.yul\":4634:4639   */\n      dup2\n        /* \"#utility.yul\":4631:4666   */\n      eq\n        /* \"#utility.yul\":4621:4684   */\n      tag_117\n      jumpi\n        /* \"#utility.yul\":4680:4681   */\n      0x00\n        /* \"#utility.yul\":4677:4678   */\n      dup1\n        /* \"#utility.yul\":4670:4682   */\n      revert\n        /* \"#utility.yul\":4621:4684   */\n    tag_117:\n        /* \"#utility.yul\":4568:4690   */\n      pop\n      jump\t// out\n\n    auxdata: 0xa26469706673582212203e937c546173976786bc227e35b5bfbbd0453f06ae2b8fec06fce7b741fcd6f964736f6c63430008070033\n}\n",
				"bytecode": {
					"linkReferences": {},
					"object": "60806040526064600655600a60075534801561001a57600080fd5b50336000806101000a81548173ffffffffffffffffffffffffffffffffffffffff021916908373ffffffffffffffffffffffffffffffffffffffff160217905550600654600860003373ffffffffffffffffffffffffffffffffffffffff1673ffffffffffffffffffffffffffffffffffffffff1681526020019081526020016000208190555061063d806100b06000396000f3fe608060405234801561001057600080fd5b50600436106100575760003560e01c80633a98ef391461005c5780633be75aa31461007a5780638da5cb5b14610098578063a14ba987146100b6578063aaac9718146100e7575b600080fd5b610064610107565b60405161007191906104d3565b60405180910390f35b61008261010d565b60405161008f91906104d3565b60405180910390f35b6100a0610113565b6040516100ad919061043c565b60405180910390f35b6100d060048036038101906100cb91906103b8565b610137565b6040516100de929190610457565b60405180910390f35b6100ef61027b565b6040516100fe9392919061048e565b60405180910390f35b60065481565b60075481565b60008054906101000a900473ffffffffffffffffffffffffffffffffffffffff1681565b6005818154811061014757600080fd5b906000526020600020906003020160009150905080600001805461016a90610579565b80601f016020809104026020016040519081016040528092919081815260200182805461019690610579565b80156101e35780601f106101b8576101008083540402835291602001916101e3565b820191906000526020600020905b8154815290600101906020018083116101c657829003601f168201915b5050505050908060010180546101f890610579565b80601f016020809104026020016040519081016040528092919081815260200182805461022490610579565b80156102715780601f1061024657610100808354040283529160200191610271565b820191906000526020600020905b81548152906001019060200180831161025457829003601f168201915b5050505050905082565b600180600001805461028c90610579565b80601f01602080910402602001604051908101604052809291908181526020018280546102b890610579565b80156103055780601f106102da57610100808354040283529160200191610305565b820191906000526020600020905b8154815290600101906020018083116102e857829003601f168201915b50505050509080600101805461031a90610579565b80601f016020809104026020016040519081016040528092919081815260200182805461034690610579565b80156103935780601f1061036857610100808354040283529160200191610393565b820191906000526020600020905b81548152906001019060200180831161037657829003601f168201915b5050505050908060030154905083565b6000813590506103b2816105f0565b92915050565b6000602082840312156103ce576103cd6105da565b5b60006103dc848285016103a3565b91505092915050565b6103ee8161050a565b82525050565b60006103ff826104ee565b61040981856104f9565b9350610419818560208601610546565b610422816105df565b840191505092915050565b6104368161053c565b82525050565b600060208201905061045160008301846103e5565b92915050565b6000604082019050818103600083015261047181856103f4565b9050818103602083015261048581846103f4565b90509392505050565b600060608201905081810360008301526104a881866103f4565b905081810360208301526104bc81856103f4565b90506104cb604083018461042d565b949350505050565b60006020820190506104e8600083018461042d565b92915050565b600081519050919050565b600082825260208201905092915050565b60006105158261051c565b9050919050565b600073ffffffffffffffffffffffffffffffffffffffff82169050919050565b6000819050919050565b60005b83811015610564578082015181840152602081019050610549565b83811115610573576000848401525b50505050565b6000600282049050600182168061059157607f821691505b602082108114156105a5576105a46105ab565b5b50919050565b7f4e487b7100000000000000000000000000000000000000000000000000000000600052602260045260246000fd5b600080fd5b6000601f19601f8301169050919050565b6105f98161053c565b811461060457600080fd5b5056fea26469706673582212203e937c546173976786bc227e35b5bfbbd0453f06ae2b8fec06fce7b741fcd6f964736f6c63430008070033",
					"opcodes": "PUSH1 0x80 PUSH1 0x40 MSTORE PUSH1 0x64 PUSH1 0x6 SSTORE PUSH1 0xA PUSH1 0x7 SSTORE CALLVALUE DUP1 ISZERO PUSH2 0x1A JUMPI PUSH1 0x0 DUP1 REVERT JUMPDEST POP CALLER PUSH1 0x0 DUP1 PUSH2 0x100 EXP DUP2 SLOAD DUP2 PUSH20 0xFFFFFFFFFFFFFFFFFFFFFFFFFFFFFFFFFFFFFFFF MUL NOT AND SWAP1 DUP4 PUSH20 0xFFFFFFFFFFFFFFFFFFFFFFFFFFFFFFFFFFFFFFFF AND MUL OR SWAP1 SSTORE POP PUSH1 0x6 SLOAD PUSH1 0x8 PUSH1 0x0 CALLER PUSH20 0xFFFFFFFFFFFFFFFFFFFFFFFFFFFFFFFFFFFFFFFF AND PUSH20 0xFFFFFFFFFFFFFFFFFFFFFFFFFFFFFFFFFFFFFFFF AND DUP2 MSTORE PUSH1 0x20 ADD SWAP1 DUP2 MSTORE PUSH1 0x20 ADD PUSH1 0x0 KECCAK256 DUP2 SWAP1 SSTORE POP PUSH2 0x63D DUP1 PUSH2 0xB0 PUSH1 0x0 CODECOPY PUSH1 0x0 RETURN INVALID PUSH1 0x80 PUSH1 0x40 MSTORE CALLVALUE DUP1 ISZERO PUSH2 0x10 JUMPI PUSH1 0x0 DUP1 REVERT JUMPDEST POP PUSH1 0x4 CALLDATASIZE LT PUSH2 0x57 JUMPI PUSH1 0x0 CALLDATALOAD PUSH1 0xE0 SHR DUP1 PUSH4 0x3A98EF39 EQ PUSH2 0x5C JUMPI DUP1 PUSH4 0x3BE75AA3 EQ PUSH2 0x7A JUMPI DUP1 PUSH4 0x8DA5CB5B EQ PUSH2 0x98 JUMPI DUP1 PUSH4 0xA14BA987 EQ PUSH2 0xB6 JUMPI DUP1 PUSH4 0xAAAC9718 EQ PUSH2 0xE7 JUMPI JUMPDEST PUSH1 0x0 DUP1 REVERT JUMPDEST PUSH2 0x64 PUSH2 0x107 JUMP JUMPDEST PUSH1 0x40 MLOAD PUSH2 0x71 SWAP2 SWAP1 PUSH2 0x4D3 JUMP JUMPDEST PUSH1 0x40 MLOAD DUP1 SWAP2 SUB SWAP1 RETURN JUMPDEST PUSH2 0x82 PUSH2 0x10D JUMP JUMPDEST PUSH1 0x40 MLOAD PUSH2 0x8F SWAP2 SWAP1 PUSH2 0x4D3 JUMP JUMPDEST PUSH1 0x40 MLOAD DUP1 SWAP2 SUB SWAP1 RETURN JUMPDEST PUSH2 0xA0 PUSH2 0x113 JUMP JUMPDEST PUSH1 0x40 MLOAD PUSH2 0xAD SWAP2 SWAP1 PUSH2 0x43C JUMP JUMPDEST PUSH1 0x40 MLOAD DUP1 SWAP2 SUB SWAP1 RETURN JUMPDEST PUSH2 0xD0 PUSH1 0x4 DUP1 CALLDATASIZE SUB DUP2 ADD SWAP1 PUSH2 0xCB SWAP2 SWAP1 PUSH2 0x3B8 JUMP JUMPDEST PUSH2 0x137 JUMP JUMPDEST PUSH1 0x40 MLOAD PUSH2 0xDE SWAP3 SWAP2 SWAP1 PUSH2 0x457 JUMP JUMPDEST PUSH1 0x40 MLOAD DUP1 SWAP2 SUB SWAP1 RETURN JUMPDEST PUSH2 0xEF PUSH2 0x27B JUMP JUMPDEST PUSH1 0x40 MLOAD PUSH2 0xFE SWAP4 SWAP3 SWAP2 SWAP1 PUSH2 0x48E JUMP JUMPDEST PUSH1 0x40 MLOAD DUP1 SWAP2 SUB SWAP1 RETURN JUMPDEST PUSH1 0x6 SLOAD DUP2 JUMP JUMPDEST PUSH1 0x7 SLOAD DUP2 JUMP JUMPDEST PUSH1 0x0 DUP1 SLOAD SWAP1 PUSH2 0x100 EXP SWAP1 DIV PUSH20 0xFFFFFFFFFFFFFFFFFFFFFFFFFFFFFFFFFFFFFFFF AND DUP2 JUMP JUMPDEST PUSH1 0x5 DUP2 DUP2 SLOAD DUP2 LT PUSH2 0x147 JUMPI PUSH1 0x0 DUP1 REVERT JUMPDEST SWAP1 PUSH1 0x0 MSTORE PUSH1 0x20 PUSH1 0x0 KECCAK256 SWAP1 PUSH1 0x3 MUL ADD PUSH1 0x0 SWAP2 POP SWAP1 POP DUP1 PUSH1 0x0 ADD DUP1 SLOAD PUSH2 0x16A SWAP1 PUSH2 0x579 JUMP JUMPDEST DUP1 PUSH1 0x1F ADD PUSH1 0x20 DUP1 SWAP2 DIV MUL PUSH1 0x20 ADD PUSH1 0x40 MLOAD SWAP1 DUP2 ADD PUSH1 0x40 MSTORE DUP1 SWAP3 SWAP2 SWAP1 DUP2 DUP2 MSTORE PUSH1 0x20 ADD DUP3 DUP1 SLOAD PUSH2 0x196 SWAP1 PUSH2 0x579 JUMP JUMPDEST DUP1 ISZERO PUSH2 0x1E3 JUMPI DUP1 PUSH1 0x1F LT PUSH2 0x1B8 JUMPI PUSH2 0x100 DUP1 DUP4 SLOAD DIV MUL DUP4 MSTORE SWAP2 PUSH1 0x20 ADD SWAP2 PUSH2 0x1E3 JUMP JUMPDEST DUP3 ADD SWAP2 SWAP1 PUSH1 0x0 MSTORE PUSH1 0x20 PUSH1 0x0 KECCAK256 SWAP1 JUMPDEST DUP2 SLOAD DUP2 MSTORE SWAP1 PUSH1 0x1 ADD SWAP1 PUSH1 0x20 ADD DUP1 DUP4 GT PUSH2 0x1C6 JUMPI DUP3 SWAP1 SUB PUSH1 0x1F AND DUP3 ADD SWAP2 JUMPDEST POP POP POP POP POP SWAP1 DUP1 PUSH1 0x1 ADD DUP1 SLOAD PUSH2 0x1F8 SWAP1 PUSH2 0x579 JUMP JUMPDEST DUP1 PUSH1 0x1F ADD PUSH1 0x20 DUP1 SWAP2 DIV MUL PUSH1 0x20 ADD PUSH1 0x40 MLOAD SWAP1 DUP2 ADD PUSH1 0x40 MSTORE DUP1 SWAP3 SWAP2 SWAP1 DUP2 DUP2 MSTORE PUSH1 0x20 ADD DUP3 DUP1 SLOAD PUSH2 0x224 SWAP1 PUSH2 0x579 JUMP JUMPDEST DUP1 ISZERO PUSH2 0x271 JUMPI DUP1 PUSH1 0x1F LT PUSH2 0x246 JUMPI PUSH2 0x100 DUP1 DUP4 SLOAD DIV MUL DUP4 MSTORE SWAP2 PUSH1 0x20 ADD SWAP2 PUSH2 0x271 JUMP JUMPDEST DUP3 ADD SWAP2 SWAP1 PUSH1 0x0 MSTORE PUSH1 0x20 PUSH1 0x0 KECCAK256 SWAP1 JUMPDEST DUP2 SLOAD DUP2 MSTORE SWAP1 PUSH1 0x1 ADD SWAP1 PUSH1 0x20 ADD DUP1 DUP4 GT PUSH2 0x254 JUMPI DUP3 SWAP1 SUB PUSH1 0x1F AND DUP3 ADD SWAP2 JUMPDEST POP POP POP POP POP SWAP1 POP DUP3 JUMP JUMPDEST PUSH1 0x1 DUP1 PUSH1 0x0 ADD DUP1 SLOAD PUSH2 0x28C SWAP1 PUSH2 0x579 JUMP JUMPDEST DUP1 PUSH1 0x1F ADD PUSH1 0x20 DUP1 SWAP2 DIV MUL PUSH1 0x20 ADD PUSH1 0x40 MLOAD SWAP1 DUP2 ADD PUSH1 0x40 MSTORE DUP1 SWAP3 SWAP2 SWAP1 DUP2 DUP2 MSTORE PUSH1 0x20 ADD DUP3 DUP1 SLOAD PUSH2 0x2B8 SWAP1 PUSH2 0x579 JUMP JUMPDEST DUP1 ISZERO PUSH2 0x305 JUMPI DUP1 PUSH1 0x1F LT PUSH2 0x2DA JUMPI PUSH2 0x100 DUP1 DUP4 SLOAD DIV MUL DUP4 MSTORE SWAP2 PUSH1 0x20 ADD SWAP2 PUSH2 0x305 JUMP JUMPDEST DUP3 ADD SWAP2 SWAP1 PUSH1 0x0 MSTORE PUSH1 0x20 PUSH1 0x0 KECCAK256 SWAP1 JUMPDEST DUP2 SLOAD DUP2 MSTORE SWAP1 PUSH1 0x1 ADD SWAP1 PUSH1 0x20 ADD DUP1 DUP4 GT PUSH2 0x2E8 JUMPI DUP3 SWAP1 SUB PUSH1 0x1F AND DUP3 ADD SWAP2 JUMPDEST POP POP POP POP POP SWAP1 DUP1 PUSH1 0x1 ADD DUP1 SLOAD PUSH2 0x31A SWAP1 PUSH2 0x579 JUMP JUMPDEST DUP1 PUSH1 0x1F ADD PUSH1 0x20 DUP1 SWAP2 DIV MUL PUSH1 0x20 ADD PUSH1 0x40 MLOAD SWAP1 DUP2 ADD PUSH1 0x40 MSTORE DUP1 SWAP3 SWAP2 SWAP1 DUP2 DUP2 MSTORE PUSH1 0x20 ADD DUP3 DUP1 SLOAD PUSH2 0x346 SWAP1 PUSH2 0x579 JUMP JUMPDEST DUP1 ISZERO PUSH2 0x393 JUMPI DUP1 PUSH1 0x1F LT PUSH2 0x368 JUMPI PUSH2 0x100 DUP1 DUP4 SLOAD DIV MUL DUP4 MSTORE SWAP2 PUSH1 0x20 ADD SWAP2 PUSH2 0x393 JUMP JUMPDEST DUP3 ADD SWAP2 SWAP1 PUSH1 0x0 MSTORE PUSH1 0x20 PUSH1 0x0 KECCAK256 SWAP1 JUMPDEST DUP2 SLOAD DUP2 MSTORE SWAP1 PUSH1 0x1 ADD SWAP1 PUSH1 0x20 ADD DUP1 DUP4 GT PUSH2 0x376 JUMPI DUP3 SWAP1 SUB PUSH1 0x1F AND DUP3 ADD SWAP2 JUMPDEST POP POP POP POP POP SWAP1 DUP1 PUSH1 0x3 ADD SLOAD SWAP1 POP DUP4 JUMP JUMPDEST PUSH1 0x0 DUP2 CALLDATALOAD SWAP1 POP PUSH2 0x3B2 DUP2 PUSH2 0x5F0 JUMP JUMPDEST SWAP3 SWAP2 POP POP JUMP JUMPDEST PUSH1 0x0 PUSH1 0x20 DUP3 DUP5 SUB SLT ISZERO PUSH2 0x3CE JUMPI PUSH2 0x3CD PUSH2 0x5DA JUMP JUMPDEST JUMPDEST PUSH1 0x0 PUSH2 0x3DC DUP5 DUP3 DUP6 ADD PUSH2 0x3A3 JUMP JUMPDEST SWAP2 POP POP SWAP3 SWAP2 POP POP JUMP JUMPDEST PUSH2 0x3EE DUP2 PUSH2 0x50A JUMP JUMPDEST DUP3 MSTORE POP POP JUMP JUMPDEST PUSH1 0x0 PUSH2 0x3FF DUP3 PUSH2 0x4EE JUMP JUMPDEST PUSH2 0x409 DUP2 DUP6 PUSH2 0x4F9 JUMP JUMPDEST SWAP4 POP PUSH2 0x419 DUP2 DUP6 PUSH1 0x20 DUP7 ADD PUSH2 0x546 JUMP JUMPDEST PUSH2 0x422 DUP2 PUSH2 0x5DF JUMP JUMPDEST DUP5 ADD SWAP2 POP POP SWAP3 SWAP2 POP POP JUMP JUMPDEST PUSH2 0x436 DUP2 PUSH2 0x53C JUMP JUMPDEST DUP3 MSTORE POP POP JUMP JUMPDEST PUSH1 0x0 PUSH1 0x20 DUP3 ADD SWAP1 POP PUSH2 0x451 PUSH1 0x0 DUP4 ADD DUP5 PUSH2 0x3E5 JUMP JUMPDEST SWAP3 SWAP2 POP POP JUMP JUMPDEST PUSH1 0x0 PUSH1 0x40 DUP3 ADD SWAP1 POP DUP2 DUP2 SUB PUSH1 0x0 DUP4 ADD MSTORE PUSH2 0x471 DUP2 DUP6 PUSH2 0x3F4 JUMP JUMPDEST SWAP1 POP DUP2 DUP2 SUB PUSH1 0x20 DUP4 ADD MSTORE PUSH2 0x485 DUP2 DUP5 PUSH2 0x3F4 JUMP JUMPDEST SWAP1 POP SWAP4 SWAP3 POP POP POP JUMP JUMPDEST PUSH1 0x0 PUSH1 0x60 DUP3 ADD SWAP1 POP DUP2 DUP2 SUB PUSH1 0x0 DUP4 ADD MSTORE PUSH2 0x4A8 DUP2 DUP7 PUSH2 0x3F4 JUMP JUMPDEST SWAP1 POP DUP2 DUP2 SUB PUSH1 0x20 DUP4 ADD MSTORE PUSH2 0x4BC DUP2 DUP6 PUSH2 0x3F4 JUMP JUMPDEST SWAP1 POP PUSH2 0x4CB PUSH1 0x40 DUP4 ADD DUP5 PUSH2 0x42D JUMP JUMPDEST SWAP5 SWAP4 POP POP POP POP JUMP JUMPDEST PUSH1 0x0 PUSH1 0x20 DUP3 ADD SWAP1 POP PUSH2 0x4E8 PUSH1 0x0 DUP4 ADD DUP5 PUSH2 0x42D JUMP JUMPDEST SWAP3 SWAP2 POP POP JUMP JUMPDEST PUSH1 0x0 DUP2 MLOAD SWAP1 POP SWAP2 SWAP1 POP JUMP JUMPDEST PUSH1 0x0 DUP3 DUP3 MSTORE PUSH1 0x20 DUP3 ADD SWAP1 POP SWAP3 SWAP2 POP POP JUMP JUMPDEST PUSH1 0x0 PUSH2 0x515 DUP3 PUSH2 0x51C JUMP JUMPDEST SWAP1 POP SWAP2 SWAP1 POP JUMP JUMPDEST PUSH1 0x0 PUSH20 0xFFFFFFFFFFFFFFFFFFFFFFFFFFFFFFFFFFFFFFFF DUP3 AND SWAP1 POP SWAP2 SWAP1 POP JUMP JUMPDEST PUSH1 0x0 DUP2 SWAP1 POP SWAP2 SWAP1 POP JUMP JUMPDEST PUSH1 0x0 JUMPDEST DUP4 DUP2 LT ISZERO PUSH2 0x564 JUMPI DUP1 DUP3 ADD MLOAD DUP2 DUP5 ADD MSTORE PUSH1 0x20 DUP2 ADD SWAP1 POP PUSH2 0x549 JUMP JUMPDEST DUP4 DUP2 GT ISZERO PUSH2 0x573 JUMPI PUSH1 0x0 DUP5 DUP5 ADD MSTORE JUMPDEST POP POP POP POP JUMP JUMPDEST PUSH1 0x0 PUSH1 0x2 DUP3 DIV SWAP1 POP PUSH1 0x1 DUP3 AND DUP1 PUSH2 0x591 JUMPI PUSH1 0x7F DUP3 AND SWAP2 POP JUMPDEST PUSH1 0x20 DUP3 LT DUP2 EQ ISZERO PUSH2 0x5A5 JUMPI PUSH2 0x5A4 PUSH2 0x5AB JUMP JUMPDEST JUMPDEST POP SWAP2 SWAP1 POP JUMP JUMPDEST PUSH32 0x4E487B7100000000000000000000000000000000000000000000000000000000 PUSH1 0x0 MSTORE PUSH1 0x22 PUSH1 0x4 MSTORE PUSH1 0x24 PUSH1 0x0 REVERT JUMPDEST PUSH1 0x0 DUP1 REVERT JUMPDEST PUSH1 0x0 PUSH1 0x1F NOT PUSH1 0x1F DUP4 ADD AND SWAP1 POP SWAP2 SWAP1 POP JUMP JUMPDEST PUSH2 0x5F9 DUP2 PUSH2 0x53C JUMP JUMPDEST DUP2 EQ PUSH2 0x604 JUMPI PUSH1 0x0 DUP1 REVERT JUMPDEST POP JUMP INVALID LOG2 PUSH5 0x6970667358 0x22 SLT KECCAK256 RETURNDATACOPY SWAP4 PUSH29 0x546173976786BC227E35B5BFBBD0453F06AE2B8FEC06FCE7B741FCD6F9 PUSH5 0x736F6C6343 STOP ADDMOD SMOD STOP CALLER "
				},
				"gasEstimates": {
					"creation": {
						"codeDepositCost": "319400",
						"executionCost": "93136",
						"totalCost": "412536"
					},
					"external": {
						"houseRegister(uint256)": "infinite",
						"owner()": "2533",
						"package()": "infinite",
						"shareLimit()": "2429",
						"totalShares()": "2407"
					}
				},
				"methodIdentifiers": {
					"houseRegister(uint256)": "a14ba987",
					"owner()": "8da5cb5b",
					"package()": "aaac9718",
					"shareLimit()": "3be75aa3",
					"totalShares()": "3a98ef39"
				}
			},
			"storageLayout": {
				"storage": [
					{
						"astId": 3,
						"contract": "MyHomeToken.sol:MyHomesToken",
						"label": "owner",
						"offset": 0,
						"slot": "0",
						"type": "t_address"
					},
					{
						"astId": 6,
						"contract": "MyHomeToken.sol:MyHomesToken",
						"label": "package",
						"offset": 0,
						"slot": "1",
						"type": "t_struct(HousingPackage)39_storage"
					},
					{
						"astId": 10,
						"contract": "MyHomeToken.sol:MyHomesToken",
						"label": "houseRegister",
						"offset": 0,
						"slot": "5",
						"type": "t_array(t_struct(House)28_storage)dyn_storage"
					},
					{
						"astId": 13,
						"contract": "MyHomeToken.sol:MyHomesToken",
						"label": "totalShares",
						"offset": 0,
						"slot": "6",
						"type": "t_uint256"
					},
					{
						"astId": 16,
						"contract": "MyHomeToken.sol:MyHomesToken",
						"label": "shareLimit",
						"offset": 0,
						"slot": "7",
						"type": "t_uint256"
					},
					{
						"astId": 20,
						"contract": "MyHomeToken.sol:MyHomesToken",
						"label": "_balanceOf",
						"offset": 0,
						"slot": "8",
						"type": "t_mapping(t_address,t_uint256)"
					}
				],
				"types": {
					"t_address": {
						"encoding": "inplace",
						"label": "address",
						"numberOfBytes": "20"
					},
					"t_array(t_address)dyn_storage": {
						"base": "t_address",
						"encoding": "dynamic_array",
						"label": "address[]",
						"numberOfBytes": "32"
					},
					"t_array(t_struct(House)28_storage)dyn_storage": {
						"base": "t_struct(House)28_storage",
						"encoding": "dynamic_array",
						"label": "struct MyHomesToken.House[]",
						"numberOfBytes": "32"
					},
					"t_mapping(t_address,t_uint256)": {
						"encoding": "mapping",
						"key": "t_address",
						"label": "mapping(address => uint256)",
						"numberOfBytes": "32",
						"value": "t_uint256"
					},
					"t_string_storage": {
						"encoding": "bytes",
						"label": "string",
						"numberOfBytes": "32"
					},
					"t_struct(House)28_storage": {
						"encoding": "inplace",
						"label": "struct MyHomesToken.House",
						"members": [
							{
								"astId": 22,
								"contract": "MyHomeToken.sol:MyHomesToken",
								"label": "registrationId",
								"offset": 0,
								"slot": "0",
								"type": "t_string_storage"
							},
							{
								"astId": 24,
								"contract": "MyHomeToken.sol:MyHomesToken",
								"label": "physicalAddress",
								"offset": 0,
								"slot": "1",
								"type": "t_string_storage"
							},
							{
								"astId": 27,
								"contract": "MyHomeToken.sol:MyHomesToken",
								"label": "owners",
								"offset": 0,
								"slot": "2",
								"type": "t_array(t_address)dyn_storage"
							}
						],
						"numberOfBytes": "96"
					},
					"t_struct(HousingPackage)39_storage": {
						"encoding": "inplace",
						"label": "struct MyHomesToken.HousingPackage",
						"members": [
							{
								"astId": 30,
								"contract": "MyHomeToken.sol:MyHomesToken",
								"label": "name",
								"offset": 0,
								"slot": "0",
								"type": "t_string_storage"
							},
							{
								"astId": 32,
								"contract": "MyHomeToken.sol:MyHomesToken",
								"label": "description",
								"offset": 0,
								"slot": "1",
								"type": "t_string_storage"
							},
							{
								"astId": 36,
								"contract": "MyHomeToken.sol:MyHomesToken",
								"label": "residences",
								"offset": 0,
								"slot": "2",
								"type": "t_array(t_struct(House)28_storage)dyn_storage"
							},
							{
								"astId": 38,
								"contract": "MyHomeToken.sol:MyHomesToken",
								"label": "price",
								"offset": 0,
								"slot": "3",
								"type": "t_uint256"
							}
						],
						"numberOfBytes": "128"
					},
					"t_uint256": {
						"encoding": "inplace",
						"label": "uint256",
						"numberOfBytes": "32"
					}
				}
			},
			"userdoc": {
				"kind": "user",
				"methods": {},
				"version": 1
			}
		}
	}
}