{
	"MyHomeToken.sol": {
		"MyHomesToken": {
			"abi": [
				{
					"inputs": [
						{
							"internalType": "string",
							"name": "_name",
							"type": "string"
						},
						{
							"internalType": "string",
							"name": "_description",
							"type": "string"
						}
					],
					"stateMutability": "payable",
					"type": "constructor"
				},
				{
					"anonymous": false,
					"inputs": [
						{
							"indexed": false,
							"internalType": "string",
							"name": "id",
							"type": "string"
						}
					],
					"name": "NewHouseAdded",
					"type": "event"
				},
				{
					"anonymous": false,
					"inputs": [
						{
							"indexed": false,
							"internalType": "address",
							"name": "sh",
							"type": "address"
						}
					],
					"name": "ShareHolderAdded",
					"type": "event"
				},
				{
					"anonymous": false,
					"inputs": [
						{
							"indexed": false,
							"internalType": "address",
							"name": "shareHolder",
							"type": "address"
						}
					],
					"name": "voteDone",
					"type": "event"
				},
				{
					"anonymous": false,
					"inputs": [
						{
							"indexed": false,
							"internalType": "uint256",
							"name": "finalResult",
							"type": "uint256"
						}
					],
					"name": "voteEnded",
					"type": "event"
				},
				{
					"anonymous": false,
					"inputs": [],
					"name": "voteStarted",
					"type": "event"
				},
				{
					"inputs": [
						{
							"internalType": "string",
							"name": "_registrationId",
							"type": "string"
						},
						{
							"internalType": "string",
							"name": "location",
							"type": "string"
						},
						{
							"internalType": "uint256",
							"name": "price",
							"type": "uint256"
						}
					],
					"name": "addHouse",
					"outputs": [],
					"stateMutability": "nonpayable",
					"type": "function"
				},
				{
					"inputs": [
						{
							"internalType": "address",
							"name": "_shareHolderAddress",
							"type": "address"
						}
					],
					"name": "addShareHolder",
					"outputs": [],
					"stateMutability": "nonpayable",
					"type": "function"
				},
				{
					"inputs": [
						{
							"internalType": "address",
							"name": "",
							"type": "address"
						}
					],
					"name": "balances",
					"outputs": [
						{
							"internalType": "uint256",
							"name": "",
							"type": "uint256"
						}
					],
					"stateMutability": "view",
					"type": "function"
				},
				{
					"inputs": [
						{
							"internalType": "uint256",
							"name": "",
							"type": "uint256"
						}
					],
					"name": "ballotHistory",
					"outputs": [
						{
							"internalType": "string",
							"name": "ballotId",
							"type": "string"
						},
						{
							"internalType": "address",
							"name": "ballotOwner",
							"type": "address"
						},
						{
							"internalType": "string",
							"name": "proposal",
							"type": "string"
						},
						{
							"internalType": "uint256",
							"name": "finalResult",
							"type": "uint256"
						},
						{
							"internalType": "uint256",
							"name": "totalVotes",
							"type": "uint256"
						}
					],
					"stateMutability": "view",
					"type": "function"
				},
				{
					"inputs": [
						{
							"internalType": "uint256",
							"name": "tokenNum",
							"type": "uint256"
						}
					],
					"name": "buy",
					"outputs": [],
					"stateMutability": "payable",
					"type": "function"
				},
				{
					"inputs": [
						{
							"internalType": "string",
							"name": "_proposal",
							"type": "string"
						}
					],
					"name": "createBallot",
					"outputs": [],
					"stateMutability": "nonpayable",
					"type": "function"
				},
				{
					"inputs": [],
					"name": "currentBallot",
					"outputs": [
						{
							"internalType": "string",
							"name": "ballotId",
							"type": "string"
						},
						{
							"internalType": "address",
							"name": "ballotOwner",
							"type": "address"
						},
						{
							"internalType": "string",
							"name": "proposal",
							"type": "string"
						},
						{
							"internalType": "uint256",
							"name": "finalResult",
							"type": "uint256"
						},
						{
							"internalType": "uint256",
							"name": "totalVotes",
							"type": "uint256"
						}
					],
					"stateMutability": "view",
					"type": "function"
				},
				{
					"inputs": [
						{
							"internalType": "bool",
							"name": "_choice",
							"type": "bool"
						}
					],
					"name": "doVote",
					"outputs": [
						{
							"internalType": "bool",
							"name": "voted",
							"type": "bool"
						}
					],
					"stateMutability": "nonpayable",
					"type": "function"
				},
				{
					"inputs": [],
					"name": "endVote",
					"outputs": [],
					"stateMutability": "nonpayable",
					"type": "function"
				},
				{
					"inputs": [
						{
							"internalType": "address",
							"name": "_addr",
							"type": "address"
						}
					],
					"name": "etherBalance",
					"outputs": [
						{
							"internalType": "uint256",
							"name": "",
							"type": "uint256"
						}
					],
					"stateMutability": "view",
					"type": "function"
				},
				{
					"inputs": [
						{
							"internalType": "uint256",
							"name": "",
							"type": "uint256"
						}
					],
					"name": "houseRegister",
					"outputs": [
						{
							"internalType": "string",
							"name": "registrationId",
							"type": "string"
						},
						{
							"internalType": "string",
							"name": "physicalAddress",
							"type": "string"
						},
						{
							"internalType": "uint256",
							"name": "price",
							"type": "uint256"
						}
					],
					"stateMutability": "view",
					"type": "function"
				},
				{
					"inputs": [],
					"name": "hp",
					"outputs": [
						{
							"internalType": "string",
							"name": "name",
							"type": "string"
						},
						{
							"internalType": "string",
							"name": "description",
							"type": "string"
						},
						{
							"internalType": "uint256",
							"name": "totalValue",
							"type": "uint256"
						}
					],
					"stateMutability": "view",
					"type": "function"
				},
				{
					"inputs": [],
					"name": "owner",
					"outputs": [
						{
							"internalType": "address payable",
							"name": "",
							"type": "address"
						}
					],
					"stateMutability": "view",
					"type": "function"
				},
				{
					"inputs": [
						{
							"internalType": "address",
							"name": "_shareHolderAddress",
							"type": "address"
						}
					],
					"name": "removeShareHolder",
					"outputs": [],
					"stateMutability": "nonpayable",
					"type": "function"
				},
				{
					"inputs": [
						{
							"internalType": "uint256",
							"name": "tokenNum",
							"type": "uint256"
						}
					],
					"name": "sellToOwner",
					"outputs": [],
					"stateMutability": "payable",
					"type": "function"
				},
				{
					"inputs": [
						{
							"internalType": "address",
							"name": "",
							"type": "address"
						}
					],
					"name": "shareHolderRegistry",
					"outputs": [
						{
							"internalType": "bool",
							"name": "",
							"type": "bool"
						}
					],
					"stateMutability": "view",
					"type": "function"
				},
				{
					"inputs": [
						{
							"internalType": "uint256",
							"name": "",
							"type": "uint256"
						}
					],
					"name": "shareHolders",
					"outputs": [
						{
							"internalType": "address",
							"name": "",
							"type": "address"
						}
					],
					"stateMutability": "view",
					"type": "function"
				},
				{
					"inputs": [],
					"name": "shareLimit",
					"outputs": [
						{
							"internalType": "uint256",
							"name": "",
							"type": "uint256"
						}
					],
					"stateMutability": "view",
					"type": "function"
				},
				{
					"inputs": [],
					"name": "startTrading",
					"outputs": [],
					"stateMutability": "nonpayable",
					"type": "function"
				},
				{
					"inputs": [],
					"name": "startVote",
					"outputs": [],
					"stateMutability": "nonpayable",
					"type": "function"
				},
				{
					"inputs": [],
					"name": "tokenPrice",
					"outputs": [
						{
							"internalType": "uint256",
							"name": "",
							"type": "uint256"
						}
					],
					"stateMutability": "view",
					"type": "function"
				},
				{
					"inputs": [],
					"name": "totalBallots",
					"outputs": [
						{
							"internalType": "uint256",
							"name": "",
							"type": "uint256"
						}
					],
					"stateMutability": "view",
					"type": "function"
				},
				{
					"inputs": [],
					"name": "totalHouses",
					"outputs": [
						{
							"internalType": "uint256",
							"name": "",
							"type": "uint256"
						}
					],
					"stateMutability": "view",
					"type": "function"
				},
				{
					"inputs": [],
					"name": "totalShareHolders",
					"outputs": [
						{
							"internalType": "uint256",
							"name": "",
							"type": "uint256"
						}
					],
					"stateMutability": "view",
					"type": "function"
				},
				{
					"inputs": [],
					"name": "totalShares",
					"outputs": [
						{
							"internalType": "uint256",
							"name": "",
							"type": "uint256"
						}
					],
					"stateMutability": "view",
					"type": "function"
				},
				{
					"inputs": [
						{
							"internalType": "address",
							"name": "_to",
							"type": "address"
						},
						{
							"internalType": "uint256",
							"name": "_value",
							"type": "uint256"
						}
					],
					"name": "transfer",
					"outputs": [],
					"stateMutability": "nonpayable",
					"type": "function"
				}
			],
			"devdoc": {
				"kind": "dev",
				"methods": {},
				"version": 1
			},
			"evm": {
				"assembly": "    /* \"MyHomeToken.sol\":118:6203  contract MyHomesToken {... */\n  mstore(0x40, 0x80)\n    /* \"MyHomeToken.sol\":270:271  0 */\n  0x00\n    /* \"MyHomeToken.sol\":244:271  uint public totalHouses = 0 */\n  0x05\n  sstore\n    /* \"MyHomeToken.sol\":306:309  100 */\n  0x64\n    /* \"MyHomeToken.sol\":277:309  uint256 public totalShares = 100 */\n  0x06\n  sstore\n    /* \"MyHomeToken.sol\":343:344  1 */\n  0x01\n    /* \"MyHomeToken.sol\":315:344  uint256 public tokenPrice = 1 */\n  0x07\n  sstore\n    /* \"MyHomeToken.sol\":378:380  10 */\n  0x0a\n    /* \"MyHomeToken.sol\":350:380  uint256 public shareLimit = 10 */\n  0x08\n  sstore\n    /* \"MyHomeToken.sol\":418:419  0 */\n  0x00\n    /* \"MyHomeToken.sol\":386:419  uint public totalShareHolders = 0 */\n  0x09\n  sstore\n    /* \"MyHomeToken.sol\":685:686  0 */\n  0x00\n    /* \"MyHomeToken.sol\":658:686  uint public totalBallots = 0 */\n  0x0f\n  sstore\n    /* \"MyHomeToken.sol\":836:1115  constructor(string memory _name, string memory _description) payable {... */\n  mload(0x40)\n  sub(codesize, bytecodeSize)\n  dup1\n  bytecodeSize\n  dup4\n  codecopy\n  dup2\n  dup2\n  add\n  0x40\n  mstore\n  dup2\n  add\n  swap1\n  tag_1\n  swap2\n  swap1\n  tag_2\n  jump\t// in\ntag_1:\n    /* \"MyHomeToken.sol\":931:941  msg.sender */\n  caller\n    /* \"MyHomeToken.sol\":915:920  owner */\n  0x00\n  dup1\n    /* \"MyHomeToken.sol\":915:942  owner = payable(msg.sender) */\n  0x0100\n  exp\n  dup2\n  sload\n  dup2\n  0xffffffffffffffffffffffffffffffffffffffff\n  mul\n  not\n  and\n  swap1\n  dup4\n  0xffffffffffffffffffffffffffffffffffffffff\n  and\n  mul\n  or\n  swap1\n  sstore\n  pop\n    /* \"MyHomeToken.sol\":975:986  totalShares */\n  sload(0x06)\n    /* \"MyHomeToken.sol\":952:960  balances */\n  0x0d\n    /* \"MyHomeToken.sol\":952:972  balances[msg.sender] */\n  0x00\n    /* \"MyHomeToken.sol\":961:971  msg.sender */\n  caller\n    /* \"MyHomeToken.sol\":952:972  balances[msg.sender] */\n  0xffffffffffffffffffffffffffffffffffffffff\n  and\n  0xffffffffffffffffffffffffffffffffffffffff\n  and\n  dup2\n  mstore\n  0x20\n  add\n  swap1\n  dup2\n  mstore\n  0x20\n  add\n  0x00\n  keccak256\n    /* \"MyHomeToken.sol\":952:986  balances[msg.sender] = totalShares */\n  dup2\n  swap1\n  sstore\n  pop\n    /* \"MyHomeToken.sol\":1006:1011  _name */\n  dup2\n    /* \"MyHomeToken.sol\":996:998  hp */\n  0x01\n    /* \"MyHomeToken.sol\":996:1003  hp.name */\n  0x00\n  add\n    /* \"MyHomeToken.sol\":996:1011  hp.name = _name */\n  swap1\n  dup1\n  mload\n  swap1\n  0x20\n  add\n  swap1\n  tag_5\n  swap3\n  swap2\n  swap1\n  tag_6\n  jump\t// in\ntag_5:\n  pop\n    /* \"MyHomeToken.sol\":1038:1050  _description */\n  dup1\n    /* \"MyHomeToken.sol\":1021:1023  hp */\n  0x01\n    /* \"MyHomeToken.sol\":1021:1035  hp.description */\n  dup1\n  add\n    /* \"MyHomeToken.sol\":1021:1050  hp.description = _description */\n  swap1\n  dup1\n  mload\n  swap1\n  0x20\n  add\n  swap1\n  tag_7\n  swap3\n  swap2\n  swap1\n  tag_6\n  jump\t// in\ntag_7:\n  pop\n    /* \"MyHomeToken.sol\":1076:1077  0 */\n  0x00\n    /* \"MyHomeToken.sol\":1060:1062  hp */\n  0x01\n    /* \"MyHomeToken.sol\":1060:1073  hp.totalValue */\n  0x02\n  add\n    /* \"MyHomeToken.sol\":1060:1077  hp.totalValue = 0 */\n  dup2\n  swap1\n  sstore\n  pop\n    /* \"MyHomeToken.sol\":1095:1108  State.Created */\n  0x00\n    /* \"MyHomeToken.sol\":1087:1092  state */\n  0x0a\n  0x00\n    /* \"MyHomeToken.sol\":1087:1108  state = State.Created */\n  0x0100\n  exp\n  dup2\n  sload\n  dup2\n  0xff\n  mul\n  not\n  and\n  swap1\n  dup4\n  0x01\n  dup2\n  gt\n  iszero\n  tag_8\n  jumpi\n  tag_9\n  tag_10\n  jump\t// in\ntag_9:\ntag_8:\n  mul\n  or\n  swap1\n  sstore\n  pop\n    /* \"MyHomeToken.sol\":836:1115  constructor(string memory _name, string memory _description) payable {... */\n  pop\n  pop\n    /* \"MyHomeToken.sol\":118:6203  contract MyHomesToken {... */\n  jump(tag_11)\ntag_6:\n  dup3\n  dup1\n  sload\n  tag_12\n  swap1\n  tag_13\n  jump\t// in\ntag_12:\n  swap1\n  0x00\n  mstore\n  keccak256(0x00, 0x20)\n  swap1\n  0x1f\n  add\n  0x20\n  swap1\n  div\n  dup2\n  add\n  swap3\n  dup3\n  tag_15\n  jumpi\n  0x00\n  dup6\n  sstore\n  jump(tag_14)\ntag_15:\n  dup3\n  0x1f\n  lt\n  tag_16\n  jumpi\n  dup1\n  mload\n  not(0xff)\n  and\n  dup4\n  dup1\n  add\n  or\n  dup6\n  sstore\n  jump(tag_14)\ntag_16:\n  dup3\n  dup1\n  add\n  0x01\n  add\n  dup6\n  sstore\n  dup3\n  iszero\n  tag_14\n  jumpi\n  swap2\n  dup3\n  add\ntag_17:\n  dup3\n  dup2\n  gt\n  iszero\n  tag_18\n  jumpi\n  dup3\n  mload\n  dup3\n  sstore\n  swap2\n  0x20\n  add\n  swap2\n  swap1\n  0x01\n  add\n  swap1\n  jump(tag_17)\ntag_18:\ntag_14:\n  pop\n  swap1\n  pop\n  tag_19\n  swap2\n  swap1\n  tag_20\n  jump\t// in\ntag_19:\n  pop\n  swap1\n  jump\t// out\ntag_20:\ntag_21:\n  dup1\n  dup3\n  gt\n  iszero\n  tag_22\n  jumpi\n  0x00\n  dup2\n  0x00\n  swap1\n  sstore\n  pop\n  0x01\n  add\n  jump(tag_21)\ntag_22:\n  pop\n  swap1\n  jump\t// out\n    /* \"#utility.yul\":7:428   */\ntag_24:\n    /* \"#utility.yul\":96:101   */\n  0x00\n    /* \"#utility.yul\":121:187   */\n  tag_26\n    /* \"#utility.yul\":137:186   */\n  tag_27\n    /* \"#utility.yul\":179:185   */\n  dup5\n    /* \"#utility.yul\":137:186   */\n  tag_28\n  jump\t// in\ntag_27:\n    /* \"#utility.yul\":121:187   */\n  tag_29\n  jump\t// in\ntag_26:\n    /* \"#utility.yul\":112:187   */\n  swap1\n  pop\n    /* \"#utility.yul\":210:216   */\n  dup3\n    /* \"#utility.yul\":203:208   */\n  dup2\n    /* \"#utility.yul\":196:217   */\n  mstore\n    /* \"#utility.yul\":248:252   */\n  0x20\n    /* \"#utility.yul\":241:246   */\n  dup2\n    /* \"#utility.yul\":237:253   */\n  add\n    /* \"#utility.yul\":286:289   */\n  dup5\n    /* \"#utility.yul\":277:283   */\n  dup5\n    /* \"#utility.yul\":272:275   */\n  dup5\n    /* \"#utility.yul\":268:284   */\n  add\n    /* \"#utility.yul\":265:290   */\n  gt\n    /* \"#utility.yul\":262:374   */\n  iszero\n  tag_30\n  jumpi\n    /* \"#utility.yul\":293:372   */\n  tag_31\n  tag_32\n  jump\t// in\ntag_31:\n    /* \"#utility.yul\":262:374   */\ntag_30:\n    /* \"#utility.yul\":383:422   */\n  tag_33\n    /* \"#utility.yul\":415:421   */\n  dup5\n    /* \"#utility.yul\":410:413   */\n  dup3\n    /* \"#utility.yul\":405:408   */\n  dup6\n    /* \"#utility.yul\":383:422   */\n  tag_34\n  jump\t// in\ntag_33:\n    /* \"#utility.yul\":102:428   */\n  pop\n    /* \"#utility.yul\":7:428   */\n  swap4\n  swap3\n  pop\n  pop\n  pop\n  jump\t// out\n    /* \"#utility.yul\":448:803   */\ntag_35:\n    /* \"#utility.yul\":515:520   */\n  0x00\n    /* \"#utility.yul\":564:567   */\n  dup3\n    /* \"#utility.yul\":557:561   */\n  0x1f\n    /* \"#utility.yul\":549:555   */\n  dup4\n    /* \"#utility.yul\":545:562   */\n  add\n    /* \"#utility.yul\":541:568   */\n  slt\n    /* \"#utility.yul\":531:653   */\n  tag_37\n  jumpi\n    /* \"#utility.yul\":572:651   */\n  tag_38\n  tag_39\n  jump\t// in\ntag_38:\n    /* \"#utility.yul\":531:653   */\ntag_37:\n    /* \"#utility.yul\":682:688   */\n  dup2\n    /* \"#utility.yul\":676:689   */\n  mload\n    /* \"#utility.yul\":707:797   */\n  tag_40\n    /* \"#utility.yul\":793:796   */\n  dup5\n    /* \"#utility.yul\":785:791   */\n  dup3\n    /* \"#utility.yul\":778:782   */\n  0x20\n    /* \"#utility.yul\":770:776   */\n  dup7\n    /* \"#utility.yul\":766:783   */\n  add\n    /* \"#utility.yul\":707:797   */\n  tag_24\n  jump\t// in\ntag_40:\n    /* \"#utility.yul\":698:797   */\n  swap2\n  pop\n    /* \"#utility.yul\":521:803   */\n  pop\n    /* \"#utility.yul\":448:803   */\n  swap3\n  swap2\n  pop\n  pop\n  jump\t// out\n    /* \"#utility.yul\":809:1662   */\ntag_2:\n    /* \"#utility.yul\":908:914   */\n  0x00\n    /* \"#utility.yul\":916:922   */\n  dup1\n    /* \"#utility.yul\":965:967   */\n  0x40\n    /* \"#utility.yul\":953:962   */\n  dup4\n    /* \"#utility.yul\":944:951   */\n  dup6\n    /* \"#utility.yul\":940:963   */\n  sub\n    /* \"#utility.yul\":936:968   */\n  slt\n    /* \"#utility.yul\":933:1052   */\n  iszero\n  tag_42\n  jumpi\n    /* \"#utility.yul\":971:1050   */\n  tag_43\n  tag_44\n  jump\t// in\ntag_43:\n    /* \"#utility.yul\":933:1052   */\ntag_42:\n    /* \"#utility.yul\":1112:1113   */\n  0x00\n    /* \"#utility.yul\":1101:1110   */\n  dup4\n    /* \"#utility.yul\":1097:1114   */\n  add\n    /* \"#utility.yul\":1091:1115   */\n  mload\n    /* \"#utility.yul\":1142:1160   */\n  0xffffffffffffffff\n    /* \"#utility.yul\":1134:1140   */\n  dup2\n    /* \"#utility.yul\":1131:1161   */\n  gt\n    /* \"#utility.yul\":1128:1245   */\n  iszero\n  tag_45\n  jumpi\n    /* \"#utility.yul\":1164:1243   */\n  tag_46\n  tag_47\n  jump\t// in\ntag_46:\n    /* \"#utility.yul\":1128:1245   */\ntag_45:\n    /* \"#utility.yul\":1269:1343   */\n  tag_48\n    /* \"#utility.yul\":1335:1342   */\n  dup6\n    /* \"#utility.yul\":1326:1332   */\n  dup3\n    /* \"#utility.yul\":1315:1324   */\n  dup7\n    /* \"#utility.yul\":1311:1333   */\n  add\n    /* \"#utility.yul\":1269:1343   */\n  tag_35\n  jump\t// in\ntag_48:\n    /* \"#utility.yul\":1259:1343   */\n  swap3\n  pop\n    /* \"#utility.yul\":1062:1353   */\n  pop\n    /* \"#utility.yul\":1413:1415   */\n  0x20\n    /* \"#utility.yul\":1402:1411   */\n  dup4\n    /* \"#utility.yul\":1398:1416   */\n  add\n    /* \"#utility.yul\":1392:1417   */\n  mload\n    /* \"#utility.yul\":1444:1462   */\n  0xffffffffffffffff\n    /* \"#utility.yul\":1436:1442   */\n  dup2\n    /* \"#utility.yul\":1433:1463   */\n  gt\n    /* \"#utility.yul\":1430:1547   */\n  iszero\n  tag_49\n  jumpi\n    /* \"#utility.yul\":1466:1545   */\n  tag_50\n  tag_47\n  jump\t// in\ntag_50:\n    /* \"#utility.yul\":1430:1547   */\ntag_49:\n    /* \"#utility.yul\":1571:1645   */\n  tag_51\n    /* \"#utility.yul\":1637:1644   */\n  dup6\n    /* \"#utility.yul\":1628:1634   */\n  dup3\n    /* \"#utility.yul\":1617:1626   */\n  dup7\n    /* \"#utility.yul\":1613:1635   */\n  add\n    /* \"#utility.yul\":1571:1645   */\n  tag_35\n  jump\t// in\ntag_51:\n    /* \"#utility.yul\":1561:1645   */\n  swap2\n  pop\n    /* \"#utility.yul\":1363:1655   */\n  pop\n    /* \"#utility.yul\":809:1662   */\n  swap3\n  pop\n  swap3\n  swap1\n  pop\n  jump\t// out\n    /* \"#utility.yul\":1668:1797   */\ntag_29:\n    /* \"#utility.yul\":1702:1708   */\n  0x00\n    /* \"#utility.yul\":1729:1749   */\n  tag_53\n  tag_54\n  jump\t// in\ntag_53:\n    /* \"#utility.yul\":1719:1749   */\n  swap1\n  pop\n    /* \"#utility.yul\":1758:1791   */\n  tag_55\n    /* \"#utility.yul\":1786:1790   */\n  dup3\n    /* \"#utility.yul\":1778:1784   */\n  dup3\n    /* \"#utility.yul\":1758:1791   */\n  tag_56\n  jump\t// in\ntag_55:\n    /* \"#utility.yul\":1668:1797   */\n  swap2\n  swap1\n  pop\n  jump\t// out\n    /* \"#utility.yul\":1803:1878   */\ntag_54:\n    /* \"#utility.yul\":1836:1842   */\n  0x00\n    /* \"#utility.yul\":1869:1871   */\n  0x40\n    /* \"#utility.yul\":1863:1872   */\n  mload\n    /* \"#utility.yul\":1853:1872   */\n  swap1\n  pop\n    /* \"#utility.yul\":1803:1878   */\n  swap1\n  jump\t// out\n    /* \"#utility.yul\":1884:2192   */\ntag_28:\n    /* \"#utility.yul\":1946:1950   */\n  0x00\n    /* \"#utility.yul\":2036:2054   */\n  0xffffffffffffffff\n    /* \"#utility.yul\":2028:2034   */\n  dup3\n    /* \"#utility.yul\":2025:2055   */\n  gt\n    /* \"#utility.yul\":2022:2078   */\n  iszero\n  tag_59\n  jumpi\n    /* \"#utility.yul\":2058:2076   */\n  tag_60\n  tag_61\n  jump\t// in\ntag_60:\n    /* \"#utility.yul\":2022:2078   */\ntag_59:\n    /* \"#utility.yul\":2096:2125   */\n  tag_62\n    /* \"#utility.yul\":2118:2124   */\n  dup3\n    /* \"#utility.yul\":2096:2125   */\n  tag_63\n  jump\t// in\ntag_62:\n    /* \"#utility.yul\":2088:2125   */\n  swap1\n  pop\n    /* \"#utility.yul\":2180:2184   */\n  0x20\n    /* \"#utility.yul\":2174:2178   */\n  dup2\n    /* \"#utility.yul\":2170:2185   */\n  add\n    /* \"#utility.yul\":2162:2185   */\n  swap1\n  pop\n    /* \"#utility.yul\":1884:2192   */\n  swap2\n  swap1\n  pop\n  jump\t// out\n    /* \"#utility.yul\":2198:2505   */\ntag_34:\n    /* \"#utility.yul\":2266:2267   */\n  0x00\n    /* \"#utility.yul\":2276:2389   */\ntag_65:\n    /* \"#utility.yul\":2290:2296   */\n  dup4\n    /* \"#utility.yul\":2287:2288   */\n  dup2\n    /* \"#utility.yul\":2284:2297   */\n  lt\n    /* \"#utility.yul\":2276:2389   */\n  iszero\n  tag_67\n  jumpi\n    /* \"#utility.yul\":2375:2376   */\n  dup1\n    /* \"#utility.yul\":2370:2373   */\n  dup3\n    /* \"#utility.yul\":2366:2377   */\n  add\n    /* \"#utility.yul\":2360:2378   */\n  mload\n    /* \"#utility.yul\":2356:2357   */\n  dup2\n    /* \"#utility.yul\":2351:2354   */\n  dup5\n    /* \"#utility.yul\":2347:2358   */\n  add\n    /* \"#utility.yul\":2340:2379   */\n  mstore\n    /* \"#utility.yul\":2312:2314   */\n  0x20\n    /* \"#utility.yul\":2309:2310   */\n  dup2\n    /* \"#utility.yul\":2305:2315   */\n  add\n    /* \"#utility.yul\":2300:2315   */\n  swap1\n  pop\n    /* \"#utility.yul\":2276:2389   */\n  jump(tag_65)\ntag_67:\n    /* \"#utility.yul\":2407:2413   */\n  dup4\n    /* \"#utility.yul\":2404:2405   */\n  dup2\n    /* \"#utility.yul\":2401:2414   */\n  gt\n    /* \"#utility.yul\":2398:2499   */\n  iszero\n  tag_68\n  jumpi\n    /* \"#utility.yul\":2487:2488   */\n  0x00\n    /* \"#utility.yul\":2478:2484   */\n  dup5\n    /* \"#utility.yul\":2473:2476   */\n  dup5\n    /* \"#utility.yul\":2469:2485   */\n  add\n    /* \"#utility.yul\":2462:2489   */\n  mstore\n    /* \"#utility.yul\":2398:2499   */\ntag_68:\n    /* \"#utility.yul\":2247:2505   */\n  pop\n    /* \"#utility.yul\":2198:2505   */\n  pop\n  pop\n  pop\n  jump\t// out\n    /* \"#utility.yul\":2511:2831   */\ntag_13:\n    /* \"#utility.yul\":2555:2561   */\n  0x00\n    /* \"#utility.yul\":2592:2593   */\n  0x02\n    /* \"#utility.yul\":2586:2590   */\n  dup3\n    /* \"#utility.yul\":2582:2594   */\n  div\n    /* \"#utility.yul\":2572:2594   */\n  swap1\n  pop\n    /* \"#utility.yul\":2639:2640   */\n  0x01\n    /* \"#utility.yul\":2633:2637   */\n  dup3\n    /* \"#utility.yul\":2629:2641   */\n  and\n    /* \"#utility.yul\":2660:2678   */\n  dup1\n    /* \"#utility.yul\":2650:2731   */\n  tag_70\n  jumpi\n    /* \"#utility.yul\":2716:2720   */\n  0x7f\n    /* \"#utility.yul\":2708:2714   */\n  dup3\n    /* \"#utility.yul\":2704:2721   */\n  and\n    /* \"#utility.yul\":2694:2721   */\n  swap2\n  pop\n    /* \"#utility.yul\":2650:2731   */\ntag_70:\n    /* \"#utility.yul\":2778:2780   */\n  0x20\n    /* \"#utility.yul\":2770:2776   */\n  dup3\n    /* \"#utility.yul\":2767:2781   */\n  lt\n    /* \"#utility.yul\":2747:2765   */\n  dup2\n    /* \"#utility.yul\":2744:2782   */\n  eq\n    /* \"#utility.yul\":2741:2825   */\n  iszero\n  tag_71\n  jumpi\n    /* \"#utility.yul\":2797:2815   */\n  tag_72\n  tag_73\n  jump\t// in\ntag_72:\n    /* \"#utility.yul\":2741:2825   */\ntag_71:\n    /* \"#utility.yul\":2562:2831   */\n  pop\n    /* \"#utility.yul\":2511:2831   */\n  swap2\n  swap1\n  pop\n  jump\t// out\n    /* \"#utility.yul\":2837:3118   */\ntag_56:\n    /* \"#utility.yul\":2920:2947   */\n  tag_75\n    /* \"#utility.yul\":2942:2946   */\n  dup3\n    /* \"#utility.yul\":2920:2947   */\n  tag_63\n  jump\t// in\ntag_75:\n    /* \"#utility.yul\":2912:2918   */\n  dup2\n    /* \"#utility.yul\":2908:2948   */\n  add\n    /* \"#utility.yul\":3050:3056   */\n  dup2\n    /* \"#utility.yul\":3038:3048   */\n  dup2\n    /* \"#utility.yul\":3035:3057   */\n  lt\n    /* \"#utility.yul\":3014:3032   */\n  0xffffffffffffffff\n    /* \"#utility.yul\":3002:3012   */\n  dup3\n    /* \"#utility.yul\":2999:3033   */\n  gt\n    /* \"#utility.yul\":2996:3058   */\n  or\n    /* \"#utility.yul\":2993:3081   */\n  iszero\n  tag_76\n  jumpi\n    /* \"#utility.yul\":3061:3079   */\n  tag_77\n  tag_61\n  jump\t// in\ntag_77:\n    /* \"#utility.yul\":2993:3081   */\ntag_76:\n    /* \"#utility.yul\":3101:3111   */\n  dup1\n    /* \"#utility.yul\":3097:3099   */\n  0x40\n    /* \"#utility.yul\":3090:3112   */\n  mstore\n    /* \"#utility.yul\":2880:3118   */\n  pop\n    /* \"#utility.yul\":2837:3118   */\n  pop\n  pop\n  jump\t// out\n    /* \"#utility.yul\":3124:3304   */\ntag_10:\n    /* \"#utility.yul\":3172:3249   */\n  0x4e487b7100000000000000000000000000000000000000000000000000000000\n    /* \"#utility.yul\":3169:3170   */\n  0x00\n    /* \"#utility.yul\":3162:3250   */\n  mstore\n    /* \"#utility.yul\":3269:3273   */\n  0x21\n    /* \"#utility.yul\":3266:3267   */\n  0x04\n    /* \"#utility.yul\":3259:3274   */\n  mstore\n    /* \"#utility.yul\":3293:3297   */\n  0x24\n    /* \"#utility.yul\":3290:3291   */\n  0x00\n    /* \"#utility.yul\":3283:3298   */\n  revert\n    /* \"#utility.yul\":3310:3490   */\ntag_73:\n    /* \"#utility.yul\":3358:3435   */\n  0x4e487b7100000000000000000000000000000000000000000000000000000000\n    /* \"#utility.yul\":3355:3356   */\n  0x00\n    /* \"#utility.yul\":3348:3436   */\n  mstore\n    /* \"#utility.yul\":3455:3459   */\n  0x22\n    /* \"#utility.yul\":3452:3453   */\n  0x04\n    /* \"#utility.yul\":3445:3460   */\n  mstore\n    /* \"#utility.yul\":3479:3483   */\n  0x24\n    /* \"#utility.yul\":3476:3477   */\n  0x00\n    /* \"#utility.yul\":3469:3484   */\n  revert\n    /* \"#utility.yul\":3496:3676   */\ntag_61:\n    /* \"#utility.yul\":3544:3621   */\n  0x4e487b7100000000000000000000000000000000000000000000000000000000\n    /* \"#utility.yul\":3541:3542   */\n  0x00\n    /* \"#utility.yul\":3534:3622   */\n  mstore\n    /* \"#utility.yul\":3641:3645   */\n  0x41\n    /* \"#utility.yul\":3638:3639   */\n  0x04\n    /* \"#utility.yul\":3631:3646   */\n  mstore\n    /* \"#utility.yul\":3665:3669   */\n  0x24\n    /* \"#utility.yul\":3662:3663   */\n  0x00\n    /* \"#utility.yul\":3655:3670   */\n  revert\n    /* \"#utility.yul\":3682:3799   */\ntag_39:\n    /* \"#utility.yul\":3791:3792   */\n  0x00\n    /* \"#utility.yul\":3788:3789   */\n  dup1\n    /* \"#utility.yul\":3781:3793   */\n  revert\n    /* \"#utility.yul\":3805:3922   */\ntag_32:\n    /* \"#utility.yul\":3914:3915   */\n  0x00\n    /* \"#utility.yul\":3911:3912   */\n  dup1\n    /* \"#utility.yul\":3904:3916   */\n  revert\n    /* \"#utility.yul\":3928:4045   */\ntag_47:\n    /* \"#utility.yul\":4037:4038   */\n  0x00\n    /* \"#utility.yul\":4034:4035   */\n  dup1\n    /* \"#utility.yul\":4027:4039   */\n  revert\n    /* \"#utility.yul\":4051:4168   */\ntag_44:\n    /* \"#utility.yul\":4160:4161   */\n  0x00\n    /* \"#utility.yul\":4157:4158   */\n  dup1\n    /* \"#utility.yul\":4150:4162   */\n  revert\n    /* \"#utility.yul\":4174:4276   */\ntag_63:\n    /* \"#utility.yul\":4215:4221   */\n  0x00\n    /* \"#utility.yul\":4266:4268   */\n  0x1f\n    /* \"#utility.yul\":4262:4269   */\n  not\n    /* \"#utility.yul\":4257:4259   */\n  0x1f\n    /* \"#utility.yul\":4250:4255   */\n  dup4\n    /* \"#utility.yul\":4246:4260   */\n  add\n    /* \"#utility.yul\":4242:4270   */\n  and\n    /* \"#utility.yul\":4232:4270   */\n  swap1\n  pop\n    /* \"#utility.yul\":4174:4276   */\n  swap2\n  swap1\n  pop\n  jump\t// out\n    /* \"MyHomeToken.sol\":118:6203  contract MyHomesToken {... */\ntag_11:\n  dataSize(sub_0)\n  dup1\n  dataOffset(sub_0)\n  0x00\n  codecopy\n  0x00\n  return\nstop\n\nsub_0: assembly {\n        /* \"MyHomeToken.sol\":118:6203  contract MyHomesToken {... */\n      mstore(0x40, 0x80)\n      jumpi(tag_1, lt(calldatasize, 0x04))\n      shr(0xe0, calldataload(0x00))\n      dup1\n      0x87caea78\n      gt\n      tag_28\n      jumpi\n      dup1\n      0xaf769c64\n      gt\n      tag_29\n      jumpi\n      dup1\n      0xd8124c5f\n      gt\n      tag_30\n      jumpi\n      dup1\n      0xd8124c5f\n      eq\n      tag_24\n      jumpi\n      dup1\n      0xd96a094a\n      eq\n      tag_25\n      jumpi\n      dup1\n      0xdf094409\n      eq\n      tag_26\n      jumpi\n      dup1\n      0xf80723a8\n      eq\n      tag_27\n      jumpi\n      jump(tag_1)\n    tag_30:\n      dup1\n      0xaf769c64\n      eq\n      tag_21\n      jumpi\n      dup1\n      0xb9223946\n      eq\n      tag_22\n      jumpi\n      dup1\n      0xcd0c5896\n      eq\n      tag_23\n      jumpi\n      jump(tag_1)\n    tag_29:\n      dup1\n      0x87caea78\n      eq\n      tag_15\n      jumpi\n      dup1\n      0x8da5cb5b\n      eq\n      tag_16\n      jumpi\n      dup1\n      0x8eb54c6f\n      eq\n      tag_17\n      jumpi\n      dup1\n      0x9a982416\n      eq\n      tag_18\n      jumpi\n      dup1\n      0xa14ba987\n      eq\n      tag_19\n      jumpi\n      dup1\n      0xa9059cbb\n      eq\n      tag_20\n      jumpi\n      jump(tag_1)\n    tag_28:\n      dup1\n      0x46a86576\n      gt\n      tag_31\n      jumpi\n      dup1\n      0x5ab59720\n      gt\n      tag_32\n      jumpi\n      dup1\n      0x5ab59720\n      eq\n      tag_11\n      jumpi\n      dup1\n      0x612fb2ec\n      eq\n      tag_12\n      jumpi\n      dup1\n      0x7427a40c\n      eq\n      tag_13\n      jumpi\n      dup1\n      0x7ff9b596\n      eq\n      tag_14\n      jumpi\n      jump(tag_1)\n    tag_32:\n      dup1\n      0x46a86576\n      eq\n      tag_8\n      jumpi\n      dup1\n      0x4c0a6af0\n      eq\n      tag_9\n      jumpi\n      dup1\n      0x59ea0173\n      eq\n      tag_10\n      jumpi\n      jump(tag_1)\n    tag_31:\n      dup1\n      0x162d8afb\n      eq\n      tag_2\n      jumpi\n      dup1\n      0x27e235e3\n      eq\n      tag_3\n      jumpi\n      dup1\n      0x293230b8\n      eq\n      tag_4\n      jumpi\n      dup1\n      0x2cd39acc\n      eq\n      tag_5\n      jumpi\n      dup1\n      0x3a98ef39\n      eq\n      tag_6\n      jumpi\n      dup1\n      0x3be75aa3\n      eq\n      tag_7\n      jumpi\n    tag_1:\n      0x00\n      dup1\n      revert\n        /* \"MyHomeToken.sol\":244:271  uint public totalHouses = 0 */\n    tag_2:\n      callvalue\n      dup1\n      iszero\n      tag_33\n      jumpi\n      0x00\n      dup1\n      revert\n    tag_33:\n      pop\n      tag_34\n      tag_35\n      jump\t// in\n    tag_34:\n      mload(0x40)\n      tag_36\n      swap2\n      swap1\n      tag_37\n      jump\t// in\n    tag_36:\n      mload(0x40)\n      dup1\n      swap2\n      sub\n      swap1\n      return\n        /* \"MyHomeToken.sol\":542:586  mapping (address => uint256) public balances */\n    tag_3:\n      callvalue\n      dup1\n      iszero\n      tag_38\n      jumpi\n      0x00\n      dup1\n      revert\n    tag_38:\n      pop\n      tag_39\n      0x04\n      dup1\n      calldatasize\n      sub\n      dup2\n      add\n      swap1\n      tag_40\n      swap2\n      swap1\n      tag_41\n      jump\t// in\n    tag_40:\n      tag_42\n      jump\t// in\n    tag_39:\n      mload(0x40)\n      tag_43\n      swap2\n      swap1\n      tag_37\n      jump\t// in\n    tag_43:\n      mload(0x40)\n      dup1\n      swap2\n      sub\n      swap1\n      return\n        /* \"MyHomeToken.sol\":2299:2382  function startTrading() public onlyRegulator {... */\n    tag_4:\n      callvalue\n      dup1\n      iszero\n      tag_44\n      jumpi\n      0x00\n      dup1\n      revert\n    tag_44:\n      pop\n      tag_45\n      tag_46\n      jump\t// in\n    tag_45:\n      stop\n        /* \"MyHomeToken.sol\":608:652  mapping(uint => Ballot) public ballotHistory */\n    tag_5:\n      callvalue\n      dup1\n      iszero\n      tag_47\n      jumpi\n      0x00\n      dup1\n      revert\n    tag_47:\n      pop\n      tag_48\n      0x04\n      dup1\n      calldatasize\n      sub\n      dup2\n      add\n      swap1\n      tag_49\n      swap2\n      swap1\n      tag_50\n      jump\t// in\n    tag_49:\n      tag_51\n      jump\t// in\n    tag_48:\n      mload(0x40)\n      tag_52\n      swap6\n      swap5\n      swap4\n      swap3\n      swap2\n      swap1\n      tag_53\n      jump\t// in\n    tag_52:\n      mload(0x40)\n      dup1\n      swap2\n      sub\n      swap1\n      return\n        /* \"MyHomeToken.sol\":277:309  uint256 public totalShares = 100 */\n    tag_6:\n      callvalue\n      dup1\n      iszero\n      tag_54\n      jumpi\n      0x00\n      dup1\n      revert\n    tag_54:\n      pop\n      tag_55\n      tag_56\n      jump\t// in\n    tag_55:\n      mload(0x40)\n      tag_57\n      swap2\n      swap1\n      tag_37\n      jump\t// in\n    tag_57:\n      mload(0x40)\n      dup1\n      swap2\n      sub\n      swap1\n      return\n        /* \"MyHomeToken.sol\":350:380  uint256 public shareLimit = 10 */\n    tag_7:\n      callvalue\n      dup1\n      iszero\n      tag_58\n      jumpi\n      0x00\n      dup1\n      revert\n    tag_58:\n      pop\n      tag_59\n      tag_60\n      jump\t// in\n    tag_59:\n      mload(0x40)\n      tag_61\n      swap2\n      swap1\n      tag_37\n      jump\t// in\n    tag_61:\n      mload(0x40)\n      dup1\n      swap2\n      sub\n      swap1\n      return\n        /* \"MyHomeToken.sol\":4848:5098  function createBallot(string memory _proposal) public {... */\n    tag_8:\n      callvalue\n      dup1\n      iszero\n      tag_62\n      jumpi\n      0x00\n      dup1\n      revert\n    tag_62:\n      pop\n      tag_63\n      0x04\n      dup1\n      calldatasize\n      sub\n      dup2\n      add\n      swap1\n      tag_64\n      swap2\n      swap1\n      tag_65\n      jump\t// in\n    tag_64:\n      tag_66\n      jump\t// in\n    tag_63:\n      stop\n        /* \"MyHomeToken.sol\":5104:5295  function startVote()... */\n    tag_9:\n      callvalue\n      dup1\n      iszero\n      tag_67\n      jumpi\n      0x00\n      dup1\n      revert\n    tag_67:\n      pop\n      tag_68\n      tag_69\n      jump\t// in\n    tag_68:\n      stop\n        /* \"MyHomeToken.sol\":485:536  mapping(address => bool) public shareHolderRegistry */\n    tag_10:\n      callvalue\n      dup1\n      iszero\n      tag_70\n      jumpi\n      0x00\n      dup1\n      revert\n    tag_70:\n      pop\n      tag_71\n      0x04\n      dup1\n      calldatasize\n      sub\n      dup2\n      add\n      swap1\n      tag_72\n      swap2\n      swap1\n      tag_41\n      jump\t// in\n    tag_72:\n      tag_73\n      jump\t// in\n    tag_71:\n      mload(0x40)\n      tag_74\n      swap2\n      swap1\n      tag_75\n      jump\t// in\n    tag_74:\n      mload(0x40)\n      dup1\n      swap2\n      sub\n      swap1\n      return\n        /* \"MyHomeToken.sol\":3398:3698  function removeShareHolder(address _shareHolderAddress)... */\n    tag_11:\n      callvalue\n      dup1\n      iszero\n      tag_76\n      jumpi\n      0x00\n      dup1\n      revert\n    tag_76:\n      pop\n      tag_77\n      0x04\n      dup1\n      calldatasize\n      sub\n      dup2\n      add\n      swap1\n      tag_78\n      swap2\n      swap1\n      tag_41\n      jump\t// in\n    tag_78:\n      tag_79\n      jump\t// in\n    tag_77:\n      stop\n        /* \"MyHomeToken.sol\":658:686  uint public totalBallots = 0 */\n    tag_12:\n      callvalue\n      dup1\n      iszero\n      tag_80\n      jumpi\n      0x00\n      dup1\n      revert\n    tag_80:\n      pop\n      tag_81\n      tag_82\n      jump\t// in\n    tag_81:\n      mload(0x40)\n      tag_83\n      swap2\n      swap1\n      tag_37\n      jump\t// in\n    tag_83:\n      mload(0x40)\n      dup1\n      swap2\n      sub\n      swap1\n      return\n        /* \"MyHomeToken.sol\":450:479  address[] public shareHolders */\n    tag_13:\n      callvalue\n      dup1\n      iszero\n      tag_84\n      jumpi\n      0x00\n      dup1\n      revert\n    tag_84:\n      pop\n      tag_85\n      0x04\n      dup1\n      calldatasize\n      sub\n      dup2\n      add\n      swap1\n      tag_86\n      swap2\n      swap1\n      tag_50\n      jump\t// in\n    tag_86:\n      tag_87\n      jump\t// in\n    tag_85:\n      mload(0x40)\n      tag_88\n      swap2\n      swap1\n      tag_89\n      jump\t// in\n    tag_88:\n      mload(0x40)\n      dup1\n      swap2\n      sub\n      swap1\n      return\n        /* \"MyHomeToken.sol\":315:344  uint256 public tokenPrice = 1 */\n    tag_14:\n      callvalue\n      dup1\n      iszero\n      tag_90\n      jumpi\n      0x00\n      dup1\n      revert\n    tag_90:\n      pop\n      tag_91\n      tag_92\n      jump\t// in\n    tag_91:\n      mload(0x40)\n      tag_93\n      swap2\n      swap1\n      tag_37\n      jump\t// in\n    tag_93:\n      mload(0x40)\n      dup1\n      swap2\n      sub\n      swap1\n      return\n        /* \"MyHomeToken.sol\":5301:5935  function doVote(bool _choice)... */\n    tag_15:\n      callvalue\n      dup1\n      iszero\n      tag_94\n      jumpi\n      0x00\n      dup1\n      revert\n    tag_94:\n      pop\n      tag_95\n      0x04\n      dup1\n      calldatasize\n      sub\n      dup2\n      add\n      swap1\n      tag_96\n      swap2\n      swap1\n      tag_97\n      jump\t// in\n    tag_96:\n      tag_98\n      jump\t// in\n    tag_95:\n      mload(0x40)\n      tag_99\n      swap2\n      swap1\n      tag_75\n      jump\t// in\n    tag_99:\n      mload(0x40)\n      dup1\n      swap2\n      sub\n      swap1\n      return\n        /* \"MyHomeToken.sol\":146:174  address payable public owner */\n    tag_16:\n      callvalue\n      dup1\n      iszero\n      tag_100\n      jumpi\n      0x00\n      dup1\n      revert\n    tag_100:\n      pop\n      tag_101\n      tag_102\n      jump\t// in\n    tag_101:\n      mload(0x40)\n      tag_103\n      swap2\n      swap1\n      tag_104\n      jump\t// in\n    tag_103:\n      mload(0x40)\n      dup1\n      swap2\n      sub\n      swap1\n      return\n        /* \"MyHomeToken.sol\":3930:4359  function sellToOwner(uint tokenNum) public payable {... */\n    tag_17:\n      tag_105\n      0x04\n      dup1\n      calldatasize\n      sub\n      dup2\n      add\n      swap1\n      tag_106\n      swap2\n      swap1\n      tag_50\n      jump\t// in\n    tag_106:\n      tag_107\n      jump\t// in\n    tag_105:\n      stop\n        /* \"MyHomeToken.sol\":386:419  uint public totalShareHolders = 0 */\n    tag_18:\n      callvalue\n      dup1\n      iszero\n      tag_108\n      jumpi\n      0x00\n      dup1\n      revert\n    tag_108:\n      pop\n      tag_109\n      tag_110\n      jump\t// in\n    tag_109:\n      mload(0x40)\n      tag_111\n      swap2\n      swap1\n      tag_37\n      jump\t// in\n    tag_111:\n      mload(0x40)\n      dup1\n      swap2\n      sub\n      swap1\n      return\n        /* \"MyHomeToken.sol\":210:238  House[] public houseRegister */\n    tag_19:\n      callvalue\n      dup1\n      iszero\n      tag_112\n      jumpi\n      0x00\n      dup1\n      revert\n    tag_112:\n      pop\n      tag_113\n      0x04\n      dup1\n      calldatasize\n      sub\n      dup2\n      add\n      swap1\n      tag_114\n      swap2\n      swap1\n      tag_50\n      jump\t// in\n    tag_114:\n      tag_115\n      jump\t// in\n    tag_113:\n      mload(0x40)\n      tag_116\n      swap4\n      swap3\n      swap2\n      swap1\n      tag_117\n      jump\t// in\n    tag_116:\n      mload(0x40)\n      dup1\n      swap2\n      sub\n      swap1\n      return\n        /* \"MyHomeToken.sol\":3704:3924  function transfer(address _to, uint256 _value) public {... */\n    tag_20:\n      callvalue\n      dup1\n      iszero\n      tag_118\n      jumpi\n      0x00\n      dup1\n      revert\n    tag_118:\n      pop\n      tag_119\n      0x04\n      dup1\n      calldatasize\n      sub\n      dup2\n      add\n      swap1\n      tag_120\n      swap2\n      swap1\n      tag_121\n      jump\t// in\n    tag_120:\n      tag_122\n      jump\t// in\n    tag_119:\n      stop\n        /* \"MyHomeToken.sol\":3042:3392  function addShareHolder(address _shareHolderAddress)... */\n    tag_21:\n      callvalue\n      dup1\n      iszero\n      tag_123\n      jumpi\n      0x00\n      dup1\n      revert\n    tag_123:\n      pop\n      tag_124\n      0x04\n      dup1\n      calldatasize\n      sub\n      dup2\n      add\n      swap1\n      tag_125\n      swap2\n      swap1\n      tag_41\n      jump\t// in\n    tag_125:\n      tag_126\n      jump\t// in\n    tag_124:\n      stop\n        /* \"MyHomeToken.sol\":5945:6201  function endVote()... */\n    tag_22:\n      callvalue\n      dup1\n      iszero\n      tag_127\n      jumpi\n      0x00\n      dup1\n      revert\n    tag_127:\n      pop\n      tag_128\n      tag_129\n      jump\t// in\n    tag_128:\n      stop\n        /* \"MyHomeToken.sol\":2184:2288  function etherBalance(address _addr) public view returns (uint256) {... */\n    tag_23:\n      callvalue\n      dup1\n      iszero\n      tag_130\n      jumpi\n      0x00\n      dup1\n      revert\n    tag_130:\n      pop\n      tag_131\n      0x04\n      dup1\n      calldatasize\n      sub\n      dup2\n      add\n      swap1\n      tag_132\n      swap2\n      swap1\n      tag_41\n      jump\t// in\n    tag_132:\n      tag_133\n      jump\t// in\n    tag_131:\n      mload(0x40)\n      tag_134\n      swap2\n      swap1\n      tag_37\n      jump\t// in\n    tag_134:\n      mload(0x40)\n      dup1\n      swap2\n      sub\n      swap1\n      return\n        /* \"MyHomeToken.sol\":180:204  HousingPackage public hp */\n    tag_24:\n      callvalue\n      dup1\n      iszero\n      tag_135\n      jumpi\n      0x00\n      dup1\n      revert\n    tag_135:\n      pop\n      tag_136\n      tag_137\n      jump\t// in\n    tag_136:\n      mload(0x40)\n      tag_138\n      swap4\n      swap3\n      swap2\n      swap1\n      tag_117\n      jump\t// in\n    tag_138:\n      mload(0x40)\n      dup1\n      swap2\n      sub\n      swap1\n      return\n        /* \"MyHomeToken.sol\":4365:4842  function buy(uint tokenNum) public payable {... */\n    tag_25:\n      tag_139\n      0x04\n      dup1\n      calldatasize\n      sub\n      dup2\n      add\n      swap1\n      tag_140\n      swap2\n      swap1\n      tag_50\n      jump\t// in\n    tag_140:\n      tag_141\n      jump\t// in\n    tag_139:\n      stop\n        /* \"MyHomeToken.sol\":2388:2758  function addHouse(string memory _registrationId, string memory location, uint256 price) ... */\n    tag_26:\n      callvalue\n      dup1\n      iszero\n      tag_142\n      jumpi\n      0x00\n      dup1\n      revert\n    tag_142:\n      pop\n      tag_143\n      0x04\n      dup1\n      calldatasize\n      sub\n      dup2\n      add\n      swap1\n      tag_144\n      swap2\n      swap1\n      tag_145\n      jump\t// in\n    tag_144:\n      tag_146\n      jump\t// in\n    tag_143:\n      stop\n        /* \"MyHomeToken.sol\":692:719  Ballot public currentBallot */\n    tag_27:\n      callvalue\n      dup1\n      iszero\n      tag_147\n      jumpi\n      0x00\n      dup1\n      revert\n    tag_147:\n      pop\n      tag_148\n      tag_149\n      jump\t// in\n    tag_148:\n      mload(0x40)\n      tag_150\n      swap6\n      swap5\n      swap4\n      swap3\n      swap2\n      swap1\n      tag_53\n      jump\t// in\n    tag_150:\n      mload(0x40)\n      dup1\n      swap2\n      sub\n      swap1\n      return\n        /* \"MyHomeToken.sol\":244:271  uint public totalHouses = 0 */\n    tag_35:\n      sload(0x05)\n      dup2\n      jump\t// out\n        /* \"MyHomeToken.sol\":542:586  mapping (address => uint256) public balances */\n    tag_42:\n      mstore(0x20, 0x0d)\n      dup1\n      0x00\n      mstore\n      keccak256(0x00, 0x40)\n      0x00\n      swap2\n      pop\n      swap1\n      pop\n      sload\n      dup2\n      jump\t// out\n        /* \"MyHomeToken.sol\":2299:2382  function startTrading() public onlyRegulator {... */\n    tag_46:\n        /* \"MyHomeToken.sol\":1635:1640  owner */\n      0x00\n      dup1\n      sload\n      swap1\n      0x0100\n      exp\n      swap1\n      div\n      0xffffffffffffffffffffffffffffffffffffffff\n      and\n        /* \"MyHomeToken.sol\":1621:1640  msg.sender == owner */\n      0xffffffffffffffffffffffffffffffffffffffff\n      and\n        /* \"MyHomeToken.sol\":1621:1631  msg.sender */\n      caller\n        /* \"MyHomeToken.sol\":1621:1640  msg.sender == owner */\n      0xffffffffffffffffffffffffffffffffffffffff\n      and\n      eq\n        /* \"MyHomeToken.sol\":1613:1641  require(msg.sender == owner) */\n      tag_152\n      jumpi\n      0x00\n      dup1\n      revert\n    tag_152:\n        /* \"MyHomeToken.sol\":2362:2375  State.Running */\n      0x01\n        /* \"MyHomeToken.sol\":2354:2359  state */\n      0x0a\n      0x00\n        /* \"MyHomeToken.sol\":2354:2375  state = State.Running */\n      0x0100\n      exp\n      dup2\n      sload\n      dup2\n      0xff\n      mul\n      not\n      and\n      swap1\n      dup4\n      0x01\n      dup2\n      gt\n      iszero\n      tag_154\n      jumpi\n      tag_155\n      tag_156\n      jump\t// in\n    tag_155:\n    tag_154:\n      mul\n      or\n      swap1\n      sstore\n      pop\n        /* \"MyHomeToken.sol\":2299:2382  function startTrading() public onlyRegulator {... */\n      jump\t// out\n        /* \"MyHomeToken.sol\":608:652  mapping(uint => Ballot) public ballotHistory */\n    tag_51:\n      mstore(0x20, 0x0e)\n      dup1\n      0x00\n      mstore\n      keccak256(0x00, 0x40)\n      0x00\n      swap2\n      pop\n      swap1\n      pop\n      dup1\n      0x00\n      add\n      dup1\n      sload\n      tag_157\n      swap1\n      tag_158\n      jump\t// in\n    tag_157:\n      dup1\n      0x1f\n      add\n      0x20\n      dup1\n      swap2\n      div\n      mul\n      0x20\n      add\n      mload(0x40)\n      swap1\n      dup2\n      add\n      0x40\n      mstore\n      dup1\n      swap3\n      swap2\n      swap1\n      dup2\n      dup2\n      mstore\n      0x20\n      add\n      dup3\n      dup1\n      sload\n      tag_159\n      swap1\n      tag_158\n      jump\t// in\n    tag_159:\n      dup1\n      iszero\n      tag_160\n      jumpi\n      dup1\n      0x1f\n      lt\n      tag_161\n      jumpi\n      0x0100\n      dup1\n      dup4\n      sload\n      div\n      mul\n      dup4\n      mstore\n      swap2\n      0x20\n      add\n      swap2\n      jump(tag_160)\n    tag_161:\n      dup3\n      add\n      swap2\n      swap1\n      0x00\n      mstore\n      keccak256(0x00, 0x20)\n      swap1\n    tag_162:\n      dup2\n      sload\n      dup2\n      mstore\n      swap1\n      0x01\n      add\n      swap1\n      0x20\n      add\n      dup1\n      dup4\n      gt\n      tag_162\n      jumpi\n      dup3\n      swap1\n      sub\n      0x1f\n      and\n      dup3\n      add\n      swap2\n    tag_160:\n      pop\n      pop\n      pop\n      pop\n      pop\n      swap1\n      dup1\n      0x01\n      add\n      0x00\n      swap1\n      sload\n      swap1\n      0x0100\n      exp\n      swap1\n      div\n      0xffffffffffffffffffffffffffffffffffffffff\n      and\n      swap1\n      dup1\n      0x02\n      add\n      dup1\n      sload\n      tag_163\n      swap1\n      tag_158\n      jump\t// in\n    tag_163:\n      dup1\n      0x1f\n      add\n      0x20\n      dup1\n      swap2\n      div\n      mul\n      0x20\n      add\n      mload(0x40)\n      swap1\n      dup2\n      add\n      0x40\n      mstore\n      dup1\n      swap3\n      swap2\n      swap1\n      dup2\n      dup2\n      mstore\n      0x20\n      add\n      dup3\n      dup1\n      sload\n      tag_164\n      swap1\n      tag_158\n      jump\t// in\n    tag_164:\n      dup1\n      iszero\n      tag_165\n      jumpi\n      dup1\n      0x1f\n      lt\n      tag_166\n      jumpi\n      0x0100\n      dup1\n      dup4\n      sload\n      div\n      mul\n      dup4\n      mstore\n      swap2\n      0x20\n      add\n      swap2\n      jump(tag_165)\n    tag_166:\n      dup3\n      add\n      swap2\n      swap1\n      0x00\n      mstore\n      keccak256(0x00, 0x20)\n      swap1\n    tag_167:\n      dup2\n      sload\n      dup2\n      mstore\n      swap1\n      0x01\n      add\n      swap1\n      0x20\n      add\n      dup1\n      dup4\n      gt\n      tag_167\n      jumpi\n      dup3\n      swap1\n      sub\n      0x1f\n      and\n      dup3\n      add\n      swap2\n    tag_165:\n      pop\n      pop\n      pop\n      pop\n      pop\n      swap1\n      dup1\n      0x03\n      add\n      sload\n      swap1\n      dup1\n      0x04\n      add\n      sload\n      swap1\n      pop\n      dup6\n      jump\t// out\n        /* \"MyHomeToken.sol\":277:309  uint256 public totalShares = 100 */\n    tag_56:\n      sload(0x06)\n      dup2\n      jump\t// out\n        /* \"MyHomeToken.sol\":350:380  uint256 public shareLimit = 10 */\n    tag_60:\n      sload(0x08)\n      dup2\n      jump\t// out\n        /* \"MyHomeToken.sol\":4848:5098  function createBallot(string memory _proposal) public {... */\n    tag_66:\n        /* \"MyHomeToken.sol\":4928:4995  Ballot(Strings.toString(totalBallots), msg.sender, _proposal, 0, 0) */\n      mload(0x40)\n      dup1\n      0xa0\n      add\n      0x40\n      mstore\n      dup1\n        /* \"MyHomeToken.sol\":4935:4965  Strings.toString(totalBallots) */\n      tag_169\n        /* \"MyHomeToken.sol\":4952:4964  totalBallots */\n      sload(0x0f)\n        /* \"MyHomeToken.sol\":4935:4951  Strings.toString */\n      tag_170\n        /* \"MyHomeToken.sol\":4935:4965  Strings.toString(totalBallots) */\n      jump\t// in\n    tag_169:\n        /* \"MyHomeToken.sol\":4928:4995  Ballot(Strings.toString(totalBallots), msg.sender, _proposal, 0, 0) */\n      dup2\n      mstore\n      0x20\n      add\n        /* \"MyHomeToken.sol\":4967:4977  msg.sender */\n      caller\n        /* \"MyHomeToken.sol\":4928:4995  Ballot(Strings.toString(totalBallots), msg.sender, _proposal, 0, 0) */\n      0xffffffffffffffffffffffffffffffffffffffff\n      and\n      dup2\n      mstore\n      0x20\n      add\n        /* \"MyHomeToken.sol\":4979:4988  _proposal */\n      dup3\n        /* \"MyHomeToken.sol\":4928:4995  Ballot(Strings.toString(totalBallots), msg.sender, _proposal, 0, 0) */\n      dup2\n      mstore\n      0x20\n      add\n        /* \"MyHomeToken.sol\":4990:4991  0 */\n      0x00\n        /* \"MyHomeToken.sol\":4928:4995  Ballot(Strings.toString(totalBallots), msg.sender, _proposal, 0, 0) */\n      dup2\n      mstore\n      0x20\n      add\n        /* \"MyHomeToken.sol\":4993:4994  0 */\n      0x00\n        /* \"MyHomeToken.sol\":4928:4995  Ballot(Strings.toString(totalBallots), msg.sender, _proposal, 0, 0) */\n      dup2\n      mstore\n      pop\n        /* \"MyHomeToken.sol\":4912:4925  currentBallot */\n      0x10\n        /* \"MyHomeToken.sol\":4912:4995  currentBallot = Ballot(Strings.toString(totalBallots), msg.sender, _proposal, 0, 0) */\n      0x00\n      dup3\n      add\n      mload\n      dup2\n      0x00\n      add\n      swap1\n      dup1\n      mload\n      swap1\n      0x20\n      add\n      swap1\n      tag_171\n      swap3\n      swap2\n      swap1\n      tag_172\n      jump\t// in\n    tag_171:\n      pop\n      0x20\n      dup3\n      add\n      mload\n      dup2\n      0x01\n      add\n      exp(0x0100, 0x00)\n      dup2\n      sload\n      dup2\n      0xffffffffffffffffffffffffffffffffffffffff\n      mul\n      not\n      and\n      swap1\n      dup4\n      0xffffffffffffffffffffffffffffffffffffffff\n      and\n      mul\n      or\n      swap1\n      sstore\n      pop\n      0x40\n      dup3\n      add\n      mload\n      dup2\n      0x02\n      add\n      swap1\n      dup1\n      mload\n      swap1\n      0x20\n      add\n      swap1\n      tag_173\n      swap3\n      swap2\n      swap1\n      tag_172\n      jump\t// in\n    tag_173:\n      pop\n      0x60\n      dup3\n      add\n      mload\n      dup2\n      0x03\n      add\n      sstore\n      0x80\n      dup3\n      add\n      mload\n      dup2\n      0x04\n      add\n      sstore\n      swap1\n      pop\n      pop\n        /* \"MyHomeToken.sol\":5019:5038  BallotState.Created */\n      0x00\n        /* \"MyHomeToken.sol\":5005:5016  ballotState */\n      0x15\n      0x00\n        /* \"MyHomeToken.sol\":5005:5038  ballotState = BallotState.Created */\n      0x0100\n      exp\n      dup2\n      sload\n      dup2\n      0xff\n      mul\n      not\n      and\n      swap1\n      dup4\n      0x02\n      dup2\n      gt\n      iszero\n      tag_174\n      jumpi\n      tag_175\n      tag_156\n      jump\t// in\n    tag_175:\n    tag_174:\n      mul\n      or\n      swap1\n      sstore\n      pop\n        /* \"MyHomeToken.sol\":5078:5091  currentBallot */\n      0x10\n        /* \"MyHomeToken.sol\":5048:5061  ballotHistory */\n      0x0e\n        /* \"MyHomeToken.sol\":5048:5075  ballotHistory[totalBallots] */\n      0x00\n        /* \"MyHomeToken.sol\":5062:5074  totalBallots */\n      sload(0x0f)\n        /* \"MyHomeToken.sol\":5048:5075  ballotHistory[totalBallots] */\n      dup2\n      mstore\n      0x20\n      add\n      swap1\n      dup2\n      mstore\n      0x20\n      add\n      0x00\n      keccak256\n        /* \"MyHomeToken.sol\":5048:5091  ballotHistory[totalBallots] = currentBallot */\n      0x00\n      dup3\n      add\n      dup2\n      0x00\n      add\n      swap1\n      dup1\n      sload\n      tag_176\n      swap1\n      tag_158\n      jump\t// in\n    tag_176:\n      tag_177\n      swap3\n      swap2\n      swap1\n      tag_178\n      jump\t// in\n    tag_177:\n      pop\n      0x01\n      dup3\n      add\n      0x00\n      swap1\n      sload\n      swap1\n      0x0100\n      exp\n      swap1\n      div\n      0xffffffffffffffffffffffffffffffffffffffff\n      and\n      dup2\n      0x01\n      add\n      exp(0x0100, 0x00)\n      dup2\n      sload\n      dup2\n      0xffffffffffffffffffffffffffffffffffffffff\n      mul\n      not\n      and\n      swap1\n      dup4\n      0xffffffffffffffffffffffffffffffffffffffff\n      and\n      mul\n      or\n      swap1\n      sstore\n      pop\n      0x02\n      dup3\n      add\n      dup2\n      0x02\n      add\n      swap1\n      dup1\n      sload\n      tag_179\n      swap1\n      tag_158\n      jump\t// in\n    tag_179:\n      tag_180\n      swap3\n      swap2\n      swap1\n      tag_178\n      jump\t// in\n    tag_180:\n      pop\n      0x03\n      dup3\n      add\n      sload\n      dup2\n      0x03\n      add\n      sstore\n      0x04\n      dup3\n      add\n      sload\n      dup2\n      0x04\n      add\n      sstore\n      swap1\n      pop\n      pop\n        /* \"MyHomeToken.sol\":4848:5098  function createBallot(string memory _proposal) public {... */\n      pop\n      jump\t// out\n        /* \"MyHomeToken.sol\":5104:5295  function startVote()... */\n    tag_69:\n        /* \"MyHomeToken.sol\":5162:5181  BallotState.Created */\n      0x00\n        /* \"MyHomeToken.sol\":1895:1901  _state */\n      dup1\n        /* \"MyHomeToken.sol\":1880:1901  ballotState == _state */\n      0x02\n      dup2\n      gt\n      iszero\n      tag_182\n      jumpi\n      tag_183\n      tag_156\n      jump\t// in\n    tag_183:\n    tag_182:\n        /* \"MyHomeToken.sol\":1880:1891  ballotState */\n      0x15\n      0x00\n      swap1\n      sload\n      swap1\n      0x0100\n      exp\n      swap1\n      div\n      0xff\n      and\n        /* \"MyHomeToken.sol\":1880:1901  ballotState == _state */\n      0x02\n      dup2\n      gt\n      iszero\n      tag_184\n      jumpi\n      tag_185\n      tag_156\n      jump\t// in\n    tag_185:\n    tag_184:\n      eq\n        /* \"MyHomeToken.sol\":1872:1902  require(ballotState == _state) */\n      tag_186\n      jumpi\n      0x00\n      dup1\n      revert\n    tag_186:\n        /* \"MyHomeToken.sol\":1787:1800  currentBallot */\n      0x10\n        /* \"MyHomeToken.sol\":1787:1812  currentBallot.ballotOwner */\n      0x01\n      add\n      0x00\n      swap1\n      sload\n      swap1\n      0x0100\n      exp\n      swap1\n      div\n      0xffffffffffffffffffffffffffffffffffffffff\n      and\n        /* \"MyHomeToken.sol\":1773:1812  msg.sender == currentBallot.ballotOwner */\n      0xffffffffffffffffffffffffffffffffffffffff\n      and\n        /* \"MyHomeToken.sol\":1773:1783  msg.sender */\n      caller\n        /* \"MyHomeToken.sol\":1773:1812  msg.sender == currentBallot.ballotOwner */\n      0xffffffffffffffffffffffffffffffffffffffff\n      and\n      eq\n        /* \"MyHomeToken.sol\":1765:1813  require(msg.sender == currentBallot.ballotOwner) */\n      tag_188\n      jumpi\n      0x00\n      dup1\n      revert\n    tag_188:\n        /* \"MyHomeToken.sol\":5239:5257  BallotState.Voting */\n      0x01\n        /* \"MyHomeToken.sol\":5225:5236  ballotState */\n      0x15\n      0x00\n        /* \"MyHomeToken.sol\":5225:5257  ballotState = BallotState.Voting */\n      0x0100\n      exp\n      dup2\n      sload\n      dup2\n      0xff\n      mul\n      not\n      and\n      swap1\n      dup4\n      0x02\n      dup2\n      gt\n      iszero\n      tag_190\n      jumpi\n      tag_191\n      tag_156\n      jump\t// in\n    tag_191:\n    tag_190:\n      mul\n      or\n      swap1\n      sstore\n      pop\n        /* \"MyHomeToken.sol\":5275:5288  voteStarted() */\n      0xd0dc01800a369fef30d3fced5275b8b916549867622e79efca5245c479fda4ea\n      mload(0x40)\n      mload(0x40)\n      dup1\n      swap2\n      sub\n      swap1\n      log1\n        /* \"MyHomeToken.sol\":5104:5295  function startVote()... */\n      pop\n      jump\t// out\n        /* \"MyHomeToken.sol\":485:536  mapping(address => bool) public shareHolderRegistry */\n    tag_73:\n      mstore(0x20, 0x0c)\n      dup1\n      0x00\n      mstore\n      keccak256(0x00, 0x40)\n      0x00\n      swap2\n      pop\n      sload\n      swap1\n      0x0100\n      exp\n      swap1\n      div\n      0xff\n      and\n      dup2\n      jump\t// out\n        /* \"MyHomeToken.sol\":3398:3698  function removeShareHolder(address _shareHolderAddress)... */\n    tag_79:\n        /* \"MyHomeToken.sol\":3491:3497  uint i */\n      0x00\n        /* \"MyHomeToken.sol\":3486:3689  for (uint i = 0; i<totalShareHolders; i++) {... */\n    tag_193:\n        /* \"MyHomeToken.sol\":3505:3522  totalShareHolders */\n      sload(0x09)\n        /* \"MyHomeToken.sol\":3503:3504  i */\n      dup2\n        /* \"MyHomeToken.sol\":3503:3522  i<totalShareHolders */\n      lt\n        /* \"MyHomeToken.sol\":3486:3689  for (uint i = 0; i<totalShareHolders; i++) {... */\n      iszero\n      tag_194\n      jumpi\n        /* \"MyHomeToken.sol\":3566:3585  _shareHolderAddress */\n      dup2\n        /* \"MyHomeToken.sol\":3547:3585  shareHolders[i] == _shareHolderAddress */\n      0xffffffffffffffffffffffffffffffffffffffff\n      and\n        /* \"MyHomeToken.sol\":3547:3559  shareHolders */\n      0x0b\n        /* \"MyHomeToken.sol\":3560:3561  i */\n      dup3\n        /* \"MyHomeToken.sol\":3547:3562  shareHolders[i] */\n      dup2\n      sload\n      dup2\n      lt\n      tag_196\n      jumpi\n      tag_197\n      tag_198\n      jump\t// in\n    tag_197:\n    tag_196:\n      swap1\n      0x00\n      mstore\n      keccak256(0x00, 0x20)\n      add\n      0x00\n      swap1\n      sload\n      swap1\n      0x0100\n      exp\n      swap1\n      div\n      0xffffffffffffffffffffffffffffffffffffffff\n      and\n        /* \"MyHomeToken.sol\":3547:3585  shareHolders[i] == _shareHolderAddress */\n      0xffffffffffffffffffffffffffffffffffffffff\n      and\n      eq\n        /* \"MyHomeToken.sol\":3543:3679  if (shareHolders[i] == _shareHolderAddress) {... */\n      iszero\n      tag_200\n      jumpi\n        /* \"MyHomeToken.sol\":3612:3624  shareHolders */\n      0x0b\n        /* \"MyHomeToken.sol\":3625:3626  i */\n      dup2\n        /* \"MyHomeToken.sol\":3612:3627  shareHolders[i] */\n      dup2\n      sload\n      dup2\n      lt\n      tag_201\n      jumpi\n      tag_202\n      tag_198\n      jump\t// in\n    tag_202:\n    tag_201:\n      swap1\n      0x00\n      mstore\n      keccak256(0x00, 0x20)\n      add\n      0x00\n        /* \"MyHomeToken.sol\":3605:3627  delete shareHolders[i] */\n      0x0100\n      exp\n      dup2\n      sload\n      swap1\n      0xffffffffffffffffffffffffffffffffffffffff\n      mul\n      not\n      and\n      swap1\n      sstore\n        /* \"MyHomeToken.sol\":3645:3662  totalShareHolders */\n      0x09\n      0x00\n        /* \"MyHomeToken.sol\":3645:3664  totalShareHolders-- */\n      dup2\n      sload\n      dup1\n      swap3\n      swap2\n      swap1\n      tag_204\n      swap1\n      tag_205\n      jump\t// in\n    tag_204:\n      swap2\n      swap1\n      pop\n      sstore\n      pop\n        /* \"MyHomeToken.sol\":3543:3679  if (shareHolders[i] == _shareHolderAddress) {... */\n    tag_200:\n        /* \"MyHomeToken.sol\":3524:3527  i++ */\n      dup1\n      dup1\n      tag_206\n      swap1\n      tag_207\n      jump\t// in\n    tag_206:\n      swap2\n      pop\n      pop\n        /* \"MyHomeToken.sol\":3486:3689  for (uint i = 0; i<totalShareHolders; i++) {... */\n      jump(tag_193)\n    tag_194:\n      pop\n        /* \"MyHomeToken.sol\":3398:3698  function removeShareHolder(address _shareHolderAddress)... */\n      pop\n      jump\t// out\n        /* \"MyHomeToken.sol\":658:686  uint public totalBallots = 0 */\n    tag_82:\n      sload(0x0f)\n      dup2\n      jump\t// out\n        /* \"MyHomeToken.sol\":450:479  address[] public shareHolders */\n    tag_87:\n      0x0b\n      dup2\n      dup2\n      sload\n      dup2\n      lt\n      tag_208\n      jumpi\n      0x00\n      dup1\n      revert\n    tag_208:\n      swap1\n      0x00\n      mstore\n      keccak256(0x00, 0x20)\n      add\n      0x00\n      swap2\n      pop\n      sload\n      swap1\n      0x0100\n      exp\n      swap1\n      div\n      0xffffffffffffffffffffffffffffffffffffffff\n      and\n      dup2\n      jump\t// out\n        /* \"MyHomeToken.sol\":315:344  uint256 public tokenPrice = 1 */\n    tag_92:\n      sload(0x07)\n      dup2\n      jump\t// out\n        /* \"MyHomeToken.sol\":5301:5935  function doVote(bool _choice)... */\n    tag_98:\n        /* \"MyHomeToken.sol\":5405:5415  bool voted */\n      0x00\n        /* \"MyHomeToken.sol\":5368:5386  BallotState.Voting */\n      0x01\n        /* \"MyHomeToken.sol\":1895:1901  _state */\n      dup1\n        /* \"MyHomeToken.sol\":1880:1901  ballotState == _state */\n      0x02\n      dup2\n      gt\n      iszero\n      tag_211\n      jumpi\n      tag_212\n      tag_156\n      jump\t// in\n    tag_212:\n    tag_211:\n        /* \"MyHomeToken.sol\":1880:1891  ballotState */\n      0x15\n      0x00\n      swap1\n      sload\n      swap1\n      0x0100\n      exp\n      swap1\n      div\n      0xff\n      and\n        /* \"MyHomeToken.sol\":1880:1901  ballotState == _state */\n      0x02\n      dup2\n      gt\n      iszero\n      tag_213\n      jumpi\n      tag_214\n      tag_156\n      jump\t// in\n    tag_214:\n    tag_213:\n      eq\n        /* \"MyHomeToken.sol\":1872:1902  require(ballotState == _state) */\n      tag_215\n      jumpi\n      0x00\n      dup1\n      revert\n    tag_215:\n        /* \"MyHomeToken.sol\":5431:5441  bool found */\n      0x00\n        /* \"MyHomeToken.sol\":5464:5483  shareHolderRegistry */\n      0x0c\n        /* \"MyHomeToken.sol\":5464:5495  shareHolderRegistry[msg.sender] */\n      0x00\n        /* \"MyHomeToken.sol\":5484:5494  msg.sender */\n      caller\n        /* \"MyHomeToken.sol\":5464:5495  shareHolderRegistry[msg.sender] */\n      0xffffffffffffffffffffffffffffffffffffffff\n      and\n      0xffffffffffffffffffffffffffffffffffffffff\n      and\n      dup2\n      mstore\n      0x20\n      add\n      swap1\n      dup2\n      mstore\n      0x20\n      add\n      0x00\n      keccak256\n      0x00\n      swap1\n      sload\n      swap1\n      0x0100\n      exp\n      swap1\n      div\n      0xff\n      and\n        /* \"MyHomeToken.sol\":5459:5872  if (!shareHolderRegistry[msg.sender]){... */\n      tag_217\n      jumpi\n        /* \"MyHomeToken.sol\":5544:5548  true */\n      0x01\n        /* \"MyHomeToken.sol\":5510:5529  shareHolderRegistry */\n      0x0c\n        /* \"MyHomeToken.sol\":5510:5541  shareHolderRegistry[msg.sender] */\n      0x00\n        /* \"MyHomeToken.sol\":5530:5540  msg.sender */\n      caller\n        /* \"MyHomeToken.sol\":5510:5541  shareHolderRegistry[msg.sender] */\n      0xffffffffffffffffffffffffffffffffffffffff\n      and\n      0xffffffffffffffffffffffffffffffffffffffff\n      and\n      dup2\n      mstore\n      0x20\n      add\n      swap1\n      dup2\n      mstore\n      0x20\n      add\n      0x00\n      keccak256\n      0x00\n        /* \"MyHomeToken.sol\":5510:5548  shareHolderRegistry[msg.sender] = true */\n      0x0100\n      exp\n      dup2\n      sload\n      dup2\n      0xff\n      mul\n      not\n      and\n      swap1\n      dup4\n      iszero\n      iszero\n      mul\n      or\n      swap1\n      sstore\n      pop\n        /* \"MyHomeToken.sol\":5562:5575  Vote memory v */\n      tag_218\n      tag_219\n      jump\t// in\n    tag_218:\n        /* \"MyHomeToken.sol\":5612:5622  msg.sender */\n      caller\n        /* \"MyHomeToken.sol\":5589:5590  v */\n      dup2\n        /* \"MyHomeToken.sol\":5589:5609  v.shareHolderAddress */\n      0x00\n      add\n        /* \"MyHomeToken.sol\":5589:5622  v.shareHolderAddress = msg.sender */\n      swap1\n      0xffffffffffffffffffffffffffffffffffffffff\n      and\n      swap1\n      dup2\n      0xffffffffffffffffffffffffffffffffffffffff\n      and\n      dup2\n      mstore\n      pop\n      pop\n        /* \"MyHomeToken.sol\":5647:5654  _choice */\n      dup5\n        /* \"MyHomeToken.sol\":5636:5637  v */\n      dup2\n        /* \"MyHomeToken.sol\":5636:5644  v.choice */\n      0x20\n      add\n        /* \"MyHomeToken.sol\":5636:5654  v.choice = _choice */\n      swap1\n      iszero\n      iszero\n      swap1\n      dup2\n      iszero\n      iszero\n      dup2\n      mstore\n      pop\n      pop\n        /* \"MyHomeToken.sol\":5672:5679  _choice */\n      dup5\n        /* \"MyHomeToken.sol\":5668:5747  if (_choice){... */\n      iszero\n      tag_220\n      jumpi\n        /* \"MyHomeToken.sol\":5698:5709  resultCount */\n      0x17\n      0x00\n        /* \"MyHomeToken.sol\":5698:5711  resultCount++ */\n      dup2\n      sload\n      dup1\n      swap3\n      swap2\n      swap1\n      tag_221\n      swap1\n      tag_207\n      jump\t// in\n    tag_221:\n      swap2\n      swap1\n      pop\n      sstore\n      pop\n        /* \"MyHomeToken.sol\":5668:5747  if (_choice){... */\n    tag_220:\n        /* \"MyHomeToken.sol\":5794:5795  v */\n      dup1\n        /* \"MyHomeToken.sol\":5760:5765  votes */\n      0x16\n        /* \"MyHomeToken.sol\":5760:5791  votes[currentBallot.totalVotes] */\n      0x00\n        /* \"MyHomeToken.sol\":5766:5779  currentBallot */\n      0x10\n        /* \"MyHomeToken.sol\":5766:5790  currentBallot.totalVotes */\n      0x04\n      add\n      sload\n        /* \"MyHomeToken.sol\":5760:5791  votes[currentBallot.totalVotes] */\n      dup2\n      mstore\n      0x20\n      add\n      swap1\n      dup2\n      mstore\n      0x20\n      add\n      0x00\n      keccak256\n        /* \"MyHomeToken.sol\":5760:5795  votes[currentBallot.totalVotes] = v */\n      0x00\n      dup3\n      add\n      mload\n      dup2\n      0x00\n      add\n      exp(0x0100, 0x00)\n      dup2\n      sload\n      dup2\n      0xffffffffffffffffffffffffffffffffffffffff\n      mul\n      not\n      and\n      swap1\n      dup4\n      0xffffffffffffffffffffffffffffffffffffffff\n      and\n      mul\n      or\n      swap1\n      sstore\n      pop\n      0x20\n      dup3\n      add\n      mload\n      dup2\n      0x00\n      add\n      exp(0x0100, 0x14)\n      dup2\n      sload\n      dup2\n      0xff\n      mul\n      not\n      and\n      swap1\n      dup4\n      iszero\n      iszero\n      mul\n      or\n      swap1\n      sstore\n      pop\n      swap1\n      pop\n      pop\n        /* \"MyHomeToken.sol\":5809:5822  currentBallot */\n      0x10\n        /* \"MyHomeToken.sol\":5809:5833  currentBallot.totalVotes */\n      0x04\n      add\n      0x00\n        /* \"MyHomeToken.sol\":5809:5835  currentBallot.totalVotes++ */\n      dup2\n      sload\n      dup1\n      swap3\n      swap2\n      swap1\n      tag_222\n      swap1\n      tag_207\n      jump\t// in\n    tag_222:\n      swap2\n      swap1\n      pop\n      sstore\n      pop\n        /* \"MyHomeToken.sol\":5857:5861  true */\n      0x01\n        /* \"MyHomeToken.sol\":5849:5861  found = true */\n      swap2\n      pop\n        /* \"MyHomeToken.sol\":5496:5872  {... */\n      pop\n        /* \"MyHomeToken.sol\":5459:5872  if (!shareHolderRegistry[msg.sender]){... */\n    tag_217:\n        /* \"MyHomeToken.sol\":5886:5906  voteDone(msg.sender) */\n      0x55c65cf9526efdf6c2252fe9757889dbd93e10172cad0f2edb1df619c88dbf7d\n        /* \"MyHomeToken.sol\":5895:5905  msg.sender */\n      caller\n        /* \"MyHomeToken.sol\":5886:5906  voteDone(msg.sender) */\n      mload(0x40)\n      tag_223\n      swap2\n      swap1\n      tag_89\n      jump\t// in\n    tag_223:\n      mload(0x40)\n      dup1\n      swap2\n      sub\n      swap1\n      log1\n        /* \"MyHomeToken.sol\":5923:5928  found */\n      dup1\n        /* \"MyHomeToken.sol\":5916:5928  return found */\n      swap3\n      pop\n      pop\n        /* \"MyHomeToken.sol\":5301:5935  function doVote(bool _choice)... */\n      pop\n      swap2\n      swap1\n      pop\n      jump\t// out\n        /* \"MyHomeToken.sol\":146:174  address payable public owner */\n    tag_102:\n      0x00\n      dup1\n      sload\n      swap1\n      0x0100\n      exp\n      swap1\n      div\n      0xffffffffffffffffffffffffffffffffffffffff\n      and\n      dup2\n      jump\t// out\n        /* \"MyHomeToken.sol\":3930:4359  function sellToOwner(uint tokenNum) public payable {... */\n    tag_107:\n        /* \"MyHomeToken.sol\":4011:4019  balances */\n      0x0d\n        /* \"MyHomeToken.sol\":4011:4031  balances[msg.sender] */\n      0x00\n        /* \"MyHomeToken.sol\":4020:4030  msg.sender */\n      caller\n        /* \"MyHomeToken.sol\":4011:4031  balances[msg.sender] */\n      0xffffffffffffffffffffffffffffffffffffffff\n      and\n      0xffffffffffffffffffffffffffffffffffffffff\n      and\n      dup2\n      mstore\n      0x20\n      add\n      swap1\n      dup2\n      mstore\n      0x20\n      add\n      0x00\n      keccak256\n      sload\n        /* \"MyHomeToken.sol\":3999:4007  tokenNum */\n      dup2\n        /* \"MyHomeToken.sol\":3999:4031  tokenNum <= balances[msg.sender] */\n      gt\n      iszero\n        /* \"MyHomeToken.sol\":3991:4069  require(tokenNum <= balances[msg.sender], \"Cannot sell shares you do not own\") */\n      tag_225\n      jumpi\n      mload(0x40)\n      0x08c379a000000000000000000000000000000000000000000000000000000000\n      dup2\n      mstore\n      0x04\n      add\n      tag_226\n      swap1\n      tag_227\n      jump\t// in\n    tag_226:\n      mload(0x40)\n      dup1\n      swap2\n      sub\n      swap1\n      revert\n    tag_225:\n        /* \"MyHomeToken.sol\":4079:4103  address payable receiver */\n      0x00\n        /* \"MyHomeToken.sol\":4114:4124  msg.sender */\n      caller\n        /* \"MyHomeToken.sol\":4079:4125  address payable receiver = payable(msg.sender) */\n      swap1\n      pop\n        /* \"MyHomeToken.sol\":4135:4143  receiver */\n      dup1\n        /* \"MyHomeToken.sol\":4135:4152  receiver.transfer */\n      0xffffffffffffffffffffffffffffffffffffffff\n      and\n        /* \"MyHomeToken.sol\":4135:4163  receiver.transfer(msg.value) */\n      0x08fc\n        /* \"MyHomeToken.sol\":4153:4162  msg.value */\n      callvalue\n        /* \"MyHomeToken.sol\":4135:4163  receiver.transfer(msg.value) */\n      swap1\n      dup2\n      iszero\n      mul\n      swap1\n      mload(0x40)\n      0x00\n      mload(0x40)\n      dup1\n      dup4\n      sub\n      dup2\n      dup6\n      dup9\n      dup9\n      call\n      swap4\n      pop\n      pop\n      pop\n      pop\n      iszero\n      dup1\n      iszero\n      tag_229\n      jumpi\n      returndatasize\n      0x00\n      dup1\n      returndatacopy\n      revert(0x00, returndatasize)\n    tag_229:\n      pop\n        /* \"MyHomeToken.sol\":4189:4197  balances */\n      0x0d\n        /* \"MyHomeToken.sol\":4189:4209  balances[msg.sender] */\n      0x00\n        /* \"MyHomeToken.sol\":4198:4208  msg.sender */\n      caller\n        /* \"MyHomeToken.sol\":4189:4209  balances[msg.sender] */\n      0xffffffffffffffffffffffffffffffffffffffff\n      and\n      0xffffffffffffffffffffffffffffffffffffffff\n      and\n      dup2\n      mstore\n      0x20\n      add\n      swap1\n      dup2\n      mstore\n      0x20\n      add\n      0x00\n      keccak256\n      sload\n        /* \"MyHomeToken.sol\":4177:4185  tokenNum */\n      dup3\n        /* \"MyHomeToken.sol\":4177:4209  tokenNum == balances[msg.sender] */\n      eq\n        /* \"MyHomeToken.sol\":4173:4265  if (tokenNum == balances[msg.sender]) {... */\n      iszero\n      tag_230\n      jumpi\n        /* \"MyHomeToken.sol\":4225:4254  removeShareHolder(msg.sender) */\n      tag_231\n        /* \"MyHomeToken.sol\":4243:4253  msg.sender */\n      caller\n        /* \"MyHomeToken.sol\":4225:4242  removeShareHolder */\n      tag_79\n        /* \"MyHomeToken.sol\":4225:4254  removeShareHolder(msg.sender) */\n      jump\t// in\n    tag_231:\n        /* \"MyHomeToken.sol\":4173:4265  if (tokenNum == balances[msg.sender]) {... */\n    tag_230:\n        /* \"MyHomeToken.sol\":4299:4307  tokenNum */\n      dup2\n        /* \"MyHomeToken.sol\":4275:4283  balances */\n      0x0d\n        /* \"MyHomeToken.sol\":4275:4295  balances[msg.sender] */\n      0x00\n        /* \"MyHomeToken.sol\":4284:4294  msg.sender */\n      caller\n        /* \"MyHomeToken.sol\":4275:4295  balances[msg.sender] */\n      0xffffffffffffffffffffffffffffffffffffffff\n      and\n      0xffffffffffffffffffffffffffffffffffffffff\n      and\n      dup2\n      mstore\n      0x20\n      add\n      swap1\n      dup2\n      mstore\n      0x20\n      add\n      0x00\n      keccak256\n      0x00\n        /* \"MyHomeToken.sol\":4275:4307  balances[msg.sender] -= tokenNum */\n      dup3\n      dup3\n      sload\n      tag_232\n      swap2\n      swap1\n      tag_233\n      jump\t// in\n    tag_232:\n      swap3\n      pop\n      pop\n      dup2\n      swap1\n      sstore\n      pop\n        /* \"MyHomeToken.sol\":4336:4344  tokenNum */\n      dup2\n        /* \"MyHomeToken.sol\":4317:4325  balances */\n      0x0d\n        /* \"MyHomeToken.sol\":4317:4332  balances[owner] */\n      0x00\n        /* \"MyHomeToken.sol\":4326:4331  owner */\n      dup1\n      0x00\n      swap1\n      sload\n      swap1\n      0x0100\n      exp\n      swap1\n      div\n      0xffffffffffffffffffffffffffffffffffffffff\n      and\n        /* \"MyHomeToken.sol\":4317:4332  balances[owner] */\n      0xffffffffffffffffffffffffffffffffffffffff\n      and\n      0xffffffffffffffffffffffffffffffffffffffff\n      and\n      dup2\n      mstore\n      0x20\n      add\n      swap1\n      dup2\n      mstore\n      0x20\n      add\n      0x00\n      keccak256\n      0x00\n        /* \"MyHomeToken.sol\":4317:4344  balances[owner] += tokenNum */\n      dup3\n      dup3\n      sload\n      tag_234\n      swap2\n      swap1\n      tag_235\n      jump\t// in\n    tag_234:\n      swap3\n      pop\n      pop\n      dup2\n      swap1\n      sstore\n      pop\n        /* \"MyHomeToken.sol\":3981:4359  {... */\n      pop\n        /* \"MyHomeToken.sol\":3930:4359  function sellToOwner(uint tokenNum) public payable {... */\n      pop\n      jump\t// out\n        /* \"MyHomeToken.sol\":386:419  uint public totalShareHolders = 0 */\n    tag_110:\n      sload(0x09)\n      dup2\n      jump\t// out\n        /* \"MyHomeToken.sol\":210:238  House[] public houseRegister */\n    tag_115:\n      0x04\n      dup2\n      dup2\n      sload\n      dup2\n      lt\n      tag_236\n      jumpi\n      0x00\n      dup1\n      revert\n    tag_236:\n      swap1\n      0x00\n      mstore\n      keccak256(0x00, 0x20)\n      swap1\n      0x03\n      mul\n      add\n      0x00\n      swap2\n      pop\n      swap1\n      pop\n      dup1\n      0x00\n      add\n      dup1\n      sload\n      tag_238\n      swap1\n      tag_158\n      jump\t// in\n    tag_238:\n      dup1\n      0x1f\n      add\n      0x20\n      dup1\n      swap2\n      div\n      mul\n      0x20\n      add\n      mload(0x40)\n      swap1\n      dup2\n      add\n      0x40\n      mstore\n      dup1\n      swap3\n      swap2\n      swap1\n      dup2\n      dup2\n      mstore\n      0x20\n      add\n      dup3\n      dup1\n      sload\n      tag_239\n      swap1\n      tag_158\n      jump\t// in\n    tag_239:\n      dup1\n      iszero\n      tag_240\n      jumpi\n      dup1\n      0x1f\n      lt\n      tag_241\n      jumpi\n      0x0100\n      dup1\n      dup4\n      sload\n      div\n      mul\n      dup4\n      mstore\n      swap2\n      0x20\n      add\n      swap2\n      jump(tag_240)\n    tag_241:\n      dup3\n      add\n      swap2\n      swap1\n      0x00\n      mstore\n      keccak256(0x00, 0x20)\n      swap1\n    tag_242:\n      dup2\n      sload\n      dup2\n      mstore\n      swap1\n      0x01\n      add\n      swap1\n      0x20\n      add\n      dup1\n      dup4\n      gt\n      tag_242\n      jumpi\n      dup3\n      swap1\n      sub\n      0x1f\n      and\n      dup3\n      add\n      swap2\n    tag_240:\n      pop\n      pop\n      pop\n      pop\n      pop\n      swap1\n      dup1\n      0x01\n      add\n      dup1\n      sload\n      tag_243\n      swap1\n      tag_158\n      jump\t// in\n    tag_243:\n      dup1\n      0x1f\n      add\n      0x20\n      dup1\n      swap2\n      div\n      mul\n      0x20\n      add\n      mload(0x40)\n      swap1\n      dup2\n      add\n      0x40\n      mstore\n      dup1\n      swap3\n      swap2\n      swap1\n      dup2\n      dup2\n      mstore\n      0x20\n      add\n      dup3\n      dup1\n      sload\n      tag_244\n      swap1\n      tag_158\n      jump\t// in\n    tag_244:\n      dup1\n      iszero\n      tag_245\n      jumpi\n      dup1\n      0x1f\n      lt\n      tag_246\n      jumpi\n      0x0100\n      dup1\n      dup4\n      sload\n      div\n      mul\n      dup4\n      mstore\n      swap2\n      0x20\n      add\n      swap2\n      jump(tag_245)\n    tag_246:\n      dup3\n      add\n      swap2\n      swap1\n      0x00\n      mstore\n      keccak256(0x00, 0x20)\n      swap1\n    tag_247:\n      dup2\n      sload\n      dup2\n      mstore\n      swap1\n      0x01\n      add\n      swap1\n      0x20\n      add\n      dup1\n      dup4\n      gt\n      tag_247\n      jumpi\n      dup3\n      swap1\n      sub\n      0x1f\n      and\n      dup3\n      add\n      swap2\n    tag_245:\n      pop\n      pop\n      pop\n      pop\n      pop\n      swap1\n      dup1\n      0x02\n      add\n      sload\n      swap1\n      pop\n      dup4\n      jump\t// out\n        /* \"MyHomeToken.sol\":3704:3924  function transfer(address _to, uint256 _value) public {... */\n    tag_122:\n        /* \"MyHomeToken.sol\":3801:3807  _value */\n      dup1\n        /* \"MyHomeToken.sol\":3777:3785  balances */\n      0x0d\n        /* \"MyHomeToken.sol\":3777:3797  balances[msg.sender] */\n      0x00\n        /* \"MyHomeToken.sol\":3786:3796  msg.sender */\n      caller\n        /* \"MyHomeToken.sol\":3777:3797  balances[msg.sender] */\n      0xffffffffffffffffffffffffffffffffffffffff\n      and\n      0xffffffffffffffffffffffffffffffffffffffff\n      and\n      dup2\n      mstore\n      0x20\n      add\n      swap1\n      dup2\n      mstore\n      0x20\n      add\n      0x00\n      keccak256\n      sload\n        /* \"MyHomeToken.sol\":3777:3807  balances[msg.sender] >= _value */\n      lt\n      iszero\n        /* \"MyHomeToken.sol\":3768:3808  require (balances[msg.sender] >= _value) */\n      tag_249\n      jumpi\n      0x00\n      dup1\n      revert\n    tag_249:\n        /* \"MyHomeToken.sol\":3840:3845  owner */\n      0x00\n      dup1\n      sload\n      swap1\n      0x0100\n      exp\n      swap1\n      div\n      0xffffffffffffffffffffffffffffffffffffffff\n      and\n        /* \"MyHomeToken.sol\":3826:3845  msg.sender == owner */\n      0xffffffffffffffffffffffffffffffffffffffff\n      and\n        /* \"MyHomeToken.sol\":3826:3836  msg.sender */\n      caller\n        /* \"MyHomeToken.sol\":3826:3845  msg.sender == owner */\n      0xffffffffffffffffffffffffffffffffffffffff\n      and\n      eq\n        /* \"MyHomeToken.sol\":3818:3846  require(msg.sender == owner) */\n      tag_250\n      jumpi\n      0x00\n      dup1\n      revert\n    tag_250:\n        /* \"MyHomeToken.sol\":3880:3886  _value */\n      dup1\n        /* \"MyHomeToken.sol\":3856:3864  balances */\n      0x0d\n        /* \"MyHomeToken.sol\":3856:3876  balances[msg.sender] */\n      0x00\n        /* \"MyHomeToken.sol\":3865:3875  msg.sender */\n      caller\n        /* \"MyHomeToken.sol\":3856:3876  balances[msg.sender] */\n      0xffffffffffffffffffffffffffffffffffffffff\n      and\n      0xffffffffffffffffffffffffffffffffffffffff\n      and\n      dup2\n      mstore\n      0x20\n      add\n      swap1\n      dup2\n      mstore\n      0x20\n      add\n      0x00\n      keccak256\n      0x00\n        /* \"MyHomeToken.sol\":3856:3886  balances[msg.sender] -= _value */\n      dup3\n      dup3\n      sload\n      tag_251\n      swap2\n      swap1\n      tag_233\n      jump\t// in\n    tag_251:\n      swap3\n      pop\n      pop\n      dup2\n      swap1\n      sstore\n      pop\n        /* \"MyHomeToken.sol\":3911:3917  _value */\n      dup1\n        /* \"MyHomeToken.sol\":3896:3904  balances */\n      0x0d\n        /* \"MyHomeToken.sol\":3896:3909  balances[_to] */\n      0x00\n        /* \"MyHomeToken.sol\":3905:3908  _to */\n      dup5\n        /* \"MyHomeToken.sol\":3896:3909  balances[_to] */\n      0xffffffffffffffffffffffffffffffffffffffff\n      and\n      0xffffffffffffffffffffffffffffffffffffffff\n      and\n      dup2\n      mstore\n      0x20\n      add\n      swap1\n      dup2\n      mstore\n      0x20\n      add\n      0x00\n      keccak256\n      0x00\n        /* \"MyHomeToken.sol\":3896:3917  balances[_to]+=_value */\n      dup3\n      dup3\n      sload\n      tag_252\n      swap2\n      swap1\n      tag_235\n      jump\t// in\n    tag_252:\n      swap3\n      pop\n      pop\n      dup2\n      swap1\n      sstore\n      pop\n        /* \"MyHomeToken.sol\":3704:3924  function transfer(address _to, uint256 _value) public {... */\n      pop\n      pop\n      jump\t// out\n        /* \"MyHomeToken.sol\":3042:3392  function addShareHolder(address _shareHolderAddress)... */\n    tag_126:\n        /* \"MyHomeToken.sol\":3132:3161  contains(_shareHolderAddress) */\n      tag_254\n        /* \"MyHomeToken.sol\":3141:3160  _shareHolderAddress */\n      dup2\n        /* \"MyHomeToken.sol\":3132:3140  contains */\n      tag_255\n        /* \"MyHomeToken.sol\":3132:3161  contains(_shareHolderAddress) */\n      jump\t// in\n    tag_254:\n        /* \"MyHomeToken.sol\":3128:3377  if(!contains(_shareHolderAddress)) {... */\n      tag_256\n      jumpi\n        /* \"MyHomeToken.sol\":3220:3225  false */\n      0x00\n        /* \"MyHomeToken.sol\":3177:3196  shareHolderRegistry */\n      0x0c\n        /* \"MyHomeToken.sol\":3177:3217  shareHolderRegistry[_shareHolderAddress] */\n      0x00\n        /* \"MyHomeToken.sol\":3197:3216  _shareHolderAddress */\n      dup4\n        /* \"MyHomeToken.sol\":3177:3217  shareHolderRegistry[_shareHolderAddress] */\n      0xffffffffffffffffffffffffffffffffffffffff\n      and\n      0xffffffffffffffffffffffffffffffffffffffff\n      and\n      dup2\n      mstore\n      0x20\n      add\n      swap1\n      dup2\n      mstore\n      0x20\n      add\n      0x00\n      keccak256\n      0x00\n        /* \"MyHomeToken.sol\":3177:3225  shareHolderRegistry[_shareHolderAddress] = false */\n      0x0100\n      exp\n      dup2\n      sload\n      dup2\n      0xff\n      mul\n      not\n      and\n      swap1\n      dup4\n      iszero\n      iszero\n      mul\n      or\n      swap1\n      sstore\n      pop\n        /* \"MyHomeToken.sol\":3239:3251  shareHolders */\n      0x0b\n        /* \"MyHomeToken.sol\":3257:3276  _shareHolderAddress */\n      dup2\n        /* \"MyHomeToken.sol\":3239:3277  shareHolders.push(_shareHolderAddress) */\n      swap1\n      dup1\n      0x01\n      dup2\n      sload\n      add\n      dup1\n      dup3\n      sstore\n      dup1\n      swap2\n      pop\n      pop\n      0x01\n      swap1\n      sub\n      swap1\n      0x00\n      mstore\n      keccak256(0x00, 0x20)\n      add\n      0x00\n      swap1\n      swap2\n      swap1\n      swap2\n      swap1\n      swap2\n      0x0100\n      exp\n      dup2\n      sload\n      dup2\n      0xffffffffffffffffffffffffffffffffffffffff\n      mul\n      not\n      and\n      swap1\n      dup4\n      0xffffffffffffffffffffffffffffffffffffffff\n      and\n      mul\n      or\n      swap1\n      sstore\n      pop\n        /* \"MyHomeToken.sol\":3291:3308  totalShareHolders */\n      0x09\n      0x00\n        /* \"MyHomeToken.sol\":3291:3310  totalShareHolders++ */\n      dup2\n      sload\n      dup1\n      swap3\n      swap2\n      swap1\n      tag_258\n      swap1\n      tag_207\n      jump\t// in\n    tag_258:\n      swap2\n      swap1\n      pop\n      sstore\n      pop\n        /* \"MyHomeToken.sol\":3329:3366  ShareHolderAdded(_shareHolderAddress) */\n      0x30040c92e8da146ac410fb6841ea0f60af3b8f3788e5e7354e48d97d018f39dd\n        /* \"MyHomeToken.sol\":3346:3365  _shareHolderAddress */\n      dup2\n        /* \"MyHomeToken.sol\":3329:3366  ShareHolderAdded(_shareHolderAddress) */\n      mload(0x40)\n      tag_259\n      swap2\n      swap1\n      tag_89\n      jump\t// in\n    tag_259:\n      mload(0x40)\n      dup1\n      swap2\n      sub\n      swap1\n      log1\n        /* \"MyHomeToken.sol\":3128:3377  if(!contains(_shareHolderAddress)) {... */\n    tag_256:\n        /* \"MyHomeToken.sol\":3042:3392  function addShareHolder(address _shareHolderAddress)... */\n      pop\n      jump\t// out\n        /* \"MyHomeToken.sol\":5945:6201  function endVote()... */\n    tag_129:\n        /* \"MyHomeToken.sol\":6001:6019  BallotState.Voting */\n      0x01\n        /* \"MyHomeToken.sol\":1895:1901  _state */\n      dup1\n        /* \"MyHomeToken.sol\":1880:1901  ballotState == _state */\n      0x02\n      dup2\n      gt\n      iszero\n      tag_261\n      jumpi\n      tag_262\n      tag_156\n      jump\t// in\n    tag_262:\n    tag_261:\n        /* \"MyHomeToken.sol\":1880:1891  ballotState */\n      0x15\n      0x00\n      swap1\n      sload\n      swap1\n      0x0100\n      exp\n      swap1\n      div\n      0xff\n      and\n        /* \"MyHomeToken.sol\":1880:1901  ballotState == _state */\n      0x02\n      dup2\n      gt\n      iszero\n      tag_263\n      jumpi\n      tag_264\n      tag_156\n      jump\t// in\n    tag_264:\n    tag_263:\n      eq\n        /* \"MyHomeToken.sol\":1872:1902  require(ballotState == _state) */\n      tag_265\n      jumpi\n      0x00\n      dup1\n      revert\n    tag_265:\n        /* \"MyHomeToken.sol\":1787:1800  currentBallot */\n      0x10\n        /* \"MyHomeToken.sol\":1787:1812  currentBallot.ballotOwner */\n      0x01\n      add\n      0x00\n      swap1\n      sload\n      swap1\n      0x0100\n      exp\n      swap1\n      div\n      0xffffffffffffffffffffffffffffffffffffffff\n      and\n        /* \"MyHomeToken.sol\":1773:1812  msg.sender == currentBallot.ballotOwner */\n      0xffffffffffffffffffffffffffffffffffffffff\n      and\n        /* \"MyHomeToken.sol\":1773:1783  msg.sender */\n      caller\n        /* \"MyHomeToken.sol\":1773:1812  msg.sender == currentBallot.ballotOwner */\n      0xffffffffffffffffffffffffffffffffffffffff\n      and\n      eq\n        /* \"MyHomeToken.sol\":1765:1813  require(msg.sender == currentBallot.ballotOwner) */\n      tag_267\n      jumpi\n      0x00\n      dup1\n      revert\n    tag_267:\n        /* \"MyHomeToken.sol\":6077:6094  BallotState.Ended */\n      0x02\n        /* \"MyHomeToken.sol\":6063:6074  ballotState */\n      0x15\n      0x00\n        /* \"MyHomeToken.sol\":6063:6094  ballotState = BallotState.Ended */\n      0x0100\n      exp\n      dup2\n      sload\n      dup2\n      0xff\n      mul\n      not\n      and\n      swap1\n      dup4\n      0x02\n      dup2\n      gt\n      iszero\n      tag_269\n      jumpi\n      tag_270\n      tag_156\n      jump\t// in\n    tag_270:\n    tag_269:\n      mul\n      or\n      swap1\n      sstore\n      pop\n        /* \"MyHomeToken.sol\":6132:6143  resultCount */\n      sload(0x17)\n        /* \"MyHomeToken.sol\":6104:6117  currentBallot */\n      0x10\n        /* \"MyHomeToken.sol\":6104:6129  currentBallot.finalResult */\n      0x03\n      add\n        /* \"MyHomeToken.sol\":6104:6143  currentBallot.finalResult = resultCount */\n      dup2\n      swap1\n      sstore\n      pop\n        /* \"MyHomeToken.sol\":6158:6194  voteEnded(currentBallot.finalResult) */\n      0xb43a401dcdbe02a8afa41feb6c651425997908d1a4b79cf505188ba1dd3fd872\n        /* \"MyHomeToken.sol\":6168:6181  currentBallot */\n      0x10\n        /* \"MyHomeToken.sol\":6168:6193  currentBallot.finalResult */\n      0x03\n      add\n      sload\n        /* \"MyHomeToken.sol\":6158:6194  voteEnded(currentBallot.finalResult) */\n      mload(0x40)\n      tag_271\n      swap2\n      swap1\n      tag_37\n      jump\t// in\n    tag_271:\n      mload(0x40)\n      dup1\n      swap2\n      sub\n      swap1\n      log1\n        /* \"MyHomeToken.sol\":5945:6201  function endVote()... */\n      pop\n      jump\t// out\n        /* \"MyHomeToken.sol\":2184:2288  function etherBalance(address _addr) public view returns (uint256) {... */\n    tag_133:\n        /* \"MyHomeToken.sol\":2242:2249  uint256 */\n      0x00\n        /* \"MyHomeToken.sol\":2268:2273  _addr */\n      dup2\n        /* \"MyHomeToken.sol\":2268:2281  _addr.balance */\n      0xffffffffffffffffffffffffffffffffffffffff\n      and\n      balance\n        /* \"MyHomeToken.sol\":2261:2281  return _addr.balance */\n      swap1\n      pop\n        /* \"MyHomeToken.sol\":2184:2288  function etherBalance(address _addr) public view returns (uint256) {... */\n      swap2\n      swap1\n      pop\n      jump\t// out\n        /* \"MyHomeToken.sol\":180:204  HousingPackage public hp */\n    tag_137:\n      0x01\n      dup1\n      0x00\n      add\n      dup1\n      sload\n      tag_273\n      swap1\n      tag_158\n      jump\t// in\n    tag_273:\n      dup1\n      0x1f\n      add\n      0x20\n      dup1\n      swap2\n      div\n      mul\n      0x20\n      add\n      mload(0x40)\n      swap1\n      dup2\n      add\n      0x40\n      mstore\n      dup1\n      swap3\n      swap2\n      swap1\n      dup2\n      dup2\n      mstore\n      0x20\n      add\n      dup3\n      dup1\n      sload\n      tag_274\n      swap1\n      tag_158\n      jump\t// in\n    tag_274:\n      dup1\n      iszero\n      tag_275\n      jumpi\n      dup1\n      0x1f\n      lt\n      tag_276\n      jumpi\n      0x0100\n      dup1\n      dup4\n      sload\n      div\n      mul\n      dup4\n      mstore\n      swap2\n      0x20\n      add\n      swap2\n      jump(tag_275)\n    tag_276:\n      dup3\n      add\n      swap2\n      swap1\n      0x00\n      mstore\n      keccak256(0x00, 0x20)\n      swap1\n    tag_277:\n      dup2\n      sload\n      dup2\n      mstore\n      swap1\n      0x01\n      add\n      swap1\n      0x20\n      add\n      dup1\n      dup4\n      gt\n      tag_277\n      jumpi\n      dup3\n      swap1\n      sub\n      0x1f\n      and\n      dup3\n      add\n      swap2\n    tag_275:\n      pop\n      pop\n      pop\n      pop\n      pop\n      swap1\n      dup1\n      0x01\n      add\n      dup1\n      sload\n      tag_278\n      swap1\n      tag_158\n      jump\t// in\n    tag_278:\n      dup1\n      0x1f\n      add\n      0x20\n      dup1\n      swap2\n      div\n      mul\n      0x20\n      add\n      mload(0x40)\n      swap1\n      dup2\n      add\n      0x40\n      mstore\n      dup1\n      swap3\n      swap2\n      swap1\n      dup2\n      dup2\n      mstore\n      0x20\n      add\n      dup3\n      dup1\n      sload\n      tag_279\n      swap1\n      tag_158\n      jump\t// in\n    tag_279:\n      dup1\n      iszero\n      tag_280\n      jumpi\n      dup1\n      0x1f\n      lt\n      tag_281\n      jumpi\n      0x0100\n      dup1\n      dup4\n      sload\n      div\n      mul\n      dup4\n      mstore\n      swap2\n      0x20\n      add\n      swap2\n      jump(tag_280)\n    tag_281:\n      dup3\n      add\n      swap2\n      swap1\n      0x00\n      mstore\n      keccak256(0x00, 0x20)\n      swap1\n    tag_282:\n      dup2\n      sload\n      dup2\n      mstore\n      swap1\n      0x01\n      add\n      swap1\n      0x20\n      add\n      dup1\n      dup4\n      gt\n      tag_282\n      jumpi\n      dup3\n      swap1\n      sub\n      0x1f\n      and\n      dup3\n      add\n      swap2\n    tag_280:\n      pop\n      pop\n      pop\n      pop\n      pop\n      swap1\n      dup1\n      0x02\n      add\n      sload\n      swap1\n      pop\n      dup4\n      jump\t// out\n        /* \"MyHomeToken.sol\":4365:4842  function buy(uint tokenNum) public payable {... */\n    tag_141:\n        /* \"MyHomeToken.sol\":4418:4435  uint256 unitPrice */\n      0x00\n        /* \"MyHomeToken.sol\":4452:4463  totalShares */\n      sload(0x06)\n        /* \"MyHomeToken.sol\":4438:4440  hp */\n      0x01\n        /* \"MyHomeToken.sol\":4438:4451  hp.totalValue */\n      0x02\n      add\n      sload\n        /* \"MyHomeToken.sol\":4438:4463  hp.totalValue/totalShares */\n      tag_284\n      swap2\n      swap1\n      tag_285\n      jump\t// in\n    tag_284:\n        /* \"MyHomeToken.sol\":4418:4463  uint256 unitPrice = hp.totalValue/totalShares */\n      swap1\n      pop\n        /* \"MyHomeToken.sol\":4473:4496  uint requiredWeiBalance */\n      0x00\n        /* \"MyHomeToken.sol\":4511:4519  tokenNum */\n      dup3\n        /* \"MyHomeToken.sol\":4499:4508  unitPrice */\n      dup3\n        /* \"MyHomeToken.sol\":4499:4519  unitPrice * tokenNum */\n      tag_286\n      swap2\n      swap1\n      tag_287\n      jump\t// in\n    tag_286:\n        /* \"MyHomeToken.sol\":4473:4519  uint requiredWeiBalance = unitPrice * tokenNum */\n      swap1\n      pop\n        /* \"MyHomeToken.sol\":4550:4568  requiredWeiBalance */\n      dup1\n        /* \"MyHomeToken.sol\":4537:4546  msg.value */\n      callvalue\n        /* \"MyHomeToken.sol\":4537:4568  msg.value != requiredWeiBalance */\n      eq\n      iszero\n        /* \"MyHomeToken.sol\":4529:4604  require(msg.value != requiredWeiBalance, \"Incorrect wei amount submitted!\") */\n      tag_288\n      jumpi\n      mload(0x40)\n      0x08c379a000000000000000000000000000000000000000000000000000000000\n      dup2\n      mstore\n      0x04\n      add\n      tag_289\n      swap1\n      tag_290\n      jump\t// in\n    tag_289:\n      mload(0x40)\n      dup1\n      swap2\n      sub\n      swap1\n      revert\n    tag_288:\n        /* \"MyHomeToken.sol\":4635:4645  shareLimit */\n      sload(0x08)\n        /* \"MyHomeToken.sol\":4623:4631  tokenNum */\n      dup4\n        /* \"MyHomeToken.sol\":4623:4645  tokenNum <= shareLimit */\n      gt\n      iszero\n        /* \"MyHomeToken.sol\":4615:4685  require(tokenNum <= shareLimit, \"Number of shares exceeded the limit\") */\n      tag_291\n      jumpi\n      mload(0x40)\n      0x08c379a000000000000000000000000000000000000000000000000000000000\n      dup2\n      mstore\n      0x04\n      add\n      tag_292\n      swap1\n      tag_293\n      jump\t// in\n    tag_292:\n      mload(0x40)\n      dup1\n      swap2\n      sub\n      swap1\n      revert\n    tag_291:\n        /* \"MyHomeToken.sol\":4695:4700  owner */\n      0x00\n      dup1\n      sload\n      swap1\n      0x0100\n      exp\n      swap1\n      div\n      0xffffffffffffffffffffffffffffffffffffffff\n      and\n        /* \"MyHomeToken.sol\":4695:4709  owner.transfer */\n      0xffffffffffffffffffffffffffffffffffffffff\n      and\n        /* \"MyHomeToken.sol\":4695:4720  owner.transfer(msg.value) */\n      0x08fc\n        /* \"MyHomeToken.sol\":4710:4719  msg.value */\n      callvalue\n        /* \"MyHomeToken.sol\":4695:4720  owner.transfer(msg.value) */\n      swap1\n      dup2\n      iszero\n      mul\n      swap1\n      mload(0x40)\n      0x00\n      mload(0x40)\n      dup1\n      dup4\n      sub\n      dup2\n      dup6\n      dup9\n      dup9\n      call\n      swap4\n      pop\n      pop\n      pop\n      pop\n      iszero\n      dup1\n      iszero\n      tag_295\n      jumpi\n      returndatasize\n      0x00\n      dup1\n      returndatacopy\n      revert(0x00, returndatasize)\n    tag_295:\n      pop\n        /* \"MyHomeToken.sol\":4749:4757  tokenNum */\n      dup3\n        /* \"MyHomeToken.sol\":4730:4738  balances */\n      0x0d\n        /* \"MyHomeToken.sol\":4730:4745  balances[owner] */\n      0x00\n        /* \"MyHomeToken.sol\":4739:4744  owner */\n      dup1\n      0x00\n      swap1\n      sload\n      swap1\n      0x0100\n      exp\n      swap1\n      div\n      0xffffffffffffffffffffffffffffffffffffffff\n      and\n        /* \"MyHomeToken.sol\":4730:4745  balances[owner] */\n      0xffffffffffffffffffffffffffffffffffffffff\n      and\n      0xffffffffffffffffffffffffffffffffffffffff\n      and\n      dup2\n      mstore\n      0x20\n      add\n      swap1\n      dup2\n      mstore\n      0x20\n      add\n      0x00\n      keccak256\n      0x00\n        /* \"MyHomeToken.sol\":4730:4757  balances[owner] -= tokenNum */\n      dup3\n      dup3\n      sload\n      tag_296\n      swap2\n      swap1\n      tag_233\n      jump\t// in\n    tag_296:\n      swap3\n      pop\n      pop\n      dup2\n      swap1\n      sstore\n      pop\n        /* \"MyHomeToken.sol\":4791:4799  tokenNum */\n      dup3\n        /* \"MyHomeToken.sol\":4767:4775  balances */\n      0x0d\n        /* \"MyHomeToken.sol\":4767:4787  balances[msg.sender] */\n      0x00\n        /* \"MyHomeToken.sol\":4776:4786  msg.sender */\n      caller\n        /* \"MyHomeToken.sol\":4767:4787  balances[msg.sender] */\n      0xffffffffffffffffffffffffffffffffffffffff\n      and\n      0xffffffffffffffffffffffffffffffffffffffff\n      and\n      dup2\n      mstore\n      0x20\n      add\n      swap1\n      dup2\n      mstore\n      0x20\n      add\n      0x00\n      keccak256\n      0x00\n        /* \"MyHomeToken.sol\":4767:4799  balances[msg.sender] += tokenNum */\n      dup3\n      dup3\n      sload\n      tag_297\n      swap2\n      swap1\n      tag_235\n      jump\t// in\n    tag_297:\n      swap3\n      pop\n      pop\n      dup2\n      swap1\n      sstore\n      pop\n        /* \"MyHomeToken.sol\":4809:4835  addShareHolder(msg.sender) */\n      tag_298\n        /* \"MyHomeToken.sol\":4824:4834  msg.sender */\n      caller\n        /* \"MyHomeToken.sol\":4809:4823  addShareHolder */\n      tag_126\n        /* \"MyHomeToken.sol\":4809:4835  addShareHolder(msg.sender) */\n      jump\t// in\n    tag_298:\n        /* \"MyHomeToken.sol\":4408:4842  {... */\n      pop\n      pop\n        /* \"MyHomeToken.sol\":4365:4842  function buy(uint tokenNum) public payable {... */\n      pop\n      jump\t// out\n        /* \"MyHomeToken.sol\":2388:2758  function addHouse(string memory _registrationId, string memory location, uint256 price) ... */\n    tag_146:\n        /* \"MyHomeToken.sol\":1635:1640  owner */\n      0x00\n      dup1\n      sload\n      swap1\n      0x0100\n      exp\n      swap1\n      div\n      0xffffffffffffffffffffffffffffffffffffffff\n      and\n        /* \"MyHomeToken.sol\":1621:1640  msg.sender == owner */\n      0xffffffffffffffffffffffffffffffffffffffff\n      and\n        /* \"MyHomeToken.sol\":1621:1631  msg.sender */\n      caller\n        /* \"MyHomeToken.sol\":1621:1640  msg.sender == owner */\n      0xffffffffffffffffffffffffffffffffffffffff\n      and\n      eq\n        /* \"MyHomeToken.sol\":1613:1641  require(msg.sender == owner) */\n      tag_300\n      jumpi\n      0x00\n      dup1\n      revert\n    tag_300:\n        /* \"MyHomeToken.sol\":2531:2544  State.Created */\n      0x00\n        /* \"MyHomeToken.sol\":1708:1714  _state */\n      dup1\n        /* \"MyHomeToken.sol\":1699:1714  state == _state */\n      0x01\n      dup2\n      gt\n      iszero\n      tag_302\n      jumpi\n      tag_303\n      tag_156\n      jump\t// in\n    tag_303:\n    tag_302:\n        /* \"MyHomeToken.sol\":1699:1704  state */\n      0x0a\n      0x00\n      swap1\n      sload\n      swap1\n      0x0100\n      exp\n      swap1\n      div\n      0xff\n      and\n        /* \"MyHomeToken.sol\":1699:1714  state == _state */\n      0x01\n      dup2\n      gt\n      iszero\n      tag_304\n      jumpi\n      tag_305\n      tag_156\n      jump\t// in\n    tag_305:\n    tag_304:\n      eq\n        /* \"MyHomeToken.sol\":1691:1715  require(state == _state) */\n      tag_306\n      jumpi\n      0x00\n      dup1\n      revert\n    tag_306:\n        /* \"MyHomeToken.sol\":2561:2575  House memory h */\n      0x00\n        /* \"MyHomeToken.sol\":2578:2617  House(_registrationId, location, price) */\n      mload(0x40)\n      dup1\n      0x60\n      add\n      0x40\n      mstore\n      dup1\n        /* \"MyHomeToken.sol\":2584:2599  _registrationId */\n      dup7\n        /* \"MyHomeToken.sol\":2578:2617  House(_registrationId, location, price) */\n      dup2\n      mstore\n      0x20\n      add\n        /* \"MyHomeToken.sol\":2601:2609  location */\n      dup6\n        /* \"MyHomeToken.sol\":2578:2617  House(_registrationId, location, price) */\n      dup2\n      mstore\n      0x20\n      add\n        /* \"MyHomeToken.sol\":2611:2616  price */\n      dup5\n        /* \"MyHomeToken.sol\":2578:2617  House(_registrationId, location, price) */\n      dup2\n      mstore\n      pop\n        /* \"MyHomeToken.sol\":2561:2617  House memory h = House(_registrationId, location, price) */\n      swap1\n      pop\n        /* \"MyHomeToken.sol\":2644:2649  price */\n      dup3\n        /* \"MyHomeToken.sol\":2627:2629  hp */\n      0x01\n        /* \"MyHomeToken.sol\":2627:2640  hp.totalValue */\n      0x02\n      add\n      0x00\n        /* \"MyHomeToken.sol\":2627:2649  hp.totalValue += price */\n      dup3\n      dup3\n      sload\n      tag_308\n      swap2\n      swap1\n      tag_235\n      jump\t// in\n    tag_308:\n      swap3\n      pop\n      pop\n      dup2\n      swap1\n      sstore\n      pop\n        /* \"MyHomeToken.sol\":2659:2672  houseRegister */\n      0x04\n        /* \"MyHomeToken.sol\":2678:2679  h */\n      dup2\n        /* \"MyHomeToken.sol\":2659:2680  houseRegister.push(h) */\n      swap1\n      dup1\n      0x01\n      dup2\n      sload\n      add\n      dup1\n      dup3\n      sstore\n      dup1\n      swap2\n      pop\n      pop\n      0x01\n      swap1\n      sub\n      swap1\n      0x00\n      mstore\n      keccak256(0x00, 0x20)\n      swap1\n      0x03\n      mul\n      add\n      0x00\n      swap1\n      swap2\n      swap1\n      swap2\n      swap1\n      swap2\n      pop\n      0x00\n      dup3\n      add\n      mload\n      dup2\n      0x00\n      add\n      swap1\n      dup1\n      mload\n      swap1\n      0x20\n      add\n      swap1\n      tag_310\n      swap3\n      swap2\n      swap1\n      tag_172\n      jump\t// in\n    tag_310:\n      pop\n      0x20\n      dup3\n      add\n      mload\n      dup2\n      0x01\n      add\n      swap1\n      dup1\n      mload\n      swap1\n      0x20\n      add\n      swap1\n      tag_311\n      swap3\n      swap2\n      swap1\n      tag_172\n      jump\t// in\n    tag_311:\n      pop\n      0x40\n      dup3\n      add\n      mload\n      dup2\n      0x02\n      add\n      sstore\n      pop\n      pop\n        /* \"MyHomeToken.sol\":2705:2706  1 */\n      0x01\n        /* \"MyHomeToken.sol\":2690:2701  totalHouses */\n      0x05\n      0x00\n        /* \"MyHomeToken.sol\":2690:2706  totalHouses += 1 */\n      dup3\n      dup3\n      sload\n      tag_312\n      swap2\n      swap1\n      tag_235\n      jump\t// in\n    tag_312:\n      swap3\n      pop\n      pop\n      dup2\n      swap1\n      sstore\n      pop\n        /* \"MyHomeToken.sol\":2721:2751  NewHouseAdded(_registrationId) */\n      0x4578fe17eaab41ae382abe3462bb0cf04bcfee4168d2aad3ce9d5d225d0e27f6\n        /* \"MyHomeToken.sol\":2735:2750  _registrationId */\n      dup6\n        /* \"MyHomeToken.sol\":2721:2751  NewHouseAdded(_registrationId) */\n      mload(0x40)\n      tag_313\n      swap2\n      swap1\n      tag_314\n      jump\t// in\n    tag_313:\n      mload(0x40)\n      dup1\n      swap2\n      sub\n      swap1\n      log1\n        /* \"MyHomeToken.sol\":2551:2758  {... */\n      pop\n        /* \"MyHomeToken.sol\":1645:1646  _ */\n      pop\n        /* \"MyHomeToken.sol\":2388:2758  function addHouse(string memory _registrationId, string memory location, uint256 price) ... */\n      pop\n      pop\n      pop\n      jump\t// out\n        /* \"MyHomeToken.sol\":692:719  Ballot public currentBallot */\n    tag_149:\n      0x10\n      dup1\n      0x00\n      add\n      dup1\n      sload\n      tag_315\n      swap1\n      tag_158\n      jump\t// in\n    tag_315:\n      dup1\n      0x1f\n      add\n      0x20\n      dup1\n      swap2\n      div\n      mul\n      0x20\n      add\n      mload(0x40)\n      swap1\n      dup2\n      add\n      0x40\n      mstore\n      dup1\n      swap3\n      swap2\n      swap1\n      dup2\n      dup2\n      mstore\n      0x20\n      add\n      dup3\n      dup1\n      sload\n      tag_316\n      swap1\n      tag_158\n      jump\t// in\n    tag_316:\n      dup1\n      iszero\n      tag_317\n      jumpi\n      dup1\n      0x1f\n      lt\n      tag_318\n      jumpi\n      0x0100\n      dup1\n      dup4\n      sload\n      div\n      mul\n      dup4\n      mstore\n      swap2\n      0x20\n      add\n      swap2\n      jump(tag_317)\n    tag_318:\n      dup3\n      add\n      swap2\n      swap1\n      0x00\n      mstore\n      keccak256(0x00, 0x20)\n      swap1\n    tag_319:\n      dup2\n      sload\n      dup2\n      mstore\n      swap1\n      0x01\n      add\n      swap1\n      0x20\n      add\n      dup1\n      dup4\n      gt\n      tag_319\n      jumpi\n      dup3\n      swap1\n      sub\n      0x1f\n      and\n      dup3\n      add\n      swap2\n    tag_317:\n      pop\n      pop\n      pop\n      pop\n      pop\n      swap1\n      dup1\n      0x01\n      add\n      0x00\n      swap1\n      sload\n      swap1\n      0x0100\n      exp\n      swap1\n      div\n      0xffffffffffffffffffffffffffffffffffffffff\n      and\n      swap1\n      dup1\n      0x02\n      add\n      dup1\n      sload\n      tag_320\n      swap1\n      tag_158\n      jump\t// in\n    tag_320:\n      dup1\n      0x1f\n      add\n      0x20\n      dup1\n      swap2\n      div\n      mul\n      0x20\n      add\n      mload(0x40)\n      swap1\n      dup2\n      add\n      0x40\n      mstore\n      dup1\n      swap3\n      swap2\n      swap1\n      dup2\n      dup2\n      mstore\n      0x20\n      add\n      dup3\n      dup1\n      sload\n      tag_321\n      swap1\n      tag_158\n      jump\t// in\n    tag_321:\n      dup1\n      iszero\n      tag_322\n      jumpi\n      dup1\n      0x1f\n      lt\n      tag_323\n      jumpi\n      0x0100\n      dup1\n      dup4\n      sload\n      div\n      mul\n      dup4\n      mstore\n      swap2\n      0x20\n      add\n      swap2\n      jump(tag_322)\n    tag_323:\n      dup3\n      add\n      swap2\n      swap1\n      0x00\n      mstore\n      keccak256(0x00, 0x20)\n      swap1\n    tag_324:\n      dup2\n      sload\n      dup2\n      mstore\n      swap1\n      0x01\n      add\n      swap1\n      0x20\n      add\n      dup1\n      dup4\n      gt\n      tag_324\n      jumpi\n      dup3\n      swap1\n      sub\n      0x1f\n      and\n      dup3\n      add\n      swap2\n    tag_322:\n      pop\n      pop\n      pop\n      pop\n      pop\n      swap1\n      dup1\n      0x03\n      add\n      sload\n      swap1\n      dup1\n      0x04\n      add\n      sload\n      swap1\n      pop\n      dup6\n      jump\t// out\n        /* \"@openzeppelin/contracts/utils/Strings.sol\":392:1095  function toString(uint256 value) internal pure returns (string memory) {... */\n    tag_170:\n        /* \"@openzeppelin/contracts/utils/Strings.sol\":448:461  string memory */\n      0x60\n        /* \"@openzeppelin/contracts/utils/Strings.sol\":674:675  0 */\n      0x00\n        /* \"@openzeppelin/contracts/utils/Strings.sol\":665:670  value */\n      dup3\n        /* \"@openzeppelin/contracts/utils/Strings.sol\":665:675  value == 0 */\n      eq\n        /* \"@openzeppelin/contracts/utils/Strings.sol\":661:712  if (value == 0) {... */\n      iszero\n      tag_326\n      jumpi\n        /* \"@openzeppelin/contracts/utils/Strings.sol\":691:701  return \"0\" */\n      mload(0x40)\n      dup1\n      0x40\n      add\n      0x40\n      mstore\n      dup1\n      0x01\n      dup2\n      mstore\n      0x20\n      add\n      0x3000000000000000000000000000000000000000000000000000000000000000\n      dup2\n      mstore\n      pop\n      swap1\n      pop\n      jump(tag_325)\n        /* \"@openzeppelin/contracts/utils/Strings.sol\":661:712  if (value == 0) {... */\n    tag_326:\n        /* \"@openzeppelin/contracts/utils/Strings.sol\":721:733  uint256 temp */\n      0x00\n        /* \"@openzeppelin/contracts/utils/Strings.sol\":736:741  value */\n      dup3\n        /* \"@openzeppelin/contracts/utils/Strings.sol\":721:741  uint256 temp = value */\n      swap1\n      pop\n        /* \"@openzeppelin/contracts/utils/Strings.sol\":751:765  uint256 digits */\n      0x00\n        /* \"@openzeppelin/contracts/utils/Strings.sol\":775:850  while (temp != 0) {... */\n    tag_327:\n        /* \"@openzeppelin/contracts/utils/Strings.sol\":790:791  0 */\n      0x00\n        /* \"@openzeppelin/contracts/utils/Strings.sol\":782:786  temp */\n      dup3\n        /* \"@openzeppelin/contracts/utils/Strings.sol\":782:791  temp != 0 */\n      eq\n        /* \"@openzeppelin/contracts/utils/Strings.sol\":775:850  while (temp != 0) {... */\n      tag_328\n      jumpi\n        /* \"@openzeppelin/contracts/utils/Strings.sol\":807:815  digits++ */\n      dup1\n      dup1\n      tag_329\n      swap1\n      tag_207\n      jump\t// in\n    tag_329:\n      swap2\n      pop\n      pop\n        /* \"@openzeppelin/contracts/utils/Strings.sol\":837:839  10 */\n      0x0a\n        /* \"@openzeppelin/contracts/utils/Strings.sol\":829:839  temp /= 10 */\n      dup3\n      tag_330\n      swap2\n      swap1\n      tag_285\n      jump\t// in\n    tag_330:\n      swap2\n      pop\n        /* \"@openzeppelin/contracts/utils/Strings.sol\":775:850  while (temp != 0) {... */\n      jump(tag_327)\n    tag_328:\n        /* \"@openzeppelin/contracts/utils/Strings.sol\":859:878  bytes memory buffer */\n      0x00\n        /* \"@openzeppelin/contracts/utils/Strings.sol\":891:897  digits */\n      dup2\n        /* \"@openzeppelin/contracts/utils/Strings.sol\":881:898  new bytes(digits) */\n      0xffffffffffffffff\n      dup2\n      gt\n      iszero\n      tag_331\n      jumpi\n      tag_332\n      tag_333\n      jump\t// in\n    tag_332:\n    tag_331:\n      mload(0x40)\n      swap1\n      dup1\n      dup3\n      mstore\n      dup1\n      0x1f\n      add\n      not(0x1f)\n      and\n      0x20\n      add\n      dup3\n      add\n      0x40\n      mstore\n      dup1\n      iszero\n      tag_334\n      jumpi\n      dup2\n      0x20\n      add\n      0x01\n      dup3\n      mul\n      dup1\n      calldatasize\n      dup4\n      calldatacopy\n      dup1\n      dup3\n      add\n      swap2\n      pop\n      pop\n      swap1\n      pop\n    tag_334:\n      pop\n        /* \"@openzeppelin/contracts/utils/Strings.sol\":859:898  bytes memory buffer = new bytes(digits) */\n      swap1\n      pop\n        /* \"@openzeppelin/contracts/utils/Strings.sol\":908:1058  while (value != 0) {... */\n    tag_335:\n        /* \"@openzeppelin/contracts/utils/Strings.sol\":924:925  0 */\n      0x00\n        /* \"@openzeppelin/contracts/utils/Strings.sol\":915:920  value */\n      dup6\n        /* \"@openzeppelin/contracts/utils/Strings.sol\":915:925  value != 0 */\n      eq\n        /* \"@openzeppelin/contracts/utils/Strings.sol\":908:1058  while (value != 0) {... */\n      tag_336\n      jumpi\n        /* \"@openzeppelin/contracts/utils/Strings.sol\":951:952  1 */\n      0x01\n        /* \"@openzeppelin/contracts/utils/Strings.sol\":941:952  digits -= 1 */\n      dup3\n      tag_337\n      swap2\n      swap1\n      tag_233\n      jump\t// in\n    tag_337:\n      swap2\n      pop\n        /* \"@openzeppelin/contracts/utils/Strings.sol\":1017:1019  10 */\n      0x0a\n        /* \"@openzeppelin/contracts/utils/Strings.sol\":1009:1014  value */\n      dup6\n        /* \"@openzeppelin/contracts/utils/Strings.sol\":1009:1019  value % 10 */\n      tag_338\n      swap2\n      swap1\n      tag_339\n      jump\t// in\n    tag_338:\n        /* \"@openzeppelin/contracts/utils/Strings.sol\":996:998  48 */\n      0x30\n        /* \"@openzeppelin/contracts/utils/Strings.sol\":996:1020  48 + uint256(value % 10) */\n      tag_340\n      swap2\n      swap1\n      tag_235\n      jump\t// in\n    tag_340:\n        /* \"@openzeppelin/contracts/utils/Strings.sol\":983:1022  bytes1(uint8(48 + uint256(value % 10))) */\n      0xf8\n      shl\n        /* \"@openzeppelin/contracts/utils/Strings.sol\":966:972  buffer */\n      dup2\n        /* \"@openzeppelin/contracts/utils/Strings.sol\":973:979  digits */\n      dup4\n        /* \"@openzeppelin/contracts/utils/Strings.sol\":966:980  buffer[digits] */\n      dup2\n      mload\n      dup2\n      lt\n      tag_341\n      jumpi\n      tag_342\n      tag_198\n      jump\t// in\n    tag_342:\n    tag_341:\n      0x20\n      add\n      add\n        /* \"@openzeppelin/contracts/utils/Strings.sol\":966:1022  buffer[digits] = bytes1(uint8(48 + uint256(value % 10))) */\n      swap1\n      not(0xffffffffffffffffffffffffffffffffffffffffffffffffffffffffffffff)\n      and\n      swap1\n      dup2\n      0x00\n      byte\n      swap1\n      mstore8\n      pop\n        /* \"@openzeppelin/contracts/utils/Strings.sol\":1045:1047  10 */\n      0x0a\n        /* \"@openzeppelin/contracts/utils/Strings.sol\":1036:1047  value /= 10 */\n      dup6\n      tag_343\n      swap2\n      swap1\n      tag_285\n      jump\t// in\n    tag_343:\n      swap5\n      pop\n        /* \"@openzeppelin/contracts/utils/Strings.sol\":908:1058  while (value != 0) {... */\n      jump(tag_335)\n    tag_336:\n        /* \"@openzeppelin/contracts/utils/Strings.sol\":1081:1087  buffer */\n      dup1\n        /* \"@openzeppelin/contracts/utils/Strings.sol\":1067:1088  return string(buffer) */\n      swap4\n      pop\n      pop\n      pop\n      pop\n        /* \"@openzeppelin/contracts/utils/Strings.sol\":392:1095  function toString(uint256 value) internal pure returns (string memory) {... */\n    tag_325:\n      swap2\n      swap1\n      pop\n      jump\t// out\n        /* \"MyHomeToken.sol\":2764:3036  function contains(address _shareHolderAddress) private view returns(bool) {... */\n    tag_255:\n        /* \"MyHomeToken.sol\":2832:2836  bool */\n      0x00\n        /* \"MyHomeToken.sol\":2853:2859  uint i */\n      dup1\n        /* \"MyHomeToken.sol\":2862:2863  0 */\n      0x00\n        /* \"MyHomeToken.sol\":2853:2863  uint i = 0 */\n      swap1\n      pop\n        /* \"MyHomeToken.sol\":2848:3007  for (uint i = 0; i < shareHolders.length; i++) {... */\n    tag_345:\n        /* \"MyHomeToken.sol\":2869:2881  shareHolders */\n      0x0b\n        /* \"MyHomeToken.sol\":2869:2888  shareHolders.length */\n      dup1\n      sload\n      swap1\n      pop\n        /* \"MyHomeToken.sol\":2865:2866  i */\n      dup2\n        /* \"MyHomeToken.sol\":2865:2888  i < shareHolders.length */\n      lt\n        /* \"MyHomeToken.sol\":2848:3007  for (uint i = 0; i < shareHolders.length; i++) {... */\n      iszero\n      tag_346\n      jumpi\n        /* \"MyHomeToken.sol\":2932:2951  _shareHolderAddress */\n      dup3\n        /* \"MyHomeToken.sol\":2913:2951  shareHolders[i] == _shareHolderAddress */\n      0xffffffffffffffffffffffffffffffffffffffff\n      and\n        /* \"MyHomeToken.sol\":2913:2925  shareHolders */\n      0x0b\n        /* \"MyHomeToken.sol\":2926:2927  i */\n      dup3\n        /* \"MyHomeToken.sol\":2913:2928  shareHolders[i] */\n      dup2\n      sload\n      dup2\n      lt\n      tag_348\n      jumpi\n      tag_349\n      tag_198\n      jump\t// in\n    tag_349:\n    tag_348:\n      swap1\n      0x00\n      mstore\n      keccak256(0x00, 0x20)\n      add\n      0x00\n      swap1\n      sload\n      swap1\n      0x0100\n      exp\n      swap1\n      div\n      0xffffffffffffffffffffffffffffffffffffffff\n      and\n        /* \"MyHomeToken.sol\":2913:2951  shareHolders[i] == _shareHolderAddress */\n      0xffffffffffffffffffffffffffffffffffffffff\n      and\n      eq\n        /* \"MyHomeToken.sol\":2909:2997  if (shareHolders[i] == _shareHolderAddress) {... */\n      iszero\n      tag_351\n      jumpi\n        /* \"MyHomeToken.sol\":2978:2982  true */\n      0x01\n        /* \"MyHomeToken.sol\":2971:2982  return true */\n      swap2\n      pop\n      pop\n      jump(tag_344)\n        /* \"MyHomeToken.sol\":2909:2997  if (shareHolders[i] == _shareHolderAddress) {... */\n    tag_351:\n        /* \"MyHomeToken.sol\":2890:2893  i++ */\n      dup1\n      dup1\n      tag_352\n      swap1\n      tag_207\n      jump\t// in\n    tag_352:\n      swap2\n      pop\n      pop\n        /* \"MyHomeToken.sol\":2848:3007  for (uint i = 0; i < shareHolders.length; i++) {... */\n      jump(tag_345)\n    tag_346:\n      pop\n        /* \"MyHomeToken.sol\":3024:3029  false */\n      0x00\n        /* \"MyHomeToken.sol\":3017:3029  return false */\n      swap1\n      pop\n        /* \"MyHomeToken.sol\":2764:3036  function contains(address _shareHolderAddress) private view returns(bool) {... */\n    tag_344:\n      swap2\n      swap1\n      pop\n      jump\t// out\n    tag_172:\n      dup3\n      dup1\n      sload\n      tag_353\n      swap1\n      tag_158\n      jump\t// in\n    tag_353:\n      swap1\n      0x00\n      mstore\n      keccak256(0x00, 0x20)\n      swap1\n      0x1f\n      add\n      0x20\n      swap1\n      div\n      dup2\n      add\n      swap3\n      dup3\n      tag_355\n      jumpi\n      0x00\n      dup6\n      sstore\n      jump(tag_354)\n    tag_355:\n      dup3\n      0x1f\n      lt\n      tag_356\n      jumpi\n      dup1\n      mload\n      not(0xff)\n      and\n      dup4\n      dup1\n      add\n      or\n      dup6\n      sstore\n      jump(tag_354)\n    tag_356:\n      dup3\n      dup1\n      add\n      0x01\n      add\n      dup6\n      sstore\n      dup3\n      iszero\n      tag_354\n      jumpi\n      swap2\n      dup3\n      add\n    tag_357:\n      dup3\n      dup2\n      gt\n      iszero\n      tag_358\n      jumpi\n      dup3\n      mload\n      dup3\n      sstore\n      swap2\n      0x20\n      add\n      swap2\n      swap1\n      0x01\n      add\n      swap1\n      jump(tag_357)\n    tag_358:\n    tag_354:\n      pop\n      swap1\n      pop\n      tag_359\n      swap2\n      swap1\n      tag_360\n      jump\t// in\n    tag_359:\n      pop\n      swap1\n      jump\t// out\n    tag_178:\n      dup3\n      dup1\n      sload\n      tag_361\n      swap1\n      tag_158\n      jump\t// in\n    tag_361:\n      swap1\n      0x00\n      mstore\n      keccak256(0x00, 0x20)\n      swap1\n      0x1f\n      add\n      0x20\n      swap1\n      div\n      dup2\n      add\n      swap3\n      dup3\n      tag_363\n      jumpi\n      0x00\n      dup6\n      sstore\n      jump(tag_362)\n    tag_363:\n      dup3\n      0x1f\n      lt\n      tag_364\n      jumpi\n      dup1\n      sload\n      dup6\n      sstore\n      jump(tag_362)\n    tag_364:\n      dup3\n      dup1\n      add\n      0x01\n      add\n      dup6\n      sstore\n      dup3\n      iszero\n      tag_362\n      jumpi\n      0x00\n      mstore\n      keccak256(0x00, 0x20)\n      swap2\n      0x1f\n      add\n      0x20\n      swap1\n      div\n      dup3\n      add\n    tag_365:\n      dup3\n      dup2\n      gt\n      iszero\n      tag_366\n      jumpi\n      dup3\n      sload\n      dup3\n      sstore\n      swap2\n      0x01\n      add\n      swap2\n      swap1\n      0x01\n      add\n      swap1\n      jump(tag_365)\n    tag_366:\n    tag_362:\n      pop\n      swap1\n      pop\n      tag_367\n      swap2\n      swap1\n      tag_360\n      jump\t// in\n    tag_367:\n      pop\n      swap1\n      jump\t// out\n    tag_219:\n      mload(0x40)\n      dup1\n      0x40\n      add\n      0x40\n      mstore\n      dup1\n      and(0xffffffffffffffffffffffffffffffffffffffff, 0x00)\n      dup2\n      mstore\n      0x20\n      add\n      iszero(iszero(0x00))\n      dup2\n      mstore\n      pop\n      swap1\n      jump\t// out\n    tag_360:\n    tag_368:\n      dup1\n      dup3\n      gt\n      iszero\n      tag_369\n      jumpi\n      0x00\n      dup2\n      0x00\n      swap1\n      sstore\n      pop\n      0x01\n      add\n      jump(tag_368)\n    tag_369:\n      pop\n      swap1\n      jump\t// out\n        /* \"#utility.yul\":7:419   */\n    tag_371:\n        /* \"#utility.yul\":85:90   */\n      0x00\n        /* \"#utility.yul\":110:176   */\n      tag_373\n        /* \"#utility.yul\":126:175   */\n      tag_374\n        /* \"#utility.yul\":168:174   */\n      dup5\n        /* \"#utility.yul\":126:175   */\n      tag_375\n      jump\t// in\n    tag_374:\n        /* \"#utility.yul\":110:176   */\n      tag_376\n      jump\t// in\n    tag_373:\n        /* \"#utility.yul\":101:176   */\n      swap1\n      pop\n        /* \"#utility.yul\":199:205   */\n      dup3\n        /* \"#utility.yul\":192:197   */\n      dup2\n        /* \"#utility.yul\":185:206   */\n      mstore\n        /* \"#utility.yul\":237:241   */\n      0x20\n        /* \"#utility.yul\":230:235   */\n      dup2\n        /* \"#utility.yul\":226:242   */\n      add\n        /* \"#utility.yul\":275:278   */\n      dup5\n        /* \"#utility.yul\":266:272   */\n      dup5\n        /* \"#utility.yul\":261:264   */\n      dup5\n        /* \"#utility.yul\":257:273   */\n      add\n        /* \"#utility.yul\":254:279   */\n      gt\n        /* \"#utility.yul\":251:363   */\n      iszero\n      tag_377\n      jumpi\n        /* \"#utility.yul\":282:361   */\n      tag_378\n      tag_379\n      jump\t// in\n    tag_378:\n        /* \"#utility.yul\":251:363   */\n    tag_377:\n        /* \"#utility.yul\":372:413   */\n      tag_380\n        /* \"#utility.yul\":406:412   */\n      dup5\n        /* \"#utility.yul\":401:404   */\n      dup3\n        /* \"#utility.yul\":396:399   */\n      dup6\n        /* \"#utility.yul\":372:413   */\n      tag_381\n      jump\t// in\n    tag_380:\n        /* \"#utility.yul\":91:419   */\n      pop\n        /* \"#utility.yul\":7:419   */\n      swap4\n      swap3\n      pop\n      pop\n      pop\n      jump\t// out\n        /* \"#utility.yul\":425:564   */\n    tag_382:\n        /* \"#utility.yul\":471:476   */\n      0x00\n        /* \"#utility.yul\":509:515   */\n      dup2\n        /* \"#utility.yul\":496:516   */\n      calldataload\n        /* \"#utility.yul\":487:516   */\n      swap1\n      pop\n        /* \"#utility.yul\":525:558   */\n      tag_384\n        /* \"#utility.yul\":552:557   */\n      dup2\n        /* \"#utility.yul\":525:558   */\n      tag_385\n      jump\t// in\n    tag_384:\n        /* \"#utility.yul\":425:564   */\n      swap3\n      swap2\n      pop\n      pop\n      jump\t// out\n        /* \"#utility.yul\":570:703   */\n    tag_386:\n        /* \"#utility.yul\":613:618   */\n      0x00\n        /* \"#utility.yul\":651:657   */\n      dup2\n        /* \"#utility.yul\":638:658   */\n      calldataload\n        /* \"#utility.yul\":629:658   */\n      swap1\n      pop\n        /* \"#utility.yul\":667:697   */\n      tag_388\n        /* \"#utility.yul\":691:696   */\n      dup2\n        /* \"#utility.yul\":667:697   */\n      tag_389\n      jump\t// in\n    tag_388:\n        /* \"#utility.yul\":570:703   */\n      swap3\n      swap2\n      pop\n      pop\n      jump\t// out\n        /* \"#utility.yul\":723:1063   */\n    tag_390:\n        /* \"#utility.yul\":779:784   */\n      0x00\n        /* \"#utility.yul\":828:831   */\n      dup3\n        /* \"#utility.yul\":821:825   */\n      0x1f\n        /* \"#utility.yul\":813:819   */\n      dup4\n        /* \"#utility.yul\":809:826   */\n      add\n        /* \"#utility.yul\":805:832   */\n      slt\n        /* \"#utility.yul\":795:917   */\n      tag_392\n      jumpi\n        /* \"#utility.yul\":836:915   */\n      tag_393\n      tag_394\n      jump\t// in\n    tag_393:\n        /* \"#utility.yul\":795:917   */\n    tag_392:\n        /* \"#utility.yul\":953:959   */\n      dup2\n        /* \"#utility.yul\":940:960   */\n      calldataload\n        /* \"#utility.yul\":978:1057   */\n      tag_395\n        /* \"#utility.yul\":1053:1056   */\n      dup5\n        /* \"#utility.yul\":1045:1051   */\n      dup3\n        /* \"#utility.yul\":1038:1042   */\n      0x20\n        /* \"#utility.yul\":1030:1036   */\n      dup7\n        /* \"#utility.yul\":1026:1043   */\n      add\n        /* \"#utility.yul\":978:1057   */\n      tag_371\n      jump\t// in\n    tag_395:\n        /* \"#utility.yul\":969:1057   */\n      swap2\n      pop\n        /* \"#utility.yul\":785:1063   */\n      pop\n        /* \"#utility.yul\":723:1063   */\n      swap3\n      swap2\n      pop\n      pop\n      jump\t// out\n        /* \"#utility.yul\":1069:1208   */\n    tag_396:\n        /* \"#utility.yul\":1115:1120   */\n      0x00\n        /* \"#utility.yul\":1153:1159   */\n      dup2\n        /* \"#utility.yul\":1140:1160   */\n      calldataload\n        /* \"#utility.yul\":1131:1160   */\n      swap1\n      pop\n        /* \"#utility.yul\":1169:1202   */\n      tag_398\n        /* \"#utility.yul\":1196:1201   */\n      dup2\n        /* \"#utility.yul\":1169:1202   */\n      tag_399\n      jump\t// in\n    tag_398:\n        /* \"#utility.yul\":1069:1208   */\n      swap3\n      swap2\n      pop\n      pop\n      jump\t// out\n        /* \"#utility.yul\":1214:1543   */\n    tag_41:\n        /* \"#utility.yul\":1273:1279   */\n      0x00\n        /* \"#utility.yul\":1322:1324   */\n      0x20\n        /* \"#utility.yul\":1310:1319   */\n      dup3\n        /* \"#utility.yul\":1301:1308   */\n      dup5\n        /* \"#utility.yul\":1297:1320   */\n      sub\n        /* \"#utility.yul\":1293:1325   */\n      slt\n        /* \"#utility.yul\":1290:1409   */\n      iszero\n      tag_401\n      jumpi\n        /* \"#utility.yul\":1328:1407   */\n      tag_402\n      tag_403\n      jump\t// in\n    tag_402:\n        /* \"#utility.yul\":1290:1409   */\n    tag_401:\n        /* \"#utility.yul\":1448:1449   */\n      0x00\n        /* \"#utility.yul\":1473:1526   */\n      tag_404\n        /* \"#utility.yul\":1518:1525   */\n      dup5\n        /* \"#utility.yul\":1509:1515   */\n      dup3\n        /* \"#utility.yul\":1498:1507   */\n      dup6\n        /* \"#utility.yul\":1494:1516   */\n      add\n        /* \"#utility.yul\":1473:1526   */\n      tag_382\n      jump\t// in\n    tag_404:\n        /* \"#utility.yul\":1463:1526   */\n      swap2\n      pop\n        /* \"#utility.yul\":1419:1536   */\n      pop\n        /* \"#utility.yul\":1214:1543   */\n      swap3\n      swap2\n      pop\n      pop\n      jump\t// out\n        /* \"#utility.yul\":1549:2023   */\n    tag_121:\n        /* \"#utility.yul\":1617:1623   */\n      0x00\n        /* \"#utility.yul\":1625:1631   */\n      dup1\n        /* \"#utility.yul\":1674:1676   */\n      0x40\n        /* \"#utility.yul\":1662:1671   */\n      dup4\n        /* \"#utility.yul\":1653:1660   */\n      dup6\n        /* \"#utility.yul\":1649:1672   */\n      sub\n        /* \"#utility.yul\":1645:1677   */\n      slt\n        /* \"#utility.yul\":1642:1761   */\n      iszero\n      tag_406\n      jumpi\n        /* \"#utility.yul\":1680:1759   */\n      tag_407\n      tag_403\n      jump\t// in\n    tag_407:\n        /* \"#utility.yul\":1642:1761   */\n    tag_406:\n        /* \"#utility.yul\":1800:1801   */\n      0x00\n        /* \"#utility.yul\":1825:1878   */\n      tag_408\n        /* \"#utility.yul\":1870:1877   */\n      dup6\n        /* \"#utility.yul\":1861:1867   */\n      dup3\n        /* \"#utility.yul\":1850:1859   */\n      dup7\n        /* \"#utility.yul\":1846:1868   */\n      add\n        /* \"#utility.yul\":1825:1878   */\n      tag_382\n      jump\t// in\n    tag_408:\n        /* \"#utility.yul\":1815:1878   */\n      swap3\n      pop\n        /* \"#utility.yul\":1771:1888   */\n      pop\n        /* \"#utility.yul\":1927:1929   */\n      0x20\n        /* \"#utility.yul\":1953:2006   */\n      tag_409\n        /* \"#utility.yul\":1998:2005   */\n      dup6\n        /* \"#utility.yul\":1989:1995   */\n      dup3\n        /* \"#utility.yul\":1978:1987   */\n      dup7\n        /* \"#utility.yul\":1974:1996   */\n      add\n        /* \"#utility.yul\":1953:2006   */\n      tag_396\n      jump\t// in\n    tag_409:\n        /* \"#utility.yul\":1943:2006   */\n      swap2\n      pop\n        /* \"#utility.yul\":1898:2016   */\n      pop\n        /* \"#utility.yul\":1549:2023   */\n      swap3\n      pop\n      swap3\n      swap1\n      pop\n      jump\t// out\n        /* \"#utility.yul\":2029:2352   */\n    tag_97:\n        /* \"#utility.yul\":2085:2091   */\n      0x00\n        /* \"#utility.yul\":2134:2136   */\n      0x20\n        /* \"#utility.yul\":2122:2131   */\n      dup3\n        /* \"#utility.yul\":2113:2120   */\n      dup5\n        /* \"#utility.yul\":2109:2132   */\n      sub\n        /* \"#utility.yul\":2105:2137   */\n      slt\n        /* \"#utility.yul\":2102:2221   */\n      iszero\n      tag_411\n      jumpi\n        /* \"#utility.yul\":2140:2219   */\n      tag_412\n      tag_403\n      jump\t// in\n    tag_412:\n        /* \"#utility.yul\":2102:2221   */\n    tag_411:\n        /* \"#utility.yul\":2260:2261   */\n      0x00\n        /* \"#utility.yul\":2285:2335   */\n      tag_413\n        /* \"#utility.yul\":2327:2334   */\n      dup5\n        /* \"#utility.yul\":2318:2324   */\n      dup3\n        /* \"#utility.yul\":2307:2316   */\n      dup6\n        /* \"#utility.yul\":2303:2325   */\n      add\n        /* \"#utility.yul\":2285:2335   */\n      tag_386\n      jump\t// in\n    tag_413:\n        /* \"#utility.yul\":2275:2335   */\n      swap2\n      pop\n        /* \"#utility.yul\":2231:2345   */\n      pop\n        /* \"#utility.yul\":2029:2352   */\n      swap3\n      swap2\n      pop\n      pop\n      jump\t// out\n        /* \"#utility.yul\":2358:2867   */\n    tag_65:\n        /* \"#utility.yul\":2427:2433   */\n      0x00\n        /* \"#utility.yul\":2476:2478   */\n      0x20\n        /* \"#utility.yul\":2464:2473   */\n      dup3\n        /* \"#utility.yul\":2455:2462   */\n      dup5\n        /* \"#utility.yul\":2451:2474   */\n      sub\n        /* \"#utility.yul\":2447:2479   */\n      slt\n        /* \"#utility.yul\":2444:2563   */\n      iszero\n      tag_415\n      jumpi\n        /* \"#utility.yul\":2482:2561   */\n      tag_416\n      tag_403\n      jump\t// in\n    tag_416:\n        /* \"#utility.yul\":2444:2563   */\n    tag_415:\n        /* \"#utility.yul\":2630:2631   */\n      0x00\n        /* \"#utility.yul\":2619:2628   */\n      dup3\n        /* \"#utility.yul\":2615:2632   */\n      add\n        /* \"#utility.yul\":2602:2633   */\n      calldataload\n        /* \"#utility.yul\":2660:2678   */\n      0xffffffffffffffff\n        /* \"#utility.yul\":2652:2658   */\n      dup2\n        /* \"#utility.yul\":2649:2679   */\n      gt\n        /* \"#utility.yul\":2646:2763   */\n      iszero\n      tag_417\n      jumpi\n        /* \"#utility.yul\":2682:2761   */\n      tag_418\n      tag_419\n      jump\t// in\n    tag_418:\n        /* \"#utility.yul\":2646:2763   */\n    tag_417:\n        /* \"#utility.yul\":2787:2850   */\n      tag_420\n        /* \"#utility.yul\":2842:2849   */\n      dup5\n        /* \"#utility.yul\":2833:2839   */\n      dup3\n        /* \"#utility.yul\":2822:2831   */\n      dup6\n        /* \"#utility.yul\":2818:2840   */\n      add\n        /* \"#utility.yul\":2787:2850   */\n      tag_390\n      jump\t// in\n    tag_420:\n        /* \"#utility.yul\":2777:2850   */\n      swap2\n      pop\n        /* \"#utility.yul\":2573:2860   */\n      pop\n        /* \"#utility.yul\":2358:2867   */\n      swap3\n      swap2\n      pop\n      pop\n      jump\t// out\n        /* \"#utility.yul\":2873:3852   */\n    tag_145:\n        /* \"#utility.yul\":2970:2976   */\n      0x00\n        /* \"#utility.yul\":2978:2984   */\n      dup1\n        /* \"#utility.yul\":2986:2992   */\n      0x00\n        /* \"#utility.yul\":3035:3037   */\n      0x60\n        /* \"#utility.yul\":3023:3032   */\n      dup5\n        /* \"#utility.yul\":3014:3021   */\n      dup7\n        /* \"#utility.yul\":3010:3033   */\n      sub\n        /* \"#utility.yul\":3006:3038   */\n      slt\n        /* \"#utility.yul\":3003:3122   */\n      iszero\n      tag_422\n      jumpi\n        /* \"#utility.yul\":3041:3120   */\n      tag_423\n      tag_403\n      jump\t// in\n    tag_423:\n        /* \"#utility.yul\":3003:3122   */\n    tag_422:\n        /* \"#utility.yul\":3189:3190   */\n      0x00\n        /* \"#utility.yul\":3178:3187   */\n      dup5\n        /* \"#utility.yul\":3174:3191   */\n      add\n        /* \"#utility.yul\":3161:3192   */\n      calldataload\n        /* \"#utility.yul\":3219:3237   */\n      0xffffffffffffffff\n        /* \"#utility.yul\":3211:3217   */\n      dup2\n        /* \"#utility.yul\":3208:3238   */\n      gt\n        /* \"#utility.yul\":3205:3322   */\n      iszero\n      tag_424\n      jumpi\n        /* \"#utility.yul\":3241:3320   */\n      tag_425\n      tag_419\n      jump\t// in\n    tag_425:\n        /* \"#utility.yul\":3205:3322   */\n    tag_424:\n        /* \"#utility.yul\":3346:3409   */\n      tag_426\n        /* \"#utility.yul\":3401:3408   */\n      dup7\n        /* \"#utility.yul\":3392:3398   */\n      dup3\n        /* \"#utility.yul\":3381:3390   */\n      dup8\n        /* \"#utility.yul\":3377:3399   */\n      add\n        /* \"#utility.yul\":3346:3409   */\n      tag_390\n      jump\t// in\n    tag_426:\n        /* \"#utility.yul\":3336:3409   */\n      swap4\n      pop\n        /* \"#utility.yul\":3132:3419   */\n      pop\n        /* \"#utility.yul\":3486:3488   */\n      0x20\n        /* \"#utility.yul\":3475:3484   */\n      dup5\n        /* \"#utility.yul\":3471:3489   */\n      add\n        /* \"#utility.yul\":3458:3490   */\n      calldataload\n        /* \"#utility.yul\":3517:3535   */\n      0xffffffffffffffff\n        /* \"#utility.yul\":3509:3515   */\n      dup2\n        /* \"#utility.yul\":3506:3536   */\n      gt\n        /* \"#utility.yul\":3503:3620   */\n      iszero\n      tag_427\n      jumpi\n        /* \"#utility.yul\":3539:3618   */\n      tag_428\n      tag_419\n      jump\t// in\n    tag_428:\n        /* \"#utility.yul\":3503:3620   */\n    tag_427:\n        /* \"#utility.yul\":3644:3707   */\n      tag_429\n        /* \"#utility.yul\":3699:3706   */\n      dup7\n        /* \"#utility.yul\":3690:3696   */\n      dup3\n        /* \"#utility.yul\":3679:3688   */\n      dup8\n        /* \"#utility.yul\":3675:3697   */\n      add\n        /* \"#utility.yul\":3644:3707   */\n      tag_390\n      jump\t// in\n    tag_429:\n        /* \"#utility.yul\":3634:3707   */\n      swap3\n      pop\n        /* \"#utility.yul\":3429:3717   */\n      pop\n        /* \"#utility.yul\":3756:3758   */\n      0x40\n        /* \"#utility.yul\":3782:3835   */\n      tag_430\n        /* \"#utility.yul\":3827:3834   */\n      dup7\n        /* \"#utility.yul\":3818:3824   */\n      dup3\n        /* \"#utility.yul\":3807:3816   */\n      dup8\n        /* \"#utility.yul\":3803:3825   */\n      add\n        /* \"#utility.yul\":3782:3835   */\n      tag_396\n      jump\t// in\n    tag_430:\n        /* \"#utility.yul\":3772:3835   */\n      swap2\n      pop\n        /* \"#utility.yul\":3727:3845   */\n      pop\n        /* \"#utility.yul\":2873:3852   */\n      swap3\n      pop\n      swap3\n      pop\n      swap3\n      jump\t// out\n        /* \"#utility.yul\":3858:4187   */\n    tag_50:\n        /* \"#utility.yul\":3917:3923   */\n      0x00\n        /* \"#utility.yul\":3966:3968   */\n      0x20\n        /* \"#utility.yul\":3954:3963   */\n      dup3\n        /* \"#utility.yul\":3945:3952   */\n      dup5\n        /* \"#utility.yul\":3941:3964   */\n      sub\n        /* \"#utility.yul\":3937:3969   */\n      slt\n        /* \"#utility.yul\":3934:4053   */\n      iszero\n      tag_432\n      jumpi\n        /* \"#utility.yul\":3972:4051   */\n      tag_433\n      tag_403\n      jump\t// in\n    tag_433:\n        /* \"#utility.yul\":3934:4053   */\n    tag_432:\n        /* \"#utility.yul\":4092:4093   */\n      0x00\n        /* \"#utility.yul\":4117:4170   */\n      tag_434\n        /* \"#utility.yul\":4162:4169   */\n      dup5\n        /* \"#utility.yul\":4153:4159   */\n      dup3\n        /* \"#utility.yul\":4142:4151   */\n      dup6\n        /* \"#utility.yul\":4138:4160   */\n      add\n        /* \"#utility.yul\":4117:4170   */\n      tag_396\n      jump\t// in\n    tag_434:\n        /* \"#utility.yul\":4107:4170   */\n      swap2\n      pop\n        /* \"#utility.yul\":4063:4180   */\n      pop\n        /* \"#utility.yul\":3858:4187   */\n      swap3\n      swap2\n      pop\n      pop\n      jump\t// out\n        /* \"#utility.yul\":4193:4335   */\n    tag_435:\n        /* \"#utility.yul\":4296:4328   */\n      tag_437\n        /* \"#utility.yul\":4322:4327   */\n      dup2\n        /* \"#utility.yul\":4296:4328   */\n      tag_438\n      jump\t// in\n    tag_437:\n        /* \"#utility.yul\":4291:4294   */\n      dup3\n        /* \"#utility.yul\":4284:4329   */\n      mstore\n        /* \"#utility.yul\":4193:4335   */\n      pop\n      pop\n      jump\t// out\n        /* \"#utility.yul\":4341:4459   */\n    tag_439:\n        /* \"#utility.yul\":4428:4452   */\n      tag_441\n        /* \"#utility.yul\":4446:4451   */\n      dup2\n        /* \"#utility.yul\":4428:4452   */\n      tag_442\n      jump\t// in\n    tag_441:\n        /* \"#utility.yul\":4423:4426   */\n      dup3\n        /* \"#utility.yul\":4416:4453   */\n      mstore\n        /* \"#utility.yul\":4341:4459   */\n      pop\n      pop\n      jump\t// out\n        /* \"#utility.yul\":4465:4574   */\n    tag_443:\n        /* \"#utility.yul\":4546:4567   */\n      tag_445\n        /* \"#utility.yul\":4561:4566   */\n      dup2\n        /* \"#utility.yul\":4546:4567   */\n      tag_446\n      jump\t// in\n    tag_445:\n        /* \"#utility.yul\":4541:4544   */\n      dup3\n        /* \"#utility.yul\":4534:4568   */\n      mstore\n        /* \"#utility.yul\":4465:4574   */\n      pop\n      pop\n      jump\t// out\n        /* \"#utility.yul\":4580:4944   */\n    tag_447:\n        /* \"#utility.yul\":4668:4671   */\n      0x00\n        /* \"#utility.yul\":4696:4735   */\n      tag_449\n        /* \"#utility.yul\":4729:4734   */\n      dup3\n        /* \"#utility.yul\":4696:4735   */\n      tag_450\n      jump\t// in\n    tag_449:\n        /* \"#utility.yul\":4751:4822   */\n      tag_451\n        /* \"#utility.yul\":4815:4821   */\n      dup2\n        /* \"#utility.yul\":4810:4813   */\n      dup6\n        /* \"#utility.yul\":4751:4822   */\n      tag_452\n      jump\t// in\n    tag_451:\n        /* \"#utility.yul\":4744:4822   */\n      swap4\n      pop\n        /* \"#utility.yul\":4831:4883   */\n      tag_453\n        /* \"#utility.yul\":4876:4882   */\n      dup2\n        /* \"#utility.yul\":4871:4874   */\n      dup6\n        /* \"#utility.yul\":4864:4868   */\n      0x20\n        /* \"#utility.yul\":4857:4862   */\n      dup7\n        /* \"#utility.yul\":4853:4869   */\n      add\n        /* \"#utility.yul\":4831:4883   */\n      tag_454\n      jump\t// in\n    tag_453:\n        /* \"#utility.yul\":4908:4937   */\n      tag_455\n        /* \"#utility.yul\":4930:4936   */\n      dup2\n        /* \"#utility.yul\":4908:4937   */\n      tag_456\n      jump\t// in\n    tag_455:\n        /* \"#utility.yul\":4903:4906   */\n      dup5\n        /* \"#utility.yul\":4899:4938   */\n      add\n        /* \"#utility.yul\":4892:4938   */\n      swap2\n      pop\n        /* \"#utility.yul\":4672:4944   */\n      pop\n        /* \"#utility.yul\":4580:4944   */\n      swap3\n      swap2\n      pop\n      pop\n      jump\t// out\n        /* \"#utility.yul\":4950:5316   */\n    tag_457:\n        /* \"#utility.yul\":5092:5095   */\n      0x00\n        /* \"#utility.yul\":5113:5180   */\n      tag_459\n        /* \"#utility.yul\":5177:5179   */\n      0x23\n        /* \"#utility.yul\":5172:5175   */\n      dup4\n        /* \"#utility.yul\":5113:5180   */\n      tag_452\n      jump\t// in\n    tag_459:\n        /* \"#utility.yul\":5106:5180   */\n      swap2\n      pop\n        /* \"#utility.yul\":5189:5282   */\n      tag_460\n        /* \"#utility.yul\":5278:5281   */\n      dup3\n        /* \"#utility.yul\":5189:5282   */\n      tag_461\n      jump\t// in\n    tag_460:\n        /* \"#utility.yul\":5307:5309   */\n      0x40\n        /* \"#utility.yul\":5302:5305   */\n      dup3\n        /* \"#utility.yul\":5298:5310   */\n      add\n        /* \"#utility.yul\":5291:5310   */\n      swap1\n      pop\n        /* \"#utility.yul\":4950:5316   */\n      swap2\n      swap1\n      pop\n      jump\t// out\n        /* \"#utility.yul\":5322:5688   */\n    tag_462:\n        /* \"#utility.yul\":5464:5467   */\n      0x00\n        /* \"#utility.yul\":5485:5552   */\n      tag_464\n        /* \"#utility.yul\":5549:5551   */\n      0x1f\n        /* \"#utility.yul\":5544:5547   */\n      dup4\n        /* \"#utility.yul\":5485:5552   */\n      tag_452\n      jump\t// in\n    tag_464:\n        /* \"#utility.yul\":5478:5552   */\n      swap2\n      pop\n        /* \"#utility.yul\":5561:5654   */\n      tag_465\n        /* \"#utility.yul\":5650:5653   */\n      dup3\n        /* \"#utility.yul\":5561:5654   */\n      tag_466\n      jump\t// in\n    tag_465:\n        /* \"#utility.yul\":5679:5681   */\n      0x20\n        /* \"#utility.yul\":5674:5677   */\n      dup3\n        /* \"#utility.yul\":5670:5682   */\n      add\n        /* \"#utility.yul\":5663:5682   */\n      swap1\n      pop\n        /* \"#utility.yul\":5322:5688   */\n      swap2\n      swap1\n      pop\n      jump\t// out\n        /* \"#utility.yul\":5694:6060   */\n    tag_467:\n        /* \"#utility.yul\":5836:5839   */\n      0x00\n        /* \"#utility.yul\":5857:5924   */\n      tag_469\n        /* \"#utility.yul\":5921:5923   */\n      0x21\n        /* \"#utility.yul\":5916:5919   */\n      dup4\n        /* \"#utility.yul\":5857:5924   */\n      tag_452\n      jump\t// in\n    tag_469:\n        /* \"#utility.yul\":5850:5924   */\n      swap2\n      pop\n        /* \"#utility.yul\":5933:6026   */\n      tag_470\n        /* \"#utility.yul\":6022:6025   */\n      dup3\n        /* \"#utility.yul\":5933:6026   */\n      tag_471\n      jump\t// in\n    tag_470:\n        /* \"#utility.yul\":6051:6053   */\n      0x40\n        /* \"#utility.yul\":6046:6049   */\n      dup3\n        /* \"#utility.yul\":6042:6054   */\n      add\n        /* \"#utility.yul\":6035:6054   */\n      swap1\n      pop\n        /* \"#utility.yul\":5694:6060   */\n      swap2\n      swap1\n      pop\n      jump\t// out\n        /* \"#utility.yul\":6066:6184   */\n    tag_472:\n        /* \"#utility.yul\":6153:6177   */\n      tag_474\n        /* \"#utility.yul\":6171:6176   */\n      dup2\n        /* \"#utility.yul\":6153:6177   */\n      tag_475\n      jump\t// in\n    tag_474:\n        /* \"#utility.yul\":6148:6151   */\n      dup3\n        /* \"#utility.yul\":6141:6178   */\n      mstore\n        /* \"#utility.yul\":6066:6184   */\n      pop\n      pop\n      jump\t// out\n        /* \"#utility.yul\":6190:6412   */\n    tag_89:\n        /* \"#utility.yul\":6283:6287   */\n      0x00\n        /* \"#utility.yul\":6321:6323   */\n      0x20\n        /* \"#utility.yul\":6310:6319   */\n      dup3\n        /* \"#utility.yul\":6306:6324   */\n      add\n        /* \"#utility.yul\":6298:6324   */\n      swap1\n      pop\n        /* \"#utility.yul\":6334:6405   */\n      tag_477\n        /* \"#utility.yul\":6402:6403   */\n      0x00\n        /* \"#utility.yul\":6391:6400   */\n      dup4\n        /* \"#utility.yul\":6387:6404   */\n      add\n        /* \"#utility.yul\":6378:6384   */\n      dup5\n        /* \"#utility.yul\":6334:6405   */\n      tag_439\n      jump\t// in\n    tag_477:\n        /* \"#utility.yul\":6190:6412   */\n      swap3\n      swap2\n      pop\n      pop\n      jump\t// out\n        /* \"#utility.yul\":6418:6672   */\n    tag_104:\n        /* \"#utility.yul\":6527:6531   */\n      0x00\n        /* \"#utility.yul\":6565:6567   */\n      0x20\n        /* \"#utility.yul\":6554:6563   */\n      dup3\n        /* \"#utility.yul\":6550:6568   */\n      add\n        /* \"#utility.yul\":6542:6568   */\n      swap1\n      pop\n        /* \"#utility.yul\":6578:6665   */\n      tag_479\n        /* \"#utility.yul\":6662:6663   */\n      0x00\n        /* \"#utility.yul\":6651:6660   */\n      dup4\n        /* \"#utility.yul\":6647:6664   */\n      add\n        /* \"#utility.yul\":6638:6644   */\n      dup5\n        /* \"#utility.yul\":6578:6665   */\n      tag_435\n      jump\t// in\n    tag_479:\n        /* \"#utility.yul\":6418:6672   */\n      swap3\n      swap2\n      pop\n      pop\n      jump\t// out\n        /* \"#utility.yul\":6678:6888   */\n    tag_75:\n        /* \"#utility.yul\":6765:6769   */\n      0x00\n        /* \"#utility.yul\":6803:6805   */\n      0x20\n        /* \"#utility.yul\":6792:6801   */\n      dup3\n        /* \"#utility.yul\":6788:6806   */\n      add\n        /* \"#utility.yul\":6780:6806   */\n      swap1\n      pop\n        /* \"#utility.yul\":6816:6881   */\n      tag_481\n        /* \"#utility.yul\":6878:6879   */\n      0x00\n        /* \"#utility.yul\":6867:6876   */\n      dup4\n        /* \"#utility.yul\":6863:6880   */\n      add\n        /* \"#utility.yul\":6854:6860   */\n      dup5\n        /* \"#utility.yul\":6816:6881   */\n      tag_443\n      jump\t// in\n    tag_481:\n        /* \"#utility.yul\":6678:6888   */\n      swap3\n      swap2\n      pop\n      pop\n      jump\t// out\n        /* \"#utility.yul\":6894:7207   */\n    tag_314:\n        /* \"#utility.yul\":7007:7011   */\n      0x00\n        /* \"#utility.yul\":7045:7047   */\n      0x20\n        /* \"#utility.yul\":7034:7043   */\n      dup3\n        /* \"#utility.yul\":7030:7048   */\n      add\n        /* \"#utility.yul\":7022:7048   */\n      swap1\n      pop\n        /* \"#utility.yul\":7094:7103   */\n      dup2\n        /* \"#utility.yul\":7088:7092   */\n      dup2\n        /* \"#utility.yul\":7084:7104   */\n      sub\n        /* \"#utility.yul\":7080:7081   */\n      0x00\n        /* \"#utility.yul\":7069:7078   */\n      dup4\n        /* \"#utility.yul\":7065:7082   */\n      add\n        /* \"#utility.yul\":7058:7105   */\n      mstore\n        /* \"#utility.yul\":7122:7200   */\n      tag_483\n        /* \"#utility.yul\":7195:7199   */\n      dup2\n        /* \"#utility.yul\":7186:7192   */\n      dup5\n        /* \"#utility.yul\":7122:7200   */\n      tag_447\n      jump\t// in\n    tag_483:\n        /* \"#utility.yul\":7114:7200   */\n      swap1\n      pop\n        /* \"#utility.yul\":6894:7207   */\n      swap3\n      swap2\n      pop\n      pop\n      jump\t// out\n        /* \"#utility.yul\":7213:8059   */\n    tag_53:\n        /* \"#utility.yul\":7458:7462   */\n      0x00\n        /* \"#utility.yul\":7496:7499   */\n      0xa0\n        /* \"#utility.yul\":7485:7494   */\n      dup3\n        /* \"#utility.yul\":7481:7500   */\n      add\n        /* \"#utility.yul\":7473:7500   */\n      swap1\n      pop\n        /* \"#utility.yul\":7546:7555   */\n      dup2\n        /* \"#utility.yul\":7540:7544   */\n      dup2\n        /* \"#utility.yul\":7536:7556   */\n      sub\n        /* \"#utility.yul\":7532:7533   */\n      0x00\n        /* \"#utility.yul\":7521:7530   */\n      dup4\n        /* \"#utility.yul\":7517:7534   */\n      add\n        /* \"#utility.yul\":7510:7557   */\n      mstore\n        /* \"#utility.yul\":7574:7652   */\n      tag_485\n        /* \"#utility.yul\":7647:7651   */\n      dup2\n        /* \"#utility.yul\":7638:7644   */\n      dup9\n        /* \"#utility.yul\":7574:7652   */\n      tag_447\n      jump\t// in\n    tag_485:\n        /* \"#utility.yul\":7566:7652   */\n      swap1\n      pop\n        /* \"#utility.yul\":7662:7734   */\n      tag_486\n        /* \"#utility.yul\":7730:7732   */\n      0x20\n        /* \"#utility.yul\":7719:7728   */\n      dup4\n        /* \"#utility.yul\":7715:7733   */\n      add\n        /* \"#utility.yul\":7706:7712   */\n      dup8\n        /* \"#utility.yul\":7662:7734   */\n      tag_439\n      jump\t// in\n    tag_486:\n        /* \"#utility.yul\":7781:7790   */\n      dup2\n        /* \"#utility.yul\":7775:7779   */\n      dup2\n        /* \"#utility.yul\":7771:7791   */\n      sub\n        /* \"#utility.yul\":7766:7768   */\n      0x40\n        /* \"#utility.yul\":7755:7764   */\n      dup4\n        /* \"#utility.yul\":7751:7769   */\n      add\n        /* \"#utility.yul\":7744:7792   */\n      mstore\n        /* \"#utility.yul\":7809:7887   */\n      tag_487\n        /* \"#utility.yul\":7882:7886   */\n      dup2\n        /* \"#utility.yul\":7873:7879   */\n      dup7\n        /* \"#utility.yul\":7809:7887   */\n      tag_447\n      jump\t// in\n    tag_487:\n        /* \"#utility.yul\":7801:7887   */\n      swap1\n      pop\n        /* \"#utility.yul\":7897:7969   */\n      tag_488\n        /* \"#utility.yul\":7965:7967   */\n      0x60\n        /* \"#utility.yul\":7954:7963   */\n      dup4\n        /* \"#utility.yul\":7950:7968   */\n      add\n        /* \"#utility.yul\":7941:7947   */\n      dup6\n        /* \"#utility.yul\":7897:7969   */\n      tag_472\n      jump\t// in\n    tag_488:\n        /* \"#utility.yul\":7979:8052   */\n      tag_489\n        /* \"#utility.yul\":8047:8050   */\n      0x80\n        /* \"#utility.yul\":8036:8045   */\n      dup4\n        /* \"#utility.yul\":8032:8051   */\n      add\n        /* \"#utility.yul\":8023:8029   */\n      dup5\n        /* \"#utility.yul\":7979:8052   */\n      tag_472\n      jump\t// in\n    tag_489:\n        /* \"#utility.yul\":7213:8059   */\n      swap7\n      swap6\n      pop\n      pop\n      pop\n      pop\n      pop\n      pop\n      jump\t// out\n        /* \"#utility.yul\":8065:8689   */\n    tag_117:\n        /* \"#utility.yul\":8254:8258   */\n      0x00\n        /* \"#utility.yul\":8292:8294   */\n      0x60\n        /* \"#utility.yul\":8281:8290   */\n      dup3\n        /* \"#utility.yul\":8277:8295   */\n      add\n        /* \"#utility.yul\":8269:8295   */\n      swap1\n      pop\n        /* \"#utility.yul\":8341:8350   */\n      dup2\n        /* \"#utility.yul\":8335:8339   */\n      dup2\n        /* \"#utility.yul\":8331:8351   */\n      sub\n        /* \"#utility.yul\":8327:8328   */\n      0x00\n        /* \"#utility.yul\":8316:8325   */\n      dup4\n        /* \"#utility.yul\":8312:8329   */\n      add\n        /* \"#utility.yul\":8305:8352   */\n      mstore\n        /* \"#utility.yul\":8369:8447   */\n      tag_491\n        /* \"#utility.yul\":8442:8446   */\n      dup2\n        /* \"#utility.yul\":8433:8439   */\n      dup7\n        /* \"#utility.yul\":8369:8447   */\n      tag_447\n      jump\t// in\n    tag_491:\n        /* \"#utility.yul\":8361:8447   */\n      swap1\n      pop\n        /* \"#utility.yul\":8494:8503   */\n      dup2\n        /* \"#utility.yul\":8488:8492   */\n      dup2\n        /* \"#utility.yul\":8484:8504   */\n      sub\n        /* \"#utility.yul\":8479:8481   */\n      0x20\n        /* \"#utility.yul\":8468:8477   */\n      dup4\n        /* \"#utility.yul\":8464:8482   */\n      add\n        /* \"#utility.yul\":8457:8505   */\n      mstore\n        /* \"#utility.yul\":8522:8600   */\n      tag_492\n        /* \"#utility.yul\":8595:8599   */\n      dup2\n        /* \"#utility.yul\":8586:8592   */\n      dup6\n        /* \"#utility.yul\":8522:8600   */\n      tag_447\n      jump\t// in\n    tag_492:\n        /* \"#utility.yul\":8514:8600   */\n      swap1\n      pop\n        /* \"#utility.yul\":8610:8682   */\n      tag_493\n        /* \"#utility.yul\":8678:8680   */\n      0x40\n        /* \"#utility.yul\":8667:8676   */\n      dup4\n        /* \"#utility.yul\":8663:8681   */\n      add\n        /* \"#utility.yul\":8654:8660   */\n      dup5\n        /* \"#utility.yul\":8610:8682   */\n      tag_472\n      jump\t// in\n    tag_493:\n        /* \"#utility.yul\":8065:8689   */\n      swap5\n      swap4\n      pop\n      pop\n      pop\n      pop\n      jump\t// out\n        /* \"#utility.yul\":8695:9114   */\n    tag_293:\n        /* \"#utility.yul\":8861:8865   */\n      0x00\n        /* \"#utility.yul\":8899:8901   */\n      0x20\n        /* \"#utility.yul\":8888:8897   */\n      dup3\n        /* \"#utility.yul\":8884:8902   */\n      add\n        /* \"#utility.yul\":8876:8902   */\n      swap1\n      pop\n        /* \"#utility.yul\":8948:8957   */\n      dup2\n        /* \"#utility.yul\":8942:8946   */\n      dup2\n        /* \"#utility.yul\":8938:8958   */\n      sub\n        /* \"#utility.yul\":8934:8935   */\n      0x00\n        /* \"#utility.yul\":8923:8932   */\n      dup4\n        /* \"#utility.yul\":8919:8936   */\n      add\n        /* \"#utility.yul\":8912:8959   */\n      mstore\n        /* \"#utility.yul\":8976:9107   */\n      tag_495\n        /* \"#utility.yul\":9102:9106   */\n      dup2\n        /* \"#utility.yul\":8976:9107   */\n      tag_457\n      jump\t// in\n    tag_495:\n        /* \"#utility.yul\":8968:9107   */\n      swap1\n      pop\n        /* \"#utility.yul\":8695:9114   */\n      swap2\n      swap1\n      pop\n      jump\t// out\n        /* \"#utility.yul\":9120:9539   */\n    tag_290:\n        /* \"#utility.yul\":9286:9290   */\n      0x00\n        /* \"#utility.yul\":9324:9326   */\n      0x20\n        /* \"#utility.yul\":9313:9322   */\n      dup3\n        /* \"#utility.yul\":9309:9327   */\n      add\n        /* \"#utility.yul\":9301:9327   */\n      swap1\n      pop\n        /* \"#utility.yul\":9373:9382   */\n      dup2\n        /* \"#utility.yul\":9367:9371   */\n      dup2\n        /* \"#utility.yul\":9363:9383   */\n      sub\n        /* \"#utility.yul\":9359:9360   */\n      0x00\n        /* \"#utility.yul\":9348:9357   */\n      dup4\n        /* \"#utility.yul\":9344:9361   */\n      add\n        /* \"#utility.yul\":9337:9384   */\n      mstore\n        /* \"#utility.yul\":9401:9532   */\n      tag_497\n        /* \"#utility.yul\":9527:9531   */\n      dup2\n        /* \"#utility.yul\":9401:9532   */\n      tag_462\n      jump\t// in\n    tag_497:\n        /* \"#utility.yul\":9393:9532   */\n      swap1\n      pop\n        /* \"#utility.yul\":9120:9539   */\n      swap2\n      swap1\n      pop\n      jump\t// out\n        /* \"#utility.yul\":9545:9964   */\n    tag_227:\n        /* \"#utility.yul\":9711:9715   */\n      0x00\n        /* \"#utility.yul\":9749:9751   */\n      0x20\n        /* \"#utility.yul\":9738:9747   */\n      dup3\n        /* \"#utility.yul\":9734:9752   */\n      add\n        /* \"#utility.yul\":9726:9752   */\n      swap1\n      pop\n        /* \"#utility.yul\":9798:9807   */\n      dup2\n        /* \"#utility.yul\":9792:9796   */\n      dup2\n        /* \"#utility.yul\":9788:9808   */\n      sub\n        /* \"#utility.yul\":9784:9785   */\n      0x00\n        /* \"#utility.yul\":9773:9782   */\n      dup4\n        /* \"#utility.yul\":9769:9786   */\n      add\n        /* \"#utility.yul\":9762:9809   */\n      mstore\n        /* \"#utility.yul\":9826:9957   */\n      tag_499\n        /* \"#utility.yul\":9952:9956   */\n      dup2\n        /* \"#utility.yul\":9826:9957   */\n      tag_467\n      jump\t// in\n    tag_499:\n        /* \"#utility.yul\":9818:9957   */\n      swap1\n      pop\n        /* \"#utility.yul\":9545:9964   */\n      swap2\n      swap1\n      pop\n      jump\t// out\n        /* \"#utility.yul\":9970:10192   */\n    tag_37:\n        /* \"#utility.yul\":10063:10067   */\n      0x00\n        /* \"#utility.yul\":10101:10103   */\n      0x20\n        /* \"#utility.yul\":10090:10099   */\n      dup3\n        /* \"#utility.yul\":10086:10104   */\n      add\n        /* \"#utility.yul\":10078:10104   */\n      swap1\n      pop\n        /* \"#utility.yul\":10114:10185   */\n      tag_501\n        /* \"#utility.yul\":10182:10183   */\n      0x00\n        /* \"#utility.yul\":10171:10180   */\n      dup4\n        /* \"#utility.yul\":10167:10184   */\n      add\n        /* \"#utility.yul\":10158:10164   */\n      dup5\n        /* \"#utility.yul\":10114:10185   */\n      tag_472\n      jump\t// in\n    tag_501:\n        /* \"#utility.yul\":9970:10192   */\n      swap3\n      swap2\n      pop\n      pop\n      jump\t// out\n        /* \"#utility.yul\":10198:10327   */\n    tag_376:\n        /* \"#utility.yul\":10232:10238   */\n      0x00\n        /* \"#utility.yul\":10259:10279   */\n      tag_503\n      tag_504\n      jump\t// in\n    tag_503:\n        /* \"#utility.yul\":10249:10279   */\n      swap1\n      pop\n        /* \"#utility.yul\":10288:10321   */\n      tag_505\n        /* \"#utility.yul\":10316:10320   */\n      dup3\n        /* \"#utility.yul\":10308:10314   */\n      dup3\n        /* \"#utility.yul\":10288:10321   */\n      tag_506\n      jump\t// in\n    tag_505:\n        /* \"#utility.yul\":10198:10327   */\n      swap2\n      swap1\n      pop\n      jump\t// out\n        /* \"#utility.yul\":10333:10408   */\n    tag_504:\n        /* \"#utility.yul\":10366:10372   */\n      0x00\n        /* \"#utility.yul\":10399:10401   */\n      0x40\n        /* \"#utility.yul\":10393:10402   */\n      mload\n        /* \"#utility.yul\":10383:10402   */\n      swap1\n      pop\n        /* \"#utility.yul\":10333:10408   */\n      swap1\n      jump\t// out\n        /* \"#utility.yul\":10414:10722   */\n    tag_375:\n        /* \"#utility.yul\":10476:10480   */\n      0x00\n        /* \"#utility.yul\":10566:10584   */\n      0xffffffffffffffff\n        /* \"#utility.yul\":10558:10564   */\n      dup3\n        /* \"#utility.yul\":10555:10585   */\n      gt\n        /* \"#utility.yul\":10552:10608   */\n      iszero\n      tag_509\n      jumpi\n        /* \"#utility.yul\":10588:10606   */\n      tag_510\n      tag_333\n      jump\t// in\n    tag_510:\n        /* \"#utility.yul\":10552:10608   */\n    tag_509:\n        /* \"#utility.yul\":10626:10655   */\n      tag_511\n        /* \"#utility.yul\":10648:10654   */\n      dup3\n        /* \"#utility.yul\":10626:10655   */\n      tag_456\n      jump\t// in\n    tag_511:\n        /* \"#utility.yul\":10618:10655   */\n      swap1\n      pop\n        /* \"#utility.yul\":10710:10714   */\n      0x20\n        /* \"#utility.yul\":10704:10708   */\n      dup2\n        /* \"#utility.yul\":10700:10715   */\n      add\n        /* \"#utility.yul\":10692:10715   */\n      swap1\n      pop\n        /* \"#utility.yul\":10414:10722   */\n      swap2\n      swap1\n      pop\n      jump\t// out\n        /* \"#utility.yul\":10728:10827   */\n    tag_450:\n        /* \"#utility.yul\":10780:10786   */\n      0x00\n        /* \"#utility.yul\":10814:10819   */\n      dup2\n        /* \"#utility.yul\":10808:10820   */\n      mload\n        /* \"#utility.yul\":10798:10820   */\n      swap1\n      pop\n        /* \"#utility.yul\":10728:10827   */\n      swap2\n      swap1\n      pop\n      jump\t// out\n        /* \"#utility.yul\":10833:11002   */\n    tag_452:\n        /* \"#utility.yul\":10917:10928   */\n      0x00\n        /* \"#utility.yul\":10951:10957   */\n      dup3\n        /* \"#utility.yul\":10946:10949   */\n      dup3\n        /* \"#utility.yul\":10939:10958   */\n      mstore\n        /* \"#utility.yul\":10991:10995   */\n      0x20\n        /* \"#utility.yul\":10986:10989   */\n      dup3\n        /* \"#utility.yul\":10982:10996   */\n      add\n        /* \"#utility.yul\":10967:10996   */\n      swap1\n      pop\n        /* \"#utility.yul\":10833:11002   */\n      swap3\n      swap2\n      pop\n      pop\n      jump\t// out\n        /* \"#utility.yul\":11008:11313   */\n    tag_235:\n        /* \"#utility.yul\":11048:11051   */\n      0x00\n        /* \"#utility.yul\":11067:11087   */\n      tag_515\n        /* \"#utility.yul\":11085:11086   */\n      dup3\n        /* \"#utility.yul\":11067:11087   */\n      tag_475\n      jump\t// in\n    tag_515:\n        /* \"#utility.yul\":11062:11087   */\n      swap2\n      pop\n        /* \"#utility.yul\":11101:11121   */\n      tag_516\n        /* \"#utility.yul\":11119:11120   */\n      dup4\n        /* \"#utility.yul\":11101:11121   */\n      tag_475\n      jump\t// in\n    tag_516:\n        /* \"#utility.yul\":11096:11121   */\n      swap3\n      pop\n        /* \"#utility.yul\":11255:11256   */\n      dup3\n        /* \"#utility.yul\":11187:11253   */\n      0xffffffffffffffffffffffffffffffffffffffffffffffffffffffffffffffff\n        /* \"#utility.yul\":11183:11257   */\n      sub\n        /* \"#utility.yul\":11180:11181   */\n      dup3\n        /* \"#utility.yul\":11177:11258   */\n      gt\n        /* \"#utility.yul\":11174:11281   */\n      iszero\n      tag_517\n      jumpi\n        /* \"#utility.yul\":11261:11279   */\n      tag_518\n      tag_519\n      jump\t// in\n    tag_518:\n        /* \"#utility.yul\":11174:11281   */\n    tag_517:\n        /* \"#utility.yul\":11305:11306   */\n      dup3\n        /* \"#utility.yul\":11302:11303   */\n      dup3\n        /* \"#utility.yul\":11298:11307   */\n      add\n        /* \"#utility.yul\":11291:11307   */\n      swap1\n      pop\n        /* \"#utility.yul\":11008:11313   */\n      swap3\n      swap2\n      pop\n      pop\n      jump\t// out\n        /* \"#utility.yul\":11319:11504   */\n    tag_285:\n        /* \"#utility.yul\":11359:11360   */\n      0x00\n        /* \"#utility.yul\":11376:11396   */\n      tag_521\n        /* \"#utility.yul\":11394:11395   */\n      dup3\n        /* \"#utility.yul\":11376:11396   */\n      tag_475\n      jump\t// in\n    tag_521:\n        /* \"#utility.yul\":11371:11396   */\n      swap2\n      pop\n        /* \"#utility.yul\":11410:11430   */\n      tag_522\n        /* \"#utility.yul\":11428:11429   */\n      dup4\n        /* \"#utility.yul\":11410:11430   */\n      tag_475\n      jump\t// in\n    tag_522:\n        /* \"#utility.yul\":11405:11430   */\n      swap3\n      pop\n        /* \"#utility.yul\":11449:11450   */\n      dup3\n        /* \"#utility.yul\":11439:11474   */\n      tag_523\n      jumpi\n        /* \"#utility.yul\":11454:11472   */\n      tag_524\n      tag_525\n      jump\t// in\n    tag_524:\n        /* \"#utility.yul\":11439:11474   */\n    tag_523:\n        /* \"#utility.yul\":11496:11497   */\n      dup3\n        /* \"#utility.yul\":11493:11494   */\n      dup3\n        /* \"#utility.yul\":11489:11498   */\n      div\n        /* \"#utility.yul\":11484:11498   */\n      swap1\n      pop\n        /* \"#utility.yul\":11319:11504   */\n      swap3\n      swap2\n      pop\n      pop\n      jump\t// out\n        /* \"#utility.yul\":11510:11858   */\n    tag_287:\n        /* \"#utility.yul\":11550:11557   */\n      0x00\n        /* \"#utility.yul\":11573:11593   */\n      tag_527\n        /* \"#utility.yul\":11591:11592   */\n      dup3\n        /* \"#utility.yul\":11573:11593   */\n      tag_475\n      jump\t// in\n    tag_527:\n        /* \"#utility.yul\":11568:11593   */\n      swap2\n      pop\n        /* \"#utility.yul\":11607:11627   */\n      tag_528\n        /* \"#utility.yul\":11625:11626   */\n      dup4\n        /* \"#utility.yul\":11607:11627   */\n      tag_475\n      jump\t// in\n    tag_528:\n        /* \"#utility.yul\":11602:11627   */\n      swap3\n      pop\n        /* \"#utility.yul\":11795:11796   */\n      dup2\n        /* \"#utility.yul\":11727:11793   */\n      0xffffffffffffffffffffffffffffffffffffffffffffffffffffffffffffffff\n        /* \"#utility.yul\":11723:11797   */\n      div\n        /* \"#utility.yul\":11720:11721   */\n      dup4\n        /* \"#utility.yul\":11717:11798   */\n      gt\n        /* \"#utility.yul\":11712:11713   */\n      dup3\n        /* \"#utility.yul\":11705:11714   */\n      iszero\n        /* \"#utility.yul\":11698:11715   */\n      iszero\n        /* \"#utility.yul\":11694:11799   */\n      and\n        /* \"#utility.yul\":11691:11822   */\n      iszero\n      tag_529\n      jumpi\n        /* \"#utility.yul\":11802:11820   */\n      tag_530\n      tag_519\n      jump\t// in\n    tag_530:\n        /* \"#utility.yul\":11691:11822   */\n    tag_529:\n        /* \"#utility.yul\":11850:11851   */\n      dup3\n        /* \"#utility.yul\":11847:11848   */\n      dup3\n        /* \"#utility.yul\":11843:11852   */\n      mul\n        /* \"#utility.yul\":11832:11852   */\n      swap1\n      pop\n        /* \"#utility.yul\":11510:11858   */\n      swap3\n      swap2\n      pop\n      pop\n      jump\t// out\n        /* \"#utility.yul\":11864:12055   */\n    tag_233:\n        /* \"#utility.yul\":11904:11908   */\n      0x00\n        /* \"#utility.yul\":11924:11944   */\n      tag_532\n        /* \"#utility.yul\":11942:11943   */\n      dup3\n        /* \"#utility.yul\":11924:11944   */\n      tag_475\n      jump\t// in\n    tag_532:\n        /* \"#utility.yul\":11919:11944   */\n      swap2\n      pop\n        /* \"#utility.yul\":11958:11978   */\n      tag_533\n        /* \"#utility.yul\":11976:11977   */\n      dup4\n        /* \"#utility.yul\":11958:11978   */\n      tag_475\n      jump\t// in\n    tag_533:\n        /* \"#utility.yul\":11953:11978   */\n      swap3\n      pop\n        /* \"#utility.yul\":11997:11998   */\n      dup3\n        /* \"#utility.yul\":11994:11995   */\n      dup3\n        /* \"#utility.yul\":11991:11999   */\n      lt\n        /* \"#utility.yul\":11988:12022   */\n      iszero\n      tag_534\n      jumpi\n        /* \"#utility.yul\":12002:12020   */\n      tag_535\n      tag_519\n      jump\t// in\n    tag_535:\n        /* \"#utility.yul\":11988:12022   */\n    tag_534:\n        /* \"#utility.yul\":12047:12048   */\n      dup3\n        /* \"#utility.yul\":12044:12045   */\n      dup3\n        /* \"#utility.yul\":12040:12049   */\n      sub\n        /* \"#utility.yul\":12032:12049   */\n      swap1\n      pop\n        /* \"#utility.yul\":11864:12055   */\n      swap3\n      swap2\n      pop\n      pop\n      jump\t// out\n        /* \"#utility.yul\":12061:12157   */\n    tag_442:\n        /* \"#utility.yul\":12098:12105   */\n      0x00\n        /* \"#utility.yul\":12127:12151   */\n      tag_537\n        /* \"#utility.yul\":12145:12150   */\n      dup3\n        /* \"#utility.yul\":12127:12151   */\n      tag_538\n      jump\t// in\n    tag_537:\n        /* \"#utility.yul\":12116:12151   */\n      swap1\n      pop\n        /* \"#utility.yul\":12061:12157   */\n      swap2\n      swap1\n      pop\n      jump\t// out\n        /* \"#utility.yul\":12163:12267   */\n    tag_438:\n        /* \"#utility.yul\":12208:12215   */\n      0x00\n        /* \"#utility.yul\":12237:12261   */\n      tag_540\n        /* \"#utility.yul\":12255:12260   */\n      dup3\n        /* \"#utility.yul\":12237:12261   */\n      tag_538\n      jump\t// in\n    tag_540:\n        /* \"#utility.yul\":12226:12261   */\n      swap1\n      pop\n        /* \"#utility.yul\":12163:12267   */\n      swap2\n      swap1\n      pop\n      jump\t// out\n        /* \"#utility.yul\":12273:12363   */\n    tag_446:\n        /* \"#utility.yul\":12307:12314   */\n      0x00\n        /* \"#utility.yul\":12350:12355   */\n      dup2\n        /* \"#utility.yul\":12343:12356   */\n      iszero\n        /* \"#utility.yul\":12336:12357   */\n      iszero\n        /* \"#utility.yul\":12325:12357   */\n      swap1\n      pop\n        /* \"#utility.yul\":12273:12363   */\n      swap2\n      swap1\n      pop\n      jump\t// out\n        /* \"#utility.yul\":12369:12495   */\n    tag_538:\n        /* \"#utility.yul\":12406:12413   */\n      0x00\n        /* \"#utility.yul\":12446:12488   */\n      0xffffffffffffffffffffffffffffffffffffffff\n        /* \"#utility.yul\":12439:12444   */\n      dup3\n        /* \"#utility.yul\":12435:12489   */\n      and\n        /* \"#utility.yul\":12424:12489   */\n      swap1\n      pop\n        /* \"#utility.yul\":12369:12495   */\n      swap2\n      swap1\n      pop\n      jump\t// out\n        /* \"#utility.yul\":12501:12578   */\n    tag_475:\n        /* \"#utility.yul\":12538:12545   */\n      0x00\n        /* \"#utility.yul\":12567:12572   */\n      dup2\n        /* \"#utility.yul\":12556:12572   */\n      swap1\n      pop\n        /* \"#utility.yul\":12501:12578   */\n      swap2\n      swap1\n      pop\n      jump\t// out\n        /* \"#utility.yul\":12584:12738   */\n    tag_381:\n        /* \"#utility.yul\":12668:12674   */\n      dup3\n        /* \"#utility.yul\":12663:12666   */\n      dup2\n        /* \"#utility.yul\":12658:12661   */\n      dup4\n        /* \"#utility.yul\":12645:12675   */\n      calldatacopy\n        /* \"#utility.yul\":12730:12731   */\n      0x00\n        /* \"#utility.yul\":12721:12727   */\n      dup4\n        /* \"#utility.yul\":12716:12719   */\n      dup4\n        /* \"#utility.yul\":12712:12728   */\n      add\n        /* \"#utility.yul\":12705:12732   */\n      mstore\n        /* \"#utility.yul\":12584:12738   */\n      pop\n      pop\n      pop\n      jump\t// out\n        /* \"#utility.yul\":12744:13051   */\n    tag_454:\n        /* \"#utility.yul\":12812:12813   */\n      0x00\n        /* \"#utility.yul\":12822:12935   */\n    tag_546:\n        /* \"#utility.yul\":12836:12842   */\n      dup4\n        /* \"#utility.yul\":12833:12834   */\n      dup2\n        /* \"#utility.yul\":12830:12843   */\n      lt\n        /* \"#utility.yul\":12822:12935   */\n      iszero\n      tag_548\n      jumpi\n        /* \"#utility.yul\":12921:12922   */\n      dup1\n        /* \"#utility.yul\":12916:12919   */\n      dup3\n        /* \"#utility.yul\":12912:12923   */\n      add\n        /* \"#utility.yul\":12906:12924   */\n      mload\n        /* \"#utility.yul\":12902:12903   */\n      dup2\n        /* \"#utility.yul\":12897:12900   */\n      dup5\n        /* \"#utility.yul\":12893:12904   */\n      add\n        /* \"#utility.yul\":12886:12925   */\n      mstore\n        /* \"#utility.yul\":12858:12860   */\n      0x20\n        /* \"#utility.yul\":12855:12856   */\n      dup2\n        /* \"#utility.yul\":12851:12861   */\n      add\n        /* \"#utility.yul\":12846:12861   */\n      swap1\n      pop\n        /* \"#utility.yul\":12822:12935   */\n      jump(tag_546)\n    tag_548:\n        /* \"#utility.yul\":12953:12959   */\n      dup4\n        /* \"#utility.yul\":12950:12951   */\n      dup2\n        /* \"#utility.yul\":12947:12960   */\n      gt\n        /* \"#utility.yul\":12944:13045   */\n      iszero\n      tag_549\n      jumpi\n        /* \"#utility.yul\":13033:13034   */\n      0x00\n        /* \"#utility.yul\":13024:13030   */\n      dup5\n        /* \"#utility.yul\":13019:13022   */\n      dup5\n        /* \"#utility.yul\":13015:13031   */\n      add\n        /* \"#utility.yul\":13008:13035   */\n      mstore\n        /* \"#utility.yul\":12944:13045   */\n    tag_549:\n        /* \"#utility.yul\":12793:13051   */\n      pop\n        /* \"#utility.yul\":12744:13051   */\n      pop\n      pop\n      pop\n      jump\t// out\n        /* \"#utility.yul\":13057:13228   */\n    tag_205:\n        /* \"#utility.yul\":13096:13099   */\n      0x00\n        /* \"#utility.yul\":13119:13143   */\n      tag_551\n        /* \"#utility.yul\":13137:13142   */\n      dup3\n        /* \"#utility.yul\":13119:13143   */\n      tag_475\n      jump\t// in\n    tag_551:\n        /* \"#utility.yul\":13110:13143   */\n      swap2\n      pop\n        /* \"#utility.yul\":13165:13169   */\n      0x00\n        /* \"#utility.yul\":13158:13163   */\n      dup3\n        /* \"#utility.yul\":13155:13170   */\n      eq\n        /* \"#utility.yul\":13152:13193   */\n      iszero\n      tag_552\n      jumpi\n        /* \"#utility.yul\":13173:13191   */\n      tag_553\n      tag_519\n      jump\t// in\n    tag_553:\n        /* \"#utility.yul\":13152:13193   */\n    tag_552:\n        /* \"#utility.yul\":13220:13221   */\n      0x01\n        /* \"#utility.yul\":13213:13218   */\n      dup3\n        /* \"#utility.yul\":13209:13222   */\n      sub\n        /* \"#utility.yul\":13202:13222   */\n      swap1\n      pop\n        /* \"#utility.yul\":13057:13228   */\n      swap2\n      swap1\n      pop\n      jump\t// out\n        /* \"#utility.yul\":13234:13554   */\n    tag_158:\n        /* \"#utility.yul\":13278:13284   */\n      0x00\n        /* \"#utility.yul\":13315:13316   */\n      0x02\n        /* \"#utility.yul\":13309:13313   */\n      dup3\n        /* \"#utility.yul\":13305:13317   */\n      div\n        /* \"#utility.yul\":13295:13317   */\n      swap1\n      pop\n        /* \"#utility.yul\":13362:13363   */\n      0x01\n        /* \"#utility.yul\":13356:13360   */\n      dup3\n        /* \"#utility.yul\":13352:13364   */\n      and\n        /* \"#utility.yul\":13383:13401   */\n      dup1\n        /* \"#utility.yul\":13373:13454   */\n      tag_555\n      jumpi\n        /* \"#utility.yul\":13439:13443   */\n      0x7f\n        /* \"#utility.yul\":13431:13437   */\n      dup3\n        /* \"#utility.yul\":13427:13444   */\n      and\n        /* \"#utility.yul\":13417:13444   */\n      swap2\n      pop\n        /* \"#utility.yul\":13373:13454   */\n    tag_555:\n        /* \"#utility.yul\":13501:13503   */\n      0x20\n        /* \"#utility.yul\":13493:13499   */\n      dup3\n        /* \"#utility.yul\":13490:13504   */\n      lt\n        /* \"#utility.yul\":13470:13488   */\n      dup2\n        /* \"#utility.yul\":13467:13505   */\n      eq\n        /* \"#utility.yul\":13464:13548   */\n      iszero\n      tag_556\n      jumpi\n        /* \"#utility.yul\":13520:13538   */\n      tag_557\n      tag_558\n      jump\t// in\n    tag_557:\n        /* \"#utility.yul\":13464:13548   */\n    tag_556:\n        /* \"#utility.yul\":13285:13554   */\n      pop\n        /* \"#utility.yul\":13234:13554   */\n      swap2\n      swap1\n      pop\n      jump\t// out\n        /* \"#utility.yul\":13560:13841   */\n    tag_506:\n        /* \"#utility.yul\":13643:13670   */\n      tag_560\n        /* \"#utility.yul\":13665:13669   */\n      dup3\n        /* \"#utility.yul\":13643:13670   */\n      tag_456\n      jump\t// in\n    tag_560:\n        /* \"#utility.yul\":13635:13641   */\n      dup2\n        /* \"#utility.yul\":13631:13671   */\n      add\n        /* \"#utility.yul\":13773:13779   */\n      dup2\n        /* \"#utility.yul\":13761:13771   */\n      dup2\n        /* \"#utility.yul\":13758:13780   */\n      lt\n        /* \"#utility.yul\":13737:13755   */\n      0xffffffffffffffff\n        /* \"#utility.yul\":13725:13735   */\n      dup3\n        /* \"#utility.yul\":13722:13756   */\n      gt\n        /* \"#utility.yul\":13719:13781   */\n      or\n        /* \"#utility.yul\":13716:13804   */\n      iszero\n      tag_561\n      jumpi\n        /* \"#utility.yul\":13784:13802   */\n      tag_562\n      tag_333\n      jump\t// in\n    tag_562:\n        /* \"#utility.yul\":13716:13804   */\n    tag_561:\n        /* \"#utility.yul\":13824:13834   */\n      dup1\n        /* \"#utility.yul\":13820:13822   */\n      0x40\n        /* \"#utility.yul\":13813:13835   */\n      mstore\n        /* \"#utility.yul\":13603:13841   */\n      pop\n        /* \"#utility.yul\":13560:13841   */\n      pop\n      pop\n      jump\t// out\n        /* \"#utility.yul\":13847:14080   */\n    tag_207:\n        /* \"#utility.yul\":13886:13889   */\n      0x00\n        /* \"#utility.yul\":13909:13933   */\n      tag_564\n        /* \"#utility.yul\":13927:13932   */\n      dup3\n        /* \"#utility.yul\":13909:13933   */\n      tag_475\n      jump\t// in\n    tag_564:\n        /* \"#utility.yul\":13900:13933   */\n      swap2\n      pop\n        /* \"#utility.yul\":13955:14021   */\n      0xffffffffffffffffffffffffffffffffffffffffffffffffffffffffffffffff\n        /* \"#utility.yul\":13948:13953   */\n      dup3\n        /* \"#utility.yul\":13945:14022   */\n      eq\n        /* \"#utility.yul\":13942:14045   */\n      iszero\n      tag_565\n      jumpi\n        /* \"#utility.yul\":14025:14043   */\n      tag_566\n      tag_519\n      jump\t// in\n    tag_566:\n        /* \"#utility.yul\":13942:14045   */\n    tag_565:\n        /* \"#utility.yul\":14072:14073   */\n      0x01\n        /* \"#utility.yul\":14065:14070   */\n      dup3\n        /* \"#utility.yul\":14061:14074   */\n      add\n        /* \"#utility.yul\":14054:14074   */\n      swap1\n      pop\n        /* \"#utility.yul\":13847:14080   */\n      swap2\n      swap1\n      pop\n      jump\t// out\n        /* \"#utility.yul\":14086:14262   */\n    tag_339:\n        /* \"#utility.yul\":14118:14119   */\n      0x00\n        /* \"#utility.yul\":14135:14155   */\n      tag_568\n        /* \"#utility.yul\":14153:14154   */\n      dup3\n        /* \"#utility.yul\":14135:14155   */\n      tag_475\n      jump\t// in\n    tag_568:\n        /* \"#utility.yul\":14130:14155   */\n      swap2\n      pop\n        /* \"#utility.yul\":14169:14189   */\n      tag_569\n        /* \"#utility.yul\":14187:14188   */\n      dup4\n        /* \"#utility.yul\":14169:14189   */\n      tag_475\n      jump\t// in\n    tag_569:\n        /* \"#utility.yul\":14164:14189   */\n      swap3\n      pop\n        /* \"#utility.yul\":14208:14209   */\n      dup3\n        /* \"#utility.yul\":14198:14233   */\n      tag_570\n      jumpi\n        /* \"#utility.yul\":14213:14231   */\n      tag_571\n      tag_525\n      jump\t// in\n    tag_571:\n        /* \"#utility.yul\":14198:14233   */\n    tag_570:\n        /* \"#utility.yul\":14254:14255   */\n      dup3\n        /* \"#utility.yul\":14251:14252   */\n      dup3\n        /* \"#utility.yul\":14247:14256   */\n      mod\n        /* \"#utility.yul\":14242:14256   */\n      swap1\n      pop\n        /* \"#utility.yul\":14086:14262   */\n      swap3\n      swap2\n      pop\n      pop\n      jump\t// out\n        /* \"#utility.yul\":14268:14448   */\n    tag_519:\n        /* \"#utility.yul\":14316:14393   */\n      0x4e487b7100000000000000000000000000000000000000000000000000000000\n        /* \"#utility.yul\":14313:14314   */\n      0x00\n        /* \"#utility.yul\":14306:14394   */\n      mstore\n        /* \"#utility.yul\":14413:14417   */\n      0x11\n        /* \"#utility.yul\":14410:14411   */\n      0x04\n        /* \"#utility.yul\":14403:14418   */\n      mstore\n        /* \"#utility.yul\":14437:14441   */\n      0x24\n        /* \"#utility.yul\":14434:14435   */\n      0x00\n        /* \"#utility.yul\":14427:14442   */\n      revert\n        /* \"#utility.yul\":14454:14634   */\n    tag_525:\n        /* \"#utility.yul\":14502:14579   */\n      0x4e487b7100000000000000000000000000000000000000000000000000000000\n        /* \"#utility.yul\":14499:14500   */\n      0x00\n        /* \"#utility.yul\":14492:14580   */\n      mstore\n        /* \"#utility.yul\":14599:14603   */\n      0x12\n        /* \"#utility.yul\":14596:14597   */\n      0x04\n        /* \"#utility.yul\":14589:14604   */\n      mstore\n        /* \"#utility.yul\":14623:14627   */\n      0x24\n        /* \"#utility.yul\":14620:14621   */\n      0x00\n        /* \"#utility.yul\":14613:14628   */\n      revert\n        /* \"#utility.yul\":14640:14820   */\n    tag_156:\n        /* \"#utility.yul\":14688:14765   */\n      0x4e487b7100000000000000000000000000000000000000000000000000000000\n        /* \"#utility.yul\":14685:14686   */\n      0x00\n        /* \"#utility.yul\":14678:14766   */\n      mstore\n        /* \"#utility.yul\":14785:14789   */\n      0x21\n        /* \"#utility.yul\":14782:14783   */\n      0x04\n        /* \"#utility.yul\":14775:14790   */\n      mstore\n        /* \"#utility.yul\":14809:14813   */\n      0x24\n        /* \"#utility.yul\":14806:14807   */\n      0x00\n        /* \"#utility.yul\":14799:14814   */\n      revert\n        /* \"#utility.yul\":14826:15006   */\n    tag_558:\n        /* \"#utility.yul\":14874:14951   */\n      0x4e487b7100000000000000000000000000000000000000000000000000000000\n        /* \"#utility.yul\":14871:14872   */\n      0x00\n        /* \"#utility.yul\":14864:14952   */\n      mstore\n        /* \"#utility.yul\":14971:14975   */\n      0x22\n        /* \"#utility.yul\":14968:14969   */\n      0x04\n        /* \"#utility.yul\":14961:14976   */\n      mstore\n        /* \"#utility.yul\":14995:14999   */\n      0x24\n        /* \"#utility.yul\":14992:14993   */\n      0x00\n        /* \"#utility.yul\":14985:15000   */\n      revert\n        /* \"#utility.yul\":15012:15192   */\n    tag_198:\n        /* \"#utility.yul\":15060:15137   */\n      0x4e487b7100000000000000000000000000000000000000000000000000000000\n        /* \"#utility.yul\":15057:15058   */\n      0x00\n        /* \"#utility.yul\":15050:15138   */\n      mstore\n        /* \"#utility.yul\":15157:15161   */\n      0x32\n        /* \"#utility.yul\":15154:15155   */\n      0x04\n        /* \"#utility.yul\":15147:15162   */\n      mstore\n        /* \"#utility.yul\":15181:15185   */\n      0x24\n        /* \"#utility.yul\":15178:15179   */\n      0x00\n        /* \"#utility.yul\":15171:15186   */\n      revert\n        /* \"#utility.yul\":15198:15378   */\n    tag_333:\n        /* \"#utility.yul\":15246:15323   */\n      0x4e487b7100000000000000000000000000000000000000000000000000000000\n        /* \"#utility.yul\":15243:15244   */\n      0x00\n        /* \"#utility.yul\":15236:15324   */\n      mstore\n        /* \"#utility.yul\":15343:15347   */\n      0x41\n        /* \"#utility.yul\":15340:15341   */\n      0x04\n        /* \"#utility.yul\":15333:15348   */\n      mstore\n        /* \"#utility.yul\":15367:15371   */\n      0x24\n        /* \"#utility.yul\":15364:15365   */\n      0x00\n        /* \"#utility.yul\":15357:15372   */\n      revert\n        /* \"#utility.yul\":15384:15501   */\n    tag_394:\n        /* \"#utility.yul\":15493:15494   */\n      0x00\n        /* \"#utility.yul\":15490:15491   */\n      dup1\n        /* \"#utility.yul\":15483:15495   */\n      revert\n        /* \"#utility.yul\":15507:15624   */\n    tag_379:\n        /* \"#utility.yul\":15616:15617   */\n      0x00\n        /* \"#utility.yul\":15613:15614   */\n      dup1\n        /* \"#utility.yul\":15606:15618   */\n      revert\n        /* \"#utility.yul\":15630:15747   */\n    tag_419:\n        /* \"#utility.yul\":15739:15740   */\n      0x00\n        /* \"#utility.yul\":15736:15737   */\n      dup1\n        /* \"#utility.yul\":15729:15741   */\n      revert\n        /* \"#utility.yul\":15753:15870   */\n    tag_403:\n        /* \"#utility.yul\":15862:15863   */\n      0x00\n        /* \"#utility.yul\":15859:15860   */\n      dup1\n        /* \"#utility.yul\":15852:15864   */\n      revert\n        /* \"#utility.yul\":15876:15978   */\n    tag_456:\n        /* \"#utility.yul\":15917:15923   */\n      0x00\n        /* \"#utility.yul\":15968:15970   */\n      0x1f\n        /* \"#utility.yul\":15964:15971   */\n      not\n        /* \"#utility.yul\":15959:15961   */\n      0x1f\n        /* \"#utility.yul\":15952:15957   */\n      dup4\n        /* \"#utility.yul\":15948:15962   */\n      add\n        /* \"#utility.yul\":15944:15972   */\n      and\n        /* \"#utility.yul\":15934:15972   */\n      swap1\n      pop\n        /* \"#utility.yul\":15876:15978   */\n      swap2\n      swap1\n      pop\n      jump\t// out\n        /* \"#utility.yul\":15984:16206   */\n    tag_461:\n        /* \"#utility.yul\":16124:16158   */\n      0x4e756d626572206f662073686172657320657863656564656420746865206c69\n        /* \"#utility.yul\":16120:16121   */\n      0x00\n        /* \"#utility.yul\":16112:16118   */\n      dup3\n        /* \"#utility.yul\":16108:16122   */\n      add\n        /* \"#utility.yul\":16101:16159   */\n      mstore\n        /* \"#utility.yul\":16193:16198   */\n      0x6d69740000000000000000000000000000000000000000000000000000000000\n        /* \"#utility.yul\":16188:16190   */\n      0x20\n        /* \"#utility.yul\":16180:16186   */\n      dup3\n        /* \"#utility.yul\":16176:16191   */\n      add\n        /* \"#utility.yul\":16169:16199   */\n      mstore\n        /* \"#utility.yul\":15984:16206   */\n      pop\n      jump\t// out\n        /* \"#utility.yul\":16212:16393   */\n    tag_466:\n        /* \"#utility.yul\":16352:16385   */\n      0x496e636f72726563742077656920616d6f756e74207375626d69747465642100\n        /* \"#utility.yul\":16348:16349   */\n      0x00\n        /* \"#utility.yul\":16340:16346   */\n      dup3\n        /* \"#utility.yul\":16336:16350   */\n      add\n        /* \"#utility.yul\":16329:16386   */\n      mstore\n        /* \"#utility.yul\":16212:16393   */\n      pop\n      jump\t// out\n        /* \"#utility.yul\":16399:16619   */\n    tag_471:\n        /* \"#utility.yul\":16539:16573   */\n      0x43616e6e6f742073656c6c2073686172657320796f7520646f206e6f74206f77\n        /* \"#utility.yul\":16535:16536   */\n      0x00\n        /* \"#utility.yul\":16527:16533   */\n      dup3\n        /* \"#utility.yul\":16523:16537   */\n      add\n        /* \"#utility.yul\":16516:16574   */\n      mstore\n        /* \"#utility.yul\":16608:16611   */\n      0x6e00000000000000000000000000000000000000000000000000000000000000\n        /* \"#utility.yul\":16603:16605   */\n      0x20\n        /* \"#utility.yul\":16595:16601   */\n      dup3\n        /* \"#utility.yul\":16591:16606   */\n      add\n        /* \"#utility.yul\":16584:16612   */\n      mstore\n        /* \"#utility.yul\":16399:16619   */\n      pop\n      jump\t// out\n        /* \"#utility.yul\":16625:16747   */\n    tag_385:\n        /* \"#utility.yul\":16698:16722   */\n      tag_587\n        /* \"#utility.yul\":16716:16721   */\n      dup2\n        /* \"#utility.yul\":16698:16722   */\n      tag_442\n      jump\t// in\n    tag_587:\n        /* \"#utility.yul\":16691:16696   */\n      dup2\n        /* \"#utility.yul\":16688:16723   */\n      eq\n        /* \"#utility.yul\":16678:16741   */\n      tag_588\n      jumpi\n        /* \"#utility.yul\":16737:16738   */\n      0x00\n        /* \"#utility.yul\":16734:16735   */\n      dup1\n        /* \"#utility.yul\":16727:16739   */\n      revert\n        /* \"#utility.yul\":16678:16741   */\n    tag_588:\n        /* \"#utility.yul\":16625:16747   */\n      pop\n      jump\t// out\n        /* \"#utility.yul\":16753:16869   */\n    tag_389:\n        /* \"#utility.yul\":16823:16844   */\n      tag_590\n        /* \"#utility.yul\":16838:16843   */\n      dup2\n        /* \"#utility.yul\":16823:16844   */\n      tag_446\n      jump\t// in\n    tag_590:\n        /* \"#utility.yul\":16816:16821   */\n      dup2\n        /* \"#utility.yul\":16813:16845   */\n      eq\n        /* \"#utility.yul\":16803:16863   */\n      tag_591\n      jumpi\n        /* \"#utility.yul\":16859:16860   */\n      0x00\n        /* \"#utility.yul\":16856:16857   */\n      dup1\n        /* \"#utility.yul\":16849:16861   */\n      revert\n        /* \"#utility.yul\":16803:16863   */\n    tag_591:\n        /* \"#utility.yul\":16753:16869   */\n      pop\n      jump\t// out\n        /* \"#utility.yul\":16875:16997   */\n    tag_399:\n        /* \"#utility.yul\":16948:16972   */\n      tag_593\n        /* \"#utility.yul\":16966:16971   */\n      dup2\n        /* \"#utility.yul\":16948:16972   */\n      tag_475\n      jump\t// in\n    tag_593:\n        /* \"#utility.yul\":16941:16946   */\n      dup2\n        /* \"#utility.yul\":16938:16973   */\n      eq\n        /* \"#utility.yul\":16928:16991   */\n      tag_594\n      jumpi\n        /* \"#utility.yul\":16987:16988   */\n      0x00\n        /* \"#utility.yul\":16984:16985   */\n      dup1\n        /* \"#utility.yul\":16977:16989   */\n      revert\n        /* \"#utility.yul\":16928:16991   */\n    tag_594:\n        /* \"#utility.yul\":16875:16997   */\n      pop\n      jump\t// out\n\n    auxdata: 0xa264697066735822122015638838876f0395aabc26dffa2982248a666bdb4fcb382c6e23501c1030ace864736f6c63430008070033\n}\n",
				"bytecode": {
					"linkReferences": {},
					"object": "6080604052600060055560646006556001600755600a60085560006009556000600f5560405162002e4138038062002e41833981810160405281019062000047919062000273565b336000806101000a81548173ffffffffffffffffffffffffffffffffffffffff021916908373ffffffffffffffffffffffffffffffffffffffff160217905550600654600d60003373ffffffffffffffffffffffffffffffffffffffff1673ffffffffffffffffffffffffffffffffffffffff168152602001908152602001600020819055508160016000019080519060200190620000e892919062000145565b50806001800190805190602001906200010392919062000145565b5060006001600201819055506000600a60006101000a81548160ff02191690836001811115620001385762000137620003f9565b5b02179055505050620004ab565b82805462000153906200038d565b90600052602060002090601f016020900481019282620001775760008555620001c3565b82601f106200019257805160ff1916838001178555620001c3565b82800160010185558215620001c3579182015b82811115620001c2578251825591602001919060010190620001a5565b5b509050620001d29190620001d6565b5090565b5b80821115620001f1576000816000905550600101620001d7565b5090565b60006200020c620002068462000321565b620002f8565b9050828152602081018484840111156200022b576200022a6200048b565b5b6200023884828562000357565b509392505050565b600082601f83011262000258576200025762000486565b5b81516200026a848260208601620001f5565b91505092915050565b600080604083850312156200028d576200028c62000495565b5b600083015167ffffffffffffffff811115620002ae57620002ad62000490565b5b620002bc8582860162000240565b925050602083015167ffffffffffffffff811115620002e057620002df62000490565b5b620002ee8582860162000240565b9150509250929050565b60006200030462000317565b9050620003128282620003c3565b919050565b6000604051905090565b600067ffffffffffffffff8211156200033f576200033e62000457565b5b6200034a826200049a565b9050602081019050919050565b60005b83811015620003775780820151818401526020810190506200035a565b8381111562000387576000848401525b50505050565b60006002820490506001821680620003a657607f821691505b60208210811415620003bd57620003bc62000428565b5b50919050565b620003ce826200049a565b810181811067ffffffffffffffff82111715620003f057620003ef62000457565b5b80604052505050565b7f4e487b7100000000000000000000000000000000000000000000000000000000600052602160045260246000fd5b7f4e487b7100000000000000000000000000000000000000000000000000000000600052602260045260246000fd5b7f4e487b7100000000000000000000000000000000000000000000000000000000600052604160045260246000fd5b600080fd5b600080fd5b600080fd5b600080fd5b6000601f19601f8301169050919050565b61298680620004bb6000396000f3fe6080604052600436106101815760003560e01c806387caea78116100d1578063af769c641161008a578063d8124c5f11610064578063d8124c5f14610569578063d96a094a14610596578063df094409146105b2578063f80723a8146105db57610181565b8063af769c64146104ec578063b922394614610515578063cd0c58961461052c57610181565b806387caea78146103d55780638da5cb5b146104125780638eb54c6f1461043d5780639a98241614610459578063a14ba98714610484578063a9059cbb146104c357610181565b806346a865761161013e5780635ab59720116101185780635ab5972014610319578063612fb2ec146103425780637427a40c1461036d5780637ff9b596146103aa57610181565b806346a865761461029c5780634c0a6af0146102c557806359ea0173146102dc57610181565b8063162d8afb1461018657806327e235e3146101b1578063293230b8146101ee5780632cd39acc146102055780633a98ef39146102465780633be75aa314610271575b600080fd5b34801561019257600080fd5b5061019b61060a565b6040516101a891906123c0565b60405180910390f35b3480156101bd57600080fd5b506101d860048036038101906101d39190611fce565b610610565b6040516101e591906123c0565b60405180910390f35b3480156101fa57600080fd5b50610203610628565b005b34801561021157600080fd5b5061022c6004803603810190610227919061213c565b6106ad565b60405161023d9594939291906122ba565b60405180910390f35b34801561025257600080fd5b5061025b610813565b60405161026891906123c0565b60405180910390f35b34801561027d57600080fd5b50610286610819565b60405161029391906123c0565b60405180910390f35b3480156102a857600080fd5b506102c360048036038101906102be9190612068565b61081f565b005b3480156102d157600080fd5b506102da610a05565b005b3480156102e857600080fd5b5061030360048036038101906102fe9190611fce565b610afd565b604051610310919061227d565b60405180910390f35b34801561032557600080fd5b50610340600480360381019061033b9190611fce565b610b1d565b005b34801561034e57600080fd5b50610357610c0d565b60405161036491906123c0565b60405180910390f35b34801561037957600080fd5b50610394600480360381019061038f919061213c565b610c13565b6040516103a19190612247565b60405180910390f35b3480156103b657600080fd5b506103bf610c52565b6040516103cc91906123c0565b60405180910390f35b3480156103e157600080fd5b506103fc60048036038101906103f7919061203b565b610c58565b604051610409919061227d565b60405180910390f35b34801561041e57600080fd5b50610427610e9a565b6040516104349190612262565b60405180910390f35b6104576004803603810190610452919061213c565b610ebe565b005b34801561046557600080fd5b5061046e6110ae565b60405161047b91906123c0565b60405180910390f35b34801561049057600080fd5b506104ab60048036038101906104a6919061213c565b6110b4565b6040516104ba9392919061231b565b60405180910390f35b3480156104cf57600080fd5b506104ea60048036038101906104e59190611ffb565b6111fe565b005b3480156104f857600080fd5b50610513600480360381019061050e9190611fce565b611352565b005b34801561052157600080fd5b5061052a61146d565b005b34801561053857600080fd5b50610553600480360381019061054e9190611fce565b611581565b60405161056091906123c0565b60405180910390f35b34801561057557600080fd5b5061057e6115a2565b60405161058d9392919061231b565b60405180910390f35b6105b060048036038101906105ab919061213c565b6116ca565b005b3480156105be57600080fd5b506105d960048036038101906105d491906120b1565b6118bb565b005b3480156105e757600080fd5b506105f0611a59565b6040516106019594939291906122ba565b60405180910390f35b60055481565b600d6020528060005260406000206000915090505481565b60008054906101000a900473ffffffffffffffffffffffffffffffffffffffff1673ffffffffffffffffffffffffffffffffffffffff163373ffffffffffffffffffffffffffffffffffffffff161461068057600080fd5b6001600a60006101000a81548160ff021916908360018111156106a6576106a5612763565b5b0217905550565b600e6020528060005260406000206000915090508060000180546106d090612628565b80601f01602080910402602001604051908101604052809291908181526020018280546106fc90612628565b80156107495780601f1061071e57610100808354040283529160200191610749565b820191906000526020600020905b81548152906001019060200180831161072c57829003601f168201915b5050505050908060010160009054906101000a900473ffffffffffffffffffffffffffffffffffffffff169080600201805461078490612628565b80601f01602080910402602001604051908101604052809291908181526020018280546107b090612628565b80156107fd5780601f106107d2576101008083540402835291602001916107fd565b820191906000526020600020905b8154815290600101906020018083116107e057829003601f168201915b5050505050908060030154908060040154905085565b60065481565b60085481565b6040518060a00160405280610835600f54611bad565b81526020013373ffffffffffffffffffffffffffffffffffffffff16815260200182815260200160008152602001600081525060106000820151816000019080519060200190610886929190611dbd565b5060208201518160010160006101000a81548173ffffffffffffffffffffffffffffffffffffffff021916908373ffffffffffffffffffffffffffffffffffffffff16021790555060408201518160020190805190602001906108ea929190611dbd565b5060608201518160030155608082015181600401559050506000601560006101000a81548160ff0219169083600281111561092857610927612763565b5b02179055506010600e6000600f548152602001908152602001600020600082018160000190805461095890612628565b610963929190611e43565b506001820160009054906101000a900473ffffffffffffffffffffffffffffffffffffffff168160010160006101000a81548173ffffffffffffffffffffffffffffffffffffffff021916908373ffffffffffffffffffffffffffffffffffffffff16021790555060028201816002019080546109df90612628565b6109ea929190611e43565b50600382015481600301556004820154816004015590505050565b6000806002811115610a1a57610a19612763565b5b601560009054906101000a900460ff166002811115610a3c57610a3b612763565b5b14610a4657600080fd5b601060010160009054906101000a900473ffffffffffffffffffffffffffffffffffffffff1673ffffffffffffffffffffffffffffffffffffffff163373ffffffffffffffffffffffffffffffffffffffff1614610aa357600080fd5b6001601560006101000a81548160ff02191690836002811115610ac957610ac8612763565b5b02179055507fd0dc01800a369fef30d3fced5275b8b916549867622e79efca5245c479fda4ea60405160405180910390a150565b600c6020528060005260406000206000915054906101000a900460ff1681565b60005b600954811015610c09578173ffffffffffffffffffffffffffffffffffffffff16600b8281548110610b5557610b546127c1565b5b9060005260206000200160009054906101000a900473ffffffffffffffffffffffffffffffffffffffff1673ffffffffffffffffffffffffffffffffffffffff161415610bf657600b8181548110610bb057610baf6127c1565b5b9060005260206000200160006101000a81549073ffffffffffffffffffffffffffffffffffffffff021916905560096000815480929190610bf0906125fe565b91905055505b8080610c019061268b565b915050610b20565b5050565b600f5481565b600b8181548110610c2357600080fd5b906000526020600020016000915054906101000a900473ffffffffffffffffffffffffffffffffffffffff1681565b60075481565b60006001806002811115610c6f57610c6e612763565b5b601560009054906101000a900460ff166002811115610c9157610c90612763565b5b14610c9b57600080fd5b6000600c60003373ffffffffffffffffffffffffffffffffffffffff1673ffffffffffffffffffffffffffffffffffffffff16815260200190815260200160002060009054906101000a900460ff16610e59576001600c60003373ffffffffffffffffffffffffffffffffffffffff1673ffffffffffffffffffffffffffffffffffffffff16815260200190815260200160002060006101000a81548160ff021916908315150217905550610d4e611ed0565b33816000019073ffffffffffffffffffffffffffffffffffffffff16908173ffffffffffffffffffffffffffffffffffffffff1681525050848160200190151590811515815250508415610db55760176000815480929190610daf9061268b565b91905055505b8060166000601060040154815260200190815260200160002060008201518160000160006101000a81548173ffffffffffffffffffffffffffffffffffffffff021916908373ffffffffffffffffffffffffffffffffffffffff16021790555060208201518160000160146101000a81548160ff02191690831515021790555090505060106004016000815480929190610e4e9061268b565b919050555060019150505b7f55c65cf9526efdf6c2252fe9757889dbd93e10172cad0f2edb1df619c88dbf7d33604051610e889190612247565b60405180910390a18092505050919050565b60008054906101000a900473ffffffffffffffffffffffffffffffffffffffff1681565b600d60003373ffffffffffffffffffffffffffffffffffffffff1673ffffffffffffffffffffffffffffffffffffffff16815260200190815260200160002054811115610f40576040517f08c379a0000000000000000000000000000000000000000000000000000000008152600401610f37906123a0565b60405180910390fd5b60003390508073ffffffffffffffffffffffffffffffffffffffff166108fc349081150290604051600060405180830381858888f19350505050158015610f8b573d6000803e3d6000fd5b50600d60003373ffffffffffffffffffffffffffffffffffffffff1673ffffffffffffffffffffffffffffffffffffffff16815260200190815260200160002054821415610fdd57610fdc33610b1d565b5b81600d60003373ffffffffffffffffffffffffffffffffffffffff1673ffffffffffffffffffffffffffffffffffffffff168152602001908152602001600020600082825461102c919061252e565b9250508190555081600d60008060009054906101000a900473ffffffffffffffffffffffffffffffffffffffff1673ffffffffffffffffffffffffffffffffffffffff1673ffffffffffffffffffffffffffffffffffffffff16815260200190815260200160002060008282546110a3919061244d565b925050819055505050565b60095481565b600481815481106110c457600080fd5b90600052602060002090600302016000915090508060000180546110e790612628565b80601f016020809104026020016040519081016040528092919081815260200182805461111390612628565b80156111605780601f1061113557610100808354040283529160200191611160565b820191906000526020600020905b81548152906001019060200180831161114357829003601f168201915b50505050509080600101805461117590612628565b80601f01602080910402602001604051908101604052809291908181526020018280546111a190612628565b80156111ee5780601f106111c3576101008083540402835291602001916111ee565b820191906000526020600020905b8154815290600101906020018083116111d157829003601f168201915b5050505050908060020154905083565b80600d60003373ffffffffffffffffffffffffffffffffffffffff1673ffffffffffffffffffffffffffffffffffffffff16815260200190815260200160002054101561124a57600080fd5b60008054906101000a900473ffffffffffffffffffffffffffffffffffffffff1673ffffffffffffffffffffffffffffffffffffffff163373ffffffffffffffffffffffffffffffffffffffff16146112a257600080fd5b80600d60003373ffffffffffffffffffffffffffffffffffffffff1673ffffffffffffffffffffffffffffffffffffffff16815260200190815260200160002060008282546112f1919061252e565b9250508190555080600d60008473ffffffffffffffffffffffffffffffffffffffff1673ffffffffffffffffffffffffffffffffffffffff1681526020019081526020016000206000828254611347919061244d565b925050819055505050565b61135b81611d0e565b61146a576000600c60008373ffffffffffffffffffffffffffffffffffffffff1673ffffffffffffffffffffffffffffffffffffffff16815260200190815260200160002060006101000a81548160ff021916908315150217905550600b819080600181540180825580915050600190039060005260206000200160009091909190916101000a81548173ffffffffffffffffffffffffffffffffffffffff021916908373ffffffffffffffffffffffffffffffffffffffff1602179055506009600081548092919061142d9061268b565b91905055507f30040c92e8da146ac410fb6841ea0f60af3b8f3788e5e7354e48d97d018f39dd816040516114619190612247565b60405180910390a15b50565b600180600281111561148257611481612763565b5b601560009054906101000a900460ff1660028111156114a4576114a3612763565b5b146114ae57600080fd5b601060010160009054906101000a900473ffffffffffffffffffffffffffffffffffffffff1673ffffffffffffffffffffffffffffffffffffffff163373ffffffffffffffffffffffffffffffffffffffff161461150b57600080fd5b6002601560006101000a81548160ff0219169083600281111561153157611530612763565b5b02179055506017546010600301819055507fb43a401dcdbe02a8afa41feb6c651425997908d1a4b79cf505188ba1dd3fd87260106003015460405161157691906123c0565b60405180910390a150565b60008173ffffffffffffffffffffffffffffffffffffffff16319050919050565b60018060000180546115b390612628565b80601f01602080910402602001604051908101604052809291908181526020018280546115df90612628565b801561162c5780601f106116015761010080835404028352916020019161162c565b820191906000526020600020905b81548152906001019060200180831161160f57829003601f168201915b50505050509080600101805461164190612628565b80601f016020809104026020016040519081016040528092919081815260200182805461166d90612628565b80156116ba5780601f1061168f576101008083540402835291602001916116ba565b820191906000526020600020905b81548152906001019060200180831161169d57829003601f168201915b5050505050908060020154905083565b60006006546001600201546116df91906124a3565b9050600082826116ef91906124d4565b905080341415611734576040517f08c379a000000000000000000000000000000000000000000000000000000000815260040161172b90612380565b60405180910390fd5b600854831115611779576040517f08c379a000000000000000000000000000000000000000000000000000000000815260040161177090612360565b60405180910390fd5b60008054906101000a900473ffffffffffffffffffffffffffffffffffffffff1673ffffffffffffffffffffffffffffffffffffffff166108fc349081150290604051600060405180830381858888f193505050501580156117df573d6000803e3d6000fd5b5082600d60008060009054906101000a900473ffffffffffffffffffffffffffffffffffffffff1673ffffffffffffffffffffffffffffffffffffffff1673ffffffffffffffffffffffffffffffffffffffff1681526020019081526020016000206000828254611850919061252e565b9250508190555082600d60003373ffffffffffffffffffffffffffffffffffffffff1673ffffffffffffffffffffffffffffffffffffffff16815260200190815260200160002060008282546118a6919061244d565b925050819055506118b633611352565b505050565b60008054906101000a900473ffffffffffffffffffffffffffffffffffffffff1673ffffffffffffffffffffffffffffffffffffffff163373ffffffffffffffffffffffffffffffffffffffff161461191357600080fd5b600080600181111561192857611927612763565b5b600a60009054906101000a900460ff16600181111561194a57611949612763565b5b1461195457600080fd5b600060405180606001604052808681526020018581526020018481525090508260016002016000828254611988919061244d565b92505081905550600481908060018154018082558091505060019003906000526020600020906003020160009091909190915060008201518160000190805190602001906119d7929190611dbd565b5060208201518160010190805190602001906119f4929190611dbd565b50604082015181600201555050600160056000828254611a14919061244d565b925050819055507f4578fe17eaab41ae382abe3462bb0cf04bcfee4168d2aad3ce9d5d225d0e27f685604051611a4a9190612298565b60405180910390a15050505050565b6010806000018054611a6a90612628565b80601f0160208091040260200160405190810160405280929190818152602001828054611a9690612628565b8015611ae35780601f10611ab857610100808354040283529160200191611ae3565b820191906000526020600020905b815481529060010190602001808311611ac657829003601f168201915b5050505050908060010160009054906101000a900473ffffffffffffffffffffffffffffffffffffffff1690806002018054611b1e90612628565b80601f0160208091040260200160405190810160405280929190818152602001828054611b4a90612628565b8015611b975780601f10611b6c57610100808354040283529160200191611b97565b820191906000526020600020905b815481529060010190602001808311611b7a57829003601f168201915b5050505050908060030154908060040154905085565b60606000821415611bf5576040518060400160405280600181526020017f30000000000000000000000000000000000000000000000000000000000000008152509050611d09565b600082905060005b60008214611c27578080611c109061268b565b915050600a82611c2091906124a3565b9150611bfd565b60008167ffffffffffffffff811115611c4357611c426127f0565b5b6040519080825280601f01601f191660200182016040528015611c755781602001600182028036833780820191505090505b5090505b60008514611d0257600182611c8e919061252e565b9150600a85611c9d91906126d4565b6030611ca9919061244d565b60f81b818381518110611cbf57611cbe6127c1565b5b60200101907effffffffffffffffffffffffffffffffffffffffffffffffffffffffffffff1916908160001a905350600a85611cfb91906124a3565b9450611c79565b8093505050505b919050565b600080600090505b600b80549050811015611db2578273ffffffffffffffffffffffffffffffffffffffff16600b8281548110611d4e57611d4d6127c1565b5b9060005260206000200160009054906101000a900473ffffffffffffffffffffffffffffffffffffffff1673ffffffffffffffffffffffffffffffffffffffff161415611d9f576001915050611db8565b8080611daa9061268b565b915050611d16565b50600090505b919050565b828054611dc990612628565b90600052602060002090601f016020900481019282611deb5760008555611e32565b82601f10611e0457805160ff1916838001178555611e32565b82800160010185558215611e32579182015b82811115611e31578251825591602001919060010190611e16565b5b509050611e3f9190611f02565b5090565b828054611e4f90612628565b90600052602060002090601f016020900481019282611e715760008555611ebf565b82601f10611e825780548555611ebf565b82800160010185558215611ebf57600052602060002091601f016020900482015b82811115611ebe578254825591600101919060010190611ea3565b5b509050611ecc9190611f02565b5090565b6040518060400160405280600073ffffffffffffffffffffffffffffffffffffffff1681526020016000151581525090565b5b80821115611f1b576000816000905550600101611f03565b5090565b6000611f32611f2d84612400565b6123db565b905082815260208101848484011115611f4e57611f4d612824565b5b611f598482856125bc565b509392505050565b600081359050611f708161290b565b92915050565b600081359050611f8581612922565b92915050565b600082601f830112611fa057611f9f61281f565b5b8135611fb0848260208601611f1f565b91505092915050565b600081359050611fc881612939565b92915050565b600060208284031215611fe457611fe361282e565b5b6000611ff284828501611f61565b91505092915050565b600080604083850312156120125761201161282e565b5b600061202085828601611f61565b925050602061203185828601611fb9565b9150509250929050565b6000602082840312156120515761205061282e565b5b600061205f84828501611f76565b91505092915050565b60006020828403121561207e5761207d61282e565b5b600082013567ffffffffffffffff81111561209c5761209b612829565b5b6120a884828501611f8b565b91505092915050565b6000806000606084860312156120ca576120c961282e565b5b600084013567ffffffffffffffff8111156120e8576120e7612829565b5b6120f486828701611f8b565b935050602084013567ffffffffffffffff81111561211557612114612829565b5b61212186828701611f8b565b925050604061213286828701611fb9565b9150509250925092565b6000602082840312156121525761215161282e565b5b600061216084828501611fb9565b91505092915050565b61217281612574565b82525050565b61218181612562565b82525050565b61219081612586565b82525050565b60006121a182612431565b6121ab818561243c565b93506121bb8185602086016125cb565b6121c481612833565b840191505092915050565b60006121dc60238361243c565b91506121e782612844565b604082019050919050565b60006121ff601f8361243c565b915061220a82612893565b602082019050919050565b600061222260218361243c565b915061222d826128bc565b604082019050919050565b612241816125b2565b82525050565b600060208201905061225c6000830184612178565b92915050565b60006020820190506122776000830184612169565b92915050565b60006020820190506122926000830184612187565b92915050565b600060208201905081810360008301526122b28184612196565b905092915050565b600060a08201905081810360008301526122d48188612196565b90506122e36020830187612178565b81810360408301526122f58186612196565b90506123046060830185612238565b6123116080830184612238565b9695505050505050565b600060608201905081810360008301526123358186612196565b905081810360208301526123498185612196565b90506123586040830184612238565b949350505050565b60006020820190508181036000830152612379816121cf565b9050919050565b60006020820190508181036000830152612399816121f2565b9050919050565b600060208201905081810360008301526123b981612215565b9050919050565b60006020820190506123d56000830184612238565b92915050565b60006123e56123f6565b90506123f1828261265a565b919050565b6000604051905090565b600067ffffffffffffffff82111561241b5761241a6127f0565b5b61242482612833565b9050602081019050919050565b600081519050919050565b600082825260208201905092915050565b6000612458826125b2565b9150612463836125b2565b9250827fffffffffffffffffffffffffffffffffffffffffffffffffffffffffffffffff0382111561249857612497612705565b5b828201905092915050565b60006124ae826125b2565b91506124b9836125b2565b9250826124c9576124c8612734565b5b828204905092915050565b60006124df826125b2565b91506124ea836125b2565b9250817fffffffffffffffffffffffffffffffffffffffffffffffffffffffffffffffff048311821515161561252357612522612705565b5b828202905092915050565b6000612539826125b2565b9150612544836125b2565b92508282101561255757612556612705565b5b828203905092915050565b600061256d82612592565b9050919050565b600061257f82612592565b9050919050565b60008115159050919050565b600073ffffffffffffffffffffffffffffffffffffffff82169050919050565b6000819050919050565b82818337600083830152505050565b60005b838110156125e95780820151818401526020810190506125ce565b838111156125f8576000848401525b50505050565b6000612609826125b2565b9150600082141561261d5761261c612705565b5b600182039050919050565b6000600282049050600182168061264057607f821691505b6020821081141561265457612653612792565b5b50919050565b61266382612833565b810181811067ffffffffffffffff82111715612682576126816127f0565b5b80604052505050565b6000612696826125b2565b91507fffffffffffffffffffffffffffffffffffffffffffffffffffffffffffffffff8214156126c9576126c8612705565b5b600182019050919050565b60006126df826125b2565b91506126ea836125b2565b9250826126fa576126f9612734565b5b828206905092915050565b7f4e487b7100000000000000000000000000000000000000000000000000000000600052601160045260246000fd5b7f4e487b7100000000000000000000000000000000000000000000000000000000600052601260045260246000fd5b7f4e487b7100000000000000000000000000000000000000000000000000000000600052602160045260246000fd5b7f4e487b7100000000000000000000000000000000000000000000000000000000600052602260045260246000fd5b7f4e487b7100000000000000000000000000000000000000000000000000000000600052603260045260246000fd5b7f4e487b7100000000000000000000000000000000000000000000000000000000600052604160045260246000fd5b600080fd5b600080fd5b600080fd5b600080fd5b6000601f19601f8301169050919050565b7f4e756d626572206f662073686172657320657863656564656420746865206c6960008201527f6d69740000000000000000000000000000000000000000000000000000000000602082015250565b7f496e636f72726563742077656920616d6f756e74207375626d69747465642100600082015250565b7f43616e6e6f742073656c6c2073686172657320796f7520646f206e6f74206f7760008201527f6e00000000000000000000000000000000000000000000000000000000000000602082015250565b61291481612562565b811461291f57600080fd5b50565b61292b81612586565b811461293657600080fd5b50565b612942816125b2565b811461294d57600080fd5b5056fea264697066735822122015638838876f0395aabc26dffa2982248a666bdb4fcb382c6e23501c1030ace864736f6c63430008070033",
					"opcodes": "PUSH1 0x80 PUSH1 0x40 MSTORE PUSH1 0x0 PUSH1 0x5 SSTORE PUSH1 0x64 PUSH1 0x6 SSTORE PUSH1 0x1 PUSH1 0x7 SSTORE PUSH1 0xA PUSH1 0x8 SSTORE PUSH1 0x0 PUSH1 0x9 SSTORE PUSH1 0x0 PUSH1 0xF SSTORE PUSH1 0x40 MLOAD PUSH3 0x2E41 CODESIZE SUB DUP1 PUSH3 0x2E41 DUP4 CODECOPY DUP2 DUP2 ADD PUSH1 0x40 MSTORE DUP2 ADD SWAP1 PUSH3 0x47 SWAP2 SWAP1 PUSH3 0x273 JUMP JUMPDEST CALLER PUSH1 0x0 DUP1 PUSH2 0x100 EXP DUP2 SLOAD DUP2 PUSH20 0xFFFFFFFFFFFFFFFFFFFFFFFFFFFFFFFFFFFFFFFF MUL NOT AND SWAP1 DUP4 PUSH20 0xFFFFFFFFFFFFFFFFFFFFFFFFFFFFFFFFFFFFFFFF AND MUL OR SWAP1 SSTORE POP PUSH1 0x6 SLOAD PUSH1 0xD PUSH1 0x0 CALLER PUSH20 0xFFFFFFFFFFFFFFFFFFFFFFFFFFFFFFFFFFFFFFFF AND PUSH20 0xFFFFFFFFFFFFFFFFFFFFFFFFFFFFFFFFFFFFFFFF AND DUP2 MSTORE PUSH1 0x20 ADD SWAP1 DUP2 MSTORE PUSH1 0x20 ADD PUSH1 0x0 KECCAK256 DUP2 SWAP1 SSTORE POP DUP2 PUSH1 0x1 PUSH1 0x0 ADD SWAP1 DUP1 MLOAD SWAP1 PUSH1 0x20 ADD SWAP1 PUSH3 0xE8 SWAP3 SWAP2 SWAP1 PUSH3 0x145 JUMP JUMPDEST POP DUP1 PUSH1 0x1 DUP1 ADD SWAP1 DUP1 MLOAD SWAP1 PUSH1 0x20 ADD SWAP1 PUSH3 0x103 SWAP3 SWAP2 SWAP1 PUSH3 0x145 JUMP JUMPDEST POP PUSH1 0x0 PUSH1 0x1 PUSH1 0x2 ADD DUP2 SWAP1 SSTORE POP PUSH1 0x0 PUSH1 0xA PUSH1 0x0 PUSH2 0x100 EXP DUP2 SLOAD DUP2 PUSH1 0xFF MUL NOT AND SWAP1 DUP4 PUSH1 0x1 DUP2 GT ISZERO PUSH3 0x138 JUMPI PUSH3 0x137 PUSH3 0x3F9 JUMP JUMPDEST JUMPDEST MUL OR SWAP1 SSTORE POP POP POP PUSH3 0x4AB JUMP JUMPDEST DUP3 DUP1 SLOAD PUSH3 0x153 SWAP1 PUSH3 0x38D JUMP JUMPDEST SWAP1 PUSH1 0x0 MSTORE PUSH1 0x20 PUSH1 0x0 KECCAK256 SWAP1 PUSH1 0x1F ADD PUSH1 0x20 SWAP1 DIV DUP2 ADD SWAP3 DUP3 PUSH3 0x177 JUMPI PUSH1 0x0 DUP6 SSTORE PUSH3 0x1C3 JUMP JUMPDEST DUP3 PUSH1 0x1F LT PUSH3 0x192 JUMPI DUP1 MLOAD PUSH1 0xFF NOT AND DUP4 DUP1 ADD OR DUP6 SSTORE PUSH3 0x1C3 JUMP JUMPDEST DUP3 DUP1 ADD PUSH1 0x1 ADD DUP6 SSTORE DUP3 ISZERO PUSH3 0x1C3 JUMPI SWAP2 DUP3 ADD JUMPDEST DUP3 DUP2 GT ISZERO PUSH3 0x1C2 JUMPI DUP3 MLOAD DUP3 SSTORE SWAP2 PUSH1 0x20 ADD SWAP2 SWAP1 PUSH1 0x1 ADD SWAP1 PUSH3 0x1A5 JUMP JUMPDEST JUMPDEST POP SWAP1 POP PUSH3 0x1D2 SWAP2 SWAP1 PUSH3 0x1D6 JUMP JUMPDEST POP SWAP1 JUMP JUMPDEST JUMPDEST DUP1 DUP3 GT ISZERO PUSH3 0x1F1 JUMPI PUSH1 0x0 DUP2 PUSH1 0x0 SWAP1 SSTORE POP PUSH1 0x1 ADD PUSH3 0x1D7 JUMP JUMPDEST POP SWAP1 JUMP JUMPDEST PUSH1 0x0 PUSH3 0x20C PUSH3 0x206 DUP5 PUSH3 0x321 JUMP JUMPDEST PUSH3 0x2F8 JUMP JUMPDEST SWAP1 POP DUP3 DUP2 MSTORE PUSH1 0x20 DUP2 ADD DUP5 DUP5 DUP5 ADD GT ISZERO PUSH3 0x22B JUMPI PUSH3 0x22A PUSH3 0x48B JUMP JUMPDEST JUMPDEST PUSH3 0x238 DUP5 DUP3 DUP6 PUSH3 0x357 JUMP JUMPDEST POP SWAP4 SWAP3 POP POP POP JUMP JUMPDEST PUSH1 0x0 DUP3 PUSH1 0x1F DUP4 ADD SLT PUSH3 0x258 JUMPI PUSH3 0x257 PUSH3 0x486 JUMP JUMPDEST JUMPDEST DUP2 MLOAD PUSH3 0x26A DUP5 DUP3 PUSH1 0x20 DUP7 ADD PUSH3 0x1F5 JUMP JUMPDEST SWAP2 POP POP SWAP3 SWAP2 POP POP JUMP JUMPDEST PUSH1 0x0 DUP1 PUSH1 0x40 DUP4 DUP6 SUB SLT ISZERO PUSH3 0x28D JUMPI PUSH3 0x28C PUSH3 0x495 JUMP JUMPDEST JUMPDEST PUSH1 0x0 DUP4 ADD MLOAD PUSH8 0xFFFFFFFFFFFFFFFF DUP2 GT ISZERO PUSH3 0x2AE JUMPI PUSH3 0x2AD PUSH3 0x490 JUMP JUMPDEST JUMPDEST PUSH3 0x2BC DUP6 DUP3 DUP7 ADD PUSH3 0x240 JUMP JUMPDEST SWAP3 POP POP PUSH1 0x20 DUP4 ADD MLOAD PUSH8 0xFFFFFFFFFFFFFFFF DUP2 GT ISZERO PUSH3 0x2E0 JUMPI PUSH3 0x2DF PUSH3 0x490 JUMP JUMPDEST JUMPDEST PUSH3 0x2EE DUP6 DUP3 DUP7 ADD PUSH3 0x240 JUMP JUMPDEST SWAP2 POP POP SWAP3 POP SWAP3 SWAP1 POP JUMP JUMPDEST PUSH1 0x0 PUSH3 0x304 PUSH3 0x317 JUMP JUMPDEST SWAP1 POP PUSH3 0x312 DUP3 DUP3 PUSH3 0x3C3 JUMP JUMPDEST SWAP2 SWAP1 POP JUMP JUMPDEST PUSH1 0x0 PUSH1 0x40 MLOAD SWAP1 POP SWAP1 JUMP JUMPDEST PUSH1 0x0 PUSH8 0xFFFFFFFFFFFFFFFF DUP3 GT ISZERO PUSH3 0x33F JUMPI PUSH3 0x33E PUSH3 0x457 JUMP JUMPDEST JUMPDEST PUSH3 0x34A DUP3 PUSH3 0x49A JUMP JUMPDEST SWAP1 POP PUSH1 0x20 DUP2 ADD SWAP1 POP SWAP2 SWAP1 POP JUMP JUMPDEST PUSH1 0x0 JUMPDEST DUP4 DUP2 LT ISZERO PUSH3 0x377 JUMPI DUP1 DUP3 ADD MLOAD DUP2 DUP5 ADD MSTORE PUSH1 0x20 DUP2 ADD SWAP1 POP PUSH3 0x35A JUMP JUMPDEST DUP4 DUP2 GT ISZERO PUSH3 0x387 JUMPI PUSH1 0x0 DUP5 DUP5 ADD MSTORE JUMPDEST POP POP POP POP JUMP JUMPDEST PUSH1 0x0 PUSH1 0x2 DUP3 DIV SWAP1 POP PUSH1 0x1 DUP3 AND DUP1 PUSH3 0x3A6 JUMPI PUSH1 0x7F DUP3 AND SWAP2 POP JUMPDEST PUSH1 0x20 DUP3 LT DUP2 EQ ISZERO PUSH3 0x3BD JUMPI PUSH3 0x3BC PUSH3 0x428 JUMP JUMPDEST JUMPDEST POP SWAP2 SWAP1 POP JUMP JUMPDEST PUSH3 0x3CE DUP3 PUSH3 0x49A JUMP JUMPDEST DUP2 ADD DUP2 DUP2 LT PUSH8 0xFFFFFFFFFFFFFFFF DUP3 GT OR ISZERO PUSH3 0x3F0 JUMPI PUSH3 0x3EF PUSH3 0x457 JUMP JUMPDEST JUMPDEST DUP1 PUSH1 0x40 MSTORE POP POP POP JUMP JUMPDEST PUSH32 0x4E487B7100000000000000000000000000000000000000000000000000000000 PUSH1 0x0 MSTORE PUSH1 0x21 PUSH1 0x4 MSTORE PUSH1 0x24 PUSH1 0x0 REVERT JUMPDEST PUSH32 0x4E487B7100000000000000000000000000000000000000000000000000000000 PUSH1 0x0 MSTORE PUSH1 0x22 PUSH1 0x4 MSTORE PUSH1 0x24 PUSH1 0x0 REVERT JUMPDEST PUSH32 0x4E487B7100000000000000000000000000000000000000000000000000000000 PUSH1 0x0 MSTORE PUSH1 0x41 PUSH1 0x4 MSTORE PUSH1 0x24 PUSH1 0x0 REVERT JUMPDEST PUSH1 0x0 DUP1 REVERT JUMPDEST PUSH1 0x0 DUP1 REVERT JUMPDEST PUSH1 0x0 DUP1 REVERT JUMPDEST PUSH1 0x0 DUP1 REVERT JUMPDEST PUSH1 0x0 PUSH1 0x1F NOT PUSH1 0x1F DUP4 ADD AND SWAP1 POP SWAP2 SWAP1 POP JUMP JUMPDEST PUSH2 0x2986 DUP1 PUSH3 0x4BB PUSH1 0x0 CODECOPY PUSH1 0x0 RETURN INVALID PUSH1 0x80 PUSH1 0x40 MSTORE PUSH1 0x4 CALLDATASIZE LT PUSH2 0x181 JUMPI PUSH1 0x0 CALLDATALOAD PUSH1 0xE0 SHR DUP1 PUSH4 0x87CAEA78 GT PUSH2 0xD1 JUMPI DUP1 PUSH4 0xAF769C64 GT PUSH2 0x8A JUMPI DUP1 PUSH4 0xD8124C5F GT PUSH2 0x64 JUMPI DUP1 PUSH4 0xD8124C5F EQ PUSH2 0x569 JUMPI DUP1 PUSH4 0xD96A094A EQ PUSH2 0x596 JUMPI DUP1 PUSH4 0xDF094409 EQ PUSH2 0x5B2 JUMPI DUP1 PUSH4 0xF80723A8 EQ PUSH2 0x5DB JUMPI PUSH2 0x181 JUMP JUMPDEST DUP1 PUSH4 0xAF769C64 EQ PUSH2 0x4EC JUMPI DUP1 PUSH4 0xB9223946 EQ PUSH2 0x515 JUMPI DUP1 PUSH4 0xCD0C5896 EQ PUSH2 0x52C JUMPI PUSH2 0x181 JUMP JUMPDEST DUP1 PUSH4 0x87CAEA78 EQ PUSH2 0x3D5 JUMPI DUP1 PUSH4 0x8DA5CB5B EQ PUSH2 0x412 JUMPI DUP1 PUSH4 0x8EB54C6F EQ PUSH2 0x43D JUMPI DUP1 PUSH4 0x9A982416 EQ PUSH2 0x459 JUMPI DUP1 PUSH4 0xA14BA987 EQ PUSH2 0x484 JUMPI DUP1 PUSH4 0xA9059CBB EQ PUSH2 0x4C3 JUMPI PUSH2 0x181 JUMP JUMPDEST DUP1 PUSH4 0x46A86576 GT PUSH2 0x13E JUMPI DUP1 PUSH4 0x5AB59720 GT PUSH2 0x118 JUMPI DUP1 PUSH4 0x5AB59720 EQ PUSH2 0x319 JUMPI DUP1 PUSH4 0x612FB2EC EQ PUSH2 0x342 JUMPI DUP1 PUSH4 0x7427A40C EQ PUSH2 0x36D JUMPI DUP1 PUSH4 0x7FF9B596 EQ PUSH2 0x3AA JUMPI PUSH2 0x181 JUMP JUMPDEST DUP1 PUSH4 0x46A86576 EQ PUSH2 0x29C JUMPI DUP1 PUSH4 0x4C0A6AF0 EQ PUSH2 0x2C5 JUMPI DUP1 PUSH4 0x59EA0173 EQ PUSH2 0x2DC JUMPI PUSH2 0x181 JUMP JUMPDEST DUP1 PUSH4 0x162D8AFB EQ PUSH2 0x186 JUMPI DUP1 PUSH4 0x27E235E3 EQ PUSH2 0x1B1 JUMPI DUP1 PUSH4 0x293230B8 EQ PUSH2 0x1EE JUMPI DUP1 PUSH4 0x2CD39ACC EQ PUSH2 0x205 JUMPI DUP1 PUSH4 0x3A98EF39 EQ PUSH2 0x246 JUMPI DUP1 PUSH4 0x3BE75AA3 EQ PUSH2 0x271 JUMPI JUMPDEST PUSH1 0x0 DUP1 REVERT JUMPDEST CALLVALUE DUP1 ISZERO PUSH2 0x192 JUMPI PUSH1 0x0 DUP1 REVERT JUMPDEST POP PUSH2 0x19B PUSH2 0x60A JUMP JUMPDEST PUSH1 0x40 MLOAD PUSH2 0x1A8 SWAP2 SWAP1 PUSH2 0x23C0 JUMP JUMPDEST PUSH1 0x40 MLOAD DUP1 SWAP2 SUB SWAP1 RETURN JUMPDEST CALLVALUE DUP1 ISZERO PUSH2 0x1BD JUMPI PUSH1 0x0 DUP1 REVERT JUMPDEST POP PUSH2 0x1D8 PUSH1 0x4 DUP1 CALLDATASIZE SUB DUP2 ADD SWAP1 PUSH2 0x1D3 SWAP2 SWAP1 PUSH2 0x1FCE JUMP JUMPDEST PUSH2 0x610 JUMP JUMPDEST PUSH1 0x40 MLOAD PUSH2 0x1E5 SWAP2 SWAP1 PUSH2 0x23C0 JUMP JUMPDEST PUSH1 0x40 MLOAD DUP1 SWAP2 SUB SWAP1 RETURN JUMPDEST CALLVALUE DUP1 ISZERO PUSH2 0x1FA JUMPI PUSH1 0x0 DUP1 REVERT JUMPDEST POP PUSH2 0x203 PUSH2 0x628 JUMP JUMPDEST STOP JUMPDEST CALLVALUE DUP1 ISZERO PUSH2 0x211 JUMPI PUSH1 0x0 DUP1 REVERT JUMPDEST POP PUSH2 0x22C PUSH1 0x4 DUP1 CALLDATASIZE SUB DUP2 ADD SWAP1 PUSH2 0x227 SWAP2 SWAP1 PUSH2 0x213C JUMP JUMPDEST PUSH2 0x6AD JUMP JUMPDEST PUSH1 0x40 MLOAD PUSH2 0x23D SWAP6 SWAP5 SWAP4 SWAP3 SWAP2 SWAP1 PUSH2 0x22BA JUMP JUMPDEST PUSH1 0x40 MLOAD DUP1 SWAP2 SUB SWAP1 RETURN JUMPDEST CALLVALUE DUP1 ISZERO PUSH2 0x252 JUMPI PUSH1 0x0 DUP1 REVERT JUMPDEST POP PUSH2 0x25B PUSH2 0x813 JUMP JUMPDEST PUSH1 0x40 MLOAD PUSH2 0x268 SWAP2 SWAP1 PUSH2 0x23C0 JUMP JUMPDEST PUSH1 0x40 MLOAD DUP1 SWAP2 SUB SWAP1 RETURN JUMPDEST CALLVALUE DUP1 ISZERO PUSH2 0x27D JUMPI PUSH1 0x0 DUP1 REVERT JUMPDEST POP PUSH2 0x286 PUSH2 0x819 JUMP JUMPDEST PUSH1 0x40 MLOAD PUSH2 0x293 SWAP2 SWAP1 PUSH2 0x23C0 JUMP JUMPDEST PUSH1 0x40 MLOAD DUP1 SWAP2 SUB SWAP1 RETURN JUMPDEST CALLVALUE DUP1 ISZERO PUSH2 0x2A8 JUMPI PUSH1 0x0 DUP1 REVERT JUMPDEST POP PUSH2 0x2C3 PUSH1 0x4 DUP1 CALLDATASIZE SUB DUP2 ADD SWAP1 PUSH2 0x2BE SWAP2 SWAP1 PUSH2 0x2068 JUMP JUMPDEST PUSH2 0x81F JUMP JUMPDEST STOP JUMPDEST CALLVALUE DUP1 ISZERO PUSH2 0x2D1 JUMPI PUSH1 0x0 DUP1 REVERT JUMPDEST POP PUSH2 0x2DA PUSH2 0xA05 JUMP JUMPDEST STOP JUMPDEST CALLVALUE DUP1 ISZERO PUSH2 0x2E8 JUMPI PUSH1 0x0 DUP1 REVERT JUMPDEST POP PUSH2 0x303 PUSH1 0x4 DUP1 CALLDATASIZE SUB DUP2 ADD SWAP1 PUSH2 0x2FE SWAP2 SWAP1 PUSH2 0x1FCE JUMP JUMPDEST PUSH2 0xAFD JUMP JUMPDEST PUSH1 0x40 MLOAD PUSH2 0x310 SWAP2 SWAP1 PUSH2 0x227D JUMP JUMPDEST PUSH1 0x40 MLOAD DUP1 SWAP2 SUB SWAP1 RETURN JUMPDEST CALLVALUE DUP1 ISZERO PUSH2 0x325 JUMPI PUSH1 0x0 DUP1 REVERT JUMPDEST POP PUSH2 0x340 PUSH1 0x4 DUP1 CALLDATASIZE SUB DUP2 ADD SWAP1 PUSH2 0x33B SWAP2 SWAP1 PUSH2 0x1FCE JUMP JUMPDEST PUSH2 0xB1D JUMP JUMPDEST STOP JUMPDEST CALLVALUE DUP1 ISZERO PUSH2 0x34E JUMPI PUSH1 0x0 DUP1 REVERT JUMPDEST POP PUSH2 0x357 PUSH2 0xC0D JUMP JUMPDEST PUSH1 0x40 MLOAD PUSH2 0x364 SWAP2 SWAP1 PUSH2 0x23C0 JUMP JUMPDEST PUSH1 0x40 MLOAD DUP1 SWAP2 SUB SWAP1 RETURN JUMPDEST CALLVALUE DUP1 ISZERO PUSH2 0x379 JUMPI PUSH1 0x0 DUP1 REVERT JUMPDEST POP PUSH2 0x394 PUSH1 0x4 DUP1 CALLDATASIZE SUB DUP2 ADD SWAP1 PUSH2 0x38F SWAP2 SWAP1 PUSH2 0x213C JUMP JUMPDEST PUSH2 0xC13 JUMP JUMPDEST PUSH1 0x40 MLOAD PUSH2 0x3A1 SWAP2 SWAP1 PUSH2 0x2247 JUMP JUMPDEST PUSH1 0x40 MLOAD DUP1 SWAP2 SUB SWAP1 RETURN JUMPDEST CALLVALUE DUP1 ISZERO PUSH2 0x3B6 JUMPI PUSH1 0x0 DUP1 REVERT JUMPDEST POP PUSH2 0x3BF PUSH2 0xC52 JUMP JUMPDEST PUSH1 0x40 MLOAD PUSH2 0x3CC SWAP2 SWAP1 PUSH2 0x23C0 JUMP JUMPDEST PUSH1 0x40 MLOAD DUP1 SWAP2 SUB SWAP1 RETURN JUMPDEST CALLVALUE DUP1 ISZERO PUSH2 0x3E1 JUMPI PUSH1 0x0 DUP1 REVERT JUMPDEST POP PUSH2 0x3FC PUSH1 0x4 DUP1 CALLDATASIZE SUB DUP2 ADD SWAP1 PUSH2 0x3F7 SWAP2 SWAP1 PUSH2 0x203B JUMP JUMPDEST PUSH2 0xC58 JUMP JUMPDEST PUSH1 0x40 MLOAD PUSH2 0x409 SWAP2 SWAP1 PUSH2 0x227D JUMP JUMPDEST PUSH1 0x40 MLOAD DUP1 SWAP2 SUB SWAP1 RETURN JUMPDEST CALLVALUE DUP1 ISZERO PUSH2 0x41E JUMPI PUSH1 0x0 DUP1 REVERT JUMPDEST POP PUSH2 0x427 PUSH2 0xE9A JUMP JUMPDEST PUSH1 0x40 MLOAD PUSH2 0x434 SWAP2 SWAP1 PUSH2 0x2262 JUMP JUMPDEST PUSH1 0x40 MLOAD DUP1 SWAP2 SUB SWAP1 RETURN JUMPDEST PUSH2 0x457 PUSH1 0x4 DUP1 CALLDATASIZE SUB DUP2 ADD SWAP1 PUSH2 0x452 SWAP2 SWAP1 PUSH2 0x213C JUMP JUMPDEST PUSH2 0xEBE JUMP JUMPDEST STOP JUMPDEST CALLVALUE DUP1 ISZERO PUSH2 0x465 JUMPI PUSH1 0x0 DUP1 REVERT JUMPDEST POP PUSH2 0x46E PUSH2 0x10AE JUMP JUMPDEST PUSH1 0x40 MLOAD PUSH2 0x47B SWAP2 SWAP1 PUSH2 0x23C0 JUMP JUMPDEST PUSH1 0x40 MLOAD DUP1 SWAP2 SUB SWAP1 RETURN JUMPDEST CALLVALUE DUP1 ISZERO PUSH2 0x490 JUMPI PUSH1 0x0 DUP1 REVERT JUMPDEST POP PUSH2 0x4AB PUSH1 0x4 DUP1 CALLDATASIZE SUB DUP2 ADD SWAP1 PUSH2 0x4A6 SWAP2 SWAP1 PUSH2 0x213C JUMP JUMPDEST PUSH2 0x10B4 JUMP JUMPDEST PUSH1 0x40 MLOAD PUSH2 0x4BA SWAP4 SWAP3 SWAP2 SWAP1 PUSH2 0x231B JUMP JUMPDEST PUSH1 0x40 MLOAD DUP1 SWAP2 SUB SWAP1 RETURN JUMPDEST CALLVALUE DUP1 ISZERO PUSH2 0x4CF JUMPI PUSH1 0x0 DUP1 REVERT JUMPDEST POP PUSH2 0x4EA PUSH1 0x4 DUP1 CALLDATASIZE SUB DUP2 ADD SWAP1 PUSH2 0x4E5 SWAP2 SWAP1 PUSH2 0x1FFB JUMP JUMPDEST PUSH2 0x11FE JUMP JUMPDEST STOP JUMPDEST CALLVALUE DUP1 ISZERO PUSH2 0x4F8 JUMPI PUSH1 0x0 DUP1 REVERT JUMPDEST POP PUSH2 0x513 PUSH1 0x4 DUP1 CALLDATASIZE SUB DUP2 ADD SWAP1 PUSH2 0x50E SWAP2 SWAP1 PUSH2 0x1FCE JUMP JUMPDEST PUSH2 0x1352 JUMP JUMPDEST STOP JUMPDEST CALLVALUE DUP1 ISZERO PUSH2 0x521 JUMPI PUSH1 0x0 DUP1 REVERT JUMPDEST POP PUSH2 0x52A PUSH2 0x146D JUMP JUMPDEST STOP JUMPDEST CALLVALUE DUP1 ISZERO PUSH2 0x538 JUMPI PUSH1 0x0 DUP1 REVERT JUMPDEST POP PUSH2 0x553 PUSH1 0x4 DUP1 CALLDATASIZE SUB DUP2 ADD SWAP1 PUSH2 0x54E SWAP2 SWAP1 PUSH2 0x1FCE JUMP JUMPDEST PUSH2 0x1581 JUMP JUMPDEST PUSH1 0x40 MLOAD PUSH2 0x560 SWAP2 SWAP1 PUSH2 0x23C0 JUMP JUMPDEST PUSH1 0x40 MLOAD DUP1 SWAP2 SUB SWAP1 RETURN JUMPDEST CALLVALUE DUP1 ISZERO PUSH2 0x575 JUMPI PUSH1 0x0 DUP1 REVERT JUMPDEST POP PUSH2 0x57E PUSH2 0x15A2 JUMP JUMPDEST PUSH1 0x40 MLOAD PUSH2 0x58D SWAP4 SWAP3 SWAP2 SWAP1 PUSH2 0x231B JUMP JUMPDEST PUSH1 0x40 MLOAD DUP1 SWAP2 SUB SWAP1 RETURN JUMPDEST PUSH2 0x5B0 PUSH1 0x4 DUP1 CALLDATASIZE SUB DUP2 ADD SWAP1 PUSH2 0x5AB SWAP2 SWAP1 PUSH2 0x213C JUMP JUMPDEST PUSH2 0x16CA JUMP JUMPDEST STOP JUMPDEST CALLVALUE DUP1 ISZERO PUSH2 0x5BE JUMPI PUSH1 0x0 DUP1 REVERT JUMPDEST POP PUSH2 0x5D9 PUSH1 0x4 DUP1 CALLDATASIZE SUB DUP2 ADD SWAP1 PUSH2 0x5D4 SWAP2 SWAP1 PUSH2 0x20B1 JUMP JUMPDEST PUSH2 0x18BB JUMP JUMPDEST STOP JUMPDEST CALLVALUE DUP1 ISZERO PUSH2 0x5E7 JUMPI PUSH1 0x0 DUP1 REVERT JUMPDEST POP PUSH2 0x5F0 PUSH2 0x1A59 JUMP JUMPDEST PUSH1 0x40 MLOAD PUSH2 0x601 SWAP6 SWAP5 SWAP4 SWAP3 SWAP2 SWAP1 PUSH2 0x22BA JUMP JUMPDEST PUSH1 0x40 MLOAD DUP1 SWAP2 SUB SWAP1 RETURN JUMPDEST PUSH1 0x5 SLOAD DUP2 JUMP JUMPDEST PUSH1 0xD PUSH1 0x20 MSTORE DUP1 PUSH1 0x0 MSTORE PUSH1 0x40 PUSH1 0x0 KECCAK256 PUSH1 0x0 SWAP2 POP SWAP1 POP SLOAD DUP2 JUMP JUMPDEST PUSH1 0x0 DUP1 SLOAD SWAP1 PUSH2 0x100 EXP SWAP1 DIV PUSH20 0xFFFFFFFFFFFFFFFFFFFFFFFFFFFFFFFFFFFFFFFF AND PUSH20 0xFFFFFFFFFFFFFFFFFFFFFFFFFFFFFFFFFFFFFFFF AND CALLER PUSH20 0xFFFFFFFFFFFFFFFFFFFFFFFFFFFFFFFFFFFFFFFF AND EQ PUSH2 0x680 JUMPI PUSH1 0x0 DUP1 REVERT JUMPDEST PUSH1 0x1 PUSH1 0xA PUSH1 0x0 PUSH2 0x100 EXP DUP2 SLOAD DUP2 PUSH1 0xFF MUL NOT AND SWAP1 DUP4 PUSH1 0x1 DUP2 GT ISZERO PUSH2 0x6A6 JUMPI PUSH2 0x6A5 PUSH2 0x2763 JUMP JUMPDEST JUMPDEST MUL OR SWAP1 SSTORE POP JUMP JUMPDEST PUSH1 0xE PUSH1 0x20 MSTORE DUP1 PUSH1 0x0 MSTORE PUSH1 0x40 PUSH1 0x0 KECCAK256 PUSH1 0x0 SWAP2 POP SWAP1 POP DUP1 PUSH1 0x0 ADD DUP1 SLOAD PUSH2 0x6D0 SWAP1 PUSH2 0x2628 JUMP JUMPDEST DUP1 PUSH1 0x1F ADD PUSH1 0x20 DUP1 SWAP2 DIV MUL PUSH1 0x20 ADD PUSH1 0x40 MLOAD SWAP1 DUP2 ADD PUSH1 0x40 MSTORE DUP1 SWAP3 SWAP2 SWAP1 DUP2 DUP2 MSTORE PUSH1 0x20 ADD DUP3 DUP1 SLOAD PUSH2 0x6FC SWAP1 PUSH2 0x2628 JUMP JUMPDEST DUP1 ISZERO PUSH2 0x749 JUMPI DUP1 PUSH1 0x1F LT PUSH2 0x71E JUMPI PUSH2 0x100 DUP1 DUP4 SLOAD DIV MUL DUP4 MSTORE SWAP2 PUSH1 0x20 ADD SWAP2 PUSH2 0x749 JUMP JUMPDEST DUP3 ADD SWAP2 SWAP1 PUSH1 0x0 MSTORE PUSH1 0x20 PUSH1 0x0 KECCAK256 SWAP1 JUMPDEST DUP2 SLOAD DUP2 MSTORE SWAP1 PUSH1 0x1 ADD SWAP1 PUSH1 0x20 ADD DUP1 DUP4 GT PUSH2 0x72C JUMPI DUP3 SWAP1 SUB PUSH1 0x1F AND DUP3 ADD SWAP2 JUMPDEST POP POP POP POP POP SWAP1 DUP1 PUSH1 0x1 ADD PUSH1 0x0 SWAP1 SLOAD SWAP1 PUSH2 0x100 EXP SWAP1 DIV PUSH20 0xFFFFFFFFFFFFFFFFFFFFFFFFFFFFFFFFFFFFFFFF AND SWAP1 DUP1 PUSH1 0x2 ADD DUP1 SLOAD PUSH2 0x784 SWAP1 PUSH2 0x2628 JUMP JUMPDEST DUP1 PUSH1 0x1F ADD PUSH1 0x20 DUP1 SWAP2 DIV MUL PUSH1 0x20 ADD PUSH1 0x40 MLOAD SWAP1 DUP2 ADD PUSH1 0x40 MSTORE DUP1 SWAP3 SWAP2 SWAP1 DUP2 DUP2 MSTORE PUSH1 0x20 ADD DUP3 DUP1 SLOAD PUSH2 0x7B0 SWAP1 PUSH2 0x2628 JUMP JUMPDEST DUP1 ISZERO PUSH2 0x7FD JUMPI DUP1 PUSH1 0x1F LT PUSH2 0x7D2 JUMPI PUSH2 0x100 DUP1 DUP4 SLOAD DIV MUL DUP4 MSTORE SWAP2 PUSH1 0x20 ADD SWAP2 PUSH2 0x7FD JUMP JUMPDEST DUP3 ADD SWAP2 SWAP1 PUSH1 0x0 MSTORE PUSH1 0x20 PUSH1 0x0 KECCAK256 SWAP1 JUMPDEST DUP2 SLOAD DUP2 MSTORE SWAP1 PUSH1 0x1 ADD SWAP1 PUSH1 0x20 ADD DUP1 DUP4 GT PUSH2 0x7E0 JUMPI DUP3 SWAP1 SUB PUSH1 0x1F AND DUP3 ADD SWAP2 JUMPDEST POP POP POP POP POP SWAP1 DUP1 PUSH1 0x3 ADD SLOAD SWAP1 DUP1 PUSH1 0x4 ADD SLOAD SWAP1 POP DUP6 JUMP JUMPDEST PUSH1 0x6 SLOAD DUP2 JUMP JUMPDEST PUSH1 0x8 SLOAD DUP2 JUMP JUMPDEST PUSH1 0x40 MLOAD DUP1 PUSH1 0xA0 ADD PUSH1 0x40 MSTORE DUP1 PUSH2 0x835 PUSH1 0xF SLOAD PUSH2 0x1BAD JUMP JUMPDEST DUP2 MSTORE PUSH1 0x20 ADD CALLER PUSH20 0xFFFFFFFFFFFFFFFFFFFFFFFFFFFFFFFFFFFFFFFF AND DUP2 MSTORE PUSH1 0x20 ADD DUP3 DUP2 MSTORE PUSH1 0x20 ADD PUSH1 0x0 DUP2 MSTORE PUSH1 0x20 ADD PUSH1 0x0 DUP2 MSTORE POP PUSH1 0x10 PUSH1 0x0 DUP3 ADD MLOAD DUP2 PUSH1 0x0 ADD SWAP1 DUP1 MLOAD SWAP1 PUSH1 0x20 ADD SWAP1 PUSH2 0x886 SWAP3 SWAP2 SWAP1 PUSH2 0x1DBD JUMP JUMPDEST POP PUSH1 0x20 DUP3 ADD MLOAD DUP2 PUSH1 0x1 ADD PUSH1 0x0 PUSH2 0x100 EXP DUP2 SLOAD DUP2 PUSH20 0xFFFFFFFFFFFFFFFFFFFFFFFFFFFFFFFFFFFFFFFF MUL NOT AND SWAP1 DUP4 PUSH20 0xFFFFFFFFFFFFFFFFFFFFFFFFFFFFFFFFFFFFFFFF AND MUL OR SWAP1 SSTORE POP PUSH1 0x40 DUP3 ADD MLOAD DUP2 PUSH1 0x2 ADD SWAP1 DUP1 MLOAD SWAP1 PUSH1 0x20 ADD SWAP1 PUSH2 0x8EA SWAP3 SWAP2 SWAP1 PUSH2 0x1DBD JUMP JUMPDEST POP PUSH1 0x60 DUP3 ADD MLOAD DUP2 PUSH1 0x3 ADD SSTORE PUSH1 0x80 DUP3 ADD MLOAD DUP2 PUSH1 0x4 ADD SSTORE SWAP1 POP POP PUSH1 0x0 PUSH1 0x15 PUSH1 0x0 PUSH2 0x100 EXP DUP2 SLOAD DUP2 PUSH1 0xFF MUL NOT AND SWAP1 DUP4 PUSH1 0x2 DUP2 GT ISZERO PUSH2 0x928 JUMPI PUSH2 0x927 PUSH2 0x2763 JUMP JUMPDEST JUMPDEST MUL OR SWAP1 SSTORE POP PUSH1 0x10 PUSH1 0xE PUSH1 0x0 PUSH1 0xF SLOAD DUP2 MSTORE PUSH1 0x20 ADD SWAP1 DUP2 MSTORE PUSH1 0x20 ADD PUSH1 0x0 KECCAK256 PUSH1 0x0 DUP3 ADD DUP2 PUSH1 0x0 ADD SWAP1 DUP1 SLOAD PUSH2 0x958 SWAP1 PUSH2 0x2628 JUMP JUMPDEST PUSH2 0x963 SWAP3 SWAP2 SWAP1 PUSH2 0x1E43 JUMP JUMPDEST POP PUSH1 0x1 DUP3 ADD PUSH1 0x0 SWAP1 SLOAD SWAP1 PUSH2 0x100 EXP SWAP1 DIV PUSH20 0xFFFFFFFFFFFFFFFFFFFFFFFFFFFFFFFFFFFFFFFF AND DUP2 PUSH1 0x1 ADD PUSH1 0x0 PUSH2 0x100 EXP DUP2 SLOAD DUP2 PUSH20 0xFFFFFFFFFFFFFFFFFFFFFFFFFFFFFFFFFFFFFFFF MUL NOT AND SWAP1 DUP4 PUSH20 0xFFFFFFFFFFFFFFFFFFFFFFFFFFFFFFFFFFFFFFFF AND MUL OR SWAP1 SSTORE POP PUSH1 0x2 DUP3 ADD DUP2 PUSH1 0x2 ADD SWAP1 DUP1 SLOAD PUSH2 0x9DF SWAP1 PUSH2 0x2628 JUMP JUMPDEST PUSH2 0x9EA SWAP3 SWAP2 SWAP1 PUSH2 0x1E43 JUMP JUMPDEST POP PUSH1 0x3 DUP3 ADD SLOAD DUP2 PUSH1 0x3 ADD SSTORE PUSH1 0x4 DUP3 ADD SLOAD DUP2 PUSH1 0x4 ADD SSTORE SWAP1 POP POP POP JUMP JUMPDEST PUSH1 0x0 DUP1 PUSH1 0x2 DUP2 GT ISZERO PUSH2 0xA1A JUMPI PUSH2 0xA19 PUSH2 0x2763 JUMP JUMPDEST JUMPDEST PUSH1 0x15 PUSH1 0x0 SWAP1 SLOAD SWAP1 PUSH2 0x100 EXP SWAP1 DIV PUSH1 0xFF AND PUSH1 0x2 DUP2 GT ISZERO PUSH2 0xA3C JUMPI PUSH2 0xA3B PUSH2 0x2763 JUMP JUMPDEST JUMPDEST EQ PUSH2 0xA46 JUMPI PUSH1 0x0 DUP1 REVERT JUMPDEST PUSH1 0x10 PUSH1 0x1 ADD PUSH1 0x0 SWAP1 SLOAD SWAP1 PUSH2 0x100 EXP SWAP1 DIV PUSH20 0xFFFFFFFFFFFFFFFFFFFFFFFFFFFFFFFFFFFFFFFF AND PUSH20 0xFFFFFFFFFFFFFFFFFFFFFFFFFFFFFFFFFFFFFFFF AND CALLER PUSH20 0xFFFFFFFFFFFFFFFFFFFFFFFFFFFFFFFFFFFFFFFF AND EQ PUSH2 0xAA3 JUMPI PUSH1 0x0 DUP1 REVERT JUMPDEST PUSH1 0x1 PUSH1 0x15 PUSH1 0x0 PUSH2 0x100 EXP DUP2 SLOAD DUP2 PUSH1 0xFF MUL NOT AND SWAP1 DUP4 PUSH1 0x2 DUP2 GT ISZERO PUSH2 0xAC9 JUMPI PUSH2 0xAC8 PUSH2 0x2763 JUMP JUMPDEST JUMPDEST MUL OR SWAP1 SSTORE POP PUSH32 0xD0DC01800A369FEF30D3FCED5275B8B916549867622E79EFCA5245C479FDA4EA PUSH1 0x40 MLOAD PUSH1 0x40 MLOAD DUP1 SWAP2 SUB SWAP1 LOG1 POP JUMP JUMPDEST PUSH1 0xC PUSH1 0x20 MSTORE DUP1 PUSH1 0x0 MSTORE PUSH1 0x40 PUSH1 0x0 KECCAK256 PUSH1 0x0 SWAP2 POP SLOAD SWAP1 PUSH2 0x100 EXP SWAP1 DIV PUSH1 0xFF AND DUP2 JUMP JUMPDEST PUSH1 0x0 JUMPDEST PUSH1 0x9 SLOAD DUP2 LT ISZERO PUSH2 0xC09 JUMPI DUP2 PUSH20 0xFFFFFFFFFFFFFFFFFFFFFFFFFFFFFFFFFFFFFFFF AND PUSH1 0xB DUP3 DUP2 SLOAD DUP2 LT PUSH2 0xB55 JUMPI PUSH2 0xB54 PUSH2 0x27C1 JUMP JUMPDEST JUMPDEST SWAP1 PUSH1 0x0 MSTORE PUSH1 0x20 PUSH1 0x0 KECCAK256 ADD PUSH1 0x0 SWAP1 SLOAD SWAP1 PUSH2 0x100 EXP SWAP1 DIV PUSH20 0xFFFFFFFFFFFFFFFFFFFFFFFFFFFFFFFFFFFFFFFF AND PUSH20 0xFFFFFFFFFFFFFFFFFFFFFFFFFFFFFFFFFFFFFFFF AND EQ ISZERO PUSH2 0xBF6 JUMPI PUSH1 0xB DUP2 DUP2 SLOAD DUP2 LT PUSH2 0xBB0 JUMPI PUSH2 0xBAF PUSH2 0x27C1 JUMP JUMPDEST JUMPDEST SWAP1 PUSH1 0x0 MSTORE PUSH1 0x20 PUSH1 0x0 KECCAK256 ADD PUSH1 0x0 PUSH2 0x100 EXP DUP2 SLOAD SWAP1 PUSH20 0xFFFFFFFFFFFFFFFFFFFFFFFFFFFFFFFFFFFFFFFF MUL NOT AND SWAP1 SSTORE PUSH1 0x9 PUSH1 0x0 DUP2 SLOAD DUP1 SWAP3 SWAP2 SWAP1 PUSH2 0xBF0 SWAP1 PUSH2 0x25FE JUMP JUMPDEST SWAP2 SWAP1 POP SSTORE POP JUMPDEST DUP1 DUP1 PUSH2 0xC01 SWAP1 PUSH2 0x268B JUMP JUMPDEST SWAP2 POP POP PUSH2 0xB20 JUMP JUMPDEST POP POP JUMP JUMPDEST PUSH1 0xF SLOAD DUP2 JUMP JUMPDEST PUSH1 0xB DUP2 DUP2 SLOAD DUP2 LT PUSH2 0xC23 JUMPI PUSH1 0x0 DUP1 REVERT JUMPDEST SWAP1 PUSH1 0x0 MSTORE PUSH1 0x20 PUSH1 0x0 KECCAK256 ADD PUSH1 0x0 SWAP2 POP SLOAD SWAP1 PUSH2 0x100 EXP SWAP1 DIV PUSH20 0xFFFFFFFFFFFFFFFFFFFFFFFFFFFFFFFFFFFFFFFF AND DUP2 JUMP JUMPDEST PUSH1 0x7 SLOAD DUP2 JUMP JUMPDEST PUSH1 0x0 PUSH1 0x1 DUP1 PUSH1 0x2 DUP2 GT ISZERO PUSH2 0xC6F JUMPI PUSH2 0xC6E PUSH2 0x2763 JUMP JUMPDEST JUMPDEST PUSH1 0x15 PUSH1 0x0 SWAP1 SLOAD SWAP1 PUSH2 0x100 EXP SWAP1 DIV PUSH1 0xFF AND PUSH1 0x2 DUP2 GT ISZERO PUSH2 0xC91 JUMPI PUSH2 0xC90 PUSH2 0x2763 JUMP JUMPDEST JUMPDEST EQ PUSH2 0xC9B JUMPI PUSH1 0x0 DUP1 REVERT JUMPDEST PUSH1 0x0 PUSH1 0xC PUSH1 0x0 CALLER PUSH20 0xFFFFFFFFFFFFFFFFFFFFFFFFFFFFFFFFFFFFFFFF AND PUSH20 0xFFFFFFFFFFFFFFFFFFFFFFFFFFFFFFFFFFFFFFFF AND DUP2 MSTORE PUSH1 0x20 ADD SWAP1 DUP2 MSTORE PUSH1 0x20 ADD PUSH1 0x0 KECCAK256 PUSH1 0x0 SWAP1 SLOAD SWAP1 PUSH2 0x100 EXP SWAP1 DIV PUSH1 0xFF AND PUSH2 0xE59 JUMPI PUSH1 0x1 PUSH1 0xC PUSH1 0x0 CALLER PUSH20 0xFFFFFFFFFFFFFFFFFFFFFFFFFFFFFFFFFFFFFFFF AND PUSH20 0xFFFFFFFFFFFFFFFFFFFFFFFFFFFFFFFFFFFFFFFF AND DUP2 MSTORE PUSH1 0x20 ADD SWAP1 DUP2 MSTORE PUSH1 0x20 ADD PUSH1 0x0 KECCAK256 PUSH1 0x0 PUSH2 0x100 EXP DUP2 SLOAD DUP2 PUSH1 0xFF MUL NOT AND SWAP1 DUP4 ISZERO ISZERO MUL OR SWAP1 SSTORE POP PUSH2 0xD4E PUSH2 0x1ED0 JUMP JUMPDEST CALLER DUP2 PUSH1 0x0 ADD SWAP1 PUSH20 0xFFFFFFFFFFFFFFFFFFFFFFFFFFFFFFFFFFFFFFFF AND SWAP1 DUP2 PUSH20 0xFFFFFFFFFFFFFFFFFFFFFFFFFFFFFFFFFFFFFFFF AND DUP2 MSTORE POP POP DUP5 DUP2 PUSH1 0x20 ADD SWAP1 ISZERO ISZERO SWAP1 DUP2 ISZERO ISZERO DUP2 MSTORE POP POP DUP5 ISZERO PUSH2 0xDB5 JUMPI PUSH1 0x17 PUSH1 0x0 DUP2 SLOAD DUP1 SWAP3 SWAP2 SWAP1 PUSH2 0xDAF SWAP1 PUSH2 0x268B JUMP JUMPDEST SWAP2 SWAP1 POP SSTORE POP JUMPDEST DUP1 PUSH1 0x16 PUSH1 0x0 PUSH1 0x10 PUSH1 0x4 ADD SLOAD DUP2 MSTORE PUSH1 0x20 ADD SWAP1 DUP2 MSTORE PUSH1 0x20 ADD PUSH1 0x0 KECCAK256 PUSH1 0x0 DUP3 ADD MLOAD DUP2 PUSH1 0x0 ADD PUSH1 0x0 PUSH2 0x100 EXP DUP2 SLOAD DUP2 PUSH20 0xFFFFFFFFFFFFFFFFFFFFFFFFFFFFFFFFFFFFFFFF MUL NOT AND SWAP1 DUP4 PUSH20 0xFFFFFFFFFFFFFFFFFFFFFFFFFFFFFFFFFFFFFFFF AND MUL OR SWAP1 SSTORE POP PUSH1 0x20 DUP3 ADD MLOAD DUP2 PUSH1 0x0 ADD PUSH1 0x14 PUSH2 0x100 EXP DUP2 SLOAD DUP2 PUSH1 0xFF MUL NOT AND SWAP1 DUP4 ISZERO ISZERO MUL OR SWAP1 SSTORE POP SWAP1 POP POP PUSH1 0x10 PUSH1 0x4 ADD PUSH1 0x0 DUP2 SLOAD DUP1 SWAP3 SWAP2 SWAP1 PUSH2 0xE4E SWAP1 PUSH2 0x268B JUMP JUMPDEST SWAP2 SWAP1 POP SSTORE POP PUSH1 0x1 SWAP2 POP POP JUMPDEST PUSH32 0x55C65CF9526EFDF6C2252FE9757889DBD93E10172CAD0F2EDB1DF619C88DBF7D CALLER PUSH1 0x40 MLOAD PUSH2 0xE88 SWAP2 SWAP1 PUSH2 0x2247 JUMP JUMPDEST PUSH1 0x40 MLOAD DUP1 SWAP2 SUB SWAP1 LOG1 DUP1 SWAP3 POP POP POP SWAP2 SWAP1 POP JUMP JUMPDEST PUSH1 0x0 DUP1 SLOAD SWAP1 PUSH2 0x100 EXP SWAP1 DIV PUSH20 0xFFFFFFFFFFFFFFFFFFFFFFFFFFFFFFFFFFFFFFFF AND DUP2 JUMP JUMPDEST PUSH1 0xD PUSH1 0x0 CALLER PUSH20 0xFFFFFFFFFFFFFFFFFFFFFFFFFFFFFFFFFFFFFFFF AND PUSH20 0xFFFFFFFFFFFFFFFFFFFFFFFFFFFFFFFFFFFFFFFF AND DUP2 MSTORE PUSH1 0x20 ADD SWAP1 DUP2 MSTORE PUSH1 0x20 ADD PUSH1 0x0 KECCAK256 SLOAD DUP2 GT ISZERO PUSH2 0xF40 JUMPI PUSH1 0x40 MLOAD PUSH32 0x8C379A000000000000000000000000000000000000000000000000000000000 DUP2 MSTORE PUSH1 0x4 ADD PUSH2 0xF37 SWAP1 PUSH2 0x23A0 JUMP JUMPDEST PUSH1 0x40 MLOAD DUP1 SWAP2 SUB SWAP1 REVERT JUMPDEST PUSH1 0x0 CALLER SWAP1 POP DUP1 PUSH20 0xFFFFFFFFFFFFFFFFFFFFFFFFFFFFFFFFFFFFFFFF AND PUSH2 0x8FC CALLVALUE SWAP1 DUP2 ISZERO MUL SWAP1 PUSH1 0x40 MLOAD PUSH1 0x0 PUSH1 0x40 MLOAD DUP1 DUP4 SUB DUP2 DUP6 DUP9 DUP9 CALL SWAP4 POP POP POP POP ISZERO DUP1 ISZERO PUSH2 0xF8B JUMPI RETURNDATASIZE PUSH1 0x0 DUP1 RETURNDATACOPY RETURNDATASIZE PUSH1 0x0 REVERT JUMPDEST POP PUSH1 0xD PUSH1 0x0 CALLER PUSH20 0xFFFFFFFFFFFFFFFFFFFFFFFFFFFFFFFFFFFFFFFF AND PUSH20 0xFFFFFFFFFFFFFFFFFFFFFFFFFFFFFFFFFFFFFFFF AND DUP2 MSTORE PUSH1 0x20 ADD SWAP1 DUP2 MSTORE PUSH1 0x20 ADD PUSH1 0x0 KECCAK256 SLOAD DUP3 EQ ISZERO PUSH2 0xFDD JUMPI PUSH2 0xFDC CALLER PUSH2 0xB1D JUMP JUMPDEST JUMPDEST DUP2 PUSH1 0xD PUSH1 0x0 CALLER PUSH20 0xFFFFFFFFFFFFFFFFFFFFFFFFFFFFFFFFFFFFFFFF AND PUSH20 0xFFFFFFFFFFFFFFFFFFFFFFFFFFFFFFFFFFFFFFFF AND DUP2 MSTORE PUSH1 0x20 ADD SWAP1 DUP2 MSTORE PUSH1 0x20 ADD PUSH1 0x0 KECCAK256 PUSH1 0x0 DUP3 DUP3 SLOAD PUSH2 0x102C SWAP2 SWAP1 PUSH2 0x252E JUMP JUMPDEST SWAP3 POP POP DUP2 SWAP1 SSTORE POP DUP2 PUSH1 0xD PUSH1 0x0 DUP1 PUSH1 0x0 SWAP1 SLOAD SWAP1 PUSH2 0x100 EXP SWAP1 DIV PUSH20 0xFFFFFFFFFFFFFFFFFFFFFFFFFFFFFFFFFFFFFFFF AND PUSH20 0xFFFFFFFFFFFFFFFFFFFFFFFFFFFFFFFFFFFFFFFF AND PUSH20 0xFFFFFFFFFFFFFFFFFFFFFFFFFFFFFFFFFFFFFFFF AND DUP2 MSTORE PUSH1 0x20 ADD SWAP1 DUP2 MSTORE PUSH1 0x20 ADD PUSH1 0x0 KECCAK256 PUSH1 0x0 DUP3 DUP3 SLOAD PUSH2 0x10A3 SWAP2 SWAP1 PUSH2 0x244D JUMP JUMPDEST SWAP3 POP POP DUP2 SWAP1 SSTORE POP POP POP JUMP JUMPDEST PUSH1 0x9 SLOAD DUP2 JUMP JUMPDEST PUSH1 0x4 DUP2 DUP2 SLOAD DUP2 LT PUSH2 0x10C4 JUMPI PUSH1 0x0 DUP1 REVERT JUMPDEST SWAP1 PUSH1 0x0 MSTORE PUSH1 0x20 PUSH1 0x0 KECCAK256 SWAP1 PUSH1 0x3 MUL ADD PUSH1 0x0 SWAP2 POP SWAP1 POP DUP1 PUSH1 0x0 ADD DUP1 SLOAD PUSH2 0x10E7 SWAP1 PUSH2 0x2628 JUMP JUMPDEST DUP1 PUSH1 0x1F ADD PUSH1 0x20 DUP1 SWAP2 DIV MUL PUSH1 0x20 ADD PUSH1 0x40 MLOAD SWAP1 DUP2 ADD PUSH1 0x40 MSTORE DUP1 SWAP3 SWAP2 SWAP1 DUP2 DUP2 MSTORE PUSH1 0x20 ADD DUP3 DUP1 SLOAD PUSH2 0x1113 SWAP1 PUSH2 0x2628 JUMP JUMPDEST DUP1 ISZERO PUSH2 0x1160 JUMPI DUP1 PUSH1 0x1F LT PUSH2 0x1135 JUMPI PUSH2 0x100 DUP1 DUP4 SLOAD DIV MUL DUP4 MSTORE SWAP2 PUSH1 0x20 ADD SWAP2 PUSH2 0x1160 JUMP JUMPDEST DUP3 ADD SWAP2 SWAP1 PUSH1 0x0 MSTORE PUSH1 0x20 PUSH1 0x0 KECCAK256 SWAP1 JUMPDEST DUP2 SLOAD DUP2 MSTORE SWAP1 PUSH1 0x1 ADD SWAP1 PUSH1 0x20 ADD DUP1 DUP4 GT PUSH2 0x1143 JUMPI DUP3 SWAP1 SUB PUSH1 0x1F AND DUP3 ADD SWAP2 JUMPDEST POP POP POP POP POP SWAP1 DUP1 PUSH1 0x1 ADD DUP1 SLOAD PUSH2 0x1175 SWAP1 PUSH2 0x2628 JUMP JUMPDEST DUP1 PUSH1 0x1F ADD PUSH1 0x20 DUP1 SWAP2 DIV MUL PUSH1 0x20 ADD PUSH1 0x40 MLOAD SWAP1 DUP2 ADD PUSH1 0x40 MSTORE DUP1 SWAP3 SWAP2 SWAP1 DUP2 DUP2 MSTORE PUSH1 0x20 ADD DUP3 DUP1 SLOAD PUSH2 0x11A1 SWAP1 PUSH2 0x2628 JUMP JUMPDEST DUP1 ISZERO PUSH2 0x11EE JUMPI DUP1 PUSH1 0x1F LT PUSH2 0x11C3 JUMPI PUSH2 0x100 DUP1 DUP4 SLOAD DIV MUL DUP4 MSTORE SWAP2 PUSH1 0x20 ADD SWAP2 PUSH2 0x11EE JUMP JUMPDEST DUP3 ADD SWAP2 SWAP1 PUSH1 0x0 MSTORE PUSH1 0x20 PUSH1 0x0 KECCAK256 SWAP1 JUMPDEST DUP2 SLOAD DUP2 MSTORE SWAP1 PUSH1 0x1 ADD SWAP1 PUSH1 0x20 ADD DUP1 DUP4 GT PUSH2 0x11D1 JUMPI DUP3 SWAP1 SUB PUSH1 0x1F AND DUP3 ADD SWAP2 JUMPDEST POP POP POP POP POP SWAP1 DUP1 PUSH1 0x2 ADD SLOAD SWAP1 POP DUP4 JUMP JUMPDEST DUP1 PUSH1 0xD PUSH1 0x0 CALLER PUSH20 0xFFFFFFFFFFFFFFFFFFFFFFFFFFFFFFFFFFFFFFFF AND PUSH20 0xFFFFFFFFFFFFFFFFFFFFFFFFFFFFFFFFFFFFFFFF AND DUP2 MSTORE PUSH1 0x20 ADD SWAP1 DUP2 MSTORE PUSH1 0x20 ADD PUSH1 0x0 KECCAK256 SLOAD LT ISZERO PUSH2 0x124A JUMPI PUSH1 0x0 DUP1 REVERT JUMPDEST PUSH1 0x0 DUP1 SLOAD SWAP1 PUSH2 0x100 EXP SWAP1 DIV PUSH20 0xFFFFFFFFFFFFFFFFFFFFFFFFFFFFFFFFFFFFFFFF AND PUSH20 0xFFFFFFFFFFFFFFFFFFFFFFFFFFFFFFFFFFFFFFFF AND CALLER PUSH20 0xFFFFFFFFFFFFFFFFFFFFFFFFFFFFFFFFFFFFFFFF AND EQ PUSH2 0x12A2 JUMPI PUSH1 0x0 DUP1 REVERT JUMPDEST DUP1 PUSH1 0xD PUSH1 0x0 CALLER PUSH20 0xFFFFFFFFFFFFFFFFFFFFFFFFFFFFFFFFFFFFFFFF AND PUSH20 0xFFFFFFFFFFFFFFFFFFFFFFFFFFFFFFFFFFFFFFFF AND DUP2 MSTORE PUSH1 0x20 ADD SWAP1 DUP2 MSTORE PUSH1 0x20 ADD PUSH1 0x0 KECCAK256 PUSH1 0x0 DUP3 DUP3 SLOAD PUSH2 0x12F1 SWAP2 SWAP1 PUSH2 0x252E JUMP JUMPDEST SWAP3 POP POP DUP2 SWAP1 SSTORE POP DUP1 PUSH1 0xD PUSH1 0x0 DUP5 PUSH20 0xFFFFFFFFFFFFFFFFFFFFFFFFFFFFFFFFFFFFFFFF AND PUSH20 0xFFFFFFFFFFFFFFFFFFFFFFFFFFFFFFFFFFFFFFFF AND DUP2 MSTORE PUSH1 0x20 ADD SWAP1 DUP2 MSTORE PUSH1 0x20 ADD PUSH1 0x0 KECCAK256 PUSH1 0x0 DUP3 DUP3 SLOAD PUSH2 0x1347 SWAP2 SWAP1 PUSH2 0x244D JUMP JUMPDEST SWAP3 POP POP DUP2 SWAP1 SSTORE POP POP POP JUMP JUMPDEST PUSH2 0x135B DUP2 PUSH2 0x1D0E JUMP JUMPDEST PUSH2 0x146A JUMPI PUSH1 0x0 PUSH1 0xC PUSH1 0x0 DUP4 PUSH20 0xFFFFFFFFFFFFFFFFFFFFFFFFFFFFFFFFFFFFFFFF AND PUSH20 0xFFFFFFFFFFFFFFFFFFFFFFFFFFFFFFFFFFFFFFFF AND DUP2 MSTORE PUSH1 0x20 ADD SWAP1 DUP2 MSTORE PUSH1 0x20 ADD PUSH1 0x0 KECCAK256 PUSH1 0x0 PUSH2 0x100 EXP DUP2 SLOAD DUP2 PUSH1 0xFF MUL NOT AND SWAP1 DUP4 ISZERO ISZERO MUL OR SWAP1 SSTORE POP PUSH1 0xB DUP2 SWAP1 DUP1 PUSH1 0x1 DUP2 SLOAD ADD DUP1 DUP3 SSTORE DUP1 SWAP2 POP POP PUSH1 0x1 SWAP1 SUB SWAP1 PUSH1 0x0 MSTORE PUSH1 0x20 PUSH1 0x0 KECCAK256 ADD PUSH1 0x0 SWAP1 SWAP2 SWAP1 SWAP2 SWAP1 SWAP2 PUSH2 0x100 EXP DUP2 SLOAD DUP2 PUSH20 0xFFFFFFFFFFFFFFFFFFFFFFFFFFFFFFFFFFFFFFFF MUL NOT AND SWAP1 DUP4 PUSH20 0xFFFFFFFFFFFFFFFFFFFFFFFFFFFFFFFFFFFFFFFF AND MUL OR SWAP1 SSTORE POP PUSH1 0x9 PUSH1 0x0 DUP2 SLOAD DUP1 SWAP3 SWAP2 SWAP1 PUSH2 0x142D SWAP1 PUSH2 0x268B JUMP JUMPDEST SWAP2 SWAP1 POP SSTORE POP PUSH32 0x30040C92E8DA146AC410FB6841EA0F60AF3B8F3788E5E7354E48D97D018F39DD DUP2 PUSH1 0x40 MLOAD PUSH2 0x1461 SWAP2 SWAP1 PUSH2 0x2247 JUMP JUMPDEST PUSH1 0x40 MLOAD DUP1 SWAP2 SUB SWAP1 LOG1 JUMPDEST POP JUMP JUMPDEST PUSH1 0x1 DUP1 PUSH1 0x2 DUP2 GT ISZERO PUSH2 0x1482 JUMPI PUSH2 0x1481 PUSH2 0x2763 JUMP JUMPDEST JUMPDEST PUSH1 0x15 PUSH1 0x0 SWAP1 SLOAD SWAP1 PUSH2 0x100 EXP SWAP1 DIV PUSH1 0xFF AND PUSH1 0x2 DUP2 GT ISZERO PUSH2 0x14A4 JUMPI PUSH2 0x14A3 PUSH2 0x2763 JUMP JUMPDEST JUMPDEST EQ PUSH2 0x14AE JUMPI PUSH1 0x0 DUP1 REVERT JUMPDEST PUSH1 0x10 PUSH1 0x1 ADD PUSH1 0x0 SWAP1 SLOAD SWAP1 PUSH2 0x100 EXP SWAP1 DIV PUSH20 0xFFFFFFFFFFFFFFFFFFFFFFFFFFFFFFFFFFFFFFFF AND PUSH20 0xFFFFFFFFFFFFFFFFFFFFFFFFFFFFFFFFFFFFFFFF AND CALLER PUSH20 0xFFFFFFFFFFFFFFFFFFFFFFFFFFFFFFFFFFFFFFFF AND EQ PUSH2 0x150B JUMPI PUSH1 0x0 DUP1 REVERT JUMPDEST PUSH1 0x2 PUSH1 0x15 PUSH1 0x0 PUSH2 0x100 EXP DUP2 SLOAD DUP2 PUSH1 0xFF MUL NOT AND SWAP1 DUP4 PUSH1 0x2 DUP2 GT ISZERO PUSH2 0x1531 JUMPI PUSH2 0x1530 PUSH2 0x2763 JUMP JUMPDEST JUMPDEST MUL OR SWAP1 SSTORE POP PUSH1 0x17 SLOAD PUSH1 0x10 PUSH1 0x3 ADD DUP2 SWAP1 SSTORE POP PUSH32 0xB43A401DCDBE02A8AFA41FEB6C651425997908D1A4B79CF505188BA1DD3FD872 PUSH1 0x10 PUSH1 0x3 ADD SLOAD PUSH1 0x40 MLOAD PUSH2 0x1576 SWAP2 SWAP1 PUSH2 0x23C0 JUMP JUMPDEST PUSH1 0x40 MLOAD DUP1 SWAP2 SUB SWAP1 LOG1 POP JUMP JUMPDEST PUSH1 0x0 DUP2 PUSH20 0xFFFFFFFFFFFFFFFFFFFFFFFFFFFFFFFFFFFFFFFF AND BALANCE SWAP1 POP SWAP2 SWAP1 POP JUMP JUMPDEST PUSH1 0x1 DUP1 PUSH1 0x0 ADD DUP1 SLOAD PUSH2 0x15B3 SWAP1 PUSH2 0x2628 JUMP JUMPDEST DUP1 PUSH1 0x1F ADD PUSH1 0x20 DUP1 SWAP2 DIV MUL PUSH1 0x20 ADD PUSH1 0x40 MLOAD SWAP1 DUP2 ADD PUSH1 0x40 MSTORE DUP1 SWAP3 SWAP2 SWAP1 DUP2 DUP2 MSTORE PUSH1 0x20 ADD DUP3 DUP1 SLOAD PUSH2 0x15DF SWAP1 PUSH2 0x2628 JUMP JUMPDEST DUP1 ISZERO PUSH2 0x162C JUMPI DUP1 PUSH1 0x1F LT PUSH2 0x1601 JUMPI PUSH2 0x100 DUP1 DUP4 SLOAD DIV MUL DUP4 MSTORE SWAP2 PUSH1 0x20 ADD SWAP2 PUSH2 0x162C JUMP JUMPDEST DUP3 ADD SWAP2 SWAP1 PUSH1 0x0 MSTORE PUSH1 0x20 PUSH1 0x0 KECCAK256 SWAP1 JUMPDEST DUP2 SLOAD DUP2 MSTORE SWAP1 PUSH1 0x1 ADD SWAP1 PUSH1 0x20 ADD DUP1 DUP4 GT PUSH2 0x160F JUMPI DUP3 SWAP1 SUB PUSH1 0x1F AND DUP3 ADD SWAP2 JUMPDEST POP POP POP POP POP SWAP1 DUP1 PUSH1 0x1 ADD DUP1 SLOAD PUSH2 0x1641 SWAP1 PUSH2 0x2628 JUMP JUMPDEST DUP1 PUSH1 0x1F ADD PUSH1 0x20 DUP1 SWAP2 DIV MUL PUSH1 0x20 ADD PUSH1 0x40 MLOAD SWAP1 DUP2 ADD PUSH1 0x40 MSTORE DUP1 SWAP3 SWAP2 SWAP1 DUP2 DUP2 MSTORE PUSH1 0x20 ADD DUP3 DUP1 SLOAD PUSH2 0x166D SWAP1 PUSH2 0x2628 JUMP JUMPDEST DUP1 ISZERO PUSH2 0x16BA JUMPI DUP1 PUSH1 0x1F LT PUSH2 0x168F JUMPI PUSH2 0x100 DUP1 DUP4 SLOAD DIV MUL DUP4 MSTORE SWAP2 PUSH1 0x20 ADD SWAP2 PUSH2 0x16BA JUMP JUMPDEST DUP3 ADD SWAP2 SWAP1 PUSH1 0x0 MSTORE PUSH1 0x20 PUSH1 0x0 KECCAK256 SWAP1 JUMPDEST DUP2 SLOAD DUP2 MSTORE SWAP1 PUSH1 0x1 ADD SWAP1 PUSH1 0x20 ADD DUP1 DUP4 GT PUSH2 0x169D JUMPI DUP3 SWAP1 SUB PUSH1 0x1F AND DUP3 ADD SWAP2 JUMPDEST POP POP POP POP POP SWAP1 DUP1 PUSH1 0x2 ADD SLOAD SWAP1 POP DUP4 JUMP JUMPDEST PUSH1 0x0 PUSH1 0x6 SLOAD PUSH1 0x1 PUSH1 0x2 ADD SLOAD PUSH2 0x16DF SWAP2 SWAP1 PUSH2 0x24A3 JUMP JUMPDEST SWAP1 POP PUSH1 0x0 DUP3 DUP3 PUSH2 0x16EF SWAP2 SWAP1 PUSH2 0x24D4 JUMP JUMPDEST SWAP1 POP DUP1 CALLVALUE EQ ISZERO PUSH2 0x1734 JUMPI PUSH1 0x40 MLOAD PUSH32 0x8C379A000000000000000000000000000000000000000000000000000000000 DUP2 MSTORE PUSH1 0x4 ADD PUSH2 0x172B SWAP1 PUSH2 0x2380 JUMP JUMPDEST PUSH1 0x40 MLOAD DUP1 SWAP2 SUB SWAP1 REVERT JUMPDEST PUSH1 0x8 SLOAD DUP4 GT ISZERO PUSH2 0x1779 JUMPI PUSH1 0x40 MLOAD PUSH32 0x8C379A000000000000000000000000000000000000000000000000000000000 DUP2 MSTORE PUSH1 0x4 ADD PUSH2 0x1770 SWAP1 PUSH2 0x2360 JUMP JUMPDEST PUSH1 0x40 MLOAD DUP1 SWAP2 SUB SWAP1 REVERT JUMPDEST PUSH1 0x0 DUP1 SLOAD SWAP1 PUSH2 0x100 EXP SWAP1 DIV PUSH20 0xFFFFFFFFFFFFFFFFFFFFFFFFFFFFFFFFFFFFFFFF AND PUSH20 0xFFFFFFFFFFFFFFFFFFFFFFFFFFFFFFFFFFFFFFFF AND PUSH2 0x8FC CALLVALUE SWAP1 DUP2 ISZERO MUL SWAP1 PUSH1 0x40 MLOAD PUSH1 0x0 PUSH1 0x40 MLOAD DUP1 DUP4 SUB DUP2 DUP6 DUP9 DUP9 CALL SWAP4 POP POP POP POP ISZERO DUP1 ISZERO PUSH2 0x17DF JUMPI RETURNDATASIZE PUSH1 0x0 DUP1 RETURNDATACOPY RETURNDATASIZE PUSH1 0x0 REVERT JUMPDEST POP DUP3 PUSH1 0xD PUSH1 0x0 DUP1 PUSH1 0x0 SWAP1 SLOAD SWAP1 PUSH2 0x100 EXP SWAP1 DIV PUSH20 0xFFFFFFFFFFFFFFFFFFFFFFFFFFFFFFFFFFFFFFFF AND PUSH20 0xFFFFFFFFFFFFFFFFFFFFFFFFFFFFFFFFFFFFFFFF AND PUSH20 0xFFFFFFFFFFFFFFFFFFFFFFFFFFFFFFFFFFFFFFFF AND DUP2 MSTORE PUSH1 0x20 ADD SWAP1 DUP2 MSTORE PUSH1 0x20 ADD PUSH1 0x0 KECCAK256 PUSH1 0x0 DUP3 DUP3 SLOAD PUSH2 0x1850 SWAP2 SWAP1 PUSH2 0x252E JUMP JUMPDEST SWAP3 POP POP DUP2 SWAP1 SSTORE POP DUP3 PUSH1 0xD PUSH1 0x0 CALLER PUSH20 0xFFFFFFFFFFFFFFFFFFFFFFFFFFFFFFFFFFFFFFFF AND PUSH20 0xFFFFFFFFFFFFFFFFFFFFFFFFFFFFFFFFFFFFFFFF AND DUP2 MSTORE PUSH1 0x20 ADD SWAP1 DUP2 MSTORE PUSH1 0x20 ADD PUSH1 0x0 KECCAK256 PUSH1 0x0 DUP3 DUP3 SLOAD PUSH2 0x18A6 SWAP2 SWAP1 PUSH2 0x244D JUMP JUMPDEST SWAP3 POP POP DUP2 SWAP1 SSTORE POP PUSH2 0x18B6 CALLER PUSH2 0x1352 JUMP JUMPDEST POP POP POP JUMP JUMPDEST PUSH1 0x0 DUP1 SLOAD SWAP1 PUSH2 0x100 EXP SWAP1 DIV PUSH20 0xFFFFFFFFFFFFFFFFFFFFFFFFFFFFFFFFFFFFFFFF AND PUSH20 0xFFFFFFFFFFFFFFFFFFFFFFFFFFFFFFFFFFFFFFFF AND CALLER PUSH20 0xFFFFFFFFFFFFFFFFFFFFFFFFFFFFFFFFFFFFFFFF AND EQ PUSH2 0x1913 JUMPI PUSH1 0x0 DUP1 REVERT JUMPDEST PUSH1 0x0 DUP1 PUSH1 0x1 DUP2 GT ISZERO PUSH2 0x1928 JUMPI PUSH2 0x1927 PUSH2 0x2763 JUMP JUMPDEST JUMPDEST PUSH1 0xA PUSH1 0x0 SWAP1 SLOAD SWAP1 PUSH2 0x100 EXP SWAP1 DIV PUSH1 0xFF AND PUSH1 0x1 DUP2 GT ISZERO PUSH2 0x194A JUMPI PUSH2 0x1949 PUSH2 0x2763 JUMP JUMPDEST JUMPDEST EQ PUSH2 0x1954 JUMPI PUSH1 0x0 DUP1 REVERT JUMPDEST PUSH1 0x0 PUSH1 0x40 MLOAD DUP1 PUSH1 0x60 ADD PUSH1 0x40 MSTORE DUP1 DUP7 DUP2 MSTORE PUSH1 0x20 ADD DUP6 DUP2 MSTORE PUSH1 0x20 ADD DUP5 DUP2 MSTORE POP SWAP1 POP DUP3 PUSH1 0x1 PUSH1 0x2 ADD PUSH1 0x0 DUP3 DUP3 SLOAD PUSH2 0x1988 SWAP2 SWAP1 PUSH2 0x244D JUMP JUMPDEST SWAP3 POP POP DUP2 SWAP1 SSTORE POP PUSH1 0x4 DUP2 SWAP1 DUP1 PUSH1 0x1 DUP2 SLOAD ADD DUP1 DUP3 SSTORE DUP1 SWAP2 POP POP PUSH1 0x1 SWAP1 SUB SWAP1 PUSH1 0x0 MSTORE PUSH1 0x20 PUSH1 0x0 KECCAK256 SWAP1 PUSH1 0x3 MUL ADD PUSH1 0x0 SWAP1 SWAP2 SWAP1 SWAP2 SWAP1 SWAP2 POP PUSH1 0x0 DUP3 ADD MLOAD DUP2 PUSH1 0x0 ADD SWAP1 DUP1 MLOAD SWAP1 PUSH1 0x20 ADD SWAP1 PUSH2 0x19D7 SWAP3 SWAP2 SWAP1 PUSH2 0x1DBD JUMP JUMPDEST POP PUSH1 0x20 DUP3 ADD MLOAD DUP2 PUSH1 0x1 ADD SWAP1 DUP1 MLOAD SWAP1 PUSH1 0x20 ADD SWAP1 PUSH2 0x19F4 SWAP3 SWAP2 SWAP1 PUSH2 0x1DBD JUMP JUMPDEST POP PUSH1 0x40 DUP3 ADD MLOAD DUP2 PUSH1 0x2 ADD SSTORE POP POP PUSH1 0x1 PUSH1 0x5 PUSH1 0x0 DUP3 DUP3 SLOAD PUSH2 0x1A14 SWAP2 SWAP1 PUSH2 0x244D JUMP JUMPDEST SWAP3 POP POP DUP2 SWAP1 SSTORE POP PUSH32 0x4578FE17EAAB41AE382ABE3462BB0CF04BCFEE4168D2AAD3CE9D5D225D0E27F6 DUP6 PUSH1 0x40 MLOAD PUSH2 0x1A4A SWAP2 SWAP1 PUSH2 0x2298 JUMP JUMPDEST PUSH1 0x40 MLOAD DUP1 SWAP2 SUB SWAP1 LOG1 POP POP POP POP POP JUMP JUMPDEST PUSH1 0x10 DUP1 PUSH1 0x0 ADD DUP1 SLOAD PUSH2 0x1A6A SWAP1 PUSH2 0x2628 JUMP JUMPDEST DUP1 PUSH1 0x1F ADD PUSH1 0x20 DUP1 SWAP2 DIV MUL PUSH1 0x20 ADD PUSH1 0x40 MLOAD SWAP1 DUP2 ADD PUSH1 0x40 MSTORE DUP1 SWAP3 SWAP2 SWAP1 DUP2 DUP2 MSTORE PUSH1 0x20 ADD DUP3 DUP1 SLOAD PUSH2 0x1A96 SWAP1 PUSH2 0x2628 JUMP JUMPDEST DUP1 ISZERO PUSH2 0x1AE3 JUMPI DUP1 PUSH1 0x1F LT PUSH2 0x1AB8 JUMPI PUSH2 0x100 DUP1 DUP4 SLOAD DIV MUL DUP4 MSTORE SWAP2 PUSH1 0x20 ADD SWAP2 PUSH2 0x1AE3 JUMP JUMPDEST DUP3 ADD SWAP2 SWAP1 PUSH1 0x0 MSTORE PUSH1 0x20 PUSH1 0x0 KECCAK256 SWAP1 JUMPDEST DUP2 SLOAD DUP2 MSTORE SWAP1 PUSH1 0x1 ADD SWAP1 PUSH1 0x20 ADD DUP1 DUP4 GT PUSH2 0x1AC6 JUMPI DUP3 SWAP1 SUB PUSH1 0x1F AND DUP3 ADD SWAP2 JUMPDEST POP POP POP POP POP SWAP1 DUP1 PUSH1 0x1 ADD PUSH1 0x0 SWAP1 SLOAD SWAP1 PUSH2 0x100 EXP SWAP1 DIV PUSH20 0xFFFFFFFFFFFFFFFFFFFFFFFFFFFFFFFFFFFFFFFF AND SWAP1 DUP1 PUSH1 0x2 ADD DUP1 SLOAD PUSH2 0x1B1E SWAP1 PUSH2 0x2628 JUMP JUMPDEST DUP1 PUSH1 0x1F ADD PUSH1 0x20 DUP1 SWAP2 DIV MUL PUSH1 0x20 ADD PUSH1 0x40 MLOAD SWAP1 DUP2 ADD PUSH1 0x40 MSTORE DUP1 SWAP3 SWAP2 SWAP1 DUP2 DUP2 MSTORE PUSH1 0x20 ADD DUP3 DUP1 SLOAD PUSH2 0x1B4A SWAP1 PUSH2 0x2628 JUMP JUMPDEST DUP1 ISZERO PUSH2 0x1B97 JUMPI DUP1 PUSH1 0x1F LT PUSH2 0x1B6C JUMPI PUSH2 0x100 DUP1 DUP4 SLOAD DIV MUL DUP4 MSTORE SWAP2 PUSH1 0x20 ADD SWAP2 PUSH2 0x1B97 JUMP JUMPDEST DUP3 ADD SWAP2 SWAP1 PUSH1 0x0 MSTORE PUSH1 0x20 PUSH1 0x0 KECCAK256 SWAP1 JUMPDEST DUP2 SLOAD DUP2 MSTORE SWAP1 PUSH1 0x1 ADD SWAP1 PUSH1 0x20 ADD DUP1 DUP4 GT PUSH2 0x1B7A JUMPI DUP3 SWAP1 SUB PUSH1 0x1F AND DUP3 ADD SWAP2 JUMPDEST POP POP POP POP POP SWAP1 DUP1 PUSH1 0x3 ADD SLOAD SWAP1 DUP1 PUSH1 0x4 ADD SLOAD SWAP1 POP DUP6 JUMP JUMPDEST PUSH1 0x60 PUSH1 0x0 DUP3 EQ ISZERO PUSH2 0x1BF5 JUMPI PUSH1 0x40 MLOAD DUP1 PUSH1 0x40 ADD PUSH1 0x40 MSTORE DUP1 PUSH1 0x1 DUP2 MSTORE PUSH1 0x20 ADD PUSH32 0x3000000000000000000000000000000000000000000000000000000000000000 DUP2 MSTORE POP SWAP1 POP PUSH2 0x1D09 JUMP JUMPDEST PUSH1 0x0 DUP3 SWAP1 POP PUSH1 0x0 JUMPDEST PUSH1 0x0 DUP3 EQ PUSH2 0x1C27 JUMPI DUP1 DUP1 PUSH2 0x1C10 SWAP1 PUSH2 0x268B JUMP JUMPDEST SWAP2 POP POP PUSH1 0xA DUP3 PUSH2 0x1C20 SWAP2 SWAP1 PUSH2 0x24A3 JUMP JUMPDEST SWAP2 POP PUSH2 0x1BFD JUMP JUMPDEST PUSH1 0x0 DUP2 PUSH8 0xFFFFFFFFFFFFFFFF DUP2 GT ISZERO PUSH2 0x1C43 JUMPI PUSH2 0x1C42 PUSH2 0x27F0 JUMP JUMPDEST JUMPDEST PUSH1 0x40 MLOAD SWAP1 DUP1 DUP3 MSTORE DUP1 PUSH1 0x1F ADD PUSH1 0x1F NOT AND PUSH1 0x20 ADD DUP3 ADD PUSH1 0x40 MSTORE DUP1 ISZERO PUSH2 0x1C75 JUMPI DUP2 PUSH1 0x20 ADD PUSH1 0x1 DUP3 MUL DUP1 CALLDATASIZE DUP4 CALLDATACOPY DUP1 DUP3 ADD SWAP2 POP POP SWAP1 POP JUMPDEST POP SWAP1 POP JUMPDEST PUSH1 0x0 DUP6 EQ PUSH2 0x1D02 JUMPI PUSH1 0x1 DUP3 PUSH2 0x1C8E SWAP2 SWAP1 PUSH2 0x252E JUMP JUMPDEST SWAP2 POP PUSH1 0xA DUP6 PUSH2 0x1C9D SWAP2 SWAP1 PUSH2 0x26D4 JUMP JUMPDEST PUSH1 0x30 PUSH2 0x1CA9 SWAP2 SWAP1 PUSH2 0x244D JUMP JUMPDEST PUSH1 0xF8 SHL DUP2 DUP4 DUP2 MLOAD DUP2 LT PUSH2 0x1CBF JUMPI PUSH2 0x1CBE PUSH2 0x27C1 JUMP JUMPDEST JUMPDEST PUSH1 0x20 ADD ADD SWAP1 PUSH31 0xFFFFFFFFFFFFFFFFFFFFFFFFFFFFFFFFFFFFFFFFFFFFFFFFFFFFFFFFFFFFFF NOT AND SWAP1 DUP2 PUSH1 0x0 BYTE SWAP1 MSTORE8 POP PUSH1 0xA DUP6 PUSH2 0x1CFB SWAP2 SWAP1 PUSH2 0x24A3 JUMP JUMPDEST SWAP5 POP PUSH2 0x1C79 JUMP JUMPDEST DUP1 SWAP4 POP POP POP POP JUMPDEST SWAP2 SWAP1 POP JUMP JUMPDEST PUSH1 0x0 DUP1 PUSH1 0x0 SWAP1 POP JUMPDEST PUSH1 0xB DUP1 SLOAD SWAP1 POP DUP2 LT ISZERO PUSH2 0x1DB2 JUMPI DUP3 PUSH20 0xFFFFFFFFFFFFFFFFFFFFFFFFFFFFFFFFFFFFFFFF AND PUSH1 0xB DUP3 DUP2 SLOAD DUP2 LT PUSH2 0x1D4E JUMPI PUSH2 0x1D4D PUSH2 0x27C1 JUMP JUMPDEST JUMPDEST SWAP1 PUSH1 0x0 MSTORE PUSH1 0x20 PUSH1 0x0 KECCAK256 ADD PUSH1 0x0 SWAP1 SLOAD SWAP1 PUSH2 0x100 EXP SWAP1 DIV PUSH20 0xFFFFFFFFFFFFFFFFFFFFFFFFFFFFFFFFFFFFFFFF AND PUSH20 0xFFFFFFFFFFFFFFFFFFFFFFFFFFFFFFFFFFFFFFFF AND EQ ISZERO PUSH2 0x1D9F JUMPI PUSH1 0x1 SWAP2 POP POP PUSH2 0x1DB8 JUMP JUMPDEST DUP1 DUP1 PUSH2 0x1DAA SWAP1 PUSH2 0x268B JUMP JUMPDEST SWAP2 POP POP PUSH2 0x1D16 JUMP JUMPDEST POP PUSH1 0x0 SWAP1 POP JUMPDEST SWAP2 SWAP1 POP JUMP JUMPDEST DUP3 DUP1 SLOAD PUSH2 0x1DC9 SWAP1 PUSH2 0x2628 JUMP JUMPDEST SWAP1 PUSH1 0x0 MSTORE PUSH1 0x20 PUSH1 0x0 KECCAK256 SWAP1 PUSH1 0x1F ADD PUSH1 0x20 SWAP1 DIV DUP2 ADD SWAP3 DUP3 PUSH2 0x1DEB JUMPI PUSH1 0x0 DUP6 SSTORE PUSH2 0x1E32 JUMP JUMPDEST DUP3 PUSH1 0x1F LT PUSH2 0x1E04 JUMPI DUP1 MLOAD PUSH1 0xFF NOT AND DUP4 DUP1 ADD OR DUP6 SSTORE PUSH2 0x1E32 JUMP JUMPDEST DUP3 DUP1 ADD PUSH1 0x1 ADD DUP6 SSTORE DUP3 ISZERO PUSH2 0x1E32 JUMPI SWAP2 DUP3 ADD JUMPDEST DUP3 DUP2 GT ISZERO PUSH2 0x1E31 JUMPI DUP3 MLOAD DUP3 SSTORE SWAP2 PUSH1 0x20 ADD SWAP2 SWAP1 PUSH1 0x1 ADD SWAP1 PUSH2 0x1E16 JUMP JUMPDEST JUMPDEST POP SWAP1 POP PUSH2 0x1E3F SWAP2 SWAP1 PUSH2 0x1F02 JUMP JUMPDEST POP SWAP1 JUMP JUMPDEST DUP3 DUP1 SLOAD PUSH2 0x1E4F SWAP1 PUSH2 0x2628 JUMP JUMPDEST SWAP1 PUSH1 0x0 MSTORE PUSH1 0x20 PUSH1 0x0 KECCAK256 SWAP1 PUSH1 0x1F ADD PUSH1 0x20 SWAP1 DIV DUP2 ADD SWAP3 DUP3 PUSH2 0x1E71 JUMPI PUSH1 0x0 DUP6 SSTORE PUSH2 0x1EBF JUMP JUMPDEST DUP3 PUSH1 0x1F LT PUSH2 0x1E82 JUMPI DUP1 SLOAD DUP6 SSTORE PUSH2 0x1EBF JUMP JUMPDEST DUP3 DUP1 ADD PUSH1 0x1 ADD DUP6 SSTORE DUP3 ISZERO PUSH2 0x1EBF JUMPI PUSH1 0x0 MSTORE PUSH1 0x20 PUSH1 0x0 KECCAK256 SWAP2 PUSH1 0x1F ADD PUSH1 0x20 SWAP1 DIV DUP3 ADD JUMPDEST DUP3 DUP2 GT ISZERO PUSH2 0x1EBE JUMPI DUP3 SLOAD DUP3 SSTORE SWAP2 PUSH1 0x1 ADD SWAP2 SWAP1 PUSH1 0x1 ADD SWAP1 PUSH2 0x1EA3 JUMP JUMPDEST JUMPDEST POP SWAP1 POP PUSH2 0x1ECC SWAP2 SWAP1 PUSH2 0x1F02 JUMP JUMPDEST POP SWAP1 JUMP JUMPDEST PUSH1 0x40 MLOAD DUP1 PUSH1 0x40 ADD PUSH1 0x40 MSTORE DUP1 PUSH1 0x0 PUSH20 0xFFFFFFFFFFFFFFFFFFFFFFFFFFFFFFFFFFFFFFFF AND DUP2 MSTORE PUSH1 0x20 ADD PUSH1 0x0 ISZERO ISZERO DUP2 MSTORE POP SWAP1 JUMP JUMPDEST JUMPDEST DUP1 DUP3 GT ISZERO PUSH2 0x1F1B JUMPI PUSH1 0x0 DUP2 PUSH1 0x0 SWAP1 SSTORE POP PUSH1 0x1 ADD PUSH2 0x1F03 JUMP JUMPDEST POP SWAP1 JUMP JUMPDEST PUSH1 0x0 PUSH2 0x1F32 PUSH2 0x1F2D DUP5 PUSH2 0x2400 JUMP JUMPDEST PUSH2 0x23DB JUMP JUMPDEST SWAP1 POP DUP3 DUP2 MSTORE PUSH1 0x20 DUP2 ADD DUP5 DUP5 DUP5 ADD GT ISZERO PUSH2 0x1F4E JUMPI PUSH2 0x1F4D PUSH2 0x2824 JUMP JUMPDEST JUMPDEST PUSH2 0x1F59 DUP5 DUP3 DUP6 PUSH2 0x25BC JUMP JUMPDEST POP SWAP4 SWAP3 POP POP POP JUMP JUMPDEST PUSH1 0x0 DUP2 CALLDATALOAD SWAP1 POP PUSH2 0x1F70 DUP2 PUSH2 0x290B JUMP JUMPDEST SWAP3 SWAP2 POP POP JUMP JUMPDEST PUSH1 0x0 DUP2 CALLDATALOAD SWAP1 POP PUSH2 0x1F85 DUP2 PUSH2 0x2922 JUMP JUMPDEST SWAP3 SWAP2 POP POP JUMP JUMPDEST PUSH1 0x0 DUP3 PUSH1 0x1F DUP4 ADD SLT PUSH2 0x1FA0 JUMPI PUSH2 0x1F9F PUSH2 0x281F JUMP JUMPDEST JUMPDEST DUP2 CALLDATALOAD PUSH2 0x1FB0 DUP5 DUP3 PUSH1 0x20 DUP7 ADD PUSH2 0x1F1F JUMP JUMPDEST SWAP2 POP POP SWAP3 SWAP2 POP POP JUMP JUMPDEST PUSH1 0x0 DUP2 CALLDATALOAD SWAP1 POP PUSH2 0x1FC8 DUP2 PUSH2 0x2939 JUMP JUMPDEST SWAP3 SWAP2 POP POP JUMP JUMPDEST PUSH1 0x0 PUSH1 0x20 DUP3 DUP5 SUB SLT ISZERO PUSH2 0x1FE4 JUMPI PUSH2 0x1FE3 PUSH2 0x282E JUMP JUMPDEST JUMPDEST PUSH1 0x0 PUSH2 0x1FF2 DUP5 DUP3 DUP6 ADD PUSH2 0x1F61 JUMP JUMPDEST SWAP2 POP POP SWAP3 SWAP2 POP POP JUMP JUMPDEST PUSH1 0x0 DUP1 PUSH1 0x40 DUP4 DUP6 SUB SLT ISZERO PUSH2 0x2012 JUMPI PUSH2 0x2011 PUSH2 0x282E JUMP JUMPDEST JUMPDEST PUSH1 0x0 PUSH2 0x2020 DUP6 DUP3 DUP7 ADD PUSH2 0x1F61 JUMP JUMPDEST SWAP3 POP POP PUSH1 0x20 PUSH2 0x2031 DUP6 DUP3 DUP7 ADD PUSH2 0x1FB9 JUMP JUMPDEST SWAP2 POP POP SWAP3 POP SWAP3 SWAP1 POP JUMP JUMPDEST PUSH1 0x0 PUSH1 0x20 DUP3 DUP5 SUB SLT ISZERO PUSH2 0x2051 JUMPI PUSH2 0x2050 PUSH2 0x282E JUMP JUMPDEST JUMPDEST PUSH1 0x0 PUSH2 0x205F DUP5 DUP3 DUP6 ADD PUSH2 0x1F76 JUMP JUMPDEST SWAP2 POP POP SWAP3 SWAP2 POP POP JUMP JUMPDEST PUSH1 0x0 PUSH1 0x20 DUP3 DUP5 SUB SLT ISZERO PUSH2 0x207E JUMPI PUSH2 0x207D PUSH2 0x282E JUMP JUMPDEST JUMPDEST PUSH1 0x0 DUP3 ADD CALLDATALOAD PUSH8 0xFFFFFFFFFFFFFFFF DUP2 GT ISZERO PUSH2 0x209C JUMPI PUSH2 0x209B PUSH2 0x2829 JUMP JUMPDEST JUMPDEST PUSH2 0x20A8 DUP5 DUP3 DUP6 ADD PUSH2 0x1F8B JUMP JUMPDEST SWAP2 POP POP SWAP3 SWAP2 POP POP JUMP JUMPDEST PUSH1 0x0 DUP1 PUSH1 0x0 PUSH1 0x60 DUP5 DUP7 SUB SLT ISZERO PUSH2 0x20CA JUMPI PUSH2 0x20C9 PUSH2 0x282E JUMP JUMPDEST JUMPDEST PUSH1 0x0 DUP5 ADD CALLDATALOAD PUSH8 0xFFFFFFFFFFFFFFFF DUP2 GT ISZERO PUSH2 0x20E8 JUMPI PUSH2 0x20E7 PUSH2 0x2829 JUMP JUMPDEST JUMPDEST PUSH2 0x20F4 DUP7 DUP3 DUP8 ADD PUSH2 0x1F8B JUMP JUMPDEST SWAP4 POP POP PUSH1 0x20 DUP5 ADD CALLDATALOAD PUSH8 0xFFFFFFFFFFFFFFFF DUP2 GT ISZERO PUSH2 0x2115 JUMPI PUSH2 0x2114 PUSH2 0x2829 JUMP JUMPDEST JUMPDEST PUSH2 0x2121 DUP7 DUP3 DUP8 ADD PUSH2 0x1F8B JUMP JUMPDEST SWAP3 POP POP PUSH1 0x40 PUSH2 0x2132 DUP7 DUP3 DUP8 ADD PUSH2 0x1FB9 JUMP JUMPDEST SWAP2 POP POP SWAP3 POP SWAP3 POP SWAP3 JUMP JUMPDEST PUSH1 0x0 PUSH1 0x20 DUP3 DUP5 SUB SLT ISZERO PUSH2 0x2152 JUMPI PUSH2 0x2151 PUSH2 0x282E JUMP JUMPDEST JUMPDEST PUSH1 0x0 PUSH2 0x2160 DUP5 DUP3 DUP6 ADD PUSH2 0x1FB9 JUMP JUMPDEST SWAP2 POP POP SWAP3 SWAP2 POP POP JUMP JUMPDEST PUSH2 0x2172 DUP2 PUSH2 0x2574 JUMP JUMPDEST DUP3 MSTORE POP POP JUMP JUMPDEST PUSH2 0x2181 DUP2 PUSH2 0x2562 JUMP JUMPDEST DUP3 MSTORE POP POP JUMP JUMPDEST PUSH2 0x2190 DUP2 PUSH2 0x2586 JUMP JUMPDEST DUP3 MSTORE POP POP JUMP JUMPDEST PUSH1 0x0 PUSH2 0x21A1 DUP3 PUSH2 0x2431 JUMP JUMPDEST PUSH2 0x21AB DUP2 DUP6 PUSH2 0x243C JUMP JUMPDEST SWAP4 POP PUSH2 0x21BB DUP2 DUP6 PUSH1 0x20 DUP7 ADD PUSH2 0x25CB JUMP JUMPDEST PUSH2 0x21C4 DUP2 PUSH2 0x2833 JUMP JUMPDEST DUP5 ADD SWAP2 POP POP SWAP3 SWAP2 POP POP JUMP JUMPDEST PUSH1 0x0 PUSH2 0x21DC PUSH1 0x23 DUP4 PUSH2 0x243C JUMP JUMPDEST SWAP2 POP PUSH2 0x21E7 DUP3 PUSH2 0x2844 JUMP JUMPDEST PUSH1 0x40 DUP3 ADD SWAP1 POP SWAP2 SWAP1 POP JUMP JUMPDEST PUSH1 0x0 PUSH2 0x21FF PUSH1 0x1F DUP4 PUSH2 0x243C JUMP JUMPDEST SWAP2 POP PUSH2 0x220A DUP3 PUSH2 0x2893 JUMP JUMPDEST PUSH1 0x20 DUP3 ADD SWAP1 POP SWAP2 SWAP1 POP JUMP JUMPDEST PUSH1 0x0 PUSH2 0x2222 PUSH1 0x21 DUP4 PUSH2 0x243C JUMP JUMPDEST SWAP2 POP PUSH2 0x222D DUP3 PUSH2 0x28BC JUMP JUMPDEST PUSH1 0x40 DUP3 ADD SWAP1 POP SWAP2 SWAP1 POP JUMP JUMPDEST PUSH2 0x2241 DUP2 PUSH2 0x25B2 JUMP JUMPDEST DUP3 MSTORE POP POP JUMP JUMPDEST PUSH1 0x0 PUSH1 0x20 DUP3 ADD SWAP1 POP PUSH2 0x225C PUSH1 0x0 DUP4 ADD DUP5 PUSH2 0x2178 JUMP JUMPDEST SWAP3 SWAP2 POP POP JUMP JUMPDEST PUSH1 0x0 PUSH1 0x20 DUP3 ADD SWAP1 POP PUSH2 0x2277 PUSH1 0x0 DUP4 ADD DUP5 PUSH2 0x2169 JUMP JUMPDEST SWAP3 SWAP2 POP POP JUMP JUMPDEST PUSH1 0x0 PUSH1 0x20 DUP3 ADD SWAP1 POP PUSH2 0x2292 PUSH1 0x0 DUP4 ADD DUP5 PUSH2 0x2187 JUMP JUMPDEST SWAP3 SWAP2 POP POP JUMP JUMPDEST PUSH1 0x0 PUSH1 0x20 DUP3 ADD SWAP1 POP DUP2 DUP2 SUB PUSH1 0x0 DUP4 ADD MSTORE PUSH2 0x22B2 DUP2 DUP5 PUSH2 0x2196 JUMP JUMPDEST SWAP1 POP SWAP3 SWAP2 POP POP JUMP JUMPDEST PUSH1 0x0 PUSH1 0xA0 DUP3 ADD SWAP1 POP DUP2 DUP2 SUB PUSH1 0x0 DUP4 ADD MSTORE PUSH2 0x22D4 DUP2 DUP9 PUSH2 0x2196 JUMP JUMPDEST SWAP1 POP PUSH2 0x22E3 PUSH1 0x20 DUP4 ADD DUP8 PUSH2 0x2178 JUMP JUMPDEST DUP2 DUP2 SUB PUSH1 0x40 DUP4 ADD MSTORE PUSH2 0x22F5 DUP2 DUP7 PUSH2 0x2196 JUMP JUMPDEST SWAP1 POP PUSH2 0x2304 PUSH1 0x60 DUP4 ADD DUP6 PUSH2 0x2238 JUMP JUMPDEST PUSH2 0x2311 PUSH1 0x80 DUP4 ADD DUP5 PUSH2 0x2238 JUMP JUMPDEST SWAP7 SWAP6 POP POP POP POP POP POP JUMP JUMPDEST PUSH1 0x0 PUSH1 0x60 DUP3 ADD SWAP1 POP DUP2 DUP2 SUB PUSH1 0x0 DUP4 ADD MSTORE PUSH2 0x2335 DUP2 DUP7 PUSH2 0x2196 JUMP JUMPDEST SWAP1 POP DUP2 DUP2 SUB PUSH1 0x20 DUP4 ADD MSTORE PUSH2 0x2349 DUP2 DUP6 PUSH2 0x2196 JUMP JUMPDEST SWAP1 POP PUSH2 0x2358 PUSH1 0x40 DUP4 ADD DUP5 PUSH2 0x2238 JUMP JUMPDEST SWAP5 SWAP4 POP POP POP POP JUMP JUMPDEST PUSH1 0x0 PUSH1 0x20 DUP3 ADD SWAP1 POP DUP2 DUP2 SUB PUSH1 0x0 DUP4 ADD MSTORE PUSH2 0x2379 DUP2 PUSH2 0x21CF JUMP JUMPDEST SWAP1 POP SWAP2 SWAP1 POP JUMP JUMPDEST PUSH1 0x0 PUSH1 0x20 DUP3 ADD SWAP1 POP DUP2 DUP2 SUB PUSH1 0x0 DUP4 ADD MSTORE PUSH2 0x2399 DUP2 PUSH2 0x21F2 JUMP JUMPDEST SWAP1 POP SWAP2 SWAP1 POP JUMP JUMPDEST PUSH1 0x0 PUSH1 0x20 DUP3 ADD SWAP1 POP DUP2 DUP2 SUB PUSH1 0x0 DUP4 ADD MSTORE PUSH2 0x23B9 DUP2 PUSH2 0x2215 JUMP JUMPDEST SWAP1 POP SWAP2 SWAP1 POP JUMP JUMPDEST PUSH1 0x0 PUSH1 0x20 DUP3 ADD SWAP1 POP PUSH2 0x23D5 PUSH1 0x0 DUP4 ADD DUP5 PUSH2 0x2238 JUMP JUMPDEST SWAP3 SWAP2 POP POP JUMP JUMPDEST PUSH1 0x0 PUSH2 0x23E5 PUSH2 0x23F6 JUMP JUMPDEST SWAP1 POP PUSH2 0x23F1 DUP3 DUP3 PUSH2 0x265A JUMP JUMPDEST SWAP2 SWAP1 POP JUMP JUMPDEST PUSH1 0x0 PUSH1 0x40 MLOAD SWAP1 POP SWAP1 JUMP JUMPDEST PUSH1 0x0 PUSH8 0xFFFFFFFFFFFFFFFF DUP3 GT ISZERO PUSH2 0x241B JUMPI PUSH2 0x241A PUSH2 0x27F0 JUMP JUMPDEST JUMPDEST PUSH2 0x2424 DUP3 PUSH2 0x2833 JUMP JUMPDEST SWAP1 POP PUSH1 0x20 DUP2 ADD SWAP1 POP SWAP2 SWAP1 POP JUMP JUMPDEST PUSH1 0x0 DUP2 MLOAD SWAP1 POP SWAP2 SWAP1 POP JUMP JUMPDEST PUSH1 0x0 DUP3 DUP3 MSTORE PUSH1 0x20 DUP3 ADD SWAP1 POP SWAP3 SWAP2 POP POP JUMP JUMPDEST PUSH1 0x0 PUSH2 0x2458 DUP3 PUSH2 0x25B2 JUMP JUMPDEST SWAP2 POP PUSH2 0x2463 DUP4 PUSH2 0x25B2 JUMP JUMPDEST SWAP3 POP DUP3 PUSH32 0xFFFFFFFFFFFFFFFFFFFFFFFFFFFFFFFFFFFFFFFFFFFFFFFFFFFFFFFFFFFFFFFF SUB DUP3 GT ISZERO PUSH2 0x2498 JUMPI PUSH2 0x2497 PUSH2 0x2705 JUMP JUMPDEST JUMPDEST DUP3 DUP3 ADD SWAP1 POP SWAP3 SWAP2 POP POP JUMP JUMPDEST PUSH1 0x0 PUSH2 0x24AE DUP3 PUSH2 0x25B2 JUMP JUMPDEST SWAP2 POP PUSH2 0x24B9 DUP4 PUSH2 0x25B2 JUMP JUMPDEST SWAP3 POP DUP3 PUSH2 0x24C9 JUMPI PUSH2 0x24C8 PUSH2 0x2734 JUMP JUMPDEST JUMPDEST DUP3 DUP3 DIV SWAP1 POP SWAP3 SWAP2 POP POP JUMP JUMPDEST PUSH1 0x0 PUSH2 0x24DF DUP3 PUSH2 0x25B2 JUMP JUMPDEST SWAP2 POP PUSH2 0x24EA DUP4 PUSH2 0x25B2 JUMP JUMPDEST SWAP3 POP DUP2 PUSH32 0xFFFFFFFFFFFFFFFFFFFFFFFFFFFFFFFFFFFFFFFFFFFFFFFFFFFFFFFFFFFFFFFF DIV DUP4 GT DUP3 ISZERO ISZERO AND ISZERO PUSH2 0x2523 JUMPI PUSH2 0x2522 PUSH2 0x2705 JUMP JUMPDEST JUMPDEST DUP3 DUP3 MUL SWAP1 POP SWAP3 SWAP2 POP POP JUMP JUMPDEST PUSH1 0x0 PUSH2 0x2539 DUP3 PUSH2 0x25B2 JUMP JUMPDEST SWAP2 POP PUSH2 0x2544 DUP4 PUSH2 0x25B2 JUMP JUMPDEST SWAP3 POP DUP3 DUP3 LT ISZERO PUSH2 0x2557 JUMPI PUSH2 0x2556 PUSH2 0x2705 JUMP JUMPDEST JUMPDEST DUP3 DUP3 SUB SWAP1 POP SWAP3 SWAP2 POP POP JUMP JUMPDEST PUSH1 0x0 PUSH2 0x256D DUP3 PUSH2 0x2592 JUMP JUMPDEST SWAP1 POP SWAP2 SWAP1 POP JUMP JUMPDEST PUSH1 0x0 PUSH2 0x257F DUP3 PUSH2 0x2592 JUMP JUMPDEST SWAP1 POP SWAP2 SWAP1 POP JUMP JUMPDEST PUSH1 0x0 DUP2 ISZERO ISZERO SWAP1 POP SWAP2 SWAP1 POP JUMP JUMPDEST PUSH1 0x0 PUSH20 0xFFFFFFFFFFFFFFFFFFFFFFFFFFFFFFFFFFFFFFFF DUP3 AND SWAP1 POP SWAP2 SWAP1 POP JUMP JUMPDEST PUSH1 0x0 DUP2 SWAP1 POP SWAP2 SWAP1 POP JUMP JUMPDEST DUP3 DUP2 DUP4 CALLDATACOPY PUSH1 0x0 DUP4 DUP4 ADD MSTORE POP POP POP JUMP JUMPDEST PUSH1 0x0 JUMPDEST DUP4 DUP2 LT ISZERO PUSH2 0x25E9 JUMPI DUP1 DUP3 ADD MLOAD DUP2 DUP5 ADD MSTORE PUSH1 0x20 DUP2 ADD SWAP1 POP PUSH2 0x25CE JUMP JUMPDEST DUP4 DUP2 GT ISZERO PUSH2 0x25F8 JUMPI PUSH1 0x0 DUP5 DUP5 ADD MSTORE JUMPDEST POP POP POP POP JUMP JUMPDEST PUSH1 0x0 PUSH2 0x2609 DUP3 PUSH2 0x25B2 JUMP JUMPDEST SWAP2 POP PUSH1 0x0 DUP3 EQ ISZERO PUSH2 0x261D JUMPI PUSH2 0x261C PUSH2 0x2705 JUMP JUMPDEST JUMPDEST PUSH1 0x1 DUP3 SUB SWAP1 POP SWAP2 SWAP1 POP JUMP JUMPDEST PUSH1 0x0 PUSH1 0x2 DUP3 DIV SWAP1 POP PUSH1 0x1 DUP3 AND DUP1 PUSH2 0x2640 JUMPI PUSH1 0x7F DUP3 AND SWAP2 POP JUMPDEST PUSH1 0x20 DUP3 LT DUP2 EQ ISZERO PUSH2 0x2654 JUMPI PUSH2 0x2653 PUSH2 0x2792 JUMP JUMPDEST JUMPDEST POP SWAP2 SWAP1 POP JUMP JUMPDEST PUSH2 0x2663 DUP3 PUSH2 0x2833 JUMP JUMPDEST DUP2 ADD DUP2 DUP2 LT PUSH8 0xFFFFFFFFFFFFFFFF DUP3 GT OR ISZERO PUSH2 0x2682 JUMPI PUSH2 0x2681 PUSH2 0x27F0 JUMP JUMPDEST JUMPDEST DUP1 PUSH1 0x40 MSTORE POP POP POP JUMP JUMPDEST PUSH1 0x0 PUSH2 0x2696 DUP3 PUSH2 0x25B2 JUMP JUMPDEST SWAP2 POP PUSH32 0xFFFFFFFFFFFFFFFFFFFFFFFFFFFFFFFFFFFFFFFFFFFFFFFFFFFFFFFFFFFFFFFF DUP3 EQ ISZERO PUSH2 0x26C9 JUMPI PUSH2 0x26C8 PUSH2 0x2705 JUMP JUMPDEST JUMPDEST PUSH1 0x1 DUP3 ADD SWAP1 POP SWAP2 SWAP1 POP JUMP JUMPDEST PUSH1 0x0 PUSH2 0x26DF DUP3 PUSH2 0x25B2 JUMP JUMPDEST SWAP2 POP PUSH2 0x26EA DUP4 PUSH2 0x25B2 JUMP JUMPDEST SWAP3 POP DUP3 PUSH2 0x26FA JUMPI PUSH2 0x26F9 PUSH2 0x2734 JUMP JUMPDEST JUMPDEST DUP3 DUP3 MOD SWAP1 POP SWAP3 SWAP2 POP POP JUMP JUMPDEST PUSH32 0x4E487B7100000000000000000000000000000000000000000000000000000000 PUSH1 0x0 MSTORE PUSH1 0x11 PUSH1 0x4 MSTORE PUSH1 0x24 PUSH1 0x0 REVERT JUMPDEST PUSH32 0x4E487B7100000000000000000000000000000000000000000000000000000000 PUSH1 0x0 MSTORE PUSH1 0x12 PUSH1 0x4 MSTORE PUSH1 0x24 PUSH1 0x0 REVERT JUMPDEST PUSH32 0x4E487B7100000000000000000000000000000000000000000000000000000000 PUSH1 0x0 MSTORE PUSH1 0x21 PUSH1 0x4 MSTORE PUSH1 0x24 PUSH1 0x0 REVERT JUMPDEST PUSH32 0x4E487B7100000000000000000000000000000000000000000000000000000000 PUSH1 0x0 MSTORE PUSH1 0x22 PUSH1 0x4 MSTORE PUSH1 0x24 PUSH1 0x0 REVERT JUMPDEST PUSH32 0x4E487B7100000000000000000000000000000000000000000000000000000000 PUSH1 0x0 MSTORE PUSH1 0x32 PUSH1 0x4 MSTORE PUSH1 0x24 PUSH1 0x0 REVERT JUMPDEST PUSH32 0x4E487B7100000000000000000000000000000000000000000000000000000000 PUSH1 0x0 MSTORE PUSH1 0x41 PUSH1 0x4 MSTORE PUSH1 0x24 PUSH1 0x0 REVERT JUMPDEST PUSH1 0x0 DUP1 REVERT JUMPDEST PUSH1 0x0 DUP1 REVERT JUMPDEST PUSH1 0x0 DUP1 REVERT JUMPDEST PUSH1 0x0 DUP1 REVERT JUMPDEST PUSH1 0x0 PUSH1 0x1F NOT PUSH1 0x1F DUP4 ADD AND SWAP1 POP SWAP2 SWAP1 POP JUMP JUMPDEST PUSH32 0x4E756D626572206F662073686172657320657863656564656420746865206C69 PUSH1 0x0 DUP3 ADD MSTORE PUSH32 0x6D69740000000000000000000000000000000000000000000000000000000000 PUSH1 0x20 DUP3 ADD MSTORE POP JUMP JUMPDEST PUSH32 0x496E636F72726563742077656920616D6F756E74207375626D69747465642100 PUSH1 0x0 DUP3 ADD MSTORE POP JUMP JUMPDEST PUSH32 0x43616E6E6F742073656C6C2073686172657320796F7520646F206E6F74206F77 PUSH1 0x0 DUP3 ADD MSTORE PUSH32 0x6E00000000000000000000000000000000000000000000000000000000000000 PUSH1 0x20 DUP3 ADD MSTORE POP JUMP JUMPDEST PUSH2 0x2914 DUP2 PUSH2 0x2562 JUMP JUMPDEST DUP2 EQ PUSH2 0x291F JUMPI PUSH1 0x0 DUP1 REVERT JUMPDEST POP JUMP JUMPDEST PUSH2 0x292B DUP2 PUSH2 0x2586 JUMP JUMPDEST DUP2 EQ PUSH2 0x2936 JUMPI PUSH1 0x0 DUP1 REVERT JUMPDEST POP JUMP JUMPDEST PUSH2 0x2942 DUP2 PUSH2 0x25B2 JUMP JUMPDEST DUP2 EQ PUSH2 0x294D JUMPI PUSH1 0x0 DUP1 REVERT JUMPDEST POP JUMP INVALID LOG2 PUSH5 0x6970667358 0x22 SLT KECCAK256 ISZERO PUSH4 0x8838876F SUB SWAP6 0xAA 0xBC 0x26 0xDF STATICCALL 0x29 DUP3 0x24 DUP11 PUSH7 0x6BDB4FCB382C6E 0x23 POP SHR LT ADDRESS 0xAC 0xE8 PUSH5 0x736F6C6343 STOP ADDMOD SMOD STOP CALLER "
				},
				"gasEstimates": {
					"creation": {
						"codeDepositCost": "2126000",
						"executionCost": "infinite",
						"totalCost": "infinite"
					},
					"external": {
						"addHouse(string,string,uint256)": "infinite",
						"addShareHolder(address)": "infinite",
						"balances(address)": "2860",
						"ballotHistory(uint256)": "infinite",
						"buy(uint256)": "infinite",
						"createBallot(string)": "infinite",
						"currentBallot()": "infinite",
						"doVote(bool)": "infinite",
						"endVote()": "56407",
						"etherBalance(address)": "3346",
						"houseRegister(uint256)": "infinite",
						"hp()": "infinite",
						"owner()": "2556",
						"removeShareHolder(address)": "infinite",
						"sellToOwner(uint256)": "infinite",
						"shareHolderRegistry(address)": "2935",
						"shareHolders(uint256)": "5045",
						"shareLimit()": "2563",
						"startTrading()": "26666",
						"startVote()": "29668",
						"tokenPrice()": "2540",
						"totalBallots()": "2496",
						"totalHouses()": "2453",
						"totalShareHolders()": "2518",
						"totalShares()": "2541",
						"transfer(address,uint256)": "infinite"
					},
					"internal": {
						"contains(address)": "infinite"
					}
				},
				"methodIdentifiers": {
					"addHouse(string,string,uint256)": "df094409",
					"addShareHolder(address)": "af769c64",
					"balances(address)": "27e235e3",
					"ballotHistory(uint256)": "2cd39acc",
					"buy(uint256)": "d96a094a",
					"createBallot(string)": "46a86576",
					"currentBallot()": "f80723a8",
					"doVote(bool)": "87caea78",
					"endVote()": "b9223946",
					"etherBalance(address)": "cd0c5896",
					"houseRegister(uint256)": "a14ba987",
					"hp()": "d8124c5f",
					"owner()": "8da5cb5b",
					"removeShareHolder(address)": "5ab59720",
					"sellToOwner(uint256)": "8eb54c6f",
					"shareHolderRegistry(address)": "59ea0173",
					"shareHolders(uint256)": "7427a40c",
					"shareLimit()": "3be75aa3",
					"startTrading()": "293230b8",
					"startVote()": "4c0a6af0",
					"tokenPrice()": "7ff9b596",
					"totalBallots()": "612fb2ec",
					"totalHouses()": "162d8afb",
					"totalShareHolders()": "9a982416",
					"totalShares()": "3a98ef39",
					"transfer(address,uint256)": "a9059cbb"
				}
			},
			"storageLayout": {
				"storage": [
					{
						"astId": 230,
						"contract": "MyHomeToken.sol:MyHomesToken",
						"label": "owner",
						"offset": 0,
						"slot": "0",
						"type": "t_address_payable"
					},
					{
						"astId": 233,
						"contract": "MyHomeToken.sol:MyHomesToken",
						"label": "hp",
						"offset": 0,
						"slot": "1",
						"type": "t_struct(HousingPackage)347_storage"
					},
					{
						"astId": 237,
						"contract": "MyHomeToken.sol:MyHomesToken",
						"label": "houseRegister",
						"offset": 0,
						"slot": "4",
						"type": "t_array(t_struct(House)340_storage)dyn_storage"
					},
					{
						"astId": 240,
						"contract": "MyHomeToken.sol:MyHomesToken",
						"label": "totalHouses",
						"offset": 0,
						"slot": "5",
						"type": "t_uint256"
					},
					{
						"astId": 243,
						"contract": "MyHomeToken.sol:MyHomesToken",
						"label": "totalShares",
						"offset": 0,
						"slot": "6",
						"type": "t_uint256"
					},
					{
						"astId": 246,
						"contract": "MyHomeToken.sol:MyHomesToken",
						"label": "tokenPrice",
						"offset": 0,
						"slot": "7",
						"type": "t_uint256"
					},
					{
						"astId": 249,
						"contract": "MyHomeToken.sol:MyHomesToken",
						"label": "shareLimit",
						"offset": 0,
						"slot": "8",
						"type": "t_uint256"
					},
					{
						"astId": 252,
						"contract": "MyHomeToken.sol:MyHomesToken",
						"label": "totalShareHolders",
						"offset": 0,
						"slot": "9",
						"type": "t_uint256"
					},
					{
						"astId": 255,
						"contract": "MyHomeToken.sol:MyHomesToken",
						"label": "state",
						"offset": 0,
						"slot": "10",
						"type": "t_enum(State)437"
					},
					{
						"astId": 258,
						"contract": "MyHomeToken.sol:MyHomesToken",
						"label": "shareHolders",
						"offset": 0,
						"slot": "11",
						"type": "t_array(t_address)dyn_storage"
					},
					{
						"astId": 262,
						"contract": "MyHomeToken.sol:MyHomesToken",
						"label": "shareHolderRegistry",
						"offset": 0,
						"slot": "12",
						"type": "t_mapping(t_address,t_bool)"
					},
					{
						"astId": 266,
						"contract": "MyHomeToken.sol:MyHomesToken",
						"label": "balances",
						"offset": 0,
						"slot": "13",
						"type": "t_mapping(t_address,t_uint256)"
					},
					{
						"astId": 271,
						"contract": "MyHomeToken.sol:MyHomesToken",
						"label": "ballotHistory",
						"offset": 0,
						"slot": "14",
						"type": "t_mapping(t_uint256,t_struct(Ballot)363_storage)"
					},
					{
						"astId": 274,
						"contract": "MyHomeToken.sol:MyHomesToken",
						"label": "totalBallots",
						"offset": 0,
						"slot": "15",
						"type": "t_uint256"
					},
					{
						"astId": 277,
						"contract": "MyHomeToken.sol:MyHomesToken",
						"label": "currentBallot",
						"offset": 0,
						"slot": "16",
						"type": "t_struct(Ballot)363_storage"
					},
					{
						"astId": 280,
						"contract": "MyHomeToken.sol:MyHomesToken",
						"label": "ballotState",
						"offset": 0,
						"slot": "21",
						"type": "t_enum(BallotState)434"
					},
					{
						"astId": 285,
						"contract": "MyHomeToken.sol:MyHomesToken",
						"label": "votes",
						"offset": 0,
						"slot": "22",
						"type": "t_mapping(t_uint256,t_struct(Vote)352_storage)"
					},
					{
						"astId": 287,
						"contract": "MyHomeToken.sol:MyHomesToken",
						"label": "resultCount",
						"offset": 0,
						"slot": "23",
						"type": "t_uint256"
					}
				],
				"types": {
					"t_address": {
						"encoding": "inplace",
						"label": "address",
						"numberOfBytes": "20"
					},
					"t_address_payable": {
						"encoding": "inplace",
						"label": "address payable",
						"numberOfBytes": "20"
					},
					"t_array(t_address)dyn_storage": {
						"base": "t_address",
						"encoding": "dynamic_array",
						"label": "address[]",
						"numberOfBytes": "32"
					},
					"t_array(t_struct(House)340_storage)dyn_storage": {
						"base": "t_struct(House)340_storage",
						"encoding": "dynamic_array",
						"label": "struct MyHomesToken.House[]",
						"numberOfBytes": "32"
					},
					"t_bool": {
						"encoding": "inplace",
						"label": "bool",
						"numberOfBytes": "1"
					},
					"t_enum(BallotState)434": {
						"encoding": "inplace",
						"label": "enum MyHomesToken.BallotState",
						"numberOfBytes": "1"
					},
					"t_enum(State)437": {
						"encoding": "inplace",
						"label": "enum MyHomesToken.State",
						"numberOfBytes": "1"
					},
					"t_mapping(t_address,t_bool)": {
						"encoding": "mapping",
						"key": "t_address",
						"label": "mapping(address => bool)",
						"numberOfBytes": "32",
						"value": "t_bool"
					},
					"t_mapping(t_address,t_uint256)": {
						"encoding": "mapping",
						"key": "t_address",
						"label": "mapping(address => uint256)",
						"numberOfBytes": "32",
						"value": "t_uint256"
					},
					"t_mapping(t_uint256,t_struct(Ballot)363_storage)": {
						"encoding": "mapping",
						"key": "t_uint256",
						"label": "mapping(uint256 => struct MyHomesToken.Ballot)",
						"numberOfBytes": "32",
						"value": "t_struct(Ballot)363_storage"
					},
					"t_mapping(t_uint256,t_struct(Vote)352_storage)": {
						"encoding": "mapping",
						"key": "t_uint256",
						"label": "mapping(uint256 => struct MyHomesToken.Vote)",
						"numberOfBytes": "32",
						"value": "t_struct(Vote)352_storage"
					},
					"t_string_storage": {
						"encoding": "bytes",
						"label": "string",
						"numberOfBytes": "32"
					},
					"t_struct(Ballot)363_storage": {
						"encoding": "inplace",
						"label": "struct MyHomesToken.Ballot",
						"members": [
							{
								"astId": 354,
								"contract": "MyHomeToken.sol:MyHomesToken",
								"label": "ballotId",
								"offset": 0,
								"slot": "0",
								"type": "t_string_storage"
							},
							{
								"astId": 356,
								"contract": "MyHomeToken.sol:MyHomesToken",
								"label": "ballotOwner",
								"offset": 0,
								"slot": "1",
								"type": "t_address"
							},
							{
								"astId": 358,
								"contract": "MyHomeToken.sol:MyHomesToken",
								"label": "proposal",
								"offset": 0,
								"slot": "2",
								"type": "t_string_storage"
							},
							{
								"astId": 360,
								"contract": "MyHomeToken.sol:MyHomesToken",
								"label": "finalResult",
								"offset": 0,
								"slot": "3",
								"type": "t_uint256"
							},
							{
								"astId": 362,
								"contract": "MyHomeToken.sol:MyHomesToken",
								"label": "totalVotes",
								"offset": 0,
								"slot": "4",
								"type": "t_uint256"
							}
						],
						"numberOfBytes": "160"
					},
					"t_struct(House)340_storage": {
						"encoding": "inplace",
						"label": "struct MyHomesToken.House",
						"members": [
							{
								"astId": 335,
								"contract": "MyHomeToken.sol:MyHomesToken",
								"label": "registrationId",
								"offset": 0,
								"slot": "0",
								"type": "t_string_storage"
							},
							{
								"astId": 337,
								"contract": "MyHomeToken.sol:MyHomesToken",
								"label": "physicalAddress",
								"offset": 0,
								"slot": "1",
								"type": "t_string_storage"
							},
							{
								"astId": 339,
								"contract": "MyHomeToken.sol:MyHomesToken",
								"label": "price",
								"offset": 0,
								"slot": "2",
								"type": "t_uint256"
							}
						],
						"numberOfBytes": "96"
					},
					"t_struct(HousingPackage)347_storage": {
						"encoding": "inplace",
						"label": "struct MyHomesToken.HousingPackage",
						"members": [
							{
								"astId": 342,
								"contract": "MyHomeToken.sol:MyHomesToken",
								"label": "name",
								"offset": 0,
								"slot": "0",
								"type": "t_string_storage"
							},
							{
								"astId": 344,
								"contract": "MyHomeToken.sol:MyHomesToken",
								"label": "description",
								"offset": 0,
								"slot": "1",
								"type": "t_string_storage"
							},
							{
								"astId": 346,
								"contract": "MyHomeToken.sol:MyHomesToken",
								"label": "totalValue",
								"offset": 0,
								"slot": "2",
								"type": "t_uint256"
							}
						],
						"numberOfBytes": "96"
					},
					"t_struct(Vote)352_storage": {
						"encoding": "inplace",
						"label": "struct MyHomesToken.Vote",
						"members": [
							{
								"astId": 349,
								"contract": "MyHomeToken.sol:MyHomesToken",
								"label": "shareHolderAddress",
								"offset": 0,
								"slot": "0",
								"type": "t_address"
							},
							{
								"astId": 351,
								"contract": "MyHomeToken.sol:MyHomesToken",
								"label": "choice",
								"offset": 20,
								"slot": "0",
								"type": "t_bool"
							}
						],
						"numberOfBytes": "32"
					},
					"t_uint256": {
						"encoding": "inplace",
						"label": "uint256",
						"numberOfBytes": "32"
					}
				}
			},
			"userdoc": {
				"kind": "user",
				"methods": {},
				"version": 1
			}
		}
	}
}