{
	"MyHomeToken.sol": {
		"MyHomesToken": {
			"abi": [
				{
					"inputs": [
						{
							"internalType": "string",
							"name": "_name",
							"type": "string"
						},
						{
							"internalType": "string",
							"name": "_description",
							"type": "string"
						}
					],
					"stateMutability": "nonpayable",
					"type": "constructor"
				},
				{
					"anonymous": false,
					"inputs": [
						{
							"indexed": false,
							"internalType": "string",
							"name": "id",
							"type": "string"
						}
					],
					"name": "NewHouseAdded",
					"type": "event"
				},
				{
					"anonymous": false,
					"inputs": [
						{
							"indexed": false,
							"internalType": "address",
							"name": "sh",
							"type": "address"
						}
					],
					"name": "ShareHolderAdded",
					"type": "event"
				},
				{
					"anonymous": false,
					"inputs": [
						{
							"indexed": false,
							"internalType": "address",
							"name": "shareHolder",
							"type": "address"
						}
					],
					"name": "voteDone",
					"type": "event"
				},
				{
					"anonymous": false,
					"inputs": [
						{
							"indexed": false,
							"internalType": "uint256",
							"name": "finalResult",
							"type": "uint256"
						}
					],
					"name": "voteEnded",
					"type": "event"
				},
				{
					"anonymous": false,
					"inputs": [],
					"name": "voteStarted",
					"type": "event"
				},
				{
					"inputs": [
						{
							"internalType": "string",
							"name": "_registrationId",
							"type": "string"
						},
						{
							"internalType": "string",
							"name": "location",
							"type": "string"
						},
						{
							"internalType": "uint256",
							"name": "price",
							"type": "uint256"
						}
					],
					"name": "addHouse",
					"outputs": [],
					"stateMutability": "nonpayable",
					"type": "function"
				},
				{
					"inputs": [
						{
							"internalType": "address",
							"name": "_shareHolderAddress",
							"type": "address"
						}
					],
					"name": "addShareHolder",
					"outputs": [],
					"stateMutability": "nonpayable",
					"type": "function"
				},
				{
					"inputs": [],
					"name": "ballotInitiator",
					"outputs": [
						{
							"internalType": "address",
							"name": "",
							"type": "address"
						}
					],
					"stateMutability": "view",
					"type": "function"
				},
				{
					"inputs": [],
					"name": "ballotName",
					"outputs": [
						{
							"internalType": "string",
							"name": "",
							"type": "string"
						}
					],
					"stateMutability": "view",
					"type": "function"
				},
				{
					"inputs": [
						{
							"internalType": "uint256",
							"name": "_amount",
							"type": "uint256"
						}
					],
					"name": "buy",
					"outputs": [],
					"stateMutability": "payable",
					"type": "function"
				},
				{
					"inputs": [
						{
							"internalType": "string",
							"name": "_ballotName",
							"type": "string"
						},
						{
							"internalType": "string",
							"name": "_proposal",
							"type": "string"
						}
					],
					"name": "createBallot",
					"outputs": [],
					"stateMutability": "nonpayable",
					"type": "function"
				},
				{
					"inputs": [
						{
							"internalType": "bool",
							"name": "_choice",
							"type": "bool"
						}
					],
					"name": "doVote",
					"outputs": [
						{
							"internalType": "bool",
							"name": "voted",
							"type": "bool"
						}
					],
					"stateMutability": "nonpayable",
					"type": "function"
				},
				{
					"inputs": [],
					"name": "endVote",
					"outputs": [],
					"stateMutability": "nonpayable",
					"type": "function"
				},
				{
					"inputs": [
						{
							"internalType": "address",
							"name": "_addr",
							"type": "address"
						}
					],
					"name": "etherBalance",
					"outputs": [
						{
							"internalType": "uint256",
							"name": "",
							"type": "uint256"
						}
					],
					"stateMutability": "view",
					"type": "function"
				},
				{
					"inputs": [],
					"name": "finalResult",
					"outputs": [
						{
							"internalType": "uint256",
							"name": "",
							"type": "uint256"
						}
					],
					"stateMutability": "view",
					"type": "function"
				},
				{
					"inputs": [
						{
							"internalType": "uint256",
							"name": "",
							"type": "uint256"
						}
					],
					"name": "houseRegister",
					"outputs": [
						{
							"internalType": "string",
							"name": "registrationId",
							"type": "string"
						},
						{
							"internalType": "string",
							"name": "physicalAddress",
							"type": "string"
						},
						{
							"internalType": "uint256",
							"name": "price",
							"type": "uint256"
						}
					],
					"stateMutability": "view",
					"type": "function"
				},
				{
					"inputs": [],
					"name": "hp",
					"outputs": [
						{
							"internalType": "string",
							"name": "name",
							"type": "string"
						},
						{
							"internalType": "string",
							"name": "description",
							"type": "string"
						},
						{
							"internalType": "uint256",
							"name": "totalValue",
							"type": "uint256"
						}
					],
					"stateMutability": "view",
					"type": "function"
				},
				{
					"inputs": [],
					"name": "owner",
					"outputs": [
						{
							"internalType": "address payable",
							"name": "",
							"type": "address"
						}
					],
					"stateMutability": "view",
					"type": "function"
				},
				{
					"inputs": [],
					"name": "proposal",
					"outputs": [
						{
							"internalType": "string",
							"name": "",
							"type": "string"
						}
					],
					"stateMutability": "view",
					"type": "function"
				},
				{
					"inputs": [
						{
							"internalType": "address",
							"name": "",
							"type": "address"
						}
					],
					"name": "shareHolderRegistry",
					"outputs": [
						{
							"internalType": "bool",
							"name": "",
							"type": "bool"
						}
					],
					"stateMutability": "view",
					"type": "function"
				},
				{
					"inputs": [
						{
							"internalType": "uint256",
							"name": "",
							"type": "uint256"
						}
					],
					"name": "shareHolders",
					"outputs": [
						{
							"internalType": "address",
							"name": "",
							"type": "address"
						}
					],
					"stateMutability": "view",
					"type": "function"
				},
				{
					"inputs": [],
					"name": "shareLimit",
					"outputs": [
						{
							"internalType": "uint256",
							"name": "",
							"type": "uint256"
						}
					],
					"stateMutability": "view",
					"type": "function"
				},
				{
					"inputs": [],
					"name": "startTrading",
					"outputs": [],
					"stateMutability": "nonpayable",
					"type": "function"
				},
				{
					"inputs": [],
					"name": "startVote",
					"outputs": [],
					"stateMutability": "nonpayable",
					"type": "function"
				},
				{
					"inputs": [],
					"name": "tokenPrice",
					"outputs": [
						{
							"internalType": "uint256",
							"name": "",
							"type": "uint256"
						}
					],
					"stateMutability": "view",
					"type": "function"
				},
				{
					"inputs": [],
					"name": "totalHouses",
					"outputs": [
						{
							"internalType": "uint256",
							"name": "",
							"type": "uint256"
						}
					],
					"stateMutability": "view",
					"type": "function"
				},
				{
					"inputs": [],
					"name": "totalShareHolders",
					"outputs": [
						{
							"internalType": "uint256",
							"name": "",
							"type": "uint256"
						}
					],
					"stateMutability": "view",
					"type": "function"
				},
				{
					"inputs": [],
					"name": "totalShares",
					"outputs": [
						{
							"internalType": "uint256",
							"name": "",
							"type": "uint256"
						}
					],
					"stateMutability": "view",
					"type": "function"
				},
				{
					"inputs": [],
					"name": "totalVotes",
					"outputs": [
						{
							"internalType": "uint256",
							"name": "",
							"type": "uint256"
						}
					],
					"stateMutability": "view",
					"type": "function"
				},
				{
					"inputs": [
						{
							"internalType": "address",
							"name": "_to",
							"type": "address"
						},
						{
							"internalType": "uint256",
							"name": "_value",
							"type": "uint256"
						}
					],
					"name": "transfer",
					"outputs": [],
					"stateMutability": "nonpayable",
					"type": "function"
				}
			],
			"devdoc": {
				"kind": "dev",
				"methods": {},
				"version": 1
			},
			"evm": {
				"assembly": "    /* \"MyHomeToken.sol\":66:5536  contract MyHomesToken {... */\n  mstore(0x40, 0x80)\n    /* \"MyHomeToken.sol\":218:219  0 */\n  0x00\n    /* \"MyHomeToken.sol\":192:219  uint public totalHouses = 0 */\n  0x05\n  sstore\n    /* \"MyHomeToken.sol\":254:257  100 */\n  0x64\n    /* \"MyHomeToken.sol\":225:257  uint256 public totalShares = 100 */\n  0x06\n  sstore\n    /* \"MyHomeToken.sol\":291:292  1 */\n  0x01\n    /* \"MyHomeToken.sol\":263:292  uint256 public tokenPrice = 1 */\n  0x07\n  sstore\n    /* \"MyHomeToken.sol\":326:328  10 */\n  0x0a\n    /* \"MyHomeToken.sol\":298:328  uint256 public shareLimit = 10 */\n  0x08\n  sstore\n    /* \"MyHomeToken.sol\":366:367  0 */\n  0x00\n    /* \"MyHomeToken.sol\":334:367  uint public totalShareHolders = 0 */\n  0x09\n  sstore\n    /* \"MyHomeToken.sol\":715:716  0 */\n  0x00\n    /* \"MyHomeToken.sol\":688:716  uint private resultCount = 0 */\n  0x11\n  sstore\n    /* \"MyHomeToken.sol\":748:749  0 */\n  0x00\n    /* \"MyHomeToken.sol\":722:749  uint public finalResult = 0 */\n  0x12\n  sstore\n    /* \"MyHomeToken.sol\":780:781  0 */\n  0x00\n    /* \"MyHomeToken.sol\":755:781  uint public totalVotes = 0 */\n  0x13\n  sstore\n    /* \"MyHomeToken.sol\":830:1102  constructor(string memory _name, string memory _description) {... */\n  callvalue\n  dup1\n  iszero\n  tag_1\n  jumpi\n  0x00\n  dup1\n  revert\ntag_1:\n  pop\n  mload(0x40)\n  sub(codesize, bytecodeSize)\n  dup1\n  bytecodeSize\n  dup4\n  codecopy\n  dup2\n  dup2\n  add\n  0x40\n  mstore\n  dup2\n  add\n  swap1\n  tag_2\n  swap2\n  swap1\n  tag_3\n  jump\t// in\ntag_2:\n    /* \"MyHomeToken.sol\":917:927  msg.sender */\n  caller\n    /* \"MyHomeToken.sol\":901:906  owner */\n  0x00\n  dup1\n    /* \"MyHomeToken.sol\":901:928  owner = payable(msg.sender) */\n  0x0100\n  exp\n  dup2\n  sload\n  dup2\n  0xffffffffffffffffffffffffffffffffffffffff\n  mul\n  not\n  and\n  swap1\n  dup4\n  0xffffffffffffffffffffffffffffffffffffffff\n  and\n  mul\n  or\n  swap1\n  sstore\n  pop\n    /* \"MyHomeToken.sol\":962:973  totalShares */\n  sload(0x06)\n    /* \"MyHomeToken.sol\":938:947  balanceOf */\n  0x0d\n    /* \"MyHomeToken.sol\":938:959  balanceOf[msg.sender] */\n  0x00\n    /* \"MyHomeToken.sol\":948:958  msg.sender */\n  caller\n    /* \"MyHomeToken.sol\":938:959  balanceOf[msg.sender] */\n  0xffffffffffffffffffffffffffffffffffffffff\n  and\n  0xffffffffffffffffffffffffffffffffffffffff\n  and\n  dup2\n  mstore\n  0x20\n  add\n  swap1\n  dup2\n  mstore\n  0x20\n  add\n  0x00\n  keccak256\n    /* \"MyHomeToken.sol\":938:973  balanceOf[msg.sender] = totalShares */\n  dup2\n  swap1\n  sstore\n  pop\n    /* \"MyHomeToken.sol\":993:998  _name */\n  dup2\n    /* \"MyHomeToken.sol\":983:985  hp */\n  0x01\n    /* \"MyHomeToken.sol\":983:990  hp.name */\n  0x00\n  add\n    /* \"MyHomeToken.sol\":983:998  hp.name = _name */\n  swap1\n  dup1\n  mload\n  swap1\n  0x20\n  add\n  swap1\n  tag_6\n  swap3\n  swap2\n  swap1\n  tag_7\n  jump\t// in\ntag_6:\n  pop\n    /* \"MyHomeToken.sol\":1025:1037  _description */\n  dup1\n    /* \"MyHomeToken.sol\":1008:1010  hp */\n  0x01\n    /* \"MyHomeToken.sol\":1008:1022  hp.description */\n  dup1\n  add\n    /* \"MyHomeToken.sol\":1008:1037  hp.description = _description */\n  swap1\n  dup1\n  mload\n  swap1\n  0x20\n  add\n  swap1\n  tag_8\n  swap3\n  swap2\n  swap1\n  tag_7\n  jump\t// in\ntag_8:\n  pop\n    /* \"MyHomeToken.sol\":1063:1064  0 */\n  0x00\n    /* \"MyHomeToken.sol\":1047:1049  hp */\n  0x01\n    /* \"MyHomeToken.sol\":1047:1060  hp.totalValue */\n  0x02\n  add\n    /* \"MyHomeToken.sol\":1047:1064  hp.totalValue = 0 */\n  dup2\n  swap1\n  sstore\n  pop\n    /* \"MyHomeToken.sol\":1082:1095  State.Created */\n  0x00\n    /* \"MyHomeToken.sol\":1074:1079  state */\n  0x0a\n  0x00\n    /* \"MyHomeToken.sol\":1074:1095  state = State.Created */\n  0x0100\n  exp\n  dup2\n  sload\n  dup2\n  0xff\n  mul\n  not\n  and\n  swap1\n  dup4\n  0x01\n  dup2\n  gt\n  iszero\n  tag_9\n  jumpi\n  tag_10\n  tag_11\n  jump\t// in\ntag_10:\ntag_9:\n  mul\n  or\n  swap1\n  sstore\n  pop\n    /* \"MyHomeToken.sol\":830:1102  constructor(string memory _name, string memory _description) {... */\n  pop\n  pop\n    /* \"MyHomeToken.sol\":66:5536  contract MyHomesToken {... */\n  jump(tag_12)\ntag_7:\n  dup3\n  dup1\n  sload\n  tag_13\n  swap1\n  tag_14\n  jump\t// in\ntag_13:\n  swap1\n  0x00\n  mstore\n  keccak256(0x00, 0x20)\n  swap1\n  0x1f\n  add\n  0x20\n  swap1\n  div\n  dup2\n  add\n  swap3\n  dup3\n  tag_16\n  jumpi\n  0x00\n  dup6\n  sstore\n  jump(tag_15)\ntag_16:\n  dup3\n  0x1f\n  lt\n  tag_17\n  jumpi\n  dup1\n  mload\n  not(0xff)\n  and\n  dup4\n  dup1\n  add\n  or\n  dup6\n  sstore\n  jump(tag_15)\ntag_17:\n  dup3\n  dup1\n  add\n  0x01\n  add\n  dup6\n  sstore\n  dup3\n  iszero\n  tag_15\n  jumpi\n  swap2\n  dup3\n  add\ntag_18:\n  dup3\n  dup2\n  gt\n  iszero\n  tag_19\n  jumpi\n  dup3\n  mload\n  dup3\n  sstore\n  swap2\n  0x20\n  add\n  swap2\n  swap1\n  0x01\n  add\n  swap1\n  jump(tag_18)\ntag_19:\ntag_15:\n  pop\n  swap1\n  pop\n  tag_20\n  swap2\n  swap1\n  tag_21\n  jump\t// in\ntag_20:\n  pop\n  swap1\n  jump\t// out\ntag_21:\ntag_22:\n  dup1\n  dup3\n  gt\n  iszero\n  tag_23\n  jumpi\n  0x00\n  dup2\n  0x00\n  swap1\n  sstore\n  pop\n  0x01\n  add\n  jump(tag_22)\ntag_23:\n  pop\n  swap1\n  jump\t// out\n    /* \"#utility.yul\":7:428   */\ntag_25:\n    /* \"#utility.yul\":96:101   */\n  0x00\n    /* \"#utility.yul\":121:187   */\n  tag_27\n    /* \"#utility.yul\":137:186   */\n  tag_28\n    /* \"#utility.yul\":179:185   */\n  dup5\n    /* \"#utility.yul\":137:186   */\n  tag_29\n  jump\t// in\ntag_28:\n    /* \"#utility.yul\":121:187   */\n  tag_30\n  jump\t// in\ntag_27:\n    /* \"#utility.yul\":112:187   */\n  swap1\n  pop\n    /* \"#utility.yul\":210:216   */\n  dup3\n    /* \"#utility.yul\":203:208   */\n  dup2\n    /* \"#utility.yul\":196:217   */\n  mstore\n    /* \"#utility.yul\":248:252   */\n  0x20\n    /* \"#utility.yul\":241:246   */\n  dup2\n    /* \"#utility.yul\":237:253   */\n  add\n    /* \"#utility.yul\":286:289   */\n  dup5\n    /* \"#utility.yul\":277:283   */\n  dup5\n    /* \"#utility.yul\":272:275   */\n  dup5\n    /* \"#utility.yul\":268:284   */\n  add\n    /* \"#utility.yul\":265:290   */\n  gt\n    /* \"#utility.yul\":262:374   */\n  iszero\n  tag_31\n  jumpi\n    /* \"#utility.yul\":293:372   */\n  tag_32\n  tag_33\n  jump\t// in\ntag_32:\n    /* \"#utility.yul\":262:374   */\ntag_31:\n    /* \"#utility.yul\":383:422   */\n  tag_34\n    /* \"#utility.yul\":415:421   */\n  dup5\n    /* \"#utility.yul\":410:413   */\n  dup3\n    /* \"#utility.yul\":405:408   */\n  dup6\n    /* \"#utility.yul\":383:422   */\n  tag_35\n  jump\t// in\ntag_34:\n    /* \"#utility.yul\":102:428   */\n  pop\n    /* \"#utility.yul\":7:428   */\n  swap4\n  swap3\n  pop\n  pop\n  pop\n  jump\t// out\n    /* \"#utility.yul\":448:803   */\ntag_36:\n    /* \"#utility.yul\":515:520   */\n  0x00\n    /* \"#utility.yul\":564:567   */\n  dup3\n    /* \"#utility.yul\":557:561   */\n  0x1f\n    /* \"#utility.yul\":549:555   */\n  dup4\n    /* \"#utility.yul\":545:562   */\n  add\n    /* \"#utility.yul\":541:568   */\n  slt\n    /* \"#utility.yul\":531:653   */\n  tag_38\n  jumpi\n    /* \"#utility.yul\":572:651   */\n  tag_39\n  tag_40\n  jump\t// in\ntag_39:\n    /* \"#utility.yul\":531:653   */\ntag_38:\n    /* \"#utility.yul\":682:688   */\n  dup2\n    /* \"#utility.yul\":676:689   */\n  mload\n    /* \"#utility.yul\":707:797   */\n  tag_41\n    /* \"#utility.yul\":793:796   */\n  dup5\n    /* \"#utility.yul\":785:791   */\n  dup3\n    /* \"#utility.yul\":778:782   */\n  0x20\n    /* \"#utility.yul\":770:776   */\n  dup7\n    /* \"#utility.yul\":766:783   */\n  add\n    /* \"#utility.yul\":707:797   */\n  tag_25\n  jump\t// in\ntag_41:\n    /* \"#utility.yul\":698:797   */\n  swap2\n  pop\n    /* \"#utility.yul\":521:803   */\n  pop\n    /* \"#utility.yul\":448:803   */\n  swap3\n  swap2\n  pop\n  pop\n  jump\t// out\n    /* \"#utility.yul\":809:1662   */\ntag_3:\n    /* \"#utility.yul\":908:914   */\n  0x00\n    /* \"#utility.yul\":916:922   */\n  dup1\n    /* \"#utility.yul\":965:967   */\n  0x40\n    /* \"#utility.yul\":953:962   */\n  dup4\n    /* \"#utility.yul\":944:951   */\n  dup6\n    /* \"#utility.yul\":940:963   */\n  sub\n    /* \"#utility.yul\":936:968   */\n  slt\n    /* \"#utility.yul\":933:1052   */\n  iszero\n  tag_43\n  jumpi\n    /* \"#utility.yul\":971:1050   */\n  tag_44\n  tag_45\n  jump\t// in\ntag_44:\n    /* \"#utility.yul\":933:1052   */\ntag_43:\n    /* \"#utility.yul\":1112:1113   */\n  0x00\n    /* \"#utility.yul\":1101:1110   */\n  dup4\n    /* \"#utility.yul\":1097:1114   */\n  add\n    /* \"#utility.yul\":1091:1115   */\n  mload\n    /* \"#utility.yul\":1142:1160   */\n  0xffffffffffffffff\n    /* \"#utility.yul\":1134:1140   */\n  dup2\n    /* \"#utility.yul\":1131:1161   */\n  gt\n    /* \"#utility.yul\":1128:1245   */\n  iszero\n  tag_46\n  jumpi\n    /* \"#utility.yul\":1164:1243   */\n  tag_47\n  tag_48\n  jump\t// in\ntag_47:\n    /* \"#utility.yul\":1128:1245   */\ntag_46:\n    /* \"#utility.yul\":1269:1343   */\n  tag_49\n    /* \"#utility.yul\":1335:1342   */\n  dup6\n    /* \"#utility.yul\":1326:1332   */\n  dup3\n    /* \"#utility.yul\":1315:1324   */\n  dup7\n    /* \"#utility.yul\":1311:1333   */\n  add\n    /* \"#utility.yul\":1269:1343   */\n  tag_36\n  jump\t// in\ntag_49:\n    /* \"#utility.yul\":1259:1343   */\n  swap3\n  pop\n    /* \"#utility.yul\":1062:1353   */\n  pop\n    /* \"#utility.yul\":1413:1415   */\n  0x20\n    /* \"#utility.yul\":1402:1411   */\n  dup4\n    /* \"#utility.yul\":1398:1416   */\n  add\n    /* \"#utility.yul\":1392:1417   */\n  mload\n    /* \"#utility.yul\":1444:1462   */\n  0xffffffffffffffff\n    /* \"#utility.yul\":1436:1442   */\n  dup2\n    /* \"#utility.yul\":1433:1463   */\n  gt\n    /* \"#utility.yul\":1430:1547   */\n  iszero\n  tag_50\n  jumpi\n    /* \"#utility.yul\":1466:1545   */\n  tag_51\n  tag_48\n  jump\t// in\ntag_51:\n    /* \"#utility.yul\":1430:1547   */\ntag_50:\n    /* \"#utility.yul\":1571:1645   */\n  tag_52\n    /* \"#utility.yul\":1637:1644   */\n  dup6\n    /* \"#utility.yul\":1628:1634   */\n  dup3\n    /* \"#utility.yul\":1617:1626   */\n  dup7\n    /* \"#utility.yul\":1613:1635   */\n  add\n    /* \"#utility.yul\":1571:1645   */\n  tag_36\n  jump\t// in\ntag_52:\n    /* \"#utility.yul\":1561:1645   */\n  swap2\n  pop\n    /* \"#utility.yul\":1363:1655   */\n  pop\n    /* \"#utility.yul\":809:1662   */\n  swap3\n  pop\n  swap3\n  swap1\n  pop\n  jump\t// out\n    /* \"#utility.yul\":1668:1797   */\ntag_30:\n    /* \"#utility.yul\":1702:1708   */\n  0x00\n    /* \"#utility.yul\":1729:1749   */\n  tag_54\n  tag_55\n  jump\t// in\ntag_54:\n    /* \"#utility.yul\":1719:1749   */\n  swap1\n  pop\n    /* \"#utility.yul\":1758:1791   */\n  tag_56\n    /* \"#utility.yul\":1786:1790   */\n  dup3\n    /* \"#utility.yul\":1778:1784   */\n  dup3\n    /* \"#utility.yul\":1758:1791   */\n  tag_57\n  jump\t// in\ntag_56:\n    /* \"#utility.yul\":1668:1797   */\n  swap2\n  swap1\n  pop\n  jump\t// out\n    /* \"#utility.yul\":1803:1878   */\ntag_55:\n    /* \"#utility.yul\":1836:1842   */\n  0x00\n    /* \"#utility.yul\":1869:1871   */\n  0x40\n    /* \"#utility.yul\":1863:1872   */\n  mload\n    /* \"#utility.yul\":1853:1872   */\n  swap1\n  pop\n    /* \"#utility.yul\":1803:1878   */\n  swap1\n  jump\t// out\n    /* \"#utility.yul\":1884:2192   */\ntag_29:\n    /* \"#utility.yul\":1946:1950   */\n  0x00\n    /* \"#utility.yul\":2036:2054   */\n  0xffffffffffffffff\n    /* \"#utility.yul\":2028:2034   */\n  dup3\n    /* \"#utility.yul\":2025:2055   */\n  gt\n    /* \"#utility.yul\":2022:2078   */\n  iszero\n  tag_60\n  jumpi\n    /* \"#utility.yul\":2058:2076   */\n  tag_61\n  tag_62\n  jump\t// in\ntag_61:\n    /* \"#utility.yul\":2022:2078   */\ntag_60:\n    /* \"#utility.yul\":2096:2125   */\n  tag_63\n    /* \"#utility.yul\":2118:2124   */\n  dup3\n    /* \"#utility.yul\":2096:2125   */\n  tag_64\n  jump\t// in\ntag_63:\n    /* \"#utility.yul\":2088:2125   */\n  swap1\n  pop\n    /* \"#utility.yul\":2180:2184   */\n  0x20\n    /* \"#utility.yul\":2174:2178   */\n  dup2\n    /* \"#utility.yul\":2170:2185   */\n  add\n    /* \"#utility.yul\":2162:2185   */\n  swap1\n  pop\n    /* \"#utility.yul\":1884:2192   */\n  swap2\n  swap1\n  pop\n  jump\t// out\n    /* \"#utility.yul\":2198:2505   */\ntag_35:\n    /* \"#utility.yul\":2266:2267   */\n  0x00\n    /* \"#utility.yul\":2276:2389   */\ntag_66:\n    /* \"#utility.yul\":2290:2296   */\n  dup4\n    /* \"#utility.yul\":2287:2288   */\n  dup2\n    /* \"#utility.yul\":2284:2297   */\n  lt\n    /* \"#utility.yul\":2276:2389   */\n  iszero\n  tag_68\n  jumpi\n    /* \"#utility.yul\":2375:2376   */\n  dup1\n    /* \"#utility.yul\":2370:2373   */\n  dup3\n    /* \"#utility.yul\":2366:2377   */\n  add\n    /* \"#utility.yul\":2360:2378   */\n  mload\n    /* \"#utility.yul\":2356:2357   */\n  dup2\n    /* \"#utility.yul\":2351:2354   */\n  dup5\n    /* \"#utility.yul\":2347:2358   */\n  add\n    /* \"#utility.yul\":2340:2379   */\n  mstore\n    /* \"#utility.yul\":2312:2314   */\n  0x20\n    /* \"#utility.yul\":2309:2310   */\n  dup2\n    /* \"#utility.yul\":2305:2315   */\n  add\n    /* \"#utility.yul\":2300:2315   */\n  swap1\n  pop\n    /* \"#utility.yul\":2276:2389   */\n  jump(tag_66)\ntag_68:\n    /* \"#utility.yul\":2407:2413   */\n  dup4\n    /* \"#utility.yul\":2404:2405   */\n  dup2\n    /* \"#utility.yul\":2401:2414   */\n  gt\n    /* \"#utility.yul\":2398:2499   */\n  iszero\n  tag_69\n  jumpi\n    /* \"#utility.yul\":2487:2488   */\n  0x00\n    /* \"#utility.yul\":2478:2484   */\n  dup5\n    /* \"#utility.yul\":2473:2476   */\n  dup5\n    /* \"#utility.yul\":2469:2485   */\n  add\n    /* \"#utility.yul\":2462:2489   */\n  mstore\n    /* \"#utility.yul\":2398:2499   */\ntag_69:\n    /* \"#utility.yul\":2247:2505   */\n  pop\n    /* \"#utility.yul\":2198:2505   */\n  pop\n  pop\n  pop\n  jump\t// out\n    /* \"#utility.yul\":2511:2831   */\ntag_14:\n    /* \"#utility.yul\":2555:2561   */\n  0x00\n    /* \"#utility.yul\":2592:2593   */\n  0x02\n    /* \"#utility.yul\":2586:2590   */\n  dup3\n    /* \"#utility.yul\":2582:2594   */\n  div\n    /* \"#utility.yul\":2572:2594   */\n  swap1\n  pop\n    /* \"#utility.yul\":2639:2640   */\n  0x01\n    /* \"#utility.yul\":2633:2637   */\n  dup3\n    /* \"#utility.yul\":2629:2641   */\n  and\n    /* \"#utility.yul\":2660:2678   */\n  dup1\n    /* \"#utility.yul\":2650:2731   */\n  tag_71\n  jumpi\n    /* \"#utility.yul\":2716:2720   */\n  0x7f\n    /* \"#utility.yul\":2708:2714   */\n  dup3\n    /* \"#utility.yul\":2704:2721   */\n  and\n    /* \"#utility.yul\":2694:2721   */\n  swap2\n  pop\n    /* \"#utility.yul\":2650:2731   */\ntag_71:\n    /* \"#utility.yul\":2778:2780   */\n  0x20\n    /* \"#utility.yul\":2770:2776   */\n  dup3\n    /* \"#utility.yul\":2767:2781   */\n  lt\n    /* \"#utility.yul\":2747:2765   */\n  dup2\n    /* \"#utility.yul\":2744:2782   */\n  eq\n    /* \"#utility.yul\":2741:2825   */\n  iszero\n  tag_72\n  jumpi\n    /* \"#utility.yul\":2797:2815   */\n  tag_73\n  tag_74\n  jump\t// in\ntag_73:\n    /* \"#utility.yul\":2741:2825   */\ntag_72:\n    /* \"#utility.yul\":2562:2831   */\n  pop\n    /* \"#utility.yul\":2511:2831   */\n  swap2\n  swap1\n  pop\n  jump\t// out\n    /* \"#utility.yul\":2837:3118   */\ntag_57:\n    /* \"#utility.yul\":2920:2947   */\n  tag_76\n    /* \"#utility.yul\":2942:2946   */\n  dup3\n    /* \"#utility.yul\":2920:2947   */\n  tag_64\n  jump\t// in\ntag_76:\n    /* \"#utility.yul\":2912:2918   */\n  dup2\n    /* \"#utility.yul\":2908:2948   */\n  add\n    /* \"#utility.yul\":3050:3056   */\n  dup2\n    /* \"#utility.yul\":3038:3048   */\n  dup2\n    /* \"#utility.yul\":3035:3057   */\n  lt\n    /* \"#utility.yul\":3014:3032   */\n  0xffffffffffffffff\n    /* \"#utility.yul\":3002:3012   */\n  dup3\n    /* \"#utility.yul\":2999:3033   */\n  gt\n    /* \"#utility.yul\":2996:3058   */\n  or\n    /* \"#utility.yul\":2993:3081   */\n  iszero\n  tag_77\n  jumpi\n    /* \"#utility.yul\":3061:3079   */\n  tag_78\n  tag_62\n  jump\t// in\ntag_78:\n    /* \"#utility.yul\":2993:3081   */\ntag_77:\n    /* \"#utility.yul\":3101:3111   */\n  dup1\n    /* \"#utility.yul\":3097:3099   */\n  0x40\n    /* \"#utility.yul\":3090:3112   */\n  mstore\n    /* \"#utility.yul\":2880:3118   */\n  pop\n    /* \"#utility.yul\":2837:3118   */\n  pop\n  pop\n  jump\t// out\n    /* \"#utility.yul\":3124:3304   */\ntag_11:\n    /* \"#utility.yul\":3172:3249   */\n  0x4e487b7100000000000000000000000000000000000000000000000000000000\n    /* \"#utility.yul\":3169:3170   */\n  0x00\n    /* \"#utility.yul\":3162:3250   */\n  mstore\n    /* \"#utility.yul\":3269:3273   */\n  0x21\n    /* \"#utility.yul\":3266:3267   */\n  0x04\n    /* \"#utility.yul\":3259:3274   */\n  mstore\n    /* \"#utility.yul\":3293:3297   */\n  0x24\n    /* \"#utility.yul\":3290:3291   */\n  0x00\n    /* \"#utility.yul\":3283:3298   */\n  revert\n    /* \"#utility.yul\":3310:3490   */\ntag_74:\n    /* \"#utility.yul\":3358:3435   */\n  0x4e487b7100000000000000000000000000000000000000000000000000000000\n    /* \"#utility.yul\":3355:3356   */\n  0x00\n    /* \"#utility.yul\":3348:3436   */\n  mstore\n    /* \"#utility.yul\":3455:3459   */\n  0x22\n    /* \"#utility.yul\":3452:3453   */\n  0x04\n    /* \"#utility.yul\":3445:3460   */\n  mstore\n    /* \"#utility.yul\":3479:3483   */\n  0x24\n    /* \"#utility.yul\":3476:3477   */\n  0x00\n    /* \"#utility.yul\":3469:3484   */\n  revert\n    /* \"#utility.yul\":3496:3676   */\ntag_62:\n    /* \"#utility.yul\":3544:3621   */\n  0x4e487b7100000000000000000000000000000000000000000000000000000000\n    /* \"#utility.yul\":3541:3542   */\n  0x00\n    /* \"#utility.yul\":3534:3622   */\n  mstore\n    /* \"#utility.yul\":3641:3645   */\n  0x41\n    /* \"#utility.yul\":3638:3639   */\n  0x04\n    /* \"#utility.yul\":3631:3646   */\n  mstore\n    /* \"#utility.yul\":3665:3669   */\n  0x24\n    /* \"#utility.yul\":3662:3663   */\n  0x00\n    /* \"#utility.yul\":3655:3670   */\n  revert\n    /* \"#utility.yul\":3682:3799   */\ntag_40:\n    /* \"#utility.yul\":3791:3792   */\n  0x00\n    /* \"#utility.yul\":3788:3789   */\n  dup1\n    /* \"#utility.yul\":3781:3793   */\n  revert\n    /* \"#utility.yul\":3805:3922   */\ntag_33:\n    /* \"#utility.yul\":3914:3915   */\n  0x00\n    /* \"#utility.yul\":3911:3912   */\n  dup1\n    /* \"#utility.yul\":3904:3916   */\n  revert\n    /* \"#utility.yul\":3928:4045   */\ntag_48:\n    /* \"#utility.yul\":4037:4038   */\n  0x00\n    /* \"#utility.yul\":4034:4035   */\n  dup1\n    /* \"#utility.yul\":4027:4039   */\n  revert\n    /* \"#utility.yul\":4051:4168   */\ntag_45:\n    /* \"#utility.yul\":4160:4161   */\n  0x00\n    /* \"#utility.yul\":4157:4158   */\n  dup1\n    /* \"#utility.yul\":4150:4162   */\n  revert\n    /* \"#utility.yul\":4174:4276   */\ntag_64:\n    /* \"#utility.yul\":4215:4221   */\n  0x00\n    /* \"#utility.yul\":4266:4268   */\n  0x1f\n    /* \"#utility.yul\":4262:4269   */\n  not\n    /* \"#utility.yul\":4257:4259   */\n  0x1f\n    /* \"#utility.yul\":4250:4255   */\n  dup4\n    /* \"#utility.yul\":4246:4260   */\n  add\n    /* \"#utility.yul\":4242:4270   */\n  and\n    /* \"#utility.yul\":4232:4270   */\n  swap1\n  pop\n    /* \"#utility.yul\":4174:4276   */\n  swap2\n  swap1\n  pop\n  jump\t// out\n    /* \"MyHomeToken.sol\":66:5536  contract MyHomesToken {... */\ntag_12:\n  dataSize(sub_0)\n  dup1\n  dataOffset(sub_0)\n  0x00\n  codecopy\n  0x00\n  return\nstop\n\nsub_0: assembly {\n        /* \"MyHomeToken.sol\":66:5536  contract MyHomesToken {... */\n      mstore(0x40, 0x80)\n      jumpi(tag_1, lt(calldatasize, 0x04))\n      shr(0xe0, calldataload(0x00))\n      dup1\n      0x87caea78\n      gt\n      tag_27\n      jumpi\n      dup1\n      0xaf769c64\n      gt\n      tag_28\n      jumpi\n      dup1\n      0xd8124c5f\n      gt\n      tag_29\n      jumpi\n      dup1\n      0xd8124c5f\n      eq\n      tag_23\n      jumpi\n      dup1\n      0xd96a094a\n      eq\n      tag_24\n      jumpi\n      dup1\n      0xdf094409\n      eq\n      tag_25\n      jumpi\n      dup1\n      0xf3a8286f\n      eq\n      tag_26\n      jumpi\n      jump(tag_1)\n    tag_29:\n      dup1\n      0xaf769c64\n      eq\n      tag_20\n      jumpi\n      dup1\n      0xb9223946\n      eq\n      tag_21\n      jumpi\n      dup1\n      0xcd0c5896\n      eq\n      tag_22\n      jumpi\n      jump(tag_1)\n    tag_28:\n      dup1\n      0x87caea78\n      eq\n      tag_14\n      jumpi\n      dup1\n      0x8da5cb5b\n      eq\n      tag_15\n      jumpi\n      dup1\n      0x9a982416\n      eq\n      tag_16\n      jumpi\n      dup1\n      0xa14ba987\n      eq\n      tag_17\n      jumpi\n      dup1\n      0xa9059cbb\n      eq\n      tag_18\n      jumpi\n      dup1\n      0xad349442\n      eq\n      tag_19\n      jumpi\n      jump(tag_1)\n    tag_27:\n      dup1\n      0x4c0a6af0\n      gt\n      tag_30\n      jumpi\n      dup1\n      0x4c0a6af0\n      eq\n      tag_8\n      jumpi\n      dup1\n      0x59ea0173\n      eq\n      tag_9\n      jumpi\n      dup1\n      0x6fa4f103\n      eq\n      tag_10\n      jumpi\n      dup1\n      0x7427a40c\n      eq\n      tag_11\n      jumpi\n      dup1\n      0x753ec103\n      eq\n      tag_12\n      jumpi\n      dup1\n      0x7ff9b596\n      eq\n      tag_13\n      jumpi\n      jump(tag_1)\n    tag_30:\n      dup1\n      0x0d15fd77\n      eq\n      tag_2\n      jumpi\n      dup1\n      0x162d8afb\n      eq\n      tag_3\n      jumpi\n      dup1\n      0x1b26586c\n      eq\n      tag_4\n      jumpi\n      dup1\n      0x293230b8\n      eq\n      tag_5\n      jumpi\n      dup1\n      0x3a98ef39\n      eq\n      tag_6\n      jumpi\n      dup1\n      0x3be75aa3\n      eq\n      tag_7\n      jumpi\n    tag_1:\n      0x00\n      dup1\n      revert\n        /* \"MyHomeToken.sol\":755:781  uint public totalVotes = 0 */\n    tag_2:\n      callvalue\n      dup1\n      iszero\n      tag_31\n      jumpi\n      0x00\n      dup1\n      revert\n    tag_31:\n      pop\n      tag_32\n      tag_33\n      jump\t// in\n    tag_32:\n      mload(0x40)\n      tag_34\n      swap2\n      swap1\n      tag_35\n      jump\t// in\n    tag_34:\n      mload(0x40)\n      dup1\n      swap2\n      sub\n      swap1\n      return\n        /* \"MyHomeToken.sol\":192:219  uint public totalHouses = 0 */\n    tag_3:\n      callvalue\n      dup1\n      iszero\n      tag_36\n      jumpi\n      0x00\n      dup1\n      revert\n    tag_36:\n      pop\n      tag_37\n      tag_38\n      jump\t// in\n    tag_37:\n      mload(0x40)\n      tag_39\n      swap2\n      swap1\n      tag_35\n      jump\t// in\n    tag_39:\n      mload(0x40)\n      dup1\n      swap2\n      sub\n      swap1\n      return\n        /* \"MyHomeToken.sol\":630:654  string public ballotName */\n    tag_4:\n      callvalue\n      dup1\n      iszero\n      tag_40\n      jumpi\n      0x00\n      dup1\n      revert\n    tag_40:\n      pop\n      tag_41\n      tag_42\n      jump\t// in\n    tag_41:\n      mload(0x40)\n      tag_43\n      swap2\n      swap1\n      tag_44\n      jump\t// in\n    tag_43:\n      mload(0x40)\n      dup1\n      swap2\n      sub\n      swap1\n      return\n        /* \"MyHomeToken.sol\":2119:2202  function startTrading() public onlyRegulator {... */\n    tag_5:\n      callvalue\n      dup1\n      iszero\n      tag_45\n      jumpi\n      0x00\n      dup1\n      revert\n    tag_45:\n      pop\n      tag_46\n      tag_47\n      jump\t// in\n    tag_46:\n      stop\n        /* \"MyHomeToken.sol\":225:257  uint256 public totalShares = 100 */\n    tag_6:\n      callvalue\n      dup1\n      iszero\n      tag_48\n      jumpi\n      0x00\n      dup1\n      revert\n    tag_48:\n      pop\n      tag_49\n      tag_50\n      jump\t// in\n    tag_49:\n      mload(0x40)\n      tag_51\n      swap2\n      swap1\n      tag_35\n      jump\t// in\n    tag_51:\n      mload(0x40)\n      dup1\n      swap2\n      sub\n      swap1\n      return\n        /* \"MyHomeToken.sol\":298:328  uint256 public shareLimit = 10 */\n    tag_7:\n      callvalue\n      dup1\n      iszero\n      tag_52\n      jumpi\n      0x00\n      dup1\n      revert\n    tag_52:\n      pop\n      tag_53\n      tag_54\n      jump\t// in\n    tag_53:\n      mload(0x40)\n      tag_55\n      swap2\n      swap1\n      tag_35\n      jump\t// in\n    tag_55:\n      mload(0x40)\n      dup1\n      swap2\n      sub\n      swap1\n      return\n        /* \"MyHomeToken.sol\":4493:4684  function startVote()... */\n    tag_8:\n      callvalue\n      dup1\n      iszero\n      tag_56\n      jumpi\n      0x00\n      dup1\n      revert\n    tag_56:\n      pop\n      tag_57\n      tag_58\n      jump\t// in\n    tag_57:\n      stop\n        /* \"MyHomeToken.sol\":433:484  mapping(address => bool) public shareHolderRegistry */\n    tag_9:\n      callvalue\n      dup1\n      iszero\n      tag_59\n      jumpi\n      0x00\n      dup1\n      revert\n    tag_59:\n      pop\n      tag_60\n      0x04\n      dup1\n      calldatasize\n      sub\n      dup2\n      add\n      swap1\n      tag_61\n      swap2\n      swap1\n      tag_62\n      jump\t// in\n    tag_61:\n      tag_63\n      jump\t// in\n    tag_60:\n      mload(0x40)\n      tag_64\n      swap2\n      swap1\n      tag_65\n      jump\t// in\n    tag_64:\n      mload(0x40)\n      dup1\n      swap2\n      sub\n      swap1\n      return\n        /* \"MyHomeToken.sol\":4254:4487  function createBallot(string memory _ballotName, string memory _proposal) public {... */\n    tag_10:\n      callvalue\n      dup1\n      iszero\n      tag_66\n      jumpi\n      0x00\n      dup1\n      revert\n    tag_66:\n      pop\n      tag_67\n      0x04\n      dup1\n      calldatasize\n      sub\n      dup2\n      add\n      swap1\n      tag_68\n      swap2\n      swap1\n      tag_69\n      jump\t// in\n    tag_68:\n      tag_70\n      jump\t// in\n    tag_67:\n      stop\n        /* \"MyHomeToken.sol\":398:427  address[] public shareHolders */\n    tag_11:\n      callvalue\n      dup1\n      iszero\n      tag_71\n      jumpi\n      0x00\n      dup1\n      revert\n    tag_71:\n      pop\n      tag_72\n      0x04\n      dup1\n      calldatasize\n      sub\n      dup2\n      add\n      swap1\n      tag_73\n      swap2\n      swap1\n      tag_74\n      jump\t// in\n    tag_73:\n      tag_75\n      jump\t// in\n    tag_72:\n      mload(0x40)\n      tag_76\n      swap2\n      swap1\n      tag_77\n      jump\t// in\n    tag_76:\n      mload(0x40)\n      dup1\n      swap2\n      sub\n      swap1\n      return\n        /* \"MyHomeToken.sol\":660:682  string public proposal */\n    tag_12:\n      callvalue\n      dup1\n      iszero\n      tag_78\n      jumpi\n      0x00\n      dup1\n      revert\n    tag_78:\n      pop\n      tag_79\n      tag_80\n      jump\t// in\n    tag_79:\n      mload(0x40)\n      tag_81\n      swap2\n      swap1\n      tag_44\n      jump\t// in\n    tag_81:\n      mload(0x40)\n      dup1\n      swap2\n      sub\n      swap1\n      return\n        /* \"MyHomeToken.sol\":263:292  uint256 public tokenPrice = 1 */\n    tag_13:\n      callvalue\n      dup1\n      iszero\n      tag_82\n      jumpi\n      0x00\n      dup1\n      revert\n    tag_82:\n      pop\n      tag_83\n      tag_84\n      jump\t// in\n    tag_83:\n      mload(0x40)\n      tag_85\n      swap2\n      swap1\n      tag_35\n      jump\t// in\n    tag_85:\n      mload(0x40)\n      dup1\n      swap2\n      sub\n      swap1\n      return\n        /* \"MyHomeToken.sol\":4690:5296  function doVote(bool _choice)... */\n    tag_14:\n      callvalue\n      dup1\n      iszero\n      tag_86\n      jumpi\n      0x00\n      dup1\n      revert\n    tag_86:\n      pop\n      tag_87\n      0x04\n      dup1\n      calldatasize\n      sub\n      dup2\n      add\n      swap1\n      tag_88\n      swap2\n      swap1\n      tag_89\n      jump\t// in\n    tag_88:\n      tag_90\n      jump\t// in\n    tag_87:\n      mload(0x40)\n      tag_91\n      swap2\n      swap1\n      tag_65\n      jump\t// in\n    tag_91:\n      mload(0x40)\n      dup1\n      swap2\n      sub\n      swap1\n      return\n        /* \"MyHomeToken.sol\":94:122  address payable public owner */\n    tag_15:\n      callvalue\n      dup1\n      iszero\n      tag_92\n      jumpi\n      0x00\n      dup1\n      revert\n    tag_92:\n      pop\n      tag_93\n      tag_94\n      jump\t// in\n    tag_93:\n      mload(0x40)\n      tag_95\n      swap2\n      swap1\n      tag_96\n      jump\t// in\n    tag_95:\n      mload(0x40)\n      dup1\n      swap2\n      sub\n      swap1\n      return\n        /* \"MyHomeToken.sol\":334:367  uint public totalShareHolders = 0 */\n    tag_16:\n      callvalue\n      dup1\n      iszero\n      tag_97\n      jumpi\n      0x00\n      dup1\n      revert\n    tag_97:\n      pop\n      tag_98\n      tag_99\n      jump\t// in\n    tag_98:\n      mload(0x40)\n      tag_100\n      swap2\n      swap1\n      tag_35\n      jump\t// in\n    tag_100:\n      mload(0x40)\n      dup1\n      swap2\n      sub\n      swap1\n      return\n        /* \"MyHomeToken.sol\":158:186  House[] public houseRegister */\n    tag_17:\n      callvalue\n      dup1\n      iszero\n      tag_101\n      jumpi\n      0x00\n      dup1\n      revert\n    tag_101:\n      pop\n      tag_102\n      0x04\n      dup1\n      calldatasize\n      sub\n      dup2\n      add\n      swap1\n      tag_103\n      swap2\n      swap1\n      tag_74\n      jump\t// in\n    tag_103:\n      tag_104\n      jump\t// in\n    tag_102:\n      mload(0x40)\n      tag_105\n      swap4\n      swap3\n      swap2\n      swap1\n      tag_106\n      jump\t// in\n    tag_105:\n      mload(0x40)\n      dup1\n      swap2\n      sub\n      swap1\n      return\n        /* \"MyHomeToken.sol\":3241:3476  function transfer(address _to, uint256 _value) public {... */\n    tag_18:\n      callvalue\n      dup1\n      iszero\n      tag_107\n      jumpi\n      0x00\n      dup1\n      revert\n    tag_107:\n      pop\n      tag_108\n      0x04\n      dup1\n      calldatasize\n      sub\n      dup2\n      add\n      swap1\n      tag_109\n      swap2\n      swap1\n      tag_110\n      jump\t// in\n    tag_109:\n      tag_111\n      jump\t// in\n    tag_108:\n      stop\n        /* \"MyHomeToken.sol\":594:624  address public ballotInitiator */\n    tag_19:\n      callvalue\n      dup1\n      iszero\n      tag_112\n      jumpi\n      0x00\n      dup1\n      revert\n    tag_112:\n      pop\n      tag_113\n      tag_114\n      jump\t// in\n    tag_113:\n      mload(0x40)\n      tag_115\n      swap2\n      swap1\n      tag_77\n      jump\t// in\n    tag_115:\n      mload(0x40)\n      dup1\n      swap2\n      sub\n      swap1\n      return\n        /* \"MyHomeToken.sol\":2863:3235  function addShareHolder(address _shareHolderAddress)... */\n    tag_20:\n      callvalue\n      dup1\n      iszero\n      tag_116\n      jumpi\n      0x00\n      dup1\n      revert\n    tag_116:\n      pop\n      tag_117\n      0x04\n      dup1\n      calldatasize\n      sub\n      dup2\n      add\n      swap1\n      tag_118\n      swap2\n      swap1\n      tag_62\n      jump\t// in\n    tag_118:\n      tag_119\n      jump\t// in\n    tag_117:\n      stop\n        /* \"MyHomeToken.sol\":5306:5534  function endVote()... */\n    tag_21:\n      callvalue\n      dup1\n      iszero\n      tag_120\n      jumpi\n      0x00\n      dup1\n      revert\n    tag_120:\n      pop\n      tag_121\n      tag_122\n      jump\t// in\n    tag_121:\n      stop\n        /* \"MyHomeToken.sol\":2004:2108  function etherBalance(address _addr) public view returns (uint256) {... */\n    tag_22:\n      callvalue\n      dup1\n      iszero\n      tag_123\n      jumpi\n      0x00\n      dup1\n      revert\n    tag_123:\n      pop\n      tag_124\n      0x04\n      dup1\n      calldatasize\n      sub\n      dup2\n      add\n      swap1\n      tag_125\n      swap2\n      swap1\n      tag_62\n      jump\t// in\n    tag_125:\n      tag_126\n      jump\t// in\n    tag_124:\n      mload(0x40)\n      tag_127\n      swap2\n      swap1\n      tag_35\n      jump\t// in\n    tag_127:\n      mload(0x40)\n      dup1\n      swap2\n      sub\n      swap1\n      return\n        /* \"MyHomeToken.sol\":128:152  HousingPackage public hp */\n    tag_23:\n      callvalue\n      dup1\n      iszero\n      tag_128\n      jumpi\n      0x00\n      dup1\n      revert\n    tag_128:\n      pop\n      tag_129\n      tag_130\n      jump\t// in\n    tag_129:\n      mload(0x40)\n      tag_131\n      swap4\n      swap3\n      swap2\n      swap1\n      tag_106\n      jump\t// in\n    tag_131:\n      mload(0x40)\n      dup1\n      swap2\n      sub\n      swap1\n      return\n        /* \"MyHomeToken.sol\":3482:4012  function buy(uint256 _amount) external payable {... */\n    tag_24:\n      tag_132\n      0x04\n      dup1\n      calldatasize\n      sub\n      dup2\n      add\n      swap1\n      tag_133\n      swap2\n      swap1\n      tag_74\n      jump\t// in\n    tag_133:\n      tag_134\n      jump\t// in\n    tag_132:\n      stop\n        /* \"MyHomeToken.sol\":2208:2578  function addHouse(string memory _registrationId, string memory location, uint256 price) ... */\n    tag_25:\n      callvalue\n      dup1\n      iszero\n      tag_135\n      jumpi\n      0x00\n      dup1\n      revert\n    tag_135:\n      pop\n      tag_136\n      0x04\n      dup1\n      calldatasize\n      sub\n      dup2\n      add\n      swap1\n      tag_137\n      swap2\n      swap1\n      tag_138\n      jump\t// in\n    tag_137:\n      tag_139\n      jump\t// in\n    tag_136:\n      stop\n        /* \"MyHomeToken.sol\":722:749  uint public finalResult = 0 */\n    tag_26:\n      callvalue\n      dup1\n      iszero\n      tag_140\n      jumpi\n      0x00\n      dup1\n      revert\n    tag_140:\n      pop\n      tag_141\n      tag_142\n      jump\t// in\n    tag_141:\n      mload(0x40)\n      tag_143\n      swap2\n      swap1\n      tag_35\n      jump\t// in\n    tag_143:\n      mload(0x40)\n      dup1\n      swap2\n      sub\n      swap1\n      return\n        /* \"MyHomeToken.sol\":755:781  uint public totalVotes = 0 */\n    tag_33:\n      sload(0x13)\n      dup2\n      jump\t// out\n        /* \"MyHomeToken.sol\":192:219  uint public totalHouses = 0 */\n    tag_38:\n      sload(0x05)\n      dup2\n      jump\t// out\n        /* \"MyHomeToken.sol\":630:654  string public ballotName */\n    tag_42:\n      0x0f\n      dup1\n      sload\n      tag_144\n      swap1\n      tag_145\n      jump\t// in\n    tag_144:\n      dup1\n      0x1f\n      add\n      0x20\n      dup1\n      swap2\n      div\n      mul\n      0x20\n      add\n      mload(0x40)\n      swap1\n      dup2\n      add\n      0x40\n      mstore\n      dup1\n      swap3\n      swap2\n      swap1\n      dup2\n      dup2\n      mstore\n      0x20\n      add\n      dup3\n      dup1\n      sload\n      tag_146\n      swap1\n      tag_145\n      jump\t// in\n    tag_146:\n      dup1\n      iszero\n      tag_147\n      jumpi\n      dup1\n      0x1f\n      lt\n      tag_148\n      jumpi\n      0x0100\n      dup1\n      dup4\n      sload\n      div\n      mul\n      dup4\n      mstore\n      swap2\n      0x20\n      add\n      swap2\n      jump(tag_147)\n    tag_148:\n      dup3\n      add\n      swap2\n      swap1\n      0x00\n      mstore\n      keccak256(0x00, 0x20)\n      swap1\n    tag_149:\n      dup2\n      sload\n      dup2\n      mstore\n      swap1\n      0x01\n      add\n      swap1\n      0x20\n      add\n      dup1\n      dup4\n      gt\n      tag_149\n      jumpi\n      dup3\n      swap1\n      sub\n      0x1f\n      and\n      dup3\n      add\n      swap2\n    tag_147:\n      pop\n      pop\n      pop\n      pop\n      pop\n      dup2\n      jump\t// out\n        /* \"MyHomeToken.sol\":2119:2202  function startTrading() public onlyRegulator {... */\n    tag_47:\n        /* \"MyHomeToken.sol\":1465:1470  owner */\n      0x00\n      dup1\n      sload\n      swap1\n      0x0100\n      exp\n      swap1\n      div\n      0xffffffffffffffffffffffffffffffffffffffff\n      and\n        /* \"MyHomeToken.sol\":1451:1470  msg.sender == owner */\n      0xffffffffffffffffffffffffffffffffffffffff\n      and\n        /* \"MyHomeToken.sol\":1451:1461  msg.sender */\n      caller\n        /* \"MyHomeToken.sol\":1451:1470  msg.sender == owner */\n      0xffffffffffffffffffffffffffffffffffffffff\n      and\n      eq\n        /* \"MyHomeToken.sol\":1443:1471  require(msg.sender == owner) */\n      tag_151\n      jumpi\n      0x00\n      dup1\n      revert\n    tag_151:\n        /* \"MyHomeToken.sol\":2182:2195  State.Running */\n      0x01\n        /* \"MyHomeToken.sol\":2174:2179  state */\n      0x0a\n      0x00\n        /* \"MyHomeToken.sol\":2174:2195  state = State.Running */\n      0x0100\n      exp\n      dup2\n      sload\n      dup2\n      0xff\n      mul\n      not\n      and\n      swap1\n      dup4\n      0x01\n      dup2\n      gt\n      iszero\n      tag_153\n      jumpi\n      tag_154\n      tag_155\n      jump\t// in\n    tag_154:\n    tag_153:\n      mul\n      or\n      swap1\n      sstore\n      pop\n        /* \"MyHomeToken.sol\":2119:2202  function startTrading() public onlyRegulator {... */\n      jump\t// out\n        /* \"MyHomeToken.sol\":225:257  uint256 public totalShares = 100 */\n    tag_50:\n      sload(0x06)\n      dup2\n      jump\t// out\n        /* \"MyHomeToken.sol\":298:328  uint256 public shareLimit = 10 */\n    tag_54:\n      sload(0x08)\n      dup2\n      jump\t// out\n        /* \"MyHomeToken.sol\":4493:4684  function startVote()... */\n    tag_58:\n        /* \"MyHomeToken.sol\":4551:4570  BallotState.Created */\n      0x00\n        /* \"MyHomeToken.sol\":1715:1721  _state */\n      dup1\n        /* \"MyHomeToken.sol\":1700:1721  ballotState == _state */\n      0x02\n      dup2\n      gt\n      iszero\n      tag_157\n      jumpi\n      tag_158\n      tag_155\n      jump\t// in\n    tag_158:\n    tag_157:\n        /* \"MyHomeToken.sol\":1700:1711  ballotState */\n      0x0e\n      0x00\n      swap1\n      sload\n      swap1\n      0x0100\n      exp\n      swap1\n      div\n      0xff\n      and\n        /* \"MyHomeToken.sol\":1700:1721  ballotState == _state */\n      0x02\n      dup2\n      gt\n      iszero\n      tag_159\n      jumpi\n      tag_160\n      tag_155\n      jump\t// in\n    tag_160:\n    tag_159:\n      eq\n        /* \"MyHomeToken.sol\":1692:1722  require(ballotState == _state) */\n      tag_161\n      jumpi\n      0x00\n      dup1\n      revert\n    tag_161:\n        /* \"MyHomeToken.sol\":1617:1632  ballotInitiator */\n      0x0e\n      0x01\n      swap1\n      sload\n      swap1\n      0x0100\n      exp\n      swap1\n      div\n      0xffffffffffffffffffffffffffffffffffffffff\n      and\n        /* \"MyHomeToken.sol\":1603:1632  msg.sender == ballotInitiator */\n      0xffffffffffffffffffffffffffffffffffffffff\n      and\n        /* \"MyHomeToken.sol\":1603:1613  msg.sender */\n      caller\n        /* \"MyHomeToken.sol\":1603:1632  msg.sender == ballotInitiator */\n      0xffffffffffffffffffffffffffffffffffffffff\n      and\n      eq\n        /* \"MyHomeToken.sol\":1595:1633  require(msg.sender == ballotInitiator) */\n      tag_163\n      jumpi\n      0x00\n      dup1\n      revert\n    tag_163:\n        /* \"MyHomeToken.sol\":4628:4646  BallotState.Voting */\n      0x01\n        /* \"MyHomeToken.sol\":4614:4625  ballotState */\n      0x0e\n      0x00\n        /* \"MyHomeToken.sol\":4614:4646  ballotState = BallotState.Voting */\n      0x0100\n      exp\n      dup2\n      sload\n      dup2\n      0xff\n      mul\n      not\n      and\n      swap1\n      dup4\n      0x02\n      dup2\n      gt\n      iszero\n      tag_165\n      jumpi\n      tag_166\n      tag_155\n      jump\t// in\n    tag_166:\n    tag_165:\n      mul\n      or\n      swap1\n      sstore\n      pop\n        /* \"MyHomeToken.sol\":4664:4677  voteStarted() */\n      0xd0dc01800a369fef30d3fced5275b8b916549867622e79efca5245c479fda4ea\n      mload(0x40)\n      mload(0x40)\n      dup1\n      swap2\n      sub\n      swap1\n      log1\n        /* \"MyHomeToken.sol\":4493:4684  function startVote()... */\n      pop\n      jump\t// out\n        /* \"MyHomeToken.sol\":433:484  mapping(address => bool) public shareHolderRegistry */\n    tag_63:\n      mstore(0x20, 0x0c)\n      dup1\n      0x00\n      mstore\n      keccak256(0x00, 0x40)\n      0x00\n      swap2\n      pop\n      sload\n      swap1\n      0x0100\n      exp\n      swap1\n      div\n      0xff\n      and\n      dup2\n      jump\t// out\n        /* \"MyHomeToken.sol\":4254:4487  function createBallot(string memory _ballotName, string memory _proposal) public {... */\n    tag_70:\n        /* \"MyHomeToken.sol\":4359:4378  BallotState.Created */\n      0x00\n        /* \"MyHomeToken.sol\":4345:4356  ballotState */\n      0x0e\n      0x00\n        /* \"MyHomeToken.sol\":4345:4378  ballotState = BallotState.Created */\n      0x0100\n      exp\n      dup2\n      sload\n      dup2\n      0xff\n      mul\n      not\n      and\n      swap1\n      dup4\n      0x02\n      dup2\n      gt\n      iszero\n      tag_168\n      jumpi\n      tag_169\n      tag_155\n      jump\t// in\n    tag_169:\n    tag_168:\n      mul\n      or\n      swap1\n      sstore\n      pop\n        /* \"MyHomeToken.sol\":4401:4412  _ballotName */\n      dup2\n        /* \"MyHomeToken.sol\":4388:4398  ballotName */\n      0x0f\n        /* \"MyHomeToken.sol\":4388:4412  ballotName = _ballotName */\n      swap1\n      dup1\n      mload\n      swap1\n      0x20\n      add\n      swap1\n      tag_170\n      swap3\n      swap2\n      swap1\n      tag_171\n      jump\t// in\n    tag_170:\n      pop\n        /* \"MyHomeToken.sol\":4433:4442  _proposal */\n      dup1\n        /* \"MyHomeToken.sol\":4422:4430  proposal */\n      0x10\n        /* \"MyHomeToken.sol\":4422:4442  proposal = _proposal */\n      swap1\n      dup1\n      mload\n      swap1\n      0x20\n      add\n      swap1\n      tag_172\n      swap3\n      swap2\n      swap1\n      tag_171\n      jump\t// in\n    tag_172:\n      pop\n        /* \"MyHomeToken.sol\":4470:4480  msg.sender */\n      caller\n        /* \"MyHomeToken.sol\":4452:4467  ballotInitiator */\n      0x0e\n      0x01\n        /* \"MyHomeToken.sol\":4452:4480  ballotInitiator = msg.sender */\n      0x0100\n      exp\n      dup2\n      sload\n      dup2\n      0xffffffffffffffffffffffffffffffffffffffff\n      mul\n      not\n      and\n      swap1\n      dup4\n      0xffffffffffffffffffffffffffffffffffffffff\n      and\n      mul\n      or\n      swap1\n      sstore\n      pop\n        /* \"MyHomeToken.sol\":4254:4487  function createBallot(string memory _ballotName, string memory _proposal) public {... */\n      pop\n      pop\n      jump\t// out\n        /* \"MyHomeToken.sol\":398:427  address[] public shareHolders */\n    tag_75:\n      0x0b\n      dup2\n      dup2\n      sload\n      dup2\n      lt\n      tag_173\n      jumpi\n      0x00\n      dup1\n      revert\n    tag_173:\n      swap1\n      0x00\n      mstore\n      keccak256(0x00, 0x20)\n      add\n      0x00\n      swap2\n      pop\n      sload\n      swap1\n      0x0100\n      exp\n      swap1\n      div\n      0xffffffffffffffffffffffffffffffffffffffff\n      and\n      dup2\n      jump\t// out\n        /* \"MyHomeToken.sol\":660:682  string public proposal */\n    tag_80:\n      0x10\n      dup1\n      sload\n      tag_175\n      swap1\n      tag_145\n      jump\t// in\n    tag_175:\n      dup1\n      0x1f\n      add\n      0x20\n      dup1\n      swap2\n      div\n      mul\n      0x20\n      add\n      mload(0x40)\n      swap1\n      dup2\n      add\n      0x40\n      mstore\n      dup1\n      swap3\n      swap2\n      swap1\n      dup2\n      dup2\n      mstore\n      0x20\n      add\n      dup3\n      dup1\n      sload\n      tag_176\n      swap1\n      tag_145\n      jump\t// in\n    tag_176:\n      dup1\n      iszero\n      tag_177\n      jumpi\n      dup1\n      0x1f\n      lt\n      tag_178\n      jumpi\n      0x0100\n      dup1\n      dup4\n      sload\n      div\n      mul\n      dup4\n      mstore\n      swap2\n      0x20\n      add\n      swap2\n      jump(tag_177)\n    tag_178:\n      dup3\n      add\n      swap2\n      swap1\n      0x00\n      mstore\n      keccak256(0x00, 0x20)\n      swap1\n    tag_179:\n      dup2\n      sload\n      dup2\n      mstore\n      swap1\n      0x01\n      add\n      swap1\n      0x20\n      add\n      dup1\n      dup4\n      gt\n      tag_179\n      jumpi\n      dup3\n      swap1\n      sub\n      0x1f\n      and\n      dup3\n      add\n      swap2\n    tag_177:\n      pop\n      pop\n      pop\n      pop\n      pop\n      dup2\n      jump\t// out\n        /* \"MyHomeToken.sol\":263:292  uint256 public tokenPrice = 1 */\n    tag_84:\n      sload(0x07)\n      dup2\n      jump\t// out\n        /* \"MyHomeToken.sol\":4690:5296  function doVote(bool _choice)... */\n    tag_90:\n        /* \"MyHomeToken.sol\":4794:4804  bool voted */\n      0x00\n        /* \"MyHomeToken.sol\":4757:4775  BallotState.Voting */\n      0x01\n        /* \"MyHomeToken.sol\":1715:1721  _state */\n      dup1\n        /* \"MyHomeToken.sol\":1700:1721  ballotState == _state */\n      0x02\n      dup2\n      gt\n      iszero\n      tag_181\n      jumpi\n      tag_182\n      tag_155\n      jump\t// in\n    tag_182:\n    tag_181:\n        /* \"MyHomeToken.sol\":1700:1711  ballotState */\n      0x0e\n      0x00\n      swap1\n      sload\n      swap1\n      0x0100\n      exp\n      swap1\n      div\n      0xff\n      and\n        /* \"MyHomeToken.sol\":1700:1721  ballotState == _state */\n      0x02\n      dup2\n      gt\n      iszero\n      tag_183\n      jumpi\n      tag_184\n      tag_155\n      jump\t// in\n    tag_184:\n    tag_183:\n      eq\n        /* \"MyHomeToken.sol\":1692:1722  require(ballotState == _state) */\n      tag_185\n      jumpi\n      0x00\n      dup1\n      revert\n    tag_185:\n        /* \"MyHomeToken.sol\":4820:4830  bool found */\n      0x00\n        /* \"MyHomeToken.sol\":4853:4872  shareHolderRegistry */\n      0x0c\n        /* \"MyHomeToken.sol\":4853:4884  shareHolderRegistry[msg.sender] */\n      0x00\n        /* \"MyHomeToken.sol\":4873:4883  msg.sender */\n      caller\n        /* \"MyHomeToken.sol\":4853:4884  shareHolderRegistry[msg.sender] */\n      0xffffffffffffffffffffffffffffffffffffffff\n      and\n      0xffffffffffffffffffffffffffffffffffffffff\n      and\n      dup2\n      mstore\n      0x20\n      add\n      swap1\n      dup2\n      mstore\n      0x20\n      add\n      0x00\n      keccak256\n      0x00\n      swap1\n      sload\n      swap1\n      0x0100\n      exp\n      swap1\n      div\n      0xff\n      and\n        /* \"MyHomeToken.sol\":4848:5233  if (!shareHolderRegistry[msg.sender]){... */\n      tag_187\n      jumpi\n        /* \"MyHomeToken.sol\":4933:4937  true */\n      0x01\n        /* \"MyHomeToken.sol\":4899:4918  shareHolderRegistry */\n      0x0c\n        /* \"MyHomeToken.sol\":4899:4930  shareHolderRegistry[msg.sender] */\n      0x00\n        /* \"MyHomeToken.sol\":4919:4929  msg.sender */\n      caller\n        /* \"MyHomeToken.sol\":4899:4930  shareHolderRegistry[msg.sender] */\n      0xffffffffffffffffffffffffffffffffffffffff\n      and\n      0xffffffffffffffffffffffffffffffffffffffff\n      and\n      dup2\n      mstore\n      0x20\n      add\n      swap1\n      dup2\n      mstore\n      0x20\n      add\n      0x00\n      keccak256\n      0x00\n        /* \"MyHomeToken.sol\":4899:4937  shareHolderRegistry[msg.sender] = true */\n      0x0100\n      exp\n      dup2\n      sload\n      dup2\n      0xff\n      mul\n      not\n      and\n      swap1\n      dup4\n      iszero\n      iszero\n      mul\n      or\n      swap1\n      sstore\n      pop\n        /* \"MyHomeToken.sol\":4951:4964  Vote memory v */\n      tag_188\n      tag_189\n      jump\t// in\n    tag_188:\n        /* \"MyHomeToken.sol\":5001:5011  msg.sender */\n      caller\n        /* \"MyHomeToken.sol\":4978:4979  v */\n      dup2\n        /* \"MyHomeToken.sol\":4978:4998  v.shareHolderAddress */\n      0x00\n      add\n        /* \"MyHomeToken.sol\":4978:5011  v.shareHolderAddress = msg.sender */\n      swap1\n      0xffffffffffffffffffffffffffffffffffffffff\n      and\n      swap1\n      dup2\n      0xffffffffffffffffffffffffffffffffffffffff\n      and\n      dup2\n      mstore\n      pop\n      pop\n        /* \"MyHomeToken.sol\":5036:5043  _choice */\n      dup5\n        /* \"MyHomeToken.sol\":5025:5026  v */\n      dup2\n        /* \"MyHomeToken.sol\":5025:5033  v.choice */\n      0x20\n      add\n        /* \"MyHomeToken.sol\":5025:5043  v.choice = _choice */\n      swap1\n      iszero\n      iszero\n      swap1\n      dup2\n      iszero\n      iszero\n      dup2\n      mstore\n      pop\n      pop\n        /* \"MyHomeToken.sol\":5061:5068  _choice */\n      dup5\n        /* \"MyHomeToken.sol\":5057:5136  if (_choice){... */\n      iszero\n      tag_190\n      jumpi\n        /* \"MyHomeToken.sol\":5087:5098  resultCount */\n      0x11\n      0x00\n        /* \"MyHomeToken.sol\":5087:5100  resultCount++ */\n      dup2\n      sload\n      dup1\n      swap3\n      swap2\n      swap1\n      tag_191\n      swap1\n      tag_192\n      jump\t// in\n    tag_191:\n      swap2\n      swap1\n      pop\n      sstore\n      pop\n        /* \"MyHomeToken.sol\":5057:5136  if (_choice){... */\n    tag_190:\n        /* \"MyHomeToken.sol\":5169:5170  v */\n      dup1\n        /* \"MyHomeToken.sol\":5149:5154  votes */\n      0x14\n        /* \"MyHomeToken.sol\":5149:5166  votes[totalVotes] */\n      0x00\n        /* \"MyHomeToken.sol\":5155:5165  totalVotes */\n      sload(0x13)\n        /* \"MyHomeToken.sol\":5149:5166  votes[totalVotes] */\n      dup2\n      mstore\n      0x20\n      add\n      swap1\n      dup2\n      mstore\n      0x20\n      add\n      0x00\n      keccak256\n        /* \"MyHomeToken.sol\":5149:5170  votes[totalVotes] = v */\n      0x00\n      dup3\n      add\n      mload\n      dup2\n      0x00\n      add\n      exp(0x0100, 0x00)\n      dup2\n      sload\n      dup2\n      0xffffffffffffffffffffffffffffffffffffffff\n      mul\n      not\n      and\n      swap1\n      dup4\n      0xffffffffffffffffffffffffffffffffffffffff\n      and\n      mul\n      or\n      swap1\n      sstore\n      pop\n      0x20\n      dup3\n      add\n      mload\n      dup2\n      0x00\n      add\n      exp(0x0100, 0x14)\n      dup2\n      sload\n      dup2\n      0xff\n      mul\n      not\n      and\n      swap1\n      dup4\n      iszero\n      iszero\n      mul\n      or\n      swap1\n      sstore\n      pop\n      swap1\n      pop\n      pop\n        /* \"MyHomeToken.sol\":5184:5194  totalVotes */\n      0x13\n      0x00\n        /* \"MyHomeToken.sol\":5184:5196  totalVotes++ */\n      dup2\n      sload\n      dup1\n      swap3\n      swap2\n      swap1\n      tag_193\n      swap1\n      tag_192\n      jump\t// in\n    tag_193:\n      swap2\n      swap1\n      pop\n      sstore\n      pop\n        /* \"MyHomeToken.sol\":5218:5222  true */\n      0x01\n        /* \"MyHomeToken.sol\":5210:5222  found = true */\n      swap2\n      pop\n        /* \"MyHomeToken.sol\":4885:5233  {... */\n      pop\n        /* \"MyHomeToken.sol\":4848:5233  if (!shareHolderRegistry[msg.sender]){... */\n    tag_187:\n        /* \"MyHomeToken.sol\":5247:5267  voteDone(msg.sender) */\n      0x55c65cf9526efdf6c2252fe9757889dbd93e10172cad0f2edb1df619c88dbf7d\n        /* \"MyHomeToken.sol\":5256:5266  msg.sender */\n      caller\n        /* \"MyHomeToken.sol\":5247:5267  voteDone(msg.sender) */\n      mload(0x40)\n      tag_194\n      swap2\n      swap1\n      tag_77\n      jump\t// in\n    tag_194:\n      mload(0x40)\n      dup1\n      swap2\n      sub\n      swap1\n      log1\n        /* \"MyHomeToken.sol\":5284:5289  found */\n      dup1\n        /* \"MyHomeToken.sol\":5277:5289  return found */\n      swap3\n      pop\n      pop\n        /* \"MyHomeToken.sol\":4690:5296  function doVote(bool _choice)... */\n      pop\n      swap2\n      swap1\n      pop\n      jump\t// out\n        /* \"MyHomeToken.sol\":94:122  address payable public owner */\n    tag_94:\n      0x00\n      dup1\n      sload\n      swap1\n      0x0100\n      exp\n      swap1\n      div\n      0xffffffffffffffffffffffffffffffffffffffff\n      and\n      dup2\n      jump\t// out\n        /* \"MyHomeToken.sol\":334:367  uint public totalShareHolders = 0 */\n    tag_99:\n      sload(0x09)\n      dup2\n      jump\t// out\n        /* \"MyHomeToken.sol\":158:186  House[] public houseRegister */\n    tag_104:\n      0x04\n      dup2\n      dup2\n      sload\n      dup2\n      lt\n      tag_195\n      jumpi\n      0x00\n      dup1\n      revert\n    tag_195:\n      swap1\n      0x00\n      mstore\n      keccak256(0x00, 0x20)\n      swap1\n      0x03\n      mul\n      add\n      0x00\n      swap2\n      pop\n      swap1\n      pop\n      dup1\n      0x00\n      add\n      dup1\n      sload\n      tag_197\n      swap1\n      tag_145\n      jump\t// in\n    tag_197:\n      dup1\n      0x1f\n      add\n      0x20\n      dup1\n      swap2\n      div\n      mul\n      0x20\n      add\n      mload(0x40)\n      swap1\n      dup2\n      add\n      0x40\n      mstore\n      dup1\n      swap3\n      swap2\n      swap1\n      dup2\n      dup2\n      mstore\n      0x20\n      add\n      dup3\n      dup1\n      sload\n      tag_198\n      swap1\n      tag_145\n      jump\t// in\n    tag_198:\n      dup1\n      iszero\n      tag_199\n      jumpi\n      dup1\n      0x1f\n      lt\n      tag_200\n      jumpi\n      0x0100\n      dup1\n      dup4\n      sload\n      div\n      mul\n      dup4\n      mstore\n      swap2\n      0x20\n      add\n      swap2\n      jump(tag_199)\n    tag_200:\n      dup3\n      add\n      swap2\n      swap1\n      0x00\n      mstore\n      keccak256(0x00, 0x20)\n      swap1\n    tag_201:\n      dup2\n      sload\n      dup2\n      mstore\n      swap1\n      0x01\n      add\n      swap1\n      0x20\n      add\n      dup1\n      dup4\n      gt\n      tag_201\n      jumpi\n      dup3\n      swap1\n      sub\n      0x1f\n      and\n      dup3\n      add\n      swap2\n    tag_199:\n      pop\n      pop\n      pop\n      pop\n      pop\n      swap1\n      dup1\n      0x01\n      add\n      dup1\n      sload\n      tag_202\n      swap1\n      tag_145\n      jump\t// in\n    tag_202:\n      dup1\n      0x1f\n      add\n      0x20\n      dup1\n      swap2\n      div\n      mul\n      0x20\n      add\n      mload(0x40)\n      swap1\n      dup2\n      add\n      0x40\n      mstore\n      dup1\n      swap3\n      swap2\n      swap1\n      dup2\n      dup2\n      mstore\n      0x20\n      add\n      dup3\n      dup1\n      sload\n      tag_203\n      swap1\n      tag_145\n      jump\t// in\n    tag_203:\n      dup1\n      iszero\n      tag_204\n      jumpi\n      dup1\n      0x1f\n      lt\n      tag_205\n      jumpi\n      0x0100\n      dup1\n      dup4\n      sload\n      div\n      mul\n      dup4\n      mstore\n      swap2\n      0x20\n      add\n      swap2\n      jump(tag_204)\n    tag_205:\n      dup3\n      add\n      swap2\n      swap1\n      0x00\n      mstore\n      keccak256(0x00, 0x20)\n      swap1\n    tag_206:\n      dup2\n      sload\n      dup2\n      mstore\n      swap1\n      0x01\n      add\n      swap1\n      0x20\n      add\n      dup1\n      dup4\n      gt\n      tag_206\n      jumpi\n      dup3\n      swap1\n      sub\n      0x1f\n      and\n      dup3\n      add\n      swap2\n    tag_204:\n      pop\n      pop\n      pop\n      pop\n      pop\n      swap1\n      dup1\n      0x02\n      add\n      sload\n      swap1\n      pop\n      dup4\n      jump\t// out\n        /* \"MyHomeToken.sol\":3241:3476  function transfer(address _to, uint256 _value) public {... */\n    tag_111:\n        /* \"MyHomeToken.sol\":3342:3348  _value */\n      dup1\n        /* \"MyHomeToken.sol\":3317:3326  balanceOf */\n      0x0d\n        /* \"MyHomeToken.sol\":3317:3338  balanceOf[msg.sender] */\n      0x00\n        /* \"MyHomeToken.sol\":3327:3337  msg.sender */\n      caller\n        /* \"MyHomeToken.sol\":3317:3338  balanceOf[msg.sender] */\n      0xffffffffffffffffffffffffffffffffffffffff\n      and\n      0xffffffffffffffffffffffffffffffffffffffff\n      and\n      dup2\n      mstore\n      0x20\n      add\n      swap1\n      dup2\n      mstore\n      0x20\n      add\n      0x00\n      keccak256\n      sload\n        /* \"MyHomeToken.sol\":3317:3348  balanceOf[msg.sender] >= _value */\n      lt\n      iszero\n        /* \"MyHomeToken.sol\":3308:3349  require (balanceOf[msg.sender] >= _value) */\n      tag_208\n      jumpi\n      0x00\n      dup1\n      revert\n    tag_208:\n        /* \"MyHomeToken.sol\":3384:3389  owner */\n      0x00\n      dup1\n      sload\n      swap1\n      0x0100\n      exp\n      swap1\n      div\n      0xffffffffffffffffffffffffffffffffffffffff\n      and\n        /* \"MyHomeToken.sol\":3370:3389  msg.sender == owner */\n      0xffffffffffffffffffffffffffffffffffffffff\n      and\n        /* \"MyHomeToken.sol\":3370:3380  msg.sender */\n      caller\n        /* \"MyHomeToken.sol\":3370:3389  msg.sender == owner */\n      0xffffffffffffffffffffffffffffffffffffffff\n      and\n      eq\n        /* \"MyHomeToken.sol\":3362:3390  require(msg.sender == owner) */\n      tag_209\n      jumpi\n      0x00\n      dup1\n      revert\n    tag_209:\n        /* \"MyHomeToken.sol\":3428:3434  _value */\n      dup1\n        /* \"MyHomeToken.sol\":3403:3412  balanceOf */\n      0x0d\n        /* \"MyHomeToken.sol\":3403:3424  balanceOf[msg.sender] */\n      0x00\n        /* \"MyHomeToken.sol\":3413:3423  msg.sender */\n      caller\n        /* \"MyHomeToken.sol\":3403:3424  balanceOf[msg.sender] */\n      0xffffffffffffffffffffffffffffffffffffffff\n      and\n      0xffffffffffffffffffffffffffffffffffffffff\n      and\n      dup2\n      mstore\n      0x20\n      add\n      swap1\n      dup2\n      mstore\n      0x20\n      add\n      0x00\n      keccak256\n      0x00\n        /* \"MyHomeToken.sol\":3403:3434  balanceOf[msg.sender] -= _value */\n      dup3\n      dup3\n      sload\n      tag_210\n      swap2\n      swap1\n      tag_211\n      jump\t// in\n    tag_210:\n      swap3\n      pop\n      pop\n      dup2\n      swap1\n      sstore\n      pop\n        /* \"MyHomeToken.sol\":3463:3469  _value */\n      dup1\n        /* \"MyHomeToken.sol\":3447:3456  balanceOf */\n      0x0d\n        /* \"MyHomeToken.sol\":3447:3461  balanceOf[_to] */\n      0x00\n        /* \"MyHomeToken.sol\":3457:3460  _to */\n      dup5\n        /* \"MyHomeToken.sol\":3447:3461  balanceOf[_to] */\n      0xffffffffffffffffffffffffffffffffffffffff\n      and\n      0xffffffffffffffffffffffffffffffffffffffff\n      and\n      dup2\n      mstore\n      0x20\n      add\n      swap1\n      dup2\n      mstore\n      0x20\n      add\n      0x00\n      keccak256\n      0x00\n        /* \"MyHomeToken.sol\":3447:3469  balanceOf[_to]+=_value */\n      dup3\n      dup3\n      sload\n      tag_212\n      swap2\n      swap1\n      tag_213\n      jump\t// in\n    tag_212:\n      swap3\n      pop\n      pop\n      dup2\n      swap1\n      sstore\n      pop\n        /* \"MyHomeToken.sol\":3241:3476  function transfer(address _to, uint256 _value) public {... */\n      pop\n      pop\n      jump\t// out\n        /* \"MyHomeToken.sol\":594:624  address public ballotInitiator */\n    tag_114:\n      0x0e\n      0x01\n      swap1\n      sload\n      swap1\n      0x0100\n      exp\n      swap1\n      div\n      0xffffffffffffffffffffffffffffffffffffffff\n      and\n      dup2\n      jump\t// out\n        /* \"MyHomeToken.sol\":2863:3235  function addShareHolder(address _shareHolderAddress)... */\n    tag_119:\n        /* \"MyHomeToken.sol\":1465:1470  owner */\n      0x00\n      dup1\n      sload\n      swap1\n      0x0100\n      exp\n      swap1\n      div\n      0xffffffffffffffffffffffffffffffffffffffff\n      and\n        /* \"MyHomeToken.sol\":1451:1470  msg.sender == owner */\n      0xffffffffffffffffffffffffffffffffffffffff\n      and\n        /* \"MyHomeToken.sol\":1451:1461  msg.sender */\n      caller\n        /* \"MyHomeToken.sol\":1451:1470  msg.sender == owner */\n      0xffffffffffffffffffffffffffffffffffffffff\n      and\n      eq\n        /* \"MyHomeToken.sol\":1443:1471  require(msg.sender == owner) */\n      tag_215\n      jumpi\n      0x00\n      dup1\n      revert\n    tag_215:\n        /* \"MyHomeToken.sol\":2975:3004  contains(_shareHolderAddress) */\n      tag_217\n        /* \"MyHomeToken.sol\":2984:3003  _shareHolderAddress */\n      dup2\n        /* \"MyHomeToken.sol\":2975:2983  contains */\n      tag_218\n        /* \"MyHomeToken.sol\":2975:3004  contains(_shareHolderAddress) */\n      jump\t// in\n    tag_217:\n        /* \"MyHomeToken.sol\":2971:3220  if(!contains(_shareHolderAddress)) {... */\n      tag_219\n      jumpi\n        /* \"MyHomeToken.sol\":3063:3068  false */\n      0x00\n        /* \"MyHomeToken.sol\":3020:3039  shareHolderRegistry */\n      0x0c\n        /* \"MyHomeToken.sol\":3020:3060  shareHolderRegistry[_shareHolderAddress] */\n      0x00\n        /* \"MyHomeToken.sol\":3040:3059  _shareHolderAddress */\n      dup4\n        /* \"MyHomeToken.sol\":3020:3060  shareHolderRegistry[_shareHolderAddress] */\n      0xffffffffffffffffffffffffffffffffffffffff\n      and\n      0xffffffffffffffffffffffffffffffffffffffff\n      and\n      dup2\n      mstore\n      0x20\n      add\n      swap1\n      dup2\n      mstore\n      0x20\n      add\n      0x00\n      keccak256\n      0x00\n        /* \"MyHomeToken.sol\":3020:3068  shareHolderRegistry[_shareHolderAddress] = false */\n      0x0100\n      exp\n      dup2\n      sload\n      dup2\n      0xff\n      mul\n      not\n      and\n      swap1\n      dup4\n      iszero\n      iszero\n      mul\n      or\n      swap1\n      sstore\n      pop\n        /* \"MyHomeToken.sol\":3082:3094  shareHolders */\n      0x0b\n        /* \"MyHomeToken.sol\":3100:3119  _shareHolderAddress */\n      dup2\n        /* \"MyHomeToken.sol\":3082:3120  shareHolders.push(_shareHolderAddress) */\n      swap1\n      dup1\n      0x01\n      dup2\n      sload\n      add\n      dup1\n      dup3\n      sstore\n      dup1\n      swap2\n      pop\n      pop\n      0x01\n      swap1\n      sub\n      swap1\n      0x00\n      mstore\n      keccak256(0x00, 0x20)\n      add\n      0x00\n      swap1\n      swap2\n      swap1\n      swap2\n      swap1\n      swap2\n      0x0100\n      exp\n      dup2\n      sload\n      dup2\n      0xffffffffffffffffffffffffffffffffffffffff\n      mul\n      not\n      and\n      swap1\n      dup4\n      0xffffffffffffffffffffffffffffffffffffffff\n      and\n      mul\n      or\n      swap1\n      sstore\n      pop\n        /* \"MyHomeToken.sol\":3134:3151  totalShareHolders */\n      0x09\n      0x00\n        /* \"MyHomeToken.sol\":3134:3153  totalShareHolders++ */\n      dup2\n      sload\n      dup1\n      swap3\n      swap2\n      swap1\n      tag_221\n      swap1\n      tag_192\n      jump\t// in\n    tag_221:\n      swap2\n      swap1\n      pop\n      sstore\n      pop\n        /* \"MyHomeToken.sol\":3172:3209  ShareHolderAdded(_shareHolderAddress) */\n      0x30040c92e8da146ac410fb6841ea0f60af3b8f3788e5e7354e48d97d018f39dd\n        /* \"MyHomeToken.sol\":3189:3208  _shareHolderAddress */\n      dup2\n        /* \"MyHomeToken.sol\":3172:3209  ShareHolderAdded(_shareHolderAddress) */\n      mload(0x40)\n      tag_222\n      swap2\n      swap1\n      tag_77\n      jump\t// in\n    tag_222:\n      mload(0x40)\n      dup1\n      swap2\n      sub\n      swap1\n      log1\n        /* \"MyHomeToken.sol\":2971:3220  if(!contains(_shareHolderAddress)) {... */\n    tag_219:\n        /* \"MyHomeToken.sol\":2863:3235  function addShareHolder(address _shareHolderAddress)... */\n      pop\n      jump\t// out\n        /* \"MyHomeToken.sol\":5306:5534  function endVote()... */\n    tag_122:\n        /* \"MyHomeToken.sol\":5362:5380  BallotState.Voting */\n      0x01\n        /* \"MyHomeToken.sol\":1715:1721  _state */\n      dup1\n        /* \"MyHomeToken.sol\":1700:1721  ballotState == _state */\n      0x02\n      dup2\n      gt\n      iszero\n      tag_224\n      jumpi\n      tag_225\n      tag_155\n      jump\t// in\n    tag_225:\n    tag_224:\n        /* \"MyHomeToken.sol\":1700:1711  ballotState */\n      0x0e\n      0x00\n      swap1\n      sload\n      swap1\n      0x0100\n      exp\n      swap1\n      div\n      0xff\n      and\n        /* \"MyHomeToken.sol\":1700:1721  ballotState == _state */\n      0x02\n      dup2\n      gt\n      iszero\n      tag_226\n      jumpi\n      tag_227\n      tag_155\n      jump\t// in\n    tag_227:\n    tag_226:\n      eq\n        /* \"MyHomeToken.sol\":1692:1722  require(ballotState == _state) */\n      tag_228\n      jumpi\n      0x00\n      dup1\n      revert\n    tag_228:\n        /* \"MyHomeToken.sol\":1617:1632  ballotInitiator */\n      0x0e\n      0x01\n      swap1\n      sload\n      swap1\n      0x0100\n      exp\n      swap1\n      div\n      0xffffffffffffffffffffffffffffffffffffffff\n      and\n        /* \"MyHomeToken.sol\":1603:1632  msg.sender == ballotInitiator */\n      0xffffffffffffffffffffffffffffffffffffffff\n      and\n        /* \"MyHomeToken.sol\":1603:1613  msg.sender */\n      caller\n        /* \"MyHomeToken.sol\":1603:1632  msg.sender == ballotInitiator */\n      0xffffffffffffffffffffffffffffffffffffffff\n      and\n      eq\n        /* \"MyHomeToken.sol\":1595:1633  require(msg.sender == ballotInitiator) */\n      tag_230\n      jumpi\n      0x00\n      dup1\n      revert\n    tag_230:\n        /* \"MyHomeToken.sol\":5438:5455  BallotState.Ended */\n      0x02\n        /* \"MyHomeToken.sol\":5424:5435  ballotState */\n      0x0e\n      0x00\n        /* \"MyHomeToken.sol\":5424:5455  ballotState = BallotState.Ended */\n      0x0100\n      exp\n      dup2\n      sload\n      dup2\n      0xff\n      mul\n      not\n      and\n      swap1\n      dup4\n      0x02\n      dup2\n      gt\n      iszero\n      tag_232\n      jumpi\n      tag_233\n      tag_155\n      jump\t// in\n    tag_233:\n    tag_232:\n      mul\n      or\n      swap1\n      sstore\n      pop\n        /* \"MyHomeToken.sol\":5479:5490  resultCount */\n      sload(0x11)\n        /* \"MyHomeToken.sol\":5465:5476  finalResult */\n      0x12\n        /* \"MyHomeToken.sol\":5465:5490  finalResult = resultCount */\n      dup2\n      swap1\n      sstore\n      pop\n        /* \"MyHomeToken.sol\":5505:5527  voteEnded(finalResult) */\n      0xb43a401dcdbe02a8afa41feb6c651425997908d1a4b79cf505188ba1dd3fd872\n        /* \"MyHomeToken.sol\":5515:5526  finalResult */\n      sload(0x12)\n        /* \"MyHomeToken.sol\":5505:5527  voteEnded(finalResult) */\n      mload(0x40)\n      tag_234\n      swap2\n      swap1\n      tag_35\n      jump\t// in\n    tag_234:\n      mload(0x40)\n      dup1\n      swap2\n      sub\n      swap1\n      log1\n        /* \"MyHomeToken.sol\":5306:5534  function endVote()... */\n      pop\n      jump\t// out\n        /* \"MyHomeToken.sol\":2004:2108  function etherBalance(address _addr) public view returns (uint256) {... */\n    tag_126:\n        /* \"MyHomeToken.sol\":2062:2069  uint256 */\n      0x00\n        /* \"MyHomeToken.sol\":2088:2093  _addr */\n      dup2\n        /* \"MyHomeToken.sol\":2088:2101  _addr.balance */\n      0xffffffffffffffffffffffffffffffffffffffff\n      and\n      balance\n        /* \"MyHomeToken.sol\":2081:2101  return _addr.balance */\n      swap1\n      pop\n        /* \"MyHomeToken.sol\":2004:2108  function etherBalance(address _addr) public view returns (uint256) {... */\n      swap2\n      swap1\n      pop\n      jump\t// out\n        /* \"MyHomeToken.sol\":128:152  HousingPackage public hp */\n    tag_130:\n      0x01\n      dup1\n      0x00\n      add\n      dup1\n      sload\n      tag_236\n      swap1\n      tag_145\n      jump\t// in\n    tag_236:\n      dup1\n      0x1f\n      add\n      0x20\n      dup1\n      swap2\n      div\n      mul\n      0x20\n      add\n      mload(0x40)\n      swap1\n      dup2\n      add\n      0x40\n      mstore\n      dup1\n      swap3\n      swap2\n      swap1\n      dup2\n      dup2\n      mstore\n      0x20\n      add\n      dup3\n      dup1\n      sload\n      tag_237\n      swap1\n      tag_145\n      jump\t// in\n    tag_237:\n      dup1\n      iszero\n      tag_238\n      jumpi\n      dup1\n      0x1f\n      lt\n      tag_239\n      jumpi\n      0x0100\n      dup1\n      dup4\n      sload\n      div\n      mul\n      dup4\n      mstore\n      swap2\n      0x20\n      add\n      swap2\n      jump(tag_238)\n    tag_239:\n      dup3\n      add\n      swap2\n      swap1\n      0x00\n      mstore\n      keccak256(0x00, 0x20)\n      swap1\n    tag_240:\n      dup2\n      sload\n      dup2\n      mstore\n      swap1\n      0x01\n      add\n      swap1\n      0x20\n      add\n      dup1\n      dup4\n      gt\n      tag_240\n      jumpi\n      dup3\n      swap1\n      sub\n      0x1f\n      and\n      dup3\n      add\n      swap2\n    tag_238:\n      pop\n      pop\n      pop\n      pop\n      pop\n      swap1\n      dup1\n      0x01\n      add\n      dup1\n      sload\n      tag_241\n      swap1\n      tag_145\n      jump\t// in\n    tag_241:\n      dup1\n      0x1f\n      add\n      0x20\n      dup1\n      swap2\n      div\n      mul\n      0x20\n      add\n      mload(0x40)\n      swap1\n      dup2\n      add\n      0x40\n      mstore\n      dup1\n      swap3\n      swap2\n      swap1\n      dup2\n      dup2\n      mstore\n      0x20\n      add\n      dup3\n      dup1\n      sload\n      tag_242\n      swap1\n      tag_145\n      jump\t// in\n    tag_242:\n      dup1\n      iszero\n      tag_243\n      jumpi\n      dup1\n      0x1f\n      lt\n      tag_244\n      jumpi\n      0x0100\n      dup1\n      dup4\n      sload\n      div\n      mul\n      dup4\n      mstore\n      swap2\n      0x20\n      add\n      swap2\n      jump(tag_243)\n    tag_244:\n      dup3\n      add\n      swap2\n      swap1\n      0x00\n      mstore\n      keccak256(0x00, 0x20)\n      swap1\n    tag_245:\n      dup2\n      sload\n      dup2\n      mstore\n      swap1\n      0x01\n      add\n      swap1\n      0x20\n      add\n      dup1\n      dup4\n      gt\n      tag_245\n      jumpi\n      dup3\n      swap1\n      sub\n      0x1f\n      and\n      dup3\n      add\n      swap2\n    tag_243:\n      pop\n      pop\n      pop\n      pop\n      pop\n      swap1\n      dup1\n      0x02\n      add\n      sload\n      swap1\n      pop\n      dup4\n      jump\t// out\n        /* \"MyHomeToken.sol\":3482:4012  function buy(uint256 _amount) external payable {... */\n    tag_134:\n        /* \"MyHomeToken.sol\":3558:3568  shareLimit */\n      sload(0x08)\n        /* \"MyHomeToken.sol\":3547:3554  _amount */\n      dup2\n        /* \"MyHomeToken.sol\":3547:3568  _amount <= shareLimit */\n      gt\n      iszero\n        /* \"MyHomeToken.sol\":3539:3608  require(_amount <= shareLimit, \"Number of shares exceeded the limit\") */\n      tag_247\n      jumpi\n      mload(0x40)\n      0x08c379a000000000000000000000000000000000000000000000000000000000\n      dup2\n      mstore\n      0x04\n      add\n      tag_248\n      swap1\n      tag_249\n      jump\t// in\n    tag_248:\n      mload(0x40)\n      dup1\n      swap2\n      sub\n      swap1\n      revert\n    tag_247:\n        /* \"MyHomeToken.sol\":3649:3659  tokenPrice */\n      sload(0x07)\n        /* \"MyHomeToken.sol\":3639:3646  _amount */\n      dup2\n        /* \"MyHomeToken.sol\":3639:3659  _amount * tokenPrice */\n      tag_250\n      swap2\n      swap1\n      tag_251\n      jump\t// in\n    tag_250:\n        /* \"MyHomeToken.sol\":3626:3635  msg.value */\n      callvalue\n        /* \"MyHomeToken.sol\":3626:3659  msg.value >= _amount * tokenPrice */\n      lt\n      iszero\n        /* \"MyHomeToken.sol\":3618:3678  require(msg.value >= _amount * tokenPrice, \"Not enough wei\") */\n      tag_252\n      jumpi\n      mload(0x40)\n      0x08c379a000000000000000000000000000000000000000000000000000000000\n      dup2\n      mstore\n      0x04\n      add\n      tag_253\n      swap1\n      tag_254\n      jump\t// in\n    tag_253:\n      mload(0x40)\n      dup1\n      swap2\n      sub\n      swap1\n      revert\n    tag_252:\n        /* \"MyHomeToken.sol\":3688:3693  owner */\n      0x00\n      dup1\n      sload\n      swap1\n      0x0100\n      exp\n      swap1\n      div\n      0xffffffffffffffffffffffffffffffffffffffff\n      and\n        /* \"MyHomeToken.sol\":3688:3702  owner.transfer */\n      0xffffffffffffffffffffffffffffffffffffffff\n      and\n        /* \"MyHomeToken.sol\":3688:3713  owner.transfer(msg.value) */\n      0x08fc\n        /* \"MyHomeToken.sol\":3703:3712  msg.value */\n      callvalue\n        /* \"MyHomeToken.sol\":3688:3713  owner.transfer(msg.value) */\n      swap1\n      dup2\n      iszero\n      mul\n      swap1\n      mload(0x40)\n      0x00\n      mload(0x40)\n      dup1\n      dup4\n      sub\n      dup2\n      dup6\n      dup9\n      dup9\n      call\n      swap4\n      pop\n      pop\n      pop\n      pop\n      iszero\n      dup1\n      iszero\n      tag_256\n      jumpi\n      returndatasize\n      0x00\n      dup1\n      returndatacopy\n      revert(0x00, returndatasize)\n    tag_256:\n      pop\n        /* \"MyHomeToken.sol\":3808:3815  _amount */\n      dup1\n        /* \"MyHomeToken.sol\":3788:3797  balanceOf */\n      0x0d\n        /* \"MyHomeToken.sol\":3788:3804  balanceOf[owner] */\n      0x00\n        /* \"MyHomeToken.sol\":3798:3803  owner */\n      dup1\n      0x00\n      swap1\n      sload\n      swap1\n      0x0100\n      exp\n      swap1\n      div\n      0xffffffffffffffffffffffffffffffffffffffff\n      and\n        /* \"MyHomeToken.sol\":3788:3804  balanceOf[owner] */\n      0xffffffffffffffffffffffffffffffffffffffff\n      and\n      0xffffffffffffffffffffffffffffffffffffffff\n      and\n      dup2\n      mstore\n      0x20\n      add\n      swap1\n      dup2\n      mstore\n      0x20\n      add\n      0x00\n      keccak256\n      0x00\n        /* \"MyHomeToken.sol\":3788:3815  balanceOf[owner] -= _amount */\n      dup3\n      dup3\n      sload\n      tag_257\n      swap2\n      swap1\n      tag_211\n      jump\t// in\n    tag_257:\n      swap3\n      pop\n      pop\n      dup2\n      swap1\n      sstore\n      pop\n        /* \"MyHomeToken.sol\":3908:3915  _amount */\n      dup1\n        /* \"MyHomeToken.sol\":3883:3892  balanceOf */\n      0x0d\n        /* \"MyHomeToken.sol\":3883:3904  balanceOf[msg.sender] */\n      0x00\n        /* \"MyHomeToken.sol\":3893:3903  msg.sender */\n      caller\n        /* \"MyHomeToken.sol\":3883:3904  balanceOf[msg.sender] */\n      0xffffffffffffffffffffffffffffffffffffffff\n      and\n      0xffffffffffffffffffffffffffffffffffffffff\n      and\n      dup2\n      mstore\n      0x20\n      add\n      swap1\n      dup2\n      mstore\n      0x20\n      add\n      0x00\n      keccak256\n      0x00\n        /* \"MyHomeToken.sol\":3883:3915  balanceOf[msg.sender] += _amount */\n      dup3\n      dup3\n      sload\n      tag_258\n      swap2\n      swap1\n      tag_213\n      jump\t// in\n    tag_258:\n      swap3\n      pop\n      pop\n      dup2\n      swap1\n      sstore\n      pop\n        /* \"MyHomeToken.sol\":3979:4005  addShareHolder(msg.sender) */\n      tag_259\n        /* \"MyHomeToken.sol\":3994:4004  msg.sender */\n      caller\n        /* \"MyHomeToken.sol\":3979:3993  addShareHolder */\n      tag_119\n        /* \"MyHomeToken.sol\":3979:4005  addShareHolder(msg.sender) */\n      jump\t// in\n    tag_259:\n        /* \"MyHomeToken.sol\":3482:4012  function buy(uint256 _amount) external payable {... */\n      pop\n      jump\t// out\n        /* \"MyHomeToken.sol\":2208:2578  function addHouse(string memory _registrationId, string memory location, uint256 price) ... */\n    tag_139:\n        /* \"MyHomeToken.sol\":1465:1470  owner */\n      0x00\n      dup1\n      sload\n      swap1\n      0x0100\n      exp\n      swap1\n      div\n      0xffffffffffffffffffffffffffffffffffffffff\n      and\n        /* \"MyHomeToken.sol\":1451:1470  msg.sender == owner */\n      0xffffffffffffffffffffffffffffffffffffffff\n      and\n        /* \"MyHomeToken.sol\":1451:1461  msg.sender */\n      caller\n        /* \"MyHomeToken.sol\":1451:1470  msg.sender == owner */\n      0xffffffffffffffffffffffffffffffffffffffff\n      and\n      eq\n        /* \"MyHomeToken.sol\":1443:1471  require(msg.sender == owner) */\n      tag_261\n      jumpi\n      0x00\n      dup1\n      revert\n    tag_261:\n        /* \"MyHomeToken.sol\":2351:2364  State.Created */\n      0x00\n        /* \"MyHomeToken.sol\":1538:1544  _state */\n      dup1\n        /* \"MyHomeToken.sol\":1529:1544  state == _state */\n      0x01\n      dup2\n      gt\n      iszero\n      tag_263\n      jumpi\n      tag_264\n      tag_155\n      jump\t// in\n    tag_264:\n    tag_263:\n        /* \"MyHomeToken.sol\":1529:1534  state */\n      0x0a\n      0x00\n      swap1\n      sload\n      swap1\n      0x0100\n      exp\n      swap1\n      div\n      0xff\n      and\n        /* \"MyHomeToken.sol\":1529:1544  state == _state */\n      0x01\n      dup2\n      gt\n      iszero\n      tag_265\n      jumpi\n      tag_266\n      tag_155\n      jump\t// in\n    tag_266:\n    tag_265:\n      eq\n        /* \"MyHomeToken.sol\":1521:1545  require(state == _state) */\n      tag_267\n      jumpi\n      0x00\n      dup1\n      revert\n    tag_267:\n        /* \"MyHomeToken.sol\":2381:2395  House memory h */\n      0x00\n        /* \"MyHomeToken.sol\":2398:2437  House(_registrationId, location, price) */\n      mload(0x40)\n      dup1\n      0x60\n      add\n      0x40\n      mstore\n      dup1\n        /* \"MyHomeToken.sol\":2404:2419  _registrationId */\n      dup7\n        /* \"MyHomeToken.sol\":2398:2437  House(_registrationId, location, price) */\n      dup2\n      mstore\n      0x20\n      add\n        /* \"MyHomeToken.sol\":2421:2429  location */\n      dup6\n        /* \"MyHomeToken.sol\":2398:2437  House(_registrationId, location, price) */\n      dup2\n      mstore\n      0x20\n      add\n        /* \"MyHomeToken.sol\":2431:2436  price */\n      dup5\n        /* \"MyHomeToken.sol\":2398:2437  House(_registrationId, location, price) */\n      dup2\n      mstore\n      pop\n        /* \"MyHomeToken.sol\":2381:2437  House memory h = House(_registrationId, location, price) */\n      swap1\n      pop\n        /* \"MyHomeToken.sol\":2464:2469  price */\n      dup3\n        /* \"MyHomeToken.sol\":2447:2449  hp */\n      0x01\n        /* \"MyHomeToken.sol\":2447:2460  hp.totalValue */\n      0x02\n      add\n      0x00\n        /* \"MyHomeToken.sol\":2447:2469  hp.totalValue += price */\n      dup3\n      dup3\n      sload\n      tag_269\n      swap2\n      swap1\n      tag_213\n      jump\t// in\n    tag_269:\n      swap3\n      pop\n      pop\n      dup2\n      swap1\n      sstore\n      pop\n        /* \"MyHomeToken.sol\":2479:2492  houseRegister */\n      0x04\n        /* \"MyHomeToken.sol\":2498:2499  h */\n      dup2\n        /* \"MyHomeToken.sol\":2479:2500  houseRegister.push(h) */\n      swap1\n      dup1\n      0x01\n      dup2\n      sload\n      add\n      dup1\n      dup3\n      sstore\n      dup1\n      swap2\n      pop\n      pop\n      0x01\n      swap1\n      sub\n      swap1\n      0x00\n      mstore\n      keccak256(0x00, 0x20)\n      swap1\n      0x03\n      mul\n      add\n      0x00\n      swap1\n      swap2\n      swap1\n      swap2\n      swap1\n      swap2\n      pop\n      0x00\n      dup3\n      add\n      mload\n      dup2\n      0x00\n      add\n      swap1\n      dup1\n      mload\n      swap1\n      0x20\n      add\n      swap1\n      tag_271\n      swap3\n      swap2\n      swap1\n      tag_171\n      jump\t// in\n    tag_271:\n      pop\n      0x20\n      dup3\n      add\n      mload\n      dup2\n      0x01\n      add\n      swap1\n      dup1\n      mload\n      swap1\n      0x20\n      add\n      swap1\n      tag_272\n      swap3\n      swap2\n      swap1\n      tag_171\n      jump\t// in\n    tag_272:\n      pop\n      0x40\n      dup3\n      add\n      mload\n      dup2\n      0x02\n      add\n      sstore\n      pop\n      pop\n        /* \"MyHomeToken.sol\":2525:2526  1 */\n      0x01\n        /* \"MyHomeToken.sol\":2510:2521  totalHouses */\n      0x05\n      0x00\n        /* \"MyHomeToken.sol\":2510:2526  totalHouses += 1 */\n      dup3\n      dup3\n      sload\n      tag_273\n      swap2\n      swap1\n      tag_213\n      jump\t// in\n    tag_273:\n      swap3\n      pop\n      pop\n      dup2\n      swap1\n      sstore\n      pop\n        /* \"MyHomeToken.sol\":2541:2571  NewHouseAdded(_registrationId) */\n      0x4578fe17eaab41ae382abe3462bb0cf04bcfee4168d2aad3ce9d5d225d0e27f6\n        /* \"MyHomeToken.sol\":2555:2570  _registrationId */\n      dup6\n        /* \"MyHomeToken.sol\":2541:2571  NewHouseAdded(_registrationId) */\n      mload(0x40)\n      tag_274\n      swap2\n      swap1\n      tag_44\n      jump\t// in\n    tag_274:\n      mload(0x40)\n      dup1\n      swap2\n      sub\n      swap1\n      log1\n        /* \"MyHomeToken.sol\":2371:2578  {... */\n      pop\n        /* \"MyHomeToken.sol\":1475:1476  _ */\n      pop\n        /* \"MyHomeToken.sol\":2208:2578  function addHouse(string memory _registrationId, string memory location, uint256 price) ... */\n      pop\n      pop\n      pop\n      jump\t// out\n        /* \"MyHomeToken.sol\":722:749  uint public finalResult = 0 */\n    tag_142:\n      sload(0x12)\n      dup2\n      jump\t// out\n        /* \"MyHomeToken.sol\":2584:2857  function contains(address _shareHolderAddress) private view returns(bool) {... */\n    tag_218:\n        /* \"MyHomeToken.sol\":2652:2656  bool */\n      0x00\n        /* \"MyHomeToken.sol\":2673:2679  uint i */\n      dup1\n        /* \"MyHomeToken.sol\":2682:2683  0 */\n      0x00\n        /* \"MyHomeToken.sol\":2673:2683  uint i = 0 */\n      swap1\n      pop\n        /* \"MyHomeToken.sol\":2668:2828  for (uint i = 0; i <= shareHolders.length; i++) {... */\n    tag_276:\n        /* \"MyHomeToken.sol\":2690:2702  shareHolders */\n      0x0b\n        /* \"MyHomeToken.sol\":2690:2709  shareHolders.length */\n      dup1\n      sload\n      swap1\n      pop\n        /* \"MyHomeToken.sol\":2685:2686  i */\n      dup2\n        /* \"MyHomeToken.sol\":2685:2709  i <= shareHolders.length */\n      gt\n        /* \"MyHomeToken.sol\":2668:2828  for (uint i = 0; i <= shareHolders.length; i++) {... */\n      tag_277\n      jumpi\n        /* \"MyHomeToken.sol\":2753:2772  _shareHolderAddress */\n      dup3\n        /* \"MyHomeToken.sol\":2734:2772  shareHolders[i] == _shareHolderAddress */\n      0xffffffffffffffffffffffffffffffffffffffff\n      and\n        /* \"MyHomeToken.sol\":2734:2746  shareHolders */\n      0x0b\n        /* \"MyHomeToken.sol\":2747:2748  i */\n      dup3\n        /* \"MyHomeToken.sol\":2734:2749  shareHolders[i] */\n      dup2\n      sload\n      dup2\n      lt\n      tag_279\n      jumpi\n      tag_280\n      tag_281\n      jump\t// in\n    tag_280:\n    tag_279:\n      swap1\n      0x00\n      mstore\n      keccak256(0x00, 0x20)\n      add\n      0x00\n      swap1\n      sload\n      swap1\n      0x0100\n      exp\n      swap1\n      div\n      0xffffffffffffffffffffffffffffffffffffffff\n      and\n        /* \"MyHomeToken.sol\":2734:2772  shareHolders[i] == _shareHolderAddress */\n      0xffffffffffffffffffffffffffffffffffffffff\n      and\n      eq\n        /* \"MyHomeToken.sol\":2730:2818  if (shareHolders[i] == _shareHolderAddress) {... */\n      iszero\n      tag_283\n      jumpi\n        /* \"MyHomeToken.sol\":2799:2803  true */\n      0x01\n        /* \"MyHomeToken.sol\":2792:2803  return true */\n      swap2\n      pop\n      pop\n      jump(tag_275)\n        /* \"MyHomeToken.sol\":2730:2818  if (shareHolders[i] == _shareHolderAddress) {... */\n    tag_283:\n        /* \"MyHomeToken.sol\":2711:2714  i++ */\n      dup1\n      dup1\n      tag_284\n      swap1\n      tag_192\n      jump\t// in\n    tag_284:\n      swap2\n      pop\n      pop\n        /* \"MyHomeToken.sol\":2668:2828  for (uint i = 0; i <= shareHolders.length; i++) {... */\n      jump(tag_276)\n    tag_277:\n      pop\n        /* \"MyHomeToken.sol\":2845:2850  false */\n      0x00\n        /* \"MyHomeToken.sol\":2838:2850  return false */\n      swap1\n      pop\n        /* \"MyHomeToken.sol\":2584:2857  function contains(address _shareHolderAddress) private view returns(bool) {... */\n    tag_275:\n      swap2\n      swap1\n      pop\n      jump\t// out\n    tag_171:\n      dup3\n      dup1\n      sload\n      tag_285\n      swap1\n      tag_145\n      jump\t// in\n    tag_285:\n      swap1\n      0x00\n      mstore\n      keccak256(0x00, 0x20)\n      swap1\n      0x1f\n      add\n      0x20\n      swap1\n      div\n      dup2\n      add\n      swap3\n      dup3\n      tag_287\n      jumpi\n      0x00\n      dup6\n      sstore\n      jump(tag_286)\n    tag_287:\n      dup3\n      0x1f\n      lt\n      tag_288\n      jumpi\n      dup1\n      mload\n      not(0xff)\n      and\n      dup4\n      dup1\n      add\n      or\n      dup6\n      sstore\n      jump(tag_286)\n    tag_288:\n      dup3\n      dup1\n      add\n      0x01\n      add\n      dup6\n      sstore\n      dup3\n      iszero\n      tag_286\n      jumpi\n      swap2\n      dup3\n      add\n    tag_289:\n      dup3\n      dup2\n      gt\n      iszero\n      tag_290\n      jumpi\n      dup3\n      mload\n      dup3\n      sstore\n      swap2\n      0x20\n      add\n      swap2\n      swap1\n      0x01\n      add\n      swap1\n      jump(tag_289)\n    tag_290:\n    tag_286:\n      pop\n      swap1\n      pop\n      tag_291\n      swap2\n      swap1\n      tag_292\n      jump\t// in\n    tag_291:\n      pop\n      swap1\n      jump\t// out\n    tag_189:\n      mload(0x40)\n      dup1\n      0x40\n      add\n      0x40\n      mstore\n      dup1\n      and(0xffffffffffffffffffffffffffffffffffffffff, 0x00)\n      dup2\n      mstore\n      0x20\n      add\n      iszero(iszero(0x00))\n      dup2\n      mstore\n      pop\n      swap1\n      jump\t// out\n    tag_292:\n    tag_293:\n      dup1\n      dup3\n      gt\n      iszero\n      tag_294\n      jumpi\n      0x00\n      dup2\n      0x00\n      swap1\n      sstore\n      pop\n      0x01\n      add\n      jump(tag_293)\n    tag_294:\n      pop\n      swap1\n      jump\t// out\n        /* \"#utility.yul\":7:419   */\n    tag_296:\n        /* \"#utility.yul\":85:90   */\n      0x00\n        /* \"#utility.yul\":110:176   */\n      tag_298\n        /* \"#utility.yul\":126:175   */\n      tag_299\n        /* \"#utility.yul\":168:174   */\n      dup5\n        /* \"#utility.yul\":126:175   */\n      tag_300\n      jump\t// in\n    tag_299:\n        /* \"#utility.yul\":110:176   */\n      tag_301\n      jump\t// in\n    tag_298:\n        /* \"#utility.yul\":101:176   */\n      swap1\n      pop\n        /* \"#utility.yul\":199:205   */\n      dup3\n        /* \"#utility.yul\":192:197   */\n      dup2\n        /* \"#utility.yul\":185:206   */\n      mstore\n        /* \"#utility.yul\":237:241   */\n      0x20\n        /* \"#utility.yul\":230:235   */\n      dup2\n        /* \"#utility.yul\":226:242   */\n      add\n        /* \"#utility.yul\":275:278   */\n      dup5\n        /* \"#utility.yul\":266:272   */\n      dup5\n        /* \"#utility.yul\":261:264   */\n      dup5\n        /* \"#utility.yul\":257:273   */\n      add\n        /* \"#utility.yul\":254:279   */\n      gt\n        /* \"#utility.yul\":251:363   */\n      iszero\n      tag_302\n      jumpi\n        /* \"#utility.yul\":282:361   */\n      tag_303\n      tag_304\n      jump\t// in\n    tag_303:\n        /* \"#utility.yul\":251:363   */\n    tag_302:\n        /* \"#utility.yul\":372:413   */\n      tag_305\n        /* \"#utility.yul\":406:412   */\n      dup5\n        /* \"#utility.yul\":401:404   */\n      dup3\n        /* \"#utility.yul\":396:399   */\n      dup6\n        /* \"#utility.yul\":372:413   */\n      tag_306\n      jump\t// in\n    tag_305:\n        /* \"#utility.yul\":91:419   */\n      pop\n        /* \"#utility.yul\":7:419   */\n      swap4\n      swap3\n      pop\n      pop\n      pop\n      jump\t// out\n        /* \"#utility.yul\":425:564   */\n    tag_307:\n        /* \"#utility.yul\":471:476   */\n      0x00\n        /* \"#utility.yul\":509:515   */\n      dup2\n        /* \"#utility.yul\":496:516   */\n      calldataload\n        /* \"#utility.yul\":487:516   */\n      swap1\n      pop\n        /* \"#utility.yul\":525:558   */\n      tag_309\n        /* \"#utility.yul\":552:557   */\n      dup2\n        /* \"#utility.yul\":525:558   */\n      tag_310\n      jump\t// in\n    tag_309:\n        /* \"#utility.yul\":425:564   */\n      swap3\n      swap2\n      pop\n      pop\n      jump\t// out\n        /* \"#utility.yul\":570:703   */\n    tag_311:\n        /* \"#utility.yul\":613:618   */\n      0x00\n        /* \"#utility.yul\":651:657   */\n      dup2\n        /* \"#utility.yul\":638:658   */\n      calldataload\n        /* \"#utility.yul\":629:658   */\n      swap1\n      pop\n        /* \"#utility.yul\":667:697   */\n      tag_313\n        /* \"#utility.yul\":691:696   */\n      dup2\n        /* \"#utility.yul\":667:697   */\n      tag_314\n      jump\t// in\n    tag_313:\n        /* \"#utility.yul\":570:703   */\n      swap3\n      swap2\n      pop\n      pop\n      jump\t// out\n        /* \"#utility.yul\":723:1063   */\n    tag_315:\n        /* \"#utility.yul\":779:784   */\n      0x00\n        /* \"#utility.yul\":828:831   */\n      dup3\n        /* \"#utility.yul\":821:825   */\n      0x1f\n        /* \"#utility.yul\":813:819   */\n      dup4\n        /* \"#utility.yul\":809:826   */\n      add\n        /* \"#utility.yul\":805:832   */\n      slt\n        /* \"#utility.yul\":795:917   */\n      tag_317\n      jumpi\n        /* \"#utility.yul\":836:915   */\n      tag_318\n      tag_319\n      jump\t// in\n    tag_318:\n        /* \"#utility.yul\":795:917   */\n    tag_317:\n        /* \"#utility.yul\":953:959   */\n      dup2\n        /* \"#utility.yul\":940:960   */\n      calldataload\n        /* \"#utility.yul\":978:1057   */\n      tag_320\n        /* \"#utility.yul\":1053:1056   */\n      dup5\n        /* \"#utility.yul\":1045:1051   */\n      dup3\n        /* \"#utility.yul\":1038:1042   */\n      0x20\n        /* \"#utility.yul\":1030:1036   */\n      dup7\n        /* \"#utility.yul\":1026:1043   */\n      add\n        /* \"#utility.yul\":978:1057   */\n      tag_296\n      jump\t// in\n    tag_320:\n        /* \"#utility.yul\":969:1057   */\n      swap2\n      pop\n        /* \"#utility.yul\":785:1063   */\n      pop\n        /* \"#utility.yul\":723:1063   */\n      swap3\n      swap2\n      pop\n      pop\n      jump\t// out\n        /* \"#utility.yul\":1069:1208   */\n    tag_321:\n        /* \"#utility.yul\":1115:1120   */\n      0x00\n        /* \"#utility.yul\":1153:1159   */\n      dup2\n        /* \"#utility.yul\":1140:1160   */\n      calldataload\n        /* \"#utility.yul\":1131:1160   */\n      swap1\n      pop\n        /* \"#utility.yul\":1169:1202   */\n      tag_323\n        /* \"#utility.yul\":1196:1201   */\n      dup2\n        /* \"#utility.yul\":1169:1202   */\n      tag_324\n      jump\t// in\n    tag_323:\n        /* \"#utility.yul\":1069:1208   */\n      swap3\n      swap2\n      pop\n      pop\n      jump\t// out\n        /* \"#utility.yul\":1214:1543   */\n    tag_62:\n        /* \"#utility.yul\":1273:1279   */\n      0x00\n        /* \"#utility.yul\":1322:1324   */\n      0x20\n        /* \"#utility.yul\":1310:1319   */\n      dup3\n        /* \"#utility.yul\":1301:1308   */\n      dup5\n        /* \"#utility.yul\":1297:1320   */\n      sub\n        /* \"#utility.yul\":1293:1325   */\n      slt\n        /* \"#utility.yul\":1290:1409   */\n      iszero\n      tag_326\n      jumpi\n        /* \"#utility.yul\":1328:1407   */\n      tag_327\n      tag_328\n      jump\t// in\n    tag_327:\n        /* \"#utility.yul\":1290:1409   */\n    tag_326:\n        /* \"#utility.yul\":1448:1449   */\n      0x00\n        /* \"#utility.yul\":1473:1526   */\n      tag_329\n        /* \"#utility.yul\":1518:1525   */\n      dup5\n        /* \"#utility.yul\":1509:1515   */\n      dup3\n        /* \"#utility.yul\":1498:1507   */\n      dup6\n        /* \"#utility.yul\":1494:1516   */\n      add\n        /* \"#utility.yul\":1473:1526   */\n      tag_307\n      jump\t// in\n    tag_329:\n        /* \"#utility.yul\":1463:1526   */\n      swap2\n      pop\n        /* \"#utility.yul\":1419:1536   */\n      pop\n        /* \"#utility.yul\":1214:1543   */\n      swap3\n      swap2\n      pop\n      pop\n      jump\t// out\n        /* \"#utility.yul\":1549:2023   */\n    tag_110:\n        /* \"#utility.yul\":1617:1623   */\n      0x00\n        /* \"#utility.yul\":1625:1631   */\n      dup1\n        /* \"#utility.yul\":1674:1676   */\n      0x40\n        /* \"#utility.yul\":1662:1671   */\n      dup4\n        /* \"#utility.yul\":1653:1660   */\n      dup6\n        /* \"#utility.yul\":1649:1672   */\n      sub\n        /* \"#utility.yul\":1645:1677   */\n      slt\n        /* \"#utility.yul\":1642:1761   */\n      iszero\n      tag_331\n      jumpi\n        /* \"#utility.yul\":1680:1759   */\n      tag_332\n      tag_328\n      jump\t// in\n    tag_332:\n        /* \"#utility.yul\":1642:1761   */\n    tag_331:\n        /* \"#utility.yul\":1800:1801   */\n      0x00\n        /* \"#utility.yul\":1825:1878   */\n      tag_333\n        /* \"#utility.yul\":1870:1877   */\n      dup6\n        /* \"#utility.yul\":1861:1867   */\n      dup3\n        /* \"#utility.yul\":1850:1859   */\n      dup7\n        /* \"#utility.yul\":1846:1868   */\n      add\n        /* \"#utility.yul\":1825:1878   */\n      tag_307\n      jump\t// in\n    tag_333:\n        /* \"#utility.yul\":1815:1878   */\n      swap3\n      pop\n        /* \"#utility.yul\":1771:1888   */\n      pop\n        /* \"#utility.yul\":1927:1929   */\n      0x20\n        /* \"#utility.yul\":1953:2006   */\n      tag_334\n        /* \"#utility.yul\":1998:2005   */\n      dup6\n        /* \"#utility.yul\":1989:1995   */\n      dup3\n        /* \"#utility.yul\":1978:1987   */\n      dup7\n        /* \"#utility.yul\":1974:1996   */\n      add\n        /* \"#utility.yul\":1953:2006   */\n      tag_321\n      jump\t// in\n    tag_334:\n        /* \"#utility.yul\":1943:2006   */\n      swap2\n      pop\n        /* \"#utility.yul\":1898:2016   */\n      pop\n        /* \"#utility.yul\":1549:2023   */\n      swap3\n      pop\n      swap3\n      swap1\n      pop\n      jump\t// out\n        /* \"#utility.yul\":2029:2352   */\n    tag_89:\n        /* \"#utility.yul\":2085:2091   */\n      0x00\n        /* \"#utility.yul\":2134:2136   */\n      0x20\n        /* \"#utility.yul\":2122:2131   */\n      dup3\n        /* \"#utility.yul\":2113:2120   */\n      dup5\n        /* \"#utility.yul\":2109:2132   */\n      sub\n        /* \"#utility.yul\":2105:2137   */\n      slt\n        /* \"#utility.yul\":2102:2221   */\n      iszero\n      tag_336\n      jumpi\n        /* \"#utility.yul\":2140:2219   */\n      tag_337\n      tag_328\n      jump\t// in\n    tag_337:\n        /* \"#utility.yul\":2102:2221   */\n    tag_336:\n        /* \"#utility.yul\":2260:2261   */\n      0x00\n        /* \"#utility.yul\":2285:2335   */\n      tag_338\n        /* \"#utility.yul\":2327:2334   */\n      dup5\n        /* \"#utility.yul\":2318:2324   */\n      dup3\n        /* \"#utility.yul\":2307:2316   */\n      dup6\n        /* \"#utility.yul\":2303:2325   */\n      add\n        /* \"#utility.yul\":2285:2335   */\n      tag_311\n      jump\t// in\n    tag_338:\n        /* \"#utility.yul\":2275:2335   */\n      swap2\n      pop\n        /* \"#utility.yul\":2231:2345   */\n      pop\n        /* \"#utility.yul\":2029:2352   */\n      swap3\n      swap2\n      pop\n      pop\n      jump\t// out\n        /* \"#utility.yul\":2358:3192   */\n    tag_69:\n        /* \"#utility.yul\":2446:2452   */\n      0x00\n        /* \"#utility.yul\":2454:2460   */\n      dup1\n        /* \"#utility.yul\":2503:2505   */\n      0x40\n        /* \"#utility.yul\":2491:2500   */\n      dup4\n        /* \"#utility.yul\":2482:2489   */\n      dup6\n        /* \"#utility.yul\":2478:2501   */\n      sub\n        /* \"#utility.yul\":2474:2506   */\n      slt\n        /* \"#utility.yul\":2471:2590   */\n      iszero\n      tag_340\n      jumpi\n        /* \"#utility.yul\":2509:2588   */\n      tag_341\n      tag_328\n      jump\t// in\n    tag_341:\n        /* \"#utility.yul\":2471:2590   */\n    tag_340:\n        /* \"#utility.yul\":2657:2658   */\n      0x00\n        /* \"#utility.yul\":2646:2655   */\n      dup4\n        /* \"#utility.yul\":2642:2659   */\n      add\n        /* \"#utility.yul\":2629:2660   */\n      calldataload\n        /* \"#utility.yul\":2687:2705   */\n      0xffffffffffffffff\n        /* \"#utility.yul\":2679:2685   */\n      dup2\n        /* \"#utility.yul\":2676:2706   */\n      gt\n        /* \"#utility.yul\":2673:2790   */\n      iszero\n      tag_342\n      jumpi\n        /* \"#utility.yul\":2709:2788   */\n      tag_343\n      tag_344\n      jump\t// in\n    tag_343:\n        /* \"#utility.yul\":2673:2790   */\n    tag_342:\n        /* \"#utility.yul\":2814:2877   */\n      tag_345\n        /* \"#utility.yul\":2869:2876   */\n      dup6\n        /* \"#utility.yul\":2860:2866   */\n      dup3\n        /* \"#utility.yul\":2849:2858   */\n      dup7\n        /* \"#utility.yul\":2845:2867   */\n      add\n        /* \"#utility.yul\":2814:2877   */\n      tag_315\n      jump\t// in\n    tag_345:\n        /* \"#utility.yul\":2804:2877   */\n      swap3\n      pop\n        /* \"#utility.yul\":2600:2887   */\n      pop\n        /* \"#utility.yul\":2954:2956   */\n      0x20\n        /* \"#utility.yul\":2943:2952   */\n      dup4\n        /* \"#utility.yul\":2939:2957   */\n      add\n        /* \"#utility.yul\":2926:2958   */\n      calldataload\n        /* \"#utility.yul\":2985:3003   */\n      0xffffffffffffffff\n        /* \"#utility.yul\":2977:2983   */\n      dup2\n        /* \"#utility.yul\":2974:3004   */\n      gt\n        /* \"#utility.yul\":2971:3088   */\n      iszero\n      tag_346\n      jumpi\n        /* \"#utility.yul\":3007:3086   */\n      tag_347\n      tag_344\n      jump\t// in\n    tag_347:\n        /* \"#utility.yul\":2971:3088   */\n    tag_346:\n        /* \"#utility.yul\":3112:3175   */\n      tag_348\n        /* \"#utility.yul\":3167:3174   */\n      dup6\n        /* \"#utility.yul\":3158:3164   */\n      dup3\n        /* \"#utility.yul\":3147:3156   */\n      dup7\n        /* \"#utility.yul\":3143:3165   */\n      add\n        /* \"#utility.yul\":3112:3175   */\n      tag_315\n      jump\t// in\n    tag_348:\n        /* \"#utility.yul\":3102:3175   */\n      swap2\n      pop\n        /* \"#utility.yul\":2897:3185   */\n      pop\n        /* \"#utility.yul\":2358:3192   */\n      swap3\n      pop\n      swap3\n      swap1\n      pop\n      jump\t// out\n        /* \"#utility.yul\":3198:4177   */\n    tag_138:\n        /* \"#utility.yul\":3295:3301   */\n      0x00\n        /* \"#utility.yul\":3303:3309   */\n      dup1\n        /* \"#utility.yul\":3311:3317   */\n      0x00\n        /* \"#utility.yul\":3360:3362   */\n      0x60\n        /* \"#utility.yul\":3348:3357   */\n      dup5\n        /* \"#utility.yul\":3339:3346   */\n      dup7\n        /* \"#utility.yul\":3335:3358   */\n      sub\n        /* \"#utility.yul\":3331:3363   */\n      slt\n        /* \"#utility.yul\":3328:3447   */\n      iszero\n      tag_350\n      jumpi\n        /* \"#utility.yul\":3366:3445   */\n      tag_351\n      tag_328\n      jump\t// in\n    tag_351:\n        /* \"#utility.yul\":3328:3447   */\n    tag_350:\n        /* \"#utility.yul\":3514:3515   */\n      0x00\n        /* \"#utility.yul\":3503:3512   */\n      dup5\n        /* \"#utility.yul\":3499:3516   */\n      add\n        /* \"#utility.yul\":3486:3517   */\n      calldataload\n        /* \"#utility.yul\":3544:3562   */\n      0xffffffffffffffff\n        /* \"#utility.yul\":3536:3542   */\n      dup2\n        /* \"#utility.yul\":3533:3563   */\n      gt\n        /* \"#utility.yul\":3530:3647   */\n      iszero\n      tag_352\n      jumpi\n        /* \"#utility.yul\":3566:3645   */\n      tag_353\n      tag_344\n      jump\t// in\n    tag_353:\n        /* \"#utility.yul\":3530:3647   */\n    tag_352:\n        /* \"#utility.yul\":3671:3734   */\n      tag_354\n        /* \"#utility.yul\":3726:3733   */\n      dup7\n        /* \"#utility.yul\":3717:3723   */\n      dup3\n        /* \"#utility.yul\":3706:3715   */\n      dup8\n        /* \"#utility.yul\":3702:3724   */\n      add\n        /* \"#utility.yul\":3671:3734   */\n      tag_315\n      jump\t// in\n    tag_354:\n        /* \"#utility.yul\":3661:3734   */\n      swap4\n      pop\n        /* \"#utility.yul\":3457:3744   */\n      pop\n        /* \"#utility.yul\":3811:3813   */\n      0x20\n        /* \"#utility.yul\":3800:3809   */\n      dup5\n        /* \"#utility.yul\":3796:3814   */\n      add\n        /* \"#utility.yul\":3783:3815   */\n      calldataload\n        /* \"#utility.yul\":3842:3860   */\n      0xffffffffffffffff\n        /* \"#utility.yul\":3834:3840   */\n      dup2\n        /* \"#utility.yul\":3831:3861   */\n      gt\n        /* \"#utility.yul\":3828:3945   */\n      iszero\n      tag_355\n      jumpi\n        /* \"#utility.yul\":3864:3943   */\n      tag_356\n      tag_344\n      jump\t// in\n    tag_356:\n        /* \"#utility.yul\":3828:3945   */\n    tag_355:\n        /* \"#utility.yul\":3969:4032   */\n      tag_357\n        /* \"#utility.yul\":4024:4031   */\n      dup7\n        /* \"#utility.yul\":4015:4021   */\n      dup3\n        /* \"#utility.yul\":4004:4013   */\n      dup8\n        /* \"#utility.yul\":4000:4022   */\n      add\n        /* \"#utility.yul\":3969:4032   */\n      tag_315\n      jump\t// in\n    tag_357:\n        /* \"#utility.yul\":3959:4032   */\n      swap3\n      pop\n        /* \"#utility.yul\":3754:4042   */\n      pop\n        /* \"#utility.yul\":4081:4083   */\n      0x40\n        /* \"#utility.yul\":4107:4160   */\n      tag_358\n        /* \"#utility.yul\":4152:4159   */\n      dup7\n        /* \"#utility.yul\":4143:4149   */\n      dup3\n        /* \"#utility.yul\":4132:4141   */\n      dup8\n        /* \"#utility.yul\":4128:4150   */\n      add\n        /* \"#utility.yul\":4107:4160   */\n      tag_321\n      jump\t// in\n    tag_358:\n        /* \"#utility.yul\":4097:4160   */\n      swap2\n      pop\n        /* \"#utility.yul\":4052:4170   */\n      pop\n        /* \"#utility.yul\":3198:4177   */\n      swap3\n      pop\n      swap3\n      pop\n      swap3\n      jump\t// out\n        /* \"#utility.yul\":4183:4512   */\n    tag_74:\n        /* \"#utility.yul\":4242:4248   */\n      0x00\n        /* \"#utility.yul\":4291:4293   */\n      0x20\n        /* \"#utility.yul\":4279:4288   */\n      dup3\n        /* \"#utility.yul\":4270:4277   */\n      dup5\n        /* \"#utility.yul\":4266:4289   */\n      sub\n        /* \"#utility.yul\":4262:4294   */\n      slt\n        /* \"#utility.yul\":4259:4378   */\n      iszero\n      tag_360\n      jumpi\n        /* \"#utility.yul\":4297:4376   */\n      tag_361\n      tag_328\n      jump\t// in\n    tag_361:\n        /* \"#utility.yul\":4259:4378   */\n    tag_360:\n        /* \"#utility.yul\":4417:4418   */\n      0x00\n        /* \"#utility.yul\":4442:4495   */\n      tag_362\n        /* \"#utility.yul\":4487:4494   */\n      dup5\n        /* \"#utility.yul\":4478:4484   */\n      dup3\n        /* \"#utility.yul\":4467:4476   */\n      dup6\n        /* \"#utility.yul\":4463:4485   */\n      add\n        /* \"#utility.yul\":4442:4495   */\n      tag_321\n      jump\t// in\n    tag_362:\n        /* \"#utility.yul\":4432:4495   */\n      swap2\n      pop\n        /* \"#utility.yul\":4388:4505   */\n      pop\n        /* \"#utility.yul\":4183:4512   */\n      swap3\n      swap2\n      pop\n      pop\n      jump\t// out\n        /* \"#utility.yul\":4518:4660   */\n    tag_363:\n        /* \"#utility.yul\":4621:4653   */\n      tag_365\n        /* \"#utility.yul\":4647:4652   */\n      dup2\n        /* \"#utility.yul\":4621:4653   */\n      tag_366\n      jump\t// in\n    tag_365:\n        /* \"#utility.yul\":4616:4619   */\n      dup3\n        /* \"#utility.yul\":4609:4654   */\n      mstore\n        /* \"#utility.yul\":4518:4660   */\n      pop\n      pop\n      jump\t// out\n        /* \"#utility.yul\":4666:4784   */\n    tag_367:\n        /* \"#utility.yul\":4753:4777   */\n      tag_369\n        /* \"#utility.yul\":4771:4776   */\n      dup2\n        /* \"#utility.yul\":4753:4777   */\n      tag_370\n      jump\t// in\n    tag_369:\n        /* \"#utility.yul\":4748:4751   */\n      dup3\n        /* \"#utility.yul\":4741:4778   */\n      mstore\n        /* \"#utility.yul\":4666:4784   */\n      pop\n      pop\n      jump\t// out\n        /* \"#utility.yul\":4790:4899   */\n    tag_371:\n        /* \"#utility.yul\":4871:4892   */\n      tag_373\n        /* \"#utility.yul\":4886:4891   */\n      dup2\n        /* \"#utility.yul\":4871:4892   */\n      tag_374\n      jump\t// in\n    tag_373:\n        /* \"#utility.yul\":4866:4869   */\n      dup3\n        /* \"#utility.yul\":4859:4893   */\n      mstore\n        /* \"#utility.yul\":4790:4899   */\n      pop\n      pop\n      jump\t// out\n        /* \"#utility.yul\":4905:5269   */\n    tag_375:\n        /* \"#utility.yul\":4993:4996   */\n      0x00\n        /* \"#utility.yul\":5021:5060   */\n      tag_377\n        /* \"#utility.yul\":5054:5059   */\n      dup3\n        /* \"#utility.yul\":5021:5060   */\n      tag_378\n      jump\t// in\n    tag_377:\n        /* \"#utility.yul\":5076:5147   */\n      tag_379\n        /* \"#utility.yul\":5140:5146   */\n      dup2\n        /* \"#utility.yul\":5135:5138   */\n      dup6\n        /* \"#utility.yul\":5076:5147   */\n      tag_380\n      jump\t// in\n    tag_379:\n        /* \"#utility.yul\":5069:5147   */\n      swap4\n      pop\n        /* \"#utility.yul\":5156:5208   */\n      tag_381\n        /* \"#utility.yul\":5201:5207   */\n      dup2\n        /* \"#utility.yul\":5196:5199   */\n      dup6\n        /* \"#utility.yul\":5189:5193   */\n      0x20\n        /* \"#utility.yul\":5182:5187   */\n      dup7\n        /* \"#utility.yul\":5178:5194   */\n      add\n        /* \"#utility.yul\":5156:5208   */\n      tag_382\n      jump\t// in\n    tag_381:\n        /* \"#utility.yul\":5233:5262   */\n      tag_383\n        /* \"#utility.yul\":5255:5261   */\n      dup2\n        /* \"#utility.yul\":5233:5262   */\n      tag_384\n      jump\t// in\n    tag_383:\n        /* \"#utility.yul\":5228:5231   */\n      dup5\n        /* \"#utility.yul\":5224:5263   */\n      add\n        /* \"#utility.yul\":5217:5263   */\n      swap2\n      pop\n        /* \"#utility.yul\":4997:5269   */\n      pop\n        /* \"#utility.yul\":4905:5269   */\n      swap3\n      swap2\n      pop\n      pop\n      jump\t// out\n        /* \"#utility.yul\":5275:5641   */\n    tag_385:\n        /* \"#utility.yul\":5417:5420   */\n      0x00\n        /* \"#utility.yul\":5438:5505   */\n      tag_387\n        /* \"#utility.yul\":5502:5504   */\n      0x23\n        /* \"#utility.yul\":5497:5500   */\n      dup4\n        /* \"#utility.yul\":5438:5505   */\n      tag_380\n      jump\t// in\n    tag_387:\n        /* \"#utility.yul\":5431:5505   */\n      swap2\n      pop\n        /* \"#utility.yul\":5514:5607   */\n      tag_388\n        /* \"#utility.yul\":5603:5606   */\n      dup3\n        /* \"#utility.yul\":5514:5607   */\n      tag_389\n      jump\t// in\n    tag_388:\n        /* \"#utility.yul\":5632:5634   */\n      0x40\n        /* \"#utility.yul\":5627:5630   */\n      dup3\n        /* \"#utility.yul\":5623:5635   */\n      add\n        /* \"#utility.yul\":5616:5635   */\n      swap1\n      pop\n        /* \"#utility.yul\":5275:5641   */\n      swap2\n      swap1\n      pop\n      jump\t// out\n        /* \"#utility.yul\":5647:6013   */\n    tag_390:\n        /* \"#utility.yul\":5789:5792   */\n      0x00\n        /* \"#utility.yul\":5810:5877   */\n      tag_392\n        /* \"#utility.yul\":5874:5876   */\n      0x0e\n        /* \"#utility.yul\":5869:5872   */\n      dup4\n        /* \"#utility.yul\":5810:5877   */\n      tag_380\n      jump\t// in\n    tag_392:\n        /* \"#utility.yul\":5803:5877   */\n      swap2\n      pop\n        /* \"#utility.yul\":5886:5979   */\n      tag_393\n        /* \"#utility.yul\":5975:5978   */\n      dup3\n        /* \"#utility.yul\":5886:5979   */\n      tag_394\n      jump\t// in\n    tag_393:\n        /* \"#utility.yul\":6004:6006   */\n      0x20\n        /* \"#utility.yul\":5999:6002   */\n      dup3\n        /* \"#utility.yul\":5995:6007   */\n      add\n        /* \"#utility.yul\":5988:6007   */\n      swap1\n      pop\n        /* \"#utility.yul\":5647:6013   */\n      swap2\n      swap1\n      pop\n      jump\t// out\n        /* \"#utility.yul\":6019:6137   */\n    tag_395:\n        /* \"#utility.yul\":6106:6130   */\n      tag_397\n        /* \"#utility.yul\":6124:6129   */\n      dup2\n        /* \"#utility.yul\":6106:6130   */\n      tag_398\n      jump\t// in\n    tag_397:\n        /* \"#utility.yul\":6101:6104   */\n      dup3\n        /* \"#utility.yul\":6094:6131   */\n      mstore\n        /* \"#utility.yul\":6019:6137   */\n      pop\n      pop\n      jump\t// out\n        /* \"#utility.yul\":6143:6365   */\n    tag_77:\n        /* \"#utility.yul\":6236:6240   */\n      0x00\n        /* \"#utility.yul\":6274:6276   */\n      0x20\n        /* \"#utility.yul\":6263:6272   */\n      dup3\n        /* \"#utility.yul\":6259:6277   */\n      add\n        /* \"#utility.yul\":6251:6277   */\n      swap1\n      pop\n        /* \"#utility.yul\":6287:6358   */\n      tag_400\n        /* \"#utility.yul\":6355:6356   */\n      0x00\n        /* \"#utility.yul\":6344:6353   */\n      dup4\n        /* \"#utility.yul\":6340:6357   */\n      add\n        /* \"#utility.yul\":6331:6337   */\n      dup5\n        /* \"#utility.yul\":6287:6358   */\n      tag_367\n      jump\t// in\n    tag_400:\n        /* \"#utility.yul\":6143:6365   */\n      swap3\n      swap2\n      pop\n      pop\n      jump\t// out\n        /* \"#utility.yul\":6371:6625   */\n    tag_96:\n        /* \"#utility.yul\":6480:6484   */\n      0x00\n        /* \"#utility.yul\":6518:6520   */\n      0x20\n        /* \"#utility.yul\":6507:6516   */\n      dup3\n        /* \"#utility.yul\":6503:6521   */\n      add\n        /* \"#utility.yul\":6495:6521   */\n      swap1\n      pop\n        /* \"#utility.yul\":6531:6618   */\n      tag_402\n        /* \"#utility.yul\":6615:6616   */\n      0x00\n        /* \"#utility.yul\":6604:6613   */\n      dup4\n        /* \"#utility.yul\":6600:6617   */\n      add\n        /* \"#utility.yul\":6591:6597   */\n      dup5\n        /* \"#utility.yul\":6531:6618   */\n      tag_363\n      jump\t// in\n    tag_402:\n        /* \"#utility.yul\":6371:6625   */\n      swap3\n      swap2\n      pop\n      pop\n      jump\t// out\n        /* \"#utility.yul\":6631:6841   */\n    tag_65:\n        /* \"#utility.yul\":6718:6722   */\n      0x00\n        /* \"#utility.yul\":6756:6758   */\n      0x20\n        /* \"#utility.yul\":6745:6754   */\n      dup3\n        /* \"#utility.yul\":6741:6759   */\n      add\n        /* \"#utility.yul\":6733:6759   */\n      swap1\n      pop\n        /* \"#utility.yul\":6769:6834   */\n      tag_404\n        /* \"#utility.yul\":6831:6832   */\n      0x00\n        /* \"#utility.yul\":6820:6829   */\n      dup4\n        /* \"#utility.yul\":6816:6833   */\n      add\n        /* \"#utility.yul\":6807:6813   */\n      dup5\n        /* \"#utility.yul\":6769:6834   */\n      tag_371\n      jump\t// in\n    tag_404:\n        /* \"#utility.yul\":6631:6841   */\n      swap3\n      swap2\n      pop\n      pop\n      jump\t// out\n        /* \"#utility.yul\":6847:7160   */\n    tag_44:\n        /* \"#utility.yul\":6960:6964   */\n      0x00\n        /* \"#utility.yul\":6998:7000   */\n      0x20\n        /* \"#utility.yul\":6987:6996   */\n      dup3\n        /* \"#utility.yul\":6983:7001   */\n      add\n        /* \"#utility.yul\":6975:7001   */\n      swap1\n      pop\n        /* \"#utility.yul\":7047:7056   */\n      dup2\n        /* \"#utility.yul\":7041:7045   */\n      dup2\n        /* \"#utility.yul\":7037:7057   */\n      sub\n        /* \"#utility.yul\":7033:7034   */\n      0x00\n        /* \"#utility.yul\":7022:7031   */\n      dup4\n        /* \"#utility.yul\":7018:7035   */\n      add\n        /* \"#utility.yul\":7011:7058   */\n      mstore\n        /* \"#utility.yul\":7075:7153   */\n      tag_406\n        /* \"#utility.yul\":7148:7152   */\n      dup2\n        /* \"#utility.yul\":7139:7145   */\n      dup5\n        /* \"#utility.yul\":7075:7153   */\n      tag_375\n      jump\t// in\n    tag_406:\n        /* \"#utility.yul\":7067:7153   */\n      swap1\n      pop\n        /* \"#utility.yul\":6847:7160   */\n      swap3\n      swap2\n      pop\n      pop\n      jump\t// out\n        /* \"#utility.yul\":7166:7790   */\n    tag_106:\n        /* \"#utility.yul\":7355:7359   */\n      0x00\n        /* \"#utility.yul\":7393:7395   */\n      0x60\n        /* \"#utility.yul\":7382:7391   */\n      dup3\n        /* \"#utility.yul\":7378:7396   */\n      add\n        /* \"#utility.yul\":7370:7396   */\n      swap1\n      pop\n        /* \"#utility.yul\":7442:7451   */\n      dup2\n        /* \"#utility.yul\":7436:7440   */\n      dup2\n        /* \"#utility.yul\":7432:7452   */\n      sub\n        /* \"#utility.yul\":7428:7429   */\n      0x00\n        /* \"#utility.yul\":7417:7426   */\n      dup4\n        /* \"#utility.yul\":7413:7430   */\n      add\n        /* \"#utility.yul\":7406:7453   */\n      mstore\n        /* \"#utility.yul\":7470:7548   */\n      tag_408\n        /* \"#utility.yul\":7543:7547   */\n      dup2\n        /* \"#utility.yul\":7534:7540   */\n      dup7\n        /* \"#utility.yul\":7470:7548   */\n      tag_375\n      jump\t// in\n    tag_408:\n        /* \"#utility.yul\":7462:7548   */\n      swap1\n      pop\n        /* \"#utility.yul\":7595:7604   */\n      dup2\n        /* \"#utility.yul\":7589:7593   */\n      dup2\n        /* \"#utility.yul\":7585:7605   */\n      sub\n        /* \"#utility.yul\":7580:7582   */\n      0x20\n        /* \"#utility.yul\":7569:7578   */\n      dup4\n        /* \"#utility.yul\":7565:7583   */\n      add\n        /* \"#utility.yul\":7558:7606   */\n      mstore\n        /* \"#utility.yul\":7623:7701   */\n      tag_409\n        /* \"#utility.yul\":7696:7700   */\n      dup2\n        /* \"#utility.yul\":7687:7693   */\n      dup6\n        /* \"#utility.yul\":7623:7701   */\n      tag_375\n      jump\t// in\n    tag_409:\n        /* \"#utility.yul\":7615:7701   */\n      swap1\n      pop\n        /* \"#utility.yul\":7711:7783   */\n      tag_410\n        /* \"#utility.yul\":7779:7781   */\n      0x40\n        /* \"#utility.yul\":7768:7777   */\n      dup4\n        /* \"#utility.yul\":7764:7782   */\n      add\n        /* \"#utility.yul\":7755:7761   */\n      dup5\n        /* \"#utility.yul\":7711:7783   */\n      tag_395\n      jump\t// in\n    tag_410:\n        /* \"#utility.yul\":7166:7790   */\n      swap5\n      swap4\n      pop\n      pop\n      pop\n      pop\n      jump\t// out\n        /* \"#utility.yul\":7796:8215   */\n    tag_249:\n        /* \"#utility.yul\":7962:7966   */\n      0x00\n        /* \"#utility.yul\":8000:8002   */\n      0x20\n        /* \"#utility.yul\":7989:7998   */\n      dup3\n        /* \"#utility.yul\":7985:8003   */\n      add\n        /* \"#utility.yul\":7977:8003   */\n      swap1\n      pop\n        /* \"#utility.yul\":8049:8058   */\n      dup2\n        /* \"#utility.yul\":8043:8047   */\n      dup2\n        /* \"#utility.yul\":8039:8059   */\n      sub\n        /* \"#utility.yul\":8035:8036   */\n      0x00\n        /* \"#utility.yul\":8024:8033   */\n      dup4\n        /* \"#utility.yul\":8020:8037   */\n      add\n        /* \"#utility.yul\":8013:8060   */\n      mstore\n        /* \"#utility.yul\":8077:8208   */\n      tag_412\n        /* \"#utility.yul\":8203:8207   */\n      dup2\n        /* \"#utility.yul\":8077:8208   */\n      tag_385\n      jump\t// in\n    tag_412:\n        /* \"#utility.yul\":8069:8208   */\n      swap1\n      pop\n        /* \"#utility.yul\":7796:8215   */\n      swap2\n      swap1\n      pop\n      jump\t// out\n        /* \"#utility.yul\":8221:8640   */\n    tag_254:\n        /* \"#utility.yul\":8387:8391   */\n      0x00\n        /* \"#utility.yul\":8425:8427   */\n      0x20\n        /* \"#utility.yul\":8414:8423   */\n      dup3\n        /* \"#utility.yul\":8410:8428   */\n      add\n        /* \"#utility.yul\":8402:8428   */\n      swap1\n      pop\n        /* \"#utility.yul\":8474:8483   */\n      dup2\n        /* \"#utility.yul\":8468:8472   */\n      dup2\n        /* \"#utility.yul\":8464:8484   */\n      sub\n        /* \"#utility.yul\":8460:8461   */\n      0x00\n        /* \"#utility.yul\":8449:8458   */\n      dup4\n        /* \"#utility.yul\":8445:8462   */\n      add\n        /* \"#utility.yul\":8438:8485   */\n      mstore\n        /* \"#utility.yul\":8502:8633   */\n      tag_414\n        /* \"#utility.yul\":8628:8632   */\n      dup2\n        /* \"#utility.yul\":8502:8633   */\n      tag_390\n      jump\t// in\n    tag_414:\n        /* \"#utility.yul\":8494:8633   */\n      swap1\n      pop\n        /* \"#utility.yul\":8221:8640   */\n      swap2\n      swap1\n      pop\n      jump\t// out\n        /* \"#utility.yul\":8646:8868   */\n    tag_35:\n        /* \"#utility.yul\":8739:8743   */\n      0x00\n        /* \"#utility.yul\":8777:8779   */\n      0x20\n        /* \"#utility.yul\":8766:8775   */\n      dup3\n        /* \"#utility.yul\":8762:8780   */\n      add\n        /* \"#utility.yul\":8754:8780   */\n      swap1\n      pop\n        /* \"#utility.yul\":8790:8861   */\n      tag_416\n        /* \"#utility.yul\":8858:8859   */\n      0x00\n        /* \"#utility.yul\":8847:8856   */\n      dup4\n        /* \"#utility.yul\":8843:8860   */\n      add\n        /* \"#utility.yul\":8834:8840   */\n      dup5\n        /* \"#utility.yul\":8790:8861   */\n      tag_395\n      jump\t// in\n    tag_416:\n        /* \"#utility.yul\":8646:8868   */\n      swap3\n      swap2\n      pop\n      pop\n      jump\t// out\n        /* \"#utility.yul\":8874:9003   */\n    tag_301:\n        /* \"#utility.yul\":8908:8914   */\n      0x00\n        /* \"#utility.yul\":8935:8955   */\n      tag_418\n      tag_419\n      jump\t// in\n    tag_418:\n        /* \"#utility.yul\":8925:8955   */\n      swap1\n      pop\n        /* \"#utility.yul\":8964:8997   */\n      tag_420\n        /* \"#utility.yul\":8992:8996   */\n      dup3\n        /* \"#utility.yul\":8984:8990   */\n      dup3\n        /* \"#utility.yul\":8964:8997   */\n      tag_421\n      jump\t// in\n    tag_420:\n        /* \"#utility.yul\":8874:9003   */\n      swap2\n      swap1\n      pop\n      jump\t// out\n        /* \"#utility.yul\":9009:9084   */\n    tag_419:\n        /* \"#utility.yul\":9042:9048   */\n      0x00\n        /* \"#utility.yul\":9075:9077   */\n      0x40\n        /* \"#utility.yul\":9069:9078   */\n      mload\n        /* \"#utility.yul\":9059:9078   */\n      swap1\n      pop\n        /* \"#utility.yul\":9009:9084   */\n      swap1\n      jump\t// out\n        /* \"#utility.yul\":9090:9398   */\n    tag_300:\n        /* \"#utility.yul\":9152:9156   */\n      0x00\n        /* \"#utility.yul\":9242:9260   */\n      0xffffffffffffffff\n        /* \"#utility.yul\":9234:9240   */\n      dup3\n        /* \"#utility.yul\":9231:9261   */\n      gt\n        /* \"#utility.yul\":9228:9284   */\n      iszero\n      tag_424\n      jumpi\n        /* \"#utility.yul\":9264:9282   */\n      tag_425\n      tag_426\n      jump\t// in\n    tag_425:\n        /* \"#utility.yul\":9228:9284   */\n    tag_424:\n        /* \"#utility.yul\":9302:9331   */\n      tag_427\n        /* \"#utility.yul\":9324:9330   */\n      dup3\n        /* \"#utility.yul\":9302:9331   */\n      tag_384\n      jump\t// in\n    tag_427:\n        /* \"#utility.yul\":9294:9331   */\n      swap1\n      pop\n        /* \"#utility.yul\":9386:9390   */\n      0x20\n        /* \"#utility.yul\":9380:9384   */\n      dup2\n        /* \"#utility.yul\":9376:9391   */\n      add\n        /* \"#utility.yul\":9368:9391   */\n      swap1\n      pop\n        /* \"#utility.yul\":9090:9398   */\n      swap2\n      swap1\n      pop\n      jump\t// out\n        /* \"#utility.yul\":9404:9503   */\n    tag_378:\n        /* \"#utility.yul\":9456:9462   */\n      0x00\n        /* \"#utility.yul\":9490:9495   */\n      dup2\n        /* \"#utility.yul\":9484:9496   */\n      mload\n        /* \"#utility.yul\":9474:9496   */\n      swap1\n      pop\n        /* \"#utility.yul\":9404:9503   */\n      swap2\n      swap1\n      pop\n      jump\t// out\n        /* \"#utility.yul\":9509:9678   */\n    tag_380:\n        /* \"#utility.yul\":9593:9604   */\n      0x00\n        /* \"#utility.yul\":9627:9633   */\n      dup3\n        /* \"#utility.yul\":9622:9625   */\n      dup3\n        /* \"#utility.yul\":9615:9634   */\n      mstore\n        /* \"#utility.yul\":9667:9671   */\n      0x20\n        /* \"#utility.yul\":9662:9665   */\n      dup3\n        /* \"#utility.yul\":9658:9672   */\n      add\n        /* \"#utility.yul\":9643:9672   */\n      swap1\n      pop\n        /* \"#utility.yul\":9509:9678   */\n      swap3\n      swap2\n      pop\n      pop\n      jump\t// out\n        /* \"#utility.yul\":9684:9989   */\n    tag_213:\n        /* \"#utility.yul\":9724:9727   */\n      0x00\n        /* \"#utility.yul\":9743:9763   */\n      tag_431\n        /* \"#utility.yul\":9761:9762   */\n      dup3\n        /* \"#utility.yul\":9743:9763   */\n      tag_398\n      jump\t// in\n    tag_431:\n        /* \"#utility.yul\":9738:9763   */\n      swap2\n      pop\n        /* \"#utility.yul\":9777:9797   */\n      tag_432\n        /* \"#utility.yul\":9795:9796   */\n      dup4\n        /* \"#utility.yul\":9777:9797   */\n      tag_398\n      jump\t// in\n    tag_432:\n        /* \"#utility.yul\":9772:9797   */\n      swap3\n      pop\n        /* \"#utility.yul\":9931:9932   */\n      dup3\n        /* \"#utility.yul\":9863:9929   */\n      0xffffffffffffffffffffffffffffffffffffffffffffffffffffffffffffffff\n        /* \"#utility.yul\":9859:9933   */\n      sub\n        /* \"#utility.yul\":9856:9857   */\n      dup3\n        /* \"#utility.yul\":9853:9934   */\n      gt\n        /* \"#utility.yul\":9850:9957   */\n      iszero\n      tag_433\n      jumpi\n        /* \"#utility.yul\":9937:9955   */\n      tag_434\n      tag_435\n      jump\t// in\n    tag_434:\n        /* \"#utility.yul\":9850:9957   */\n    tag_433:\n        /* \"#utility.yul\":9981:9982   */\n      dup3\n        /* \"#utility.yul\":9978:9979   */\n      dup3\n        /* \"#utility.yul\":9974:9983   */\n      add\n        /* \"#utility.yul\":9967:9983   */\n      swap1\n      pop\n        /* \"#utility.yul\":9684:9989   */\n      swap3\n      swap2\n      pop\n      pop\n      jump\t// out\n        /* \"#utility.yul\":9995:10343   */\n    tag_251:\n        /* \"#utility.yul\":10035:10042   */\n      0x00\n        /* \"#utility.yul\":10058:10078   */\n      tag_437\n        /* \"#utility.yul\":10076:10077   */\n      dup3\n        /* \"#utility.yul\":10058:10078   */\n      tag_398\n      jump\t// in\n    tag_437:\n        /* \"#utility.yul\":10053:10078   */\n      swap2\n      pop\n        /* \"#utility.yul\":10092:10112   */\n      tag_438\n        /* \"#utility.yul\":10110:10111   */\n      dup4\n        /* \"#utility.yul\":10092:10112   */\n      tag_398\n      jump\t// in\n    tag_438:\n        /* \"#utility.yul\":10087:10112   */\n      swap3\n      pop\n        /* \"#utility.yul\":10280:10281   */\n      dup2\n        /* \"#utility.yul\":10212:10278   */\n      0xffffffffffffffffffffffffffffffffffffffffffffffffffffffffffffffff\n        /* \"#utility.yul\":10208:10282   */\n      div\n        /* \"#utility.yul\":10205:10206   */\n      dup4\n        /* \"#utility.yul\":10202:10283   */\n      gt\n        /* \"#utility.yul\":10197:10198   */\n      dup3\n        /* \"#utility.yul\":10190:10199   */\n      iszero\n        /* \"#utility.yul\":10183:10200   */\n      iszero\n        /* \"#utility.yul\":10179:10284   */\n      and\n        /* \"#utility.yul\":10176:10307   */\n      iszero\n      tag_439\n      jumpi\n        /* \"#utility.yul\":10287:10305   */\n      tag_440\n      tag_435\n      jump\t// in\n    tag_440:\n        /* \"#utility.yul\":10176:10307   */\n    tag_439:\n        /* \"#utility.yul\":10335:10336   */\n      dup3\n        /* \"#utility.yul\":10332:10333   */\n      dup3\n        /* \"#utility.yul\":10328:10337   */\n      mul\n        /* \"#utility.yul\":10317:10337   */\n      swap1\n      pop\n        /* \"#utility.yul\":9995:10343   */\n      swap3\n      swap2\n      pop\n      pop\n      jump\t// out\n        /* \"#utility.yul\":10349:10540   */\n    tag_211:\n        /* \"#utility.yul\":10389:10393   */\n      0x00\n        /* \"#utility.yul\":10409:10429   */\n      tag_442\n        /* \"#utility.yul\":10427:10428   */\n      dup3\n        /* \"#utility.yul\":10409:10429   */\n      tag_398\n      jump\t// in\n    tag_442:\n        /* \"#utility.yul\":10404:10429   */\n      swap2\n      pop\n        /* \"#utility.yul\":10443:10463   */\n      tag_443\n        /* \"#utility.yul\":10461:10462   */\n      dup4\n        /* \"#utility.yul\":10443:10463   */\n      tag_398\n      jump\t// in\n    tag_443:\n        /* \"#utility.yul\":10438:10463   */\n      swap3\n      pop\n        /* \"#utility.yul\":10482:10483   */\n      dup3\n        /* \"#utility.yul\":10479:10480   */\n      dup3\n        /* \"#utility.yul\":10476:10484   */\n      lt\n        /* \"#utility.yul\":10473:10507   */\n      iszero\n      tag_444\n      jumpi\n        /* \"#utility.yul\":10487:10505   */\n      tag_445\n      tag_435\n      jump\t// in\n    tag_445:\n        /* \"#utility.yul\":10473:10507   */\n    tag_444:\n        /* \"#utility.yul\":10532:10533   */\n      dup3\n        /* \"#utility.yul\":10529:10530   */\n      dup3\n        /* \"#utility.yul\":10525:10534   */\n      sub\n        /* \"#utility.yul\":10517:10534   */\n      swap1\n      pop\n        /* \"#utility.yul\":10349:10540   */\n      swap3\n      swap2\n      pop\n      pop\n      jump\t// out\n        /* \"#utility.yul\":10546:10642   */\n    tag_370:\n        /* \"#utility.yul\":10583:10590   */\n      0x00\n        /* \"#utility.yul\":10612:10636   */\n      tag_447\n        /* \"#utility.yul\":10630:10635   */\n      dup3\n        /* \"#utility.yul\":10612:10636   */\n      tag_448\n      jump\t// in\n    tag_447:\n        /* \"#utility.yul\":10601:10636   */\n      swap1\n      pop\n        /* \"#utility.yul\":10546:10642   */\n      swap2\n      swap1\n      pop\n      jump\t// out\n        /* \"#utility.yul\":10648:10752   */\n    tag_366:\n        /* \"#utility.yul\":10693:10700   */\n      0x00\n        /* \"#utility.yul\":10722:10746   */\n      tag_450\n        /* \"#utility.yul\":10740:10745   */\n      dup3\n        /* \"#utility.yul\":10722:10746   */\n      tag_448\n      jump\t// in\n    tag_450:\n        /* \"#utility.yul\":10711:10746   */\n      swap1\n      pop\n        /* \"#utility.yul\":10648:10752   */\n      swap2\n      swap1\n      pop\n      jump\t// out\n        /* \"#utility.yul\":10758:10848   */\n    tag_374:\n        /* \"#utility.yul\":10792:10799   */\n      0x00\n        /* \"#utility.yul\":10835:10840   */\n      dup2\n        /* \"#utility.yul\":10828:10841   */\n      iszero\n        /* \"#utility.yul\":10821:10842   */\n      iszero\n        /* \"#utility.yul\":10810:10842   */\n      swap1\n      pop\n        /* \"#utility.yul\":10758:10848   */\n      swap2\n      swap1\n      pop\n      jump\t// out\n        /* \"#utility.yul\":10854:10980   */\n    tag_448:\n        /* \"#utility.yul\":10891:10898   */\n      0x00\n        /* \"#utility.yul\":10931:10973   */\n      0xffffffffffffffffffffffffffffffffffffffff\n        /* \"#utility.yul\":10924:10929   */\n      dup3\n        /* \"#utility.yul\":10920:10974   */\n      and\n        /* \"#utility.yul\":10909:10974   */\n      swap1\n      pop\n        /* \"#utility.yul\":10854:10980   */\n      swap2\n      swap1\n      pop\n      jump\t// out\n        /* \"#utility.yul\":10986:11063   */\n    tag_398:\n        /* \"#utility.yul\":11023:11030   */\n      0x00\n        /* \"#utility.yul\":11052:11057   */\n      dup2\n        /* \"#utility.yul\":11041:11057   */\n      swap1\n      pop\n        /* \"#utility.yul\":10986:11063   */\n      swap2\n      swap1\n      pop\n      jump\t// out\n        /* \"#utility.yul\":11069:11223   */\n    tag_306:\n        /* \"#utility.yul\":11153:11159   */\n      dup3\n        /* \"#utility.yul\":11148:11151   */\n      dup2\n        /* \"#utility.yul\":11143:11146   */\n      dup4\n        /* \"#utility.yul\":11130:11160   */\n      calldatacopy\n        /* \"#utility.yul\":11215:11216   */\n      0x00\n        /* \"#utility.yul\":11206:11212   */\n      dup4\n        /* \"#utility.yul\":11201:11204   */\n      dup4\n        /* \"#utility.yul\":11197:11213   */\n      add\n        /* \"#utility.yul\":11190:11217   */\n      mstore\n        /* \"#utility.yul\":11069:11223   */\n      pop\n      pop\n      pop\n      jump\t// out\n        /* \"#utility.yul\":11229:11536   */\n    tag_382:\n        /* \"#utility.yul\":11297:11298   */\n      0x00\n        /* \"#utility.yul\":11307:11420   */\n    tag_456:\n        /* \"#utility.yul\":11321:11327   */\n      dup4\n        /* \"#utility.yul\":11318:11319   */\n      dup2\n        /* \"#utility.yul\":11315:11328   */\n      lt\n        /* \"#utility.yul\":11307:11420   */\n      iszero\n      tag_458\n      jumpi\n        /* \"#utility.yul\":11406:11407   */\n      dup1\n        /* \"#utility.yul\":11401:11404   */\n      dup3\n        /* \"#utility.yul\":11397:11408   */\n      add\n        /* \"#utility.yul\":11391:11409   */\n      mload\n        /* \"#utility.yul\":11387:11388   */\n      dup2\n        /* \"#utility.yul\":11382:11385   */\n      dup5\n        /* \"#utility.yul\":11378:11389   */\n      add\n        /* \"#utility.yul\":11371:11410   */\n      mstore\n        /* \"#utility.yul\":11343:11345   */\n      0x20\n        /* \"#utility.yul\":11340:11341   */\n      dup2\n        /* \"#utility.yul\":11336:11346   */\n      add\n        /* \"#utility.yul\":11331:11346   */\n      swap1\n      pop\n        /* \"#utility.yul\":11307:11420   */\n      jump(tag_456)\n    tag_458:\n        /* \"#utility.yul\":11438:11444   */\n      dup4\n        /* \"#utility.yul\":11435:11436   */\n      dup2\n        /* \"#utility.yul\":11432:11445   */\n      gt\n        /* \"#utility.yul\":11429:11530   */\n      iszero\n      tag_459\n      jumpi\n        /* \"#utility.yul\":11518:11519   */\n      0x00\n        /* \"#utility.yul\":11509:11515   */\n      dup5\n        /* \"#utility.yul\":11504:11507   */\n      dup5\n        /* \"#utility.yul\":11500:11516   */\n      add\n        /* \"#utility.yul\":11493:11520   */\n      mstore\n        /* \"#utility.yul\":11429:11530   */\n    tag_459:\n        /* \"#utility.yul\":11278:11536   */\n      pop\n        /* \"#utility.yul\":11229:11536   */\n      pop\n      pop\n      pop\n      jump\t// out\n        /* \"#utility.yul\":11542:11862   */\n    tag_145:\n        /* \"#utility.yul\":11586:11592   */\n      0x00\n        /* \"#utility.yul\":11623:11624   */\n      0x02\n        /* \"#utility.yul\":11617:11621   */\n      dup3\n        /* \"#utility.yul\":11613:11625   */\n      div\n        /* \"#utility.yul\":11603:11625   */\n      swap1\n      pop\n        /* \"#utility.yul\":11670:11671   */\n      0x01\n        /* \"#utility.yul\":11664:11668   */\n      dup3\n        /* \"#utility.yul\":11660:11672   */\n      and\n        /* \"#utility.yul\":11691:11709   */\n      dup1\n        /* \"#utility.yul\":11681:11762   */\n      tag_461\n      jumpi\n        /* \"#utility.yul\":11747:11751   */\n      0x7f\n        /* \"#utility.yul\":11739:11745   */\n      dup3\n        /* \"#utility.yul\":11735:11752   */\n      and\n        /* \"#utility.yul\":11725:11752   */\n      swap2\n      pop\n        /* \"#utility.yul\":11681:11762   */\n    tag_461:\n        /* \"#utility.yul\":11809:11811   */\n      0x20\n        /* \"#utility.yul\":11801:11807   */\n      dup3\n        /* \"#utility.yul\":11798:11812   */\n      lt\n        /* \"#utility.yul\":11778:11796   */\n      dup2\n        /* \"#utility.yul\":11775:11813   */\n      eq\n        /* \"#utility.yul\":11772:11856   */\n      iszero\n      tag_462\n      jumpi\n        /* \"#utility.yul\":11828:11846   */\n      tag_463\n      tag_464\n      jump\t// in\n    tag_463:\n        /* \"#utility.yul\":11772:11856   */\n    tag_462:\n        /* \"#utility.yul\":11593:11862   */\n      pop\n        /* \"#utility.yul\":11542:11862   */\n      swap2\n      swap1\n      pop\n      jump\t// out\n        /* \"#utility.yul\":11868:12149   */\n    tag_421:\n        /* \"#utility.yul\":11951:11978   */\n      tag_466\n        /* \"#utility.yul\":11973:11977   */\n      dup3\n        /* \"#utility.yul\":11951:11978   */\n      tag_384\n      jump\t// in\n    tag_466:\n        /* \"#utility.yul\":11943:11949   */\n      dup2\n        /* \"#utility.yul\":11939:11979   */\n      add\n        /* \"#utility.yul\":12081:12087   */\n      dup2\n        /* \"#utility.yul\":12069:12079   */\n      dup2\n        /* \"#utility.yul\":12066:12088   */\n      lt\n        /* \"#utility.yul\":12045:12063   */\n      0xffffffffffffffff\n        /* \"#utility.yul\":12033:12043   */\n      dup3\n        /* \"#utility.yul\":12030:12064   */\n      gt\n        /* \"#utility.yul\":12027:12089   */\n      or\n        /* \"#utility.yul\":12024:12112   */\n      iszero\n      tag_467\n      jumpi\n        /* \"#utility.yul\":12092:12110   */\n      tag_468\n      tag_426\n      jump\t// in\n    tag_468:\n        /* \"#utility.yul\":12024:12112   */\n    tag_467:\n        /* \"#utility.yul\":12132:12142   */\n      dup1\n        /* \"#utility.yul\":12128:12130   */\n      0x40\n        /* \"#utility.yul\":12121:12143   */\n      mstore\n        /* \"#utility.yul\":11911:12149   */\n      pop\n        /* \"#utility.yul\":11868:12149   */\n      pop\n      pop\n      jump\t// out\n        /* \"#utility.yul\":12155:12388   */\n    tag_192:\n        /* \"#utility.yul\":12194:12197   */\n      0x00\n        /* \"#utility.yul\":12217:12241   */\n      tag_470\n        /* \"#utility.yul\":12235:12240   */\n      dup3\n        /* \"#utility.yul\":12217:12241   */\n      tag_398\n      jump\t// in\n    tag_470:\n        /* \"#utility.yul\":12208:12241   */\n      swap2\n      pop\n        /* \"#utility.yul\":12263:12329   */\n      0xffffffffffffffffffffffffffffffffffffffffffffffffffffffffffffffff\n        /* \"#utility.yul\":12256:12261   */\n      dup3\n        /* \"#utility.yul\":12253:12330   */\n      eq\n        /* \"#utility.yul\":12250:12353   */\n      iszero\n      tag_471\n      jumpi\n        /* \"#utility.yul\":12333:12351   */\n      tag_472\n      tag_435\n      jump\t// in\n    tag_472:\n        /* \"#utility.yul\":12250:12353   */\n    tag_471:\n        /* \"#utility.yul\":12380:12381   */\n      0x01\n        /* \"#utility.yul\":12373:12378   */\n      dup3\n        /* \"#utility.yul\":12369:12382   */\n      add\n        /* \"#utility.yul\":12362:12382   */\n      swap1\n      pop\n        /* \"#utility.yul\":12155:12388   */\n      swap2\n      swap1\n      pop\n      jump\t// out\n        /* \"#utility.yul\":12394:12574   */\n    tag_435:\n        /* \"#utility.yul\":12442:12519   */\n      0x4e487b7100000000000000000000000000000000000000000000000000000000\n        /* \"#utility.yul\":12439:12440   */\n      0x00\n        /* \"#utility.yul\":12432:12520   */\n      mstore\n        /* \"#utility.yul\":12539:12543   */\n      0x11\n        /* \"#utility.yul\":12536:12537   */\n      0x04\n        /* \"#utility.yul\":12529:12544   */\n      mstore\n        /* \"#utility.yul\":12563:12567   */\n      0x24\n        /* \"#utility.yul\":12560:12561   */\n      0x00\n        /* \"#utility.yul\":12553:12568   */\n      revert\n        /* \"#utility.yul\":12580:12760   */\n    tag_155:\n        /* \"#utility.yul\":12628:12705   */\n      0x4e487b7100000000000000000000000000000000000000000000000000000000\n        /* \"#utility.yul\":12625:12626   */\n      0x00\n        /* \"#utility.yul\":12618:12706   */\n      mstore\n        /* \"#utility.yul\":12725:12729   */\n      0x21\n        /* \"#utility.yul\":12722:12723   */\n      0x04\n        /* \"#utility.yul\":12715:12730   */\n      mstore\n        /* \"#utility.yul\":12749:12753   */\n      0x24\n        /* \"#utility.yul\":12746:12747   */\n      0x00\n        /* \"#utility.yul\":12739:12754   */\n      revert\n        /* \"#utility.yul\":12766:12946   */\n    tag_464:\n        /* \"#utility.yul\":12814:12891   */\n      0x4e487b7100000000000000000000000000000000000000000000000000000000\n        /* \"#utility.yul\":12811:12812   */\n      0x00\n        /* \"#utility.yul\":12804:12892   */\n      mstore\n        /* \"#utility.yul\":12911:12915   */\n      0x22\n        /* \"#utility.yul\":12908:12909   */\n      0x04\n        /* \"#utility.yul\":12901:12916   */\n      mstore\n        /* \"#utility.yul\":12935:12939   */\n      0x24\n        /* \"#utility.yul\":12932:12933   */\n      0x00\n        /* \"#utility.yul\":12925:12940   */\n      revert\n        /* \"#utility.yul\":12952:13132   */\n    tag_281:\n        /* \"#utility.yul\":13000:13077   */\n      0x4e487b7100000000000000000000000000000000000000000000000000000000\n        /* \"#utility.yul\":12997:12998   */\n      0x00\n        /* \"#utility.yul\":12990:13078   */\n      mstore\n        /* \"#utility.yul\":13097:13101   */\n      0x32\n        /* \"#utility.yul\":13094:13095   */\n      0x04\n        /* \"#utility.yul\":13087:13102   */\n      mstore\n        /* \"#utility.yul\":13121:13125   */\n      0x24\n        /* \"#utility.yul\":13118:13119   */\n      0x00\n        /* \"#utility.yul\":13111:13126   */\n      revert\n        /* \"#utility.yul\":13138:13318   */\n    tag_426:\n        /* \"#utility.yul\":13186:13263   */\n      0x4e487b7100000000000000000000000000000000000000000000000000000000\n        /* \"#utility.yul\":13183:13184   */\n      0x00\n        /* \"#utility.yul\":13176:13264   */\n      mstore\n        /* \"#utility.yul\":13283:13287   */\n      0x41\n        /* \"#utility.yul\":13280:13281   */\n      0x04\n        /* \"#utility.yul\":13273:13288   */\n      mstore\n        /* \"#utility.yul\":13307:13311   */\n      0x24\n        /* \"#utility.yul\":13304:13305   */\n      0x00\n        /* \"#utility.yul\":13297:13312   */\n      revert\n        /* \"#utility.yul\":13324:13441   */\n    tag_319:\n        /* \"#utility.yul\":13433:13434   */\n      0x00\n        /* \"#utility.yul\":13430:13431   */\n      dup1\n        /* \"#utility.yul\":13423:13435   */\n      revert\n        /* \"#utility.yul\":13447:13564   */\n    tag_304:\n        /* \"#utility.yul\":13556:13557   */\n      0x00\n        /* \"#utility.yul\":13553:13554   */\n      dup1\n        /* \"#utility.yul\":13546:13558   */\n      revert\n        /* \"#utility.yul\":13570:13687   */\n    tag_344:\n        /* \"#utility.yul\":13679:13680   */\n      0x00\n        /* \"#utility.yul\":13676:13677   */\n      dup1\n        /* \"#utility.yul\":13669:13681   */\n      revert\n        /* \"#utility.yul\":13693:13810   */\n    tag_328:\n        /* \"#utility.yul\":13802:13803   */\n      0x00\n        /* \"#utility.yul\":13799:13800   */\n      dup1\n        /* \"#utility.yul\":13792:13804   */\n      revert\n        /* \"#utility.yul\":13816:13918   */\n    tag_384:\n        /* \"#utility.yul\":13857:13863   */\n      0x00\n        /* \"#utility.yul\":13908:13910   */\n      0x1f\n        /* \"#utility.yul\":13904:13911   */\n      not\n        /* \"#utility.yul\":13899:13901   */\n      0x1f\n        /* \"#utility.yul\":13892:13897   */\n      dup4\n        /* \"#utility.yul\":13888:13902   */\n      add\n        /* \"#utility.yul\":13884:13912   */\n      and\n        /* \"#utility.yul\":13874:13912   */\n      swap1\n      pop\n        /* \"#utility.yul\":13816:13918   */\n      swap2\n      swap1\n      pop\n      jump\t// out\n        /* \"#utility.yul\":13924:14146   */\n    tag_389:\n        /* \"#utility.yul\":14064:14098   */\n      0x4e756d626572206f662073686172657320657863656564656420746865206c69\n        /* \"#utility.yul\":14060:14061   */\n      0x00\n        /* \"#utility.yul\":14052:14058   */\n      dup3\n        /* \"#utility.yul\":14048:14062   */\n      add\n        /* \"#utility.yul\":14041:14099   */\n      mstore\n        /* \"#utility.yul\":14133:14138   */\n      0x6d69740000000000000000000000000000000000000000000000000000000000\n        /* \"#utility.yul\":14128:14130   */\n      0x20\n        /* \"#utility.yul\":14120:14126   */\n      dup3\n        /* \"#utility.yul\":14116:14131   */\n      add\n        /* \"#utility.yul\":14109:14139   */\n      mstore\n        /* \"#utility.yul\":13924:14146   */\n      pop\n      jump\t// out\n        /* \"#utility.yul\":14152:14316   */\n    tag_394:\n        /* \"#utility.yul\":14292:14308   */\n      0x4e6f7420656e6f75676820776569000000000000000000000000000000000000\n        /* \"#utility.yul\":14288:14289   */\n      0x00\n        /* \"#utility.yul\":14280:14286   */\n      dup3\n        /* \"#utility.yul\":14276:14290   */\n      add\n        /* \"#utility.yul\":14269:14309   */\n      mstore\n        /* \"#utility.yul\":14152:14316   */\n      pop\n      jump\t// out\n        /* \"#utility.yul\":14322:14444   */\n    tag_310:\n        /* \"#utility.yul\":14395:14419   */\n      tag_486\n        /* \"#utility.yul\":14413:14418   */\n      dup2\n        /* \"#utility.yul\":14395:14419   */\n      tag_370\n      jump\t// in\n    tag_486:\n        /* \"#utility.yul\":14388:14393   */\n      dup2\n        /* \"#utility.yul\":14385:14420   */\n      eq\n        /* \"#utility.yul\":14375:14438   */\n      tag_487\n      jumpi\n        /* \"#utility.yul\":14434:14435   */\n      0x00\n        /* \"#utility.yul\":14431:14432   */\n      dup1\n        /* \"#utility.yul\":14424:14436   */\n      revert\n        /* \"#utility.yul\":14375:14438   */\n    tag_487:\n        /* \"#utility.yul\":14322:14444   */\n      pop\n      jump\t// out\n        /* \"#utility.yul\":14450:14566   */\n    tag_314:\n        /* \"#utility.yul\":14520:14541   */\n      tag_489\n        /* \"#utility.yul\":14535:14540   */\n      dup2\n        /* \"#utility.yul\":14520:14541   */\n      tag_374\n      jump\t// in\n    tag_489:\n        /* \"#utility.yul\":14513:14518   */\n      dup2\n        /* \"#utility.yul\":14510:14542   */\n      eq\n        /* \"#utility.yul\":14500:14560   */\n      tag_490\n      jumpi\n        /* \"#utility.yul\":14556:14557   */\n      0x00\n        /* \"#utility.yul\":14553:14554   */\n      dup1\n        /* \"#utility.yul\":14546:14558   */\n      revert\n        /* \"#utility.yul\":14500:14560   */\n    tag_490:\n        /* \"#utility.yul\":14450:14566   */\n      pop\n      jump\t// out\n        /* \"#utility.yul\":14572:14694   */\n    tag_324:\n        /* \"#utility.yul\":14645:14669   */\n      tag_492\n        /* \"#utility.yul\":14663:14668   */\n      dup2\n        /* \"#utility.yul\":14645:14669   */\n      tag_398\n      jump\t// in\n    tag_492:\n        /* \"#utility.yul\":14638:14643   */\n      dup2\n        /* \"#utility.yul\":14635:14670   */\n      eq\n        /* \"#utility.yul\":14625:14688   */\n      tag_493\n      jumpi\n        /* \"#utility.yul\":14684:14685   */\n      0x00\n        /* \"#utility.yul\":14681:14682   */\n      dup1\n        /* \"#utility.yul\":14674:14686   */\n      revert\n        /* \"#utility.yul\":14625:14688   */\n    tag_493:\n        /* \"#utility.yul\":14572:14694   */\n      pop\n      jump\t// out\n\n    auxdata: 0xa2646970667358221220468888048ae459c4526273e4b6cb01530e5d1486811198f927530fe218fbb41764736f6c63430008070033\n}\n",
				"bytecode": {
					"linkReferences": {},
					"object": "6080604052600060055560646006556001600755600a60085560006009556000601155600060125560006013553480156200003957600080fd5b50604051620025023803806200250283398181016040528101906200005f91906200028b565b336000806101000a81548173ffffffffffffffffffffffffffffffffffffffff021916908373ffffffffffffffffffffffffffffffffffffffff160217905550600654600d60003373ffffffffffffffffffffffffffffffffffffffff1673ffffffffffffffffffffffffffffffffffffffff168152602001908152602001600020819055508160016000019080519060200190620001009291906200015d565b50806001800190805190602001906200011b9291906200015d565b5060006001600201819055506000600a60006101000a81548160ff0219169083600181111562000150576200014f62000411565b5b02179055505050620004c3565b8280546200016b90620003a5565b90600052602060002090601f0160209004810192826200018f5760008555620001db565b82601f10620001aa57805160ff1916838001178555620001db565b82800160010185558215620001db579182015b82811115620001da578251825591602001919060010190620001bd565b5b509050620001ea9190620001ee565b5090565b5b8082111562000209576000816000905550600101620001ef565b5090565b6000620002246200021e8462000339565b62000310565b905082815260208101848484011115620002435762000242620004a3565b5b620002508482856200036f565b509392505050565b600082601f83011262000270576200026f6200049e565b5b8151620002828482602086016200020d565b91505092915050565b60008060408385031215620002a557620002a4620004ad565b5b600083015167ffffffffffffffff811115620002c657620002c5620004a8565b5b620002d48582860162000258565b925050602083015167ffffffffffffffff811115620002f857620002f7620004a8565b5b620003068582860162000258565b9150509250929050565b60006200031c6200032f565b90506200032a8282620003db565b919050565b6000604051905090565b600067ffffffffffffffff8211156200035757620003566200046f565b5b6200036282620004b2565b9050602081019050919050565b60005b838110156200038f57808201518184015260208101905062000372565b838111156200039f576000848401525b50505050565b60006002820490506001821680620003be57607f821691505b60208210811415620003d557620003d462000440565b5b50919050565b620003e682620004b2565b810181811067ffffffffffffffff821117156200040857620004076200046f565b5b80604052505050565b7f4e487b7100000000000000000000000000000000000000000000000000000000600052602160045260246000fd5b7f4e487b7100000000000000000000000000000000000000000000000000000000600052602260045260246000fd5b7f4e487b7100000000000000000000000000000000000000000000000000000000600052604160045260246000fd5b600080fd5b600080fd5b600080fd5b600080fd5b6000601f19601f8301169050919050565b61202f80620004d36000396000f3fe6080604052600436106101665760003560e01c806387caea78116100d1578063af769c641161008a578063d8124c5f11610064578063d8124c5f1461050c578063d96a094a14610539578063df09440914610555578063f3a8286f1461057e57610166565b8063af769c641461048f578063b9223946146104b8578063cd0c5896146104cf57610166565b806387caea78146103695780638da5cb5b146103a65780639a982416146103d1578063a14ba987146103fc578063a9059cbb1461043b578063ad3494421461046457610166565b80634c0a6af0116101235780634c0a6af01461025957806359ea0173146102705780636fa4f103146102ad5780637427a40c146102d6578063753ec103146103135780637ff9b5961461033e57610166565b80630d15fd771461016b578063162d8afb146101965780631b26586c146101c1578063293230b8146101ec5780633a98ef39146102035780633be75aa31461022e575b600080fd5b34801561017757600080fd5b506101806105a9565b60405161018d9190611b73565b60405180910390f35b3480156101a257600080fd5b506101ab6105af565b6040516101b89190611b73565b60405180910390f35b3480156101cd57600080fd5b506101d66105b5565b6040516101e39190611acc565b60405180910390f35b3480156101f857600080fd5b50610201610643565b005b34801561020f57600080fd5b506102186106c8565b6040516102259190611b73565b60405180910390f35b34801561023a57600080fd5b506102436106ce565b6040516102509190611b73565b60405180910390f35b34801561026557600080fd5b5061026e6106d4565b005b34801561027c57600080fd5b50610297600480360381019061029291906117f6565b6107c9565b6040516102a49190611ab1565b60405180910390f35b3480156102b957600080fd5b506102d460048036038101906102cf9190611890565b6107e9565b005b3480156102e257600080fd5b506102fd60048036038101906102f89190611993565b610887565b60405161030a9190611a7b565b60405180910390f35b34801561031f57600080fd5b506103286108c6565b6040516103359190611acc565b60405180910390f35b34801561034a57600080fd5b50610353610954565b6040516103609190611b73565b60405180910390f35b34801561037557600080fd5b50610390600480360381019061038b9190611863565b61095a565b60405161039d9190611ab1565b60405180910390f35b3480156103b257600080fd5b506103bb610b96565b6040516103c89190611a96565b60405180910390f35b3480156103dd57600080fd5b506103e6610bba565b6040516103f39190611b73565b60405180910390f35b34801561040857600080fd5b50610423600480360381019061041e9190611993565b610bc0565b60405161043293929190611aee565b60405180910390f35b34801561044757600080fd5b50610462600480360381019061045d9190611823565b610d0a565b005b34801561047057600080fd5b50610479610e5e565b6040516104869190611a7b565b60405180910390f35b34801561049b57600080fd5b506104b660048036038101906104b191906117f6565b610e84565b005b3480156104c457600080fd5b506104cd610ff7565b005b3480156104db57600080fd5b506104f660048036038101906104f191906117f6565b611102565b6040516105039190611b73565b60405180910390f35b34801561051857600080fd5b50610521611123565b60405161053093929190611aee565b60405180910390f35b610553600480360381019061054e9190611993565b61124b565b005b34801561056157600080fd5b5061057c60048036038101906105779190611908565b611420565b005b34801561058a57600080fd5b506105936115be565b6040516105a09190611b73565b60405180910390f35b60135481565b60055481565b600f80546105c290611d80565b80601f01602080910402602001604051908101604052809291908181526020018280546105ee90611d80565b801561063b5780601f106106105761010080835404028352916020019161063b565b820191906000526020600020905b81548152906001019060200180831161061e57829003601f168201915b505050505081565b60008054906101000a900473ffffffffffffffffffffffffffffffffffffffff1673ffffffffffffffffffffffffffffffffffffffff163373ffffffffffffffffffffffffffffffffffffffff161461069b57600080fd5b6001600a60006101000a81548160ff021916908360018111156106c1576106c0611e5b565b5b0217905550565b60065481565b60085481565b60008060028111156106e9576106e8611e5b565b5b600e60009054906101000a900460ff16600281111561070b5761070a611e5b565b5b1461071557600080fd5b600e60019054906101000a900473ffffffffffffffffffffffffffffffffffffffff1673ffffffffffffffffffffffffffffffffffffffff163373ffffffffffffffffffffffffffffffffffffffff161461076f57600080fd5b6001600e60006101000a81548160ff0219169083600281111561079557610794611e5b565b5b02179055507fd0dc01800a369fef30d3fced5275b8b916549867622e79efca5245c479fda4ea60405160405180910390a150565b600c6020528060005260406000206000915054906101000a900460ff1681565b6000600e60006101000a81548160ff0219169083600281111561080f5761080e611e5b565b5b021790555081600f908051906020019061082a929190611672565b508060109080519060200190610841929190611672565b5033600e60016101000a81548173ffffffffffffffffffffffffffffffffffffffff021916908373ffffffffffffffffffffffffffffffffffffffff1602179055505050565b600b818154811061089757600080fd5b906000526020600020016000915054906101000a900473ffffffffffffffffffffffffffffffffffffffff1681565b601080546108d390611d80565b80601f01602080910402602001604051908101604052809291908181526020018280546108ff90611d80565b801561094c5780601f106109215761010080835404028352916020019161094c565b820191906000526020600020905b81548152906001019060200180831161092f57829003601f168201915b505050505081565b60075481565b6000600180600281111561097157610970611e5b565b5b600e60009054906101000a900460ff16600281111561099357610992611e5b565b5b1461099d57600080fd5b6000600c60003373ffffffffffffffffffffffffffffffffffffffff1673ffffffffffffffffffffffffffffffffffffffff16815260200190815260200160002060009054906101000a900460ff16610b55576001600c60003373ffffffffffffffffffffffffffffffffffffffff1673ffffffffffffffffffffffffffffffffffffffff16815260200190815260200160002060006101000a81548160ff021916908315150217905550610a506116f8565b33816000019073ffffffffffffffffffffffffffffffffffffffff16908173ffffffffffffffffffffffffffffffffffffffff1681525050848160200190151590811515815250508415610ab75760116000815480929190610ab190611de3565b91905055505b8060146000601354815260200190815260200160002060008201518160000160006101000a81548173ffffffffffffffffffffffffffffffffffffffff021916908373ffffffffffffffffffffffffffffffffffffffff16021790555060208201518160000160146101000a81548160ff02191690831515021790555090505060136000815480929190610b4a90611de3565b919050555060019150505b7f55c65cf9526efdf6c2252fe9757889dbd93e10172cad0f2edb1df619c88dbf7d33604051610b849190611a7b565b60405180910390a18092505050919050565b60008054906101000a900473ffffffffffffffffffffffffffffffffffffffff1681565b60095481565b60048181548110610bd057600080fd5b9060005260206000209060030201600091509050806000018054610bf390611d80565b80601f0160208091040260200160405190810160405280929190818152602001828054610c1f90611d80565b8015610c6c5780601f10610c4157610100808354040283529160200191610c6c565b820191906000526020600020905b815481529060010190602001808311610c4f57829003601f168201915b505050505090806001018054610c8190611d80565b80601f0160208091040260200160405190810160405280929190818152602001828054610cad90611d80565b8015610cfa5780601f10610ccf57610100808354040283529160200191610cfa565b820191906000526020600020905b815481529060010190602001808311610cdd57829003601f168201915b5050505050908060020154905083565b80600d60003373ffffffffffffffffffffffffffffffffffffffff1673ffffffffffffffffffffffffffffffffffffffff168152602001908152602001600020541015610d5657600080fd5b60008054906101000a900473ffffffffffffffffffffffffffffffffffffffff1673ffffffffffffffffffffffffffffffffffffffff163373ffffffffffffffffffffffffffffffffffffffff1614610dae57600080fd5b80600d60003373ffffffffffffffffffffffffffffffffffffffff1673ffffffffffffffffffffffffffffffffffffffff1681526020019081526020016000206000828254610dfd9190611cb0565b9250508190555080600d60008473ffffffffffffffffffffffffffffffffffffffff1673ffffffffffffffffffffffffffffffffffffffff1681526020019081526020016000206000828254610e539190611c00565b925050819055505050565b600e60019054906101000a900473ffffffffffffffffffffffffffffffffffffffff1681565b60008054906101000a900473ffffffffffffffffffffffffffffffffffffffff1673ffffffffffffffffffffffffffffffffffffffff163373ffffffffffffffffffffffffffffffffffffffff1614610edc57600080fd5b610ee5816115c4565b610ff4576000600c60008373ffffffffffffffffffffffffffffffffffffffff1673ffffffffffffffffffffffffffffffffffffffff16815260200190815260200160002060006101000a81548160ff021916908315150217905550600b819080600181540180825580915050600190039060005260206000200160009091909190916101000a81548173ffffffffffffffffffffffffffffffffffffffff021916908373ffffffffffffffffffffffffffffffffffffffff16021790555060096000815480929190610fb790611de3565b91905055507f30040c92e8da146ac410fb6841ea0f60af3b8f3788e5e7354e48d97d018f39dd81604051610feb9190611a7b565b60405180910390a15b50565b600180600281111561100c5761100b611e5b565b5b600e60009054906101000a900460ff16600281111561102e5761102d611e5b565b5b1461103857600080fd5b600e60019054906101000a900473ffffffffffffffffffffffffffffffffffffffff1673ffffffffffffffffffffffffffffffffffffffff163373ffffffffffffffffffffffffffffffffffffffff161461109257600080fd5b6002600e60006101000a81548160ff021916908360028111156110b8576110b7611e5b565b5b02179055506011546012819055507fb43a401dcdbe02a8afa41feb6c651425997908d1a4b79cf505188ba1dd3fd8726012546040516110f79190611b73565b60405180910390a150565b60008173ffffffffffffffffffffffffffffffffffffffff16319050919050565b600180600001805461113490611d80565b80601f016020809104026020016040519081016040528092919081815260200182805461116090611d80565b80156111ad5780601f10611182576101008083540402835291602001916111ad565b820191906000526020600020905b81548152906001019060200180831161119057829003601f168201915b5050505050908060010180546111c290611d80565b80601f01602080910402602001604051908101604052809291908181526020018280546111ee90611d80565b801561123b5780601f106112105761010080835404028352916020019161123b565b820191906000526020600020905b81548152906001019060200180831161121e57829003601f168201915b5050505050908060020154905083565b600854811115611290576040517f08c379a000000000000000000000000000000000000000000000000000000000815260040161128790611b33565b60405180910390fd5b6007548161129e9190611c56565b3410156112e0576040517f08c379a00000000000000000000000000000000000000000000000000000000081526004016112d790611b53565b60405180910390fd5b60008054906101000a900473ffffffffffffffffffffffffffffffffffffffff1673ffffffffffffffffffffffffffffffffffffffff166108fc349081150290604051600060405180830381858888f19350505050158015611346573d6000803e3d6000fd5b5080600d60008060009054906101000a900473ffffffffffffffffffffffffffffffffffffffff1673ffffffffffffffffffffffffffffffffffffffff1673ffffffffffffffffffffffffffffffffffffffff16815260200190815260200160002060008282546113b79190611cb0565b9250508190555080600d60003373ffffffffffffffffffffffffffffffffffffffff1673ffffffffffffffffffffffffffffffffffffffff168152602001908152602001600020600082825461140d9190611c00565b9250508190555061141d33610e84565b50565b60008054906101000a900473ffffffffffffffffffffffffffffffffffffffff1673ffffffffffffffffffffffffffffffffffffffff163373ffffffffffffffffffffffffffffffffffffffff161461147857600080fd5b600080600181111561148d5761148c611e5b565b5b600a60009054906101000a900460ff1660018111156114af576114ae611e5b565b5b146114b957600080fd5b6000604051806060016040528086815260200185815260200184815250905082600160020160008282546114ed9190611c00565b925050819055506004819080600181540180825580915050600190039060005260206000209060030201600090919091909150600082015181600001908051906020019061153c929190611672565b506020820151816001019080519060200190611559929190611672565b506040820151816002015550506001600560008282546115799190611c00565b925050819055507f4578fe17eaab41ae382abe3462bb0cf04bcfee4168d2aad3ce9d5d225d0e27f6856040516115af9190611acc565b60405180910390a15050505050565b60125481565b600080600090505b600b805490508111611667578273ffffffffffffffffffffffffffffffffffffffff16600b828154811061160357611602611eb9565b5b9060005260206000200160009054906101000a900473ffffffffffffffffffffffffffffffffffffffff1673ffffffffffffffffffffffffffffffffffffffff16141561165457600191505061166d565b808061165f90611de3565b9150506115cc565b50600090505b919050565b82805461167e90611d80565b90600052602060002090601f0160209004810192826116a057600085556116e7565b82601f106116b957805160ff19168380011785556116e7565b828001600101855582156116e7579182015b828111156116e65782518255916020019190600101906116cb565b5b5090506116f4919061172a565b5090565b6040518060400160405280600073ffffffffffffffffffffffffffffffffffffffff1681526020016000151581525090565b5b8082111561174357600081600090555060010161172b565b5090565b600061175a61175584611bb3565b611b8e565b90508281526020810184848401111561177657611775611f1c565b5b611781848285611d3e565b509392505050565b60008135905061179881611fb4565b92915050565b6000813590506117ad81611fcb565b92915050565b600082601f8301126117c8576117c7611f17565b5b81356117d8848260208601611747565b91505092915050565b6000813590506117f081611fe2565b92915050565b60006020828403121561180c5761180b611f26565b5b600061181a84828501611789565b91505092915050565b6000806040838503121561183a57611839611f26565b5b600061184885828601611789565b9250506020611859858286016117e1565b9150509250929050565b60006020828403121561187957611878611f26565b5b60006118878482850161179e565b91505092915050565b600080604083850312156118a7576118a6611f26565b5b600083013567ffffffffffffffff8111156118c5576118c4611f21565b5b6118d1858286016117b3565b925050602083013567ffffffffffffffff8111156118f2576118f1611f21565b5b6118fe858286016117b3565b9150509250929050565b60008060006060848603121561192157611920611f26565b5b600084013567ffffffffffffffff81111561193f5761193e611f21565b5b61194b868287016117b3565b935050602084013567ffffffffffffffff81111561196c5761196b611f21565b5b611978868287016117b3565b9250506040611989868287016117e1565b9150509250925092565b6000602082840312156119a9576119a8611f26565b5b60006119b7848285016117e1565b91505092915050565b6119c981611cf6565b82525050565b6119d881611ce4565b82525050565b6119e781611d08565b82525050565b60006119f882611be4565b611a028185611bef565b9350611a12818560208601611d4d565b611a1b81611f2b565b840191505092915050565b6000611a33602383611bef565b9150611a3e82611f3c565b604082019050919050565b6000611a56600e83611bef565b9150611a6182611f8b565b602082019050919050565b611a7581611d34565b82525050565b6000602082019050611a9060008301846119cf565b92915050565b6000602082019050611aab60008301846119c0565b92915050565b6000602082019050611ac660008301846119de565b92915050565b60006020820190508181036000830152611ae681846119ed565b905092915050565b60006060820190508181036000830152611b0881866119ed565b90508181036020830152611b1c81856119ed565b9050611b2b6040830184611a6c565b949350505050565b60006020820190508181036000830152611b4c81611a26565b9050919050565b60006020820190508181036000830152611b6c81611a49565b9050919050565b6000602082019050611b886000830184611a6c565b92915050565b6000611b98611ba9565b9050611ba48282611db2565b919050565b6000604051905090565b600067ffffffffffffffff821115611bce57611bcd611ee8565b5b611bd782611f2b565b9050602081019050919050565b600081519050919050565b600082825260208201905092915050565b6000611c0b82611d34565b9150611c1683611d34565b9250827fffffffffffffffffffffffffffffffffffffffffffffffffffffffffffffffff03821115611c4b57611c4a611e2c565b5b828201905092915050565b6000611c6182611d34565b9150611c6c83611d34565b9250817fffffffffffffffffffffffffffffffffffffffffffffffffffffffffffffffff0483118215151615611ca557611ca4611e2c565b5b828202905092915050565b6000611cbb82611d34565b9150611cc683611d34565b925082821015611cd957611cd8611e2c565b5b828203905092915050565b6000611cef82611d14565b9050919050565b6000611d0182611d14565b9050919050565b60008115159050919050565b600073ffffffffffffffffffffffffffffffffffffffff82169050919050565b6000819050919050565b82818337600083830152505050565b60005b83811015611d6b578082015181840152602081019050611d50565b83811115611d7a576000848401525b50505050565b60006002820490506001821680611d9857607f821691505b60208210811415611dac57611dab611e8a565b5b50919050565b611dbb82611f2b565b810181811067ffffffffffffffff82111715611dda57611dd9611ee8565b5b80604052505050565b6000611dee82611d34565b91507fffffffffffffffffffffffffffffffffffffffffffffffffffffffffffffffff821415611e2157611e20611e2c565b5b600182019050919050565b7f4e487b7100000000000000000000000000000000000000000000000000000000600052601160045260246000fd5b7f4e487b7100000000000000000000000000000000000000000000000000000000600052602160045260246000fd5b7f4e487b7100000000000000000000000000000000000000000000000000000000600052602260045260246000fd5b7f4e487b7100000000000000000000000000000000000000000000000000000000600052603260045260246000fd5b7f4e487b7100000000000000000000000000000000000000000000000000000000600052604160045260246000fd5b600080fd5b600080fd5b600080fd5b600080fd5b6000601f19601f8301169050919050565b7f4e756d626572206f662073686172657320657863656564656420746865206c6960008201527f6d69740000000000000000000000000000000000000000000000000000000000602082015250565b7f4e6f7420656e6f75676820776569000000000000000000000000000000000000600082015250565b611fbd81611ce4565b8114611fc857600080fd5b50565b611fd481611d08565b8114611fdf57600080fd5b50565b611feb81611d34565b8114611ff657600080fd5b5056fea2646970667358221220468888048ae459c4526273e4b6cb01530e5d1486811198f927530fe218fbb41764736f6c63430008070033",
					"opcodes": "PUSH1 0x80 PUSH1 0x40 MSTORE PUSH1 0x0 PUSH1 0x5 SSTORE PUSH1 0x64 PUSH1 0x6 SSTORE PUSH1 0x1 PUSH1 0x7 SSTORE PUSH1 0xA PUSH1 0x8 SSTORE PUSH1 0x0 PUSH1 0x9 SSTORE PUSH1 0x0 PUSH1 0x11 SSTORE PUSH1 0x0 PUSH1 0x12 SSTORE PUSH1 0x0 PUSH1 0x13 SSTORE CALLVALUE DUP1 ISZERO PUSH3 0x39 JUMPI PUSH1 0x0 DUP1 REVERT JUMPDEST POP PUSH1 0x40 MLOAD PUSH3 0x2502 CODESIZE SUB DUP1 PUSH3 0x2502 DUP4 CODECOPY DUP2 DUP2 ADD PUSH1 0x40 MSTORE DUP2 ADD SWAP1 PUSH3 0x5F SWAP2 SWAP1 PUSH3 0x28B JUMP JUMPDEST CALLER PUSH1 0x0 DUP1 PUSH2 0x100 EXP DUP2 SLOAD DUP2 PUSH20 0xFFFFFFFFFFFFFFFFFFFFFFFFFFFFFFFFFFFFFFFF MUL NOT AND SWAP1 DUP4 PUSH20 0xFFFFFFFFFFFFFFFFFFFFFFFFFFFFFFFFFFFFFFFF AND MUL OR SWAP1 SSTORE POP PUSH1 0x6 SLOAD PUSH1 0xD PUSH1 0x0 CALLER PUSH20 0xFFFFFFFFFFFFFFFFFFFFFFFFFFFFFFFFFFFFFFFF AND PUSH20 0xFFFFFFFFFFFFFFFFFFFFFFFFFFFFFFFFFFFFFFFF AND DUP2 MSTORE PUSH1 0x20 ADD SWAP1 DUP2 MSTORE PUSH1 0x20 ADD PUSH1 0x0 KECCAK256 DUP2 SWAP1 SSTORE POP DUP2 PUSH1 0x1 PUSH1 0x0 ADD SWAP1 DUP1 MLOAD SWAP1 PUSH1 0x20 ADD SWAP1 PUSH3 0x100 SWAP3 SWAP2 SWAP1 PUSH3 0x15D JUMP JUMPDEST POP DUP1 PUSH1 0x1 DUP1 ADD SWAP1 DUP1 MLOAD SWAP1 PUSH1 0x20 ADD SWAP1 PUSH3 0x11B SWAP3 SWAP2 SWAP1 PUSH3 0x15D JUMP JUMPDEST POP PUSH1 0x0 PUSH1 0x1 PUSH1 0x2 ADD DUP2 SWAP1 SSTORE POP PUSH1 0x0 PUSH1 0xA PUSH1 0x0 PUSH2 0x100 EXP DUP2 SLOAD DUP2 PUSH1 0xFF MUL NOT AND SWAP1 DUP4 PUSH1 0x1 DUP2 GT ISZERO PUSH3 0x150 JUMPI PUSH3 0x14F PUSH3 0x411 JUMP JUMPDEST JUMPDEST MUL OR SWAP1 SSTORE POP POP POP PUSH3 0x4C3 JUMP JUMPDEST DUP3 DUP1 SLOAD PUSH3 0x16B SWAP1 PUSH3 0x3A5 JUMP JUMPDEST SWAP1 PUSH1 0x0 MSTORE PUSH1 0x20 PUSH1 0x0 KECCAK256 SWAP1 PUSH1 0x1F ADD PUSH1 0x20 SWAP1 DIV DUP2 ADD SWAP3 DUP3 PUSH3 0x18F JUMPI PUSH1 0x0 DUP6 SSTORE PUSH3 0x1DB JUMP JUMPDEST DUP3 PUSH1 0x1F LT PUSH3 0x1AA JUMPI DUP1 MLOAD PUSH1 0xFF NOT AND DUP4 DUP1 ADD OR DUP6 SSTORE PUSH3 0x1DB JUMP JUMPDEST DUP3 DUP1 ADD PUSH1 0x1 ADD DUP6 SSTORE DUP3 ISZERO PUSH3 0x1DB JUMPI SWAP2 DUP3 ADD JUMPDEST DUP3 DUP2 GT ISZERO PUSH3 0x1DA JUMPI DUP3 MLOAD DUP3 SSTORE SWAP2 PUSH1 0x20 ADD SWAP2 SWAP1 PUSH1 0x1 ADD SWAP1 PUSH3 0x1BD JUMP JUMPDEST JUMPDEST POP SWAP1 POP PUSH3 0x1EA SWAP2 SWAP1 PUSH3 0x1EE JUMP JUMPDEST POP SWAP1 JUMP JUMPDEST JUMPDEST DUP1 DUP3 GT ISZERO PUSH3 0x209 JUMPI PUSH1 0x0 DUP2 PUSH1 0x0 SWAP1 SSTORE POP PUSH1 0x1 ADD PUSH3 0x1EF JUMP JUMPDEST POP SWAP1 JUMP JUMPDEST PUSH1 0x0 PUSH3 0x224 PUSH3 0x21E DUP5 PUSH3 0x339 JUMP JUMPDEST PUSH3 0x310 JUMP JUMPDEST SWAP1 POP DUP3 DUP2 MSTORE PUSH1 0x20 DUP2 ADD DUP5 DUP5 DUP5 ADD GT ISZERO PUSH3 0x243 JUMPI PUSH3 0x242 PUSH3 0x4A3 JUMP JUMPDEST JUMPDEST PUSH3 0x250 DUP5 DUP3 DUP6 PUSH3 0x36F JUMP JUMPDEST POP SWAP4 SWAP3 POP POP POP JUMP JUMPDEST PUSH1 0x0 DUP3 PUSH1 0x1F DUP4 ADD SLT PUSH3 0x270 JUMPI PUSH3 0x26F PUSH3 0x49E JUMP JUMPDEST JUMPDEST DUP2 MLOAD PUSH3 0x282 DUP5 DUP3 PUSH1 0x20 DUP7 ADD PUSH3 0x20D JUMP JUMPDEST SWAP2 POP POP SWAP3 SWAP2 POP POP JUMP JUMPDEST PUSH1 0x0 DUP1 PUSH1 0x40 DUP4 DUP6 SUB SLT ISZERO PUSH3 0x2A5 JUMPI PUSH3 0x2A4 PUSH3 0x4AD JUMP JUMPDEST JUMPDEST PUSH1 0x0 DUP4 ADD MLOAD PUSH8 0xFFFFFFFFFFFFFFFF DUP2 GT ISZERO PUSH3 0x2C6 JUMPI PUSH3 0x2C5 PUSH3 0x4A8 JUMP JUMPDEST JUMPDEST PUSH3 0x2D4 DUP6 DUP3 DUP7 ADD PUSH3 0x258 JUMP JUMPDEST SWAP3 POP POP PUSH1 0x20 DUP4 ADD MLOAD PUSH8 0xFFFFFFFFFFFFFFFF DUP2 GT ISZERO PUSH3 0x2F8 JUMPI PUSH3 0x2F7 PUSH3 0x4A8 JUMP JUMPDEST JUMPDEST PUSH3 0x306 DUP6 DUP3 DUP7 ADD PUSH3 0x258 JUMP JUMPDEST SWAP2 POP POP SWAP3 POP SWAP3 SWAP1 POP JUMP JUMPDEST PUSH1 0x0 PUSH3 0x31C PUSH3 0x32F JUMP JUMPDEST SWAP1 POP PUSH3 0x32A DUP3 DUP3 PUSH3 0x3DB JUMP JUMPDEST SWAP2 SWAP1 POP JUMP JUMPDEST PUSH1 0x0 PUSH1 0x40 MLOAD SWAP1 POP SWAP1 JUMP JUMPDEST PUSH1 0x0 PUSH8 0xFFFFFFFFFFFFFFFF DUP3 GT ISZERO PUSH3 0x357 JUMPI PUSH3 0x356 PUSH3 0x46F JUMP JUMPDEST JUMPDEST PUSH3 0x362 DUP3 PUSH3 0x4B2 JUMP JUMPDEST SWAP1 POP PUSH1 0x20 DUP2 ADD SWAP1 POP SWAP2 SWAP1 POP JUMP JUMPDEST PUSH1 0x0 JUMPDEST DUP4 DUP2 LT ISZERO PUSH3 0x38F JUMPI DUP1 DUP3 ADD MLOAD DUP2 DUP5 ADD MSTORE PUSH1 0x20 DUP2 ADD SWAP1 POP PUSH3 0x372 JUMP JUMPDEST DUP4 DUP2 GT ISZERO PUSH3 0x39F JUMPI PUSH1 0x0 DUP5 DUP5 ADD MSTORE JUMPDEST POP POP POP POP JUMP JUMPDEST PUSH1 0x0 PUSH1 0x2 DUP3 DIV SWAP1 POP PUSH1 0x1 DUP3 AND DUP1 PUSH3 0x3BE JUMPI PUSH1 0x7F DUP3 AND SWAP2 POP JUMPDEST PUSH1 0x20 DUP3 LT DUP2 EQ ISZERO PUSH3 0x3D5 JUMPI PUSH3 0x3D4 PUSH3 0x440 JUMP JUMPDEST JUMPDEST POP SWAP2 SWAP1 POP JUMP JUMPDEST PUSH3 0x3E6 DUP3 PUSH3 0x4B2 JUMP JUMPDEST DUP2 ADD DUP2 DUP2 LT PUSH8 0xFFFFFFFFFFFFFFFF DUP3 GT OR ISZERO PUSH3 0x408 JUMPI PUSH3 0x407 PUSH3 0x46F JUMP JUMPDEST JUMPDEST DUP1 PUSH1 0x40 MSTORE POP POP POP JUMP JUMPDEST PUSH32 0x4E487B7100000000000000000000000000000000000000000000000000000000 PUSH1 0x0 MSTORE PUSH1 0x21 PUSH1 0x4 MSTORE PUSH1 0x24 PUSH1 0x0 REVERT JUMPDEST PUSH32 0x4E487B7100000000000000000000000000000000000000000000000000000000 PUSH1 0x0 MSTORE PUSH1 0x22 PUSH1 0x4 MSTORE PUSH1 0x24 PUSH1 0x0 REVERT JUMPDEST PUSH32 0x4E487B7100000000000000000000000000000000000000000000000000000000 PUSH1 0x0 MSTORE PUSH1 0x41 PUSH1 0x4 MSTORE PUSH1 0x24 PUSH1 0x0 REVERT JUMPDEST PUSH1 0x0 DUP1 REVERT JUMPDEST PUSH1 0x0 DUP1 REVERT JUMPDEST PUSH1 0x0 DUP1 REVERT JUMPDEST PUSH1 0x0 DUP1 REVERT JUMPDEST PUSH1 0x0 PUSH1 0x1F NOT PUSH1 0x1F DUP4 ADD AND SWAP1 POP SWAP2 SWAP1 POP JUMP JUMPDEST PUSH2 0x202F DUP1 PUSH3 0x4D3 PUSH1 0x0 CODECOPY PUSH1 0x0 RETURN INVALID PUSH1 0x80 PUSH1 0x40 MSTORE PUSH1 0x4 CALLDATASIZE LT PUSH2 0x166 JUMPI PUSH1 0x0 CALLDATALOAD PUSH1 0xE0 SHR DUP1 PUSH4 0x87CAEA78 GT PUSH2 0xD1 JUMPI DUP1 PUSH4 0xAF769C64 GT PUSH2 0x8A JUMPI DUP1 PUSH4 0xD8124C5F GT PUSH2 0x64 JUMPI DUP1 PUSH4 0xD8124C5F EQ PUSH2 0x50C JUMPI DUP1 PUSH4 0xD96A094A EQ PUSH2 0x539 JUMPI DUP1 PUSH4 0xDF094409 EQ PUSH2 0x555 JUMPI DUP1 PUSH4 0xF3A8286F EQ PUSH2 0x57E JUMPI PUSH2 0x166 JUMP JUMPDEST DUP1 PUSH4 0xAF769C64 EQ PUSH2 0x48F JUMPI DUP1 PUSH4 0xB9223946 EQ PUSH2 0x4B8 JUMPI DUP1 PUSH4 0xCD0C5896 EQ PUSH2 0x4CF JUMPI PUSH2 0x166 JUMP JUMPDEST DUP1 PUSH4 0x87CAEA78 EQ PUSH2 0x369 JUMPI DUP1 PUSH4 0x8DA5CB5B EQ PUSH2 0x3A6 JUMPI DUP1 PUSH4 0x9A982416 EQ PUSH2 0x3D1 JUMPI DUP1 PUSH4 0xA14BA987 EQ PUSH2 0x3FC JUMPI DUP1 PUSH4 0xA9059CBB EQ PUSH2 0x43B JUMPI DUP1 PUSH4 0xAD349442 EQ PUSH2 0x464 JUMPI PUSH2 0x166 JUMP JUMPDEST DUP1 PUSH4 0x4C0A6AF0 GT PUSH2 0x123 JUMPI DUP1 PUSH4 0x4C0A6AF0 EQ PUSH2 0x259 JUMPI DUP1 PUSH4 0x59EA0173 EQ PUSH2 0x270 JUMPI DUP1 PUSH4 0x6FA4F103 EQ PUSH2 0x2AD JUMPI DUP1 PUSH4 0x7427A40C EQ PUSH2 0x2D6 JUMPI DUP1 PUSH4 0x753EC103 EQ PUSH2 0x313 JUMPI DUP1 PUSH4 0x7FF9B596 EQ PUSH2 0x33E JUMPI PUSH2 0x166 JUMP JUMPDEST DUP1 PUSH4 0xD15FD77 EQ PUSH2 0x16B JUMPI DUP1 PUSH4 0x162D8AFB EQ PUSH2 0x196 JUMPI DUP1 PUSH4 0x1B26586C EQ PUSH2 0x1C1 JUMPI DUP1 PUSH4 0x293230B8 EQ PUSH2 0x1EC JUMPI DUP1 PUSH4 0x3A98EF39 EQ PUSH2 0x203 JUMPI DUP1 PUSH4 0x3BE75AA3 EQ PUSH2 0x22E JUMPI JUMPDEST PUSH1 0x0 DUP1 REVERT JUMPDEST CALLVALUE DUP1 ISZERO PUSH2 0x177 JUMPI PUSH1 0x0 DUP1 REVERT JUMPDEST POP PUSH2 0x180 PUSH2 0x5A9 JUMP JUMPDEST PUSH1 0x40 MLOAD PUSH2 0x18D SWAP2 SWAP1 PUSH2 0x1B73 JUMP JUMPDEST PUSH1 0x40 MLOAD DUP1 SWAP2 SUB SWAP1 RETURN JUMPDEST CALLVALUE DUP1 ISZERO PUSH2 0x1A2 JUMPI PUSH1 0x0 DUP1 REVERT JUMPDEST POP PUSH2 0x1AB PUSH2 0x5AF JUMP JUMPDEST PUSH1 0x40 MLOAD PUSH2 0x1B8 SWAP2 SWAP1 PUSH2 0x1B73 JUMP JUMPDEST PUSH1 0x40 MLOAD DUP1 SWAP2 SUB SWAP1 RETURN JUMPDEST CALLVALUE DUP1 ISZERO PUSH2 0x1CD JUMPI PUSH1 0x0 DUP1 REVERT JUMPDEST POP PUSH2 0x1D6 PUSH2 0x5B5 JUMP JUMPDEST PUSH1 0x40 MLOAD PUSH2 0x1E3 SWAP2 SWAP1 PUSH2 0x1ACC JUMP JUMPDEST PUSH1 0x40 MLOAD DUP1 SWAP2 SUB SWAP1 RETURN JUMPDEST CALLVALUE DUP1 ISZERO PUSH2 0x1F8 JUMPI PUSH1 0x0 DUP1 REVERT JUMPDEST POP PUSH2 0x201 PUSH2 0x643 JUMP JUMPDEST STOP JUMPDEST CALLVALUE DUP1 ISZERO PUSH2 0x20F JUMPI PUSH1 0x0 DUP1 REVERT JUMPDEST POP PUSH2 0x218 PUSH2 0x6C8 JUMP JUMPDEST PUSH1 0x40 MLOAD PUSH2 0x225 SWAP2 SWAP1 PUSH2 0x1B73 JUMP JUMPDEST PUSH1 0x40 MLOAD DUP1 SWAP2 SUB SWAP1 RETURN JUMPDEST CALLVALUE DUP1 ISZERO PUSH2 0x23A JUMPI PUSH1 0x0 DUP1 REVERT JUMPDEST POP PUSH2 0x243 PUSH2 0x6CE JUMP JUMPDEST PUSH1 0x40 MLOAD PUSH2 0x250 SWAP2 SWAP1 PUSH2 0x1B73 JUMP JUMPDEST PUSH1 0x40 MLOAD DUP1 SWAP2 SUB SWAP1 RETURN JUMPDEST CALLVALUE DUP1 ISZERO PUSH2 0x265 JUMPI PUSH1 0x0 DUP1 REVERT JUMPDEST POP PUSH2 0x26E PUSH2 0x6D4 JUMP JUMPDEST STOP JUMPDEST CALLVALUE DUP1 ISZERO PUSH2 0x27C JUMPI PUSH1 0x0 DUP1 REVERT JUMPDEST POP PUSH2 0x297 PUSH1 0x4 DUP1 CALLDATASIZE SUB DUP2 ADD SWAP1 PUSH2 0x292 SWAP2 SWAP1 PUSH2 0x17F6 JUMP JUMPDEST PUSH2 0x7C9 JUMP JUMPDEST PUSH1 0x40 MLOAD PUSH2 0x2A4 SWAP2 SWAP1 PUSH2 0x1AB1 JUMP JUMPDEST PUSH1 0x40 MLOAD DUP1 SWAP2 SUB SWAP1 RETURN JUMPDEST CALLVALUE DUP1 ISZERO PUSH2 0x2B9 JUMPI PUSH1 0x0 DUP1 REVERT JUMPDEST POP PUSH2 0x2D4 PUSH1 0x4 DUP1 CALLDATASIZE SUB DUP2 ADD SWAP1 PUSH2 0x2CF SWAP2 SWAP1 PUSH2 0x1890 JUMP JUMPDEST PUSH2 0x7E9 JUMP JUMPDEST STOP JUMPDEST CALLVALUE DUP1 ISZERO PUSH2 0x2E2 JUMPI PUSH1 0x0 DUP1 REVERT JUMPDEST POP PUSH2 0x2FD PUSH1 0x4 DUP1 CALLDATASIZE SUB DUP2 ADD SWAP1 PUSH2 0x2F8 SWAP2 SWAP1 PUSH2 0x1993 JUMP JUMPDEST PUSH2 0x887 JUMP JUMPDEST PUSH1 0x40 MLOAD PUSH2 0x30A SWAP2 SWAP1 PUSH2 0x1A7B JUMP JUMPDEST PUSH1 0x40 MLOAD DUP1 SWAP2 SUB SWAP1 RETURN JUMPDEST CALLVALUE DUP1 ISZERO PUSH2 0x31F JUMPI PUSH1 0x0 DUP1 REVERT JUMPDEST POP PUSH2 0x328 PUSH2 0x8C6 JUMP JUMPDEST PUSH1 0x40 MLOAD PUSH2 0x335 SWAP2 SWAP1 PUSH2 0x1ACC JUMP JUMPDEST PUSH1 0x40 MLOAD DUP1 SWAP2 SUB SWAP1 RETURN JUMPDEST CALLVALUE DUP1 ISZERO PUSH2 0x34A JUMPI PUSH1 0x0 DUP1 REVERT JUMPDEST POP PUSH2 0x353 PUSH2 0x954 JUMP JUMPDEST PUSH1 0x40 MLOAD PUSH2 0x360 SWAP2 SWAP1 PUSH2 0x1B73 JUMP JUMPDEST PUSH1 0x40 MLOAD DUP1 SWAP2 SUB SWAP1 RETURN JUMPDEST CALLVALUE DUP1 ISZERO PUSH2 0x375 JUMPI PUSH1 0x0 DUP1 REVERT JUMPDEST POP PUSH2 0x390 PUSH1 0x4 DUP1 CALLDATASIZE SUB DUP2 ADD SWAP1 PUSH2 0x38B SWAP2 SWAP1 PUSH2 0x1863 JUMP JUMPDEST PUSH2 0x95A JUMP JUMPDEST PUSH1 0x40 MLOAD PUSH2 0x39D SWAP2 SWAP1 PUSH2 0x1AB1 JUMP JUMPDEST PUSH1 0x40 MLOAD DUP1 SWAP2 SUB SWAP1 RETURN JUMPDEST CALLVALUE DUP1 ISZERO PUSH2 0x3B2 JUMPI PUSH1 0x0 DUP1 REVERT JUMPDEST POP PUSH2 0x3BB PUSH2 0xB96 JUMP JUMPDEST PUSH1 0x40 MLOAD PUSH2 0x3C8 SWAP2 SWAP1 PUSH2 0x1A96 JUMP JUMPDEST PUSH1 0x40 MLOAD DUP1 SWAP2 SUB SWAP1 RETURN JUMPDEST CALLVALUE DUP1 ISZERO PUSH2 0x3DD JUMPI PUSH1 0x0 DUP1 REVERT JUMPDEST POP PUSH2 0x3E6 PUSH2 0xBBA JUMP JUMPDEST PUSH1 0x40 MLOAD PUSH2 0x3F3 SWAP2 SWAP1 PUSH2 0x1B73 JUMP JUMPDEST PUSH1 0x40 MLOAD DUP1 SWAP2 SUB SWAP1 RETURN JUMPDEST CALLVALUE DUP1 ISZERO PUSH2 0x408 JUMPI PUSH1 0x0 DUP1 REVERT JUMPDEST POP PUSH2 0x423 PUSH1 0x4 DUP1 CALLDATASIZE SUB DUP2 ADD SWAP1 PUSH2 0x41E SWAP2 SWAP1 PUSH2 0x1993 JUMP JUMPDEST PUSH2 0xBC0 JUMP JUMPDEST PUSH1 0x40 MLOAD PUSH2 0x432 SWAP4 SWAP3 SWAP2 SWAP1 PUSH2 0x1AEE JUMP JUMPDEST PUSH1 0x40 MLOAD DUP1 SWAP2 SUB SWAP1 RETURN JUMPDEST CALLVALUE DUP1 ISZERO PUSH2 0x447 JUMPI PUSH1 0x0 DUP1 REVERT JUMPDEST POP PUSH2 0x462 PUSH1 0x4 DUP1 CALLDATASIZE SUB DUP2 ADD SWAP1 PUSH2 0x45D SWAP2 SWAP1 PUSH2 0x1823 JUMP JUMPDEST PUSH2 0xD0A JUMP JUMPDEST STOP JUMPDEST CALLVALUE DUP1 ISZERO PUSH2 0x470 JUMPI PUSH1 0x0 DUP1 REVERT JUMPDEST POP PUSH2 0x479 PUSH2 0xE5E JUMP JUMPDEST PUSH1 0x40 MLOAD PUSH2 0x486 SWAP2 SWAP1 PUSH2 0x1A7B JUMP JUMPDEST PUSH1 0x40 MLOAD DUP1 SWAP2 SUB SWAP1 RETURN JUMPDEST CALLVALUE DUP1 ISZERO PUSH2 0x49B JUMPI PUSH1 0x0 DUP1 REVERT JUMPDEST POP PUSH2 0x4B6 PUSH1 0x4 DUP1 CALLDATASIZE SUB DUP2 ADD SWAP1 PUSH2 0x4B1 SWAP2 SWAP1 PUSH2 0x17F6 JUMP JUMPDEST PUSH2 0xE84 JUMP JUMPDEST STOP JUMPDEST CALLVALUE DUP1 ISZERO PUSH2 0x4C4 JUMPI PUSH1 0x0 DUP1 REVERT JUMPDEST POP PUSH2 0x4CD PUSH2 0xFF7 JUMP JUMPDEST STOP JUMPDEST CALLVALUE DUP1 ISZERO PUSH2 0x4DB JUMPI PUSH1 0x0 DUP1 REVERT JUMPDEST POP PUSH2 0x4F6 PUSH1 0x4 DUP1 CALLDATASIZE SUB DUP2 ADD SWAP1 PUSH2 0x4F1 SWAP2 SWAP1 PUSH2 0x17F6 JUMP JUMPDEST PUSH2 0x1102 JUMP JUMPDEST PUSH1 0x40 MLOAD PUSH2 0x503 SWAP2 SWAP1 PUSH2 0x1B73 JUMP JUMPDEST PUSH1 0x40 MLOAD DUP1 SWAP2 SUB SWAP1 RETURN JUMPDEST CALLVALUE DUP1 ISZERO PUSH2 0x518 JUMPI PUSH1 0x0 DUP1 REVERT JUMPDEST POP PUSH2 0x521 PUSH2 0x1123 JUMP JUMPDEST PUSH1 0x40 MLOAD PUSH2 0x530 SWAP4 SWAP3 SWAP2 SWAP1 PUSH2 0x1AEE JUMP JUMPDEST PUSH1 0x40 MLOAD DUP1 SWAP2 SUB SWAP1 RETURN JUMPDEST PUSH2 0x553 PUSH1 0x4 DUP1 CALLDATASIZE SUB DUP2 ADD SWAP1 PUSH2 0x54E SWAP2 SWAP1 PUSH2 0x1993 JUMP JUMPDEST PUSH2 0x124B JUMP JUMPDEST STOP JUMPDEST CALLVALUE DUP1 ISZERO PUSH2 0x561 JUMPI PUSH1 0x0 DUP1 REVERT JUMPDEST POP PUSH2 0x57C PUSH1 0x4 DUP1 CALLDATASIZE SUB DUP2 ADD SWAP1 PUSH2 0x577 SWAP2 SWAP1 PUSH2 0x1908 JUMP JUMPDEST PUSH2 0x1420 JUMP JUMPDEST STOP JUMPDEST CALLVALUE DUP1 ISZERO PUSH2 0x58A JUMPI PUSH1 0x0 DUP1 REVERT JUMPDEST POP PUSH2 0x593 PUSH2 0x15BE JUMP JUMPDEST PUSH1 0x40 MLOAD PUSH2 0x5A0 SWAP2 SWAP1 PUSH2 0x1B73 JUMP JUMPDEST PUSH1 0x40 MLOAD DUP1 SWAP2 SUB SWAP1 RETURN JUMPDEST PUSH1 0x13 SLOAD DUP2 JUMP JUMPDEST PUSH1 0x5 SLOAD DUP2 JUMP JUMPDEST PUSH1 0xF DUP1 SLOAD PUSH2 0x5C2 SWAP1 PUSH2 0x1D80 JUMP JUMPDEST DUP1 PUSH1 0x1F ADD PUSH1 0x20 DUP1 SWAP2 DIV MUL PUSH1 0x20 ADD PUSH1 0x40 MLOAD SWAP1 DUP2 ADD PUSH1 0x40 MSTORE DUP1 SWAP3 SWAP2 SWAP1 DUP2 DUP2 MSTORE PUSH1 0x20 ADD DUP3 DUP1 SLOAD PUSH2 0x5EE SWAP1 PUSH2 0x1D80 JUMP JUMPDEST DUP1 ISZERO PUSH2 0x63B JUMPI DUP1 PUSH1 0x1F LT PUSH2 0x610 JUMPI PUSH2 0x100 DUP1 DUP4 SLOAD DIV MUL DUP4 MSTORE SWAP2 PUSH1 0x20 ADD SWAP2 PUSH2 0x63B JUMP JUMPDEST DUP3 ADD SWAP2 SWAP1 PUSH1 0x0 MSTORE PUSH1 0x20 PUSH1 0x0 KECCAK256 SWAP1 JUMPDEST DUP2 SLOAD DUP2 MSTORE SWAP1 PUSH1 0x1 ADD SWAP1 PUSH1 0x20 ADD DUP1 DUP4 GT PUSH2 0x61E JUMPI DUP3 SWAP1 SUB PUSH1 0x1F AND DUP3 ADD SWAP2 JUMPDEST POP POP POP POP POP DUP2 JUMP JUMPDEST PUSH1 0x0 DUP1 SLOAD SWAP1 PUSH2 0x100 EXP SWAP1 DIV PUSH20 0xFFFFFFFFFFFFFFFFFFFFFFFFFFFFFFFFFFFFFFFF AND PUSH20 0xFFFFFFFFFFFFFFFFFFFFFFFFFFFFFFFFFFFFFFFF AND CALLER PUSH20 0xFFFFFFFFFFFFFFFFFFFFFFFFFFFFFFFFFFFFFFFF AND EQ PUSH2 0x69B JUMPI PUSH1 0x0 DUP1 REVERT JUMPDEST PUSH1 0x1 PUSH1 0xA PUSH1 0x0 PUSH2 0x100 EXP DUP2 SLOAD DUP2 PUSH1 0xFF MUL NOT AND SWAP1 DUP4 PUSH1 0x1 DUP2 GT ISZERO PUSH2 0x6C1 JUMPI PUSH2 0x6C0 PUSH2 0x1E5B JUMP JUMPDEST JUMPDEST MUL OR SWAP1 SSTORE POP JUMP JUMPDEST PUSH1 0x6 SLOAD DUP2 JUMP JUMPDEST PUSH1 0x8 SLOAD DUP2 JUMP JUMPDEST PUSH1 0x0 DUP1 PUSH1 0x2 DUP2 GT ISZERO PUSH2 0x6E9 JUMPI PUSH2 0x6E8 PUSH2 0x1E5B JUMP JUMPDEST JUMPDEST PUSH1 0xE PUSH1 0x0 SWAP1 SLOAD SWAP1 PUSH2 0x100 EXP SWAP1 DIV PUSH1 0xFF AND PUSH1 0x2 DUP2 GT ISZERO PUSH2 0x70B JUMPI PUSH2 0x70A PUSH2 0x1E5B JUMP JUMPDEST JUMPDEST EQ PUSH2 0x715 JUMPI PUSH1 0x0 DUP1 REVERT JUMPDEST PUSH1 0xE PUSH1 0x1 SWAP1 SLOAD SWAP1 PUSH2 0x100 EXP SWAP1 DIV PUSH20 0xFFFFFFFFFFFFFFFFFFFFFFFFFFFFFFFFFFFFFFFF AND PUSH20 0xFFFFFFFFFFFFFFFFFFFFFFFFFFFFFFFFFFFFFFFF AND CALLER PUSH20 0xFFFFFFFFFFFFFFFFFFFFFFFFFFFFFFFFFFFFFFFF AND EQ PUSH2 0x76F JUMPI PUSH1 0x0 DUP1 REVERT JUMPDEST PUSH1 0x1 PUSH1 0xE PUSH1 0x0 PUSH2 0x100 EXP DUP2 SLOAD DUP2 PUSH1 0xFF MUL NOT AND SWAP1 DUP4 PUSH1 0x2 DUP2 GT ISZERO PUSH2 0x795 JUMPI PUSH2 0x794 PUSH2 0x1E5B JUMP JUMPDEST JUMPDEST MUL OR SWAP1 SSTORE POP PUSH32 0xD0DC01800A369FEF30D3FCED5275B8B916549867622E79EFCA5245C479FDA4EA PUSH1 0x40 MLOAD PUSH1 0x40 MLOAD DUP1 SWAP2 SUB SWAP1 LOG1 POP JUMP JUMPDEST PUSH1 0xC PUSH1 0x20 MSTORE DUP1 PUSH1 0x0 MSTORE PUSH1 0x40 PUSH1 0x0 KECCAK256 PUSH1 0x0 SWAP2 POP SLOAD SWAP1 PUSH2 0x100 EXP SWAP1 DIV PUSH1 0xFF AND DUP2 JUMP JUMPDEST PUSH1 0x0 PUSH1 0xE PUSH1 0x0 PUSH2 0x100 EXP DUP2 SLOAD DUP2 PUSH1 0xFF MUL NOT AND SWAP1 DUP4 PUSH1 0x2 DUP2 GT ISZERO PUSH2 0x80F JUMPI PUSH2 0x80E PUSH2 0x1E5B JUMP JUMPDEST JUMPDEST MUL OR SWAP1 SSTORE POP DUP2 PUSH1 0xF SWAP1 DUP1 MLOAD SWAP1 PUSH1 0x20 ADD SWAP1 PUSH2 0x82A SWAP3 SWAP2 SWAP1 PUSH2 0x1672 JUMP JUMPDEST POP DUP1 PUSH1 0x10 SWAP1 DUP1 MLOAD SWAP1 PUSH1 0x20 ADD SWAP1 PUSH2 0x841 SWAP3 SWAP2 SWAP1 PUSH2 0x1672 JUMP JUMPDEST POP CALLER PUSH1 0xE PUSH1 0x1 PUSH2 0x100 EXP DUP2 SLOAD DUP2 PUSH20 0xFFFFFFFFFFFFFFFFFFFFFFFFFFFFFFFFFFFFFFFF MUL NOT AND SWAP1 DUP4 PUSH20 0xFFFFFFFFFFFFFFFFFFFFFFFFFFFFFFFFFFFFFFFF AND MUL OR SWAP1 SSTORE POP POP POP JUMP JUMPDEST PUSH1 0xB DUP2 DUP2 SLOAD DUP2 LT PUSH2 0x897 JUMPI PUSH1 0x0 DUP1 REVERT JUMPDEST SWAP1 PUSH1 0x0 MSTORE PUSH1 0x20 PUSH1 0x0 KECCAK256 ADD PUSH1 0x0 SWAP2 POP SLOAD SWAP1 PUSH2 0x100 EXP SWAP1 DIV PUSH20 0xFFFFFFFFFFFFFFFFFFFFFFFFFFFFFFFFFFFFFFFF AND DUP2 JUMP JUMPDEST PUSH1 0x10 DUP1 SLOAD PUSH2 0x8D3 SWAP1 PUSH2 0x1D80 JUMP JUMPDEST DUP1 PUSH1 0x1F ADD PUSH1 0x20 DUP1 SWAP2 DIV MUL PUSH1 0x20 ADD PUSH1 0x40 MLOAD SWAP1 DUP2 ADD PUSH1 0x40 MSTORE DUP1 SWAP3 SWAP2 SWAP1 DUP2 DUP2 MSTORE PUSH1 0x20 ADD DUP3 DUP1 SLOAD PUSH2 0x8FF SWAP1 PUSH2 0x1D80 JUMP JUMPDEST DUP1 ISZERO PUSH2 0x94C JUMPI DUP1 PUSH1 0x1F LT PUSH2 0x921 JUMPI PUSH2 0x100 DUP1 DUP4 SLOAD DIV MUL DUP4 MSTORE SWAP2 PUSH1 0x20 ADD SWAP2 PUSH2 0x94C JUMP JUMPDEST DUP3 ADD SWAP2 SWAP1 PUSH1 0x0 MSTORE PUSH1 0x20 PUSH1 0x0 KECCAK256 SWAP1 JUMPDEST DUP2 SLOAD DUP2 MSTORE SWAP1 PUSH1 0x1 ADD SWAP1 PUSH1 0x20 ADD DUP1 DUP4 GT PUSH2 0x92F JUMPI DUP3 SWAP1 SUB PUSH1 0x1F AND DUP3 ADD SWAP2 JUMPDEST POP POP POP POP POP DUP2 JUMP JUMPDEST PUSH1 0x7 SLOAD DUP2 JUMP JUMPDEST PUSH1 0x0 PUSH1 0x1 DUP1 PUSH1 0x2 DUP2 GT ISZERO PUSH2 0x971 JUMPI PUSH2 0x970 PUSH2 0x1E5B JUMP JUMPDEST JUMPDEST PUSH1 0xE PUSH1 0x0 SWAP1 SLOAD SWAP1 PUSH2 0x100 EXP SWAP1 DIV PUSH1 0xFF AND PUSH1 0x2 DUP2 GT ISZERO PUSH2 0x993 JUMPI PUSH2 0x992 PUSH2 0x1E5B JUMP JUMPDEST JUMPDEST EQ PUSH2 0x99D JUMPI PUSH1 0x0 DUP1 REVERT JUMPDEST PUSH1 0x0 PUSH1 0xC PUSH1 0x0 CALLER PUSH20 0xFFFFFFFFFFFFFFFFFFFFFFFFFFFFFFFFFFFFFFFF AND PUSH20 0xFFFFFFFFFFFFFFFFFFFFFFFFFFFFFFFFFFFFFFFF AND DUP2 MSTORE PUSH1 0x20 ADD SWAP1 DUP2 MSTORE PUSH1 0x20 ADD PUSH1 0x0 KECCAK256 PUSH1 0x0 SWAP1 SLOAD SWAP1 PUSH2 0x100 EXP SWAP1 DIV PUSH1 0xFF AND PUSH2 0xB55 JUMPI PUSH1 0x1 PUSH1 0xC PUSH1 0x0 CALLER PUSH20 0xFFFFFFFFFFFFFFFFFFFFFFFFFFFFFFFFFFFFFFFF AND PUSH20 0xFFFFFFFFFFFFFFFFFFFFFFFFFFFFFFFFFFFFFFFF AND DUP2 MSTORE PUSH1 0x20 ADD SWAP1 DUP2 MSTORE PUSH1 0x20 ADD PUSH1 0x0 KECCAK256 PUSH1 0x0 PUSH2 0x100 EXP DUP2 SLOAD DUP2 PUSH1 0xFF MUL NOT AND SWAP1 DUP4 ISZERO ISZERO MUL OR SWAP1 SSTORE POP PUSH2 0xA50 PUSH2 0x16F8 JUMP JUMPDEST CALLER DUP2 PUSH1 0x0 ADD SWAP1 PUSH20 0xFFFFFFFFFFFFFFFFFFFFFFFFFFFFFFFFFFFFFFFF AND SWAP1 DUP2 PUSH20 0xFFFFFFFFFFFFFFFFFFFFFFFFFFFFFFFFFFFFFFFF AND DUP2 MSTORE POP POP DUP5 DUP2 PUSH1 0x20 ADD SWAP1 ISZERO ISZERO SWAP1 DUP2 ISZERO ISZERO DUP2 MSTORE POP POP DUP5 ISZERO PUSH2 0xAB7 JUMPI PUSH1 0x11 PUSH1 0x0 DUP2 SLOAD DUP1 SWAP3 SWAP2 SWAP1 PUSH2 0xAB1 SWAP1 PUSH2 0x1DE3 JUMP JUMPDEST SWAP2 SWAP1 POP SSTORE POP JUMPDEST DUP1 PUSH1 0x14 PUSH1 0x0 PUSH1 0x13 SLOAD DUP2 MSTORE PUSH1 0x20 ADD SWAP1 DUP2 MSTORE PUSH1 0x20 ADD PUSH1 0x0 KECCAK256 PUSH1 0x0 DUP3 ADD MLOAD DUP2 PUSH1 0x0 ADD PUSH1 0x0 PUSH2 0x100 EXP DUP2 SLOAD DUP2 PUSH20 0xFFFFFFFFFFFFFFFFFFFFFFFFFFFFFFFFFFFFFFFF MUL NOT AND SWAP1 DUP4 PUSH20 0xFFFFFFFFFFFFFFFFFFFFFFFFFFFFFFFFFFFFFFFF AND MUL OR SWAP1 SSTORE POP PUSH1 0x20 DUP3 ADD MLOAD DUP2 PUSH1 0x0 ADD PUSH1 0x14 PUSH2 0x100 EXP DUP2 SLOAD DUP2 PUSH1 0xFF MUL NOT AND SWAP1 DUP4 ISZERO ISZERO MUL OR SWAP1 SSTORE POP SWAP1 POP POP PUSH1 0x13 PUSH1 0x0 DUP2 SLOAD DUP1 SWAP3 SWAP2 SWAP1 PUSH2 0xB4A SWAP1 PUSH2 0x1DE3 JUMP JUMPDEST SWAP2 SWAP1 POP SSTORE POP PUSH1 0x1 SWAP2 POP POP JUMPDEST PUSH32 0x55C65CF9526EFDF6C2252FE9757889DBD93E10172CAD0F2EDB1DF619C88DBF7D CALLER PUSH1 0x40 MLOAD PUSH2 0xB84 SWAP2 SWAP1 PUSH2 0x1A7B JUMP JUMPDEST PUSH1 0x40 MLOAD DUP1 SWAP2 SUB SWAP1 LOG1 DUP1 SWAP3 POP POP POP SWAP2 SWAP1 POP JUMP JUMPDEST PUSH1 0x0 DUP1 SLOAD SWAP1 PUSH2 0x100 EXP SWAP1 DIV PUSH20 0xFFFFFFFFFFFFFFFFFFFFFFFFFFFFFFFFFFFFFFFF AND DUP2 JUMP JUMPDEST PUSH1 0x9 SLOAD DUP2 JUMP JUMPDEST PUSH1 0x4 DUP2 DUP2 SLOAD DUP2 LT PUSH2 0xBD0 JUMPI PUSH1 0x0 DUP1 REVERT JUMPDEST SWAP1 PUSH1 0x0 MSTORE PUSH1 0x20 PUSH1 0x0 KECCAK256 SWAP1 PUSH1 0x3 MUL ADD PUSH1 0x0 SWAP2 POP SWAP1 POP DUP1 PUSH1 0x0 ADD DUP1 SLOAD PUSH2 0xBF3 SWAP1 PUSH2 0x1D80 JUMP JUMPDEST DUP1 PUSH1 0x1F ADD PUSH1 0x20 DUP1 SWAP2 DIV MUL PUSH1 0x20 ADD PUSH1 0x40 MLOAD SWAP1 DUP2 ADD PUSH1 0x40 MSTORE DUP1 SWAP3 SWAP2 SWAP1 DUP2 DUP2 MSTORE PUSH1 0x20 ADD DUP3 DUP1 SLOAD PUSH2 0xC1F SWAP1 PUSH2 0x1D80 JUMP JUMPDEST DUP1 ISZERO PUSH2 0xC6C JUMPI DUP1 PUSH1 0x1F LT PUSH2 0xC41 JUMPI PUSH2 0x100 DUP1 DUP4 SLOAD DIV MUL DUP4 MSTORE SWAP2 PUSH1 0x20 ADD SWAP2 PUSH2 0xC6C JUMP JUMPDEST DUP3 ADD SWAP2 SWAP1 PUSH1 0x0 MSTORE PUSH1 0x20 PUSH1 0x0 KECCAK256 SWAP1 JUMPDEST DUP2 SLOAD DUP2 MSTORE SWAP1 PUSH1 0x1 ADD SWAP1 PUSH1 0x20 ADD DUP1 DUP4 GT PUSH2 0xC4F JUMPI DUP3 SWAP1 SUB PUSH1 0x1F AND DUP3 ADD SWAP2 JUMPDEST POP POP POP POP POP SWAP1 DUP1 PUSH1 0x1 ADD DUP1 SLOAD PUSH2 0xC81 SWAP1 PUSH2 0x1D80 JUMP JUMPDEST DUP1 PUSH1 0x1F ADD PUSH1 0x20 DUP1 SWAP2 DIV MUL PUSH1 0x20 ADD PUSH1 0x40 MLOAD SWAP1 DUP2 ADD PUSH1 0x40 MSTORE DUP1 SWAP3 SWAP2 SWAP1 DUP2 DUP2 MSTORE PUSH1 0x20 ADD DUP3 DUP1 SLOAD PUSH2 0xCAD SWAP1 PUSH2 0x1D80 JUMP JUMPDEST DUP1 ISZERO PUSH2 0xCFA JUMPI DUP1 PUSH1 0x1F LT PUSH2 0xCCF JUMPI PUSH2 0x100 DUP1 DUP4 SLOAD DIV MUL DUP4 MSTORE SWAP2 PUSH1 0x20 ADD SWAP2 PUSH2 0xCFA JUMP JUMPDEST DUP3 ADD SWAP2 SWAP1 PUSH1 0x0 MSTORE PUSH1 0x20 PUSH1 0x0 KECCAK256 SWAP1 JUMPDEST DUP2 SLOAD DUP2 MSTORE SWAP1 PUSH1 0x1 ADD SWAP1 PUSH1 0x20 ADD DUP1 DUP4 GT PUSH2 0xCDD JUMPI DUP3 SWAP1 SUB PUSH1 0x1F AND DUP3 ADD SWAP2 JUMPDEST POP POP POP POP POP SWAP1 DUP1 PUSH1 0x2 ADD SLOAD SWAP1 POP DUP4 JUMP JUMPDEST DUP1 PUSH1 0xD PUSH1 0x0 CALLER PUSH20 0xFFFFFFFFFFFFFFFFFFFFFFFFFFFFFFFFFFFFFFFF AND PUSH20 0xFFFFFFFFFFFFFFFFFFFFFFFFFFFFFFFFFFFFFFFF AND DUP2 MSTORE PUSH1 0x20 ADD SWAP1 DUP2 MSTORE PUSH1 0x20 ADD PUSH1 0x0 KECCAK256 SLOAD LT ISZERO PUSH2 0xD56 JUMPI PUSH1 0x0 DUP1 REVERT JUMPDEST PUSH1 0x0 DUP1 SLOAD SWAP1 PUSH2 0x100 EXP SWAP1 DIV PUSH20 0xFFFFFFFFFFFFFFFFFFFFFFFFFFFFFFFFFFFFFFFF AND PUSH20 0xFFFFFFFFFFFFFFFFFFFFFFFFFFFFFFFFFFFFFFFF AND CALLER PUSH20 0xFFFFFFFFFFFFFFFFFFFFFFFFFFFFFFFFFFFFFFFF AND EQ PUSH2 0xDAE JUMPI PUSH1 0x0 DUP1 REVERT JUMPDEST DUP1 PUSH1 0xD PUSH1 0x0 CALLER PUSH20 0xFFFFFFFFFFFFFFFFFFFFFFFFFFFFFFFFFFFFFFFF AND PUSH20 0xFFFFFFFFFFFFFFFFFFFFFFFFFFFFFFFFFFFFFFFF AND DUP2 MSTORE PUSH1 0x20 ADD SWAP1 DUP2 MSTORE PUSH1 0x20 ADD PUSH1 0x0 KECCAK256 PUSH1 0x0 DUP3 DUP3 SLOAD PUSH2 0xDFD SWAP2 SWAP1 PUSH2 0x1CB0 JUMP JUMPDEST SWAP3 POP POP DUP2 SWAP1 SSTORE POP DUP1 PUSH1 0xD PUSH1 0x0 DUP5 PUSH20 0xFFFFFFFFFFFFFFFFFFFFFFFFFFFFFFFFFFFFFFFF AND PUSH20 0xFFFFFFFFFFFFFFFFFFFFFFFFFFFFFFFFFFFFFFFF AND DUP2 MSTORE PUSH1 0x20 ADD SWAP1 DUP2 MSTORE PUSH1 0x20 ADD PUSH1 0x0 KECCAK256 PUSH1 0x0 DUP3 DUP3 SLOAD PUSH2 0xE53 SWAP2 SWAP1 PUSH2 0x1C00 JUMP JUMPDEST SWAP3 POP POP DUP2 SWAP1 SSTORE POP POP POP JUMP JUMPDEST PUSH1 0xE PUSH1 0x1 SWAP1 SLOAD SWAP1 PUSH2 0x100 EXP SWAP1 DIV PUSH20 0xFFFFFFFFFFFFFFFFFFFFFFFFFFFFFFFFFFFFFFFF AND DUP2 JUMP JUMPDEST PUSH1 0x0 DUP1 SLOAD SWAP1 PUSH2 0x100 EXP SWAP1 DIV PUSH20 0xFFFFFFFFFFFFFFFFFFFFFFFFFFFFFFFFFFFFFFFF AND PUSH20 0xFFFFFFFFFFFFFFFFFFFFFFFFFFFFFFFFFFFFFFFF AND CALLER PUSH20 0xFFFFFFFFFFFFFFFFFFFFFFFFFFFFFFFFFFFFFFFF AND EQ PUSH2 0xEDC JUMPI PUSH1 0x0 DUP1 REVERT JUMPDEST PUSH2 0xEE5 DUP2 PUSH2 0x15C4 JUMP JUMPDEST PUSH2 0xFF4 JUMPI PUSH1 0x0 PUSH1 0xC PUSH1 0x0 DUP4 PUSH20 0xFFFFFFFFFFFFFFFFFFFFFFFFFFFFFFFFFFFFFFFF AND PUSH20 0xFFFFFFFFFFFFFFFFFFFFFFFFFFFFFFFFFFFFFFFF AND DUP2 MSTORE PUSH1 0x20 ADD SWAP1 DUP2 MSTORE PUSH1 0x20 ADD PUSH1 0x0 KECCAK256 PUSH1 0x0 PUSH2 0x100 EXP DUP2 SLOAD DUP2 PUSH1 0xFF MUL NOT AND SWAP1 DUP4 ISZERO ISZERO MUL OR SWAP1 SSTORE POP PUSH1 0xB DUP2 SWAP1 DUP1 PUSH1 0x1 DUP2 SLOAD ADD DUP1 DUP3 SSTORE DUP1 SWAP2 POP POP PUSH1 0x1 SWAP1 SUB SWAP1 PUSH1 0x0 MSTORE PUSH1 0x20 PUSH1 0x0 KECCAK256 ADD PUSH1 0x0 SWAP1 SWAP2 SWAP1 SWAP2 SWAP1 SWAP2 PUSH2 0x100 EXP DUP2 SLOAD DUP2 PUSH20 0xFFFFFFFFFFFFFFFFFFFFFFFFFFFFFFFFFFFFFFFF MUL NOT AND SWAP1 DUP4 PUSH20 0xFFFFFFFFFFFFFFFFFFFFFFFFFFFFFFFFFFFFFFFF AND MUL OR SWAP1 SSTORE POP PUSH1 0x9 PUSH1 0x0 DUP2 SLOAD DUP1 SWAP3 SWAP2 SWAP1 PUSH2 0xFB7 SWAP1 PUSH2 0x1DE3 JUMP JUMPDEST SWAP2 SWAP1 POP SSTORE POP PUSH32 0x30040C92E8DA146AC410FB6841EA0F60AF3B8F3788E5E7354E48D97D018F39DD DUP2 PUSH1 0x40 MLOAD PUSH2 0xFEB SWAP2 SWAP1 PUSH2 0x1A7B JUMP JUMPDEST PUSH1 0x40 MLOAD DUP1 SWAP2 SUB SWAP1 LOG1 JUMPDEST POP JUMP JUMPDEST PUSH1 0x1 DUP1 PUSH1 0x2 DUP2 GT ISZERO PUSH2 0x100C JUMPI PUSH2 0x100B PUSH2 0x1E5B JUMP JUMPDEST JUMPDEST PUSH1 0xE PUSH1 0x0 SWAP1 SLOAD SWAP1 PUSH2 0x100 EXP SWAP1 DIV PUSH1 0xFF AND PUSH1 0x2 DUP2 GT ISZERO PUSH2 0x102E JUMPI PUSH2 0x102D PUSH2 0x1E5B JUMP JUMPDEST JUMPDEST EQ PUSH2 0x1038 JUMPI PUSH1 0x0 DUP1 REVERT JUMPDEST PUSH1 0xE PUSH1 0x1 SWAP1 SLOAD SWAP1 PUSH2 0x100 EXP SWAP1 DIV PUSH20 0xFFFFFFFFFFFFFFFFFFFFFFFFFFFFFFFFFFFFFFFF AND PUSH20 0xFFFFFFFFFFFFFFFFFFFFFFFFFFFFFFFFFFFFFFFF AND CALLER PUSH20 0xFFFFFFFFFFFFFFFFFFFFFFFFFFFFFFFFFFFFFFFF AND EQ PUSH2 0x1092 JUMPI PUSH1 0x0 DUP1 REVERT JUMPDEST PUSH1 0x2 PUSH1 0xE PUSH1 0x0 PUSH2 0x100 EXP DUP2 SLOAD DUP2 PUSH1 0xFF MUL NOT AND SWAP1 DUP4 PUSH1 0x2 DUP2 GT ISZERO PUSH2 0x10B8 JUMPI PUSH2 0x10B7 PUSH2 0x1E5B JUMP JUMPDEST JUMPDEST MUL OR SWAP1 SSTORE POP PUSH1 0x11 SLOAD PUSH1 0x12 DUP2 SWAP1 SSTORE POP PUSH32 0xB43A401DCDBE02A8AFA41FEB6C651425997908D1A4B79CF505188BA1DD3FD872 PUSH1 0x12 SLOAD PUSH1 0x40 MLOAD PUSH2 0x10F7 SWAP2 SWAP1 PUSH2 0x1B73 JUMP JUMPDEST PUSH1 0x40 MLOAD DUP1 SWAP2 SUB SWAP1 LOG1 POP JUMP JUMPDEST PUSH1 0x0 DUP2 PUSH20 0xFFFFFFFFFFFFFFFFFFFFFFFFFFFFFFFFFFFFFFFF AND BALANCE SWAP1 POP SWAP2 SWAP1 POP JUMP JUMPDEST PUSH1 0x1 DUP1 PUSH1 0x0 ADD DUP1 SLOAD PUSH2 0x1134 SWAP1 PUSH2 0x1D80 JUMP JUMPDEST DUP1 PUSH1 0x1F ADD PUSH1 0x20 DUP1 SWAP2 DIV MUL PUSH1 0x20 ADD PUSH1 0x40 MLOAD SWAP1 DUP2 ADD PUSH1 0x40 MSTORE DUP1 SWAP3 SWAP2 SWAP1 DUP2 DUP2 MSTORE PUSH1 0x20 ADD DUP3 DUP1 SLOAD PUSH2 0x1160 SWAP1 PUSH2 0x1D80 JUMP JUMPDEST DUP1 ISZERO PUSH2 0x11AD JUMPI DUP1 PUSH1 0x1F LT PUSH2 0x1182 JUMPI PUSH2 0x100 DUP1 DUP4 SLOAD DIV MUL DUP4 MSTORE SWAP2 PUSH1 0x20 ADD SWAP2 PUSH2 0x11AD JUMP JUMPDEST DUP3 ADD SWAP2 SWAP1 PUSH1 0x0 MSTORE PUSH1 0x20 PUSH1 0x0 KECCAK256 SWAP1 JUMPDEST DUP2 SLOAD DUP2 MSTORE SWAP1 PUSH1 0x1 ADD SWAP1 PUSH1 0x20 ADD DUP1 DUP4 GT PUSH2 0x1190 JUMPI DUP3 SWAP1 SUB PUSH1 0x1F AND DUP3 ADD SWAP2 JUMPDEST POP POP POP POP POP SWAP1 DUP1 PUSH1 0x1 ADD DUP1 SLOAD PUSH2 0x11C2 SWAP1 PUSH2 0x1D80 JUMP JUMPDEST DUP1 PUSH1 0x1F ADD PUSH1 0x20 DUP1 SWAP2 DIV MUL PUSH1 0x20 ADD PUSH1 0x40 MLOAD SWAP1 DUP2 ADD PUSH1 0x40 MSTORE DUP1 SWAP3 SWAP2 SWAP1 DUP2 DUP2 MSTORE PUSH1 0x20 ADD DUP3 DUP1 SLOAD PUSH2 0x11EE SWAP1 PUSH2 0x1D80 JUMP JUMPDEST DUP1 ISZERO PUSH2 0x123B JUMPI DUP1 PUSH1 0x1F LT PUSH2 0x1210 JUMPI PUSH2 0x100 DUP1 DUP4 SLOAD DIV MUL DUP4 MSTORE SWAP2 PUSH1 0x20 ADD SWAP2 PUSH2 0x123B JUMP JUMPDEST DUP3 ADD SWAP2 SWAP1 PUSH1 0x0 MSTORE PUSH1 0x20 PUSH1 0x0 KECCAK256 SWAP1 JUMPDEST DUP2 SLOAD DUP2 MSTORE SWAP1 PUSH1 0x1 ADD SWAP1 PUSH1 0x20 ADD DUP1 DUP4 GT PUSH2 0x121E JUMPI DUP3 SWAP1 SUB PUSH1 0x1F AND DUP3 ADD SWAP2 JUMPDEST POP POP POP POP POP SWAP1 DUP1 PUSH1 0x2 ADD SLOAD SWAP1 POP DUP4 JUMP JUMPDEST PUSH1 0x8 SLOAD DUP2 GT ISZERO PUSH2 0x1290 JUMPI PUSH1 0x40 MLOAD PUSH32 0x8C379A000000000000000000000000000000000000000000000000000000000 DUP2 MSTORE PUSH1 0x4 ADD PUSH2 0x1287 SWAP1 PUSH2 0x1B33 JUMP JUMPDEST PUSH1 0x40 MLOAD DUP1 SWAP2 SUB SWAP1 REVERT JUMPDEST PUSH1 0x7 SLOAD DUP2 PUSH2 0x129E SWAP2 SWAP1 PUSH2 0x1C56 JUMP JUMPDEST CALLVALUE LT ISZERO PUSH2 0x12E0 JUMPI PUSH1 0x40 MLOAD PUSH32 0x8C379A000000000000000000000000000000000000000000000000000000000 DUP2 MSTORE PUSH1 0x4 ADD PUSH2 0x12D7 SWAP1 PUSH2 0x1B53 JUMP JUMPDEST PUSH1 0x40 MLOAD DUP1 SWAP2 SUB SWAP1 REVERT JUMPDEST PUSH1 0x0 DUP1 SLOAD SWAP1 PUSH2 0x100 EXP SWAP1 DIV PUSH20 0xFFFFFFFFFFFFFFFFFFFFFFFFFFFFFFFFFFFFFFFF AND PUSH20 0xFFFFFFFFFFFFFFFFFFFFFFFFFFFFFFFFFFFFFFFF AND PUSH2 0x8FC CALLVALUE SWAP1 DUP2 ISZERO MUL SWAP1 PUSH1 0x40 MLOAD PUSH1 0x0 PUSH1 0x40 MLOAD DUP1 DUP4 SUB DUP2 DUP6 DUP9 DUP9 CALL SWAP4 POP POP POP POP ISZERO DUP1 ISZERO PUSH2 0x1346 JUMPI RETURNDATASIZE PUSH1 0x0 DUP1 RETURNDATACOPY RETURNDATASIZE PUSH1 0x0 REVERT JUMPDEST POP DUP1 PUSH1 0xD PUSH1 0x0 DUP1 PUSH1 0x0 SWAP1 SLOAD SWAP1 PUSH2 0x100 EXP SWAP1 DIV PUSH20 0xFFFFFFFFFFFFFFFFFFFFFFFFFFFFFFFFFFFFFFFF AND PUSH20 0xFFFFFFFFFFFFFFFFFFFFFFFFFFFFFFFFFFFFFFFF AND PUSH20 0xFFFFFFFFFFFFFFFFFFFFFFFFFFFFFFFFFFFFFFFF AND DUP2 MSTORE PUSH1 0x20 ADD SWAP1 DUP2 MSTORE PUSH1 0x20 ADD PUSH1 0x0 KECCAK256 PUSH1 0x0 DUP3 DUP3 SLOAD PUSH2 0x13B7 SWAP2 SWAP1 PUSH2 0x1CB0 JUMP JUMPDEST SWAP3 POP POP DUP2 SWAP1 SSTORE POP DUP1 PUSH1 0xD PUSH1 0x0 CALLER PUSH20 0xFFFFFFFFFFFFFFFFFFFFFFFFFFFFFFFFFFFFFFFF AND PUSH20 0xFFFFFFFFFFFFFFFFFFFFFFFFFFFFFFFFFFFFFFFF AND DUP2 MSTORE PUSH1 0x20 ADD SWAP1 DUP2 MSTORE PUSH1 0x20 ADD PUSH1 0x0 KECCAK256 PUSH1 0x0 DUP3 DUP3 SLOAD PUSH2 0x140D SWAP2 SWAP1 PUSH2 0x1C00 JUMP JUMPDEST SWAP3 POP POP DUP2 SWAP1 SSTORE POP PUSH2 0x141D CALLER PUSH2 0xE84 JUMP JUMPDEST POP JUMP JUMPDEST PUSH1 0x0 DUP1 SLOAD SWAP1 PUSH2 0x100 EXP SWAP1 DIV PUSH20 0xFFFFFFFFFFFFFFFFFFFFFFFFFFFFFFFFFFFFFFFF AND PUSH20 0xFFFFFFFFFFFFFFFFFFFFFFFFFFFFFFFFFFFFFFFF AND CALLER PUSH20 0xFFFFFFFFFFFFFFFFFFFFFFFFFFFFFFFFFFFFFFFF AND EQ PUSH2 0x1478 JUMPI PUSH1 0x0 DUP1 REVERT JUMPDEST PUSH1 0x0 DUP1 PUSH1 0x1 DUP2 GT ISZERO PUSH2 0x148D JUMPI PUSH2 0x148C PUSH2 0x1E5B JUMP JUMPDEST JUMPDEST PUSH1 0xA PUSH1 0x0 SWAP1 SLOAD SWAP1 PUSH2 0x100 EXP SWAP1 DIV PUSH1 0xFF AND PUSH1 0x1 DUP2 GT ISZERO PUSH2 0x14AF JUMPI PUSH2 0x14AE PUSH2 0x1E5B JUMP JUMPDEST JUMPDEST EQ PUSH2 0x14B9 JUMPI PUSH1 0x0 DUP1 REVERT JUMPDEST PUSH1 0x0 PUSH1 0x40 MLOAD DUP1 PUSH1 0x60 ADD PUSH1 0x40 MSTORE DUP1 DUP7 DUP2 MSTORE PUSH1 0x20 ADD DUP6 DUP2 MSTORE PUSH1 0x20 ADD DUP5 DUP2 MSTORE POP SWAP1 POP DUP3 PUSH1 0x1 PUSH1 0x2 ADD PUSH1 0x0 DUP3 DUP3 SLOAD PUSH2 0x14ED SWAP2 SWAP1 PUSH2 0x1C00 JUMP JUMPDEST SWAP3 POP POP DUP2 SWAP1 SSTORE POP PUSH1 0x4 DUP2 SWAP1 DUP1 PUSH1 0x1 DUP2 SLOAD ADD DUP1 DUP3 SSTORE DUP1 SWAP2 POP POP PUSH1 0x1 SWAP1 SUB SWAP1 PUSH1 0x0 MSTORE PUSH1 0x20 PUSH1 0x0 KECCAK256 SWAP1 PUSH1 0x3 MUL ADD PUSH1 0x0 SWAP1 SWAP2 SWAP1 SWAP2 SWAP1 SWAP2 POP PUSH1 0x0 DUP3 ADD MLOAD DUP2 PUSH1 0x0 ADD SWAP1 DUP1 MLOAD SWAP1 PUSH1 0x20 ADD SWAP1 PUSH2 0x153C SWAP3 SWAP2 SWAP1 PUSH2 0x1672 JUMP JUMPDEST POP PUSH1 0x20 DUP3 ADD MLOAD DUP2 PUSH1 0x1 ADD SWAP1 DUP1 MLOAD SWAP1 PUSH1 0x20 ADD SWAP1 PUSH2 0x1559 SWAP3 SWAP2 SWAP1 PUSH2 0x1672 JUMP JUMPDEST POP PUSH1 0x40 DUP3 ADD MLOAD DUP2 PUSH1 0x2 ADD SSTORE POP POP PUSH1 0x1 PUSH1 0x5 PUSH1 0x0 DUP3 DUP3 SLOAD PUSH2 0x1579 SWAP2 SWAP1 PUSH2 0x1C00 JUMP JUMPDEST SWAP3 POP POP DUP2 SWAP1 SSTORE POP PUSH32 0x4578FE17EAAB41AE382ABE3462BB0CF04BCFEE4168D2AAD3CE9D5D225D0E27F6 DUP6 PUSH1 0x40 MLOAD PUSH2 0x15AF SWAP2 SWAP1 PUSH2 0x1ACC JUMP JUMPDEST PUSH1 0x40 MLOAD DUP1 SWAP2 SUB SWAP1 LOG1 POP POP POP POP POP JUMP JUMPDEST PUSH1 0x12 SLOAD DUP2 JUMP JUMPDEST PUSH1 0x0 DUP1 PUSH1 0x0 SWAP1 POP JUMPDEST PUSH1 0xB DUP1 SLOAD SWAP1 POP DUP2 GT PUSH2 0x1667 JUMPI DUP3 PUSH20 0xFFFFFFFFFFFFFFFFFFFFFFFFFFFFFFFFFFFFFFFF AND PUSH1 0xB DUP3 DUP2 SLOAD DUP2 LT PUSH2 0x1603 JUMPI PUSH2 0x1602 PUSH2 0x1EB9 JUMP JUMPDEST JUMPDEST SWAP1 PUSH1 0x0 MSTORE PUSH1 0x20 PUSH1 0x0 KECCAK256 ADD PUSH1 0x0 SWAP1 SLOAD SWAP1 PUSH2 0x100 EXP SWAP1 DIV PUSH20 0xFFFFFFFFFFFFFFFFFFFFFFFFFFFFFFFFFFFFFFFF AND PUSH20 0xFFFFFFFFFFFFFFFFFFFFFFFFFFFFFFFFFFFFFFFF AND EQ ISZERO PUSH2 0x1654 JUMPI PUSH1 0x1 SWAP2 POP POP PUSH2 0x166D JUMP JUMPDEST DUP1 DUP1 PUSH2 0x165F SWAP1 PUSH2 0x1DE3 JUMP JUMPDEST SWAP2 POP POP PUSH2 0x15CC JUMP JUMPDEST POP PUSH1 0x0 SWAP1 POP JUMPDEST SWAP2 SWAP1 POP JUMP JUMPDEST DUP3 DUP1 SLOAD PUSH2 0x167E SWAP1 PUSH2 0x1D80 JUMP JUMPDEST SWAP1 PUSH1 0x0 MSTORE PUSH1 0x20 PUSH1 0x0 KECCAK256 SWAP1 PUSH1 0x1F ADD PUSH1 0x20 SWAP1 DIV DUP2 ADD SWAP3 DUP3 PUSH2 0x16A0 JUMPI PUSH1 0x0 DUP6 SSTORE PUSH2 0x16E7 JUMP JUMPDEST DUP3 PUSH1 0x1F LT PUSH2 0x16B9 JUMPI DUP1 MLOAD PUSH1 0xFF NOT AND DUP4 DUP1 ADD OR DUP6 SSTORE PUSH2 0x16E7 JUMP JUMPDEST DUP3 DUP1 ADD PUSH1 0x1 ADD DUP6 SSTORE DUP3 ISZERO PUSH2 0x16E7 JUMPI SWAP2 DUP3 ADD JUMPDEST DUP3 DUP2 GT ISZERO PUSH2 0x16E6 JUMPI DUP3 MLOAD DUP3 SSTORE SWAP2 PUSH1 0x20 ADD SWAP2 SWAP1 PUSH1 0x1 ADD SWAP1 PUSH2 0x16CB JUMP JUMPDEST JUMPDEST POP SWAP1 POP PUSH2 0x16F4 SWAP2 SWAP1 PUSH2 0x172A JUMP JUMPDEST POP SWAP1 JUMP JUMPDEST PUSH1 0x40 MLOAD DUP1 PUSH1 0x40 ADD PUSH1 0x40 MSTORE DUP1 PUSH1 0x0 PUSH20 0xFFFFFFFFFFFFFFFFFFFFFFFFFFFFFFFFFFFFFFFF AND DUP2 MSTORE PUSH1 0x20 ADD PUSH1 0x0 ISZERO ISZERO DUP2 MSTORE POP SWAP1 JUMP JUMPDEST JUMPDEST DUP1 DUP3 GT ISZERO PUSH2 0x1743 JUMPI PUSH1 0x0 DUP2 PUSH1 0x0 SWAP1 SSTORE POP PUSH1 0x1 ADD PUSH2 0x172B JUMP JUMPDEST POP SWAP1 JUMP JUMPDEST PUSH1 0x0 PUSH2 0x175A PUSH2 0x1755 DUP5 PUSH2 0x1BB3 JUMP JUMPDEST PUSH2 0x1B8E JUMP JUMPDEST SWAP1 POP DUP3 DUP2 MSTORE PUSH1 0x20 DUP2 ADD DUP5 DUP5 DUP5 ADD GT ISZERO PUSH2 0x1776 JUMPI PUSH2 0x1775 PUSH2 0x1F1C JUMP JUMPDEST JUMPDEST PUSH2 0x1781 DUP5 DUP3 DUP6 PUSH2 0x1D3E JUMP JUMPDEST POP SWAP4 SWAP3 POP POP POP JUMP JUMPDEST PUSH1 0x0 DUP2 CALLDATALOAD SWAP1 POP PUSH2 0x1798 DUP2 PUSH2 0x1FB4 JUMP JUMPDEST SWAP3 SWAP2 POP POP JUMP JUMPDEST PUSH1 0x0 DUP2 CALLDATALOAD SWAP1 POP PUSH2 0x17AD DUP2 PUSH2 0x1FCB JUMP JUMPDEST SWAP3 SWAP2 POP POP JUMP JUMPDEST PUSH1 0x0 DUP3 PUSH1 0x1F DUP4 ADD SLT PUSH2 0x17C8 JUMPI PUSH2 0x17C7 PUSH2 0x1F17 JUMP JUMPDEST JUMPDEST DUP2 CALLDATALOAD PUSH2 0x17D8 DUP5 DUP3 PUSH1 0x20 DUP7 ADD PUSH2 0x1747 JUMP JUMPDEST SWAP2 POP POP SWAP3 SWAP2 POP POP JUMP JUMPDEST PUSH1 0x0 DUP2 CALLDATALOAD SWAP1 POP PUSH2 0x17F0 DUP2 PUSH2 0x1FE2 JUMP JUMPDEST SWAP3 SWAP2 POP POP JUMP JUMPDEST PUSH1 0x0 PUSH1 0x20 DUP3 DUP5 SUB SLT ISZERO PUSH2 0x180C JUMPI PUSH2 0x180B PUSH2 0x1F26 JUMP JUMPDEST JUMPDEST PUSH1 0x0 PUSH2 0x181A DUP5 DUP3 DUP6 ADD PUSH2 0x1789 JUMP JUMPDEST SWAP2 POP POP SWAP3 SWAP2 POP POP JUMP JUMPDEST PUSH1 0x0 DUP1 PUSH1 0x40 DUP4 DUP6 SUB SLT ISZERO PUSH2 0x183A JUMPI PUSH2 0x1839 PUSH2 0x1F26 JUMP JUMPDEST JUMPDEST PUSH1 0x0 PUSH2 0x1848 DUP6 DUP3 DUP7 ADD PUSH2 0x1789 JUMP JUMPDEST SWAP3 POP POP PUSH1 0x20 PUSH2 0x1859 DUP6 DUP3 DUP7 ADD PUSH2 0x17E1 JUMP JUMPDEST SWAP2 POP POP SWAP3 POP SWAP3 SWAP1 POP JUMP JUMPDEST PUSH1 0x0 PUSH1 0x20 DUP3 DUP5 SUB SLT ISZERO PUSH2 0x1879 JUMPI PUSH2 0x1878 PUSH2 0x1F26 JUMP JUMPDEST JUMPDEST PUSH1 0x0 PUSH2 0x1887 DUP5 DUP3 DUP6 ADD PUSH2 0x179E JUMP JUMPDEST SWAP2 POP POP SWAP3 SWAP2 POP POP JUMP JUMPDEST PUSH1 0x0 DUP1 PUSH1 0x40 DUP4 DUP6 SUB SLT ISZERO PUSH2 0x18A7 JUMPI PUSH2 0x18A6 PUSH2 0x1F26 JUMP JUMPDEST JUMPDEST PUSH1 0x0 DUP4 ADD CALLDATALOAD PUSH8 0xFFFFFFFFFFFFFFFF DUP2 GT ISZERO PUSH2 0x18C5 JUMPI PUSH2 0x18C4 PUSH2 0x1F21 JUMP JUMPDEST JUMPDEST PUSH2 0x18D1 DUP6 DUP3 DUP7 ADD PUSH2 0x17B3 JUMP JUMPDEST SWAP3 POP POP PUSH1 0x20 DUP4 ADD CALLDATALOAD PUSH8 0xFFFFFFFFFFFFFFFF DUP2 GT ISZERO PUSH2 0x18F2 JUMPI PUSH2 0x18F1 PUSH2 0x1F21 JUMP JUMPDEST JUMPDEST PUSH2 0x18FE DUP6 DUP3 DUP7 ADD PUSH2 0x17B3 JUMP JUMPDEST SWAP2 POP POP SWAP3 POP SWAP3 SWAP1 POP JUMP JUMPDEST PUSH1 0x0 DUP1 PUSH1 0x0 PUSH1 0x60 DUP5 DUP7 SUB SLT ISZERO PUSH2 0x1921 JUMPI PUSH2 0x1920 PUSH2 0x1F26 JUMP JUMPDEST JUMPDEST PUSH1 0x0 DUP5 ADD CALLDATALOAD PUSH8 0xFFFFFFFFFFFFFFFF DUP2 GT ISZERO PUSH2 0x193F JUMPI PUSH2 0x193E PUSH2 0x1F21 JUMP JUMPDEST JUMPDEST PUSH2 0x194B DUP7 DUP3 DUP8 ADD PUSH2 0x17B3 JUMP JUMPDEST SWAP4 POP POP PUSH1 0x20 DUP5 ADD CALLDATALOAD PUSH8 0xFFFFFFFFFFFFFFFF DUP2 GT ISZERO PUSH2 0x196C JUMPI PUSH2 0x196B PUSH2 0x1F21 JUMP JUMPDEST JUMPDEST PUSH2 0x1978 DUP7 DUP3 DUP8 ADD PUSH2 0x17B3 JUMP JUMPDEST SWAP3 POP POP PUSH1 0x40 PUSH2 0x1989 DUP7 DUP3 DUP8 ADD PUSH2 0x17E1 JUMP JUMPDEST SWAP2 POP POP SWAP3 POP SWAP3 POP SWAP3 JUMP JUMPDEST PUSH1 0x0 PUSH1 0x20 DUP3 DUP5 SUB SLT ISZERO PUSH2 0x19A9 JUMPI PUSH2 0x19A8 PUSH2 0x1F26 JUMP JUMPDEST JUMPDEST PUSH1 0x0 PUSH2 0x19B7 DUP5 DUP3 DUP6 ADD PUSH2 0x17E1 JUMP JUMPDEST SWAP2 POP POP SWAP3 SWAP2 POP POP JUMP JUMPDEST PUSH2 0x19C9 DUP2 PUSH2 0x1CF6 JUMP JUMPDEST DUP3 MSTORE POP POP JUMP JUMPDEST PUSH2 0x19D8 DUP2 PUSH2 0x1CE4 JUMP JUMPDEST DUP3 MSTORE POP POP JUMP JUMPDEST PUSH2 0x19E7 DUP2 PUSH2 0x1D08 JUMP JUMPDEST DUP3 MSTORE POP POP JUMP JUMPDEST PUSH1 0x0 PUSH2 0x19F8 DUP3 PUSH2 0x1BE4 JUMP JUMPDEST PUSH2 0x1A02 DUP2 DUP6 PUSH2 0x1BEF JUMP JUMPDEST SWAP4 POP PUSH2 0x1A12 DUP2 DUP6 PUSH1 0x20 DUP7 ADD PUSH2 0x1D4D JUMP JUMPDEST PUSH2 0x1A1B DUP2 PUSH2 0x1F2B JUMP JUMPDEST DUP5 ADD SWAP2 POP POP SWAP3 SWAP2 POP POP JUMP JUMPDEST PUSH1 0x0 PUSH2 0x1A33 PUSH1 0x23 DUP4 PUSH2 0x1BEF JUMP JUMPDEST SWAP2 POP PUSH2 0x1A3E DUP3 PUSH2 0x1F3C JUMP JUMPDEST PUSH1 0x40 DUP3 ADD SWAP1 POP SWAP2 SWAP1 POP JUMP JUMPDEST PUSH1 0x0 PUSH2 0x1A56 PUSH1 0xE DUP4 PUSH2 0x1BEF JUMP JUMPDEST SWAP2 POP PUSH2 0x1A61 DUP3 PUSH2 0x1F8B JUMP JUMPDEST PUSH1 0x20 DUP3 ADD SWAP1 POP SWAP2 SWAP1 POP JUMP JUMPDEST PUSH2 0x1A75 DUP2 PUSH2 0x1D34 JUMP JUMPDEST DUP3 MSTORE POP POP JUMP JUMPDEST PUSH1 0x0 PUSH1 0x20 DUP3 ADD SWAP1 POP PUSH2 0x1A90 PUSH1 0x0 DUP4 ADD DUP5 PUSH2 0x19CF JUMP JUMPDEST SWAP3 SWAP2 POP POP JUMP JUMPDEST PUSH1 0x0 PUSH1 0x20 DUP3 ADD SWAP1 POP PUSH2 0x1AAB PUSH1 0x0 DUP4 ADD DUP5 PUSH2 0x19C0 JUMP JUMPDEST SWAP3 SWAP2 POP POP JUMP JUMPDEST PUSH1 0x0 PUSH1 0x20 DUP3 ADD SWAP1 POP PUSH2 0x1AC6 PUSH1 0x0 DUP4 ADD DUP5 PUSH2 0x19DE JUMP JUMPDEST SWAP3 SWAP2 POP POP JUMP JUMPDEST PUSH1 0x0 PUSH1 0x20 DUP3 ADD SWAP1 POP DUP2 DUP2 SUB PUSH1 0x0 DUP4 ADD MSTORE PUSH2 0x1AE6 DUP2 DUP5 PUSH2 0x19ED JUMP JUMPDEST SWAP1 POP SWAP3 SWAP2 POP POP JUMP JUMPDEST PUSH1 0x0 PUSH1 0x60 DUP3 ADD SWAP1 POP DUP2 DUP2 SUB PUSH1 0x0 DUP4 ADD MSTORE PUSH2 0x1B08 DUP2 DUP7 PUSH2 0x19ED JUMP JUMPDEST SWAP1 POP DUP2 DUP2 SUB PUSH1 0x20 DUP4 ADD MSTORE PUSH2 0x1B1C DUP2 DUP6 PUSH2 0x19ED JUMP JUMPDEST SWAP1 POP PUSH2 0x1B2B PUSH1 0x40 DUP4 ADD DUP5 PUSH2 0x1A6C JUMP JUMPDEST SWAP5 SWAP4 POP POP POP POP JUMP JUMPDEST PUSH1 0x0 PUSH1 0x20 DUP3 ADD SWAP1 POP DUP2 DUP2 SUB PUSH1 0x0 DUP4 ADD MSTORE PUSH2 0x1B4C DUP2 PUSH2 0x1A26 JUMP JUMPDEST SWAP1 POP SWAP2 SWAP1 POP JUMP JUMPDEST PUSH1 0x0 PUSH1 0x20 DUP3 ADD SWAP1 POP DUP2 DUP2 SUB PUSH1 0x0 DUP4 ADD MSTORE PUSH2 0x1B6C DUP2 PUSH2 0x1A49 JUMP JUMPDEST SWAP1 POP SWAP2 SWAP1 POP JUMP JUMPDEST PUSH1 0x0 PUSH1 0x20 DUP3 ADD SWAP1 POP PUSH2 0x1B88 PUSH1 0x0 DUP4 ADD DUP5 PUSH2 0x1A6C JUMP JUMPDEST SWAP3 SWAP2 POP POP JUMP JUMPDEST PUSH1 0x0 PUSH2 0x1B98 PUSH2 0x1BA9 JUMP JUMPDEST SWAP1 POP PUSH2 0x1BA4 DUP3 DUP3 PUSH2 0x1DB2 JUMP JUMPDEST SWAP2 SWAP1 POP JUMP JUMPDEST PUSH1 0x0 PUSH1 0x40 MLOAD SWAP1 POP SWAP1 JUMP JUMPDEST PUSH1 0x0 PUSH8 0xFFFFFFFFFFFFFFFF DUP3 GT ISZERO PUSH2 0x1BCE JUMPI PUSH2 0x1BCD PUSH2 0x1EE8 JUMP JUMPDEST JUMPDEST PUSH2 0x1BD7 DUP3 PUSH2 0x1F2B JUMP JUMPDEST SWAP1 POP PUSH1 0x20 DUP2 ADD SWAP1 POP SWAP2 SWAP1 POP JUMP JUMPDEST PUSH1 0x0 DUP2 MLOAD SWAP1 POP SWAP2 SWAP1 POP JUMP JUMPDEST PUSH1 0x0 DUP3 DUP3 MSTORE PUSH1 0x20 DUP3 ADD SWAP1 POP SWAP3 SWAP2 POP POP JUMP JUMPDEST PUSH1 0x0 PUSH2 0x1C0B DUP3 PUSH2 0x1D34 JUMP JUMPDEST SWAP2 POP PUSH2 0x1C16 DUP4 PUSH2 0x1D34 JUMP JUMPDEST SWAP3 POP DUP3 PUSH32 0xFFFFFFFFFFFFFFFFFFFFFFFFFFFFFFFFFFFFFFFFFFFFFFFFFFFFFFFFFFFFFFFF SUB DUP3 GT ISZERO PUSH2 0x1C4B JUMPI PUSH2 0x1C4A PUSH2 0x1E2C JUMP JUMPDEST JUMPDEST DUP3 DUP3 ADD SWAP1 POP SWAP3 SWAP2 POP POP JUMP JUMPDEST PUSH1 0x0 PUSH2 0x1C61 DUP3 PUSH2 0x1D34 JUMP JUMPDEST SWAP2 POP PUSH2 0x1C6C DUP4 PUSH2 0x1D34 JUMP JUMPDEST SWAP3 POP DUP2 PUSH32 0xFFFFFFFFFFFFFFFFFFFFFFFFFFFFFFFFFFFFFFFFFFFFFFFFFFFFFFFFFFFFFFFF DIV DUP4 GT DUP3 ISZERO ISZERO AND ISZERO PUSH2 0x1CA5 JUMPI PUSH2 0x1CA4 PUSH2 0x1E2C JUMP JUMPDEST JUMPDEST DUP3 DUP3 MUL SWAP1 POP SWAP3 SWAP2 POP POP JUMP JUMPDEST PUSH1 0x0 PUSH2 0x1CBB DUP3 PUSH2 0x1D34 JUMP JUMPDEST SWAP2 POP PUSH2 0x1CC6 DUP4 PUSH2 0x1D34 JUMP JUMPDEST SWAP3 POP DUP3 DUP3 LT ISZERO PUSH2 0x1CD9 JUMPI PUSH2 0x1CD8 PUSH2 0x1E2C JUMP JUMPDEST JUMPDEST DUP3 DUP3 SUB SWAP1 POP SWAP3 SWAP2 POP POP JUMP JUMPDEST PUSH1 0x0 PUSH2 0x1CEF DUP3 PUSH2 0x1D14 JUMP JUMPDEST SWAP1 POP SWAP2 SWAP1 POP JUMP JUMPDEST PUSH1 0x0 PUSH2 0x1D01 DUP3 PUSH2 0x1D14 JUMP JUMPDEST SWAP1 POP SWAP2 SWAP1 POP JUMP JUMPDEST PUSH1 0x0 DUP2 ISZERO ISZERO SWAP1 POP SWAP2 SWAP1 POP JUMP JUMPDEST PUSH1 0x0 PUSH20 0xFFFFFFFFFFFFFFFFFFFFFFFFFFFFFFFFFFFFFFFF DUP3 AND SWAP1 POP SWAP2 SWAP1 POP JUMP JUMPDEST PUSH1 0x0 DUP2 SWAP1 POP SWAP2 SWAP1 POP JUMP JUMPDEST DUP3 DUP2 DUP4 CALLDATACOPY PUSH1 0x0 DUP4 DUP4 ADD MSTORE POP POP POP JUMP JUMPDEST PUSH1 0x0 JUMPDEST DUP4 DUP2 LT ISZERO PUSH2 0x1D6B JUMPI DUP1 DUP3 ADD MLOAD DUP2 DUP5 ADD MSTORE PUSH1 0x20 DUP2 ADD SWAP1 POP PUSH2 0x1D50 JUMP JUMPDEST DUP4 DUP2 GT ISZERO PUSH2 0x1D7A JUMPI PUSH1 0x0 DUP5 DUP5 ADD MSTORE JUMPDEST POP POP POP POP JUMP JUMPDEST PUSH1 0x0 PUSH1 0x2 DUP3 DIV SWAP1 POP PUSH1 0x1 DUP3 AND DUP1 PUSH2 0x1D98 JUMPI PUSH1 0x7F DUP3 AND SWAP2 POP JUMPDEST PUSH1 0x20 DUP3 LT DUP2 EQ ISZERO PUSH2 0x1DAC JUMPI PUSH2 0x1DAB PUSH2 0x1E8A JUMP JUMPDEST JUMPDEST POP SWAP2 SWAP1 POP JUMP JUMPDEST PUSH2 0x1DBB DUP3 PUSH2 0x1F2B JUMP JUMPDEST DUP2 ADD DUP2 DUP2 LT PUSH8 0xFFFFFFFFFFFFFFFF DUP3 GT OR ISZERO PUSH2 0x1DDA JUMPI PUSH2 0x1DD9 PUSH2 0x1EE8 JUMP JUMPDEST JUMPDEST DUP1 PUSH1 0x40 MSTORE POP POP POP JUMP JUMPDEST PUSH1 0x0 PUSH2 0x1DEE DUP3 PUSH2 0x1D34 JUMP JUMPDEST SWAP2 POP PUSH32 0xFFFFFFFFFFFFFFFFFFFFFFFFFFFFFFFFFFFFFFFFFFFFFFFFFFFFFFFFFFFFFFFF DUP3 EQ ISZERO PUSH2 0x1E21 JUMPI PUSH2 0x1E20 PUSH2 0x1E2C JUMP JUMPDEST JUMPDEST PUSH1 0x1 DUP3 ADD SWAP1 POP SWAP2 SWAP1 POP JUMP JUMPDEST PUSH32 0x4E487B7100000000000000000000000000000000000000000000000000000000 PUSH1 0x0 MSTORE PUSH1 0x11 PUSH1 0x4 MSTORE PUSH1 0x24 PUSH1 0x0 REVERT JUMPDEST PUSH32 0x4E487B7100000000000000000000000000000000000000000000000000000000 PUSH1 0x0 MSTORE PUSH1 0x21 PUSH1 0x4 MSTORE PUSH1 0x24 PUSH1 0x0 REVERT JUMPDEST PUSH32 0x4E487B7100000000000000000000000000000000000000000000000000000000 PUSH1 0x0 MSTORE PUSH1 0x22 PUSH1 0x4 MSTORE PUSH1 0x24 PUSH1 0x0 REVERT JUMPDEST PUSH32 0x4E487B7100000000000000000000000000000000000000000000000000000000 PUSH1 0x0 MSTORE PUSH1 0x32 PUSH1 0x4 MSTORE PUSH1 0x24 PUSH1 0x0 REVERT JUMPDEST PUSH32 0x4E487B7100000000000000000000000000000000000000000000000000000000 PUSH1 0x0 MSTORE PUSH1 0x41 PUSH1 0x4 MSTORE PUSH1 0x24 PUSH1 0x0 REVERT JUMPDEST PUSH1 0x0 DUP1 REVERT JUMPDEST PUSH1 0x0 DUP1 REVERT JUMPDEST PUSH1 0x0 DUP1 REVERT JUMPDEST PUSH1 0x0 DUP1 REVERT JUMPDEST PUSH1 0x0 PUSH1 0x1F NOT PUSH1 0x1F DUP4 ADD AND SWAP1 POP SWAP2 SWAP1 POP JUMP JUMPDEST PUSH32 0x4E756D626572206F662073686172657320657863656564656420746865206C69 PUSH1 0x0 DUP3 ADD MSTORE PUSH32 0x6D69740000000000000000000000000000000000000000000000000000000000 PUSH1 0x20 DUP3 ADD MSTORE POP JUMP JUMPDEST PUSH32 0x4E6F7420656E6F75676820776569000000000000000000000000000000000000 PUSH1 0x0 DUP3 ADD MSTORE POP JUMP JUMPDEST PUSH2 0x1FBD DUP2 PUSH2 0x1CE4 JUMP JUMPDEST DUP2 EQ PUSH2 0x1FC8 JUMPI PUSH1 0x0 DUP1 REVERT JUMPDEST POP JUMP JUMPDEST PUSH2 0x1FD4 DUP2 PUSH2 0x1D08 JUMP JUMPDEST DUP2 EQ PUSH2 0x1FDF JUMPI PUSH1 0x0 DUP1 REVERT JUMPDEST POP JUMP JUMPDEST PUSH2 0x1FEB DUP2 PUSH2 0x1D34 JUMP JUMPDEST DUP2 EQ PUSH2 0x1FF6 JUMPI PUSH1 0x0 DUP1 REVERT JUMPDEST POP JUMP INVALID LOG2 PUSH5 0x6970667358 0x22 SLT KECCAK256 CHAINID DUP9 DUP9 DIV DUP11 0xE4 MSIZE 0xC4 MSTORE PUSH3 0x73E4B6 0xCB ADD MSTORE8 0xE 0x5D EQ DUP7 DUP2 GT SWAP9 0xF9 0x27 MSTORE8 0xF 0xE2 XOR 0xFB 0xB4 OR PUSH5 0x736F6C6343 STOP ADDMOD SMOD STOP CALLER "
				},
				"gasEstimates": {
					"creation": {
						"codeDepositCost": "1647800",
						"executionCost": "infinite",
						"totalCost": "infinite"
					},
					"external": {
						"addHouse(string,string,uint256)": "infinite",
						"addShareHolder(address)": "infinite",
						"ballotInitiator()": "2697",
						"ballotName()": "infinite",
						"buy(uint256)": "infinite",
						"createBallot(string,string)": "infinite",
						"doVote(bool)": "infinite",
						"endVote()": "56439",
						"etherBalance(address)": "3346",
						"finalResult()": "2539",
						"houseRegister(uint256)": "infinite",
						"hp()": "infinite",
						"owner()": "2556",
						"proposal()": "infinite",
						"shareHolderRegistry(address)": "2890",
						"shareHolders(uint256)": "5045",
						"shareLimit()": "2563",
						"startTrading()": "26688",
						"startVote()": "29667",
						"tokenPrice()": "2562",
						"totalHouses()": "2475",
						"totalShareHolders()": "2496",
						"totalShares()": "2541",
						"totalVotes()": "2453",
						"transfer(address,uint256)": "infinite"
					},
					"internal": {
						"contains(address)": "infinite"
					}
				},
				"methodIdentifiers": {
					"addHouse(string,string,uint256)": "df094409",
					"addShareHolder(address)": "af769c64",
					"ballotInitiator()": "ad349442",
					"ballotName()": "1b26586c",
					"buy(uint256)": "d96a094a",
					"createBallot(string,string)": "6fa4f103",
					"doVote(bool)": "87caea78",
					"endVote()": "b9223946",
					"etherBalance(address)": "cd0c5896",
					"finalResult()": "f3a8286f",
					"houseRegister(uint256)": "a14ba987",
					"hp()": "d8124c5f",
					"owner()": "8da5cb5b",
					"proposal()": "753ec103",
					"shareHolderRegistry(address)": "59ea0173",
					"shareHolders(uint256)": "7427a40c",
					"shareLimit()": "3be75aa3",
					"startTrading()": "293230b8",
					"startVote()": "4c0a6af0",
					"tokenPrice()": "7ff9b596",
					"totalHouses()": "162d8afb",
					"totalShareHolders()": "9a982416",
					"totalShares()": "3a98ef39",
					"totalVotes()": "0d15fd77",
					"transfer(address,uint256)": "a9059cbb"
				}
			},
			"storageLayout": {
				"storage": [
					{
						"astId": 3,
						"contract": "MyHomeToken.sol:MyHomesToken",
						"label": "owner",
						"offset": 0,
						"slot": "0",
						"type": "t_address_payable"
					},
					{
						"astId": 6,
						"contract": "MyHomeToken.sol:MyHomesToken",
						"label": "hp",
						"offset": 0,
						"slot": "1",
						"type": "t_struct(HousingPackage)122_storage"
					},
					{
						"astId": 10,
						"contract": "MyHomeToken.sol:MyHomesToken",
						"label": "houseRegister",
						"offset": 0,
						"slot": "4",
						"type": "t_array(t_struct(House)115_storage)dyn_storage"
					},
					{
						"astId": 13,
						"contract": "MyHomeToken.sol:MyHomesToken",
						"label": "totalHouses",
						"offset": 0,
						"slot": "5",
						"type": "t_uint256"
					},
					{
						"astId": 16,
						"contract": "MyHomeToken.sol:MyHomesToken",
						"label": "totalShares",
						"offset": 0,
						"slot": "6",
						"type": "t_uint256"
					},
					{
						"astId": 19,
						"contract": "MyHomeToken.sol:MyHomesToken",
						"label": "tokenPrice",
						"offset": 0,
						"slot": "7",
						"type": "t_uint256"
					},
					{
						"astId": 22,
						"contract": "MyHomeToken.sol:MyHomesToken",
						"label": "shareLimit",
						"offset": 0,
						"slot": "8",
						"type": "t_uint256"
					},
					{
						"astId": 25,
						"contract": "MyHomeToken.sol:MyHomesToken",
						"label": "totalShareHolders",
						"offset": 0,
						"slot": "9",
						"type": "t_uint256"
					},
					{
						"astId": 28,
						"contract": "MyHomeToken.sol:MyHomesToken",
						"label": "state",
						"offset": 0,
						"slot": "10",
						"type": "t_enum(State)200"
					},
					{
						"astId": 31,
						"contract": "MyHomeToken.sol:MyHomesToken",
						"label": "shareHolders",
						"offset": 0,
						"slot": "11",
						"type": "t_array(t_address)dyn_storage"
					},
					{
						"astId": 35,
						"contract": "MyHomeToken.sol:MyHomesToken",
						"label": "shareHolderRegistry",
						"offset": 0,
						"slot": "12",
						"type": "t_mapping(t_address,t_bool)"
					},
					{
						"astId": 39,
						"contract": "MyHomeToken.sol:MyHomesToken",
						"label": "balanceOf",
						"offset": 0,
						"slot": "13",
						"type": "t_mapping(t_address,t_uint256)"
					},
					{
						"astId": 42,
						"contract": "MyHomeToken.sol:MyHomesToken",
						"label": "ballotState",
						"offset": 0,
						"slot": "14",
						"type": "t_enum(BallotState)197"
					},
					{
						"astId": 44,
						"contract": "MyHomeToken.sol:MyHomesToken",
						"label": "ballotInitiator",
						"offset": 1,
						"slot": "14",
						"type": "t_address"
					},
					{
						"astId": 46,
						"contract": "MyHomeToken.sol:MyHomesToken",
						"label": "ballotName",
						"offset": 0,
						"slot": "15",
						"type": "t_string_storage"
					},
					{
						"astId": 48,
						"contract": "MyHomeToken.sol:MyHomesToken",
						"label": "proposal",
						"offset": 0,
						"slot": "16",
						"type": "t_string_storage"
					},
					{
						"astId": 51,
						"contract": "MyHomeToken.sol:MyHomesToken",
						"label": "resultCount",
						"offset": 0,
						"slot": "17",
						"type": "t_uint256"
					},
					{
						"astId": 54,
						"contract": "MyHomeToken.sol:MyHomesToken",
						"label": "finalResult",
						"offset": 0,
						"slot": "18",
						"type": "t_uint256"
					},
					{
						"astId": 57,
						"contract": "MyHomeToken.sol:MyHomesToken",
						"label": "totalVotes",
						"offset": 0,
						"slot": "19",
						"type": "t_uint256"
					},
					{
						"astId": 62,
						"contract": "MyHomeToken.sol:MyHomesToken",
						"label": "votes",
						"offset": 0,
						"slot": "20",
						"type": "t_mapping(t_uint256,t_struct(Vote)127_storage)"
					}
				],
				"types": {
					"t_address": {
						"encoding": "inplace",
						"label": "address",
						"numberOfBytes": "20"
					},
					"t_address_payable": {
						"encoding": "inplace",
						"label": "address payable",
						"numberOfBytes": "20"
					},
					"t_array(t_address)dyn_storage": {
						"base": "t_address",
						"encoding": "dynamic_array",
						"label": "address[]",
						"numberOfBytes": "32"
					},
					"t_array(t_struct(House)115_storage)dyn_storage": {
						"base": "t_struct(House)115_storage",
						"encoding": "dynamic_array",
						"label": "struct MyHomesToken.House[]",
						"numberOfBytes": "32"
					},
					"t_bool": {
						"encoding": "inplace",
						"label": "bool",
						"numberOfBytes": "1"
					},
					"t_enum(BallotState)197": {
						"encoding": "inplace",
						"label": "enum MyHomesToken.BallotState",
						"numberOfBytes": "1"
					},
					"t_enum(State)200": {
						"encoding": "inplace",
						"label": "enum MyHomesToken.State",
						"numberOfBytes": "1"
					},
					"t_mapping(t_address,t_bool)": {
						"encoding": "mapping",
						"key": "t_address",
						"label": "mapping(address => bool)",
						"numberOfBytes": "32",
						"value": "t_bool"
					},
					"t_mapping(t_address,t_uint256)": {
						"encoding": "mapping",
						"key": "t_address",
						"label": "mapping(address => uint256)",
						"numberOfBytes": "32",
						"value": "t_uint256"
					},
					"t_mapping(t_uint256,t_struct(Vote)127_storage)": {
						"encoding": "mapping",
						"key": "t_uint256",
						"label": "mapping(uint256 => struct MyHomesToken.Vote)",
						"numberOfBytes": "32",
						"value": "t_struct(Vote)127_storage"
					},
					"t_string_storage": {
						"encoding": "bytes",
						"label": "string",
						"numberOfBytes": "32"
					},
					"t_struct(House)115_storage": {
						"encoding": "inplace",
						"label": "struct MyHomesToken.House",
						"members": [
							{
								"astId": 110,
								"contract": "MyHomeToken.sol:MyHomesToken",
								"label": "registrationId",
								"offset": 0,
								"slot": "0",
								"type": "t_string_storage"
							},
							{
								"astId": 112,
								"contract": "MyHomeToken.sol:MyHomesToken",
								"label": "physicalAddress",
								"offset": 0,
								"slot": "1",
								"type": "t_string_storage"
							},
							{
								"astId": 114,
								"contract": "MyHomeToken.sol:MyHomesToken",
								"label": "price",
								"offset": 0,
								"slot": "2",
								"type": "t_uint256"
							}
						],
						"numberOfBytes": "96"
					},
					"t_struct(HousingPackage)122_storage": {
						"encoding": "inplace",
						"label": "struct MyHomesToken.HousingPackage",
						"members": [
							{
								"astId": 117,
								"contract": "MyHomeToken.sol:MyHomesToken",
								"label": "name",
								"offset": 0,
								"slot": "0",
								"type": "t_string_storage"
							},
							{
								"astId": 119,
								"contract": "MyHomeToken.sol:MyHomesToken",
								"label": "description",
								"offset": 0,
								"slot": "1",
								"type": "t_string_storage"
							},
							{
								"astId": 121,
								"contract": "MyHomeToken.sol:MyHomesToken",
								"label": "totalValue",
								"offset": 0,
								"slot": "2",
								"type": "t_uint256"
							}
						],
						"numberOfBytes": "96"
					},
					"t_struct(Vote)127_storage": {
						"encoding": "inplace",
						"label": "struct MyHomesToken.Vote",
						"members": [
							{
								"astId": 124,
								"contract": "MyHomeToken.sol:MyHomesToken",
								"label": "shareHolderAddress",
								"offset": 0,
								"slot": "0",
								"type": "t_address"
							},
							{
								"astId": 126,
								"contract": "MyHomeToken.sol:MyHomesToken",
								"label": "choice",
								"offset": 20,
								"slot": "0",
								"type": "t_bool"
							}
						],
						"numberOfBytes": "32"
					},
					"t_uint256": {
						"encoding": "inplace",
						"label": "uint256",
						"numberOfBytes": "32"
					}
				}
			},
			"userdoc": {
				"kind": "user",
				"methods": {},
				"version": 1
			}
		}
	}
}