{
	"MyHomeToken.sol": {
		"MyHomesToken": {
			"abi": [
				{
					"inputs": [
						{
							"internalType": "string",
							"name": "_name",
							"type": "string"
						},
						{
							"internalType": "string",
							"name": "_description",
							"type": "string"
						}
					],
					"stateMutability": "nonpayable",
					"type": "constructor"
				},
				{
					"anonymous": false,
					"inputs": [
						{
							"indexed": false,
							"internalType": "string",
							"name": "id",
							"type": "string"
						}
					],
					"name": "NewHouseAdded",
					"type": "event"
				},
				{
					"anonymous": false,
					"inputs": [
						{
							"indexed": false,
							"internalType": "address",
							"name": "sh",
							"type": "address"
						}
					],
					"name": "ShareHolderAdded",
					"type": "event"
				},
				{
					"anonymous": false,
					"inputs": [
						{
							"indexed": false,
							"internalType": "address",
							"name": "shareHolder",
							"type": "address"
						}
					],
					"name": "voteDone",
					"type": "event"
				},
				{
					"anonymous": false,
					"inputs": [
						{
							"indexed": false,
							"internalType": "uint256",
							"name": "finalResult",
							"type": "uint256"
						}
					],
					"name": "voteEnded",
					"type": "event"
				},
				{
					"anonymous": false,
					"inputs": [],
					"name": "voteStarted",
					"type": "event"
				},
				{
					"inputs": [
						{
							"internalType": "string",
							"name": "_registrationId",
							"type": "string"
						},
						{
							"internalType": "string",
							"name": "location",
							"type": "string"
						},
						{
							"internalType": "uint256",
							"name": "price",
							"type": "uint256"
						}
					],
					"name": "addHouse",
					"outputs": [],
					"stateMutability": "nonpayable",
					"type": "function"
				},
				{
					"inputs": [
						{
							"internalType": "address",
							"name": "_shareHolderAddress",
							"type": "address"
						},
						{
							"internalType": "string",
							"name": "_shareHolderName",
							"type": "string"
						}
					],
					"name": "addShareHolder",
					"outputs": [],
					"stateMutability": "nonpayable",
					"type": "function"
				},
				{
					"inputs": [],
					"name": "ballotAddress",
					"outputs": [
						{
							"internalType": "address",
							"name": "",
							"type": "address"
						}
					],
					"stateMutability": "view",
					"type": "function"
				},
				{
					"inputs": [],
					"name": "ballotInitiator",
					"outputs": [
						{
							"internalType": "address",
							"name": "",
							"type": "address"
						}
					],
					"stateMutability": "view",
					"type": "function"
				},
				{
					"inputs": [],
					"name": "ballotName",
					"outputs": [
						{
							"internalType": "string",
							"name": "",
							"type": "string"
						}
					],
					"stateMutability": "view",
					"type": "function"
				},
				{
					"inputs": [
						{
							"internalType": "uint256",
							"name": "_amount",
							"type": "uint256"
						}
					],
					"name": "buy",
					"outputs": [],
					"stateMutability": "payable",
					"type": "function"
				},
				{
					"inputs": [
						{
							"internalType": "string",
							"name": "_ballotName",
							"type": "string"
						},
						{
							"internalType": "string",
							"name": "_proposal",
							"type": "string"
						}
					],
					"name": "createBallot",
					"outputs": [],
					"stateMutability": "nonpayable",
					"type": "function"
				},
				{
					"inputs": [
						{
							"internalType": "bool",
							"name": "_choice",
							"type": "bool"
						}
					],
					"name": "doVote",
					"outputs": [
						{
							"internalType": "bool",
							"name": "voted",
							"type": "bool"
						}
					],
					"stateMutability": "nonpayable",
					"type": "function"
				},
				{
					"inputs": [],
					"name": "endVote",
					"outputs": [],
					"stateMutability": "nonpayable",
					"type": "function"
				},
				{
					"inputs": [],
					"name": "finalResult",
					"outputs": [
						{
							"internalType": "uint256",
							"name": "",
							"type": "uint256"
						}
					],
					"stateMutability": "view",
					"type": "function"
				},
				{
					"inputs": [
						{
							"internalType": "uint256",
							"name": "",
							"type": "uint256"
						}
					],
					"name": "houseRegister",
					"outputs": [
						{
							"internalType": "string",
							"name": "registrationId",
							"type": "string"
						},
						{
							"internalType": "string",
							"name": "physicalAddress",
							"type": "string"
						},
						{
							"internalType": "uint256",
							"name": "price",
							"type": "uint256"
						}
					],
					"stateMutability": "view",
					"type": "function"
				},
				{
					"inputs": [],
					"name": "hp",
					"outputs": [
						{
							"internalType": "string",
							"name": "name",
							"type": "string"
						},
						{
							"internalType": "string",
							"name": "description",
							"type": "string"
						},
						{
							"internalType": "uint256",
							"name": "totalValue",
							"type": "uint256"
						}
					],
					"stateMutability": "view",
					"type": "function"
				},
				{
					"inputs": [],
					"name": "owner",
					"outputs": [
						{
							"internalType": "address",
							"name": "",
							"type": "address"
						}
					],
					"stateMutability": "view",
					"type": "function"
				},
				{
					"inputs": [],
					"name": "proposal",
					"outputs": [
						{
							"internalType": "string",
							"name": "",
							"type": "string"
						}
					],
					"stateMutability": "view",
					"type": "function"
				},
				{
					"inputs": [
						{
							"internalType": "uint256",
							"name": "_amount",
							"type": "uint256"
						}
					],
					"name": "sell",
					"outputs": [],
					"stateMutability": "nonpayable",
					"type": "function"
				},
				{
					"inputs": [
						{
							"internalType": "address",
							"name": "",
							"type": "address"
						}
					],
					"name": "shareHolderRegistry",
					"outputs": [
						{
							"internalType": "string",
							"name": "name",
							"type": "string"
						},
						{
							"internalType": "bool",
							"name": "voted",
							"type": "bool"
						}
					],
					"stateMutability": "view",
					"type": "function"
				},
				{
					"inputs": [],
					"name": "shareLimit",
					"outputs": [
						{
							"internalType": "uint256",
							"name": "",
							"type": "uint256"
						}
					],
					"stateMutability": "view",
					"type": "function"
				},
				{
					"inputs": [],
					"name": "startVote",
					"outputs": [],
					"stateMutability": "nonpayable",
					"type": "function"
				},
				{
					"inputs": [],
					"name": "tokenPrice",
					"outputs": [
						{
							"internalType": "uint256",
							"name": "",
							"type": "uint256"
						}
					],
					"stateMutability": "view",
					"type": "function"
				},
				{
					"inputs": [],
					"name": "totalShareHolders",
					"outputs": [
						{
							"internalType": "uint256",
							"name": "",
							"type": "uint256"
						}
					],
					"stateMutability": "view",
					"type": "function"
				},
				{
					"inputs": [],
					"name": "totalShares",
					"outputs": [
						{
							"internalType": "uint256",
							"name": "",
							"type": "uint256"
						}
					],
					"stateMutability": "view",
					"type": "function"
				},
				{
					"inputs": [],
					"name": "totalVotes",
					"outputs": [
						{
							"internalType": "uint256",
							"name": "",
							"type": "uint256"
						}
					],
					"stateMutability": "view",
					"type": "function"
				},
				{
					"inputs": [
						{
							"internalType": "address",
							"name": "_to",
							"type": "address"
						},
						{
							"internalType": "uint256",
							"name": "_value",
							"type": "uint256"
						}
					],
					"name": "transfer",
					"outputs": [],
					"stateMutability": "nonpayable",
					"type": "function"
				}
			],
			"devdoc": {
				"kind": "dev",
				"methods": {},
				"version": 1
			},
			"evm": {
				"assembly": "    /* \"MyHomeToken.sol\":66:4948  contract MyHomesToken {... */\n  mstore(0x40, 0x80)\n    /* \"MyHomeToken.sol\":213:216  100 */\n  0x64\n    /* \"MyHomeToken.sol\":184:216  uint256 public totalShares = 100 */\n  0x06\n  sstore\n    /* \"MyHomeToken.sol\":250:251  1 */\n  0x01\n    /* \"MyHomeToken.sol\":222:251  uint256 public tokenPrice = 1 */\n  0x07\n  sstore\n    /* \"MyHomeToken.sol\":285:287  10 */\n  0x0a\n    /* \"MyHomeToken.sol\":257:287  uint256 public shareLimit = 10 */\n  0x08\n  sstore\n    /* \"MyHomeToken.sol\":325:326  0 */\n  0x00\n    /* \"MyHomeToken.sol\":293:326  uint public totalShareHolders = 0 */\n  0x09\n  sstore\n    /* \"MyHomeToken.sol\":687:688  0 */\n  0x00\n    /* \"MyHomeToken.sol\":660:688  uint private resultCount = 0 */\n  0x11\n  sstore\n    /* \"MyHomeToken.sol\":720:721  0 */\n  0x00\n    /* \"MyHomeToken.sol\":694:721  uint public finalResult = 0 */\n  0x12\n  sstore\n    /* \"MyHomeToken.sol\":752:753  0 */\n  0x00\n    /* \"MyHomeToken.sol\":727:753  uint public totalVotes = 0 */\n  0x13\n  sstore\n    /* \"MyHomeToken.sol\":802:1035  constructor(string memory _name, string memory _description) {... */\n  callvalue\n  dup1\n  iszero\n  tag_1\n  jumpi\n  0x00\n  dup1\n  revert\ntag_1:\n  pop\n  mload(0x40)\n  sub(codesize, bytecodeSize)\n  dup1\n  bytecodeSize\n  dup4\n  codecopy\n  dup2\n  dup2\n  add\n  0x40\n  mstore\n  dup2\n  add\n  swap1\n  tag_2\n  swap2\n  swap1\n  tag_3\n  jump\t// in\ntag_2:\n    /* \"MyHomeToken.sol\":881:891  msg.sender */\n  caller\n    /* \"MyHomeToken.sol\":873:878  owner */\n  0x00\n  dup1\n    /* \"MyHomeToken.sol\":873:891  owner = msg.sender */\n  0x0100\n  exp\n  dup2\n  sload\n  dup2\n  0xffffffffffffffffffffffffffffffffffffffff\n  mul\n  not\n  and\n  swap1\n  dup4\n  0xffffffffffffffffffffffffffffffffffffffff\n  and\n  mul\n  or\n  swap1\n  sstore\n  pop\n    /* \"MyHomeToken.sol\":926:937  totalShares */\n  sload(0x06)\n    /* \"MyHomeToken.sol\":901:911  _balanceOf */\n  0x0c\n    /* \"MyHomeToken.sol\":901:923  _balanceOf[msg.sender] */\n  0x00\n    /* \"MyHomeToken.sol\":912:922  msg.sender */\n  caller\n    /* \"MyHomeToken.sol\":901:923  _balanceOf[msg.sender] */\n  0xffffffffffffffffffffffffffffffffffffffff\n  and\n  0xffffffffffffffffffffffffffffffffffffffff\n  and\n  dup2\n  mstore\n  0x20\n  add\n  swap1\n  dup2\n  mstore\n  0x20\n  add\n  0x00\n  keccak256\n    /* \"MyHomeToken.sol\":901:937  _balanceOf[msg.sender] = totalShares */\n  dup2\n  swap1\n  sstore\n  pop\n    /* \"MyHomeToken.sol\":957:962  _name */\n  dup2\n    /* \"MyHomeToken.sol\":947:949  hp */\n  0x01\n    /* \"MyHomeToken.sol\":947:954  hp.name */\n  0x00\n  add\n    /* \"MyHomeToken.sol\":947:962  hp.name = _name */\n  swap1\n  dup1\n  mload\n  swap1\n  0x20\n  add\n  swap1\n  tag_6\n  swap3\n  swap2\n  swap1\n  tag_7\n  jump\t// in\ntag_6:\n  pop\n    /* \"MyHomeToken.sol\":989:1001  _description */\n  dup1\n    /* \"MyHomeToken.sol\":972:974  hp */\n  0x01\n    /* \"MyHomeToken.sol\":972:986  hp.description */\n  dup1\n  add\n    /* \"MyHomeToken.sol\":972:1001  hp.description = _description */\n  swap1\n  dup1\n  mload\n  swap1\n  0x20\n  add\n  swap1\n  tag_8\n  swap3\n  swap2\n  swap1\n  tag_7\n  jump\t// in\ntag_8:\n  pop\n    /* \"MyHomeToken.sol\":1027:1028  0 */\n  0x00\n    /* \"MyHomeToken.sol\":1011:1013  hp */\n  0x01\n    /* \"MyHomeToken.sol\":1011:1024  hp.totalValue */\n  0x03\n  add\n    /* \"MyHomeToken.sol\":1011:1028  hp.totalValue = 0 */\n  dup2\n  swap1\n  sstore\n  pop\n    /* \"MyHomeToken.sol\":802:1035  constructor(string memory _name, string memory _description) {... */\n  pop\n  pop\n    /* \"MyHomeToken.sol\":66:4948  contract MyHomesToken {... */\n  jump(tag_9)\ntag_7:\n  dup3\n  dup1\n  sload\n  tag_10\n  swap1\n  tag_11\n  jump\t// in\ntag_10:\n  swap1\n  0x00\n  mstore\n  keccak256(0x00, 0x20)\n  swap1\n  0x1f\n  add\n  0x20\n  swap1\n  div\n  dup2\n  add\n  swap3\n  dup3\n  tag_13\n  jumpi\n  0x00\n  dup6\n  sstore\n  jump(tag_12)\ntag_13:\n  dup3\n  0x1f\n  lt\n  tag_14\n  jumpi\n  dup1\n  mload\n  not(0xff)\n  and\n  dup4\n  dup1\n  add\n  or\n  dup6\n  sstore\n  jump(tag_12)\ntag_14:\n  dup3\n  dup1\n  add\n  0x01\n  add\n  dup6\n  sstore\n  dup3\n  iszero\n  tag_12\n  jumpi\n  swap2\n  dup3\n  add\ntag_15:\n  dup3\n  dup2\n  gt\n  iszero\n  tag_16\n  jumpi\n  dup3\n  mload\n  dup3\n  sstore\n  swap2\n  0x20\n  add\n  swap2\n  swap1\n  0x01\n  add\n  swap1\n  jump(tag_15)\ntag_16:\ntag_12:\n  pop\n  swap1\n  pop\n  tag_17\n  swap2\n  swap1\n  tag_18\n  jump\t// in\ntag_17:\n  pop\n  swap1\n  jump\t// out\ntag_18:\ntag_19:\n  dup1\n  dup3\n  gt\n  iszero\n  tag_20\n  jumpi\n  0x00\n  dup2\n  0x00\n  swap1\n  sstore\n  pop\n  0x01\n  add\n  jump(tag_19)\ntag_20:\n  pop\n  swap1\n  jump\t// out\n    /* \"#utility.yul\":7:428   */\ntag_22:\n    /* \"#utility.yul\":96:101   */\n  0x00\n    /* \"#utility.yul\":121:187   */\n  tag_24\n    /* \"#utility.yul\":137:186   */\n  tag_25\n    /* \"#utility.yul\":179:185   */\n  dup5\n    /* \"#utility.yul\":137:186   */\n  tag_26\n  jump\t// in\ntag_25:\n    /* \"#utility.yul\":121:187   */\n  tag_27\n  jump\t// in\ntag_24:\n    /* \"#utility.yul\":112:187   */\n  swap1\n  pop\n    /* \"#utility.yul\":210:216   */\n  dup3\n    /* \"#utility.yul\":203:208   */\n  dup2\n    /* \"#utility.yul\":196:217   */\n  mstore\n    /* \"#utility.yul\":248:252   */\n  0x20\n    /* \"#utility.yul\":241:246   */\n  dup2\n    /* \"#utility.yul\":237:253   */\n  add\n    /* \"#utility.yul\":286:289   */\n  dup5\n    /* \"#utility.yul\":277:283   */\n  dup5\n    /* \"#utility.yul\":272:275   */\n  dup5\n    /* \"#utility.yul\":268:284   */\n  add\n    /* \"#utility.yul\":265:290   */\n  gt\n    /* \"#utility.yul\":262:374   */\n  iszero\n  tag_28\n  jumpi\n    /* \"#utility.yul\":293:372   */\n  tag_29\n  tag_30\n  jump\t// in\ntag_29:\n    /* \"#utility.yul\":262:374   */\ntag_28:\n    /* \"#utility.yul\":383:422   */\n  tag_31\n    /* \"#utility.yul\":415:421   */\n  dup5\n    /* \"#utility.yul\":410:413   */\n  dup3\n    /* \"#utility.yul\":405:408   */\n  dup6\n    /* \"#utility.yul\":383:422   */\n  tag_32\n  jump\t// in\ntag_31:\n    /* \"#utility.yul\":102:428   */\n  pop\n    /* \"#utility.yul\":7:428   */\n  swap4\n  swap3\n  pop\n  pop\n  pop\n  jump\t// out\n    /* \"#utility.yul\":448:803   */\ntag_33:\n    /* \"#utility.yul\":515:520   */\n  0x00\n    /* \"#utility.yul\":564:567   */\n  dup3\n    /* \"#utility.yul\":557:561   */\n  0x1f\n    /* \"#utility.yul\":549:555   */\n  dup4\n    /* \"#utility.yul\":545:562   */\n  add\n    /* \"#utility.yul\":541:568   */\n  slt\n    /* \"#utility.yul\":531:653   */\n  tag_35\n  jumpi\n    /* \"#utility.yul\":572:651   */\n  tag_36\n  tag_37\n  jump\t// in\ntag_36:\n    /* \"#utility.yul\":531:653   */\ntag_35:\n    /* \"#utility.yul\":682:688   */\n  dup2\n    /* \"#utility.yul\":676:689   */\n  mload\n    /* \"#utility.yul\":707:797   */\n  tag_38\n    /* \"#utility.yul\":793:796   */\n  dup5\n    /* \"#utility.yul\":785:791   */\n  dup3\n    /* \"#utility.yul\":778:782   */\n  0x20\n    /* \"#utility.yul\":770:776   */\n  dup7\n    /* \"#utility.yul\":766:783   */\n  add\n    /* \"#utility.yul\":707:797   */\n  tag_22\n  jump\t// in\ntag_38:\n    /* \"#utility.yul\":698:797   */\n  swap2\n  pop\n    /* \"#utility.yul\":521:803   */\n  pop\n    /* \"#utility.yul\":448:803   */\n  swap3\n  swap2\n  pop\n  pop\n  jump\t// out\n    /* \"#utility.yul\":809:1662   */\ntag_3:\n    /* \"#utility.yul\":908:914   */\n  0x00\n    /* \"#utility.yul\":916:922   */\n  dup1\n    /* \"#utility.yul\":965:967   */\n  0x40\n    /* \"#utility.yul\":953:962   */\n  dup4\n    /* \"#utility.yul\":944:951   */\n  dup6\n    /* \"#utility.yul\":940:963   */\n  sub\n    /* \"#utility.yul\":936:968   */\n  slt\n    /* \"#utility.yul\":933:1052   */\n  iszero\n  tag_40\n  jumpi\n    /* \"#utility.yul\":971:1050   */\n  tag_41\n  tag_42\n  jump\t// in\ntag_41:\n    /* \"#utility.yul\":933:1052   */\ntag_40:\n    /* \"#utility.yul\":1112:1113   */\n  0x00\n    /* \"#utility.yul\":1101:1110   */\n  dup4\n    /* \"#utility.yul\":1097:1114   */\n  add\n    /* \"#utility.yul\":1091:1115   */\n  mload\n    /* \"#utility.yul\":1142:1160   */\n  0xffffffffffffffff\n    /* \"#utility.yul\":1134:1140   */\n  dup2\n    /* \"#utility.yul\":1131:1161   */\n  gt\n    /* \"#utility.yul\":1128:1245   */\n  iszero\n  tag_43\n  jumpi\n    /* \"#utility.yul\":1164:1243   */\n  tag_44\n  tag_45\n  jump\t// in\ntag_44:\n    /* \"#utility.yul\":1128:1245   */\ntag_43:\n    /* \"#utility.yul\":1269:1343   */\n  tag_46\n    /* \"#utility.yul\":1335:1342   */\n  dup6\n    /* \"#utility.yul\":1326:1332   */\n  dup3\n    /* \"#utility.yul\":1315:1324   */\n  dup7\n    /* \"#utility.yul\":1311:1333   */\n  add\n    /* \"#utility.yul\":1269:1343   */\n  tag_33\n  jump\t// in\ntag_46:\n    /* \"#utility.yul\":1259:1343   */\n  swap3\n  pop\n    /* \"#utility.yul\":1062:1353   */\n  pop\n    /* \"#utility.yul\":1413:1415   */\n  0x20\n    /* \"#utility.yul\":1402:1411   */\n  dup4\n    /* \"#utility.yul\":1398:1416   */\n  add\n    /* \"#utility.yul\":1392:1417   */\n  mload\n    /* \"#utility.yul\":1444:1462   */\n  0xffffffffffffffff\n    /* \"#utility.yul\":1436:1442   */\n  dup2\n    /* \"#utility.yul\":1433:1463   */\n  gt\n    /* \"#utility.yul\":1430:1547   */\n  iszero\n  tag_47\n  jumpi\n    /* \"#utility.yul\":1466:1545   */\n  tag_48\n  tag_45\n  jump\t// in\ntag_48:\n    /* \"#utility.yul\":1430:1547   */\ntag_47:\n    /* \"#utility.yul\":1571:1645   */\n  tag_49\n    /* \"#utility.yul\":1637:1644   */\n  dup6\n    /* \"#utility.yul\":1628:1634   */\n  dup3\n    /* \"#utility.yul\":1617:1626   */\n  dup7\n    /* \"#utility.yul\":1613:1635   */\n  add\n    /* \"#utility.yul\":1571:1645   */\n  tag_33\n  jump\t// in\ntag_49:\n    /* \"#utility.yul\":1561:1645   */\n  swap2\n  pop\n    /* \"#utility.yul\":1363:1655   */\n  pop\n    /* \"#utility.yul\":809:1662   */\n  swap3\n  pop\n  swap3\n  swap1\n  pop\n  jump\t// out\n    /* \"#utility.yul\":1668:1797   */\ntag_27:\n    /* \"#utility.yul\":1702:1708   */\n  0x00\n    /* \"#utility.yul\":1729:1749   */\n  tag_51\n  tag_52\n  jump\t// in\ntag_51:\n    /* \"#utility.yul\":1719:1749   */\n  swap1\n  pop\n    /* \"#utility.yul\":1758:1791   */\n  tag_53\n    /* \"#utility.yul\":1786:1790   */\n  dup3\n    /* \"#utility.yul\":1778:1784   */\n  dup3\n    /* \"#utility.yul\":1758:1791   */\n  tag_54\n  jump\t// in\ntag_53:\n    /* \"#utility.yul\":1668:1797   */\n  swap2\n  swap1\n  pop\n  jump\t// out\n    /* \"#utility.yul\":1803:1878   */\ntag_52:\n    /* \"#utility.yul\":1836:1842   */\n  0x00\n    /* \"#utility.yul\":1869:1871   */\n  0x40\n    /* \"#utility.yul\":1863:1872   */\n  mload\n    /* \"#utility.yul\":1853:1872   */\n  swap1\n  pop\n    /* \"#utility.yul\":1803:1878   */\n  swap1\n  jump\t// out\n    /* \"#utility.yul\":1884:2192   */\ntag_26:\n    /* \"#utility.yul\":1946:1950   */\n  0x00\n    /* \"#utility.yul\":2036:2054   */\n  0xffffffffffffffff\n    /* \"#utility.yul\":2028:2034   */\n  dup3\n    /* \"#utility.yul\":2025:2055   */\n  gt\n    /* \"#utility.yul\":2022:2078   */\n  iszero\n  tag_57\n  jumpi\n    /* \"#utility.yul\":2058:2076   */\n  tag_58\n  tag_59\n  jump\t// in\ntag_58:\n    /* \"#utility.yul\":2022:2078   */\ntag_57:\n    /* \"#utility.yul\":2096:2125   */\n  tag_60\n    /* \"#utility.yul\":2118:2124   */\n  dup3\n    /* \"#utility.yul\":2096:2125   */\n  tag_61\n  jump\t// in\ntag_60:\n    /* \"#utility.yul\":2088:2125   */\n  swap1\n  pop\n    /* \"#utility.yul\":2180:2184   */\n  0x20\n    /* \"#utility.yul\":2174:2178   */\n  dup2\n    /* \"#utility.yul\":2170:2185   */\n  add\n    /* \"#utility.yul\":2162:2185   */\n  swap1\n  pop\n    /* \"#utility.yul\":1884:2192   */\n  swap2\n  swap1\n  pop\n  jump\t// out\n    /* \"#utility.yul\":2198:2505   */\ntag_32:\n    /* \"#utility.yul\":2266:2267   */\n  0x00\n    /* \"#utility.yul\":2276:2389   */\ntag_63:\n    /* \"#utility.yul\":2290:2296   */\n  dup4\n    /* \"#utility.yul\":2287:2288   */\n  dup2\n    /* \"#utility.yul\":2284:2297   */\n  lt\n    /* \"#utility.yul\":2276:2389   */\n  iszero\n  tag_65\n  jumpi\n    /* \"#utility.yul\":2375:2376   */\n  dup1\n    /* \"#utility.yul\":2370:2373   */\n  dup3\n    /* \"#utility.yul\":2366:2377   */\n  add\n    /* \"#utility.yul\":2360:2378   */\n  mload\n    /* \"#utility.yul\":2356:2357   */\n  dup2\n    /* \"#utility.yul\":2351:2354   */\n  dup5\n    /* \"#utility.yul\":2347:2358   */\n  add\n    /* \"#utility.yul\":2340:2379   */\n  mstore\n    /* \"#utility.yul\":2312:2314   */\n  0x20\n    /* \"#utility.yul\":2309:2310   */\n  dup2\n    /* \"#utility.yul\":2305:2315   */\n  add\n    /* \"#utility.yul\":2300:2315   */\n  swap1\n  pop\n    /* \"#utility.yul\":2276:2389   */\n  jump(tag_63)\ntag_65:\n    /* \"#utility.yul\":2407:2413   */\n  dup4\n    /* \"#utility.yul\":2404:2405   */\n  dup2\n    /* \"#utility.yul\":2401:2414   */\n  gt\n    /* \"#utility.yul\":2398:2499   */\n  iszero\n  tag_66\n  jumpi\n    /* \"#utility.yul\":2487:2488   */\n  0x00\n    /* \"#utility.yul\":2478:2484   */\n  dup5\n    /* \"#utility.yul\":2473:2476   */\n  dup5\n    /* \"#utility.yul\":2469:2485   */\n  add\n    /* \"#utility.yul\":2462:2489   */\n  mstore\n    /* \"#utility.yul\":2398:2499   */\ntag_66:\n    /* \"#utility.yul\":2247:2505   */\n  pop\n    /* \"#utility.yul\":2198:2505   */\n  pop\n  pop\n  pop\n  jump\t// out\n    /* \"#utility.yul\":2511:2831   */\ntag_11:\n    /* \"#utility.yul\":2555:2561   */\n  0x00\n    /* \"#utility.yul\":2592:2593   */\n  0x02\n    /* \"#utility.yul\":2586:2590   */\n  dup3\n    /* \"#utility.yul\":2582:2594   */\n  div\n    /* \"#utility.yul\":2572:2594   */\n  swap1\n  pop\n    /* \"#utility.yul\":2639:2640   */\n  0x01\n    /* \"#utility.yul\":2633:2637   */\n  dup3\n    /* \"#utility.yul\":2629:2641   */\n  and\n    /* \"#utility.yul\":2660:2678   */\n  dup1\n    /* \"#utility.yul\":2650:2731   */\n  tag_68\n  jumpi\n    /* \"#utility.yul\":2716:2720   */\n  0x7f\n    /* \"#utility.yul\":2708:2714   */\n  dup3\n    /* \"#utility.yul\":2704:2721   */\n  and\n    /* \"#utility.yul\":2694:2721   */\n  swap2\n  pop\n    /* \"#utility.yul\":2650:2731   */\ntag_68:\n    /* \"#utility.yul\":2778:2780   */\n  0x20\n    /* \"#utility.yul\":2770:2776   */\n  dup3\n    /* \"#utility.yul\":2767:2781   */\n  lt\n    /* \"#utility.yul\":2747:2765   */\n  dup2\n    /* \"#utility.yul\":2744:2782   */\n  eq\n    /* \"#utility.yul\":2741:2825   */\n  iszero\n  tag_69\n  jumpi\n    /* \"#utility.yul\":2797:2815   */\n  tag_70\n  tag_71\n  jump\t// in\ntag_70:\n    /* \"#utility.yul\":2741:2825   */\ntag_69:\n    /* \"#utility.yul\":2562:2831   */\n  pop\n    /* \"#utility.yul\":2511:2831   */\n  swap2\n  swap1\n  pop\n  jump\t// out\n    /* \"#utility.yul\":2837:3118   */\ntag_54:\n    /* \"#utility.yul\":2920:2947   */\n  tag_73\n    /* \"#utility.yul\":2942:2946   */\n  dup3\n    /* \"#utility.yul\":2920:2947   */\n  tag_61\n  jump\t// in\ntag_73:\n    /* \"#utility.yul\":2912:2918   */\n  dup2\n    /* \"#utility.yul\":2908:2948   */\n  add\n    /* \"#utility.yul\":3050:3056   */\n  dup2\n    /* \"#utility.yul\":3038:3048   */\n  dup2\n    /* \"#utility.yul\":3035:3057   */\n  lt\n    /* \"#utility.yul\":3014:3032   */\n  0xffffffffffffffff\n    /* \"#utility.yul\":3002:3012   */\n  dup3\n    /* \"#utility.yul\":2999:3033   */\n  gt\n    /* \"#utility.yul\":2996:3058   */\n  or\n    /* \"#utility.yul\":2993:3081   */\n  iszero\n  tag_74\n  jumpi\n    /* \"#utility.yul\":3061:3079   */\n  tag_75\n  tag_59\n  jump\t// in\ntag_75:\n    /* \"#utility.yul\":2993:3081   */\ntag_74:\n    /* \"#utility.yul\":3101:3111   */\n  dup1\n    /* \"#utility.yul\":3097:3099   */\n  0x40\n    /* \"#utility.yul\":3090:3112   */\n  mstore\n    /* \"#utility.yul\":2880:3118   */\n  pop\n    /* \"#utility.yul\":2837:3118   */\n  pop\n  pop\n  jump\t// out\n    /* \"#utility.yul\":3124:3304   */\ntag_71:\n    /* \"#utility.yul\":3172:3249   */\n  0x4e487b7100000000000000000000000000000000000000000000000000000000\n    /* \"#utility.yul\":3169:3170   */\n  0x00\n    /* \"#utility.yul\":3162:3250   */\n  mstore\n    /* \"#utility.yul\":3269:3273   */\n  0x22\n    /* \"#utility.yul\":3266:3267   */\n  0x04\n    /* \"#utility.yul\":3259:3274   */\n  mstore\n    /* \"#utility.yul\":3293:3297   */\n  0x24\n    /* \"#utility.yul\":3290:3291   */\n  0x00\n    /* \"#utility.yul\":3283:3298   */\n  revert\n    /* \"#utility.yul\":3310:3490   */\ntag_59:\n    /* \"#utility.yul\":3358:3435   */\n  0x4e487b7100000000000000000000000000000000000000000000000000000000\n    /* \"#utility.yul\":3355:3356   */\n  0x00\n    /* \"#utility.yul\":3348:3436   */\n  mstore\n    /* \"#utility.yul\":3455:3459   */\n  0x41\n    /* \"#utility.yul\":3452:3453   */\n  0x04\n    /* \"#utility.yul\":3445:3460   */\n  mstore\n    /* \"#utility.yul\":3479:3483   */\n  0x24\n    /* \"#utility.yul\":3476:3477   */\n  0x00\n    /* \"#utility.yul\":3469:3484   */\n  revert\n    /* \"#utility.yul\":3496:3613   */\ntag_37:\n    /* \"#utility.yul\":3605:3606   */\n  0x00\n    /* \"#utility.yul\":3602:3603   */\n  dup1\n    /* \"#utility.yul\":3595:3607   */\n  revert\n    /* \"#utility.yul\":3619:3736   */\ntag_30:\n    /* \"#utility.yul\":3728:3729   */\n  0x00\n    /* \"#utility.yul\":3725:3726   */\n  dup1\n    /* \"#utility.yul\":3718:3730   */\n  revert\n    /* \"#utility.yul\":3742:3859   */\ntag_45:\n    /* \"#utility.yul\":3851:3852   */\n  0x00\n    /* \"#utility.yul\":3848:3849   */\n  dup1\n    /* \"#utility.yul\":3841:3853   */\n  revert\n    /* \"#utility.yul\":3865:3982   */\ntag_42:\n    /* \"#utility.yul\":3974:3975   */\n  0x00\n    /* \"#utility.yul\":3971:3972   */\n  dup1\n    /* \"#utility.yul\":3964:3976   */\n  revert\n    /* \"#utility.yul\":3988:4090   */\ntag_61:\n    /* \"#utility.yul\":4029:4035   */\n  0x00\n    /* \"#utility.yul\":4080:4082   */\n  0x1f\n    /* \"#utility.yul\":4076:4083   */\n  not\n    /* \"#utility.yul\":4071:4073   */\n  0x1f\n    /* \"#utility.yul\":4064:4069   */\n  dup4\n    /* \"#utility.yul\":4060:4074   */\n  add\n    /* \"#utility.yul\":4056:4084   */\n  and\n    /* \"#utility.yul\":4046:4084   */\n  swap1\n  pop\n    /* \"#utility.yul\":3988:4090   */\n  swap2\n  swap1\n  pop\n  jump\t// out\n    /* \"MyHomeToken.sol\":66:4948  contract MyHomesToken {... */\ntag_9:\n  dataSize(sub_0)\n  dup1\n  dataOffset(sub_0)\n  0x00\n  codecopy\n  0x00\n  return\nstop\n\nsub_0: assembly {\n        /* \"MyHomeToken.sol\":66:4948  contract MyHomesToken {... */\n      mstore(0x40, 0x80)\n      jumpi(tag_1, lt(calldatasize, 0x04))\n      shr(0xe0, calldataload(0x00))\n      dup1\n      0x9a982416\n      gt\n      tag_25\n      jumpi\n      dup1\n      0xd8335b53\n      gt\n      tag_26\n      jumpi\n      dup1\n      0xd8335b53\n      eq\n      tag_19\n      jumpi\n      dup1\n      0xd96a094a\n      eq\n      tag_20\n      jumpi\n      dup1\n      0xdf094409\n      eq\n      tag_21\n      jumpi\n      dup1\n      0xe4849b32\n      eq\n      tag_22\n      jumpi\n      dup1\n      0xf3a8286f\n      eq\n      tag_23\n      jumpi\n      dup1\n      0xfd1550ef\n      eq\n      tag_24\n      jumpi\n      jump(tag_1)\n    tag_26:\n      dup1\n      0x9a982416\n      eq\n      tag_13\n      jumpi\n      dup1\n      0xa14ba987\n      eq\n      tag_14\n      jumpi\n      dup1\n      0xa9059cbb\n      eq\n      tag_15\n      jumpi\n      dup1\n      0xad349442\n      eq\n      tag_16\n      jumpi\n      dup1\n      0xb9223946\n      eq\n      tag_17\n      jumpi\n      dup1\n      0xd8124c5f\n      eq\n      tag_18\n      jumpi\n      jump(tag_1)\n    tag_25:\n      dup1\n      0x59ea0173\n      gt\n      tag_27\n      jumpi\n      dup1\n      0x59ea0173\n      eq\n      tag_7\n      jumpi\n      dup1\n      0x6fa4f103\n      eq\n      tag_8\n      jumpi\n      dup1\n      0x753ec103\n      eq\n      tag_9\n      jumpi\n      dup1\n      0x7ff9b596\n      eq\n      tag_10\n      jumpi\n      dup1\n      0x87caea78\n      eq\n      tag_11\n      jumpi\n      dup1\n      0x8da5cb5b\n      eq\n      tag_12\n      jumpi\n      jump(tag_1)\n    tag_27:\n      dup1\n      0x0d15fd77\n      eq\n      tag_2\n      jumpi\n      dup1\n      0x1b26586c\n      eq\n      tag_3\n      jumpi\n      dup1\n      0x3a98ef39\n      eq\n      tag_4\n      jumpi\n      dup1\n      0x3be75aa3\n      eq\n      tag_5\n      jumpi\n      dup1\n      0x4c0a6af0\n      eq\n      tag_6\n      jumpi\n    tag_1:\n      0x00\n      dup1\n      revert\n        /* \"MyHomeToken.sol\":727:753  uint public totalVotes = 0 */\n    tag_2:\n      callvalue\n      dup1\n      iszero\n      tag_28\n      jumpi\n      0x00\n      dup1\n      revert\n    tag_28:\n      pop\n      tag_29\n      tag_30\n      jump\t// in\n    tag_29:\n      mload(0x40)\n      tag_31\n      swap2\n      swap1\n      tag_32\n      jump\t// in\n    tag_31:\n      mload(0x40)\n      dup1\n      swap2\n      sub\n      swap1\n      return\n        /* \"MyHomeToken.sol\":602:626  string public ballotName */\n    tag_3:\n      callvalue\n      dup1\n      iszero\n      tag_33\n      jumpi\n      0x00\n      dup1\n      revert\n    tag_33:\n      pop\n      tag_34\n      tag_35\n      jump\t// in\n    tag_34:\n      mload(0x40)\n      tag_36\n      swap2\n      swap1\n      tag_37\n      jump\t// in\n    tag_36:\n      mload(0x40)\n      dup1\n      swap2\n      sub\n      swap1\n      return\n        /* \"MyHomeToken.sol\":184:216  uint256 public totalShares = 100 */\n    tag_4:\n      callvalue\n      dup1\n      iszero\n      tag_38\n      jumpi\n      0x00\n      dup1\n      revert\n    tag_38:\n      pop\n      tag_39\n      tag_40\n      jump\t// in\n    tag_39:\n      mload(0x40)\n      tag_41\n      swap2\n      swap1\n      tag_32\n      jump\t// in\n    tag_41:\n      mload(0x40)\n      dup1\n      swap2\n      sub\n      swap1\n      return\n        /* \"MyHomeToken.sol\":257:287  uint256 public shareLimit = 10 */\n    tag_5:\n      callvalue\n      dup1\n      iszero\n      tag_42\n      jumpi\n      0x00\n      dup1\n      revert\n    tag_42:\n      pop\n      tag_43\n      tag_44\n      jump\t// in\n    tag_43:\n      mload(0x40)\n      tag_45\n      swap2\n      swap1\n      tag_32\n      jump\t// in\n    tag_45:\n      mload(0x40)\n      dup1\n      swap2\n      sub\n      swap1\n      return\n        /* \"MyHomeToken.sol\":3741:3933  function startVote()... */\n    tag_6:\n      callvalue\n      dup1\n      iszero\n      tag_46\n      jumpi\n      0x00\n      dup1\n      revert\n    tag_46:\n      pop\n      tag_47\n      tag_48\n      jump\t// in\n    tag_47:\n      stop\n        /* \"MyHomeToken.sol\":357:415  mapping(address => ShareHolder) public shareHolderRegistry */\n    tag_7:\n      callvalue\n      dup1\n      iszero\n      tag_49\n      jumpi\n      0x00\n      dup1\n      revert\n    tag_49:\n      pop\n      tag_50\n      0x04\n      dup1\n      calldatasize\n      sub\n      dup2\n      add\n      swap1\n      tag_51\n      swap2\n      swap1\n      tag_52\n      jump\t// in\n    tag_51:\n      tag_53\n      jump\t// in\n    tag_50:\n      mload(0x40)\n      tag_54\n      swap3\n      swap2\n      swap1\n      tag_55\n      jump\t// in\n    tag_54:\n      mload(0x40)\n      dup1\n      swap2\n      sub\n      swap1\n      return\n        /* \"MyHomeToken.sol\":3470:3703  function createBallot(string memory _ballotName, string memory _proposal) public {... */\n    tag_8:\n      callvalue\n      dup1\n      iszero\n      tag_56\n      jumpi\n      0x00\n      dup1\n      revert\n    tag_56:\n      pop\n      tag_57\n      0x04\n      dup1\n      calldatasize\n      sub\n      dup2\n      add\n      swap1\n      tag_58\n      swap2\n      swap1\n      tag_59\n      jump\t// in\n    tag_58:\n      tag_60\n      jump\t// in\n    tag_57:\n      stop\n        /* \"MyHomeToken.sol\":632:654  string public proposal */\n    tag_9:\n      callvalue\n      dup1\n      iszero\n      tag_61\n      jumpi\n      0x00\n      dup1\n      revert\n    tag_61:\n      pop\n      tag_62\n      tag_63\n      jump\t// in\n    tag_62:\n      mload(0x40)\n      tag_64\n      swap2\n      swap1\n      tag_37\n      jump\t// in\n    tag_64:\n      mload(0x40)\n      dup1\n      swap2\n      sub\n      swap1\n      return\n        /* \"MyHomeToken.sol\":222:251  uint256 public tokenPrice = 1 */\n    tag_10:\n      callvalue\n      dup1\n      iszero\n      tag_65\n      jumpi\n      0x00\n      dup1\n      revert\n    tag_65:\n      pop\n      tag_66\n      tag_67\n      jump\t// in\n    tag_66:\n      mload(0x40)\n      tag_68\n      swap2\n      swap1\n      tag_32\n      jump\t// in\n    tag_68:\n      mload(0x40)\n      dup1\n      swap2\n      sub\n      swap1\n      return\n        /* \"MyHomeToken.sol\":3997:4692  function doVote(bool _choice)... */\n    tag_11:\n      callvalue\n      dup1\n      iszero\n      tag_69\n      jumpi\n      0x00\n      dup1\n      revert\n    tag_69:\n      pop\n      tag_70\n      0x04\n      dup1\n      calldatasize\n      sub\n      dup2\n      add\n      swap1\n      tag_71\n      swap2\n      swap1\n      tag_72\n      jump\t// in\n    tag_71:\n      tag_73\n      jump\t// in\n    tag_70:\n      mload(0x40)\n      tag_74\n      swap2\n      swap1\n      tag_75\n      jump\t// in\n    tag_74:\n      mload(0x40)\n      dup1\n      swap2\n      sub\n      swap1\n      return\n        /* \"MyHomeToken.sol\":94:114  address public owner */\n    tag_12:\n      callvalue\n      dup1\n      iszero\n      tag_76\n      jumpi\n      0x00\n      dup1\n      revert\n    tag_76:\n      pop\n      tag_77\n      tag_78\n      jump\t// in\n    tag_77:\n      mload(0x40)\n      tag_79\n      swap2\n      swap1\n      tag_80\n      jump\t// in\n    tag_79:\n      mload(0x40)\n      dup1\n      swap2\n      sub\n      swap1\n      return\n        /* \"MyHomeToken.sol\":293:326  uint public totalShareHolders = 0 */\n    tag_13:\n      callvalue\n      dup1\n      iszero\n      tag_81\n      jumpi\n      0x00\n      dup1\n      revert\n    tag_81:\n      pop\n      tag_82\n      tag_83\n      jump\t// in\n    tag_82:\n      mload(0x40)\n      tag_84\n      swap2\n      swap1\n      tag_32\n      jump\t// in\n    tag_84:\n      mload(0x40)\n      dup1\n      swap2\n      sub\n      swap1\n      return\n        /* \"MyHomeToken.sol\":150:178  House[] public houseRegister */\n    tag_14:\n      callvalue\n      dup1\n      iszero\n      tag_85\n      jumpi\n      0x00\n      dup1\n      revert\n    tag_85:\n      pop\n      tag_86\n      0x04\n      dup1\n      calldatasize\n      sub\n      dup2\n      add\n      swap1\n      tag_87\n      swap2\n      swap1\n      tag_88\n      jump\t// in\n    tag_87:\n      tag_89\n      jump\t// in\n    tag_86:\n      mload(0x40)\n      tag_90\n      swap4\n      swap3\n      swap2\n      swap1\n      tag_91\n      jump\t// in\n    tag_90:\n      mload(0x40)\n      dup1\n      swap2\n      sub\n      swap1\n      return\n        /* \"MyHomeToken.sol\":2824:3061  function transfer(address _to, uint256 _value) public {... */\n    tag_15:\n      callvalue\n      dup1\n      iszero\n      tag_92\n      jumpi\n      0x00\n      dup1\n      revert\n    tag_92:\n      pop\n      tag_93\n      0x04\n      dup1\n      calldatasize\n      sub\n      dup2\n      add\n      swap1\n      tag_94\n      swap2\n      swap1\n      tag_95\n      jump\t// in\n    tag_94:\n      tag_96\n      jump\t// in\n    tag_93:\n      stop\n        /* \"MyHomeToken.sol\":526:556  address public ballotInitiator */\n    tag_16:\n      callvalue\n      dup1\n      iszero\n      tag_97\n      jumpi\n      0x00\n      dup1\n      revert\n    tag_97:\n      pop\n      tag_98\n      tag_99\n      jump\t// in\n    tag_98:\n      mload(0x40)\n      tag_100\n      swap2\n      swap1\n      tag_80\n      jump\t// in\n    tag_100:\n      mload(0x40)\n      dup1\n      swap2\n      sub\n      swap1\n      return\n        /* \"MyHomeToken.sol\":4718:4946  function endVote()... */\n    tag_17:\n      callvalue\n      dup1\n      iszero\n      tag_101\n      jumpi\n      0x00\n      dup1\n      revert\n    tag_101:\n      pop\n      tag_102\n      tag_103\n      jump\t// in\n    tag_102:\n      stop\n        /* \"MyHomeToken.sol\":120:144  HousingPackage public hp */\n    tag_18:\n      callvalue\n      dup1\n      iszero\n      tag_104\n      jumpi\n      0x00\n      dup1\n      revert\n    tag_104:\n      pop\n      tag_105\n      tag_106\n      jump\t// in\n    tag_105:\n      mload(0x40)\n      tag_107\n      swap4\n      swap3\n      swap2\n      swap1\n      tag_91\n      jump\t// in\n    tag_107:\n      mload(0x40)\n      dup1\n      swap2\n      sub\n      swap1\n      return\n        /* \"MyHomeToken.sol\":562:590  address public ballotAddress */\n    tag_19:\n      callvalue\n      dup1\n      iszero\n      tag_108\n      jumpi\n      0x00\n      dup1\n      revert\n    tag_108:\n      pop\n      tag_109\n      tag_110\n      jump\t// in\n    tag_109:\n      mload(0x40)\n      tag_111\n      swap2\n      swap1\n      tag_80\n      jump\t// in\n    tag_111:\n      mload(0x40)\n      dup1\n      swap2\n      sub\n      swap1\n      return\n        /* \"MyHomeToken.sol\":3067:3318  function buy(uint256 _amount) external payable {... */\n    tag_20:\n      tag_112\n      0x04\n      dup1\n      calldatasize\n      sub\n      dup2\n      add\n      swap1\n      tag_113\n      swap2\n      swap1\n      tag_88\n      jump\t// in\n    tag_113:\n      tag_114\n      jump\t// in\n    tag_112:\n      stop\n        /* \"MyHomeToken.sol\":2039:2419  function addHouse(string memory _registrationId, string memory location, uint256 price) ... */\n    tag_21:\n      callvalue\n      dup1\n      iszero\n      tag_115\n      jumpi\n      0x00\n      dup1\n      revert\n    tag_115:\n      pop\n      tag_116\n      0x04\n      dup1\n      calldatasize\n      sub\n      dup2\n      add\n      swap1\n      tag_117\n      swap2\n      swap1\n      tag_118\n      jump\t// in\n    tag_117:\n      tag_119\n      jump\t// in\n    tag_116:\n      stop\n        /* \"MyHomeToken.sol\":3328:3464  function sell(uint256 _amount) external {... */\n    tag_22:\n      callvalue\n      dup1\n      iszero\n      tag_120\n      jumpi\n      0x00\n      dup1\n      revert\n    tag_120:\n      pop\n      tag_121\n      0x04\n      dup1\n      calldatasize\n      sub\n      dup2\n      add\n      swap1\n      tag_122\n      swap2\n      swap1\n      tag_88\n      jump\t// in\n    tag_122:\n      tag_123\n      jump\t// in\n    tag_121:\n      stop\n        /* \"MyHomeToken.sol\":694:721  uint public finalResult = 0 */\n    tag_23:\n      callvalue\n      dup1\n      iszero\n      tag_124\n      jumpi\n      0x00\n      dup1\n      revert\n    tag_124:\n      pop\n      tag_125\n      tag_126\n      jump\t// in\n    tag_125:\n      mload(0x40)\n      tag_127\n      swap2\n      swap1\n      tag_32\n      jump\t// in\n    tag_127:\n      mload(0x40)\n      dup1\n      swap2\n      sub\n      swap1\n      return\n        /* \"MyHomeToken.sol\":2425:2818  function addShareHolder(address _shareHolderAddress, string memory _shareHolderName)... */\n    tag_24:\n      callvalue\n      dup1\n      iszero\n      tag_128\n      jumpi\n      0x00\n      dup1\n      revert\n    tag_128:\n      pop\n      tag_129\n      0x04\n      dup1\n      calldatasize\n      sub\n      dup2\n      add\n      swap1\n      tag_130\n      swap2\n      swap1\n      tag_131\n      jump\t// in\n    tag_130:\n      tag_132\n      jump\t// in\n    tag_129:\n      stop\n        /* \"MyHomeToken.sol\":727:753  uint public totalVotes = 0 */\n    tag_30:\n      sload(0x13)\n      dup2\n      jump\t// out\n        /* \"MyHomeToken.sol\":602:626  string public ballotName */\n    tag_35:\n      0x0f\n      dup1\n      sload\n      tag_133\n      swap1\n      tag_134\n      jump\t// in\n    tag_133:\n      dup1\n      0x1f\n      add\n      0x20\n      dup1\n      swap2\n      div\n      mul\n      0x20\n      add\n      mload(0x40)\n      swap1\n      dup2\n      add\n      0x40\n      mstore\n      dup1\n      swap3\n      swap2\n      swap1\n      dup2\n      dup2\n      mstore\n      0x20\n      add\n      dup3\n      dup1\n      sload\n      tag_135\n      swap1\n      tag_134\n      jump\t// in\n    tag_135:\n      dup1\n      iszero\n      tag_136\n      jumpi\n      dup1\n      0x1f\n      lt\n      tag_137\n      jumpi\n      0x0100\n      dup1\n      dup4\n      sload\n      div\n      mul\n      dup4\n      mstore\n      swap2\n      0x20\n      add\n      swap2\n      jump(tag_136)\n    tag_137:\n      dup3\n      add\n      swap2\n      swap1\n      0x00\n      mstore\n      keccak256(0x00, 0x20)\n      swap1\n    tag_138:\n      dup2\n      sload\n      dup2\n      mstore\n      swap1\n      0x01\n      add\n      swap1\n      0x20\n      add\n      dup1\n      dup4\n      gt\n      tag_138\n      jumpi\n      dup3\n      swap1\n      sub\n      0x1f\n      and\n      dup3\n      add\n      swap2\n    tag_136:\n      pop\n      pop\n      pop\n      pop\n      pop\n      dup2\n      jump\t// out\n        /* \"MyHomeToken.sol\":184:216  uint256 public totalShares = 100 */\n    tag_40:\n      sload(0x06)\n      dup2\n      jump\t// out\n        /* \"MyHomeToken.sol\":257:287  uint256 public shareLimit = 10 */\n    tag_44:\n      sload(0x08)\n      dup2\n      jump\t// out\n        /* \"MyHomeToken.sol\":3741:3933  function startVote()... */\n    tag_48:\n        /* \"MyHomeToken.sol\":3799:3818  BallotState.Created */\n      0x00\n        /* \"MyHomeToken.sol\":1747:1753  _state */\n      dup1\n        /* \"MyHomeToken.sol\":1732:1753  ballotState == _state */\n      0x02\n      dup2\n      gt\n      iszero\n      tag_140\n      jumpi\n      tag_141\n      tag_142\n      jump\t// in\n    tag_141:\n    tag_140:\n        /* \"MyHomeToken.sol\":1732:1743  ballotState */\n      0x0d\n      0x00\n      swap1\n      sload\n      swap1\n      0x0100\n      exp\n      swap1\n      div\n      0xff\n      and\n        /* \"MyHomeToken.sol\":1732:1753  ballotState == _state */\n      0x02\n      dup2\n      gt\n      iszero\n      tag_143\n      jumpi\n      tag_144\n      tag_142\n      jump\t// in\n    tag_144:\n    tag_143:\n      eq\n        /* \"MyHomeToken.sol\":1724:1754  require(ballotState == _state) */\n      tag_145\n      jumpi\n      0x00\n      dup1\n      revert\n    tag_145:\n        /* \"MyHomeToken.sol\":1651:1664  ballotAddress */\n      0x0e\n      0x00\n      swap1\n      sload\n      swap1\n      0x0100\n      exp\n      swap1\n      div\n      0xffffffffffffffffffffffffffffffffffffffff\n      and\n        /* \"MyHomeToken.sol\":1637:1664  msg.sender == ballotAddress */\n      0xffffffffffffffffffffffffffffffffffffffff\n      and\n        /* \"MyHomeToken.sol\":1637:1647  msg.sender */\n      caller\n        /* \"MyHomeToken.sol\":1637:1664  msg.sender == ballotAddress */\n      0xffffffffffffffffffffffffffffffffffffffff\n      and\n      eq\n        /* \"MyHomeToken.sol\":1629:1665  require(msg.sender == ballotAddress) */\n      tag_147\n      jumpi\n      0x00\n      dup1\n      revert\n    tag_147:\n        /* \"MyHomeToken.sol\":3876:3894  BallotState.Voting */\n      0x01\n        /* \"MyHomeToken.sol\":3862:3873  ballotState */\n      0x0d\n      0x00\n        /* \"MyHomeToken.sol\":3862:3894  ballotState = BallotState.Voting */\n      0x0100\n      exp\n      dup2\n      sload\n      dup2\n      0xff\n      mul\n      not\n      and\n      swap1\n      dup4\n      0x02\n      dup2\n      gt\n      iszero\n      tag_149\n      jumpi\n      tag_150\n      tag_142\n      jump\t// in\n    tag_150:\n    tag_149:\n      mul\n      or\n      swap1\n      sstore\n      pop\n        /* \"MyHomeToken.sol\":3913:3926  voteStarted() */\n      0xd0dc01800a369fef30d3fced5275b8b916549867622e79efca5245c479fda4ea\n      mload(0x40)\n      mload(0x40)\n      dup1\n      swap2\n      sub\n      swap1\n      log1\n        /* \"MyHomeToken.sol\":3741:3933  function startVote()... */\n      pop\n      jump\t// out\n        /* \"MyHomeToken.sol\":357:415  mapping(address => ShareHolder) public shareHolderRegistry */\n    tag_53:\n      mstore(0x20, 0x0b)\n      dup1\n      0x00\n      mstore\n      keccak256(0x00, 0x40)\n      0x00\n      swap2\n      pop\n      swap1\n      pop\n      dup1\n      0x00\n      add\n      dup1\n      sload\n      tag_151\n      swap1\n      tag_134\n      jump\t// in\n    tag_151:\n      dup1\n      0x1f\n      add\n      0x20\n      dup1\n      swap2\n      div\n      mul\n      0x20\n      add\n      mload(0x40)\n      swap1\n      dup2\n      add\n      0x40\n      mstore\n      dup1\n      swap3\n      swap2\n      swap1\n      dup2\n      dup2\n      mstore\n      0x20\n      add\n      dup3\n      dup1\n      sload\n      tag_152\n      swap1\n      tag_134\n      jump\t// in\n    tag_152:\n      dup1\n      iszero\n      tag_153\n      jumpi\n      dup1\n      0x1f\n      lt\n      tag_154\n      jumpi\n      0x0100\n      dup1\n      dup4\n      sload\n      div\n      mul\n      dup4\n      mstore\n      swap2\n      0x20\n      add\n      swap2\n      jump(tag_153)\n    tag_154:\n      dup3\n      add\n      swap2\n      swap1\n      0x00\n      mstore\n      keccak256(0x00, 0x20)\n      swap1\n    tag_155:\n      dup2\n      sload\n      dup2\n      mstore\n      swap1\n      0x01\n      add\n      swap1\n      0x20\n      add\n      dup1\n      dup4\n      gt\n      tag_155\n      jumpi\n      dup3\n      swap1\n      sub\n      0x1f\n      and\n      dup3\n      add\n      swap2\n    tag_153:\n      pop\n      pop\n      pop\n      pop\n      pop\n      swap1\n      dup1\n      0x01\n      add\n      0x00\n      swap1\n      sload\n      swap1\n      0x0100\n      exp\n      swap1\n      div\n      0xff\n      and\n      swap1\n      pop\n      dup3\n      jump\t// out\n        /* \"MyHomeToken.sol\":3470:3703  function createBallot(string memory _ballotName, string memory _proposal) public {... */\n    tag_60:\n        /* \"MyHomeToken.sol\":3575:3594  BallotState.Created */\n      0x00\n        /* \"MyHomeToken.sol\":3561:3572  ballotState */\n      0x0d\n      0x00\n        /* \"MyHomeToken.sol\":3561:3594  ballotState = BallotState.Created */\n      0x0100\n      exp\n      dup2\n      sload\n      dup2\n      0xff\n      mul\n      not\n      and\n      swap1\n      dup4\n      0x02\n      dup2\n      gt\n      iszero\n      tag_157\n      jumpi\n      tag_158\n      tag_142\n      jump\t// in\n    tag_158:\n    tag_157:\n      mul\n      or\n      swap1\n      sstore\n      pop\n        /* \"MyHomeToken.sol\":3617:3628  _ballotName */\n      dup2\n        /* \"MyHomeToken.sol\":3604:3614  ballotName */\n      0x0f\n        /* \"MyHomeToken.sol\":3604:3628  ballotName = _ballotName */\n      swap1\n      dup1\n      mload\n      swap1\n      0x20\n      add\n      swap1\n      tag_159\n      swap3\n      swap2\n      swap1\n      tag_160\n      jump\t// in\n    tag_159:\n      pop\n        /* \"MyHomeToken.sol\":3649:3658  _proposal */\n      dup1\n        /* \"MyHomeToken.sol\":3638:3646  proposal */\n      0x10\n        /* \"MyHomeToken.sol\":3638:3658  proposal = _proposal */\n      swap1\n      dup1\n      mload\n      swap1\n      0x20\n      add\n      swap1\n      tag_161\n      swap3\n      swap2\n      swap1\n      tag_160\n      jump\t// in\n    tag_161:\n      pop\n        /* \"MyHomeToken.sol\":3686:3696  msg.sender */\n      caller\n        /* \"MyHomeToken.sol\":3668:3683  ballotInitiator */\n      0x0d\n      0x01\n        /* \"MyHomeToken.sol\":3668:3696  ballotInitiator = msg.sender */\n      0x0100\n      exp\n      dup2\n      sload\n      dup2\n      0xffffffffffffffffffffffffffffffffffffffff\n      mul\n      not\n      and\n      swap1\n      dup4\n      0xffffffffffffffffffffffffffffffffffffffff\n      and\n      mul\n      or\n      swap1\n      sstore\n      pop\n        /* \"MyHomeToken.sol\":3470:3703  function createBallot(string memory _ballotName, string memory _proposal) public {... */\n      pop\n      pop\n      jump\t// out\n        /* \"MyHomeToken.sol\":632:654  string public proposal */\n    tag_63:\n      0x10\n      dup1\n      sload\n      tag_162\n      swap1\n      tag_134\n      jump\t// in\n    tag_162:\n      dup1\n      0x1f\n      add\n      0x20\n      dup1\n      swap2\n      div\n      mul\n      0x20\n      add\n      mload(0x40)\n      swap1\n      dup2\n      add\n      0x40\n      mstore\n      dup1\n      swap3\n      swap2\n      swap1\n      dup2\n      dup2\n      mstore\n      0x20\n      add\n      dup3\n      dup1\n      sload\n      tag_163\n      swap1\n      tag_134\n      jump\t// in\n    tag_163:\n      dup1\n      iszero\n      tag_164\n      jumpi\n      dup1\n      0x1f\n      lt\n      tag_165\n      jumpi\n      0x0100\n      dup1\n      dup4\n      sload\n      div\n      mul\n      dup4\n      mstore\n      swap2\n      0x20\n      add\n      swap2\n      jump(tag_164)\n    tag_165:\n      dup3\n      add\n      swap2\n      swap1\n      0x00\n      mstore\n      keccak256(0x00, 0x20)\n      swap1\n    tag_166:\n      dup2\n      sload\n      dup2\n      mstore\n      swap1\n      0x01\n      add\n      swap1\n      0x20\n      add\n      dup1\n      dup4\n      gt\n      tag_166\n      jumpi\n      dup3\n      swap1\n      sub\n      0x1f\n      and\n      dup3\n      add\n      swap2\n    tag_164:\n      pop\n      pop\n      pop\n      pop\n      pop\n      dup2\n      jump\t// out\n        /* \"MyHomeToken.sol\":222:251  uint256 public tokenPrice = 1 */\n    tag_67:\n      sload(0x07)\n      dup2\n      jump\t// out\n        /* \"MyHomeToken.sol\":3997:4692  function doVote(bool _choice)... */\n    tag_73:\n        /* \"MyHomeToken.sol\":4101:4111  bool voted */\n      0x00\n        /* \"MyHomeToken.sol\":4064:4082  BallotState.Voting */\n      0x01\n        /* \"MyHomeToken.sol\":1747:1753  _state */\n      dup1\n        /* \"MyHomeToken.sol\":1732:1753  ballotState == _state */\n      0x02\n      dup2\n      gt\n      iszero\n      tag_168\n      jumpi\n      tag_169\n      tag_142\n      jump\t// in\n    tag_169:\n    tag_168:\n        /* \"MyHomeToken.sol\":1732:1743  ballotState */\n      0x0d\n      0x00\n      swap1\n      sload\n      swap1\n      0x0100\n      exp\n      swap1\n      div\n      0xff\n      and\n        /* \"MyHomeToken.sol\":1732:1753  ballotState == _state */\n      0x02\n      dup2\n      gt\n      iszero\n      tag_170\n      jumpi\n      tag_171\n      tag_142\n      jump\t// in\n    tag_171:\n    tag_170:\n      eq\n        /* \"MyHomeToken.sol\":1724:1754  require(ballotState == _state) */\n      tag_172\n      jumpi\n      0x00\n      dup1\n      revert\n    tag_172:\n        /* \"MyHomeToken.sol\":4127:4137  bool found */\n      0x00\n        /* \"MyHomeToken.sol\":4222:4223  0 */\n      dup1\n        /* \"MyHomeToken.sol\":4174:4193  shareHolderRegistry */\n      0x0b\n        /* \"MyHomeToken.sol\":4174:4205  shareHolderRegistry[msg.sender] */\n      0x00\n        /* \"MyHomeToken.sol\":4194:4204  msg.sender */\n      caller\n        /* \"MyHomeToken.sol\":4174:4205  shareHolderRegistry[msg.sender] */\n      0xffffffffffffffffffffffffffffffffffffffff\n      and\n      0xffffffffffffffffffffffffffffffffffffffff\n      and\n      dup2\n      mstore\n      0x20\n      add\n      swap1\n      dup2\n      mstore\n      0x20\n      add\n      0x00\n      keccak256\n        /* \"MyHomeToken.sol\":4174:4210  shareHolderRegistry[msg.sender].name */\n      0x00\n      add\n        /* \"MyHomeToken.sol\":4168:4218  bytes(shareHolderRegistry[msg.sender].name).length */\n      dup1\n      sload\n      tag_174\n      swap1\n      tag_134\n      jump\t// in\n    tag_174:\n      swap1\n      pop\n        /* \"MyHomeToken.sol\":4168:4223  bytes(shareHolderRegistry[msg.sender].name).length != 0 */\n      eq\n      iszero\n        /* \"MyHomeToken.sol\":4168:4274  bytes(shareHolderRegistry[msg.sender].name).length != 0 ... */\n      dup1\n      iszero\n      tag_175\n      jumpi\n      pop\n        /* \"MyHomeToken.sol\":4237:4256  shareHolderRegistry */\n      0x0b\n        /* \"MyHomeToken.sol\":4237:4268  shareHolderRegistry[msg.sender] */\n      0x00\n        /* \"MyHomeToken.sol\":4257:4267  msg.sender */\n      caller\n        /* \"MyHomeToken.sol\":4237:4268  shareHolderRegistry[msg.sender] */\n      0xffffffffffffffffffffffffffffffffffffffff\n      and\n      0xffffffffffffffffffffffffffffffffffffffff\n      and\n      dup2\n      mstore\n      0x20\n      add\n      swap1\n      dup2\n      mstore\n      0x20\n      add\n      0x00\n      keccak256\n        /* \"MyHomeToken.sol\":4237:4274  shareHolderRegistry[msg.sender].voted */\n      0x01\n      add\n      0x00\n      swap1\n      sload\n      swap1\n      0x0100\n      exp\n      swap1\n      div\n      0xff\n      and\n        /* \"MyHomeToken.sol\":4236:4274  !shareHolderRegistry[msg.sender].voted */\n      iszero\n        /* \"MyHomeToken.sol\":4168:4274  bytes(shareHolderRegistry[msg.sender].name).length != 0 ... */\n    tag_175:\n        /* \"MyHomeToken.sol\":4164:4629  if (bytes(shareHolderRegistry[msg.sender].name).length != 0 ... */\n      iszero\n      tag_176\n      jumpi\n        /* \"MyHomeToken.sol\":4329:4333  true */\n      0x01\n        /* \"MyHomeToken.sol\":4289:4308  shareHolderRegistry */\n      0x0b\n        /* \"MyHomeToken.sol\":4289:4320  shareHolderRegistry[msg.sender] */\n      0x00\n        /* \"MyHomeToken.sol\":4309:4319  msg.sender */\n      caller\n        /* \"MyHomeToken.sol\":4289:4320  shareHolderRegistry[msg.sender] */\n      0xffffffffffffffffffffffffffffffffffffffff\n      and\n      0xffffffffffffffffffffffffffffffffffffffff\n      and\n      dup2\n      mstore\n      0x20\n      add\n      swap1\n      dup2\n      mstore\n      0x20\n      add\n      0x00\n      keccak256\n        /* \"MyHomeToken.sol\":4289:4326  shareHolderRegistry[msg.sender].voted */\n      0x01\n      add\n      0x00\n        /* \"MyHomeToken.sol\":4289:4333  shareHolderRegistry[msg.sender].voted = true */\n      0x0100\n      exp\n      dup2\n      sload\n      dup2\n      0xff\n      mul\n      not\n      and\n      swap1\n      dup4\n      iszero\n      iszero\n      mul\n      or\n      swap1\n      sstore\n      pop\n        /* \"MyHomeToken.sol\":4347:4360  Vote memory v */\n      tag_177\n      tag_178\n      jump\t// in\n    tag_177:\n        /* \"MyHomeToken.sol\":4397:4407  msg.sender */\n      caller\n        /* \"MyHomeToken.sol\":4374:4375  v */\n      dup2\n        /* \"MyHomeToken.sol\":4374:4394  v.shareHolderAddress */\n      0x00\n      add\n        /* \"MyHomeToken.sol\":4374:4407  v.shareHolderAddress = msg.sender */\n      swap1\n      0xffffffffffffffffffffffffffffffffffffffff\n      and\n      swap1\n      dup2\n      0xffffffffffffffffffffffffffffffffffffffff\n      and\n      dup2\n      mstore\n      pop\n      pop\n        /* \"MyHomeToken.sol\":4432:4439  _choice */\n      dup5\n        /* \"MyHomeToken.sol\":4421:4422  v */\n      dup2\n        /* \"MyHomeToken.sol\":4421:4429  v.choice */\n      0x20\n      add\n        /* \"MyHomeToken.sol\":4421:4439  v.choice = _choice */\n      swap1\n      iszero\n      iszero\n      swap1\n      dup2\n      iszero\n      iszero\n      dup2\n      mstore\n      pop\n      pop\n        /* \"MyHomeToken.sol\":4457:4464  _choice */\n      dup5\n        /* \"MyHomeToken.sol\":4453:4532  if (_choice){... */\n      iszero\n      tag_179\n      jumpi\n        /* \"MyHomeToken.sol\":4483:4494  resultCount */\n      0x11\n      0x00\n        /* \"MyHomeToken.sol\":4483:4496  resultCount++ */\n      dup2\n      sload\n      dup1\n      swap3\n      swap2\n      swap1\n      tag_180\n      swap1\n      tag_181\n      jump\t// in\n    tag_180:\n      swap2\n      swap1\n      pop\n      sstore\n      pop\n        /* \"MyHomeToken.sol\":4453:4532  if (_choice){... */\n    tag_179:\n        /* \"MyHomeToken.sol\":4565:4566  v */\n      dup1\n        /* \"MyHomeToken.sol\":4545:4550  votes */\n      0x14\n        /* \"MyHomeToken.sol\":4545:4562  votes[totalVotes] */\n      0x00\n        /* \"MyHomeToken.sol\":4551:4561  totalVotes */\n      sload(0x13)\n        /* \"MyHomeToken.sol\":4545:4562  votes[totalVotes] */\n      dup2\n      mstore\n      0x20\n      add\n      swap1\n      dup2\n      mstore\n      0x20\n      add\n      0x00\n      keccak256\n        /* \"MyHomeToken.sol\":4545:4566  votes[totalVotes] = v */\n      0x00\n      dup3\n      add\n      mload\n      dup2\n      0x00\n      add\n      exp(0x0100, 0x00)\n      dup2\n      sload\n      dup2\n      0xffffffffffffffffffffffffffffffffffffffff\n      mul\n      not\n      and\n      swap1\n      dup4\n      0xffffffffffffffffffffffffffffffffffffffff\n      and\n      mul\n      or\n      swap1\n      sstore\n      pop\n      0x20\n      dup3\n      add\n      mload\n      dup2\n      0x00\n      add\n      exp(0x0100, 0x14)\n      dup2\n      sload\n      dup2\n      0xff\n      mul\n      not\n      and\n      swap1\n      dup4\n      iszero\n      iszero\n      mul\n      or\n      swap1\n      sstore\n      pop\n      swap1\n      pop\n      pop\n        /* \"MyHomeToken.sol\":4580:4590  totalVotes */\n      0x13\n      0x00\n        /* \"MyHomeToken.sol\":4580:4592  totalVotes++ */\n      dup2\n      sload\n      dup1\n      swap3\n      swap2\n      swap1\n      tag_182\n      swap1\n      tag_181\n      jump\t// in\n    tag_182:\n      swap2\n      swap1\n      pop\n      sstore\n      pop\n        /* \"MyHomeToken.sol\":4614:4618  true */\n      0x01\n        /* \"MyHomeToken.sol\":4606:4618  found = true */\n      swap2\n      pop\n        /* \"MyHomeToken.sol\":4275:4629  {... */\n      pop\n        /* \"MyHomeToken.sol\":4164:4629  if (bytes(shareHolderRegistry[msg.sender].name).length != 0 ... */\n    tag_176:\n        /* \"MyHomeToken.sol\":4643:4663  voteDone(msg.sender) */\n      0x55c65cf9526efdf6c2252fe9757889dbd93e10172cad0f2edb1df619c88dbf7d\n        /* \"MyHomeToken.sol\":4652:4662  msg.sender */\n      caller\n        /* \"MyHomeToken.sol\":4643:4663  voteDone(msg.sender) */\n      mload(0x40)\n      tag_183\n      swap2\n      swap1\n      tag_80\n      jump\t// in\n    tag_183:\n      mload(0x40)\n      dup1\n      swap2\n      sub\n      swap1\n      log1\n        /* \"MyHomeToken.sol\":4680:4685  found */\n      dup1\n        /* \"MyHomeToken.sol\":4673:4685  return found */\n      swap3\n      pop\n      pop\n        /* \"MyHomeToken.sol\":3997:4692  function doVote(bool _choice)... */\n      pop\n      swap2\n      swap1\n      pop\n      jump\t// out\n        /* \"MyHomeToken.sol\":94:114  address public owner */\n    tag_78:\n      0x00\n      dup1\n      sload\n      swap1\n      0x0100\n      exp\n      swap1\n      div\n      0xffffffffffffffffffffffffffffffffffffffff\n      and\n      dup2\n      jump\t// out\n        /* \"MyHomeToken.sol\":293:326  uint public totalShareHolders = 0 */\n    tag_83:\n      sload(0x09)\n      dup2\n      jump\t// out\n        /* \"MyHomeToken.sol\":150:178  House[] public houseRegister */\n    tag_89:\n      0x05\n      dup2\n      dup2\n      sload\n      dup2\n      lt\n      tag_184\n      jumpi\n      0x00\n      dup1\n      revert\n    tag_184:\n      swap1\n      0x00\n      mstore\n      keccak256(0x00, 0x20)\n      swap1\n      0x03\n      mul\n      add\n      0x00\n      swap2\n      pop\n      swap1\n      pop\n      dup1\n      0x00\n      add\n      dup1\n      sload\n      tag_186\n      swap1\n      tag_134\n      jump\t// in\n    tag_186:\n      dup1\n      0x1f\n      add\n      0x20\n      dup1\n      swap2\n      div\n      mul\n      0x20\n      add\n      mload(0x40)\n      swap1\n      dup2\n      add\n      0x40\n      mstore\n      dup1\n      swap3\n      swap2\n      swap1\n      dup2\n      dup2\n      mstore\n      0x20\n      add\n      dup3\n      dup1\n      sload\n      tag_187\n      swap1\n      tag_134\n      jump\t// in\n    tag_187:\n      dup1\n      iszero\n      tag_188\n      jumpi\n      dup1\n      0x1f\n      lt\n      tag_189\n      jumpi\n      0x0100\n      dup1\n      dup4\n      sload\n      div\n      mul\n      dup4\n      mstore\n      swap2\n      0x20\n      add\n      swap2\n      jump(tag_188)\n    tag_189:\n      dup3\n      add\n      swap2\n      swap1\n      0x00\n      mstore\n      keccak256(0x00, 0x20)\n      swap1\n    tag_190:\n      dup2\n      sload\n      dup2\n      mstore\n      swap1\n      0x01\n      add\n      swap1\n      0x20\n      add\n      dup1\n      dup4\n      gt\n      tag_190\n      jumpi\n      dup3\n      swap1\n      sub\n      0x1f\n      and\n      dup3\n      add\n      swap2\n    tag_188:\n      pop\n      pop\n      pop\n      pop\n      pop\n      swap1\n      dup1\n      0x01\n      add\n      dup1\n      sload\n      tag_191\n      swap1\n      tag_134\n      jump\t// in\n    tag_191:\n      dup1\n      0x1f\n      add\n      0x20\n      dup1\n      swap2\n      div\n      mul\n      0x20\n      add\n      mload(0x40)\n      swap1\n      dup2\n      add\n      0x40\n      mstore\n      dup1\n      swap3\n      swap2\n      swap1\n      dup2\n      dup2\n      mstore\n      0x20\n      add\n      dup3\n      dup1\n      sload\n      tag_192\n      swap1\n      tag_134\n      jump\t// in\n    tag_192:\n      dup1\n      iszero\n      tag_193\n      jumpi\n      dup1\n      0x1f\n      lt\n      tag_194\n      jumpi\n      0x0100\n      dup1\n      dup4\n      sload\n      div\n      mul\n      dup4\n      mstore\n      swap2\n      0x20\n      add\n      swap2\n      jump(tag_193)\n    tag_194:\n      dup3\n      add\n      swap2\n      swap1\n      0x00\n      mstore\n      keccak256(0x00, 0x20)\n      swap1\n    tag_195:\n      dup2\n      sload\n      dup2\n      mstore\n      swap1\n      0x01\n      add\n      swap1\n      0x20\n      add\n      dup1\n      dup4\n      gt\n      tag_195\n      jumpi\n      dup3\n      swap1\n      sub\n      0x1f\n      and\n      dup3\n      add\n      swap2\n    tag_193:\n      pop\n      pop\n      pop\n      pop\n      pop\n      swap1\n      dup1\n      0x02\n      add\n      sload\n      swap1\n      pop\n      dup4\n      jump\t// out\n        /* \"MyHomeToken.sol\":2824:3061  function transfer(address _to, uint256 _value) public {... */\n    tag_96:\n        /* \"MyHomeToken.sol\":2925:2931  _value */\n      dup1\n        /* \"MyHomeToken.sol\":2900:2910  _balanceOf */\n      0x0c\n        /* \"MyHomeToken.sol\":2900:2922  _balanceOf[msg.sender] */\n      0x00\n        /* \"MyHomeToken.sol\":2911:2921  msg.sender */\n      caller\n        /* \"MyHomeToken.sol\":2900:2922  _balanceOf[msg.sender] */\n      0xffffffffffffffffffffffffffffffffffffffff\n      and\n      0xffffffffffffffffffffffffffffffffffffffff\n      and\n      dup2\n      mstore\n      0x20\n      add\n      swap1\n      dup2\n      mstore\n      0x20\n      add\n      0x00\n      keccak256\n      sload\n        /* \"MyHomeToken.sol\":2900:2931  _balanceOf[msg.sender]>= _value */\n      lt\n      iszero\n        /* \"MyHomeToken.sol\":2891:2932  require (_balanceOf[msg.sender]>= _value) */\n      tag_197\n      jumpi\n      0x00\n      dup1\n      revert\n    tag_197:\n        /* \"MyHomeToken.sol\":2967:2972  owner */\n      0x00\n      dup1\n      sload\n      swap1\n      0x0100\n      exp\n      swap1\n      div\n      0xffffffffffffffffffffffffffffffffffffffff\n      and\n        /* \"MyHomeToken.sol\":2953:2972  msg.sender == owner */\n      0xffffffffffffffffffffffffffffffffffffffff\n      and\n        /* \"MyHomeToken.sol\":2953:2963  msg.sender */\n      caller\n        /* \"MyHomeToken.sol\":2953:2972  msg.sender == owner */\n      0xffffffffffffffffffffffffffffffffffffffff\n      and\n      eq\n        /* \"MyHomeToken.sol\":2945:2973  require(msg.sender == owner) */\n      tag_198\n      jumpi\n      0x00\n      dup1\n      revert\n    tag_198:\n        /* \"MyHomeToken.sol\":3012:3018  _value */\n      dup1\n        /* \"MyHomeToken.sol\":2986:2996  _balanceOf */\n      0x0c\n        /* \"MyHomeToken.sol\":2986:3008  _balanceOf[msg.sender] */\n      0x00\n        /* \"MyHomeToken.sol\":2997:3007  msg.sender */\n      caller\n        /* \"MyHomeToken.sol\":2986:3008  _balanceOf[msg.sender] */\n      0xffffffffffffffffffffffffffffffffffffffff\n      and\n      0xffffffffffffffffffffffffffffffffffffffff\n      and\n      dup2\n      mstore\n      0x20\n      add\n      swap1\n      dup2\n      mstore\n      0x20\n      add\n      0x00\n      keccak256\n      0x00\n        /* \"MyHomeToken.sol\":2986:3018  _balanceOf[msg.sender] -= _value */\n      dup3\n      dup3\n      sload\n      tag_199\n      swap2\n      swap1\n      tag_200\n      jump\t// in\n    tag_199:\n      swap3\n      pop\n      pop\n      dup2\n      swap1\n      sstore\n      pop\n        /* \"MyHomeToken.sol\":3048:3054  _value */\n      dup1\n        /* \"MyHomeToken.sol\":3031:3041  _balanceOf */\n      0x0c\n        /* \"MyHomeToken.sol\":3031:3046  _balanceOf[_to] */\n      0x00\n        /* \"MyHomeToken.sol\":3042:3045  _to */\n      dup5\n        /* \"MyHomeToken.sol\":3031:3046  _balanceOf[_to] */\n      0xffffffffffffffffffffffffffffffffffffffff\n      and\n      0xffffffffffffffffffffffffffffffffffffffff\n      and\n      dup2\n      mstore\n      0x20\n      add\n      swap1\n      dup2\n      mstore\n      0x20\n      add\n      0x00\n      keccak256\n      0x00\n        /* \"MyHomeToken.sol\":3031:3054  _balanceOf[_to]+=_value */\n      dup3\n      dup3\n      sload\n      tag_201\n      swap2\n      swap1\n      tag_202\n      jump\t// in\n    tag_201:\n      swap3\n      pop\n      pop\n      dup2\n      swap1\n      sstore\n      pop\n        /* \"MyHomeToken.sol\":2824:3061  function transfer(address _to, uint256 _value) public {... */\n      pop\n      pop\n      jump\t// out\n        /* \"MyHomeToken.sol\":526:556  address public ballotInitiator */\n    tag_99:\n      0x0d\n      0x01\n      swap1\n      sload\n      swap1\n      0x0100\n      exp\n      swap1\n      div\n      0xffffffffffffffffffffffffffffffffffffffff\n      and\n      dup2\n      jump\t// out\n        /* \"MyHomeToken.sol\":4718:4946  function endVote()... */\n    tag_103:\n        /* \"MyHomeToken.sol\":4774:4792  BallotState.Voting */\n      0x01\n        /* \"MyHomeToken.sol\":1747:1753  _state */\n      dup1\n        /* \"MyHomeToken.sol\":1732:1753  ballotState == _state */\n      0x02\n      dup2\n      gt\n      iszero\n      tag_204\n      jumpi\n      tag_205\n      tag_142\n      jump\t// in\n    tag_205:\n    tag_204:\n        /* \"MyHomeToken.sol\":1732:1743  ballotState */\n      0x0d\n      0x00\n      swap1\n      sload\n      swap1\n      0x0100\n      exp\n      swap1\n      div\n      0xff\n      and\n        /* \"MyHomeToken.sol\":1732:1753  ballotState == _state */\n      0x02\n      dup2\n      gt\n      iszero\n      tag_206\n      jumpi\n      tag_207\n      tag_142\n      jump\t// in\n    tag_207:\n    tag_206:\n      eq\n        /* \"MyHomeToken.sol\":1724:1754  require(ballotState == _state) */\n      tag_208\n      jumpi\n      0x00\n      dup1\n      revert\n    tag_208:\n        /* \"MyHomeToken.sol\":1651:1664  ballotAddress */\n      0x0e\n      0x00\n      swap1\n      sload\n      swap1\n      0x0100\n      exp\n      swap1\n      div\n      0xffffffffffffffffffffffffffffffffffffffff\n      and\n        /* \"MyHomeToken.sol\":1637:1664  msg.sender == ballotAddress */\n      0xffffffffffffffffffffffffffffffffffffffff\n      and\n        /* \"MyHomeToken.sol\":1637:1647  msg.sender */\n      caller\n        /* \"MyHomeToken.sol\":1637:1664  msg.sender == ballotAddress */\n      0xffffffffffffffffffffffffffffffffffffffff\n      and\n      eq\n        /* \"MyHomeToken.sol\":1629:1665  require(msg.sender == ballotAddress) */\n      tag_210\n      jumpi\n      0x00\n      dup1\n      revert\n    tag_210:\n        /* \"MyHomeToken.sol\":4850:4867  BallotState.Ended */\n      0x02\n        /* \"MyHomeToken.sol\":4836:4847  ballotState */\n      0x0d\n      0x00\n        /* \"MyHomeToken.sol\":4836:4867  ballotState = BallotState.Ended */\n      0x0100\n      exp\n      dup2\n      sload\n      dup2\n      0xff\n      mul\n      not\n      and\n      swap1\n      dup4\n      0x02\n      dup2\n      gt\n      iszero\n      tag_212\n      jumpi\n      tag_213\n      tag_142\n      jump\t// in\n    tag_213:\n    tag_212:\n      mul\n      or\n      swap1\n      sstore\n      pop\n        /* \"MyHomeToken.sol\":4891:4902  resultCount */\n      sload(0x11)\n        /* \"MyHomeToken.sol\":4877:4888  finalResult */\n      0x12\n        /* \"MyHomeToken.sol\":4877:4902  finalResult = resultCount */\n      dup2\n      swap1\n      sstore\n      pop\n        /* \"MyHomeToken.sol\":4917:4939  voteEnded(finalResult) */\n      0xb43a401dcdbe02a8afa41feb6c651425997908d1a4b79cf505188ba1dd3fd872\n        /* \"MyHomeToken.sol\":4927:4938  finalResult */\n      sload(0x12)\n        /* \"MyHomeToken.sol\":4917:4939  voteEnded(finalResult) */\n      mload(0x40)\n      tag_214\n      swap2\n      swap1\n      tag_32\n      jump\t// in\n    tag_214:\n      mload(0x40)\n      dup1\n      swap2\n      sub\n      swap1\n      log1\n        /* \"MyHomeToken.sol\":4718:4946  function endVote()... */\n      pop\n      jump\t// out\n        /* \"MyHomeToken.sol\":120:144  HousingPackage public hp */\n    tag_106:\n      0x01\n      dup1\n      0x00\n      add\n      dup1\n      sload\n      tag_215\n      swap1\n      tag_134\n      jump\t// in\n    tag_215:\n      dup1\n      0x1f\n      add\n      0x20\n      dup1\n      swap2\n      div\n      mul\n      0x20\n      add\n      mload(0x40)\n      swap1\n      dup2\n      add\n      0x40\n      mstore\n      dup1\n      swap3\n      swap2\n      swap1\n      dup2\n      dup2\n      mstore\n      0x20\n      add\n      dup3\n      dup1\n      sload\n      tag_216\n      swap1\n      tag_134\n      jump\t// in\n    tag_216:\n      dup1\n      iszero\n      tag_217\n      jumpi\n      dup1\n      0x1f\n      lt\n      tag_218\n      jumpi\n      0x0100\n      dup1\n      dup4\n      sload\n      div\n      mul\n      dup4\n      mstore\n      swap2\n      0x20\n      add\n      swap2\n      jump(tag_217)\n    tag_218:\n      dup3\n      add\n      swap2\n      swap1\n      0x00\n      mstore\n      keccak256(0x00, 0x20)\n      swap1\n    tag_219:\n      dup2\n      sload\n      dup2\n      mstore\n      swap1\n      0x01\n      add\n      swap1\n      0x20\n      add\n      dup1\n      dup4\n      gt\n      tag_219\n      jumpi\n      dup3\n      swap1\n      sub\n      0x1f\n      and\n      dup3\n      add\n      swap2\n    tag_217:\n      pop\n      pop\n      pop\n      pop\n      pop\n      swap1\n      dup1\n      0x01\n      add\n      dup1\n      sload\n      tag_220\n      swap1\n      tag_134\n      jump\t// in\n    tag_220:\n      dup1\n      0x1f\n      add\n      0x20\n      dup1\n      swap2\n      div\n      mul\n      0x20\n      add\n      mload(0x40)\n      swap1\n      dup2\n      add\n      0x40\n      mstore\n      dup1\n      swap3\n      swap2\n      swap1\n      dup2\n      dup2\n      mstore\n      0x20\n      add\n      dup3\n      dup1\n      sload\n      tag_221\n      swap1\n      tag_134\n      jump\t// in\n    tag_221:\n      dup1\n      iszero\n      tag_222\n      jumpi\n      dup1\n      0x1f\n      lt\n      tag_223\n      jumpi\n      0x0100\n      dup1\n      dup4\n      sload\n      div\n      mul\n      dup4\n      mstore\n      swap2\n      0x20\n      add\n      swap2\n      jump(tag_222)\n    tag_223:\n      dup3\n      add\n      swap2\n      swap1\n      0x00\n      mstore\n      keccak256(0x00, 0x20)\n      swap1\n    tag_224:\n      dup2\n      sload\n      dup2\n      mstore\n      swap1\n      0x01\n      add\n      swap1\n      0x20\n      add\n      dup1\n      dup4\n      gt\n      tag_224\n      jumpi\n      dup3\n      swap1\n      sub\n      0x1f\n      and\n      dup3\n      add\n      swap2\n    tag_222:\n      pop\n      pop\n      pop\n      pop\n      pop\n      swap1\n      dup1\n      0x03\n      add\n      sload\n      swap1\n      pop\n      dup4\n      jump\t// out\n        /* \"MyHomeToken.sol\":562:590  address public ballotAddress */\n    tag_110:\n      0x0e\n      0x00\n      swap1\n      sload\n      swap1\n      0x0100\n      exp\n      swap1\n      div\n      0xffffffffffffffffffffffffffffffffffffffff\n      and\n      dup2\n      jump\t// out\n        /* \"MyHomeToken.sol\":3067:3318  function buy(uint256 _amount) external payable {... */\n    tag_114:\n        /* \"MyHomeToken.sol\":3143:3153  shareLimit */\n      sload(0x08)\n        /* \"MyHomeToken.sol\":3132:3139  _amount */\n      dup2\n        /* \"MyHomeToken.sol\":3132:3153  _amount <= shareLimit */\n      gt\n      iszero\n        /* \"MyHomeToken.sol\":3124:3193  require(_amount <= shareLimit, \"Number of shares exceeded the limit\") */\n      tag_226\n      jumpi\n      mload(0x40)\n      0x08c379a000000000000000000000000000000000000000000000000000000000\n      dup2\n      mstore\n      0x04\n      add\n      tag_227\n      swap1\n      tag_228\n      jump\t// in\n    tag_227:\n      mload(0x40)\n      dup1\n      swap2\n      sub\n      swap1\n      revert\n    tag_226:\n        /* \"MyHomeToken.sol\":3234:3244  tokenPrice */\n      sload(0x07)\n        /* \"MyHomeToken.sol\":3224:3231  _amount */\n      dup2\n        /* \"MyHomeToken.sol\":3224:3244  _amount * tokenPrice */\n      tag_229\n      swap2\n      swap1\n      tag_230\n      jump\t// in\n    tag_229:\n        /* \"MyHomeToken.sol\":3211:3220  msg.value */\n      callvalue\n        /* \"MyHomeToken.sol\":3211:3244  msg.value >= _amount * tokenPrice */\n      lt\n      iszero\n        /* \"MyHomeToken.sol\":3203:3263  require(msg.value >= _amount * tokenPrice, \"Not enough wei\") */\n      tag_231\n      jumpi\n      mload(0x40)\n      0x08c379a000000000000000000000000000000000000000000000000000000000\n      dup2\n      mstore\n      0x04\n      add\n      tag_232\n      swap1\n      tag_233\n      jump\t// in\n    tag_232:\n      mload(0x40)\n      dup1\n      swap2\n      sub\n      swap1\n      revert\n    tag_231:\n        /* \"MyHomeToken.sol\":3273:3302  transfer(msg.sender, _amount) */\n      tag_234\n        /* \"MyHomeToken.sol\":3282:3292  msg.sender */\n      caller\n        /* \"MyHomeToken.sol\":3294:3301  _amount */\n      dup3\n        /* \"MyHomeToken.sol\":3273:3281  transfer */\n      tag_96\n        /* \"MyHomeToken.sol\":3273:3302  transfer(msg.sender, _amount) */\n      jump\t// in\n    tag_234:\n        /* \"MyHomeToken.sol\":3067:3318  function buy(uint256 _amount) external payable {... */\n      pop\n      jump\t// out\n        /* \"MyHomeToken.sol\":2039:2419  function addHouse(string memory _registrationId, string memory location, uint256 price) ... */\n    tag_119:\n        /* \"MyHomeToken.sol\":1499:1504  owner */\n      0x00\n      dup1\n      sload\n      swap1\n      0x0100\n      exp\n      swap1\n      div\n      0xffffffffffffffffffffffffffffffffffffffff\n      and\n        /* \"MyHomeToken.sol\":1485:1504  msg.sender == owner */\n      0xffffffffffffffffffffffffffffffffffffffff\n      and\n        /* \"MyHomeToken.sol\":1485:1495  msg.sender */\n      caller\n        /* \"MyHomeToken.sol\":1485:1504  msg.sender == owner */\n      0xffffffffffffffffffffffffffffffffffffffff\n      and\n      eq\n        /* \"MyHomeToken.sol\":1477:1505  require(msg.sender == owner) */\n      tag_236\n      jumpi\n      0x00\n      dup1\n      revert\n    tag_236:\n        /* \"MyHomeToken.sol\":2182:2195  State.Created */\n      0x00\n        /* \"MyHomeToken.sol\":1572:1578  _state */\n      dup1\n        /* \"MyHomeToken.sol\":1563:1578  state == _state */\n      0x01\n      dup2\n      gt\n      iszero\n      tag_238\n      jumpi\n      tag_239\n      tag_142\n      jump\t// in\n    tag_239:\n    tag_238:\n        /* \"MyHomeToken.sol\":1563:1568  state */\n      0x0a\n      0x00\n      swap1\n      sload\n      swap1\n      0x0100\n      exp\n      swap1\n      div\n      0xff\n      and\n        /* \"MyHomeToken.sol\":1563:1578  state == _state */\n      0x01\n      dup2\n      gt\n      iszero\n      tag_240\n      jumpi\n      tag_241\n      tag_142\n      jump\t// in\n    tag_241:\n    tag_240:\n      eq\n        /* \"MyHomeToken.sol\":1555:1579  require(state == _state) */\n      tag_242\n      jumpi\n      0x00\n      dup1\n      revert\n    tag_242:\n        /* \"MyHomeToken.sol\":2212:2226  House memory h */\n      0x00\n        /* \"MyHomeToken.sol\":2229:2268  House(_registrationId, location, price) */\n      mload(0x40)\n      dup1\n      0x60\n      add\n      0x40\n      mstore\n      dup1\n        /* \"MyHomeToken.sol\":2235:2250  _registrationId */\n      dup7\n        /* \"MyHomeToken.sol\":2229:2268  House(_registrationId, location, price) */\n      dup2\n      mstore\n      0x20\n      add\n        /* \"MyHomeToken.sol\":2252:2260  location */\n      dup6\n        /* \"MyHomeToken.sol\":2229:2268  House(_registrationId, location, price) */\n      dup2\n      mstore\n      0x20\n      add\n        /* \"MyHomeToken.sol\":2262:2267  price */\n      dup5\n        /* \"MyHomeToken.sol\":2229:2268  House(_registrationId, location, price) */\n      dup2\n      mstore\n      pop\n        /* \"MyHomeToken.sol\":2212:2268  House memory h = House(_registrationId, location, price) */\n      swap1\n      pop\n        /* \"MyHomeToken.sol\":2295:2300  price */\n      dup3\n        /* \"MyHomeToken.sol\":2278:2280  hp */\n      0x01\n        /* \"MyHomeToken.sol\":2278:2291  hp.totalValue */\n      0x03\n      add\n      0x00\n        /* \"MyHomeToken.sol\":2278:2300  hp.totalValue += price */\n      dup3\n      dup3\n      sload\n      tag_244\n      swap2\n      swap1\n      tag_202\n      jump\t// in\n    tag_244:\n      swap3\n      pop\n      pop\n      dup2\n      swap1\n      sstore\n      pop\n        /* \"MyHomeToken.sol\":2310:2312  hp */\n      0x01\n        /* \"MyHomeToken.sol\":2310:2323  hp.residences */\n      0x02\n      add\n        /* \"MyHomeToken.sol\":2329:2330  h */\n      dup2\n        /* \"MyHomeToken.sol\":2310:2331  hp.residences.push(h) */\n      swap1\n      dup1\n      0x01\n      dup2\n      sload\n      add\n      dup1\n      dup3\n      sstore\n      dup1\n      swap2\n      pop\n      pop\n      0x01\n      swap1\n      sub\n      swap1\n      0x00\n      mstore\n      keccak256(0x00, 0x20)\n      swap1\n      0x03\n      mul\n      add\n      0x00\n      swap1\n      swap2\n      swap1\n      swap2\n      swap1\n      swap2\n      pop\n      0x00\n      dup3\n      add\n      mload\n      dup2\n      0x00\n      add\n      swap1\n      dup1\n      mload\n      swap1\n      0x20\n      add\n      swap1\n      tag_246\n      swap3\n      swap2\n      swap1\n      tag_160\n      jump\t// in\n    tag_246:\n      pop\n      0x20\n      dup3\n      add\n      mload\n      dup2\n      0x01\n      add\n      swap1\n      dup1\n      mload\n      swap1\n      0x20\n      add\n      swap1\n      tag_247\n      swap3\n      swap2\n      swap1\n      tag_160\n      jump\t// in\n    tag_247:\n      pop\n      0x40\n      dup3\n      add\n      mload\n      dup2\n      0x02\n      add\n      sstore\n      pop\n      pop\n        /* \"MyHomeToken.sol\":2354:2356  hp */\n      0x01\n        /* \"MyHomeToken.sol\":2354:2367  hp.totalValue */\n      0x03\n      add\n      sload\n        /* \"MyHomeToken.sol\":2341:2351  tokenPrice */\n      0x07\n        /* \"MyHomeToken.sol\":2341:2367  tokenPrice = hp.totalValue */\n      dup2\n      swap1\n      sstore\n      pop\n        /* \"MyHomeToken.sol\":2382:2412  NewHouseAdded(_registrationId) */\n      0x4578fe17eaab41ae382abe3462bb0cf04bcfee4168d2aad3ce9d5d225d0e27f6\n        /* \"MyHomeToken.sol\":2396:2411  _registrationId */\n      dup6\n        /* \"MyHomeToken.sol\":2382:2412  NewHouseAdded(_registrationId) */\n      mload(0x40)\n      tag_248\n      swap2\n      swap1\n      tag_37\n      jump\t// in\n    tag_248:\n      mload(0x40)\n      dup1\n      swap2\n      sub\n      swap1\n      log1\n        /* \"MyHomeToken.sol\":2202:2419  {... */\n      pop\n        /* \"MyHomeToken.sol\":1509:1510  _ */\n      pop\n        /* \"MyHomeToken.sol\":2039:2419  function addHouse(string memory _registrationId, string memory location, uint256 price) ... */\n      pop\n      pop\n      pop\n      jump\t// out\n        /* \"MyHomeToken.sol\":3328:3464  function sell(uint256 _amount) external {... */\n    tag_123:\n        /* \"MyHomeToken.sol\":3404:3411  _amount */\n      dup1\n        /* \"MyHomeToken.sol\":3378:3388  _balanceOf */\n      0x0c\n        /* \"MyHomeToken.sol\":3378:3400  _balanceOf[msg.sender] */\n      0x00\n        /* \"MyHomeToken.sol\":3389:3399  msg.sender */\n      caller\n        /* \"MyHomeToken.sol\":3378:3400  _balanceOf[msg.sender] */\n      0xffffffffffffffffffffffffffffffffffffffff\n      and\n      0xffffffffffffffffffffffffffffffffffffffff\n      and\n      dup2\n      mstore\n      0x20\n      add\n      swap1\n      dup2\n      mstore\n      0x20\n      add\n      0x00\n      keccak256\n      0x00\n        /* \"MyHomeToken.sol\":3378:3411  _balanceOf[msg.sender] -= _amount */\n      dup3\n      dup3\n      sload\n      tag_250\n      swap2\n      swap1\n      tag_200\n      jump\t// in\n    tag_250:\n      swap3\n      pop\n      pop\n      dup2\n      swap1\n      sstore\n      pop\n        /* \"MyHomeToken.sol\":3450:3457  _amount */\n      dup1\n        /* \"MyHomeToken.sol\":3421:3431  _balanceOf */\n      0x0c\n        /* \"MyHomeToken.sol\":3421:3446  _balanceOf[address(this)] */\n      0x00\n        /* \"MyHomeToken.sol\":3440:3444  this */\n      address\n        /* \"MyHomeToken.sol\":3421:3446  _balanceOf[address(this)] */\n      0xffffffffffffffffffffffffffffffffffffffff\n      and\n      0xffffffffffffffffffffffffffffffffffffffff\n      and\n      dup2\n      mstore\n      0x20\n      add\n      swap1\n      dup2\n      mstore\n      0x20\n      add\n      0x00\n      keccak256\n      0x00\n        /* \"MyHomeToken.sol\":3421:3457  _balanceOf[address(this)] += _amount */\n      dup3\n      dup3\n      sload\n      tag_251\n      swap2\n      swap1\n      tag_202\n      jump\t// in\n    tag_251:\n      swap3\n      pop\n      pop\n      dup2\n      swap1\n      sstore\n      pop\n        /* \"MyHomeToken.sol\":3328:3464  function sell(uint256 _amount) external {... */\n      pop\n      jump\t// out\n        /* \"MyHomeToken.sol\":694:721  uint public finalResult = 0 */\n    tag_126:\n      sload(0x12)\n      dup2\n      jump\t// out\n        /* \"MyHomeToken.sol\":2425:2818  function addShareHolder(address _shareHolderAddress, string memory _shareHolderName)... */\n    tag_132:\n        /* \"MyHomeToken.sol\":1499:1504  owner */\n      0x00\n      dup1\n      sload\n      swap1\n      0x0100\n      exp\n      swap1\n      div\n      0xffffffffffffffffffffffffffffffffffffffff\n      and\n        /* \"MyHomeToken.sol\":1485:1504  msg.sender == owner */\n      0xffffffffffffffffffffffffffffffffffffffff\n      and\n        /* \"MyHomeToken.sol\":1485:1495  msg.sender */\n      caller\n        /* \"MyHomeToken.sol\":1485:1504  msg.sender == owner */\n      0xffffffffffffffffffffffffffffffffffffffff\n      and\n      eq\n        /* \"MyHomeToken.sol\":1477:1505  require(msg.sender == owner) */\n      tag_253\n      jumpi\n      0x00\n      dup1\n      revert\n    tag_253:\n        /* \"MyHomeToken.sol\":2561:2582  ShareHolder memory sh */\n      tag_255\n      tag_256\n      jump\t// in\n    tag_255:\n        /* \"MyHomeToken.sol\":2602:2618  _shareHolderName */\n      dup2\n        /* \"MyHomeToken.sol\":2592:2594  sh */\n      dup2\n        /* \"MyHomeToken.sol\":2592:2599  sh.name */\n      0x00\n      add\n        /* \"MyHomeToken.sol\":2592:2618  sh.name = _shareHolderName */\n      dup2\n      swap1\n      mstore\n      pop\n        /* \"MyHomeToken.sol\":2639:2644  false */\n      0x00\n        /* \"MyHomeToken.sol\":2628:2630  sh */\n      dup2\n        /* \"MyHomeToken.sol\":2628:2636  sh.voted */\n      0x20\n      add\n        /* \"MyHomeToken.sol\":2628:2644  sh.voted = false */\n      swap1\n      iszero\n      iszero\n      swap1\n      dup2\n      iszero\n      iszero\n      dup2\n      mstore\n      pop\n      pop\n        /* \"MyHomeToken.sol\":2697:2699  sh */\n      dup1\n        /* \"MyHomeToken.sol\":2654:2673  shareHolderRegistry */\n      0x0b\n        /* \"MyHomeToken.sol\":2654:2694  shareHolderRegistry[_shareHolderAddress] */\n      0x00\n        /* \"MyHomeToken.sol\":2674:2693  _shareHolderAddress */\n      dup6\n        /* \"MyHomeToken.sol\":2654:2694  shareHolderRegistry[_shareHolderAddress] */\n      0xffffffffffffffffffffffffffffffffffffffff\n      and\n      0xffffffffffffffffffffffffffffffffffffffff\n      and\n      dup2\n      mstore\n      0x20\n      add\n      swap1\n      dup2\n      mstore\n      0x20\n      add\n      0x00\n      keccak256\n        /* \"MyHomeToken.sol\":2654:2699  shareHolderRegistry[_shareHolderAddress] = sh */\n      0x00\n      dup3\n      add\n      mload\n      dup2\n      0x00\n      add\n      swap1\n      dup1\n      mload\n      swap1\n      0x20\n      add\n      swap1\n      tag_257\n      swap3\n      swap2\n      swap1\n      tag_160\n      jump\t// in\n    tag_257:\n      pop\n      0x20\n      dup3\n      add\n      mload\n      dup2\n      0x01\n      add\n      exp(0x0100, 0x00)\n      dup2\n      sload\n      dup2\n      0xff\n      mul\n      not\n      and\n      swap1\n      dup4\n      iszero\n      iszero\n      mul\n      or\n      swap1\n      sstore\n      pop\n      swap1\n      pop\n      pop\n        /* \"MyHomeToken.sol\":2709:2726  totalShareHolders */\n      0x09\n      0x00\n        /* \"MyHomeToken.sol\":2709:2728  totalShareHolders++ */\n      dup2\n      sload\n      dup1\n      swap3\n      swap2\n      swap1\n      tag_258\n      swap1\n      tag_181\n      jump\t// in\n    tag_258:\n      swap2\n      swap1\n      pop\n      sstore\n      pop\n        /* \"MyHomeToken.sol\":2746:2759  State.Running */\n      0x01\n        /* \"MyHomeToken.sol\":2738:2743  state */\n      0x0a\n      0x00\n        /* \"MyHomeToken.sol\":2738:2759  state = State.Running */\n      0x0100\n      exp\n      dup2\n      sload\n      dup2\n      0xff\n      mul\n      not\n      and\n      swap1\n      dup4\n      0x01\n      dup2\n      gt\n      iszero\n      tag_259\n      jumpi\n      tag_260\n      tag_142\n      jump\t// in\n    tag_260:\n    tag_259:\n      mul\n      or\n      swap1\n      sstore\n      pop\n        /* \"MyHomeToken.sol\":2774:2811  ShareHolderAdded(_shareHolderAddress) */\n      0x30040c92e8da146ac410fb6841ea0f60af3b8f3788e5e7354e48d97d018f39dd\n        /* \"MyHomeToken.sol\":2791:2810  _shareHolderAddress */\n      dup4\n        /* \"MyHomeToken.sol\":2774:2811  ShareHolderAdded(_shareHolderAddress) */\n      mload(0x40)\n      tag_261\n      swap2\n      swap1\n      tag_80\n      jump\t// in\n    tag_261:\n      mload(0x40)\n      dup1\n      swap2\n      sub\n      swap1\n      log1\n        /* \"MyHomeToken.sol\":2551:2818  {... */\n      pop\n        /* \"MyHomeToken.sol\":2425:2818  function addShareHolder(address _shareHolderAddress, string memory _shareHolderName)... */\n      pop\n      pop\n      jump\t// out\n    tag_160:\n      dup3\n      dup1\n      sload\n      tag_262\n      swap1\n      tag_134\n      jump\t// in\n    tag_262:\n      swap1\n      0x00\n      mstore\n      keccak256(0x00, 0x20)\n      swap1\n      0x1f\n      add\n      0x20\n      swap1\n      div\n      dup2\n      add\n      swap3\n      dup3\n      tag_264\n      jumpi\n      0x00\n      dup6\n      sstore\n      jump(tag_263)\n    tag_264:\n      dup3\n      0x1f\n      lt\n      tag_265\n      jumpi\n      dup1\n      mload\n      not(0xff)\n      and\n      dup4\n      dup1\n      add\n      or\n      dup6\n      sstore\n      jump(tag_263)\n    tag_265:\n      dup3\n      dup1\n      add\n      0x01\n      add\n      dup6\n      sstore\n      dup3\n      iszero\n      tag_263\n      jumpi\n      swap2\n      dup3\n      add\n    tag_266:\n      dup3\n      dup2\n      gt\n      iszero\n      tag_267\n      jumpi\n      dup3\n      mload\n      dup3\n      sstore\n      swap2\n      0x20\n      add\n      swap2\n      swap1\n      0x01\n      add\n      swap1\n      jump(tag_266)\n    tag_267:\n    tag_263:\n      pop\n      swap1\n      pop\n      tag_268\n      swap2\n      swap1\n      tag_269\n      jump\t// in\n    tag_268:\n      pop\n      swap1\n      jump\t// out\n    tag_178:\n      mload(0x40)\n      dup1\n      0x40\n      add\n      0x40\n      mstore\n      dup1\n      and(0xffffffffffffffffffffffffffffffffffffffff, 0x00)\n      dup2\n      mstore\n      0x20\n      add\n      iszero(iszero(0x00))\n      dup2\n      mstore\n      pop\n      swap1\n      jump\t// out\n    tag_256:\n      mload(0x40)\n      dup1\n      0x40\n      add\n      0x40\n      mstore\n      dup1\n      0x60\n      dup2\n      mstore\n      0x20\n      add\n      iszero(iszero(0x00))\n      dup2\n      mstore\n      pop\n      swap1\n      jump\t// out\n    tag_269:\n    tag_270:\n      dup1\n      dup3\n      gt\n      iszero\n      tag_271\n      jumpi\n      0x00\n      dup2\n      0x00\n      swap1\n      sstore\n      pop\n      0x01\n      add\n      jump(tag_270)\n    tag_271:\n      pop\n      swap1\n      jump\t// out\n        /* \"#utility.yul\":7:419   */\n    tag_273:\n        /* \"#utility.yul\":85:90   */\n      0x00\n        /* \"#utility.yul\":110:176   */\n      tag_275\n        /* \"#utility.yul\":126:175   */\n      tag_276\n        /* \"#utility.yul\":168:174   */\n      dup5\n        /* \"#utility.yul\":126:175   */\n      tag_277\n      jump\t// in\n    tag_276:\n        /* \"#utility.yul\":110:176   */\n      tag_278\n      jump\t// in\n    tag_275:\n        /* \"#utility.yul\":101:176   */\n      swap1\n      pop\n        /* \"#utility.yul\":199:205   */\n      dup3\n        /* \"#utility.yul\":192:197   */\n      dup2\n        /* \"#utility.yul\":185:206   */\n      mstore\n        /* \"#utility.yul\":237:241   */\n      0x20\n        /* \"#utility.yul\":230:235   */\n      dup2\n        /* \"#utility.yul\":226:242   */\n      add\n        /* \"#utility.yul\":275:278   */\n      dup5\n        /* \"#utility.yul\":266:272   */\n      dup5\n        /* \"#utility.yul\":261:264   */\n      dup5\n        /* \"#utility.yul\":257:273   */\n      add\n        /* \"#utility.yul\":254:279   */\n      gt\n        /* \"#utility.yul\":251:363   */\n      iszero\n      tag_279\n      jumpi\n        /* \"#utility.yul\":282:361   */\n      tag_280\n      tag_281\n      jump\t// in\n    tag_280:\n        /* \"#utility.yul\":251:363   */\n    tag_279:\n        /* \"#utility.yul\":372:413   */\n      tag_282\n        /* \"#utility.yul\":406:412   */\n      dup5\n        /* \"#utility.yul\":401:404   */\n      dup3\n        /* \"#utility.yul\":396:399   */\n      dup6\n        /* \"#utility.yul\":372:413   */\n      tag_283\n      jump\t// in\n    tag_282:\n        /* \"#utility.yul\":91:419   */\n      pop\n        /* \"#utility.yul\":7:419   */\n      swap4\n      swap3\n      pop\n      pop\n      pop\n      jump\t// out\n        /* \"#utility.yul\":425:564   */\n    tag_284:\n        /* \"#utility.yul\":471:476   */\n      0x00\n        /* \"#utility.yul\":509:515   */\n      dup2\n        /* \"#utility.yul\":496:516   */\n      calldataload\n        /* \"#utility.yul\":487:516   */\n      swap1\n      pop\n        /* \"#utility.yul\":525:558   */\n      tag_286\n        /* \"#utility.yul\":552:557   */\n      dup2\n        /* \"#utility.yul\":525:558   */\n      tag_287\n      jump\t// in\n    tag_286:\n        /* \"#utility.yul\":425:564   */\n      swap3\n      swap2\n      pop\n      pop\n      jump\t// out\n        /* \"#utility.yul\":570:703   */\n    tag_288:\n        /* \"#utility.yul\":613:618   */\n      0x00\n        /* \"#utility.yul\":651:657   */\n      dup2\n        /* \"#utility.yul\":638:658   */\n      calldataload\n        /* \"#utility.yul\":629:658   */\n      swap1\n      pop\n        /* \"#utility.yul\":667:697   */\n      tag_290\n        /* \"#utility.yul\":691:696   */\n      dup2\n        /* \"#utility.yul\":667:697   */\n      tag_291\n      jump\t// in\n    tag_290:\n        /* \"#utility.yul\":570:703   */\n      swap3\n      swap2\n      pop\n      pop\n      jump\t// out\n        /* \"#utility.yul\":723:1063   */\n    tag_292:\n        /* \"#utility.yul\":779:784   */\n      0x00\n        /* \"#utility.yul\":828:831   */\n      dup3\n        /* \"#utility.yul\":821:825   */\n      0x1f\n        /* \"#utility.yul\":813:819   */\n      dup4\n        /* \"#utility.yul\":809:826   */\n      add\n        /* \"#utility.yul\":805:832   */\n      slt\n        /* \"#utility.yul\":795:917   */\n      tag_294\n      jumpi\n        /* \"#utility.yul\":836:915   */\n      tag_295\n      tag_296\n      jump\t// in\n    tag_295:\n        /* \"#utility.yul\":795:917   */\n    tag_294:\n        /* \"#utility.yul\":953:959   */\n      dup2\n        /* \"#utility.yul\":940:960   */\n      calldataload\n        /* \"#utility.yul\":978:1057   */\n      tag_297\n        /* \"#utility.yul\":1053:1056   */\n      dup5\n        /* \"#utility.yul\":1045:1051   */\n      dup3\n        /* \"#utility.yul\":1038:1042   */\n      0x20\n        /* \"#utility.yul\":1030:1036   */\n      dup7\n        /* \"#utility.yul\":1026:1043   */\n      add\n        /* \"#utility.yul\":978:1057   */\n      tag_273\n      jump\t// in\n    tag_297:\n        /* \"#utility.yul\":969:1057   */\n      swap2\n      pop\n        /* \"#utility.yul\":785:1063   */\n      pop\n        /* \"#utility.yul\":723:1063   */\n      swap3\n      swap2\n      pop\n      pop\n      jump\t// out\n        /* \"#utility.yul\":1069:1208   */\n    tag_298:\n        /* \"#utility.yul\":1115:1120   */\n      0x00\n        /* \"#utility.yul\":1153:1159   */\n      dup2\n        /* \"#utility.yul\":1140:1160   */\n      calldataload\n        /* \"#utility.yul\":1131:1160   */\n      swap1\n      pop\n        /* \"#utility.yul\":1169:1202   */\n      tag_300\n        /* \"#utility.yul\":1196:1201   */\n      dup2\n        /* \"#utility.yul\":1169:1202   */\n      tag_301\n      jump\t// in\n    tag_300:\n        /* \"#utility.yul\":1069:1208   */\n      swap3\n      swap2\n      pop\n      pop\n      jump\t// out\n        /* \"#utility.yul\":1214:1543   */\n    tag_52:\n        /* \"#utility.yul\":1273:1279   */\n      0x00\n        /* \"#utility.yul\":1322:1324   */\n      0x20\n        /* \"#utility.yul\":1310:1319   */\n      dup3\n        /* \"#utility.yul\":1301:1308   */\n      dup5\n        /* \"#utility.yul\":1297:1320   */\n      sub\n        /* \"#utility.yul\":1293:1325   */\n      slt\n        /* \"#utility.yul\":1290:1409   */\n      iszero\n      tag_303\n      jumpi\n        /* \"#utility.yul\":1328:1407   */\n      tag_304\n      tag_305\n      jump\t// in\n    tag_304:\n        /* \"#utility.yul\":1290:1409   */\n    tag_303:\n        /* \"#utility.yul\":1448:1449   */\n      0x00\n        /* \"#utility.yul\":1473:1526   */\n      tag_306\n        /* \"#utility.yul\":1518:1525   */\n      dup5\n        /* \"#utility.yul\":1509:1515   */\n      dup3\n        /* \"#utility.yul\":1498:1507   */\n      dup6\n        /* \"#utility.yul\":1494:1516   */\n      add\n        /* \"#utility.yul\":1473:1526   */\n      tag_284\n      jump\t// in\n    tag_306:\n        /* \"#utility.yul\":1463:1526   */\n      swap2\n      pop\n        /* \"#utility.yul\":1419:1536   */\n      pop\n        /* \"#utility.yul\":1214:1543   */\n      swap3\n      swap2\n      pop\n      pop\n      jump\t// out\n        /* \"#utility.yul\":1549:2203   */\n    tag_131:\n        /* \"#utility.yul\":1627:1633   */\n      0x00\n        /* \"#utility.yul\":1635:1641   */\n      dup1\n        /* \"#utility.yul\":1684:1686   */\n      0x40\n        /* \"#utility.yul\":1672:1681   */\n      dup4\n        /* \"#utility.yul\":1663:1670   */\n      dup6\n        /* \"#utility.yul\":1659:1682   */\n      sub\n        /* \"#utility.yul\":1655:1687   */\n      slt\n        /* \"#utility.yul\":1652:1771   */\n      iszero\n      tag_308\n      jumpi\n        /* \"#utility.yul\":1690:1769   */\n      tag_309\n      tag_305\n      jump\t// in\n    tag_309:\n        /* \"#utility.yul\":1652:1771   */\n    tag_308:\n        /* \"#utility.yul\":1810:1811   */\n      0x00\n        /* \"#utility.yul\":1835:1888   */\n      tag_310\n        /* \"#utility.yul\":1880:1887   */\n      dup6\n        /* \"#utility.yul\":1871:1877   */\n      dup3\n        /* \"#utility.yul\":1860:1869   */\n      dup7\n        /* \"#utility.yul\":1856:1878   */\n      add\n        /* \"#utility.yul\":1835:1888   */\n      tag_284\n      jump\t// in\n    tag_310:\n        /* \"#utility.yul\":1825:1888   */\n      swap3\n      pop\n        /* \"#utility.yul\":1781:1898   */\n      pop\n        /* \"#utility.yul\":1965:1967   */\n      0x20\n        /* \"#utility.yul\":1954:1963   */\n      dup4\n        /* \"#utility.yul\":1950:1968   */\n      add\n        /* \"#utility.yul\":1937:1969   */\n      calldataload\n        /* \"#utility.yul\":1996:2014   */\n      0xffffffffffffffff\n        /* \"#utility.yul\":1988:1994   */\n      dup2\n        /* \"#utility.yul\":1985:2015   */\n      gt\n        /* \"#utility.yul\":1982:2099   */\n      iszero\n      tag_311\n      jumpi\n        /* \"#utility.yul\":2018:2097   */\n      tag_312\n      tag_313\n      jump\t// in\n    tag_312:\n        /* \"#utility.yul\":1982:2099   */\n    tag_311:\n        /* \"#utility.yul\":2123:2186   */\n      tag_314\n        /* \"#utility.yul\":2178:2185   */\n      dup6\n        /* \"#utility.yul\":2169:2175   */\n      dup3\n        /* \"#utility.yul\":2158:2167   */\n      dup7\n        /* \"#utility.yul\":2154:2176   */\n      add\n        /* \"#utility.yul\":2123:2186   */\n      tag_292\n      jump\t// in\n    tag_314:\n        /* \"#utility.yul\":2113:2186   */\n      swap2\n      pop\n        /* \"#utility.yul\":1908:2196   */\n      pop\n        /* \"#utility.yul\":1549:2203   */\n      swap3\n      pop\n      swap3\n      swap1\n      pop\n      jump\t// out\n        /* \"#utility.yul\":2209:2683   */\n    tag_95:\n        /* \"#utility.yul\":2277:2283   */\n      0x00\n        /* \"#utility.yul\":2285:2291   */\n      dup1\n        /* \"#utility.yul\":2334:2336   */\n      0x40\n        /* \"#utility.yul\":2322:2331   */\n      dup4\n        /* \"#utility.yul\":2313:2320   */\n      dup6\n        /* \"#utility.yul\":2309:2332   */\n      sub\n        /* \"#utility.yul\":2305:2337   */\n      slt\n        /* \"#utility.yul\":2302:2421   */\n      iszero\n      tag_316\n      jumpi\n        /* \"#utility.yul\":2340:2419   */\n      tag_317\n      tag_305\n      jump\t// in\n    tag_317:\n        /* \"#utility.yul\":2302:2421   */\n    tag_316:\n        /* \"#utility.yul\":2460:2461   */\n      0x00\n        /* \"#utility.yul\":2485:2538   */\n      tag_318\n        /* \"#utility.yul\":2530:2537   */\n      dup6\n        /* \"#utility.yul\":2521:2527   */\n      dup3\n        /* \"#utility.yul\":2510:2519   */\n      dup7\n        /* \"#utility.yul\":2506:2528   */\n      add\n        /* \"#utility.yul\":2485:2538   */\n      tag_284\n      jump\t// in\n    tag_318:\n        /* \"#utility.yul\":2475:2538   */\n      swap3\n      pop\n        /* \"#utility.yul\":2431:2548   */\n      pop\n        /* \"#utility.yul\":2587:2589   */\n      0x20\n        /* \"#utility.yul\":2613:2666   */\n      tag_319\n        /* \"#utility.yul\":2658:2665   */\n      dup6\n        /* \"#utility.yul\":2649:2655   */\n      dup3\n        /* \"#utility.yul\":2638:2647   */\n      dup7\n        /* \"#utility.yul\":2634:2656   */\n      add\n        /* \"#utility.yul\":2613:2666   */\n      tag_298\n      jump\t// in\n    tag_319:\n        /* \"#utility.yul\":2603:2666   */\n      swap2\n      pop\n        /* \"#utility.yul\":2558:2676   */\n      pop\n        /* \"#utility.yul\":2209:2683   */\n      swap3\n      pop\n      swap3\n      swap1\n      pop\n      jump\t// out\n        /* \"#utility.yul\":2689:3012   */\n    tag_72:\n        /* \"#utility.yul\":2745:2751   */\n      0x00\n        /* \"#utility.yul\":2794:2796   */\n      0x20\n        /* \"#utility.yul\":2782:2791   */\n      dup3\n        /* \"#utility.yul\":2773:2780   */\n      dup5\n        /* \"#utility.yul\":2769:2792   */\n      sub\n        /* \"#utility.yul\":2765:2797   */\n      slt\n        /* \"#utility.yul\":2762:2881   */\n      iszero\n      tag_321\n      jumpi\n        /* \"#utility.yul\":2800:2879   */\n      tag_322\n      tag_305\n      jump\t// in\n    tag_322:\n        /* \"#utility.yul\":2762:2881   */\n    tag_321:\n        /* \"#utility.yul\":2920:2921   */\n      0x00\n        /* \"#utility.yul\":2945:2995   */\n      tag_323\n        /* \"#utility.yul\":2987:2994   */\n      dup5\n        /* \"#utility.yul\":2978:2984   */\n      dup3\n        /* \"#utility.yul\":2967:2976   */\n      dup6\n        /* \"#utility.yul\":2963:2985   */\n      add\n        /* \"#utility.yul\":2945:2995   */\n      tag_288\n      jump\t// in\n    tag_323:\n        /* \"#utility.yul\":2935:2995   */\n      swap2\n      pop\n        /* \"#utility.yul\":2891:3005   */\n      pop\n        /* \"#utility.yul\":2689:3012   */\n      swap3\n      swap2\n      pop\n      pop\n      jump\t// out\n        /* \"#utility.yul\":3018:3852   */\n    tag_59:\n        /* \"#utility.yul\":3106:3112   */\n      0x00\n        /* \"#utility.yul\":3114:3120   */\n      dup1\n        /* \"#utility.yul\":3163:3165   */\n      0x40\n        /* \"#utility.yul\":3151:3160   */\n      dup4\n        /* \"#utility.yul\":3142:3149   */\n      dup6\n        /* \"#utility.yul\":3138:3161   */\n      sub\n        /* \"#utility.yul\":3134:3166   */\n      slt\n        /* \"#utility.yul\":3131:3250   */\n      iszero\n      tag_325\n      jumpi\n        /* \"#utility.yul\":3169:3248   */\n      tag_326\n      tag_305\n      jump\t// in\n    tag_326:\n        /* \"#utility.yul\":3131:3250   */\n    tag_325:\n        /* \"#utility.yul\":3317:3318   */\n      0x00\n        /* \"#utility.yul\":3306:3315   */\n      dup4\n        /* \"#utility.yul\":3302:3319   */\n      add\n        /* \"#utility.yul\":3289:3320   */\n      calldataload\n        /* \"#utility.yul\":3347:3365   */\n      0xffffffffffffffff\n        /* \"#utility.yul\":3339:3345   */\n      dup2\n        /* \"#utility.yul\":3336:3366   */\n      gt\n        /* \"#utility.yul\":3333:3450   */\n      iszero\n      tag_327\n      jumpi\n        /* \"#utility.yul\":3369:3448   */\n      tag_328\n      tag_313\n      jump\t// in\n    tag_328:\n        /* \"#utility.yul\":3333:3450   */\n    tag_327:\n        /* \"#utility.yul\":3474:3537   */\n      tag_329\n        /* \"#utility.yul\":3529:3536   */\n      dup6\n        /* \"#utility.yul\":3520:3526   */\n      dup3\n        /* \"#utility.yul\":3509:3518   */\n      dup7\n        /* \"#utility.yul\":3505:3527   */\n      add\n        /* \"#utility.yul\":3474:3537   */\n      tag_292\n      jump\t// in\n    tag_329:\n        /* \"#utility.yul\":3464:3537   */\n      swap3\n      pop\n        /* \"#utility.yul\":3260:3547   */\n      pop\n        /* \"#utility.yul\":3614:3616   */\n      0x20\n        /* \"#utility.yul\":3603:3612   */\n      dup4\n        /* \"#utility.yul\":3599:3617   */\n      add\n        /* \"#utility.yul\":3586:3618   */\n      calldataload\n        /* \"#utility.yul\":3645:3663   */\n      0xffffffffffffffff\n        /* \"#utility.yul\":3637:3643   */\n      dup2\n        /* \"#utility.yul\":3634:3664   */\n      gt\n        /* \"#utility.yul\":3631:3748   */\n      iszero\n      tag_330\n      jumpi\n        /* \"#utility.yul\":3667:3746   */\n      tag_331\n      tag_313\n      jump\t// in\n    tag_331:\n        /* \"#utility.yul\":3631:3748   */\n    tag_330:\n        /* \"#utility.yul\":3772:3835   */\n      tag_332\n        /* \"#utility.yul\":3827:3834   */\n      dup6\n        /* \"#utility.yul\":3818:3824   */\n      dup3\n        /* \"#utility.yul\":3807:3816   */\n      dup7\n        /* \"#utility.yul\":3803:3825   */\n      add\n        /* \"#utility.yul\":3772:3835   */\n      tag_292\n      jump\t// in\n    tag_332:\n        /* \"#utility.yul\":3762:3835   */\n      swap2\n      pop\n        /* \"#utility.yul\":3557:3845   */\n      pop\n        /* \"#utility.yul\":3018:3852   */\n      swap3\n      pop\n      swap3\n      swap1\n      pop\n      jump\t// out\n        /* \"#utility.yul\":3858:4837   */\n    tag_118:\n        /* \"#utility.yul\":3955:3961   */\n      0x00\n        /* \"#utility.yul\":3963:3969   */\n      dup1\n        /* \"#utility.yul\":3971:3977   */\n      0x00\n        /* \"#utility.yul\":4020:4022   */\n      0x60\n        /* \"#utility.yul\":4008:4017   */\n      dup5\n        /* \"#utility.yul\":3999:4006   */\n      dup7\n        /* \"#utility.yul\":3995:4018   */\n      sub\n        /* \"#utility.yul\":3991:4023   */\n      slt\n        /* \"#utility.yul\":3988:4107   */\n      iszero\n      tag_334\n      jumpi\n        /* \"#utility.yul\":4026:4105   */\n      tag_335\n      tag_305\n      jump\t// in\n    tag_335:\n        /* \"#utility.yul\":3988:4107   */\n    tag_334:\n        /* \"#utility.yul\":4174:4175   */\n      0x00\n        /* \"#utility.yul\":4163:4172   */\n      dup5\n        /* \"#utility.yul\":4159:4176   */\n      add\n        /* \"#utility.yul\":4146:4177   */\n      calldataload\n        /* \"#utility.yul\":4204:4222   */\n      0xffffffffffffffff\n        /* \"#utility.yul\":4196:4202   */\n      dup2\n        /* \"#utility.yul\":4193:4223   */\n      gt\n        /* \"#utility.yul\":4190:4307   */\n      iszero\n      tag_336\n      jumpi\n        /* \"#utility.yul\":4226:4305   */\n      tag_337\n      tag_313\n      jump\t// in\n    tag_337:\n        /* \"#utility.yul\":4190:4307   */\n    tag_336:\n        /* \"#utility.yul\":4331:4394   */\n      tag_338\n        /* \"#utility.yul\":4386:4393   */\n      dup7\n        /* \"#utility.yul\":4377:4383   */\n      dup3\n        /* \"#utility.yul\":4366:4375   */\n      dup8\n        /* \"#utility.yul\":4362:4384   */\n      add\n        /* \"#utility.yul\":4331:4394   */\n      tag_292\n      jump\t// in\n    tag_338:\n        /* \"#utility.yul\":4321:4394   */\n      swap4\n      pop\n        /* \"#utility.yul\":4117:4404   */\n      pop\n        /* \"#utility.yul\":4471:4473   */\n      0x20\n        /* \"#utility.yul\":4460:4469   */\n      dup5\n        /* \"#utility.yul\":4456:4474   */\n      add\n        /* \"#utility.yul\":4443:4475   */\n      calldataload\n        /* \"#utility.yul\":4502:4520   */\n      0xffffffffffffffff\n        /* \"#utility.yul\":4494:4500   */\n      dup2\n        /* \"#utility.yul\":4491:4521   */\n      gt\n        /* \"#utility.yul\":4488:4605   */\n      iszero\n      tag_339\n      jumpi\n        /* \"#utility.yul\":4524:4603   */\n      tag_340\n      tag_313\n      jump\t// in\n    tag_340:\n        /* \"#utility.yul\":4488:4605   */\n    tag_339:\n        /* \"#utility.yul\":4629:4692   */\n      tag_341\n        /* \"#utility.yul\":4684:4691   */\n      dup7\n        /* \"#utility.yul\":4675:4681   */\n      dup3\n        /* \"#utility.yul\":4664:4673   */\n      dup8\n        /* \"#utility.yul\":4660:4682   */\n      add\n        /* \"#utility.yul\":4629:4692   */\n      tag_292\n      jump\t// in\n    tag_341:\n        /* \"#utility.yul\":4619:4692   */\n      swap3\n      pop\n        /* \"#utility.yul\":4414:4702   */\n      pop\n        /* \"#utility.yul\":4741:4743   */\n      0x40\n        /* \"#utility.yul\":4767:4820   */\n      tag_342\n        /* \"#utility.yul\":4812:4819   */\n      dup7\n        /* \"#utility.yul\":4803:4809   */\n      dup3\n        /* \"#utility.yul\":4792:4801   */\n      dup8\n        /* \"#utility.yul\":4788:4810   */\n      add\n        /* \"#utility.yul\":4767:4820   */\n      tag_298\n      jump\t// in\n    tag_342:\n        /* \"#utility.yul\":4757:4820   */\n      swap2\n      pop\n        /* \"#utility.yul\":4712:4830   */\n      pop\n        /* \"#utility.yul\":3858:4837   */\n      swap3\n      pop\n      swap3\n      pop\n      swap3\n      jump\t// out\n        /* \"#utility.yul\":4843:5172   */\n    tag_88:\n        /* \"#utility.yul\":4902:4908   */\n      0x00\n        /* \"#utility.yul\":4951:4953   */\n      0x20\n        /* \"#utility.yul\":4939:4948   */\n      dup3\n        /* \"#utility.yul\":4930:4937   */\n      dup5\n        /* \"#utility.yul\":4926:4949   */\n      sub\n        /* \"#utility.yul\":4922:4954   */\n      slt\n        /* \"#utility.yul\":4919:5038   */\n      iszero\n      tag_344\n      jumpi\n        /* \"#utility.yul\":4957:5036   */\n      tag_345\n      tag_305\n      jump\t// in\n    tag_345:\n        /* \"#utility.yul\":4919:5038   */\n    tag_344:\n        /* \"#utility.yul\":5077:5078   */\n      0x00\n        /* \"#utility.yul\":5102:5155   */\n      tag_346\n        /* \"#utility.yul\":5147:5154   */\n      dup5\n        /* \"#utility.yul\":5138:5144   */\n      dup3\n        /* \"#utility.yul\":5127:5136   */\n      dup6\n        /* \"#utility.yul\":5123:5145   */\n      add\n        /* \"#utility.yul\":5102:5155   */\n      tag_298\n      jump\t// in\n    tag_346:\n        /* \"#utility.yul\":5092:5155   */\n      swap2\n      pop\n        /* \"#utility.yul\":5048:5165   */\n      pop\n        /* \"#utility.yul\":4843:5172   */\n      swap3\n      swap2\n      pop\n      pop\n      jump\t// out\n        /* \"#utility.yul\":5178:5296   */\n    tag_347:\n        /* \"#utility.yul\":5265:5289   */\n      tag_349\n        /* \"#utility.yul\":5283:5288   */\n      dup2\n        /* \"#utility.yul\":5265:5289   */\n      tag_350\n      jump\t// in\n    tag_349:\n        /* \"#utility.yul\":5260:5263   */\n      dup3\n        /* \"#utility.yul\":5253:5290   */\n      mstore\n        /* \"#utility.yul\":5178:5296   */\n      pop\n      pop\n      jump\t// out\n        /* \"#utility.yul\":5302:5411   */\n    tag_351:\n        /* \"#utility.yul\":5383:5404   */\n      tag_353\n        /* \"#utility.yul\":5398:5403   */\n      dup2\n        /* \"#utility.yul\":5383:5404   */\n      tag_354\n      jump\t// in\n    tag_353:\n        /* \"#utility.yul\":5378:5381   */\n      dup3\n        /* \"#utility.yul\":5371:5405   */\n      mstore\n        /* \"#utility.yul\":5302:5411   */\n      pop\n      pop\n      jump\t// out\n        /* \"#utility.yul\":5417:5781   */\n    tag_355:\n        /* \"#utility.yul\":5505:5508   */\n      0x00\n        /* \"#utility.yul\":5533:5572   */\n      tag_357\n        /* \"#utility.yul\":5566:5571   */\n      dup3\n        /* \"#utility.yul\":5533:5572   */\n      tag_358\n      jump\t// in\n    tag_357:\n        /* \"#utility.yul\":5588:5659   */\n      tag_359\n        /* \"#utility.yul\":5652:5658   */\n      dup2\n        /* \"#utility.yul\":5647:5650   */\n      dup6\n        /* \"#utility.yul\":5588:5659   */\n      tag_360\n      jump\t// in\n    tag_359:\n        /* \"#utility.yul\":5581:5659   */\n      swap4\n      pop\n        /* \"#utility.yul\":5668:5720   */\n      tag_361\n        /* \"#utility.yul\":5713:5719   */\n      dup2\n        /* \"#utility.yul\":5708:5711   */\n      dup6\n        /* \"#utility.yul\":5701:5705   */\n      0x20\n        /* \"#utility.yul\":5694:5699   */\n      dup7\n        /* \"#utility.yul\":5690:5706   */\n      add\n        /* \"#utility.yul\":5668:5720   */\n      tag_362\n      jump\t// in\n    tag_361:\n        /* \"#utility.yul\":5745:5774   */\n      tag_363\n        /* \"#utility.yul\":5767:5773   */\n      dup2\n        /* \"#utility.yul\":5745:5774   */\n      tag_364\n      jump\t// in\n    tag_363:\n        /* \"#utility.yul\":5740:5743   */\n      dup5\n        /* \"#utility.yul\":5736:5775   */\n      add\n        /* \"#utility.yul\":5729:5775   */\n      swap2\n      pop\n        /* \"#utility.yul\":5509:5781   */\n      pop\n        /* \"#utility.yul\":5417:5781   */\n      swap3\n      swap2\n      pop\n      pop\n      jump\t// out\n        /* \"#utility.yul\":5787:6153   */\n    tag_365:\n        /* \"#utility.yul\":5929:5932   */\n      0x00\n        /* \"#utility.yul\":5950:6017   */\n      tag_367\n        /* \"#utility.yul\":6014:6016   */\n      0x23\n        /* \"#utility.yul\":6009:6012   */\n      dup4\n        /* \"#utility.yul\":5950:6017   */\n      tag_360\n      jump\t// in\n    tag_367:\n        /* \"#utility.yul\":5943:6017   */\n      swap2\n      pop\n        /* \"#utility.yul\":6026:6119   */\n      tag_368\n        /* \"#utility.yul\":6115:6118   */\n      dup3\n        /* \"#utility.yul\":6026:6119   */\n      tag_369\n      jump\t// in\n    tag_368:\n        /* \"#utility.yul\":6144:6146   */\n      0x40\n        /* \"#utility.yul\":6139:6142   */\n      dup3\n        /* \"#utility.yul\":6135:6147   */\n      add\n        /* \"#utility.yul\":6128:6147   */\n      swap1\n      pop\n        /* \"#utility.yul\":5787:6153   */\n      swap2\n      swap1\n      pop\n      jump\t// out\n        /* \"#utility.yul\":6159:6525   */\n    tag_370:\n        /* \"#utility.yul\":6301:6304   */\n      0x00\n        /* \"#utility.yul\":6322:6389   */\n      tag_372\n        /* \"#utility.yul\":6386:6388   */\n      0x0e\n        /* \"#utility.yul\":6381:6384   */\n      dup4\n        /* \"#utility.yul\":6322:6389   */\n      tag_360\n      jump\t// in\n    tag_372:\n        /* \"#utility.yul\":6315:6389   */\n      swap2\n      pop\n        /* \"#utility.yul\":6398:6491   */\n      tag_373\n        /* \"#utility.yul\":6487:6490   */\n      dup3\n        /* \"#utility.yul\":6398:6491   */\n      tag_374\n      jump\t// in\n    tag_373:\n        /* \"#utility.yul\":6516:6518   */\n      0x20\n        /* \"#utility.yul\":6511:6514   */\n      dup3\n        /* \"#utility.yul\":6507:6519   */\n      add\n        /* \"#utility.yul\":6500:6519   */\n      swap1\n      pop\n        /* \"#utility.yul\":6159:6525   */\n      swap2\n      swap1\n      pop\n      jump\t// out\n        /* \"#utility.yul\":6531:6649   */\n    tag_375:\n        /* \"#utility.yul\":6618:6642   */\n      tag_377\n        /* \"#utility.yul\":6636:6641   */\n      dup2\n        /* \"#utility.yul\":6618:6642   */\n      tag_378\n      jump\t// in\n    tag_377:\n        /* \"#utility.yul\":6613:6616   */\n      dup3\n        /* \"#utility.yul\":6606:6643   */\n      mstore\n        /* \"#utility.yul\":6531:6649   */\n      pop\n      pop\n      jump\t// out\n        /* \"#utility.yul\":6655:6877   */\n    tag_80:\n        /* \"#utility.yul\":6748:6752   */\n      0x00\n        /* \"#utility.yul\":6786:6788   */\n      0x20\n        /* \"#utility.yul\":6775:6784   */\n      dup3\n        /* \"#utility.yul\":6771:6789   */\n      add\n        /* \"#utility.yul\":6763:6789   */\n      swap1\n      pop\n        /* \"#utility.yul\":6799:6870   */\n      tag_380\n        /* \"#utility.yul\":6867:6868   */\n      0x00\n        /* \"#utility.yul\":6856:6865   */\n      dup4\n        /* \"#utility.yul\":6852:6869   */\n      add\n        /* \"#utility.yul\":6843:6849   */\n      dup5\n        /* \"#utility.yul\":6799:6870   */\n      tag_347\n      jump\t// in\n    tag_380:\n        /* \"#utility.yul\":6655:6877   */\n      swap3\n      swap2\n      pop\n      pop\n      jump\t// out\n        /* \"#utility.yul\":6883:7093   */\n    tag_75:\n        /* \"#utility.yul\":6970:6974   */\n      0x00\n        /* \"#utility.yul\":7008:7010   */\n      0x20\n        /* \"#utility.yul\":6997:7006   */\n      dup3\n        /* \"#utility.yul\":6993:7011   */\n      add\n        /* \"#utility.yul\":6985:7011   */\n      swap1\n      pop\n        /* \"#utility.yul\":7021:7086   */\n      tag_382\n        /* \"#utility.yul\":7083:7084   */\n      0x00\n        /* \"#utility.yul\":7072:7081   */\n      dup4\n        /* \"#utility.yul\":7068:7085   */\n      add\n        /* \"#utility.yul\":7059:7065   */\n      dup5\n        /* \"#utility.yul\":7021:7086   */\n      tag_351\n      jump\t// in\n    tag_382:\n        /* \"#utility.yul\":6883:7093   */\n      swap3\n      swap2\n      pop\n      pop\n      jump\t// out\n        /* \"#utility.yul\":7099:7412   */\n    tag_37:\n        /* \"#utility.yul\":7212:7216   */\n      0x00\n        /* \"#utility.yul\":7250:7252   */\n      0x20\n        /* \"#utility.yul\":7239:7248   */\n      dup3\n        /* \"#utility.yul\":7235:7253   */\n      add\n        /* \"#utility.yul\":7227:7253   */\n      swap1\n      pop\n        /* \"#utility.yul\":7299:7308   */\n      dup2\n        /* \"#utility.yul\":7293:7297   */\n      dup2\n        /* \"#utility.yul\":7289:7309   */\n      sub\n        /* \"#utility.yul\":7285:7286   */\n      0x00\n        /* \"#utility.yul\":7274:7283   */\n      dup4\n        /* \"#utility.yul\":7270:7287   */\n      add\n        /* \"#utility.yul\":7263:7310   */\n      mstore\n        /* \"#utility.yul\":7327:7405   */\n      tag_384\n        /* \"#utility.yul\":7400:7404   */\n      dup2\n        /* \"#utility.yul\":7391:7397   */\n      dup5\n        /* \"#utility.yul\":7327:7405   */\n      tag_355\n      jump\t// in\n    tag_384:\n        /* \"#utility.yul\":7319:7405   */\n      swap1\n      pop\n        /* \"#utility.yul\":7099:7412   */\n      swap3\n      swap2\n      pop\n      pop\n      jump\t// out\n        /* \"#utility.yul\":7418:7829   */\n    tag_55:\n        /* \"#utility.yul\":7553:7557   */\n      0x00\n        /* \"#utility.yul\":7591:7593   */\n      0x40\n        /* \"#utility.yul\":7580:7589   */\n      dup3\n        /* \"#utility.yul\":7576:7594   */\n      add\n        /* \"#utility.yul\":7568:7594   */\n      swap1\n      pop\n        /* \"#utility.yul\":7640:7649   */\n      dup2\n        /* \"#utility.yul\":7634:7638   */\n      dup2\n        /* \"#utility.yul\":7630:7650   */\n      sub\n        /* \"#utility.yul\":7626:7627   */\n      0x00\n        /* \"#utility.yul\":7615:7624   */\n      dup4\n        /* \"#utility.yul\":7611:7628   */\n      add\n        /* \"#utility.yul\":7604:7651   */\n      mstore\n        /* \"#utility.yul\":7668:7746   */\n      tag_386\n        /* \"#utility.yul\":7741:7745   */\n      dup2\n        /* \"#utility.yul\":7732:7738   */\n      dup6\n        /* \"#utility.yul\":7668:7746   */\n      tag_355\n      jump\t// in\n    tag_386:\n        /* \"#utility.yul\":7660:7746   */\n      swap1\n      pop\n        /* \"#utility.yul\":7756:7822   */\n      tag_387\n        /* \"#utility.yul\":7818:7820   */\n      0x20\n        /* \"#utility.yul\":7807:7816   */\n      dup4\n        /* \"#utility.yul\":7803:7821   */\n      add\n        /* \"#utility.yul\":7794:7800   */\n      dup5\n        /* \"#utility.yul\":7756:7822   */\n      tag_351\n      jump\t// in\n    tag_387:\n        /* \"#utility.yul\":7418:7829   */\n      swap4\n      swap3\n      pop\n      pop\n      pop\n      jump\t// out\n        /* \"#utility.yul\":7835:8459   */\n    tag_91:\n        /* \"#utility.yul\":8024:8028   */\n      0x00\n        /* \"#utility.yul\":8062:8064   */\n      0x60\n        /* \"#utility.yul\":8051:8060   */\n      dup3\n        /* \"#utility.yul\":8047:8065   */\n      add\n        /* \"#utility.yul\":8039:8065   */\n      swap1\n      pop\n        /* \"#utility.yul\":8111:8120   */\n      dup2\n        /* \"#utility.yul\":8105:8109   */\n      dup2\n        /* \"#utility.yul\":8101:8121   */\n      sub\n        /* \"#utility.yul\":8097:8098   */\n      0x00\n        /* \"#utility.yul\":8086:8095   */\n      dup4\n        /* \"#utility.yul\":8082:8099   */\n      add\n        /* \"#utility.yul\":8075:8122   */\n      mstore\n        /* \"#utility.yul\":8139:8217   */\n      tag_389\n        /* \"#utility.yul\":8212:8216   */\n      dup2\n        /* \"#utility.yul\":8203:8209   */\n      dup7\n        /* \"#utility.yul\":8139:8217   */\n      tag_355\n      jump\t// in\n    tag_389:\n        /* \"#utility.yul\":8131:8217   */\n      swap1\n      pop\n        /* \"#utility.yul\":8264:8273   */\n      dup2\n        /* \"#utility.yul\":8258:8262   */\n      dup2\n        /* \"#utility.yul\":8254:8274   */\n      sub\n        /* \"#utility.yul\":8249:8251   */\n      0x20\n        /* \"#utility.yul\":8238:8247   */\n      dup4\n        /* \"#utility.yul\":8234:8252   */\n      add\n        /* \"#utility.yul\":8227:8275   */\n      mstore\n        /* \"#utility.yul\":8292:8370   */\n      tag_390\n        /* \"#utility.yul\":8365:8369   */\n      dup2\n        /* \"#utility.yul\":8356:8362   */\n      dup6\n        /* \"#utility.yul\":8292:8370   */\n      tag_355\n      jump\t// in\n    tag_390:\n        /* \"#utility.yul\":8284:8370   */\n      swap1\n      pop\n        /* \"#utility.yul\":8380:8452   */\n      tag_391\n        /* \"#utility.yul\":8448:8450   */\n      0x40\n        /* \"#utility.yul\":8437:8446   */\n      dup4\n        /* \"#utility.yul\":8433:8451   */\n      add\n        /* \"#utility.yul\":8424:8430   */\n      dup5\n        /* \"#utility.yul\":8380:8452   */\n      tag_375\n      jump\t// in\n    tag_391:\n        /* \"#utility.yul\":7835:8459   */\n      swap5\n      swap4\n      pop\n      pop\n      pop\n      pop\n      jump\t// out\n        /* \"#utility.yul\":8465:8884   */\n    tag_228:\n        /* \"#utility.yul\":8631:8635   */\n      0x00\n        /* \"#utility.yul\":8669:8671   */\n      0x20\n        /* \"#utility.yul\":8658:8667   */\n      dup3\n        /* \"#utility.yul\":8654:8672   */\n      add\n        /* \"#utility.yul\":8646:8672   */\n      swap1\n      pop\n        /* \"#utility.yul\":8718:8727   */\n      dup2\n        /* \"#utility.yul\":8712:8716   */\n      dup2\n        /* \"#utility.yul\":8708:8728   */\n      sub\n        /* \"#utility.yul\":8704:8705   */\n      0x00\n        /* \"#utility.yul\":8693:8702   */\n      dup4\n        /* \"#utility.yul\":8689:8706   */\n      add\n        /* \"#utility.yul\":8682:8729   */\n      mstore\n        /* \"#utility.yul\":8746:8877   */\n      tag_393\n        /* \"#utility.yul\":8872:8876   */\n      dup2\n        /* \"#utility.yul\":8746:8877   */\n      tag_365\n      jump\t// in\n    tag_393:\n        /* \"#utility.yul\":8738:8877   */\n      swap1\n      pop\n        /* \"#utility.yul\":8465:8884   */\n      swap2\n      swap1\n      pop\n      jump\t// out\n        /* \"#utility.yul\":8890:9309   */\n    tag_233:\n        /* \"#utility.yul\":9056:9060   */\n      0x00\n        /* \"#utility.yul\":9094:9096   */\n      0x20\n        /* \"#utility.yul\":9083:9092   */\n      dup3\n        /* \"#utility.yul\":9079:9097   */\n      add\n        /* \"#utility.yul\":9071:9097   */\n      swap1\n      pop\n        /* \"#utility.yul\":9143:9152   */\n      dup2\n        /* \"#utility.yul\":9137:9141   */\n      dup2\n        /* \"#utility.yul\":9133:9153   */\n      sub\n        /* \"#utility.yul\":9129:9130   */\n      0x00\n        /* \"#utility.yul\":9118:9127   */\n      dup4\n        /* \"#utility.yul\":9114:9131   */\n      add\n        /* \"#utility.yul\":9107:9154   */\n      mstore\n        /* \"#utility.yul\":9171:9302   */\n      tag_395\n        /* \"#utility.yul\":9297:9301   */\n      dup2\n        /* \"#utility.yul\":9171:9302   */\n      tag_370\n      jump\t// in\n    tag_395:\n        /* \"#utility.yul\":9163:9302   */\n      swap1\n      pop\n        /* \"#utility.yul\":8890:9309   */\n      swap2\n      swap1\n      pop\n      jump\t// out\n        /* \"#utility.yul\":9315:9537   */\n    tag_32:\n        /* \"#utility.yul\":9408:9412   */\n      0x00\n        /* \"#utility.yul\":9446:9448   */\n      0x20\n        /* \"#utility.yul\":9435:9444   */\n      dup3\n        /* \"#utility.yul\":9431:9449   */\n      add\n        /* \"#utility.yul\":9423:9449   */\n      swap1\n      pop\n        /* \"#utility.yul\":9459:9530   */\n      tag_397\n        /* \"#utility.yul\":9527:9528   */\n      0x00\n        /* \"#utility.yul\":9516:9525   */\n      dup4\n        /* \"#utility.yul\":9512:9529   */\n      add\n        /* \"#utility.yul\":9503:9509   */\n      dup5\n        /* \"#utility.yul\":9459:9530   */\n      tag_375\n      jump\t// in\n    tag_397:\n        /* \"#utility.yul\":9315:9537   */\n      swap3\n      swap2\n      pop\n      pop\n      jump\t// out\n        /* \"#utility.yul\":9543:9672   */\n    tag_278:\n        /* \"#utility.yul\":9577:9583   */\n      0x00\n        /* \"#utility.yul\":9604:9624   */\n      tag_399\n      tag_400\n      jump\t// in\n    tag_399:\n        /* \"#utility.yul\":9594:9624   */\n      swap1\n      pop\n        /* \"#utility.yul\":9633:9666   */\n      tag_401\n        /* \"#utility.yul\":9661:9665   */\n      dup3\n        /* \"#utility.yul\":9653:9659   */\n      dup3\n        /* \"#utility.yul\":9633:9666   */\n      tag_402\n      jump\t// in\n    tag_401:\n        /* \"#utility.yul\":9543:9672   */\n      swap2\n      swap1\n      pop\n      jump\t// out\n        /* \"#utility.yul\":9678:9753   */\n    tag_400:\n        /* \"#utility.yul\":9711:9717   */\n      0x00\n        /* \"#utility.yul\":9744:9746   */\n      0x40\n        /* \"#utility.yul\":9738:9747   */\n      mload\n        /* \"#utility.yul\":9728:9747   */\n      swap1\n      pop\n        /* \"#utility.yul\":9678:9753   */\n      swap1\n      jump\t// out\n        /* \"#utility.yul\":9759:10067   */\n    tag_277:\n        /* \"#utility.yul\":9821:9825   */\n      0x00\n        /* \"#utility.yul\":9911:9929   */\n      0xffffffffffffffff\n        /* \"#utility.yul\":9903:9909   */\n      dup3\n        /* \"#utility.yul\":9900:9930   */\n      gt\n        /* \"#utility.yul\":9897:9953   */\n      iszero\n      tag_405\n      jumpi\n        /* \"#utility.yul\":9933:9951   */\n      tag_406\n      tag_407\n      jump\t// in\n    tag_406:\n        /* \"#utility.yul\":9897:9953   */\n    tag_405:\n        /* \"#utility.yul\":9971:10000   */\n      tag_408\n        /* \"#utility.yul\":9993:9999   */\n      dup3\n        /* \"#utility.yul\":9971:10000   */\n      tag_364\n      jump\t// in\n    tag_408:\n        /* \"#utility.yul\":9963:10000   */\n      swap1\n      pop\n        /* \"#utility.yul\":10055:10059   */\n      0x20\n        /* \"#utility.yul\":10049:10053   */\n      dup2\n        /* \"#utility.yul\":10045:10060   */\n      add\n        /* \"#utility.yul\":10037:10060   */\n      swap1\n      pop\n        /* \"#utility.yul\":9759:10067   */\n      swap2\n      swap1\n      pop\n      jump\t// out\n        /* \"#utility.yul\":10073:10172   */\n    tag_358:\n        /* \"#utility.yul\":10125:10131   */\n      0x00\n        /* \"#utility.yul\":10159:10164   */\n      dup2\n        /* \"#utility.yul\":10153:10165   */\n      mload\n        /* \"#utility.yul\":10143:10165   */\n      swap1\n      pop\n        /* \"#utility.yul\":10073:10172   */\n      swap2\n      swap1\n      pop\n      jump\t// out\n        /* \"#utility.yul\":10178:10347   */\n    tag_360:\n        /* \"#utility.yul\":10262:10273   */\n      0x00\n        /* \"#utility.yul\":10296:10302   */\n      dup3\n        /* \"#utility.yul\":10291:10294   */\n      dup3\n        /* \"#utility.yul\":10284:10303   */\n      mstore\n        /* \"#utility.yul\":10336:10340   */\n      0x20\n        /* \"#utility.yul\":10331:10334   */\n      dup3\n        /* \"#utility.yul\":10327:10341   */\n      add\n        /* \"#utility.yul\":10312:10341   */\n      swap1\n      pop\n        /* \"#utility.yul\":10178:10347   */\n      swap3\n      swap2\n      pop\n      pop\n      jump\t// out\n        /* \"#utility.yul\":10353:10658   */\n    tag_202:\n        /* \"#utility.yul\":10393:10396   */\n      0x00\n        /* \"#utility.yul\":10412:10432   */\n      tag_412\n        /* \"#utility.yul\":10430:10431   */\n      dup3\n        /* \"#utility.yul\":10412:10432   */\n      tag_378\n      jump\t// in\n    tag_412:\n        /* \"#utility.yul\":10407:10432   */\n      swap2\n      pop\n        /* \"#utility.yul\":10446:10466   */\n      tag_413\n        /* \"#utility.yul\":10464:10465   */\n      dup4\n        /* \"#utility.yul\":10446:10466   */\n      tag_378\n      jump\t// in\n    tag_413:\n        /* \"#utility.yul\":10441:10466   */\n      swap3\n      pop\n        /* \"#utility.yul\":10600:10601   */\n      dup3\n        /* \"#utility.yul\":10532:10598   */\n      0xffffffffffffffffffffffffffffffffffffffffffffffffffffffffffffffff\n        /* \"#utility.yul\":10528:10602   */\n      sub\n        /* \"#utility.yul\":10525:10526   */\n      dup3\n        /* \"#utility.yul\":10522:10603   */\n      gt\n        /* \"#utility.yul\":10519:10626   */\n      iszero\n      tag_414\n      jumpi\n        /* \"#utility.yul\":10606:10624   */\n      tag_415\n      tag_416\n      jump\t// in\n    tag_415:\n        /* \"#utility.yul\":10519:10626   */\n    tag_414:\n        /* \"#utility.yul\":10650:10651   */\n      dup3\n        /* \"#utility.yul\":10647:10648   */\n      dup3\n        /* \"#utility.yul\":10643:10652   */\n      add\n        /* \"#utility.yul\":10636:10652   */\n      swap1\n      pop\n        /* \"#utility.yul\":10353:10658   */\n      swap3\n      swap2\n      pop\n      pop\n      jump\t// out\n        /* \"#utility.yul\":10664:11012   */\n    tag_230:\n        /* \"#utility.yul\":10704:10711   */\n      0x00\n        /* \"#utility.yul\":10727:10747   */\n      tag_418\n        /* \"#utility.yul\":10745:10746   */\n      dup3\n        /* \"#utility.yul\":10727:10747   */\n      tag_378\n      jump\t// in\n    tag_418:\n        /* \"#utility.yul\":10722:10747   */\n      swap2\n      pop\n        /* \"#utility.yul\":10761:10781   */\n      tag_419\n        /* \"#utility.yul\":10779:10780   */\n      dup4\n        /* \"#utility.yul\":10761:10781   */\n      tag_378\n      jump\t// in\n    tag_419:\n        /* \"#utility.yul\":10756:10781   */\n      swap3\n      pop\n        /* \"#utility.yul\":10949:10950   */\n      dup2\n        /* \"#utility.yul\":10881:10947   */\n      0xffffffffffffffffffffffffffffffffffffffffffffffffffffffffffffffff\n        /* \"#utility.yul\":10877:10951   */\n      div\n        /* \"#utility.yul\":10874:10875   */\n      dup4\n        /* \"#utility.yul\":10871:10952   */\n      gt\n        /* \"#utility.yul\":10866:10867   */\n      dup3\n        /* \"#utility.yul\":10859:10868   */\n      iszero\n        /* \"#utility.yul\":10852:10869   */\n      iszero\n        /* \"#utility.yul\":10848:10953   */\n      and\n        /* \"#utility.yul\":10845:10976   */\n      iszero\n      tag_420\n      jumpi\n        /* \"#utility.yul\":10956:10974   */\n      tag_421\n      tag_416\n      jump\t// in\n    tag_421:\n        /* \"#utility.yul\":10845:10976   */\n    tag_420:\n        /* \"#utility.yul\":11004:11005   */\n      dup3\n        /* \"#utility.yul\":11001:11002   */\n      dup3\n        /* \"#utility.yul\":10997:11006   */\n      mul\n        /* \"#utility.yul\":10986:11006   */\n      swap1\n      pop\n        /* \"#utility.yul\":10664:11012   */\n      swap3\n      swap2\n      pop\n      pop\n      jump\t// out\n        /* \"#utility.yul\":11018:11209   */\n    tag_200:\n        /* \"#utility.yul\":11058:11062   */\n      0x00\n        /* \"#utility.yul\":11078:11098   */\n      tag_423\n        /* \"#utility.yul\":11096:11097   */\n      dup3\n        /* \"#utility.yul\":11078:11098   */\n      tag_378\n      jump\t// in\n    tag_423:\n        /* \"#utility.yul\":11073:11098   */\n      swap2\n      pop\n        /* \"#utility.yul\":11112:11132   */\n      tag_424\n        /* \"#utility.yul\":11130:11131   */\n      dup4\n        /* \"#utility.yul\":11112:11132   */\n      tag_378\n      jump\t// in\n    tag_424:\n        /* \"#utility.yul\":11107:11132   */\n      swap3\n      pop\n        /* \"#utility.yul\":11151:11152   */\n      dup3\n        /* \"#utility.yul\":11148:11149   */\n      dup3\n        /* \"#utility.yul\":11145:11153   */\n      lt\n        /* \"#utility.yul\":11142:11176   */\n      iszero\n      tag_425\n      jumpi\n        /* \"#utility.yul\":11156:11174   */\n      tag_426\n      tag_416\n      jump\t// in\n    tag_426:\n        /* \"#utility.yul\":11142:11176   */\n    tag_425:\n        /* \"#utility.yul\":11201:11202   */\n      dup3\n        /* \"#utility.yul\":11198:11199   */\n      dup3\n        /* \"#utility.yul\":11194:11203   */\n      sub\n        /* \"#utility.yul\":11186:11203   */\n      swap1\n      pop\n        /* \"#utility.yul\":11018:11209   */\n      swap3\n      swap2\n      pop\n      pop\n      jump\t// out\n        /* \"#utility.yul\":11215:11311   */\n    tag_350:\n        /* \"#utility.yul\":11252:11259   */\n      0x00\n        /* \"#utility.yul\":11281:11305   */\n      tag_428\n        /* \"#utility.yul\":11299:11304   */\n      dup3\n        /* \"#utility.yul\":11281:11305   */\n      tag_429\n      jump\t// in\n    tag_428:\n        /* \"#utility.yul\":11270:11305   */\n      swap1\n      pop\n        /* \"#utility.yul\":11215:11311   */\n      swap2\n      swap1\n      pop\n      jump\t// out\n        /* \"#utility.yul\":11317:11407   */\n    tag_354:\n        /* \"#utility.yul\":11351:11358   */\n      0x00\n        /* \"#utility.yul\":11394:11399   */\n      dup2\n        /* \"#utility.yul\":11387:11400   */\n      iszero\n        /* \"#utility.yul\":11380:11401   */\n      iszero\n        /* \"#utility.yul\":11369:11401   */\n      swap1\n      pop\n        /* \"#utility.yul\":11317:11407   */\n      swap2\n      swap1\n      pop\n      jump\t// out\n        /* \"#utility.yul\":11413:11539   */\n    tag_429:\n        /* \"#utility.yul\":11450:11457   */\n      0x00\n        /* \"#utility.yul\":11490:11532   */\n      0xffffffffffffffffffffffffffffffffffffffff\n        /* \"#utility.yul\":11483:11488   */\n      dup3\n        /* \"#utility.yul\":11479:11533   */\n      and\n        /* \"#utility.yul\":11468:11533   */\n      swap1\n      pop\n        /* \"#utility.yul\":11413:11539   */\n      swap2\n      swap1\n      pop\n      jump\t// out\n        /* \"#utility.yul\":11545:11622   */\n    tag_378:\n        /* \"#utility.yul\":11582:11589   */\n      0x00\n        /* \"#utility.yul\":11611:11616   */\n      dup2\n        /* \"#utility.yul\":11600:11616   */\n      swap1\n      pop\n        /* \"#utility.yul\":11545:11622   */\n      swap2\n      swap1\n      pop\n      jump\t// out\n        /* \"#utility.yul\":11628:11782   */\n    tag_283:\n        /* \"#utility.yul\":11712:11718   */\n      dup3\n        /* \"#utility.yul\":11707:11710   */\n      dup2\n        /* \"#utility.yul\":11702:11705   */\n      dup4\n        /* \"#utility.yul\":11689:11719   */\n      calldatacopy\n        /* \"#utility.yul\":11774:11775   */\n      0x00\n        /* \"#utility.yul\":11765:11771   */\n      dup4\n        /* \"#utility.yul\":11760:11763   */\n      dup4\n        /* \"#utility.yul\":11756:11772   */\n      add\n        /* \"#utility.yul\":11749:11776   */\n      mstore\n        /* \"#utility.yul\":11628:11782   */\n      pop\n      pop\n      pop\n      jump\t// out\n        /* \"#utility.yul\":11788:12095   */\n    tag_362:\n        /* \"#utility.yul\":11856:11857   */\n      0x00\n        /* \"#utility.yul\":11866:11979   */\n    tag_435:\n        /* \"#utility.yul\":11880:11886   */\n      dup4\n        /* \"#utility.yul\":11877:11878   */\n      dup2\n        /* \"#utility.yul\":11874:11887   */\n      lt\n        /* \"#utility.yul\":11866:11979   */\n      iszero\n      tag_437\n      jumpi\n        /* \"#utility.yul\":11965:11966   */\n      dup1\n        /* \"#utility.yul\":11960:11963   */\n      dup3\n        /* \"#utility.yul\":11956:11967   */\n      add\n        /* \"#utility.yul\":11950:11968   */\n      mload\n        /* \"#utility.yul\":11946:11947   */\n      dup2\n        /* \"#utility.yul\":11941:11944   */\n      dup5\n        /* \"#utility.yul\":11937:11948   */\n      add\n        /* \"#utility.yul\":11930:11969   */\n      mstore\n        /* \"#utility.yul\":11902:11904   */\n      0x20\n        /* \"#utility.yul\":11899:11900   */\n      dup2\n        /* \"#utility.yul\":11895:11905   */\n      add\n        /* \"#utility.yul\":11890:11905   */\n      swap1\n      pop\n        /* \"#utility.yul\":11866:11979   */\n      jump(tag_435)\n    tag_437:\n        /* \"#utility.yul\":11997:12003   */\n      dup4\n        /* \"#utility.yul\":11994:11995   */\n      dup2\n        /* \"#utility.yul\":11991:12004   */\n      gt\n        /* \"#utility.yul\":11988:12089   */\n      iszero\n      tag_438\n      jumpi\n        /* \"#utility.yul\":12077:12078   */\n      0x00\n        /* \"#utility.yul\":12068:12074   */\n      dup5\n        /* \"#utility.yul\":12063:12066   */\n      dup5\n        /* \"#utility.yul\":12059:12075   */\n      add\n        /* \"#utility.yul\":12052:12079   */\n      mstore\n        /* \"#utility.yul\":11988:12089   */\n    tag_438:\n        /* \"#utility.yul\":11837:12095   */\n      pop\n        /* \"#utility.yul\":11788:12095   */\n      pop\n      pop\n      pop\n      jump\t// out\n        /* \"#utility.yul\":12101:12421   */\n    tag_134:\n        /* \"#utility.yul\":12145:12151   */\n      0x00\n        /* \"#utility.yul\":12182:12183   */\n      0x02\n        /* \"#utility.yul\":12176:12180   */\n      dup3\n        /* \"#utility.yul\":12172:12184   */\n      div\n        /* \"#utility.yul\":12162:12184   */\n      swap1\n      pop\n        /* \"#utility.yul\":12229:12230   */\n      0x01\n        /* \"#utility.yul\":12223:12227   */\n      dup3\n        /* \"#utility.yul\":12219:12231   */\n      and\n        /* \"#utility.yul\":12250:12268   */\n      dup1\n        /* \"#utility.yul\":12240:12321   */\n      tag_440\n      jumpi\n        /* \"#utility.yul\":12306:12310   */\n      0x7f\n        /* \"#utility.yul\":12298:12304   */\n      dup3\n        /* \"#utility.yul\":12294:12311   */\n      and\n        /* \"#utility.yul\":12284:12311   */\n      swap2\n      pop\n        /* \"#utility.yul\":12240:12321   */\n    tag_440:\n        /* \"#utility.yul\":12368:12370   */\n      0x20\n        /* \"#utility.yul\":12360:12366   */\n      dup3\n        /* \"#utility.yul\":12357:12371   */\n      lt\n        /* \"#utility.yul\":12337:12355   */\n      dup2\n        /* \"#utility.yul\":12334:12372   */\n      eq\n        /* \"#utility.yul\":12331:12415   */\n      iszero\n      tag_441\n      jumpi\n        /* \"#utility.yul\":12387:12405   */\n      tag_442\n      tag_443\n      jump\t// in\n    tag_442:\n        /* \"#utility.yul\":12331:12415   */\n    tag_441:\n        /* \"#utility.yul\":12152:12421   */\n      pop\n        /* \"#utility.yul\":12101:12421   */\n      swap2\n      swap1\n      pop\n      jump\t// out\n        /* \"#utility.yul\":12427:12708   */\n    tag_402:\n        /* \"#utility.yul\":12510:12537   */\n      tag_445\n        /* \"#utility.yul\":12532:12536   */\n      dup3\n        /* \"#utility.yul\":12510:12537   */\n      tag_364\n      jump\t// in\n    tag_445:\n        /* \"#utility.yul\":12502:12508   */\n      dup2\n        /* \"#utility.yul\":12498:12538   */\n      add\n        /* \"#utility.yul\":12640:12646   */\n      dup2\n        /* \"#utility.yul\":12628:12638   */\n      dup2\n        /* \"#utility.yul\":12625:12647   */\n      lt\n        /* \"#utility.yul\":12604:12622   */\n      0xffffffffffffffff\n        /* \"#utility.yul\":12592:12602   */\n      dup3\n        /* \"#utility.yul\":12589:12623   */\n      gt\n        /* \"#utility.yul\":12586:12648   */\n      or\n        /* \"#utility.yul\":12583:12671   */\n      iszero\n      tag_446\n      jumpi\n        /* \"#utility.yul\":12651:12669   */\n      tag_447\n      tag_407\n      jump\t// in\n    tag_447:\n        /* \"#utility.yul\":12583:12671   */\n    tag_446:\n        /* \"#utility.yul\":12691:12701   */\n      dup1\n        /* \"#utility.yul\":12687:12689   */\n      0x40\n        /* \"#utility.yul\":12680:12702   */\n      mstore\n        /* \"#utility.yul\":12470:12708   */\n      pop\n        /* \"#utility.yul\":12427:12708   */\n      pop\n      pop\n      jump\t// out\n        /* \"#utility.yul\":12714:12947   */\n    tag_181:\n        /* \"#utility.yul\":12753:12756   */\n      0x00\n        /* \"#utility.yul\":12776:12800   */\n      tag_449\n        /* \"#utility.yul\":12794:12799   */\n      dup3\n        /* \"#utility.yul\":12776:12800   */\n      tag_378\n      jump\t// in\n    tag_449:\n        /* \"#utility.yul\":12767:12800   */\n      swap2\n      pop\n        /* \"#utility.yul\":12822:12888   */\n      0xffffffffffffffffffffffffffffffffffffffffffffffffffffffffffffffff\n        /* \"#utility.yul\":12815:12820   */\n      dup3\n        /* \"#utility.yul\":12812:12889   */\n      eq\n        /* \"#utility.yul\":12809:12912   */\n      iszero\n      tag_450\n      jumpi\n        /* \"#utility.yul\":12892:12910   */\n      tag_451\n      tag_416\n      jump\t// in\n    tag_451:\n        /* \"#utility.yul\":12809:12912   */\n    tag_450:\n        /* \"#utility.yul\":12939:12940   */\n      0x01\n        /* \"#utility.yul\":12932:12937   */\n      dup3\n        /* \"#utility.yul\":12928:12941   */\n      add\n        /* \"#utility.yul\":12921:12941   */\n      swap1\n      pop\n        /* \"#utility.yul\":12714:12947   */\n      swap2\n      swap1\n      pop\n      jump\t// out\n        /* \"#utility.yul\":12953:13133   */\n    tag_416:\n        /* \"#utility.yul\":13001:13078   */\n      0x4e487b7100000000000000000000000000000000000000000000000000000000\n        /* \"#utility.yul\":12998:12999   */\n      0x00\n        /* \"#utility.yul\":12991:13079   */\n      mstore\n        /* \"#utility.yul\":13098:13102   */\n      0x11\n        /* \"#utility.yul\":13095:13096   */\n      0x04\n        /* \"#utility.yul\":13088:13103   */\n      mstore\n        /* \"#utility.yul\":13122:13126   */\n      0x24\n        /* \"#utility.yul\":13119:13120   */\n      0x00\n        /* \"#utility.yul\":13112:13127   */\n      revert\n        /* \"#utility.yul\":13139:13319   */\n    tag_142:\n        /* \"#utility.yul\":13187:13264   */\n      0x4e487b7100000000000000000000000000000000000000000000000000000000\n        /* \"#utility.yul\":13184:13185   */\n      0x00\n        /* \"#utility.yul\":13177:13265   */\n      mstore\n        /* \"#utility.yul\":13284:13288   */\n      0x21\n        /* \"#utility.yul\":13281:13282   */\n      0x04\n        /* \"#utility.yul\":13274:13289   */\n      mstore\n        /* \"#utility.yul\":13308:13312   */\n      0x24\n        /* \"#utility.yul\":13305:13306   */\n      0x00\n        /* \"#utility.yul\":13298:13313   */\n      revert\n        /* \"#utility.yul\":13325:13505   */\n    tag_443:\n        /* \"#utility.yul\":13373:13450   */\n      0x4e487b7100000000000000000000000000000000000000000000000000000000\n        /* \"#utility.yul\":13370:13371   */\n      0x00\n        /* \"#utility.yul\":13363:13451   */\n      mstore\n        /* \"#utility.yul\":13470:13474   */\n      0x22\n        /* \"#utility.yul\":13467:13468   */\n      0x04\n        /* \"#utility.yul\":13460:13475   */\n      mstore\n        /* \"#utility.yul\":13494:13498   */\n      0x24\n        /* \"#utility.yul\":13491:13492   */\n      0x00\n        /* \"#utility.yul\":13484:13499   */\n      revert\n        /* \"#utility.yul\":13511:13691   */\n    tag_407:\n        /* \"#utility.yul\":13559:13636   */\n      0x4e487b7100000000000000000000000000000000000000000000000000000000\n        /* \"#utility.yul\":13556:13557   */\n      0x00\n        /* \"#utility.yul\":13549:13637   */\n      mstore\n        /* \"#utility.yul\":13656:13660   */\n      0x41\n        /* \"#utility.yul\":13653:13654   */\n      0x04\n        /* \"#utility.yul\":13646:13661   */\n      mstore\n        /* \"#utility.yul\":13680:13684   */\n      0x24\n        /* \"#utility.yul\":13677:13678   */\n      0x00\n        /* \"#utility.yul\":13670:13685   */\n      revert\n        /* \"#utility.yul\":13697:13814   */\n    tag_296:\n        /* \"#utility.yul\":13806:13807   */\n      0x00\n        /* \"#utility.yul\":13803:13804   */\n      dup1\n        /* \"#utility.yul\":13796:13808   */\n      revert\n        /* \"#utility.yul\":13820:13937   */\n    tag_281:\n        /* \"#utility.yul\":13929:13930   */\n      0x00\n        /* \"#utility.yul\":13926:13927   */\n      dup1\n        /* \"#utility.yul\":13919:13931   */\n      revert\n        /* \"#utility.yul\":13943:14060   */\n    tag_313:\n        /* \"#utility.yul\":14052:14053   */\n      0x00\n        /* \"#utility.yul\":14049:14050   */\n      dup1\n        /* \"#utility.yul\":14042:14054   */\n      revert\n        /* \"#utility.yul\":14066:14183   */\n    tag_305:\n        /* \"#utility.yul\":14175:14176   */\n      0x00\n        /* \"#utility.yul\":14172:14173   */\n      dup1\n        /* \"#utility.yul\":14165:14177   */\n      revert\n        /* \"#utility.yul\":14189:14291   */\n    tag_364:\n        /* \"#utility.yul\":14230:14236   */\n      0x00\n        /* \"#utility.yul\":14281:14283   */\n      0x1f\n        /* \"#utility.yul\":14277:14284   */\n      not\n        /* \"#utility.yul\":14272:14274   */\n      0x1f\n        /* \"#utility.yul\":14265:14270   */\n      dup4\n        /* \"#utility.yul\":14261:14275   */\n      add\n        /* \"#utility.yul\":14257:14285   */\n      and\n        /* \"#utility.yul\":14247:14285   */\n      swap1\n      pop\n        /* \"#utility.yul\":14189:14291   */\n      swap2\n      swap1\n      pop\n      jump\t// out\n        /* \"#utility.yul\":14297:14519   */\n    tag_369:\n        /* \"#utility.yul\":14437:14471   */\n      0x4e756d626572206f662073686172657320657863656564656420746865206c69\n        /* \"#utility.yul\":14433:14434   */\n      0x00\n        /* \"#utility.yul\":14425:14431   */\n      dup3\n        /* \"#utility.yul\":14421:14435   */\n      add\n        /* \"#utility.yul\":14414:14472   */\n      mstore\n        /* \"#utility.yul\":14506:14511   */\n      0x6d69740000000000000000000000000000000000000000000000000000000000\n        /* \"#utility.yul\":14501:14503   */\n      0x20\n        /* \"#utility.yul\":14493:14499   */\n      dup3\n        /* \"#utility.yul\":14489:14504   */\n      add\n        /* \"#utility.yul\":14482:14512   */\n      mstore\n        /* \"#utility.yul\":14297:14519   */\n      pop\n      jump\t// out\n        /* \"#utility.yul\":14525:14689   */\n    tag_374:\n        /* \"#utility.yul\":14665:14681   */\n      0x4e6f7420656e6f75676820776569000000000000000000000000000000000000\n        /* \"#utility.yul\":14661:14662   */\n      0x00\n        /* \"#utility.yul\":14653:14659   */\n      dup3\n        /* \"#utility.yul\":14649:14663   */\n      add\n        /* \"#utility.yul\":14642:14682   */\n      mstore\n        /* \"#utility.yul\":14525:14689   */\n      pop\n      jump\t// out\n        /* \"#utility.yul\":14695:14817   */\n    tag_287:\n        /* \"#utility.yul\":14768:14792   */\n      tag_464\n        /* \"#utility.yul\":14786:14791   */\n      dup2\n        /* \"#utility.yul\":14768:14792   */\n      tag_350\n      jump\t// in\n    tag_464:\n        /* \"#utility.yul\":14761:14766   */\n      dup2\n        /* \"#utility.yul\":14758:14793   */\n      eq\n        /* \"#utility.yul\":14748:14811   */\n      tag_465\n      jumpi\n        /* \"#utility.yul\":14807:14808   */\n      0x00\n        /* \"#utility.yul\":14804:14805   */\n      dup1\n        /* \"#utility.yul\":14797:14809   */\n      revert\n        /* \"#utility.yul\":14748:14811   */\n    tag_465:\n        /* \"#utility.yul\":14695:14817   */\n      pop\n      jump\t// out\n        /* \"#utility.yul\":14823:14939   */\n    tag_291:\n        /* \"#utility.yul\":14893:14914   */\n      tag_467\n        /* \"#utility.yul\":14908:14913   */\n      dup2\n        /* \"#utility.yul\":14893:14914   */\n      tag_354\n      jump\t// in\n    tag_467:\n        /* \"#utility.yul\":14886:14891   */\n      dup2\n        /* \"#utility.yul\":14883:14915   */\n      eq\n        /* \"#utility.yul\":14873:14933   */\n      tag_468\n      jumpi\n        /* \"#utility.yul\":14929:14930   */\n      0x00\n        /* \"#utility.yul\":14926:14927   */\n      dup1\n        /* \"#utility.yul\":14919:14931   */\n      revert\n        /* \"#utility.yul\":14873:14933   */\n    tag_468:\n        /* \"#utility.yul\":14823:14939   */\n      pop\n      jump\t// out\n        /* \"#utility.yul\":14945:15067   */\n    tag_301:\n        /* \"#utility.yul\":15018:15042   */\n      tag_470\n        /* \"#utility.yul\":15036:15041   */\n      dup2\n        /* \"#utility.yul\":15018:15042   */\n      tag_378\n      jump\t// in\n    tag_470:\n        /* \"#utility.yul\":15011:15016   */\n      dup2\n        /* \"#utility.yul\":15008:15043   */\n      eq\n        /* \"#utility.yul\":14998:15061   */\n      tag_471\n      jumpi\n        /* \"#utility.yul\":15057:15058   */\n      0x00\n        /* \"#utility.yul\":15054:15055   */\n      dup1\n        /* \"#utility.yul\":15047:15059   */\n      revert\n        /* \"#utility.yul\":14998:15061   */\n    tag_471:\n        /* \"#utility.yul\":14945:15067   */\n      pop\n      jump\t// out\n\n    auxdata: 0xa2646970667358221220a03f32c509d9b9e9dac1e5a4da973d99590ac1556c9774bbfa7b8e352cbce64664736f6c63430008070033\n}\n",
				"bytecode": {
					"linkReferences": {},
					"object": "608060405260646006556001600755600a60085560006009556000601155600060125560006013553480156200003457600080fd5b506040516200234f3803806200234f83398181016040528101906200005a919062000258565b336000806101000a81548173ffffffffffffffffffffffffffffffffffffffff021916908373ffffffffffffffffffffffffffffffffffffffff160217905550600654600c60003373ffffffffffffffffffffffffffffffffffffffff1673ffffffffffffffffffffffffffffffffffffffff168152602001908152602001600020819055508160016000019080519060200190620000fb9291906200012a565b5080600180019080519060200190620001169291906200012a565b506000600160030181905550505062000461565b828054620001389062000372565b90600052602060002090601f0160209004810192826200015c5760008555620001a8565b82601f106200017757805160ff1916838001178555620001a8565b82800160010185558215620001a8579182015b82811115620001a75782518255916020019190600101906200018a565b5b509050620001b79190620001bb565b5090565b5b80821115620001d6576000816000905550600101620001bc565b5090565b6000620001f1620001eb8462000306565b620002dd565b90508281526020810184848401111562000210576200020f62000441565b5b6200021d8482856200033c565b509392505050565b600082601f8301126200023d576200023c6200043c565b5b81516200024f848260208601620001da565b91505092915050565b600080604083850312156200027257620002716200044b565b5b600083015167ffffffffffffffff81111562000293576200029262000446565b5b620002a18582860162000225565b925050602083015167ffffffffffffffff811115620002c557620002c462000446565b5b620002d38582860162000225565b9150509250929050565b6000620002e9620002fc565b9050620002f78282620003a8565b919050565b6000604051905090565b600067ffffffffffffffff8211156200032457620003236200040d565b5b6200032f8262000450565b9050602081019050919050565b60005b838110156200035c5780820151818401526020810190506200033f565b838111156200036c576000848401525b50505050565b600060028204905060018216806200038b57607f821691505b60208210811415620003a257620003a1620003de565b5b50919050565b620003b38262000450565b810181811067ffffffffffffffff82111715620003d557620003d46200040d565b5b80604052505050565b7f4e487b7100000000000000000000000000000000000000000000000000000000600052602260045260246000fd5b7f4e487b7100000000000000000000000000000000000000000000000000000000600052604160045260246000fd5b600080fd5b600080fd5b600080fd5b600080fd5b6000601f19601f8301169050919050565b611ede80620004716000396000f3fe6080604052600436106101405760003560e01c80639a982416116100b6578063d8335b531161006f578063d8335b531461042f578063d96a094a1461045a578063df09440914610476578063e4849b321461049f578063f3a8286f146104c8578063fd1550ef146104f357610140565b80639a9824161461032d578063a14ba98714610358578063a9059cbb14610397578063ad349442146103c0578063b9223946146103eb578063d8124c5f1461040257610140565b806359ea01731161010857806359ea0173146102085780636fa4f10314610246578063753ec1031461026f5780637ff9b5961461029a57806387caea78146102c55780638da5cb5b1461030257610140565b80630d15fd77146101455780631b26586c146101705780633a98ef391461019b5780633be75aa3146101c65780634c0a6af0146101f1575b600080fd5b34801561015157600080fd5b5061015a61051c565b6040516101679190611a63565b60405180910390f35b34801561017c57600080fd5b50610185610522565b604051610192919061198c565b60405180910390f35b3480156101a757600080fd5b506101b06105b0565b6040516101bd9190611a63565b60405180910390f35b3480156101d257600080fd5b506101db6105b6565b6040516101e89190611a63565b60405180910390f35b3480156101fd57600080fd5b506102066105bc565b005b34801561021457600080fd5b5061022f600480360381019061022a9190611684565b6106b1565b60405161023d9291906119ae565b60405180910390f35b34801561025257600080fd5b5061026d6004803603810190610268919061177a565b61076a565b005b34801561027b57600080fd5b50610284610808565b604051610291919061198c565b60405180910390f35b3480156102a657600080fd5b506102af610896565b6040516102bc9190611a63565b60405180910390f35b3480156102d157600080fd5b506102ec60048036038101906102e7919061174d565b61089c565b6040516102f99190611971565b60405180910390f35b34801561030e57600080fd5b50610317610b3a565b6040516103249190611956565b60405180910390f35b34801561033957600080fd5b50610342610b5e565b60405161034f9190611a63565b60405180910390f35b34801561036457600080fd5b5061037f600480360381019061037a919061187d565b610b64565b60405161038e939291906119de565b60405180910390f35b3480156103a357600080fd5b506103be60048036038101906103b9919061170d565b610cae565b005b3480156103cc57600080fd5b506103d5610e02565b6040516103e29190611956565b60405180910390f35b3480156103f757600080fd5b50610400610e28565b005b34801561040e57600080fd5b50610417610f33565b604051610426939291906119de565b60405180910390f35b34801561043b57600080fd5b5061044461105b565b6040516104519190611956565b60405180910390f35b610474600480360381019061046f919061187d565b611081565b005b34801561048257600080fd5b5061049d600480360381019061049891906117f2565b611123565b005b3480156104ab57600080fd5b506104c660048036038101906104c1919061187d565b6112b6565b005b3480156104d457600080fd5b506104dd611365565b6040516104ea9190611a63565b60405180910390f35b3480156104ff57600080fd5b5061051a600480360381019061051591906116b1565b61136b565b005b60135481565b600f805461052f90611c5e565b80601f016020809104026020016040519081016040528092919081815260200182805461055b90611c5e565b80156105a85780601f1061057d576101008083540402835291602001916105a8565b820191906000526020600020905b81548152906001019060200180831161058b57829003601f168201915b505050505081565b60065481565b60085481565b60008060028111156105d1576105d0611d39565b5b600d60009054906101000a900460ff1660028111156105f3576105f2611d39565b5b146105fd57600080fd5b600e60009054906101000a900473ffffffffffffffffffffffffffffffffffffffff1673ffffffffffffffffffffffffffffffffffffffff163373ffffffffffffffffffffffffffffffffffffffff161461065757600080fd5b6001600d60006101000a81548160ff0219169083600281111561067d5761067c611d39565b5b02179055507fd0dc01800a369fef30d3fced5275b8b916549867622e79efca5245c479fda4ea60405160405180910390a150565b600b6020528060005260406000206000915090508060000180546106d490611c5e565b80601f016020809104026020016040519081016040528092919081815260200182805461070090611c5e565b801561074d5780601f106107225761010080835404028352916020019161074d565b820191906000526020600020905b81548152906001019060200180831161073057829003601f168201915b5050505050908060010160009054906101000a900460ff16905082565b6000600d60006101000a81548160ff021916908360028111156107905761078f611d39565b5b021790555081600f90805190602001906107ab9291906114e4565b5080601090805190602001906107c29291906114e4565b5033600d60016101000a81548173ffffffffffffffffffffffffffffffffffffffff021916908373ffffffffffffffffffffffffffffffffffffffff1602179055505050565b6010805461081590611c5e565b80601f016020809104026020016040519081016040528092919081815260200182805461084190611c5e565b801561088e5780601f106108635761010080835404028352916020019161088e565b820191906000526020600020905b81548152906001019060200180831161087157829003601f168201915b505050505081565b60075481565b600060018060028111156108b3576108b2611d39565b5b600d60009054906101000a900460ff1660028111156108d5576108d4611d39565b5b146108df57600080fd5b600080600b60003373ffffffffffffffffffffffffffffffffffffffff1673ffffffffffffffffffffffffffffffffffffffff168152602001908152602001600020600001805461092f90611c5e565b90501415801561098c5750600b60003373ffffffffffffffffffffffffffffffffffffffff1673ffffffffffffffffffffffffffffffffffffffff16815260200190815260200160002060010160009054906101000a900460ff16155b15610af9576001600b60003373ffffffffffffffffffffffffffffffffffffffff1673ffffffffffffffffffffffffffffffffffffffff16815260200190815260200160002060010160006101000a81548160ff0219169083151502179055506109f461156a565b33816000019073ffffffffffffffffffffffffffffffffffffffff16908173ffffffffffffffffffffffffffffffffffffffff1681525050848160200190151590811515815250508415610a5b5760116000815480929190610a5590611cc1565b91905055505b8060146000601354815260200190815260200160002060008201518160000160006101000a81548173ffffffffffffffffffffffffffffffffffffffff021916908373ffffffffffffffffffffffffffffffffffffffff16021790555060208201518160000160146101000a81548160ff02191690831515021790555090505060136000815480929190610aee90611cc1565b919050555060019150505b7f55c65cf9526efdf6c2252fe9757889dbd93e10172cad0f2edb1df619c88dbf7d33604051610b289190611956565b60405180910390a18092505050919050565b60008054906101000a900473ffffffffffffffffffffffffffffffffffffffff1681565b60095481565b60058181548110610b7457600080fd5b9060005260206000209060030201600091509050806000018054610b9790611c5e565b80601f0160208091040260200160405190810160405280929190818152602001828054610bc390611c5e565b8015610c105780601f10610be557610100808354040283529160200191610c10565b820191906000526020600020905b815481529060010190602001808311610bf357829003601f168201915b505050505090806001018054610c2590611c5e565b80601f0160208091040260200160405190810160405280929190818152602001828054610c5190611c5e565b8015610c9e5780601f10610c7357610100808354040283529160200191610c9e565b820191906000526020600020905b815481529060010190602001808311610c8157829003601f168201915b5050505050908060020154905083565b80600c60003373ffffffffffffffffffffffffffffffffffffffff1673ffffffffffffffffffffffffffffffffffffffff168152602001908152602001600020541015610cfa57600080fd5b60008054906101000a900473ffffffffffffffffffffffffffffffffffffffff1673ffffffffffffffffffffffffffffffffffffffff163373ffffffffffffffffffffffffffffffffffffffff1614610d5257600080fd5b80600c60003373ffffffffffffffffffffffffffffffffffffffff1673ffffffffffffffffffffffffffffffffffffffff1681526020019081526020016000206000828254610da19190611ba0565b9250508190555080600c60008473ffffffffffffffffffffffffffffffffffffffff1673ffffffffffffffffffffffffffffffffffffffff1681526020019081526020016000206000828254610df79190611af0565b925050819055505050565b600d60019054906101000a900473ffffffffffffffffffffffffffffffffffffffff1681565b6001806002811115610e3d57610e3c611d39565b5b600d60009054906101000a900460ff166002811115610e5f57610e5e611d39565b5b14610e6957600080fd5b600e60009054906101000a900473ffffffffffffffffffffffffffffffffffffffff1673ffffffffffffffffffffffffffffffffffffffff163373ffffffffffffffffffffffffffffffffffffffff1614610ec357600080fd5b6002600d60006101000a81548160ff02191690836002811115610ee957610ee8611d39565b5b02179055506011546012819055507fb43a401dcdbe02a8afa41feb6c651425997908d1a4b79cf505188ba1dd3fd872601254604051610f289190611a63565b60405180910390a150565b6001806000018054610f4490611c5e565b80601f0160208091040260200160405190810160405280929190818152602001828054610f7090611c5e565b8015610fbd5780601f10610f9257610100808354040283529160200191610fbd565b820191906000526020600020905b815481529060010190602001808311610fa057829003601f168201915b505050505090806001018054610fd290611c5e565b80601f0160208091040260200160405190810160405280929190818152602001828054610ffe90611c5e565b801561104b5780601f106110205761010080835404028352916020019161104b565b820191906000526020600020905b81548152906001019060200180831161102e57829003601f168201915b5050505050908060030154905083565b600e60009054906101000a900473ffffffffffffffffffffffffffffffffffffffff1681565b6008548111156110c6576040517f08c379a00000000000000000000000000000000000000000000000000000000081526004016110bd90611a23565b60405180910390fd5b600754816110d49190611b46565b341015611116576040517f08c379a000000000000000000000000000000000000000000000000000000000815260040161110d90611a43565b60405180910390fd5b6111203382610cae565b50565b60008054906101000a900473ffffffffffffffffffffffffffffffffffffffff1673ffffffffffffffffffffffffffffffffffffffff163373ffffffffffffffffffffffffffffffffffffffff161461117b57600080fd5b60008060018111156111905761118f611d39565b5b600a60009054906101000a900460ff1660018111156111b2576111b1611d39565b5b146111bc57600080fd5b6000604051806060016040528086815260200185815260200184815250905082600160030160008282546111f09190611af0565b92505081905550600160020181908060018154018082558091505060019003906000526020600020906003020160009091909190915060008201518160000190805190602001906112429291906114e4565b50602082015181600101908051906020019061125f9291906114e4565b506040820151816002015550506001600301546007819055507f4578fe17eaab41ae382abe3462bb0cf04bcfee4168d2aad3ce9d5d225d0e27f6856040516112a7919061198c565b60405180910390a15050505050565b80600c60003373ffffffffffffffffffffffffffffffffffffffff1673ffffffffffffffffffffffffffffffffffffffff16815260200190815260200160002060008282546113059190611ba0565b9250508190555080600c60003073ffffffffffffffffffffffffffffffffffffffff1673ffffffffffffffffffffffffffffffffffffffff168152602001908152602001600020600082825461135b9190611af0565b9250508190555050565b60125481565b60008054906101000a900473ffffffffffffffffffffffffffffffffffffffff1673ffffffffffffffffffffffffffffffffffffffff163373ffffffffffffffffffffffffffffffffffffffff16146113c357600080fd5b6113cb61159c565b818160000181905250600081602001901515908115158152505080600b60008573ffffffffffffffffffffffffffffffffffffffff1673ffffffffffffffffffffffffffffffffffffffff16815260200190815260200160002060008201518160000190805190602001906114419291906114e4565b5060208201518160010160006101000a81548160ff0219169083151502179055509050506009600081548092919061147890611cc1565b91905055506001600a60006101000a81548160ff021916908360018111156114a3576114a2611d39565b5b02179055507f30040c92e8da146ac410fb6841ea0f60af3b8f3788e5e7354e48d97d018f39dd836040516114d79190611956565b60405180910390a1505050565b8280546114f090611c5e565b90600052602060002090601f0160209004810192826115125760008555611559565b82601f1061152b57805160ff1916838001178555611559565b82800160010185558215611559579182015b8281111561155857825182559160200191906001019061153d565b5b50905061156691906115b8565b5090565b6040518060400160405280600073ffffffffffffffffffffffffffffffffffffffff1681526020016000151581525090565b6040518060400160405280606081526020016000151581525090565b5b808211156115d15760008160009055506001016115b9565b5090565b60006115e86115e384611aa3565b611a7e565b90508281526020810184848401111561160457611603611dcb565b5b61160f848285611c1c565b509392505050565b60008135905061162681611e63565b92915050565b60008135905061163b81611e7a565b92915050565b600082601f83011261165657611655611dc6565b5b81356116668482602086016115d5565b91505092915050565b60008135905061167e81611e91565b92915050565b60006020828403121561169a57611699611dd5565b5b60006116a884828501611617565b91505092915050565b600080604083850312156116c8576116c7611dd5565b5b60006116d685828601611617565b925050602083013567ffffffffffffffff8111156116f7576116f6611dd0565b5b61170385828601611641565b9150509250929050565b6000806040838503121561172457611723611dd5565b5b600061173285828601611617565b92505060206117438582860161166f565b9150509250929050565b60006020828403121561176357611762611dd5565b5b60006117718482850161162c565b91505092915050565b6000806040838503121561179157611790611dd5565b5b600083013567ffffffffffffffff8111156117af576117ae611dd0565b5b6117bb85828601611641565b925050602083013567ffffffffffffffff8111156117dc576117db611dd0565b5b6117e885828601611641565b9150509250929050565b60008060006060848603121561180b5761180a611dd5565b5b600084013567ffffffffffffffff81111561182957611828611dd0565b5b61183586828701611641565b935050602084013567ffffffffffffffff81111561185657611855611dd0565b5b61186286828701611641565b92505060406118738682870161166f565b9150509250925092565b60006020828403121561189357611892611dd5565b5b60006118a18482850161166f565b91505092915050565b6118b381611bd4565b82525050565b6118c281611be6565b82525050565b60006118d382611ad4565b6118dd8185611adf565b93506118ed818560208601611c2b565b6118f681611dda565b840191505092915050565b600061190e602383611adf565b915061191982611deb565b604082019050919050565b6000611931600e83611adf565b915061193c82611e3a565b602082019050919050565b61195081611c12565b82525050565b600060208201905061196b60008301846118aa565b92915050565b600060208201905061198660008301846118b9565b92915050565b600060208201905081810360008301526119a681846118c8565b905092915050565b600060408201905081810360008301526119c881856118c8565b90506119d760208301846118b9565b9392505050565b600060608201905081810360008301526119f881866118c8565b90508181036020830152611a0c81856118c8565b9050611a1b6040830184611947565b949350505050565b60006020820190508181036000830152611a3c81611901565b9050919050565b60006020820190508181036000830152611a5c81611924565b9050919050565b6000602082019050611a786000830184611947565b92915050565b6000611a88611a99565b9050611a948282611c90565b919050565b6000604051905090565b600067ffffffffffffffff821115611abe57611abd611d97565b5b611ac782611dda565b9050602081019050919050565b600081519050919050565b600082825260208201905092915050565b6000611afb82611c12565b9150611b0683611c12565b9250827fffffffffffffffffffffffffffffffffffffffffffffffffffffffffffffffff03821115611b3b57611b3a611d0a565b5b828201905092915050565b6000611b5182611c12565b9150611b5c83611c12565b9250817fffffffffffffffffffffffffffffffffffffffffffffffffffffffffffffffff0483118215151615611b9557611b94611d0a565b5b828202905092915050565b6000611bab82611c12565b9150611bb683611c12565b925082821015611bc957611bc8611d0a565b5b828203905092915050565b6000611bdf82611bf2565b9050919050565b60008115159050919050565b600073ffffffffffffffffffffffffffffffffffffffff82169050919050565b6000819050919050565b82818337600083830152505050565b60005b83811015611c49578082015181840152602081019050611c2e565b83811115611c58576000848401525b50505050565b60006002820490506001821680611c7657607f821691505b60208210811415611c8a57611c89611d68565b5b50919050565b611c9982611dda565b810181811067ffffffffffffffff82111715611cb857611cb7611d97565b5b80604052505050565b6000611ccc82611c12565b91507fffffffffffffffffffffffffffffffffffffffffffffffffffffffffffffffff821415611cff57611cfe611d0a565b5b600182019050919050565b7f4e487b7100000000000000000000000000000000000000000000000000000000600052601160045260246000fd5b7f4e487b7100000000000000000000000000000000000000000000000000000000600052602160045260246000fd5b7f4e487b7100000000000000000000000000000000000000000000000000000000600052602260045260246000fd5b7f4e487b7100000000000000000000000000000000000000000000000000000000600052604160045260246000fd5b600080fd5b600080fd5b600080fd5b600080fd5b6000601f19601f8301169050919050565b7f4e756d626572206f662073686172657320657863656564656420746865206c6960008201527f6d69740000000000000000000000000000000000000000000000000000000000602082015250565b7f4e6f7420656e6f75676820776569000000000000000000000000000000000000600082015250565b611e6c81611bd4565b8114611e7757600080fd5b50565b611e8381611be6565b8114611e8e57600080fd5b50565b611e9a81611c12565b8114611ea557600080fd5b5056fea2646970667358221220a03f32c509d9b9e9dac1e5a4da973d99590ac1556c9774bbfa7b8e352cbce64664736f6c63430008070033",
					"opcodes": "PUSH1 0x80 PUSH1 0x40 MSTORE PUSH1 0x64 PUSH1 0x6 SSTORE PUSH1 0x1 PUSH1 0x7 SSTORE PUSH1 0xA PUSH1 0x8 SSTORE PUSH1 0x0 PUSH1 0x9 SSTORE PUSH1 0x0 PUSH1 0x11 SSTORE PUSH1 0x0 PUSH1 0x12 SSTORE PUSH1 0x0 PUSH1 0x13 SSTORE CALLVALUE DUP1 ISZERO PUSH3 0x34 JUMPI PUSH1 0x0 DUP1 REVERT JUMPDEST POP PUSH1 0x40 MLOAD PUSH3 0x234F CODESIZE SUB DUP1 PUSH3 0x234F DUP4 CODECOPY DUP2 DUP2 ADD PUSH1 0x40 MSTORE DUP2 ADD SWAP1 PUSH3 0x5A SWAP2 SWAP1 PUSH3 0x258 JUMP JUMPDEST CALLER PUSH1 0x0 DUP1 PUSH2 0x100 EXP DUP2 SLOAD DUP2 PUSH20 0xFFFFFFFFFFFFFFFFFFFFFFFFFFFFFFFFFFFFFFFF MUL NOT AND SWAP1 DUP4 PUSH20 0xFFFFFFFFFFFFFFFFFFFFFFFFFFFFFFFFFFFFFFFF AND MUL OR SWAP1 SSTORE POP PUSH1 0x6 SLOAD PUSH1 0xC PUSH1 0x0 CALLER PUSH20 0xFFFFFFFFFFFFFFFFFFFFFFFFFFFFFFFFFFFFFFFF AND PUSH20 0xFFFFFFFFFFFFFFFFFFFFFFFFFFFFFFFFFFFFFFFF AND DUP2 MSTORE PUSH1 0x20 ADD SWAP1 DUP2 MSTORE PUSH1 0x20 ADD PUSH1 0x0 KECCAK256 DUP2 SWAP1 SSTORE POP DUP2 PUSH1 0x1 PUSH1 0x0 ADD SWAP1 DUP1 MLOAD SWAP1 PUSH1 0x20 ADD SWAP1 PUSH3 0xFB SWAP3 SWAP2 SWAP1 PUSH3 0x12A JUMP JUMPDEST POP DUP1 PUSH1 0x1 DUP1 ADD SWAP1 DUP1 MLOAD SWAP1 PUSH1 0x20 ADD SWAP1 PUSH3 0x116 SWAP3 SWAP2 SWAP1 PUSH3 0x12A JUMP JUMPDEST POP PUSH1 0x0 PUSH1 0x1 PUSH1 0x3 ADD DUP2 SWAP1 SSTORE POP POP POP PUSH3 0x461 JUMP JUMPDEST DUP3 DUP1 SLOAD PUSH3 0x138 SWAP1 PUSH3 0x372 JUMP JUMPDEST SWAP1 PUSH1 0x0 MSTORE PUSH1 0x20 PUSH1 0x0 KECCAK256 SWAP1 PUSH1 0x1F ADD PUSH1 0x20 SWAP1 DIV DUP2 ADD SWAP3 DUP3 PUSH3 0x15C JUMPI PUSH1 0x0 DUP6 SSTORE PUSH3 0x1A8 JUMP JUMPDEST DUP3 PUSH1 0x1F LT PUSH3 0x177 JUMPI DUP1 MLOAD PUSH1 0xFF NOT AND DUP4 DUP1 ADD OR DUP6 SSTORE PUSH3 0x1A8 JUMP JUMPDEST DUP3 DUP1 ADD PUSH1 0x1 ADD DUP6 SSTORE DUP3 ISZERO PUSH3 0x1A8 JUMPI SWAP2 DUP3 ADD JUMPDEST DUP3 DUP2 GT ISZERO PUSH3 0x1A7 JUMPI DUP3 MLOAD DUP3 SSTORE SWAP2 PUSH1 0x20 ADD SWAP2 SWAP1 PUSH1 0x1 ADD SWAP1 PUSH3 0x18A JUMP JUMPDEST JUMPDEST POP SWAP1 POP PUSH3 0x1B7 SWAP2 SWAP1 PUSH3 0x1BB JUMP JUMPDEST POP SWAP1 JUMP JUMPDEST JUMPDEST DUP1 DUP3 GT ISZERO PUSH3 0x1D6 JUMPI PUSH1 0x0 DUP2 PUSH1 0x0 SWAP1 SSTORE POP PUSH1 0x1 ADD PUSH3 0x1BC JUMP JUMPDEST POP SWAP1 JUMP JUMPDEST PUSH1 0x0 PUSH3 0x1F1 PUSH3 0x1EB DUP5 PUSH3 0x306 JUMP JUMPDEST PUSH3 0x2DD JUMP JUMPDEST SWAP1 POP DUP3 DUP2 MSTORE PUSH1 0x20 DUP2 ADD DUP5 DUP5 DUP5 ADD GT ISZERO PUSH3 0x210 JUMPI PUSH3 0x20F PUSH3 0x441 JUMP JUMPDEST JUMPDEST PUSH3 0x21D DUP5 DUP3 DUP6 PUSH3 0x33C JUMP JUMPDEST POP SWAP4 SWAP3 POP POP POP JUMP JUMPDEST PUSH1 0x0 DUP3 PUSH1 0x1F DUP4 ADD SLT PUSH3 0x23D JUMPI PUSH3 0x23C PUSH3 0x43C JUMP JUMPDEST JUMPDEST DUP2 MLOAD PUSH3 0x24F DUP5 DUP3 PUSH1 0x20 DUP7 ADD PUSH3 0x1DA JUMP JUMPDEST SWAP2 POP POP SWAP3 SWAP2 POP POP JUMP JUMPDEST PUSH1 0x0 DUP1 PUSH1 0x40 DUP4 DUP6 SUB SLT ISZERO PUSH3 0x272 JUMPI PUSH3 0x271 PUSH3 0x44B JUMP JUMPDEST JUMPDEST PUSH1 0x0 DUP4 ADD MLOAD PUSH8 0xFFFFFFFFFFFFFFFF DUP2 GT ISZERO PUSH3 0x293 JUMPI PUSH3 0x292 PUSH3 0x446 JUMP JUMPDEST JUMPDEST PUSH3 0x2A1 DUP6 DUP3 DUP7 ADD PUSH3 0x225 JUMP JUMPDEST SWAP3 POP POP PUSH1 0x20 DUP4 ADD MLOAD PUSH8 0xFFFFFFFFFFFFFFFF DUP2 GT ISZERO PUSH3 0x2C5 JUMPI PUSH3 0x2C4 PUSH3 0x446 JUMP JUMPDEST JUMPDEST PUSH3 0x2D3 DUP6 DUP3 DUP7 ADD PUSH3 0x225 JUMP JUMPDEST SWAP2 POP POP SWAP3 POP SWAP3 SWAP1 POP JUMP JUMPDEST PUSH1 0x0 PUSH3 0x2E9 PUSH3 0x2FC JUMP JUMPDEST SWAP1 POP PUSH3 0x2F7 DUP3 DUP3 PUSH3 0x3A8 JUMP JUMPDEST SWAP2 SWAP1 POP JUMP JUMPDEST PUSH1 0x0 PUSH1 0x40 MLOAD SWAP1 POP SWAP1 JUMP JUMPDEST PUSH1 0x0 PUSH8 0xFFFFFFFFFFFFFFFF DUP3 GT ISZERO PUSH3 0x324 JUMPI PUSH3 0x323 PUSH3 0x40D JUMP JUMPDEST JUMPDEST PUSH3 0x32F DUP3 PUSH3 0x450 JUMP JUMPDEST SWAP1 POP PUSH1 0x20 DUP2 ADD SWAP1 POP SWAP2 SWAP1 POP JUMP JUMPDEST PUSH1 0x0 JUMPDEST DUP4 DUP2 LT ISZERO PUSH3 0x35C JUMPI DUP1 DUP3 ADD MLOAD DUP2 DUP5 ADD MSTORE PUSH1 0x20 DUP2 ADD SWAP1 POP PUSH3 0x33F JUMP JUMPDEST DUP4 DUP2 GT ISZERO PUSH3 0x36C JUMPI PUSH1 0x0 DUP5 DUP5 ADD MSTORE JUMPDEST POP POP POP POP JUMP JUMPDEST PUSH1 0x0 PUSH1 0x2 DUP3 DIV SWAP1 POP PUSH1 0x1 DUP3 AND DUP1 PUSH3 0x38B JUMPI PUSH1 0x7F DUP3 AND SWAP2 POP JUMPDEST PUSH1 0x20 DUP3 LT DUP2 EQ ISZERO PUSH3 0x3A2 JUMPI PUSH3 0x3A1 PUSH3 0x3DE JUMP JUMPDEST JUMPDEST POP SWAP2 SWAP1 POP JUMP JUMPDEST PUSH3 0x3B3 DUP3 PUSH3 0x450 JUMP JUMPDEST DUP2 ADD DUP2 DUP2 LT PUSH8 0xFFFFFFFFFFFFFFFF DUP3 GT OR ISZERO PUSH3 0x3D5 JUMPI PUSH3 0x3D4 PUSH3 0x40D JUMP JUMPDEST JUMPDEST DUP1 PUSH1 0x40 MSTORE POP POP POP JUMP JUMPDEST PUSH32 0x4E487B7100000000000000000000000000000000000000000000000000000000 PUSH1 0x0 MSTORE PUSH1 0x22 PUSH1 0x4 MSTORE PUSH1 0x24 PUSH1 0x0 REVERT JUMPDEST PUSH32 0x4E487B7100000000000000000000000000000000000000000000000000000000 PUSH1 0x0 MSTORE PUSH1 0x41 PUSH1 0x4 MSTORE PUSH1 0x24 PUSH1 0x0 REVERT JUMPDEST PUSH1 0x0 DUP1 REVERT JUMPDEST PUSH1 0x0 DUP1 REVERT JUMPDEST PUSH1 0x0 DUP1 REVERT JUMPDEST PUSH1 0x0 DUP1 REVERT JUMPDEST PUSH1 0x0 PUSH1 0x1F NOT PUSH1 0x1F DUP4 ADD AND SWAP1 POP SWAP2 SWAP1 POP JUMP JUMPDEST PUSH2 0x1EDE DUP1 PUSH3 0x471 PUSH1 0x0 CODECOPY PUSH1 0x0 RETURN INVALID PUSH1 0x80 PUSH1 0x40 MSTORE PUSH1 0x4 CALLDATASIZE LT PUSH2 0x140 JUMPI PUSH1 0x0 CALLDATALOAD PUSH1 0xE0 SHR DUP1 PUSH4 0x9A982416 GT PUSH2 0xB6 JUMPI DUP1 PUSH4 0xD8335B53 GT PUSH2 0x6F JUMPI DUP1 PUSH4 0xD8335B53 EQ PUSH2 0x42F JUMPI DUP1 PUSH4 0xD96A094A EQ PUSH2 0x45A JUMPI DUP1 PUSH4 0xDF094409 EQ PUSH2 0x476 JUMPI DUP1 PUSH4 0xE4849B32 EQ PUSH2 0x49F JUMPI DUP1 PUSH4 0xF3A8286F EQ PUSH2 0x4C8 JUMPI DUP1 PUSH4 0xFD1550EF EQ PUSH2 0x4F3 JUMPI PUSH2 0x140 JUMP JUMPDEST DUP1 PUSH4 0x9A982416 EQ PUSH2 0x32D JUMPI DUP1 PUSH4 0xA14BA987 EQ PUSH2 0x358 JUMPI DUP1 PUSH4 0xA9059CBB EQ PUSH2 0x397 JUMPI DUP1 PUSH4 0xAD349442 EQ PUSH2 0x3C0 JUMPI DUP1 PUSH4 0xB9223946 EQ PUSH2 0x3EB JUMPI DUP1 PUSH4 0xD8124C5F EQ PUSH2 0x402 JUMPI PUSH2 0x140 JUMP JUMPDEST DUP1 PUSH4 0x59EA0173 GT PUSH2 0x108 JUMPI DUP1 PUSH4 0x59EA0173 EQ PUSH2 0x208 JUMPI DUP1 PUSH4 0x6FA4F103 EQ PUSH2 0x246 JUMPI DUP1 PUSH4 0x753EC103 EQ PUSH2 0x26F JUMPI DUP1 PUSH4 0x7FF9B596 EQ PUSH2 0x29A JUMPI DUP1 PUSH4 0x87CAEA78 EQ PUSH2 0x2C5 JUMPI DUP1 PUSH4 0x8DA5CB5B EQ PUSH2 0x302 JUMPI PUSH2 0x140 JUMP JUMPDEST DUP1 PUSH4 0xD15FD77 EQ PUSH2 0x145 JUMPI DUP1 PUSH4 0x1B26586C EQ PUSH2 0x170 JUMPI DUP1 PUSH4 0x3A98EF39 EQ PUSH2 0x19B JUMPI DUP1 PUSH4 0x3BE75AA3 EQ PUSH2 0x1C6 JUMPI DUP1 PUSH4 0x4C0A6AF0 EQ PUSH2 0x1F1 JUMPI JUMPDEST PUSH1 0x0 DUP1 REVERT JUMPDEST CALLVALUE DUP1 ISZERO PUSH2 0x151 JUMPI PUSH1 0x0 DUP1 REVERT JUMPDEST POP PUSH2 0x15A PUSH2 0x51C JUMP JUMPDEST PUSH1 0x40 MLOAD PUSH2 0x167 SWAP2 SWAP1 PUSH2 0x1A63 JUMP JUMPDEST PUSH1 0x40 MLOAD DUP1 SWAP2 SUB SWAP1 RETURN JUMPDEST CALLVALUE DUP1 ISZERO PUSH2 0x17C JUMPI PUSH1 0x0 DUP1 REVERT JUMPDEST POP PUSH2 0x185 PUSH2 0x522 JUMP JUMPDEST PUSH1 0x40 MLOAD PUSH2 0x192 SWAP2 SWAP1 PUSH2 0x198C JUMP JUMPDEST PUSH1 0x40 MLOAD DUP1 SWAP2 SUB SWAP1 RETURN JUMPDEST CALLVALUE DUP1 ISZERO PUSH2 0x1A7 JUMPI PUSH1 0x0 DUP1 REVERT JUMPDEST POP PUSH2 0x1B0 PUSH2 0x5B0 JUMP JUMPDEST PUSH1 0x40 MLOAD PUSH2 0x1BD SWAP2 SWAP1 PUSH2 0x1A63 JUMP JUMPDEST PUSH1 0x40 MLOAD DUP1 SWAP2 SUB SWAP1 RETURN JUMPDEST CALLVALUE DUP1 ISZERO PUSH2 0x1D2 JUMPI PUSH1 0x0 DUP1 REVERT JUMPDEST POP PUSH2 0x1DB PUSH2 0x5B6 JUMP JUMPDEST PUSH1 0x40 MLOAD PUSH2 0x1E8 SWAP2 SWAP1 PUSH2 0x1A63 JUMP JUMPDEST PUSH1 0x40 MLOAD DUP1 SWAP2 SUB SWAP1 RETURN JUMPDEST CALLVALUE DUP1 ISZERO PUSH2 0x1FD JUMPI PUSH1 0x0 DUP1 REVERT JUMPDEST POP PUSH2 0x206 PUSH2 0x5BC JUMP JUMPDEST STOP JUMPDEST CALLVALUE DUP1 ISZERO PUSH2 0x214 JUMPI PUSH1 0x0 DUP1 REVERT JUMPDEST POP PUSH2 0x22F PUSH1 0x4 DUP1 CALLDATASIZE SUB DUP2 ADD SWAP1 PUSH2 0x22A SWAP2 SWAP1 PUSH2 0x1684 JUMP JUMPDEST PUSH2 0x6B1 JUMP JUMPDEST PUSH1 0x40 MLOAD PUSH2 0x23D SWAP3 SWAP2 SWAP1 PUSH2 0x19AE JUMP JUMPDEST PUSH1 0x40 MLOAD DUP1 SWAP2 SUB SWAP1 RETURN JUMPDEST CALLVALUE DUP1 ISZERO PUSH2 0x252 JUMPI PUSH1 0x0 DUP1 REVERT JUMPDEST POP PUSH2 0x26D PUSH1 0x4 DUP1 CALLDATASIZE SUB DUP2 ADD SWAP1 PUSH2 0x268 SWAP2 SWAP1 PUSH2 0x177A JUMP JUMPDEST PUSH2 0x76A JUMP JUMPDEST STOP JUMPDEST CALLVALUE DUP1 ISZERO PUSH2 0x27B JUMPI PUSH1 0x0 DUP1 REVERT JUMPDEST POP PUSH2 0x284 PUSH2 0x808 JUMP JUMPDEST PUSH1 0x40 MLOAD PUSH2 0x291 SWAP2 SWAP1 PUSH2 0x198C JUMP JUMPDEST PUSH1 0x40 MLOAD DUP1 SWAP2 SUB SWAP1 RETURN JUMPDEST CALLVALUE DUP1 ISZERO PUSH2 0x2A6 JUMPI PUSH1 0x0 DUP1 REVERT JUMPDEST POP PUSH2 0x2AF PUSH2 0x896 JUMP JUMPDEST PUSH1 0x40 MLOAD PUSH2 0x2BC SWAP2 SWAP1 PUSH2 0x1A63 JUMP JUMPDEST PUSH1 0x40 MLOAD DUP1 SWAP2 SUB SWAP1 RETURN JUMPDEST CALLVALUE DUP1 ISZERO PUSH2 0x2D1 JUMPI PUSH1 0x0 DUP1 REVERT JUMPDEST POP PUSH2 0x2EC PUSH1 0x4 DUP1 CALLDATASIZE SUB DUP2 ADD SWAP1 PUSH2 0x2E7 SWAP2 SWAP1 PUSH2 0x174D JUMP JUMPDEST PUSH2 0x89C JUMP JUMPDEST PUSH1 0x40 MLOAD PUSH2 0x2F9 SWAP2 SWAP1 PUSH2 0x1971 JUMP JUMPDEST PUSH1 0x40 MLOAD DUP1 SWAP2 SUB SWAP1 RETURN JUMPDEST CALLVALUE DUP1 ISZERO PUSH2 0x30E JUMPI PUSH1 0x0 DUP1 REVERT JUMPDEST POP PUSH2 0x317 PUSH2 0xB3A JUMP JUMPDEST PUSH1 0x40 MLOAD PUSH2 0x324 SWAP2 SWAP1 PUSH2 0x1956 JUMP JUMPDEST PUSH1 0x40 MLOAD DUP1 SWAP2 SUB SWAP1 RETURN JUMPDEST CALLVALUE DUP1 ISZERO PUSH2 0x339 JUMPI PUSH1 0x0 DUP1 REVERT JUMPDEST POP PUSH2 0x342 PUSH2 0xB5E JUMP JUMPDEST PUSH1 0x40 MLOAD PUSH2 0x34F SWAP2 SWAP1 PUSH2 0x1A63 JUMP JUMPDEST PUSH1 0x40 MLOAD DUP1 SWAP2 SUB SWAP1 RETURN JUMPDEST CALLVALUE DUP1 ISZERO PUSH2 0x364 JUMPI PUSH1 0x0 DUP1 REVERT JUMPDEST POP PUSH2 0x37F PUSH1 0x4 DUP1 CALLDATASIZE SUB DUP2 ADD SWAP1 PUSH2 0x37A SWAP2 SWAP1 PUSH2 0x187D JUMP JUMPDEST PUSH2 0xB64 JUMP JUMPDEST PUSH1 0x40 MLOAD PUSH2 0x38E SWAP4 SWAP3 SWAP2 SWAP1 PUSH2 0x19DE JUMP JUMPDEST PUSH1 0x40 MLOAD DUP1 SWAP2 SUB SWAP1 RETURN JUMPDEST CALLVALUE DUP1 ISZERO PUSH2 0x3A3 JUMPI PUSH1 0x0 DUP1 REVERT JUMPDEST POP PUSH2 0x3BE PUSH1 0x4 DUP1 CALLDATASIZE SUB DUP2 ADD SWAP1 PUSH2 0x3B9 SWAP2 SWAP1 PUSH2 0x170D JUMP JUMPDEST PUSH2 0xCAE JUMP JUMPDEST STOP JUMPDEST CALLVALUE DUP1 ISZERO PUSH2 0x3CC JUMPI PUSH1 0x0 DUP1 REVERT JUMPDEST POP PUSH2 0x3D5 PUSH2 0xE02 JUMP JUMPDEST PUSH1 0x40 MLOAD PUSH2 0x3E2 SWAP2 SWAP1 PUSH2 0x1956 JUMP JUMPDEST PUSH1 0x40 MLOAD DUP1 SWAP2 SUB SWAP1 RETURN JUMPDEST CALLVALUE DUP1 ISZERO PUSH2 0x3F7 JUMPI PUSH1 0x0 DUP1 REVERT JUMPDEST POP PUSH2 0x400 PUSH2 0xE28 JUMP JUMPDEST STOP JUMPDEST CALLVALUE DUP1 ISZERO PUSH2 0x40E JUMPI PUSH1 0x0 DUP1 REVERT JUMPDEST POP PUSH2 0x417 PUSH2 0xF33 JUMP JUMPDEST PUSH1 0x40 MLOAD PUSH2 0x426 SWAP4 SWAP3 SWAP2 SWAP1 PUSH2 0x19DE JUMP JUMPDEST PUSH1 0x40 MLOAD DUP1 SWAP2 SUB SWAP1 RETURN JUMPDEST CALLVALUE DUP1 ISZERO PUSH2 0x43B JUMPI PUSH1 0x0 DUP1 REVERT JUMPDEST POP PUSH2 0x444 PUSH2 0x105B JUMP JUMPDEST PUSH1 0x40 MLOAD PUSH2 0x451 SWAP2 SWAP1 PUSH2 0x1956 JUMP JUMPDEST PUSH1 0x40 MLOAD DUP1 SWAP2 SUB SWAP1 RETURN JUMPDEST PUSH2 0x474 PUSH1 0x4 DUP1 CALLDATASIZE SUB DUP2 ADD SWAP1 PUSH2 0x46F SWAP2 SWAP1 PUSH2 0x187D JUMP JUMPDEST PUSH2 0x1081 JUMP JUMPDEST STOP JUMPDEST CALLVALUE DUP1 ISZERO PUSH2 0x482 JUMPI PUSH1 0x0 DUP1 REVERT JUMPDEST POP PUSH2 0x49D PUSH1 0x4 DUP1 CALLDATASIZE SUB DUP2 ADD SWAP1 PUSH2 0x498 SWAP2 SWAP1 PUSH2 0x17F2 JUMP JUMPDEST PUSH2 0x1123 JUMP JUMPDEST STOP JUMPDEST CALLVALUE DUP1 ISZERO PUSH2 0x4AB JUMPI PUSH1 0x0 DUP1 REVERT JUMPDEST POP PUSH2 0x4C6 PUSH1 0x4 DUP1 CALLDATASIZE SUB DUP2 ADD SWAP1 PUSH2 0x4C1 SWAP2 SWAP1 PUSH2 0x187D JUMP JUMPDEST PUSH2 0x12B6 JUMP JUMPDEST STOP JUMPDEST CALLVALUE DUP1 ISZERO PUSH2 0x4D4 JUMPI PUSH1 0x0 DUP1 REVERT JUMPDEST POP PUSH2 0x4DD PUSH2 0x1365 JUMP JUMPDEST PUSH1 0x40 MLOAD PUSH2 0x4EA SWAP2 SWAP1 PUSH2 0x1A63 JUMP JUMPDEST PUSH1 0x40 MLOAD DUP1 SWAP2 SUB SWAP1 RETURN JUMPDEST CALLVALUE DUP1 ISZERO PUSH2 0x4FF JUMPI PUSH1 0x0 DUP1 REVERT JUMPDEST POP PUSH2 0x51A PUSH1 0x4 DUP1 CALLDATASIZE SUB DUP2 ADD SWAP1 PUSH2 0x515 SWAP2 SWAP1 PUSH2 0x16B1 JUMP JUMPDEST PUSH2 0x136B JUMP JUMPDEST STOP JUMPDEST PUSH1 0x13 SLOAD DUP2 JUMP JUMPDEST PUSH1 0xF DUP1 SLOAD PUSH2 0x52F SWAP1 PUSH2 0x1C5E JUMP JUMPDEST DUP1 PUSH1 0x1F ADD PUSH1 0x20 DUP1 SWAP2 DIV MUL PUSH1 0x20 ADD PUSH1 0x40 MLOAD SWAP1 DUP2 ADD PUSH1 0x40 MSTORE DUP1 SWAP3 SWAP2 SWAP1 DUP2 DUP2 MSTORE PUSH1 0x20 ADD DUP3 DUP1 SLOAD PUSH2 0x55B SWAP1 PUSH2 0x1C5E JUMP JUMPDEST DUP1 ISZERO PUSH2 0x5A8 JUMPI DUP1 PUSH1 0x1F LT PUSH2 0x57D JUMPI PUSH2 0x100 DUP1 DUP4 SLOAD DIV MUL DUP4 MSTORE SWAP2 PUSH1 0x20 ADD SWAP2 PUSH2 0x5A8 JUMP JUMPDEST DUP3 ADD SWAP2 SWAP1 PUSH1 0x0 MSTORE PUSH1 0x20 PUSH1 0x0 KECCAK256 SWAP1 JUMPDEST DUP2 SLOAD DUP2 MSTORE SWAP1 PUSH1 0x1 ADD SWAP1 PUSH1 0x20 ADD DUP1 DUP4 GT PUSH2 0x58B JUMPI DUP3 SWAP1 SUB PUSH1 0x1F AND DUP3 ADD SWAP2 JUMPDEST POP POP POP POP POP DUP2 JUMP JUMPDEST PUSH1 0x6 SLOAD DUP2 JUMP JUMPDEST PUSH1 0x8 SLOAD DUP2 JUMP JUMPDEST PUSH1 0x0 DUP1 PUSH1 0x2 DUP2 GT ISZERO PUSH2 0x5D1 JUMPI PUSH2 0x5D0 PUSH2 0x1D39 JUMP JUMPDEST JUMPDEST PUSH1 0xD PUSH1 0x0 SWAP1 SLOAD SWAP1 PUSH2 0x100 EXP SWAP1 DIV PUSH1 0xFF AND PUSH1 0x2 DUP2 GT ISZERO PUSH2 0x5F3 JUMPI PUSH2 0x5F2 PUSH2 0x1D39 JUMP JUMPDEST JUMPDEST EQ PUSH2 0x5FD JUMPI PUSH1 0x0 DUP1 REVERT JUMPDEST PUSH1 0xE PUSH1 0x0 SWAP1 SLOAD SWAP1 PUSH2 0x100 EXP SWAP1 DIV PUSH20 0xFFFFFFFFFFFFFFFFFFFFFFFFFFFFFFFFFFFFFFFF AND PUSH20 0xFFFFFFFFFFFFFFFFFFFFFFFFFFFFFFFFFFFFFFFF AND CALLER PUSH20 0xFFFFFFFFFFFFFFFFFFFFFFFFFFFFFFFFFFFFFFFF AND EQ PUSH2 0x657 JUMPI PUSH1 0x0 DUP1 REVERT JUMPDEST PUSH1 0x1 PUSH1 0xD PUSH1 0x0 PUSH2 0x100 EXP DUP2 SLOAD DUP2 PUSH1 0xFF MUL NOT AND SWAP1 DUP4 PUSH1 0x2 DUP2 GT ISZERO PUSH2 0x67D JUMPI PUSH2 0x67C PUSH2 0x1D39 JUMP JUMPDEST JUMPDEST MUL OR SWAP1 SSTORE POP PUSH32 0xD0DC01800A369FEF30D3FCED5275B8B916549867622E79EFCA5245C479FDA4EA PUSH1 0x40 MLOAD PUSH1 0x40 MLOAD DUP1 SWAP2 SUB SWAP1 LOG1 POP JUMP JUMPDEST PUSH1 0xB PUSH1 0x20 MSTORE DUP1 PUSH1 0x0 MSTORE PUSH1 0x40 PUSH1 0x0 KECCAK256 PUSH1 0x0 SWAP2 POP SWAP1 POP DUP1 PUSH1 0x0 ADD DUP1 SLOAD PUSH2 0x6D4 SWAP1 PUSH2 0x1C5E JUMP JUMPDEST DUP1 PUSH1 0x1F ADD PUSH1 0x20 DUP1 SWAP2 DIV MUL PUSH1 0x20 ADD PUSH1 0x40 MLOAD SWAP1 DUP2 ADD PUSH1 0x40 MSTORE DUP1 SWAP3 SWAP2 SWAP1 DUP2 DUP2 MSTORE PUSH1 0x20 ADD DUP3 DUP1 SLOAD PUSH2 0x700 SWAP1 PUSH2 0x1C5E JUMP JUMPDEST DUP1 ISZERO PUSH2 0x74D JUMPI DUP1 PUSH1 0x1F LT PUSH2 0x722 JUMPI PUSH2 0x100 DUP1 DUP4 SLOAD DIV MUL DUP4 MSTORE SWAP2 PUSH1 0x20 ADD SWAP2 PUSH2 0x74D JUMP JUMPDEST DUP3 ADD SWAP2 SWAP1 PUSH1 0x0 MSTORE PUSH1 0x20 PUSH1 0x0 KECCAK256 SWAP1 JUMPDEST DUP2 SLOAD DUP2 MSTORE SWAP1 PUSH1 0x1 ADD SWAP1 PUSH1 0x20 ADD DUP1 DUP4 GT PUSH2 0x730 JUMPI DUP3 SWAP1 SUB PUSH1 0x1F AND DUP3 ADD SWAP2 JUMPDEST POP POP POP POP POP SWAP1 DUP1 PUSH1 0x1 ADD PUSH1 0x0 SWAP1 SLOAD SWAP1 PUSH2 0x100 EXP SWAP1 DIV PUSH1 0xFF AND SWAP1 POP DUP3 JUMP JUMPDEST PUSH1 0x0 PUSH1 0xD PUSH1 0x0 PUSH2 0x100 EXP DUP2 SLOAD DUP2 PUSH1 0xFF MUL NOT AND SWAP1 DUP4 PUSH1 0x2 DUP2 GT ISZERO PUSH2 0x790 JUMPI PUSH2 0x78F PUSH2 0x1D39 JUMP JUMPDEST JUMPDEST MUL OR SWAP1 SSTORE POP DUP2 PUSH1 0xF SWAP1 DUP1 MLOAD SWAP1 PUSH1 0x20 ADD SWAP1 PUSH2 0x7AB SWAP3 SWAP2 SWAP1 PUSH2 0x14E4 JUMP JUMPDEST POP DUP1 PUSH1 0x10 SWAP1 DUP1 MLOAD SWAP1 PUSH1 0x20 ADD SWAP1 PUSH2 0x7C2 SWAP3 SWAP2 SWAP1 PUSH2 0x14E4 JUMP JUMPDEST POP CALLER PUSH1 0xD PUSH1 0x1 PUSH2 0x100 EXP DUP2 SLOAD DUP2 PUSH20 0xFFFFFFFFFFFFFFFFFFFFFFFFFFFFFFFFFFFFFFFF MUL NOT AND SWAP1 DUP4 PUSH20 0xFFFFFFFFFFFFFFFFFFFFFFFFFFFFFFFFFFFFFFFF AND MUL OR SWAP1 SSTORE POP POP POP JUMP JUMPDEST PUSH1 0x10 DUP1 SLOAD PUSH2 0x815 SWAP1 PUSH2 0x1C5E JUMP JUMPDEST DUP1 PUSH1 0x1F ADD PUSH1 0x20 DUP1 SWAP2 DIV MUL PUSH1 0x20 ADD PUSH1 0x40 MLOAD SWAP1 DUP2 ADD PUSH1 0x40 MSTORE DUP1 SWAP3 SWAP2 SWAP1 DUP2 DUP2 MSTORE PUSH1 0x20 ADD DUP3 DUP1 SLOAD PUSH2 0x841 SWAP1 PUSH2 0x1C5E JUMP JUMPDEST DUP1 ISZERO PUSH2 0x88E JUMPI DUP1 PUSH1 0x1F LT PUSH2 0x863 JUMPI PUSH2 0x100 DUP1 DUP4 SLOAD DIV MUL DUP4 MSTORE SWAP2 PUSH1 0x20 ADD SWAP2 PUSH2 0x88E JUMP JUMPDEST DUP3 ADD SWAP2 SWAP1 PUSH1 0x0 MSTORE PUSH1 0x20 PUSH1 0x0 KECCAK256 SWAP1 JUMPDEST DUP2 SLOAD DUP2 MSTORE SWAP1 PUSH1 0x1 ADD SWAP1 PUSH1 0x20 ADD DUP1 DUP4 GT PUSH2 0x871 JUMPI DUP3 SWAP1 SUB PUSH1 0x1F AND DUP3 ADD SWAP2 JUMPDEST POP POP POP POP POP DUP2 JUMP JUMPDEST PUSH1 0x7 SLOAD DUP2 JUMP JUMPDEST PUSH1 0x0 PUSH1 0x1 DUP1 PUSH1 0x2 DUP2 GT ISZERO PUSH2 0x8B3 JUMPI PUSH2 0x8B2 PUSH2 0x1D39 JUMP JUMPDEST JUMPDEST PUSH1 0xD PUSH1 0x0 SWAP1 SLOAD SWAP1 PUSH2 0x100 EXP SWAP1 DIV PUSH1 0xFF AND PUSH1 0x2 DUP2 GT ISZERO PUSH2 0x8D5 JUMPI PUSH2 0x8D4 PUSH2 0x1D39 JUMP JUMPDEST JUMPDEST EQ PUSH2 0x8DF JUMPI PUSH1 0x0 DUP1 REVERT JUMPDEST PUSH1 0x0 DUP1 PUSH1 0xB PUSH1 0x0 CALLER PUSH20 0xFFFFFFFFFFFFFFFFFFFFFFFFFFFFFFFFFFFFFFFF AND PUSH20 0xFFFFFFFFFFFFFFFFFFFFFFFFFFFFFFFFFFFFFFFF AND DUP2 MSTORE PUSH1 0x20 ADD SWAP1 DUP2 MSTORE PUSH1 0x20 ADD PUSH1 0x0 KECCAK256 PUSH1 0x0 ADD DUP1 SLOAD PUSH2 0x92F SWAP1 PUSH2 0x1C5E JUMP JUMPDEST SWAP1 POP EQ ISZERO DUP1 ISZERO PUSH2 0x98C JUMPI POP PUSH1 0xB PUSH1 0x0 CALLER PUSH20 0xFFFFFFFFFFFFFFFFFFFFFFFFFFFFFFFFFFFFFFFF AND PUSH20 0xFFFFFFFFFFFFFFFFFFFFFFFFFFFFFFFFFFFFFFFF AND DUP2 MSTORE PUSH1 0x20 ADD SWAP1 DUP2 MSTORE PUSH1 0x20 ADD PUSH1 0x0 KECCAK256 PUSH1 0x1 ADD PUSH1 0x0 SWAP1 SLOAD SWAP1 PUSH2 0x100 EXP SWAP1 DIV PUSH1 0xFF AND ISZERO JUMPDEST ISZERO PUSH2 0xAF9 JUMPI PUSH1 0x1 PUSH1 0xB PUSH1 0x0 CALLER PUSH20 0xFFFFFFFFFFFFFFFFFFFFFFFFFFFFFFFFFFFFFFFF AND PUSH20 0xFFFFFFFFFFFFFFFFFFFFFFFFFFFFFFFFFFFFFFFF AND DUP2 MSTORE PUSH1 0x20 ADD SWAP1 DUP2 MSTORE PUSH1 0x20 ADD PUSH1 0x0 KECCAK256 PUSH1 0x1 ADD PUSH1 0x0 PUSH2 0x100 EXP DUP2 SLOAD DUP2 PUSH1 0xFF MUL NOT AND SWAP1 DUP4 ISZERO ISZERO MUL OR SWAP1 SSTORE POP PUSH2 0x9F4 PUSH2 0x156A JUMP JUMPDEST CALLER DUP2 PUSH1 0x0 ADD SWAP1 PUSH20 0xFFFFFFFFFFFFFFFFFFFFFFFFFFFFFFFFFFFFFFFF AND SWAP1 DUP2 PUSH20 0xFFFFFFFFFFFFFFFFFFFFFFFFFFFFFFFFFFFFFFFF AND DUP2 MSTORE POP POP DUP5 DUP2 PUSH1 0x20 ADD SWAP1 ISZERO ISZERO SWAP1 DUP2 ISZERO ISZERO DUP2 MSTORE POP POP DUP5 ISZERO PUSH2 0xA5B JUMPI PUSH1 0x11 PUSH1 0x0 DUP2 SLOAD DUP1 SWAP3 SWAP2 SWAP1 PUSH2 0xA55 SWAP1 PUSH2 0x1CC1 JUMP JUMPDEST SWAP2 SWAP1 POP SSTORE POP JUMPDEST DUP1 PUSH1 0x14 PUSH1 0x0 PUSH1 0x13 SLOAD DUP2 MSTORE PUSH1 0x20 ADD SWAP1 DUP2 MSTORE PUSH1 0x20 ADD PUSH1 0x0 KECCAK256 PUSH1 0x0 DUP3 ADD MLOAD DUP2 PUSH1 0x0 ADD PUSH1 0x0 PUSH2 0x100 EXP DUP2 SLOAD DUP2 PUSH20 0xFFFFFFFFFFFFFFFFFFFFFFFFFFFFFFFFFFFFFFFF MUL NOT AND SWAP1 DUP4 PUSH20 0xFFFFFFFFFFFFFFFFFFFFFFFFFFFFFFFFFFFFFFFF AND MUL OR SWAP1 SSTORE POP PUSH1 0x20 DUP3 ADD MLOAD DUP2 PUSH1 0x0 ADD PUSH1 0x14 PUSH2 0x100 EXP DUP2 SLOAD DUP2 PUSH1 0xFF MUL NOT AND SWAP1 DUP4 ISZERO ISZERO MUL OR SWAP1 SSTORE POP SWAP1 POP POP PUSH1 0x13 PUSH1 0x0 DUP2 SLOAD DUP1 SWAP3 SWAP2 SWAP1 PUSH2 0xAEE SWAP1 PUSH2 0x1CC1 JUMP JUMPDEST SWAP2 SWAP1 POP SSTORE POP PUSH1 0x1 SWAP2 POP POP JUMPDEST PUSH32 0x55C65CF9526EFDF6C2252FE9757889DBD93E10172CAD0F2EDB1DF619C88DBF7D CALLER PUSH1 0x40 MLOAD PUSH2 0xB28 SWAP2 SWAP1 PUSH2 0x1956 JUMP JUMPDEST PUSH1 0x40 MLOAD DUP1 SWAP2 SUB SWAP1 LOG1 DUP1 SWAP3 POP POP POP SWAP2 SWAP1 POP JUMP JUMPDEST PUSH1 0x0 DUP1 SLOAD SWAP1 PUSH2 0x100 EXP SWAP1 DIV PUSH20 0xFFFFFFFFFFFFFFFFFFFFFFFFFFFFFFFFFFFFFFFF AND DUP2 JUMP JUMPDEST PUSH1 0x9 SLOAD DUP2 JUMP JUMPDEST PUSH1 0x5 DUP2 DUP2 SLOAD DUP2 LT PUSH2 0xB74 JUMPI PUSH1 0x0 DUP1 REVERT JUMPDEST SWAP1 PUSH1 0x0 MSTORE PUSH1 0x20 PUSH1 0x0 KECCAK256 SWAP1 PUSH1 0x3 MUL ADD PUSH1 0x0 SWAP2 POP SWAP1 POP DUP1 PUSH1 0x0 ADD DUP1 SLOAD PUSH2 0xB97 SWAP1 PUSH2 0x1C5E JUMP JUMPDEST DUP1 PUSH1 0x1F ADD PUSH1 0x20 DUP1 SWAP2 DIV MUL PUSH1 0x20 ADD PUSH1 0x40 MLOAD SWAP1 DUP2 ADD PUSH1 0x40 MSTORE DUP1 SWAP3 SWAP2 SWAP1 DUP2 DUP2 MSTORE PUSH1 0x20 ADD DUP3 DUP1 SLOAD PUSH2 0xBC3 SWAP1 PUSH2 0x1C5E JUMP JUMPDEST DUP1 ISZERO PUSH2 0xC10 JUMPI DUP1 PUSH1 0x1F LT PUSH2 0xBE5 JUMPI PUSH2 0x100 DUP1 DUP4 SLOAD DIV MUL DUP4 MSTORE SWAP2 PUSH1 0x20 ADD SWAP2 PUSH2 0xC10 JUMP JUMPDEST DUP3 ADD SWAP2 SWAP1 PUSH1 0x0 MSTORE PUSH1 0x20 PUSH1 0x0 KECCAK256 SWAP1 JUMPDEST DUP2 SLOAD DUP2 MSTORE SWAP1 PUSH1 0x1 ADD SWAP1 PUSH1 0x20 ADD DUP1 DUP4 GT PUSH2 0xBF3 JUMPI DUP3 SWAP1 SUB PUSH1 0x1F AND DUP3 ADD SWAP2 JUMPDEST POP POP POP POP POP SWAP1 DUP1 PUSH1 0x1 ADD DUP1 SLOAD PUSH2 0xC25 SWAP1 PUSH2 0x1C5E JUMP JUMPDEST DUP1 PUSH1 0x1F ADD PUSH1 0x20 DUP1 SWAP2 DIV MUL PUSH1 0x20 ADD PUSH1 0x40 MLOAD SWAP1 DUP2 ADD PUSH1 0x40 MSTORE DUP1 SWAP3 SWAP2 SWAP1 DUP2 DUP2 MSTORE PUSH1 0x20 ADD DUP3 DUP1 SLOAD PUSH2 0xC51 SWAP1 PUSH2 0x1C5E JUMP JUMPDEST DUP1 ISZERO PUSH2 0xC9E JUMPI DUP1 PUSH1 0x1F LT PUSH2 0xC73 JUMPI PUSH2 0x100 DUP1 DUP4 SLOAD DIV MUL DUP4 MSTORE SWAP2 PUSH1 0x20 ADD SWAP2 PUSH2 0xC9E JUMP JUMPDEST DUP3 ADD SWAP2 SWAP1 PUSH1 0x0 MSTORE PUSH1 0x20 PUSH1 0x0 KECCAK256 SWAP1 JUMPDEST DUP2 SLOAD DUP2 MSTORE SWAP1 PUSH1 0x1 ADD SWAP1 PUSH1 0x20 ADD DUP1 DUP4 GT PUSH2 0xC81 JUMPI DUP3 SWAP1 SUB PUSH1 0x1F AND DUP3 ADD SWAP2 JUMPDEST POP POP POP POP POP SWAP1 DUP1 PUSH1 0x2 ADD SLOAD SWAP1 POP DUP4 JUMP JUMPDEST DUP1 PUSH1 0xC PUSH1 0x0 CALLER PUSH20 0xFFFFFFFFFFFFFFFFFFFFFFFFFFFFFFFFFFFFFFFF AND PUSH20 0xFFFFFFFFFFFFFFFFFFFFFFFFFFFFFFFFFFFFFFFF AND DUP2 MSTORE PUSH1 0x20 ADD SWAP1 DUP2 MSTORE PUSH1 0x20 ADD PUSH1 0x0 KECCAK256 SLOAD LT ISZERO PUSH2 0xCFA JUMPI PUSH1 0x0 DUP1 REVERT JUMPDEST PUSH1 0x0 DUP1 SLOAD SWAP1 PUSH2 0x100 EXP SWAP1 DIV PUSH20 0xFFFFFFFFFFFFFFFFFFFFFFFFFFFFFFFFFFFFFFFF AND PUSH20 0xFFFFFFFFFFFFFFFFFFFFFFFFFFFFFFFFFFFFFFFF AND CALLER PUSH20 0xFFFFFFFFFFFFFFFFFFFFFFFFFFFFFFFFFFFFFFFF AND EQ PUSH2 0xD52 JUMPI PUSH1 0x0 DUP1 REVERT JUMPDEST DUP1 PUSH1 0xC PUSH1 0x0 CALLER PUSH20 0xFFFFFFFFFFFFFFFFFFFFFFFFFFFFFFFFFFFFFFFF AND PUSH20 0xFFFFFFFFFFFFFFFFFFFFFFFFFFFFFFFFFFFFFFFF AND DUP2 MSTORE PUSH1 0x20 ADD SWAP1 DUP2 MSTORE PUSH1 0x20 ADD PUSH1 0x0 KECCAK256 PUSH1 0x0 DUP3 DUP3 SLOAD PUSH2 0xDA1 SWAP2 SWAP1 PUSH2 0x1BA0 JUMP JUMPDEST SWAP3 POP POP DUP2 SWAP1 SSTORE POP DUP1 PUSH1 0xC PUSH1 0x0 DUP5 PUSH20 0xFFFFFFFFFFFFFFFFFFFFFFFFFFFFFFFFFFFFFFFF AND PUSH20 0xFFFFFFFFFFFFFFFFFFFFFFFFFFFFFFFFFFFFFFFF AND DUP2 MSTORE PUSH1 0x20 ADD SWAP1 DUP2 MSTORE PUSH1 0x20 ADD PUSH1 0x0 KECCAK256 PUSH1 0x0 DUP3 DUP3 SLOAD PUSH2 0xDF7 SWAP2 SWAP1 PUSH2 0x1AF0 JUMP JUMPDEST SWAP3 POP POP DUP2 SWAP1 SSTORE POP POP POP JUMP JUMPDEST PUSH1 0xD PUSH1 0x1 SWAP1 SLOAD SWAP1 PUSH2 0x100 EXP SWAP1 DIV PUSH20 0xFFFFFFFFFFFFFFFFFFFFFFFFFFFFFFFFFFFFFFFF AND DUP2 JUMP JUMPDEST PUSH1 0x1 DUP1 PUSH1 0x2 DUP2 GT ISZERO PUSH2 0xE3D JUMPI PUSH2 0xE3C PUSH2 0x1D39 JUMP JUMPDEST JUMPDEST PUSH1 0xD PUSH1 0x0 SWAP1 SLOAD SWAP1 PUSH2 0x100 EXP SWAP1 DIV PUSH1 0xFF AND PUSH1 0x2 DUP2 GT ISZERO PUSH2 0xE5F JUMPI PUSH2 0xE5E PUSH2 0x1D39 JUMP JUMPDEST JUMPDEST EQ PUSH2 0xE69 JUMPI PUSH1 0x0 DUP1 REVERT JUMPDEST PUSH1 0xE PUSH1 0x0 SWAP1 SLOAD SWAP1 PUSH2 0x100 EXP SWAP1 DIV PUSH20 0xFFFFFFFFFFFFFFFFFFFFFFFFFFFFFFFFFFFFFFFF AND PUSH20 0xFFFFFFFFFFFFFFFFFFFFFFFFFFFFFFFFFFFFFFFF AND CALLER PUSH20 0xFFFFFFFFFFFFFFFFFFFFFFFFFFFFFFFFFFFFFFFF AND EQ PUSH2 0xEC3 JUMPI PUSH1 0x0 DUP1 REVERT JUMPDEST PUSH1 0x2 PUSH1 0xD PUSH1 0x0 PUSH2 0x100 EXP DUP2 SLOAD DUP2 PUSH1 0xFF MUL NOT AND SWAP1 DUP4 PUSH1 0x2 DUP2 GT ISZERO PUSH2 0xEE9 JUMPI PUSH2 0xEE8 PUSH2 0x1D39 JUMP JUMPDEST JUMPDEST MUL OR SWAP1 SSTORE POP PUSH1 0x11 SLOAD PUSH1 0x12 DUP2 SWAP1 SSTORE POP PUSH32 0xB43A401DCDBE02A8AFA41FEB6C651425997908D1A4B79CF505188BA1DD3FD872 PUSH1 0x12 SLOAD PUSH1 0x40 MLOAD PUSH2 0xF28 SWAP2 SWAP1 PUSH2 0x1A63 JUMP JUMPDEST PUSH1 0x40 MLOAD DUP1 SWAP2 SUB SWAP1 LOG1 POP JUMP JUMPDEST PUSH1 0x1 DUP1 PUSH1 0x0 ADD DUP1 SLOAD PUSH2 0xF44 SWAP1 PUSH2 0x1C5E JUMP JUMPDEST DUP1 PUSH1 0x1F ADD PUSH1 0x20 DUP1 SWAP2 DIV MUL PUSH1 0x20 ADD PUSH1 0x40 MLOAD SWAP1 DUP2 ADD PUSH1 0x40 MSTORE DUP1 SWAP3 SWAP2 SWAP1 DUP2 DUP2 MSTORE PUSH1 0x20 ADD DUP3 DUP1 SLOAD PUSH2 0xF70 SWAP1 PUSH2 0x1C5E JUMP JUMPDEST DUP1 ISZERO PUSH2 0xFBD JUMPI DUP1 PUSH1 0x1F LT PUSH2 0xF92 JUMPI PUSH2 0x100 DUP1 DUP4 SLOAD DIV MUL DUP4 MSTORE SWAP2 PUSH1 0x20 ADD SWAP2 PUSH2 0xFBD JUMP JUMPDEST DUP3 ADD SWAP2 SWAP1 PUSH1 0x0 MSTORE PUSH1 0x20 PUSH1 0x0 KECCAK256 SWAP1 JUMPDEST DUP2 SLOAD DUP2 MSTORE SWAP1 PUSH1 0x1 ADD SWAP1 PUSH1 0x20 ADD DUP1 DUP4 GT PUSH2 0xFA0 JUMPI DUP3 SWAP1 SUB PUSH1 0x1F AND DUP3 ADD SWAP2 JUMPDEST POP POP POP POP POP SWAP1 DUP1 PUSH1 0x1 ADD DUP1 SLOAD PUSH2 0xFD2 SWAP1 PUSH2 0x1C5E JUMP JUMPDEST DUP1 PUSH1 0x1F ADD PUSH1 0x20 DUP1 SWAP2 DIV MUL PUSH1 0x20 ADD PUSH1 0x40 MLOAD SWAP1 DUP2 ADD PUSH1 0x40 MSTORE DUP1 SWAP3 SWAP2 SWAP1 DUP2 DUP2 MSTORE PUSH1 0x20 ADD DUP3 DUP1 SLOAD PUSH2 0xFFE SWAP1 PUSH2 0x1C5E JUMP JUMPDEST DUP1 ISZERO PUSH2 0x104B JUMPI DUP1 PUSH1 0x1F LT PUSH2 0x1020 JUMPI PUSH2 0x100 DUP1 DUP4 SLOAD DIV MUL DUP4 MSTORE SWAP2 PUSH1 0x20 ADD SWAP2 PUSH2 0x104B JUMP JUMPDEST DUP3 ADD SWAP2 SWAP1 PUSH1 0x0 MSTORE PUSH1 0x20 PUSH1 0x0 KECCAK256 SWAP1 JUMPDEST DUP2 SLOAD DUP2 MSTORE SWAP1 PUSH1 0x1 ADD SWAP1 PUSH1 0x20 ADD DUP1 DUP4 GT PUSH2 0x102E JUMPI DUP3 SWAP1 SUB PUSH1 0x1F AND DUP3 ADD SWAP2 JUMPDEST POP POP POP POP POP SWAP1 DUP1 PUSH1 0x3 ADD SLOAD SWAP1 POP DUP4 JUMP JUMPDEST PUSH1 0xE PUSH1 0x0 SWAP1 SLOAD SWAP1 PUSH2 0x100 EXP SWAP1 DIV PUSH20 0xFFFFFFFFFFFFFFFFFFFFFFFFFFFFFFFFFFFFFFFF AND DUP2 JUMP JUMPDEST PUSH1 0x8 SLOAD DUP2 GT ISZERO PUSH2 0x10C6 JUMPI PUSH1 0x40 MLOAD PUSH32 0x8C379A000000000000000000000000000000000000000000000000000000000 DUP2 MSTORE PUSH1 0x4 ADD PUSH2 0x10BD SWAP1 PUSH2 0x1A23 JUMP JUMPDEST PUSH1 0x40 MLOAD DUP1 SWAP2 SUB SWAP1 REVERT JUMPDEST PUSH1 0x7 SLOAD DUP2 PUSH2 0x10D4 SWAP2 SWAP1 PUSH2 0x1B46 JUMP JUMPDEST CALLVALUE LT ISZERO PUSH2 0x1116 JUMPI PUSH1 0x40 MLOAD PUSH32 0x8C379A000000000000000000000000000000000000000000000000000000000 DUP2 MSTORE PUSH1 0x4 ADD PUSH2 0x110D SWAP1 PUSH2 0x1A43 JUMP JUMPDEST PUSH1 0x40 MLOAD DUP1 SWAP2 SUB SWAP1 REVERT JUMPDEST PUSH2 0x1120 CALLER DUP3 PUSH2 0xCAE JUMP JUMPDEST POP JUMP JUMPDEST PUSH1 0x0 DUP1 SLOAD SWAP1 PUSH2 0x100 EXP SWAP1 DIV PUSH20 0xFFFFFFFFFFFFFFFFFFFFFFFFFFFFFFFFFFFFFFFF AND PUSH20 0xFFFFFFFFFFFFFFFFFFFFFFFFFFFFFFFFFFFFFFFF AND CALLER PUSH20 0xFFFFFFFFFFFFFFFFFFFFFFFFFFFFFFFFFFFFFFFF AND EQ PUSH2 0x117B JUMPI PUSH1 0x0 DUP1 REVERT JUMPDEST PUSH1 0x0 DUP1 PUSH1 0x1 DUP2 GT ISZERO PUSH2 0x1190 JUMPI PUSH2 0x118F PUSH2 0x1D39 JUMP JUMPDEST JUMPDEST PUSH1 0xA PUSH1 0x0 SWAP1 SLOAD SWAP1 PUSH2 0x100 EXP SWAP1 DIV PUSH1 0xFF AND PUSH1 0x1 DUP2 GT ISZERO PUSH2 0x11B2 JUMPI PUSH2 0x11B1 PUSH2 0x1D39 JUMP JUMPDEST JUMPDEST EQ PUSH2 0x11BC JUMPI PUSH1 0x0 DUP1 REVERT JUMPDEST PUSH1 0x0 PUSH1 0x40 MLOAD DUP1 PUSH1 0x60 ADD PUSH1 0x40 MSTORE DUP1 DUP7 DUP2 MSTORE PUSH1 0x20 ADD DUP6 DUP2 MSTORE PUSH1 0x20 ADD DUP5 DUP2 MSTORE POP SWAP1 POP DUP3 PUSH1 0x1 PUSH1 0x3 ADD PUSH1 0x0 DUP3 DUP3 SLOAD PUSH2 0x11F0 SWAP2 SWAP1 PUSH2 0x1AF0 JUMP JUMPDEST SWAP3 POP POP DUP2 SWAP1 SSTORE POP PUSH1 0x1 PUSH1 0x2 ADD DUP2 SWAP1 DUP1 PUSH1 0x1 DUP2 SLOAD ADD DUP1 DUP3 SSTORE DUP1 SWAP2 POP POP PUSH1 0x1 SWAP1 SUB SWAP1 PUSH1 0x0 MSTORE PUSH1 0x20 PUSH1 0x0 KECCAK256 SWAP1 PUSH1 0x3 MUL ADD PUSH1 0x0 SWAP1 SWAP2 SWAP1 SWAP2 SWAP1 SWAP2 POP PUSH1 0x0 DUP3 ADD MLOAD DUP2 PUSH1 0x0 ADD SWAP1 DUP1 MLOAD SWAP1 PUSH1 0x20 ADD SWAP1 PUSH2 0x1242 SWAP3 SWAP2 SWAP1 PUSH2 0x14E4 JUMP JUMPDEST POP PUSH1 0x20 DUP3 ADD MLOAD DUP2 PUSH1 0x1 ADD SWAP1 DUP1 MLOAD SWAP1 PUSH1 0x20 ADD SWAP1 PUSH2 0x125F SWAP3 SWAP2 SWAP1 PUSH2 0x14E4 JUMP JUMPDEST POP PUSH1 0x40 DUP3 ADD MLOAD DUP2 PUSH1 0x2 ADD SSTORE POP POP PUSH1 0x1 PUSH1 0x3 ADD SLOAD PUSH1 0x7 DUP2 SWAP1 SSTORE POP PUSH32 0x4578FE17EAAB41AE382ABE3462BB0CF04BCFEE4168D2AAD3CE9D5D225D0E27F6 DUP6 PUSH1 0x40 MLOAD PUSH2 0x12A7 SWAP2 SWAP1 PUSH2 0x198C JUMP JUMPDEST PUSH1 0x40 MLOAD DUP1 SWAP2 SUB SWAP1 LOG1 POP POP POP POP POP JUMP JUMPDEST DUP1 PUSH1 0xC PUSH1 0x0 CALLER PUSH20 0xFFFFFFFFFFFFFFFFFFFFFFFFFFFFFFFFFFFFFFFF AND PUSH20 0xFFFFFFFFFFFFFFFFFFFFFFFFFFFFFFFFFFFFFFFF AND DUP2 MSTORE PUSH1 0x20 ADD SWAP1 DUP2 MSTORE PUSH1 0x20 ADD PUSH1 0x0 KECCAK256 PUSH1 0x0 DUP3 DUP3 SLOAD PUSH2 0x1305 SWAP2 SWAP1 PUSH2 0x1BA0 JUMP JUMPDEST SWAP3 POP POP DUP2 SWAP1 SSTORE POP DUP1 PUSH1 0xC PUSH1 0x0 ADDRESS PUSH20 0xFFFFFFFFFFFFFFFFFFFFFFFFFFFFFFFFFFFFFFFF AND PUSH20 0xFFFFFFFFFFFFFFFFFFFFFFFFFFFFFFFFFFFFFFFF AND DUP2 MSTORE PUSH1 0x20 ADD SWAP1 DUP2 MSTORE PUSH1 0x20 ADD PUSH1 0x0 KECCAK256 PUSH1 0x0 DUP3 DUP3 SLOAD PUSH2 0x135B SWAP2 SWAP1 PUSH2 0x1AF0 JUMP JUMPDEST SWAP3 POP POP DUP2 SWAP1 SSTORE POP POP JUMP JUMPDEST PUSH1 0x12 SLOAD DUP2 JUMP JUMPDEST PUSH1 0x0 DUP1 SLOAD SWAP1 PUSH2 0x100 EXP SWAP1 DIV PUSH20 0xFFFFFFFFFFFFFFFFFFFFFFFFFFFFFFFFFFFFFFFF AND PUSH20 0xFFFFFFFFFFFFFFFFFFFFFFFFFFFFFFFFFFFFFFFF AND CALLER PUSH20 0xFFFFFFFFFFFFFFFFFFFFFFFFFFFFFFFFFFFFFFFF AND EQ PUSH2 0x13C3 JUMPI PUSH1 0x0 DUP1 REVERT JUMPDEST PUSH2 0x13CB PUSH2 0x159C JUMP JUMPDEST DUP2 DUP2 PUSH1 0x0 ADD DUP2 SWAP1 MSTORE POP PUSH1 0x0 DUP2 PUSH1 0x20 ADD SWAP1 ISZERO ISZERO SWAP1 DUP2 ISZERO ISZERO DUP2 MSTORE POP POP DUP1 PUSH1 0xB PUSH1 0x0 DUP6 PUSH20 0xFFFFFFFFFFFFFFFFFFFFFFFFFFFFFFFFFFFFFFFF AND PUSH20 0xFFFFFFFFFFFFFFFFFFFFFFFFFFFFFFFFFFFFFFFF AND DUP2 MSTORE PUSH1 0x20 ADD SWAP1 DUP2 MSTORE PUSH1 0x20 ADD PUSH1 0x0 KECCAK256 PUSH1 0x0 DUP3 ADD MLOAD DUP2 PUSH1 0x0 ADD SWAP1 DUP1 MLOAD SWAP1 PUSH1 0x20 ADD SWAP1 PUSH2 0x1441 SWAP3 SWAP2 SWAP1 PUSH2 0x14E4 JUMP JUMPDEST POP PUSH1 0x20 DUP3 ADD MLOAD DUP2 PUSH1 0x1 ADD PUSH1 0x0 PUSH2 0x100 EXP DUP2 SLOAD DUP2 PUSH1 0xFF MUL NOT AND SWAP1 DUP4 ISZERO ISZERO MUL OR SWAP1 SSTORE POP SWAP1 POP POP PUSH1 0x9 PUSH1 0x0 DUP2 SLOAD DUP1 SWAP3 SWAP2 SWAP1 PUSH2 0x1478 SWAP1 PUSH2 0x1CC1 JUMP JUMPDEST SWAP2 SWAP1 POP SSTORE POP PUSH1 0x1 PUSH1 0xA PUSH1 0x0 PUSH2 0x100 EXP DUP2 SLOAD DUP2 PUSH1 0xFF MUL NOT AND SWAP1 DUP4 PUSH1 0x1 DUP2 GT ISZERO PUSH2 0x14A3 JUMPI PUSH2 0x14A2 PUSH2 0x1D39 JUMP JUMPDEST JUMPDEST MUL OR SWAP1 SSTORE POP PUSH32 0x30040C92E8DA146AC410FB6841EA0F60AF3B8F3788E5E7354E48D97D018F39DD DUP4 PUSH1 0x40 MLOAD PUSH2 0x14D7 SWAP2 SWAP1 PUSH2 0x1956 JUMP JUMPDEST PUSH1 0x40 MLOAD DUP1 SWAP2 SUB SWAP1 LOG1 POP POP POP JUMP JUMPDEST DUP3 DUP1 SLOAD PUSH2 0x14F0 SWAP1 PUSH2 0x1C5E JUMP JUMPDEST SWAP1 PUSH1 0x0 MSTORE PUSH1 0x20 PUSH1 0x0 KECCAK256 SWAP1 PUSH1 0x1F ADD PUSH1 0x20 SWAP1 DIV DUP2 ADD SWAP3 DUP3 PUSH2 0x1512 JUMPI PUSH1 0x0 DUP6 SSTORE PUSH2 0x1559 JUMP JUMPDEST DUP3 PUSH1 0x1F LT PUSH2 0x152B JUMPI DUP1 MLOAD PUSH1 0xFF NOT AND DUP4 DUP1 ADD OR DUP6 SSTORE PUSH2 0x1559 JUMP JUMPDEST DUP3 DUP1 ADD PUSH1 0x1 ADD DUP6 SSTORE DUP3 ISZERO PUSH2 0x1559 JUMPI SWAP2 DUP3 ADD JUMPDEST DUP3 DUP2 GT ISZERO PUSH2 0x1558 JUMPI DUP3 MLOAD DUP3 SSTORE SWAP2 PUSH1 0x20 ADD SWAP2 SWAP1 PUSH1 0x1 ADD SWAP1 PUSH2 0x153D JUMP JUMPDEST JUMPDEST POP SWAP1 POP PUSH2 0x1566 SWAP2 SWAP1 PUSH2 0x15B8 JUMP JUMPDEST POP SWAP1 JUMP JUMPDEST PUSH1 0x40 MLOAD DUP1 PUSH1 0x40 ADD PUSH1 0x40 MSTORE DUP1 PUSH1 0x0 PUSH20 0xFFFFFFFFFFFFFFFFFFFFFFFFFFFFFFFFFFFFFFFF AND DUP2 MSTORE PUSH1 0x20 ADD PUSH1 0x0 ISZERO ISZERO DUP2 MSTORE POP SWAP1 JUMP JUMPDEST PUSH1 0x40 MLOAD DUP1 PUSH1 0x40 ADD PUSH1 0x40 MSTORE DUP1 PUSH1 0x60 DUP2 MSTORE PUSH1 0x20 ADD PUSH1 0x0 ISZERO ISZERO DUP2 MSTORE POP SWAP1 JUMP JUMPDEST JUMPDEST DUP1 DUP3 GT ISZERO PUSH2 0x15D1 JUMPI PUSH1 0x0 DUP2 PUSH1 0x0 SWAP1 SSTORE POP PUSH1 0x1 ADD PUSH2 0x15B9 JUMP JUMPDEST POP SWAP1 JUMP JUMPDEST PUSH1 0x0 PUSH2 0x15E8 PUSH2 0x15E3 DUP5 PUSH2 0x1AA3 JUMP JUMPDEST PUSH2 0x1A7E JUMP JUMPDEST SWAP1 POP DUP3 DUP2 MSTORE PUSH1 0x20 DUP2 ADD DUP5 DUP5 DUP5 ADD GT ISZERO PUSH2 0x1604 JUMPI PUSH2 0x1603 PUSH2 0x1DCB JUMP JUMPDEST JUMPDEST PUSH2 0x160F DUP5 DUP3 DUP6 PUSH2 0x1C1C JUMP JUMPDEST POP SWAP4 SWAP3 POP POP POP JUMP JUMPDEST PUSH1 0x0 DUP2 CALLDATALOAD SWAP1 POP PUSH2 0x1626 DUP2 PUSH2 0x1E63 JUMP JUMPDEST SWAP3 SWAP2 POP POP JUMP JUMPDEST PUSH1 0x0 DUP2 CALLDATALOAD SWAP1 POP PUSH2 0x163B DUP2 PUSH2 0x1E7A JUMP JUMPDEST SWAP3 SWAP2 POP POP JUMP JUMPDEST PUSH1 0x0 DUP3 PUSH1 0x1F DUP4 ADD SLT PUSH2 0x1656 JUMPI PUSH2 0x1655 PUSH2 0x1DC6 JUMP JUMPDEST JUMPDEST DUP2 CALLDATALOAD PUSH2 0x1666 DUP5 DUP3 PUSH1 0x20 DUP7 ADD PUSH2 0x15D5 JUMP JUMPDEST SWAP2 POP POP SWAP3 SWAP2 POP POP JUMP JUMPDEST PUSH1 0x0 DUP2 CALLDATALOAD SWAP1 POP PUSH2 0x167E DUP2 PUSH2 0x1E91 JUMP JUMPDEST SWAP3 SWAP2 POP POP JUMP JUMPDEST PUSH1 0x0 PUSH1 0x20 DUP3 DUP5 SUB SLT ISZERO PUSH2 0x169A JUMPI PUSH2 0x1699 PUSH2 0x1DD5 JUMP JUMPDEST JUMPDEST PUSH1 0x0 PUSH2 0x16A8 DUP5 DUP3 DUP6 ADD PUSH2 0x1617 JUMP JUMPDEST SWAP2 POP POP SWAP3 SWAP2 POP POP JUMP JUMPDEST PUSH1 0x0 DUP1 PUSH1 0x40 DUP4 DUP6 SUB SLT ISZERO PUSH2 0x16C8 JUMPI PUSH2 0x16C7 PUSH2 0x1DD5 JUMP JUMPDEST JUMPDEST PUSH1 0x0 PUSH2 0x16D6 DUP6 DUP3 DUP7 ADD PUSH2 0x1617 JUMP JUMPDEST SWAP3 POP POP PUSH1 0x20 DUP4 ADD CALLDATALOAD PUSH8 0xFFFFFFFFFFFFFFFF DUP2 GT ISZERO PUSH2 0x16F7 JUMPI PUSH2 0x16F6 PUSH2 0x1DD0 JUMP JUMPDEST JUMPDEST PUSH2 0x1703 DUP6 DUP3 DUP7 ADD PUSH2 0x1641 JUMP JUMPDEST SWAP2 POP POP SWAP3 POP SWAP3 SWAP1 POP JUMP JUMPDEST PUSH1 0x0 DUP1 PUSH1 0x40 DUP4 DUP6 SUB SLT ISZERO PUSH2 0x1724 JUMPI PUSH2 0x1723 PUSH2 0x1DD5 JUMP JUMPDEST JUMPDEST PUSH1 0x0 PUSH2 0x1732 DUP6 DUP3 DUP7 ADD PUSH2 0x1617 JUMP JUMPDEST SWAP3 POP POP PUSH1 0x20 PUSH2 0x1743 DUP6 DUP3 DUP7 ADD PUSH2 0x166F JUMP JUMPDEST SWAP2 POP POP SWAP3 POP SWAP3 SWAP1 POP JUMP JUMPDEST PUSH1 0x0 PUSH1 0x20 DUP3 DUP5 SUB SLT ISZERO PUSH2 0x1763 JUMPI PUSH2 0x1762 PUSH2 0x1DD5 JUMP JUMPDEST JUMPDEST PUSH1 0x0 PUSH2 0x1771 DUP5 DUP3 DUP6 ADD PUSH2 0x162C JUMP JUMPDEST SWAP2 POP POP SWAP3 SWAP2 POP POP JUMP JUMPDEST PUSH1 0x0 DUP1 PUSH1 0x40 DUP4 DUP6 SUB SLT ISZERO PUSH2 0x1791 JUMPI PUSH2 0x1790 PUSH2 0x1DD5 JUMP JUMPDEST JUMPDEST PUSH1 0x0 DUP4 ADD CALLDATALOAD PUSH8 0xFFFFFFFFFFFFFFFF DUP2 GT ISZERO PUSH2 0x17AF JUMPI PUSH2 0x17AE PUSH2 0x1DD0 JUMP JUMPDEST JUMPDEST PUSH2 0x17BB DUP6 DUP3 DUP7 ADD PUSH2 0x1641 JUMP JUMPDEST SWAP3 POP POP PUSH1 0x20 DUP4 ADD CALLDATALOAD PUSH8 0xFFFFFFFFFFFFFFFF DUP2 GT ISZERO PUSH2 0x17DC JUMPI PUSH2 0x17DB PUSH2 0x1DD0 JUMP JUMPDEST JUMPDEST PUSH2 0x17E8 DUP6 DUP3 DUP7 ADD PUSH2 0x1641 JUMP JUMPDEST SWAP2 POP POP SWAP3 POP SWAP3 SWAP1 POP JUMP JUMPDEST PUSH1 0x0 DUP1 PUSH1 0x0 PUSH1 0x60 DUP5 DUP7 SUB SLT ISZERO PUSH2 0x180B JUMPI PUSH2 0x180A PUSH2 0x1DD5 JUMP JUMPDEST JUMPDEST PUSH1 0x0 DUP5 ADD CALLDATALOAD PUSH8 0xFFFFFFFFFFFFFFFF DUP2 GT ISZERO PUSH2 0x1829 JUMPI PUSH2 0x1828 PUSH2 0x1DD0 JUMP JUMPDEST JUMPDEST PUSH2 0x1835 DUP7 DUP3 DUP8 ADD PUSH2 0x1641 JUMP JUMPDEST SWAP4 POP POP PUSH1 0x20 DUP5 ADD CALLDATALOAD PUSH8 0xFFFFFFFFFFFFFFFF DUP2 GT ISZERO PUSH2 0x1856 JUMPI PUSH2 0x1855 PUSH2 0x1DD0 JUMP JUMPDEST JUMPDEST PUSH2 0x1862 DUP7 DUP3 DUP8 ADD PUSH2 0x1641 JUMP JUMPDEST SWAP3 POP POP PUSH1 0x40 PUSH2 0x1873 DUP7 DUP3 DUP8 ADD PUSH2 0x166F JUMP JUMPDEST SWAP2 POP POP SWAP3 POP SWAP3 POP SWAP3 JUMP JUMPDEST PUSH1 0x0 PUSH1 0x20 DUP3 DUP5 SUB SLT ISZERO PUSH2 0x1893 JUMPI PUSH2 0x1892 PUSH2 0x1DD5 JUMP JUMPDEST JUMPDEST PUSH1 0x0 PUSH2 0x18A1 DUP5 DUP3 DUP6 ADD PUSH2 0x166F JUMP JUMPDEST SWAP2 POP POP SWAP3 SWAP2 POP POP JUMP JUMPDEST PUSH2 0x18B3 DUP2 PUSH2 0x1BD4 JUMP JUMPDEST DUP3 MSTORE POP POP JUMP JUMPDEST PUSH2 0x18C2 DUP2 PUSH2 0x1BE6 JUMP JUMPDEST DUP3 MSTORE POP POP JUMP JUMPDEST PUSH1 0x0 PUSH2 0x18D3 DUP3 PUSH2 0x1AD4 JUMP JUMPDEST PUSH2 0x18DD DUP2 DUP6 PUSH2 0x1ADF JUMP JUMPDEST SWAP4 POP PUSH2 0x18ED DUP2 DUP6 PUSH1 0x20 DUP7 ADD PUSH2 0x1C2B JUMP JUMPDEST PUSH2 0x18F6 DUP2 PUSH2 0x1DDA JUMP JUMPDEST DUP5 ADD SWAP2 POP POP SWAP3 SWAP2 POP POP JUMP JUMPDEST PUSH1 0x0 PUSH2 0x190E PUSH1 0x23 DUP4 PUSH2 0x1ADF JUMP JUMPDEST SWAP2 POP PUSH2 0x1919 DUP3 PUSH2 0x1DEB JUMP JUMPDEST PUSH1 0x40 DUP3 ADD SWAP1 POP SWAP2 SWAP1 POP JUMP JUMPDEST PUSH1 0x0 PUSH2 0x1931 PUSH1 0xE DUP4 PUSH2 0x1ADF JUMP JUMPDEST SWAP2 POP PUSH2 0x193C DUP3 PUSH2 0x1E3A JUMP JUMPDEST PUSH1 0x20 DUP3 ADD SWAP1 POP SWAP2 SWAP1 POP JUMP JUMPDEST PUSH2 0x1950 DUP2 PUSH2 0x1C12 JUMP JUMPDEST DUP3 MSTORE POP POP JUMP JUMPDEST PUSH1 0x0 PUSH1 0x20 DUP3 ADD SWAP1 POP PUSH2 0x196B PUSH1 0x0 DUP4 ADD DUP5 PUSH2 0x18AA JUMP JUMPDEST SWAP3 SWAP2 POP POP JUMP JUMPDEST PUSH1 0x0 PUSH1 0x20 DUP3 ADD SWAP1 POP PUSH2 0x1986 PUSH1 0x0 DUP4 ADD DUP5 PUSH2 0x18B9 JUMP JUMPDEST SWAP3 SWAP2 POP POP JUMP JUMPDEST PUSH1 0x0 PUSH1 0x20 DUP3 ADD SWAP1 POP DUP2 DUP2 SUB PUSH1 0x0 DUP4 ADD MSTORE PUSH2 0x19A6 DUP2 DUP5 PUSH2 0x18C8 JUMP JUMPDEST SWAP1 POP SWAP3 SWAP2 POP POP JUMP JUMPDEST PUSH1 0x0 PUSH1 0x40 DUP3 ADD SWAP1 POP DUP2 DUP2 SUB PUSH1 0x0 DUP4 ADD MSTORE PUSH2 0x19C8 DUP2 DUP6 PUSH2 0x18C8 JUMP JUMPDEST SWAP1 POP PUSH2 0x19D7 PUSH1 0x20 DUP4 ADD DUP5 PUSH2 0x18B9 JUMP JUMPDEST SWAP4 SWAP3 POP POP POP JUMP JUMPDEST PUSH1 0x0 PUSH1 0x60 DUP3 ADD SWAP1 POP DUP2 DUP2 SUB PUSH1 0x0 DUP4 ADD MSTORE PUSH2 0x19F8 DUP2 DUP7 PUSH2 0x18C8 JUMP JUMPDEST SWAP1 POP DUP2 DUP2 SUB PUSH1 0x20 DUP4 ADD MSTORE PUSH2 0x1A0C DUP2 DUP6 PUSH2 0x18C8 JUMP JUMPDEST SWAP1 POP PUSH2 0x1A1B PUSH1 0x40 DUP4 ADD DUP5 PUSH2 0x1947 JUMP JUMPDEST SWAP5 SWAP4 POP POP POP POP JUMP JUMPDEST PUSH1 0x0 PUSH1 0x20 DUP3 ADD SWAP1 POP DUP2 DUP2 SUB PUSH1 0x0 DUP4 ADD MSTORE PUSH2 0x1A3C DUP2 PUSH2 0x1901 JUMP JUMPDEST SWAP1 POP SWAP2 SWAP1 POP JUMP JUMPDEST PUSH1 0x0 PUSH1 0x20 DUP3 ADD SWAP1 POP DUP2 DUP2 SUB PUSH1 0x0 DUP4 ADD MSTORE PUSH2 0x1A5C DUP2 PUSH2 0x1924 JUMP JUMPDEST SWAP1 POP SWAP2 SWAP1 POP JUMP JUMPDEST PUSH1 0x0 PUSH1 0x20 DUP3 ADD SWAP1 POP PUSH2 0x1A78 PUSH1 0x0 DUP4 ADD DUP5 PUSH2 0x1947 JUMP JUMPDEST SWAP3 SWAP2 POP POP JUMP JUMPDEST PUSH1 0x0 PUSH2 0x1A88 PUSH2 0x1A99 JUMP JUMPDEST SWAP1 POP PUSH2 0x1A94 DUP3 DUP3 PUSH2 0x1C90 JUMP JUMPDEST SWAP2 SWAP1 POP JUMP JUMPDEST PUSH1 0x0 PUSH1 0x40 MLOAD SWAP1 POP SWAP1 JUMP JUMPDEST PUSH1 0x0 PUSH8 0xFFFFFFFFFFFFFFFF DUP3 GT ISZERO PUSH2 0x1ABE JUMPI PUSH2 0x1ABD PUSH2 0x1D97 JUMP JUMPDEST JUMPDEST PUSH2 0x1AC7 DUP3 PUSH2 0x1DDA JUMP JUMPDEST SWAP1 POP PUSH1 0x20 DUP2 ADD SWAP1 POP SWAP2 SWAP1 POP JUMP JUMPDEST PUSH1 0x0 DUP2 MLOAD SWAP1 POP SWAP2 SWAP1 POP JUMP JUMPDEST PUSH1 0x0 DUP3 DUP3 MSTORE PUSH1 0x20 DUP3 ADD SWAP1 POP SWAP3 SWAP2 POP POP JUMP JUMPDEST PUSH1 0x0 PUSH2 0x1AFB DUP3 PUSH2 0x1C12 JUMP JUMPDEST SWAP2 POP PUSH2 0x1B06 DUP4 PUSH2 0x1C12 JUMP JUMPDEST SWAP3 POP DUP3 PUSH32 0xFFFFFFFFFFFFFFFFFFFFFFFFFFFFFFFFFFFFFFFFFFFFFFFFFFFFFFFFFFFFFFFF SUB DUP3 GT ISZERO PUSH2 0x1B3B JUMPI PUSH2 0x1B3A PUSH2 0x1D0A JUMP JUMPDEST JUMPDEST DUP3 DUP3 ADD SWAP1 POP SWAP3 SWAP2 POP POP JUMP JUMPDEST PUSH1 0x0 PUSH2 0x1B51 DUP3 PUSH2 0x1C12 JUMP JUMPDEST SWAP2 POP PUSH2 0x1B5C DUP4 PUSH2 0x1C12 JUMP JUMPDEST SWAP3 POP DUP2 PUSH32 0xFFFFFFFFFFFFFFFFFFFFFFFFFFFFFFFFFFFFFFFFFFFFFFFFFFFFFFFFFFFFFFFF DIV DUP4 GT DUP3 ISZERO ISZERO AND ISZERO PUSH2 0x1B95 JUMPI PUSH2 0x1B94 PUSH2 0x1D0A JUMP JUMPDEST JUMPDEST DUP3 DUP3 MUL SWAP1 POP SWAP3 SWAP2 POP POP JUMP JUMPDEST PUSH1 0x0 PUSH2 0x1BAB DUP3 PUSH2 0x1C12 JUMP JUMPDEST SWAP2 POP PUSH2 0x1BB6 DUP4 PUSH2 0x1C12 JUMP JUMPDEST SWAP3 POP DUP3 DUP3 LT ISZERO PUSH2 0x1BC9 JUMPI PUSH2 0x1BC8 PUSH2 0x1D0A JUMP JUMPDEST JUMPDEST DUP3 DUP3 SUB SWAP1 POP SWAP3 SWAP2 POP POP JUMP JUMPDEST PUSH1 0x0 PUSH2 0x1BDF DUP3 PUSH2 0x1BF2 JUMP JUMPDEST SWAP1 POP SWAP2 SWAP1 POP JUMP JUMPDEST PUSH1 0x0 DUP2 ISZERO ISZERO SWAP1 POP SWAP2 SWAP1 POP JUMP JUMPDEST PUSH1 0x0 PUSH20 0xFFFFFFFFFFFFFFFFFFFFFFFFFFFFFFFFFFFFFFFF DUP3 AND SWAP1 POP SWAP2 SWAP1 POP JUMP JUMPDEST PUSH1 0x0 DUP2 SWAP1 POP SWAP2 SWAP1 POP JUMP JUMPDEST DUP3 DUP2 DUP4 CALLDATACOPY PUSH1 0x0 DUP4 DUP4 ADD MSTORE POP POP POP JUMP JUMPDEST PUSH1 0x0 JUMPDEST DUP4 DUP2 LT ISZERO PUSH2 0x1C49 JUMPI DUP1 DUP3 ADD MLOAD DUP2 DUP5 ADD MSTORE PUSH1 0x20 DUP2 ADD SWAP1 POP PUSH2 0x1C2E JUMP JUMPDEST DUP4 DUP2 GT ISZERO PUSH2 0x1C58 JUMPI PUSH1 0x0 DUP5 DUP5 ADD MSTORE JUMPDEST POP POP POP POP JUMP JUMPDEST PUSH1 0x0 PUSH1 0x2 DUP3 DIV SWAP1 POP PUSH1 0x1 DUP3 AND DUP1 PUSH2 0x1C76 JUMPI PUSH1 0x7F DUP3 AND SWAP2 POP JUMPDEST PUSH1 0x20 DUP3 LT DUP2 EQ ISZERO PUSH2 0x1C8A JUMPI PUSH2 0x1C89 PUSH2 0x1D68 JUMP JUMPDEST JUMPDEST POP SWAP2 SWAP1 POP JUMP JUMPDEST PUSH2 0x1C99 DUP3 PUSH2 0x1DDA JUMP JUMPDEST DUP2 ADD DUP2 DUP2 LT PUSH8 0xFFFFFFFFFFFFFFFF DUP3 GT OR ISZERO PUSH2 0x1CB8 JUMPI PUSH2 0x1CB7 PUSH2 0x1D97 JUMP JUMPDEST JUMPDEST DUP1 PUSH1 0x40 MSTORE POP POP POP JUMP JUMPDEST PUSH1 0x0 PUSH2 0x1CCC DUP3 PUSH2 0x1C12 JUMP JUMPDEST SWAP2 POP PUSH32 0xFFFFFFFFFFFFFFFFFFFFFFFFFFFFFFFFFFFFFFFFFFFFFFFFFFFFFFFFFFFFFFFF DUP3 EQ ISZERO PUSH2 0x1CFF JUMPI PUSH2 0x1CFE PUSH2 0x1D0A JUMP JUMPDEST JUMPDEST PUSH1 0x1 DUP3 ADD SWAP1 POP SWAP2 SWAP1 POP JUMP JUMPDEST PUSH32 0x4E487B7100000000000000000000000000000000000000000000000000000000 PUSH1 0x0 MSTORE PUSH1 0x11 PUSH1 0x4 MSTORE PUSH1 0x24 PUSH1 0x0 REVERT JUMPDEST PUSH32 0x4E487B7100000000000000000000000000000000000000000000000000000000 PUSH1 0x0 MSTORE PUSH1 0x21 PUSH1 0x4 MSTORE PUSH1 0x24 PUSH1 0x0 REVERT JUMPDEST PUSH32 0x4E487B7100000000000000000000000000000000000000000000000000000000 PUSH1 0x0 MSTORE PUSH1 0x22 PUSH1 0x4 MSTORE PUSH1 0x24 PUSH1 0x0 REVERT JUMPDEST PUSH32 0x4E487B7100000000000000000000000000000000000000000000000000000000 PUSH1 0x0 MSTORE PUSH1 0x41 PUSH1 0x4 MSTORE PUSH1 0x24 PUSH1 0x0 REVERT JUMPDEST PUSH1 0x0 DUP1 REVERT JUMPDEST PUSH1 0x0 DUP1 REVERT JUMPDEST PUSH1 0x0 DUP1 REVERT JUMPDEST PUSH1 0x0 DUP1 REVERT JUMPDEST PUSH1 0x0 PUSH1 0x1F NOT PUSH1 0x1F DUP4 ADD AND SWAP1 POP SWAP2 SWAP1 POP JUMP JUMPDEST PUSH32 0x4E756D626572206F662073686172657320657863656564656420746865206C69 PUSH1 0x0 DUP3 ADD MSTORE PUSH32 0x6D69740000000000000000000000000000000000000000000000000000000000 PUSH1 0x20 DUP3 ADD MSTORE POP JUMP JUMPDEST PUSH32 0x4E6F7420656E6F75676820776569000000000000000000000000000000000000 PUSH1 0x0 DUP3 ADD MSTORE POP JUMP JUMPDEST PUSH2 0x1E6C DUP2 PUSH2 0x1BD4 JUMP JUMPDEST DUP2 EQ PUSH2 0x1E77 JUMPI PUSH1 0x0 DUP1 REVERT JUMPDEST POP JUMP JUMPDEST PUSH2 0x1E83 DUP2 PUSH2 0x1BE6 JUMP JUMPDEST DUP2 EQ PUSH2 0x1E8E JUMPI PUSH1 0x0 DUP1 REVERT JUMPDEST POP JUMP JUMPDEST PUSH2 0x1E9A DUP2 PUSH2 0x1C12 JUMP JUMPDEST DUP2 EQ PUSH2 0x1EA5 JUMPI PUSH1 0x0 DUP1 REVERT JUMPDEST POP JUMP INVALID LOG2 PUSH5 0x6970667358 0x22 SLT KECCAK256 LOG0 EXTCODEHASH ORIGIN 0xC5 MULMOD 0xD9 0xB9 0xE9 0xDA 0xC1 0xE5 LOG4 0xDA SWAP8 RETURNDATASIZE SWAP10 MSIZE EXP 0xC1 SSTORE PUSH13 0x9774BBFA7B8E352CBCE6466473 PUSH16 0x6C634300080700330000000000000000 "
				},
				"gasEstimates": {
					"creation": {
						"codeDepositCost": "1580400",
						"executionCost": "infinite",
						"totalCost": "infinite"
					},
					"external": {
						"addHouse(string,string,uint256)": "infinite",
						"addShareHolder(address,string)": "infinite",
						"ballotAddress()": "2536",
						"ballotInitiator()": "2653",
						"ballotName()": "infinite",
						"buy(uint256)": "infinite",
						"createBallot(string,string)": "infinite",
						"doVote(bool)": "infinite",
						"endVote()": "56433",
						"finalResult()": "2539",
						"houseRegister(uint256)": "infinite",
						"hp()": "infinite",
						"owner()": "2644",
						"proposal()": "infinite",
						"sell(uint256)": "infinite",
						"shareHolderRegistry(address)": "infinite",
						"shareLimit()": "2519",
						"startVote()": "29706",
						"tokenPrice()": "2518",
						"totalShareHolders()": "2452",
						"totalShares()": "2497",
						"totalVotes()": "2453",
						"transfer(address,uint256)": "infinite"
					}
				},
				"methodIdentifiers": {
					"addHouse(string,string,uint256)": "df094409",
					"addShareHolder(address,string)": "fd1550ef",
					"ballotAddress()": "d8335b53",
					"ballotInitiator()": "ad349442",
					"ballotName()": "1b26586c",
					"buy(uint256)": "d96a094a",
					"createBallot(string,string)": "6fa4f103",
					"doVote(bool)": "87caea78",
					"endVote()": "b9223946",
					"finalResult()": "f3a8286f",
					"houseRegister(uint256)": "a14ba987",
					"hp()": "d8124c5f",
					"owner()": "8da5cb5b",
					"proposal()": "753ec103",
					"sell(uint256)": "e4849b32",
					"shareHolderRegistry(address)": "59ea0173",
					"shareLimit()": "3be75aa3",
					"startVote()": "4c0a6af0",
					"tokenPrice()": "7ff9b596",
					"totalShareHolders()": "9a982416",
					"totalShares()": "3a98ef39",
					"totalVotes()": "0d15fd77",
					"transfer(address,uint256)": "a9059cbb"
				}
			},
			"storageLayout": {
				"storage": [
					{
						"astId": 3,
						"contract": "MyHomeToken.sol:MyHomesToken",
						"label": "owner",
						"offset": 0,
						"slot": "0",
						"type": "t_address"
					},
					{
						"astId": 6,
						"contract": "MyHomeToken.sol:MyHomesToken",
						"label": "hp",
						"offset": 0,
						"slot": "1",
						"type": "t_struct(HousingPackage)120_storage"
					},
					{
						"astId": 10,
						"contract": "MyHomeToken.sol:MyHomesToken",
						"label": "houseRegister",
						"offset": 0,
						"slot": "5",
						"type": "t_array(t_struct(House)109_storage)dyn_storage"
					},
					{
						"astId": 13,
						"contract": "MyHomeToken.sol:MyHomesToken",
						"label": "totalShares",
						"offset": 0,
						"slot": "6",
						"type": "t_uint256"
					},
					{
						"astId": 16,
						"contract": "MyHomeToken.sol:MyHomesToken",
						"label": "tokenPrice",
						"offset": 0,
						"slot": "7",
						"type": "t_uint256"
					},
					{
						"astId": 19,
						"contract": "MyHomeToken.sol:MyHomesToken",
						"label": "shareLimit",
						"offset": 0,
						"slot": "8",
						"type": "t_uint256"
					},
					{
						"astId": 22,
						"contract": "MyHomeToken.sol:MyHomesToken",
						"label": "totalShareHolders",
						"offset": 0,
						"slot": "9",
						"type": "t_uint256"
					},
					{
						"astId": 25,
						"contract": "MyHomeToken.sol:MyHomesToken",
						"label": "state",
						"offset": 0,
						"slot": "10",
						"type": "t_enum(State)198"
					},
					{
						"astId": 30,
						"contract": "MyHomeToken.sol:MyHomesToken",
						"label": "shareHolderRegistry",
						"offset": 0,
						"slot": "11",
						"type": "t_mapping(t_address,t_struct(ShareHolder)102_storage)"
					},
					{
						"astId": 34,
						"contract": "MyHomeToken.sol:MyHomesToken",
						"label": "_balanceOf",
						"offset": 0,
						"slot": "12",
						"type": "t_mapping(t_address,t_uint256)"
					},
					{
						"astId": 37,
						"contract": "MyHomeToken.sol:MyHomesToken",
						"label": "ballotState",
						"offset": 0,
						"slot": "13",
						"type": "t_enum(BallotState)195"
					},
					{
						"astId": 39,
						"contract": "MyHomeToken.sol:MyHomesToken",
						"label": "ballotInitiator",
						"offset": 1,
						"slot": "13",
						"type": "t_address"
					},
					{
						"astId": 41,
						"contract": "MyHomeToken.sol:MyHomesToken",
						"label": "ballotAddress",
						"offset": 0,
						"slot": "14",
						"type": "t_address"
					},
					{
						"astId": 43,
						"contract": "MyHomeToken.sol:MyHomesToken",
						"label": "ballotName",
						"offset": 0,
						"slot": "15",
						"type": "t_string_storage"
					},
					{
						"astId": 45,
						"contract": "MyHomeToken.sol:MyHomesToken",
						"label": "proposal",
						"offset": 0,
						"slot": "16",
						"type": "t_string_storage"
					},
					{
						"astId": 48,
						"contract": "MyHomeToken.sol:MyHomesToken",
						"label": "resultCount",
						"offset": 0,
						"slot": "17",
						"type": "t_uint256"
					},
					{
						"astId": 51,
						"contract": "MyHomeToken.sol:MyHomesToken",
						"label": "finalResult",
						"offset": 0,
						"slot": "18",
						"type": "t_uint256"
					},
					{
						"astId": 54,
						"contract": "MyHomeToken.sol:MyHomesToken",
						"label": "totalVotes",
						"offset": 0,
						"slot": "19",
						"type": "t_uint256"
					},
					{
						"astId": 59,
						"contract": "MyHomeToken.sol:MyHomesToken",
						"label": "votes",
						"offset": 0,
						"slot": "20",
						"type": "t_mapping(t_uint256,t_struct(Vote)125_storage)"
					}
				],
				"types": {
					"t_address": {
						"encoding": "inplace",
						"label": "address",
						"numberOfBytes": "20"
					},
					"t_array(t_struct(House)109_storage)dyn_storage": {
						"base": "t_struct(House)109_storage",
						"encoding": "dynamic_array",
						"label": "struct MyHomesToken.House[]",
						"numberOfBytes": "32"
					},
					"t_bool": {
						"encoding": "inplace",
						"label": "bool",
						"numberOfBytes": "1"
					},
					"t_enum(BallotState)195": {
						"encoding": "inplace",
						"label": "enum MyHomesToken.BallotState",
						"numberOfBytes": "1"
					},
					"t_enum(State)198": {
						"encoding": "inplace",
						"label": "enum MyHomesToken.State",
						"numberOfBytes": "1"
					},
					"t_mapping(t_address,t_struct(ShareHolder)102_storage)": {
						"encoding": "mapping",
						"key": "t_address",
						"label": "mapping(address => struct MyHomesToken.ShareHolder)",
						"numberOfBytes": "32",
						"value": "t_struct(ShareHolder)102_storage"
					},
					"t_mapping(t_address,t_uint256)": {
						"encoding": "mapping",
						"key": "t_address",
						"label": "mapping(address => uint256)",
						"numberOfBytes": "32",
						"value": "t_uint256"
					},
					"t_mapping(t_uint256,t_struct(Vote)125_storage)": {
						"encoding": "mapping",
						"key": "t_uint256",
						"label": "mapping(uint256 => struct MyHomesToken.Vote)",
						"numberOfBytes": "32",
						"value": "t_struct(Vote)125_storage"
					},
					"t_string_storage": {
						"encoding": "bytes",
						"label": "string",
						"numberOfBytes": "32"
					},
					"t_struct(House)109_storage": {
						"encoding": "inplace",
						"label": "struct MyHomesToken.House",
						"members": [
							{
								"astId": 104,
								"contract": "MyHomeToken.sol:MyHomesToken",
								"label": "registrationId",
								"offset": 0,
								"slot": "0",
								"type": "t_string_storage"
							},
							{
								"astId": 106,
								"contract": "MyHomeToken.sol:MyHomesToken",
								"label": "physicalAddress",
								"offset": 0,
								"slot": "1",
								"type": "t_string_storage"
							},
							{
								"astId": 108,
								"contract": "MyHomeToken.sol:MyHomesToken",
								"label": "price",
								"offset": 0,
								"slot": "2",
								"type": "t_uint256"
							}
						],
						"numberOfBytes": "96"
					},
					"t_struct(HousingPackage)120_storage": {
						"encoding": "inplace",
						"label": "struct MyHomesToken.HousingPackage",
						"members": [
							{
								"astId": 111,
								"contract": "MyHomeToken.sol:MyHomesToken",
								"label": "name",
								"offset": 0,
								"slot": "0",
								"type": "t_string_storage"
							},
							{
								"astId": 113,
								"contract": "MyHomeToken.sol:MyHomesToken",
								"label": "description",
								"offset": 0,
								"slot": "1",
								"type": "t_string_storage"
							},
							{
								"astId": 117,
								"contract": "MyHomeToken.sol:MyHomesToken",
								"label": "residences",
								"offset": 0,
								"slot": "2",
								"type": "t_array(t_struct(House)109_storage)dyn_storage"
							},
							{
								"astId": 119,
								"contract": "MyHomeToken.sol:MyHomesToken",
								"label": "totalValue",
								"offset": 0,
								"slot": "3",
								"type": "t_uint256"
							}
						],
						"numberOfBytes": "128"
					},
					"t_struct(ShareHolder)102_storage": {
						"encoding": "inplace",
						"label": "struct MyHomesToken.ShareHolder",
						"members": [
							{
								"astId": 99,
								"contract": "MyHomeToken.sol:MyHomesToken",
								"label": "name",
								"offset": 0,
								"slot": "0",
								"type": "t_string_storage"
							},
							{
								"astId": 101,
								"contract": "MyHomeToken.sol:MyHomesToken",
								"label": "voted",
								"offset": 0,
								"slot": "1",
								"type": "t_bool"
							}
						],
						"numberOfBytes": "64"
					},
					"t_struct(Vote)125_storage": {
						"encoding": "inplace",
						"label": "struct MyHomesToken.Vote",
						"members": [
							{
								"astId": 122,
								"contract": "MyHomeToken.sol:MyHomesToken",
								"label": "shareHolderAddress",
								"offset": 0,
								"slot": "0",
								"type": "t_address"
							},
							{
								"astId": 124,
								"contract": "MyHomeToken.sol:MyHomesToken",
								"label": "choice",
								"offset": 20,
								"slot": "0",
								"type": "t_bool"
							}
						],
						"numberOfBytes": "32"
					},
					"t_uint256": {
						"encoding": "inplace",
						"label": "uint256",
						"numberOfBytes": "32"
					}
				}
			},
			"userdoc": {
				"kind": "user",
				"methods": {},
				"version": 1
			}
		}
	}
}