{
	"MyHomeToken.sol": {
		"MyHomesToken": {
			"abi": [
				{
					"inputs": [
						{
							"internalType": "string",
							"name": "_name",
							"type": "string"
						},
						{
							"internalType": "string",
							"name": "_description",
							"type": "string"
						}
					],
					"stateMutability": "nonpayable",
					"type": "constructor"
				},
				{
					"anonymous": false,
					"inputs": [
						{
							"indexed": false,
							"internalType": "string",
							"name": "id",
							"type": "string"
						}
					],
					"name": "NewHouseAdded",
					"type": "event"
				},
				{
					"anonymous": false,
					"inputs": [
						{
							"indexed": false,
							"internalType": "address",
							"name": "sh",
							"type": "address"
						}
					],
					"name": "ShareHolderAdded",
					"type": "event"
				},
				{
					"anonymous": false,
					"inputs": [
						{
							"indexed": false,
							"internalType": "address",
							"name": "shareHolder",
							"type": "address"
						}
					],
					"name": "voteDone",
					"type": "event"
				},
				{
					"anonymous": false,
					"inputs": [
						{
							"indexed": false,
							"internalType": "uint256",
							"name": "finalResult",
							"type": "uint256"
						}
					],
					"name": "voteEnded",
					"type": "event"
				},
				{
					"anonymous": false,
					"inputs": [],
					"name": "voteStarted",
					"type": "event"
				},
				{
					"inputs": [
						{
							"internalType": "string",
							"name": "_registrationId",
							"type": "string"
						},
						{
							"internalType": "string",
							"name": "location",
							"type": "string"
						},
						{
							"internalType": "uint256",
							"name": "price",
							"type": "uint256"
						}
					],
					"name": "addHouse",
					"outputs": [],
					"stateMutability": "nonpayable",
					"type": "function"
				},
				{
					"inputs": [
						{
							"internalType": "address",
							"name": "_shareHolderAddress",
							"type": "address"
						}
					],
					"name": "addShareHolder",
					"outputs": [],
					"stateMutability": "nonpayable",
					"type": "function"
				},
				{
					"inputs": [],
					"name": "ballotInitiator",
					"outputs": [
						{
							"internalType": "address",
							"name": "",
							"type": "address"
						}
					],
					"stateMutability": "view",
					"type": "function"
				},
				{
					"inputs": [],
					"name": "ballotName",
					"outputs": [
						{
							"internalType": "string",
							"name": "",
							"type": "string"
						}
					],
					"stateMutability": "view",
					"type": "function"
				},
				{
					"inputs": [
						{
							"internalType": "uint256",
							"name": "_amount",
							"type": "uint256"
						}
					],
					"name": "buy",
					"outputs": [],
					"stateMutability": "payable",
					"type": "function"
				},
				{
					"inputs": [
						{
							"internalType": "string",
							"name": "_ballotName",
							"type": "string"
						},
						{
							"internalType": "string",
							"name": "_proposal",
							"type": "string"
						}
					],
					"name": "createBallot",
					"outputs": [],
					"stateMutability": "nonpayable",
					"type": "function"
				},
				{
					"inputs": [
						{
							"internalType": "bool",
							"name": "_choice",
							"type": "bool"
						}
					],
					"name": "doVote",
					"outputs": [
						{
							"internalType": "bool",
							"name": "voted",
							"type": "bool"
						}
					],
					"stateMutability": "nonpayable",
					"type": "function"
				},
				{
					"inputs": [],
					"name": "endVote",
					"outputs": [],
					"stateMutability": "nonpayable",
					"type": "function"
				},
				{
					"inputs": [
						{
							"internalType": "address",
							"name": "_addr",
							"type": "address"
						}
					],
					"name": "etherBalance",
					"outputs": [
						{
							"internalType": "uint256",
							"name": "",
							"type": "uint256"
						}
					],
					"stateMutability": "view",
					"type": "function"
				},
				{
					"inputs": [],
					"name": "finalResult",
					"outputs": [
						{
							"internalType": "uint256",
							"name": "",
							"type": "uint256"
						}
					],
					"stateMutability": "view",
					"type": "function"
				},
				{
					"inputs": [
						{
							"internalType": "uint256",
							"name": "",
							"type": "uint256"
						}
					],
					"name": "houseRegister",
					"outputs": [
						{
							"internalType": "string",
							"name": "registrationId",
							"type": "string"
						},
						{
							"internalType": "string",
							"name": "physicalAddress",
							"type": "string"
						},
						{
							"internalType": "uint256",
							"name": "price",
							"type": "uint256"
						}
					],
					"stateMutability": "view",
					"type": "function"
				},
				{
					"inputs": [],
					"name": "hp",
					"outputs": [
						{
							"internalType": "string",
							"name": "name",
							"type": "string"
						},
						{
							"internalType": "string",
							"name": "description",
							"type": "string"
						},
						{
							"internalType": "uint256",
							"name": "totalValue",
							"type": "uint256"
						}
					],
					"stateMutability": "view",
					"type": "function"
				},
				{
					"inputs": [],
					"name": "owner",
					"outputs": [
						{
							"internalType": "address",
							"name": "",
							"type": "address"
						}
					],
					"stateMutability": "view",
					"type": "function"
				},
				{
					"inputs": [],
					"name": "proposal",
					"outputs": [
						{
							"internalType": "string",
							"name": "",
							"type": "string"
						}
					],
					"stateMutability": "view",
					"type": "function"
				},
				{
					"inputs": [
						{
							"internalType": "uint256",
							"name": "_amount",
							"type": "uint256"
						}
					],
					"name": "sell",
					"outputs": [],
					"stateMutability": "nonpayable",
					"type": "function"
				},
				{
					"inputs": [
						{
							"internalType": "address",
							"name": "",
							"type": "address"
						}
					],
					"name": "shareHolderRegistry",
					"outputs": [
						{
							"internalType": "bool",
							"name": "",
							"type": "bool"
						}
					],
					"stateMutability": "view",
					"type": "function"
				},
				{
					"inputs": [
						{
							"internalType": "uint256",
							"name": "",
							"type": "uint256"
						}
					],
					"name": "shareHolders",
					"outputs": [
						{
							"internalType": "address",
							"name": "",
							"type": "address"
						}
					],
					"stateMutability": "view",
					"type": "function"
				},
				{
					"inputs": [],
					"name": "shareLimit",
					"outputs": [
						{
							"internalType": "uint256",
							"name": "",
							"type": "uint256"
						}
					],
					"stateMutability": "view",
					"type": "function"
				},
				{
					"inputs": [],
					"name": "startTrading",
					"outputs": [],
					"stateMutability": "nonpayable",
					"type": "function"
				},
				{
					"inputs": [],
					"name": "startVote",
					"outputs": [],
					"stateMutability": "nonpayable",
					"type": "function"
				},
				{
					"inputs": [],
					"name": "tokenPrice",
					"outputs": [
						{
							"internalType": "uint256",
							"name": "",
							"type": "uint256"
						}
					],
					"stateMutability": "view",
					"type": "function"
				},
				{
					"inputs": [],
					"name": "totalHouses",
					"outputs": [
						{
							"internalType": "uint256",
							"name": "",
							"type": "uint256"
						}
					],
					"stateMutability": "view",
					"type": "function"
				},
				{
					"inputs": [],
					"name": "totalShareHolders",
					"outputs": [
						{
							"internalType": "uint256",
							"name": "",
							"type": "uint256"
						}
					],
					"stateMutability": "view",
					"type": "function"
				},
				{
					"inputs": [],
					"name": "totalShares",
					"outputs": [
						{
							"internalType": "uint256",
							"name": "",
							"type": "uint256"
						}
					],
					"stateMutability": "view",
					"type": "function"
				},
				{
					"inputs": [],
					"name": "totalVotes",
					"outputs": [
						{
							"internalType": "uint256",
							"name": "",
							"type": "uint256"
						}
					],
					"stateMutability": "view",
					"type": "function"
				},
				{
					"inputs": [
						{
							"internalType": "address",
							"name": "_to",
							"type": "address"
						},
						{
							"internalType": "uint256",
							"name": "_value",
							"type": "uint256"
						}
					],
					"name": "transfer",
					"outputs": [],
					"stateMutability": "nonpayable",
					"type": "function"
				}
			],
			"devdoc": {
				"kind": "dev",
				"methods": {},
				"version": 1
			},
			"evm": {
				"assembly": "    /* \"MyHomeToken.sol\":66:5288  contract MyHomesToken {... */\n  mstore(0x40, 0x80)\n    /* \"MyHomeToken.sol\":210:211  0 */\n  0x00\n    /* \"MyHomeToken.sol\":184:211  uint public totalHouses = 0 */\n  0x05\n  sstore\n    /* \"MyHomeToken.sol\":246:249  100 */\n  0x64\n    /* \"MyHomeToken.sol\":217:249  uint256 public totalShares = 100 */\n  0x06\n  sstore\n    /* \"MyHomeToken.sol\":283:284  1 */\n  0x01\n    /* \"MyHomeToken.sol\":255:284  uint256 public tokenPrice = 1 */\n  0x07\n  sstore\n    /* \"MyHomeToken.sol\":318:320  10 */\n  0x0a\n    /* \"MyHomeToken.sol\":290:320  uint256 public shareLimit = 10 */\n  0x08\n  sstore\n    /* \"MyHomeToken.sol\":358:359  0 */\n  0x00\n    /* \"MyHomeToken.sol\":326:359  uint public totalShareHolders = 0 */\n  0x09\n  sstore\n    /* \"MyHomeToken.sol\":707:708  0 */\n  0x00\n    /* \"MyHomeToken.sol\":680:708  uint private resultCount = 0 */\n  0x11\n  sstore\n    /* \"MyHomeToken.sol\":740:741  0 */\n  0x00\n    /* \"MyHomeToken.sol\":714:741  uint public finalResult = 0 */\n  0x12\n  sstore\n    /* \"MyHomeToken.sol\":772:773  0 */\n  0x00\n    /* \"MyHomeToken.sol\":747:773  uint public totalVotes = 0 */\n  0x13\n  sstore\n    /* \"MyHomeToken.sol\":822:1085  constructor(string memory _name, string memory _description) {... */\n  callvalue\n  dup1\n  iszero\n  tag_1\n  jumpi\n  0x00\n  dup1\n  revert\ntag_1:\n  pop\n  mload(0x40)\n  sub(codesize, bytecodeSize)\n  dup1\n  bytecodeSize\n  dup4\n  codecopy\n  dup2\n  dup2\n  add\n  0x40\n  mstore\n  dup2\n  add\n  swap1\n  tag_2\n  swap2\n  swap1\n  tag_3\n  jump\t// in\ntag_2:\n    /* \"MyHomeToken.sol\":901:911  msg.sender */\n  caller\n    /* \"MyHomeToken.sol\":893:898  owner */\n  0x00\n  dup1\n    /* \"MyHomeToken.sol\":893:911  owner = msg.sender */\n  0x0100\n  exp\n  dup2\n  sload\n  dup2\n  0xffffffffffffffffffffffffffffffffffffffff\n  mul\n  not\n  and\n  swap1\n  dup4\n  0xffffffffffffffffffffffffffffffffffffffff\n  and\n  mul\n  or\n  swap1\n  sstore\n  pop\n    /* \"MyHomeToken.sol\":945:956  totalShares */\n  sload(0x06)\n    /* \"MyHomeToken.sol\":921:930  balanceOf */\n  0x0d\n    /* \"MyHomeToken.sol\":921:942  balanceOf[msg.sender] */\n  0x00\n    /* \"MyHomeToken.sol\":931:941  msg.sender */\n  caller\n    /* \"MyHomeToken.sol\":921:942  balanceOf[msg.sender] */\n  0xffffffffffffffffffffffffffffffffffffffff\n  and\n  0xffffffffffffffffffffffffffffffffffffffff\n  and\n  dup2\n  mstore\n  0x20\n  add\n  swap1\n  dup2\n  mstore\n  0x20\n  add\n  0x00\n  keccak256\n    /* \"MyHomeToken.sol\":921:956  balanceOf[msg.sender] = totalShares */\n  dup2\n  swap1\n  sstore\n  pop\n    /* \"MyHomeToken.sol\":976:981  _name */\n  dup2\n    /* \"MyHomeToken.sol\":966:968  hp */\n  0x01\n    /* \"MyHomeToken.sol\":966:973  hp.name */\n  0x00\n  add\n    /* \"MyHomeToken.sol\":966:981  hp.name = _name */\n  swap1\n  dup1\n  mload\n  swap1\n  0x20\n  add\n  swap1\n  tag_6\n  swap3\n  swap2\n  swap1\n  tag_7\n  jump\t// in\ntag_6:\n  pop\n    /* \"MyHomeToken.sol\":1008:1020  _description */\n  dup1\n    /* \"MyHomeToken.sol\":991:993  hp */\n  0x01\n    /* \"MyHomeToken.sol\":991:1005  hp.description */\n  dup1\n  add\n    /* \"MyHomeToken.sol\":991:1020  hp.description = _description */\n  swap1\n  dup1\n  mload\n  swap1\n  0x20\n  add\n  swap1\n  tag_8\n  swap3\n  swap2\n  swap1\n  tag_7\n  jump\t// in\ntag_8:\n  pop\n    /* \"MyHomeToken.sol\":1046:1047  0 */\n  0x00\n    /* \"MyHomeToken.sol\":1030:1032  hp */\n  0x01\n    /* \"MyHomeToken.sol\":1030:1043  hp.totalValue */\n  0x02\n  add\n    /* \"MyHomeToken.sol\":1030:1047  hp.totalValue = 0 */\n  dup2\n  swap1\n  sstore\n  pop\n    /* \"MyHomeToken.sol\":1065:1078  State.Created */\n  0x00\n    /* \"MyHomeToken.sol\":1057:1062  state */\n  0x0a\n  0x00\n    /* \"MyHomeToken.sol\":1057:1078  state = State.Created */\n  0x0100\n  exp\n  dup2\n  sload\n  dup2\n  0xff\n  mul\n  not\n  and\n  swap1\n  dup4\n  0x01\n  dup2\n  gt\n  iszero\n  tag_9\n  jumpi\n  tag_10\n  tag_11\n  jump\t// in\ntag_10:\ntag_9:\n  mul\n  or\n  swap1\n  sstore\n  pop\n    /* \"MyHomeToken.sol\":822:1085  constructor(string memory _name, string memory _description) {... */\n  pop\n  pop\n    /* \"MyHomeToken.sol\":66:5288  contract MyHomesToken {... */\n  jump(tag_12)\ntag_7:\n  dup3\n  dup1\n  sload\n  tag_13\n  swap1\n  tag_14\n  jump\t// in\ntag_13:\n  swap1\n  0x00\n  mstore\n  keccak256(0x00, 0x20)\n  swap1\n  0x1f\n  add\n  0x20\n  swap1\n  div\n  dup2\n  add\n  swap3\n  dup3\n  tag_16\n  jumpi\n  0x00\n  dup6\n  sstore\n  jump(tag_15)\ntag_16:\n  dup3\n  0x1f\n  lt\n  tag_17\n  jumpi\n  dup1\n  mload\n  not(0xff)\n  and\n  dup4\n  dup1\n  add\n  or\n  dup6\n  sstore\n  jump(tag_15)\ntag_17:\n  dup3\n  dup1\n  add\n  0x01\n  add\n  dup6\n  sstore\n  dup3\n  iszero\n  tag_15\n  jumpi\n  swap2\n  dup3\n  add\ntag_18:\n  dup3\n  dup2\n  gt\n  iszero\n  tag_19\n  jumpi\n  dup3\n  mload\n  dup3\n  sstore\n  swap2\n  0x20\n  add\n  swap2\n  swap1\n  0x01\n  add\n  swap1\n  jump(tag_18)\ntag_19:\ntag_15:\n  pop\n  swap1\n  pop\n  tag_20\n  swap2\n  swap1\n  tag_21\n  jump\t// in\ntag_20:\n  pop\n  swap1\n  jump\t// out\ntag_21:\ntag_22:\n  dup1\n  dup3\n  gt\n  iszero\n  tag_23\n  jumpi\n  0x00\n  dup2\n  0x00\n  swap1\n  sstore\n  pop\n  0x01\n  add\n  jump(tag_22)\ntag_23:\n  pop\n  swap1\n  jump\t// out\n    /* \"#utility.yul\":7:428   */\ntag_25:\n    /* \"#utility.yul\":96:101   */\n  0x00\n    /* \"#utility.yul\":121:187   */\n  tag_27\n    /* \"#utility.yul\":137:186   */\n  tag_28\n    /* \"#utility.yul\":179:185   */\n  dup5\n    /* \"#utility.yul\":137:186   */\n  tag_29\n  jump\t// in\ntag_28:\n    /* \"#utility.yul\":121:187   */\n  tag_30\n  jump\t// in\ntag_27:\n    /* \"#utility.yul\":112:187   */\n  swap1\n  pop\n    /* \"#utility.yul\":210:216   */\n  dup3\n    /* \"#utility.yul\":203:208   */\n  dup2\n    /* \"#utility.yul\":196:217   */\n  mstore\n    /* \"#utility.yul\":248:252   */\n  0x20\n    /* \"#utility.yul\":241:246   */\n  dup2\n    /* \"#utility.yul\":237:253   */\n  add\n    /* \"#utility.yul\":286:289   */\n  dup5\n    /* \"#utility.yul\":277:283   */\n  dup5\n    /* \"#utility.yul\":272:275   */\n  dup5\n    /* \"#utility.yul\":268:284   */\n  add\n    /* \"#utility.yul\":265:290   */\n  gt\n    /* \"#utility.yul\":262:374   */\n  iszero\n  tag_31\n  jumpi\n    /* \"#utility.yul\":293:372   */\n  tag_32\n  tag_33\n  jump\t// in\ntag_32:\n    /* \"#utility.yul\":262:374   */\ntag_31:\n    /* \"#utility.yul\":383:422   */\n  tag_34\n    /* \"#utility.yul\":415:421   */\n  dup5\n    /* \"#utility.yul\":410:413   */\n  dup3\n    /* \"#utility.yul\":405:408   */\n  dup6\n    /* \"#utility.yul\":383:422   */\n  tag_35\n  jump\t// in\ntag_34:\n    /* \"#utility.yul\":102:428   */\n  pop\n    /* \"#utility.yul\":7:428   */\n  swap4\n  swap3\n  pop\n  pop\n  pop\n  jump\t// out\n    /* \"#utility.yul\":448:803   */\ntag_36:\n    /* \"#utility.yul\":515:520   */\n  0x00\n    /* \"#utility.yul\":564:567   */\n  dup3\n    /* \"#utility.yul\":557:561   */\n  0x1f\n    /* \"#utility.yul\":549:555   */\n  dup4\n    /* \"#utility.yul\":545:562   */\n  add\n    /* \"#utility.yul\":541:568   */\n  slt\n    /* \"#utility.yul\":531:653   */\n  tag_38\n  jumpi\n    /* \"#utility.yul\":572:651   */\n  tag_39\n  tag_40\n  jump\t// in\ntag_39:\n    /* \"#utility.yul\":531:653   */\ntag_38:\n    /* \"#utility.yul\":682:688   */\n  dup2\n    /* \"#utility.yul\":676:689   */\n  mload\n    /* \"#utility.yul\":707:797   */\n  tag_41\n    /* \"#utility.yul\":793:796   */\n  dup5\n    /* \"#utility.yul\":785:791   */\n  dup3\n    /* \"#utility.yul\":778:782   */\n  0x20\n    /* \"#utility.yul\":770:776   */\n  dup7\n    /* \"#utility.yul\":766:783   */\n  add\n    /* \"#utility.yul\":707:797   */\n  tag_25\n  jump\t// in\ntag_41:\n    /* \"#utility.yul\":698:797   */\n  swap2\n  pop\n    /* \"#utility.yul\":521:803   */\n  pop\n    /* \"#utility.yul\":448:803   */\n  swap3\n  swap2\n  pop\n  pop\n  jump\t// out\n    /* \"#utility.yul\":809:1662   */\ntag_3:\n    /* \"#utility.yul\":908:914   */\n  0x00\n    /* \"#utility.yul\":916:922   */\n  dup1\n    /* \"#utility.yul\":965:967   */\n  0x40\n    /* \"#utility.yul\":953:962   */\n  dup4\n    /* \"#utility.yul\":944:951   */\n  dup6\n    /* \"#utility.yul\":940:963   */\n  sub\n    /* \"#utility.yul\":936:968   */\n  slt\n    /* \"#utility.yul\":933:1052   */\n  iszero\n  tag_43\n  jumpi\n    /* \"#utility.yul\":971:1050   */\n  tag_44\n  tag_45\n  jump\t// in\ntag_44:\n    /* \"#utility.yul\":933:1052   */\ntag_43:\n    /* \"#utility.yul\":1112:1113   */\n  0x00\n    /* \"#utility.yul\":1101:1110   */\n  dup4\n    /* \"#utility.yul\":1097:1114   */\n  add\n    /* \"#utility.yul\":1091:1115   */\n  mload\n    /* \"#utility.yul\":1142:1160   */\n  0xffffffffffffffff\n    /* \"#utility.yul\":1134:1140   */\n  dup2\n    /* \"#utility.yul\":1131:1161   */\n  gt\n    /* \"#utility.yul\":1128:1245   */\n  iszero\n  tag_46\n  jumpi\n    /* \"#utility.yul\":1164:1243   */\n  tag_47\n  tag_48\n  jump\t// in\ntag_47:\n    /* \"#utility.yul\":1128:1245   */\ntag_46:\n    /* \"#utility.yul\":1269:1343   */\n  tag_49\n    /* \"#utility.yul\":1335:1342   */\n  dup6\n    /* \"#utility.yul\":1326:1332   */\n  dup3\n    /* \"#utility.yul\":1315:1324   */\n  dup7\n    /* \"#utility.yul\":1311:1333   */\n  add\n    /* \"#utility.yul\":1269:1343   */\n  tag_36\n  jump\t// in\ntag_49:\n    /* \"#utility.yul\":1259:1343   */\n  swap3\n  pop\n    /* \"#utility.yul\":1062:1353   */\n  pop\n    /* \"#utility.yul\":1413:1415   */\n  0x20\n    /* \"#utility.yul\":1402:1411   */\n  dup4\n    /* \"#utility.yul\":1398:1416   */\n  add\n    /* \"#utility.yul\":1392:1417   */\n  mload\n    /* \"#utility.yul\":1444:1462   */\n  0xffffffffffffffff\n    /* \"#utility.yul\":1436:1442   */\n  dup2\n    /* \"#utility.yul\":1433:1463   */\n  gt\n    /* \"#utility.yul\":1430:1547   */\n  iszero\n  tag_50\n  jumpi\n    /* \"#utility.yul\":1466:1545   */\n  tag_51\n  tag_48\n  jump\t// in\ntag_51:\n    /* \"#utility.yul\":1430:1547   */\ntag_50:\n    /* \"#utility.yul\":1571:1645   */\n  tag_52\n    /* \"#utility.yul\":1637:1644   */\n  dup6\n    /* \"#utility.yul\":1628:1634   */\n  dup3\n    /* \"#utility.yul\":1617:1626   */\n  dup7\n    /* \"#utility.yul\":1613:1635   */\n  add\n    /* \"#utility.yul\":1571:1645   */\n  tag_36\n  jump\t// in\ntag_52:\n    /* \"#utility.yul\":1561:1645   */\n  swap2\n  pop\n    /* \"#utility.yul\":1363:1655   */\n  pop\n    /* \"#utility.yul\":809:1662   */\n  swap3\n  pop\n  swap3\n  swap1\n  pop\n  jump\t// out\n    /* \"#utility.yul\":1668:1797   */\ntag_30:\n    /* \"#utility.yul\":1702:1708   */\n  0x00\n    /* \"#utility.yul\":1729:1749   */\n  tag_54\n  tag_55\n  jump\t// in\ntag_54:\n    /* \"#utility.yul\":1719:1749   */\n  swap1\n  pop\n    /* \"#utility.yul\":1758:1791   */\n  tag_56\n    /* \"#utility.yul\":1786:1790   */\n  dup3\n    /* \"#utility.yul\":1778:1784   */\n  dup3\n    /* \"#utility.yul\":1758:1791   */\n  tag_57\n  jump\t// in\ntag_56:\n    /* \"#utility.yul\":1668:1797   */\n  swap2\n  swap1\n  pop\n  jump\t// out\n    /* \"#utility.yul\":1803:1878   */\ntag_55:\n    /* \"#utility.yul\":1836:1842   */\n  0x00\n    /* \"#utility.yul\":1869:1871   */\n  0x40\n    /* \"#utility.yul\":1863:1872   */\n  mload\n    /* \"#utility.yul\":1853:1872   */\n  swap1\n  pop\n    /* \"#utility.yul\":1803:1878   */\n  swap1\n  jump\t// out\n    /* \"#utility.yul\":1884:2192   */\ntag_29:\n    /* \"#utility.yul\":1946:1950   */\n  0x00\n    /* \"#utility.yul\":2036:2054   */\n  0xffffffffffffffff\n    /* \"#utility.yul\":2028:2034   */\n  dup3\n    /* \"#utility.yul\":2025:2055   */\n  gt\n    /* \"#utility.yul\":2022:2078   */\n  iszero\n  tag_60\n  jumpi\n    /* \"#utility.yul\":2058:2076   */\n  tag_61\n  tag_62\n  jump\t// in\ntag_61:\n    /* \"#utility.yul\":2022:2078   */\ntag_60:\n    /* \"#utility.yul\":2096:2125   */\n  tag_63\n    /* \"#utility.yul\":2118:2124   */\n  dup3\n    /* \"#utility.yul\":2096:2125   */\n  tag_64\n  jump\t// in\ntag_63:\n    /* \"#utility.yul\":2088:2125   */\n  swap1\n  pop\n    /* \"#utility.yul\":2180:2184   */\n  0x20\n    /* \"#utility.yul\":2174:2178   */\n  dup2\n    /* \"#utility.yul\":2170:2185   */\n  add\n    /* \"#utility.yul\":2162:2185   */\n  swap1\n  pop\n    /* \"#utility.yul\":1884:2192   */\n  swap2\n  swap1\n  pop\n  jump\t// out\n    /* \"#utility.yul\":2198:2505   */\ntag_35:\n    /* \"#utility.yul\":2266:2267   */\n  0x00\n    /* \"#utility.yul\":2276:2389   */\ntag_66:\n    /* \"#utility.yul\":2290:2296   */\n  dup4\n    /* \"#utility.yul\":2287:2288   */\n  dup2\n    /* \"#utility.yul\":2284:2297   */\n  lt\n    /* \"#utility.yul\":2276:2389   */\n  iszero\n  tag_68\n  jumpi\n    /* \"#utility.yul\":2375:2376   */\n  dup1\n    /* \"#utility.yul\":2370:2373   */\n  dup3\n    /* \"#utility.yul\":2366:2377   */\n  add\n    /* \"#utility.yul\":2360:2378   */\n  mload\n    /* \"#utility.yul\":2356:2357   */\n  dup2\n    /* \"#utility.yul\":2351:2354   */\n  dup5\n    /* \"#utility.yul\":2347:2358   */\n  add\n    /* \"#utility.yul\":2340:2379   */\n  mstore\n    /* \"#utility.yul\":2312:2314   */\n  0x20\n    /* \"#utility.yul\":2309:2310   */\n  dup2\n    /* \"#utility.yul\":2305:2315   */\n  add\n    /* \"#utility.yul\":2300:2315   */\n  swap1\n  pop\n    /* \"#utility.yul\":2276:2389   */\n  jump(tag_66)\ntag_68:\n    /* \"#utility.yul\":2407:2413   */\n  dup4\n    /* \"#utility.yul\":2404:2405   */\n  dup2\n    /* \"#utility.yul\":2401:2414   */\n  gt\n    /* \"#utility.yul\":2398:2499   */\n  iszero\n  tag_69\n  jumpi\n    /* \"#utility.yul\":2487:2488   */\n  0x00\n    /* \"#utility.yul\":2478:2484   */\n  dup5\n    /* \"#utility.yul\":2473:2476   */\n  dup5\n    /* \"#utility.yul\":2469:2485   */\n  add\n    /* \"#utility.yul\":2462:2489   */\n  mstore\n    /* \"#utility.yul\":2398:2499   */\ntag_69:\n    /* \"#utility.yul\":2247:2505   */\n  pop\n    /* \"#utility.yul\":2198:2505   */\n  pop\n  pop\n  pop\n  jump\t// out\n    /* \"#utility.yul\":2511:2831   */\ntag_14:\n    /* \"#utility.yul\":2555:2561   */\n  0x00\n    /* \"#utility.yul\":2592:2593   */\n  0x02\n    /* \"#utility.yul\":2586:2590   */\n  dup3\n    /* \"#utility.yul\":2582:2594   */\n  div\n    /* \"#utility.yul\":2572:2594   */\n  swap1\n  pop\n    /* \"#utility.yul\":2639:2640   */\n  0x01\n    /* \"#utility.yul\":2633:2637   */\n  dup3\n    /* \"#utility.yul\":2629:2641   */\n  and\n    /* \"#utility.yul\":2660:2678   */\n  dup1\n    /* \"#utility.yul\":2650:2731   */\n  tag_71\n  jumpi\n    /* \"#utility.yul\":2716:2720   */\n  0x7f\n    /* \"#utility.yul\":2708:2714   */\n  dup3\n    /* \"#utility.yul\":2704:2721   */\n  and\n    /* \"#utility.yul\":2694:2721   */\n  swap2\n  pop\n    /* \"#utility.yul\":2650:2731   */\ntag_71:\n    /* \"#utility.yul\":2778:2780   */\n  0x20\n    /* \"#utility.yul\":2770:2776   */\n  dup3\n    /* \"#utility.yul\":2767:2781   */\n  lt\n    /* \"#utility.yul\":2747:2765   */\n  dup2\n    /* \"#utility.yul\":2744:2782   */\n  eq\n    /* \"#utility.yul\":2741:2825   */\n  iszero\n  tag_72\n  jumpi\n    /* \"#utility.yul\":2797:2815   */\n  tag_73\n  tag_74\n  jump\t// in\ntag_73:\n    /* \"#utility.yul\":2741:2825   */\ntag_72:\n    /* \"#utility.yul\":2562:2831   */\n  pop\n    /* \"#utility.yul\":2511:2831   */\n  swap2\n  swap1\n  pop\n  jump\t// out\n    /* \"#utility.yul\":2837:3118   */\ntag_57:\n    /* \"#utility.yul\":2920:2947   */\n  tag_76\n    /* \"#utility.yul\":2942:2946   */\n  dup3\n    /* \"#utility.yul\":2920:2947   */\n  tag_64\n  jump\t// in\ntag_76:\n    /* \"#utility.yul\":2912:2918   */\n  dup2\n    /* \"#utility.yul\":2908:2948   */\n  add\n    /* \"#utility.yul\":3050:3056   */\n  dup2\n    /* \"#utility.yul\":3038:3048   */\n  dup2\n    /* \"#utility.yul\":3035:3057   */\n  lt\n    /* \"#utility.yul\":3014:3032   */\n  0xffffffffffffffff\n    /* \"#utility.yul\":3002:3012   */\n  dup3\n    /* \"#utility.yul\":2999:3033   */\n  gt\n    /* \"#utility.yul\":2996:3058   */\n  or\n    /* \"#utility.yul\":2993:3081   */\n  iszero\n  tag_77\n  jumpi\n    /* \"#utility.yul\":3061:3079   */\n  tag_78\n  tag_62\n  jump\t// in\ntag_78:\n    /* \"#utility.yul\":2993:3081   */\ntag_77:\n    /* \"#utility.yul\":3101:3111   */\n  dup1\n    /* \"#utility.yul\":3097:3099   */\n  0x40\n    /* \"#utility.yul\":3090:3112   */\n  mstore\n    /* \"#utility.yul\":2880:3118   */\n  pop\n    /* \"#utility.yul\":2837:3118   */\n  pop\n  pop\n  jump\t// out\n    /* \"#utility.yul\":3124:3304   */\ntag_11:\n    /* \"#utility.yul\":3172:3249   */\n  0x4e487b7100000000000000000000000000000000000000000000000000000000\n    /* \"#utility.yul\":3169:3170   */\n  0x00\n    /* \"#utility.yul\":3162:3250   */\n  mstore\n    /* \"#utility.yul\":3269:3273   */\n  0x21\n    /* \"#utility.yul\":3266:3267   */\n  0x04\n    /* \"#utility.yul\":3259:3274   */\n  mstore\n    /* \"#utility.yul\":3293:3297   */\n  0x24\n    /* \"#utility.yul\":3290:3291   */\n  0x00\n    /* \"#utility.yul\":3283:3298   */\n  revert\n    /* \"#utility.yul\":3310:3490   */\ntag_74:\n    /* \"#utility.yul\":3358:3435   */\n  0x4e487b7100000000000000000000000000000000000000000000000000000000\n    /* \"#utility.yul\":3355:3356   */\n  0x00\n    /* \"#utility.yul\":3348:3436   */\n  mstore\n    /* \"#utility.yul\":3455:3459   */\n  0x22\n    /* \"#utility.yul\":3452:3453   */\n  0x04\n    /* \"#utility.yul\":3445:3460   */\n  mstore\n    /* \"#utility.yul\":3479:3483   */\n  0x24\n    /* \"#utility.yul\":3476:3477   */\n  0x00\n    /* \"#utility.yul\":3469:3484   */\n  revert\n    /* \"#utility.yul\":3496:3676   */\ntag_62:\n    /* \"#utility.yul\":3544:3621   */\n  0x4e487b7100000000000000000000000000000000000000000000000000000000\n    /* \"#utility.yul\":3541:3542   */\n  0x00\n    /* \"#utility.yul\":3534:3622   */\n  mstore\n    /* \"#utility.yul\":3641:3645   */\n  0x41\n    /* \"#utility.yul\":3638:3639   */\n  0x04\n    /* \"#utility.yul\":3631:3646   */\n  mstore\n    /* \"#utility.yul\":3665:3669   */\n  0x24\n    /* \"#utility.yul\":3662:3663   */\n  0x00\n    /* \"#utility.yul\":3655:3670   */\n  revert\n    /* \"#utility.yul\":3682:3799   */\ntag_40:\n    /* \"#utility.yul\":3791:3792   */\n  0x00\n    /* \"#utility.yul\":3788:3789   */\n  dup1\n    /* \"#utility.yul\":3781:3793   */\n  revert\n    /* \"#utility.yul\":3805:3922   */\ntag_33:\n    /* \"#utility.yul\":3914:3915   */\n  0x00\n    /* \"#utility.yul\":3911:3912   */\n  dup1\n    /* \"#utility.yul\":3904:3916   */\n  revert\n    /* \"#utility.yul\":3928:4045   */\ntag_48:\n    /* \"#utility.yul\":4037:4038   */\n  0x00\n    /* \"#utility.yul\":4034:4035   */\n  dup1\n    /* \"#utility.yul\":4027:4039   */\n  revert\n    /* \"#utility.yul\":4051:4168   */\ntag_45:\n    /* \"#utility.yul\":4160:4161   */\n  0x00\n    /* \"#utility.yul\":4157:4158   */\n  dup1\n    /* \"#utility.yul\":4150:4162   */\n  revert\n    /* \"#utility.yul\":4174:4276   */\ntag_64:\n    /* \"#utility.yul\":4215:4221   */\n  0x00\n    /* \"#utility.yul\":4266:4268   */\n  0x1f\n    /* \"#utility.yul\":4262:4269   */\n  not\n    /* \"#utility.yul\":4257:4259   */\n  0x1f\n    /* \"#utility.yul\":4250:4255   */\n  dup4\n    /* \"#utility.yul\":4246:4260   */\n  add\n    /* \"#utility.yul\":4242:4270   */\n  and\n    /* \"#utility.yul\":4232:4270   */\n  swap1\n  pop\n    /* \"#utility.yul\":4174:4276   */\n  swap2\n  swap1\n  pop\n  jump\t// out\n    /* \"MyHomeToken.sol\":66:5288  contract MyHomesToken {... */\ntag_12:\n  dataSize(sub_0)\n  dup1\n  dataOffset(sub_0)\n  0x00\n  codecopy\n  0x00\n  return\nstop\n\nsub_0: assembly {\n        /* \"MyHomeToken.sol\":66:5288  contract MyHomesToken {... */\n      mstore(0x40, 0x80)\n      jumpi(tag_1, lt(calldatasize, 0x04))\n      shr(0xe0, calldataload(0x00))\n      dup1\n      0x8da5cb5b\n      gt\n      tag_28\n      jumpi\n      dup1\n      0xb9223946\n      gt\n      tag_29\n      jumpi\n      dup1\n      0xd96a094a\n      gt\n      tag_30\n      jumpi\n      dup1\n      0xd96a094a\n      eq\n      tag_24\n      jumpi\n      dup1\n      0xdf094409\n      eq\n      tag_25\n      jumpi\n      dup1\n      0xe4849b32\n      eq\n      tag_26\n      jumpi\n      dup1\n      0xf3a8286f\n      eq\n      tag_27\n      jumpi\n      jump(tag_1)\n    tag_30:\n      dup1\n      0xb9223946\n      eq\n      tag_21\n      jumpi\n      dup1\n      0xcd0c5896\n      eq\n      tag_22\n      jumpi\n      dup1\n      0xd8124c5f\n      eq\n      tag_23\n      jumpi\n      jump(tag_1)\n    tag_29:\n      dup1\n      0x8da5cb5b\n      eq\n      tag_15\n      jumpi\n      dup1\n      0x9a982416\n      eq\n      tag_16\n      jumpi\n      dup1\n      0xa14ba987\n      eq\n      tag_17\n      jumpi\n      dup1\n      0xa9059cbb\n      eq\n      tag_18\n      jumpi\n      dup1\n      0xad349442\n      eq\n      tag_19\n      jumpi\n      dup1\n      0xaf769c64\n      eq\n      tag_20\n      jumpi\n      jump(tag_1)\n    tag_28:\n      dup1\n      0x4c0a6af0\n      gt\n      tag_31\n      jumpi\n      dup1\n      0x7427a40c\n      gt\n      tag_32\n      jumpi\n      dup1\n      0x7427a40c\n      eq\n      tag_11\n      jumpi\n      dup1\n      0x753ec103\n      eq\n      tag_12\n      jumpi\n      dup1\n      0x7ff9b596\n      eq\n      tag_13\n      jumpi\n      dup1\n      0x87caea78\n      eq\n      tag_14\n      jumpi\n      jump(tag_1)\n    tag_32:\n      dup1\n      0x4c0a6af0\n      eq\n      tag_8\n      jumpi\n      dup1\n      0x59ea0173\n      eq\n      tag_9\n      jumpi\n      dup1\n      0x6fa4f103\n      eq\n      tag_10\n      jumpi\n      jump(tag_1)\n    tag_31:\n      dup1\n      0x0d15fd77\n      eq\n      tag_2\n      jumpi\n      dup1\n      0x162d8afb\n      eq\n      tag_3\n      jumpi\n      dup1\n      0x1b26586c\n      eq\n      tag_4\n      jumpi\n      dup1\n      0x293230b8\n      eq\n      tag_5\n      jumpi\n      dup1\n      0x3a98ef39\n      eq\n      tag_6\n      jumpi\n      dup1\n      0x3be75aa3\n      eq\n      tag_7\n      jumpi\n    tag_1:\n      0x00\n      dup1\n      revert\n        /* \"MyHomeToken.sol\":747:773  uint public totalVotes = 0 */\n    tag_2:\n      callvalue\n      dup1\n      iszero\n      tag_33\n      jumpi\n      0x00\n      dup1\n      revert\n    tag_33:\n      pop\n      tag_34\n      tag_35\n      jump\t// in\n    tag_34:\n      mload(0x40)\n      tag_36\n      swap2\n      swap1\n      tag_37\n      jump\t// in\n    tag_36:\n      mload(0x40)\n      dup1\n      swap2\n      sub\n      swap1\n      return\n        /* \"MyHomeToken.sol\":184:211  uint public totalHouses = 0 */\n    tag_3:\n      callvalue\n      dup1\n      iszero\n      tag_38\n      jumpi\n      0x00\n      dup1\n      revert\n    tag_38:\n      pop\n      tag_39\n      tag_40\n      jump\t// in\n    tag_39:\n      mload(0x40)\n      tag_41\n      swap2\n      swap1\n      tag_37\n      jump\t// in\n    tag_41:\n      mload(0x40)\n      dup1\n      swap2\n      sub\n      swap1\n      return\n        /* \"MyHomeToken.sol\":622:646  string public ballotName */\n    tag_4:\n      callvalue\n      dup1\n      iszero\n      tag_42\n      jumpi\n      0x00\n      dup1\n      revert\n    tag_42:\n      pop\n      tag_43\n      tag_44\n      jump\t// in\n    tag_43:\n      mload(0x40)\n      tag_45\n      swap2\n      swap1\n      tag_46\n      jump\t// in\n    tag_45:\n      mload(0x40)\n      dup1\n      swap2\n      sub\n      swap1\n      return\n        /* \"MyHomeToken.sol\":2102:2185  function startTrading() public onlyRegulator {... */\n    tag_5:\n      callvalue\n      dup1\n      iszero\n      tag_47\n      jumpi\n      0x00\n      dup1\n      revert\n    tag_47:\n      pop\n      tag_48\n      tag_49\n      jump\t// in\n    tag_48:\n      stop\n        /* \"MyHomeToken.sol\":217:249  uint256 public totalShares = 100 */\n    tag_6:\n      callvalue\n      dup1\n      iszero\n      tag_50\n      jumpi\n      0x00\n      dup1\n      revert\n    tag_50:\n      pop\n      tag_51\n      tag_52\n      jump\t// in\n    tag_51:\n      mload(0x40)\n      tag_53\n      swap2\n      swap1\n      tag_37\n      jump\t// in\n    tag_53:\n      mload(0x40)\n      dup1\n      swap2\n      sub\n      swap1\n      return\n        /* \"MyHomeToken.sol\":290:320  uint256 public shareLimit = 10 */\n    tag_7:\n      callvalue\n      dup1\n      iszero\n      tag_54\n      jumpi\n      0x00\n      dup1\n      revert\n    tag_54:\n      pop\n      tag_55\n      tag_56\n      jump\t// in\n    tag_55:\n      mload(0x40)\n      tag_57\n      swap2\n      swap1\n      tag_37\n      jump\t// in\n    tag_57:\n      mload(0x40)\n      dup1\n      swap2\n      sub\n      swap1\n      return\n        /* \"MyHomeToken.sol\":4245:4436  function startVote()... */\n    tag_8:\n      callvalue\n      dup1\n      iszero\n      tag_58\n      jumpi\n      0x00\n      dup1\n      revert\n    tag_58:\n      pop\n      tag_59\n      tag_60\n      jump\t// in\n    tag_59:\n      stop\n        /* \"MyHomeToken.sol\":425:476  mapping(address => bool) public shareHolderRegistry */\n    tag_9:\n      callvalue\n      dup1\n      iszero\n      tag_61\n      jumpi\n      0x00\n      dup1\n      revert\n    tag_61:\n      pop\n      tag_62\n      0x04\n      dup1\n      calldatasize\n      sub\n      dup2\n      add\n      swap1\n      tag_63\n      swap2\n      swap1\n      tag_64\n      jump\t// in\n    tag_63:\n      tag_65\n      jump\t// in\n    tag_62:\n      mload(0x40)\n      tag_66\n      swap2\n      swap1\n      tag_67\n      jump\t// in\n    tag_66:\n      mload(0x40)\n      dup1\n      swap2\n      sub\n      swap1\n      return\n        /* \"MyHomeToken.sol\":4006:4239  function createBallot(string memory _ballotName, string memory _proposal) public {... */\n    tag_10:\n      callvalue\n      dup1\n      iszero\n      tag_68\n      jumpi\n      0x00\n      dup1\n      revert\n    tag_68:\n      pop\n      tag_69\n      0x04\n      dup1\n      calldatasize\n      sub\n      dup2\n      add\n      swap1\n      tag_70\n      swap2\n      swap1\n      tag_71\n      jump\t// in\n    tag_70:\n      tag_72\n      jump\t// in\n    tag_69:\n      stop\n        /* \"MyHomeToken.sol\":390:419  address[] public shareHolders */\n    tag_11:\n      callvalue\n      dup1\n      iszero\n      tag_73\n      jumpi\n      0x00\n      dup1\n      revert\n    tag_73:\n      pop\n      tag_74\n      0x04\n      dup1\n      calldatasize\n      sub\n      dup2\n      add\n      swap1\n      tag_75\n      swap2\n      swap1\n      tag_76\n      jump\t// in\n    tag_75:\n      tag_77\n      jump\t// in\n    tag_74:\n      mload(0x40)\n      tag_78\n      swap2\n      swap1\n      tag_79\n      jump\t// in\n    tag_78:\n      mload(0x40)\n      dup1\n      swap2\n      sub\n      swap1\n      return\n        /* \"MyHomeToken.sol\":652:674  string public proposal */\n    tag_12:\n      callvalue\n      dup1\n      iszero\n      tag_80\n      jumpi\n      0x00\n      dup1\n      revert\n    tag_80:\n      pop\n      tag_81\n      tag_82\n      jump\t// in\n    tag_81:\n      mload(0x40)\n      tag_83\n      swap2\n      swap1\n      tag_46\n      jump\t// in\n    tag_83:\n      mload(0x40)\n      dup1\n      swap2\n      sub\n      swap1\n      return\n        /* \"MyHomeToken.sol\":255:284  uint256 public tokenPrice = 1 */\n    tag_13:\n      callvalue\n      dup1\n      iszero\n      tag_84\n      jumpi\n      0x00\n      dup1\n      revert\n    tag_84:\n      pop\n      tag_85\n      tag_86\n      jump\t// in\n    tag_85:\n      mload(0x40)\n      tag_87\n      swap2\n      swap1\n      tag_37\n      jump\t// in\n    tag_87:\n      mload(0x40)\n      dup1\n      swap2\n      sub\n      swap1\n      return\n        /* \"MyHomeToken.sol\":4442:5048  function doVote(bool _choice)... */\n    tag_14:\n      callvalue\n      dup1\n      iszero\n      tag_88\n      jumpi\n      0x00\n      dup1\n      revert\n    tag_88:\n      pop\n      tag_89\n      0x04\n      dup1\n      calldatasize\n      sub\n      dup2\n      add\n      swap1\n      tag_90\n      swap2\n      swap1\n      tag_91\n      jump\t// in\n    tag_90:\n      tag_92\n      jump\t// in\n    tag_89:\n      mload(0x40)\n      tag_93\n      swap2\n      swap1\n      tag_67\n      jump\t// in\n    tag_93:\n      mload(0x40)\n      dup1\n      swap2\n      sub\n      swap1\n      return\n        /* \"MyHomeToken.sol\":94:114  address public owner */\n    tag_15:\n      callvalue\n      dup1\n      iszero\n      tag_94\n      jumpi\n      0x00\n      dup1\n      revert\n    tag_94:\n      pop\n      tag_95\n      tag_96\n      jump\t// in\n    tag_95:\n      mload(0x40)\n      tag_97\n      swap2\n      swap1\n      tag_79\n      jump\t// in\n    tag_97:\n      mload(0x40)\n      dup1\n      swap2\n      sub\n      swap1\n      return\n        /* \"MyHomeToken.sol\":326:359  uint public totalShareHolders = 0 */\n    tag_16:\n      callvalue\n      dup1\n      iszero\n      tag_98\n      jumpi\n      0x00\n      dup1\n      revert\n    tag_98:\n      pop\n      tag_99\n      tag_100\n      jump\t// in\n    tag_99:\n      mload(0x40)\n      tag_101\n      swap2\n      swap1\n      tag_37\n      jump\t// in\n    tag_101:\n      mload(0x40)\n      dup1\n      swap2\n      sub\n      swap1\n      return\n        /* \"MyHomeToken.sol\":150:178  House[] public houseRegister */\n    tag_17:\n      callvalue\n      dup1\n      iszero\n      tag_102\n      jumpi\n      0x00\n      dup1\n      revert\n    tag_102:\n      pop\n      tag_103\n      0x04\n      dup1\n      calldatasize\n      sub\n      dup2\n      add\n      swap1\n      tag_104\n      swap2\n      swap1\n      tag_76\n      jump\t// in\n    tag_104:\n      tag_105\n      jump\t// in\n    tag_103:\n      mload(0x40)\n      tag_106\n      swap4\n      swap3\n      swap2\n      swap1\n      tag_107\n      jump\t// in\n    tag_106:\n      mload(0x40)\n      dup1\n      swap2\n      sub\n      swap1\n      return\n        /* \"MyHomeToken.sol\":3260:3495  function transfer(address _to, uint256 _value) public {... */\n    tag_18:\n      callvalue\n      dup1\n      iszero\n      tag_108\n      jumpi\n      0x00\n      dup1\n      revert\n    tag_108:\n      pop\n      tag_109\n      0x04\n      dup1\n      calldatasize\n      sub\n      dup2\n      add\n      swap1\n      tag_110\n      swap2\n      swap1\n      tag_111\n      jump\t// in\n    tag_110:\n      tag_112\n      jump\t// in\n    tag_109:\n      stop\n        /* \"MyHomeToken.sol\":586:616  address public ballotInitiator */\n    tag_19:\n      callvalue\n      dup1\n      iszero\n      tag_113\n      jumpi\n      0x00\n      dup1\n      revert\n    tag_113:\n      pop\n      tag_114\n      tag_115\n      jump\t// in\n    tag_114:\n      mload(0x40)\n      tag_116\n      swap2\n      swap1\n      tag_79\n      jump\t// in\n    tag_116:\n      mload(0x40)\n      dup1\n      swap2\n      sub\n      swap1\n      return\n        /* \"MyHomeToken.sol\":2882:3254  function addShareHolder(address _shareHolderAddress)... */\n    tag_20:\n      callvalue\n      dup1\n      iszero\n      tag_117\n      jumpi\n      0x00\n      dup1\n      revert\n    tag_117:\n      pop\n      tag_118\n      0x04\n      dup1\n      calldatasize\n      sub\n      dup2\n      add\n      swap1\n      tag_119\n      swap2\n      swap1\n      tag_64\n      jump\t// in\n    tag_119:\n      tag_120\n      jump\t// in\n    tag_118:\n      stop\n        /* \"MyHomeToken.sol\":5058:5286  function endVote()... */\n    tag_21:\n      callvalue\n      dup1\n      iszero\n      tag_121\n      jumpi\n      0x00\n      dup1\n      revert\n    tag_121:\n      pop\n      tag_122\n      tag_123\n      jump\t// in\n    tag_122:\n      stop\n        /* \"MyHomeToken.sol\":1987:2091  function etherBalance(address _addr) public view returns (uint256) {... */\n    tag_22:\n      callvalue\n      dup1\n      iszero\n      tag_124\n      jumpi\n      0x00\n      dup1\n      revert\n    tag_124:\n      pop\n      tag_125\n      0x04\n      dup1\n      calldatasize\n      sub\n      dup2\n      add\n      swap1\n      tag_126\n      swap2\n      swap1\n      tag_64\n      jump\t// in\n    tag_126:\n      tag_127\n      jump\t// in\n    tag_125:\n      mload(0x40)\n      tag_128\n      swap2\n      swap1\n      tag_37\n      jump\t// in\n    tag_128:\n      mload(0x40)\n      dup1\n      swap2\n      sub\n      swap1\n      return\n        /* \"MyHomeToken.sol\":120:144  HousingPackage public hp */\n    tag_23:\n      callvalue\n      dup1\n      iszero\n      tag_129\n      jumpi\n      0x00\n      dup1\n      revert\n    tag_129:\n      pop\n      tag_130\n      tag_131\n      jump\t// in\n    tag_130:\n      mload(0x40)\n      tag_132\n      swap4\n      swap3\n      swap2\n      swap1\n      tag_107\n      jump\t// in\n    tag_132:\n      mload(0x40)\n      dup1\n      swap2\n      sub\n      swap1\n      return\n        /* \"MyHomeToken.sol\":3501:3779  function buy(uint256 _amount) external payable {... */\n    tag_24:\n      tag_133\n      0x04\n      dup1\n      calldatasize\n      sub\n      dup2\n      add\n      swap1\n      tag_134\n      swap2\n      swap1\n      tag_76\n      jump\t// in\n    tag_134:\n      tag_135\n      jump\t// in\n    tag_133:\n      stop\n        /* \"MyHomeToken.sol\":2191:2597  function addHouse(string memory _registrationId, string memory location, uint256 price) ... */\n    tag_25:\n      callvalue\n      dup1\n      iszero\n      tag_136\n      jumpi\n      0x00\n      dup1\n      revert\n    tag_136:\n      pop\n      tag_137\n      0x04\n      dup1\n      calldatasize\n      sub\n      dup2\n      add\n      swap1\n      tag_138\n      swap2\n      swap1\n      tag_139\n      jump\t// in\n    tag_138:\n      tag_140\n      jump\t// in\n    tag_137:\n      stop\n        /* \"MyHomeToken.sol\":3789:4000  function sell(uint256 _amount) external {... */\n    tag_26:\n      callvalue\n      dup1\n      iszero\n      tag_141\n      jumpi\n      0x00\n      dup1\n      revert\n    tag_141:\n      pop\n      tag_142\n      0x04\n      dup1\n      calldatasize\n      sub\n      dup2\n      add\n      swap1\n      tag_143\n      swap2\n      swap1\n      tag_76\n      jump\t// in\n    tag_143:\n      tag_144\n      jump\t// in\n    tag_142:\n      stop\n        /* \"MyHomeToken.sol\":714:741  uint public finalResult = 0 */\n    tag_27:\n      callvalue\n      dup1\n      iszero\n      tag_145\n      jumpi\n      0x00\n      dup1\n      revert\n    tag_145:\n      pop\n      tag_146\n      tag_147\n      jump\t// in\n    tag_146:\n      mload(0x40)\n      tag_148\n      swap2\n      swap1\n      tag_37\n      jump\t// in\n    tag_148:\n      mload(0x40)\n      dup1\n      swap2\n      sub\n      swap1\n      return\n        /* \"MyHomeToken.sol\":747:773  uint public totalVotes = 0 */\n    tag_35:\n      sload(0x13)\n      dup2\n      jump\t// out\n        /* \"MyHomeToken.sol\":184:211  uint public totalHouses = 0 */\n    tag_40:\n      sload(0x05)\n      dup2\n      jump\t// out\n        /* \"MyHomeToken.sol\":622:646  string public ballotName */\n    tag_44:\n      0x0f\n      dup1\n      sload\n      tag_149\n      swap1\n      tag_150\n      jump\t// in\n    tag_149:\n      dup1\n      0x1f\n      add\n      0x20\n      dup1\n      swap2\n      div\n      mul\n      0x20\n      add\n      mload(0x40)\n      swap1\n      dup2\n      add\n      0x40\n      mstore\n      dup1\n      swap3\n      swap2\n      swap1\n      dup2\n      dup2\n      mstore\n      0x20\n      add\n      dup3\n      dup1\n      sload\n      tag_151\n      swap1\n      tag_150\n      jump\t// in\n    tag_151:\n      dup1\n      iszero\n      tag_152\n      jumpi\n      dup1\n      0x1f\n      lt\n      tag_153\n      jumpi\n      0x0100\n      dup1\n      dup4\n      sload\n      div\n      mul\n      dup4\n      mstore\n      swap2\n      0x20\n      add\n      swap2\n      jump(tag_152)\n    tag_153:\n      dup3\n      add\n      swap2\n      swap1\n      0x00\n      mstore\n      keccak256(0x00, 0x20)\n      swap1\n    tag_154:\n      dup2\n      sload\n      dup2\n      mstore\n      swap1\n      0x01\n      add\n      swap1\n      0x20\n      add\n      dup1\n      dup4\n      gt\n      tag_154\n      jumpi\n      dup3\n      swap1\n      sub\n      0x1f\n      and\n      dup3\n      add\n      swap2\n    tag_152:\n      pop\n      pop\n      pop\n      pop\n      pop\n      dup2\n      jump\t// out\n        /* \"MyHomeToken.sol\":2102:2185  function startTrading() public onlyRegulator {... */\n    tag_49:\n        /* \"MyHomeToken.sol\":1448:1453  owner */\n      0x00\n      dup1\n      sload\n      swap1\n      0x0100\n      exp\n      swap1\n      div\n      0xffffffffffffffffffffffffffffffffffffffff\n      and\n        /* \"MyHomeToken.sol\":1434:1453  msg.sender == owner */\n      0xffffffffffffffffffffffffffffffffffffffff\n      and\n        /* \"MyHomeToken.sol\":1434:1444  msg.sender */\n      caller\n        /* \"MyHomeToken.sol\":1434:1453  msg.sender == owner */\n      0xffffffffffffffffffffffffffffffffffffffff\n      and\n      eq\n        /* \"MyHomeToken.sol\":1426:1454  require(msg.sender == owner) */\n      tag_156\n      jumpi\n      0x00\n      dup1\n      revert\n    tag_156:\n        /* \"MyHomeToken.sol\":2165:2178  State.Running */\n      0x01\n        /* \"MyHomeToken.sol\":2157:2162  state */\n      0x0a\n      0x00\n        /* \"MyHomeToken.sol\":2157:2178  state = State.Running */\n      0x0100\n      exp\n      dup2\n      sload\n      dup2\n      0xff\n      mul\n      not\n      and\n      swap1\n      dup4\n      0x01\n      dup2\n      gt\n      iszero\n      tag_158\n      jumpi\n      tag_159\n      tag_160\n      jump\t// in\n    tag_159:\n    tag_158:\n      mul\n      or\n      swap1\n      sstore\n      pop\n        /* \"MyHomeToken.sol\":2102:2185  function startTrading() public onlyRegulator {... */\n      jump\t// out\n        /* \"MyHomeToken.sol\":217:249  uint256 public totalShares = 100 */\n    tag_52:\n      sload(0x06)\n      dup2\n      jump\t// out\n        /* \"MyHomeToken.sol\":290:320  uint256 public shareLimit = 10 */\n    tag_56:\n      sload(0x08)\n      dup2\n      jump\t// out\n        /* \"MyHomeToken.sol\":4245:4436  function startVote()... */\n    tag_60:\n        /* \"MyHomeToken.sol\":4303:4322  BallotState.Created */\n      0x00\n        /* \"MyHomeToken.sol\":1698:1704  _state */\n      dup1\n        /* \"MyHomeToken.sol\":1683:1704  ballotState == _state */\n      0x02\n      dup2\n      gt\n      iszero\n      tag_162\n      jumpi\n      tag_163\n      tag_160\n      jump\t// in\n    tag_163:\n    tag_162:\n        /* \"MyHomeToken.sol\":1683:1694  ballotState */\n      0x0e\n      0x00\n      swap1\n      sload\n      swap1\n      0x0100\n      exp\n      swap1\n      div\n      0xff\n      and\n        /* \"MyHomeToken.sol\":1683:1704  ballotState == _state */\n      0x02\n      dup2\n      gt\n      iszero\n      tag_164\n      jumpi\n      tag_165\n      tag_160\n      jump\t// in\n    tag_165:\n    tag_164:\n      eq\n        /* \"MyHomeToken.sol\":1675:1705  require(ballotState == _state) */\n      tag_166\n      jumpi\n      0x00\n      dup1\n      revert\n    tag_166:\n        /* \"MyHomeToken.sol\":1600:1615  ballotInitiator */\n      0x0e\n      0x01\n      swap1\n      sload\n      swap1\n      0x0100\n      exp\n      swap1\n      div\n      0xffffffffffffffffffffffffffffffffffffffff\n      and\n        /* \"MyHomeToken.sol\":1586:1615  msg.sender == ballotInitiator */\n      0xffffffffffffffffffffffffffffffffffffffff\n      and\n        /* \"MyHomeToken.sol\":1586:1596  msg.sender */\n      caller\n        /* \"MyHomeToken.sol\":1586:1615  msg.sender == ballotInitiator */\n      0xffffffffffffffffffffffffffffffffffffffff\n      and\n      eq\n        /* \"MyHomeToken.sol\":1578:1616  require(msg.sender == ballotInitiator) */\n      tag_168\n      jumpi\n      0x00\n      dup1\n      revert\n    tag_168:\n        /* \"MyHomeToken.sol\":4380:4398  BallotState.Voting */\n      0x01\n        /* \"MyHomeToken.sol\":4366:4377  ballotState */\n      0x0e\n      0x00\n        /* \"MyHomeToken.sol\":4366:4398  ballotState = BallotState.Voting */\n      0x0100\n      exp\n      dup2\n      sload\n      dup2\n      0xff\n      mul\n      not\n      and\n      swap1\n      dup4\n      0x02\n      dup2\n      gt\n      iszero\n      tag_170\n      jumpi\n      tag_171\n      tag_160\n      jump\t// in\n    tag_171:\n    tag_170:\n      mul\n      or\n      swap1\n      sstore\n      pop\n        /* \"MyHomeToken.sol\":4416:4429  voteStarted() */\n      0xd0dc01800a369fef30d3fced5275b8b916549867622e79efca5245c479fda4ea\n      mload(0x40)\n      mload(0x40)\n      dup1\n      swap2\n      sub\n      swap1\n      log1\n        /* \"MyHomeToken.sol\":4245:4436  function startVote()... */\n      pop\n      jump\t// out\n        /* \"MyHomeToken.sol\":425:476  mapping(address => bool) public shareHolderRegistry */\n    tag_65:\n      mstore(0x20, 0x0c)\n      dup1\n      0x00\n      mstore\n      keccak256(0x00, 0x40)\n      0x00\n      swap2\n      pop\n      sload\n      swap1\n      0x0100\n      exp\n      swap1\n      div\n      0xff\n      and\n      dup2\n      jump\t// out\n        /* \"MyHomeToken.sol\":4006:4239  function createBallot(string memory _ballotName, string memory _proposal) public {... */\n    tag_72:\n        /* \"MyHomeToken.sol\":4111:4130  BallotState.Created */\n      0x00\n        /* \"MyHomeToken.sol\":4097:4108  ballotState */\n      0x0e\n      0x00\n        /* \"MyHomeToken.sol\":4097:4130  ballotState = BallotState.Created */\n      0x0100\n      exp\n      dup2\n      sload\n      dup2\n      0xff\n      mul\n      not\n      and\n      swap1\n      dup4\n      0x02\n      dup2\n      gt\n      iszero\n      tag_173\n      jumpi\n      tag_174\n      tag_160\n      jump\t// in\n    tag_174:\n    tag_173:\n      mul\n      or\n      swap1\n      sstore\n      pop\n        /* \"MyHomeToken.sol\":4153:4164  _ballotName */\n      dup2\n        /* \"MyHomeToken.sol\":4140:4150  ballotName */\n      0x0f\n        /* \"MyHomeToken.sol\":4140:4164  ballotName = _ballotName */\n      swap1\n      dup1\n      mload\n      swap1\n      0x20\n      add\n      swap1\n      tag_175\n      swap3\n      swap2\n      swap1\n      tag_176\n      jump\t// in\n    tag_175:\n      pop\n        /* \"MyHomeToken.sol\":4185:4194  _proposal */\n      dup1\n        /* \"MyHomeToken.sol\":4174:4182  proposal */\n      0x10\n        /* \"MyHomeToken.sol\":4174:4194  proposal = _proposal */\n      swap1\n      dup1\n      mload\n      swap1\n      0x20\n      add\n      swap1\n      tag_177\n      swap3\n      swap2\n      swap1\n      tag_176\n      jump\t// in\n    tag_177:\n      pop\n        /* \"MyHomeToken.sol\":4222:4232  msg.sender */\n      caller\n        /* \"MyHomeToken.sol\":4204:4219  ballotInitiator */\n      0x0e\n      0x01\n        /* \"MyHomeToken.sol\":4204:4232  ballotInitiator = msg.sender */\n      0x0100\n      exp\n      dup2\n      sload\n      dup2\n      0xffffffffffffffffffffffffffffffffffffffff\n      mul\n      not\n      and\n      swap1\n      dup4\n      0xffffffffffffffffffffffffffffffffffffffff\n      and\n      mul\n      or\n      swap1\n      sstore\n      pop\n        /* \"MyHomeToken.sol\":4006:4239  function createBallot(string memory _ballotName, string memory _proposal) public {... */\n      pop\n      pop\n      jump\t// out\n        /* \"MyHomeToken.sol\":390:419  address[] public shareHolders */\n    tag_77:\n      0x0b\n      dup2\n      dup2\n      sload\n      dup2\n      lt\n      tag_178\n      jumpi\n      0x00\n      dup1\n      revert\n    tag_178:\n      swap1\n      0x00\n      mstore\n      keccak256(0x00, 0x20)\n      add\n      0x00\n      swap2\n      pop\n      sload\n      swap1\n      0x0100\n      exp\n      swap1\n      div\n      0xffffffffffffffffffffffffffffffffffffffff\n      and\n      dup2\n      jump\t// out\n        /* \"MyHomeToken.sol\":652:674  string public proposal */\n    tag_82:\n      0x10\n      dup1\n      sload\n      tag_180\n      swap1\n      tag_150\n      jump\t// in\n    tag_180:\n      dup1\n      0x1f\n      add\n      0x20\n      dup1\n      swap2\n      div\n      mul\n      0x20\n      add\n      mload(0x40)\n      swap1\n      dup2\n      add\n      0x40\n      mstore\n      dup1\n      swap3\n      swap2\n      swap1\n      dup2\n      dup2\n      mstore\n      0x20\n      add\n      dup3\n      dup1\n      sload\n      tag_181\n      swap1\n      tag_150\n      jump\t// in\n    tag_181:\n      dup1\n      iszero\n      tag_182\n      jumpi\n      dup1\n      0x1f\n      lt\n      tag_183\n      jumpi\n      0x0100\n      dup1\n      dup4\n      sload\n      div\n      mul\n      dup4\n      mstore\n      swap2\n      0x20\n      add\n      swap2\n      jump(tag_182)\n    tag_183:\n      dup3\n      add\n      swap2\n      swap1\n      0x00\n      mstore\n      keccak256(0x00, 0x20)\n      swap1\n    tag_184:\n      dup2\n      sload\n      dup2\n      mstore\n      swap1\n      0x01\n      add\n      swap1\n      0x20\n      add\n      dup1\n      dup4\n      gt\n      tag_184\n      jumpi\n      dup3\n      swap1\n      sub\n      0x1f\n      and\n      dup3\n      add\n      swap2\n    tag_182:\n      pop\n      pop\n      pop\n      pop\n      pop\n      dup2\n      jump\t// out\n        /* \"MyHomeToken.sol\":255:284  uint256 public tokenPrice = 1 */\n    tag_86:\n      sload(0x07)\n      dup2\n      jump\t// out\n        /* \"MyHomeToken.sol\":4442:5048  function doVote(bool _choice)... */\n    tag_92:\n        /* \"MyHomeToken.sol\":4546:4556  bool voted */\n      0x00\n        /* \"MyHomeToken.sol\":4509:4527  BallotState.Voting */\n      0x01\n        /* \"MyHomeToken.sol\":1698:1704  _state */\n      dup1\n        /* \"MyHomeToken.sol\":1683:1704  ballotState == _state */\n      0x02\n      dup2\n      gt\n      iszero\n      tag_186\n      jumpi\n      tag_187\n      tag_160\n      jump\t// in\n    tag_187:\n    tag_186:\n        /* \"MyHomeToken.sol\":1683:1694  ballotState */\n      0x0e\n      0x00\n      swap1\n      sload\n      swap1\n      0x0100\n      exp\n      swap1\n      div\n      0xff\n      and\n        /* \"MyHomeToken.sol\":1683:1704  ballotState == _state */\n      0x02\n      dup2\n      gt\n      iszero\n      tag_188\n      jumpi\n      tag_189\n      tag_160\n      jump\t// in\n    tag_189:\n    tag_188:\n      eq\n        /* \"MyHomeToken.sol\":1675:1705  require(ballotState == _state) */\n      tag_190\n      jumpi\n      0x00\n      dup1\n      revert\n    tag_190:\n        /* \"MyHomeToken.sol\":4572:4582  bool found */\n      0x00\n        /* \"MyHomeToken.sol\":4605:4624  shareHolderRegistry */\n      0x0c\n        /* \"MyHomeToken.sol\":4605:4636  shareHolderRegistry[msg.sender] */\n      0x00\n        /* \"MyHomeToken.sol\":4625:4635  msg.sender */\n      caller\n        /* \"MyHomeToken.sol\":4605:4636  shareHolderRegistry[msg.sender] */\n      0xffffffffffffffffffffffffffffffffffffffff\n      and\n      0xffffffffffffffffffffffffffffffffffffffff\n      and\n      dup2\n      mstore\n      0x20\n      add\n      swap1\n      dup2\n      mstore\n      0x20\n      add\n      0x00\n      keccak256\n      0x00\n      swap1\n      sload\n      swap1\n      0x0100\n      exp\n      swap1\n      div\n      0xff\n      and\n        /* \"MyHomeToken.sol\":4600:4985  if (!shareHolderRegistry[msg.sender]){... */\n      tag_192\n      jumpi\n        /* \"MyHomeToken.sol\":4685:4689  true */\n      0x01\n        /* \"MyHomeToken.sol\":4651:4670  shareHolderRegistry */\n      0x0c\n        /* \"MyHomeToken.sol\":4651:4682  shareHolderRegistry[msg.sender] */\n      0x00\n        /* \"MyHomeToken.sol\":4671:4681  msg.sender */\n      caller\n        /* \"MyHomeToken.sol\":4651:4682  shareHolderRegistry[msg.sender] */\n      0xffffffffffffffffffffffffffffffffffffffff\n      and\n      0xffffffffffffffffffffffffffffffffffffffff\n      and\n      dup2\n      mstore\n      0x20\n      add\n      swap1\n      dup2\n      mstore\n      0x20\n      add\n      0x00\n      keccak256\n      0x00\n        /* \"MyHomeToken.sol\":4651:4689  shareHolderRegistry[msg.sender] = true */\n      0x0100\n      exp\n      dup2\n      sload\n      dup2\n      0xff\n      mul\n      not\n      and\n      swap1\n      dup4\n      iszero\n      iszero\n      mul\n      or\n      swap1\n      sstore\n      pop\n        /* \"MyHomeToken.sol\":4703:4716  Vote memory v */\n      tag_193\n      tag_194\n      jump\t// in\n    tag_193:\n        /* \"MyHomeToken.sol\":4753:4763  msg.sender */\n      caller\n        /* \"MyHomeToken.sol\":4730:4731  v */\n      dup2\n        /* \"MyHomeToken.sol\":4730:4750  v.shareHolderAddress */\n      0x00\n      add\n        /* \"MyHomeToken.sol\":4730:4763  v.shareHolderAddress = msg.sender */\n      swap1\n      0xffffffffffffffffffffffffffffffffffffffff\n      and\n      swap1\n      dup2\n      0xffffffffffffffffffffffffffffffffffffffff\n      and\n      dup2\n      mstore\n      pop\n      pop\n        /* \"MyHomeToken.sol\":4788:4795  _choice */\n      dup5\n        /* \"MyHomeToken.sol\":4777:4778  v */\n      dup2\n        /* \"MyHomeToken.sol\":4777:4785  v.choice */\n      0x20\n      add\n        /* \"MyHomeToken.sol\":4777:4795  v.choice = _choice */\n      swap1\n      iszero\n      iszero\n      swap1\n      dup2\n      iszero\n      iszero\n      dup2\n      mstore\n      pop\n      pop\n        /* \"MyHomeToken.sol\":4813:4820  _choice */\n      dup5\n        /* \"MyHomeToken.sol\":4809:4888  if (_choice){... */\n      iszero\n      tag_195\n      jumpi\n        /* \"MyHomeToken.sol\":4839:4850  resultCount */\n      0x11\n      0x00\n        /* \"MyHomeToken.sol\":4839:4852  resultCount++ */\n      dup2\n      sload\n      dup1\n      swap3\n      swap2\n      swap1\n      tag_196\n      swap1\n      tag_197\n      jump\t// in\n    tag_196:\n      swap2\n      swap1\n      pop\n      sstore\n      pop\n        /* \"MyHomeToken.sol\":4809:4888  if (_choice){... */\n    tag_195:\n        /* \"MyHomeToken.sol\":4921:4922  v */\n      dup1\n        /* \"MyHomeToken.sol\":4901:4906  votes */\n      0x14\n        /* \"MyHomeToken.sol\":4901:4918  votes[totalVotes] */\n      0x00\n        /* \"MyHomeToken.sol\":4907:4917  totalVotes */\n      sload(0x13)\n        /* \"MyHomeToken.sol\":4901:4918  votes[totalVotes] */\n      dup2\n      mstore\n      0x20\n      add\n      swap1\n      dup2\n      mstore\n      0x20\n      add\n      0x00\n      keccak256\n        /* \"MyHomeToken.sol\":4901:4922  votes[totalVotes] = v */\n      0x00\n      dup3\n      add\n      mload\n      dup2\n      0x00\n      add\n      exp(0x0100, 0x00)\n      dup2\n      sload\n      dup2\n      0xffffffffffffffffffffffffffffffffffffffff\n      mul\n      not\n      and\n      swap1\n      dup4\n      0xffffffffffffffffffffffffffffffffffffffff\n      and\n      mul\n      or\n      swap1\n      sstore\n      pop\n      0x20\n      dup3\n      add\n      mload\n      dup2\n      0x00\n      add\n      exp(0x0100, 0x14)\n      dup2\n      sload\n      dup2\n      0xff\n      mul\n      not\n      and\n      swap1\n      dup4\n      iszero\n      iszero\n      mul\n      or\n      swap1\n      sstore\n      pop\n      swap1\n      pop\n      pop\n        /* \"MyHomeToken.sol\":4936:4946  totalVotes */\n      0x13\n      0x00\n        /* \"MyHomeToken.sol\":4936:4948  totalVotes++ */\n      dup2\n      sload\n      dup1\n      swap3\n      swap2\n      swap1\n      tag_198\n      swap1\n      tag_197\n      jump\t// in\n    tag_198:\n      swap2\n      swap1\n      pop\n      sstore\n      pop\n        /* \"MyHomeToken.sol\":4970:4974  true */\n      0x01\n        /* \"MyHomeToken.sol\":4962:4974  found = true */\n      swap2\n      pop\n        /* \"MyHomeToken.sol\":4637:4985  {... */\n      pop\n        /* \"MyHomeToken.sol\":4600:4985  if (!shareHolderRegistry[msg.sender]){... */\n    tag_192:\n        /* \"MyHomeToken.sol\":4999:5019  voteDone(msg.sender) */\n      0x55c65cf9526efdf6c2252fe9757889dbd93e10172cad0f2edb1df619c88dbf7d\n        /* \"MyHomeToken.sol\":5008:5018  msg.sender */\n      caller\n        /* \"MyHomeToken.sol\":4999:5019  voteDone(msg.sender) */\n      mload(0x40)\n      tag_199\n      swap2\n      swap1\n      tag_79\n      jump\t// in\n    tag_199:\n      mload(0x40)\n      dup1\n      swap2\n      sub\n      swap1\n      log1\n        /* \"MyHomeToken.sol\":5036:5041  found */\n      dup1\n        /* \"MyHomeToken.sol\":5029:5041  return found */\n      swap3\n      pop\n      pop\n        /* \"MyHomeToken.sol\":4442:5048  function doVote(bool _choice)... */\n      pop\n      swap2\n      swap1\n      pop\n      jump\t// out\n        /* \"MyHomeToken.sol\":94:114  address public owner */\n    tag_96:\n      0x00\n      dup1\n      sload\n      swap1\n      0x0100\n      exp\n      swap1\n      div\n      0xffffffffffffffffffffffffffffffffffffffff\n      and\n      dup2\n      jump\t// out\n        /* \"MyHomeToken.sol\":326:359  uint public totalShareHolders = 0 */\n    tag_100:\n      sload(0x09)\n      dup2\n      jump\t// out\n        /* \"MyHomeToken.sol\":150:178  House[] public houseRegister */\n    tag_105:\n      0x04\n      dup2\n      dup2\n      sload\n      dup2\n      lt\n      tag_200\n      jumpi\n      0x00\n      dup1\n      revert\n    tag_200:\n      swap1\n      0x00\n      mstore\n      keccak256(0x00, 0x20)\n      swap1\n      0x03\n      mul\n      add\n      0x00\n      swap2\n      pop\n      swap1\n      pop\n      dup1\n      0x00\n      add\n      dup1\n      sload\n      tag_202\n      swap1\n      tag_150\n      jump\t// in\n    tag_202:\n      dup1\n      0x1f\n      add\n      0x20\n      dup1\n      swap2\n      div\n      mul\n      0x20\n      add\n      mload(0x40)\n      swap1\n      dup2\n      add\n      0x40\n      mstore\n      dup1\n      swap3\n      swap2\n      swap1\n      dup2\n      dup2\n      mstore\n      0x20\n      add\n      dup3\n      dup1\n      sload\n      tag_203\n      swap1\n      tag_150\n      jump\t// in\n    tag_203:\n      dup1\n      iszero\n      tag_204\n      jumpi\n      dup1\n      0x1f\n      lt\n      tag_205\n      jumpi\n      0x0100\n      dup1\n      dup4\n      sload\n      div\n      mul\n      dup4\n      mstore\n      swap2\n      0x20\n      add\n      swap2\n      jump(tag_204)\n    tag_205:\n      dup3\n      add\n      swap2\n      swap1\n      0x00\n      mstore\n      keccak256(0x00, 0x20)\n      swap1\n    tag_206:\n      dup2\n      sload\n      dup2\n      mstore\n      swap1\n      0x01\n      add\n      swap1\n      0x20\n      add\n      dup1\n      dup4\n      gt\n      tag_206\n      jumpi\n      dup3\n      swap1\n      sub\n      0x1f\n      and\n      dup3\n      add\n      swap2\n    tag_204:\n      pop\n      pop\n      pop\n      pop\n      pop\n      swap1\n      dup1\n      0x01\n      add\n      dup1\n      sload\n      tag_207\n      swap1\n      tag_150\n      jump\t// in\n    tag_207:\n      dup1\n      0x1f\n      add\n      0x20\n      dup1\n      swap2\n      div\n      mul\n      0x20\n      add\n      mload(0x40)\n      swap1\n      dup2\n      add\n      0x40\n      mstore\n      dup1\n      swap3\n      swap2\n      swap1\n      dup2\n      dup2\n      mstore\n      0x20\n      add\n      dup3\n      dup1\n      sload\n      tag_208\n      swap1\n      tag_150\n      jump\t// in\n    tag_208:\n      dup1\n      iszero\n      tag_209\n      jumpi\n      dup1\n      0x1f\n      lt\n      tag_210\n      jumpi\n      0x0100\n      dup1\n      dup4\n      sload\n      div\n      mul\n      dup4\n      mstore\n      swap2\n      0x20\n      add\n      swap2\n      jump(tag_209)\n    tag_210:\n      dup3\n      add\n      swap2\n      swap1\n      0x00\n      mstore\n      keccak256(0x00, 0x20)\n      swap1\n    tag_211:\n      dup2\n      sload\n      dup2\n      mstore\n      swap1\n      0x01\n      add\n      swap1\n      0x20\n      add\n      dup1\n      dup4\n      gt\n      tag_211\n      jumpi\n      dup3\n      swap1\n      sub\n      0x1f\n      and\n      dup3\n      add\n      swap2\n    tag_209:\n      pop\n      pop\n      pop\n      pop\n      pop\n      swap1\n      dup1\n      0x02\n      add\n      sload\n      swap1\n      pop\n      dup4\n      jump\t// out\n        /* \"MyHomeToken.sol\":3260:3495  function transfer(address _to, uint256 _value) public {... */\n    tag_112:\n        /* \"MyHomeToken.sol\":3361:3367  _value */\n      dup1\n        /* \"MyHomeToken.sol\":3336:3345  balanceOf */\n      0x0d\n        /* \"MyHomeToken.sol\":3336:3357  balanceOf[msg.sender] */\n      0x00\n        /* \"MyHomeToken.sol\":3346:3356  msg.sender */\n      caller\n        /* \"MyHomeToken.sol\":3336:3357  balanceOf[msg.sender] */\n      0xffffffffffffffffffffffffffffffffffffffff\n      and\n      0xffffffffffffffffffffffffffffffffffffffff\n      and\n      dup2\n      mstore\n      0x20\n      add\n      swap1\n      dup2\n      mstore\n      0x20\n      add\n      0x00\n      keccak256\n      sload\n        /* \"MyHomeToken.sol\":3336:3367  balanceOf[msg.sender] >= _value */\n      lt\n      iszero\n        /* \"MyHomeToken.sol\":3327:3368  require (balanceOf[msg.sender] >= _value) */\n      tag_213\n      jumpi\n      0x00\n      dup1\n      revert\n    tag_213:\n        /* \"MyHomeToken.sol\":3403:3408  owner */\n      0x00\n      dup1\n      sload\n      swap1\n      0x0100\n      exp\n      swap1\n      div\n      0xffffffffffffffffffffffffffffffffffffffff\n      and\n        /* \"MyHomeToken.sol\":3389:3408  msg.sender == owner */\n      0xffffffffffffffffffffffffffffffffffffffff\n      and\n        /* \"MyHomeToken.sol\":3389:3399  msg.sender */\n      caller\n        /* \"MyHomeToken.sol\":3389:3408  msg.sender == owner */\n      0xffffffffffffffffffffffffffffffffffffffff\n      and\n      eq\n        /* \"MyHomeToken.sol\":3381:3409  require(msg.sender == owner) */\n      tag_214\n      jumpi\n      0x00\n      dup1\n      revert\n    tag_214:\n        /* \"MyHomeToken.sol\":3447:3453  _value */\n      dup1\n        /* \"MyHomeToken.sol\":3422:3431  balanceOf */\n      0x0d\n        /* \"MyHomeToken.sol\":3422:3443  balanceOf[msg.sender] */\n      0x00\n        /* \"MyHomeToken.sol\":3432:3442  msg.sender */\n      caller\n        /* \"MyHomeToken.sol\":3422:3443  balanceOf[msg.sender] */\n      0xffffffffffffffffffffffffffffffffffffffff\n      and\n      0xffffffffffffffffffffffffffffffffffffffff\n      and\n      dup2\n      mstore\n      0x20\n      add\n      swap1\n      dup2\n      mstore\n      0x20\n      add\n      0x00\n      keccak256\n      0x00\n        /* \"MyHomeToken.sol\":3422:3453  balanceOf[msg.sender] -= _value */\n      dup3\n      dup3\n      sload\n      tag_215\n      swap2\n      swap1\n      tag_216\n      jump\t// in\n    tag_215:\n      swap3\n      pop\n      pop\n      dup2\n      swap1\n      sstore\n      pop\n        /* \"MyHomeToken.sol\":3482:3488  _value */\n      dup1\n        /* \"MyHomeToken.sol\":3466:3475  balanceOf */\n      0x0d\n        /* \"MyHomeToken.sol\":3466:3480  balanceOf[_to] */\n      0x00\n        /* \"MyHomeToken.sol\":3476:3479  _to */\n      dup5\n        /* \"MyHomeToken.sol\":3466:3480  balanceOf[_to] */\n      0xffffffffffffffffffffffffffffffffffffffff\n      and\n      0xffffffffffffffffffffffffffffffffffffffff\n      and\n      dup2\n      mstore\n      0x20\n      add\n      swap1\n      dup2\n      mstore\n      0x20\n      add\n      0x00\n      keccak256\n      0x00\n        /* \"MyHomeToken.sol\":3466:3488  balanceOf[_to]+=_value */\n      dup3\n      dup3\n      sload\n      tag_217\n      swap2\n      swap1\n      tag_218\n      jump\t// in\n    tag_217:\n      swap3\n      pop\n      pop\n      dup2\n      swap1\n      sstore\n      pop\n        /* \"MyHomeToken.sol\":3260:3495  function transfer(address _to, uint256 _value) public {... */\n      pop\n      pop\n      jump\t// out\n        /* \"MyHomeToken.sol\":586:616  address public ballotInitiator */\n    tag_115:\n      0x0e\n      0x01\n      swap1\n      sload\n      swap1\n      0x0100\n      exp\n      swap1\n      div\n      0xffffffffffffffffffffffffffffffffffffffff\n      and\n      dup2\n      jump\t// out\n        /* \"MyHomeToken.sol\":2882:3254  function addShareHolder(address _shareHolderAddress)... */\n    tag_120:\n        /* \"MyHomeToken.sol\":1448:1453  owner */\n      0x00\n      dup1\n      sload\n      swap1\n      0x0100\n      exp\n      swap1\n      div\n      0xffffffffffffffffffffffffffffffffffffffff\n      and\n        /* \"MyHomeToken.sol\":1434:1453  msg.sender == owner */\n      0xffffffffffffffffffffffffffffffffffffffff\n      and\n        /* \"MyHomeToken.sol\":1434:1444  msg.sender */\n      caller\n        /* \"MyHomeToken.sol\":1434:1453  msg.sender == owner */\n      0xffffffffffffffffffffffffffffffffffffffff\n      and\n      eq\n        /* \"MyHomeToken.sol\":1426:1454  require(msg.sender == owner) */\n      tag_220\n      jumpi\n      0x00\n      dup1\n      revert\n    tag_220:\n        /* \"MyHomeToken.sol\":2994:3023  contains(_shareHolderAddress) */\n      tag_222\n        /* \"MyHomeToken.sol\":3003:3022  _shareHolderAddress */\n      dup2\n        /* \"MyHomeToken.sol\":2994:3002  contains */\n      tag_223\n        /* \"MyHomeToken.sol\":2994:3023  contains(_shareHolderAddress) */\n      jump\t// in\n    tag_222:\n        /* \"MyHomeToken.sol\":2990:3239  if(!contains(_shareHolderAddress)) {... */\n      tag_224\n      jumpi\n        /* \"MyHomeToken.sol\":3082:3087  false */\n      0x00\n        /* \"MyHomeToken.sol\":3039:3058  shareHolderRegistry */\n      0x0c\n        /* \"MyHomeToken.sol\":3039:3079  shareHolderRegistry[_shareHolderAddress] */\n      0x00\n        /* \"MyHomeToken.sol\":3059:3078  _shareHolderAddress */\n      dup4\n        /* \"MyHomeToken.sol\":3039:3079  shareHolderRegistry[_shareHolderAddress] */\n      0xffffffffffffffffffffffffffffffffffffffff\n      and\n      0xffffffffffffffffffffffffffffffffffffffff\n      and\n      dup2\n      mstore\n      0x20\n      add\n      swap1\n      dup2\n      mstore\n      0x20\n      add\n      0x00\n      keccak256\n      0x00\n        /* \"MyHomeToken.sol\":3039:3087  shareHolderRegistry[_shareHolderAddress] = false */\n      0x0100\n      exp\n      dup2\n      sload\n      dup2\n      0xff\n      mul\n      not\n      and\n      swap1\n      dup4\n      iszero\n      iszero\n      mul\n      or\n      swap1\n      sstore\n      pop\n        /* \"MyHomeToken.sol\":3101:3113  shareHolders */\n      0x0b\n        /* \"MyHomeToken.sol\":3119:3138  _shareHolderAddress */\n      dup2\n        /* \"MyHomeToken.sol\":3101:3139  shareHolders.push(_shareHolderAddress) */\n      swap1\n      dup1\n      0x01\n      dup2\n      sload\n      add\n      dup1\n      dup3\n      sstore\n      dup1\n      swap2\n      pop\n      pop\n      0x01\n      swap1\n      sub\n      swap1\n      0x00\n      mstore\n      keccak256(0x00, 0x20)\n      add\n      0x00\n      swap1\n      swap2\n      swap1\n      swap2\n      swap1\n      swap2\n      0x0100\n      exp\n      dup2\n      sload\n      dup2\n      0xffffffffffffffffffffffffffffffffffffffff\n      mul\n      not\n      and\n      swap1\n      dup4\n      0xffffffffffffffffffffffffffffffffffffffff\n      and\n      mul\n      or\n      swap1\n      sstore\n      pop\n        /* \"MyHomeToken.sol\":3153:3170  totalShareHolders */\n      0x09\n      0x00\n        /* \"MyHomeToken.sol\":3153:3172  totalShareHolders++ */\n      dup2\n      sload\n      dup1\n      swap3\n      swap2\n      swap1\n      tag_226\n      swap1\n      tag_197\n      jump\t// in\n    tag_226:\n      swap2\n      swap1\n      pop\n      sstore\n      pop\n        /* \"MyHomeToken.sol\":3191:3228  ShareHolderAdded(_shareHolderAddress) */\n      0x30040c92e8da146ac410fb6841ea0f60af3b8f3788e5e7354e48d97d018f39dd\n        /* \"MyHomeToken.sol\":3208:3227  _shareHolderAddress */\n      dup2\n        /* \"MyHomeToken.sol\":3191:3228  ShareHolderAdded(_shareHolderAddress) */\n      mload(0x40)\n      tag_227\n      swap2\n      swap1\n      tag_79\n      jump\t// in\n    tag_227:\n      mload(0x40)\n      dup1\n      swap2\n      sub\n      swap1\n      log1\n        /* \"MyHomeToken.sol\":2990:3239  if(!contains(_shareHolderAddress)) {... */\n    tag_224:\n        /* \"MyHomeToken.sol\":2882:3254  function addShareHolder(address _shareHolderAddress)... */\n      pop\n      jump\t// out\n        /* \"MyHomeToken.sol\":5058:5286  function endVote()... */\n    tag_123:\n        /* \"MyHomeToken.sol\":5114:5132  BallotState.Voting */\n      0x01\n        /* \"MyHomeToken.sol\":1698:1704  _state */\n      dup1\n        /* \"MyHomeToken.sol\":1683:1704  ballotState == _state */\n      0x02\n      dup2\n      gt\n      iszero\n      tag_229\n      jumpi\n      tag_230\n      tag_160\n      jump\t// in\n    tag_230:\n    tag_229:\n        /* \"MyHomeToken.sol\":1683:1694  ballotState */\n      0x0e\n      0x00\n      swap1\n      sload\n      swap1\n      0x0100\n      exp\n      swap1\n      div\n      0xff\n      and\n        /* \"MyHomeToken.sol\":1683:1704  ballotState == _state */\n      0x02\n      dup2\n      gt\n      iszero\n      tag_231\n      jumpi\n      tag_232\n      tag_160\n      jump\t// in\n    tag_232:\n    tag_231:\n      eq\n        /* \"MyHomeToken.sol\":1675:1705  require(ballotState == _state) */\n      tag_233\n      jumpi\n      0x00\n      dup1\n      revert\n    tag_233:\n        /* \"MyHomeToken.sol\":1600:1615  ballotInitiator */\n      0x0e\n      0x01\n      swap1\n      sload\n      swap1\n      0x0100\n      exp\n      swap1\n      div\n      0xffffffffffffffffffffffffffffffffffffffff\n      and\n        /* \"MyHomeToken.sol\":1586:1615  msg.sender == ballotInitiator */\n      0xffffffffffffffffffffffffffffffffffffffff\n      and\n        /* \"MyHomeToken.sol\":1586:1596  msg.sender */\n      caller\n        /* \"MyHomeToken.sol\":1586:1615  msg.sender == ballotInitiator */\n      0xffffffffffffffffffffffffffffffffffffffff\n      and\n      eq\n        /* \"MyHomeToken.sol\":1578:1616  require(msg.sender == ballotInitiator) */\n      tag_235\n      jumpi\n      0x00\n      dup1\n      revert\n    tag_235:\n        /* \"MyHomeToken.sol\":5190:5207  BallotState.Ended */\n      0x02\n        /* \"MyHomeToken.sol\":5176:5187  ballotState */\n      0x0e\n      0x00\n        /* \"MyHomeToken.sol\":5176:5207  ballotState = BallotState.Ended */\n      0x0100\n      exp\n      dup2\n      sload\n      dup2\n      0xff\n      mul\n      not\n      and\n      swap1\n      dup4\n      0x02\n      dup2\n      gt\n      iszero\n      tag_237\n      jumpi\n      tag_238\n      tag_160\n      jump\t// in\n    tag_238:\n    tag_237:\n      mul\n      or\n      swap1\n      sstore\n      pop\n        /* \"MyHomeToken.sol\":5231:5242  resultCount */\n      sload(0x11)\n        /* \"MyHomeToken.sol\":5217:5228  finalResult */\n      0x12\n        /* \"MyHomeToken.sol\":5217:5242  finalResult = resultCount */\n      dup2\n      swap1\n      sstore\n      pop\n        /* \"MyHomeToken.sol\":5257:5279  voteEnded(finalResult) */\n      0xb43a401dcdbe02a8afa41feb6c651425997908d1a4b79cf505188ba1dd3fd872\n        /* \"MyHomeToken.sol\":5267:5278  finalResult */\n      sload(0x12)\n        /* \"MyHomeToken.sol\":5257:5279  voteEnded(finalResult) */\n      mload(0x40)\n      tag_239\n      swap2\n      swap1\n      tag_37\n      jump\t// in\n    tag_239:\n      mload(0x40)\n      dup1\n      swap2\n      sub\n      swap1\n      log1\n        /* \"MyHomeToken.sol\":5058:5286  function endVote()... */\n      pop\n      jump\t// out\n        /* \"MyHomeToken.sol\":1987:2091  function etherBalance(address _addr) public view returns (uint256) {... */\n    tag_127:\n        /* \"MyHomeToken.sol\":2045:2052  uint256 */\n      0x00\n        /* \"MyHomeToken.sol\":2071:2076  _addr */\n      dup2\n        /* \"MyHomeToken.sol\":2071:2084  _addr.balance */\n      0xffffffffffffffffffffffffffffffffffffffff\n      and\n      balance\n        /* \"MyHomeToken.sol\":2064:2084  return _addr.balance */\n      swap1\n      pop\n        /* \"MyHomeToken.sol\":1987:2091  function etherBalance(address _addr) public view returns (uint256) {... */\n      swap2\n      swap1\n      pop\n      jump\t// out\n        /* \"MyHomeToken.sol\":120:144  HousingPackage public hp */\n    tag_131:\n      0x01\n      dup1\n      0x00\n      add\n      dup1\n      sload\n      tag_241\n      swap1\n      tag_150\n      jump\t// in\n    tag_241:\n      dup1\n      0x1f\n      add\n      0x20\n      dup1\n      swap2\n      div\n      mul\n      0x20\n      add\n      mload(0x40)\n      swap1\n      dup2\n      add\n      0x40\n      mstore\n      dup1\n      swap3\n      swap2\n      swap1\n      dup2\n      dup2\n      mstore\n      0x20\n      add\n      dup3\n      dup1\n      sload\n      tag_242\n      swap1\n      tag_150\n      jump\t// in\n    tag_242:\n      dup1\n      iszero\n      tag_243\n      jumpi\n      dup1\n      0x1f\n      lt\n      tag_244\n      jumpi\n      0x0100\n      dup1\n      dup4\n      sload\n      div\n      mul\n      dup4\n      mstore\n      swap2\n      0x20\n      add\n      swap2\n      jump(tag_243)\n    tag_244:\n      dup3\n      add\n      swap2\n      swap1\n      0x00\n      mstore\n      keccak256(0x00, 0x20)\n      swap1\n    tag_245:\n      dup2\n      sload\n      dup2\n      mstore\n      swap1\n      0x01\n      add\n      swap1\n      0x20\n      add\n      dup1\n      dup4\n      gt\n      tag_245\n      jumpi\n      dup3\n      swap1\n      sub\n      0x1f\n      and\n      dup3\n      add\n      swap2\n    tag_243:\n      pop\n      pop\n      pop\n      pop\n      pop\n      swap1\n      dup1\n      0x01\n      add\n      dup1\n      sload\n      tag_246\n      swap1\n      tag_150\n      jump\t// in\n    tag_246:\n      dup1\n      0x1f\n      add\n      0x20\n      dup1\n      swap2\n      div\n      mul\n      0x20\n      add\n      mload(0x40)\n      swap1\n      dup2\n      add\n      0x40\n      mstore\n      dup1\n      swap3\n      swap2\n      swap1\n      dup2\n      dup2\n      mstore\n      0x20\n      add\n      dup3\n      dup1\n      sload\n      tag_247\n      swap1\n      tag_150\n      jump\t// in\n    tag_247:\n      dup1\n      iszero\n      tag_248\n      jumpi\n      dup1\n      0x1f\n      lt\n      tag_249\n      jumpi\n      0x0100\n      dup1\n      dup4\n      sload\n      div\n      mul\n      dup4\n      mstore\n      swap2\n      0x20\n      add\n      swap2\n      jump(tag_248)\n    tag_249:\n      dup3\n      add\n      swap2\n      swap1\n      0x00\n      mstore\n      keccak256(0x00, 0x20)\n      swap1\n    tag_250:\n      dup2\n      sload\n      dup2\n      mstore\n      swap1\n      0x01\n      add\n      swap1\n      0x20\n      add\n      dup1\n      dup4\n      gt\n      tag_250\n      jumpi\n      dup3\n      swap1\n      sub\n      0x1f\n      and\n      dup3\n      add\n      swap2\n    tag_248:\n      pop\n      pop\n      pop\n      pop\n      pop\n      swap1\n      dup1\n      0x02\n      add\n      sload\n      swap1\n      pop\n      dup4\n      jump\t// out\n        /* \"MyHomeToken.sol\":3501:3779  function buy(uint256 _amount) external payable {... */\n    tag_135:\n        /* \"MyHomeToken.sol\":3577:3587  shareLimit */\n      sload(0x08)\n        /* \"MyHomeToken.sol\":3566:3573  _amount */\n      dup2\n        /* \"MyHomeToken.sol\":3566:3587  _amount <= shareLimit */\n      gt\n      iszero\n        /* \"MyHomeToken.sol\":3558:3627  require(_amount <= shareLimit, \"Number of shares exceeded the limit\") */\n      tag_252\n      jumpi\n      mload(0x40)\n      0x08c379a000000000000000000000000000000000000000000000000000000000\n      dup2\n      mstore\n      0x04\n      add\n      tag_253\n      swap1\n      tag_254\n      jump\t// in\n    tag_253:\n      mload(0x40)\n      dup1\n      swap2\n      sub\n      swap1\n      revert\n    tag_252:\n        /* \"MyHomeToken.sol\":3668:3678  tokenPrice */\n      sload(0x07)\n        /* \"MyHomeToken.sol\":3658:3665  _amount */\n      dup2\n        /* \"MyHomeToken.sol\":3658:3678  _amount * tokenPrice */\n      tag_255\n      swap2\n      swap1\n      tag_256\n      jump\t// in\n    tag_255:\n        /* \"MyHomeToken.sol\":3645:3654  msg.value */\n      callvalue\n        /* \"MyHomeToken.sol\":3645:3678  msg.value >= _amount * tokenPrice */\n      lt\n      iszero\n        /* \"MyHomeToken.sol\":3637:3697  require(msg.value >= _amount * tokenPrice, \"Not enough wei\") */\n      tag_257\n      jumpi\n      mload(0x40)\n      0x08c379a000000000000000000000000000000000000000000000000000000000\n      dup2\n      mstore\n      0x04\n      add\n      tag_258\n      swap1\n      tag_259\n      jump\t// in\n    tag_258:\n      mload(0x40)\n      dup1\n      swap2\n      sub\n      swap1\n      revert\n    tag_257:\n        /* \"MyHomeToken.sol\":3707:3736  transfer(msg.sender, _amount) */\n      tag_260\n        /* \"MyHomeToken.sol\":3716:3726  msg.sender */\n      caller\n        /* \"MyHomeToken.sol\":3728:3735  _amount */\n      dup3\n        /* \"MyHomeToken.sol\":3707:3715  transfer */\n      tag_112\n        /* \"MyHomeToken.sol\":3707:3736  transfer(msg.sender, _amount) */\n      jump\t// in\n    tag_260:\n        /* \"MyHomeToken.sol\":3746:3772  addShareHolder(msg.sender) */\n      tag_261\n        /* \"MyHomeToken.sol\":3761:3771  msg.sender */\n      caller\n        /* \"MyHomeToken.sol\":3746:3760  addShareHolder */\n      tag_120\n        /* \"MyHomeToken.sol\":3746:3772  addShareHolder(msg.sender) */\n      jump\t// in\n    tag_261:\n        /* \"MyHomeToken.sol\":3501:3779  function buy(uint256 _amount) external payable {... */\n      pop\n      jump\t// out\n        /* \"MyHomeToken.sol\":2191:2597  function addHouse(string memory _registrationId, string memory location, uint256 price) ... */\n    tag_140:\n        /* \"MyHomeToken.sol\":1448:1453  owner */\n      0x00\n      dup1\n      sload\n      swap1\n      0x0100\n      exp\n      swap1\n      div\n      0xffffffffffffffffffffffffffffffffffffffff\n      and\n        /* \"MyHomeToken.sol\":1434:1453  msg.sender == owner */\n      0xffffffffffffffffffffffffffffffffffffffff\n      and\n        /* \"MyHomeToken.sol\":1434:1444  msg.sender */\n      caller\n        /* \"MyHomeToken.sol\":1434:1453  msg.sender == owner */\n      0xffffffffffffffffffffffffffffffffffffffff\n      and\n      eq\n        /* \"MyHomeToken.sol\":1426:1454  require(msg.sender == owner) */\n      tag_263\n      jumpi\n      0x00\n      dup1\n      revert\n    tag_263:\n        /* \"MyHomeToken.sol\":2334:2347  State.Created */\n      0x00\n        /* \"MyHomeToken.sol\":1521:1527  _state */\n      dup1\n        /* \"MyHomeToken.sol\":1512:1527  state == _state */\n      0x01\n      dup2\n      gt\n      iszero\n      tag_265\n      jumpi\n      tag_266\n      tag_160\n      jump\t// in\n    tag_266:\n    tag_265:\n        /* \"MyHomeToken.sol\":1512:1517  state */\n      0x0a\n      0x00\n      swap1\n      sload\n      swap1\n      0x0100\n      exp\n      swap1\n      div\n      0xff\n      and\n        /* \"MyHomeToken.sol\":1512:1527  state == _state */\n      0x01\n      dup2\n      gt\n      iszero\n      tag_267\n      jumpi\n      tag_268\n      tag_160\n      jump\t// in\n    tag_268:\n    tag_267:\n      eq\n        /* \"MyHomeToken.sol\":1504:1528  require(state == _state) */\n      tag_269\n      jumpi\n      0x00\n      dup1\n      revert\n    tag_269:\n        /* \"MyHomeToken.sol\":2364:2378  House memory h */\n      0x00\n        /* \"MyHomeToken.sol\":2381:2420  House(_registrationId, location, price) */\n      mload(0x40)\n      dup1\n      0x60\n      add\n      0x40\n      mstore\n      dup1\n        /* \"MyHomeToken.sol\":2387:2402  _registrationId */\n      dup7\n        /* \"MyHomeToken.sol\":2381:2420  House(_registrationId, location, price) */\n      dup2\n      mstore\n      0x20\n      add\n        /* \"MyHomeToken.sol\":2404:2412  location */\n      dup6\n        /* \"MyHomeToken.sol\":2381:2420  House(_registrationId, location, price) */\n      dup2\n      mstore\n      0x20\n      add\n        /* \"MyHomeToken.sol\":2414:2419  price */\n      dup5\n        /* \"MyHomeToken.sol\":2381:2420  House(_registrationId, location, price) */\n      dup2\n      mstore\n      pop\n        /* \"MyHomeToken.sol\":2364:2420  House memory h = House(_registrationId, location, price) */\n      swap1\n      pop\n        /* \"MyHomeToken.sol\":2447:2452  price */\n      dup3\n        /* \"MyHomeToken.sol\":2430:2432  hp */\n      0x01\n        /* \"MyHomeToken.sol\":2430:2443  hp.totalValue */\n      0x02\n      add\n      0x00\n        /* \"MyHomeToken.sol\":2430:2452  hp.totalValue += price */\n      dup3\n      dup3\n      sload\n      tag_271\n      swap2\n      swap1\n      tag_218\n      jump\t// in\n    tag_271:\n      swap3\n      pop\n      pop\n      dup2\n      swap1\n      sstore\n      pop\n        /* \"MyHomeToken.sol\":2475:2477  hp */\n      0x01\n        /* \"MyHomeToken.sol\":2475:2488  hp.totalValue */\n      0x02\n      add\n      sload\n        /* \"MyHomeToken.sol\":2462:2472  tokenPrice */\n      0x07\n        /* \"MyHomeToken.sol\":2462:2488  tokenPrice = hp.totalValue */\n      dup2\n      swap1\n      sstore\n      pop\n        /* \"MyHomeToken.sol\":2498:2511  houseRegister */\n      0x04\n        /* \"MyHomeToken.sol\":2517:2518  h */\n      dup2\n        /* \"MyHomeToken.sol\":2498:2519  houseRegister.push(h) */\n      swap1\n      dup1\n      0x01\n      dup2\n      sload\n      add\n      dup1\n      dup3\n      sstore\n      dup1\n      swap2\n      pop\n      pop\n      0x01\n      swap1\n      sub\n      swap1\n      0x00\n      mstore\n      keccak256(0x00, 0x20)\n      swap1\n      0x03\n      mul\n      add\n      0x00\n      swap1\n      swap2\n      swap1\n      swap2\n      swap1\n      swap2\n      pop\n      0x00\n      dup3\n      add\n      mload\n      dup2\n      0x00\n      add\n      swap1\n      dup1\n      mload\n      swap1\n      0x20\n      add\n      swap1\n      tag_273\n      swap3\n      swap2\n      swap1\n      tag_176\n      jump\t// in\n    tag_273:\n      pop\n      0x20\n      dup3\n      add\n      mload\n      dup2\n      0x01\n      add\n      swap1\n      dup1\n      mload\n      swap1\n      0x20\n      add\n      swap1\n      tag_274\n      swap3\n      swap2\n      swap1\n      tag_176\n      jump\t// in\n    tag_274:\n      pop\n      0x40\n      dup3\n      add\n      mload\n      dup2\n      0x02\n      add\n      sstore\n      pop\n      pop\n        /* \"MyHomeToken.sol\":2544:2545  1 */\n      0x01\n        /* \"MyHomeToken.sol\":2529:2540  totalHouses */\n      0x05\n      0x00\n        /* \"MyHomeToken.sol\":2529:2545  totalHouses += 1 */\n      dup3\n      dup3\n      sload\n      tag_275\n      swap2\n      swap1\n      tag_218\n      jump\t// in\n    tag_275:\n      swap3\n      pop\n      pop\n      dup2\n      swap1\n      sstore\n      pop\n        /* \"MyHomeToken.sol\":2560:2590  NewHouseAdded(_registrationId) */\n      0x4578fe17eaab41ae382abe3462bb0cf04bcfee4168d2aad3ce9d5d225d0e27f6\n        /* \"MyHomeToken.sol\":2574:2589  _registrationId */\n      dup6\n        /* \"MyHomeToken.sol\":2560:2590  NewHouseAdded(_registrationId) */\n      mload(0x40)\n      tag_276\n      swap2\n      swap1\n      tag_46\n      jump\t// in\n    tag_276:\n      mload(0x40)\n      dup1\n      swap2\n      sub\n      swap1\n      log1\n        /* \"MyHomeToken.sol\":2354:2597  {... */\n      pop\n        /* \"MyHomeToken.sol\":1458:1459  _ */\n      pop\n        /* \"MyHomeToken.sol\":2191:2597  function addHouse(string memory _registrationId, string memory location, uint256 price) ... */\n      pop\n      pop\n      pop\n      jump\t// out\n        /* \"MyHomeToken.sol\":3789:4000  function sell(uint256 _amount) external {... */\n    tag_144:\n        /* \"MyHomeToken.sol\":3847:3867  contains(msg.sender) */\n      tag_278\n        /* \"MyHomeToken.sol\":3856:3866  msg.sender */\n      caller\n        /* \"MyHomeToken.sol\":3847:3855  contains */\n      tag_223\n        /* \"MyHomeToken.sol\":3847:3867  contains(msg.sender) */\n      jump\t// in\n    tag_278:\n        /* \"MyHomeToken.sol\":3839:3906  require(contains(msg.sender), \"This user does not hold any shares\") */\n      tag_279\n      jumpi\n      mload(0x40)\n      0x08c379a000000000000000000000000000000000000000000000000000000000\n      dup2\n      mstore\n      0x04\n      add\n      tag_280\n      swap1\n      tag_281\n      jump\t// in\n    tag_280:\n      mload(0x40)\n      dup1\n      swap2\n      sub\n      swap1\n      revert\n    tag_279:\n        /* \"MyHomeToken.sol\":3941:3948  _amount */\n      dup1\n        /* \"MyHomeToken.sol\":3916:3925  balanceOf */\n      0x0d\n        /* \"MyHomeToken.sol\":3916:3937  balanceOf[msg.sender] */\n      0x00\n        /* \"MyHomeToken.sol\":3926:3936  msg.sender */\n      caller\n        /* \"MyHomeToken.sol\":3916:3937  balanceOf[msg.sender] */\n      0xffffffffffffffffffffffffffffffffffffffff\n      and\n      0xffffffffffffffffffffffffffffffffffffffff\n      and\n      dup2\n      mstore\n      0x20\n      add\n      swap1\n      dup2\n      mstore\n      0x20\n      add\n      0x00\n      keccak256\n      0x00\n        /* \"MyHomeToken.sol\":3916:3948  balanceOf[msg.sender] -= _amount */\n      dup3\n      dup3\n      sload\n      tag_282\n      swap2\n      swap1\n      tag_216\n      jump\t// in\n    tag_282:\n      swap3\n      pop\n      pop\n      dup2\n      swap1\n      sstore\n      pop\n        /* \"MyHomeToken.sol\":3986:3993  _amount */\n      dup1\n        /* \"MyHomeToken.sol\":3958:3967  balanceOf */\n      0x0d\n        /* \"MyHomeToken.sol\":3958:3982  balanceOf[address(this)] */\n      0x00\n        /* \"MyHomeToken.sol\":3976:3980  this */\n      address\n        /* \"MyHomeToken.sol\":3958:3982  balanceOf[address(this)] */\n      0xffffffffffffffffffffffffffffffffffffffff\n      and\n      0xffffffffffffffffffffffffffffffffffffffff\n      and\n      dup2\n      mstore\n      0x20\n      add\n      swap1\n      dup2\n      mstore\n      0x20\n      add\n      0x00\n      keccak256\n      0x00\n        /* \"MyHomeToken.sol\":3958:3993  balanceOf[address(this)] += _amount */\n      dup3\n      dup3\n      sload\n      tag_283\n      swap2\n      swap1\n      tag_218\n      jump\t// in\n    tag_283:\n      swap3\n      pop\n      pop\n      dup2\n      swap1\n      sstore\n      pop\n        /* \"MyHomeToken.sol\":3789:4000  function sell(uint256 _amount) external {... */\n      pop\n      jump\t// out\n        /* \"MyHomeToken.sol\":714:741  uint public finalResult = 0 */\n    tag_147:\n      sload(0x12)\n      dup2\n      jump\t// out\n        /* \"MyHomeToken.sol\":2603:2876  function contains(address _shareHolderAddress) private view returns(bool) {... */\n    tag_223:\n        /* \"MyHomeToken.sol\":2671:2675  bool */\n      0x00\n        /* \"MyHomeToken.sol\":2692:2698  uint i */\n      dup1\n        /* \"MyHomeToken.sol\":2701:2702  0 */\n      0x00\n        /* \"MyHomeToken.sol\":2692:2702  uint i = 0 */\n      swap1\n      pop\n        /* \"MyHomeToken.sol\":2687:2847  for (uint i = 0; i <= shareHolders.length; i++) {... */\n    tag_285:\n        /* \"MyHomeToken.sol\":2709:2721  shareHolders */\n      0x0b\n        /* \"MyHomeToken.sol\":2709:2728  shareHolders.length */\n      dup1\n      sload\n      swap1\n      pop\n        /* \"MyHomeToken.sol\":2704:2705  i */\n      dup2\n        /* \"MyHomeToken.sol\":2704:2728  i <= shareHolders.length */\n      gt\n        /* \"MyHomeToken.sol\":2687:2847  for (uint i = 0; i <= shareHolders.length; i++) {... */\n      tag_286\n      jumpi\n        /* \"MyHomeToken.sol\":2772:2791  _shareHolderAddress */\n      dup3\n        /* \"MyHomeToken.sol\":2753:2791  shareHolders[i] == _shareHolderAddress */\n      0xffffffffffffffffffffffffffffffffffffffff\n      and\n        /* \"MyHomeToken.sol\":2753:2765  shareHolders */\n      0x0b\n        /* \"MyHomeToken.sol\":2766:2767  i */\n      dup3\n        /* \"MyHomeToken.sol\":2753:2768  shareHolders[i] */\n      dup2\n      sload\n      dup2\n      lt\n      tag_288\n      jumpi\n      tag_289\n      tag_290\n      jump\t// in\n    tag_289:\n    tag_288:\n      swap1\n      0x00\n      mstore\n      keccak256(0x00, 0x20)\n      add\n      0x00\n      swap1\n      sload\n      swap1\n      0x0100\n      exp\n      swap1\n      div\n      0xffffffffffffffffffffffffffffffffffffffff\n      and\n        /* \"MyHomeToken.sol\":2753:2791  shareHolders[i] == _shareHolderAddress */\n      0xffffffffffffffffffffffffffffffffffffffff\n      and\n      eq\n        /* \"MyHomeToken.sol\":2749:2837  if (shareHolders[i] == _shareHolderAddress) {... */\n      iszero\n      tag_292\n      jumpi\n        /* \"MyHomeToken.sol\":2818:2822  true */\n      0x01\n        /* \"MyHomeToken.sol\":2811:2822  return true */\n      swap2\n      pop\n      pop\n      jump(tag_284)\n        /* \"MyHomeToken.sol\":2749:2837  if (shareHolders[i] == _shareHolderAddress) {... */\n    tag_292:\n        /* \"MyHomeToken.sol\":2730:2733  i++ */\n      dup1\n      dup1\n      tag_293\n      swap1\n      tag_197\n      jump\t// in\n    tag_293:\n      swap2\n      pop\n      pop\n        /* \"MyHomeToken.sol\":2687:2847  for (uint i = 0; i <= shareHolders.length; i++) {... */\n      jump(tag_285)\n    tag_286:\n      pop\n        /* \"MyHomeToken.sol\":2864:2869  false */\n      0x00\n        /* \"MyHomeToken.sol\":2857:2869  return false */\n      swap1\n      pop\n        /* \"MyHomeToken.sol\":2603:2876  function contains(address _shareHolderAddress) private view returns(bool) {... */\n    tag_284:\n      swap2\n      swap1\n      pop\n      jump\t// out\n    tag_176:\n      dup3\n      dup1\n      sload\n      tag_294\n      swap1\n      tag_150\n      jump\t// in\n    tag_294:\n      swap1\n      0x00\n      mstore\n      keccak256(0x00, 0x20)\n      swap1\n      0x1f\n      add\n      0x20\n      swap1\n      div\n      dup2\n      add\n      swap3\n      dup3\n      tag_296\n      jumpi\n      0x00\n      dup6\n      sstore\n      jump(tag_295)\n    tag_296:\n      dup3\n      0x1f\n      lt\n      tag_297\n      jumpi\n      dup1\n      mload\n      not(0xff)\n      and\n      dup4\n      dup1\n      add\n      or\n      dup6\n      sstore\n      jump(tag_295)\n    tag_297:\n      dup3\n      dup1\n      add\n      0x01\n      add\n      dup6\n      sstore\n      dup3\n      iszero\n      tag_295\n      jumpi\n      swap2\n      dup3\n      add\n    tag_298:\n      dup3\n      dup2\n      gt\n      iszero\n      tag_299\n      jumpi\n      dup3\n      mload\n      dup3\n      sstore\n      swap2\n      0x20\n      add\n      swap2\n      swap1\n      0x01\n      add\n      swap1\n      jump(tag_298)\n    tag_299:\n    tag_295:\n      pop\n      swap1\n      pop\n      tag_300\n      swap2\n      swap1\n      tag_301\n      jump\t// in\n    tag_300:\n      pop\n      swap1\n      jump\t// out\n    tag_194:\n      mload(0x40)\n      dup1\n      0x40\n      add\n      0x40\n      mstore\n      dup1\n      and(0xffffffffffffffffffffffffffffffffffffffff, 0x00)\n      dup2\n      mstore\n      0x20\n      add\n      iszero(iszero(0x00))\n      dup2\n      mstore\n      pop\n      swap1\n      jump\t// out\n    tag_301:\n    tag_302:\n      dup1\n      dup3\n      gt\n      iszero\n      tag_303\n      jumpi\n      0x00\n      dup2\n      0x00\n      swap1\n      sstore\n      pop\n      0x01\n      add\n      jump(tag_302)\n    tag_303:\n      pop\n      swap1\n      jump\t// out\n        /* \"#utility.yul\":7:419   */\n    tag_305:\n        /* \"#utility.yul\":85:90   */\n      0x00\n        /* \"#utility.yul\":110:176   */\n      tag_307\n        /* \"#utility.yul\":126:175   */\n      tag_308\n        /* \"#utility.yul\":168:174   */\n      dup5\n        /* \"#utility.yul\":126:175   */\n      tag_309\n      jump\t// in\n    tag_308:\n        /* \"#utility.yul\":110:176   */\n      tag_310\n      jump\t// in\n    tag_307:\n        /* \"#utility.yul\":101:176   */\n      swap1\n      pop\n        /* \"#utility.yul\":199:205   */\n      dup3\n        /* \"#utility.yul\":192:197   */\n      dup2\n        /* \"#utility.yul\":185:206   */\n      mstore\n        /* \"#utility.yul\":237:241   */\n      0x20\n        /* \"#utility.yul\":230:235   */\n      dup2\n        /* \"#utility.yul\":226:242   */\n      add\n        /* \"#utility.yul\":275:278   */\n      dup5\n        /* \"#utility.yul\":266:272   */\n      dup5\n        /* \"#utility.yul\":261:264   */\n      dup5\n        /* \"#utility.yul\":257:273   */\n      add\n        /* \"#utility.yul\":254:279   */\n      gt\n        /* \"#utility.yul\":251:363   */\n      iszero\n      tag_311\n      jumpi\n        /* \"#utility.yul\":282:361   */\n      tag_312\n      tag_313\n      jump\t// in\n    tag_312:\n        /* \"#utility.yul\":251:363   */\n    tag_311:\n        /* \"#utility.yul\":372:413   */\n      tag_314\n        /* \"#utility.yul\":406:412   */\n      dup5\n        /* \"#utility.yul\":401:404   */\n      dup3\n        /* \"#utility.yul\":396:399   */\n      dup6\n        /* \"#utility.yul\":372:413   */\n      tag_315\n      jump\t// in\n    tag_314:\n        /* \"#utility.yul\":91:419   */\n      pop\n        /* \"#utility.yul\":7:419   */\n      swap4\n      swap3\n      pop\n      pop\n      pop\n      jump\t// out\n        /* \"#utility.yul\":425:564   */\n    tag_316:\n        /* \"#utility.yul\":471:476   */\n      0x00\n        /* \"#utility.yul\":509:515   */\n      dup2\n        /* \"#utility.yul\":496:516   */\n      calldataload\n        /* \"#utility.yul\":487:516   */\n      swap1\n      pop\n        /* \"#utility.yul\":525:558   */\n      tag_318\n        /* \"#utility.yul\":552:557   */\n      dup2\n        /* \"#utility.yul\":525:558   */\n      tag_319\n      jump\t// in\n    tag_318:\n        /* \"#utility.yul\":425:564   */\n      swap3\n      swap2\n      pop\n      pop\n      jump\t// out\n        /* \"#utility.yul\":570:703   */\n    tag_320:\n        /* \"#utility.yul\":613:618   */\n      0x00\n        /* \"#utility.yul\":651:657   */\n      dup2\n        /* \"#utility.yul\":638:658   */\n      calldataload\n        /* \"#utility.yul\":629:658   */\n      swap1\n      pop\n        /* \"#utility.yul\":667:697   */\n      tag_322\n        /* \"#utility.yul\":691:696   */\n      dup2\n        /* \"#utility.yul\":667:697   */\n      tag_323\n      jump\t// in\n    tag_322:\n        /* \"#utility.yul\":570:703   */\n      swap3\n      swap2\n      pop\n      pop\n      jump\t// out\n        /* \"#utility.yul\":723:1063   */\n    tag_324:\n        /* \"#utility.yul\":779:784   */\n      0x00\n        /* \"#utility.yul\":828:831   */\n      dup3\n        /* \"#utility.yul\":821:825   */\n      0x1f\n        /* \"#utility.yul\":813:819   */\n      dup4\n        /* \"#utility.yul\":809:826   */\n      add\n        /* \"#utility.yul\":805:832   */\n      slt\n        /* \"#utility.yul\":795:917   */\n      tag_326\n      jumpi\n        /* \"#utility.yul\":836:915   */\n      tag_327\n      tag_328\n      jump\t// in\n    tag_327:\n        /* \"#utility.yul\":795:917   */\n    tag_326:\n        /* \"#utility.yul\":953:959   */\n      dup2\n        /* \"#utility.yul\":940:960   */\n      calldataload\n        /* \"#utility.yul\":978:1057   */\n      tag_329\n        /* \"#utility.yul\":1053:1056   */\n      dup5\n        /* \"#utility.yul\":1045:1051   */\n      dup3\n        /* \"#utility.yul\":1038:1042   */\n      0x20\n        /* \"#utility.yul\":1030:1036   */\n      dup7\n        /* \"#utility.yul\":1026:1043   */\n      add\n        /* \"#utility.yul\":978:1057   */\n      tag_305\n      jump\t// in\n    tag_329:\n        /* \"#utility.yul\":969:1057   */\n      swap2\n      pop\n        /* \"#utility.yul\":785:1063   */\n      pop\n        /* \"#utility.yul\":723:1063   */\n      swap3\n      swap2\n      pop\n      pop\n      jump\t// out\n        /* \"#utility.yul\":1069:1208   */\n    tag_330:\n        /* \"#utility.yul\":1115:1120   */\n      0x00\n        /* \"#utility.yul\":1153:1159   */\n      dup2\n        /* \"#utility.yul\":1140:1160   */\n      calldataload\n        /* \"#utility.yul\":1131:1160   */\n      swap1\n      pop\n        /* \"#utility.yul\":1169:1202   */\n      tag_332\n        /* \"#utility.yul\":1196:1201   */\n      dup2\n        /* \"#utility.yul\":1169:1202   */\n      tag_333\n      jump\t// in\n    tag_332:\n        /* \"#utility.yul\":1069:1208   */\n      swap3\n      swap2\n      pop\n      pop\n      jump\t// out\n        /* \"#utility.yul\":1214:1543   */\n    tag_64:\n        /* \"#utility.yul\":1273:1279   */\n      0x00\n        /* \"#utility.yul\":1322:1324   */\n      0x20\n        /* \"#utility.yul\":1310:1319   */\n      dup3\n        /* \"#utility.yul\":1301:1308   */\n      dup5\n        /* \"#utility.yul\":1297:1320   */\n      sub\n        /* \"#utility.yul\":1293:1325   */\n      slt\n        /* \"#utility.yul\":1290:1409   */\n      iszero\n      tag_335\n      jumpi\n        /* \"#utility.yul\":1328:1407   */\n      tag_336\n      tag_337\n      jump\t// in\n    tag_336:\n        /* \"#utility.yul\":1290:1409   */\n    tag_335:\n        /* \"#utility.yul\":1448:1449   */\n      0x00\n        /* \"#utility.yul\":1473:1526   */\n      tag_338\n        /* \"#utility.yul\":1518:1525   */\n      dup5\n        /* \"#utility.yul\":1509:1515   */\n      dup3\n        /* \"#utility.yul\":1498:1507   */\n      dup6\n        /* \"#utility.yul\":1494:1516   */\n      add\n        /* \"#utility.yul\":1473:1526   */\n      tag_316\n      jump\t// in\n    tag_338:\n        /* \"#utility.yul\":1463:1526   */\n      swap2\n      pop\n        /* \"#utility.yul\":1419:1536   */\n      pop\n        /* \"#utility.yul\":1214:1543   */\n      swap3\n      swap2\n      pop\n      pop\n      jump\t// out\n        /* \"#utility.yul\":1549:2023   */\n    tag_111:\n        /* \"#utility.yul\":1617:1623   */\n      0x00\n        /* \"#utility.yul\":1625:1631   */\n      dup1\n        /* \"#utility.yul\":1674:1676   */\n      0x40\n        /* \"#utility.yul\":1662:1671   */\n      dup4\n        /* \"#utility.yul\":1653:1660   */\n      dup6\n        /* \"#utility.yul\":1649:1672   */\n      sub\n        /* \"#utility.yul\":1645:1677   */\n      slt\n        /* \"#utility.yul\":1642:1761   */\n      iszero\n      tag_340\n      jumpi\n        /* \"#utility.yul\":1680:1759   */\n      tag_341\n      tag_337\n      jump\t// in\n    tag_341:\n        /* \"#utility.yul\":1642:1761   */\n    tag_340:\n        /* \"#utility.yul\":1800:1801   */\n      0x00\n        /* \"#utility.yul\":1825:1878   */\n      tag_342\n        /* \"#utility.yul\":1870:1877   */\n      dup6\n        /* \"#utility.yul\":1861:1867   */\n      dup3\n        /* \"#utility.yul\":1850:1859   */\n      dup7\n        /* \"#utility.yul\":1846:1868   */\n      add\n        /* \"#utility.yul\":1825:1878   */\n      tag_316\n      jump\t// in\n    tag_342:\n        /* \"#utility.yul\":1815:1878   */\n      swap3\n      pop\n        /* \"#utility.yul\":1771:1888   */\n      pop\n        /* \"#utility.yul\":1927:1929   */\n      0x20\n        /* \"#utility.yul\":1953:2006   */\n      tag_343\n        /* \"#utility.yul\":1998:2005   */\n      dup6\n        /* \"#utility.yul\":1989:1995   */\n      dup3\n        /* \"#utility.yul\":1978:1987   */\n      dup7\n        /* \"#utility.yul\":1974:1996   */\n      add\n        /* \"#utility.yul\":1953:2006   */\n      tag_330\n      jump\t// in\n    tag_343:\n        /* \"#utility.yul\":1943:2006   */\n      swap2\n      pop\n        /* \"#utility.yul\":1898:2016   */\n      pop\n        /* \"#utility.yul\":1549:2023   */\n      swap3\n      pop\n      swap3\n      swap1\n      pop\n      jump\t// out\n        /* \"#utility.yul\":2029:2352   */\n    tag_91:\n        /* \"#utility.yul\":2085:2091   */\n      0x00\n        /* \"#utility.yul\":2134:2136   */\n      0x20\n        /* \"#utility.yul\":2122:2131   */\n      dup3\n        /* \"#utility.yul\":2113:2120   */\n      dup5\n        /* \"#utility.yul\":2109:2132   */\n      sub\n        /* \"#utility.yul\":2105:2137   */\n      slt\n        /* \"#utility.yul\":2102:2221   */\n      iszero\n      tag_345\n      jumpi\n        /* \"#utility.yul\":2140:2219   */\n      tag_346\n      tag_337\n      jump\t// in\n    tag_346:\n        /* \"#utility.yul\":2102:2221   */\n    tag_345:\n        /* \"#utility.yul\":2260:2261   */\n      0x00\n        /* \"#utility.yul\":2285:2335   */\n      tag_347\n        /* \"#utility.yul\":2327:2334   */\n      dup5\n        /* \"#utility.yul\":2318:2324   */\n      dup3\n        /* \"#utility.yul\":2307:2316   */\n      dup6\n        /* \"#utility.yul\":2303:2325   */\n      add\n        /* \"#utility.yul\":2285:2335   */\n      tag_320\n      jump\t// in\n    tag_347:\n        /* \"#utility.yul\":2275:2335   */\n      swap2\n      pop\n        /* \"#utility.yul\":2231:2345   */\n      pop\n        /* \"#utility.yul\":2029:2352   */\n      swap3\n      swap2\n      pop\n      pop\n      jump\t// out\n        /* \"#utility.yul\":2358:3192   */\n    tag_71:\n        /* \"#utility.yul\":2446:2452   */\n      0x00\n        /* \"#utility.yul\":2454:2460   */\n      dup1\n        /* \"#utility.yul\":2503:2505   */\n      0x40\n        /* \"#utility.yul\":2491:2500   */\n      dup4\n        /* \"#utility.yul\":2482:2489   */\n      dup6\n        /* \"#utility.yul\":2478:2501   */\n      sub\n        /* \"#utility.yul\":2474:2506   */\n      slt\n        /* \"#utility.yul\":2471:2590   */\n      iszero\n      tag_349\n      jumpi\n        /* \"#utility.yul\":2509:2588   */\n      tag_350\n      tag_337\n      jump\t// in\n    tag_350:\n        /* \"#utility.yul\":2471:2590   */\n    tag_349:\n        /* \"#utility.yul\":2657:2658   */\n      0x00\n        /* \"#utility.yul\":2646:2655   */\n      dup4\n        /* \"#utility.yul\":2642:2659   */\n      add\n        /* \"#utility.yul\":2629:2660   */\n      calldataload\n        /* \"#utility.yul\":2687:2705   */\n      0xffffffffffffffff\n        /* \"#utility.yul\":2679:2685   */\n      dup2\n        /* \"#utility.yul\":2676:2706   */\n      gt\n        /* \"#utility.yul\":2673:2790   */\n      iszero\n      tag_351\n      jumpi\n        /* \"#utility.yul\":2709:2788   */\n      tag_352\n      tag_353\n      jump\t// in\n    tag_352:\n        /* \"#utility.yul\":2673:2790   */\n    tag_351:\n        /* \"#utility.yul\":2814:2877   */\n      tag_354\n        /* \"#utility.yul\":2869:2876   */\n      dup6\n        /* \"#utility.yul\":2860:2866   */\n      dup3\n        /* \"#utility.yul\":2849:2858   */\n      dup7\n        /* \"#utility.yul\":2845:2867   */\n      add\n        /* \"#utility.yul\":2814:2877   */\n      tag_324\n      jump\t// in\n    tag_354:\n        /* \"#utility.yul\":2804:2877   */\n      swap3\n      pop\n        /* \"#utility.yul\":2600:2887   */\n      pop\n        /* \"#utility.yul\":2954:2956   */\n      0x20\n        /* \"#utility.yul\":2943:2952   */\n      dup4\n        /* \"#utility.yul\":2939:2957   */\n      add\n        /* \"#utility.yul\":2926:2958   */\n      calldataload\n        /* \"#utility.yul\":2985:3003   */\n      0xffffffffffffffff\n        /* \"#utility.yul\":2977:2983   */\n      dup2\n        /* \"#utility.yul\":2974:3004   */\n      gt\n        /* \"#utility.yul\":2971:3088   */\n      iszero\n      tag_355\n      jumpi\n        /* \"#utility.yul\":3007:3086   */\n      tag_356\n      tag_353\n      jump\t// in\n    tag_356:\n        /* \"#utility.yul\":2971:3088   */\n    tag_355:\n        /* \"#utility.yul\":3112:3175   */\n      tag_357\n        /* \"#utility.yul\":3167:3174   */\n      dup6\n        /* \"#utility.yul\":3158:3164   */\n      dup3\n        /* \"#utility.yul\":3147:3156   */\n      dup7\n        /* \"#utility.yul\":3143:3165   */\n      add\n        /* \"#utility.yul\":3112:3175   */\n      tag_324\n      jump\t// in\n    tag_357:\n        /* \"#utility.yul\":3102:3175   */\n      swap2\n      pop\n        /* \"#utility.yul\":2897:3185   */\n      pop\n        /* \"#utility.yul\":2358:3192   */\n      swap3\n      pop\n      swap3\n      swap1\n      pop\n      jump\t// out\n        /* \"#utility.yul\":3198:4177   */\n    tag_139:\n        /* \"#utility.yul\":3295:3301   */\n      0x00\n        /* \"#utility.yul\":3303:3309   */\n      dup1\n        /* \"#utility.yul\":3311:3317   */\n      0x00\n        /* \"#utility.yul\":3360:3362   */\n      0x60\n        /* \"#utility.yul\":3348:3357   */\n      dup5\n        /* \"#utility.yul\":3339:3346   */\n      dup7\n        /* \"#utility.yul\":3335:3358   */\n      sub\n        /* \"#utility.yul\":3331:3363   */\n      slt\n        /* \"#utility.yul\":3328:3447   */\n      iszero\n      tag_359\n      jumpi\n        /* \"#utility.yul\":3366:3445   */\n      tag_360\n      tag_337\n      jump\t// in\n    tag_360:\n        /* \"#utility.yul\":3328:3447   */\n    tag_359:\n        /* \"#utility.yul\":3514:3515   */\n      0x00\n        /* \"#utility.yul\":3503:3512   */\n      dup5\n        /* \"#utility.yul\":3499:3516   */\n      add\n        /* \"#utility.yul\":3486:3517   */\n      calldataload\n        /* \"#utility.yul\":3544:3562   */\n      0xffffffffffffffff\n        /* \"#utility.yul\":3536:3542   */\n      dup2\n        /* \"#utility.yul\":3533:3563   */\n      gt\n        /* \"#utility.yul\":3530:3647   */\n      iszero\n      tag_361\n      jumpi\n        /* \"#utility.yul\":3566:3645   */\n      tag_362\n      tag_353\n      jump\t// in\n    tag_362:\n        /* \"#utility.yul\":3530:3647   */\n    tag_361:\n        /* \"#utility.yul\":3671:3734   */\n      tag_363\n        /* \"#utility.yul\":3726:3733   */\n      dup7\n        /* \"#utility.yul\":3717:3723   */\n      dup3\n        /* \"#utility.yul\":3706:3715   */\n      dup8\n        /* \"#utility.yul\":3702:3724   */\n      add\n        /* \"#utility.yul\":3671:3734   */\n      tag_324\n      jump\t// in\n    tag_363:\n        /* \"#utility.yul\":3661:3734   */\n      swap4\n      pop\n        /* \"#utility.yul\":3457:3744   */\n      pop\n        /* \"#utility.yul\":3811:3813   */\n      0x20\n        /* \"#utility.yul\":3800:3809   */\n      dup5\n        /* \"#utility.yul\":3796:3814   */\n      add\n        /* \"#utility.yul\":3783:3815   */\n      calldataload\n        /* \"#utility.yul\":3842:3860   */\n      0xffffffffffffffff\n        /* \"#utility.yul\":3834:3840   */\n      dup2\n        /* \"#utility.yul\":3831:3861   */\n      gt\n        /* \"#utility.yul\":3828:3945   */\n      iszero\n      tag_364\n      jumpi\n        /* \"#utility.yul\":3864:3943   */\n      tag_365\n      tag_353\n      jump\t// in\n    tag_365:\n        /* \"#utility.yul\":3828:3945   */\n    tag_364:\n        /* \"#utility.yul\":3969:4032   */\n      tag_366\n        /* \"#utility.yul\":4024:4031   */\n      dup7\n        /* \"#utility.yul\":4015:4021   */\n      dup3\n        /* \"#utility.yul\":4004:4013   */\n      dup8\n        /* \"#utility.yul\":4000:4022   */\n      add\n        /* \"#utility.yul\":3969:4032   */\n      tag_324\n      jump\t// in\n    tag_366:\n        /* \"#utility.yul\":3959:4032   */\n      swap3\n      pop\n        /* \"#utility.yul\":3754:4042   */\n      pop\n        /* \"#utility.yul\":4081:4083   */\n      0x40\n        /* \"#utility.yul\":4107:4160   */\n      tag_367\n        /* \"#utility.yul\":4152:4159   */\n      dup7\n        /* \"#utility.yul\":4143:4149   */\n      dup3\n        /* \"#utility.yul\":4132:4141   */\n      dup8\n        /* \"#utility.yul\":4128:4150   */\n      add\n        /* \"#utility.yul\":4107:4160   */\n      tag_330\n      jump\t// in\n    tag_367:\n        /* \"#utility.yul\":4097:4160   */\n      swap2\n      pop\n        /* \"#utility.yul\":4052:4170   */\n      pop\n        /* \"#utility.yul\":3198:4177   */\n      swap3\n      pop\n      swap3\n      pop\n      swap3\n      jump\t// out\n        /* \"#utility.yul\":4183:4512   */\n    tag_76:\n        /* \"#utility.yul\":4242:4248   */\n      0x00\n        /* \"#utility.yul\":4291:4293   */\n      0x20\n        /* \"#utility.yul\":4279:4288   */\n      dup3\n        /* \"#utility.yul\":4270:4277   */\n      dup5\n        /* \"#utility.yul\":4266:4289   */\n      sub\n        /* \"#utility.yul\":4262:4294   */\n      slt\n        /* \"#utility.yul\":4259:4378   */\n      iszero\n      tag_369\n      jumpi\n        /* \"#utility.yul\":4297:4376   */\n      tag_370\n      tag_337\n      jump\t// in\n    tag_370:\n        /* \"#utility.yul\":4259:4378   */\n    tag_369:\n        /* \"#utility.yul\":4417:4418   */\n      0x00\n        /* \"#utility.yul\":4442:4495   */\n      tag_371\n        /* \"#utility.yul\":4487:4494   */\n      dup5\n        /* \"#utility.yul\":4478:4484   */\n      dup3\n        /* \"#utility.yul\":4467:4476   */\n      dup6\n        /* \"#utility.yul\":4463:4485   */\n      add\n        /* \"#utility.yul\":4442:4495   */\n      tag_330\n      jump\t// in\n    tag_371:\n        /* \"#utility.yul\":4432:4495   */\n      swap2\n      pop\n        /* \"#utility.yul\":4388:4505   */\n      pop\n        /* \"#utility.yul\":4183:4512   */\n      swap3\n      swap2\n      pop\n      pop\n      jump\t// out\n        /* \"#utility.yul\":4518:4636   */\n    tag_372:\n        /* \"#utility.yul\":4605:4629   */\n      tag_374\n        /* \"#utility.yul\":4623:4628   */\n      dup2\n        /* \"#utility.yul\":4605:4629   */\n      tag_375\n      jump\t// in\n    tag_374:\n        /* \"#utility.yul\":4600:4603   */\n      dup3\n        /* \"#utility.yul\":4593:4630   */\n      mstore\n        /* \"#utility.yul\":4518:4636   */\n      pop\n      pop\n      jump\t// out\n        /* \"#utility.yul\":4642:4751   */\n    tag_376:\n        /* \"#utility.yul\":4723:4744   */\n      tag_378\n        /* \"#utility.yul\":4738:4743   */\n      dup2\n        /* \"#utility.yul\":4723:4744   */\n      tag_379\n      jump\t// in\n    tag_378:\n        /* \"#utility.yul\":4718:4721   */\n      dup3\n        /* \"#utility.yul\":4711:4745   */\n      mstore\n        /* \"#utility.yul\":4642:4751   */\n      pop\n      pop\n      jump\t// out\n        /* \"#utility.yul\":4757:5121   */\n    tag_380:\n        /* \"#utility.yul\":4845:4848   */\n      0x00\n        /* \"#utility.yul\":4873:4912   */\n      tag_382\n        /* \"#utility.yul\":4906:4911   */\n      dup3\n        /* \"#utility.yul\":4873:4912   */\n      tag_383\n      jump\t// in\n    tag_382:\n        /* \"#utility.yul\":4928:4999   */\n      tag_384\n        /* \"#utility.yul\":4992:4998   */\n      dup2\n        /* \"#utility.yul\":4987:4990   */\n      dup6\n        /* \"#utility.yul\":4928:4999   */\n      tag_385\n      jump\t// in\n    tag_384:\n        /* \"#utility.yul\":4921:4999   */\n      swap4\n      pop\n        /* \"#utility.yul\":5008:5060   */\n      tag_386\n        /* \"#utility.yul\":5053:5059   */\n      dup2\n        /* \"#utility.yul\":5048:5051   */\n      dup6\n        /* \"#utility.yul\":5041:5045   */\n      0x20\n        /* \"#utility.yul\":5034:5039   */\n      dup7\n        /* \"#utility.yul\":5030:5046   */\n      add\n        /* \"#utility.yul\":5008:5060   */\n      tag_387\n      jump\t// in\n    tag_386:\n        /* \"#utility.yul\":5085:5114   */\n      tag_388\n        /* \"#utility.yul\":5107:5113   */\n      dup2\n        /* \"#utility.yul\":5085:5114   */\n      tag_389\n      jump\t// in\n    tag_388:\n        /* \"#utility.yul\":5080:5083   */\n      dup5\n        /* \"#utility.yul\":5076:5115   */\n      add\n        /* \"#utility.yul\":5069:5115   */\n      swap2\n      pop\n        /* \"#utility.yul\":4849:5121   */\n      pop\n        /* \"#utility.yul\":4757:5121   */\n      swap3\n      swap2\n      pop\n      pop\n      jump\t// out\n        /* \"#utility.yul\":5127:5493   */\n    tag_390:\n        /* \"#utility.yul\":5269:5272   */\n      0x00\n        /* \"#utility.yul\":5290:5357   */\n      tag_392\n        /* \"#utility.yul\":5354:5356   */\n      0x23\n        /* \"#utility.yul\":5349:5352   */\n      dup4\n        /* \"#utility.yul\":5290:5357   */\n      tag_385\n      jump\t// in\n    tag_392:\n        /* \"#utility.yul\":5283:5357   */\n      swap2\n      pop\n        /* \"#utility.yul\":5366:5459   */\n      tag_393\n        /* \"#utility.yul\":5455:5458   */\n      dup3\n        /* \"#utility.yul\":5366:5459   */\n      tag_394\n      jump\t// in\n    tag_393:\n        /* \"#utility.yul\":5484:5486   */\n      0x40\n        /* \"#utility.yul\":5479:5482   */\n      dup3\n        /* \"#utility.yul\":5475:5487   */\n      add\n        /* \"#utility.yul\":5468:5487   */\n      swap1\n      pop\n        /* \"#utility.yul\":5127:5493   */\n      swap2\n      swap1\n      pop\n      jump\t// out\n        /* \"#utility.yul\":5499:5865   */\n    tag_395:\n        /* \"#utility.yul\":5641:5644   */\n      0x00\n        /* \"#utility.yul\":5662:5729   */\n      tag_397\n        /* \"#utility.yul\":5726:5728   */\n      0x22\n        /* \"#utility.yul\":5721:5724   */\n      dup4\n        /* \"#utility.yul\":5662:5729   */\n      tag_385\n      jump\t// in\n    tag_397:\n        /* \"#utility.yul\":5655:5729   */\n      swap2\n      pop\n        /* \"#utility.yul\":5738:5831   */\n      tag_398\n        /* \"#utility.yul\":5827:5830   */\n      dup3\n        /* \"#utility.yul\":5738:5831   */\n      tag_399\n      jump\t// in\n    tag_398:\n        /* \"#utility.yul\":5856:5858   */\n      0x40\n        /* \"#utility.yul\":5851:5854   */\n      dup3\n        /* \"#utility.yul\":5847:5859   */\n      add\n        /* \"#utility.yul\":5840:5859   */\n      swap1\n      pop\n        /* \"#utility.yul\":5499:5865   */\n      swap2\n      swap1\n      pop\n      jump\t// out\n        /* \"#utility.yul\":5871:6237   */\n    tag_400:\n        /* \"#utility.yul\":6013:6016   */\n      0x00\n        /* \"#utility.yul\":6034:6101   */\n      tag_402\n        /* \"#utility.yul\":6098:6100   */\n      0x0e\n        /* \"#utility.yul\":6093:6096   */\n      dup4\n        /* \"#utility.yul\":6034:6101   */\n      tag_385\n      jump\t// in\n    tag_402:\n        /* \"#utility.yul\":6027:6101   */\n      swap2\n      pop\n        /* \"#utility.yul\":6110:6203   */\n      tag_403\n        /* \"#utility.yul\":6199:6202   */\n      dup3\n        /* \"#utility.yul\":6110:6203   */\n      tag_404\n      jump\t// in\n    tag_403:\n        /* \"#utility.yul\":6228:6230   */\n      0x20\n        /* \"#utility.yul\":6223:6226   */\n      dup3\n        /* \"#utility.yul\":6219:6231   */\n      add\n        /* \"#utility.yul\":6212:6231   */\n      swap1\n      pop\n        /* \"#utility.yul\":5871:6237   */\n      swap2\n      swap1\n      pop\n      jump\t// out\n        /* \"#utility.yul\":6243:6361   */\n    tag_405:\n        /* \"#utility.yul\":6330:6354   */\n      tag_407\n        /* \"#utility.yul\":6348:6353   */\n      dup2\n        /* \"#utility.yul\":6330:6354   */\n      tag_408\n      jump\t// in\n    tag_407:\n        /* \"#utility.yul\":6325:6328   */\n      dup3\n        /* \"#utility.yul\":6318:6355   */\n      mstore\n        /* \"#utility.yul\":6243:6361   */\n      pop\n      pop\n      jump\t// out\n        /* \"#utility.yul\":6367:6589   */\n    tag_79:\n        /* \"#utility.yul\":6460:6464   */\n      0x00\n        /* \"#utility.yul\":6498:6500   */\n      0x20\n        /* \"#utility.yul\":6487:6496   */\n      dup3\n        /* \"#utility.yul\":6483:6501   */\n      add\n        /* \"#utility.yul\":6475:6501   */\n      swap1\n      pop\n        /* \"#utility.yul\":6511:6582   */\n      tag_410\n        /* \"#utility.yul\":6579:6580   */\n      0x00\n        /* \"#utility.yul\":6568:6577   */\n      dup4\n        /* \"#utility.yul\":6564:6581   */\n      add\n        /* \"#utility.yul\":6555:6561   */\n      dup5\n        /* \"#utility.yul\":6511:6582   */\n      tag_372\n      jump\t// in\n    tag_410:\n        /* \"#utility.yul\":6367:6589   */\n      swap3\n      swap2\n      pop\n      pop\n      jump\t// out\n        /* \"#utility.yul\":6595:6805   */\n    tag_67:\n        /* \"#utility.yul\":6682:6686   */\n      0x00\n        /* \"#utility.yul\":6720:6722   */\n      0x20\n        /* \"#utility.yul\":6709:6718   */\n      dup3\n        /* \"#utility.yul\":6705:6723   */\n      add\n        /* \"#utility.yul\":6697:6723   */\n      swap1\n      pop\n        /* \"#utility.yul\":6733:6798   */\n      tag_412\n        /* \"#utility.yul\":6795:6796   */\n      0x00\n        /* \"#utility.yul\":6784:6793   */\n      dup4\n        /* \"#utility.yul\":6780:6797   */\n      add\n        /* \"#utility.yul\":6771:6777   */\n      dup5\n        /* \"#utility.yul\":6733:6798   */\n      tag_376\n      jump\t// in\n    tag_412:\n        /* \"#utility.yul\":6595:6805   */\n      swap3\n      swap2\n      pop\n      pop\n      jump\t// out\n        /* \"#utility.yul\":6811:7124   */\n    tag_46:\n        /* \"#utility.yul\":6924:6928   */\n      0x00\n        /* \"#utility.yul\":6962:6964   */\n      0x20\n        /* \"#utility.yul\":6951:6960   */\n      dup3\n        /* \"#utility.yul\":6947:6965   */\n      add\n        /* \"#utility.yul\":6939:6965   */\n      swap1\n      pop\n        /* \"#utility.yul\":7011:7020   */\n      dup2\n        /* \"#utility.yul\":7005:7009   */\n      dup2\n        /* \"#utility.yul\":7001:7021   */\n      sub\n        /* \"#utility.yul\":6997:6998   */\n      0x00\n        /* \"#utility.yul\":6986:6995   */\n      dup4\n        /* \"#utility.yul\":6982:6999   */\n      add\n        /* \"#utility.yul\":6975:7022   */\n      mstore\n        /* \"#utility.yul\":7039:7117   */\n      tag_414\n        /* \"#utility.yul\":7112:7116   */\n      dup2\n        /* \"#utility.yul\":7103:7109   */\n      dup5\n        /* \"#utility.yul\":7039:7117   */\n      tag_380\n      jump\t// in\n    tag_414:\n        /* \"#utility.yul\":7031:7117   */\n      swap1\n      pop\n        /* \"#utility.yul\":6811:7124   */\n      swap3\n      swap2\n      pop\n      pop\n      jump\t// out\n        /* \"#utility.yul\":7130:7754   */\n    tag_107:\n        /* \"#utility.yul\":7319:7323   */\n      0x00\n        /* \"#utility.yul\":7357:7359   */\n      0x60\n        /* \"#utility.yul\":7346:7355   */\n      dup3\n        /* \"#utility.yul\":7342:7360   */\n      add\n        /* \"#utility.yul\":7334:7360   */\n      swap1\n      pop\n        /* \"#utility.yul\":7406:7415   */\n      dup2\n        /* \"#utility.yul\":7400:7404   */\n      dup2\n        /* \"#utility.yul\":7396:7416   */\n      sub\n        /* \"#utility.yul\":7392:7393   */\n      0x00\n        /* \"#utility.yul\":7381:7390   */\n      dup4\n        /* \"#utility.yul\":7377:7394   */\n      add\n        /* \"#utility.yul\":7370:7417   */\n      mstore\n        /* \"#utility.yul\":7434:7512   */\n      tag_416\n        /* \"#utility.yul\":7507:7511   */\n      dup2\n        /* \"#utility.yul\":7498:7504   */\n      dup7\n        /* \"#utility.yul\":7434:7512   */\n      tag_380\n      jump\t// in\n    tag_416:\n        /* \"#utility.yul\":7426:7512   */\n      swap1\n      pop\n        /* \"#utility.yul\":7559:7568   */\n      dup2\n        /* \"#utility.yul\":7553:7557   */\n      dup2\n        /* \"#utility.yul\":7549:7569   */\n      sub\n        /* \"#utility.yul\":7544:7546   */\n      0x20\n        /* \"#utility.yul\":7533:7542   */\n      dup4\n        /* \"#utility.yul\":7529:7547   */\n      add\n        /* \"#utility.yul\":7522:7570   */\n      mstore\n        /* \"#utility.yul\":7587:7665   */\n      tag_417\n        /* \"#utility.yul\":7660:7664   */\n      dup2\n        /* \"#utility.yul\":7651:7657   */\n      dup6\n        /* \"#utility.yul\":7587:7665   */\n      tag_380\n      jump\t// in\n    tag_417:\n        /* \"#utility.yul\":7579:7665   */\n      swap1\n      pop\n        /* \"#utility.yul\":7675:7747   */\n      tag_418\n        /* \"#utility.yul\":7743:7745   */\n      0x40\n        /* \"#utility.yul\":7732:7741   */\n      dup4\n        /* \"#utility.yul\":7728:7746   */\n      add\n        /* \"#utility.yul\":7719:7725   */\n      dup5\n        /* \"#utility.yul\":7675:7747   */\n      tag_405\n      jump\t// in\n    tag_418:\n        /* \"#utility.yul\":7130:7754   */\n      swap5\n      swap4\n      pop\n      pop\n      pop\n      pop\n      jump\t// out\n        /* \"#utility.yul\":7760:8179   */\n    tag_254:\n        /* \"#utility.yul\":7926:7930   */\n      0x00\n        /* \"#utility.yul\":7964:7966   */\n      0x20\n        /* \"#utility.yul\":7953:7962   */\n      dup3\n        /* \"#utility.yul\":7949:7967   */\n      add\n        /* \"#utility.yul\":7941:7967   */\n      swap1\n      pop\n        /* \"#utility.yul\":8013:8022   */\n      dup2\n        /* \"#utility.yul\":8007:8011   */\n      dup2\n        /* \"#utility.yul\":8003:8023   */\n      sub\n        /* \"#utility.yul\":7999:8000   */\n      0x00\n        /* \"#utility.yul\":7988:7997   */\n      dup4\n        /* \"#utility.yul\":7984:8001   */\n      add\n        /* \"#utility.yul\":7977:8024   */\n      mstore\n        /* \"#utility.yul\":8041:8172   */\n      tag_420\n        /* \"#utility.yul\":8167:8171   */\n      dup2\n        /* \"#utility.yul\":8041:8172   */\n      tag_390\n      jump\t// in\n    tag_420:\n        /* \"#utility.yul\":8033:8172   */\n      swap1\n      pop\n        /* \"#utility.yul\":7760:8179   */\n      swap2\n      swap1\n      pop\n      jump\t// out\n        /* \"#utility.yul\":8185:8604   */\n    tag_281:\n        /* \"#utility.yul\":8351:8355   */\n      0x00\n        /* \"#utility.yul\":8389:8391   */\n      0x20\n        /* \"#utility.yul\":8378:8387   */\n      dup3\n        /* \"#utility.yul\":8374:8392   */\n      add\n        /* \"#utility.yul\":8366:8392   */\n      swap1\n      pop\n        /* \"#utility.yul\":8438:8447   */\n      dup2\n        /* \"#utility.yul\":8432:8436   */\n      dup2\n        /* \"#utility.yul\":8428:8448   */\n      sub\n        /* \"#utility.yul\":8424:8425   */\n      0x00\n        /* \"#utility.yul\":8413:8422   */\n      dup4\n        /* \"#utility.yul\":8409:8426   */\n      add\n        /* \"#utility.yul\":8402:8449   */\n      mstore\n        /* \"#utility.yul\":8466:8597   */\n      tag_422\n        /* \"#utility.yul\":8592:8596   */\n      dup2\n        /* \"#utility.yul\":8466:8597   */\n      tag_395\n      jump\t// in\n    tag_422:\n        /* \"#utility.yul\":8458:8597   */\n      swap1\n      pop\n        /* \"#utility.yul\":8185:8604   */\n      swap2\n      swap1\n      pop\n      jump\t// out\n        /* \"#utility.yul\":8610:9029   */\n    tag_259:\n        /* \"#utility.yul\":8776:8780   */\n      0x00\n        /* \"#utility.yul\":8814:8816   */\n      0x20\n        /* \"#utility.yul\":8803:8812   */\n      dup3\n        /* \"#utility.yul\":8799:8817   */\n      add\n        /* \"#utility.yul\":8791:8817   */\n      swap1\n      pop\n        /* \"#utility.yul\":8863:8872   */\n      dup2\n        /* \"#utility.yul\":8857:8861   */\n      dup2\n        /* \"#utility.yul\":8853:8873   */\n      sub\n        /* \"#utility.yul\":8849:8850   */\n      0x00\n        /* \"#utility.yul\":8838:8847   */\n      dup4\n        /* \"#utility.yul\":8834:8851   */\n      add\n        /* \"#utility.yul\":8827:8874   */\n      mstore\n        /* \"#utility.yul\":8891:9022   */\n      tag_424\n        /* \"#utility.yul\":9017:9021   */\n      dup2\n        /* \"#utility.yul\":8891:9022   */\n      tag_400\n      jump\t// in\n    tag_424:\n        /* \"#utility.yul\":8883:9022   */\n      swap1\n      pop\n        /* \"#utility.yul\":8610:9029   */\n      swap2\n      swap1\n      pop\n      jump\t// out\n        /* \"#utility.yul\":9035:9257   */\n    tag_37:\n        /* \"#utility.yul\":9128:9132   */\n      0x00\n        /* \"#utility.yul\":9166:9168   */\n      0x20\n        /* \"#utility.yul\":9155:9164   */\n      dup3\n        /* \"#utility.yul\":9151:9169   */\n      add\n        /* \"#utility.yul\":9143:9169   */\n      swap1\n      pop\n        /* \"#utility.yul\":9179:9250   */\n      tag_426\n        /* \"#utility.yul\":9247:9248   */\n      0x00\n        /* \"#utility.yul\":9236:9245   */\n      dup4\n        /* \"#utility.yul\":9232:9249   */\n      add\n        /* \"#utility.yul\":9223:9229   */\n      dup5\n        /* \"#utility.yul\":9179:9250   */\n      tag_405\n      jump\t// in\n    tag_426:\n        /* \"#utility.yul\":9035:9257   */\n      swap3\n      swap2\n      pop\n      pop\n      jump\t// out\n        /* \"#utility.yul\":9263:9392   */\n    tag_310:\n        /* \"#utility.yul\":9297:9303   */\n      0x00\n        /* \"#utility.yul\":9324:9344   */\n      tag_428\n      tag_429\n      jump\t// in\n    tag_428:\n        /* \"#utility.yul\":9314:9344   */\n      swap1\n      pop\n        /* \"#utility.yul\":9353:9386   */\n      tag_430\n        /* \"#utility.yul\":9381:9385   */\n      dup3\n        /* \"#utility.yul\":9373:9379   */\n      dup3\n        /* \"#utility.yul\":9353:9386   */\n      tag_431\n      jump\t// in\n    tag_430:\n        /* \"#utility.yul\":9263:9392   */\n      swap2\n      swap1\n      pop\n      jump\t// out\n        /* \"#utility.yul\":9398:9473   */\n    tag_429:\n        /* \"#utility.yul\":9431:9437   */\n      0x00\n        /* \"#utility.yul\":9464:9466   */\n      0x40\n        /* \"#utility.yul\":9458:9467   */\n      mload\n        /* \"#utility.yul\":9448:9467   */\n      swap1\n      pop\n        /* \"#utility.yul\":9398:9473   */\n      swap1\n      jump\t// out\n        /* \"#utility.yul\":9479:9787   */\n    tag_309:\n        /* \"#utility.yul\":9541:9545   */\n      0x00\n        /* \"#utility.yul\":9631:9649   */\n      0xffffffffffffffff\n        /* \"#utility.yul\":9623:9629   */\n      dup3\n        /* \"#utility.yul\":9620:9650   */\n      gt\n        /* \"#utility.yul\":9617:9673   */\n      iszero\n      tag_434\n      jumpi\n        /* \"#utility.yul\":9653:9671   */\n      tag_435\n      tag_436\n      jump\t// in\n    tag_435:\n        /* \"#utility.yul\":9617:9673   */\n    tag_434:\n        /* \"#utility.yul\":9691:9720   */\n      tag_437\n        /* \"#utility.yul\":9713:9719   */\n      dup3\n        /* \"#utility.yul\":9691:9720   */\n      tag_389\n      jump\t// in\n    tag_437:\n        /* \"#utility.yul\":9683:9720   */\n      swap1\n      pop\n        /* \"#utility.yul\":9775:9779   */\n      0x20\n        /* \"#utility.yul\":9769:9773   */\n      dup2\n        /* \"#utility.yul\":9765:9780   */\n      add\n        /* \"#utility.yul\":9757:9780   */\n      swap1\n      pop\n        /* \"#utility.yul\":9479:9787   */\n      swap2\n      swap1\n      pop\n      jump\t// out\n        /* \"#utility.yul\":9793:9892   */\n    tag_383:\n        /* \"#utility.yul\":9845:9851   */\n      0x00\n        /* \"#utility.yul\":9879:9884   */\n      dup2\n        /* \"#utility.yul\":9873:9885   */\n      mload\n        /* \"#utility.yul\":9863:9885   */\n      swap1\n      pop\n        /* \"#utility.yul\":9793:9892   */\n      swap2\n      swap1\n      pop\n      jump\t// out\n        /* \"#utility.yul\":9898:10067   */\n    tag_385:\n        /* \"#utility.yul\":9982:9993   */\n      0x00\n        /* \"#utility.yul\":10016:10022   */\n      dup3\n        /* \"#utility.yul\":10011:10014   */\n      dup3\n        /* \"#utility.yul\":10004:10023   */\n      mstore\n        /* \"#utility.yul\":10056:10060   */\n      0x20\n        /* \"#utility.yul\":10051:10054   */\n      dup3\n        /* \"#utility.yul\":10047:10061   */\n      add\n        /* \"#utility.yul\":10032:10061   */\n      swap1\n      pop\n        /* \"#utility.yul\":9898:10067   */\n      swap3\n      swap2\n      pop\n      pop\n      jump\t// out\n        /* \"#utility.yul\":10073:10378   */\n    tag_218:\n        /* \"#utility.yul\":10113:10116   */\n      0x00\n        /* \"#utility.yul\":10132:10152   */\n      tag_441\n        /* \"#utility.yul\":10150:10151   */\n      dup3\n        /* \"#utility.yul\":10132:10152   */\n      tag_408\n      jump\t// in\n    tag_441:\n        /* \"#utility.yul\":10127:10152   */\n      swap2\n      pop\n        /* \"#utility.yul\":10166:10186   */\n      tag_442\n        /* \"#utility.yul\":10184:10185   */\n      dup4\n        /* \"#utility.yul\":10166:10186   */\n      tag_408\n      jump\t// in\n    tag_442:\n        /* \"#utility.yul\":10161:10186   */\n      swap3\n      pop\n        /* \"#utility.yul\":10320:10321   */\n      dup3\n        /* \"#utility.yul\":10252:10318   */\n      0xffffffffffffffffffffffffffffffffffffffffffffffffffffffffffffffff\n        /* \"#utility.yul\":10248:10322   */\n      sub\n        /* \"#utility.yul\":10245:10246   */\n      dup3\n        /* \"#utility.yul\":10242:10323   */\n      gt\n        /* \"#utility.yul\":10239:10346   */\n      iszero\n      tag_443\n      jumpi\n        /* \"#utility.yul\":10326:10344   */\n      tag_444\n      tag_445\n      jump\t// in\n    tag_444:\n        /* \"#utility.yul\":10239:10346   */\n    tag_443:\n        /* \"#utility.yul\":10370:10371   */\n      dup3\n        /* \"#utility.yul\":10367:10368   */\n      dup3\n        /* \"#utility.yul\":10363:10372   */\n      add\n        /* \"#utility.yul\":10356:10372   */\n      swap1\n      pop\n        /* \"#utility.yul\":10073:10378   */\n      swap3\n      swap2\n      pop\n      pop\n      jump\t// out\n        /* \"#utility.yul\":10384:10732   */\n    tag_256:\n        /* \"#utility.yul\":10424:10431   */\n      0x00\n        /* \"#utility.yul\":10447:10467   */\n      tag_447\n        /* \"#utility.yul\":10465:10466   */\n      dup3\n        /* \"#utility.yul\":10447:10467   */\n      tag_408\n      jump\t// in\n    tag_447:\n        /* \"#utility.yul\":10442:10467   */\n      swap2\n      pop\n        /* \"#utility.yul\":10481:10501   */\n      tag_448\n        /* \"#utility.yul\":10499:10500   */\n      dup4\n        /* \"#utility.yul\":10481:10501   */\n      tag_408\n      jump\t// in\n    tag_448:\n        /* \"#utility.yul\":10476:10501   */\n      swap3\n      pop\n        /* \"#utility.yul\":10669:10670   */\n      dup2\n        /* \"#utility.yul\":10601:10667   */\n      0xffffffffffffffffffffffffffffffffffffffffffffffffffffffffffffffff\n        /* \"#utility.yul\":10597:10671   */\n      div\n        /* \"#utility.yul\":10594:10595   */\n      dup4\n        /* \"#utility.yul\":10591:10672   */\n      gt\n        /* \"#utility.yul\":10586:10587   */\n      dup3\n        /* \"#utility.yul\":10579:10588   */\n      iszero\n        /* \"#utility.yul\":10572:10589   */\n      iszero\n        /* \"#utility.yul\":10568:10673   */\n      and\n        /* \"#utility.yul\":10565:10696   */\n      iszero\n      tag_449\n      jumpi\n        /* \"#utility.yul\":10676:10694   */\n      tag_450\n      tag_445\n      jump\t// in\n    tag_450:\n        /* \"#utility.yul\":10565:10696   */\n    tag_449:\n        /* \"#utility.yul\":10724:10725   */\n      dup3\n        /* \"#utility.yul\":10721:10722   */\n      dup3\n        /* \"#utility.yul\":10717:10726   */\n      mul\n        /* \"#utility.yul\":10706:10726   */\n      swap1\n      pop\n        /* \"#utility.yul\":10384:10732   */\n      swap3\n      swap2\n      pop\n      pop\n      jump\t// out\n        /* \"#utility.yul\":10738:10929   */\n    tag_216:\n        /* \"#utility.yul\":10778:10782   */\n      0x00\n        /* \"#utility.yul\":10798:10818   */\n      tag_452\n        /* \"#utility.yul\":10816:10817   */\n      dup3\n        /* \"#utility.yul\":10798:10818   */\n      tag_408\n      jump\t// in\n    tag_452:\n        /* \"#utility.yul\":10793:10818   */\n      swap2\n      pop\n        /* \"#utility.yul\":10832:10852   */\n      tag_453\n        /* \"#utility.yul\":10850:10851   */\n      dup4\n        /* \"#utility.yul\":10832:10852   */\n      tag_408\n      jump\t// in\n    tag_453:\n        /* \"#utility.yul\":10827:10852   */\n      swap3\n      pop\n        /* \"#utility.yul\":10871:10872   */\n      dup3\n        /* \"#utility.yul\":10868:10869   */\n      dup3\n        /* \"#utility.yul\":10865:10873   */\n      lt\n        /* \"#utility.yul\":10862:10896   */\n      iszero\n      tag_454\n      jumpi\n        /* \"#utility.yul\":10876:10894   */\n      tag_455\n      tag_445\n      jump\t// in\n    tag_455:\n        /* \"#utility.yul\":10862:10896   */\n    tag_454:\n        /* \"#utility.yul\":10921:10922   */\n      dup3\n        /* \"#utility.yul\":10918:10919   */\n      dup3\n        /* \"#utility.yul\":10914:10923   */\n      sub\n        /* \"#utility.yul\":10906:10923   */\n      swap1\n      pop\n        /* \"#utility.yul\":10738:10929   */\n      swap3\n      swap2\n      pop\n      pop\n      jump\t// out\n        /* \"#utility.yul\":10935:11031   */\n    tag_375:\n        /* \"#utility.yul\":10972:10979   */\n      0x00\n        /* \"#utility.yul\":11001:11025   */\n      tag_457\n        /* \"#utility.yul\":11019:11024   */\n      dup3\n        /* \"#utility.yul\":11001:11025   */\n      tag_458\n      jump\t// in\n    tag_457:\n        /* \"#utility.yul\":10990:11025   */\n      swap1\n      pop\n        /* \"#utility.yul\":10935:11031   */\n      swap2\n      swap1\n      pop\n      jump\t// out\n        /* \"#utility.yul\":11037:11127   */\n    tag_379:\n        /* \"#utility.yul\":11071:11078   */\n      0x00\n        /* \"#utility.yul\":11114:11119   */\n      dup2\n        /* \"#utility.yul\":11107:11120   */\n      iszero\n        /* \"#utility.yul\":11100:11121   */\n      iszero\n        /* \"#utility.yul\":11089:11121   */\n      swap1\n      pop\n        /* \"#utility.yul\":11037:11127   */\n      swap2\n      swap1\n      pop\n      jump\t// out\n        /* \"#utility.yul\":11133:11259   */\n    tag_458:\n        /* \"#utility.yul\":11170:11177   */\n      0x00\n        /* \"#utility.yul\":11210:11252   */\n      0xffffffffffffffffffffffffffffffffffffffff\n        /* \"#utility.yul\":11203:11208   */\n      dup3\n        /* \"#utility.yul\":11199:11253   */\n      and\n        /* \"#utility.yul\":11188:11253   */\n      swap1\n      pop\n        /* \"#utility.yul\":11133:11259   */\n      swap2\n      swap1\n      pop\n      jump\t// out\n        /* \"#utility.yul\":11265:11342   */\n    tag_408:\n        /* \"#utility.yul\":11302:11309   */\n      0x00\n        /* \"#utility.yul\":11331:11336   */\n      dup2\n        /* \"#utility.yul\":11320:11336   */\n      swap1\n      pop\n        /* \"#utility.yul\":11265:11342   */\n      swap2\n      swap1\n      pop\n      jump\t// out\n        /* \"#utility.yul\":11348:11502   */\n    tag_315:\n        /* \"#utility.yul\":11432:11438   */\n      dup3\n        /* \"#utility.yul\":11427:11430   */\n      dup2\n        /* \"#utility.yul\":11422:11425   */\n      dup4\n        /* \"#utility.yul\":11409:11439   */\n      calldatacopy\n        /* \"#utility.yul\":11494:11495   */\n      0x00\n        /* \"#utility.yul\":11485:11491   */\n      dup4\n        /* \"#utility.yul\":11480:11483   */\n      dup4\n        /* \"#utility.yul\":11476:11492   */\n      add\n        /* \"#utility.yul\":11469:11496   */\n      mstore\n        /* \"#utility.yul\":11348:11502   */\n      pop\n      pop\n      pop\n      jump\t// out\n        /* \"#utility.yul\":11508:11815   */\n    tag_387:\n        /* \"#utility.yul\":11576:11577   */\n      0x00\n        /* \"#utility.yul\":11586:11699   */\n    tag_464:\n        /* \"#utility.yul\":11600:11606   */\n      dup4\n        /* \"#utility.yul\":11597:11598   */\n      dup2\n        /* \"#utility.yul\":11594:11607   */\n      lt\n        /* \"#utility.yul\":11586:11699   */\n      iszero\n      tag_466\n      jumpi\n        /* \"#utility.yul\":11685:11686   */\n      dup1\n        /* \"#utility.yul\":11680:11683   */\n      dup3\n        /* \"#utility.yul\":11676:11687   */\n      add\n        /* \"#utility.yul\":11670:11688   */\n      mload\n        /* \"#utility.yul\":11666:11667   */\n      dup2\n        /* \"#utility.yul\":11661:11664   */\n      dup5\n        /* \"#utility.yul\":11657:11668   */\n      add\n        /* \"#utility.yul\":11650:11689   */\n      mstore\n        /* \"#utility.yul\":11622:11624   */\n      0x20\n        /* \"#utility.yul\":11619:11620   */\n      dup2\n        /* \"#utility.yul\":11615:11625   */\n      add\n        /* \"#utility.yul\":11610:11625   */\n      swap1\n      pop\n        /* \"#utility.yul\":11586:11699   */\n      jump(tag_464)\n    tag_466:\n        /* \"#utility.yul\":11717:11723   */\n      dup4\n        /* \"#utility.yul\":11714:11715   */\n      dup2\n        /* \"#utility.yul\":11711:11724   */\n      gt\n        /* \"#utility.yul\":11708:11809   */\n      iszero\n      tag_467\n      jumpi\n        /* \"#utility.yul\":11797:11798   */\n      0x00\n        /* \"#utility.yul\":11788:11794   */\n      dup5\n        /* \"#utility.yul\":11783:11786   */\n      dup5\n        /* \"#utility.yul\":11779:11795   */\n      add\n        /* \"#utility.yul\":11772:11799   */\n      mstore\n        /* \"#utility.yul\":11708:11809   */\n    tag_467:\n        /* \"#utility.yul\":11557:11815   */\n      pop\n        /* \"#utility.yul\":11508:11815   */\n      pop\n      pop\n      pop\n      jump\t// out\n        /* \"#utility.yul\":11821:12141   */\n    tag_150:\n        /* \"#utility.yul\":11865:11871   */\n      0x00\n        /* \"#utility.yul\":11902:11903   */\n      0x02\n        /* \"#utility.yul\":11896:11900   */\n      dup3\n        /* \"#utility.yul\":11892:11904   */\n      div\n        /* \"#utility.yul\":11882:11904   */\n      swap1\n      pop\n        /* \"#utility.yul\":11949:11950   */\n      0x01\n        /* \"#utility.yul\":11943:11947   */\n      dup3\n        /* \"#utility.yul\":11939:11951   */\n      and\n        /* \"#utility.yul\":11970:11988   */\n      dup1\n        /* \"#utility.yul\":11960:12041   */\n      tag_469\n      jumpi\n        /* \"#utility.yul\":12026:12030   */\n      0x7f\n        /* \"#utility.yul\":12018:12024   */\n      dup3\n        /* \"#utility.yul\":12014:12031   */\n      and\n        /* \"#utility.yul\":12004:12031   */\n      swap2\n      pop\n        /* \"#utility.yul\":11960:12041   */\n    tag_469:\n        /* \"#utility.yul\":12088:12090   */\n      0x20\n        /* \"#utility.yul\":12080:12086   */\n      dup3\n        /* \"#utility.yul\":12077:12091   */\n      lt\n        /* \"#utility.yul\":12057:12075   */\n      dup2\n        /* \"#utility.yul\":12054:12092   */\n      eq\n        /* \"#utility.yul\":12051:12135   */\n      iszero\n      tag_470\n      jumpi\n        /* \"#utility.yul\":12107:12125   */\n      tag_471\n      tag_472\n      jump\t// in\n    tag_471:\n        /* \"#utility.yul\":12051:12135   */\n    tag_470:\n        /* \"#utility.yul\":11872:12141   */\n      pop\n        /* \"#utility.yul\":11821:12141   */\n      swap2\n      swap1\n      pop\n      jump\t// out\n        /* \"#utility.yul\":12147:12428   */\n    tag_431:\n        /* \"#utility.yul\":12230:12257   */\n      tag_474\n        /* \"#utility.yul\":12252:12256   */\n      dup3\n        /* \"#utility.yul\":12230:12257   */\n      tag_389\n      jump\t// in\n    tag_474:\n        /* \"#utility.yul\":12222:12228   */\n      dup2\n        /* \"#utility.yul\":12218:12258   */\n      add\n        /* \"#utility.yul\":12360:12366   */\n      dup2\n        /* \"#utility.yul\":12348:12358   */\n      dup2\n        /* \"#utility.yul\":12345:12367   */\n      lt\n        /* \"#utility.yul\":12324:12342   */\n      0xffffffffffffffff\n        /* \"#utility.yul\":12312:12322   */\n      dup3\n        /* \"#utility.yul\":12309:12343   */\n      gt\n        /* \"#utility.yul\":12306:12368   */\n      or\n        /* \"#utility.yul\":12303:12391   */\n      iszero\n      tag_475\n      jumpi\n        /* \"#utility.yul\":12371:12389   */\n      tag_476\n      tag_436\n      jump\t// in\n    tag_476:\n        /* \"#utility.yul\":12303:12391   */\n    tag_475:\n        /* \"#utility.yul\":12411:12421   */\n      dup1\n        /* \"#utility.yul\":12407:12409   */\n      0x40\n        /* \"#utility.yul\":12400:12422   */\n      mstore\n        /* \"#utility.yul\":12190:12428   */\n      pop\n        /* \"#utility.yul\":12147:12428   */\n      pop\n      pop\n      jump\t// out\n        /* \"#utility.yul\":12434:12667   */\n    tag_197:\n        /* \"#utility.yul\":12473:12476   */\n      0x00\n        /* \"#utility.yul\":12496:12520   */\n      tag_478\n        /* \"#utility.yul\":12514:12519   */\n      dup3\n        /* \"#utility.yul\":12496:12520   */\n      tag_408\n      jump\t// in\n    tag_478:\n        /* \"#utility.yul\":12487:12520   */\n      swap2\n      pop\n        /* \"#utility.yul\":12542:12608   */\n      0xffffffffffffffffffffffffffffffffffffffffffffffffffffffffffffffff\n        /* \"#utility.yul\":12535:12540   */\n      dup3\n        /* \"#utility.yul\":12532:12609   */\n      eq\n        /* \"#utility.yul\":12529:12632   */\n      iszero\n      tag_479\n      jumpi\n        /* \"#utility.yul\":12612:12630   */\n      tag_480\n      tag_445\n      jump\t// in\n    tag_480:\n        /* \"#utility.yul\":12529:12632   */\n    tag_479:\n        /* \"#utility.yul\":12659:12660   */\n      0x01\n        /* \"#utility.yul\":12652:12657   */\n      dup3\n        /* \"#utility.yul\":12648:12661   */\n      add\n        /* \"#utility.yul\":12641:12661   */\n      swap1\n      pop\n        /* \"#utility.yul\":12434:12667   */\n      swap2\n      swap1\n      pop\n      jump\t// out\n        /* \"#utility.yul\":12673:12853   */\n    tag_445:\n        /* \"#utility.yul\":12721:12798   */\n      0x4e487b7100000000000000000000000000000000000000000000000000000000\n        /* \"#utility.yul\":12718:12719   */\n      0x00\n        /* \"#utility.yul\":12711:12799   */\n      mstore\n        /* \"#utility.yul\":12818:12822   */\n      0x11\n        /* \"#utility.yul\":12815:12816   */\n      0x04\n        /* \"#utility.yul\":12808:12823   */\n      mstore\n        /* \"#utility.yul\":12842:12846   */\n      0x24\n        /* \"#utility.yul\":12839:12840   */\n      0x00\n        /* \"#utility.yul\":12832:12847   */\n      revert\n        /* \"#utility.yul\":12859:13039   */\n    tag_160:\n        /* \"#utility.yul\":12907:12984   */\n      0x4e487b7100000000000000000000000000000000000000000000000000000000\n        /* \"#utility.yul\":12904:12905   */\n      0x00\n        /* \"#utility.yul\":12897:12985   */\n      mstore\n        /* \"#utility.yul\":13004:13008   */\n      0x21\n        /* \"#utility.yul\":13001:13002   */\n      0x04\n        /* \"#utility.yul\":12994:13009   */\n      mstore\n        /* \"#utility.yul\":13028:13032   */\n      0x24\n        /* \"#utility.yul\":13025:13026   */\n      0x00\n        /* \"#utility.yul\":13018:13033   */\n      revert\n        /* \"#utility.yul\":13045:13225   */\n    tag_472:\n        /* \"#utility.yul\":13093:13170   */\n      0x4e487b7100000000000000000000000000000000000000000000000000000000\n        /* \"#utility.yul\":13090:13091   */\n      0x00\n        /* \"#utility.yul\":13083:13171   */\n      mstore\n        /* \"#utility.yul\":13190:13194   */\n      0x22\n        /* \"#utility.yul\":13187:13188   */\n      0x04\n        /* \"#utility.yul\":13180:13195   */\n      mstore\n        /* \"#utility.yul\":13214:13218   */\n      0x24\n        /* \"#utility.yul\":13211:13212   */\n      0x00\n        /* \"#utility.yul\":13204:13219   */\n      revert\n        /* \"#utility.yul\":13231:13411   */\n    tag_290:\n        /* \"#utility.yul\":13279:13356   */\n      0x4e487b7100000000000000000000000000000000000000000000000000000000\n        /* \"#utility.yul\":13276:13277   */\n      0x00\n        /* \"#utility.yul\":13269:13357   */\n      mstore\n        /* \"#utility.yul\":13376:13380   */\n      0x32\n        /* \"#utility.yul\":13373:13374   */\n      0x04\n        /* \"#utility.yul\":13366:13381   */\n      mstore\n        /* \"#utility.yul\":13400:13404   */\n      0x24\n        /* \"#utility.yul\":13397:13398   */\n      0x00\n        /* \"#utility.yul\":13390:13405   */\n      revert\n        /* \"#utility.yul\":13417:13597   */\n    tag_436:\n        /* \"#utility.yul\":13465:13542   */\n      0x4e487b7100000000000000000000000000000000000000000000000000000000\n        /* \"#utility.yul\":13462:13463   */\n      0x00\n        /* \"#utility.yul\":13455:13543   */\n      mstore\n        /* \"#utility.yul\":13562:13566   */\n      0x41\n        /* \"#utility.yul\":13559:13560   */\n      0x04\n        /* \"#utility.yul\":13552:13567   */\n      mstore\n        /* \"#utility.yul\":13586:13590   */\n      0x24\n        /* \"#utility.yul\":13583:13584   */\n      0x00\n        /* \"#utility.yul\":13576:13591   */\n      revert\n        /* \"#utility.yul\":13603:13720   */\n    tag_328:\n        /* \"#utility.yul\":13712:13713   */\n      0x00\n        /* \"#utility.yul\":13709:13710   */\n      dup1\n        /* \"#utility.yul\":13702:13714   */\n      revert\n        /* \"#utility.yul\":13726:13843   */\n    tag_313:\n        /* \"#utility.yul\":13835:13836   */\n      0x00\n        /* \"#utility.yul\":13832:13833   */\n      dup1\n        /* \"#utility.yul\":13825:13837   */\n      revert\n        /* \"#utility.yul\":13849:13966   */\n    tag_353:\n        /* \"#utility.yul\":13958:13959   */\n      0x00\n        /* \"#utility.yul\":13955:13956   */\n      dup1\n        /* \"#utility.yul\":13948:13960   */\n      revert\n        /* \"#utility.yul\":13972:14089   */\n    tag_337:\n        /* \"#utility.yul\":14081:14082   */\n      0x00\n        /* \"#utility.yul\":14078:14079   */\n      dup1\n        /* \"#utility.yul\":14071:14083   */\n      revert\n        /* \"#utility.yul\":14095:14197   */\n    tag_389:\n        /* \"#utility.yul\":14136:14142   */\n      0x00\n        /* \"#utility.yul\":14187:14189   */\n      0x1f\n        /* \"#utility.yul\":14183:14190   */\n      not\n        /* \"#utility.yul\":14178:14180   */\n      0x1f\n        /* \"#utility.yul\":14171:14176   */\n      dup4\n        /* \"#utility.yul\":14167:14181   */\n      add\n        /* \"#utility.yul\":14163:14191   */\n      and\n        /* \"#utility.yul\":14153:14191   */\n      swap1\n      pop\n        /* \"#utility.yul\":14095:14197   */\n      swap2\n      swap1\n      pop\n      jump\t// out\n        /* \"#utility.yul\":14203:14425   */\n    tag_394:\n        /* \"#utility.yul\":14343:14377   */\n      0x4e756d626572206f662073686172657320657863656564656420746865206c69\n        /* \"#utility.yul\":14339:14340   */\n      0x00\n        /* \"#utility.yul\":14331:14337   */\n      dup3\n        /* \"#utility.yul\":14327:14341   */\n      add\n        /* \"#utility.yul\":14320:14378   */\n      mstore\n        /* \"#utility.yul\":14412:14417   */\n      0x6d69740000000000000000000000000000000000000000000000000000000000\n        /* \"#utility.yul\":14407:14409   */\n      0x20\n        /* \"#utility.yul\":14399:14405   */\n      dup3\n        /* \"#utility.yul\":14395:14410   */\n      add\n        /* \"#utility.yul\":14388:14418   */\n      mstore\n        /* \"#utility.yul\":14203:14425   */\n      pop\n      jump\t// out\n        /* \"#utility.yul\":14431:14652   */\n    tag_399:\n        /* \"#utility.yul\":14571:14605   */\n      0x54686973207573657220646f6573206e6f7420686f6c6420616e792073686172\n        /* \"#utility.yul\":14567:14568   */\n      0x00\n        /* \"#utility.yul\":14559:14565   */\n      dup3\n        /* \"#utility.yul\":14555:14569   */\n      add\n        /* \"#utility.yul\":14548:14606   */\n      mstore\n        /* \"#utility.yul\":14640:14644   */\n      0x6573000000000000000000000000000000000000000000000000000000000000\n        /* \"#utility.yul\":14635:14637   */\n      0x20\n        /* \"#utility.yul\":14627:14633   */\n      dup3\n        /* \"#utility.yul\":14623:14638   */\n      add\n        /* \"#utility.yul\":14616:14645   */\n      mstore\n        /* \"#utility.yul\":14431:14652   */\n      pop\n      jump\t// out\n        /* \"#utility.yul\":14658:14822   */\n    tag_404:\n        /* \"#utility.yul\":14798:14814   */\n      0x4e6f7420656e6f75676820776569000000000000000000000000000000000000\n        /* \"#utility.yul\":14794:14795   */\n      0x00\n        /* \"#utility.yul\":14786:14792   */\n      dup3\n        /* \"#utility.yul\":14782:14796   */\n      add\n        /* \"#utility.yul\":14775:14815   */\n      mstore\n        /* \"#utility.yul\":14658:14822   */\n      pop\n      jump\t// out\n        /* \"#utility.yul\":14828:14950   */\n    tag_319:\n        /* \"#utility.yul\":14901:14925   */\n      tag_495\n        /* \"#utility.yul\":14919:14924   */\n      dup2\n        /* \"#utility.yul\":14901:14925   */\n      tag_375\n      jump\t// in\n    tag_495:\n        /* \"#utility.yul\":14894:14899   */\n      dup2\n        /* \"#utility.yul\":14891:14926   */\n      eq\n        /* \"#utility.yul\":14881:14944   */\n      tag_496\n      jumpi\n        /* \"#utility.yul\":14940:14941   */\n      0x00\n        /* \"#utility.yul\":14937:14938   */\n      dup1\n        /* \"#utility.yul\":14930:14942   */\n      revert\n        /* \"#utility.yul\":14881:14944   */\n    tag_496:\n        /* \"#utility.yul\":14828:14950   */\n      pop\n      jump\t// out\n        /* \"#utility.yul\":14956:15072   */\n    tag_323:\n        /* \"#utility.yul\":15026:15047   */\n      tag_498\n        /* \"#utility.yul\":15041:15046   */\n      dup2\n        /* \"#utility.yul\":15026:15047   */\n      tag_379\n      jump\t// in\n    tag_498:\n        /* \"#utility.yul\":15019:15024   */\n      dup2\n        /* \"#utility.yul\":15016:15048   */\n      eq\n        /* \"#utility.yul\":15006:15066   */\n      tag_499\n      jumpi\n        /* \"#utility.yul\":15062:15063   */\n      0x00\n        /* \"#utility.yul\":15059:15060   */\n      dup1\n        /* \"#utility.yul\":15052:15064   */\n      revert\n        /* \"#utility.yul\":15006:15066   */\n    tag_499:\n        /* \"#utility.yul\":14956:15072   */\n      pop\n      jump\t// out\n        /* \"#utility.yul\":15078:15200   */\n    tag_333:\n        /* \"#utility.yul\":15151:15175   */\n      tag_501\n        /* \"#utility.yul\":15169:15174   */\n      dup2\n        /* \"#utility.yul\":15151:15175   */\n      tag_408\n      jump\t// in\n    tag_501:\n        /* \"#utility.yul\":15144:15149   */\n      dup2\n        /* \"#utility.yul\":15141:15176   */\n      eq\n        /* \"#utility.yul\":15131:15194   */\n      tag_502\n      jumpi\n        /* \"#utility.yul\":15190:15191   */\n      0x00\n        /* \"#utility.yul\":15187:15188   */\n      dup1\n        /* \"#utility.yul\":15180:15192   */\n      revert\n        /* \"#utility.yul\":15131:15194   */\n    tag_502:\n        /* \"#utility.yul\":15078:15200   */\n      pop\n      jump\t// out\n\n    auxdata: 0xa26469706673582212209e76e0831079dbaafd998d967043f64b39c33fd2eac79c585044ccb13ac2980864736f6c63430008070033\n}\n",
				"bytecode": {
					"linkReferences": {},
					"object": "6080604052600060055560646006556001600755600a60085560006009556000601155600060125560006013553480156200003957600080fd5b50604051620025753803806200257583398181016040528101906200005f91906200028b565b336000806101000a81548173ffffffffffffffffffffffffffffffffffffffff021916908373ffffffffffffffffffffffffffffffffffffffff160217905550600654600d60003373ffffffffffffffffffffffffffffffffffffffff1673ffffffffffffffffffffffffffffffffffffffff168152602001908152602001600020819055508160016000019080519060200190620001009291906200015d565b50806001800190805190602001906200011b9291906200015d565b5060006001600201819055506000600a60006101000a81548160ff0219169083600181111562000150576200014f62000411565b5b02179055505050620004c3565b8280546200016b90620003a5565b90600052602060002090601f0160209004810192826200018f5760008555620001db565b82601f10620001aa57805160ff1916838001178555620001db565b82800160010185558215620001db579182015b82811115620001da578251825591602001919060010190620001bd565b5b509050620001ea9190620001ee565b5090565b5b8082111562000209576000816000905550600101620001ef565b5090565b6000620002246200021e8462000339565b62000310565b905082815260208101848484011115620002435762000242620004a3565b5b620002508482856200036f565b509392505050565b600082601f83011262000270576200026f6200049e565b5b8151620002828482602086016200020d565b91505092915050565b60008060408385031215620002a557620002a4620004ad565b5b600083015167ffffffffffffffff811115620002c657620002c5620004a8565b5b620002d48582860162000258565b925050602083015167ffffffffffffffff811115620002f857620002f7620004a8565b5b620003068582860162000258565b9150509250929050565b60006200031c6200032f565b90506200032a8282620003db565b919050565b6000604051905090565b600067ffffffffffffffff8211156200035757620003566200046f565b5b6200036282620004b2565b9050602081019050919050565b60005b838110156200038f57808201518184015260208101905062000372565b838111156200039f576000848401525b50505050565b60006002820490506001821680620003be57607f821691505b60208210811415620003d557620003d462000440565b5b50919050565b620003e682620004b2565b810181811067ffffffffffffffff821117156200040857620004076200046f565b5b80604052505050565b7f4e487b7100000000000000000000000000000000000000000000000000000000600052602160045260246000fd5b7f4e487b7100000000000000000000000000000000000000000000000000000000600052602260045260246000fd5b7f4e487b7100000000000000000000000000000000000000000000000000000000600052604160045260246000fd5b600080fd5b600080fd5b600080fd5b600080fd5b6000601f19601f8301169050919050565b6120a280620004d36000396000f3fe6080604052600436106101815760003560e01c80638da5cb5b116100d1578063b92239461161008a578063d96a094a11610064578063d96a094a14610554578063df09440914610570578063e4849b3214610599578063f3a8286f146105c257610181565b8063b9223946146104d3578063cd0c5896146104ea578063d8124c5f1461052757610181565b80638da5cb5b146103c15780639a982416146103ec578063a14ba98714610417578063a9059cbb14610456578063ad3494421461047f578063af769c64146104aa57610181565b80634c0a6af01161013e5780637427a40c116101185780637427a40c146102f1578063753ec1031461032e5780637ff9b5961461035957806387caea781461038457610181565b80634c0a6af01461027457806359ea01731461028b5780636fa4f103146102c857610181565b80630d15fd7714610186578063162d8afb146101b15780631b26586c146101dc578063293230b8146102075780633a98ef391461021e5780633be75aa314610249575b600080fd5b34801561019257600080fd5b5061019b6105ed565b6040516101a89190611ba9565b60405180910390f35b3480156101bd57600080fd5b506101c66105f3565b6040516101d39190611ba9565b60405180910390f35b3480156101e857600080fd5b506101f16105f9565b6040516101fe9190611ae2565b60405180910390f35b34801561021357600080fd5b5061021c610687565b005b34801561022a57600080fd5b5061023361070c565b6040516102409190611ba9565b60405180910390f35b34801561025557600080fd5b5061025e610712565b60405161026b9190611ba9565b60405180910390f35b34801561028057600080fd5b50610289610718565b005b34801561029757600080fd5b506102b260048036038101906102ad9190611813565b61080d565b6040516102bf9190611ac7565b60405180910390f35b3480156102d457600080fd5b506102ef60048036038101906102ea91906118ad565b61082d565b005b3480156102fd57600080fd5b50610318600480360381019061031391906119b0565b6108cb565b6040516103259190611aac565b60405180910390f35b34801561033a57600080fd5b5061034361090a565b6040516103509190611ae2565b60405180910390f35b34801561036557600080fd5b5061036e610998565b60405161037b9190611ba9565b60405180910390f35b34801561039057600080fd5b506103ab60048036038101906103a69190611880565b61099e565b6040516103b89190611ac7565b60405180910390f35b3480156103cd57600080fd5b506103d6610bda565b6040516103e39190611aac565b60405180910390f35b3480156103f857600080fd5b50610401610bfe565b60405161040e9190611ba9565b60405180910390f35b34801561042357600080fd5b5061043e600480360381019061043991906119b0565b610c04565b60405161044d93929190611b04565b60405180910390f35b34801561046257600080fd5b5061047d60048036038101906104789190611840565b610d4e565b005b34801561048b57600080fd5b50610494610ea2565b6040516104a19190611aac565b60405180910390f35b3480156104b657600080fd5b506104d160048036038101906104cc9190611813565b610ec8565b005b3480156104df57600080fd5b506104e861103b565b005b3480156104f657600080fd5b50610511600480360381019061050c9190611813565b611146565b60405161051e9190611ba9565b60405180910390f35b34801561053357600080fd5b5061053c611167565b60405161054b93929190611b04565b60405180910390f35b61056e600480360381019061056991906119b0565b61128f565b005b34801561057c57600080fd5b5061059760048036038101906105929190611925565b61133a565b005b3480156105a557600080fd5b506105c060048036038101906105bb91906119b0565b6114e4565b005b3480156105ce57600080fd5b506105d76115db565b6040516105e49190611ba9565b60405180910390f35b60135481565b60055481565b600f805461060690611da4565b80601f016020809104026020016040519081016040528092919081815260200182805461063290611da4565b801561067f5780601f106106545761010080835404028352916020019161067f565b820191906000526020600020905b81548152906001019060200180831161066257829003601f168201915b505050505081565b60008054906101000a900473ffffffffffffffffffffffffffffffffffffffff1673ffffffffffffffffffffffffffffffffffffffff163373ffffffffffffffffffffffffffffffffffffffff16146106df57600080fd5b6001600a60006101000a81548160ff0219169083600181111561070557610704611e7f565b5b0217905550565b60065481565b60085481565b600080600281111561072d5761072c611e7f565b5b600e60009054906101000a900460ff16600281111561074f5761074e611e7f565b5b1461075957600080fd5b600e60019054906101000a900473ffffffffffffffffffffffffffffffffffffffff1673ffffffffffffffffffffffffffffffffffffffff163373ffffffffffffffffffffffffffffffffffffffff16146107b357600080fd5b6001600e60006101000a81548160ff021916908360028111156107d9576107d8611e7f565b5b02179055507fd0dc01800a369fef30d3fced5275b8b916549867622e79efca5245c479fda4ea60405160405180910390a150565b600c6020528060005260406000206000915054906101000a900460ff1681565b6000600e60006101000a81548160ff0219169083600281111561085357610852611e7f565b5b021790555081600f908051906020019061086e92919061168f565b50806010908051906020019061088592919061168f565b5033600e60016101000a81548173ffffffffffffffffffffffffffffffffffffffff021916908373ffffffffffffffffffffffffffffffffffffffff1602179055505050565b600b81815481106108db57600080fd5b906000526020600020016000915054906101000a900473ffffffffffffffffffffffffffffffffffffffff1681565b6010805461091790611da4565b80601f016020809104026020016040519081016040528092919081815260200182805461094390611da4565b80156109905780601f1061096557610100808354040283529160200191610990565b820191906000526020600020905b81548152906001019060200180831161097357829003601f168201915b505050505081565b60075481565b600060018060028111156109b5576109b4611e7f565b5b600e60009054906101000a900460ff1660028111156109d7576109d6611e7f565b5b146109e157600080fd5b6000600c60003373ffffffffffffffffffffffffffffffffffffffff1673ffffffffffffffffffffffffffffffffffffffff16815260200190815260200160002060009054906101000a900460ff16610b99576001600c60003373ffffffffffffffffffffffffffffffffffffffff1673ffffffffffffffffffffffffffffffffffffffff16815260200190815260200160002060006101000a81548160ff021916908315150217905550610a94611715565b33816000019073ffffffffffffffffffffffffffffffffffffffff16908173ffffffffffffffffffffffffffffffffffffffff1681525050848160200190151590811515815250508415610afb5760116000815480929190610af590611e07565b91905055505b8060146000601354815260200190815260200160002060008201518160000160006101000a81548173ffffffffffffffffffffffffffffffffffffffff021916908373ffffffffffffffffffffffffffffffffffffffff16021790555060208201518160000160146101000a81548160ff02191690831515021790555090505060136000815480929190610b8e90611e07565b919050555060019150505b7f55c65cf9526efdf6c2252fe9757889dbd93e10172cad0f2edb1df619c88dbf7d33604051610bc89190611aac565b60405180910390a18092505050919050565b60008054906101000a900473ffffffffffffffffffffffffffffffffffffffff1681565b60095481565b60048181548110610c1457600080fd5b9060005260206000209060030201600091509050806000018054610c3790611da4565b80601f0160208091040260200160405190810160405280929190818152602001828054610c6390611da4565b8015610cb05780601f10610c8557610100808354040283529160200191610cb0565b820191906000526020600020905b815481529060010190602001808311610c9357829003601f168201915b505050505090806001018054610cc590611da4565b80601f0160208091040260200160405190810160405280929190818152602001828054610cf190611da4565b8015610d3e5780601f10610d1357610100808354040283529160200191610d3e565b820191906000526020600020905b815481529060010190602001808311610d2157829003601f168201915b5050505050908060020154905083565b80600d60003373ffffffffffffffffffffffffffffffffffffffff1673ffffffffffffffffffffffffffffffffffffffff168152602001908152602001600020541015610d9a57600080fd5b60008054906101000a900473ffffffffffffffffffffffffffffffffffffffff1673ffffffffffffffffffffffffffffffffffffffff163373ffffffffffffffffffffffffffffffffffffffff1614610df257600080fd5b80600d60003373ffffffffffffffffffffffffffffffffffffffff1673ffffffffffffffffffffffffffffffffffffffff1681526020019081526020016000206000828254610e419190611ce6565b9250508190555080600d60008473ffffffffffffffffffffffffffffffffffffffff1673ffffffffffffffffffffffffffffffffffffffff1681526020019081526020016000206000828254610e979190611c36565b925050819055505050565b600e60019054906101000a900473ffffffffffffffffffffffffffffffffffffffff1681565b60008054906101000a900473ffffffffffffffffffffffffffffffffffffffff1673ffffffffffffffffffffffffffffffffffffffff163373ffffffffffffffffffffffffffffffffffffffff1614610f2057600080fd5b610f29816115e1565b611038576000600c60008373ffffffffffffffffffffffffffffffffffffffff1673ffffffffffffffffffffffffffffffffffffffff16815260200190815260200160002060006101000a81548160ff021916908315150217905550600b819080600181540180825580915050600190039060005260206000200160009091909190916101000a81548173ffffffffffffffffffffffffffffffffffffffff021916908373ffffffffffffffffffffffffffffffffffffffff16021790555060096000815480929190610ffb90611e07565b91905055507f30040c92e8da146ac410fb6841ea0f60af3b8f3788e5e7354e48d97d018f39dd8160405161102f9190611aac565b60405180910390a15b50565b60018060028111156110505761104f611e7f565b5b600e60009054906101000a900460ff16600281111561107257611071611e7f565b5b1461107c57600080fd5b600e60019054906101000a900473ffffffffffffffffffffffffffffffffffffffff1673ffffffffffffffffffffffffffffffffffffffff163373ffffffffffffffffffffffffffffffffffffffff16146110d657600080fd5b6002600e60006101000a81548160ff021916908360028111156110fc576110fb611e7f565b5b02179055506011546012819055507fb43a401dcdbe02a8afa41feb6c651425997908d1a4b79cf505188ba1dd3fd87260125460405161113b9190611ba9565b60405180910390a150565b60008173ffffffffffffffffffffffffffffffffffffffff16319050919050565b600180600001805461117890611da4565b80601f01602080910402602001604051908101604052809291908181526020018280546111a490611da4565b80156111f15780601f106111c6576101008083540402835291602001916111f1565b820191906000526020600020905b8154815290600101906020018083116111d457829003601f168201915b50505050509080600101805461120690611da4565b80601f016020809104026020016040519081016040528092919081815260200182805461123290611da4565b801561127f5780601f106112545761010080835404028352916020019161127f565b820191906000526020600020905b81548152906001019060200180831161126257829003601f168201915b5050505050908060020154905083565b6008548111156112d4576040517f08c379a00000000000000000000000000000000000000000000000000000000081526004016112cb90611b49565b60405180910390fd5b600754816112e29190611c8c565b341015611324576040517f08c379a000000000000000000000000000000000000000000000000000000000815260040161131b90611b89565b60405180910390fd5b61132e3382610d4e565b61133733610ec8565b50565b60008054906101000a900473ffffffffffffffffffffffffffffffffffffffff1673ffffffffffffffffffffffffffffffffffffffff163373ffffffffffffffffffffffffffffffffffffffff161461139257600080fd5b60008060018111156113a7576113a6611e7f565b5b600a60009054906101000a900460ff1660018111156113c9576113c8611e7f565b5b146113d357600080fd5b6000604051806060016040528086815260200185815260200184815250905082600160020160008282546114079190611c36565b925050819055506001600201546007819055506004819080600181540180825580915050600190039060005260206000209060030201600090919091909150600082015181600001908051906020019061146292919061168f565b50602082015181600101908051906020019061147f92919061168f565b5060408201518160020155505060016005600082825461149f9190611c36565b925050819055507f4578fe17eaab41ae382abe3462bb0cf04bcfee4168d2aad3ce9d5d225d0e27f6856040516114d59190611ae2565b60405180910390a15050505050565b6114ed336115e1565b61152c576040517f08c379a000000000000000000000000000000000000000000000000000000000815260040161152390611b69565b60405180910390fd5b80600d60003373ffffffffffffffffffffffffffffffffffffffff1673ffffffffffffffffffffffffffffffffffffffff168152602001908152602001600020600082825461157b9190611ce6565b9250508190555080600d60003073ffffffffffffffffffffffffffffffffffffffff1673ffffffffffffffffffffffffffffffffffffffff16815260200190815260200160002060008282546115d19190611c36565b9250508190555050565b60125481565b600080600090505b600b805490508111611684578273ffffffffffffffffffffffffffffffffffffffff16600b82815481106116205761161f611edd565b5b9060005260206000200160009054906101000a900473ffffffffffffffffffffffffffffffffffffffff1673ffffffffffffffffffffffffffffffffffffffff16141561167157600191505061168a565b808061167c90611e07565b9150506115e9565b50600090505b919050565b82805461169b90611da4565b90600052602060002090601f0160209004810192826116bd5760008555611704565b82601f106116d657805160ff1916838001178555611704565b82800160010185558215611704579182015b828111156117035782518255916020019190600101906116e8565b5b5090506117119190611747565b5090565b6040518060400160405280600073ffffffffffffffffffffffffffffffffffffffff1681526020016000151581525090565b5b80821115611760576000816000905550600101611748565b5090565b600061177761177284611be9565b611bc4565b90508281526020810184848401111561179357611792611f40565b5b61179e848285611d62565b509392505050565b6000813590506117b581612027565b92915050565b6000813590506117ca8161203e565b92915050565b600082601f8301126117e5576117e4611f3b565b5b81356117f5848260208601611764565b91505092915050565b60008135905061180d81612055565b92915050565b60006020828403121561182957611828611f4a565b5b6000611837848285016117a6565b91505092915050565b6000806040838503121561185757611856611f4a565b5b6000611865858286016117a6565b9250506020611876858286016117fe565b9150509250929050565b60006020828403121561189657611895611f4a565b5b60006118a4848285016117bb565b91505092915050565b600080604083850312156118c4576118c3611f4a565b5b600083013567ffffffffffffffff8111156118e2576118e1611f45565b5b6118ee858286016117d0565b925050602083013567ffffffffffffffff81111561190f5761190e611f45565b5b61191b858286016117d0565b9150509250929050565b60008060006060848603121561193e5761193d611f4a565b5b600084013567ffffffffffffffff81111561195c5761195b611f45565b5b611968868287016117d0565b935050602084013567ffffffffffffffff81111561198957611988611f45565b5b611995868287016117d0565b92505060406119a6868287016117fe565b9150509250925092565b6000602082840312156119c6576119c5611f4a565b5b60006119d4848285016117fe565b91505092915050565b6119e681611d1a565b82525050565b6119f581611d2c565b82525050565b6000611a0682611c1a565b611a108185611c25565b9350611a20818560208601611d71565b611a2981611f4f565b840191505092915050565b6000611a41602383611c25565b9150611a4c82611f60565b604082019050919050565b6000611a64602283611c25565b9150611a6f82611faf565b604082019050919050565b6000611a87600e83611c25565b9150611a9282611ffe565b602082019050919050565b611aa681611d58565b82525050565b6000602082019050611ac160008301846119dd565b92915050565b6000602082019050611adc60008301846119ec565b92915050565b60006020820190508181036000830152611afc81846119fb565b905092915050565b60006060820190508181036000830152611b1e81866119fb565b90508181036020830152611b3281856119fb565b9050611b416040830184611a9d565b949350505050565b60006020820190508181036000830152611b6281611a34565b9050919050565b60006020820190508181036000830152611b8281611a57565b9050919050565b60006020820190508181036000830152611ba281611a7a565b9050919050565b6000602082019050611bbe6000830184611a9d565b92915050565b6000611bce611bdf565b9050611bda8282611dd6565b919050565b6000604051905090565b600067ffffffffffffffff821115611c0457611c03611f0c565b5b611c0d82611f4f565b9050602081019050919050565b600081519050919050565b600082825260208201905092915050565b6000611c4182611d58565b9150611c4c83611d58565b9250827fffffffffffffffffffffffffffffffffffffffffffffffffffffffffffffffff03821115611c8157611c80611e50565b5b828201905092915050565b6000611c9782611d58565b9150611ca283611d58565b9250817fffffffffffffffffffffffffffffffffffffffffffffffffffffffffffffffff0483118215151615611cdb57611cda611e50565b5b828202905092915050565b6000611cf182611d58565b9150611cfc83611d58565b925082821015611d0f57611d0e611e50565b5b828203905092915050565b6000611d2582611d38565b9050919050565b60008115159050919050565b600073ffffffffffffffffffffffffffffffffffffffff82169050919050565b6000819050919050565b82818337600083830152505050565b60005b83811015611d8f578082015181840152602081019050611d74565b83811115611d9e576000848401525b50505050565b60006002820490506001821680611dbc57607f821691505b60208210811415611dd057611dcf611eae565b5b50919050565b611ddf82611f4f565b810181811067ffffffffffffffff82111715611dfe57611dfd611f0c565b5b80604052505050565b6000611e1282611d58565b91507fffffffffffffffffffffffffffffffffffffffffffffffffffffffffffffffff821415611e4557611e44611e50565b5b600182019050919050565b7f4e487b7100000000000000000000000000000000000000000000000000000000600052601160045260246000fd5b7f4e487b7100000000000000000000000000000000000000000000000000000000600052602160045260246000fd5b7f4e487b7100000000000000000000000000000000000000000000000000000000600052602260045260246000fd5b7f4e487b7100000000000000000000000000000000000000000000000000000000600052603260045260246000fd5b7f4e487b7100000000000000000000000000000000000000000000000000000000600052604160045260246000fd5b600080fd5b600080fd5b600080fd5b600080fd5b6000601f19601f8301169050919050565b7f4e756d626572206f662073686172657320657863656564656420746865206c6960008201527f6d69740000000000000000000000000000000000000000000000000000000000602082015250565b7f54686973207573657220646f6573206e6f7420686f6c6420616e79207368617260008201527f6573000000000000000000000000000000000000000000000000000000000000602082015250565b7f4e6f7420656e6f75676820776569000000000000000000000000000000000000600082015250565b61203081611d1a565b811461203b57600080fd5b50565b61204781611d2c565b811461205257600080fd5b50565b61205e81611d58565b811461206957600080fd5b5056fea26469706673582212209e76e0831079dbaafd998d967043f64b39c33fd2eac79c585044ccb13ac2980864736f6c63430008070033",
					"opcodes": "PUSH1 0x80 PUSH1 0x40 MSTORE PUSH1 0x0 PUSH1 0x5 SSTORE PUSH1 0x64 PUSH1 0x6 SSTORE PUSH1 0x1 PUSH1 0x7 SSTORE PUSH1 0xA PUSH1 0x8 SSTORE PUSH1 0x0 PUSH1 0x9 SSTORE PUSH1 0x0 PUSH1 0x11 SSTORE PUSH1 0x0 PUSH1 0x12 SSTORE PUSH1 0x0 PUSH1 0x13 SSTORE CALLVALUE DUP1 ISZERO PUSH3 0x39 JUMPI PUSH1 0x0 DUP1 REVERT JUMPDEST POP PUSH1 0x40 MLOAD PUSH3 0x2575 CODESIZE SUB DUP1 PUSH3 0x2575 DUP4 CODECOPY DUP2 DUP2 ADD PUSH1 0x40 MSTORE DUP2 ADD SWAP1 PUSH3 0x5F SWAP2 SWAP1 PUSH3 0x28B JUMP JUMPDEST CALLER PUSH1 0x0 DUP1 PUSH2 0x100 EXP DUP2 SLOAD DUP2 PUSH20 0xFFFFFFFFFFFFFFFFFFFFFFFFFFFFFFFFFFFFFFFF MUL NOT AND SWAP1 DUP4 PUSH20 0xFFFFFFFFFFFFFFFFFFFFFFFFFFFFFFFFFFFFFFFF AND MUL OR SWAP1 SSTORE POP PUSH1 0x6 SLOAD PUSH1 0xD PUSH1 0x0 CALLER PUSH20 0xFFFFFFFFFFFFFFFFFFFFFFFFFFFFFFFFFFFFFFFF AND PUSH20 0xFFFFFFFFFFFFFFFFFFFFFFFFFFFFFFFFFFFFFFFF AND DUP2 MSTORE PUSH1 0x20 ADD SWAP1 DUP2 MSTORE PUSH1 0x20 ADD PUSH1 0x0 KECCAK256 DUP2 SWAP1 SSTORE POP DUP2 PUSH1 0x1 PUSH1 0x0 ADD SWAP1 DUP1 MLOAD SWAP1 PUSH1 0x20 ADD SWAP1 PUSH3 0x100 SWAP3 SWAP2 SWAP1 PUSH3 0x15D JUMP JUMPDEST POP DUP1 PUSH1 0x1 DUP1 ADD SWAP1 DUP1 MLOAD SWAP1 PUSH1 0x20 ADD SWAP1 PUSH3 0x11B SWAP3 SWAP2 SWAP1 PUSH3 0x15D JUMP JUMPDEST POP PUSH1 0x0 PUSH1 0x1 PUSH1 0x2 ADD DUP2 SWAP1 SSTORE POP PUSH1 0x0 PUSH1 0xA PUSH1 0x0 PUSH2 0x100 EXP DUP2 SLOAD DUP2 PUSH1 0xFF MUL NOT AND SWAP1 DUP4 PUSH1 0x1 DUP2 GT ISZERO PUSH3 0x150 JUMPI PUSH3 0x14F PUSH3 0x411 JUMP JUMPDEST JUMPDEST MUL OR SWAP1 SSTORE POP POP POP PUSH3 0x4C3 JUMP JUMPDEST DUP3 DUP1 SLOAD PUSH3 0x16B SWAP1 PUSH3 0x3A5 JUMP JUMPDEST SWAP1 PUSH1 0x0 MSTORE PUSH1 0x20 PUSH1 0x0 KECCAK256 SWAP1 PUSH1 0x1F ADD PUSH1 0x20 SWAP1 DIV DUP2 ADD SWAP3 DUP3 PUSH3 0x18F JUMPI PUSH1 0x0 DUP6 SSTORE PUSH3 0x1DB JUMP JUMPDEST DUP3 PUSH1 0x1F LT PUSH3 0x1AA JUMPI DUP1 MLOAD PUSH1 0xFF NOT AND DUP4 DUP1 ADD OR DUP6 SSTORE PUSH3 0x1DB JUMP JUMPDEST DUP3 DUP1 ADD PUSH1 0x1 ADD DUP6 SSTORE DUP3 ISZERO PUSH3 0x1DB JUMPI SWAP2 DUP3 ADD JUMPDEST DUP3 DUP2 GT ISZERO PUSH3 0x1DA JUMPI DUP3 MLOAD DUP3 SSTORE SWAP2 PUSH1 0x20 ADD SWAP2 SWAP1 PUSH1 0x1 ADD SWAP1 PUSH3 0x1BD JUMP JUMPDEST JUMPDEST POP SWAP1 POP PUSH3 0x1EA SWAP2 SWAP1 PUSH3 0x1EE JUMP JUMPDEST POP SWAP1 JUMP JUMPDEST JUMPDEST DUP1 DUP3 GT ISZERO PUSH3 0x209 JUMPI PUSH1 0x0 DUP2 PUSH1 0x0 SWAP1 SSTORE POP PUSH1 0x1 ADD PUSH3 0x1EF JUMP JUMPDEST POP SWAP1 JUMP JUMPDEST PUSH1 0x0 PUSH3 0x224 PUSH3 0x21E DUP5 PUSH3 0x339 JUMP JUMPDEST PUSH3 0x310 JUMP JUMPDEST SWAP1 POP DUP3 DUP2 MSTORE PUSH1 0x20 DUP2 ADD DUP5 DUP5 DUP5 ADD GT ISZERO PUSH3 0x243 JUMPI PUSH3 0x242 PUSH3 0x4A3 JUMP JUMPDEST JUMPDEST PUSH3 0x250 DUP5 DUP3 DUP6 PUSH3 0x36F JUMP JUMPDEST POP SWAP4 SWAP3 POP POP POP JUMP JUMPDEST PUSH1 0x0 DUP3 PUSH1 0x1F DUP4 ADD SLT PUSH3 0x270 JUMPI PUSH3 0x26F PUSH3 0x49E JUMP JUMPDEST JUMPDEST DUP2 MLOAD PUSH3 0x282 DUP5 DUP3 PUSH1 0x20 DUP7 ADD PUSH3 0x20D JUMP JUMPDEST SWAP2 POP POP SWAP3 SWAP2 POP POP JUMP JUMPDEST PUSH1 0x0 DUP1 PUSH1 0x40 DUP4 DUP6 SUB SLT ISZERO PUSH3 0x2A5 JUMPI PUSH3 0x2A4 PUSH3 0x4AD JUMP JUMPDEST JUMPDEST PUSH1 0x0 DUP4 ADD MLOAD PUSH8 0xFFFFFFFFFFFFFFFF DUP2 GT ISZERO PUSH3 0x2C6 JUMPI PUSH3 0x2C5 PUSH3 0x4A8 JUMP JUMPDEST JUMPDEST PUSH3 0x2D4 DUP6 DUP3 DUP7 ADD PUSH3 0x258 JUMP JUMPDEST SWAP3 POP POP PUSH1 0x20 DUP4 ADD MLOAD PUSH8 0xFFFFFFFFFFFFFFFF DUP2 GT ISZERO PUSH3 0x2F8 JUMPI PUSH3 0x2F7 PUSH3 0x4A8 JUMP JUMPDEST JUMPDEST PUSH3 0x306 DUP6 DUP3 DUP7 ADD PUSH3 0x258 JUMP JUMPDEST SWAP2 POP POP SWAP3 POP SWAP3 SWAP1 POP JUMP JUMPDEST PUSH1 0x0 PUSH3 0x31C PUSH3 0x32F JUMP JUMPDEST SWAP1 POP PUSH3 0x32A DUP3 DUP3 PUSH3 0x3DB JUMP JUMPDEST SWAP2 SWAP1 POP JUMP JUMPDEST PUSH1 0x0 PUSH1 0x40 MLOAD SWAP1 POP SWAP1 JUMP JUMPDEST PUSH1 0x0 PUSH8 0xFFFFFFFFFFFFFFFF DUP3 GT ISZERO PUSH3 0x357 JUMPI PUSH3 0x356 PUSH3 0x46F JUMP JUMPDEST JUMPDEST PUSH3 0x362 DUP3 PUSH3 0x4B2 JUMP JUMPDEST SWAP1 POP PUSH1 0x20 DUP2 ADD SWAP1 POP SWAP2 SWAP1 POP JUMP JUMPDEST PUSH1 0x0 JUMPDEST DUP4 DUP2 LT ISZERO PUSH3 0x38F JUMPI DUP1 DUP3 ADD MLOAD DUP2 DUP5 ADD MSTORE PUSH1 0x20 DUP2 ADD SWAP1 POP PUSH3 0x372 JUMP JUMPDEST DUP4 DUP2 GT ISZERO PUSH3 0x39F JUMPI PUSH1 0x0 DUP5 DUP5 ADD MSTORE JUMPDEST POP POP POP POP JUMP JUMPDEST PUSH1 0x0 PUSH1 0x2 DUP3 DIV SWAP1 POP PUSH1 0x1 DUP3 AND DUP1 PUSH3 0x3BE JUMPI PUSH1 0x7F DUP3 AND SWAP2 POP JUMPDEST PUSH1 0x20 DUP3 LT DUP2 EQ ISZERO PUSH3 0x3D5 JUMPI PUSH3 0x3D4 PUSH3 0x440 JUMP JUMPDEST JUMPDEST POP SWAP2 SWAP1 POP JUMP JUMPDEST PUSH3 0x3E6 DUP3 PUSH3 0x4B2 JUMP JUMPDEST DUP2 ADD DUP2 DUP2 LT PUSH8 0xFFFFFFFFFFFFFFFF DUP3 GT OR ISZERO PUSH3 0x408 JUMPI PUSH3 0x407 PUSH3 0x46F JUMP JUMPDEST JUMPDEST DUP1 PUSH1 0x40 MSTORE POP POP POP JUMP JUMPDEST PUSH32 0x4E487B7100000000000000000000000000000000000000000000000000000000 PUSH1 0x0 MSTORE PUSH1 0x21 PUSH1 0x4 MSTORE PUSH1 0x24 PUSH1 0x0 REVERT JUMPDEST PUSH32 0x4E487B7100000000000000000000000000000000000000000000000000000000 PUSH1 0x0 MSTORE PUSH1 0x22 PUSH1 0x4 MSTORE PUSH1 0x24 PUSH1 0x0 REVERT JUMPDEST PUSH32 0x4E487B7100000000000000000000000000000000000000000000000000000000 PUSH1 0x0 MSTORE PUSH1 0x41 PUSH1 0x4 MSTORE PUSH1 0x24 PUSH1 0x0 REVERT JUMPDEST PUSH1 0x0 DUP1 REVERT JUMPDEST PUSH1 0x0 DUP1 REVERT JUMPDEST PUSH1 0x0 DUP1 REVERT JUMPDEST PUSH1 0x0 DUP1 REVERT JUMPDEST PUSH1 0x0 PUSH1 0x1F NOT PUSH1 0x1F DUP4 ADD AND SWAP1 POP SWAP2 SWAP1 POP JUMP JUMPDEST PUSH2 0x20A2 DUP1 PUSH3 0x4D3 PUSH1 0x0 CODECOPY PUSH1 0x0 RETURN INVALID PUSH1 0x80 PUSH1 0x40 MSTORE PUSH1 0x4 CALLDATASIZE LT PUSH2 0x181 JUMPI PUSH1 0x0 CALLDATALOAD PUSH1 0xE0 SHR DUP1 PUSH4 0x8DA5CB5B GT PUSH2 0xD1 JUMPI DUP1 PUSH4 0xB9223946 GT PUSH2 0x8A JUMPI DUP1 PUSH4 0xD96A094A GT PUSH2 0x64 JUMPI DUP1 PUSH4 0xD96A094A EQ PUSH2 0x554 JUMPI DUP1 PUSH4 0xDF094409 EQ PUSH2 0x570 JUMPI DUP1 PUSH4 0xE4849B32 EQ PUSH2 0x599 JUMPI DUP1 PUSH4 0xF3A8286F EQ PUSH2 0x5C2 JUMPI PUSH2 0x181 JUMP JUMPDEST DUP1 PUSH4 0xB9223946 EQ PUSH2 0x4D3 JUMPI DUP1 PUSH4 0xCD0C5896 EQ PUSH2 0x4EA JUMPI DUP1 PUSH4 0xD8124C5F EQ PUSH2 0x527 JUMPI PUSH2 0x181 JUMP JUMPDEST DUP1 PUSH4 0x8DA5CB5B EQ PUSH2 0x3C1 JUMPI DUP1 PUSH4 0x9A982416 EQ PUSH2 0x3EC JUMPI DUP1 PUSH4 0xA14BA987 EQ PUSH2 0x417 JUMPI DUP1 PUSH4 0xA9059CBB EQ PUSH2 0x456 JUMPI DUP1 PUSH4 0xAD349442 EQ PUSH2 0x47F JUMPI DUP1 PUSH4 0xAF769C64 EQ PUSH2 0x4AA JUMPI PUSH2 0x181 JUMP JUMPDEST DUP1 PUSH4 0x4C0A6AF0 GT PUSH2 0x13E JUMPI DUP1 PUSH4 0x7427A40C GT PUSH2 0x118 JUMPI DUP1 PUSH4 0x7427A40C EQ PUSH2 0x2F1 JUMPI DUP1 PUSH4 0x753EC103 EQ PUSH2 0x32E JUMPI DUP1 PUSH4 0x7FF9B596 EQ PUSH2 0x359 JUMPI DUP1 PUSH4 0x87CAEA78 EQ PUSH2 0x384 JUMPI PUSH2 0x181 JUMP JUMPDEST DUP1 PUSH4 0x4C0A6AF0 EQ PUSH2 0x274 JUMPI DUP1 PUSH4 0x59EA0173 EQ PUSH2 0x28B JUMPI DUP1 PUSH4 0x6FA4F103 EQ PUSH2 0x2C8 JUMPI PUSH2 0x181 JUMP JUMPDEST DUP1 PUSH4 0xD15FD77 EQ PUSH2 0x186 JUMPI DUP1 PUSH4 0x162D8AFB EQ PUSH2 0x1B1 JUMPI DUP1 PUSH4 0x1B26586C EQ PUSH2 0x1DC JUMPI DUP1 PUSH4 0x293230B8 EQ PUSH2 0x207 JUMPI DUP1 PUSH4 0x3A98EF39 EQ PUSH2 0x21E JUMPI DUP1 PUSH4 0x3BE75AA3 EQ PUSH2 0x249 JUMPI JUMPDEST PUSH1 0x0 DUP1 REVERT JUMPDEST CALLVALUE DUP1 ISZERO PUSH2 0x192 JUMPI PUSH1 0x0 DUP1 REVERT JUMPDEST POP PUSH2 0x19B PUSH2 0x5ED JUMP JUMPDEST PUSH1 0x40 MLOAD PUSH2 0x1A8 SWAP2 SWAP1 PUSH2 0x1BA9 JUMP JUMPDEST PUSH1 0x40 MLOAD DUP1 SWAP2 SUB SWAP1 RETURN JUMPDEST CALLVALUE DUP1 ISZERO PUSH2 0x1BD JUMPI PUSH1 0x0 DUP1 REVERT JUMPDEST POP PUSH2 0x1C6 PUSH2 0x5F3 JUMP JUMPDEST PUSH1 0x40 MLOAD PUSH2 0x1D3 SWAP2 SWAP1 PUSH2 0x1BA9 JUMP JUMPDEST PUSH1 0x40 MLOAD DUP1 SWAP2 SUB SWAP1 RETURN JUMPDEST CALLVALUE DUP1 ISZERO PUSH2 0x1E8 JUMPI PUSH1 0x0 DUP1 REVERT JUMPDEST POP PUSH2 0x1F1 PUSH2 0x5F9 JUMP JUMPDEST PUSH1 0x40 MLOAD PUSH2 0x1FE SWAP2 SWAP1 PUSH2 0x1AE2 JUMP JUMPDEST PUSH1 0x40 MLOAD DUP1 SWAP2 SUB SWAP1 RETURN JUMPDEST CALLVALUE DUP1 ISZERO PUSH2 0x213 JUMPI PUSH1 0x0 DUP1 REVERT JUMPDEST POP PUSH2 0x21C PUSH2 0x687 JUMP JUMPDEST STOP JUMPDEST CALLVALUE DUP1 ISZERO PUSH2 0x22A JUMPI PUSH1 0x0 DUP1 REVERT JUMPDEST POP PUSH2 0x233 PUSH2 0x70C JUMP JUMPDEST PUSH1 0x40 MLOAD PUSH2 0x240 SWAP2 SWAP1 PUSH2 0x1BA9 JUMP JUMPDEST PUSH1 0x40 MLOAD DUP1 SWAP2 SUB SWAP1 RETURN JUMPDEST CALLVALUE DUP1 ISZERO PUSH2 0x255 JUMPI PUSH1 0x0 DUP1 REVERT JUMPDEST POP PUSH2 0x25E PUSH2 0x712 JUMP JUMPDEST PUSH1 0x40 MLOAD PUSH2 0x26B SWAP2 SWAP1 PUSH2 0x1BA9 JUMP JUMPDEST PUSH1 0x40 MLOAD DUP1 SWAP2 SUB SWAP1 RETURN JUMPDEST CALLVALUE DUP1 ISZERO PUSH2 0x280 JUMPI PUSH1 0x0 DUP1 REVERT JUMPDEST POP PUSH2 0x289 PUSH2 0x718 JUMP JUMPDEST STOP JUMPDEST CALLVALUE DUP1 ISZERO PUSH2 0x297 JUMPI PUSH1 0x0 DUP1 REVERT JUMPDEST POP PUSH2 0x2B2 PUSH1 0x4 DUP1 CALLDATASIZE SUB DUP2 ADD SWAP1 PUSH2 0x2AD SWAP2 SWAP1 PUSH2 0x1813 JUMP JUMPDEST PUSH2 0x80D JUMP JUMPDEST PUSH1 0x40 MLOAD PUSH2 0x2BF SWAP2 SWAP1 PUSH2 0x1AC7 JUMP JUMPDEST PUSH1 0x40 MLOAD DUP1 SWAP2 SUB SWAP1 RETURN JUMPDEST CALLVALUE DUP1 ISZERO PUSH2 0x2D4 JUMPI PUSH1 0x0 DUP1 REVERT JUMPDEST POP PUSH2 0x2EF PUSH1 0x4 DUP1 CALLDATASIZE SUB DUP2 ADD SWAP1 PUSH2 0x2EA SWAP2 SWAP1 PUSH2 0x18AD JUMP JUMPDEST PUSH2 0x82D JUMP JUMPDEST STOP JUMPDEST CALLVALUE DUP1 ISZERO PUSH2 0x2FD JUMPI PUSH1 0x0 DUP1 REVERT JUMPDEST POP PUSH2 0x318 PUSH1 0x4 DUP1 CALLDATASIZE SUB DUP2 ADD SWAP1 PUSH2 0x313 SWAP2 SWAP1 PUSH2 0x19B0 JUMP JUMPDEST PUSH2 0x8CB JUMP JUMPDEST PUSH1 0x40 MLOAD PUSH2 0x325 SWAP2 SWAP1 PUSH2 0x1AAC JUMP JUMPDEST PUSH1 0x40 MLOAD DUP1 SWAP2 SUB SWAP1 RETURN JUMPDEST CALLVALUE DUP1 ISZERO PUSH2 0x33A JUMPI PUSH1 0x0 DUP1 REVERT JUMPDEST POP PUSH2 0x343 PUSH2 0x90A JUMP JUMPDEST PUSH1 0x40 MLOAD PUSH2 0x350 SWAP2 SWAP1 PUSH2 0x1AE2 JUMP JUMPDEST PUSH1 0x40 MLOAD DUP1 SWAP2 SUB SWAP1 RETURN JUMPDEST CALLVALUE DUP1 ISZERO PUSH2 0x365 JUMPI PUSH1 0x0 DUP1 REVERT JUMPDEST POP PUSH2 0x36E PUSH2 0x998 JUMP JUMPDEST PUSH1 0x40 MLOAD PUSH2 0x37B SWAP2 SWAP1 PUSH2 0x1BA9 JUMP JUMPDEST PUSH1 0x40 MLOAD DUP1 SWAP2 SUB SWAP1 RETURN JUMPDEST CALLVALUE DUP1 ISZERO PUSH2 0x390 JUMPI PUSH1 0x0 DUP1 REVERT JUMPDEST POP PUSH2 0x3AB PUSH1 0x4 DUP1 CALLDATASIZE SUB DUP2 ADD SWAP1 PUSH2 0x3A6 SWAP2 SWAP1 PUSH2 0x1880 JUMP JUMPDEST PUSH2 0x99E JUMP JUMPDEST PUSH1 0x40 MLOAD PUSH2 0x3B8 SWAP2 SWAP1 PUSH2 0x1AC7 JUMP JUMPDEST PUSH1 0x40 MLOAD DUP1 SWAP2 SUB SWAP1 RETURN JUMPDEST CALLVALUE DUP1 ISZERO PUSH2 0x3CD JUMPI PUSH1 0x0 DUP1 REVERT JUMPDEST POP PUSH2 0x3D6 PUSH2 0xBDA JUMP JUMPDEST PUSH1 0x40 MLOAD PUSH2 0x3E3 SWAP2 SWAP1 PUSH2 0x1AAC JUMP JUMPDEST PUSH1 0x40 MLOAD DUP1 SWAP2 SUB SWAP1 RETURN JUMPDEST CALLVALUE DUP1 ISZERO PUSH2 0x3F8 JUMPI PUSH1 0x0 DUP1 REVERT JUMPDEST POP PUSH2 0x401 PUSH2 0xBFE JUMP JUMPDEST PUSH1 0x40 MLOAD PUSH2 0x40E SWAP2 SWAP1 PUSH2 0x1BA9 JUMP JUMPDEST PUSH1 0x40 MLOAD DUP1 SWAP2 SUB SWAP1 RETURN JUMPDEST CALLVALUE DUP1 ISZERO PUSH2 0x423 JUMPI PUSH1 0x0 DUP1 REVERT JUMPDEST POP PUSH2 0x43E PUSH1 0x4 DUP1 CALLDATASIZE SUB DUP2 ADD SWAP1 PUSH2 0x439 SWAP2 SWAP1 PUSH2 0x19B0 JUMP JUMPDEST PUSH2 0xC04 JUMP JUMPDEST PUSH1 0x40 MLOAD PUSH2 0x44D SWAP4 SWAP3 SWAP2 SWAP1 PUSH2 0x1B04 JUMP JUMPDEST PUSH1 0x40 MLOAD DUP1 SWAP2 SUB SWAP1 RETURN JUMPDEST CALLVALUE DUP1 ISZERO PUSH2 0x462 JUMPI PUSH1 0x0 DUP1 REVERT JUMPDEST POP PUSH2 0x47D PUSH1 0x4 DUP1 CALLDATASIZE SUB DUP2 ADD SWAP1 PUSH2 0x478 SWAP2 SWAP1 PUSH2 0x1840 JUMP JUMPDEST PUSH2 0xD4E JUMP JUMPDEST STOP JUMPDEST CALLVALUE DUP1 ISZERO PUSH2 0x48B JUMPI PUSH1 0x0 DUP1 REVERT JUMPDEST POP PUSH2 0x494 PUSH2 0xEA2 JUMP JUMPDEST PUSH1 0x40 MLOAD PUSH2 0x4A1 SWAP2 SWAP1 PUSH2 0x1AAC JUMP JUMPDEST PUSH1 0x40 MLOAD DUP1 SWAP2 SUB SWAP1 RETURN JUMPDEST CALLVALUE DUP1 ISZERO PUSH2 0x4B6 JUMPI PUSH1 0x0 DUP1 REVERT JUMPDEST POP PUSH2 0x4D1 PUSH1 0x4 DUP1 CALLDATASIZE SUB DUP2 ADD SWAP1 PUSH2 0x4CC SWAP2 SWAP1 PUSH2 0x1813 JUMP JUMPDEST PUSH2 0xEC8 JUMP JUMPDEST STOP JUMPDEST CALLVALUE DUP1 ISZERO PUSH2 0x4DF JUMPI PUSH1 0x0 DUP1 REVERT JUMPDEST POP PUSH2 0x4E8 PUSH2 0x103B JUMP JUMPDEST STOP JUMPDEST CALLVALUE DUP1 ISZERO PUSH2 0x4F6 JUMPI PUSH1 0x0 DUP1 REVERT JUMPDEST POP PUSH2 0x511 PUSH1 0x4 DUP1 CALLDATASIZE SUB DUP2 ADD SWAP1 PUSH2 0x50C SWAP2 SWAP1 PUSH2 0x1813 JUMP JUMPDEST PUSH2 0x1146 JUMP JUMPDEST PUSH1 0x40 MLOAD PUSH2 0x51E SWAP2 SWAP1 PUSH2 0x1BA9 JUMP JUMPDEST PUSH1 0x40 MLOAD DUP1 SWAP2 SUB SWAP1 RETURN JUMPDEST CALLVALUE DUP1 ISZERO PUSH2 0x533 JUMPI PUSH1 0x0 DUP1 REVERT JUMPDEST POP PUSH2 0x53C PUSH2 0x1167 JUMP JUMPDEST PUSH1 0x40 MLOAD PUSH2 0x54B SWAP4 SWAP3 SWAP2 SWAP1 PUSH2 0x1B04 JUMP JUMPDEST PUSH1 0x40 MLOAD DUP1 SWAP2 SUB SWAP1 RETURN JUMPDEST PUSH2 0x56E PUSH1 0x4 DUP1 CALLDATASIZE SUB DUP2 ADD SWAP1 PUSH2 0x569 SWAP2 SWAP1 PUSH2 0x19B0 JUMP JUMPDEST PUSH2 0x128F JUMP JUMPDEST STOP JUMPDEST CALLVALUE DUP1 ISZERO PUSH2 0x57C JUMPI PUSH1 0x0 DUP1 REVERT JUMPDEST POP PUSH2 0x597 PUSH1 0x4 DUP1 CALLDATASIZE SUB DUP2 ADD SWAP1 PUSH2 0x592 SWAP2 SWAP1 PUSH2 0x1925 JUMP JUMPDEST PUSH2 0x133A JUMP JUMPDEST STOP JUMPDEST CALLVALUE DUP1 ISZERO PUSH2 0x5A5 JUMPI PUSH1 0x0 DUP1 REVERT JUMPDEST POP PUSH2 0x5C0 PUSH1 0x4 DUP1 CALLDATASIZE SUB DUP2 ADD SWAP1 PUSH2 0x5BB SWAP2 SWAP1 PUSH2 0x19B0 JUMP JUMPDEST PUSH2 0x14E4 JUMP JUMPDEST STOP JUMPDEST CALLVALUE DUP1 ISZERO PUSH2 0x5CE JUMPI PUSH1 0x0 DUP1 REVERT JUMPDEST POP PUSH2 0x5D7 PUSH2 0x15DB JUMP JUMPDEST PUSH1 0x40 MLOAD PUSH2 0x5E4 SWAP2 SWAP1 PUSH2 0x1BA9 JUMP JUMPDEST PUSH1 0x40 MLOAD DUP1 SWAP2 SUB SWAP1 RETURN JUMPDEST PUSH1 0x13 SLOAD DUP2 JUMP JUMPDEST PUSH1 0x5 SLOAD DUP2 JUMP JUMPDEST PUSH1 0xF DUP1 SLOAD PUSH2 0x606 SWAP1 PUSH2 0x1DA4 JUMP JUMPDEST DUP1 PUSH1 0x1F ADD PUSH1 0x20 DUP1 SWAP2 DIV MUL PUSH1 0x20 ADD PUSH1 0x40 MLOAD SWAP1 DUP2 ADD PUSH1 0x40 MSTORE DUP1 SWAP3 SWAP2 SWAP1 DUP2 DUP2 MSTORE PUSH1 0x20 ADD DUP3 DUP1 SLOAD PUSH2 0x632 SWAP1 PUSH2 0x1DA4 JUMP JUMPDEST DUP1 ISZERO PUSH2 0x67F JUMPI DUP1 PUSH1 0x1F LT PUSH2 0x654 JUMPI PUSH2 0x100 DUP1 DUP4 SLOAD DIV MUL DUP4 MSTORE SWAP2 PUSH1 0x20 ADD SWAP2 PUSH2 0x67F JUMP JUMPDEST DUP3 ADD SWAP2 SWAP1 PUSH1 0x0 MSTORE PUSH1 0x20 PUSH1 0x0 KECCAK256 SWAP1 JUMPDEST DUP2 SLOAD DUP2 MSTORE SWAP1 PUSH1 0x1 ADD SWAP1 PUSH1 0x20 ADD DUP1 DUP4 GT PUSH2 0x662 JUMPI DUP3 SWAP1 SUB PUSH1 0x1F AND DUP3 ADD SWAP2 JUMPDEST POP POP POP POP POP DUP2 JUMP JUMPDEST PUSH1 0x0 DUP1 SLOAD SWAP1 PUSH2 0x100 EXP SWAP1 DIV PUSH20 0xFFFFFFFFFFFFFFFFFFFFFFFFFFFFFFFFFFFFFFFF AND PUSH20 0xFFFFFFFFFFFFFFFFFFFFFFFFFFFFFFFFFFFFFFFF AND CALLER PUSH20 0xFFFFFFFFFFFFFFFFFFFFFFFFFFFFFFFFFFFFFFFF AND EQ PUSH2 0x6DF JUMPI PUSH1 0x0 DUP1 REVERT JUMPDEST PUSH1 0x1 PUSH1 0xA PUSH1 0x0 PUSH2 0x100 EXP DUP2 SLOAD DUP2 PUSH1 0xFF MUL NOT AND SWAP1 DUP4 PUSH1 0x1 DUP2 GT ISZERO PUSH2 0x705 JUMPI PUSH2 0x704 PUSH2 0x1E7F JUMP JUMPDEST JUMPDEST MUL OR SWAP1 SSTORE POP JUMP JUMPDEST PUSH1 0x6 SLOAD DUP2 JUMP JUMPDEST PUSH1 0x8 SLOAD DUP2 JUMP JUMPDEST PUSH1 0x0 DUP1 PUSH1 0x2 DUP2 GT ISZERO PUSH2 0x72D JUMPI PUSH2 0x72C PUSH2 0x1E7F JUMP JUMPDEST JUMPDEST PUSH1 0xE PUSH1 0x0 SWAP1 SLOAD SWAP1 PUSH2 0x100 EXP SWAP1 DIV PUSH1 0xFF AND PUSH1 0x2 DUP2 GT ISZERO PUSH2 0x74F JUMPI PUSH2 0x74E PUSH2 0x1E7F JUMP JUMPDEST JUMPDEST EQ PUSH2 0x759 JUMPI PUSH1 0x0 DUP1 REVERT JUMPDEST PUSH1 0xE PUSH1 0x1 SWAP1 SLOAD SWAP1 PUSH2 0x100 EXP SWAP1 DIV PUSH20 0xFFFFFFFFFFFFFFFFFFFFFFFFFFFFFFFFFFFFFFFF AND PUSH20 0xFFFFFFFFFFFFFFFFFFFFFFFFFFFFFFFFFFFFFFFF AND CALLER PUSH20 0xFFFFFFFFFFFFFFFFFFFFFFFFFFFFFFFFFFFFFFFF AND EQ PUSH2 0x7B3 JUMPI PUSH1 0x0 DUP1 REVERT JUMPDEST PUSH1 0x1 PUSH1 0xE PUSH1 0x0 PUSH2 0x100 EXP DUP2 SLOAD DUP2 PUSH1 0xFF MUL NOT AND SWAP1 DUP4 PUSH1 0x2 DUP2 GT ISZERO PUSH2 0x7D9 JUMPI PUSH2 0x7D8 PUSH2 0x1E7F JUMP JUMPDEST JUMPDEST MUL OR SWAP1 SSTORE POP PUSH32 0xD0DC01800A369FEF30D3FCED5275B8B916549867622E79EFCA5245C479FDA4EA PUSH1 0x40 MLOAD PUSH1 0x40 MLOAD DUP1 SWAP2 SUB SWAP1 LOG1 POP JUMP JUMPDEST PUSH1 0xC PUSH1 0x20 MSTORE DUP1 PUSH1 0x0 MSTORE PUSH1 0x40 PUSH1 0x0 KECCAK256 PUSH1 0x0 SWAP2 POP SLOAD SWAP1 PUSH2 0x100 EXP SWAP1 DIV PUSH1 0xFF AND DUP2 JUMP JUMPDEST PUSH1 0x0 PUSH1 0xE PUSH1 0x0 PUSH2 0x100 EXP DUP2 SLOAD DUP2 PUSH1 0xFF MUL NOT AND SWAP1 DUP4 PUSH1 0x2 DUP2 GT ISZERO PUSH2 0x853 JUMPI PUSH2 0x852 PUSH2 0x1E7F JUMP JUMPDEST JUMPDEST MUL OR SWAP1 SSTORE POP DUP2 PUSH1 0xF SWAP1 DUP1 MLOAD SWAP1 PUSH1 0x20 ADD SWAP1 PUSH2 0x86E SWAP3 SWAP2 SWAP1 PUSH2 0x168F JUMP JUMPDEST POP DUP1 PUSH1 0x10 SWAP1 DUP1 MLOAD SWAP1 PUSH1 0x20 ADD SWAP1 PUSH2 0x885 SWAP3 SWAP2 SWAP1 PUSH2 0x168F JUMP JUMPDEST POP CALLER PUSH1 0xE PUSH1 0x1 PUSH2 0x100 EXP DUP2 SLOAD DUP2 PUSH20 0xFFFFFFFFFFFFFFFFFFFFFFFFFFFFFFFFFFFFFFFF MUL NOT AND SWAP1 DUP4 PUSH20 0xFFFFFFFFFFFFFFFFFFFFFFFFFFFFFFFFFFFFFFFF AND MUL OR SWAP1 SSTORE POP POP POP JUMP JUMPDEST PUSH1 0xB DUP2 DUP2 SLOAD DUP2 LT PUSH2 0x8DB JUMPI PUSH1 0x0 DUP1 REVERT JUMPDEST SWAP1 PUSH1 0x0 MSTORE PUSH1 0x20 PUSH1 0x0 KECCAK256 ADD PUSH1 0x0 SWAP2 POP SLOAD SWAP1 PUSH2 0x100 EXP SWAP1 DIV PUSH20 0xFFFFFFFFFFFFFFFFFFFFFFFFFFFFFFFFFFFFFFFF AND DUP2 JUMP JUMPDEST PUSH1 0x10 DUP1 SLOAD PUSH2 0x917 SWAP1 PUSH2 0x1DA4 JUMP JUMPDEST DUP1 PUSH1 0x1F ADD PUSH1 0x20 DUP1 SWAP2 DIV MUL PUSH1 0x20 ADD PUSH1 0x40 MLOAD SWAP1 DUP2 ADD PUSH1 0x40 MSTORE DUP1 SWAP3 SWAP2 SWAP1 DUP2 DUP2 MSTORE PUSH1 0x20 ADD DUP3 DUP1 SLOAD PUSH2 0x943 SWAP1 PUSH2 0x1DA4 JUMP JUMPDEST DUP1 ISZERO PUSH2 0x990 JUMPI DUP1 PUSH1 0x1F LT PUSH2 0x965 JUMPI PUSH2 0x100 DUP1 DUP4 SLOAD DIV MUL DUP4 MSTORE SWAP2 PUSH1 0x20 ADD SWAP2 PUSH2 0x990 JUMP JUMPDEST DUP3 ADD SWAP2 SWAP1 PUSH1 0x0 MSTORE PUSH1 0x20 PUSH1 0x0 KECCAK256 SWAP1 JUMPDEST DUP2 SLOAD DUP2 MSTORE SWAP1 PUSH1 0x1 ADD SWAP1 PUSH1 0x20 ADD DUP1 DUP4 GT PUSH2 0x973 JUMPI DUP3 SWAP1 SUB PUSH1 0x1F AND DUP3 ADD SWAP2 JUMPDEST POP POP POP POP POP DUP2 JUMP JUMPDEST PUSH1 0x7 SLOAD DUP2 JUMP JUMPDEST PUSH1 0x0 PUSH1 0x1 DUP1 PUSH1 0x2 DUP2 GT ISZERO PUSH2 0x9B5 JUMPI PUSH2 0x9B4 PUSH2 0x1E7F JUMP JUMPDEST JUMPDEST PUSH1 0xE PUSH1 0x0 SWAP1 SLOAD SWAP1 PUSH2 0x100 EXP SWAP1 DIV PUSH1 0xFF AND PUSH1 0x2 DUP2 GT ISZERO PUSH2 0x9D7 JUMPI PUSH2 0x9D6 PUSH2 0x1E7F JUMP JUMPDEST JUMPDEST EQ PUSH2 0x9E1 JUMPI PUSH1 0x0 DUP1 REVERT JUMPDEST PUSH1 0x0 PUSH1 0xC PUSH1 0x0 CALLER PUSH20 0xFFFFFFFFFFFFFFFFFFFFFFFFFFFFFFFFFFFFFFFF AND PUSH20 0xFFFFFFFFFFFFFFFFFFFFFFFFFFFFFFFFFFFFFFFF AND DUP2 MSTORE PUSH1 0x20 ADD SWAP1 DUP2 MSTORE PUSH1 0x20 ADD PUSH1 0x0 KECCAK256 PUSH1 0x0 SWAP1 SLOAD SWAP1 PUSH2 0x100 EXP SWAP1 DIV PUSH1 0xFF AND PUSH2 0xB99 JUMPI PUSH1 0x1 PUSH1 0xC PUSH1 0x0 CALLER PUSH20 0xFFFFFFFFFFFFFFFFFFFFFFFFFFFFFFFFFFFFFFFF AND PUSH20 0xFFFFFFFFFFFFFFFFFFFFFFFFFFFFFFFFFFFFFFFF AND DUP2 MSTORE PUSH1 0x20 ADD SWAP1 DUP2 MSTORE PUSH1 0x20 ADD PUSH1 0x0 KECCAK256 PUSH1 0x0 PUSH2 0x100 EXP DUP2 SLOAD DUP2 PUSH1 0xFF MUL NOT AND SWAP1 DUP4 ISZERO ISZERO MUL OR SWAP1 SSTORE POP PUSH2 0xA94 PUSH2 0x1715 JUMP JUMPDEST CALLER DUP2 PUSH1 0x0 ADD SWAP1 PUSH20 0xFFFFFFFFFFFFFFFFFFFFFFFFFFFFFFFFFFFFFFFF AND SWAP1 DUP2 PUSH20 0xFFFFFFFFFFFFFFFFFFFFFFFFFFFFFFFFFFFFFFFF AND DUP2 MSTORE POP POP DUP5 DUP2 PUSH1 0x20 ADD SWAP1 ISZERO ISZERO SWAP1 DUP2 ISZERO ISZERO DUP2 MSTORE POP POP DUP5 ISZERO PUSH2 0xAFB JUMPI PUSH1 0x11 PUSH1 0x0 DUP2 SLOAD DUP1 SWAP3 SWAP2 SWAP1 PUSH2 0xAF5 SWAP1 PUSH2 0x1E07 JUMP JUMPDEST SWAP2 SWAP1 POP SSTORE POP JUMPDEST DUP1 PUSH1 0x14 PUSH1 0x0 PUSH1 0x13 SLOAD DUP2 MSTORE PUSH1 0x20 ADD SWAP1 DUP2 MSTORE PUSH1 0x20 ADD PUSH1 0x0 KECCAK256 PUSH1 0x0 DUP3 ADD MLOAD DUP2 PUSH1 0x0 ADD PUSH1 0x0 PUSH2 0x100 EXP DUP2 SLOAD DUP2 PUSH20 0xFFFFFFFFFFFFFFFFFFFFFFFFFFFFFFFFFFFFFFFF MUL NOT AND SWAP1 DUP4 PUSH20 0xFFFFFFFFFFFFFFFFFFFFFFFFFFFFFFFFFFFFFFFF AND MUL OR SWAP1 SSTORE POP PUSH1 0x20 DUP3 ADD MLOAD DUP2 PUSH1 0x0 ADD PUSH1 0x14 PUSH2 0x100 EXP DUP2 SLOAD DUP2 PUSH1 0xFF MUL NOT AND SWAP1 DUP4 ISZERO ISZERO MUL OR SWAP1 SSTORE POP SWAP1 POP POP PUSH1 0x13 PUSH1 0x0 DUP2 SLOAD DUP1 SWAP3 SWAP2 SWAP1 PUSH2 0xB8E SWAP1 PUSH2 0x1E07 JUMP JUMPDEST SWAP2 SWAP1 POP SSTORE POP PUSH1 0x1 SWAP2 POP POP JUMPDEST PUSH32 0x55C65CF9526EFDF6C2252FE9757889DBD93E10172CAD0F2EDB1DF619C88DBF7D CALLER PUSH1 0x40 MLOAD PUSH2 0xBC8 SWAP2 SWAP1 PUSH2 0x1AAC JUMP JUMPDEST PUSH1 0x40 MLOAD DUP1 SWAP2 SUB SWAP1 LOG1 DUP1 SWAP3 POP POP POP SWAP2 SWAP1 POP JUMP JUMPDEST PUSH1 0x0 DUP1 SLOAD SWAP1 PUSH2 0x100 EXP SWAP1 DIV PUSH20 0xFFFFFFFFFFFFFFFFFFFFFFFFFFFFFFFFFFFFFFFF AND DUP2 JUMP JUMPDEST PUSH1 0x9 SLOAD DUP2 JUMP JUMPDEST PUSH1 0x4 DUP2 DUP2 SLOAD DUP2 LT PUSH2 0xC14 JUMPI PUSH1 0x0 DUP1 REVERT JUMPDEST SWAP1 PUSH1 0x0 MSTORE PUSH1 0x20 PUSH1 0x0 KECCAK256 SWAP1 PUSH1 0x3 MUL ADD PUSH1 0x0 SWAP2 POP SWAP1 POP DUP1 PUSH1 0x0 ADD DUP1 SLOAD PUSH2 0xC37 SWAP1 PUSH2 0x1DA4 JUMP JUMPDEST DUP1 PUSH1 0x1F ADD PUSH1 0x20 DUP1 SWAP2 DIV MUL PUSH1 0x20 ADD PUSH1 0x40 MLOAD SWAP1 DUP2 ADD PUSH1 0x40 MSTORE DUP1 SWAP3 SWAP2 SWAP1 DUP2 DUP2 MSTORE PUSH1 0x20 ADD DUP3 DUP1 SLOAD PUSH2 0xC63 SWAP1 PUSH2 0x1DA4 JUMP JUMPDEST DUP1 ISZERO PUSH2 0xCB0 JUMPI DUP1 PUSH1 0x1F LT PUSH2 0xC85 JUMPI PUSH2 0x100 DUP1 DUP4 SLOAD DIV MUL DUP4 MSTORE SWAP2 PUSH1 0x20 ADD SWAP2 PUSH2 0xCB0 JUMP JUMPDEST DUP3 ADD SWAP2 SWAP1 PUSH1 0x0 MSTORE PUSH1 0x20 PUSH1 0x0 KECCAK256 SWAP1 JUMPDEST DUP2 SLOAD DUP2 MSTORE SWAP1 PUSH1 0x1 ADD SWAP1 PUSH1 0x20 ADD DUP1 DUP4 GT PUSH2 0xC93 JUMPI DUP3 SWAP1 SUB PUSH1 0x1F AND DUP3 ADD SWAP2 JUMPDEST POP POP POP POP POP SWAP1 DUP1 PUSH1 0x1 ADD DUP1 SLOAD PUSH2 0xCC5 SWAP1 PUSH2 0x1DA4 JUMP JUMPDEST DUP1 PUSH1 0x1F ADD PUSH1 0x20 DUP1 SWAP2 DIV MUL PUSH1 0x20 ADD PUSH1 0x40 MLOAD SWAP1 DUP2 ADD PUSH1 0x40 MSTORE DUP1 SWAP3 SWAP2 SWAP1 DUP2 DUP2 MSTORE PUSH1 0x20 ADD DUP3 DUP1 SLOAD PUSH2 0xCF1 SWAP1 PUSH2 0x1DA4 JUMP JUMPDEST DUP1 ISZERO PUSH2 0xD3E JUMPI DUP1 PUSH1 0x1F LT PUSH2 0xD13 JUMPI PUSH2 0x100 DUP1 DUP4 SLOAD DIV MUL DUP4 MSTORE SWAP2 PUSH1 0x20 ADD SWAP2 PUSH2 0xD3E JUMP JUMPDEST DUP3 ADD SWAP2 SWAP1 PUSH1 0x0 MSTORE PUSH1 0x20 PUSH1 0x0 KECCAK256 SWAP1 JUMPDEST DUP2 SLOAD DUP2 MSTORE SWAP1 PUSH1 0x1 ADD SWAP1 PUSH1 0x20 ADD DUP1 DUP4 GT PUSH2 0xD21 JUMPI DUP3 SWAP1 SUB PUSH1 0x1F AND DUP3 ADD SWAP2 JUMPDEST POP POP POP POP POP SWAP1 DUP1 PUSH1 0x2 ADD SLOAD SWAP1 POP DUP4 JUMP JUMPDEST DUP1 PUSH1 0xD PUSH1 0x0 CALLER PUSH20 0xFFFFFFFFFFFFFFFFFFFFFFFFFFFFFFFFFFFFFFFF AND PUSH20 0xFFFFFFFFFFFFFFFFFFFFFFFFFFFFFFFFFFFFFFFF AND DUP2 MSTORE PUSH1 0x20 ADD SWAP1 DUP2 MSTORE PUSH1 0x20 ADD PUSH1 0x0 KECCAK256 SLOAD LT ISZERO PUSH2 0xD9A JUMPI PUSH1 0x0 DUP1 REVERT JUMPDEST PUSH1 0x0 DUP1 SLOAD SWAP1 PUSH2 0x100 EXP SWAP1 DIV PUSH20 0xFFFFFFFFFFFFFFFFFFFFFFFFFFFFFFFFFFFFFFFF AND PUSH20 0xFFFFFFFFFFFFFFFFFFFFFFFFFFFFFFFFFFFFFFFF AND CALLER PUSH20 0xFFFFFFFFFFFFFFFFFFFFFFFFFFFFFFFFFFFFFFFF AND EQ PUSH2 0xDF2 JUMPI PUSH1 0x0 DUP1 REVERT JUMPDEST DUP1 PUSH1 0xD PUSH1 0x0 CALLER PUSH20 0xFFFFFFFFFFFFFFFFFFFFFFFFFFFFFFFFFFFFFFFF AND PUSH20 0xFFFFFFFFFFFFFFFFFFFFFFFFFFFFFFFFFFFFFFFF AND DUP2 MSTORE PUSH1 0x20 ADD SWAP1 DUP2 MSTORE PUSH1 0x20 ADD PUSH1 0x0 KECCAK256 PUSH1 0x0 DUP3 DUP3 SLOAD PUSH2 0xE41 SWAP2 SWAP1 PUSH2 0x1CE6 JUMP JUMPDEST SWAP3 POP POP DUP2 SWAP1 SSTORE POP DUP1 PUSH1 0xD PUSH1 0x0 DUP5 PUSH20 0xFFFFFFFFFFFFFFFFFFFFFFFFFFFFFFFFFFFFFFFF AND PUSH20 0xFFFFFFFFFFFFFFFFFFFFFFFFFFFFFFFFFFFFFFFF AND DUP2 MSTORE PUSH1 0x20 ADD SWAP1 DUP2 MSTORE PUSH1 0x20 ADD PUSH1 0x0 KECCAK256 PUSH1 0x0 DUP3 DUP3 SLOAD PUSH2 0xE97 SWAP2 SWAP1 PUSH2 0x1C36 JUMP JUMPDEST SWAP3 POP POP DUP2 SWAP1 SSTORE POP POP POP JUMP JUMPDEST PUSH1 0xE PUSH1 0x1 SWAP1 SLOAD SWAP1 PUSH2 0x100 EXP SWAP1 DIV PUSH20 0xFFFFFFFFFFFFFFFFFFFFFFFFFFFFFFFFFFFFFFFF AND DUP2 JUMP JUMPDEST PUSH1 0x0 DUP1 SLOAD SWAP1 PUSH2 0x100 EXP SWAP1 DIV PUSH20 0xFFFFFFFFFFFFFFFFFFFFFFFFFFFFFFFFFFFFFFFF AND PUSH20 0xFFFFFFFFFFFFFFFFFFFFFFFFFFFFFFFFFFFFFFFF AND CALLER PUSH20 0xFFFFFFFFFFFFFFFFFFFFFFFFFFFFFFFFFFFFFFFF AND EQ PUSH2 0xF20 JUMPI PUSH1 0x0 DUP1 REVERT JUMPDEST PUSH2 0xF29 DUP2 PUSH2 0x15E1 JUMP JUMPDEST PUSH2 0x1038 JUMPI PUSH1 0x0 PUSH1 0xC PUSH1 0x0 DUP4 PUSH20 0xFFFFFFFFFFFFFFFFFFFFFFFFFFFFFFFFFFFFFFFF AND PUSH20 0xFFFFFFFFFFFFFFFFFFFFFFFFFFFFFFFFFFFFFFFF AND DUP2 MSTORE PUSH1 0x20 ADD SWAP1 DUP2 MSTORE PUSH1 0x20 ADD PUSH1 0x0 KECCAK256 PUSH1 0x0 PUSH2 0x100 EXP DUP2 SLOAD DUP2 PUSH1 0xFF MUL NOT AND SWAP1 DUP4 ISZERO ISZERO MUL OR SWAP1 SSTORE POP PUSH1 0xB DUP2 SWAP1 DUP1 PUSH1 0x1 DUP2 SLOAD ADD DUP1 DUP3 SSTORE DUP1 SWAP2 POP POP PUSH1 0x1 SWAP1 SUB SWAP1 PUSH1 0x0 MSTORE PUSH1 0x20 PUSH1 0x0 KECCAK256 ADD PUSH1 0x0 SWAP1 SWAP2 SWAP1 SWAP2 SWAP1 SWAP2 PUSH2 0x100 EXP DUP2 SLOAD DUP2 PUSH20 0xFFFFFFFFFFFFFFFFFFFFFFFFFFFFFFFFFFFFFFFF MUL NOT AND SWAP1 DUP4 PUSH20 0xFFFFFFFFFFFFFFFFFFFFFFFFFFFFFFFFFFFFFFFF AND MUL OR SWAP1 SSTORE POP PUSH1 0x9 PUSH1 0x0 DUP2 SLOAD DUP1 SWAP3 SWAP2 SWAP1 PUSH2 0xFFB SWAP1 PUSH2 0x1E07 JUMP JUMPDEST SWAP2 SWAP1 POP SSTORE POP PUSH32 0x30040C92E8DA146AC410FB6841EA0F60AF3B8F3788E5E7354E48D97D018F39DD DUP2 PUSH1 0x40 MLOAD PUSH2 0x102F SWAP2 SWAP1 PUSH2 0x1AAC JUMP JUMPDEST PUSH1 0x40 MLOAD DUP1 SWAP2 SUB SWAP1 LOG1 JUMPDEST POP JUMP JUMPDEST PUSH1 0x1 DUP1 PUSH1 0x2 DUP2 GT ISZERO PUSH2 0x1050 JUMPI PUSH2 0x104F PUSH2 0x1E7F JUMP JUMPDEST JUMPDEST PUSH1 0xE PUSH1 0x0 SWAP1 SLOAD SWAP1 PUSH2 0x100 EXP SWAP1 DIV PUSH1 0xFF AND PUSH1 0x2 DUP2 GT ISZERO PUSH2 0x1072 JUMPI PUSH2 0x1071 PUSH2 0x1E7F JUMP JUMPDEST JUMPDEST EQ PUSH2 0x107C JUMPI PUSH1 0x0 DUP1 REVERT JUMPDEST PUSH1 0xE PUSH1 0x1 SWAP1 SLOAD SWAP1 PUSH2 0x100 EXP SWAP1 DIV PUSH20 0xFFFFFFFFFFFFFFFFFFFFFFFFFFFFFFFFFFFFFFFF AND PUSH20 0xFFFFFFFFFFFFFFFFFFFFFFFFFFFFFFFFFFFFFFFF AND CALLER PUSH20 0xFFFFFFFFFFFFFFFFFFFFFFFFFFFFFFFFFFFFFFFF AND EQ PUSH2 0x10D6 JUMPI PUSH1 0x0 DUP1 REVERT JUMPDEST PUSH1 0x2 PUSH1 0xE PUSH1 0x0 PUSH2 0x100 EXP DUP2 SLOAD DUP2 PUSH1 0xFF MUL NOT AND SWAP1 DUP4 PUSH1 0x2 DUP2 GT ISZERO PUSH2 0x10FC JUMPI PUSH2 0x10FB PUSH2 0x1E7F JUMP JUMPDEST JUMPDEST MUL OR SWAP1 SSTORE POP PUSH1 0x11 SLOAD PUSH1 0x12 DUP2 SWAP1 SSTORE POP PUSH32 0xB43A401DCDBE02A8AFA41FEB6C651425997908D1A4B79CF505188BA1DD3FD872 PUSH1 0x12 SLOAD PUSH1 0x40 MLOAD PUSH2 0x113B SWAP2 SWAP1 PUSH2 0x1BA9 JUMP JUMPDEST PUSH1 0x40 MLOAD DUP1 SWAP2 SUB SWAP1 LOG1 POP JUMP JUMPDEST PUSH1 0x0 DUP2 PUSH20 0xFFFFFFFFFFFFFFFFFFFFFFFFFFFFFFFFFFFFFFFF AND BALANCE SWAP1 POP SWAP2 SWAP1 POP JUMP JUMPDEST PUSH1 0x1 DUP1 PUSH1 0x0 ADD DUP1 SLOAD PUSH2 0x1178 SWAP1 PUSH2 0x1DA4 JUMP JUMPDEST DUP1 PUSH1 0x1F ADD PUSH1 0x20 DUP1 SWAP2 DIV MUL PUSH1 0x20 ADD PUSH1 0x40 MLOAD SWAP1 DUP2 ADD PUSH1 0x40 MSTORE DUP1 SWAP3 SWAP2 SWAP1 DUP2 DUP2 MSTORE PUSH1 0x20 ADD DUP3 DUP1 SLOAD PUSH2 0x11A4 SWAP1 PUSH2 0x1DA4 JUMP JUMPDEST DUP1 ISZERO PUSH2 0x11F1 JUMPI DUP1 PUSH1 0x1F LT PUSH2 0x11C6 JUMPI PUSH2 0x100 DUP1 DUP4 SLOAD DIV MUL DUP4 MSTORE SWAP2 PUSH1 0x20 ADD SWAP2 PUSH2 0x11F1 JUMP JUMPDEST DUP3 ADD SWAP2 SWAP1 PUSH1 0x0 MSTORE PUSH1 0x20 PUSH1 0x0 KECCAK256 SWAP1 JUMPDEST DUP2 SLOAD DUP2 MSTORE SWAP1 PUSH1 0x1 ADD SWAP1 PUSH1 0x20 ADD DUP1 DUP4 GT PUSH2 0x11D4 JUMPI DUP3 SWAP1 SUB PUSH1 0x1F AND DUP3 ADD SWAP2 JUMPDEST POP POP POP POP POP SWAP1 DUP1 PUSH1 0x1 ADD DUP1 SLOAD PUSH2 0x1206 SWAP1 PUSH2 0x1DA4 JUMP JUMPDEST DUP1 PUSH1 0x1F ADD PUSH1 0x20 DUP1 SWAP2 DIV MUL PUSH1 0x20 ADD PUSH1 0x40 MLOAD SWAP1 DUP2 ADD PUSH1 0x40 MSTORE DUP1 SWAP3 SWAP2 SWAP1 DUP2 DUP2 MSTORE PUSH1 0x20 ADD DUP3 DUP1 SLOAD PUSH2 0x1232 SWAP1 PUSH2 0x1DA4 JUMP JUMPDEST DUP1 ISZERO PUSH2 0x127F JUMPI DUP1 PUSH1 0x1F LT PUSH2 0x1254 JUMPI PUSH2 0x100 DUP1 DUP4 SLOAD DIV MUL DUP4 MSTORE SWAP2 PUSH1 0x20 ADD SWAP2 PUSH2 0x127F JUMP JUMPDEST DUP3 ADD SWAP2 SWAP1 PUSH1 0x0 MSTORE PUSH1 0x20 PUSH1 0x0 KECCAK256 SWAP1 JUMPDEST DUP2 SLOAD DUP2 MSTORE SWAP1 PUSH1 0x1 ADD SWAP1 PUSH1 0x20 ADD DUP1 DUP4 GT PUSH2 0x1262 JUMPI DUP3 SWAP1 SUB PUSH1 0x1F AND DUP3 ADD SWAP2 JUMPDEST POP POP POP POP POP SWAP1 DUP1 PUSH1 0x2 ADD SLOAD SWAP1 POP DUP4 JUMP JUMPDEST PUSH1 0x8 SLOAD DUP2 GT ISZERO PUSH2 0x12D4 JUMPI PUSH1 0x40 MLOAD PUSH32 0x8C379A000000000000000000000000000000000000000000000000000000000 DUP2 MSTORE PUSH1 0x4 ADD PUSH2 0x12CB SWAP1 PUSH2 0x1B49 JUMP JUMPDEST PUSH1 0x40 MLOAD DUP1 SWAP2 SUB SWAP1 REVERT JUMPDEST PUSH1 0x7 SLOAD DUP2 PUSH2 0x12E2 SWAP2 SWAP1 PUSH2 0x1C8C JUMP JUMPDEST CALLVALUE LT ISZERO PUSH2 0x1324 JUMPI PUSH1 0x40 MLOAD PUSH32 0x8C379A000000000000000000000000000000000000000000000000000000000 DUP2 MSTORE PUSH1 0x4 ADD PUSH2 0x131B SWAP1 PUSH2 0x1B89 JUMP JUMPDEST PUSH1 0x40 MLOAD DUP1 SWAP2 SUB SWAP1 REVERT JUMPDEST PUSH2 0x132E CALLER DUP3 PUSH2 0xD4E JUMP JUMPDEST PUSH2 0x1337 CALLER PUSH2 0xEC8 JUMP JUMPDEST POP JUMP JUMPDEST PUSH1 0x0 DUP1 SLOAD SWAP1 PUSH2 0x100 EXP SWAP1 DIV PUSH20 0xFFFFFFFFFFFFFFFFFFFFFFFFFFFFFFFFFFFFFFFF AND PUSH20 0xFFFFFFFFFFFFFFFFFFFFFFFFFFFFFFFFFFFFFFFF AND CALLER PUSH20 0xFFFFFFFFFFFFFFFFFFFFFFFFFFFFFFFFFFFFFFFF AND EQ PUSH2 0x1392 JUMPI PUSH1 0x0 DUP1 REVERT JUMPDEST PUSH1 0x0 DUP1 PUSH1 0x1 DUP2 GT ISZERO PUSH2 0x13A7 JUMPI PUSH2 0x13A6 PUSH2 0x1E7F JUMP JUMPDEST JUMPDEST PUSH1 0xA PUSH1 0x0 SWAP1 SLOAD SWAP1 PUSH2 0x100 EXP SWAP1 DIV PUSH1 0xFF AND PUSH1 0x1 DUP2 GT ISZERO PUSH2 0x13C9 JUMPI PUSH2 0x13C8 PUSH2 0x1E7F JUMP JUMPDEST JUMPDEST EQ PUSH2 0x13D3 JUMPI PUSH1 0x0 DUP1 REVERT JUMPDEST PUSH1 0x0 PUSH1 0x40 MLOAD DUP1 PUSH1 0x60 ADD PUSH1 0x40 MSTORE DUP1 DUP7 DUP2 MSTORE PUSH1 0x20 ADD DUP6 DUP2 MSTORE PUSH1 0x20 ADD DUP5 DUP2 MSTORE POP SWAP1 POP DUP3 PUSH1 0x1 PUSH1 0x2 ADD PUSH1 0x0 DUP3 DUP3 SLOAD PUSH2 0x1407 SWAP2 SWAP1 PUSH2 0x1C36 JUMP JUMPDEST SWAP3 POP POP DUP2 SWAP1 SSTORE POP PUSH1 0x1 PUSH1 0x2 ADD SLOAD PUSH1 0x7 DUP2 SWAP1 SSTORE POP PUSH1 0x4 DUP2 SWAP1 DUP1 PUSH1 0x1 DUP2 SLOAD ADD DUP1 DUP3 SSTORE DUP1 SWAP2 POP POP PUSH1 0x1 SWAP1 SUB SWAP1 PUSH1 0x0 MSTORE PUSH1 0x20 PUSH1 0x0 KECCAK256 SWAP1 PUSH1 0x3 MUL ADD PUSH1 0x0 SWAP1 SWAP2 SWAP1 SWAP2 SWAP1 SWAP2 POP PUSH1 0x0 DUP3 ADD MLOAD DUP2 PUSH1 0x0 ADD SWAP1 DUP1 MLOAD SWAP1 PUSH1 0x20 ADD SWAP1 PUSH2 0x1462 SWAP3 SWAP2 SWAP1 PUSH2 0x168F JUMP JUMPDEST POP PUSH1 0x20 DUP3 ADD MLOAD DUP2 PUSH1 0x1 ADD SWAP1 DUP1 MLOAD SWAP1 PUSH1 0x20 ADD SWAP1 PUSH2 0x147F SWAP3 SWAP2 SWAP1 PUSH2 0x168F JUMP JUMPDEST POP PUSH1 0x40 DUP3 ADD MLOAD DUP2 PUSH1 0x2 ADD SSTORE POP POP PUSH1 0x1 PUSH1 0x5 PUSH1 0x0 DUP3 DUP3 SLOAD PUSH2 0x149F SWAP2 SWAP1 PUSH2 0x1C36 JUMP JUMPDEST SWAP3 POP POP DUP2 SWAP1 SSTORE POP PUSH32 0x4578FE17EAAB41AE382ABE3462BB0CF04BCFEE4168D2AAD3CE9D5D225D0E27F6 DUP6 PUSH1 0x40 MLOAD PUSH2 0x14D5 SWAP2 SWAP1 PUSH2 0x1AE2 JUMP JUMPDEST PUSH1 0x40 MLOAD DUP1 SWAP2 SUB SWAP1 LOG1 POP POP POP POP POP JUMP JUMPDEST PUSH2 0x14ED CALLER PUSH2 0x15E1 JUMP JUMPDEST PUSH2 0x152C JUMPI PUSH1 0x40 MLOAD PUSH32 0x8C379A000000000000000000000000000000000000000000000000000000000 DUP2 MSTORE PUSH1 0x4 ADD PUSH2 0x1523 SWAP1 PUSH2 0x1B69 JUMP JUMPDEST PUSH1 0x40 MLOAD DUP1 SWAP2 SUB SWAP1 REVERT JUMPDEST DUP1 PUSH1 0xD PUSH1 0x0 CALLER PUSH20 0xFFFFFFFFFFFFFFFFFFFFFFFFFFFFFFFFFFFFFFFF AND PUSH20 0xFFFFFFFFFFFFFFFFFFFFFFFFFFFFFFFFFFFFFFFF AND DUP2 MSTORE PUSH1 0x20 ADD SWAP1 DUP2 MSTORE PUSH1 0x20 ADD PUSH1 0x0 KECCAK256 PUSH1 0x0 DUP3 DUP3 SLOAD PUSH2 0x157B SWAP2 SWAP1 PUSH2 0x1CE6 JUMP JUMPDEST SWAP3 POP POP DUP2 SWAP1 SSTORE POP DUP1 PUSH1 0xD PUSH1 0x0 ADDRESS PUSH20 0xFFFFFFFFFFFFFFFFFFFFFFFFFFFFFFFFFFFFFFFF AND PUSH20 0xFFFFFFFFFFFFFFFFFFFFFFFFFFFFFFFFFFFFFFFF AND DUP2 MSTORE PUSH1 0x20 ADD SWAP1 DUP2 MSTORE PUSH1 0x20 ADD PUSH1 0x0 KECCAK256 PUSH1 0x0 DUP3 DUP3 SLOAD PUSH2 0x15D1 SWAP2 SWAP1 PUSH2 0x1C36 JUMP JUMPDEST SWAP3 POP POP DUP2 SWAP1 SSTORE POP POP JUMP JUMPDEST PUSH1 0x12 SLOAD DUP2 JUMP JUMPDEST PUSH1 0x0 DUP1 PUSH1 0x0 SWAP1 POP JUMPDEST PUSH1 0xB DUP1 SLOAD SWAP1 POP DUP2 GT PUSH2 0x1684 JUMPI DUP3 PUSH20 0xFFFFFFFFFFFFFFFFFFFFFFFFFFFFFFFFFFFFFFFF AND PUSH1 0xB DUP3 DUP2 SLOAD DUP2 LT PUSH2 0x1620 JUMPI PUSH2 0x161F PUSH2 0x1EDD JUMP JUMPDEST JUMPDEST SWAP1 PUSH1 0x0 MSTORE PUSH1 0x20 PUSH1 0x0 KECCAK256 ADD PUSH1 0x0 SWAP1 SLOAD SWAP1 PUSH2 0x100 EXP SWAP1 DIV PUSH20 0xFFFFFFFFFFFFFFFFFFFFFFFFFFFFFFFFFFFFFFFF AND PUSH20 0xFFFFFFFFFFFFFFFFFFFFFFFFFFFFFFFFFFFFFFFF AND EQ ISZERO PUSH2 0x1671 JUMPI PUSH1 0x1 SWAP2 POP POP PUSH2 0x168A JUMP JUMPDEST DUP1 DUP1 PUSH2 0x167C SWAP1 PUSH2 0x1E07 JUMP JUMPDEST SWAP2 POP POP PUSH2 0x15E9 JUMP JUMPDEST POP PUSH1 0x0 SWAP1 POP JUMPDEST SWAP2 SWAP1 POP JUMP JUMPDEST DUP3 DUP1 SLOAD PUSH2 0x169B SWAP1 PUSH2 0x1DA4 JUMP JUMPDEST SWAP1 PUSH1 0x0 MSTORE PUSH1 0x20 PUSH1 0x0 KECCAK256 SWAP1 PUSH1 0x1F ADD PUSH1 0x20 SWAP1 DIV DUP2 ADD SWAP3 DUP3 PUSH2 0x16BD JUMPI PUSH1 0x0 DUP6 SSTORE PUSH2 0x1704 JUMP JUMPDEST DUP3 PUSH1 0x1F LT PUSH2 0x16D6 JUMPI DUP1 MLOAD PUSH1 0xFF NOT AND DUP4 DUP1 ADD OR DUP6 SSTORE PUSH2 0x1704 JUMP JUMPDEST DUP3 DUP1 ADD PUSH1 0x1 ADD DUP6 SSTORE DUP3 ISZERO PUSH2 0x1704 JUMPI SWAP2 DUP3 ADD JUMPDEST DUP3 DUP2 GT ISZERO PUSH2 0x1703 JUMPI DUP3 MLOAD DUP3 SSTORE SWAP2 PUSH1 0x20 ADD SWAP2 SWAP1 PUSH1 0x1 ADD SWAP1 PUSH2 0x16E8 JUMP JUMPDEST JUMPDEST POP SWAP1 POP PUSH2 0x1711 SWAP2 SWAP1 PUSH2 0x1747 JUMP JUMPDEST POP SWAP1 JUMP JUMPDEST PUSH1 0x40 MLOAD DUP1 PUSH1 0x40 ADD PUSH1 0x40 MSTORE DUP1 PUSH1 0x0 PUSH20 0xFFFFFFFFFFFFFFFFFFFFFFFFFFFFFFFFFFFFFFFF AND DUP2 MSTORE PUSH1 0x20 ADD PUSH1 0x0 ISZERO ISZERO DUP2 MSTORE POP SWAP1 JUMP JUMPDEST JUMPDEST DUP1 DUP3 GT ISZERO PUSH2 0x1760 JUMPI PUSH1 0x0 DUP2 PUSH1 0x0 SWAP1 SSTORE POP PUSH1 0x1 ADD PUSH2 0x1748 JUMP JUMPDEST POP SWAP1 JUMP JUMPDEST PUSH1 0x0 PUSH2 0x1777 PUSH2 0x1772 DUP5 PUSH2 0x1BE9 JUMP JUMPDEST PUSH2 0x1BC4 JUMP JUMPDEST SWAP1 POP DUP3 DUP2 MSTORE PUSH1 0x20 DUP2 ADD DUP5 DUP5 DUP5 ADD GT ISZERO PUSH2 0x1793 JUMPI PUSH2 0x1792 PUSH2 0x1F40 JUMP JUMPDEST JUMPDEST PUSH2 0x179E DUP5 DUP3 DUP6 PUSH2 0x1D62 JUMP JUMPDEST POP SWAP4 SWAP3 POP POP POP JUMP JUMPDEST PUSH1 0x0 DUP2 CALLDATALOAD SWAP1 POP PUSH2 0x17B5 DUP2 PUSH2 0x2027 JUMP JUMPDEST SWAP3 SWAP2 POP POP JUMP JUMPDEST PUSH1 0x0 DUP2 CALLDATALOAD SWAP1 POP PUSH2 0x17CA DUP2 PUSH2 0x203E JUMP JUMPDEST SWAP3 SWAP2 POP POP JUMP JUMPDEST PUSH1 0x0 DUP3 PUSH1 0x1F DUP4 ADD SLT PUSH2 0x17E5 JUMPI PUSH2 0x17E4 PUSH2 0x1F3B JUMP JUMPDEST JUMPDEST DUP2 CALLDATALOAD PUSH2 0x17F5 DUP5 DUP3 PUSH1 0x20 DUP7 ADD PUSH2 0x1764 JUMP JUMPDEST SWAP2 POP POP SWAP3 SWAP2 POP POP JUMP JUMPDEST PUSH1 0x0 DUP2 CALLDATALOAD SWAP1 POP PUSH2 0x180D DUP2 PUSH2 0x2055 JUMP JUMPDEST SWAP3 SWAP2 POP POP JUMP JUMPDEST PUSH1 0x0 PUSH1 0x20 DUP3 DUP5 SUB SLT ISZERO PUSH2 0x1829 JUMPI PUSH2 0x1828 PUSH2 0x1F4A JUMP JUMPDEST JUMPDEST PUSH1 0x0 PUSH2 0x1837 DUP5 DUP3 DUP6 ADD PUSH2 0x17A6 JUMP JUMPDEST SWAP2 POP POP SWAP3 SWAP2 POP POP JUMP JUMPDEST PUSH1 0x0 DUP1 PUSH1 0x40 DUP4 DUP6 SUB SLT ISZERO PUSH2 0x1857 JUMPI PUSH2 0x1856 PUSH2 0x1F4A JUMP JUMPDEST JUMPDEST PUSH1 0x0 PUSH2 0x1865 DUP6 DUP3 DUP7 ADD PUSH2 0x17A6 JUMP JUMPDEST SWAP3 POP POP PUSH1 0x20 PUSH2 0x1876 DUP6 DUP3 DUP7 ADD PUSH2 0x17FE JUMP JUMPDEST SWAP2 POP POP SWAP3 POP SWAP3 SWAP1 POP JUMP JUMPDEST PUSH1 0x0 PUSH1 0x20 DUP3 DUP5 SUB SLT ISZERO PUSH2 0x1896 JUMPI PUSH2 0x1895 PUSH2 0x1F4A JUMP JUMPDEST JUMPDEST PUSH1 0x0 PUSH2 0x18A4 DUP5 DUP3 DUP6 ADD PUSH2 0x17BB JUMP JUMPDEST SWAP2 POP POP SWAP3 SWAP2 POP POP JUMP JUMPDEST PUSH1 0x0 DUP1 PUSH1 0x40 DUP4 DUP6 SUB SLT ISZERO PUSH2 0x18C4 JUMPI PUSH2 0x18C3 PUSH2 0x1F4A JUMP JUMPDEST JUMPDEST PUSH1 0x0 DUP4 ADD CALLDATALOAD PUSH8 0xFFFFFFFFFFFFFFFF DUP2 GT ISZERO PUSH2 0x18E2 JUMPI PUSH2 0x18E1 PUSH2 0x1F45 JUMP JUMPDEST JUMPDEST PUSH2 0x18EE DUP6 DUP3 DUP7 ADD PUSH2 0x17D0 JUMP JUMPDEST SWAP3 POP POP PUSH1 0x20 DUP4 ADD CALLDATALOAD PUSH8 0xFFFFFFFFFFFFFFFF DUP2 GT ISZERO PUSH2 0x190F JUMPI PUSH2 0x190E PUSH2 0x1F45 JUMP JUMPDEST JUMPDEST PUSH2 0x191B DUP6 DUP3 DUP7 ADD PUSH2 0x17D0 JUMP JUMPDEST SWAP2 POP POP SWAP3 POP SWAP3 SWAP1 POP JUMP JUMPDEST PUSH1 0x0 DUP1 PUSH1 0x0 PUSH1 0x60 DUP5 DUP7 SUB SLT ISZERO PUSH2 0x193E JUMPI PUSH2 0x193D PUSH2 0x1F4A JUMP JUMPDEST JUMPDEST PUSH1 0x0 DUP5 ADD CALLDATALOAD PUSH8 0xFFFFFFFFFFFFFFFF DUP2 GT ISZERO PUSH2 0x195C JUMPI PUSH2 0x195B PUSH2 0x1F45 JUMP JUMPDEST JUMPDEST PUSH2 0x1968 DUP7 DUP3 DUP8 ADD PUSH2 0x17D0 JUMP JUMPDEST SWAP4 POP POP PUSH1 0x20 DUP5 ADD CALLDATALOAD PUSH8 0xFFFFFFFFFFFFFFFF DUP2 GT ISZERO PUSH2 0x1989 JUMPI PUSH2 0x1988 PUSH2 0x1F45 JUMP JUMPDEST JUMPDEST PUSH2 0x1995 DUP7 DUP3 DUP8 ADD PUSH2 0x17D0 JUMP JUMPDEST SWAP3 POP POP PUSH1 0x40 PUSH2 0x19A6 DUP7 DUP3 DUP8 ADD PUSH2 0x17FE JUMP JUMPDEST SWAP2 POP POP SWAP3 POP SWAP3 POP SWAP3 JUMP JUMPDEST PUSH1 0x0 PUSH1 0x20 DUP3 DUP5 SUB SLT ISZERO PUSH2 0x19C6 JUMPI PUSH2 0x19C5 PUSH2 0x1F4A JUMP JUMPDEST JUMPDEST PUSH1 0x0 PUSH2 0x19D4 DUP5 DUP3 DUP6 ADD PUSH2 0x17FE JUMP JUMPDEST SWAP2 POP POP SWAP3 SWAP2 POP POP JUMP JUMPDEST PUSH2 0x19E6 DUP2 PUSH2 0x1D1A JUMP JUMPDEST DUP3 MSTORE POP POP JUMP JUMPDEST PUSH2 0x19F5 DUP2 PUSH2 0x1D2C JUMP JUMPDEST DUP3 MSTORE POP POP JUMP JUMPDEST PUSH1 0x0 PUSH2 0x1A06 DUP3 PUSH2 0x1C1A JUMP JUMPDEST PUSH2 0x1A10 DUP2 DUP6 PUSH2 0x1C25 JUMP JUMPDEST SWAP4 POP PUSH2 0x1A20 DUP2 DUP6 PUSH1 0x20 DUP7 ADD PUSH2 0x1D71 JUMP JUMPDEST PUSH2 0x1A29 DUP2 PUSH2 0x1F4F JUMP JUMPDEST DUP5 ADD SWAP2 POP POP SWAP3 SWAP2 POP POP JUMP JUMPDEST PUSH1 0x0 PUSH2 0x1A41 PUSH1 0x23 DUP4 PUSH2 0x1C25 JUMP JUMPDEST SWAP2 POP PUSH2 0x1A4C DUP3 PUSH2 0x1F60 JUMP JUMPDEST PUSH1 0x40 DUP3 ADD SWAP1 POP SWAP2 SWAP1 POP JUMP JUMPDEST PUSH1 0x0 PUSH2 0x1A64 PUSH1 0x22 DUP4 PUSH2 0x1C25 JUMP JUMPDEST SWAP2 POP PUSH2 0x1A6F DUP3 PUSH2 0x1FAF JUMP JUMPDEST PUSH1 0x40 DUP3 ADD SWAP1 POP SWAP2 SWAP1 POP JUMP JUMPDEST PUSH1 0x0 PUSH2 0x1A87 PUSH1 0xE DUP4 PUSH2 0x1C25 JUMP JUMPDEST SWAP2 POP PUSH2 0x1A92 DUP3 PUSH2 0x1FFE JUMP JUMPDEST PUSH1 0x20 DUP3 ADD SWAP1 POP SWAP2 SWAP1 POP JUMP JUMPDEST PUSH2 0x1AA6 DUP2 PUSH2 0x1D58 JUMP JUMPDEST DUP3 MSTORE POP POP JUMP JUMPDEST PUSH1 0x0 PUSH1 0x20 DUP3 ADD SWAP1 POP PUSH2 0x1AC1 PUSH1 0x0 DUP4 ADD DUP5 PUSH2 0x19DD JUMP JUMPDEST SWAP3 SWAP2 POP POP JUMP JUMPDEST PUSH1 0x0 PUSH1 0x20 DUP3 ADD SWAP1 POP PUSH2 0x1ADC PUSH1 0x0 DUP4 ADD DUP5 PUSH2 0x19EC JUMP JUMPDEST SWAP3 SWAP2 POP POP JUMP JUMPDEST PUSH1 0x0 PUSH1 0x20 DUP3 ADD SWAP1 POP DUP2 DUP2 SUB PUSH1 0x0 DUP4 ADD MSTORE PUSH2 0x1AFC DUP2 DUP5 PUSH2 0x19FB JUMP JUMPDEST SWAP1 POP SWAP3 SWAP2 POP POP JUMP JUMPDEST PUSH1 0x0 PUSH1 0x60 DUP3 ADD SWAP1 POP DUP2 DUP2 SUB PUSH1 0x0 DUP4 ADD MSTORE PUSH2 0x1B1E DUP2 DUP7 PUSH2 0x19FB JUMP JUMPDEST SWAP1 POP DUP2 DUP2 SUB PUSH1 0x20 DUP4 ADD MSTORE PUSH2 0x1B32 DUP2 DUP6 PUSH2 0x19FB JUMP JUMPDEST SWAP1 POP PUSH2 0x1B41 PUSH1 0x40 DUP4 ADD DUP5 PUSH2 0x1A9D JUMP JUMPDEST SWAP5 SWAP4 POP POP POP POP JUMP JUMPDEST PUSH1 0x0 PUSH1 0x20 DUP3 ADD SWAP1 POP DUP2 DUP2 SUB PUSH1 0x0 DUP4 ADD MSTORE PUSH2 0x1B62 DUP2 PUSH2 0x1A34 JUMP JUMPDEST SWAP1 POP SWAP2 SWAP1 POP JUMP JUMPDEST PUSH1 0x0 PUSH1 0x20 DUP3 ADD SWAP1 POP DUP2 DUP2 SUB PUSH1 0x0 DUP4 ADD MSTORE PUSH2 0x1B82 DUP2 PUSH2 0x1A57 JUMP JUMPDEST SWAP1 POP SWAP2 SWAP1 POP JUMP JUMPDEST PUSH1 0x0 PUSH1 0x20 DUP3 ADD SWAP1 POP DUP2 DUP2 SUB PUSH1 0x0 DUP4 ADD MSTORE PUSH2 0x1BA2 DUP2 PUSH2 0x1A7A JUMP JUMPDEST SWAP1 POP SWAP2 SWAP1 POP JUMP JUMPDEST PUSH1 0x0 PUSH1 0x20 DUP3 ADD SWAP1 POP PUSH2 0x1BBE PUSH1 0x0 DUP4 ADD DUP5 PUSH2 0x1A9D JUMP JUMPDEST SWAP3 SWAP2 POP POP JUMP JUMPDEST PUSH1 0x0 PUSH2 0x1BCE PUSH2 0x1BDF JUMP JUMPDEST SWAP1 POP PUSH2 0x1BDA DUP3 DUP3 PUSH2 0x1DD6 JUMP JUMPDEST SWAP2 SWAP1 POP JUMP JUMPDEST PUSH1 0x0 PUSH1 0x40 MLOAD SWAP1 POP SWAP1 JUMP JUMPDEST PUSH1 0x0 PUSH8 0xFFFFFFFFFFFFFFFF DUP3 GT ISZERO PUSH2 0x1C04 JUMPI PUSH2 0x1C03 PUSH2 0x1F0C JUMP JUMPDEST JUMPDEST PUSH2 0x1C0D DUP3 PUSH2 0x1F4F JUMP JUMPDEST SWAP1 POP PUSH1 0x20 DUP2 ADD SWAP1 POP SWAP2 SWAP1 POP JUMP JUMPDEST PUSH1 0x0 DUP2 MLOAD SWAP1 POP SWAP2 SWAP1 POP JUMP JUMPDEST PUSH1 0x0 DUP3 DUP3 MSTORE PUSH1 0x20 DUP3 ADD SWAP1 POP SWAP3 SWAP2 POP POP JUMP JUMPDEST PUSH1 0x0 PUSH2 0x1C41 DUP3 PUSH2 0x1D58 JUMP JUMPDEST SWAP2 POP PUSH2 0x1C4C DUP4 PUSH2 0x1D58 JUMP JUMPDEST SWAP3 POP DUP3 PUSH32 0xFFFFFFFFFFFFFFFFFFFFFFFFFFFFFFFFFFFFFFFFFFFFFFFFFFFFFFFFFFFFFFFF SUB DUP3 GT ISZERO PUSH2 0x1C81 JUMPI PUSH2 0x1C80 PUSH2 0x1E50 JUMP JUMPDEST JUMPDEST DUP3 DUP3 ADD SWAP1 POP SWAP3 SWAP2 POP POP JUMP JUMPDEST PUSH1 0x0 PUSH2 0x1C97 DUP3 PUSH2 0x1D58 JUMP JUMPDEST SWAP2 POP PUSH2 0x1CA2 DUP4 PUSH2 0x1D58 JUMP JUMPDEST SWAP3 POP DUP2 PUSH32 0xFFFFFFFFFFFFFFFFFFFFFFFFFFFFFFFFFFFFFFFFFFFFFFFFFFFFFFFFFFFFFFFF DIV DUP4 GT DUP3 ISZERO ISZERO AND ISZERO PUSH2 0x1CDB JUMPI PUSH2 0x1CDA PUSH2 0x1E50 JUMP JUMPDEST JUMPDEST DUP3 DUP3 MUL SWAP1 POP SWAP3 SWAP2 POP POP JUMP JUMPDEST PUSH1 0x0 PUSH2 0x1CF1 DUP3 PUSH2 0x1D58 JUMP JUMPDEST SWAP2 POP PUSH2 0x1CFC DUP4 PUSH2 0x1D58 JUMP JUMPDEST SWAP3 POP DUP3 DUP3 LT ISZERO PUSH2 0x1D0F JUMPI PUSH2 0x1D0E PUSH2 0x1E50 JUMP JUMPDEST JUMPDEST DUP3 DUP3 SUB SWAP1 POP SWAP3 SWAP2 POP POP JUMP JUMPDEST PUSH1 0x0 PUSH2 0x1D25 DUP3 PUSH2 0x1D38 JUMP JUMPDEST SWAP1 POP SWAP2 SWAP1 POP JUMP JUMPDEST PUSH1 0x0 DUP2 ISZERO ISZERO SWAP1 POP SWAP2 SWAP1 POP JUMP JUMPDEST PUSH1 0x0 PUSH20 0xFFFFFFFFFFFFFFFFFFFFFFFFFFFFFFFFFFFFFFFF DUP3 AND SWAP1 POP SWAP2 SWAP1 POP JUMP JUMPDEST PUSH1 0x0 DUP2 SWAP1 POP SWAP2 SWAP1 POP JUMP JUMPDEST DUP3 DUP2 DUP4 CALLDATACOPY PUSH1 0x0 DUP4 DUP4 ADD MSTORE POP POP POP JUMP JUMPDEST PUSH1 0x0 JUMPDEST DUP4 DUP2 LT ISZERO PUSH2 0x1D8F JUMPI DUP1 DUP3 ADD MLOAD DUP2 DUP5 ADD MSTORE PUSH1 0x20 DUP2 ADD SWAP1 POP PUSH2 0x1D74 JUMP JUMPDEST DUP4 DUP2 GT ISZERO PUSH2 0x1D9E JUMPI PUSH1 0x0 DUP5 DUP5 ADD MSTORE JUMPDEST POP POP POP POP JUMP JUMPDEST PUSH1 0x0 PUSH1 0x2 DUP3 DIV SWAP1 POP PUSH1 0x1 DUP3 AND DUP1 PUSH2 0x1DBC JUMPI PUSH1 0x7F DUP3 AND SWAP2 POP JUMPDEST PUSH1 0x20 DUP3 LT DUP2 EQ ISZERO PUSH2 0x1DD0 JUMPI PUSH2 0x1DCF PUSH2 0x1EAE JUMP JUMPDEST JUMPDEST POP SWAP2 SWAP1 POP JUMP JUMPDEST PUSH2 0x1DDF DUP3 PUSH2 0x1F4F JUMP JUMPDEST DUP2 ADD DUP2 DUP2 LT PUSH8 0xFFFFFFFFFFFFFFFF DUP3 GT OR ISZERO PUSH2 0x1DFE JUMPI PUSH2 0x1DFD PUSH2 0x1F0C JUMP JUMPDEST JUMPDEST DUP1 PUSH1 0x40 MSTORE POP POP POP JUMP JUMPDEST PUSH1 0x0 PUSH2 0x1E12 DUP3 PUSH2 0x1D58 JUMP JUMPDEST SWAP2 POP PUSH32 0xFFFFFFFFFFFFFFFFFFFFFFFFFFFFFFFFFFFFFFFFFFFFFFFFFFFFFFFFFFFFFFFF DUP3 EQ ISZERO PUSH2 0x1E45 JUMPI PUSH2 0x1E44 PUSH2 0x1E50 JUMP JUMPDEST JUMPDEST PUSH1 0x1 DUP3 ADD SWAP1 POP SWAP2 SWAP1 POP JUMP JUMPDEST PUSH32 0x4E487B7100000000000000000000000000000000000000000000000000000000 PUSH1 0x0 MSTORE PUSH1 0x11 PUSH1 0x4 MSTORE PUSH1 0x24 PUSH1 0x0 REVERT JUMPDEST PUSH32 0x4E487B7100000000000000000000000000000000000000000000000000000000 PUSH1 0x0 MSTORE PUSH1 0x21 PUSH1 0x4 MSTORE PUSH1 0x24 PUSH1 0x0 REVERT JUMPDEST PUSH32 0x4E487B7100000000000000000000000000000000000000000000000000000000 PUSH1 0x0 MSTORE PUSH1 0x22 PUSH1 0x4 MSTORE PUSH1 0x24 PUSH1 0x0 REVERT JUMPDEST PUSH32 0x4E487B7100000000000000000000000000000000000000000000000000000000 PUSH1 0x0 MSTORE PUSH1 0x32 PUSH1 0x4 MSTORE PUSH1 0x24 PUSH1 0x0 REVERT JUMPDEST PUSH32 0x4E487B7100000000000000000000000000000000000000000000000000000000 PUSH1 0x0 MSTORE PUSH1 0x41 PUSH1 0x4 MSTORE PUSH1 0x24 PUSH1 0x0 REVERT JUMPDEST PUSH1 0x0 DUP1 REVERT JUMPDEST PUSH1 0x0 DUP1 REVERT JUMPDEST PUSH1 0x0 DUP1 REVERT JUMPDEST PUSH1 0x0 DUP1 REVERT JUMPDEST PUSH1 0x0 PUSH1 0x1F NOT PUSH1 0x1F DUP4 ADD AND SWAP1 POP SWAP2 SWAP1 POP JUMP JUMPDEST PUSH32 0x4E756D626572206F662073686172657320657863656564656420746865206C69 PUSH1 0x0 DUP3 ADD MSTORE PUSH32 0x6D69740000000000000000000000000000000000000000000000000000000000 PUSH1 0x20 DUP3 ADD MSTORE POP JUMP JUMPDEST PUSH32 0x54686973207573657220646F6573206E6F7420686F6C6420616E792073686172 PUSH1 0x0 DUP3 ADD MSTORE PUSH32 0x6573000000000000000000000000000000000000000000000000000000000000 PUSH1 0x20 DUP3 ADD MSTORE POP JUMP JUMPDEST PUSH32 0x4E6F7420656E6F75676820776569000000000000000000000000000000000000 PUSH1 0x0 DUP3 ADD MSTORE POP JUMP JUMPDEST PUSH2 0x2030 DUP2 PUSH2 0x1D1A JUMP JUMPDEST DUP2 EQ PUSH2 0x203B JUMPI PUSH1 0x0 DUP1 REVERT JUMPDEST POP JUMP JUMPDEST PUSH2 0x2047 DUP2 PUSH2 0x1D2C JUMP JUMPDEST DUP2 EQ PUSH2 0x2052 JUMPI PUSH1 0x0 DUP1 REVERT JUMPDEST POP JUMP JUMPDEST PUSH2 0x205E DUP2 PUSH2 0x1D58 JUMP JUMPDEST DUP2 EQ PUSH2 0x2069 JUMPI PUSH1 0x0 DUP1 REVERT JUMPDEST POP JUMP INVALID LOG2 PUSH5 0x6970667358 0x22 SLT KECCAK256 SWAP15 PUSH23 0xE0831079DBAAFD998D967043F64B39C33FD2EAC79C5850 DIFFICULTY 0xCC 0xB1 GASPRICE 0xC2 SWAP9 ADDMOD PUSH5 0x736F6C6343 STOP ADDMOD SMOD STOP CALLER "
				},
				"gasEstimates": {
					"creation": {
						"codeDepositCost": "1670800",
						"executionCost": "infinite",
						"totalCost": "infinite"
					},
					"external": {
						"addHouse(string,string,uint256)": "infinite",
						"addShareHolder(address)": "infinite",
						"ballotInitiator()": "2675",
						"ballotName()": "infinite",
						"buy(uint256)": "infinite",
						"createBallot(string,string)": "infinite",
						"doVote(bool)": "infinite",
						"endVote()": "56417",
						"etherBalance(address)": "3324",
						"finalResult()": "2539",
						"houseRegister(uint256)": "infinite",
						"hp()": "infinite",
						"owner()": "2534",
						"proposal()": "infinite",
						"sell(uint256)": "infinite",
						"shareHolderRegistry(address)": "2913",
						"shareHolders(uint256)": "5001",
						"shareLimit()": "2563",
						"startTrading()": "26688",
						"startVote()": "29690",
						"tokenPrice()": "2518",
						"totalHouses()": "2475",
						"totalShareHolders()": "2474",
						"totalShares()": "2541",
						"totalVotes()": "2453",
						"transfer(address,uint256)": "infinite"
					},
					"internal": {
						"contains(address)": "infinite"
					}
				},
				"methodIdentifiers": {
					"addHouse(string,string,uint256)": "df094409",
					"addShareHolder(address)": "af769c64",
					"ballotInitiator()": "ad349442",
					"ballotName()": "1b26586c",
					"buy(uint256)": "d96a094a",
					"createBallot(string,string)": "6fa4f103",
					"doVote(bool)": "87caea78",
					"endVote()": "b9223946",
					"etherBalance(address)": "cd0c5896",
					"finalResult()": "f3a8286f",
					"houseRegister(uint256)": "a14ba987",
					"hp()": "d8124c5f",
					"owner()": "8da5cb5b",
					"proposal()": "753ec103",
					"sell(uint256)": "e4849b32",
					"shareHolderRegistry(address)": "59ea0173",
					"shareHolders(uint256)": "7427a40c",
					"shareLimit()": "3be75aa3",
					"startTrading()": "293230b8",
					"startVote()": "4c0a6af0",
					"tokenPrice()": "7ff9b596",
					"totalHouses()": "162d8afb",
					"totalShareHolders()": "9a982416",
					"totalShares()": "3a98ef39",
					"totalVotes()": "0d15fd77",
					"transfer(address,uint256)": "a9059cbb"
				}
			},
			"storageLayout": {
				"storage": [
					{
						"astId": 3,
						"contract": "MyHomeToken.sol:MyHomesToken",
						"label": "owner",
						"offset": 0,
						"slot": "0",
						"type": "t_address"
					},
					{
						"astId": 6,
						"contract": "MyHomeToken.sol:MyHomesToken",
						"label": "hp",
						"offset": 0,
						"slot": "1",
						"type": "t_struct(HousingPackage)119_storage"
					},
					{
						"astId": 10,
						"contract": "MyHomeToken.sol:MyHomesToken",
						"label": "houseRegister",
						"offset": 0,
						"slot": "4",
						"type": "t_array(t_struct(House)112_storage)dyn_storage"
					},
					{
						"astId": 13,
						"contract": "MyHomeToken.sol:MyHomesToken",
						"label": "totalHouses",
						"offset": 0,
						"slot": "5",
						"type": "t_uint256"
					},
					{
						"astId": 16,
						"contract": "MyHomeToken.sol:MyHomesToken",
						"label": "totalShares",
						"offset": 0,
						"slot": "6",
						"type": "t_uint256"
					},
					{
						"astId": 19,
						"contract": "MyHomeToken.sol:MyHomesToken",
						"label": "tokenPrice",
						"offset": 0,
						"slot": "7",
						"type": "t_uint256"
					},
					{
						"astId": 22,
						"contract": "MyHomeToken.sol:MyHomesToken",
						"label": "shareLimit",
						"offset": 0,
						"slot": "8",
						"type": "t_uint256"
					},
					{
						"astId": 25,
						"contract": "MyHomeToken.sol:MyHomesToken",
						"label": "totalShareHolders",
						"offset": 0,
						"slot": "9",
						"type": "t_uint256"
					},
					{
						"astId": 28,
						"contract": "MyHomeToken.sol:MyHomesToken",
						"label": "state",
						"offset": 0,
						"slot": "10",
						"type": "t_enum(State)197"
					},
					{
						"astId": 31,
						"contract": "MyHomeToken.sol:MyHomesToken",
						"label": "shareHolders",
						"offset": 0,
						"slot": "11",
						"type": "t_array(t_address)dyn_storage"
					},
					{
						"astId": 35,
						"contract": "MyHomeToken.sol:MyHomesToken",
						"label": "shareHolderRegistry",
						"offset": 0,
						"slot": "12",
						"type": "t_mapping(t_address,t_bool)"
					},
					{
						"astId": 39,
						"contract": "MyHomeToken.sol:MyHomesToken",
						"label": "balanceOf",
						"offset": 0,
						"slot": "13",
						"type": "t_mapping(t_address,t_uint256)"
					},
					{
						"astId": 42,
						"contract": "MyHomeToken.sol:MyHomesToken",
						"label": "ballotState",
						"offset": 0,
						"slot": "14",
						"type": "t_enum(BallotState)194"
					},
					{
						"astId": 44,
						"contract": "MyHomeToken.sol:MyHomesToken",
						"label": "ballotInitiator",
						"offset": 1,
						"slot": "14",
						"type": "t_address"
					},
					{
						"astId": 46,
						"contract": "MyHomeToken.sol:MyHomesToken",
						"label": "ballotName",
						"offset": 0,
						"slot": "15",
						"type": "t_string_storage"
					},
					{
						"astId": 48,
						"contract": "MyHomeToken.sol:MyHomesToken",
						"label": "proposal",
						"offset": 0,
						"slot": "16",
						"type": "t_string_storage"
					},
					{
						"astId": 51,
						"contract": "MyHomeToken.sol:MyHomesToken",
						"label": "resultCount",
						"offset": 0,
						"slot": "17",
						"type": "t_uint256"
					},
					{
						"astId": 54,
						"contract": "MyHomeToken.sol:MyHomesToken",
						"label": "finalResult",
						"offset": 0,
						"slot": "18",
						"type": "t_uint256"
					},
					{
						"astId": 57,
						"contract": "MyHomeToken.sol:MyHomesToken",
						"label": "totalVotes",
						"offset": 0,
						"slot": "19",
						"type": "t_uint256"
					},
					{
						"astId": 62,
						"contract": "MyHomeToken.sol:MyHomesToken",
						"label": "votes",
						"offset": 0,
						"slot": "20",
						"type": "t_mapping(t_uint256,t_struct(Vote)124_storage)"
					}
				],
				"types": {
					"t_address": {
						"encoding": "inplace",
						"label": "address",
						"numberOfBytes": "20"
					},
					"t_array(t_address)dyn_storage": {
						"base": "t_address",
						"encoding": "dynamic_array",
						"label": "address[]",
						"numberOfBytes": "32"
					},
					"t_array(t_struct(House)112_storage)dyn_storage": {
						"base": "t_struct(House)112_storage",
						"encoding": "dynamic_array",
						"label": "struct MyHomesToken.House[]",
						"numberOfBytes": "32"
					},
					"t_bool": {
						"encoding": "inplace",
						"label": "bool",
						"numberOfBytes": "1"
					},
					"t_enum(BallotState)194": {
						"encoding": "inplace",
						"label": "enum MyHomesToken.BallotState",
						"numberOfBytes": "1"
					},
					"t_enum(State)197": {
						"encoding": "inplace",
						"label": "enum MyHomesToken.State",
						"numberOfBytes": "1"
					},
					"t_mapping(t_address,t_bool)": {
						"encoding": "mapping",
						"key": "t_address",
						"label": "mapping(address => bool)",
						"numberOfBytes": "32",
						"value": "t_bool"
					},
					"t_mapping(t_address,t_uint256)": {
						"encoding": "mapping",
						"key": "t_address",
						"label": "mapping(address => uint256)",
						"numberOfBytes": "32",
						"value": "t_uint256"
					},
					"t_mapping(t_uint256,t_struct(Vote)124_storage)": {
						"encoding": "mapping",
						"key": "t_uint256",
						"label": "mapping(uint256 => struct MyHomesToken.Vote)",
						"numberOfBytes": "32",
						"value": "t_struct(Vote)124_storage"
					},
					"t_string_storage": {
						"encoding": "bytes",
						"label": "string",
						"numberOfBytes": "32"
					},
					"t_struct(House)112_storage": {
						"encoding": "inplace",
						"label": "struct MyHomesToken.House",
						"members": [
							{
								"astId": 107,
								"contract": "MyHomeToken.sol:MyHomesToken",
								"label": "registrationId",
								"offset": 0,
								"slot": "0",
								"type": "t_string_storage"
							},
							{
								"astId": 109,
								"contract": "MyHomeToken.sol:MyHomesToken",
								"label": "physicalAddress",
								"offset": 0,
								"slot": "1",
								"type": "t_string_storage"
							},
							{
								"astId": 111,
								"contract": "MyHomeToken.sol:MyHomesToken",
								"label": "price",
								"offset": 0,
								"slot": "2",
								"type": "t_uint256"
							}
						],
						"numberOfBytes": "96"
					},
					"t_struct(HousingPackage)119_storage": {
						"encoding": "inplace",
						"label": "struct MyHomesToken.HousingPackage",
						"members": [
							{
								"astId": 114,
								"contract": "MyHomeToken.sol:MyHomesToken",
								"label": "name",
								"offset": 0,
								"slot": "0",
								"type": "t_string_storage"
							},
							{
								"astId": 116,
								"contract": "MyHomeToken.sol:MyHomesToken",
								"label": "description",
								"offset": 0,
								"slot": "1",
								"type": "t_string_storage"
							},
							{
								"astId": 118,
								"contract": "MyHomeToken.sol:MyHomesToken",
								"label": "totalValue",
								"offset": 0,
								"slot": "2",
								"type": "t_uint256"
							}
						],
						"numberOfBytes": "96"
					},
					"t_struct(Vote)124_storage": {
						"encoding": "inplace",
						"label": "struct MyHomesToken.Vote",
						"members": [
							{
								"astId": 121,
								"contract": "MyHomeToken.sol:MyHomesToken",
								"label": "shareHolderAddress",
								"offset": 0,
								"slot": "0",
								"type": "t_address"
							},
							{
								"astId": 123,
								"contract": "MyHomeToken.sol:MyHomesToken",
								"label": "choice",
								"offset": 20,
								"slot": "0",
								"type": "t_bool"
							}
						],
						"numberOfBytes": "32"
					},
					"t_uint256": {
						"encoding": "inplace",
						"label": "uint256",
						"numberOfBytes": "32"
					}
				}
			},
			"userdoc": {
				"kind": "user",
				"methods": {},
				"version": 1
			}
		}
	}
}