{
	"MyHomeToken.sol": {
		"MyHomesToken": {
			"abi": [
				{
					"inputs": [
						{
							"internalType": "string",
							"name": "_name",
							"type": "string"
						},
						{
							"internalType": "string",
							"name": "_description",
							"type": "string"
						}
					],
					"stateMutability": "nonpayable",
					"type": "constructor"
				},
				{
					"anonymous": false,
					"inputs": [
						{
							"indexed": false,
							"internalType": "string",
							"name": "id",
							"type": "string"
						}
					],
					"name": "NewHouseAdded",
					"type": "event"
				},
				{
					"anonymous": false,
					"inputs": [
						{
							"indexed": false,
							"internalType": "address",
							"name": "sh",
							"type": "address"
						}
					],
					"name": "ShareHolderAdded",
					"type": "event"
				},
				{
					"anonymous": false,
					"inputs": [
						{
							"indexed": false,
							"internalType": "address",
							"name": "shareHolder",
							"type": "address"
						}
					],
					"name": "voteDone",
					"type": "event"
				},
				{
					"anonymous": false,
					"inputs": [
						{
							"indexed": false,
							"internalType": "uint256",
							"name": "finalResult",
							"type": "uint256"
						}
					],
					"name": "voteEnded",
					"type": "event"
				},
				{
					"anonymous": false,
					"inputs": [],
					"name": "voteStarted",
					"type": "event"
				},
				{
					"inputs": [
						{
							"internalType": "string",
							"name": "_registrationId",
							"type": "string"
						},
						{
							"internalType": "string",
							"name": "location",
							"type": "string"
						},
						{
							"internalType": "uint256",
							"name": "price",
							"type": "uint256"
						}
					],
					"name": "addHouse",
					"outputs": [],
					"stateMutability": "nonpayable",
					"type": "function"
				},
				{
					"inputs": [
						{
							"internalType": "address",
							"name": "_shareHolderAddress",
							"type": "address"
						}
					],
					"name": "addShareHolder",
					"outputs": [],
					"stateMutability": "nonpayable",
					"type": "function"
				},
				{
					"inputs": [],
					"name": "ballotAddress",
					"outputs": [
						{
							"internalType": "address",
							"name": "",
							"type": "address"
						}
					],
					"stateMutability": "view",
					"type": "function"
				},
				{
					"inputs": [],
					"name": "ballotInitiator",
					"outputs": [
						{
							"internalType": "address",
							"name": "",
							"type": "address"
						}
					],
					"stateMutability": "view",
					"type": "function"
				},
				{
					"inputs": [],
					"name": "ballotName",
					"outputs": [
						{
							"internalType": "string",
							"name": "",
							"type": "string"
						}
					],
					"stateMutability": "view",
					"type": "function"
				},
				{
					"inputs": [
						{
							"internalType": "uint256",
							"name": "_amount",
							"type": "uint256"
						}
					],
					"name": "buy",
					"outputs": [],
					"stateMutability": "payable",
					"type": "function"
				},
				{
					"inputs": [
						{
							"internalType": "string",
							"name": "_ballotName",
							"type": "string"
						},
						{
							"internalType": "string",
							"name": "_proposal",
							"type": "string"
						}
					],
					"name": "createBallot",
					"outputs": [],
					"stateMutability": "nonpayable",
					"type": "function"
				},
				{
					"inputs": [
						{
							"internalType": "bool",
							"name": "_choice",
							"type": "bool"
						}
					],
					"name": "doVote",
					"outputs": [
						{
							"internalType": "bool",
							"name": "voted",
							"type": "bool"
						}
					],
					"stateMutability": "nonpayable",
					"type": "function"
				},
				{
					"inputs": [],
					"name": "endVote",
					"outputs": [],
					"stateMutability": "nonpayable",
					"type": "function"
				},
				{
					"inputs": [],
					"name": "finalResult",
					"outputs": [
						{
							"internalType": "uint256",
							"name": "",
							"type": "uint256"
						}
					],
					"stateMutability": "view",
					"type": "function"
				},
				{
					"inputs": [
						{
							"internalType": "uint256",
							"name": "",
							"type": "uint256"
						}
					],
					"name": "houseRegister",
					"outputs": [
						{
							"internalType": "string",
							"name": "registrationId",
							"type": "string"
						},
						{
							"internalType": "string",
							"name": "physicalAddress",
							"type": "string"
						},
						{
							"internalType": "uint256",
							"name": "price",
							"type": "uint256"
						}
					],
					"stateMutability": "view",
					"type": "function"
				},
				{
					"inputs": [],
					"name": "hp",
					"outputs": [
						{
							"internalType": "string",
							"name": "name",
							"type": "string"
						},
						{
							"internalType": "string",
							"name": "description",
							"type": "string"
						},
						{
							"internalType": "uint256",
							"name": "totalValue",
							"type": "uint256"
						}
					],
					"stateMutability": "view",
					"type": "function"
				},
				{
					"inputs": [],
					"name": "owner",
					"outputs": [
						{
							"internalType": "address",
							"name": "",
							"type": "address"
						}
					],
					"stateMutability": "view",
					"type": "function"
				},
				{
					"inputs": [],
					"name": "proposal",
					"outputs": [
						{
							"internalType": "string",
							"name": "",
							"type": "string"
						}
					],
					"stateMutability": "view",
					"type": "function"
				},
				{
					"inputs": [
						{
							"internalType": "uint256",
							"name": "_amount",
							"type": "uint256"
						}
					],
					"name": "sell",
					"outputs": [],
					"stateMutability": "nonpayable",
					"type": "function"
				},
				{
					"inputs": [
						{
							"internalType": "address",
							"name": "",
							"type": "address"
						}
					],
					"name": "shareHolderRegistry",
					"outputs": [
						{
							"internalType": "bool",
							"name": "",
							"type": "bool"
						}
					],
					"stateMutability": "view",
					"type": "function"
				},
				{
					"inputs": [
						{
							"internalType": "uint256",
							"name": "",
							"type": "uint256"
						}
					],
					"name": "shareHolders",
					"outputs": [
						{
							"internalType": "address",
							"name": "",
							"type": "address"
						}
					],
					"stateMutability": "view",
					"type": "function"
				},
				{
					"inputs": [],
					"name": "shareLimit",
					"outputs": [
						{
							"internalType": "uint256",
							"name": "",
							"type": "uint256"
						}
					],
					"stateMutability": "view",
					"type": "function"
				},
				{
					"inputs": [],
					"name": "startTrading",
					"outputs": [],
					"stateMutability": "nonpayable",
					"type": "function"
				},
				{
					"inputs": [],
					"name": "startVote",
					"outputs": [],
					"stateMutability": "nonpayable",
					"type": "function"
				},
				{
					"inputs": [],
					"name": "tokenPrice",
					"outputs": [
						{
							"internalType": "uint256",
							"name": "",
							"type": "uint256"
						}
					],
					"stateMutability": "view",
					"type": "function"
				},
				{
					"inputs": [],
					"name": "totalShareHolders",
					"outputs": [
						{
							"internalType": "uint256",
							"name": "",
							"type": "uint256"
						}
					],
					"stateMutability": "view",
					"type": "function"
				},
				{
					"inputs": [],
					"name": "totalShares",
					"outputs": [
						{
							"internalType": "uint256",
							"name": "",
							"type": "uint256"
						}
					],
					"stateMutability": "view",
					"type": "function"
				},
				{
					"inputs": [],
					"name": "totalVotes",
					"outputs": [
						{
							"internalType": "uint256",
							"name": "",
							"type": "uint256"
						}
					],
					"stateMutability": "view",
					"type": "function"
				},
				{
					"inputs": [
						{
							"internalType": "address",
							"name": "_to",
							"type": "address"
						},
						{
							"internalType": "uint256",
							"name": "_value",
							"type": "uint256"
						}
					],
					"name": "transfer",
					"outputs": [],
					"stateMutability": "nonpayable",
					"type": "function"
				}
			],
			"devdoc": {
				"kind": "dev",
				"methods": {},
				"version": 1
			},
			"evm": {
				"assembly": "    /* \"MyHomeToken.sol\":66:5188  contract MyHomesToken {... */\n  mstore(0x40, 0x80)\n    /* \"MyHomeToken.sol\":213:216  100 */\n  0x64\n    /* \"MyHomeToken.sol\":184:216  uint256 public totalShares = 100 */\n  0x06\n  sstore\n    /* \"MyHomeToken.sol\":250:251  1 */\n  0x01\n    /* \"MyHomeToken.sol\":222:251  uint256 public tokenPrice = 1 */\n  0x07\n  sstore\n    /* \"MyHomeToken.sol\":285:287  10 */\n  0x0a\n    /* \"MyHomeToken.sol\":257:287  uint256 public shareLimit = 10 */\n  0x08\n  sstore\n    /* \"MyHomeToken.sol\":325:326  0 */\n  0x00\n    /* \"MyHomeToken.sol\":293:326  uint public totalShareHolders = 0 */\n  0x09\n  sstore\n    /* \"MyHomeToken.sol\":715:716  0 */\n  0x00\n    /* \"MyHomeToken.sol\":688:716  uint private resultCount = 0 */\n  0x12\n  sstore\n    /* \"MyHomeToken.sol\":748:749  0 */\n  0x00\n    /* \"MyHomeToken.sol\":722:749  uint public finalResult = 0 */\n  0x13\n  sstore\n    /* \"MyHomeToken.sol\":780:781  0 */\n  0x00\n    /* \"MyHomeToken.sol\":755:781  uint public totalVotes = 0 */\n  0x14\n  sstore\n    /* \"MyHomeToken.sol\":830:1094  constructor(string memory _name, string memory _description) {... */\n  callvalue\n  dup1\n  iszero\n  tag_1\n  jumpi\n  0x00\n  dup1\n  revert\ntag_1:\n  pop\n  mload(0x40)\n  sub(codesize, bytecodeSize)\n  dup1\n  bytecodeSize\n  dup4\n  codecopy\n  dup2\n  dup2\n  add\n  0x40\n  mstore\n  dup2\n  add\n  swap1\n  tag_2\n  swap2\n  swap1\n  tag_3\n  jump\t// in\ntag_2:\n    /* \"MyHomeToken.sol\":909:919  msg.sender */\n  caller\n    /* \"MyHomeToken.sol\":901:906  owner */\n  0x00\n  dup1\n    /* \"MyHomeToken.sol\":901:919  owner = msg.sender */\n  0x0100\n  exp\n  dup2\n  sload\n  dup2\n  0xffffffffffffffffffffffffffffffffffffffff\n  mul\n  not\n  and\n  swap1\n  dup4\n  0xffffffffffffffffffffffffffffffffffffffff\n  and\n  mul\n  or\n  swap1\n  sstore\n  pop\n    /* \"MyHomeToken.sol\":954:965  totalShares */\n  sload(0x06)\n    /* \"MyHomeToken.sol\":929:939  _balanceOf */\n  0x0d\n    /* \"MyHomeToken.sol\":929:951  _balanceOf[msg.sender] */\n  0x00\n    /* \"MyHomeToken.sol\":940:950  msg.sender */\n  caller\n    /* \"MyHomeToken.sol\":929:951  _balanceOf[msg.sender] */\n  0xffffffffffffffffffffffffffffffffffffffff\n  and\n  0xffffffffffffffffffffffffffffffffffffffff\n  and\n  dup2\n  mstore\n  0x20\n  add\n  swap1\n  dup2\n  mstore\n  0x20\n  add\n  0x00\n  keccak256\n    /* \"MyHomeToken.sol\":929:965  _balanceOf[msg.sender] = totalShares */\n  dup2\n  swap1\n  sstore\n  pop\n    /* \"MyHomeToken.sol\":985:990  _name */\n  dup2\n    /* \"MyHomeToken.sol\":975:977  hp */\n  0x01\n    /* \"MyHomeToken.sol\":975:982  hp.name */\n  0x00\n  add\n    /* \"MyHomeToken.sol\":975:990  hp.name = _name */\n  swap1\n  dup1\n  mload\n  swap1\n  0x20\n  add\n  swap1\n  tag_6\n  swap3\n  swap2\n  swap1\n  tag_7\n  jump\t// in\ntag_6:\n  pop\n    /* \"MyHomeToken.sol\":1017:1029  _description */\n  dup1\n    /* \"MyHomeToken.sol\":1000:1002  hp */\n  0x01\n    /* \"MyHomeToken.sol\":1000:1014  hp.description */\n  dup1\n  add\n    /* \"MyHomeToken.sol\":1000:1029  hp.description = _description */\n  swap1\n  dup1\n  mload\n  swap1\n  0x20\n  add\n  swap1\n  tag_8\n  swap3\n  swap2\n  swap1\n  tag_7\n  jump\t// in\ntag_8:\n  pop\n    /* \"MyHomeToken.sol\":1055:1056  0 */\n  0x00\n    /* \"MyHomeToken.sol\":1039:1041  hp */\n  0x01\n    /* \"MyHomeToken.sol\":1039:1052  hp.totalValue */\n  0x03\n  add\n    /* \"MyHomeToken.sol\":1039:1056  hp.totalValue = 0 */\n  dup2\n  swap1\n  sstore\n  pop\n    /* \"MyHomeToken.sol\":1074:1087  State.Created */\n  0x00\n    /* \"MyHomeToken.sol\":1066:1071  state */\n  0x0a\n  0x00\n    /* \"MyHomeToken.sol\":1066:1087  state = State.Created */\n  0x0100\n  exp\n  dup2\n  sload\n  dup2\n  0xff\n  mul\n  not\n  and\n  swap1\n  dup4\n  0x01\n  dup2\n  gt\n  iszero\n  tag_9\n  jumpi\n  tag_10\n  tag_11\n  jump\t// in\ntag_10:\ntag_9:\n  mul\n  or\n  swap1\n  sstore\n  pop\n    /* \"MyHomeToken.sol\":830:1094  constructor(string memory _name, string memory _description) {... */\n  pop\n  pop\n    /* \"MyHomeToken.sol\":66:5188  contract MyHomesToken {... */\n  jump(tag_12)\ntag_7:\n  dup3\n  dup1\n  sload\n  tag_13\n  swap1\n  tag_14\n  jump\t// in\ntag_13:\n  swap1\n  0x00\n  mstore\n  keccak256(0x00, 0x20)\n  swap1\n  0x1f\n  add\n  0x20\n  swap1\n  div\n  dup2\n  add\n  swap3\n  dup3\n  tag_16\n  jumpi\n  0x00\n  dup6\n  sstore\n  jump(tag_15)\ntag_16:\n  dup3\n  0x1f\n  lt\n  tag_17\n  jumpi\n  dup1\n  mload\n  not(0xff)\n  and\n  dup4\n  dup1\n  add\n  or\n  dup6\n  sstore\n  jump(tag_15)\ntag_17:\n  dup3\n  dup1\n  add\n  0x01\n  add\n  dup6\n  sstore\n  dup3\n  iszero\n  tag_15\n  jumpi\n  swap2\n  dup3\n  add\ntag_18:\n  dup3\n  dup2\n  gt\n  iszero\n  tag_19\n  jumpi\n  dup3\n  mload\n  dup3\n  sstore\n  swap2\n  0x20\n  add\n  swap2\n  swap1\n  0x01\n  add\n  swap1\n  jump(tag_18)\ntag_19:\ntag_15:\n  pop\n  swap1\n  pop\n  tag_20\n  swap2\n  swap1\n  tag_21\n  jump\t// in\ntag_20:\n  pop\n  swap1\n  jump\t// out\ntag_21:\ntag_22:\n  dup1\n  dup3\n  gt\n  iszero\n  tag_23\n  jumpi\n  0x00\n  dup2\n  0x00\n  swap1\n  sstore\n  pop\n  0x01\n  add\n  jump(tag_22)\ntag_23:\n  pop\n  swap1\n  jump\t// out\n    /* \"#utility.yul\":7:428   */\ntag_25:\n    /* \"#utility.yul\":96:101   */\n  0x00\n    /* \"#utility.yul\":121:187   */\n  tag_27\n    /* \"#utility.yul\":137:186   */\n  tag_28\n    /* \"#utility.yul\":179:185   */\n  dup5\n    /* \"#utility.yul\":137:186   */\n  tag_29\n  jump\t// in\ntag_28:\n    /* \"#utility.yul\":121:187   */\n  tag_30\n  jump\t// in\ntag_27:\n    /* \"#utility.yul\":112:187   */\n  swap1\n  pop\n    /* \"#utility.yul\":210:216   */\n  dup3\n    /* \"#utility.yul\":203:208   */\n  dup2\n    /* \"#utility.yul\":196:217   */\n  mstore\n    /* \"#utility.yul\":248:252   */\n  0x20\n    /* \"#utility.yul\":241:246   */\n  dup2\n    /* \"#utility.yul\":237:253   */\n  add\n    /* \"#utility.yul\":286:289   */\n  dup5\n    /* \"#utility.yul\":277:283   */\n  dup5\n    /* \"#utility.yul\":272:275   */\n  dup5\n    /* \"#utility.yul\":268:284   */\n  add\n    /* \"#utility.yul\":265:290   */\n  gt\n    /* \"#utility.yul\":262:374   */\n  iszero\n  tag_31\n  jumpi\n    /* \"#utility.yul\":293:372   */\n  tag_32\n  tag_33\n  jump\t// in\ntag_32:\n    /* \"#utility.yul\":262:374   */\ntag_31:\n    /* \"#utility.yul\":383:422   */\n  tag_34\n    /* \"#utility.yul\":415:421   */\n  dup5\n    /* \"#utility.yul\":410:413   */\n  dup3\n    /* \"#utility.yul\":405:408   */\n  dup6\n    /* \"#utility.yul\":383:422   */\n  tag_35\n  jump\t// in\ntag_34:\n    /* \"#utility.yul\":102:428   */\n  pop\n    /* \"#utility.yul\":7:428   */\n  swap4\n  swap3\n  pop\n  pop\n  pop\n  jump\t// out\n    /* \"#utility.yul\":448:803   */\ntag_36:\n    /* \"#utility.yul\":515:520   */\n  0x00\n    /* \"#utility.yul\":564:567   */\n  dup3\n    /* \"#utility.yul\":557:561   */\n  0x1f\n    /* \"#utility.yul\":549:555   */\n  dup4\n    /* \"#utility.yul\":545:562   */\n  add\n    /* \"#utility.yul\":541:568   */\n  slt\n    /* \"#utility.yul\":531:653   */\n  tag_38\n  jumpi\n    /* \"#utility.yul\":572:651   */\n  tag_39\n  tag_40\n  jump\t// in\ntag_39:\n    /* \"#utility.yul\":531:653   */\ntag_38:\n    /* \"#utility.yul\":682:688   */\n  dup2\n    /* \"#utility.yul\":676:689   */\n  mload\n    /* \"#utility.yul\":707:797   */\n  tag_41\n    /* \"#utility.yul\":793:796   */\n  dup5\n    /* \"#utility.yul\":785:791   */\n  dup3\n    /* \"#utility.yul\":778:782   */\n  0x20\n    /* \"#utility.yul\":770:776   */\n  dup7\n    /* \"#utility.yul\":766:783   */\n  add\n    /* \"#utility.yul\":707:797   */\n  tag_25\n  jump\t// in\ntag_41:\n    /* \"#utility.yul\":698:797   */\n  swap2\n  pop\n    /* \"#utility.yul\":521:803   */\n  pop\n    /* \"#utility.yul\":448:803   */\n  swap3\n  swap2\n  pop\n  pop\n  jump\t// out\n    /* \"#utility.yul\":809:1662   */\ntag_3:\n    /* \"#utility.yul\":908:914   */\n  0x00\n    /* \"#utility.yul\":916:922   */\n  dup1\n    /* \"#utility.yul\":965:967   */\n  0x40\n    /* \"#utility.yul\":953:962   */\n  dup4\n    /* \"#utility.yul\":944:951   */\n  dup6\n    /* \"#utility.yul\":940:963   */\n  sub\n    /* \"#utility.yul\":936:968   */\n  slt\n    /* \"#utility.yul\":933:1052   */\n  iszero\n  tag_43\n  jumpi\n    /* \"#utility.yul\":971:1050   */\n  tag_44\n  tag_45\n  jump\t// in\ntag_44:\n    /* \"#utility.yul\":933:1052   */\ntag_43:\n    /* \"#utility.yul\":1112:1113   */\n  0x00\n    /* \"#utility.yul\":1101:1110   */\n  dup4\n    /* \"#utility.yul\":1097:1114   */\n  add\n    /* \"#utility.yul\":1091:1115   */\n  mload\n    /* \"#utility.yul\":1142:1160   */\n  0xffffffffffffffff\n    /* \"#utility.yul\":1134:1140   */\n  dup2\n    /* \"#utility.yul\":1131:1161   */\n  gt\n    /* \"#utility.yul\":1128:1245   */\n  iszero\n  tag_46\n  jumpi\n    /* \"#utility.yul\":1164:1243   */\n  tag_47\n  tag_48\n  jump\t// in\ntag_47:\n    /* \"#utility.yul\":1128:1245   */\ntag_46:\n    /* \"#utility.yul\":1269:1343   */\n  tag_49\n    /* \"#utility.yul\":1335:1342   */\n  dup6\n    /* \"#utility.yul\":1326:1332   */\n  dup3\n    /* \"#utility.yul\":1315:1324   */\n  dup7\n    /* \"#utility.yul\":1311:1333   */\n  add\n    /* \"#utility.yul\":1269:1343   */\n  tag_36\n  jump\t// in\ntag_49:\n    /* \"#utility.yul\":1259:1343   */\n  swap3\n  pop\n    /* \"#utility.yul\":1062:1353   */\n  pop\n    /* \"#utility.yul\":1413:1415   */\n  0x20\n    /* \"#utility.yul\":1402:1411   */\n  dup4\n    /* \"#utility.yul\":1398:1416   */\n  add\n    /* \"#utility.yul\":1392:1417   */\n  mload\n    /* \"#utility.yul\":1444:1462   */\n  0xffffffffffffffff\n    /* \"#utility.yul\":1436:1442   */\n  dup2\n    /* \"#utility.yul\":1433:1463   */\n  gt\n    /* \"#utility.yul\":1430:1547   */\n  iszero\n  tag_50\n  jumpi\n    /* \"#utility.yul\":1466:1545   */\n  tag_51\n  tag_48\n  jump\t// in\ntag_51:\n    /* \"#utility.yul\":1430:1547   */\ntag_50:\n    /* \"#utility.yul\":1571:1645   */\n  tag_52\n    /* \"#utility.yul\":1637:1644   */\n  dup6\n    /* \"#utility.yul\":1628:1634   */\n  dup3\n    /* \"#utility.yul\":1617:1626   */\n  dup7\n    /* \"#utility.yul\":1613:1635   */\n  add\n    /* \"#utility.yul\":1571:1645   */\n  tag_36\n  jump\t// in\ntag_52:\n    /* \"#utility.yul\":1561:1645   */\n  swap2\n  pop\n    /* \"#utility.yul\":1363:1655   */\n  pop\n    /* \"#utility.yul\":809:1662   */\n  swap3\n  pop\n  swap3\n  swap1\n  pop\n  jump\t// out\n    /* \"#utility.yul\":1668:1797   */\ntag_30:\n    /* \"#utility.yul\":1702:1708   */\n  0x00\n    /* \"#utility.yul\":1729:1749   */\n  tag_54\n  tag_55\n  jump\t// in\ntag_54:\n    /* \"#utility.yul\":1719:1749   */\n  swap1\n  pop\n    /* \"#utility.yul\":1758:1791   */\n  tag_56\n    /* \"#utility.yul\":1786:1790   */\n  dup3\n    /* \"#utility.yul\":1778:1784   */\n  dup3\n    /* \"#utility.yul\":1758:1791   */\n  tag_57\n  jump\t// in\ntag_56:\n    /* \"#utility.yul\":1668:1797   */\n  swap2\n  swap1\n  pop\n  jump\t// out\n    /* \"#utility.yul\":1803:1878   */\ntag_55:\n    /* \"#utility.yul\":1836:1842   */\n  0x00\n    /* \"#utility.yul\":1869:1871   */\n  0x40\n    /* \"#utility.yul\":1863:1872   */\n  mload\n    /* \"#utility.yul\":1853:1872   */\n  swap1\n  pop\n    /* \"#utility.yul\":1803:1878   */\n  swap1\n  jump\t// out\n    /* \"#utility.yul\":1884:2192   */\ntag_29:\n    /* \"#utility.yul\":1946:1950   */\n  0x00\n    /* \"#utility.yul\":2036:2054   */\n  0xffffffffffffffff\n    /* \"#utility.yul\":2028:2034   */\n  dup3\n    /* \"#utility.yul\":2025:2055   */\n  gt\n    /* \"#utility.yul\":2022:2078   */\n  iszero\n  tag_60\n  jumpi\n    /* \"#utility.yul\":2058:2076   */\n  tag_61\n  tag_62\n  jump\t// in\ntag_61:\n    /* \"#utility.yul\":2022:2078   */\ntag_60:\n    /* \"#utility.yul\":2096:2125   */\n  tag_63\n    /* \"#utility.yul\":2118:2124   */\n  dup3\n    /* \"#utility.yul\":2096:2125   */\n  tag_64\n  jump\t// in\ntag_63:\n    /* \"#utility.yul\":2088:2125   */\n  swap1\n  pop\n    /* \"#utility.yul\":2180:2184   */\n  0x20\n    /* \"#utility.yul\":2174:2178   */\n  dup2\n    /* \"#utility.yul\":2170:2185   */\n  add\n    /* \"#utility.yul\":2162:2185   */\n  swap1\n  pop\n    /* \"#utility.yul\":1884:2192   */\n  swap2\n  swap1\n  pop\n  jump\t// out\n    /* \"#utility.yul\":2198:2505   */\ntag_35:\n    /* \"#utility.yul\":2266:2267   */\n  0x00\n    /* \"#utility.yul\":2276:2389   */\ntag_66:\n    /* \"#utility.yul\":2290:2296   */\n  dup4\n    /* \"#utility.yul\":2287:2288   */\n  dup2\n    /* \"#utility.yul\":2284:2297   */\n  lt\n    /* \"#utility.yul\":2276:2389   */\n  iszero\n  tag_68\n  jumpi\n    /* \"#utility.yul\":2375:2376   */\n  dup1\n    /* \"#utility.yul\":2370:2373   */\n  dup3\n    /* \"#utility.yul\":2366:2377   */\n  add\n    /* \"#utility.yul\":2360:2378   */\n  mload\n    /* \"#utility.yul\":2356:2357   */\n  dup2\n    /* \"#utility.yul\":2351:2354   */\n  dup5\n    /* \"#utility.yul\":2347:2358   */\n  add\n    /* \"#utility.yul\":2340:2379   */\n  mstore\n    /* \"#utility.yul\":2312:2314   */\n  0x20\n    /* \"#utility.yul\":2309:2310   */\n  dup2\n    /* \"#utility.yul\":2305:2315   */\n  add\n    /* \"#utility.yul\":2300:2315   */\n  swap1\n  pop\n    /* \"#utility.yul\":2276:2389   */\n  jump(tag_66)\ntag_68:\n    /* \"#utility.yul\":2407:2413   */\n  dup4\n    /* \"#utility.yul\":2404:2405   */\n  dup2\n    /* \"#utility.yul\":2401:2414   */\n  gt\n    /* \"#utility.yul\":2398:2499   */\n  iszero\n  tag_69\n  jumpi\n    /* \"#utility.yul\":2487:2488   */\n  0x00\n    /* \"#utility.yul\":2478:2484   */\n  dup5\n    /* \"#utility.yul\":2473:2476   */\n  dup5\n    /* \"#utility.yul\":2469:2485   */\n  add\n    /* \"#utility.yul\":2462:2489   */\n  mstore\n    /* \"#utility.yul\":2398:2499   */\ntag_69:\n    /* \"#utility.yul\":2247:2505   */\n  pop\n    /* \"#utility.yul\":2198:2505   */\n  pop\n  pop\n  pop\n  jump\t// out\n    /* \"#utility.yul\":2511:2831   */\ntag_14:\n    /* \"#utility.yul\":2555:2561   */\n  0x00\n    /* \"#utility.yul\":2592:2593   */\n  0x02\n    /* \"#utility.yul\":2586:2590   */\n  dup3\n    /* \"#utility.yul\":2582:2594   */\n  div\n    /* \"#utility.yul\":2572:2594   */\n  swap1\n  pop\n    /* \"#utility.yul\":2639:2640   */\n  0x01\n    /* \"#utility.yul\":2633:2637   */\n  dup3\n    /* \"#utility.yul\":2629:2641   */\n  and\n    /* \"#utility.yul\":2660:2678   */\n  dup1\n    /* \"#utility.yul\":2650:2731   */\n  tag_71\n  jumpi\n    /* \"#utility.yul\":2716:2720   */\n  0x7f\n    /* \"#utility.yul\":2708:2714   */\n  dup3\n    /* \"#utility.yul\":2704:2721   */\n  and\n    /* \"#utility.yul\":2694:2721   */\n  swap2\n  pop\n    /* \"#utility.yul\":2650:2731   */\ntag_71:\n    /* \"#utility.yul\":2778:2780   */\n  0x20\n    /* \"#utility.yul\":2770:2776   */\n  dup3\n    /* \"#utility.yul\":2767:2781   */\n  lt\n    /* \"#utility.yul\":2747:2765   */\n  dup2\n    /* \"#utility.yul\":2744:2782   */\n  eq\n    /* \"#utility.yul\":2741:2825   */\n  iszero\n  tag_72\n  jumpi\n    /* \"#utility.yul\":2797:2815   */\n  tag_73\n  tag_74\n  jump\t// in\ntag_73:\n    /* \"#utility.yul\":2741:2825   */\ntag_72:\n    /* \"#utility.yul\":2562:2831   */\n  pop\n    /* \"#utility.yul\":2511:2831   */\n  swap2\n  swap1\n  pop\n  jump\t// out\n    /* \"#utility.yul\":2837:3118   */\ntag_57:\n    /* \"#utility.yul\":2920:2947   */\n  tag_76\n    /* \"#utility.yul\":2942:2946   */\n  dup3\n    /* \"#utility.yul\":2920:2947   */\n  tag_64\n  jump\t// in\ntag_76:\n    /* \"#utility.yul\":2912:2918   */\n  dup2\n    /* \"#utility.yul\":2908:2948   */\n  add\n    /* \"#utility.yul\":3050:3056   */\n  dup2\n    /* \"#utility.yul\":3038:3048   */\n  dup2\n    /* \"#utility.yul\":3035:3057   */\n  lt\n    /* \"#utility.yul\":3014:3032   */\n  0xffffffffffffffff\n    /* \"#utility.yul\":3002:3012   */\n  dup3\n    /* \"#utility.yul\":2999:3033   */\n  gt\n    /* \"#utility.yul\":2996:3058   */\n  or\n    /* \"#utility.yul\":2993:3081   */\n  iszero\n  tag_77\n  jumpi\n    /* \"#utility.yul\":3061:3079   */\n  tag_78\n  tag_62\n  jump\t// in\ntag_78:\n    /* \"#utility.yul\":2993:3081   */\ntag_77:\n    /* \"#utility.yul\":3101:3111   */\n  dup1\n    /* \"#utility.yul\":3097:3099   */\n  0x40\n    /* \"#utility.yul\":3090:3112   */\n  mstore\n    /* \"#utility.yul\":2880:3118   */\n  pop\n    /* \"#utility.yul\":2837:3118   */\n  pop\n  pop\n  jump\t// out\n    /* \"#utility.yul\":3124:3304   */\ntag_11:\n    /* \"#utility.yul\":3172:3249   */\n  0x4e487b7100000000000000000000000000000000000000000000000000000000\n    /* \"#utility.yul\":3169:3170   */\n  0x00\n    /* \"#utility.yul\":3162:3250   */\n  mstore\n    /* \"#utility.yul\":3269:3273   */\n  0x21\n    /* \"#utility.yul\":3266:3267   */\n  0x04\n    /* \"#utility.yul\":3259:3274   */\n  mstore\n    /* \"#utility.yul\":3293:3297   */\n  0x24\n    /* \"#utility.yul\":3290:3291   */\n  0x00\n    /* \"#utility.yul\":3283:3298   */\n  revert\n    /* \"#utility.yul\":3310:3490   */\ntag_74:\n    /* \"#utility.yul\":3358:3435   */\n  0x4e487b7100000000000000000000000000000000000000000000000000000000\n    /* \"#utility.yul\":3355:3356   */\n  0x00\n    /* \"#utility.yul\":3348:3436   */\n  mstore\n    /* \"#utility.yul\":3455:3459   */\n  0x22\n    /* \"#utility.yul\":3452:3453   */\n  0x04\n    /* \"#utility.yul\":3445:3460   */\n  mstore\n    /* \"#utility.yul\":3479:3483   */\n  0x24\n    /* \"#utility.yul\":3476:3477   */\n  0x00\n    /* \"#utility.yul\":3469:3484   */\n  revert\n    /* \"#utility.yul\":3496:3676   */\ntag_62:\n    /* \"#utility.yul\":3544:3621   */\n  0x4e487b7100000000000000000000000000000000000000000000000000000000\n    /* \"#utility.yul\":3541:3542   */\n  0x00\n    /* \"#utility.yul\":3534:3622   */\n  mstore\n    /* \"#utility.yul\":3641:3645   */\n  0x41\n    /* \"#utility.yul\":3638:3639   */\n  0x04\n    /* \"#utility.yul\":3631:3646   */\n  mstore\n    /* \"#utility.yul\":3665:3669   */\n  0x24\n    /* \"#utility.yul\":3662:3663   */\n  0x00\n    /* \"#utility.yul\":3655:3670   */\n  revert\n    /* \"#utility.yul\":3682:3799   */\ntag_40:\n    /* \"#utility.yul\":3791:3792   */\n  0x00\n    /* \"#utility.yul\":3788:3789   */\n  dup1\n    /* \"#utility.yul\":3781:3793   */\n  revert\n    /* \"#utility.yul\":3805:3922   */\ntag_33:\n    /* \"#utility.yul\":3914:3915   */\n  0x00\n    /* \"#utility.yul\":3911:3912   */\n  dup1\n    /* \"#utility.yul\":3904:3916   */\n  revert\n    /* \"#utility.yul\":3928:4045   */\ntag_48:\n    /* \"#utility.yul\":4037:4038   */\n  0x00\n    /* \"#utility.yul\":4034:4035   */\n  dup1\n    /* \"#utility.yul\":4027:4039   */\n  revert\n    /* \"#utility.yul\":4051:4168   */\ntag_45:\n    /* \"#utility.yul\":4160:4161   */\n  0x00\n    /* \"#utility.yul\":4157:4158   */\n  dup1\n    /* \"#utility.yul\":4150:4162   */\n  revert\n    /* \"#utility.yul\":4174:4276   */\ntag_64:\n    /* \"#utility.yul\":4215:4221   */\n  0x00\n    /* \"#utility.yul\":4266:4268   */\n  0x1f\n    /* \"#utility.yul\":4262:4269   */\n  not\n    /* \"#utility.yul\":4257:4259   */\n  0x1f\n    /* \"#utility.yul\":4250:4255   */\n  dup4\n    /* \"#utility.yul\":4246:4260   */\n  add\n    /* \"#utility.yul\":4242:4270   */\n  and\n    /* \"#utility.yul\":4232:4270   */\n  swap1\n  pop\n    /* \"#utility.yul\":4174:4276   */\n  swap2\n  swap1\n  pop\n  jump\t// out\n    /* \"MyHomeToken.sol\":66:5188  contract MyHomesToken {... */\ntag_12:\n  dataSize(sub_0)\n  dup1\n  dataOffset(sub_0)\n  0x00\n  codecopy\n  0x00\n  return\nstop\n\nsub_0: assembly {\n        /* \"MyHomeToken.sol\":66:5188  contract MyHomesToken {... */\n      mstore(0x40, 0x80)\n      jumpi(tag_1, lt(calldatasize, 0x04))\n      shr(0xe0, calldataload(0x00))\n      dup1\n      0x8da5cb5b\n      gt\n      tag_27\n      jumpi\n      dup1\n      0xb9223946\n      gt\n      tag_28\n      jumpi\n      dup1\n      0xd96a094a\n      gt\n      tag_29\n      jumpi\n      dup1\n      0xd96a094a\n      eq\n      tag_23\n      jumpi\n      dup1\n      0xdf094409\n      eq\n      tag_24\n      jumpi\n      dup1\n      0xe4849b32\n      eq\n      tag_25\n      jumpi\n      dup1\n      0xf3a8286f\n      eq\n      tag_26\n      jumpi\n      jump(tag_1)\n    tag_29:\n      dup1\n      0xb9223946\n      eq\n      tag_20\n      jumpi\n      dup1\n      0xd8124c5f\n      eq\n      tag_21\n      jumpi\n      dup1\n      0xd8335b53\n      eq\n      tag_22\n      jumpi\n      jump(tag_1)\n    tag_28:\n      dup1\n      0x8da5cb5b\n      eq\n      tag_14\n      jumpi\n      dup1\n      0x9a982416\n      eq\n      tag_15\n      jumpi\n      dup1\n      0xa14ba987\n      eq\n      tag_16\n      jumpi\n      dup1\n      0xa9059cbb\n      eq\n      tag_17\n      jumpi\n      dup1\n      0xad349442\n      eq\n      tag_18\n      jumpi\n      dup1\n      0xaf769c64\n      eq\n      tag_19\n      jumpi\n      jump(tag_1)\n    tag_27:\n      dup1\n      0x59ea0173\n      gt\n      tag_30\n      jumpi\n      dup1\n      0x59ea0173\n      eq\n      tag_8\n      jumpi\n      dup1\n      0x6fa4f103\n      eq\n      tag_9\n      jumpi\n      dup1\n      0x7427a40c\n      eq\n      tag_10\n      jumpi\n      dup1\n      0x753ec103\n      eq\n      tag_11\n      jumpi\n      dup1\n      0x7ff9b596\n      eq\n      tag_12\n      jumpi\n      dup1\n      0x87caea78\n      eq\n      tag_13\n      jumpi\n      jump(tag_1)\n    tag_30:\n      dup1\n      0x0d15fd77\n      eq\n      tag_2\n      jumpi\n      dup1\n      0x1b26586c\n      eq\n      tag_3\n      jumpi\n      dup1\n      0x293230b8\n      eq\n      tag_4\n      jumpi\n      dup1\n      0x3a98ef39\n      eq\n      tag_5\n      jumpi\n      dup1\n      0x3be75aa3\n      eq\n      tag_6\n      jumpi\n      dup1\n      0x4c0a6af0\n      eq\n      tag_7\n      jumpi\n    tag_1:\n      0x00\n      dup1\n      revert\n        /* \"MyHomeToken.sol\":755:781  uint public totalVotes = 0 */\n    tag_2:\n      callvalue\n      dup1\n      iszero\n      tag_31\n      jumpi\n      0x00\n      dup1\n      revert\n    tag_31:\n      pop\n      tag_32\n      tag_33\n      jump\t// in\n    tag_32:\n      mload(0x40)\n      tag_34\n      swap2\n      swap1\n      tag_35\n      jump\t// in\n    tag_34:\n      mload(0x40)\n      dup1\n      swap2\n      sub\n      swap1\n      return\n        /* \"MyHomeToken.sol\":630:654  string public ballotName */\n    tag_3:\n      callvalue\n      dup1\n      iszero\n      tag_36\n      jumpi\n      0x00\n      dup1\n      revert\n    tag_36:\n      pop\n      tag_37\n      tag_38\n      jump\t// in\n    tag_37:\n      mload(0x40)\n      tag_39\n      swap2\n      swap1\n      tag_40\n      jump\t// in\n    tag_39:\n      mload(0x40)\n      dup1\n      swap2\n      sub\n      swap1\n      return\n        /* \"MyHomeToken.sol\":2022:2105  function startTrading() public onlyRegulator {... */\n    tag_4:\n      callvalue\n      dup1\n      iszero\n      tag_41\n      jumpi\n      0x00\n      dup1\n      revert\n    tag_41:\n      pop\n      tag_42\n      tag_43\n      jump\t// in\n    tag_42:\n      stop\n        /* \"MyHomeToken.sol\":184:216  uint256 public totalShares = 100 */\n    tag_5:\n      callvalue\n      dup1\n      iszero\n      tag_44\n      jumpi\n      0x00\n      dup1\n      revert\n    tag_44:\n      pop\n      tag_45\n      tag_46\n      jump\t// in\n    tag_45:\n      mload(0x40)\n      tag_47\n      swap2\n      swap1\n      tag_35\n      jump\t// in\n    tag_47:\n      mload(0x40)\n      dup1\n      swap2\n      sub\n      swap1\n      return\n        /* \"MyHomeToken.sol\":257:287  uint256 public shareLimit = 10 */\n    tag_6:\n      callvalue\n      dup1\n      iszero\n      tag_48\n      jumpi\n      0x00\n      dup1\n      revert\n    tag_48:\n      pop\n      tag_49\n      tag_50\n      jump\t// in\n    tag_49:\n      mload(0x40)\n      tag_51\n      swap2\n      swap1\n      tag_35\n      jump\t// in\n    tag_51:\n      mload(0x40)\n      dup1\n      swap2\n      sub\n      swap1\n      return\n        /* \"MyHomeToken.sol\":4061:4253  function startVote()... */\n    tag_7:\n      callvalue\n      dup1\n      iszero\n      tag_52\n      jumpi\n      0x00\n      dup1\n      revert\n    tag_52:\n      pop\n      tag_53\n      tag_54\n      jump\t// in\n    tag_53:\n      stop\n        /* \"MyHomeToken.sol\":392:443  mapping(address => bool) public shareHolderRegistry */\n    tag_8:\n      callvalue\n      dup1\n      iszero\n      tag_55\n      jumpi\n      0x00\n      dup1\n      revert\n    tag_55:\n      pop\n      tag_56\n      0x04\n      dup1\n      calldatasize\n      sub\n      dup2\n      add\n      swap1\n      tag_57\n      swap2\n      swap1\n      tag_58\n      jump\t// in\n    tag_57:\n      tag_59\n      jump\t// in\n    tag_56:\n      mload(0x40)\n      tag_60\n      swap2\n      swap1\n      tag_61\n      jump\t// in\n    tag_60:\n      mload(0x40)\n      dup1\n      swap2\n      sub\n      swap1\n      return\n        /* \"MyHomeToken.sol\":3822:4055  function createBallot(string memory _ballotName, string memory _proposal) public {... */\n    tag_9:\n      callvalue\n      dup1\n      iszero\n      tag_62\n      jumpi\n      0x00\n      dup1\n      revert\n    tag_62:\n      pop\n      tag_63\n      0x04\n      dup1\n      calldatasize\n      sub\n      dup2\n      add\n      swap1\n      tag_64\n      swap2\n      swap1\n      tag_65\n      jump\t// in\n    tag_64:\n      tag_66\n      jump\t// in\n    tag_63:\n      stop\n        /* \"MyHomeToken.sol\":357:386  address[] public shareHolders */\n    tag_10:\n      callvalue\n      dup1\n      iszero\n      tag_67\n      jumpi\n      0x00\n      dup1\n      revert\n    tag_67:\n      pop\n      tag_68\n      0x04\n      dup1\n      calldatasize\n      sub\n      dup2\n      add\n      swap1\n      tag_69\n      swap2\n      swap1\n      tag_70\n      jump\t// in\n    tag_69:\n      tag_71\n      jump\t// in\n    tag_68:\n      mload(0x40)\n      tag_72\n      swap2\n      swap1\n      tag_73\n      jump\t// in\n    tag_72:\n      mload(0x40)\n      dup1\n      swap2\n      sub\n      swap1\n      return\n        /* \"MyHomeToken.sol\":660:682  string public proposal */\n    tag_11:\n      callvalue\n      dup1\n      iszero\n      tag_74\n      jumpi\n      0x00\n      dup1\n      revert\n    tag_74:\n      pop\n      tag_75\n      tag_76\n      jump\t// in\n    tag_75:\n      mload(0x40)\n      tag_77\n      swap2\n      swap1\n      tag_40\n      jump\t// in\n    tag_77:\n      mload(0x40)\n      dup1\n      swap2\n      sub\n      swap1\n      return\n        /* \"MyHomeToken.sol\":222:251  uint256 public tokenPrice = 1 */\n    tag_12:\n      callvalue\n      dup1\n      iszero\n      tag_78\n      jumpi\n      0x00\n      dup1\n      revert\n    tag_78:\n      pop\n      tag_79\n      tag_80\n      jump\t// in\n    tag_79:\n      mload(0x40)\n      tag_81\n      swap2\n      swap1\n      tag_35\n      jump\t// in\n    tag_81:\n      mload(0x40)\n      dup1\n      swap2\n      sub\n      swap1\n      return\n        /* \"MyHomeToken.sol\":4317:4932  function doVote(bool _choice)... */\n    tag_13:\n      callvalue\n      dup1\n      iszero\n      tag_82\n      jumpi\n      0x00\n      dup1\n      revert\n    tag_82:\n      pop\n      tag_83\n      0x04\n      dup1\n      calldatasize\n      sub\n      dup2\n      add\n      swap1\n      tag_84\n      swap2\n      swap1\n      tag_85\n      jump\t// in\n    tag_84:\n      tag_86\n      jump\t// in\n    tag_83:\n      mload(0x40)\n      tag_87\n      swap2\n      swap1\n      tag_61\n      jump\t// in\n    tag_87:\n      mload(0x40)\n      dup1\n      swap2\n      sub\n      swap1\n      return\n        /* \"MyHomeToken.sol\":94:114  address public owner */\n    tag_14:\n      callvalue\n      dup1\n      iszero\n      tag_88\n      jumpi\n      0x00\n      dup1\n      revert\n    tag_88:\n      pop\n      tag_89\n      tag_90\n      jump\t// in\n    tag_89:\n      mload(0x40)\n      tag_91\n      swap2\n      swap1\n      tag_73\n      jump\t// in\n    tag_91:\n      mload(0x40)\n      dup1\n      swap2\n      sub\n      swap1\n      return\n        /* \"MyHomeToken.sol\":293:326  uint public totalShareHolders = 0 */\n    tag_15:\n      callvalue\n      dup1\n      iszero\n      tag_92\n      jumpi\n      0x00\n      dup1\n      revert\n    tag_92:\n      pop\n      tag_93\n      tag_94\n      jump\t// in\n    tag_93:\n      mload(0x40)\n      tag_95\n      swap2\n      swap1\n      tag_35\n      jump\t// in\n    tag_95:\n      mload(0x40)\n      dup1\n      swap2\n      sub\n      swap1\n      return\n        /* \"MyHomeToken.sol\":150:178  House[] public houseRegister */\n    tag_16:\n      callvalue\n      dup1\n      iszero\n      tag_96\n      jumpi\n      0x00\n      dup1\n      revert\n    tag_96:\n      pop\n      tag_97\n      0x04\n      dup1\n      calldatasize\n      sub\n      dup2\n      add\n      swap1\n      tag_98\n      swap2\n      swap1\n      tag_70\n      jump\t// in\n    tag_98:\n      tag_99\n      jump\t// in\n    tag_97:\n      mload(0x40)\n      tag_100\n      swap4\n      swap3\n      swap2\n      swap1\n      tag_101\n      jump\t// in\n    tag_100:\n      mload(0x40)\n      dup1\n      swap2\n      sub\n      swap1\n      return\n        /* \"MyHomeToken.sol\":3149:3386  function transfer(address _to, uint256 _value) public {... */\n    tag_17:\n      callvalue\n      dup1\n      iszero\n      tag_102\n      jumpi\n      0x00\n      dup1\n      revert\n    tag_102:\n      pop\n      tag_103\n      0x04\n      dup1\n      calldatasize\n      sub\n      dup2\n      add\n      swap1\n      tag_104\n      swap2\n      swap1\n      tag_105\n      jump\t// in\n    tag_104:\n      tag_106\n      jump\t// in\n    tag_103:\n      stop\n        /* \"MyHomeToken.sol\":554:584  address public ballotInitiator */\n    tag_18:\n      callvalue\n      dup1\n      iszero\n      tag_107\n      jumpi\n      0x00\n      dup1\n      revert\n    tag_107:\n      pop\n      tag_108\n      tag_109\n      jump\t// in\n    tag_108:\n      mload(0x40)\n      tag_110\n      swap2\n      swap1\n      tag_73\n      jump\t// in\n    tag_110:\n      mload(0x40)\n      dup1\n      swap2\n      sub\n      swap1\n      return\n        /* \"MyHomeToken.sol\":2771:3143  function addShareHolder(address _shareHolderAddress)... */\n    tag_19:\n      callvalue\n      dup1\n      iszero\n      tag_111\n      jumpi\n      0x00\n      dup1\n      revert\n    tag_111:\n      pop\n      tag_112\n      0x04\n      dup1\n      calldatasize\n      sub\n      dup2\n      add\n      swap1\n      tag_113\n      swap2\n      swap1\n      tag_58\n      jump\t// in\n    tag_113:\n      tag_114\n      jump\t// in\n    tag_112:\n      stop\n        /* \"MyHomeToken.sol\":4958:5186  function endVote()... */\n    tag_20:\n      callvalue\n      dup1\n      iszero\n      tag_115\n      jumpi\n      0x00\n      dup1\n      revert\n    tag_115:\n      pop\n      tag_116\n      tag_117\n      jump\t// in\n    tag_116:\n      stop\n        /* \"MyHomeToken.sol\":120:144  HousingPackage public hp */\n    tag_21:\n      callvalue\n      dup1\n      iszero\n      tag_118\n      jumpi\n      0x00\n      dup1\n      revert\n    tag_118:\n      pop\n      tag_119\n      tag_120\n      jump\t// in\n    tag_119:\n      mload(0x40)\n      tag_121\n      swap4\n      swap3\n      swap2\n      swap1\n      tag_101\n      jump\t// in\n    tag_121:\n      mload(0x40)\n      dup1\n      swap2\n      sub\n      swap1\n      return\n        /* \"MyHomeToken.sol\":590:618  address public ballotAddress */\n    tag_22:\n      callvalue\n      dup1\n      iszero\n      tag_122\n      jumpi\n      0x00\n      dup1\n      revert\n    tag_122:\n      pop\n      tag_123\n      tag_124\n      jump\t// in\n    tag_123:\n      mload(0x40)\n      tag_125\n      swap2\n      swap1\n      tag_73\n      jump\t// in\n    tag_125:\n      mload(0x40)\n      dup1\n      swap2\n      sub\n      swap1\n      return\n        /* \"MyHomeToken.sol\":3392:3670  function buy(uint256 _amount) external payable {... */\n    tag_23:\n      tag_126\n      0x04\n      dup1\n      calldatasize\n      sub\n      dup2\n      add\n      swap1\n      tag_127\n      swap2\n      swap1\n      tag_70\n      jump\t// in\n    tag_127:\n      tag_128\n      jump\t// in\n    tag_126:\n      stop\n        /* \"MyHomeToken.sol\":2111:2491  function addHouse(string memory _registrationId, string memory location, uint256 price) ... */\n    tag_24:\n      callvalue\n      dup1\n      iszero\n      tag_129\n      jumpi\n      0x00\n      dup1\n      revert\n    tag_129:\n      pop\n      tag_130\n      0x04\n      dup1\n      calldatasize\n      sub\n      dup2\n      add\n      swap1\n      tag_131\n      swap2\n      swap1\n      tag_132\n      jump\t// in\n    tag_131:\n      tag_133\n      jump\t// in\n    tag_130:\n      stop\n        /* \"MyHomeToken.sol\":3680:3816  function sell(uint256 _amount) external {... */\n    tag_25:\n      callvalue\n      dup1\n      iszero\n      tag_134\n      jumpi\n      0x00\n      dup1\n      revert\n    tag_134:\n      pop\n      tag_135\n      0x04\n      dup1\n      calldatasize\n      sub\n      dup2\n      add\n      swap1\n      tag_136\n      swap2\n      swap1\n      tag_70\n      jump\t// in\n    tag_136:\n      tag_137\n      jump\t// in\n    tag_135:\n      stop\n        /* \"MyHomeToken.sol\":722:749  uint public finalResult = 0 */\n    tag_26:\n      callvalue\n      dup1\n      iszero\n      tag_138\n      jumpi\n      0x00\n      dup1\n      revert\n    tag_138:\n      pop\n      tag_139\n      tag_140\n      jump\t// in\n    tag_139:\n      mload(0x40)\n      tag_141\n      swap2\n      swap1\n      tag_35\n      jump\t// in\n    tag_141:\n      mload(0x40)\n      dup1\n      swap2\n      sub\n      swap1\n      return\n        /* \"MyHomeToken.sol\":755:781  uint public totalVotes = 0 */\n    tag_33:\n      sload(0x14)\n      dup2\n      jump\t// out\n        /* \"MyHomeToken.sol\":630:654  string public ballotName */\n    tag_38:\n      0x10\n      dup1\n      sload\n      tag_142\n      swap1\n      tag_143\n      jump\t// in\n    tag_142:\n      dup1\n      0x1f\n      add\n      0x20\n      dup1\n      swap2\n      div\n      mul\n      0x20\n      add\n      mload(0x40)\n      swap1\n      dup2\n      add\n      0x40\n      mstore\n      dup1\n      swap3\n      swap2\n      swap1\n      dup2\n      dup2\n      mstore\n      0x20\n      add\n      dup3\n      dup1\n      sload\n      tag_144\n      swap1\n      tag_143\n      jump\t// in\n    tag_144:\n      dup1\n      iszero\n      tag_145\n      jumpi\n      dup1\n      0x1f\n      lt\n      tag_146\n      jumpi\n      0x0100\n      dup1\n      dup4\n      sload\n      div\n      mul\n      dup4\n      mstore\n      swap2\n      0x20\n      add\n      swap2\n      jump(tag_145)\n    tag_146:\n      dup3\n      add\n      swap2\n      swap1\n      0x00\n      mstore\n      keccak256(0x00, 0x20)\n      swap1\n    tag_147:\n      dup2\n      sload\n      dup2\n      mstore\n      swap1\n      0x01\n      add\n      swap1\n      0x20\n      add\n      dup1\n      dup4\n      gt\n      tag_147\n      jumpi\n      dup3\n      swap1\n      sub\n      0x1f\n      and\n      dup3\n      add\n      swap2\n    tag_145:\n      pop\n      pop\n      pop\n      pop\n      pop\n      dup2\n      jump\t// out\n        /* \"MyHomeToken.sol\":2022:2105  function startTrading() public onlyRegulator {... */\n    tag_43:\n        /* \"MyHomeToken.sol\":1485:1490  owner */\n      0x00\n      dup1\n      sload\n      swap1\n      0x0100\n      exp\n      swap1\n      div\n      0xffffffffffffffffffffffffffffffffffffffff\n      and\n        /* \"MyHomeToken.sol\":1471:1490  msg.sender == owner */\n      0xffffffffffffffffffffffffffffffffffffffff\n      and\n        /* \"MyHomeToken.sol\":1471:1481  msg.sender */\n      caller\n        /* \"MyHomeToken.sol\":1471:1490  msg.sender == owner */\n      0xffffffffffffffffffffffffffffffffffffffff\n      and\n      eq\n        /* \"MyHomeToken.sol\":1463:1491  require(msg.sender == owner) */\n      tag_149\n      jumpi\n      0x00\n      dup1\n      revert\n    tag_149:\n        /* \"MyHomeToken.sol\":2085:2098  State.Running */\n      0x01\n        /* \"MyHomeToken.sol\":2077:2082  state */\n      0x0a\n      0x00\n        /* \"MyHomeToken.sol\":2077:2098  state = State.Running */\n      0x0100\n      exp\n      dup2\n      sload\n      dup2\n      0xff\n      mul\n      not\n      and\n      swap1\n      dup4\n      0x01\n      dup2\n      gt\n      iszero\n      tag_151\n      jumpi\n      tag_152\n      tag_153\n      jump\t// in\n    tag_152:\n    tag_151:\n      mul\n      or\n      swap1\n      sstore\n      pop\n        /* \"MyHomeToken.sol\":2022:2105  function startTrading() public onlyRegulator {... */\n      jump\t// out\n        /* \"MyHomeToken.sol\":184:216  uint256 public totalShares = 100 */\n    tag_46:\n      sload(0x06)\n      dup2\n      jump\t// out\n        /* \"MyHomeToken.sol\":257:287  uint256 public shareLimit = 10 */\n    tag_50:\n      sload(0x08)\n      dup2\n      jump\t// out\n        /* \"MyHomeToken.sol\":4061:4253  function startVote()... */\n    tag_54:\n        /* \"MyHomeToken.sol\":4119:4138  BallotState.Created */\n      0x00\n        /* \"MyHomeToken.sol\":1733:1739  _state */\n      dup1\n        /* \"MyHomeToken.sol\":1718:1739  ballotState == _state */\n      0x02\n      dup2\n      gt\n      iszero\n      tag_155\n      jumpi\n      tag_156\n      tag_153\n      jump\t// in\n    tag_156:\n    tag_155:\n        /* \"MyHomeToken.sol\":1718:1729  ballotState */\n      0x0e\n      0x00\n      swap1\n      sload\n      swap1\n      0x0100\n      exp\n      swap1\n      div\n      0xff\n      and\n        /* \"MyHomeToken.sol\":1718:1739  ballotState == _state */\n      0x02\n      dup2\n      gt\n      iszero\n      tag_157\n      jumpi\n      tag_158\n      tag_153\n      jump\t// in\n    tag_158:\n    tag_157:\n      eq\n        /* \"MyHomeToken.sol\":1710:1740  require(ballotState == _state) */\n      tag_159\n      jumpi\n      0x00\n      dup1\n      revert\n    tag_159:\n        /* \"MyHomeToken.sol\":1637:1650  ballotAddress */\n      0x0f\n      0x00\n      swap1\n      sload\n      swap1\n      0x0100\n      exp\n      swap1\n      div\n      0xffffffffffffffffffffffffffffffffffffffff\n      and\n        /* \"MyHomeToken.sol\":1623:1650  msg.sender == ballotAddress */\n      0xffffffffffffffffffffffffffffffffffffffff\n      and\n        /* \"MyHomeToken.sol\":1623:1633  msg.sender */\n      caller\n        /* \"MyHomeToken.sol\":1623:1650  msg.sender == ballotAddress */\n      0xffffffffffffffffffffffffffffffffffffffff\n      and\n      eq\n        /* \"MyHomeToken.sol\":1615:1651  require(msg.sender == ballotAddress) */\n      tag_161\n      jumpi\n      0x00\n      dup1\n      revert\n    tag_161:\n        /* \"MyHomeToken.sol\":4196:4214  BallotState.Voting */\n      0x01\n        /* \"MyHomeToken.sol\":4182:4193  ballotState */\n      0x0e\n      0x00\n        /* \"MyHomeToken.sol\":4182:4214  ballotState = BallotState.Voting */\n      0x0100\n      exp\n      dup2\n      sload\n      dup2\n      0xff\n      mul\n      not\n      and\n      swap1\n      dup4\n      0x02\n      dup2\n      gt\n      iszero\n      tag_163\n      jumpi\n      tag_164\n      tag_153\n      jump\t// in\n    tag_164:\n    tag_163:\n      mul\n      or\n      swap1\n      sstore\n      pop\n        /* \"MyHomeToken.sol\":4233:4246  voteStarted() */\n      0xd0dc01800a369fef30d3fced5275b8b916549867622e79efca5245c479fda4ea\n      mload(0x40)\n      mload(0x40)\n      dup1\n      swap2\n      sub\n      swap1\n      log1\n        /* \"MyHomeToken.sol\":4061:4253  function startVote()... */\n      pop\n      jump\t// out\n        /* \"MyHomeToken.sol\":392:443  mapping(address => bool) public shareHolderRegistry */\n    tag_59:\n      mstore(0x20, 0x0c)\n      dup1\n      0x00\n      mstore\n      keccak256(0x00, 0x40)\n      0x00\n      swap2\n      pop\n      sload\n      swap1\n      0x0100\n      exp\n      swap1\n      div\n      0xff\n      and\n      dup2\n      jump\t// out\n        /* \"MyHomeToken.sol\":3822:4055  function createBallot(string memory _ballotName, string memory _proposal) public {... */\n    tag_66:\n        /* \"MyHomeToken.sol\":3927:3946  BallotState.Created */\n      0x00\n        /* \"MyHomeToken.sol\":3913:3924  ballotState */\n      0x0e\n      0x00\n        /* \"MyHomeToken.sol\":3913:3946  ballotState = BallotState.Created */\n      0x0100\n      exp\n      dup2\n      sload\n      dup2\n      0xff\n      mul\n      not\n      and\n      swap1\n      dup4\n      0x02\n      dup2\n      gt\n      iszero\n      tag_166\n      jumpi\n      tag_167\n      tag_153\n      jump\t// in\n    tag_167:\n    tag_166:\n      mul\n      or\n      swap1\n      sstore\n      pop\n        /* \"MyHomeToken.sol\":3969:3980  _ballotName */\n      dup2\n        /* \"MyHomeToken.sol\":3956:3966  ballotName */\n      0x10\n        /* \"MyHomeToken.sol\":3956:3980  ballotName = _ballotName */\n      swap1\n      dup1\n      mload\n      swap1\n      0x20\n      add\n      swap1\n      tag_168\n      swap3\n      swap2\n      swap1\n      tag_169\n      jump\t// in\n    tag_168:\n      pop\n        /* \"MyHomeToken.sol\":4001:4010  _proposal */\n      dup1\n        /* \"MyHomeToken.sol\":3990:3998  proposal */\n      0x11\n        /* \"MyHomeToken.sol\":3990:4010  proposal = _proposal */\n      swap1\n      dup1\n      mload\n      swap1\n      0x20\n      add\n      swap1\n      tag_170\n      swap3\n      swap2\n      swap1\n      tag_169\n      jump\t// in\n    tag_170:\n      pop\n        /* \"MyHomeToken.sol\":4038:4048  msg.sender */\n      caller\n        /* \"MyHomeToken.sol\":4020:4035  ballotInitiator */\n      0x0e\n      0x01\n        /* \"MyHomeToken.sol\":4020:4048  ballotInitiator = msg.sender */\n      0x0100\n      exp\n      dup2\n      sload\n      dup2\n      0xffffffffffffffffffffffffffffffffffffffff\n      mul\n      not\n      and\n      swap1\n      dup4\n      0xffffffffffffffffffffffffffffffffffffffff\n      and\n      mul\n      or\n      swap1\n      sstore\n      pop\n        /* \"MyHomeToken.sol\":3822:4055  function createBallot(string memory _ballotName, string memory _proposal) public {... */\n      pop\n      pop\n      jump\t// out\n        /* \"MyHomeToken.sol\":357:386  address[] public shareHolders */\n    tag_71:\n      0x0b\n      dup2\n      dup2\n      sload\n      dup2\n      lt\n      tag_171\n      jumpi\n      0x00\n      dup1\n      revert\n    tag_171:\n      swap1\n      0x00\n      mstore\n      keccak256(0x00, 0x20)\n      add\n      0x00\n      swap2\n      pop\n      sload\n      swap1\n      0x0100\n      exp\n      swap1\n      div\n      0xffffffffffffffffffffffffffffffffffffffff\n      and\n      dup2\n      jump\t// out\n        /* \"MyHomeToken.sol\":660:682  string public proposal */\n    tag_76:\n      0x11\n      dup1\n      sload\n      tag_173\n      swap1\n      tag_143\n      jump\t// in\n    tag_173:\n      dup1\n      0x1f\n      add\n      0x20\n      dup1\n      swap2\n      div\n      mul\n      0x20\n      add\n      mload(0x40)\n      swap1\n      dup2\n      add\n      0x40\n      mstore\n      dup1\n      swap3\n      swap2\n      swap1\n      dup2\n      dup2\n      mstore\n      0x20\n      add\n      dup3\n      dup1\n      sload\n      tag_174\n      swap1\n      tag_143\n      jump\t// in\n    tag_174:\n      dup1\n      iszero\n      tag_175\n      jumpi\n      dup1\n      0x1f\n      lt\n      tag_176\n      jumpi\n      0x0100\n      dup1\n      dup4\n      sload\n      div\n      mul\n      dup4\n      mstore\n      swap2\n      0x20\n      add\n      swap2\n      jump(tag_175)\n    tag_176:\n      dup3\n      add\n      swap2\n      swap1\n      0x00\n      mstore\n      keccak256(0x00, 0x20)\n      swap1\n    tag_177:\n      dup2\n      sload\n      dup2\n      mstore\n      swap1\n      0x01\n      add\n      swap1\n      0x20\n      add\n      dup1\n      dup4\n      gt\n      tag_177\n      jumpi\n      dup3\n      swap1\n      sub\n      0x1f\n      and\n      dup3\n      add\n      swap2\n    tag_175:\n      pop\n      pop\n      pop\n      pop\n      pop\n      dup2\n      jump\t// out\n        /* \"MyHomeToken.sol\":222:251  uint256 public tokenPrice = 1 */\n    tag_80:\n      sload(0x07)\n      dup2\n      jump\t// out\n        /* \"MyHomeToken.sol\":4317:4932  function doVote(bool _choice)... */\n    tag_86:\n        /* \"MyHomeToken.sol\":4421:4431  bool voted */\n      0x00\n        /* \"MyHomeToken.sol\":4384:4402  BallotState.Voting */\n      0x01\n        /* \"MyHomeToken.sol\":1733:1739  _state */\n      dup1\n        /* \"MyHomeToken.sol\":1718:1739  ballotState == _state */\n      0x02\n      dup2\n      gt\n      iszero\n      tag_179\n      jumpi\n      tag_180\n      tag_153\n      jump\t// in\n    tag_180:\n    tag_179:\n        /* \"MyHomeToken.sol\":1718:1729  ballotState */\n      0x0e\n      0x00\n      swap1\n      sload\n      swap1\n      0x0100\n      exp\n      swap1\n      div\n      0xff\n      and\n        /* \"MyHomeToken.sol\":1718:1739  ballotState == _state */\n      0x02\n      dup2\n      gt\n      iszero\n      tag_181\n      jumpi\n      tag_182\n      tag_153\n      jump\t// in\n    tag_182:\n    tag_181:\n      eq\n        /* \"MyHomeToken.sol\":1710:1740  require(ballotState == _state) */\n      tag_183\n      jumpi\n      0x00\n      dup1\n      revert\n    tag_183:\n        /* \"MyHomeToken.sol\":4447:4457  bool found */\n      0x00\n        /* \"MyHomeToken.sol\":4489:4508  shareHolderRegistry */\n      0x0c\n        /* \"MyHomeToken.sol\":4489:4520  shareHolderRegistry[msg.sender] */\n      0x00\n        /* \"MyHomeToken.sol\":4509:4519  msg.sender */\n      caller\n        /* \"MyHomeToken.sol\":4489:4520  shareHolderRegistry[msg.sender] */\n      0xffffffffffffffffffffffffffffffffffffffff\n      and\n      0xffffffffffffffffffffffffffffffffffffffff\n      and\n      dup2\n      mstore\n      0x20\n      add\n      swap1\n      dup2\n      mstore\n      0x20\n      add\n      0x00\n      keccak256\n      0x00\n      swap1\n      sload\n      swap1\n      0x0100\n      exp\n      swap1\n      div\n      0xff\n      and\n        /* \"MyHomeToken.sol\":4484:4869  if (!shareHolderRegistry[msg.sender]){... */\n      tag_185\n      jumpi\n        /* \"MyHomeToken.sol\":4569:4573  true */\n      0x01\n        /* \"MyHomeToken.sol\":4535:4554  shareHolderRegistry */\n      0x0c\n        /* \"MyHomeToken.sol\":4535:4566  shareHolderRegistry[msg.sender] */\n      0x00\n        /* \"MyHomeToken.sol\":4555:4565  msg.sender */\n      caller\n        /* \"MyHomeToken.sol\":4535:4566  shareHolderRegistry[msg.sender] */\n      0xffffffffffffffffffffffffffffffffffffffff\n      and\n      0xffffffffffffffffffffffffffffffffffffffff\n      and\n      dup2\n      mstore\n      0x20\n      add\n      swap1\n      dup2\n      mstore\n      0x20\n      add\n      0x00\n      keccak256\n      0x00\n        /* \"MyHomeToken.sol\":4535:4573  shareHolderRegistry[msg.sender] = true */\n      0x0100\n      exp\n      dup2\n      sload\n      dup2\n      0xff\n      mul\n      not\n      and\n      swap1\n      dup4\n      iszero\n      iszero\n      mul\n      or\n      swap1\n      sstore\n      pop\n        /* \"MyHomeToken.sol\":4587:4600  Vote memory v */\n      tag_186\n      tag_187\n      jump\t// in\n    tag_186:\n        /* \"MyHomeToken.sol\":4637:4647  msg.sender */\n      caller\n        /* \"MyHomeToken.sol\":4614:4615  v */\n      dup2\n        /* \"MyHomeToken.sol\":4614:4634  v.shareHolderAddress */\n      0x00\n      add\n        /* \"MyHomeToken.sol\":4614:4647  v.shareHolderAddress = msg.sender */\n      swap1\n      0xffffffffffffffffffffffffffffffffffffffff\n      and\n      swap1\n      dup2\n      0xffffffffffffffffffffffffffffffffffffffff\n      and\n      dup2\n      mstore\n      pop\n      pop\n        /* \"MyHomeToken.sol\":4672:4679  _choice */\n      dup5\n        /* \"MyHomeToken.sol\":4661:4662  v */\n      dup2\n        /* \"MyHomeToken.sol\":4661:4669  v.choice */\n      0x20\n      add\n        /* \"MyHomeToken.sol\":4661:4679  v.choice = _choice */\n      swap1\n      iszero\n      iszero\n      swap1\n      dup2\n      iszero\n      iszero\n      dup2\n      mstore\n      pop\n      pop\n        /* \"MyHomeToken.sol\":4697:4704  _choice */\n      dup5\n        /* \"MyHomeToken.sol\":4693:4772  if (_choice){... */\n      iszero\n      tag_188\n      jumpi\n        /* \"MyHomeToken.sol\":4723:4734  resultCount */\n      0x12\n      0x00\n        /* \"MyHomeToken.sol\":4723:4736  resultCount++ */\n      dup2\n      sload\n      dup1\n      swap3\n      swap2\n      swap1\n      tag_189\n      swap1\n      tag_190\n      jump\t// in\n    tag_189:\n      swap2\n      swap1\n      pop\n      sstore\n      pop\n        /* \"MyHomeToken.sol\":4693:4772  if (_choice){... */\n    tag_188:\n        /* \"MyHomeToken.sol\":4805:4806  v */\n      dup1\n        /* \"MyHomeToken.sol\":4785:4790  votes */\n      0x15\n        /* \"MyHomeToken.sol\":4785:4802  votes[totalVotes] */\n      0x00\n        /* \"MyHomeToken.sol\":4791:4801  totalVotes */\n      sload(0x14)\n        /* \"MyHomeToken.sol\":4785:4802  votes[totalVotes] */\n      dup2\n      mstore\n      0x20\n      add\n      swap1\n      dup2\n      mstore\n      0x20\n      add\n      0x00\n      keccak256\n        /* \"MyHomeToken.sol\":4785:4806  votes[totalVotes] = v */\n      0x00\n      dup3\n      add\n      mload\n      dup2\n      0x00\n      add\n      exp(0x0100, 0x00)\n      dup2\n      sload\n      dup2\n      0xffffffffffffffffffffffffffffffffffffffff\n      mul\n      not\n      and\n      swap1\n      dup4\n      0xffffffffffffffffffffffffffffffffffffffff\n      and\n      mul\n      or\n      swap1\n      sstore\n      pop\n      0x20\n      dup3\n      add\n      mload\n      dup2\n      0x00\n      add\n      exp(0x0100, 0x14)\n      dup2\n      sload\n      dup2\n      0xff\n      mul\n      not\n      and\n      swap1\n      dup4\n      iszero\n      iszero\n      mul\n      or\n      swap1\n      sstore\n      pop\n      swap1\n      pop\n      pop\n        /* \"MyHomeToken.sol\":4820:4830  totalVotes */\n      0x14\n      0x00\n        /* \"MyHomeToken.sol\":4820:4832  totalVotes++ */\n      dup2\n      sload\n      dup1\n      swap3\n      swap2\n      swap1\n      tag_191\n      swap1\n      tag_190\n      jump\t// in\n    tag_191:\n      swap2\n      swap1\n      pop\n      sstore\n      pop\n        /* \"MyHomeToken.sol\":4854:4858  true */\n      0x01\n        /* \"MyHomeToken.sol\":4846:4858  found = true */\n      swap2\n      pop\n        /* \"MyHomeToken.sol\":4521:4869  {... */\n      pop\n        /* \"MyHomeToken.sol\":4484:4869  if (!shareHolderRegistry[msg.sender]){... */\n    tag_185:\n        /* \"MyHomeToken.sol\":4883:4903  voteDone(msg.sender) */\n      0x55c65cf9526efdf6c2252fe9757889dbd93e10172cad0f2edb1df619c88dbf7d\n        /* \"MyHomeToken.sol\":4892:4902  msg.sender */\n      caller\n        /* \"MyHomeToken.sol\":4883:4903  voteDone(msg.sender) */\n      mload(0x40)\n      tag_192\n      swap2\n      swap1\n      tag_73\n      jump\t// in\n    tag_192:\n      mload(0x40)\n      dup1\n      swap2\n      sub\n      swap1\n      log1\n        /* \"MyHomeToken.sol\":4920:4925  found */\n      dup1\n        /* \"MyHomeToken.sol\":4913:4925  return found */\n      swap3\n      pop\n      pop\n        /* \"MyHomeToken.sol\":4317:4932  function doVote(bool _choice)... */\n      pop\n      swap2\n      swap1\n      pop\n      jump\t// out\n        /* \"MyHomeToken.sol\":94:114  address public owner */\n    tag_90:\n      0x00\n      dup1\n      sload\n      swap1\n      0x0100\n      exp\n      swap1\n      div\n      0xffffffffffffffffffffffffffffffffffffffff\n      and\n      dup2\n      jump\t// out\n        /* \"MyHomeToken.sol\":293:326  uint public totalShareHolders = 0 */\n    tag_94:\n      sload(0x09)\n      dup2\n      jump\t// out\n        /* \"MyHomeToken.sol\":150:178  House[] public houseRegister */\n    tag_99:\n      0x05\n      dup2\n      dup2\n      sload\n      dup2\n      lt\n      tag_193\n      jumpi\n      0x00\n      dup1\n      revert\n    tag_193:\n      swap1\n      0x00\n      mstore\n      keccak256(0x00, 0x20)\n      swap1\n      0x03\n      mul\n      add\n      0x00\n      swap2\n      pop\n      swap1\n      pop\n      dup1\n      0x00\n      add\n      dup1\n      sload\n      tag_195\n      swap1\n      tag_143\n      jump\t// in\n    tag_195:\n      dup1\n      0x1f\n      add\n      0x20\n      dup1\n      swap2\n      div\n      mul\n      0x20\n      add\n      mload(0x40)\n      swap1\n      dup2\n      add\n      0x40\n      mstore\n      dup1\n      swap3\n      swap2\n      swap1\n      dup2\n      dup2\n      mstore\n      0x20\n      add\n      dup3\n      dup1\n      sload\n      tag_196\n      swap1\n      tag_143\n      jump\t// in\n    tag_196:\n      dup1\n      iszero\n      tag_197\n      jumpi\n      dup1\n      0x1f\n      lt\n      tag_198\n      jumpi\n      0x0100\n      dup1\n      dup4\n      sload\n      div\n      mul\n      dup4\n      mstore\n      swap2\n      0x20\n      add\n      swap2\n      jump(tag_197)\n    tag_198:\n      dup3\n      add\n      swap2\n      swap1\n      0x00\n      mstore\n      keccak256(0x00, 0x20)\n      swap1\n    tag_199:\n      dup2\n      sload\n      dup2\n      mstore\n      swap1\n      0x01\n      add\n      swap1\n      0x20\n      add\n      dup1\n      dup4\n      gt\n      tag_199\n      jumpi\n      dup3\n      swap1\n      sub\n      0x1f\n      and\n      dup3\n      add\n      swap2\n    tag_197:\n      pop\n      pop\n      pop\n      pop\n      pop\n      swap1\n      dup1\n      0x01\n      add\n      dup1\n      sload\n      tag_200\n      swap1\n      tag_143\n      jump\t// in\n    tag_200:\n      dup1\n      0x1f\n      add\n      0x20\n      dup1\n      swap2\n      div\n      mul\n      0x20\n      add\n      mload(0x40)\n      swap1\n      dup2\n      add\n      0x40\n      mstore\n      dup1\n      swap3\n      swap2\n      swap1\n      dup2\n      dup2\n      mstore\n      0x20\n      add\n      dup3\n      dup1\n      sload\n      tag_201\n      swap1\n      tag_143\n      jump\t// in\n    tag_201:\n      dup1\n      iszero\n      tag_202\n      jumpi\n      dup1\n      0x1f\n      lt\n      tag_203\n      jumpi\n      0x0100\n      dup1\n      dup4\n      sload\n      div\n      mul\n      dup4\n      mstore\n      swap2\n      0x20\n      add\n      swap2\n      jump(tag_202)\n    tag_203:\n      dup3\n      add\n      swap2\n      swap1\n      0x00\n      mstore\n      keccak256(0x00, 0x20)\n      swap1\n    tag_204:\n      dup2\n      sload\n      dup2\n      mstore\n      swap1\n      0x01\n      add\n      swap1\n      0x20\n      add\n      dup1\n      dup4\n      gt\n      tag_204\n      jumpi\n      dup3\n      swap1\n      sub\n      0x1f\n      and\n      dup3\n      add\n      swap2\n    tag_202:\n      pop\n      pop\n      pop\n      pop\n      pop\n      swap1\n      dup1\n      0x02\n      add\n      sload\n      swap1\n      pop\n      dup4\n      jump\t// out\n        /* \"MyHomeToken.sol\":3149:3386  function transfer(address _to, uint256 _value) public {... */\n    tag_106:\n        /* \"MyHomeToken.sol\":3250:3256  _value */\n      dup1\n        /* \"MyHomeToken.sol\":3225:3235  _balanceOf */\n      0x0d\n        /* \"MyHomeToken.sol\":3225:3247  _balanceOf[msg.sender] */\n      0x00\n        /* \"MyHomeToken.sol\":3236:3246  msg.sender */\n      caller\n        /* \"MyHomeToken.sol\":3225:3247  _balanceOf[msg.sender] */\n      0xffffffffffffffffffffffffffffffffffffffff\n      and\n      0xffffffffffffffffffffffffffffffffffffffff\n      and\n      dup2\n      mstore\n      0x20\n      add\n      swap1\n      dup2\n      mstore\n      0x20\n      add\n      0x00\n      keccak256\n      sload\n        /* \"MyHomeToken.sol\":3225:3256  _balanceOf[msg.sender]>= _value */\n      lt\n      iszero\n        /* \"MyHomeToken.sol\":3216:3257  require (_balanceOf[msg.sender]>= _value) */\n      tag_206\n      jumpi\n      0x00\n      dup1\n      revert\n    tag_206:\n        /* \"MyHomeToken.sol\":3292:3297  owner */\n      0x00\n      dup1\n      sload\n      swap1\n      0x0100\n      exp\n      swap1\n      div\n      0xffffffffffffffffffffffffffffffffffffffff\n      and\n        /* \"MyHomeToken.sol\":3278:3297  msg.sender == owner */\n      0xffffffffffffffffffffffffffffffffffffffff\n      and\n        /* \"MyHomeToken.sol\":3278:3288  msg.sender */\n      caller\n        /* \"MyHomeToken.sol\":3278:3297  msg.sender == owner */\n      0xffffffffffffffffffffffffffffffffffffffff\n      and\n      eq\n        /* \"MyHomeToken.sol\":3270:3298  require(msg.sender == owner) */\n      tag_207\n      jumpi\n      0x00\n      dup1\n      revert\n    tag_207:\n        /* \"MyHomeToken.sol\":3337:3343  _value */\n      dup1\n        /* \"MyHomeToken.sol\":3311:3321  _balanceOf */\n      0x0d\n        /* \"MyHomeToken.sol\":3311:3333  _balanceOf[msg.sender] */\n      0x00\n        /* \"MyHomeToken.sol\":3322:3332  msg.sender */\n      caller\n        /* \"MyHomeToken.sol\":3311:3333  _balanceOf[msg.sender] */\n      0xffffffffffffffffffffffffffffffffffffffff\n      and\n      0xffffffffffffffffffffffffffffffffffffffff\n      and\n      dup2\n      mstore\n      0x20\n      add\n      swap1\n      dup2\n      mstore\n      0x20\n      add\n      0x00\n      keccak256\n      0x00\n        /* \"MyHomeToken.sol\":3311:3343  _balanceOf[msg.sender] -= _value */\n      dup3\n      dup3\n      sload\n      tag_208\n      swap2\n      swap1\n      tag_209\n      jump\t// in\n    tag_208:\n      swap3\n      pop\n      pop\n      dup2\n      swap1\n      sstore\n      pop\n        /* \"MyHomeToken.sol\":3373:3379  _value */\n      dup1\n        /* \"MyHomeToken.sol\":3356:3366  _balanceOf */\n      0x0d\n        /* \"MyHomeToken.sol\":3356:3371  _balanceOf[_to] */\n      0x00\n        /* \"MyHomeToken.sol\":3367:3370  _to */\n      dup5\n        /* \"MyHomeToken.sol\":3356:3371  _balanceOf[_to] */\n      0xffffffffffffffffffffffffffffffffffffffff\n      and\n      0xffffffffffffffffffffffffffffffffffffffff\n      and\n      dup2\n      mstore\n      0x20\n      add\n      swap1\n      dup2\n      mstore\n      0x20\n      add\n      0x00\n      keccak256\n      0x00\n        /* \"MyHomeToken.sol\":3356:3379  _balanceOf[_to]+=_value */\n      dup3\n      dup3\n      sload\n      tag_210\n      swap2\n      swap1\n      tag_211\n      jump\t// in\n    tag_210:\n      swap3\n      pop\n      pop\n      dup2\n      swap1\n      sstore\n      pop\n        /* \"MyHomeToken.sol\":3149:3386  function transfer(address _to, uint256 _value) public {... */\n      pop\n      pop\n      jump\t// out\n        /* \"MyHomeToken.sol\":554:584  address public ballotInitiator */\n    tag_109:\n      0x0e\n      0x01\n      swap1\n      sload\n      swap1\n      0x0100\n      exp\n      swap1\n      div\n      0xffffffffffffffffffffffffffffffffffffffff\n      and\n      dup2\n      jump\t// out\n        /* \"MyHomeToken.sol\":2771:3143  function addShareHolder(address _shareHolderAddress)... */\n    tag_114:\n        /* \"MyHomeToken.sol\":1485:1490  owner */\n      0x00\n      dup1\n      sload\n      swap1\n      0x0100\n      exp\n      swap1\n      div\n      0xffffffffffffffffffffffffffffffffffffffff\n      and\n        /* \"MyHomeToken.sol\":1471:1490  msg.sender == owner */\n      0xffffffffffffffffffffffffffffffffffffffff\n      and\n        /* \"MyHomeToken.sol\":1471:1481  msg.sender */\n      caller\n        /* \"MyHomeToken.sol\":1471:1490  msg.sender == owner */\n      0xffffffffffffffffffffffffffffffffffffffff\n      and\n      eq\n        /* \"MyHomeToken.sol\":1463:1491  require(msg.sender == owner) */\n      tag_213\n      jumpi\n      0x00\n      dup1\n      revert\n    tag_213:\n        /* \"MyHomeToken.sol\":2883:2912  contains(_shareHolderAddress) */\n      tag_215\n        /* \"MyHomeToken.sol\":2892:2911  _shareHolderAddress */\n      dup2\n        /* \"MyHomeToken.sol\":2883:2891  contains */\n      tag_216\n        /* \"MyHomeToken.sol\":2883:2912  contains(_shareHolderAddress) */\n      jump\t// in\n    tag_215:\n        /* \"MyHomeToken.sol\":2879:3128  if(!contains(_shareHolderAddress)) {... */\n      tag_217\n      jumpi\n        /* \"MyHomeToken.sol\":2971:2976  false */\n      0x00\n        /* \"MyHomeToken.sol\":2928:2947  shareHolderRegistry */\n      0x0c\n        /* \"MyHomeToken.sol\":2928:2968  shareHolderRegistry[_shareHolderAddress] */\n      0x00\n        /* \"MyHomeToken.sol\":2948:2967  _shareHolderAddress */\n      dup4\n        /* \"MyHomeToken.sol\":2928:2968  shareHolderRegistry[_shareHolderAddress] */\n      0xffffffffffffffffffffffffffffffffffffffff\n      and\n      0xffffffffffffffffffffffffffffffffffffffff\n      and\n      dup2\n      mstore\n      0x20\n      add\n      swap1\n      dup2\n      mstore\n      0x20\n      add\n      0x00\n      keccak256\n      0x00\n        /* \"MyHomeToken.sol\":2928:2976  shareHolderRegistry[_shareHolderAddress] = false */\n      0x0100\n      exp\n      dup2\n      sload\n      dup2\n      0xff\n      mul\n      not\n      and\n      swap1\n      dup4\n      iszero\n      iszero\n      mul\n      or\n      swap1\n      sstore\n      pop\n        /* \"MyHomeToken.sol\":2990:3002  shareHolders */\n      0x0b\n        /* \"MyHomeToken.sol\":3008:3027  _shareHolderAddress */\n      dup2\n        /* \"MyHomeToken.sol\":2990:3028  shareHolders.push(_shareHolderAddress) */\n      swap1\n      dup1\n      0x01\n      dup2\n      sload\n      add\n      dup1\n      dup3\n      sstore\n      dup1\n      swap2\n      pop\n      pop\n      0x01\n      swap1\n      sub\n      swap1\n      0x00\n      mstore\n      keccak256(0x00, 0x20)\n      add\n      0x00\n      swap1\n      swap2\n      swap1\n      swap2\n      swap1\n      swap2\n      0x0100\n      exp\n      dup2\n      sload\n      dup2\n      0xffffffffffffffffffffffffffffffffffffffff\n      mul\n      not\n      and\n      swap1\n      dup4\n      0xffffffffffffffffffffffffffffffffffffffff\n      and\n      mul\n      or\n      swap1\n      sstore\n      pop\n        /* \"MyHomeToken.sol\":3042:3059  totalShareHolders */\n      0x09\n      0x00\n        /* \"MyHomeToken.sol\":3042:3061  totalShareHolders++ */\n      dup2\n      sload\n      dup1\n      swap3\n      swap2\n      swap1\n      tag_219\n      swap1\n      tag_190\n      jump\t// in\n    tag_219:\n      swap2\n      swap1\n      pop\n      sstore\n      pop\n        /* \"MyHomeToken.sol\":3080:3117  ShareHolderAdded(_shareHolderAddress) */\n      0x30040c92e8da146ac410fb6841ea0f60af3b8f3788e5e7354e48d97d018f39dd\n        /* \"MyHomeToken.sol\":3097:3116  _shareHolderAddress */\n      dup2\n        /* \"MyHomeToken.sol\":3080:3117  ShareHolderAdded(_shareHolderAddress) */\n      mload(0x40)\n      tag_220\n      swap2\n      swap1\n      tag_73\n      jump\t// in\n    tag_220:\n      mload(0x40)\n      dup1\n      swap2\n      sub\n      swap1\n      log1\n        /* \"MyHomeToken.sol\":2879:3128  if(!contains(_shareHolderAddress)) {... */\n    tag_217:\n        /* \"MyHomeToken.sol\":2771:3143  function addShareHolder(address _shareHolderAddress)... */\n      pop\n      jump\t// out\n        /* \"MyHomeToken.sol\":4958:5186  function endVote()... */\n    tag_117:\n        /* \"MyHomeToken.sol\":5014:5032  BallotState.Voting */\n      0x01\n        /* \"MyHomeToken.sol\":1733:1739  _state */\n      dup1\n        /* \"MyHomeToken.sol\":1718:1739  ballotState == _state */\n      0x02\n      dup2\n      gt\n      iszero\n      tag_222\n      jumpi\n      tag_223\n      tag_153\n      jump\t// in\n    tag_223:\n    tag_222:\n        /* \"MyHomeToken.sol\":1718:1729  ballotState */\n      0x0e\n      0x00\n      swap1\n      sload\n      swap1\n      0x0100\n      exp\n      swap1\n      div\n      0xff\n      and\n        /* \"MyHomeToken.sol\":1718:1739  ballotState == _state */\n      0x02\n      dup2\n      gt\n      iszero\n      tag_224\n      jumpi\n      tag_225\n      tag_153\n      jump\t// in\n    tag_225:\n    tag_224:\n      eq\n        /* \"MyHomeToken.sol\":1710:1740  require(ballotState == _state) */\n      tag_226\n      jumpi\n      0x00\n      dup1\n      revert\n    tag_226:\n        /* \"MyHomeToken.sol\":1637:1650  ballotAddress */\n      0x0f\n      0x00\n      swap1\n      sload\n      swap1\n      0x0100\n      exp\n      swap1\n      div\n      0xffffffffffffffffffffffffffffffffffffffff\n      and\n        /* \"MyHomeToken.sol\":1623:1650  msg.sender == ballotAddress */\n      0xffffffffffffffffffffffffffffffffffffffff\n      and\n        /* \"MyHomeToken.sol\":1623:1633  msg.sender */\n      caller\n        /* \"MyHomeToken.sol\":1623:1650  msg.sender == ballotAddress */\n      0xffffffffffffffffffffffffffffffffffffffff\n      and\n      eq\n        /* \"MyHomeToken.sol\":1615:1651  require(msg.sender == ballotAddress) */\n      tag_228\n      jumpi\n      0x00\n      dup1\n      revert\n    tag_228:\n        /* \"MyHomeToken.sol\":5090:5107  BallotState.Ended */\n      0x02\n        /* \"MyHomeToken.sol\":5076:5087  ballotState */\n      0x0e\n      0x00\n        /* \"MyHomeToken.sol\":5076:5107  ballotState = BallotState.Ended */\n      0x0100\n      exp\n      dup2\n      sload\n      dup2\n      0xff\n      mul\n      not\n      and\n      swap1\n      dup4\n      0x02\n      dup2\n      gt\n      iszero\n      tag_230\n      jumpi\n      tag_231\n      tag_153\n      jump\t// in\n    tag_231:\n    tag_230:\n      mul\n      or\n      swap1\n      sstore\n      pop\n        /* \"MyHomeToken.sol\":5131:5142  resultCount */\n      sload(0x12)\n        /* \"MyHomeToken.sol\":5117:5128  finalResult */\n      0x13\n        /* \"MyHomeToken.sol\":5117:5142  finalResult = resultCount */\n      dup2\n      swap1\n      sstore\n      pop\n        /* \"MyHomeToken.sol\":5157:5179  voteEnded(finalResult) */\n      0xb43a401dcdbe02a8afa41feb6c651425997908d1a4b79cf505188ba1dd3fd872\n        /* \"MyHomeToken.sol\":5167:5178  finalResult */\n      sload(0x13)\n        /* \"MyHomeToken.sol\":5157:5179  voteEnded(finalResult) */\n      mload(0x40)\n      tag_232\n      swap2\n      swap1\n      tag_35\n      jump\t// in\n    tag_232:\n      mload(0x40)\n      dup1\n      swap2\n      sub\n      swap1\n      log1\n        /* \"MyHomeToken.sol\":4958:5186  function endVote()... */\n      pop\n      jump\t// out\n        /* \"MyHomeToken.sol\":120:144  HousingPackage public hp */\n    tag_120:\n      0x01\n      dup1\n      0x00\n      add\n      dup1\n      sload\n      tag_233\n      swap1\n      tag_143\n      jump\t// in\n    tag_233:\n      dup1\n      0x1f\n      add\n      0x20\n      dup1\n      swap2\n      div\n      mul\n      0x20\n      add\n      mload(0x40)\n      swap1\n      dup2\n      add\n      0x40\n      mstore\n      dup1\n      swap3\n      swap2\n      swap1\n      dup2\n      dup2\n      mstore\n      0x20\n      add\n      dup3\n      dup1\n      sload\n      tag_234\n      swap1\n      tag_143\n      jump\t// in\n    tag_234:\n      dup1\n      iszero\n      tag_235\n      jumpi\n      dup1\n      0x1f\n      lt\n      tag_236\n      jumpi\n      0x0100\n      dup1\n      dup4\n      sload\n      div\n      mul\n      dup4\n      mstore\n      swap2\n      0x20\n      add\n      swap2\n      jump(tag_235)\n    tag_236:\n      dup3\n      add\n      swap2\n      swap1\n      0x00\n      mstore\n      keccak256(0x00, 0x20)\n      swap1\n    tag_237:\n      dup2\n      sload\n      dup2\n      mstore\n      swap1\n      0x01\n      add\n      swap1\n      0x20\n      add\n      dup1\n      dup4\n      gt\n      tag_237\n      jumpi\n      dup3\n      swap1\n      sub\n      0x1f\n      and\n      dup3\n      add\n      swap2\n    tag_235:\n      pop\n      pop\n      pop\n      pop\n      pop\n      swap1\n      dup1\n      0x01\n      add\n      dup1\n      sload\n      tag_238\n      swap1\n      tag_143\n      jump\t// in\n    tag_238:\n      dup1\n      0x1f\n      add\n      0x20\n      dup1\n      swap2\n      div\n      mul\n      0x20\n      add\n      mload(0x40)\n      swap1\n      dup2\n      add\n      0x40\n      mstore\n      dup1\n      swap3\n      swap2\n      swap1\n      dup2\n      dup2\n      mstore\n      0x20\n      add\n      dup3\n      dup1\n      sload\n      tag_239\n      swap1\n      tag_143\n      jump\t// in\n    tag_239:\n      dup1\n      iszero\n      tag_240\n      jumpi\n      dup1\n      0x1f\n      lt\n      tag_241\n      jumpi\n      0x0100\n      dup1\n      dup4\n      sload\n      div\n      mul\n      dup4\n      mstore\n      swap2\n      0x20\n      add\n      swap2\n      jump(tag_240)\n    tag_241:\n      dup3\n      add\n      swap2\n      swap1\n      0x00\n      mstore\n      keccak256(0x00, 0x20)\n      swap1\n    tag_242:\n      dup2\n      sload\n      dup2\n      mstore\n      swap1\n      0x01\n      add\n      swap1\n      0x20\n      add\n      dup1\n      dup4\n      gt\n      tag_242\n      jumpi\n      dup3\n      swap1\n      sub\n      0x1f\n      and\n      dup3\n      add\n      swap2\n    tag_240:\n      pop\n      pop\n      pop\n      pop\n      pop\n      swap1\n      dup1\n      0x03\n      add\n      sload\n      swap1\n      pop\n      dup4\n      jump\t// out\n        /* \"MyHomeToken.sol\":590:618  address public ballotAddress */\n    tag_124:\n      0x0f\n      0x00\n      swap1\n      sload\n      swap1\n      0x0100\n      exp\n      swap1\n      div\n      0xffffffffffffffffffffffffffffffffffffffff\n      and\n      dup2\n      jump\t// out\n        /* \"MyHomeToken.sol\":3392:3670  function buy(uint256 _amount) external payable {... */\n    tag_128:\n        /* \"MyHomeToken.sol\":3468:3478  shareLimit */\n      sload(0x08)\n        /* \"MyHomeToken.sol\":3457:3464  _amount */\n      dup2\n        /* \"MyHomeToken.sol\":3457:3478  _amount <= shareLimit */\n      gt\n      iszero\n        /* \"MyHomeToken.sol\":3449:3518  require(_amount <= shareLimit, \"Number of shares exceeded the limit\") */\n      tag_244\n      jumpi\n      mload(0x40)\n      0x08c379a000000000000000000000000000000000000000000000000000000000\n      dup2\n      mstore\n      0x04\n      add\n      tag_245\n      swap1\n      tag_246\n      jump\t// in\n    tag_245:\n      mload(0x40)\n      dup1\n      swap2\n      sub\n      swap1\n      revert\n    tag_244:\n        /* \"MyHomeToken.sol\":3559:3569  tokenPrice */\n      sload(0x07)\n        /* \"MyHomeToken.sol\":3549:3556  _amount */\n      dup2\n        /* \"MyHomeToken.sol\":3549:3569  _amount * tokenPrice */\n      tag_247\n      swap2\n      swap1\n      tag_248\n      jump\t// in\n    tag_247:\n        /* \"MyHomeToken.sol\":3536:3545  msg.value */\n      callvalue\n        /* \"MyHomeToken.sol\":3536:3569  msg.value >= _amount * tokenPrice */\n      lt\n      iszero\n        /* \"MyHomeToken.sol\":3528:3588  require(msg.value >= _amount * tokenPrice, \"Not enough wei\") */\n      tag_249\n      jumpi\n      mload(0x40)\n      0x08c379a000000000000000000000000000000000000000000000000000000000\n      dup2\n      mstore\n      0x04\n      add\n      tag_250\n      swap1\n      tag_251\n      jump\t// in\n    tag_250:\n      mload(0x40)\n      dup1\n      swap2\n      sub\n      swap1\n      revert\n    tag_249:\n        /* \"MyHomeToken.sol\":3598:3627  transfer(msg.sender, _amount) */\n      tag_252\n        /* \"MyHomeToken.sol\":3607:3617  msg.sender */\n      caller\n        /* \"MyHomeToken.sol\":3619:3626  _amount */\n      dup3\n        /* \"MyHomeToken.sol\":3598:3606  transfer */\n      tag_106\n        /* \"MyHomeToken.sol\":3598:3627  transfer(msg.sender, _amount) */\n      jump\t// in\n    tag_252:\n        /* \"MyHomeToken.sol\":3637:3663  addShareHolder(msg.sender) */\n      tag_253\n        /* \"MyHomeToken.sol\":3652:3662  msg.sender */\n      caller\n        /* \"MyHomeToken.sol\":3637:3651  addShareHolder */\n      tag_114\n        /* \"MyHomeToken.sol\":3637:3663  addShareHolder(msg.sender) */\n      jump\t// in\n    tag_253:\n        /* \"MyHomeToken.sol\":3392:3670  function buy(uint256 _amount) external payable {... */\n      pop\n      jump\t// out\n        /* \"MyHomeToken.sol\":2111:2491  function addHouse(string memory _registrationId, string memory location, uint256 price) ... */\n    tag_133:\n        /* \"MyHomeToken.sol\":1485:1490  owner */\n      0x00\n      dup1\n      sload\n      swap1\n      0x0100\n      exp\n      swap1\n      div\n      0xffffffffffffffffffffffffffffffffffffffff\n      and\n        /* \"MyHomeToken.sol\":1471:1490  msg.sender == owner */\n      0xffffffffffffffffffffffffffffffffffffffff\n      and\n        /* \"MyHomeToken.sol\":1471:1481  msg.sender */\n      caller\n        /* \"MyHomeToken.sol\":1471:1490  msg.sender == owner */\n      0xffffffffffffffffffffffffffffffffffffffff\n      and\n      eq\n        /* \"MyHomeToken.sol\":1463:1491  require(msg.sender == owner) */\n      tag_255\n      jumpi\n      0x00\n      dup1\n      revert\n    tag_255:\n        /* \"MyHomeToken.sol\":2254:2267  State.Created */\n      0x00\n        /* \"MyHomeToken.sol\":1558:1564  _state */\n      dup1\n        /* \"MyHomeToken.sol\":1549:1564  state == _state */\n      0x01\n      dup2\n      gt\n      iszero\n      tag_257\n      jumpi\n      tag_258\n      tag_153\n      jump\t// in\n    tag_258:\n    tag_257:\n        /* \"MyHomeToken.sol\":1549:1554  state */\n      0x0a\n      0x00\n      swap1\n      sload\n      swap1\n      0x0100\n      exp\n      swap1\n      div\n      0xff\n      and\n        /* \"MyHomeToken.sol\":1549:1564  state == _state */\n      0x01\n      dup2\n      gt\n      iszero\n      tag_259\n      jumpi\n      tag_260\n      tag_153\n      jump\t// in\n    tag_260:\n    tag_259:\n      eq\n        /* \"MyHomeToken.sol\":1541:1565  require(state == _state) */\n      tag_261\n      jumpi\n      0x00\n      dup1\n      revert\n    tag_261:\n        /* \"MyHomeToken.sol\":2284:2298  House memory h */\n      0x00\n        /* \"MyHomeToken.sol\":2301:2340  House(_registrationId, location, price) */\n      mload(0x40)\n      dup1\n      0x60\n      add\n      0x40\n      mstore\n      dup1\n        /* \"MyHomeToken.sol\":2307:2322  _registrationId */\n      dup7\n        /* \"MyHomeToken.sol\":2301:2340  House(_registrationId, location, price) */\n      dup2\n      mstore\n      0x20\n      add\n        /* \"MyHomeToken.sol\":2324:2332  location */\n      dup6\n        /* \"MyHomeToken.sol\":2301:2340  House(_registrationId, location, price) */\n      dup2\n      mstore\n      0x20\n      add\n        /* \"MyHomeToken.sol\":2334:2339  price */\n      dup5\n        /* \"MyHomeToken.sol\":2301:2340  House(_registrationId, location, price) */\n      dup2\n      mstore\n      pop\n        /* \"MyHomeToken.sol\":2284:2340  House memory h = House(_registrationId, location, price) */\n      swap1\n      pop\n        /* \"MyHomeToken.sol\":2367:2372  price */\n      dup3\n        /* \"MyHomeToken.sol\":2350:2352  hp */\n      0x01\n        /* \"MyHomeToken.sol\":2350:2363  hp.totalValue */\n      0x03\n      add\n      0x00\n        /* \"MyHomeToken.sol\":2350:2372  hp.totalValue += price */\n      dup3\n      dup3\n      sload\n      tag_263\n      swap2\n      swap1\n      tag_211\n      jump\t// in\n    tag_263:\n      swap3\n      pop\n      pop\n      dup2\n      swap1\n      sstore\n      pop\n        /* \"MyHomeToken.sol\":2382:2384  hp */\n      0x01\n        /* \"MyHomeToken.sol\":2382:2395  hp.residences */\n      0x02\n      add\n        /* \"MyHomeToken.sol\":2401:2402  h */\n      dup2\n        /* \"MyHomeToken.sol\":2382:2403  hp.residences.push(h) */\n      swap1\n      dup1\n      0x01\n      dup2\n      sload\n      add\n      dup1\n      dup3\n      sstore\n      dup1\n      swap2\n      pop\n      pop\n      0x01\n      swap1\n      sub\n      swap1\n      0x00\n      mstore\n      keccak256(0x00, 0x20)\n      swap1\n      0x03\n      mul\n      add\n      0x00\n      swap1\n      swap2\n      swap1\n      swap2\n      swap1\n      swap2\n      pop\n      0x00\n      dup3\n      add\n      mload\n      dup2\n      0x00\n      add\n      swap1\n      dup1\n      mload\n      swap1\n      0x20\n      add\n      swap1\n      tag_265\n      swap3\n      swap2\n      swap1\n      tag_169\n      jump\t// in\n    tag_265:\n      pop\n      0x20\n      dup3\n      add\n      mload\n      dup2\n      0x01\n      add\n      swap1\n      dup1\n      mload\n      swap1\n      0x20\n      add\n      swap1\n      tag_266\n      swap3\n      swap2\n      swap1\n      tag_169\n      jump\t// in\n    tag_266:\n      pop\n      0x40\n      dup3\n      add\n      mload\n      dup2\n      0x02\n      add\n      sstore\n      pop\n      pop\n        /* \"MyHomeToken.sol\":2426:2428  hp */\n      0x01\n        /* \"MyHomeToken.sol\":2426:2439  hp.totalValue */\n      0x03\n      add\n      sload\n        /* \"MyHomeToken.sol\":2413:2423  tokenPrice */\n      0x07\n        /* \"MyHomeToken.sol\":2413:2439  tokenPrice = hp.totalValue */\n      dup2\n      swap1\n      sstore\n      pop\n        /* \"MyHomeToken.sol\":2454:2484  NewHouseAdded(_registrationId) */\n      0x4578fe17eaab41ae382abe3462bb0cf04bcfee4168d2aad3ce9d5d225d0e27f6\n        /* \"MyHomeToken.sol\":2468:2483  _registrationId */\n      dup6\n        /* \"MyHomeToken.sol\":2454:2484  NewHouseAdded(_registrationId) */\n      mload(0x40)\n      tag_267\n      swap2\n      swap1\n      tag_40\n      jump\t// in\n    tag_267:\n      mload(0x40)\n      dup1\n      swap2\n      sub\n      swap1\n      log1\n        /* \"MyHomeToken.sol\":2274:2491  {... */\n      pop\n        /* \"MyHomeToken.sol\":1495:1496  _ */\n      pop\n        /* \"MyHomeToken.sol\":2111:2491  function addHouse(string memory _registrationId, string memory location, uint256 price) ... */\n      pop\n      pop\n      pop\n      jump\t// out\n        /* \"MyHomeToken.sol\":3680:3816  function sell(uint256 _amount) external {... */\n    tag_137:\n        /* \"MyHomeToken.sol\":3756:3763  _amount */\n      dup1\n        /* \"MyHomeToken.sol\":3730:3740  _balanceOf */\n      0x0d\n        /* \"MyHomeToken.sol\":3730:3752  _balanceOf[msg.sender] */\n      0x00\n        /* \"MyHomeToken.sol\":3741:3751  msg.sender */\n      caller\n        /* \"MyHomeToken.sol\":3730:3752  _balanceOf[msg.sender] */\n      0xffffffffffffffffffffffffffffffffffffffff\n      and\n      0xffffffffffffffffffffffffffffffffffffffff\n      and\n      dup2\n      mstore\n      0x20\n      add\n      swap1\n      dup2\n      mstore\n      0x20\n      add\n      0x00\n      keccak256\n      0x00\n        /* \"MyHomeToken.sol\":3730:3763  _balanceOf[msg.sender] -= _amount */\n      dup3\n      dup3\n      sload\n      tag_269\n      swap2\n      swap1\n      tag_209\n      jump\t// in\n    tag_269:\n      swap3\n      pop\n      pop\n      dup2\n      swap1\n      sstore\n      pop\n        /* \"MyHomeToken.sol\":3802:3809  _amount */\n      dup1\n        /* \"MyHomeToken.sol\":3773:3783  _balanceOf */\n      0x0d\n        /* \"MyHomeToken.sol\":3773:3798  _balanceOf[address(this)] */\n      0x00\n        /* \"MyHomeToken.sol\":3792:3796  this */\n      address\n        /* \"MyHomeToken.sol\":3773:3798  _balanceOf[address(this)] */\n      0xffffffffffffffffffffffffffffffffffffffff\n      and\n      0xffffffffffffffffffffffffffffffffffffffff\n      and\n      dup2\n      mstore\n      0x20\n      add\n      swap1\n      dup2\n      mstore\n      0x20\n      add\n      0x00\n      keccak256\n      0x00\n        /* \"MyHomeToken.sol\":3773:3809  _balanceOf[address(this)] += _amount */\n      dup3\n      dup3\n      sload\n      tag_270\n      swap2\n      swap1\n      tag_211\n      jump\t// in\n    tag_270:\n      swap3\n      pop\n      pop\n      dup2\n      swap1\n      sstore\n      pop\n        /* \"MyHomeToken.sol\":3680:3816  function sell(uint256 _amount) external {... */\n      pop\n      jump\t// out\n        /* \"MyHomeToken.sol\":722:749  uint public finalResult = 0 */\n    tag_140:\n      sload(0x13)\n      dup2\n      jump\t// out\n        /* \"MyHomeToken.sol\":2497:2765  function contains(address _shareHolderAddress) private returns(bool) {... */\n    tag_216:\n        /* \"MyHomeToken.sol\":2560:2564  bool */\n      0x00\n        /* \"MyHomeToken.sol\":2581:2587  uint i */\n      dup1\n        /* \"MyHomeToken.sol\":2590:2591  0 */\n      0x00\n        /* \"MyHomeToken.sol\":2581:2591  uint i = 0 */\n      swap1\n      pop\n        /* \"MyHomeToken.sol\":2576:2736  for (uint i = 0; i <= shareHolders.length; i++) {... */\n    tag_272:\n        /* \"MyHomeToken.sol\":2598:2610  shareHolders */\n      0x0b\n        /* \"MyHomeToken.sol\":2598:2617  shareHolders.length */\n      dup1\n      sload\n      swap1\n      pop\n        /* \"MyHomeToken.sol\":2593:2594  i */\n      dup2\n        /* \"MyHomeToken.sol\":2593:2617  i <= shareHolders.length */\n      gt\n        /* \"MyHomeToken.sol\":2576:2736  for (uint i = 0; i <= shareHolders.length; i++) {... */\n      tag_273\n      jumpi\n        /* \"MyHomeToken.sol\":2661:2680  _shareHolderAddress */\n      dup3\n        /* \"MyHomeToken.sol\":2642:2680  shareHolders[i] == _shareHolderAddress */\n      0xffffffffffffffffffffffffffffffffffffffff\n      and\n        /* \"MyHomeToken.sol\":2642:2654  shareHolders */\n      0x0b\n        /* \"MyHomeToken.sol\":2655:2656  i */\n      dup3\n        /* \"MyHomeToken.sol\":2642:2657  shareHolders[i] */\n      dup2\n      sload\n      dup2\n      lt\n      tag_275\n      jumpi\n      tag_276\n      tag_277\n      jump\t// in\n    tag_276:\n    tag_275:\n      swap1\n      0x00\n      mstore\n      keccak256(0x00, 0x20)\n      add\n      0x00\n      swap1\n      sload\n      swap1\n      0x0100\n      exp\n      swap1\n      div\n      0xffffffffffffffffffffffffffffffffffffffff\n      and\n        /* \"MyHomeToken.sol\":2642:2680  shareHolders[i] == _shareHolderAddress */\n      0xffffffffffffffffffffffffffffffffffffffff\n      and\n      eq\n        /* \"MyHomeToken.sol\":2638:2726  if (shareHolders[i] == _shareHolderAddress) {... */\n      iszero\n      tag_279\n      jumpi\n        /* \"MyHomeToken.sol\":2707:2711  true */\n      0x01\n        /* \"MyHomeToken.sol\":2700:2711  return true */\n      swap2\n      pop\n      pop\n      jump(tag_271)\n        /* \"MyHomeToken.sol\":2638:2726  if (shareHolders[i] == _shareHolderAddress) {... */\n    tag_279:\n        /* \"MyHomeToken.sol\":2619:2622  i++ */\n      dup1\n      dup1\n      tag_280\n      swap1\n      tag_190\n      jump\t// in\n    tag_280:\n      swap2\n      pop\n      pop\n        /* \"MyHomeToken.sol\":2576:2736  for (uint i = 0; i <= shareHolders.length; i++) {... */\n      jump(tag_272)\n    tag_273:\n      pop\n        /* \"MyHomeToken.sol\":2753:2758  false */\n      0x00\n        /* \"MyHomeToken.sol\":2746:2758  return false */\n      swap1\n      pop\n        /* \"MyHomeToken.sol\":2497:2765  function contains(address _shareHolderAddress) private returns(bool) {... */\n    tag_271:\n      swap2\n      swap1\n      pop\n      jump\t// out\n    tag_169:\n      dup3\n      dup1\n      sload\n      tag_281\n      swap1\n      tag_143\n      jump\t// in\n    tag_281:\n      swap1\n      0x00\n      mstore\n      keccak256(0x00, 0x20)\n      swap1\n      0x1f\n      add\n      0x20\n      swap1\n      div\n      dup2\n      add\n      swap3\n      dup3\n      tag_283\n      jumpi\n      0x00\n      dup6\n      sstore\n      jump(tag_282)\n    tag_283:\n      dup3\n      0x1f\n      lt\n      tag_284\n      jumpi\n      dup1\n      mload\n      not(0xff)\n      and\n      dup4\n      dup1\n      add\n      or\n      dup6\n      sstore\n      jump(tag_282)\n    tag_284:\n      dup3\n      dup1\n      add\n      0x01\n      add\n      dup6\n      sstore\n      dup3\n      iszero\n      tag_282\n      jumpi\n      swap2\n      dup3\n      add\n    tag_285:\n      dup3\n      dup2\n      gt\n      iszero\n      tag_286\n      jumpi\n      dup3\n      mload\n      dup3\n      sstore\n      swap2\n      0x20\n      add\n      swap2\n      swap1\n      0x01\n      add\n      swap1\n      jump(tag_285)\n    tag_286:\n    tag_282:\n      pop\n      swap1\n      pop\n      tag_287\n      swap2\n      swap1\n      tag_288\n      jump\t// in\n    tag_287:\n      pop\n      swap1\n      jump\t// out\n    tag_187:\n      mload(0x40)\n      dup1\n      0x40\n      add\n      0x40\n      mstore\n      dup1\n      and(0xffffffffffffffffffffffffffffffffffffffff, 0x00)\n      dup2\n      mstore\n      0x20\n      add\n      iszero(iszero(0x00))\n      dup2\n      mstore\n      pop\n      swap1\n      jump\t// out\n    tag_288:\n    tag_289:\n      dup1\n      dup3\n      gt\n      iszero\n      tag_290\n      jumpi\n      0x00\n      dup2\n      0x00\n      swap1\n      sstore\n      pop\n      0x01\n      add\n      jump(tag_289)\n    tag_290:\n      pop\n      swap1\n      jump\t// out\n        /* \"#utility.yul\":7:419   */\n    tag_292:\n        /* \"#utility.yul\":85:90   */\n      0x00\n        /* \"#utility.yul\":110:176   */\n      tag_294\n        /* \"#utility.yul\":126:175   */\n      tag_295\n        /* \"#utility.yul\":168:174   */\n      dup5\n        /* \"#utility.yul\":126:175   */\n      tag_296\n      jump\t// in\n    tag_295:\n        /* \"#utility.yul\":110:176   */\n      tag_297\n      jump\t// in\n    tag_294:\n        /* \"#utility.yul\":101:176   */\n      swap1\n      pop\n        /* \"#utility.yul\":199:205   */\n      dup3\n        /* \"#utility.yul\":192:197   */\n      dup2\n        /* \"#utility.yul\":185:206   */\n      mstore\n        /* \"#utility.yul\":237:241   */\n      0x20\n        /* \"#utility.yul\":230:235   */\n      dup2\n        /* \"#utility.yul\":226:242   */\n      add\n        /* \"#utility.yul\":275:278   */\n      dup5\n        /* \"#utility.yul\":266:272   */\n      dup5\n        /* \"#utility.yul\":261:264   */\n      dup5\n        /* \"#utility.yul\":257:273   */\n      add\n        /* \"#utility.yul\":254:279   */\n      gt\n        /* \"#utility.yul\":251:363   */\n      iszero\n      tag_298\n      jumpi\n        /* \"#utility.yul\":282:361   */\n      tag_299\n      tag_300\n      jump\t// in\n    tag_299:\n        /* \"#utility.yul\":251:363   */\n    tag_298:\n        /* \"#utility.yul\":372:413   */\n      tag_301\n        /* \"#utility.yul\":406:412   */\n      dup5\n        /* \"#utility.yul\":401:404   */\n      dup3\n        /* \"#utility.yul\":396:399   */\n      dup6\n        /* \"#utility.yul\":372:413   */\n      tag_302\n      jump\t// in\n    tag_301:\n        /* \"#utility.yul\":91:419   */\n      pop\n        /* \"#utility.yul\":7:419   */\n      swap4\n      swap3\n      pop\n      pop\n      pop\n      jump\t// out\n        /* \"#utility.yul\":425:564   */\n    tag_303:\n        /* \"#utility.yul\":471:476   */\n      0x00\n        /* \"#utility.yul\":509:515   */\n      dup2\n        /* \"#utility.yul\":496:516   */\n      calldataload\n        /* \"#utility.yul\":487:516   */\n      swap1\n      pop\n        /* \"#utility.yul\":525:558   */\n      tag_305\n        /* \"#utility.yul\":552:557   */\n      dup2\n        /* \"#utility.yul\":525:558   */\n      tag_306\n      jump\t// in\n    tag_305:\n        /* \"#utility.yul\":425:564   */\n      swap3\n      swap2\n      pop\n      pop\n      jump\t// out\n        /* \"#utility.yul\":570:703   */\n    tag_307:\n        /* \"#utility.yul\":613:618   */\n      0x00\n        /* \"#utility.yul\":651:657   */\n      dup2\n        /* \"#utility.yul\":638:658   */\n      calldataload\n        /* \"#utility.yul\":629:658   */\n      swap1\n      pop\n        /* \"#utility.yul\":667:697   */\n      tag_309\n        /* \"#utility.yul\":691:696   */\n      dup2\n        /* \"#utility.yul\":667:697   */\n      tag_310\n      jump\t// in\n    tag_309:\n        /* \"#utility.yul\":570:703   */\n      swap3\n      swap2\n      pop\n      pop\n      jump\t// out\n        /* \"#utility.yul\":723:1063   */\n    tag_311:\n        /* \"#utility.yul\":779:784   */\n      0x00\n        /* \"#utility.yul\":828:831   */\n      dup3\n        /* \"#utility.yul\":821:825   */\n      0x1f\n        /* \"#utility.yul\":813:819   */\n      dup4\n        /* \"#utility.yul\":809:826   */\n      add\n        /* \"#utility.yul\":805:832   */\n      slt\n        /* \"#utility.yul\":795:917   */\n      tag_313\n      jumpi\n        /* \"#utility.yul\":836:915   */\n      tag_314\n      tag_315\n      jump\t// in\n    tag_314:\n        /* \"#utility.yul\":795:917   */\n    tag_313:\n        /* \"#utility.yul\":953:959   */\n      dup2\n        /* \"#utility.yul\":940:960   */\n      calldataload\n        /* \"#utility.yul\":978:1057   */\n      tag_316\n        /* \"#utility.yul\":1053:1056   */\n      dup5\n        /* \"#utility.yul\":1045:1051   */\n      dup3\n        /* \"#utility.yul\":1038:1042   */\n      0x20\n        /* \"#utility.yul\":1030:1036   */\n      dup7\n        /* \"#utility.yul\":1026:1043   */\n      add\n        /* \"#utility.yul\":978:1057   */\n      tag_292\n      jump\t// in\n    tag_316:\n        /* \"#utility.yul\":969:1057   */\n      swap2\n      pop\n        /* \"#utility.yul\":785:1063   */\n      pop\n        /* \"#utility.yul\":723:1063   */\n      swap3\n      swap2\n      pop\n      pop\n      jump\t// out\n        /* \"#utility.yul\":1069:1208   */\n    tag_317:\n        /* \"#utility.yul\":1115:1120   */\n      0x00\n        /* \"#utility.yul\":1153:1159   */\n      dup2\n        /* \"#utility.yul\":1140:1160   */\n      calldataload\n        /* \"#utility.yul\":1131:1160   */\n      swap1\n      pop\n        /* \"#utility.yul\":1169:1202   */\n      tag_319\n        /* \"#utility.yul\":1196:1201   */\n      dup2\n        /* \"#utility.yul\":1169:1202   */\n      tag_320\n      jump\t// in\n    tag_319:\n        /* \"#utility.yul\":1069:1208   */\n      swap3\n      swap2\n      pop\n      pop\n      jump\t// out\n        /* \"#utility.yul\":1214:1543   */\n    tag_58:\n        /* \"#utility.yul\":1273:1279   */\n      0x00\n        /* \"#utility.yul\":1322:1324   */\n      0x20\n        /* \"#utility.yul\":1310:1319   */\n      dup3\n        /* \"#utility.yul\":1301:1308   */\n      dup5\n        /* \"#utility.yul\":1297:1320   */\n      sub\n        /* \"#utility.yul\":1293:1325   */\n      slt\n        /* \"#utility.yul\":1290:1409   */\n      iszero\n      tag_322\n      jumpi\n        /* \"#utility.yul\":1328:1407   */\n      tag_323\n      tag_324\n      jump\t// in\n    tag_323:\n        /* \"#utility.yul\":1290:1409   */\n    tag_322:\n        /* \"#utility.yul\":1448:1449   */\n      0x00\n        /* \"#utility.yul\":1473:1526   */\n      tag_325\n        /* \"#utility.yul\":1518:1525   */\n      dup5\n        /* \"#utility.yul\":1509:1515   */\n      dup3\n        /* \"#utility.yul\":1498:1507   */\n      dup6\n        /* \"#utility.yul\":1494:1516   */\n      add\n        /* \"#utility.yul\":1473:1526   */\n      tag_303\n      jump\t// in\n    tag_325:\n        /* \"#utility.yul\":1463:1526   */\n      swap2\n      pop\n        /* \"#utility.yul\":1419:1536   */\n      pop\n        /* \"#utility.yul\":1214:1543   */\n      swap3\n      swap2\n      pop\n      pop\n      jump\t// out\n        /* \"#utility.yul\":1549:2023   */\n    tag_105:\n        /* \"#utility.yul\":1617:1623   */\n      0x00\n        /* \"#utility.yul\":1625:1631   */\n      dup1\n        /* \"#utility.yul\":1674:1676   */\n      0x40\n        /* \"#utility.yul\":1662:1671   */\n      dup4\n        /* \"#utility.yul\":1653:1660   */\n      dup6\n        /* \"#utility.yul\":1649:1672   */\n      sub\n        /* \"#utility.yul\":1645:1677   */\n      slt\n        /* \"#utility.yul\":1642:1761   */\n      iszero\n      tag_327\n      jumpi\n        /* \"#utility.yul\":1680:1759   */\n      tag_328\n      tag_324\n      jump\t// in\n    tag_328:\n        /* \"#utility.yul\":1642:1761   */\n    tag_327:\n        /* \"#utility.yul\":1800:1801   */\n      0x00\n        /* \"#utility.yul\":1825:1878   */\n      tag_329\n        /* \"#utility.yul\":1870:1877   */\n      dup6\n        /* \"#utility.yul\":1861:1867   */\n      dup3\n        /* \"#utility.yul\":1850:1859   */\n      dup7\n        /* \"#utility.yul\":1846:1868   */\n      add\n        /* \"#utility.yul\":1825:1878   */\n      tag_303\n      jump\t// in\n    tag_329:\n        /* \"#utility.yul\":1815:1878   */\n      swap3\n      pop\n        /* \"#utility.yul\":1771:1888   */\n      pop\n        /* \"#utility.yul\":1927:1929   */\n      0x20\n        /* \"#utility.yul\":1953:2006   */\n      tag_330\n        /* \"#utility.yul\":1998:2005   */\n      dup6\n        /* \"#utility.yul\":1989:1995   */\n      dup3\n        /* \"#utility.yul\":1978:1987   */\n      dup7\n        /* \"#utility.yul\":1974:1996   */\n      add\n        /* \"#utility.yul\":1953:2006   */\n      tag_317\n      jump\t// in\n    tag_330:\n        /* \"#utility.yul\":1943:2006   */\n      swap2\n      pop\n        /* \"#utility.yul\":1898:2016   */\n      pop\n        /* \"#utility.yul\":1549:2023   */\n      swap3\n      pop\n      swap3\n      swap1\n      pop\n      jump\t// out\n        /* \"#utility.yul\":2029:2352   */\n    tag_85:\n        /* \"#utility.yul\":2085:2091   */\n      0x00\n        /* \"#utility.yul\":2134:2136   */\n      0x20\n        /* \"#utility.yul\":2122:2131   */\n      dup3\n        /* \"#utility.yul\":2113:2120   */\n      dup5\n        /* \"#utility.yul\":2109:2132   */\n      sub\n        /* \"#utility.yul\":2105:2137   */\n      slt\n        /* \"#utility.yul\":2102:2221   */\n      iszero\n      tag_332\n      jumpi\n        /* \"#utility.yul\":2140:2219   */\n      tag_333\n      tag_324\n      jump\t// in\n    tag_333:\n        /* \"#utility.yul\":2102:2221   */\n    tag_332:\n        /* \"#utility.yul\":2260:2261   */\n      0x00\n        /* \"#utility.yul\":2285:2335   */\n      tag_334\n        /* \"#utility.yul\":2327:2334   */\n      dup5\n        /* \"#utility.yul\":2318:2324   */\n      dup3\n        /* \"#utility.yul\":2307:2316   */\n      dup6\n        /* \"#utility.yul\":2303:2325   */\n      add\n        /* \"#utility.yul\":2285:2335   */\n      tag_307\n      jump\t// in\n    tag_334:\n        /* \"#utility.yul\":2275:2335   */\n      swap2\n      pop\n        /* \"#utility.yul\":2231:2345   */\n      pop\n        /* \"#utility.yul\":2029:2352   */\n      swap3\n      swap2\n      pop\n      pop\n      jump\t// out\n        /* \"#utility.yul\":2358:3192   */\n    tag_65:\n        /* \"#utility.yul\":2446:2452   */\n      0x00\n        /* \"#utility.yul\":2454:2460   */\n      dup1\n        /* \"#utility.yul\":2503:2505   */\n      0x40\n        /* \"#utility.yul\":2491:2500   */\n      dup4\n        /* \"#utility.yul\":2482:2489   */\n      dup6\n        /* \"#utility.yul\":2478:2501   */\n      sub\n        /* \"#utility.yul\":2474:2506   */\n      slt\n        /* \"#utility.yul\":2471:2590   */\n      iszero\n      tag_336\n      jumpi\n        /* \"#utility.yul\":2509:2588   */\n      tag_337\n      tag_324\n      jump\t// in\n    tag_337:\n        /* \"#utility.yul\":2471:2590   */\n    tag_336:\n        /* \"#utility.yul\":2657:2658   */\n      0x00\n        /* \"#utility.yul\":2646:2655   */\n      dup4\n        /* \"#utility.yul\":2642:2659   */\n      add\n        /* \"#utility.yul\":2629:2660   */\n      calldataload\n        /* \"#utility.yul\":2687:2705   */\n      0xffffffffffffffff\n        /* \"#utility.yul\":2679:2685   */\n      dup2\n        /* \"#utility.yul\":2676:2706   */\n      gt\n        /* \"#utility.yul\":2673:2790   */\n      iszero\n      tag_338\n      jumpi\n        /* \"#utility.yul\":2709:2788   */\n      tag_339\n      tag_340\n      jump\t// in\n    tag_339:\n        /* \"#utility.yul\":2673:2790   */\n    tag_338:\n        /* \"#utility.yul\":2814:2877   */\n      tag_341\n        /* \"#utility.yul\":2869:2876   */\n      dup6\n        /* \"#utility.yul\":2860:2866   */\n      dup3\n        /* \"#utility.yul\":2849:2858   */\n      dup7\n        /* \"#utility.yul\":2845:2867   */\n      add\n        /* \"#utility.yul\":2814:2877   */\n      tag_311\n      jump\t// in\n    tag_341:\n        /* \"#utility.yul\":2804:2877   */\n      swap3\n      pop\n        /* \"#utility.yul\":2600:2887   */\n      pop\n        /* \"#utility.yul\":2954:2956   */\n      0x20\n        /* \"#utility.yul\":2943:2952   */\n      dup4\n        /* \"#utility.yul\":2939:2957   */\n      add\n        /* \"#utility.yul\":2926:2958   */\n      calldataload\n        /* \"#utility.yul\":2985:3003   */\n      0xffffffffffffffff\n        /* \"#utility.yul\":2977:2983   */\n      dup2\n        /* \"#utility.yul\":2974:3004   */\n      gt\n        /* \"#utility.yul\":2971:3088   */\n      iszero\n      tag_342\n      jumpi\n        /* \"#utility.yul\":3007:3086   */\n      tag_343\n      tag_340\n      jump\t// in\n    tag_343:\n        /* \"#utility.yul\":2971:3088   */\n    tag_342:\n        /* \"#utility.yul\":3112:3175   */\n      tag_344\n        /* \"#utility.yul\":3167:3174   */\n      dup6\n        /* \"#utility.yul\":3158:3164   */\n      dup3\n        /* \"#utility.yul\":3147:3156   */\n      dup7\n        /* \"#utility.yul\":3143:3165   */\n      add\n        /* \"#utility.yul\":3112:3175   */\n      tag_311\n      jump\t// in\n    tag_344:\n        /* \"#utility.yul\":3102:3175   */\n      swap2\n      pop\n        /* \"#utility.yul\":2897:3185   */\n      pop\n        /* \"#utility.yul\":2358:3192   */\n      swap3\n      pop\n      swap3\n      swap1\n      pop\n      jump\t// out\n        /* \"#utility.yul\":3198:4177   */\n    tag_132:\n        /* \"#utility.yul\":3295:3301   */\n      0x00\n        /* \"#utility.yul\":3303:3309   */\n      dup1\n        /* \"#utility.yul\":3311:3317   */\n      0x00\n        /* \"#utility.yul\":3360:3362   */\n      0x60\n        /* \"#utility.yul\":3348:3357   */\n      dup5\n        /* \"#utility.yul\":3339:3346   */\n      dup7\n        /* \"#utility.yul\":3335:3358   */\n      sub\n        /* \"#utility.yul\":3331:3363   */\n      slt\n        /* \"#utility.yul\":3328:3447   */\n      iszero\n      tag_346\n      jumpi\n        /* \"#utility.yul\":3366:3445   */\n      tag_347\n      tag_324\n      jump\t// in\n    tag_347:\n        /* \"#utility.yul\":3328:3447   */\n    tag_346:\n        /* \"#utility.yul\":3514:3515   */\n      0x00\n        /* \"#utility.yul\":3503:3512   */\n      dup5\n        /* \"#utility.yul\":3499:3516   */\n      add\n        /* \"#utility.yul\":3486:3517   */\n      calldataload\n        /* \"#utility.yul\":3544:3562   */\n      0xffffffffffffffff\n        /* \"#utility.yul\":3536:3542   */\n      dup2\n        /* \"#utility.yul\":3533:3563   */\n      gt\n        /* \"#utility.yul\":3530:3647   */\n      iszero\n      tag_348\n      jumpi\n        /* \"#utility.yul\":3566:3645   */\n      tag_349\n      tag_340\n      jump\t// in\n    tag_349:\n        /* \"#utility.yul\":3530:3647   */\n    tag_348:\n        /* \"#utility.yul\":3671:3734   */\n      tag_350\n        /* \"#utility.yul\":3726:3733   */\n      dup7\n        /* \"#utility.yul\":3717:3723   */\n      dup3\n        /* \"#utility.yul\":3706:3715   */\n      dup8\n        /* \"#utility.yul\":3702:3724   */\n      add\n        /* \"#utility.yul\":3671:3734   */\n      tag_311\n      jump\t// in\n    tag_350:\n        /* \"#utility.yul\":3661:3734   */\n      swap4\n      pop\n        /* \"#utility.yul\":3457:3744   */\n      pop\n        /* \"#utility.yul\":3811:3813   */\n      0x20\n        /* \"#utility.yul\":3800:3809   */\n      dup5\n        /* \"#utility.yul\":3796:3814   */\n      add\n        /* \"#utility.yul\":3783:3815   */\n      calldataload\n        /* \"#utility.yul\":3842:3860   */\n      0xffffffffffffffff\n        /* \"#utility.yul\":3834:3840   */\n      dup2\n        /* \"#utility.yul\":3831:3861   */\n      gt\n        /* \"#utility.yul\":3828:3945   */\n      iszero\n      tag_351\n      jumpi\n        /* \"#utility.yul\":3864:3943   */\n      tag_352\n      tag_340\n      jump\t// in\n    tag_352:\n        /* \"#utility.yul\":3828:3945   */\n    tag_351:\n        /* \"#utility.yul\":3969:4032   */\n      tag_353\n        /* \"#utility.yul\":4024:4031   */\n      dup7\n        /* \"#utility.yul\":4015:4021   */\n      dup3\n        /* \"#utility.yul\":4004:4013   */\n      dup8\n        /* \"#utility.yul\":4000:4022   */\n      add\n        /* \"#utility.yul\":3969:4032   */\n      tag_311\n      jump\t// in\n    tag_353:\n        /* \"#utility.yul\":3959:4032   */\n      swap3\n      pop\n        /* \"#utility.yul\":3754:4042   */\n      pop\n        /* \"#utility.yul\":4081:4083   */\n      0x40\n        /* \"#utility.yul\":4107:4160   */\n      tag_354\n        /* \"#utility.yul\":4152:4159   */\n      dup7\n        /* \"#utility.yul\":4143:4149   */\n      dup3\n        /* \"#utility.yul\":4132:4141   */\n      dup8\n        /* \"#utility.yul\":4128:4150   */\n      add\n        /* \"#utility.yul\":4107:4160   */\n      tag_317\n      jump\t// in\n    tag_354:\n        /* \"#utility.yul\":4097:4160   */\n      swap2\n      pop\n        /* \"#utility.yul\":4052:4170   */\n      pop\n        /* \"#utility.yul\":3198:4177   */\n      swap3\n      pop\n      swap3\n      pop\n      swap3\n      jump\t// out\n        /* \"#utility.yul\":4183:4512   */\n    tag_70:\n        /* \"#utility.yul\":4242:4248   */\n      0x00\n        /* \"#utility.yul\":4291:4293   */\n      0x20\n        /* \"#utility.yul\":4279:4288   */\n      dup3\n        /* \"#utility.yul\":4270:4277   */\n      dup5\n        /* \"#utility.yul\":4266:4289   */\n      sub\n        /* \"#utility.yul\":4262:4294   */\n      slt\n        /* \"#utility.yul\":4259:4378   */\n      iszero\n      tag_356\n      jumpi\n        /* \"#utility.yul\":4297:4376   */\n      tag_357\n      tag_324\n      jump\t// in\n    tag_357:\n        /* \"#utility.yul\":4259:4378   */\n    tag_356:\n        /* \"#utility.yul\":4417:4418   */\n      0x00\n        /* \"#utility.yul\":4442:4495   */\n      tag_358\n        /* \"#utility.yul\":4487:4494   */\n      dup5\n        /* \"#utility.yul\":4478:4484   */\n      dup3\n        /* \"#utility.yul\":4467:4476   */\n      dup6\n        /* \"#utility.yul\":4463:4485   */\n      add\n        /* \"#utility.yul\":4442:4495   */\n      tag_317\n      jump\t// in\n    tag_358:\n        /* \"#utility.yul\":4432:4495   */\n      swap2\n      pop\n        /* \"#utility.yul\":4388:4505   */\n      pop\n        /* \"#utility.yul\":4183:4512   */\n      swap3\n      swap2\n      pop\n      pop\n      jump\t// out\n        /* \"#utility.yul\":4518:4636   */\n    tag_359:\n        /* \"#utility.yul\":4605:4629   */\n      tag_361\n        /* \"#utility.yul\":4623:4628   */\n      dup2\n        /* \"#utility.yul\":4605:4629   */\n      tag_362\n      jump\t// in\n    tag_361:\n        /* \"#utility.yul\":4600:4603   */\n      dup3\n        /* \"#utility.yul\":4593:4630   */\n      mstore\n        /* \"#utility.yul\":4518:4636   */\n      pop\n      pop\n      jump\t// out\n        /* \"#utility.yul\":4642:4751   */\n    tag_363:\n        /* \"#utility.yul\":4723:4744   */\n      tag_365\n        /* \"#utility.yul\":4738:4743   */\n      dup2\n        /* \"#utility.yul\":4723:4744   */\n      tag_366\n      jump\t// in\n    tag_365:\n        /* \"#utility.yul\":4718:4721   */\n      dup3\n        /* \"#utility.yul\":4711:4745   */\n      mstore\n        /* \"#utility.yul\":4642:4751   */\n      pop\n      pop\n      jump\t// out\n        /* \"#utility.yul\":4757:5121   */\n    tag_367:\n        /* \"#utility.yul\":4845:4848   */\n      0x00\n        /* \"#utility.yul\":4873:4912   */\n      tag_369\n        /* \"#utility.yul\":4906:4911   */\n      dup3\n        /* \"#utility.yul\":4873:4912   */\n      tag_370\n      jump\t// in\n    tag_369:\n        /* \"#utility.yul\":4928:4999   */\n      tag_371\n        /* \"#utility.yul\":4992:4998   */\n      dup2\n        /* \"#utility.yul\":4987:4990   */\n      dup6\n        /* \"#utility.yul\":4928:4999   */\n      tag_372\n      jump\t// in\n    tag_371:\n        /* \"#utility.yul\":4921:4999   */\n      swap4\n      pop\n        /* \"#utility.yul\":5008:5060   */\n      tag_373\n        /* \"#utility.yul\":5053:5059   */\n      dup2\n        /* \"#utility.yul\":5048:5051   */\n      dup6\n        /* \"#utility.yul\":5041:5045   */\n      0x20\n        /* \"#utility.yul\":5034:5039   */\n      dup7\n        /* \"#utility.yul\":5030:5046   */\n      add\n        /* \"#utility.yul\":5008:5060   */\n      tag_374\n      jump\t// in\n    tag_373:\n        /* \"#utility.yul\":5085:5114   */\n      tag_375\n        /* \"#utility.yul\":5107:5113   */\n      dup2\n        /* \"#utility.yul\":5085:5114   */\n      tag_376\n      jump\t// in\n    tag_375:\n        /* \"#utility.yul\":5080:5083   */\n      dup5\n        /* \"#utility.yul\":5076:5115   */\n      add\n        /* \"#utility.yul\":5069:5115   */\n      swap2\n      pop\n        /* \"#utility.yul\":4849:5121   */\n      pop\n        /* \"#utility.yul\":4757:5121   */\n      swap3\n      swap2\n      pop\n      pop\n      jump\t// out\n        /* \"#utility.yul\":5127:5493   */\n    tag_377:\n        /* \"#utility.yul\":5269:5272   */\n      0x00\n        /* \"#utility.yul\":5290:5357   */\n      tag_379\n        /* \"#utility.yul\":5354:5356   */\n      0x23\n        /* \"#utility.yul\":5349:5352   */\n      dup4\n        /* \"#utility.yul\":5290:5357   */\n      tag_372\n      jump\t// in\n    tag_379:\n        /* \"#utility.yul\":5283:5357   */\n      swap2\n      pop\n        /* \"#utility.yul\":5366:5459   */\n      tag_380\n        /* \"#utility.yul\":5455:5458   */\n      dup3\n        /* \"#utility.yul\":5366:5459   */\n      tag_381\n      jump\t// in\n    tag_380:\n        /* \"#utility.yul\":5484:5486   */\n      0x40\n        /* \"#utility.yul\":5479:5482   */\n      dup3\n        /* \"#utility.yul\":5475:5487   */\n      add\n        /* \"#utility.yul\":5468:5487   */\n      swap1\n      pop\n        /* \"#utility.yul\":5127:5493   */\n      swap2\n      swap1\n      pop\n      jump\t// out\n        /* \"#utility.yul\":5499:5865   */\n    tag_382:\n        /* \"#utility.yul\":5641:5644   */\n      0x00\n        /* \"#utility.yul\":5662:5729   */\n      tag_384\n        /* \"#utility.yul\":5726:5728   */\n      0x0e\n        /* \"#utility.yul\":5721:5724   */\n      dup4\n        /* \"#utility.yul\":5662:5729   */\n      tag_372\n      jump\t// in\n    tag_384:\n        /* \"#utility.yul\":5655:5729   */\n      swap2\n      pop\n        /* \"#utility.yul\":5738:5831   */\n      tag_385\n        /* \"#utility.yul\":5827:5830   */\n      dup3\n        /* \"#utility.yul\":5738:5831   */\n      tag_386\n      jump\t// in\n    tag_385:\n        /* \"#utility.yul\":5856:5858   */\n      0x20\n        /* \"#utility.yul\":5851:5854   */\n      dup3\n        /* \"#utility.yul\":5847:5859   */\n      add\n        /* \"#utility.yul\":5840:5859   */\n      swap1\n      pop\n        /* \"#utility.yul\":5499:5865   */\n      swap2\n      swap1\n      pop\n      jump\t// out\n        /* \"#utility.yul\":5871:5989   */\n    tag_387:\n        /* \"#utility.yul\":5958:5982   */\n      tag_389\n        /* \"#utility.yul\":5976:5981   */\n      dup2\n        /* \"#utility.yul\":5958:5982   */\n      tag_390\n      jump\t// in\n    tag_389:\n        /* \"#utility.yul\":5953:5956   */\n      dup3\n        /* \"#utility.yul\":5946:5983   */\n      mstore\n        /* \"#utility.yul\":5871:5989   */\n      pop\n      pop\n      jump\t// out\n        /* \"#utility.yul\":5995:6217   */\n    tag_73:\n        /* \"#utility.yul\":6088:6092   */\n      0x00\n        /* \"#utility.yul\":6126:6128   */\n      0x20\n        /* \"#utility.yul\":6115:6124   */\n      dup3\n        /* \"#utility.yul\":6111:6129   */\n      add\n        /* \"#utility.yul\":6103:6129   */\n      swap1\n      pop\n        /* \"#utility.yul\":6139:6210   */\n      tag_392\n        /* \"#utility.yul\":6207:6208   */\n      0x00\n        /* \"#utility.yul\":6196:6205   */\n      dup4\n        /* \"#utility.yul\":6192:6209   */\n      add\n        /* \"#utility.yul\":6183:6189   */\n      dup5\n        /* \"#utility.yul\":6139:6210   */\n      tag_359\n      jump\t// in\n    tag_392:\n        /* \"#utility.yul\":5995:6217   */\n      swap3\n      swap2\n      pop\n      pop\n      jump\t// out\n        /* \"#utility.yul\":6223:6433   */\n    tag_61:\n        /* \"#utility.yul\":6310:6314   */\n      0x00\n        /* \"#utility.yul\":6348:6350   */\n      0x20\n        /* \"#utility.yul\":6337:6346   */\n      dup3\n        /* \"#utility.yul\":6333:6351   */\n      add\n        /* \"#utility.yul\":6325:6351   */\n      swap1\n      pop\n        /* \"#utility.yul\":6361:6426   */\n      tag_394\n        /* \"#utility.yul\":6423:6424   */\n      0x00\n        /* \"#utility.yul\":6412:6421   */\n      dup4\n        /* \"#utility.yul\":6408:6425   */\n      add\n        /* \"#utility.yul\":6399:6405   */\n      dup5\n        /* \"#utility.yul\":6361:6426   */\n      tag_363\n      jump\t// in\n    tag_394:\n        /* \"#utility.yul\":6223:6433   */\n      swap3\n      swap2\n      pop\n      pop\n      jump\t// out\n        /* \"#utility.yul\":6439:6752   */\n    tag_40:\n        /* \"#utility.yul\":6552:6556   */\n      0x00\n        /* \"#utility.yul\":6590:6592   */\n      0x20\n        /* \"#utility.yul\":6579:6588   */\n      dup3\n        /* \"#utility.yul\":6575:6593   */\n      add\n        /* \"#utility.yul\":6567:6593   */\n      swap1\n      pop\n        /* \"#utility.yul\":6639:6648   */\n      dup2\n        /* \"#utility.yul\":6633:6637   */\n      dup2\n        /* \"#utility.yul\":6629:6649   */\n      sub\n        /* \"#utility.yul\":6625:6626   */\n      0x00\n        /* \"#utility.yul\":6614:6623   */\n      dup4\n        /* \"#utility.yul\":6610:6627   */\n      add\n        /* \"#utility.yul\":6603:6650   */\n      mstore\n        /* \"#utility.yul\":6667:6745   */\n      tag_396\n        /* \"#utility.yul\":6740:6744   */\n      dup2\n        /* \"#utility.yul\":6731:6737   */\n      dup5\n        /* \"#utility.yul\":6667:6745   */\n      tag_367\n      jump\t// in\n    tag_396:\n        /* \"#utility.yul\":6659:6745   */\n      swap1\n      pop\n        /* \"#utility.yul\":6439:6752   */\n      swap3\n      swap2\n      pop\n      pop\n      jump\t// out\n        /* \"#utility.yul\":6758:7382   */\n    tag_101:\n        /* \"#utility.yul\":6947:6951   */\n      0x00\n        /* \"#utility.yul\":6985:6987   */\n      0x60\n        /* \"#utility.yul\":6974:6983   */\n      dup3\n        /* \"#utility.yul\":6970:6988   */\n      add\n        /* \"#utility.yul\":6962:6988   */\n      swap1\n      pop\n        /* \"#utility.yul\":7034:7043   */\n      dup2\n        /* \"#utility.yul\":7028:7032   */\n      dup2\n        /* \"#utility.yul\":7024:7044   */\n      sub\n        /* \"#utility.yul\":7020:7021   */\n      0x00\n        /* \"#utility.yul\":7009:7018   */\n      dup4\n        /* \"#utility.yul\":7005:7022   */\n      add\n        /* \"#utility.yul\":6998:7045   */\n      mstore\n        /* \"#utility.yul\":7062:7140   */\n      tag_398\n        /* \"#utility.yul\":7135:7139   */\n      dup2\n        /* \"#utility.yul\":7126:7132   */\n      dup7\n        /* \"#utility.yul\":7062:7140   */\n      tag_367\n      jump\t// in\n    tag_398:\n        /* \"#utility.yul\":7054:7140   */\n      swap1\n      pop\n        /* \"#utility.yul\":7187:7196   */\n      dup2\n        /* \"#utility.yul\":7181:7185   */\n      dup2\n        /* \"#utility.yul\":7177:7197   */\n      sub\n        /* \"#utility.yul\":7172:7174   */\n      0x20\n        /* \"#utility.yul\":7161:7170   */\n      dup4\n        /* \"#utility.yul\":7157:7175   */\n      add\n        /* \"#utility.yul\":7150:7198   */\n      mstore\n        /* \"#utility.yul\":7215:7293   */\n      tag_399\n        /* \"#utility.yul\":7288:7292   */\n      dup2\n        /* \"#utility.yul\":7279:7285   */\n      dup6\n        /* \"#utility.yul\":7215:7293   */\n      tag_367\n      jump\t// in\n    tag_399:\n        /* \"#utility.yul\":7207:7293   */\n      swap1\n      pop\n        /* \"#utility.yul\":7303:7375   */\n      tag_400\n        /* \"#utility.yul\":7371:7373   */\n      0x40\n        /* \"#utility.yul\":7360:7369   */\n      dup4\n        /* \"#utility.yul\":7356:7374   */\n      add\n        /* \"#utility.yul\":7347:7353   */\n      dup5\n        /* \"#utility.yul\":7303:7375   */\n      tag_387\n      jump\t// in\n    tag_400:\n        /* \"#utility.yul\":6758:7382   */\n      swap5\n      swap4\n      pop\n      pop\n      pop\n      pop\n      jump\t// out\n        /* \"#utility.yul\":7388:7807   */\n    tag_246:\n        /* \"#utility.yul\":7554:7558   */\n      0x00\n        /* \"#utility.yul\":7592:7594   */\n      0x20\n        /* \"#utility.yul\":7581:7590   */\n      dup3\n        /* \"#utility.yul\":7577:7595   */\n      add\n        /* \"#utility.yul\":7569:7595   */\n      swap1\n      pop\n        /* \"#utility.yul\":7641:7650   */\n      dup2\n        /* \"#utility.yul\":7635:7639   */\n      dup2\n        /* \"#utility.yul\":7631:7651   */\n      sub\n        /* \"#utility.yul\":7627:7628   */\n      0x00\n        /* \"#utility.yul\":7616:7625   */\n      dup4\n        /* \"#utility.yul\":7612:7629   */\n      add\n        /* \"#utility.yul\":7605:7652   */\n      mstore\n        /* \"#utility.yul\":7669:7800   */\n      tag_402\n        /* \"#utility.yul\":7795:7799   */\n      dup2\n        /* \"#utility.yul\":7669:7800   */\n      tag_377\n      jump\t// in\n    tag_402:\n        /* \"#utility.yul\":7661:7800   */\n      swap1\n      pop\n        /* \"#utility.yul\":7388:7807   */\n      swap2\n      swap1\n      pop\n      jump\t// out\n        /* \"#utility.yul\":7813:8232   */\n    tag_251:\n        /* \"#utility.yul\":7979:7983   */\n      0x00\n        /* \"#utility.yul\":8017:8019   */\n      0x20\n        /* \"#utility.yul\":8006:8015   */\n      dup3\n        /* \"#utility.yul\":8002:8020   */\n      add\n        /* \"#utility.yul\":7994:8020   */\n      swap1\n      pop\n        /* \"#utility.yul\":8066:8075   */\n      dup2\n        /* \"#utility.yul\":8060:8064   */\n      dup2\n        /* \"#utility.yul\":8056:8076   */\n      sub\n        /* \"#utility.yul\":8052:8053   */\n      0x00\n        /* \"#utility.yul\":8041:8050   */\n      dup4\n        /* \"#utility.yul\":8037:8054   */\n      add\n        /* \"#utility.yul\":8030:8077   */\n      mstore\n        /* \"#utility.yul\":8094:8225   */\n      tag_404\n        /* \"#utility.yul\":8220:8224   */\n      dup2\n        /* \"#utility.yul\":8094:8225   */\n      tag_382\n      jump\t// in\n    tag_404:\n        /* \"#utility.yul\":8086:8225   */\n      swap1\n      pop\n        /* \"#utility.yul\":7813:8232   */\n      swap2\n      swap1\n      pop\n      jump\t// out\n        /* \"#utility.yul\":8238:8460   */\n    tag_35:\n        /* \"#utility.yul\":8331:8335   */\n      0x00\n        /* \"#utility.yul\":8369:8371   */\n      0x20\n        /* \"#utility.yul\":8358:8367   */\n      dup3\n        /* \"#utility.yul\":8354:8372   */\n      add\n        /* \"#utility.yul\":8346:8372   */\n      swap1\n      pop\n        /* \"#utility.yul\":8382:8453   */\n      tag_406\n        /* \"#utility.yul\":8450:8451   */\n      0x00\n        /* \"#utility.yul\":8439:8448   */\n      dup4\n        /* \"#utility.yul\":8435:8452   */\n      add\n        /* \"#utility.yul\":8426:8432   */\n      dup5\n        /* \"#utility.yul\":8382:8453   */\n      tag_387\n      jump\t// in\n    tag_406:\n        /* \"#utility.yul\":8238:8460   */\n      swap3\n      swap2\n      pop\n      pop\n      jump\t// out\n        /* \"#utility.yul\":8466:8595   */\n    tag_297:\n        /* \"#utility.yul\":8500:8506   */\n      0x00\n        /* \"#utility.yul\":8527:8547   */\n      tag_408\n      tag_409\n      jump\t// in\n    tag_408:\n        /* \"#utility.yul\":8517:8547   */\n      swap1\n      pop\n        /* \"#utility.yul\":8556:8589   */\n      tag_410\n        /* \"#utility.yul\":8584:8588   */\n      dup3\n        /* \"#utility.yul\":8576:8582   */\n      dup3\n        /* \"#utility.yul\":8556:8589   */\n      tag_411\n      jump\t// in\n    tag_410:\n        /* \"#utility.yul\":8466:8595   */\n      swap2\n      swap1\n      pop\n      jump\t// out\n        /* \"#utility.yul\":8601:8676   */\n    tag_409:\n        /* \"#utility.yul\":8634:8640   */\n      0x00\n        /* \"#utility.yul\":8667:8669   */\n      0x40\n        /* \"#utility.yul\":8661:8670   */\n      mload\n        /* \"#utility.yul\":8651:8670   */\n      swap1\n      pop\n        /* \"#utility.yul\":8601:8676   */\n      swap1\n      jump\t// out\n        /* \"#utility.yul\":8682:8990   */\n    tag_296:\n        /* \"#utility.yul\":8744:8748   */\n      0x00\n        /* \"#utility.yul\":8834:8852   */\n      0xffffffffffffffff\n        /* \"#utility.yul\":8826:8832   */\n      dup3\n        /* \"#utility.yul\":8823:8853   */\n      gt\n        /* \"#utility.yul\":8820:8876   */\n      iszero\n      tag_414\n      jumpi\n        /* \"#utility.yul\":8856:8874   */\n      tag_415\n      tag_416\n      jump\t// in\n    tag_415:\n        /* \"#utility.yul\":8820:8876   */\n    tag_414:\n        /* \"#utility.yul\":8894:8923   */\n      tag_417\n        /* \"#utility.yul\":8916:8922   */\n      dup3\n        /* \"#utility.yul\":8894:8923   */\n      tag_376\n      jump\t// in\n    tag_417:\n        /* \"#utility.yul\":8886:8923   */\n      swap1\n      pop\n        /* \"#utility.yul\":8978:8982   */\n      0x20\n        /* \"#utility.yul\":8972:8976   */\n      dup2\n        /* \"#utility.yul\":8968:8983   */\n      add\n        /* \"#utility.yul\":8960:8983   */\n      swap1\n      pop\n        /* \"#utility.yul\":8682:8990   */\n      swap2\n      swap1\n      pop\n      jump\t// out\n        /* \"#utility.yul\":8996:9095   */\n    tag_370:\n        /* \"#utility.yul\":9048:9054   */\n      0x00\n        /* \"#utility.yul\":9082:9087   */\n      dup2\n        /* \"#utility.yul\":9076:9088   */\n      mload\n        /* \"#utility.yul\":9066:9088   */\n      swap1\n      pop\n        /* \"#utility.yul\":8996:9095   */\n      swap2\n      swap1\n      pop\n      jump\t// out\n        /* \"#utility.yul\":9101:9270   */\n    tag_372:\n        /* \"#utility.yul\":9185:9196   */\n      0x00\n        /* \"#utility.yul\":9219:9225   */\n      dup3\n        /* \"#utility.yul\":9214:9217   */\n      dup3\n        /* \"#utility.yul\":9207:9226   */\n      mstore\n        /* \"#utility.yul\":9259:9263   */\n      0x20\n        /* \"#utility.yul\":9254:9257   */\n      dup3\n        /* \"#utility.yul\":9250:9264   */\n      add\n        /* \"#utility.yul\":9235:9264   */\n      swap1\n      pop\n        /* \"#utility.yul\":9101:9270   */\n      swap3\n      swap2\n      pop\n      pop\n      jump\t// out\n        /* \"#utility.yul\":9276:9581   */\n    tag_211:\n        /* \"#utility.yul\":9316:9319   */\n      0x00\n        /* \"#utility.yul\":9335:9355   */\n      tag_421\n        /* \"#utility.yul\":9353:9354   */\n      dup3\n        /* \"#utility.yul\":9335:9355   */\n      tag_390\n      jump\t// in\n    tag_421:\n        /* \"#utility.yul\":9330:9355   */\n      swap2\n      pop\n        /* \"#utility.yul\":9369:9389   */\n      tag_422\n        /* \"#utility.yul\":9387:9388   */\n      dup4\n        /* \"#utility.yul\":9369:9389   */\n      tag_390\n      jump\t// in\n    tag_422:\n        /* \"#utility.yul\":9364:9389   */\n      swap3\n      pop\n        /* \"#utility.yul\":9523:9524   */\n      dup3\n        /* \"#utility.yul\":9455:9521   */\n      0xffffffffffffffffffffffffffffffffffffffffffffffffffffffffffffffff\n        /* \"#utility.yul\":9451:9525   */\n      sub\n        /* \"#utility.yul\":9448:9449   */\n      dup3\n        /* \"#utility.yul\":9445:9526   */\n      gt\n        /* \"#utility.yul\":9442:9549   */\n      iszero\n      tag_423\n      jumpi\n        /* \"#utility.yul\":9529:9547   */\n      tag_424\n      tag_425\n      jump\t// in\n    tag_424:\n        /* \"#utility.yul\":9442:9549   */\n    tag_423:\n        /* \"#utility.yul\":9573:9574   */\n      dup3\n        /* \"#utility.yul\":9570:9571   */\n      dup3\n        /* \"#utility.yul\":9566:9575   */\n      add\n        /* \"#utility.yul\":9559:9575   */\n      swap1\n      pop\n        /* \"#utility.yul\":9276:9581   */\n      swap3\n      swap2\n      pop\n      pop\n      jump\t// out\n        /* \"#utility.yul\":9587:9935   */\n    tag_248:\n        /* \"#utility.yul\":9627:9634   */\n      0x00\n        /* \"#utility.yul\":9650:9670   */\n      tag_427\n        /* \"#utility.yul\":9668:9669   */\n      dup3\n        /* \"#utility.yul\":9650:9670   */\n      tag_390\n      jump\t// in\n    tag_427:\n        /* \"#utility.yul\":9645:9670   */\n      swap2\n      pop\n        /* \"#utility.yul\":9684:9704   */\n      tag_428\n        /* \"#utility.yul\":9702:9703   */\n      dup4\n        /* \"#utility.yul\":9684:9704   */\n      tag_390\n      jump\t// in\n    tag_428:\n        /* \"#utility.yul\":9679:9704   */\n      swap3\n      pop\n        /* \"#utility.yul\":9872:9873   */\n      dup2\n        /* \"#utility.yul\":9804:9870   */\n      0xffffffffffffffffffffffffffffffffffffffffffffffffffffffffffffffff\n        /* \"#utility.yul\":9800:9874   */\n      div\n        /* \"#utility.yul\":9797:9798   */\n      dup4\n        /* \"#utility.yul\":9794:9875   */\n      gt\n        /* \"#utility.yul\":9789:9790   */\n      dup3\n        /* \"#utility.yul\":9782:9791   */\n      iszero\n        /* \"#utility.yul\":9775:9792   */\n      iszero\n        /* \"#utility.yul\":9771:9876   */\n      and\n        /* \"#utility.yul\":9768:9899   */\n      iszero\n      tag_429\n      jumpi\n        /* \"#utility.yul\":9879:9897   */\n      tag_430\n      tag_425\n      jump\t// in\n    tag_430:\n        /* \"#utility.yul\":9768:9899   */\n    tag_429:\n        /* \"#utility.yul\":9927:9928   */\n      dup3\n        /* \"#utility.yul\":9924:9925   */\n      dup3\n        /* \"#utility.yul\":9920:9929   */\n      mul\n        /* \"#utility.yul\":9909:9929   */\n      swap1\n      pop\n        /* \"#utility.yul\":9587:9935   */\n      swap3\n      swap2\n      pop\n      pop\n      jump\t// out\n        /* \"#utility.yul\":9941:10132   */\n    tag_209:\n        /* \"#utility.yul\":9981:9985   */\n      0x00\n        /* \"#utility.yul\":10001:10021   */\n      tag_432\n        /* \"#utility.yul\":10019:10020   */\n      dup3\n        /* \"#utility.yul\":10001:10021   */\n      tag_390\n      jump\t// in\n    tag_432:\n        /* \"#utility.yul\":9996:10021   */\n      swap2\n      pop\n        /* \"#utility.yul\":10035:10055   */\n      tag_433\n        /* \"#utility.yul\":10053:10054   */\n      dup4\n        /* \"#utility.yul\":10035:10055   */\n      tag_390\n      jump\t// in\n    tag_433:\n        /* \"#utility.yul\":10030:10055   */\n      swap3\n      pop\n        /* \"#utility.yul\":10074:10075   */\n      dup3\n        /* \"#utility.yul\":10071:10072   */\n      dup3\n        /* \"#utility.yul\":10068:10076   */\n      lt\n        /* \"#utility.yul\":10065:10099   */\n      iszero\n      tag_434\n      jumpi\n        /* \"#utility.yul\":10079:10097   */\n      tag_435\n      tag_425\n      jump\t// in\n    tag_435:\n        /* \"#utility.yul\":10065:10099   */\n    tag_434:\n        /* \"#utility.yul\":10124:10125   */\n      dup3\n        /* \"#utility.yul\":10121:10122   */\n      dup3\n        /* \"#utility.yul\":10117:10126   */\n      sub\n        /* \"#utility.yul\":10109:10126   */\n      swap1\n      pop\n        /* \"#utility.yul\":9941:10132   */\n      swap3\n      swap2\n      pop\n      pop\n      jump\t// out\n        /* \"#utility.yul\":10138:10234   */\n    tag_362:\n        /* \"#utility.yul\":10175:10182   */\n      0x00\n        /* \"#utility.yul\":10204:10228   */\n      tag_437\n        /* \"#utility.yul\":10222:10227   */\n      dup3\n        /* \"#utility.yul\":10204:10228   */\n      tag_438\n      jump\t// in\n    tag_437:\n        /* \"#utility.yul\":10193:10228   */\n      swap1\n      pop\n        /* \"#utility.yul\":10138:10234   */\n      swap2\n      swap1\n      pop\n      jump\t// out\n        /* \"#utility.yul\":10240:10330   */\n    tag_366:\n        /* \"#utility.yul\":10274:10281   */\n      0x00\n        /* \"#utility.yul\":10317:10322   */\n      dup2\n        /* \"#utility.yul\":10310:10323   */\n      iszero\n        /* \"#utility.yul\":10303:10324   */\n      iszero\n        /* \"#utility.yul\":10292:10324   */\n      swap1\n      pop\n        /* \"#utility.yul\":10240:10330   */\n      swap2\n      swap1\n      pop\n      jump\t// out\n        /* \"#utility.yul\":10336:10462   */\n    tag_438:\n        /* \"#utility.yul\":10373:10380   */\n      0x00\n        /* \"#utility.yul\":10413:10455   */\n      0xffffffffffffffffffffffffffffffffffffffff\n        /* \"#utility.yul\":10406:10411   */\n      dup3\n        /* \"#utility.yul\":10402:10456   */\n      and\n        /* \"#utility.yul\":10391:10456   */\n      swap1\n      pop\n        /* \"#utility.yul\":10336:10462   */\n      swap2\n      swap1\n      pop\n      jump\t// out\n        /* \"#utility.yul\":10468:10545   */\n    tag_390:\n        /* \"#utility.yul\":10505:10512   */\n      0x00\n        /* \"#utility.yul\":10534:10539   */\n      dup2\n        /* \"#utility.yul\":10523:10539   */\n      swap1\n      pop\n        /* \"#utility.yul\":10468:10545   */\n      swap2\n      swap1\n      pop\n      jump\t// out\n        /* \"#utility.yul\":10551:10705   */\n    tag_302:\n        /* \"#utility.yul\":10635:10641   */\n      dup3\n        /* \"#utility.yul\":10630:10633   */\n      dup2\n        /* \"#utility.yul\":10625:10628   */\n      dup4\n        /* \"#utility.yul\":10612:10642   */\n      calldatacopy\n        /* \"#utility.yul\":10697:10698   */\n      0x00\n        /* \"#utility.yul\":10688:10694   */\n      dup4\n        /* \"#utility.yul\":10683:10686   */\n      dup4\n        /* \"#utility.yul\":10679:10695   */\n      add\n        /* \"#utility.yul\":10672:10699   */\n      mstore\n        /* \"#utility.yul\":10551:10705   */\n      pop\n      pop\n      pop\n      jump\t// out\n        /* \"#utility.yul\":10711:11018   */\n    tag_374:\n        /* \"#utility.yul\":10779:10780   */\n      0x00\n        /* \"#utility.yul\":10789:10902   */\n    tag_444:\n        /* \"#utility.yul\":10803:10809   */\n      dup4\n        /* \"#utility.yul\":10800:10801   */\n      dup2\n        /* \"#utility.yul\":10797:10810   */\n      lt\n        /* \"#utility.yul\":10789:10902   */\n      iszero\n      tag_446\n      jumpi\n        /* \"#utility.yul\":10888:10889   */\n      dup1\n        /* \"#utility.yul\":10883:10886   */\n      dup3\n        /* \"#utility.yul\":10879:10890   */\n      add\n        /* \"#utility.yul\":10873:10891   */\n      mload\n        /* \"#utility.yul\":10869:10870   */\n      dup2\n        /* \"#utility.yul\":10864:10867   */\n      dup5\n        /* \"#utility.yul\":10860:10871   */\n      add\n        /* \"#utility.yul\":10853:10892   */\n      mstore\n        /* \"#utility.yul\":10825:10827   */\n      0x20\n        /* \"#utility.yul\":10822:10823   */\n      dup2\n        /* \"#utility.yul\":10818:10828   */\n      add\n        /* \"#utility.yul\":10813:10828   */\n      swap1\n      pop\n        /* \"#utility.yul\":10789:10902   */\n      jump(tag_444)\n    tag_446:\n        /* \"#utility.yul\":10920:10926   */\n      dup4\n        /* \"#utility.yul\":10917:10918   */\n      dup2\n        /* \"#utility.yul\":10914:10927   */\n      gt\n        /* \"#utility.yul\":10911:11012   */\n      iszero\n      tag_447\n      jumpi\n        /* \"#utility.yul\":11000:11001   */\n      0x00\n        /* \"#utility.yul\":10991:10997   */\n      dup5\n        /* \"#utility.yul\":10986:10989   */\n      dup5\n        /* \"#utility.yul\":10982:10998   */\n      add\n        /* \"#utility.yul\":10975:11002   */\n      mstore\n        /* \"#utility.yul\":10911:11012   */\n    tag_447:\n        /* \"#utility.yul\":10760:11018   */\n      pop\n        /* \"#utility.yul\":10711:11018   */\n      pop\n      pop\n      pop\n      jump\t// out\n        /* \"#utility.yul\":11024:11344   */\n    tag_143:\n        /* \"#utility.yul\":11068:11074   */\n      0x00\n        /* \"#utility.yul\":11105:11106   */\n      0x02\n        /* \"#utility.yul\":11099:11103   */\n      dup3\n        /* \"#utility.yul\":11095:11107   */\n      div\n        /* \"#utility.yul\":11085:11107   */\n      swap1\n      pop\n        /* \"#utility.yul\":11152:11153   */\n      0x01\n        /* \"#utility.yul\":11146:11150   */\n      dup3\n        /* \"#utility.yul\":11142:11154   */\n      and\n        /* \"#utility.yul\":11173:11191   */\n      dup1\n        /* \"#utility.yul\":11163:11244   */\n      tag_449\n      jumpi\n        /* \"#utility.yul\":11229:11233   */\n      0x7f\n        /* \"#utility.yul\":11221:11227   */\n      dup3\n        /* \"#utility.yul\":11217:11234   */\n      and\n        /* \"#utility.yul\":11207:11234   */\n      swap2\n      pop\n        /* \"#utility.yul\":11163:11244   */\n    tag_449:\n        /* \"#utility.yul\":11291:11293   */\n      0x20\n        /* \"#utility.yul\":11283:11289   */\n      dup3\n        /* \"#utility.yul\":11280:11294   */\n      lt\n        /* \"#utility.yul\":11260:11278   */\n      dup2\n        /* \"#utility.yul\":11257:11295   */\n      eq\n        /* \"#utility.yul\":11254:11338   */\n      iszero\n      tag_450\n      jumpi\n        /* \"#utility.yul\":11310:11328   */\n      tag_451\n      tag_452\n      jump\t// in\n    tag_451:\n        /* \"#utility.yul\":11254:11338   */\n    tag_450:\n        /* \"#utility.yul\":11075:11344   */\n      pop\n        /* \"#utility.yul\":11024:11344   */\n      swap2\n      swap1\n      pop\n      jump\t// out\n        /* \"#utility.yul\":11350:11631   */\n    tag_411:\n        /* \"#utility.yul\":11433:11460   */\n      tag_454\n        /* \"#utility.yul\":11455:11459   */\n      dup3\n        /* \"#utility.yul\":11433:11460   */\n      tag_376\n      jump\t// in\n    tag_454:\n        /* \"#utility.yul\":11425:11431   */\n      dup2\n        /* \"#utility.yul\":11421:11461   */\n      add\n        /* \"#utility.yul\":11563:11569   */\n      dup2\n        /* \"#utility.yul\":11551:11561   */\n      dup2\n        /* \"#utility.yul\":11548:11570   */\n      lt\n        /* \"#utility.yul\":11527:11545   */\n      0xffffffffffffffff\n        /* \"#utility.yul\":11515:11525   */\n      dup3\n        /* \"#utility.yul\":11512:11546   */\n      gt\n        /* \"#utility.yul\":11509:11571   */\n      or\n        /* \"#utility.yul\":11506:11594   */\n      iszero\n      tag_455\n      jumpi\n        /* \"#utility.yul\":11574:11592   */\n      tag_456\n      tag_416\n      jump\t// in\n    tag_456:\n        /* \"#utility.yul\":11506:11594   */\n    tag_455:\n        /* \"#utility.yul\":11614:11624   */\n      dup1\n        /* \"#utility.yul\":11610:11612   */\n      0x40\n        /* \"#utility.yul\":11603:11625   */\n      mstore\n        /* \"#utility.yul\":11393:11631   */\n      pop\n        /* \"#utility.yul\":11350:11631   */\n      pop\n      pop\n      jump\t// out\n        /* \"#utility.yul\":11637:11870   */\n    tag_190:\n        /* \"#utility.yul\":11676:11679   */\n      0x00\n        /* \"#utility.yul\":11699:11723   */\n      tag_458\n        /* \"#utility.yul\":11717:11722   */\n      dup3\n        /* \"#utility.yul\":11699:11723   */\n      tag_390\n      jump\t// in\n    tag_458:\n        /* \"#utility.yul\":11690:11723   */\n      swap2\n      pop\n        /* \"#utility.yul\":11745:11811   */\n      0xffffffffffffffffffffffffffffffffffffffffffffffffffffffffffffffff\n        /* \"#utility.yul\":11738:11743   */\n      dup3\n        /* \"#utility.yul\":11735:11812   */\n      eq\n        /* \"#utility.yul\":11732:11835   */\n      iszero\n      tag_459\n      jumpi\n        /* \"#utility.yul\":11815:11833   */\n      tag_460\n      tag_425\n      jump\t// in\n    tag_460:\n        /* \"#utility.yul\":11732:11835   */\n    tag_459:\n        /* \"#utility.yul\":11862:11863   */\n      0x01\n        /* \"#utility.yul\":11855:11860   */\n      dup3\n        /* \"#utility.yul\":11851:11864   */\n      add\n        /* \"#utility.yul\":11844:11864   */\n      swap1\n      pop\n        /* \"#utility.yul\":11637:11870   */\n      swap2\n      swap1\n      pop\n      jump\t// out\n        /* \"#utility.yul\":11876:12056   */\n    tag_425:\n        /* \"#utility.yul\":11924:12001   */\n      0x4e487b7100000000000000000000000000000000000000000000000000000000\n        /* \"#utility.yul\":11921:11922   */\n      0x00\n        /* \"#utility.yul\":11914:12002   */\n      mstore\n        /* \"#utility.yul\":12021:12025   */\n      0x11\n        /* \"#utility.yul\":12018:12019   */\n      0x04\n        /* \"#utility.yul\":12011:12026   */\n      mstore\n        /* \"#utility.yul\":12045:12049   */\n      0x24\n        /* \"#utility.yul\":12042:12043   */\n      0x00\n        /* \"#utility.yul\":12035:12050   */\n      revert\n        /* \"#utility.yul\":12062:12242   */\n    tag_153:\n        /* \"#utility.yul\":12110:12187   */\n      0x4e487b7100000000000000000000000000000000000000000000000000000000\n        /* \"#utility.yul\":12107:12108   */\n      0x00\n        /* \"#utility.yul\":12100:12188   */\n      mstore\n        /* \"#utility.yul\":12207:12211   */\n      0x21\n        /* \"#utility.yul\":12204:12205   */\n      0x04\n        /* \"#utility.yul\":12197:12212   */\n      mstore\n        /* \"#utility.yul\":12231:12235   */\n      0x24\n        /* \"#utility.yul\":12228:12229   */\n      0x00\n        /* \"#utility.yul\":12221:12236   */\n      revert\n        /* \"#utility.yul\":12248:12428   */\n    tag_452:\n        /* \"#utility.yul\":12296:12373   */\n      0x4e487b7100000000000000000000000000000000000000000000000000000000\n        /* \"#utility.yul\":12293:12294   */\n      0x00\n        /* \"#utility.yul\":12286:12374   */\n      mstore\n        /* \"#utility.yul\":12393:12397   */\n      0x22\n        /* \"#utility.yul\":12390:12391   */\n      0x04\n        /* \"#utility.yul\":12383:12398   */\n      mstore\n        /* \"#utility.yul\":12417:12421   */\n      0x24\n        /* \"#utility.yul\":12414:12415   */\n      0x00\n        /* \"#utility.yul\":12407:12422   */\n      revert\n        /* \"#utility.yul\":12434:12614   */\n    tag_277:\n        /* \"#utility.yul\":12482:12559   */\n      0x4e487b7100000000000000000000000000000000000000000000000000000000\n        /* \"#utility.yul\":12479:12480   */\n      0x00\n        /* \"#utility.yul\":12472:12560   */\n      mstore\n        /* \"#utility.yul\":12579:12583   */\n      0x32\n        /* \"#utility.yul\":12576:12577   */\n      0x04\n        /* \"#utility.yul\":12569:12584   */\n      mstore\n        /* \"#utility.yul\":12603:12607   */\n      0x24\n        /* \"#utility.yul\":12600:12601   */\n      0x00\n        /* \"#utility.yul\":12593:12608   */\n      revert\n        /* \"#utility.yul\":12620:12800   */\n    tag_416:\n        /* \"#utility.yul\":12668:12745   */\n      0x4e487b7100000000000000000000000000000000000000000000000000000000\n        /* \"#utility.yul\":12665:12666   */\n      0x00\n        /* \"#utility.yul\":12658:12746   */\n      mstore\n        /* \"#utility.yul\":12765:12769   */\n      0x41\n        /* \"#utility.yul\":12762:12763   */\n      0x04\n        /* \"#utility.yul\":12755:12770   */\n      mstore\n        /* \"#utility.yul\":12789:12793   */\n      0x24\n        /* \"#utility.yul\":12786:12787   */\n      0x00\n        /* \"#utility.yul\":12779:12794   */\n      revert\n        /* \"#utility.yul\":12806:12923   */\n    tag_315:\n        /* \"#utility.yul\":12915:12916   */\n      0x00\n        /* \"#utility.yul\":12912:12913   */\n      dup1\n        /* \"#utility.yul\":12905:12917   */\n      revert\n        /* \"#utility.yul\":12929:13046   */\n    tag_300:\n        /* \"#utility.yul\":13038:13039   */\n      0x00\n        /* \"#utility.yul\":13035:13036   */\n      dup1\n        /* \"#utility.yul\":13028:13040   */\n      revert\n        /* \"#utility.yul\":13052:13169   */\n    tag_340:\n        /* \"#utility.yul\":13161:13162   */\n      0x00\n        /* \"#utility.yul\":13158:13159   */\n      dup1\n        /* \"#utility.yul\":13151:13163   */\n      revert\n        /* \"#utility.yul\":13175:13292   */\n    tag_324:\n        /* \"#utility.yul\":13284:13285   */\n      0x00\n        /* \"#utility.yul\":13281:13282   */\n      dup1\n        /* \"#utility.yul\":13274:13286   */\n      revert\n        /* \"#utility.yul\":13298:13400   */\n    tag_376:\n        /* \"#utility.yul\":13339:13345   */\n      0x00\n        /* \"#utility.yul\":13390:13392   */\n      0x1f\n        /* \"#utility.yul\":13386:13393   */\n      not\n        /* \"#utility.yul\":13381:13383   */\n      0x1f\n        /* \"#utility.yul\":13374:13379   */\n      dup4\n        /* \"#utility.yul\":13370:13384   */\n      add\n        /* \"#utility.yul\":13366:13394   */\n      and\n        /* \"#utility.yul\":13356:13394   */\n      swap1\n      pop\n        /* \"#utility.yul\":13298:13400   */\n      swap2\n      swap1\n      pop\n      jump\t// out\n        /* \"#utility.yul\":13406:13628   */\n    tag_381:\n        /* \"#utility.yul\":13546:13580   */\n      0x4e756d626572206f662073686172657320657863656564656420746865206c69\n        /* \"#utility.yul\":13542:13543   */\n      0x00\n        /* \"#utility.yul\":13534:13540   */\n      dup3\n        /* \"#utility.yul\":13530:13544   */\n      add\n        /* \"#utility.yul\":13523:13581   */\n      mstore\n        /* \"#utility.yul\":13615:13620   */\n      0x6d69740000000000000000000000000000000000000000000000000000000000\n        /* \"#utility.yul\":13610:13612   */\n      0x20\n        /* \"#utility.yul\":13602:13608   */\n      dup3\n        /* \"#utility.yul\":13598:13613   */\n      add\n        /* \"#utility.yul\":13591:13621   */\n      mstore\n        /* \"#utility.yul\":13406:13628   */\n      pop\n      jump\t// out\n        /* \"#utility.yul\":13634:13798   */\n    tag_386:\n        /* \"#utility.yul\":13774:13790   */\n      0x4e6f7420656e6f75676820776569000000000000000000000000000000000000\n        /* \"#utility.yul\":13770:13771   */\n      0x00\n        /* \"#utility.yul\":13762:13768   */\n      dup3\n        /* \"#utility.yul\":13758:13772   */\n      add\n        /* \"#utility.yul\":13751:13791   */\n      mstore\n        /* \"#utility.yul\":13634:13798   */\n      pop\n      jump\t// out\n        /* \"#utility.yul\":13804:13926   */\n    tag_306:\n        /* \"#utility.yul\":13877:13901   */\n      tag_474\n        /* \"#utility.yul\":13895:13900   */\n      dup2\n        /* \"#utility.yul\":13877:13901   */\n      tag_362\n      jump\t// in\n    tag_474:\n        /* \"#utility.yul\":13870:13875   */\n      dup2\n        /* \"#utility.yul\":13867:13902   */\n      eq\n        /* \"#utility.yul\":13857:13920   */\n      tag_475\n      jumpi\n        /* \"#utility.yul\":13916:13917   */\n      0x00\n        /* \"#utility.yul\":13913:13914   */\n      dup1\n        /* \"#utility.yul\":13906:13918   */\n      revert\n        /* \"#utility.yul\":13857:13920   */\n    tag_475:\n        /* \"#utility.yul\":13804:13926   */\n      pop\n      jump\t// out\n        /* \"#utility.yul\":13932:14048   */\n    tag_310:\n        /* \"#utility.yul\":14002:14023   */\n      tag_477\n        /* \"#utility.yul\":14017:14022   */\n      dup2\n        /* \"#utility.yul\":14002:14023   */\n      tag_366\n      jump\t// in\n    tag_477:\n        /* \"#utility.yul\":13995:14000   */\n      dup2\n        /* \"#utility.yul\":13992:14024   */\n      eq\n        /* \"#utility.yul\":13982:14042   */\n      tag_478\n      jumpi\n        /* \"#utility.yul\":14038:14039   */\n      0x00\n        /* \"#utility.yul\":14035:14036   */\n      dup1\n        /* \"#utility.yul\":14028:14040   */\n      revert\n        /* \"#utility.yul\":13982:14042   */\n    tag_478:\n        /* \"#utility.yul\":13932:14048   */\n      pop\n      jump\t// out\n        /* \"#utility.yul\":14054:14176   */\n    tag_320:\n        /* \"#utility.yul\":14127:14151   */\n      tag_480\n        /* \"#utility.yul\":14145:14150   */\n      dup2\n        /* \"#utility.yul\":14127:14151   */\n      tag_390\n      jump\t// in\n    tag_480:\n        /* \"#utility.yul\":14120:14125   */\n      dup2\n        /* \"#utility.yul\":14117:14152   */\n      eq\n        /* \"#utility.yul\":14107:14170   */\n      tag_481\n      jumpi\n        /* \"#utility.yul\":14166:14167   */\n      0x00\n        /* \"#utility.yul\":14163:14164   */\n      dup1\n        /* \"#utility.yul\":14156:14168   */\n      revert\n        /* \"#utility.yul\":14107:14170   */\n    tag_481:\n        /* \"#utility.yul\":14054:14176   */\n      pop\n      jump\t// out\n\n    auxdata: 0xa264697066735822122063d23392669972ae87b93b8962ef86ed9eaa0686f77eb66a22b18335c8742e8e64736f6c63430008070033\n}\n",
				"bytecode": {
					"linkReferences": {},
					"object": "608060405260646006556001600755600a60085560006009556000601255600060135560006014553480156200003457600080fd5b50604051620024263803806200242683398181016040528101906200005a919062000286565b336000806101000a81548173ffffffffffffffffffffffffffffffffffffffff021916908373ffffffffffffffffffffffffffffffffffffffff160217905550600654600d60003373ffffffffffffffffffffffffffffffffffffffff1673ffffffffffffffffffffffffffffffffffffffff168152602001908152602001600020819055508160016000019080519060200190620000fb92919062000158565b50806001800190805190602001906200011692919062000158565b5060006001600301819055506000600a60006101000a81548160ff021916908360018111156200014b576200014a6200040c565b5b02179055505050620004be565b8280546200016690620003a0565b90600052602060002090601f0160209004810192826200018a5760008555620001d6565b82601f10620001a557805160ff1916838001178555620001d6565b82800160010185558215620001d6579182015b82811115620001d5578251825591602001919060010190620001b8565b5b509050620001e59190620001e9565b5090565b5b8082111562000204576000816000905550600101620001ea565b5090565b60006200021f620002198462000334565b6200030b565b9050828152602081018484840111156200023e576200023d6200049e565b5b6200024b8482856200036a565b509392505050565b600082601f8301126200026b576200026a62000499565b5b81516200027d84826020860162000208565b91505092915050565b60008060408385031215620002a0576200029f620004a8565b5b600083015167ffffffffffffffff811115620002c157620002c0620004a3565b5b620002cf8582860162000253565b925050602083015167ffffffffffffffff811115620002f357620002f2620004a3565b5b620003018582860162000253565b9150509250929050565b6000620003176200032a565b9050620003258282620003d6565b919050565b6000604051905090565b600067ffffffffffffffff8211156200035257620003516200046a565b5b6200035d82620004ad565b9050602081019050919050565b60005b838110156200038a5780820151818401526020810190506200036d565b838111156200039a576000848401525b50505050565b60006002820490506001821680620003b957607f821691505b60208210811415620003d057620003cf6200043b565b5b50919050565b620003e182620004ad565b810181811067ffffffffffffffff821117156200040357620004026200046a565b5b80604052505050565b7f4e487b7100000000000000000000000000000000000000000000000000000000600052602160045260246000fd5b7f4e487b7100000000000000000000000000000000000000000000000000000000600052602260045260246000fd5b7f4e487b7100000000000000000000000000000000000000000000000000000000600052604160045260246000fd5b600080fd5b600080fd5b600080fd5b600080fd5b6000601f19601f8301169050919050565b611f5880620004ce6000396000f3fe6080604052600436106101665760003560e01c80638da5cb5b116100d1578063b92239461161008a578063d96a094a11610064578063d96a094a146104fc578063df09440914610518578063e4849b3214610541578063f3a8286f1461056a57610166565b8063b92239461461048d578063d8124c5f146104a4578063d8335b53146104d157610166565b80638da5cb5b1461037b5780639a982416146103a6578063a14ba987146103d1578063a9059cbb14610410578063ad34944214610439578063af769c641461046457610166565b806359ea01731161012357806359ea0173146102455780636fa4f103146102825780637427a40c146102ab578063753ec103146102e85780637ff9b5961461031357806387caea781461033e57610166565b80630d15fd771461016b5780631b26586c14610196578063293230b8146101c15780633a98ef39146101d85780633be75aa3146102035780634c0a6af01461022e575b600080fd5b34801561017757600080fd5b50610180610595565b60405161018d9190611aae565b60405180910390f35b3480156101a257600080fd5b506101ab61059b565b6040516101b89190611a07565b60405180910390f35b3480156101cd57600080fd5b506101d6610629565b005b3480156101e457600080fd5b506101ed6106ae565b6040516101fa9190611aae565b60405180910390f35b34801561020f57600080fd5b506102186106b4565b6040516102259190611aae565b60405180910390f35b34801561023a57600080fd5b506102436106ba565b005b34801561025157600080fd5b5061026c6004803603810190610267919061175b565b6107af565b60405161027991906119ec565b60405180910390f35b34801561028e57600080fd5b506102a960048036038101906102a491906117f5565b6107cf565b005b3480156102b757600080fd5b506102d260048036038101906102cd91906118f8565b61086d565b6040516102df91906119d1565b60405180910390f35b3480156102f457600080fd5b506102fd6108ac565b60405161030a9190611a07565b60405180910390f35b34801561031f57600080fd5b5061032861093a565b6040516103359190611aae565b60405180910390f35b34801561034a57600080fd5b50610365600480360381019061036091906117c8565b610940565b60405161037291906119ec565b60405180910390f35b34801561038757600080fd5b50610390610b7c565b60405161039d91906119d1565b60405180910390f35b3480156103b257600080fd5b506103bb610ba0565b6040516103c89190611aae565b60405180910390f35b3480156103dd57600080fd5b506103f860048036038101906103f391906118f8565b610ba6565b60405161040793929190611a29565b60405180910390f35b34801561041c57600080fd5b5061043760048036038101906104329190611788565b610cf0565b005b34801561044557600080fd5b5061044e610e44565b60405161045b91906119d1565b60405180910390f35b34801561047057600080fd5b5061048b6004803603810190610486919061175b565b610e6a565b005b34801561049957600080fd5b506104a2610fdd565b005b3480156104b057600080fd5b506104b96110e8565b6040516104c893929190611a29565b60405180910390f35b3480156104dd57600080fd5b506104e6611210565b6040516104f391906119d1565b60405180910390f35b610516600480360381019061051191906118f8565b611236565b005b34801561052457600080fd5b5061053f600480360381019061053a919061186d565b6112e1565b005b34801561054d57600080fd5b50610568600480360381019061056391906118f8565b611474565b005b34801561057657600080fd5b5061057f611523565b60405161058c9190611aae565b60405180910390f35b60145481565b601080546105a890611ca9565b80601f01602080910402602001604051908101604052809291908181526020018280546105d490611ca9565b80156106215780601f106105f657610100808354040283529160200191610621565b820191906000526020600020905b81548152906001019060200180831161060457829003601f168201915b505050505081565b60008054906101000a900473ffffffffffffffffffffffffffffffffffffffff1673ffffffffffffffffffffffffffffffffffffffff163373ffffffffffffffffffffffffffffffffffffffff161461068157600080fd5b6001600a60006101000a81548160ff021916908360018111156106a7576106a6611d84565b5b0217905550565b60065481565b60085481565b60008060028111156106cf576106ce611d84565b5b600e60009054906101000a900460ff1660028111156106f1576106f0611d84565b5b146106fb57600080fd5b600f60009054906101000a900473ffffffffffffffffffffffffffffffffffffffff1673ffffffffffffffffffffffffffffffffffffffff163373ffffffffffffffffffffffffffffffffffffffff161461075557600080fd5b6001600e60006101000a81548160ff0219169083600281111561077b5761077a611d84565b5b02179055507fd0dc01800a369fef30d3fced5275b8b916549867622e79efca5245c479fda4ea60405160405180910390a150565b600c6020528060005260406000206000915054906101000a900460ff1681565b6000600e60006101000a81548160ff021916908360028111156107f5576107f4611d84565b5b021790555081601090805190602001906108109291906115d7565b5080601190805190602001906108279291906115d7565b5033600e60016101000a81548173ffffffffffffffffffffffffffffffffffffffff021916908373ffffffffffffffffffffffffffffffffffffffff1602179055505050565b600b818154811061087d57600080fd5b906000526020600020016000915054906101000a900473ffffffffffffffffffffffffffffffffffffffff1681565b601180546108b990611ca9565b80601f01602080910402602001604051908101604052809291908181526020018280546108e590611ca9565b80156109325780601f1061090757610100808354040283529160200191610932565b820191906000526020600020905b81548152906001019060200180831161091557829003601f168201915b505050505081565b60075481565b6000600180600281111561095757610956611d84565b5b600e60009054906101000a900460ff16600281111561097957610978611d84565b5b1461098357600080fd5b6000600c60003373ffffffffffffffffffffffffffffffffffffffff1673ffffffffffffffffffffffffffffffffffffffff16815260200190815260200160002060009054906101000a900460ff16610b3b576001600c60003373ffffffffffffffffffffffffffffffffffffffff1673ffffffffffffffffffffffffffffffffffffffff16815260200190815260200160002060006101000a81548160ff021916908315150217905550610a3661165d565b33816000019073ffffffffffffffffffffffffffffffffffffffff16908173ffffffffffffffffffffffffffffffffffffffff1681525050848160200190151590811515815250508415610a9d5760126000815480929190610a9790611d0c565b91905055505b8060156000601454815260200190815260200160002060008201518160000160006101000a81548173ffffffffffffffffffffffffffffffffffffffff021916908373ffffffffffffffffffffffffffffffffffffffff16021790555060208201518160000160146101000a81548160ff02191690831515021790555090505060146000815480929190610b3090611d0c565b919050555060019150505b7f55c65cf9526efdf6c2252fe9757889dbd93e10172cad0f2edb1df619c88dbf7d33604051610b6a91906119d1565b60405180910390a18092505050919050565b60008054906101000a900473ffffffffffffffffffffffffffffffffffffffff1681565b60095481565b60058181548110610bb657600080fd5b9060005260206000209060030201600091509050806000018054610bd990611ca9565b80601f0160208091040260200160405190810160405280929190818152602001828054610c0590611ca9565b8015610c525780601f10610c2757610100808354040283529160200191610c52565b820191906000526020600020905b815481529060010190602001808311610c3557829003601f168201915b505050505090806001018054610c6790611ca9565b80601f0160208091040260200160405190810160405280929190818152602001828054610c9390611ca9565b8015610ce05780601f10610cb557610100808354040283529160200191610ce0565b820191906000526020600020905b815481529060010190602001808311610cc357829003601f168201915b5050505050908060020154905083565b80600d60003373ffffffffffffffffffffffffffffffffffffffff1673ffffffffffffffffffffffffffffffffffffffff168152602001908152602001600020541015610d3c57600080fd5b60008054906101000a900473ffffffffffffffffffffffffffffffffffffffff1673ffffffffffffffffffffffffffffffffffffffff163373ffffffffffffffffffffffffffffffffffffffff1614610d9457600080fd5b80600d60003373ffffffffffffffffffffffffffffffffffffffff1673ffffffffffffffffffffffffffffffffffffffff1681526020019081526020016000206000828254610de39190611beb565b9250508190555080600d60008473ffffffffffffffffffffffffffffffffffffffff1673ffffffffffffffffffffffffffffffffffffffff1681526020019081526020016000206000828254610e399190611b3b565b925050819055505050565b600e60019054906101000a900473ffffffffffffffffffffffffffffffffffffffff1681565b60008054906101000a900473ffffffffffffffffffffffffffffffffffffffff1673ffffffffffffffffffffffffffffffffffffffff163373ffffffffffffffffffffffffffffffffffffffff1614610ec257600080fd5b610ecb81611529565b610fda576000600c60008373ffffffffffffffffffffffffffffffffffffffff1673ffffffffffffffffffffffffffffffffffffffff16815260200190815260200160002060006101000a81548160ff021916908315150217905550600b819080600181540180825580915050600190039060005260206000200160009091909190916101000a81548173ffffffffffffffffffffffffffffffffffffffff021916908373ffffffffffffffffffffffffffffffffffffffff16021790555060096000815480929190610f9d90611d0c565b91905055507f30040c92e8da146ac410fb6841ea0f60af3b8f3788e5e7354e48d97d018f39dd81604051610fd191906119d1565b60405180910390a15b50565b6001806002811115610ff257610ff1611d84565b5b600e60009054906101000a900460ff16600281111561101457611013611d84565b5b1461101e57600080fd5b600f60009054906101000a900473ffffffffffffffffffffffffffffffffffffffff1673ffffffffffffffffffffffffffffffffffffffff163373ffffffffffffffffffffffffffffffffffffffff161461107857600080fd5b6002600e60006101000a81548160ff0219169083600281111561109e5761109d611d84565b5b02179055506012546013819055507fb43a401dcdbe02a8afa41feb6c651425997908d1a4b79cf505188ba1dd3fd8726013546040516110dd9190611aae565b60405180910390a150565b60018060000180546110f990611ca9565b80601f016020809104026020016040519081016040528092919081815260200182805461112590611ca9565b80156111725780601f1061114757610100808354040283529160200191611172565b820191906000526020600020905b81548152906001019060200180831161115557829003601f168201915b50505050509080600101805461118790611ca9565b80601f01602080910402602001604051908101604052809291908181526020018280546111b390611ca9565b80156112005780601f106111d557610100808354040283529160200191611200565b820191906000526020600020905b8154815290600101906020018083116111e357829003601f168201915b5050505050908060030154905083565b600f60009054906101000a900473ffffffffffffffffffffffffffffffffffffffff1681565b60085481111561127b576040517f08c379a000000000000000000000000000000000000000000000000000000000815260040161127290611a6e565b60405180910390fd5b600754816112899190611b91565b3410156112cb576040517f08c379a00000000000000000000000000000000000000000000000000000000081526004016112c290611a8e565b60405180910390fd5b6112d53382610cf0565b6112de33610e6a565b50565b60008054906101000a900473ffffffffffffffffffffffffffffffffffffffff1673ffffffffffffffffffffffffffffffffffffffff163373ffffffffffffffffffffffffffffffffffffffff161461133957600080fd5b600080600181111561134e5761134d611d84565b5b600a60009054906101000a900460ff1660018111156113705761136f611d84565b5b1461137a57600080fd5b6000604051806060016040528086815260200185815260200184815250905082600160030160008282546113ae9190611b3b565b92505081905550600160020181908060018154018082558091505060019003906000526020600020906003020160009091909190915060008201518160000190805190602001906114009291906115d7565b50602082015181600101908051906020019061141d9291906115d7565b506040820151816002015550506001600301546007819055507f4578fe17eaab41ae382abe3462bb0cf04bcfee4168d2aad3ce9d5d225d0e27f6856040516114659190611a07565b60405180910390a15050505050565b80600d60003373ffffffffffffffffffffffffffffffffffffffff1673ffffffffffffffffffffffffffffffffffffffff16815260200190815260200160002060008282546114c39190611beb565b9250508190555080600d60003073ffffffffffffffffffffffffffffffffffffffff1673ffffffffffffffffffffffffffffffffffffffff16815260200190815260200160002060008282546115199190611b3b565b9250508190555050565b60135481565b600080600090505b600b8054905081116115cc578273ffffffffffffffffffffffffffffffffffffffff16600b828154811061156857611567611de2565b5b9060005260206000200160009054906101000a900473ffffffffffffffffffffffffffffffffffffffff1673ffffffffffffffffffffffffffffffffffffffff1614156115b95760019150506115d2565b80806115c490611d0c565b915050611531565b50600090505b919050565b8280546115e390611ca9565b90600052602060002090601f016020900481019282611605576000855561164c565b82601f1061161e57805160ff191683800117855561164c565b8280016001018555821561164c579182015b8281111561164b578251825591602001919060010190611630565b5b509050611659919061168f565b5090565b6040518060400160405280600073ffffffffffffffffffffffffffffffffffffffff1681526020016000151581525090565b5b808211156116a8576000816000905550600101611690565b5090565b60006116bf6116ba84611aee565b611ac9565b9050828152602081018484840111156116db576116da611e45565b5b6116e6848285611c67565b509392505050565b6000813590506116fd81611edd565b92915050565b60008135905061171281611ef4565b92915050565b600082601f83011261172d5761172c611e40565b5b813561173d8482602086016116ac565b91505092915050565b60008135905061175581611f0b565b92915050565b60006020828403121561177157611770611e4f565b5b600061177f848285016116ee565b91505092915050565b6000806040838503121561179f5761179e611e4f565b5b60006117ad858286016116ee565b92505060206117be85828601611746565b9150509250929050565b6000602082840312156117de576117dd611e4f565b5b60006117ec84828501611703565b91505092915050565b6000806040838503121561180c5761180b611e4f565b5b600083013567ffffffffffffffff81111561182a57611829611e4a565b5b61183685828601611718565b925050602083013567ffffffffffffffff81111561185757611856611e4a565b5b61186385828601611718565b9150509250929050565b60008060006060848603121561188657611885611e4f565b5b600084013567ffffffffffffffff8111156118a4576118a3611e4a565b5b6118b086828701611718565b935050602084013567ffffffffffffffff8111156118d1576118d0611e4a565b5b6118dd86828701611718565b92505060406118ee86828701611746565b9150509250925092565b60006020828403121561190e5761190d611e4f565b5b600061191c84828501611746565b91505092915050565b61192e81611c1f565b82525050565b61193d81611c31565b82525050565b600061194e82611b1f565b6119588185611b2a565b9350611968818560208601611c76565b61197181611e54565b840191505092915050565b6000611989602383611b2a565b915061199482611e65565b604082019050919050565b60006119ac600e83611b2a565b91506119b782611eb4565b602082019050919050565b6119cb81611c5d565b82525050565b60006020820190506119e66000830184611925565b92915050565b6000602082019050611a016000830184611934565b92915050565b60006020820190508181036000830152611a218184611943565b905092915050565b60006060820190508181036000830152611a438186611943565b90508181036020830152611a578185611943565b9050611a6660408301846119c2565b949350505050565b60006020820190508181036000830152611a878161197c565b9050919050565b60006020820190508181036000830152611aa78161199f565b9050919050565b6000602082019050611ac360008301846119c2565b92915050565b6000611ad3611ae4565b9050611adf8282611cdb565b919050565b6000604051905090565b600067ffffffffffffffff821115611b0957611b08611e11565b5b611b1282611e54565b9050602081019050919050565b600081519050919050565b600082825260208201905092915050565b6000611b4682611c5d565b9150611b5183611c5d565b9250827fffffffffffffffffffffffffffffffffffffffffffffffffffffffffffffffff03821115611b8657611b85611d55565b5b828201905092915050565b6000611b9c82611c5d565b9150611ba783611c5d565b9250817fffffffffffffffffffffffffffffffffffffffffffffffffffffffffffffffff0483118215151615611be057611bdf611d55565b5b828202905092915050565b6000611bf682611c5d565b9150611c0183611c5d565b925082821015611c1457611c13611d55565b5b828203905092915050565b6000611c2a82611c3d565b9050919050565b60008115159050919050565b600073ffffffffffffffffffffffffffffffffffffffff82169050919050565b6000819050919050565b82818337600083830152505050565b60005b83811015611c94578082015181840152602081019050611c79565b83811115611ca3576000848401525b50505050565b60006002820490506001821680611cc157607f821691505b60208210811415611cd557611cd4611db3565b5b50919050565b611ce482611e54565b810181811067ffffffffffffffff82111715611d0357611d02611e11565b5b80604052505050565b6000611d1782611c5d565b91507fffffffffffffffffffffffffffffffffffffffffffffffffffffffffffffffff821415611d4a57611d49611d55565b5b600182019050919050565b7f4e487b7100000000000000000000000000000000000000000000000000000000600052601160045260246000fd5b7f4e487b7100000000000000000000000000000000000000000000000000000000600052602160045260246000fd5b7f4e487b7100000000000000000000000000000000000000000000000000000000600052602260045260246000fd5b7f4e487b7100000000000000000000000000000000000000000000000000000000600052603260045260246000fd5b7f4e487b7100000000000000000000000000000000000000000000000000000000600052604160045260246000fd5b600080fd5b600080fd5b600080fd5b600080fd5b6000601f19601f8301169050919050565b7f4e756d626572206f662073686172657320657863656564656420746865206c6960008201527f6d69740000000000000000000000000000000000000000000000000000000000602082015250565b7f4e6f7420656e6f75676820776569000000000000000000000000000000000000600082015250565b611ee681611c1f565b8114611ef157600080fd5b50565b611efd81611c31565b8114611f0857600080fd5b50565b611f1481611c5d565b8114611f1f57600080fd5b5056fea264697066735822122063d23392669972ae87b93b8962ef86ed9eaa0686f77eb66a22b18335c8742e8e64736f6c63430008070033",
					"opcodes": "PUSH1 0x80 PUSH1 0x40 MSTORE PUSH1 0x64 PUSH1 0x6 SSTORE PUSH1 0x1 PUSH1 0x7 SSTORE PUSH1 0xA PUSH1 0x8 SSTORE PUSH1 0x0 PUSH1 0x9 SSTORE PUSH1 0x0 PUSH1 0x12 SSTORE PUSH1 0x0 PUSH1 0x13 SSTORE PUSH1 0x0 PUSH1 0x14 SSTORE CALLVALUE DUP1 ISZERO PUSH3 0x34 JUMPI PUSH1 0x0 DUP1 REVERT JUMPDEST POP PUSH1 0x40 MLOAD PUSH3 0x2426 CODESIZE SUB DUP1 PUSH3 0x2426 DUP4 CODECOPY DUP2 DUP2 ADD PUSH1 0x40 MSTORE DUP2 ADD SWAP1 PUSH3 0x5A SWAP2 SWAP1 PUSH3 0x286 JUMP JUMPDEST CALLER PUSH1 0x0 DUP1 PUSH2 0x100 EXP DUP2 SLOAD DUP2 PUSH20 0xFFFFFFFFFFFFFFFFFFFFFFFFFFFFFFFFFFFFFFFF MUL NOT AND SWAP1 DUP4 PUSH20 0xFFFFFFFFFFFFFFFFFFFFFFFFFFFFFFFFFFFFFFFF AND MUL OR SWAP1 SSTORE POP PUSH1 0x6 SLOAD PUSH1 0xD PUSH1 0x0 CALLER PUSH20 0xFFFFFFFFFFFFFFFFFFFFFFFFFFFFFFFFFFFFFFFF AND PUSH20 0xFFFFFFFFFFFFFFFFFFFFFFFFFFFFFFFFFFFFFFFF AND DUP2 MSTORE PUSH1 0x20 ADD SWAP1 DUP2 MSTORE PUSH1 0x20 ADD PUSH1 0x0 KECCAK256 DUP2 SWAP1 SSTORE POP DUP2 PUSH1 0x1 PUSH1 0x0 ADD SWAP1 DUP1 MLOAD SWAP1 PUSH1 0x20 ADD SWAP1 PUSH3 0xFB SWAP3 SWAP2 SWAP1 PUSH3 0x158 JUMP JUMPDEST POP DUP1 PUSH1 0x1 DUP1 ADD SWAP1 DUP1 MLOAD SWAP1 PUSH1 0x20 ADD SWAP1 PUSH3 0x116 SWAP3 SWAP2 SWAP1 PUSH3 0x158 JUMP JUMPDEST POP PUSH1 0x0 PUSH1 0x1 PUSH1 0x3 ADD DUP2 SWAP1 SSTORE POP PUSH1 0x0 PUSH1 0xA PUSH1 0x0 PUSH2 0x100 EXP DUP2 SLOAD DUP2 PUSH1 0xFF MUL NOT AND SWAP1 DUP4 PUSH1 0x1 DUP2 GT ISZERO PUSH3 0x14B JUMPI PUSH3 0x14A PUSH3 0x40C JUMP JUMPDEST JUMPDEST MUL OR SWAP1 SSTORE POP POP POP PUSH3 0x4BE JUMP JUMPDEST DUP3 DUP1 SLOAD PUSH3 0x166 SWAP1 PUSH3 0x3A0 JUMP JUMPDEST SWAP1 PUSH1 0x0 MSTORE PUSH1 0x20 PUSH1 0x0 KECCAK256 SWAP1 PUSH1 0x1F ADD PUSH1 0x20 SWAP1 DIV DUP2 ADD SWAP3 DUP3 PUSH3 0x18A JUMPI PUSH1 0x0 DUP6 SSTORE PUSH3 0x1D6 JUMP JUMPDEST DUP3 PUSH1 0x1F LT PUSH3 0x1A5 JUMPI DUP1 MLOAD PUSH1 0xFF NOT AND DUP4 DUP1 ADD OR DUP6 SSTORE PUSH3 0x1D6 JUMP JUMPDEST DUP3 DUP1 ADD PUSH1 0x1 ADD DUP6 SSTORE DUP3 ISZERO PUSH3 0x1D6 JUMPI SWAP2 DUP3 ADD JUMPDEST DUP3 DUP2 GT ISZERO PUSH3 0x1D5 JUMPI DUP3 MLOAD DUP3 SSTORE SWAP2 PUSH1 0x20 ADD SWAP2 SWAP1 PUSH1 0x1 ADD SWAP1 PUSH3 0x1B8 JUMP JUMPDEST JUMPDEST POP SWAP1 POP PUSH3 0x1E5 SWAP2 SWAP1 PUSH3 0x1E9 JUMP JUMPDEST POP SWAP1 JUMP JUMPDEST JUMPDEST DUP1 DUP3 GT ISZERO PUSH3 0x204 JUMPI PUSH1 0x0 DUP2 PUSH1 0x0 SWAP1 SSTORE POP PUSH1 0x1 ADD PUSH3 0x1EA JUMP JUMPDEST POP SWAP1 JUMP JUMPDEST PUSH1 0x0 PUSH3 0x21F PUSH3 0x219 DUP5 PUSH3 0x334 JUMP JUMPDEST PUSH3 0x30B JUMP JUMPDEST SWAP1 POP DUP3 DUP2 MSTORE PUSH1 0x20 DUP2 ADD DUP5 DUP5 DUP5 ADD GT ISZERO PUSH3 0x23E JUMPI PUSH3 0x23D PUSH3 0x49E JUMP JUMPDEST JUMPDEST PUSH3 0x24B DUP5 DUP3 DUP6 PUSH3 0x36A JUMP JUMPDEST POP SWAP4 SWAP3 POP POP POP JUMP JUMPDEST PUSH1 0x0 DUP3 PUSH1 0x1F DUP4 ADD SLT PUSH3 0x26B JUMPI PUSH3 0x26A PUSH3 0x499 JUMP JUMPDEST JUMPDEST DUP2 MLOAD PUSH3 0x27D DUP5 DUP3 PUSH1 0x20 DUP7 ADD PUSH3 0x208 JUMP JUMPDEST SWAP2 POP POP SWAP3 SWAP2 POP POP JUMP JUMPDEST PUSH1 0x0 DUP1 PUSH1 0x40 DUP4 DUP6 SUB SLT ISZERO PUSH3 0x2A0 JUMPI PUSH3 0x29F PUSH3 0x4A8 JUMP JUMPDEST JUMPDEST PUSH1 0x0 DUP4 ADD MLOAD PUSH8 0xFFFFFFFFFFFFFFFF DUP2 GT ISZERO PUSH3 0x2C1 JUMPI PUSH3 0x2C0 PUSH3 0x4A3 JUMP JUMPDEST JUMPDEST PUSH3 0x2CF DUP6 DUP3 DUP7 ADD PUSH3 0x253 JUMP JUMPDEST SWAP3 POP POP PUSH1 0x20 DUP4 ADD MLOAD PUSH8 0xFFFFFFFFFFFFFFFF DUP2 GT ISZERO PUSH3 0x2F3 JUMPI PUSH3 0x2F2 PUSH3 0x4A3 JUMP JUMPDEST JUMPDEST PUSH3 0x301 DUP6 DUP3 DUP7 ADD PUSH3 0x253 JUMP JUMPDEST SWAP2 POP POP SWAP3 POP SWAP3 SWAP1 POP JUMP JUMPDEST PUSH1 0x0 PUSH3 0x317 PUSH3 0x32A JUMP JUMPDEST SWAP1 POP PUSH3 0x325 DUP3 DUP3 PUSH3 0x3D6 JUMP JUMPDEST SWAP2 SWAP1 POP JUMP JUMPDEST PUSH1 0x0 PUSH1 0x40 MLOAD SWAP1 POP SWAP1 JUMP JUMPDEST PUSH1 0x0 PUSH8 0xFFFFFFFFFFFFFFFF DUP3 GT ISZERO PUSH3 0x352 JUMPI PUSH3 0x351 PUSH3 0x46A JUMP JUMPDEST JUMPDEST PUSH3 0x35D DUP3 PUSH3 0x4AD JUMP JUMPDEST SWAP1 POP PUSH1 0x20 DUP2 ADD SWAP1 POP SWAP2 SWAP1 POP JUMP JUMPDEST PUSH1 0x0 JUMPDEST DUP4 DUP2 LT ISZERO PUSH3 0x38A JUMPI DUP1 DUP3 ADD MLOAD DUP2 DUP5 ADD MSTORE PUSH1 0x20 DUP2 ADD SWAP1 POP PUSH3 0x36D JUMP JUMPDEST DUP4 DUP2 GT ISZERO PUSH3 0x39A JUMPI PUSH1 0x0 DUP5 DUP5 ADD MSTORE JUMPDEST POP POP POP POP JUMP JUMPDEST PUSH1 0x0 PUSH1 0x2 DUP3 DIV SWAP1 POP PUSH1 0x1 DUP3 AND DUP1 PUSH3 0x3B9 JUMPI PUSH1 0x7F DUP3 AND SWAP2 POP JUMPDEST PUSH1 0x20 DUP3 LT DUP2 EQ ISZERO PUSH3 0x3D0 JUMPI PUSH3 0x3CF PUSH3 0x43B JUMP JUMPDEST JUMPDEST POP SWAP2 SWAP1 POP JUMP JUMPDEST PUSH3 0x3E1 DUP3 PUSH3 0x4AD JUMP JUMPDEST DUP2 ADD DUP2 DUP2 LT PUSH8 0xFFFFFFFFFFFFFFFF DUP3 GT OR ISZERO PUSH3 0x403 JUMPI PUSH3 0x402 PUSH3 0x46A JUMP JUMPDEST JUMPDEST DUP1 PUSH1 0x40 MSTORE POP POP POP JUMP JUMPDEST PUSH32 0x4E487B7100000000000000000000000000000000000000000000000000000000 PUSH1 0x0 MSTORE PUSH1 0x21 PUSH1 0x4 MSTORE PUSH1 0x24 PUSH1 0x0 REVERT JUMPDEST PUSH32 0x4E487B7100000000000000000000000000000000000000000000000000000000 PUSH1 0x0 MSTORE PUSH1 0x22 PUSH1 0x4 MSTORE PUSH1 0x24 PUSH1 0x0 REVERT JUMPDEST PUSH32 0x4E487B7100000000000000000000000000000000000000000000000000000000 PUSH1 0x0 MSTORE PUSH1 0x41 PUSH1 0x4 MSTORE PUSH1 0x24 PUSH1 0x0 REVERT JUMPDEST PUSH1 0x0 DUP1 REVERT JUMPDEST PUSH1 0x0 DUP1 REVERT JUMPDEST PUSH1 0x0 DUP1 REVERT JUMPDEST PUSH1 0x0 DUP1 REVERT JUMPDEST PUSH1 0x0 PUSH1 0x1F NOT PUSH1 0x1F DUP4 ADD AND SWAP1 POP SWAP2 SWAP1 POP JUMP JUMPDEST PUSH2 0x1F58 DUP1 PUSH3 0x4CE PUSH1 0x0 CODECOPY PUSH1 0x0 RETURN INVALID PUSH1 0x80 PUSH1 0x40 MSTORE PUSH1 0x4 CALLDATASIZE LT PUSH2 0x166 JUMPI PUSH1 0x0 CALLDATALOAD PUSH1 0xE0 SHR DUP1 PUSH4 0x8DA5CB5B GT PUSH2 0xD1 JUMPI DUP1 PUSH4 0xB9223946 GT PUSH2 0x8A JUMPI DUP1 PUSH4 0xD96A094A GT PUSH2 0x64 JUMPI DUP1 PUSH4 0xD96A094A EQ PUSH2 0x4FC JUMPI DUP1 PUSH4 0xDF094409 EQ PUSH2 0x518 JUMPI DUP1 PUSH4 0xE4849B32 EQ PUSH2 0x541 JUMPI DUP1 PUSH4 0xF3A8286F EQ PUSH2 0x56A JUMPI PUSH2 0x166 JUMP JUMPDEST DUP1 PUSH4 0xB9223946 EQ PUSH2 0x48D JUMPI DUP1 PUSH4 0xD8124C5F EQ PUSH2 0x4A4 JUMPI DUP1 PUSH4 0xD8335B53 EQ PUSH2 0x4D1 JUMPI PUSH2 0x166 JUMP JUMPDEST DUP1 PUSH4 0x8DA5CB5B EQ PUSH2 0x37B JUMPI DUP1 PUSH4 0x9A982416 EQ PUSH2 0x3A6 JUMPI DUP1 PUSH4 0xA14BA987 EQ PUSH2 0x3D1 JUMPI DUP1 PUSH4 0xA9059CBB EQ PUSH2 0x410 JUMPI DUP1 PUSH4 0xAD349442 EQ PUSH2 0x439 JUMPI DUP1 PUSH4 0xAF769C64 EQ PUSH2 0x464 JUMPI PUSH2 0x166 JUMP JUMPDEST DUP1 PUSH4 0x59EA0173 GT PUSH2 0x123 JUMPI DUP1 PUSH4 0x59EA0173 EQ PUSH2 0x245 JUMPI DUP1 PUSH4 0x6FA4F103 EQ PUSH2 0x282 JUMPI DUP1 PUSH4 0x7427A40C EQ PUSH2 0x2AB JUMPI DUP1 PUSH4 0x753EC103 EQ PUSH2 0x2E8 JUMPI DUP1 PUSH4 0x7FF9B596 EQ PUSH2 0x313 JUMPI DUP1 PUSH4 0x87CAEA78 EQ PUSH2 0x33E JUMPI PUSH2 0x166 JUMP JUMPDEST DUP1 PUSH4 0xD15FD77 EQ PUSH2 0x16B JUMPI DUP1 PUSH4 0x1B26586C EQ PUSH2 0x196 JUMPI DUP1 PUSH4 0x293230B8 EQ PUSH2 0x1C1 JUMPI DUP1 PUSH4 0x3A98EF39 EQ PUSH2 0x1D8 JUMPI DUP1 PUSH4 0x3BE75AA3 EQ PUSH2 0x203 JUMPI DUP1 PUSH4 0x4C0A6AF0 EQ PUSH2 0x22E JUMPI JUMPDEST PUSH1 0x0 DUP1 REVERT JUMPDEST CALLVALUE DUP1 ISZERO PUSH2 0x177 JUMPI PUSH1 0x0 DUP1 REVERT JUMPDEST POP PUSH2 0x180 PUSH2 0x595 JUMP JUMPDEST PUSH1 0x40 MLOAD PUSH2 0x18D SWAP2 SWAP1 PUSH2 0x1AAE JUMP JUMPDEST PUSH1 0x40 MLOAD DUP1 SWAP2 SUB SWAP1 RETURN JUMPDEST CALLVALUE DUP1 ISZERO PUSH2 0x1A2 JUMPI PUSH1 0x0 DUP1 REVERT JUMPDEST POP PUSH2 0x1AB PUSH2 0x59B JUMP JUMPDEST PUSH1 0x40 MLOAD PUSH2 0x1B8 SWAP2 SWAP1 PUSH2 0x1A07 JUMP JUMPDEST PUSH1 0x40 MLOAD DUP1 SWAP2 SUB SWAP1 RETURN JUMPDEST CALLVALUE DUP1 ISZERO PUSH2 0x1CD JUMPI PUSH1 0x0 DUP1 REVERT JUMPDEST POP PUSH2 0x1D6 PUSH2 0x629 JUMP JUMPDEST STOP JUMPDEST CALLVALUE DUP1 ISZERO PUSH2 0x1E4 JUMPI PUSH1 0x0 DUP1 REVERT JUMPDEST POP PUSH2 0x1ED PUSH2 0x6AE JUMP JUMPDEST PUSH1 0x40 MLOAD PUSH2 0x1FA SWAP2 SWAP1 PUSH2 0x1AAE JUMP JUMPDEST PUSH1 0x40 MLOAD DUP1 SWAP2 SUB SWAP1 RETURN JUMPDEST CALLVALUE DUP1 ISZERO PUSH2 0x20F JUMPI PUSH1 0x0 DUP1 REVERT JUMPDEST POP PUSH2 0x218 PUSH2 0x6B4 JUMP JUMPDEST PUSH1 0x40 MLOAD PUSH2 0x225 SWAP2 SWAP1 PUSH2 0x1AAE JUMP JUMPDEST PUSH1 0x40 MLOAD DUP1 SWAP2 SUB SWAP1 RETURN JUMPDEST CALLVALUE DUP1 ISZERO PUSH2 0x23A JUMPI PUSH1 0x0 DUP1 REVERT JUMPDEST POP PUSH2 0x243 PUSH2 0x6BA JUMP JUMPDEST STOP JUMPDEST CALLVALUE DUP1 ISZERO PUSH2 0x251 JUMPI PUSH1 0x0 DUP1 REVERT JUMPDEST POP PUSH2 0x26C PUSH1 0x4 DUP1 CALLDATASIZE SUB DUP2 ADD SWAP1 PUSH2 0x267 SWAP2 SWAP1 PUSH2 0x175B JUMP JUMPDEST PUSH2 0x7AF JUMP JUMPDEST PUSH1 0x40 MLOAD PUSH2 0x279 SWAP2 SWAP1 PUSH2 0x19EC JUMP JUMPDEST PUSH1 0x40 MLOAD DUP1 SWAP2 SUB SWAP1 RETURN JUMPDEST CALLVALUE DUP1 ISZERO PUSH2 0x28E JUMPI PUSH1 0x0 DUP1 REVERT JUMPDEST POP PUSH2 0x2A9 PUSH1 0x4 DUP1 CALLDATASIZE SUB DUP2 ADD SWAP1 PUSH2 0x2A4 SWAP2 SWAP1 PUSH2 0x17F5 JUMP JUMPDEST PUSH2 0x7CF JUMP JUMPDEST STOP JUMPDEST CALLVALUE DUP1 ISZERO PUSH2 0x2B7 JUMPI PUSH1 0x0 DUP1 REVERT JUMPDEST POP PUSH2 0x2D2 PUSH1 0x4 DUP1 CALLDATASIZE SUB DUP2 ADD SWAP1 PUSH2 0x2CD SWAP2 SWAP1 PUSH2 0x18F8 JUMP JUMPDEST PUSH2 0x86D JUMP JUMPDEST PUSH1 0x40 MLOAD PUSH2 0x2DF SWAP2 SWAP1 PUSH2 0x19D1 JUMP JUMPDEST PUSH1 0x40 MLOAD DUP1 SWAP2 SUB SWAP1 RETURN JUMPDEST CALLVALUE DUP1 ISZERO PUSH2 0x2F4 JUMPI PUSH1 0x0 DUP1 REVERT JUMPDEST POP PUSH2 0x2FD PUSH2 0x8AC JUMP JUMPDEST PUSH1 0x40 MLOAD PUSH2 0x30A SWAP2 SWAP1 PUSH2 0x1A07 JUMP JUMPDEST PUSH1 0x40 MLOAD DUP1 SWAP2 SUB SWAP1 RETURN JUMPDEST CALLVALUE DUP1 ISZERO PUSH2 0x31F JUMPI PUSH1 0x0 DUP1 REVERT JUMPDEST POP PUSH2 0x328 PUSH2 0x93A JUMP JUMPDEST PUSH1 0x40 MLOAD PUSH2 0x335 SWAP2 SWAP1 PUSH2 0x1AAE JUMP JUMPDEST PUSH1 0x40 MLOAD DUP1 SWAP2 SUB SWAP1 RETURN JUMPDEST CALLVALUE DUP1 ISZERO PUSH2 0x34A JUMPI PUSH1 0x0 DUP1 REVERT JUMPDEST POP PUSH2 0x365 PUSH1 0x4 DUP1 CALLDATASIZE SUB DUP2 ADD SWAP1 PUSH2 0x360 SWAP2 SWAP1 PUSH2 0x17C8 JUMP JUMPDEST PUSH2 0x940 JUMP JUMPDEST PUSH1 0x40 MLOAD PUSH2 0x372 SWAP2 SWAP1 PUSH2 0x19EC JUMP JUMPDEST PUSH1 0x40 MLOAD DUP1 SWAP2 SUB SWAP1 RETURN JUMPDEST CALLVALUE DUP1 ISZERO PUSH2 0x387 JUMPI PUSH1 0x0 DUP1 REVERT JUMPDEST POP PUSH2 0x390 PUSH2 0xB7C JUMP JUMPDEST PUSH1 0x40 MLOAD PUSH2 0x39D SWAP2 SWAP1 PUSH2 0x19D1 JUMP JUMPDEST PUSH1 0x40 MLOAD DUP1 SWAP2 SUB SWAP1 RETURN JUMPDEST CALLVALUE DUP1 ISZERO PUSH2 0x3B2 JUMPI PUSH1 0x0 DUP1 REVERT JUMPDEST POP PUSH2 0x3BB PUSH2 0xBA0 JUMP JUMPDEST PUSH1 0x40 MLOAD PUSH2 0x3C8 SWAP2 SWAP1 PUSH2 0x1AAE JUMP JUMPDEST PUSH1 0x40 MLOAD DUP1 SWAP2 SUB SWAP1 RETURN JUMPDEST CALLVALUE DUP1 ISZERO PUSH2 0x3DD JUMPI PUSH1 0x0 DUP1 REVERT JUMPDEST POP PUSH2 0x3F8 PUSH1 0x4 DUP1 CALLDATASIZE SUB DUP2 ADD SWAP1 PUSH2 0x3F3 SWAP2 SWAP1 PUSH2 0x18F8 JUMP JUMPDEST PUSH2 0xBA6 JUMP JUMPDEST PUSH1 0x40 MLOAD PUSH2 0x407 SWAP4 SWAP3 SWAP2 SWAP1 PUSH2 0x1A29 JUMP JUMPDEST PUSH1 0x40 MLOAD DUP1 SWAP2 SUB SWAP1 RETURN JUMPDEST CALLVALUE DUP1 ISZERO PUSH2 0x41C JUMPI PUSH1 0x0 DUP1 REVERT JUMPDEST POP PUSH2 0x437 PUSH1 0x4 DUP1 CALLDATASIZE SUB DUP2 ADD SWAP1 PUSH2 0x432 SWAP2 SWAP1 PUSH2 0x1788 JUMP JUMPDEST PUSH2 0xCF0 JUMP JUMPDEST STOP JUMPDEST CALLVALUE DUP1 ISZERO PUSH2 0x445 JUMPI PUSH1 0x0 DUP1 REVERT JUMPDEST POP PUSH2 0x44E PUSH2 0xE44 JUMP JUMPDEST PUSH1 0x40 MLOAD PUSH2 0x45B SWAP2 SWAP1 PUSH2 0x19D1 JUMP JUMPDEST PUSH1 0x40 MLOAD DUP1 SWAP2 SUB SWAP1 RETURN JUMPDEST CALLVALUE DUP1 ISZERO PUSH2 0x470 JUMPI PUSH1 0x0 DUP1 REVERT JUMPDEST POP PUSH2 0x48B PUSH1 0x4 DUP1 CALLDATASIZE SUB DUP2 ADD SWAP1 PUSH2 0x486 SWAP2 SWAP1 PUSH2 0x175B JUMP JUMPDEST PUSH2 0xE6A JUMP JUMPDEST STOP JUMPDEST CALLVALUE DUP1 ISZERO PUSH2 0x499 JUMPI PUSH1 0x0 DUP1 REVERT JUMPDEST POP PUSH2 0x4A2 PUSH2 0xFDD JUMP JUMPDEST STOP JUMPDEST CALLVALUE DUP1 ISZERO PUSH2 0x4B0 JUMPI PUSH1 0x0 DUP1 REVERT JUMPDEST POP PUSH2 0x4B9 PUSH2 0x10E8 JUMP JUMPDEST PUSH1 0x40 MLOAD PUSH2 0x4C8 SWAP4 SWAP3 SWAP2 SWAP1 PUSH2 0x1A29 JUMP JUMPDEST PUSH1 0x40 MLOAD DUP1 SWAP2 SUB SWAP1 RETURN JUMPDEST CALLVALUE DUP1 ISZERO PUSH2 0x4DD JUMPI PUSH1 0x0 DUP1 REVERT JUMPDEST POP PUSH2 0x4E6 PUSH2 0x1210 JUMP JUMPDEST PUSH1 0x40 MLOAD PUSH2 0x4F3 SWAP2 SWAP1 PUSH2 0x19D1 JUMP JUMPDEST PUSH1 0x40 MLOAD DUP1 SWAP2 SUB SWAP1 RETURN JUMPDEST PUSH2 0x516 PUSH1 0x4 DUP1 CALLDATASIZE SUB DUP2 ADD SWAP1 PUSH2 0x511 SWAP2 SWAP1 PUSH2 0x18F8 JUMP JUMPDEST PUSH2 0x1236 JUMP JUMPDEST STOP JUMPDEST CALLVALUE DUP1 ISZERO PUSH2 0x524 JUMPI PUSH1 0x0 DUP1 REVERT JUMPDEST POP PUSH2 0x53F PUSH1 0x4 DUP1 CALLDATASIZE SUB DUP2 ADD SWAP1 PUSH2 0x53A SWAP2 SWAP1 PUSH2 0x186D JUMP JUMPDEST PUSH2 0x12E1 JUMP JUMPDEST STOP JUMPDEST CALLVALUE DUP1 ISZERO PUSH2 0x54D JUMPI PUSH1 0x0 DUP1 REVERT JUMPDEST POP PUSH2 0x568 PUSH1 0x4 DUP1 CALLDATASIZE SUB DUP2 ADD SWAP1 PUSH2 0x563 SWAP2 SWAP1 PUSH2 0x18F8 JUMP JUMPDEST PUSH2 0x1474 JUMP JUMPDEST STOP JUMPDEST CALLVALUE DUP1 ISZERO PUSH2 0x576 JUMPI PUSH1 0x0 DUP1 REVERT JUMPDEST POP PUSH2 0x57F PUSH2 0x1523 JUMP JUMPDEST PUSH1 0x40 MLOAD PUSH2 0x58C SWAP2 SWAP1 PUSH2 0x1AAE JUMP JUMPDEST PUSH1 0x40 MLOAD DUP1 SWAP2 SUB SWAP1 RETURN JUMPDEST PUSH1 0x14 SLOAD DUP2 JUMP JUMPDEST PUSH1 0x10 DUP1 SLOAD PUSH2 0x5A8 SWAP1 PUSH2 0x1CA9 JUMP JUMPDEST DUP1 PUSH1 0x1F ADD PUSH1 0x20 DUP1 SWAP2 DIV MUL PUSH1 0x20 ADD PUSH1 0x40 MLOAD SWAP1 DUP2 ADD PUSH1 0x40 MSTORE DUP1 SWAP3 SWAP2 SWAP1 DUP2 DUP2 MSTORE PUSH1 0x20 ADD DUP3 DUP1 SLOAD PUSH2 0x5D4 SWAP1 PUSH2 0x1CA9 JUMP JUMPDEST DUP1 ISZERO PUSH2 0x621 JUMPI DUP1 PUSH1 0x1F LT PUSH2 0x5F6 JUMPI PUSH2 0x100 DUP1 DUP4 SLOAD DIV MUL DUP4 MSTORE SWAP2 PUSH1 0x20 ADD SWAP2 PUSH2 0x621 JUMP JUMPDEST DUP3 ADD SWAP2 SWAP1 PUSH1 0x0 MSTORE PUSH1 0x20 PUSH1 0x0 KECCAK256 SWAP1 JUMPDEST DUP2 SLOAD DUP2 MSTORE SWAP1 PUSH1 0x1 ADD SWAP1 PUSH1 0x20 ADD DUP1 DUP4 GT PUSH2 0x604 JUMPI DUP3 SWAP1 SUB PUSH1 0x1F AND DUP3 ADD SWAP2 JUMPDEST POP POP POP POP POP DUP2 JUMP JUMPDEST PUSH1 0x0 DUP1 SLOAD SWAP1 PUSH2 0x100 EXP SWAP1 DIV PUSH20 0xFFFFFFFFFFFFFFFFFFFFFFFFFFFFFFFFFFFFFFFF AND PUSH20 0xFFFFFFFFFFFFFFFFFFFFFFFFFFFFFFFFFFFFFFFF AND CALLER PUSH20 0xFFFFFFFFFFFFFFFFFFFFFFFFFFFFFFFFFFFFFFFF AND EQ PUSH2 0x681 JUMPI PUSH1 0x0 DUP1 REVERT JUMPDEST PUSH1 0x1 PUSH1 0xA PUSH1 0x0 PUSH2 0x100 EXP DUP2 SLOAD DUP2 PUSH1 0xFF MUL NOT AND SWAP1 DUP4 PUSH1 0x1 DUP2 GT ISZERO PUSH2 0x6A7 JUMPI PUSH2 0x6A6 PUSH2 0x1D84 JUMP JUMPDEST JUMPDEST MUL OR SWAP1 SSTORE POP JUMP JUMPDEST PUSH1 0x6 SLOAD DUP2 JUMP JUMPDEST PUSH1 0x8 SLOAD DUP2 JUMP JUMPDEST PUSH1 0x0 DUP1 PUSH1 0x2 DUP2 GT ISZERO PUSH2 0x6CF JUMPI PUSH2 0x6CE PUSH2 0x1D84 JUMP JUMPDEST JUMPDEST PUSH1 0xE PUSH1 0x0 SWAP1 SLOAD SWAP1 PUSH2 0x100 EXP SWAP1 DIV PUSH1 0xFF AND PUSH1 0x2 DUP2 GT ISZERO PUSH2 0x6F1 JUMPI PUSH2 0x6F0 PUSH2 0x1D84 JUMP JUMPDEST JUMPDEST EQ PUSH2 0x6FB JUMPI PUSH1 0x0 DUP1 REVERT JUMPDEST PUSH1 0xF PUSH1 0x0 SWAP1 SLOAD SWAP1 PUSH2 0x100 EXP SWAP1 DIV PUSH20 0xFFFFFFFFFFFFFFFFFFFFFFFFFFFFFFFFFFFFFFFF AND PUSH20 0xFFFFFFFFFFFFFFFFFFFFFFFFFFFFFFFFFFFFFFFF AND CALLER PUSH20 0xFFFFFFFFFFFFFFFFFFFFFFFFFFFFFFFFFFFFFFFF AND EQ PUSH2 0x755 JUMPI PUSH1 0x0 DUP1 REVERT JUMPDEST PUSH1 0x1 PUSH1 0xE PUSH1 0x0 PUSH2 0x100 EXP DUP2 SLOAD DUP2 PUSH1 0xFF MUL NOT AND SWAP1 DUP4 PUSH1 0x2 DUP2 GT ISZERO PUSH2 0x77B JUMPI PUSH2 0x77A PUSH2 0x1D84 JUMP JUMPDEST JUMPDEST MUL OR SWAP1 SSTORE POP PUSH32 0xD0DC01800A369FEF30D3FCED5275B8B916549867622E79EFCA5245C479FDA4EA PUSH1 0x40 MLOAD PUSH1 0x40 MLOAD DUP1 SWAP2 SUB SWAP1 LOG1 POP JUMP JUMPDEST PUSH1 0xC PUSH1 0x20 MSTORE DUP1 PUSH1 0x0 MSTORE PUSH1 0x40 PUSH1 0x0 KECCAK256 PUSH1 0x0 SWAP2 POP SLOAD SWAP1 PUSH2 0x100 EXP SWAP1 DIV PUSH1 0xFF AND DUP2 JUMP JUMPDEST PUSH1 0x0 PUSH1 0xE PUSH1 0x0 PUSH2 0x100 EXP DUP2 SLOAD DUP2 PUSH1 0xFF MUL NOT AND SWAP1 DUP4 PUSH1 0x2 DUP2 GT ISZERO PUSH2 0x7F5 JUMPI PUSH2 0x7F4 PUSH2 0x1D84 JUMP JUMPDEST JUMPDEST MUL OR SWAP1 SSTORE POP DUP2 PUSH1 0x10 SWAP1 DUP1 MLOAD SWAP1 PUSH1 0x20 ADD SWAP1 PUSH2 0x810 SWAP3 SWAP2 SWAP1 PUSH2 0x15D7 JUMP JUMPDEST POP DUP1 PUSH1 0x11 SWAP1 DUP1 MLOAD SWAP1 PUSH1 0x20 ADD SWAP1 PUSH2 0x827 SWAP3 SWAP2 SWAP1 PUSH2 0x15D7 JUMP JUMPDEST POP CALLER PUSH1 0xE PUSH1 0x1 PUSH2 0x100 EXP DUP2 SLOAD DUP2 PUSH20 0xFFFFFFFFFFFFFFFFFFFFFFFFFFFFFFFFFFFFFFFF MUL NOT AND SWAP1 DUP4 PUSH20 0xFFFFFFFFFFFFFFFFFFFFFFFFFFFFFFFFFFFFFFFF AND MUL OR SWAP1 SSTORE POP POP POP JUMP JUMPDEST PUSH1 0xB DUP2 DUP2 SLOAD DUP2 LT PUSH2 0x87D JUMPI PUSH1 0x0 DUP1 REVERT JUMPDEST SWAP1 PUSH1 0x0 MSTORE PUSH1 0x20 PUSH1 0x0 KECCAK256 ADD PUSH1 0x0 SWAP2 POP SLOAD SWAP1 PUSH2 0x100 EXP SWAP1 DIV PUSH20 0xFFFFFFFFFFFFFFFFFFFFFFFFFFFFFFFFFFFFFFFF AND DUP2 JUMP JUMPDEST PUSH1 0x11 DUP1 SLOAD PUSH2 0x8B9 SWAP1 PUSH2 0x1CA9 JUMP JUMPDEST DUP1 PUSH1 0x1F ADD PUSH1 0x20 DUP1 SWAP2 DIV MUL PUSH1 0x20 ADD PUSH1 0x40 MLOAD SWAP1 DUP2 ADD PUSH1 0x40 MSTORE DUP1 SWAP3 SWAP2 SWAP1 DUP2 DUP2 MSTORE PUSH1 0x20 ADD DUP3 DUP1 SLOAD PUSH2 0x8E5 SWAP1 PUSH2 0x1CA9 JUMP JUMPDEST DUP1 ISZERO PUSH2 0x932 JUMPI DUP1 PUSH1 0x1F LT PUSH2 0x907 JUMPI PUSH2 0x100 DUP1 DUP4 SLOAD DIV MUL DUP4 MSTORE SWAP2 PUSH1 0x20 ADD SWAP2 PUSH2 0x932 JUMP JUMPDEST DUP3 ADD SWAP2 SWAP1 PUSH1 0x0 MSTORE PUSH1 0x20 PUSH1 0x0 KECCAK256 SWAP1 JUMPDEST DUP2 SLOAD DUP2 MSTORE SWAP1 PUSH1 0x1 ADD SWAP1 PUSH1 0x20 ADD DUP1 DUP4 GT PUSH2 0x915 JUMPI DUP3 SWAP1 SUB PUSH1 0x1F AND DUP3 ADD SWAP2 JUMPDEST POP POP POP POP POP DUP2 JUMP JUMPDEST PUSH1 0x7 SLOAD DUP2 JUMP JUMPDEST PUSH1 0x0 PUSH1 0x1 DUP1 PUSH1 0x2 DUP2 GT ISZERO PUSH2 0x957 JUMPI PUSH2 0x956 PUSH2 0x1D84 JUMP JUMPDEST JUMPDEST PUSH1 0xE PUSH1 0x0 SWAP1 SLOAD SWAP1 PUSH2 0x100 EXP SWAP1 DIV PUSH1 0xFF AND PUSH1 0x2 DUP2 GT ISZERO PUSH2 0x979 JUMPI PUSH2 0x978 PUSH2 0x1D84 JUMP JUMPDEST JUMPDEST EQ PUSH2 0x983 JUMPI PUSH1 0x0 DUP1 REVERT JUMPDEST PUSH1 0x0 PUSH1 0xC PUSH1 0x0 CALLER PUSH20 0xFFFFFFFFFFFFFFFFFFFFFFFFFFFFFFFFFFFFFFFF AND PUSH20 0xFFFFFFFFFFFFFFFFFFFFFFFFFFFFFFFFFFFFFFFF AND DUP2 MSTORE PUSH1 0x20 ADD SWAP1 DUP2 MSTORE PUSH1 0x20 ADD PUSH1 0x0 KECCAK256 PUSH1 0x0 SWAP1 SLOAD SWAP1 PUSH2 0x100 EXP SWAP1 DIV PUSH1 0xFF AND PUSH2 0xB3B JUMPI PUSH1 0x1 PUSH1 0xC PUSH1 0x0 CALLER PUSH20 0xFFFFFFFFFFFFFFFFFFFFFFFFFFFFFFFFFFFFFFFF AND PUSH20 0xFFFFFFFFFFFFFFFFFFFFFFFFFFFFFFFFFFFFFFFF AND DUP2 MSTORE PUSH1 0x20 ADD SWAP1 DUP2 MSTORE PUSH1 0x20 ADD PUSH1 0x0 KECCAK256 PUSH1 0x0 PUSH2 0x100 EXP DUP2 SLOAD DUP2 PUSH1 0xFF MUL NOT AND SWAP1 DUP4 ISZERO ISZERO MUL OR SWAP1 SSTORE POP PUSH2 0xA36 PUSH2 0x165D JUMP JUMPDEST CALLER DUP2 PUSH1 0x0 ADD SWAP1 PUSH20 0xFFFFFFFFFFFFFFFFFFFFFFFFFFFFFFFFFFFFFFFF AND SWAP1 DUP2 PUSH20 0xFFFFFFFFFFFFFFFFFFFFFFFFFFFFFFFFFFFFFFFF AND DUP2 MSTORE POP POP DUP5 DUP2 PUSH1 0x20 ADD SWAP1 ISZERO ISZERO SWAP1 DUP2 ISZERO ISZERO DUP2 MSTORE POP POP DUP5 ISZERO PUSH2 0xA9D JUMPI PUSH1 0x12 PUSH1 0x0 DUP2 SLOAD DUP1 SWAP3 SWAP2 SWAP1 PUSH2 0xA97 SWAP1 PUSH2 0x1D0C JUMP JUMPDEST SWAP2 SWAP1 POP SSTORE POP JUMPDEST DUP1 PUSH1 0x15 PUSH1 0x0 PUSH1 0x14 SLOAD DUP2 MSTORE PUSH1 0x20 ADD SWAP1 DUP2 MSTORE PUSH1 0x20 ADD PUSH1 0x0 KECCAK256 PUSH1 0x0 DUP3 ADD MLOAD DUP2 PUSH1 0x0 ADD PUSH1 0x0 PUSH2 0x100 EXP DUP2 SLOAD DUP2 PUSH20 0xFFFFFFFFFFFFFFFFFFFFFFFFFFFFFFFFFFFFFFFF MUL NOT AND SWAP1 DUP4 PUSH20 0xFFFFFFFFFFFFFFFFFFFFFFFFFFFFFFFFFFFFFFFF AND MUL OR SWAP1 SSTORE POP PUSH1 0x20 DUP3 ADD MLOAD DUP2 PUSH1 0x0 ADD PUSH1 0x14 PUSH2 0x100 EXP DUP2 SLOAD DUP2 PUSH1 0xFF MUL NOT AND SWAP1 DUP4 ISZERO ISZERO MUL OR SWAP1 SSTORE POP SWAP1 POP POP PUSH1 0x14 PUSH1 0x0 DUP2 SLOAD DUP1 SWAP3 SWAP2 SWAP1 PUSH2 0xB30 SWAP1 PUSH2 0x1D0C JUMP JUMPDEST SWAP2 SWAP1 POP SSTORE POP PUSH1 0x1 SWAP2 POP POP JUMPDEST PUSH32 0x55C65CF9526EFDF6C2252FE9757889DBD93E10172CAD0F2EDB1DF619C88DBF7D CALLER PUSH1 0x40 MLOAD PUSH2 0xB6A SWAP2 SWAP1 PUSH2 0x19D1 JUMP JUMPDEST PUSH1 0x40 MLOAD DUP1 SWAP2 SUB SWAP1 LOG1 DUP1 SWAP3 POP POP POP SWAP2 SWAP1 POP JUMP JUMPDEST PUSH1 0x0 DUP1 SLOAD SWAP1 PUSH2 0x100 EXP SWAP1 DIV PUSH20 0xFFFFFFFFFFFFFFFFFFFFFFFFFFFFFFFFFFFFFFFF AND DUP2 JUMP JUMPDEST PUSH1 0x9 SLOAD DUP2 JUMP JUMPDEST PUSH1 0x5 DUP2 DUP2 SLOAD DUP2 LT PUSH2 0xBB6 JUMPI PUSH1 0x0 DUP1 REVERT JUMPDEST SWAP1 PUSH1 0x0 MSTORE PUSH1 0x20 PUSH1 0x0 KECCAK256 SWAP1 PUSH1 0x3 MUL ADD PUSH1 0x0 SWAP2 POP SWAP1 POP DUP1 PUSH1 0x0 ADD DUP1 SLOAD PUSH2 0xBD9 SWAP1 PUSH2 0x1CA9 JUMP JUMPDEST DUP1 PUSH1 0x1F ADD PUSH1 0x20 DUP1 SWAP2 DIV MUL PUSH1 0x20 ADD PUSH1 0x40 MLOAD SWAP1 DUP2 ADD PUSH1 0x40 MSTORE DUP1 SWAP3 SWAP2 SWAP1 DUP2 DUP2 MSTORE PUSH1 0x20 ADD DUP3 DUP1 SLOAD PUSH2 0xC05 SWAP1 PUSH2 0x1CA9 JUMP JUMPDEST DUP1 ISZERO PUSH2 0xC52 JUMPI DUP1 PUSH1 0x1F LT PUSH2 0xC27 JUMPI PUSH2 0x100 DUP1 DUP4 SLOAD DIV MUL DUP4 MSTORE SWAP2 PUSH1 0x20 ADD SWAP2 PUSH2 0xC52 JUMP JUMPDEST DUP3 ADD SWAP2 SWAP1 PUSH1 0x0 MSTORE PUSH1 0x20 PUSH1 0x0 KECCAK256 SWAP1 JUMPDEST DUP2 SLOAD DUP2 MSTORE SWAP1 PUSH1 0x1 ADD SWAP1 PUSH1 0x20 ADD DUP1 DUP4 GT PUSH2 0xC35 JUMPI DUP3 SWAP1 SUB PUSH1 0x1F AND DUP3 ADD SWAP2 JUMPDEST POP POP POP POP POP SWAP1 DUP1 PUSH1 0x1 ADD DUP1 SLOAD PUSH2 0xC67 SWAP1 PUSH2 0x1CA9 JUMP JUMPDEST DUP1 PUSH1 0x1F ADD PUSH1 0x20 DUP1 SWAP2 DIV MUL PUSH1 0x20 ADD PUSH1 0x40 MLOAD SWAP1 DUP2 ADD PUSH1 0x40 MSTORE DUP1 SWAP3 SWAP2 SWAP1 DUP2 DUP2 MSTORE PUSH1 0x20 ADD DUP3 DUP1 SLOAD PUSH2 0xC93 SWAP1 PUSH2 0x1CA9 JUMP JUMPDEST DUP1 ISZERO PUSH2 0xCE0 JUMPI DUP1 PUSH1 0x1F LT PUSH2 0xCB5 JUMPI PUSH2 0x100 DUP1 DUP4 SLOAD DIV MUL DUP4 MSTORE SWAP2 PUSH1 0x20 ADD SWAP2 PUSH2 0xCE0 JUMP JUMPDEST DUP3 ADD SWAP2 SWAP1 PUSH1 0x0 MSTORE PUSH1 0x20 PUSH1 0x0 KECCAK256 SWAP1 JUMPDEST DUP2 SLOAD DUP2 MSTORE SWAP1 PUSH1 0x1 ADD SWAP1 PUSH1 0x20 ADD DUP1 DUP4 GT PUSH2 0xCC3 JUMPI DUP3 SWAP1 SUB PUSH1 0x1F AND DUP3 ADD SWAP2 JUMPDEST POP POP POP POP POP SWAP1 DUP1 PUSH1 0x2 ADD SLOAD SWAP1 POP DUP4 JUMP JUMPDEST DUP1 PUSH1 0xD PUSH1 0x0 CALLER PUSH20 0xFFFFFFFFFFFFFFFFFFFFFFFFFFFFFFFFFFFFFFFF AND PUSH20 0xFFFFFFFFFFFFFFFFFFFFFFFFFFFFFFFFFFFFFFFF AND DUP2 MSTORE PUSH1 0x20 ADD SWAP1 DUP2 MSTORE PUSH1 0x20 ADD PUSH1 0x0 KECCAK256 SLOAD LT ISZERO PUSH2 0xD3C JUMPI PUSH1 0x0 DUP1 REVERT JUMPDEST PUSH1 0x0 DUP1 SLOAD SWAP1 PUSH2 0x100 EXP SWAP1 DIV PUSH20 0xFFFFFFFFFFFFFFFFFFFFFFFFFFFFFFFFFFFFFFFF AND PUSH20 0xFFFFFFFFFFFFFFFFFFFFFFFFFFFFFFFFFFFFFFFF AND CALLER PUSH20 0xFFFFFFFFFFFFFFFFFFFFFFFFFFFFFFFFFFFFFFFF AND EQ PUSH2 0xD94 JUMPI PUSH1 0x0 DUP1 REVERT JUMPDEST DUP1 PUSH1 0xD PUSH1 0x0 CALLER PUSH20 0xFFFFFFFFFFFFFFFFFFFFFFFFFFFFFFFFFFFFFFFF AND PUSH20 0xFFFFFFFFFFFFFFFFFFFFFFFFFFFFFFFFFFFFFFFF AND DUP2 MSTORE PUSH1 0x20 ADD SWAP1 DUP2 MSTORE PUSH1 0x20 ADD PUSH1 0x0 KECCAK256 PUSH1 0x0 DUP3 DUP3 SLOAD PUSH2 0xDE3 SWAP2 SWAP1 PUSH2 0x1BEB JUMP JUMPDEST SWAP3 POP POP DUP2 SWAP1 SSTORE POP DUP1 PUSH1 0xD PUSH1 0x0 DUP5 PUSH20 0xFFFFFFFFFFFFFFFFFFFFFFFFFFFFFFFFFFFFFFFF AND PUSH20 0xFFFFFFFFFFFFFFFFFFFFFFFFFFFFFFFFFFFFFFFF AND DUP2 MSTORE PUSH1 0x20 ADD SWAP1 DUP2 MSTORE PUSH1 0x20 ADD PUSH1 0x0 KECCAK256 PUSH1 0x0 DUP3 DUP3 SLOAD PUSH2 0xE39 SWAP2 SWAP1 PUSH2 0x1B3B JUMP JUMPDEST SWAP3 POP POP DUP2 SWAP1 SSTORE POP POP POP JUMP JUMPDEST PUSH1 0xE PUSH1 0x1 SWAP1 SLOAD SWAP1 PUSH2 0x100 EXP SWAP1 DIV PUSH20 0xFFFFFFFFFFFFFFFFFFFFFFFFFFFFFFFFFFFFFFFF AND DUP2 JUMP JUMPDEST PUSH1 0x0 DUP1 SLOAD SWAP1 PUSH2 0x100 EXP SWAP1 DIV PUSH20 0xFFFFFFFFFFFFFFFFFFFFFFFFFFFFFFFFFFFFFFFF AND PUSH20 0xFFFFFFFFFFFFFFFFFFFFFFFFFFFFFFFFFFFFFFFF AND CALLER PUSH20 0xFFFFFFFFFFFFFFFFFFFFFFFFFFFFFFFFFFFFFFFF AND EQ PUSH2 0xEC2 JUMPI PUSH1 0x0 DUP1 REVERT JUMPDEST PUSH2 0xECB DUP2 PUSH2 0x1529 JUMP JUMPDEST PUSH2 0xFDA JUMPI PUSH1 0x0 PUSH1 0xC PUSH1 0x0 DUP4 PUSH20 0xFFFFFFFFFFFFFFFFFFFFFFFFFFFFFFFFFFFFFFFF AND PUSH20 0xFFFFFFFFFFFFFFFFFFFFFFFFFFFFFFFFFFFFFFFF AND DUP2 MSTORE PUSH1 0x20 ADD SWAP1 DUP2 MSTORE PUSH1 0x20 ADD PUSH1 0x0 KECCAK256 PUSH1 0x0 PUSH2 0x100 EXP DUP2 SLOAD DUP2 PUSH1 0xFF MUL NOT AND SWAP1 DUP4 ISZERO ISZERO MUL OR SWAP1 SSTORE POP PUSH1 0xB DUP2 SWAP1 DUP1 PUSH1 0x1 DUP2 SLOAD ADD DUP1 DUP3 SSTORE DUP1 SWAP2 POP POP PUSH1 0x1 SWAP1 SUB SWAP1 PUSH1 0x0 MSTORE PUSH1 0x20 PUSH1 0x0 KECCAK256 ADD PUSH1 0x0 SWAP1 SWAP2 SWAP1 SWAP2 SWAP1 SWAP2 PUSH2 0x100 EXP DUP2 SLOAD DUP2 PUSH20 0xFFFFFFFFFFFFFFFFFFFFFFFFFFFFFFFFFFFFFFFF MUL NOT AND SWAP1 DUP4 PUSH20 0xFFFFFFFFFFFFFFFFFFFFFFFFFFFFFFFFFFFFFFFF AND MUL OR SWAP1 SSTORE POP PUSH1 0x9 PUSH1 0x0 DUP2 SLOAD DUP1 SWAP3 SWAP2 SWAP1 PUSH2 0xF9D SWAP1 PUSH2 0x1D0C JUMP JUMPDEST SWAP2 SWAP1 POP SSTORE POP PUSH32 0x30040C92E8DA146AC410FB6841EA0F60AF3B8F3788E5E7354E48D97D018F39DD DUP2 PUSH1 0x40 MLOAD PUSH2 0xFD1 SWAP2 SWAP1 PUSH2 0x19D1 JUMP JUMPDEST PUSH1 0x40 MLOAD DUP1 SWAP2 SUB SWAP1 LOG1 JUMPDEST POP JUMP JUMPDEST PUSH1 0x1 DUP1 PUSH1 0x2 DUP2 GT ISZERO PUSH2 0xFF2 JUMPI PUSH2 0xFF1 PUSH2 0x1D84 JUMP JUMPDEST JUMPDEST PUSH1 0xE PUSH1 0x0 SWAP1 SLOAD SWAP1 PUSH2 0x100 EXP SWAP1 DIV PUSH1 0xFF AND PUSH1 0x2 DUP2 GT ISZERO PUSH2 0x1014 JUMPI PUSH2 0x1013 PUSH2 0x1D84 JUMP JUMPDEST JUMPDEST EQ PUSH2 0x101E JUMPI PUSH1 0x0 DUP1 REVERT JUMPDEST PUSH1 0xF PUSH1 0x0 SWAP1 SLOAD SWAP1 PUSH2 0x100 EXP SWAP1 DIV PUSH20 0xFFFFFFFFFFFFFFFFFFFFFFFFFFFFFFFFFFFFFFFF AND PUSH20 0xFFFFFFFFFFFFFFFFFFFFFFFFFFFFFFFFFFFFFFFF AND CALLER PUSH20 0xFFFFFFFFFFFFFFFFFFFFFFFFFFFFFFFFFFFFFFFF AND EQ PUSH2 0x1078 JUMPI PUSH1 0x0 DUP1 REVERT JUMPDEST PUSH1 0x2 PUSH1 0xE PUSH1 0x0 PUSH2 0x100 EXP DUP2 SLOAD DUP2 PUSH1 0xFF MUL NOT AND SWAP1 DUP4 PUSH1 0x2 DUP2 GT ISZERO PUSH2 0x109E JUMPI PUSH2 0x109D PUSH2 0x1D84 JUMP JUMPDEST JUMPDEST MUL OR SWAP1 SSTORE POP PUSH1 0x12 SLOAD PUSH1 0x13 DUP2 SWAP1 SSTORE POP PUSH32 0xB43A401DCDBE02A8AFA41FEB6C651425997908D1A4B79CF505188BA1DD3FD872 PUSH1 0x13 SLOAD PUSH1 0x40 MLOAD PUSH2 0x10DD SWAP2 SWAP1 PUSH2 0x1AAE JUMP JUMPDEST PUSH1 0x40 MLOAD DUP1 SWAP2 SUB SWAP1 LOG1 POP JUMP JUMPDEST PUSH1 0x1 DUP1 PUSH1 0x0 ADD DUP1 SLOAD PUSH2 0x10F9 SWAP1 PUSH2 0x1CA9 JUMP JUMPDEST DUP1 PUSH1 0x1F ADD PUSH1 0x20 DUP1 SWAP2 DIV MUL PUSH1 0x20 ADD PUSH1 0x40 MLOAD SWAP1 DUP2 ADD PUSH1 0x40 MSTORE DUP1 SWAP3 SWAP2 SWAP1 DUP2 DUP2 MSTORE PUSH1 0x20 ADD DUP3 DUP1 SLOAD PUSH2 0x1125 SWAP1 PUSH2 0x1CA9 JUMP JUMPDEST DUP1 ISZERO PUSH2 0x1172 JUMPI DUP1 PUSH1 0x1F LT PUSH2 0x1147 JUMPI PUSH2 0x100 DUP1 DUP4 SLOAD DIV MUL DUP4 MSTORE SWAP2 PUSH1 0x20 ADD SWAP2 PUSH2 0x1172 JUMP JUMPDEST DUP3 ADD SWAP2 SWAP1 PUSH1 0x0 MSTORE PUSH1 0x20 PUSH1 0x0 KECCAK256 SWAP1 JUMPDEST DUP2 SLOAD DUP2 MSTORE SWAP1 PUSH1 0x1 ADD SWAP1 PUSH1 0x20 ADD DUP1 DUP4 GT PUSH2 0x1155 JUMPI DUP3 SWAP1 SUB PUSH1 0x1F AND DUP3 ADD SWAP2 JUMPDEST POP POP POP POP POP SWAP1 DUP1 PUSH1 0x1 ADD DUP1 SLOAD PUSH2 0x1187 SWAP1 PUSH2 0x1CA9 JUMP JUMPDEST DUP1 PUSH1 0x1F ADD PUSH1 0x20 DUP1 SWAP2 DIV MUL PUSH1 0x20 ADD PUSH1 0x40 MLOAD SWAP1 DUP2 ADD PUSH1 0x40 MSTORE DUP1 SWAP3 SWAP2 SWAP1 DUP2 DUP2 MSTORE PUSH1 0x20 ADD DUP3 DUP1 SLOAD PUSH2 0x11B3 SWAP1 PUSH2 0x1CA9 JUMP JUMPDEST DUP1 ISZERO PUSH2 0x1200 JUMPI DUP1 PUSH1 0x1F LT PUSH2 0x11D5 JUMPI PUSH2 0x100 DUP1 DUP4 SLOAD DIV MUL DUP4 MSTORE SWAP2 PUSH1 0x20 ADD SWAP2 PUSH2 0x1200 JUMP JUMPDEST DUP3 ADD SWAP2 SWAP1 PUSH1 0x0 MSTORE PUSH1 0x20 PUSH1 0x0 KECCAK256 SWAP1 JUMPDEST DUP2 SLOAD DUP2 MSTORE SWAP1 PUSH1 0x1 ADD SWAP1 PUSH1 0x20 ADD DUP1 DUP4 GT PUSH2 0x11E3 JUMPI DUP3 SWAP1 SUB PUSH1 0x1F AND DUP3 ADD SWAP2 JUMPDEST POP POP POP POP POP SWAP1 DUP1 PUSH1 0x3 ADD SLOAD SWAP1 POP DUP4 JUMP JUMPDEST PUSH1 0xF PUSH1 0x0 SWAP1 SLOAD SWAP1 PUSH2 0x100 EXP SWAP1 DIV PUSH20 0xFFFFFFFFFFFFFFFFFFFFFFFFFFFFFFFFFFFFFFFF AND DUP2 JUMP JUMPDEST PUSH1 0x8 SLOAD DUP2 GT ISZERO PUSH2 0x127B JUMPI PUSH1 0x40 MLOAD PUSH32 0x8C379A000000000000000000000000000000000000000000000000000000000 DUP2 MSTORE PUSH1 0x4 ADD PUSH2 0x1272 SWAP1 PUSH2 0x1A6E JUMP JUMPDEST PUSH1 0x40 MLOAD DUP1 SWAP2 SUB SWAP1 REVERT JUMPDEST PUSH1 0x7 SLOAD DUP2 PUSH2 0x1289 SWAP2 SWAP1 PUSH2 0x1B91 JUMP JUMPDEST CALLVALUE LT ISZERO PUSH2 0x12CB JUMPI PUSH1 0x40 MLOAD PUSH32 0x8C379A000000000000000000000000000000000000000000000000000000000 DUP2 MSTORE PUSH1 0x4 ADD PUSH2 0x12C2 SWAP1 PUSH2 0x1A8E JUMP JUMPDEST PUSH1 0x40 MLOAD DUP1 SWAP2 SUB SWAP1 REVERT JUMPDEST PUSH2 0x12D5 CALLER DUP3 PUSH2 0xCF0 JUMP JUMPDEST PUSH2 0x12DE CALLER PUSH2 0xE6A JUMP JUMPDEST POP JUMP JUMPDEST PUSH1 0x0 DUP1 SLOAD SWAP1 PUSH2 0x100 EXP SWAP1 DIV PUSH20 0xFFFFFFFFFFFFFFFFFFFFFFFFFFFFFFFFFFFFFFFF AND PUSH20 0xFFFFFFFFFFFFFFFFFFFFFFFFFFFFFFFFFFFFFFFF AND CALLER PUSH20 0xFFFFFFFFFFFFFFFFFFFFFFFFFFFFFFFFFFFFFFFF AND EQ PUSH2 0x1339 JUMPI PUSH1 0x0 DUP1 REVERT JUMPDEST PUSH1 0x0 DUP1 PUSH1 0x1 DUP2 GT ISZERO PUSH2 0x134E JUMPI PUSH2 0x134D PUSH2 0x1D84 JUMP JUMPDEST JUMPDEST PUSH1 0xA PUSH1 0x0 SWAP1 SLOAD SWAP1 PUSH2 0x100 EXP SWAP1 DIV PUSH1 0xFF AND PUSH1 0x1 DUP2 GT ISZERO PUSH2 0x1370 JUMPI PUSH2 0x136F PUSH2 0x1D84 JUMP JUMPDEST JUMPDEST EQ PUSH2 0x137A JUMPI PUSH1 0x0 DUP1 REVERT JUMPDEST PUSH1 0x0 PUSH1 0x40 MLOAD DUP1 PUSH1 0x60 ADD PUSH1 0x40 MSTORE DUP1 DUP7 DUP2 MSTORE PUSH1 0x20 ADD DUP6 DUP2 MSTORE PUSH1 0x20 ADD DUP5 DUP2 MSTORE POP SWAP1 POP DUP3 PUSH1 0x1 PUSH1 0x3 ADD PUSH1 0x0 DUP3 DUP3 SLOAD PUSH2 0x13AE SWAP2 SWAP1 PUSH2 0x1B3B JUMP JUMPDEST SWAP3 POP POP DUP2 SWAP1 SSTORE POP PUSH1 0x1 PUSH1 0x2 ADD DUP2 SWAP1 DUP1 PUSH1 0x1 DUP2 SLOAD ADD DUP1 DUP3 SSTORE DUP1 SWAP2 POP POP PUSH1 0x1 SWAP1 SUB SWAP1 PUSH1 0x0 MSTORE PUSH1 0x20 PUSH1 0x0 KECCAK256 SWAP1 PUSH1 0x3 MUL ADD PUSH1 0x0 SWAP1 SWAP2 SWAP1 SWAP2 SWAP1 SWAP2 POP PUSH1 0x0 DUP3 ADD MLOAD DUP2 PUSH1 0x0 ADD SWAP1 DUP1 MLOAD SWAP1 PUSH1 0x20 ADD SWAP1 PUSH2 0x1400 SWAP3 SWAP2 SWAP1 PUSH2 0x15D7 JUMP JUMPDEST POP PUSH1 0x20 DUP3 ADD MLOAD DUP2 PUSH1 0x1 ADD SWAP1 DUP1 MLOAD SWAP1 PUSH1 0x20 ADD SWAP1 PUSH2 0x141D SWAP3 SWAP2 SWAP1 PUSH2 0x15D7 JUMP JUMPDEST POP PUSH1 0x40 DUP3 ADD MLOAD DUP2 PUSH1 0x2 ADD SSTORE POP POP PUSH1 0x1 PUSH1 0x3 ADD SLOAD PUSH1 0x7 DUP2 SWAP1 SSTORE POP PUSH32 0x4578FE17EAAB41AE382ABE3462BB0CF04BCFEE4168D2AAD3CE9D5D225D0E27F6 DUP6 PUSH1 0x40 MLOAD PUSH2 0x1465 SWAP2 SWAP1 PUSH2 0x1A07 JUMP JUMPDEST PUSH1 0x40 MLOAD DUP1 SWAP2 SUB SWAP1 LOG1 POP POP POP POP POP JUMP JUMPDEST DUP1 PUSH1 0xD PUSH1 0x0 CALLER PUSH20 0xFFFFFFFFFFFFFFFFFFFFFFFFFFFFFFFFFFFFFFFF AND PUSH20 0xFFFFFFFFFFFFFFFFFFFFFFFFFFFFFFFFFFFFFFFF AND DUP2 MSTORE PUSH1 0x20 ADD SWAP1 DUP2 MSTORE PUSH1 0x20 ADD PUSH1 0x0 KECCAK256 PUSH1 0x0 DUP3 DUP3 SLOAD PUSH2 0x14C3 SWAP2 SWAP1 PUSH2 0x1BEB JUMP JUMPDEST SWAP3 POP POP DUP2 SWAP1 SSTORE POP DUP1 PUSH1 0xD PUSH1 0x0 ADDRESS PUSH20 0xFFFFFFFFFFFFFFFFFFFFFFFFFFFFFFFFFFFFFFFF AND PUSH20 0xFFFFFFFFFFFFFFFFFFFFFFFFFFFFFFFFFFFFFFFF AND DUP2 MSTORE PUSH1 0x20 ADD SWAP1 DUP2 MSTORE PUSH1 0x20 ADD PUSH1 0x0 KECCAK256 PUSH1 0x0 DUP3 DUP3 SLOAD PUSH2 0x1519 SWAP2 SWAP1 PUSH2 0x1B3B JUMP JUMPDEST SWAP3 POP POP DUP2 SWAP1 SSTORE POP POP JUMP JUMPDEST PUSH1 0x13 SLOAD DUP2 JUMP JUMPDEST PUSH1 0x0 DUP1 PUSH1 0x0 SWAP1 POP JUMPDEST PUSH1 0xB DUP1 SLOAD SWAP1 POP DUP2 GT PUSH2 0x15CC JUMPI DUP3 PUSH20 0xFFFFFFFFFFFFFFFFFFFFFFFFFFFFFFFFFFFFFFFF AND PUSH1 0xB DUP3 DUP2 SLOAD DUP2 LT PUSH2 0x1568 JUMPI PUSH2 0x1567 PUSH2 0x1DE2 JUMP JUMPDEST JUMPDEST SWAP1 PUSH1 0x0 MSTORE PUSH1 0x20 PUSH1 0x0 KECCAK256 ADD PUSH1 0x0 SWAP1 SLOAD SWAP1 PUSH2 0x100 EXP SWAP1 DIV PUSH20 0xFFFFFFFFFFFFFFFFFFFFFFFFFFFFFFFFFFFFFFFF AND PUSH20 0xFFFFFFFFFFFFFFFFFFFFFFFFFFFFFFFFFFFFFFFF AND EQ ISZERO PUSH2 0x15B9 JUMPI PUSH1 0x1 SWAP2 POP POP PUSH2 0x15D2 JUMP JUMPDEST DUP1 DUP1 PUSH2 0x15C4 SWAP1 PUSH2 0x1D0C JUMP JUMPDEST SWAP2 POP POP PUSH2 0x1531 JUMP JUMPDEST POP PUSH1 0x0 SWAP1 POP JUMPDEST SWAP2 SWAP1 POP JUMP JUMPDEST DUP3 DUP1 SLOAD PUSH2 0x15E3 SWAP1 PUSH2 0x1CA9 JUMP JUMPDEST SWAP1 PUSH1 0x0 MSTORE PUSH1 0x20 PUSH1 0x0 KECCAK256 SWAP1 PUSH1 0x1F ADD PUSH1 0x20 SWAP1 DIV DUP2 ADD SWAP3 DUP3 PUSH2 0x1605 JUMPI PUSH1 0x0 DUP6 SSTORE PUSH2 0x164C JUMP JUMPDEST DUP3 PUSH1 0x1F LT PUSH2 0x161E JUMPI DUP1 MLOAD PUSH1 0xFF NOT AND DUP4 DUP1 ADD OR DUP6 SSTORE PUSH2 0x164C JUMP JUMPDEST DUP3 DUP1 ADD PUSH1 0x1 ADD DUP6 SSTORE DUP3 ISZERO PUSH2 0x164C JUMPI SWAP2 DUP3 ADD JUMPDEST DUP3 DUP2 GT ISZERO PUSH2 0x164B JUMPI DUP3 MLOAD DUP3 SSTORE SWAP2 PUSH1 0x20 ADD SWAP2 SWAP1 PUSH1 0x1 ADD SWAP1 PUSH2 0x1630 JUMP JUMPDEST JUMPDEST POP SWAP1 POP PUSH2 0x1659 SWAP2 SWAP1 PUSH2 0x168F JUMP JUMPDEST POP SWAP1 JUMP JUMPDEST PUSH1 0x40 MLOAD DUP1 PUSH1 0x40 ADD PUSH1 0x40 MSTORE DUP1 PUSH1 0x0 PUSH20 0xFFFFFFFFFFFFFFFFFFFFFFFFFFFFFFFFFFFFFFFF AND DUP2 MSTORE PUSH1 0x20 ADD PUSH1 0x0 ISZERO ISZERO DUP2 MSTORE POP SWAP1 JUMP JUMPDEST JUMPDEST DUP1 DUP3 GT ISZERO PUSH2 0x16A8 JUMPI PUSH1 0x0 DUP2 PUSH1 0x0 SWAP1 SSTORE POP PUSH1 0x1 ADD PUSH2 0x1690 JUMP JUMPDEST POP SWAP1 JUMP JUMPDEST PUSH1 0x0 PUSH2 0x16BF PUSH2 0x16BA DUP5 PUSH2 0x1AEE JUMP JUMPDEST PUSH2 0x1AC9 JUMP JUMPDEST SWAP1 POP DUP3 DUP2 MSTORE PUSH1 0x20 DUP2 ADD DUP5 DUP5 DUP5 ADD GT ISZERO PUSH2 0x16DB JUMPI PUSH2 0x16DA PUSH2 0x1E45 JUMP JUMPDEST JUMPDEST PUSH2 0x16E6 DUP5 DUP3 DUP6 PUSH2 0x1C67 JUMP JUMPDEST POP SWAP4 SWAP3 POP POP POP JUMP JUMPDEST PUSH1 0x0 DUP2 CALLDATALOAD SWAP1 POP PUSH2 0x16FD DUP2 PUSH2 0x1EDD JUMP JUMPDEST SWAP3 SWAP2 POP POP JUMP JUMPDEST PUSH1 0x0 DUP2 CALLDATALOAD SWAP1 POP PUSH2 0x1712 DUP2 PUSH2 0x1EF4 JUMP JUMPDEST SWAP3 SWAP2 POP POP JUMP JUMPDEST PUSH1 0x0 DUP3 PUSH1 0x1F DUP4 ADD SLT PUSH2 0x172D JUMPI PUSH2 0x172C PUSH2 0x1E40 JUMP JUMPDEST JUMPDEST DUP2 CALLDATALOAD PUSH2 0x173D DUP5 DUP3 PUSH1 0x20 DUP7 ADD PUSH2 0x16AC JUMP JUMPDEST SWAP2 POP POP SWAP3 SWAP2 POP POP JUMP JUMPDEST PUSH1 0x0 DUP2 CALLDATALOAD SWAP1 POP PUSH2 0x1755 DUP2 PUSH2 0x1F0B JUMP JUMPDEST SWAP3 SWAP2 POP POP JUMP JUMPDEST PUSH1 0x0 PUSH1 0x20 DUP3 DUP5 SUB SLT ISZERO PUSH2 0x1771 JUMPI PUSH2 0x1770 PUSH2 0x1E4F JUMP JUMPDEST JUMPDEST PUSH1 0x0 PUSH2 0x177F DUP5 DUP3 DUP6 ADD PUSH2 0x16EE JUMP JUMPDEST SWAP2 POP POP SWAP3 SWAP2 POP POP JUMP JUMPDEST PUSH1 0x0 DUP1 PUSH1 0x40 DUP4 DUP6 SUB SLT ISZERO PUSH2 0x179F JUMPI PUSH2 0x179E PUSH2 0x1E4F JUMP JUMPDEST JUMPDEST PUSH1 0x0 PUSH2 0x17AD DUP6 DUP3 DUP7 ADD PUSH2 0x16EE JUMP JUMPDEST SWAP3 POP POP PUSH1 0x20 PUSH2 0x17BE DUP6 DUP3 DUP7 ADD PUSH2 0x1746 JUMP JUMPDEST SWAP2 POP POP SWAP3 POP SWAP3 SWAP1 POP JUMP JUMPDEST PUSH1 0x0 PUSH1 0x20 DUP3 DUP5 SUB SLT ISZERO PUSH2 0x17DE JUMPI PUSH2 0x17DD PUSH2 0x1E4F JUMP JUMPDEST JUMPDEST PUSH1 0x0 PUSH2 0x17EC DUP5 DUP3 DUP6 ADD PUSH2 0x1703 JUMP JUMPDEST SWAP2 POP POP SWAP3 SWAP2 POP POP JUMP JUMPDEST PUSH1 0x0 DUP1 PUSH1 0x40 DUP4 DUP6 SUB SLT ISZERO PUSH2 0x180C JUMPI PUSH2 0x180B PUSH2 0x1E4F JUMP JUMPDEST JUMPDEST PUSH1 0x0 DUP4 ADD CALLDATALOAD PUSH8 0xFFFFFFFFFFFFFFFF DUP2 GT ISZERO PUSH2 0x182A JUMPI PUSH2 0x1829 PUSH2 0x1E4A JUMP JUMPDEST JUMPDEST PUSH2 0x1836 DUP6 DUP3 DUP7 ADD PUSH2 0x1718 JUMP JUMPDEST SWAP3 POP POP PUSH1 0x20 DUP4 ADD CALLDATALOAD PUSH8 0xFFFFFFFFFFFFFFFF DUP2 GT ISZERO PUSH2 0x1857 JUMPI PUSH2 0x1856 PUSH2 0x1E4A JUMP JUMPDEST JUMPDEST PUSH2 0x1863 DUP6 DUP3 DUP7 ADD PUSH2 0x1718 JUMP JUMPDEST SWAP2 POP POP SWAP3 POP SWAP3 SWAP1 POP JUMP JUMPDEST PUSH1 0x0 DUP1 PUSH1 0x0 PUSH1 0x60 DUP5 DUP7 SUB SLT ISZERO PUSH2 0x1886 JUMPI PUSH2 0x1885 PUSH2 0x1E4F JUMP JUMPDEST JUMPDEST PUSH1 0x0 DUP5 ADD CALLDATALOAD PUSH8 0xFFFFFFFFFFFFFFFF DUP2 GT ISZERO PUSH2 0x18A4 JUMPI PUSH2 0x18A3 PUSH2 0x1E4A JUMP JUMPDEST JUMPDEST PUSH2 0x18B0 DUP7 DUP3 DUP8 ADD PUSH2 0x1718 JUMP JUMPDEST SWAP4 POP POP PUSH1 0x20 DUP5 ADD CALLDATALOAD PUSH8 0xFFFFFFFFFFFFFFFF DUP2 GT ISZERO PUSH2 0x18D1 JUMPI PUSH2 0x18D0 PUSH2 0x1E4A JUMP JUMPDEST JUMPDEST PUSH2 0x18DD DUP7 DUP3 DUP8 ADD PUSH2 0x1718 JUMP JUMPDEST SWAP3 POP POP PUSH1 0x40 PUSH2 0x18EE DUP7 DUP3 DUP8 ADD PUSH2 0x1746 JUMP JUMPDEST SWAP2 POP POP SWAP3 POP SWAP3 POP SWAP3 JUMP JUMPDEST PUSH1 0x0 PUSH1 0x20 DUP3 DUP5 SUB SLT ISZERO PUSH2 0x190E JUMPI PUSH2 0x190D PUSH2 0x1E4F JUMP JUMPDEST JUMPDEST PUSH1 0x0 PUSH2 0x191C DUP5 DUP3 DUP6 ADD PUSH2 0x1746 JUMP JUMPDEST SWAP2 POP POP SWAP3 SWAP2 POP POP JUMP JUMPDEST PUSH2 0x192E DUP2 PUSH2 0x1C1F JUMP JUMPDEST DUP3 MSTORE POP POP JUMP JUMPDEST PUSH2 0x193D DUP2 PUSH2 0x1C31 JUMP JUMPDEST DUP3 MSTORE POP POP JUMP JUMPDEST PUSH1 0x0 PUSH2 0x194E DUP3 PUSH2 0x1B1F JUMP JUMPDEST PUSH2 0x1958 DUP2 DUP6 PUSH2 0x1B2A JUMP JUMPDEST SWAP4 POP PUSH2 0x1968 DUP2 DUP6 PUSH1 0x20 DUP7 ADD PUSH2 0x1C76 JUMP JUMPDEST PUSH2 0x1971 DUP2 PUSH2 0x1E54 JUMP JUMPDEST DUP5 ADD SWAP2 POP POP SWAP3 SWAP2 POP POP JUMP JUMPDEST PUSH1 0x0 PUSH2 0x1989 PUSH1 0x23 DUP4 PUSH2 0x1B2A JUMP JUMPDEST SWAP2 POP PUSH2 0x1994 DUP3 PUSH2 0x1E65 JUMP JUMPDEST PUSH1 0x40 DUP3 ADD SWAP1 POP SWAP2 SWAP1 POP JUMP JUMPDEST PUSH1 0x0 PUSH2 0x19AC PUSH1 0xE DUP4 PUSH2 0x1B2A JUMP JUMPDEST SWAP2 POP PUSH2 0x19B7 DUP3 PUSH2 0x1EB4 JUMP JUMPDEST PUSH1 0x20 DUP3 ADD SWAP1 POP SWAP2 SWAP1 POP JUMP JUMPDEST PUSH2 0x19CB DUP2 PUSH2 0x1C5D JUMP JUMPDEST DUP3 MSTORE POP POP JUMP JUMPDEST PUSH1 0x0 PUSH1 0x20 DUP3 ADD SWAP1 POP PUSH2 0x19E6 PUSH1 0x0 DUP4 ADD DUP5 PUSH2 0x1925 JUMP JUMPDEST SWAP3 SWAP2 POP POP JUMP JUMPDEST PUSH1 0x0 PUSH1 0x20 DUP3 ADD SWAP1 POP PUSH2 0x1A01 PUSH1 0x0 DUP4 ADD DUP5 PUSH2 0x1934 JUMP JUMPDEST SWAP3 SWAP2 POP POP JUMP JUMPDEST PUSH1 0x0 PUSH1 0x20 DUP3 ADD SWAP1 POP DUP2 DUP2 SUB PUSH1 0x0 DUP4 ADD MSTORE PUSH2 0x1A21 DUP2 DUP5 PUSH2 0x1943 JUMP JUMPDEST SWAP1 POP SWAP3 SWAP2 POP POP JUMP JUMPDEST PUSH1 0x0 PUSH1 0x60 DUP3 ADD SWAP1 POP DUP2 DUP2 SUB PUSH1 0x0 DUP4 ADD MSTORE PUSH2 0x1A43 DUP2 DUP7 PUSH2 0x1943 JUMP JUMPDEST SWAP1 POP DUP2 DUP2 SUB PUSH1 0x20 DUP4 ADD MSTORE PUSH2 0x1A57 DUP2 DUP6 PUSH2 0x1943 JUMP JUMPDEST SWAP1 POP PUSH2 0x1A66 PUSH1 0x40 DUP4 ADD DUP5 PUSH2 0x19C2 JUMP JUMPDEST SWAP5 SWAP4 POP POP POP POP JUMP JUMPDEST PUSH1 0x0 PUSH1 0x20 DUP3 ADD SWAP1 POP DUP2 DUP2 SUB PUSH1 0x0 DUP4 ADD MSTORE PUSH2 0x1A87 DUP2 PUSH2 0x197C JUMP JUMPDEST SWAP1 POP SWAP2 SWAP1 POP JUMP JUMPDEST PUSH1 0x0 PUSH1 0x20 DUP3 ADD SWAP1 POP DUP2 DUP2 SUB PUSH1 0x0 DUP4 ADD MSTORE PUSH2 0x1AA7 DUP2 PUSH2 0x199F JUMP JUMPDEST SWAP1 POP SWAP2 SWAP1 POP JUMP JUMPDEST PUSH1 0x0 PUSH1 0x20 DUP3 ADD SWAP1 POP PUSH2 0x1AC3 PUSH1 0x0 DUP4 ADD DUP5 PUSH2 0x19C2 JUMP JUMPDEST SWAP3 SWAP2 POP POP JUMP JUMPDEST PUSH1 0x0 PUSH2 0x1AD3 PUSH2 0x1AE4 JUMP JUMPDEST SWAP1 POP PUSH2 0x1ADF DUP3 DUP3 PUSH2 0x1CDB JUMP JUMPDEST SWAP2 SWAP1 POP JUMP JUMPDEST PUSH1 0x0 PUSH1 0x40 MLOAD SWAP1 POP SWAP1 JUMP JUMPDEST PUSH1 0x0 PUSH8 0xFFFFFFFFFFFFFFFF DUP3 GT ISZERO PUSH2 0x1B09 JUMPI PUSH2 0x1B08 PUSH2 0x1E11 JUMP JUMPDEST JUMPDEST PUSH2 0x1B12 DUP3 PUSH2 0x1E54 JUMP JUMPDEST SWAP1 POP PUSH1 0x20 DUP2 ADD SWAP1 POP SWAP2 SWAP1 POP JUMP JUMPDEST PUSH1 0x0 DUP2 MLOAD SWAP1 POP SWAP2 SWAP1 POP JUMP JUMPDEST PUSH1 0x0 DUP3 DUP3 MSTORE PUSH1 0x20 DUP3 ADD SWAP1 POP SWAP3 SWAP2 POP POP JUMP JUMPDEST PUSH1 0x0 PUSH2 0x1B46 DUP3 PUSH2 0x1C5D JUMP JUMPDEST SWAP2 POP PUSH2 0x1B51 DUP4 PUSH2 0x1C5D JUMP JUMPDEST SWAP3 POP DUP3 PUSH32 0xFFFFFFFFFFFFFFFFFFFFFFFFFFFFFFFFFFFFFFFFFFFFFFFFFFFFFFFFFFFFFFFF SUB DUP3 GT ISZERO PUSH2 0x1B86 JUMPI PUSH2 0x1B85 PUSH2 0x1D55 JUMP JUMPDEST JUMPDEST DUP3 DUP3 ADD SWAP1 POP SWAP3 SWAP2 POP POP JUMP JUMPDEST PUSH1 0x0 PUSH2 0x1B9C DUP3 PUSH2 0x1C5D JUMP JUMPDEST SWAP2 POP PUSH2 0x1BA7 DUP4 PUSH2 0x1C5D JUMP JUMPDEST SWAP3 POP DUP2 PUSH32 0xFFFFFFFFFFFFFFFFFFFFFFFFFFFFFFFFFFFFFFFFFFFFFFFFFFFFFFFFFFFFFFFF DIV DUP4 GT DUP3 ISZERO ISZERO AND ISZERO PUSH2 0x1BE0 JUMPI PUSH2 0x1BDF PUSH2 0x1D55 JUMP JUMPDEST JUMPDEST DUP3 DUP3 MUL SWAP1 POP SWAP3 SWAP2 POP POP JUMP JUMPDEST PUSH1 0x0 PUSH2 0x1BF6 DUP3 PUSH2 0x1C5D JUMP JUMPDEST SWAP2 POP PUSH2 0x1C01 DUP4 PUSH2 0x1C5D JUMP JUMPDEST SWAP3 POP DUP3 DUP3 LT ISZERO PUSH2 0x1C14 JUMPI PUSH2 0x1C13 PUSH2 0x1D55 JUMP JUMPDEST JUMPDEST DUP3 DUP3 SUB SWAP1 POP SWAP3 SWAP2 POP POP JUMP JUMPDEST PUSH1 0x0 PUSH2 0x1C2A DUP3 PUSH2 0x1C3D JUMP JUMPDEST SWAP1 POP SWAP2 SWAP1 POP JUMP JUMPDEST PUSH1 0x0 DUP2 ISZERO ISZERO SWAP1 POP SWAP2 SWAP1 POP JUMP JUMPDEST PUSH1 0x0 PUSH20 0xFFFFFFFFFFFFFFFFFFFFFFFFFFFFFFFFFFFFFFFF DUP3 AND SWAP1 POP SWAP2 SWAP1 POP JUMP JUMPDEST PUSH1 0x0 DUP2 SWAP1 POP SWAP2 SWAP1 POP JUMP JUMPDEST DUP3 DUP2 DUP4 CALLDATACOPY PUSH1 0x0 DUP4 DUP4 ADD MSTORE POP POP POP JUMP JUMPDEST PUSH1 0x0 JUMPDEST DUP4 DUP2 LT ISZERO PUSH2 0x1C94 JUMPI DUP1 DUP3 ADD MLOAD DUP2 DUP5 ADD MSTORE PUSH1 0x20 DUP2 ADD SWAP1 POP PUSH2 0x1C79 JUMP JUMPDEST DUP4 DUP2 GT ISZERO PUSH2 0x1CA3 JUMPI PUSH1 0x0 DUP5 DUP5 ADD MSTORE JUMPDEST POP POP POP POP JUMP JUMPDEST PUSH1 0x0 PUSH1 0x2 DUP3 DIV SWAP1 POP PUSH1 0x1 DUP3 AND DUP1 PUSH2 0x1CC1 JUMPI PUSH1 0x7F DUP3 AND SWAP2 POP JUMPDEST PUSH1 0x20 DUP3 LT DUP2 EQ ISZERO PUSH2 0x1CD5 JUMPI PUSH2 0x1CD4 PUSH2 0x1DB3 JUMP JUMPDEST JUMPDEST POP SWAP2 SWAP1 POP JUMP JUMPDEST PUSH2 0x1CE4 DUP3 PUSH2 0x1E54 JUMP JUMPDEST DUP2 ADD DUP2 DUP2 LT PUSH8 0xFFFFFFFFFFFFFFFF DUP3 GT OR ISZERO PUSH2 0x1D03 JUMPI PUSH2 0x1D02 PUSH2 0x1E11 JUMP JUMPDEST JUMPDEST DUP1 PUSH1 0x40 MSTORE POP POP POP JUMP JUMPDEST PUSH1 0x0 PUSH2 0x1D17 DUP3 PUSH2 0x1C5D JUMP JUMPDEST SWAP2 POP PUSH32 0xFFFFFFFFFFFFFFFFFFFFFFFFFFFFFFFFFFFFFFFFFFFFFFFFFFFFFFFFFFFFFFFF DUP3 EQ ISZERO PUSH2 0x1D4A JUMPI PUSH2 0x1D49 PUSH2 0x1D55 JUMP JUMPDEST JUMPDEST PUSH1 0x1 DUP3 ADD SWAP1 POP SWAP2 SWAP1 POP JUMP JUMPDEST PUSH32 0x4E487B7100000000000000000000000000000000000000000000000000000000 PUSH1 0x0 MSTORE PUSH1 0x11 PUSH1 0x4 MSTORE PUSH1 0x24 PUSH1 0x0 REVERT JUMPDEST PUSH32 0x4E487B7100000000000000000000000000000000000000000000000000000000 PUSH1 0x0 MSTORE PUSH1 0x21 PUSH1 0x4 MSTORE PUSH1 0x24 PUSH1 0x0 REVERT JUMPDEST PUSH32 0x4E487B7100000000000000000000000000000000000000000000000000000000 PUSH1 0x0 MSTORE PUSH1 0x22 PUSH1 0x4 MSTORE PUSH1 0x24 PUSH1 0x0 REVERT JUMPDEST PUSH32 0x4E487B7100000000000000000000000000000000000000000000000000000000 PUSH1 0x0 MSTORE PUSH1 0x32 PUSH1 0x4 MSTORE PUSH1 0x24 PUSH1 0x0 REVERT JUMPDEST PUSH32 0x4E487B7100000000000000000000000000000000000000000000000000000000 PUSH1 0x0 MSTORE PUSH1 0x41 PUSH1 0x4 MSTORE PUSH1 0x24 PUSH1 0x0 REVERT JUMPDEST PUSH1 0x0 DUP1 REVERT JUMPDEST PUSH1 0x0 DUP1 REVERT JUMPDEST PUSH1 0x0 DUP1 REVERT JUMPDEST PUSH1 0x0 DUP1 REVERT JUMPDEST PUSH1 0x0 PUSH1 0x1F NOT PUSH1 0x1F DUP4 ADD AND SWAP1 POP SWAP2 SWAP1 POP JUMP JUMPDEST PUSH32 0x4E756D626572206F662073686172657320657863656564656420746865206C69 PUSH1 0x0 DUP3 ADD MSTORE PUSH32 0x6D69740000000000000000000000000000000000000000000000000000000000 PUSH1 0x20 DUP3 ADD MSTORE POP JUMP JUMPDEST PUSH32 0x4E6F7420656E6F75676820776569000000000000000000000000000000000000 PUSH1 0x0 DUP3 ADD MSTORE POP JUMP JUMPDEST PUSH2 0x1EE6 DUP2 PUSH2 0x1C1F JUMP JUMPDEST DUP2 EQ PUSH2 0x1EF1 JUMPI PUSH1 0x0 DUP1 REVERT JUMPDEST POP JUMP JUMPDEST PUSH2 0x1EFD DUP2 PUSH2 0x1C31 JUMP JUMPDEST DUP2 EQ PUSH2 0x1F08 JUMPI PUSH1 0x0 DUP1 REVERT JUMPDEST POP JUMP JUMPDEST PUSH2 0x1F14 DUP2 PUSH2 0x1C5D JUMP JUMPDEST DUP2 EQ PUSH2 0x1F1F JUMPI PUSH1 0x0 DUP1 REVERT JUMPDEST POP JUMP INVALID LOG2 PUSH5 0x6970667358 0x22 SLT KECCAK256 PUSH4 0xD2339266 SWAP10 PUSH19 0xAE87B93B8962EF86ED9EAA0686F77EB66A22B1 DUP4 CALLDATALOAD 0xC8 PUSH21 0x2E8E64736F6C634300080700330000000000000000 "
				},
				"gasEstimates": {
					"creation": {
						"codeDepositCost": "1604800",
						"executionCost": "infinite",
						"totalCost": "infinite"
					},
					"external": {
						"addHouse(string,string,uint256)": "infinite",
						"addShareHolder(address)": "infinite",
						"ballotAddress()": "2603",
						"ballotInitiator()": "2675",
						"ballotName()": "infinite",
						"buy(uint256)": "infinite",
						"createBallot(string,string)": "infinite",
						"doVote(bool)": "infinite",
						"endVote()": "56367",
						"finalResult()": "2539",
						"houseRegister(uint256)": "infinite",
						"hp()": "infinite",
						"owner()": "2534",
						"proposal()": "infinite",
						"sell(uint256)": "infinite",
						"shareHolderRegistry(address)": "2868",
						"shareHolders(uint256)": "5023",
						"shareLimit()": "2541",
						"startTrading()": "26666",
						"startVote()": "29728",
						"tokenPrice()": "2540",
						"totalShareHolders()": "2474",
						"totalShares()": "2519",
						"totalVotes()": "2453",
						"transfer(address,uint256)": "infinite"
					},
					"internal": {
						"contains(address)": "infinite"
					}
				},
				"methodIdentifiers": {
					"addHouse(string,string,uint256)": "df094409",
					"addShareHolder(address)": "af769c64",
					"ballotAddress()": "d8335b53",
					"ballotInitiator()": "ad349442",
					"ballotName()": "1b26586c",
					"buy(uint256)": "d96a094a",
					"createBallot(string,string)": "6fa4f103",
					"doVote(bool)": "87caea78",
					"endVote()": "b9223946",
					"finalResult()": "f3a8286f",
					"houseRegister(uint256)": "a14ba987",
					"hp()": "d8124c5f",
					"owner()": "8da5cb5b",
					"proposal()": "753ec103",
					"sell(uint256)": "e4849b32",
					"shareHolderRegistry(address)": "59ea0173",
					"shareHolders(uint256)": "7427a40c",
					"shareLimit()": "3be75aa3",
					"startTrading()": "293230b8",
					"startVote()": "4c0a6af0",
					"tokenPrice()": "7ff9b596",
					"totalShareHolders()": "9a982416",
					"totalShares()": "3a98ef39",
					"totalVotes()": "0d15fd77",
					"transfer(address,uint256)": "a9059cbb"
				}
			},
			"storageLayout": {
				"storage": [
					{
						"astId": 3,
						"contract": "MyHomeToken.sol:MyHomesToken",
						"label": "owner",
						"offset": 0,
						"slot": "0",
						"type": "t_address"
					},
					{
						"astId": 6,
						"contract": "MyHomeToken.sol:MyHomesToken",
						"label": "hp",
						"offset": 0,
						"slot": "1",
						"type": "t_struct(HousingPackage)122_storage"
					},
					{
						"astId": 10,
						"contract": "MyHomeToken.sol:MyHomesToken",
						"label": "houseRegister",
						"offset": 0,
						"slot": "5",
						"type": "t_array(t_struct(House)111_storage)dyn_storage"
					},
					{
						"astId": 13,
						"contract": "MyHomeToken.sol:MyHomesToken",
						"label": "totalShares",
						"offset": 0,
						"slot": "6",
						"type": "t_uint256"
					},
					{
						"astId": 16,
						"contract": "MyHomeToken.sol:MyHomesToken",
						"label": "tokenPrice",
						"offset": 0,
						"slot": "7",
						"type": "t_uint256"
					},
					{
						"astId": 19,
						"contract": "MyHomeToken.sol:MyHomesToken",
						"label": "shareLimit",
						"offset": 0,
						"slot": "8",
						"type": "t_uint256"
					},
					{
						"astId": 22,
						"contract": "MyHomeToken.sol:MyHomesToken",
						"label": "totalShareHolders",
						"offset": 0,
						"slot": "9",
						"type": "t_uint256"
					},
					{
						"astId": 25,
						"contract": "MyHomeToken.sol:MyHomesToken",
						"label": "state",
						"offset": 0,
						"slot": "10",
						"type": "t_enum(State)200"
					},
					{
						"astId": 28,
						"contract": "MyHomeToken.sol:MyHomesToken",
						"label": "shareHolders",
						"offset": 0,
						"slot": "11",
						"type": "t_array(t_address)dyn_storage"
					},
					{
						"astId": 32,
						"contract": "MyHomeToken.sol:MyHomesToken",
						"label": "shareHolderRegistry",
						"offset": 0,
						"slot": "12",
						"type": "t_mapping(t_address,t_bool)"
					},
					{
						"astId": 36,
						"contract": "MyHomeToken.sol:MyHomesToken",
						"label": "_balanceOf",
						"offset": 0,
						"slot": "13",
						"type": "t_mapping(t_address,t_uint256)"
					},
					{
						"astId": 39,
						"contract": "MyHomeToken.sol:MyHomesToken",
						"label": "ballotState",
						"offset": 0,
						"slot": "14",
						"type": "t_enum(BallotState)197"
					},
					{
						"astId": 41,
						"contract": "MyHomeToken.sol:MyHomesToken",
						"label": "ballotInitiator",
						"offset": 1,
						"slot": "14",
						"type": "t_address"
					},
					{
						"astId": 43,
						"contract": "MyHomeToken.sol:MyHomesToken",
						"label": "ballotAddress",
						"offset": 0,
						"slot": "15",
						"type": "t_address"
					},
					{
						"astId": 45,
						"contract": "MyHomeToken.sol:MyHomesToken",
						"label": "ballotName",
						"offset": 0,
						"slot": "16",
						"type": "t_string_storage"
					},
					{
						"astId": 47,
						"contract": "MyHomeToken.sol:MyHomesToken",
						"label": "proposal",
						"offset": 0,
						"slot": "17",
						"type": "t_string_storage"
					},
					{
						"astId": 50,
						"contract": "MyHomeToken.sol:MyHomesToken",
						"label": "resultCount",
						"offset": 0,
						"slot": "18",
						"type": "t_uint256"
					},
					{
						"astId": 53,
						"contract": "MyHomeToken.sol:MyHomesToken",
						"label": "finalResult",
						"offset": 0,
						"slot": "19",
						"type": "t_uint256"
					},
					{
						"astId": 56,
						"contract": "MyHomeToken.sol:MyHomesToken",
						"label": "totalVotes",
						"offset": 0,
						"slot": "20",
						"type": "t_uint256"
					},
					{
						"astId": 61,
						"contract": "MyHomeToken.sol:MyHomesToken",
						"label": "votes",
						"offset": 0,
						"slot": "21",
						"type": "t_mapping(t_uint256,t_struct(Vote)127_storage)"
					}
				],
				"types": {
					"t_address": {
						"encoding": "inplace",
						"label": "address",
						"numberOfBytes": "20"
					},
					"t_array(t_address)dyn_storage": {
						"base": "t_address",
						"encoding": "dynamic_array",
						"label": "address[]",
						"numberOfBytes": "32"
					},
					"t_array(t_struct(House)111_storage)dyn_storage": {
						"base": "t_struct(House)111_storage",
						"encoding": "dynamic_array",
						"label": "struct MyHomesToken.House[]",
						"numberOfBytes": "32"
					},
					"t_bool": {
						"encoding": "inplace",
						"label": "bool",
						"numberOfBytes": "1"
					},
					"t_enum(BallotState)197": {
						"encoding": "inplace",
						"label": "enum MyHomesToken.BallotState",
						"numberOfBytes": "1"
					},
					"t_enum(State)200": {
						"encoding": "inplace",
						"label": "enum MyHomesToken.State",
						"numberOfBytes": "1"
					},
					"t_mapping(t_address,t_bool)": {
						"encoding": "mapping",
						"key": "t_address",
						"label": "mapping(address => bool)",
						"numberOfBytes": "32",
						"value": "t_bool"
					},
					"t_mapping(t_address,t_uint256)": {
						"encoding": "mapping",
						"key": "t_address",
						"label": "mapping(address => uint256)",
						"numberOfBytes": "32",
						"value": "t_uint256"
					},
					"t_mapping(t_uint256,t_struct(Vote)127_storage)": {
						"encoding": "mapping",
						"key": "t_uint256",
						"label": "mapping(uint256 => struct MyHomesToken.Vote)",
						"numberOfBytes": "32",
						"value": "t_struct(Vote)127_storage"
					},
					"t_string_storage": {
						"encoding": "bytes",
						"label": "string",
						"numberOfBytes": "32"
					},
					"t_struct(House)111_storage": {
						"encoding": "inplace",
						"label": "struct MyHomesToken.House",
						"members": [
							{
								"astId": 106,
								"contract": "MyHomeToken.sol:MyHomesToken",
								"label": "registrationId",
								"offset": 0,
								"slot": "0",
								"type": "t_string_storage"
							},
							{
								"astId": 108,
								"contract": "MyHomeToken.sol:MyHomesToken",
								"label": "physicalAddress",
								"offset": 0,
								"slot": "1",
								"type": "t_string_storage"
							},
							{
								"astId": 110,
								"contract": "MyHomeToken.sol:MyHomesToken",
								"label": "price",
								"offset": 0,
								"slot": "2",
								"type": "t_uint256"
							}
						],
						"numberOfBytes": "96"
					},
					"t_struct(HousingPackage)122_storage": {
						"encoding": "inplace",
						"label": "struct MyHomesToken.HousingPackage",
						"members": [
							{
								"astId": 113,
								"contract": "MyHomeToken.sol:MyHomesToken",
								"label": "name",
								"offset": 0,
								"slot": "0",
								"type": "t_string_storage"
							},
							{
								"astId": 115,
								"contract": "MyHomeToken.sol:MyHomesToken",
								"label": "description",
								"offset": 0,
								"slot": "1",
								"type": "t_string_storage"
							},
							{
								"astId": 119,
								"contract": "MyHomeToken.sol:MyHomesToken",
								"label": "residences",
								"offset": 0,
								"slot": "2",
								"type": "t_array(t_struct(House)111_storage)dyn_storage"
							},
							{
								"astId": 121,
								"contract": "MyHomeToken.sol:MyHomesToken",
								"label": "totalValue",
								"offset": 0,
								"slot": "3",
								"type": "t_uint256"
							}
						],
						"numberOfBytes": "128"
					},
					"t_struct(Vote)127_storage": {
						"encoding": "inplace",
						"label": "struct MyHomesToken.Vote",
						"members": [
							{
								"astId": 124,
								"contract": "MyHomeToken.sol:MyHomesToken",
								"label": "shareHolderAddress",
								"offset": 0,
								"slot": "0",
								"type": "t_address"
							},
							{
								"astId": 126,
								"contract": "MyHomeToken.sol:MyHomesToken",
								"label": "choice",
								"offset": 20,
								"slot": "0",
								"type": "t_bool"
							}
						],
						"numberOfBytes": "32"
					},
					"t_uint256": {
						"encoding": "inplace",
						"label": "uint256",
						"numberOfBytes": "32"
					}
				}
			},
			"userdoc": {
				"kind": "user",
				"methods": {},
				"version": 1
			}
		}
	}
}