{
	"MyHomeToken.sol": {
		"MyHomesToken": {
			"abi": [
				{
					"inputs": [
						{
							"internalType": "string",
							"name": "_name",
							"type": "string"
						},
						{
							"internalType": "string",
							"name": "_description",
							"type": "string"
						}
					],
					"stateMutability": "payable",
					"type": "constructor"
				},
				{
					"anonymous": false,
					"inputs": [
						{
							"indexed": false,
							"internalType": "string",
							"name": "id",
							"type": "string"
						}
					],
					"name": "NewHouseAdded",
					"type": "event"
				},
				{
					"anonymous": false,
					"inputs": [
						{
							"indexed": false,
							"internalType": "address",
							"name": "sh",
							"type": "address"
						}
					],
					"name": "ShareHolderAdded",
					"type": "event"
				},
				{
					"anonymous": false,
					"inputs": [
						{
							"indexed": false,
							"internalType": "address",
							"name": "shareHolder",
							"type": "address"
						}
					],
					"name": "voteDone",
					"type": "event"
				},
				{
					"anonymous": false,
					"inputs": [
						{
							"indexed": false,
							"internalType": "uint256",
							"name": "finalResult",
							"type": "uint256"
						}
					],
					"name": "voteEnded",
					"type": "event"
				},
				{
					"anonymous": false,
					"inputs": [],
					"name": "voteStarted",
					"type": "event"
				},
				{
					"inputs": [
						{
							"internalType": "string",
							"name": "_registrationId",
							"type": "string"
						},
						{
							"internalType": "string",
							"name": "location",
							"type": "string"
						},
						{
							"internalType": "uint256",
							"name": "price",
							"type": "uint256"
						}
					],
					"name": "addHouse",
					"outputs": [],
					"stateMutability": "nonpayable",
					"type": "function"
				},
				{
					"inputs": [
						{
							"internalType": "address",
							"name": "_shareHolderAddress",
							"type": "address"
						}
					],
					"name": "addShareHolder",
					"outputs": [],
					"stateMutability": "nonpayable",
					"type": "function"
				},
				{
					"inputs": [
						{
							"internalType": "address",
							"name": "",
							"type": "address"
						}
					],
					"name": "balances",
					"outputs": [
						{
							"internalType": "uint256",
							"name": "",
							"type": "uint256"
						}
					],
					"stateMutability": "view",
					"type": "function"
				},
				{
					"inputs": [],
					"name": "ballotInitiator",
					"outputs": [
						{
							"internalType": "address",
							"name": "",
							"type": "address"
						}
					],
					"stateMutability": "view",
					"type": "function"
				},
				{
					"inputs": [],
					"name": "ballotName",
					"outputs": [
						{
							"internalType": "string",
							"name": "",
							"type": "string"
						}
					],
					"stateMutability": "view",
					"type": "function"
				},
				{
					"inputs": [],
					"name": "buy",
					"outputs": [],
					"stateMutability": "payable",
					"type": "function"
				},
				{
					"inputs": [
						{
							"internalType": "string",
							"name": "_ballotName",
							"type": "string"
						},
						{
							"internalType": "string",
							"name": "_proposal",
							"type": "string"
						}
					],
					"name": "createBallot",
					"outputs": [],
					"stateMutability": "nonpayable",
					"type": "function"
				},
				{
					"inputs": [
						{
							"internalType": "bool",
							"name": "_choice",
							"type": "bool"
						}
					],
					"name": "doVote",
					"outputs": [
						{
							"internalType": "bool",
							"name": "voted",
							"type": "bool"
						}
					],
					"stateMutability": "nonpayable",
					"type": "function"
				},
				{
					"inputs": [],
					"name": "endVote",
					"outputs": [],
					"stateMutability": "nonpayable",
					"type": "function"
				},
				{
					"inputs": [
						{
							"internalType": "address",
							"name": "_addr",
							"type": "address"
						}
					],
					"name": "etherBalance",
					"outputs": [
						{
							"internalType": "uint256",
							"name": "",
							"type": "uint256"
						}
					],
					"stateMutability": "view",
					"type": "function"
				},
				{
					"inputs": [],
					"name": "finalResult",
					"outputs": [
						{
							"internalType": "uint256",
							"name": "",
							"type": "uint256"
						}
					],
					"stateMutability": "view",
					"type": "function"
				},
				{
					"inputs": [
						{
							"internalType": "uint256",
							"name": "",
							"type": "uint256"
						}
					],
					"name": "houseRegister",
					"outputs": [
						{
							"internalType": "string",
							"name": "registrationId",
							"type": "string"
						},
						{
							"internalType": "string",
							"name": "physicalAddress",
							"type": "string"
						},
						{
							"internalType": "uint256",
							"name": "price",
							"type": "uint256"
						}
					],
					"stateMutability": "view",
					"type": "function"
				},
				{
					"inputs": [],
					"name": "hp",
					"outputs": [
						{
							"internalType": "string",
							"name": "name",
							"type": "string"
						},
						{
							"internalType": "string",
							"name": "description",
							"type": "string"
						},
						{
							"internalType": "uint256",
							"name": "totalValue",
							"type": "uint256"
						}
					],
					"stateMutability": "view",
					"type": "function"
				},
				{
					"inputs": [],
					"name": "owner",
					"outputs": [
						{
							"internalType": "address payable",
							"name": "",
							"type": "address"
						}
					],
					"stateMutability": "view",
					"type": "function"
				},
				{
					"inputs": [],
					"name": "proposal",
					"outputs": [
						{
							"internalType": "string",
							"name": "",
							"type": "string"
						}
					],
					"stateMutability": "view",
					"type": "function"
				},
				{
					"inputs": [
						{
							"internalType": "address",
							"name": "",
							"type": "address"
						}
					],
					"name": "shareHolderRegistry",
					"outputs": [
						{
							"internalType": "bool",
							"name": "",
							"type": "bool"
						}
					],
					"stateMutability": "view",
					"type": "function"
				},
				{
					"inputs": [
						{
							"internalType": "uint256",
							"name": "",
							"type": "uint256"
						}
					],
					"name": "shareHolders",
					"outputs": [
						{
							"internalType": "address",
							"name": "",
							"type": "address"
						}
					],
					"stateMutability": "view",
					"type": "function"
				},
				{
					"inputs": [],
					"name": "shareLimit",
					"outputs": [
						{
							"internalType": "uint256",
							"name": "",
							"type": "uint256"
						}
					],
					"stateMutability": "view",
					"type": "function"
				},
				{
					"inputs": [],
					"name": "startTrading",
					"outputs": [],
					"stateMutability": "nonpayable",
					"type": "function"
				},
				{
					"inputs": [],
					"name": "startVote",
					"outputs": [],
					"stateMutability": "nonpayable",
					"type": "function"
				},
				{
					"inputs": [],
					"name": "tokenPrice",
					"outputs": [
						{
							"internalType": "uint256",
							"name": "",
							"type": "uint256"
						}
					],
					"stateMutability": "view",
					"type": "function"
				},
				{
					"inputs": [],
					"name": "totalHouses",
					"outputs": [
						{
							"internalType": "uint256",
							"name": "",
							"type": "uint256"
						}
					],
					"stateMutability": "view",
					"type": "function"
				},
				{
					"inputs": [],
					"name": "totalShareHolders",
					"outputs": [
						{
							"internalType": "uint256",
							"name": "",
							"type": "uint256"
						}
					],
					"stateMutability": "view",
					"type": "function"
				},
				{
					"inputs": [],
					"name": "totalShares",
					"outputs": [
						{
							"internalType": "uint256",
							"name": "",
							"type": "uint256"
						}
					],
					"stateMutability": "view",
					"type": "function"
				},
				{
					"inputs": [],
					"name": "totalVotes",
					"outputs": [
						{
							"internalType": "uint256",
							"name": "",
							"type": "uint256"
						}
					],
					"stateMutability": "view",
					"type": "function"
				},
				{
					"inputs": [
						{
							"internalType": "address",
							"name": "_to",
							"type": "address"
						},
						{
							"internalType": "uint256",
							"name": "_value",
							"type": "uint256"
						}
					],
					"name": "transfer",
					"outputs": [],
					"stateMutability": "nonpayable",
					"type": "function"
				}
			],
			"devdoc": {
				"kind": "dev",
				"methods": {},
				"version": 1
			},
			"evm": {
				"assembly": "    /* \"MyHomeToken.sol\":66:5612  contract MyHomesToken {... */\n  mstore(0x40, 0x80)\n    /* \"MyHomeToken.sol\":218:219  0 */\n  0x00\n    /* \"MyHomeToken.sol\":192:219  uint public totalHouses = 0 */\n  0x05\n  sstore\n    /* \"MyHomeToken.sol\":254:257  100 */\n  0x64\n    /* \"MyHomeToken.sol\":225:257  uint256 public totalShares = 100 */\n  0x06\n  sstore\n    /* \"MyHomeToken.sol\":291:292  1 */\n  0x01\n    /* \"MyHomeToken.sol\":263:292  uint256 public tokenPrice = 1 */\n  0x07\n  sstore\n    /* \"MyHomeToken.sol\":326:328  10 */\n  0x0a\n    /* \"MyHomeToken.sol\":298:328  uint256 public shareLimit = 10 */\n  0x08\n  sstore\n    /* \"MyHomeToken.sol\":366:367  0 */\n  0x00\n    /* \"MyHomeToken.sol\":334:367  uint public totalShareHolders = 0 */\n  0x09\n  sstore\n    /* \"MyHomeToken.sol\":719:720  0 */\n  0x00\n    /* \"MyHomeToken.sol\":692:720  uint private resultCount = 0 */\n  0x11\n  sstore\n    /* \"MyHomeToken.sol\":752:753  0 */\n  0x00\n    /* \"MyHomeToken.sol\":726:753  uint public finalResult = 0 */\n  0x12\n  sstore\n    /* \"MyHomeToken.sol\":784:785  0 */\n  0x00\n    /* \"MyHomeToken.sol\":759:785  uint public totalVotes = 0 */\n  0x13\n  sstore\n    /* \"MyHomeToken.sol\":834:1113  constructor(string memory _name, string memory _description) payable {... */\n  mload(0x40)\n  sub(codesize, bytecodeSize)\n  dup1\n  bytecodeSize\n  dup4\n  codecopy\n  dup2\n  dup2\n  add\n  0x40\n  mstore\n  dup2\n  add\n  swap1\n  tag_1\n  swap2\n  swap1\n  tag_2\n  jump\t// in\ntag_1:\n    /* \"MyHomeToken.sol\":929:939  msg.sender */\n  caller\n    /* \"MyHomeToken.sol\":913:918  owner */\n  0x00\n  dup1\n    /* \"MyHomeToken.sol\":913:940  owner = payable(msg.sender) */\n  0x0100\n  exp\n  dup2\n  sload\n  dup2\n  0xffffffffffffffffffffffffffffffffffffffff\n  mul\n  not\n  and\n  swap1\n  dup4\n  0xffffffffffffffffffffffffffffffffffffffff\n  and\n  mul\n  or\n  swap1\n  sstore\n  pop\n    /* \"MyHomeToken.sol\":973:984  totalShares */\n  sload(0x06)\n    /* \"MyHomeToken.sol\":950:958  balances */\n  0x0d\n    /* \"MyHomeToken.sol\":950:970  balances[msg.sender] */\n  0x00\n    /* \"MyHomeToken.sol\":959:969  msg.sender */\n  caller\n    /* \"MyHomeToken.sol\":950:970  balances[msg.sender] */\n  0xffffffffffffffffffffffffffffffffffffffff\n  and\n  0xffffffffffffffffffffffffffffffffffffffff\n  and\n  dup2\n  mstore\n  0x20\n  add\n  swap1\n  dup2\n  mstore\n  0x20\n  add\n  0x00\n  keccak256\n    /* \"MyHomeToken.sol\":950:984  balances[msg.sender] = totalShares */\n  dup2\n  swap1\n  sstore\n  pop\n    /* \"MyHomeToken.sol\":1004:1009  _name */\n  dup2\n    /* \"MyHomeToken.sol\":994:996  hp */\n  0x01\n    /* \"MyHomeToken.sol\":994:1001  hp.name */\n  0x00\n  add\n    /* \"MyHomeToken.sol\":994:1009  hp.name = _name */\n  swap1\n  dup1\n  mload\n  swap1\n  0x20\n  add\n  swap1\n  tag_5\n  swap3\n  swap2\n  swap1\n  tag_6\n  jump\t// in\ntag_5:\n  pop\n    /* \"MyHomeToken.sol\":1036:1048  _description */\n  dup1\n    /* \"MyHomeToken.sol\":1019:1021  hp */\n  0x01\n    /* \"MyHomeToken.sol\":1019:1033  hp.description */\n  dup1\n  add\n    /* \"MyHomeToken.sol\":1019:1048  hp.description = _description */\n  swap1\n  dup1\n  mload\n  swap1\n  0x20\n  add\n  swap1\n  tag_7\n  swap3\n  swap2\n  swap1\n  tag_6\n  jump\t// in\ntag_7:\n  pop\n    /* \"MyHomeToken.sol\":1074:1075  0 */\n  0x00\n    /* \"MyHomeToken.sol\":1058:1060  hp */\n  0x01\n    /* \"MyHomeToken.sol\":1058:1071  hp.totalValue */\n  0x02\n  add\n    /* \"MyHomeToken.sol\":1058:1075  hp.totalValue = 0 */\n  dup2\n  swap1\n  sstore\n  pop\n    /* \"MyHomeToken.sol\":1093:1106  State.Created */\n  0x00\n    /* \"MyHomeToken.sol\":1085:1090  state */\n  0x0a\n  0x00\n    /* \"MyHomeToken.sol\":1085:1106  state = State.Created */\n  0x0100\n  exp\n  dup2\n  sload\n  dup2\n  0xff\n  mul\n  not\n  and\n  swap1\n  dup4\n  0x01\n  dup2\n  gt\n  iszero\n  tag_8\n  jumpi\n  tag_9\n  tag_10\n  jump\t// in\ntag_9:\ntag_8:\n  mul\n  or\n  swap1\n  sstore\n  pop\n    /* \"MyHomeToken.sol\":834:1113  constructor(string memory _name, string memory _description) payable {... */\n  pop\n  pop\n    /* \"MyHomeToken.sol\":66:5612  contract MyHomesToken {... */\n  jump(tag_11)\ntag_6:\n  dup3\n  dup1\n  sload\n  tag_12\n  swap1\n  tag_13\n  jump\t// in\ntag_12:\n  swap1\n  0x00\n  mstore\n  keccak256(0x00, 0x20)\n  swap1\n  0x1f\n  add\n  0x20\n  swap1\n  div\n  dup2\n  add\n  swap3\n  dup3\n  tag_15\n  jumpi\n  0x00\n  dup6\n  sstore\n  jump(tag_14)\ntag_15:\n  dup3\n  0x1f\n  lt\n  tag_16\n  jumpi\n  dup1\n  mload\n  not(0xff)\n  and\n  dup4\n  dup1\n  add\n  or\n  dup6\n  sstore\n  jump(tag_14)\ntag_16:\n  dup3\n  dup1\n  add\n  0x01\n  add\n  dup6\n  sstore\n  dup3\n  iszero\n  tag_14\n  jumpi\n  swap2\n  dup3\n  add\ntag_17:\n  dup3\n  dup2\n  gt\n  iszero\n  tag_18\n  jumpi\n  dup3\n  mload\n  dup3\n  sstore\n  swap2\n  0x20\n  add\n  swap2\n  swap1\n  0x01\n  add\n  swap1\n  jump(tag_17)\ntag_18:\ntag_14:\n  pop\n  swap1\n  pop\n  tag_19\n  swap2\n  swap1\n  tag_20\n  jump\t// in\ntag_19:\n  pop\n  swap1\n  jump\t// out\ntag_20:\ntag_21:\n  dup1\n  dup3\n  gt\n  iszero\n  tag_22\n  jumpi\n  0x00\n  dup2\n  0x00\n  swap1\n  sstore\n  pop\n  0x01\n  add\n  jump(tag_21)\ntag_22:\n  pop\n  swap1\n  jump\t// out\n    /* \"#utility.yul\":7:428   */\ntag_24:\n    /* \"#utility.yul\":96:101   */\n  0x00\n    /* \"#utility.yul\":121:187   */\n  tag_26\n    /* \"#utility.yul\":137:186   */\n  tag_27\n    /* \"#utility.yul\":179:185   */\n  dup5\n    /* \"#utility.yul\":137:186   */\n  tag_28\n  jump\t// in\ntag_27:\n    /* \"#utility.yul\":121:187   */\n  tag_29\n  jump\t// in\ntag_26:\n    /* \"#utility.yul\":112:187   */\n  swap1\n  pop\n    /* \"#utility.yul\":210:216   */\n  dup3\n    /* \"#utility.yul\":203:208   */\n  dup2\n    /* \"#utility.yul\":196:217   */\n  mstore\n    /* \"#utility.yul\":248:252   */\n  0x20\n    /* \"#utility.yul\":241:246   */\n  dup2\n    /* \"#utility.yul\":237:253   */\n  add\n    /* \"#utility.yul\":286:289   */\n  dup5\n    /* \"#utility.yul\":277:283   */\n  dup5\n    /* \"#utility.yul\":272:275   */\n  dup5\n    /* \"#utility.yul\":268:284   */\n  add\n    /* \"#utility.yul\":265:290   */\n  gt\n    /* \"#utility.yul\":262:374   */\n  iszero\n  tag_30\n  jumpi\n    /* \"#utility.yul\":293:372   */\n  tag_31\n  tag_32\n  jump\t// in\ntag_31:\n    /* \"#utility.yul\":262:374   */\ntag_30:\n    /* \"#utility.yul\":383:422   */\n  tag_33\n    /* \"#utility.yul\":415:421   */\n  dup5\n    /* \"#utility.yul\":410:413   */\n  dup3\n    /* \"#utility.yul\":405:408   */\n  dup6\n    /* \"#utility.yul\":383:422   */\n  tag_34\n  jump\t// in\ntag_33:\n    /* \"#utility.yul\":102:428   */\n  pop\n    /* \"#utility.yul\":7:428   */\n  swap4\n  swap3\n  pop\n  pop\n  pop\n  jump\t// out\n    /* \"#utility.yul\":448:803   */\ntag_35:\n    /* \"#utility.yul\":515:520   */\n  0x00\n    /* \"#utility.yul\":564:567   */\n  dup3\n    /* \"#utility.yul\":557:561   */\n  0x1f\n    /* \"#utility.yul\":549:555   */\n  dup4\n    /* \"#utility.yul\":545:562   */\n  add\n    /* \"#utility.yul\":541:568   */\n  slt\n    /* \"#utility.yul\":531:653   */\n  tag_37\n  jumpi\n    /* \"#utility.yul\":572:651   */\n  tag_38\n  tag_39\n  jump\t// in\ntag_38:\n    /* \"#utility.yul\":531:653   */\ntag_37:\n    /* \"#utility.yul\":682:688   */\n  dup2\n    /* \"#utility.yul\":676:689   */\n  mload\n    /* \"#utility.yul\":707:797   */\n  tag_40\n    /* \"#utility.yul\":793:796   */\n  dup5\n    /* \"#utility.yul\":785:791   */\n  dup3\n    /* \"#utility.yul\":778:782   */\n  0x20\n    /* \"#utility.yul\":770:776   */\n  dup7\n    /* \"#utility.yul\":766:783   */\n  add\n    /* \"#utility.yul\":707:797   */\n  tag_24\n  jump\t// in\ntag_40:\n    /* \"#utility.yul\":698:797   */\n  swap2\n  pop\n    /* \"#utility.yul\":521:803   */\n  pop\n    /* \"#utility.yul\":448:803   */\n  swap3\n  swap2\n  pop\n  pop\n  jump\t// out\n    /* \"#utility.yul\":809:1662   */\ntag_2:\n    /* \"#utility.yul\":908:914   */\n  0x00\n    /* \"#utility.yul\":916:922   */\n  dup1\n    /* \"#utility.yul\":965:967   */\n  0x40\n    /* \"#utility.yul\":953:962   */\n  dup4\n    /* \"#utility.yul\":944:951   */\n  dup6\n    /* \"#utility.yul\":940:963   */\n  sub\n    /* \"#utility.yul\":936:968   */\n  slt\n    /* \"#utility.yul\":933:1052   */\n  iszero\n  tag_42\n  jumpi\n    /* \"#utility.yul\":971:1050   */\n  tag_43\n  tag_44\n  jump\t// in\ntag_43:\n    /* \"#utility.yul\":933:1052   */\ntag_42:\n    /* \"#utility.yul\":1112:1113   */\n  0x00\n    /* \"#utility.yul\":1101:1110   */\n  dup4\n    /* \"#utility.yul\":1097:1114   */\n  add\n    /* \"#utility.yul\":1091:1115   */\n  mload\n    /* \"#utility.yul\":1142:1160   */\n  0xffffffffffffffff\n    /* \"#utility.yul\":1134:1140   */\n  dup2\n    /* \"#utility.yul\":1131:1161   */\n  gt\n    /* \"#utility.yul\":1128:1245   */\n  iszero\n  tag_45\n  jumpi\n    /* \"#utility.yul\":1164:1243   */\n  tag_46\n  tag_47\n  jump\t// in\ntag_46:\n    /* \"#utility.yul\":1128:1245   */\ntag_45:\n    /* \"#utility.yul\":1269:1343   */\n  tag_48\n    /* \"#utility.yul\":1335:1342   */\n  dup6\n    /* \"#utility.yul\":1326:1332   */\n  dup3\n    /* \"#utility.yul\":1315:1324   */\n  dup7\n    /* \"#utility.yul\":1311:1333   */\n  add\n    /* \"#utility.yul\":1269:1343   */\n  tag_35\n  jump\t// in\ntag_48:\n    /* \"#utility.yul\":1259:1343   */\n  swap3\n  pop\n    /* \"#utility.yul\":1062:1353   */\n  pop\n    /* \"#utility.yul\":1413:1415   */\n  0x20\n    /* \"#utility.yul\":1402:1411   */\n  dup4\n    /* \"#utility.yul\":1398:1416   */\n  add\n    /* \"#utility.yul\":1392:1417   */\n  mload\n    /* \"#utility.yul\":1444:1462   */\n  0xffffffffffffffff\n    /* \"#utility.yul\":1436:1442   */\n  dup2\n    /* \"#utility.yul\":1433:1463   */\n  gt\n    /* \"#utility.yul\":1430:1547   */\n  iszero\n  tag_49\n  jumpi\n    /* \"#utility.yul\":1466:1545   */\n  tag_50\n  tag_47\n  jump\t// in\ntag_50:\n    /* \"#utility.yul\":1430:1547   */\ntag_49:\n    /* \"#utility.yul\":1571:1645   */\n  tag_51\n    /* \"#utility.yul\":1637:1644   */\n  dup6\n    /* \"#utility.yul\":1628:1634   */\n  dup3\n    /* \"#utility.yul\":1617:1626   */\n  dup7\n    /* \"#utility.yul\":1613:1635   */\n  add\n    /* \"#utility.yul\":1571:1645   */\n  tag_35\n  jump\t// in\ntag_51:\n    /* \"#utility.yul\":1561:1645   */\n  swap2\n  pop\n    /* \"#utility.yul\":1363:1655   */\n  pop\n    /* \"#utility.yul\":809:1662   */\n  swap3\n  pop\n  swap3\n  swap1\n  pop\n  jump\t// out\n    /* \"#utility.yul\":1668:1797   */\ntag_29:\n    /* \"#utility.yul\":1702:1708   */\n  0x00\n    /* \"#utility.yul\":1729:1749   */\n  tag_53\n  tag_54\n  jump\t// in\ntag_53:\n    /* \"#utility.yul\":1719:1749   */\n  swap1\n  pop\n    /* \"#utility.yul\":1758:1791   */\n  tag_55\n    /* \"#utility.yul\":1786:1790   */\n  dup3\n    /* \"#utility.yul\":1778:1784   */\n  dup3\n    /* \"#utility.yul\":1758:1791   */\n  tag_56\n  jump\t// in\ntag_55:\n    /* \"#utility.yul\":1668:1797   */\n  swap2\n  swap1\n  pop\n  jump\t// out\n    /* \"#utility.yul\":1803:1878   */\ntag_54:\n    /* \"#utility.yul\":1836:1842   */\n  0x00\n    /* \"#utility.yul\":1869:1871   */\n  0x40\n    /* \"#utility.yul\":1863:1872   */\n  mload\n    /* \"#utility.yul\":1853:1872   */\n  swap1\n  pop\n    /* \"#utility.yul\":1803:1878   */\n  swap1\n  jump\t// out\n    /* \"#utility.yul\":1884:2192   */\ntag_28:\n    /* \"#utility.yul\":1946:1950   */\n  0x00\n    /* \"#utility.yul\":2036:2054   */\n  0xffffffffffffffff\n    /* \"#utility.yul\":2028:2034   */\n  dup3\n    /* \"#utility.yul\":2025:2055   */\n  gt\n    /* \"#utility.yul\":2022:2078   */\n  iszero\n  tag_59\n  jumpi\n    /* \"#utility.yul\":2058:2076   */\n  tag_60\n  tag_61\n  jump\t// in\ntag_60:\n    /* \"#utility.yul\":2022:2078   */\ntag_59:\n    /* \"#utility.yul\":2096:2125   */\n  tag_62\n    /* \"#utility.yul\":2118:2124   */\n  dup3\n    /* \"#utility.yul\":2096:2125   */\n  tag_63\n  jump\t// in\ntag_62:\n    /* \"#utility.yul\":2088:2125   */\n  swap1\n  pop\n    /* \"#utility.yul\":2180:2184   */\n  0x20\n    /* \"#utility.yul\":2174:2178   */\n  dup2\n    /* \"#utility.yul\":2170:2185   */\n  add\n    /* \"#utility.yul\":2162:2185   */\n  swap1\n  pop\n    /* \"#utility.yul\":1884:2192   */\n  swap2\n  swap1\n  pop\n  jump\t// out\n    /* \"#utility.yul\":2198:2505   */\ntag_34:\n    /* \"#utility.yul\":2266:2267   */\n  0x00\n    /* \"#utility.yul\":2276:2389   */\ntag_65:\n    /* \"#utility.yul\":2290:2296   */\n  dup4\n    /* \"#utility.yul\":2287:2288   */\n  dup2\n    /* \"#utility.yul\":2284:2297   */\n  lt\n    /* \"#utility.yul\":2276:2389   */\n  iszero\n  tag_67\n  jumpi\n    /* \"#utility.yul\":2375:2376   */\n  dup1\n    /* \"#utility.yul\":2370:2373   */\n  dup3\n    /* \"#utility.yul\":2366:2377   */\n  add\n    /* \"#utility.yul\":2360:2378   */\n  mload\n    /* \"#utility.yul\":2356:2357   */\n  dup2\n    /* \"#utility.yul\":2351:2354   */\n  dup5\n    /* \"#utility.yul\":2347:2358   */\n  add\n    /* \"#utility.yul\":2340:2379   */\n  mstore\n    /* \"#utility.yul\":2312:2314   */\n  0x20\n    /* \"#utility.yul\":2309:2310   */\n  dup2\n    /* \"#utility.yul\":2305:2315   */\n  add\n    /* \"#utility.yul\":2300:2315   */\n  swap1\n  pop\n    /* \"#utility.yul\":2276:2389   */\n  jump(tag_65)\ntag_67:\n    /* \"#utility.yul\":2407:2413   */\n  dup4\n    /* \"#utility.yul\":2404:2405   */\n  dup2\n    /* \"#utility.yul\":2401:2414   */\n  gt\n    /* \"#utility.yul\":2398:2499   */\n  iszero\n  tag_68\n  jumpi\n    /* \"#utility.yul\":2487:2488   */\n  0x00\n    /* \"#utility.yul\":2478:2484   */\n  dup5\n    /* \"#utility.yul\":2473:2476   */\n  dup5\n    /* \"#utility.yul\":2469:2485   */\n  add\n    /* \"#utility.yul\":2462:2489   */\n  mstore\n    /* \"#utility.yul\":2398:2499   */\ntag_68:\n    /* \"#utility.yul\":2247:2505   */\n  pop\n    /* \"#utility.yul\":2198:2505   */\n  pop\n  pop\n  pop\n  jump\t// out\n    /* \"#utility.yul\":2511:2831   */\ntag_13:\n    /* \"#utility.yul\":2555:2561   */\n  0x00\n    /* \"#utility.yul\":2592:2593   */\n  0x02\n    /* \"#utility.yul\":2586:2590   */\n  dup3\n    /* \"#utility.yul\":2582:2594   */\n  div\n    /* \"#utility.yul\":2572:2594   */\n  swap1\n  pop\n    /* \"#utility.yul\":2639:2640   */\n  0x01\n    /* \"#utility.yul\":2633:2637   */\n  dup3\n    /* \"#utility.yul\":2629:2641   */\n  and\n    /* \"#utility.yul\":2660:2678   */\n  dup1\n    /* \"#utility.yul\":2650:2731   */\n  tag_70\n  jumpi\n    /* \"#utility.yul\":2716:2720   */\n  0x7f\n    /* \"#utility.yul\":2708:2714   */\n  dup3\n    /* \"#utility.yul\":2704:2721   */\n  and\n    /* \"#utility.yul\":2694:2721   */\n  swap2\n  pop\n    /* \"#utility.yul\":2650:2731   */\ntag_70:\n    /* \"#utility.yul\":2778:2780   */\n  0x20\n    /* \"#utility.yul\":2770:2776   */\n  dup3\n    /* \"#utility.yul\":2767:2781   */\n  lt\n    /* \"#utility.yul\":2747:2765   */\n  dup2\n    /* \"#utility.yul\":2744:2782   */\n  eq\n    /* \"#utility.yul\":2741:2825   */\n  iszero\n  tag_71\n  jumpi\n    /* \"#utility.yul\":2797:2815   */\n  tag_72\n  tag_73\n  jump\t// in\ntag_72:\n    /* \"#utility.yul\":2741:2825   */\ntag_71:\n    /* \"#utility.yul\":2562:2831   */\n  pop\n    /* \"#utility.yul\":2511:2831   */\n  swap2\n  swap1\n  pop\n  jump\t// out\n    /* \"#utility.yul\":2837:3118   */\ntag_56:\n    /* \"#utility.yul\":2920:2947   */\n  tag_75\n    /* \"#utility.yul\":2942:2946   */\n  dup3\n    /* \"#utility.yul\":2920:2947   */\n  tag_63\n  jump\t// in\ntag_75:\n    /* \"#utility.yul\":2912:2918   */\n  dup2\n    /* \"#utility.yul\":2908:2948   */\n  add\n    /* \"#utility.yul\":3050:3056   */\n  dup2\n    /* \"#utility.yul\":3038:3048   */\n  dup2\n    /* \"#utility.yul\":3035:3057   */\n  lt\n    /* \"#utility.yul\":3014:3032   */\n  0xffffffffffffffff\n    /* \"#utility.yul\":3002:3012   */\n  dup3\n    /* \"#utility.yul\":2999:3033   */\n  gt\n    /* \"#utility.yul\":2996:3058   */\n  or\n    /* \"#utility.yul\":2993:3081   */\n  iszero\n  tag_76\n  jumpi\n    /* \"#utility.yul\":3061:3079   */\n  tag_77\n  tag_61\n  jump\t// in\ntag_77:\n    /* \"#utility.yul\":2993:3081   */\ntag_76:\n    /* \"#utility.yul\":3101:3111   */\n  dup1\n    /* \"#utility.yul\":3097:3099   */\n  0x40\n    /* \"#utility.yul\":3090:3112   */\n  mstore\n    /* \"#utility.yul\":2880:3118   */\n  pop\n    /* \"#utility.yul\":2837:3118   */\n  pop\n  pop\n  jump\t// out\n    /* \"#utility.yul\":3124:3304   */\ntag_10:\n    /* \"#utility.yul\":3172:3249   */\n  0x4e487b7100000000000000000000000000000000000000000000000000000000\n    /* \"#utility.yul\":3169:3170   */\n  0x00\n    /* \"#utility.yul\":3162:3250   */\n  mstore\n    /* \"#utility.yul\":3269:3273   */\n  0x21\n    /* \"#utility.yul\":3266:3267   */\n  0x04\n    /* \"#utility.yul\":3259:3274   */\n  mstore\n    /* \"#utility.yul\":3293:3297   */\n  0x24\n    /* \"#utility.yul\":3290:3291   */\n  0x00\n    /* \"#utility.yul\":3283:3298   */\n  revert\n    /* \"#utility.yul\":3310:3490   */\ntag_73:\n    /* \"#utility.yul\":3358:3435   */\n  0x4e487b7100000000000000000000000000000000000000000000000000000000\n    /* \"#utility.yul\":3355:3356   */\n  0x00\n    /* \"#utility.yul\":3348:3436   */\n  mstore\n    /* \"#utility.yul\":3455:3459   */\n  0x22\n    /* \"#utility.yul\":3452:3453   */\n  0x04\n    /* \"#utility.yul\":3445:3460   */\n  mstore\n    /* \"#utility.yul\":3479:3483   */\n  0x24\n    /* \"#utility.yul\":3476:3477   */\n  0x00\n    /* \"#utility.yul\":3469:3484   */\n  revert\n    /* \"#utility.yul\":3496:3676   */\ntag_61:\n    /* \"#utility.yul\":3544:3621   */\n  0x4e487b7100000000000000000000000000000000000000000000000000000000\n    /* \"#utility.yul\":3541:3542   */\n  0x00\n    /* \"#utility.yul\":3534:3622   */\n  mstore\n    /* \"#utility.yul\":3641:3645   */\n  0x41\n    /* \"#utility.yul\":3638:3639   */\n  0x04\n    /* \"#utility.yul\":3631:3646   */\n  mstore\n    /* \"#utility.yul\":3665:3669   */\n  0x24\n    /* \"#utility.yul\":3662:3663   */\n  0x00\n    /* \"#utility.yul\":3655:3670   */\n  revert\n    /* \"#utility.yul\":3682:3799   */\ntag_39:\n    /* \"#utility.yul\":3791:3792   */\n  0x00\n    /* \"#utility.yul\":3788:3789   */\n  dup1\n    /* \"#utility.yul\":3781:3793   */\n  revert\n    /* \"#utility.yul\":3805:3922   */\ntag_32:\n    /* \"#utility.yul\":3914:3915   */\n  0x00\n    /* \"#utility.yul\":3911:3912   */\n  dup1\n    /* \"#utility.yul\":3904:3916   */\n  revert\n    /* \"#utility.yul\":3928:4045   */\ntag_47:\n    /* \"#utility.yul\":4037:4038   */\n  0x00\n    /* \"#utility.yul\":4034:4035   */\n  dup1\n    /* \"#utility.yul\":4027:4039   */\n  revert\n    /* \"#utility.yul\":4051:4168   */\ntag_44:\n    /* \"#utility.yul\":4160:4161   */\n  0x00\n    /* \"#utility.yul\":4157:4158   */\n  dup1\n    /* \"#utility.yul\":4150:4162   */\n  revert\n    /* \"#utility.yul\":4174:4276   */\ntag_63:\n    /* \"#utility.yul\":4215:4221   */\n  0x00\n    /* \"#utility.yul\":4266:4268   */\n  0x1f\n    /* \"#utility.yul\":4262:4269   */\n  not\n    /* \"#utility.yul\":4257:4259   */\n  0x1f\n    /* \"#utility.yul\":4250:4255   */\n  dup4\n    /* \"#utility.yul\":4246:4260   */\n  add\n    /* \"#utility.yul\":4242:4270   */\n  and\n    /* \"#utility.yul\":4232:4270   */\n  swap1\n  pop\n    /* \"#utility.yul\":4174:4276   */\n  swap2\n  swap1\n  pop\n  jump\t// out\n    /* \"MyHomeToken.sol\":66:5612  contract MyHomesToken {... */\ntag_11:\n  dataSize(sub_0)\n  dup1\n  dataOffset(sub_0)\n  0x00\n  codecopy\n  0x00\n  return\nstop\n\nsub_0: assembly {\n        /* \"MyHomeToken.sol\":66:5612  contract MyHomesToken {... */\n      mstore(0x40, 0x80)\n      jumpi(tag_1, lt(calldatasize, 0x04))\n      shr(0xe0, calldataload(0x00))\n      dup1\n      0x87caea78\n      gt\n      tag_28\n      jumpi\n      dup1\n      0xad349442\n      gt\n      tag_29\n      jumpi\n      dup1\n      0xcd0c5896\n      gt\n      tag_30\n      jumpi\n      dup1\n      0xcd0c5896\n      eq\n      tag_24\n      jumpi\n      dup1\n      0xd8124c5f\n      eq\n      tag_25\n      jumpi\n      dup1\n      0xdf094409\n      eq\n      tag_26\n      jumpi\n      dup1\n      0xf3a8286f\n      eq\n      tag_27\n      jumpi\n      jump(tag_1)\n    tag_30:\n      dup1\n      0xad349442\n      eq\n      tag_21\n      jumpi\n      dup1\n      0xaf769c64\n      eq\n      tag_22\n      jumpi\n      dup1\n      0xb9223946\n      eq\n      tag_23\n      jumpi\n      jump(tag_1)\n    tag_29:\n      dup1\n      0x87caea78\n      eq\n      tag_15\n      jumpi\n      dup1\n      0x8da5cb5b\n      eq\n      tag_16\n      jumpi\n      dup1\n      0x9a982416\n      eq\n      tag_17\n      jumpi\n      dup1\n      0xa14ba987\n      eq\n      tag_18\n      jumpi\n      dup1\n      0xa6f2ae3a\n      eq\n      tag_19\n      jumpi\n      dup1\n      0xa9059cbb\n      eq\n      tag_20\n      jumpi\n      jump(tag_1)\n    tag_28:\n      dup1\n      0x3be75aa3\n      gt\n      tag_31\n      jumpi\n      dup1\n      0x6fa4f103\n      gt\n      tag_32\n      jumpi\n      dup1\n      0x6fa4f103\n      eq\n      tag_11\n      jumpi\n      dup1\n      0x7427a40c\n      eq\n      tag_12\n      jumpi\n      dup1\n      0x753ec103\n      eq\n      tag_13\n      jumpi\n      dup1\n      0x7ff9b596\n      eq\n      tag_14\n      jumpi\n      jump(tag_1)\n    tag_32:\n      dup1\n      0x3be75aa3\n      eq\n      tag_8\n      jumpi\n      dup1\n      0x4c0a6af0\n      eq\n      tag_9\n      jumpi\n      dup1\n      0x59ea0173\n      eq\n      tag_10\n      jumpi\n      jump(tag_1)\n    tag_31:\n      dup1\n      0x0d15fd77\n      eq\n      tag_2\n      jumpi\n      dup1\n      0x162d8afb\n      eq\n      tag_3\n      jumpi\n      dup1\n      0x1b26586c\n      eq\n      tag_4\n      jumpi\n      dup1\n      0x27e235e3\n      eq\n      tag_5\n      jumpi\n      dup1\n      0x293230b8\n      eq\n      tag_6\n      jumpi\n      dup1\n      0x3a98ef39\n      eq\n      tag_7\n      jumpi\n    tag_1:\n      0x00\n      dup1\n      revert\n        /* \"MyHomeToken.sol\":759:785  uint public totalVotes = 0 */\n    tag_2:\n      callvalue\n      dup1\n      iszero\n      tag_33\n      jumpi\n      0x00\n      dup1\n      revert\n    tag_33:\n      pop\n      tag_34\n      tag_35\n      jump\t// in\n    tag_34:\n      mload(0x40)\n      tag_36\n      swap2\n      swap1\n      tag_37\n      jump\t// in\n    tag_36:\n      mload(0x40)\n      dup1\n      swap2\n      sub\n      swap1\n      return\n        /* \"MyHomeToken.sol\":192:219  uint public totalHouses = 0 */\n    tag_3:\n      callvalue\n      dup1\n      iszero\n      tag_38\n      jumpi\n      0x00\n      dup1\n      revert\n    tag_38:\n      pop\n      tag_39\n      tag_40\n      jump\t// in\n    tag_39:\n      mload(0x40)\n      tag_41\n      swap2\n      swap1\n      tag_37\n      jump\t// in\n    tag_41:\n      mload(0x40)\n      dup1\n      swap2\n      sub\n      swap1\n      return\n        /* \"MyHomeToken.sol\":634:658  string public ballotName */\n    tag_4:\n      callvalue\n      dup1\n      iszero\n      tag_42\n      jumpi\n      0x00\n      dup1\n      revert\n    tag_42:\n      pop\n      tag_43\n      tag_44\n      jump\t// in\n    tag_43:\n      mload(0x40)\n      tag_45\n      swap2\n      swap1\n      tag_46\n      jump\t// in\n    tag_45:\n      mload(0x40)\n      dup1\n      swap2\n      sub\n      swap1\n      return\n        /* \"MyHomeToken.sol\":490:534  mapping (address => uint256) public balances */\n    tag_5:\n      callvalue\n      dup1\n      iszero\n      tag_47\n      jumpi\n      0x00\n      dup1\n      revert\n    tag_47:\n      pop\n      tag_48\n      0x04\n      dup1\n      calldatasize\n      sub\n      dup2\n      add\n      swap1\n      tag_49\n      swap2\n      swap1\n      tag_50\n      jump\t// in\n    tag_49:\n      tag_51\n      jump\t// in\n    tag_48:\n      mload(0x40)\n      tag_52\n      swap2\n      swap1\n      tag_37\n      jump\t// in\n    tag_52:\n      mload(0x40)\n      dup1\n      swap2\n      sub\n      swap1\n      return\n        /* \"MyHomeToken.sol\":2130:2213  function startTrading() public onlyRegulator {... */\n    tag_6:\n      callvalue\n      dup1\n      iszero\n      tag_53\n      jumpi\n      0x00\n      dup1\n      revert\n    tag_53:\n      pop\n      tag_54\n      tag_55\n      jump\t// in\n    tag_54:\n      stop\n        /* \"MyHomeToken.sol\":225:257  uint256 public totalShares = 100 */\n    tag_7:\n      callvalue\n      dup1\n      iszero\n      tag_56\n      jumpi\n      0x00\n      dup1\n      revert\n    tag_56:\n      pop\n      tag_57\n      tag_58\n      jump\t// in\n    tag_57:\n      mload(0x40)\n      tag_59\n      swap2\n      swap1\n      tag_37\n      jump\t// in\n    tag_59:\n      mload(0x40)\n      dup1\n      swap2\n      sub\n      swap1\n      return\n        /* \"MyHomeToken.sol\":298:328  uint256 public shareLimit = 10 */\n    tag_8:\n      callvalue\n      dup1\n      iszero\n      tag_60\n      jumpi\n      0x00\n      dup1\n      revert\n    tag_60:\n      pop\n      tag_61\n      tag_62\n      jump\t// in\n    tag_61:\n      mload(0x40)\n      tag_63\n      swap2\n      swap1\n      tag_37\n      jump\t// in\n    tag_63:\n      mload(0x40)\n      dup1\n      swap2\n      sub\n      swap1\n      return\n        /* \"MyHomeToken.sol\":4569:4760  function startVote()... */\n    tag_9:\n      callvalue\n      dup1\n      iszero\n      tag_64\n      jumpi\n      0x00\n      dup1\n      revert\n    tag_64:\n      pop\n      tag_65\n      tag_66\n      jump\t// in\n    tag_65:\n      stop\n        /* \"MyHomeToken.sol\":433:484  mapping(address => bool) public shareHolderRegistry */\n    tag_10:\n      callvalue\n      dup1\n      iszero\n      tag_67\n      jumpi\n      0x00\n      dup1\n      revert\n    tag_67:\n      pop\n      tag_68\n      0x04\n      dup1\n      calldatasize\n      sub\n      dup2\n      add\n      swap1\n      tag_69\n      swap2\n      swap1\n      tag_50\n      jump\t// in\n    tag_69:\n      tag_70\n      jump\t// in\n    tag_68:\n      mload(0x40)\n      tag_71\n      swap2\n      swap1\n      tag_72\n      jump\t// in\n    tag_71:\n      mload(0x40)\n      dup1\n      swap2\n      sub\n      swap1\n      return\n        /* \"MyHomeToken.sol\":4330:4563  function createBallot(string memory _ballotName, string memory _proposal) public {... */\n    tag_11:\n      callvalue\n      dup1\n      iszero\n      tag_73\n      jumpi\n      0x00\n      dup1\n      revert\n    tag_73:\n      pop\n      tag_74\n      0x04\n      dup1\n      calldatasize\n      sub\n      dup2\n      add\n      swap1\n      tag_75\n      swap2\n      swap1\n      tag_76\n      jump\t// in\n    tag_75:\n      tag_77\n      jump\t// in\n    tag_74:\n      stop\n        /* \"MyHomeToken.sol\":398:427  address[] public shareHolders */\n    tag_12:\n      callvalue\n      dup1\n      iszero\n      tag_78\n      jumpi\n      0x00\n      dup1\n      revert\n    tag_78:\n      pop\n      tag_79\n      0x04\n      dup1\n      calldatasize\n      sub\n      dup2\n      add\n      swap1\n      tag_80\n      swap2\n      swap1\n      tag_81\n      jump\t// in\n    tag_80:\n      tag_82\n      jump\t// in\n    tag_79:\n      mload(0x40)\n      tag_83\n      swap2\n      swap1\n      tag_84\n      jump\t// in\n    tag_83:\n      mload(0x40)\n      dup1\n      swap2\n      sub\n      swap1\n      return\n        /* \"MyHomeToken.sol\":664:686  string public proposal */\n    tag_13:\n      callvalue\n      dup1\n      iszero\n      tag_85\n      jumpi\n      0x00\n      dup1\n      revert\n    tag_85:\n      pop\n      tag_86\n      tag_87\n      jump\t// in\n    tag_86:\n      mload(0x40)\n      tag_88\n      swap2\n      swap1\n      tag_46\n      jump\t// in\n    tag_88:\n      mload(0x40)\n      dup1\n      swap2\n      sub\n      swap1\n      return\n        /* \"MyHomeToken.sol\":263:292  uint256 public tokenPrice = 1 */\n    tag_14:\n      callvalue\n      dup1\n      iszero\n      tag_89\n      jumpi\n      0x00\n      dup1\n      revert\n    tag_89:\n      pop\n      tag_90\n      tag_91\n      jump\t// in\n    tag_90:\n      mload(0x40)\n      tag_92\n      swap2\n      swap1\n      tag_37\n      jump\t// in\n    tag_92:\n      mload(0x40)\n      dup1\n      swap2\n      sub\n      swap1\n      return\n        /* \"MyHomeToken.sol\":4766:5372  function doVote(bool _choice)... */\n    tag_15:\n      callvalue\n      dup1\n      iszero\n      tag_93\n      jumpi\n      0x00\n      dup1\n      revert\n    tag_93:\n      pop\n      tag_94\n      0x04\n      dup1\n      calldatasize\n      sub\n      dup2\n      add\n      swap1\n      tag_95\n      swap2\n      swap1\n      tag_96\n      jump\t// in\n    tag_95:\n      tag_97\n      jump\t// in\n    tag_94:\n      mload(0x40)\n      tag_98\n      swap2\n      swap1\n      tag_72\n      jump\t// in\n    tag_98:\n      mload(0x40)\n      dup1\n      swap2\n      sub\n      swap1\n      return\n        /* \"MyHomeToken.sol\":94:122  address payable public owner */\n    tag_16:\n      callvalue\n      dup1\n      iszero\n      tag_99\n      jumpi\n      0x00\n      dup1\n      revert\n    tag_99:\n      pop\n      tag_100\n      tag_101\n      jump\t// in\n    tag_100:\n      mload(0x40)\n      tag_102\n      swap2\n      swap1\n      tag_103\n      jump\t// in\n    tag_102:\n      mload(0x40)\n      dup1\n      swap2\n      sub\n      swap1\n      return\n        /* \"MyHomeToken.sol\":334:367  uint public totalShareHolders = 0 */\n    tag_17:\n      callvalue\n      dup1\n      iszero\n      tag_104\n      jumpi\n      0x00\n      dup1\n      revert\n    tag_104:\n      pop\n      tag_105\n      tag_106\n      jump\t// in\n    tag_105:\n      mload(0x40)\n      tag_107\n      swap2\n      swap1\n      tag_37\n      jump\t// in\n    tag_107:\n      mload(0x40)\n      dup1\n      swap2\n      sub\n      swap1\n      return\n        /* \"MyHomeToken.sol\":158:186  House[] public houseRegister */\n    tag_18:\n      callvalue\n      dup1\n      iszero\n      tag_108\n      jumpi\n      0x00\n      dup1\n      revert\n    tag_108:\n      pop\n      tag_109\n      0x04\n      dup1\n      calldatasize\n      sub\n      dup2\n      add\n      swap1\n      tag_110\n      swap2\n      swap1\n      tag_81\n      jump\t// in\n    tag_110:\n      tag_111\n      jump\t// in\n    tag_109:\n      mload(0x40)\n      tag_112\n      swap4\n      swap3\n      swap2\n      swap1\n      tag_113\n      jump\t// in\n    tag_112:\n      mload(0x40)\n      dup1\n      swap2\n      sub\n      swap1\n      return\n        /* \"MyHomeToken.sol\":3455:4090  function buy() public payable {... */\n    tag_19:\n      tag_114\n      tag_115\n      jump\t// in\n    tag_114:\n      stop\n        /* \"MyHomeToken.sol\":3229:3449  function transfer(address _to, uint256 _value) public {... */\n    tag_20:\n      callvalue\n      dup1\n      iszero\n      tag_116\n      jumpi\n      0x00\n      dup1\n      revert\n    tag_116:\n      pop\n      tag_117\n      0x04\n      dup1\n      calldatasize\n      sub\n      dup2\n      add\n      swap1\n      tag_118\n      swap2\n      swap1\n      tag_119\n      jump\t// in\n    tag_118:\n      tag_120\n      jump\t// in\n    tag_117:\n      stop\n        /* \"MyHomeToken.sol\":598:628  address public ballotInitiator */\n    tag_21:\n      callvalue\n      dup1\n      iszero\n      tag_121\n      jumpi\n      0x00\n      dup1\n      revert\n    tag_121:\n      pop\n      tag_122\n      tag_123\n      jump\t// in\n    tag_122:\n      mload(0x40)\n      tag_124\n      swap2\n      swap1\n      tag_84\n      jump\t// in\n    tag_124:\n      mload(0x40)\n      dup1\n      swap2\n      sub\n      swap1\n      return\n        /* \"MyHomeToken.sol\":2873:3223  function addShareHolder(address _shareHolderAddress)... */\n    tag_22:\n      callvalue\n      dup1\n      iszero\n      tag_125\n      jumpi\n      0x00\n      dup1\n      revert\n    tag_125:\n      pop\n      tag_126\n      0x04\n      dup1\n      calldatasize\n      sub\n      dup2\n      add\n      swap1\n      tag_127\n      swap2\n      swap1\n      tag_50\n      jump\t// in\n    tag_127:\n      tag_128\n      jump\t// in\n    tag_126:\n      stop\n        /* \"MyHomeToken.sol\":5382:5610  function endVote()... */\n    tag_23:\n      callvalue\n      dup1\n      iszero\n      tag_129\n      jumpi\n      0x00\n      dup1\n      revert\n    tag_129:\n      pop\n      tag_130\n      tag_131\n      jump\t// in\n    tag_130:\n      stop\n        /* \"MyHomeToken.sol\":2015:2119  function etherBalance(address _addr) public view returns (uint256) {... */\n    tag_24:\n      callvalue\n      dup1\n      iszero\n      tag_132\n      jumpi\n      0x00\n      dup1\n      revert\n    tag_132:\n      pop\n      tag_133\n      0x04\n      dup1\n      calldatasize\n      sub\n      dup2\n      add\n      swap1\n      tag_134\n      swap2\n      swap1\n      tag_50\n      jump\t// in\n    tag_134:\n      tag_135\n      jump\t// in\n    tag_133:\n      mload(0x40)\n      tag_136\n      swap2\n      swap1\n      tag_37\n      jump\t// in\n    tag_136:\n      mload(0x40)\n      dup1\n      swap2\n      sub\n      swap1\n      return\n        /* \"MyHomeToken.sol\":128:152  HousingPackage public hp */\n    tag_25:\n      callvalue\n      dup1\n      iszero\n      tag_137\n      jumpi\n      0x00\n      dup1\n      revert\n    tag_137:\n      pop\n      tag_138\n      tag_139\n      jump\t// in\n    tag_138:\n      mload(0x40)\n      tag_140\n      swap4\n      swap3\n      swap2\n      swap1\n      tag_113\n      jump\t// in\n    tag_140:\n      mload(0x40)\n      dup1\n      swap2\n      sub\n      swap1\n      return\n        /* \"MyHomeToken.sol\":2219:2589  function addHouse(string memory _registrationId, string memory location, uint256 price) ... */\n    tag_26:\n      callvalue\n      dup1\n      iszero\n      tag_141\n      jumpi\n      0x00\n      dup1\n      revert\n    tag_141:\n      pop\n      tag_142\n      0x04\n      dup1\n      calldatasize\n      sub\n      dup2\n      add\n      swap1\n      tag_143\n      swap2\n      swap1\n      tag_144\n      jump\t// in\n    tag_143:\n      tag_145\n      jump\t// in\n    tag_142:\n      stop\n        /* \"MyHomeToken.sol\":726:753  uint public finalResult = 0 */\n    tag_27:\n      callvalue\n      dup1\n      iszero\n      tag_146\n      jumpi\n      0x00\n      dup1\n      revert\n    tag_146:\n      pop\n      tag_147\n      tag_148\n      jump\t// in\n    tag_147:\n      mload(0x40)\n      tag_149\n      swap2\n      swap1\n      tag_37\n      jump\t// in\n    tag_149:\n      mload(0x40)\n      dup1\n      swap2\n      sub\n      swap1\n      return\n        /* \"MyHomeToken.sol\":759:785  uint public totalVotes = 0 */\n    tag_35:\n      sload(0x13)\n      dup2\n      jump\t// out\n        /* \"MyHomeToken.sol\":192:219  uint public totalHouses = 0 */\n    tag_40:\n      sload(0x05)\n      dup2\n      jump\t// out\n        /* \"MyHomeToken.sol\":634:658  string public ballotName */\n    tag_44:\n      0x0f\n      dup1\n      sload\n      tag_150\n      swap1\n      tag_151\n      jump\t// in\n    tag_150:\n      dup1\n      0x1f\n      add\n      0x20\n      dup1\n      swap2\n      div\n      mul\n      0x20\n      add\n      mload(0x40)\n      swap1\n      dup2\n      add\n      0x40\n      mstore\n      dup1\n      swap3\n      swap2\n      swap1\n      dup2\n      dup2\n      mstore\n      0x20\n      add\n      dup3\n      dup1\n      sload\n      tag_152\n      swap1\n      tag_151\n      jump\t// in\n    tag_152:\n      dup1\n      iszero\n      tag_153\n      jumpi\n      dup1\n      0x1f\n      lt\n      tag_154\n      jumpi\n      0x0100\n      dup1\n      dup4\n      sload\n      div\n      mul\n      dup4\n      mstore\n      swap2\n      0x20\n      add\n      swap2\n      jump(tag_153)\n    tag_154:\n      dup3\n      add\n      swap2\n      swap1\n      0x00\n      mstore\n      keccak256(0x00, 0x20)\n      swap1\n    tag_155:\n      dup2\n      sload\n      dup2\n      mstore\n      swap1\n      0x01\n      add\n      swap1\n      0x20\n      add\n      dup1\n      dup4\n      gt\n      tag_155\n      jumpi\n      dup3\n      swap1\n      sub\n      0x1f\n      and\n      dup3\n      add\n      swap2\n    tag_153:\n      pop\n      pop\n      pop\n      pop\n      pop\n      dup2\n      jump\t// out\n        /* \"MyHomeToken.sol\":490:534  mapping (address => uint256) public balances */\n    tag_51:\n      mstore(0x20, 0x0d)\n      dup1\n      0x00\n      mstore\n      keccak256(0x00, 0x40)\n      0x00\n      swap2\n      pop\n      swap1\n      pop\n      sload\n      dup2\n      jump\t// out\n        /* \"MyHomeToken.sol\":2130:2213  function startTrading() public onlyRegulator {... */\n    tag_55:\n        /* \"MyHomeToken.sol\":1476:1481  owner */\n      0x00\n      dup1\n      sload\n      swap1\n      0x0100\n      exp\n      swap1\n      div\n      0xffffffffffffffffffffffffffffffffffffffff\n      and\n        /* \"MyHomeToken.sol\":1462:1481  msg.sender == owner */\n      0xffffffffffffffffffffffffffffffffffffffff\n      and\n        /* \"MyHomeToken.sol\":1462:1472  msg.sender */\n      caller\n        /* \"MyHomeToken.sol\":1462:1481  msg.sender == owner */\n      0xffffffffffffffffffffffffffffffffffffffff\n      and\n      eq\n        /* \"MyHomeToken.sol\":1454:1482  require(msg.sender == owner) */\n      tag_157\n      jumpi\n      0x00\n      dup1\n      revert\n    tag_157:\n        /* \"MyHomeToken.sol\":2193:2206  State.Running */\n      0x01\n        /* \"MyHomeToken.sol\":2185:2190  state */\n      0x0a\n      0x00\n        /* \"MyHomeToken.sol\":2185:2206  state = State.Running */\n      0x0100\n      exp\n      dup2\n      sload\n      dup2\n      0xff\n      mul\n      not\n      and\n      swap1\n      dup4\n      0x01\n      dup2\n      gt\n      iszero\n      tag_159\n      jumpi\n      tag_160\n      tag_161\n      jump\t// in\n    tag_160:\n    tag_159:\n      mul\n      or\n      swap1\n      sstore\n      pop\n        /* \"MyHomeToken.sol\":2130:2213  function startTrading() public onlyRegulator {... */\n      jump\t// out\n        /* \"MyHomeToken.sol\":225:257  uint256 public totalShares = 100 */\n    tag_58:\n      sload(0x06)\n      dup2\n      jump\t// out\n        /* \"MyHomeToken.sol\":298:328  uint256 public shareLimit = 10 */\n    tag_62:\n      sload(0x08)\n      dup2\n      jump\t// out\n        /* \"MyHomeToken.sol\":4569:4760  function startVote()... */\n    tag_66:\n        /* \"MyHomeToken.sol\":4627:4646  BallotState.Created */\n      0x00\n        /* \"MyHomeToken.sol\":1726:1732  _state */\n      dup1\n        /* \"MyHomeToken.sol\":1711:1732  ballotState == _state */\n      0x02\n      dup2\n      gt\n      iszero\n      tag_163\n      jumpi\n      tag_164\n      tag_161\n      jump\t// in\n    tag_164:\n    tag_163:\n        /* \"MyHomeToken.sol\":1711:1722  ballotState */\n      0x0e\n      0x00\n      swap1\n      sload\n      swap1\n      0x0100\n      exp\n      swap1\n      div\n      0xff\n      and\n        /* \"MyHomeToken.sol\":1711:1732  ballotState == _state */\n      0x02\n      dup2\n      gt\n      iszero\n      tag_165\n      jumpi\n      tag_166\n      tag_161\n      jump\t// in\n    tag_166:\n    tag_165:\n      eq\n        /* \"MyHomeToken.sol\":1703:1733  require(ballotState == _state) */\n      tag_167\n      jumpi\n      0x00\n      dup1\n      revert\n    tag_167:\n        /* \"MyHomeToken.sol\":1628:1643  ballotInitiator */\n      0x0e\n      0x01\n      swap1\n      sload\n      swap1\n      0x0100\n      exp\n      swap1\n      div\n      0xffffffffffffffffffffffffffffffffffffffff\n      and\n        /* \"MyHomeToken.sol\":1614:1643  msg.sender == ballotInitiator */\n      0xffffffffffffffffffffffffffffffffffffffff\n      and\n        /* \"MyHomeToken.sol\":1614:1624  msg.sender */\n      caller\n        /* \"MyHomeToken.sol\":1614:1643  msg.sender == ballotInitiator */\n      0xffffffffffffffffffffffffffffffffffffffff\n      and\n      eq\n        /* \"MyHomeToken.sol\":1606:1644  require(msg.sender == ballotInitiator) */\n      tag_169\n      jumpi\n      0x00\n      dup1\n      revert\n    tag_169:\n        /* \"MyHomeToken.sol\":4704:4722  BallotState.Voting */\n      0x01\n        /* \"MyHomeToken.sol\":4690:4701  ballotState */\n      0x0e\n      0x00\n        /* \"MyHomeToken.sol\":4690:4722  ballotState = BallotState.Voting */\n      0x0100\n      exp\n      dup2\n      sload\n      dup2\n      0xff\n      mul\n      not\n      and\n      swap1\n      dup4\n      0x02\n      dup2\n      gt\n      iszero\n      tag_171\n      jumpi\n      tag_172\n      tag_161\n      jump\t// in\n    tag_172:\n    tag_171:\n      mul\n      or\n      swap1\n      sstore\n      pop\n        /* \"MyHomeToken.sol\":4740:4753  voteStarted() */\n      0xd0dc01800a369fef30d3fced5275b8b916549867622e79efca5245c479fda4ea\n      mload(0x40)\n      mload(0x40)\n      dup1\n      swap2\n      sub\n      swap1\n      log1\n        /* \"MyHomeToken.sol\":4569:4760  function startVote()... */\n      pop\n      jump\t// out\n        /* \"MyHomeToken.sol\":433:484  mapping(address => bool) public shareHolderRegistry */\n    tag_70:\n      mstore(0x20, 0x0c)\n      dup1\n      0x00\n      mstore\n      keccak256(0x00, 0x40)\n      0x00\n      swap2\n      pop\n      sload\n      swap1\n      0x0100\n      exp\n      swap1\n      div\n      0xff\n      and\n      dup2\n      jump\t// out\n        /* \"MyHomeToken.sol\":4330:4563  function createBallot(string memory _ballotName, string memory _proposal) public {... */\n    tag_77:\n        /* \"MyHomeToken.sol\":4435:4454  BallotState.Created */\n      0x00\n        /* \"MyHomeToken.sol\":4421:4432  ballotState */\n      0x0e\n      0x00\n        /* \"MyHomeToken.sol\":4421:4454  ballotState = BallotState.Created */\n      0x0100\n      exp\n      dup2\n      sload\n      dup2\n      0xff\n      mul\n      not\n      and\n      swap1\n      dup4\n      0x02\n      dup2\n      gt\n      iszero\n      tag_174\n      jumpi\n      tag_175\n      tag_161\n      jump\t// in\n    tag_175:\n    tag_174:\n      mul\n      or\n      swap1\n      sstore\n      pop\n        /* \"MyHomeToken.sol\":4477:4488  _ballotName */\n      dup2\n        /* \"MyHomeToken.sol\":4464:4474  ballotName */\n      0x0f\n        /* \"MyHomeToken.sol\":4464:4488  ballotName = _ballotName */\n      swap1\n      dup1\n      mload\n      swap1\n      0x20\n      add\n      swap1\n      tag_176\n      swap3\n      swap2\n      swap1\n      tag_177\n      jump\t// in\n    tag_176:\n      pop\n        /* \"MyHomeToken.sol\":4509:4518  _proposal */\n      dup1\n        /* \"MyHomeToken.sol\":4498:4506  proposal */\n      0x10\n        /* \"MyHomeToken.sol\":4498:4518  proposal = _proposal */\n      swap1\n      dup1\n      mload\n      swap1\n      0x20\n      add\n      swap1\n      tag_178\n      swap3\n      swap2\n      swap1\n      tag_177\n      jump\t// in\n    tag_178:\n      pop\n        /* \"MyHomeToken.sol\":4546:4556  msg.sender */\n      caller\n        /* \"MyHomeToken.sol\":4528:4543  ballotInitiator */\n      0x0e\n      0x01\n        /* \"MyHomeToken.sol\":4528:4556  ballotInitiator = msg.sender */\n      0x0100\n      exp\n      dup2\n      sload\n      dup2\n      0xffffffffffffffffffffffffffffffffffffffff\n      mul\n      not\n      and\n      swap1\n      dup4\n      0xffffffffffffffffffffffffffffffffffffffff\n      and\n      mul\n      or\n      swap1\n      sstore\n      pop\n        /* \"MyHomeToken.sol\":4330:4563  function createBallot(string memory _ballotName, string memory _proposal) public {... */\n      pop\n      pop\n      jump\t// out\n        /* \"MyHomeToken.sol\":398:427  address[] public shareHolders */\n    tag_82:\n      0x0b\n      dup2\n      dup2\n      sload\n      dup2\n      lt\n      tag_179\n      jumpi\n      0x00\n      dup1\n      revert\n    tag_179:\n      swap1\n      0x00\n      mstore\n      keccak256(0x00, 0x20)\n      add\n      0x00\n      swap2\n      pop\n      sload\n      swap1\n      0x0100\n      exp\n      swap1\n      div\n      0xffffffffffffffffffffffffffffffffffffffff\n      and\n      dup2\n      jump\t// out\n        /* \"MyHomeToken.sol\":664:686  string public proposal */\n    tag_87:\n      0x10\n      dup1\n      sload\n      tag_181\n      swap1\n      tag_151\n      jump\t// in\n    tag_181:\n      dup1\n      0x1f\n      add\n      0x20\n      dup1\n      swap2\n      div\n      mul\n      0x20\n      add\n      mload(0x40)\n      swap1\n      dup2\n      add\n      0x40\n      mstore\n      dup1\n      swap3\n      swap2\n      swap1\n      dup2\n      dup2\n      mstore\n      0x20\n      add\n      dup3\n      dup1\n      sload\n      tag_182\n      swap1\n      tag_151\n      jump\t// in\n    tag_182:\n      dup1\n      iszero\n      tag_183\n      jumpi\n      dup1\n      0x1f\n      lt\n      tag_184\n      jumpi\n      0x0100\n      dup1\n      dup4\n      sload\n      div\n      mul\n      dup4\n      mstore\n      swap2\n      0x20\n      add\n      swap2\n      jump(tag_183)\n    tag_184:\n      dup3\n      add\n      swap2\n      swap1\n      0x00\n      mstore\n      keccak256(0x00, 0x20)\n      swap1\n    tag_185:\n      dup2\n      sload\n      dup2\n      mstore\n      swap1\n      0x01\n      add\n      swap1\n      0x20\n      add\n      dup1\n      dup4\n      gt\n      tag_185\n      jumpi\n      dup3\n      swap1\n      sub\n      0x1f\n      and\n      dup3\n      add\n      swap2\n    tag_183:\n      pop\n      pop\n      pop\n      pop\n      pop\n      dup2\n      jump\t// out\n        /* \"MyHomeToken.sol\":263:292  uint256 public tokenPrice = 1 */\n    tag_91:\n      sload(0x07)\n      dup2\n      jump\t// out\n        /* \"MyHomeToken.sol\":4766:5372  function doVote(bool _choice)... */\n    tag_97:\n        /* \"MyHomeToken.sol\":4870:4880  bool voted */\n      0x00\n        /* \"MyHomeToken.sol\":4833:4851  BallotState.Voting */\n      0x01\n        /* \"MyHomeToken.sol\":1726:1732  _state */\n      dup1\n        /* \"MyHomeToken.sol\":1711:1732  ballotState == _state */\n      0x02\n      dup2\n      gt\n      iszero\n      tag_187\n      jumpi\n      tag_188\n      tag_161\n      jump\t// in\n    tag_188:\n    tag_187:\n        /* \"MyHomeToken.sol\":1711:1722  ballotState */\n      0x0e\n      0x00\n      swap1\n      sload\n      swap1\n      0x0100\n      exp\n      swap1\n      div\n      0xff\n      and\n        /* \"MyHomeToken.sol\":1711:1732  ballotState == _state */\n      0x02\n      dup2\n      gt\n      iszero\n      tag_189\n      jumpi\n      tag_190\n      tag_161\n      jump\t// in\n    tag_190:\n    tag_189:\n      eq\n        /* \"MyHomeToken.sol\":1703:1733  require(ballotState == _state) */\n      tag_191\n      jumpi\n      0x00\n      dup1\n      revert\n    tag_191:\n        /* \"MyHomeToken.sol\":4896:4906  bool found */\n      0x00\n        /* \"MyHomeToken.sol\":4929:4948  shareHolderRegistry */\n      0x0c\n        /* \"MyHomeToken.sol\":4929:4960  shareHolderRegistry[msg.sender] */\n      0x00\n        /* \"MyHomeToken.sol\":4949:4959  msg.sender */\n      caller\n        /* \"MyHomeToken.sol\":4929:4960  shareHolderRegistry[msg.sender] */\n      0xffffffffffffffffffffffffffffffffffffffff\n      and\n      0xffffffffffffffffffffffffffffffffffffffff\n      and\n      dup2\n      mstore\n      0x20\n      add\n      swap1\n      dup2\n      mstore\n      0x20\n      add\n      0x00\n      keccak256\n      0x00\n      swap1\n      sload\n      swap1\n      0x0100\n      exp\n      swap1\n      div\n      0xff\n      and\n        /* \"MyHomeToken.sol\":4924:5309  if (!shareHolderRegistry[msg.sender]){... */\n      tag_193\n      jumpi\n        /* \"MyHomeToken.sol\":5009:5013  true */\n      0x01\n        /* \"MyHomeToken.sol\":4975:4994  shareHolderRegistry */\n      0x0c\n        /* \"MyHomeToken.sol\":4975:5006  shareHolderRegistry[msg.sender] */\n      0x00\n        /* \"MyHomeToken.sol\":4995:5005  msg.sender */\n      caller\n        /* \"MyHomeToken.sol\":4975:5006  shareHolderRegistry[msg.sender] */\n      0xffffffffffffffffffffffffffffffffffffffff\n      and\n      0xffffffffffffffffffffffffffffffffffffffff\n      and\n      dup2\n      mstore\n      0x20\n      add\n      swap1\n      dup2\n      mstore\n      0x20\n      add\n      0x00\n      keccak256\n      0x00\n        /* \"MyHomeToken.sol\":4975:5013  shareHolderRegistry[msg.sender] = true */\n      0x0100\n      exp\n      dup2\n      sload\n      dup2\n      0xff\n      mul\n      not\n      and\n      swap1\n      dup4\n      iszero\n      iszero\n      mul\n      or\n      swap1\n      sstore\n      pop\n        /* \"MyHomeToken.sol\":5027:5040  Vote memory v */\n      tag_194\n      tag_195\n      jump\t// in\n    tag_194:\n        /* \"MyHomeToken.sol\":5077:5087  msg.sender */\n      caller\n        /* \"MyHomeToken.sol\":5054:5055  v */\n      dup2\n        /* \"MyHomeToken.sol\":5054:5074  v.shareHolderAddress */\n      0x00\n      add\n        /* \"MyHomeToken.sol\":5054:5087  v.shareHolderAddress = msg.sender */\n      swap1\n      0xffffffffffffffffffffffffffffffffffffffff\n      and\n      swap1\n      dup2\n      0xffffffffffffffffffffffffffffffffffffffff\n      and\n      dup2\n      mstore\n      pop\n      pop\n        /* \"MyHomeToken.sol\":5112:5119  _choice */\n      dup5\n        /* \"MyHomeToken.sol\":5101:5102  v */\n      dup2\n        /* \"MyHomeToken.sol\":5101:5109  v.choice */\n      0x20\n      add\n        /* \"MyHomeToken.sol\":5101:5119  v.choice = _choice */\n      swap1\n      iszero\n      iszero\n      swap1\n      dup2\n      iszero\n      iszero\n      dup2\n      mstore\n      pop\n      pop\n        /* \"MyHomeToken.sol\":5137:5144  _choice */\n      dup5\n        /* \"MyHomeToken.sol\":5133:5212  if (_choice){... */\n      iszero\n      tag_196\n      jumpi\n        /* \"MyHomeToken.sol\":5163:5174  resultCount */\n      0x11\n      0x00\n        /* \"MyHomeToken.sol\":5163:5176  resultCount++ */\n      dup2\n      sload\n      dup1\n      swap3\n      swap2\n      swap1\n      tag_197\n      swap1\n      tag_198\n      jump\t// in\n    tag_197:\n      swap2\n      swap1\n      pop\n      sstore\n      pop\n        /* \"MyHomeToken.sol\":5133:5212  if (_choice){... */\n    tag_196:\n        /* \"MyHomeToken.sol\":5245:5246  v */\n      dup1\n        /* \"MyHomeToken.sol\":5225:5230  votes */\n      0x14\n        /* \"MyHomeToken.sol\":5225:5242  votes[totalVotes] */\n      0x00\n        /* \"MyHomeToken.sol\":5231:5241  totalVotes */\n      sload(0x13)\n        /* \"MyHomeToken.sol\":5225:5242  votes[totalVotes] */\n      dup2\n      mstore\n      0x20\n      add\n      swap1\n      dup2\n      mstore\n      0x20\n      add\n      0x00\n      keccak256\n        /* \"MyHomeToken.sol\":5225:5246  votes[totalVotes] = v */\n      0x00\n      dup3\n      add\n      mload\n      dup2\n      0x00\n      add\n      exp(0x0100, 0x00)\n      dup2\n      sload\n      dup2\n      0xffffffffffffffffffffffffffffffffffffffff\n      mul\n      not\n      and\n      swap1\n      dup4\n      0xffffffffffffffffffffffffffffffffffffffff\n      and\n      mul\n      or\n      swap1\n      sstore\n      pop\n      0x20\n      dup3\n      add\n      mload\n      dup2\n      0x00\n      add\n      exp(0x0100, 0x14)\n      dup2\n      sload\n      dup2\n      0xff\n      mul\n      not\n      and\n      swap1\n      dup4\n      iszero\n      iszero\n      mul\n      or\n      swap1\n      sstore\n      pop\n      swap1\n      pop\n      pop\n        /* \"MyHomeToken.sol\":5260:5270  totalVotes */\n      0x13\n      0x00\n        /* \"MyHomeToken.sol\":5260:5272  totalVotes++ */\n      dup2\n      sload\n      dup1\n      swap3\n      swap2\n      swap1\n      tag_199\n      swap1\n      tag_198\n      jump\t// in\n    tag_199:\n      swap2\n      swap1\n      pop\n      sstore\n      pop\n        /* \"MyHomeToken.sol\":5294:5298  true */\n      0x01\n        /* \"MyHomeToken.sol\":5286:5298  found = true */\n      swap2\n      pop\n        /* \"MyHomeToken.sol\":4961:5309  {... */\n      pop\n        /* \"MyHomeToken.sol\":4924:5309  if (!shareHolderRegistry[msg.sender]){... */\n    tag_193:\n        /* \"MyHomeToken.sol\":5323:5343  voteDone(msg.sender) */\n      0x55c65cf9526efdf6c2252fe9757889dbd93e10172cad0f2edb1df619c88dbf7d\n        /* \"MyHomeToken.sol\":5332:5342  msg.sender */\n      caller\n        /* \"MyHomeToken.sol\":5323:5343  voteDone(msg.sender) */\n      mload(0x40)\n      tag_200\n      swap2\n      swap1\n      tag_84\n      jump\t// in\n    tag_200:\n      mload(0x40)\n      dup1\n      swap2\n      sub\n      swap1\n      log1\n        /* \"MyHomeToken.sol\":5360:5365  found */\n      dup1\n        /* \"MyHomeToken.sol\":5353:5365  return found */\n      swap3\n      pop\n      pop\n        /* \"MyHomeToken.sol\":4766:5372  function doVote(bool _choice)... */\n      pop\n      swap2\n      swap1\n      pop\n      jump\t// out\n        /* \"MyHomeToken.sol\":94:122  address payable public owner */\n    tag_101:\n      0x00\n      dup1\n      sload\n      swap1\n      0x0100\n      exp\n      swap1\n      div\n      0xffffffffffffffffffffffffffffffffffffffff\n      and\n      dup2\n      jump\t// out\n        /* \"MyHomeToken.sol\":334:367  uint public totalShareHolders = 0 */\n    tag_106:\n      sload(0x09)\n      dup2\n      jump\t// out\n        /* \"MyHomeToken.sol\":158:186  House[] public houseRegister */\n    tag_111:\n      0x04\n      dup2\n      dup2\n      sload\n      dup2\n      lt\n      tag_201\n      jumpi\n      0x00\n      dup1\n      revert\n    tag_201:\n      swap1\n      0x00\n      mstore\n      keccak256(0x00, 0x20)\n      swap1\n      0x03\n      mul\n      add\n      0x00\n      swap2\n      pop\n      swap1\n      pop\n      dup1\n      0x00\n      add\n      dup1\n      sload\n      tag_203\n      swap1\n      tag_151\n      jump\t// in\n    tag_203:\n      dup1\n      0x1f\n      add\n      0x20\n      dup1\n      swap2\n      div\n      mul\n      0x20\n      add\n      mload(0x40)\n      swap1\n      dup2\n      add\n      0x40\n      mstore\n      dup1\n      swap3\n      swap2\n      swap1\n      dup2\n      dup2\n      mstore\n      0x20\n      add\n      dup3\n      dup1\n      sload\n      tag_204\n      swap1\n      tag_151\n      jump\t// in\n    tag_204:\n      dup1\n      iszero\n      tag_205\n      jumpi\n      dup1\n      0x1f\n      lt\n      tag_206\n      jumpi\n      0x0100\n      dup1\n      dup4\n      sload\n      div\n      mul\n      dup4\n      mstore\n      swap2\n      0x20\n      add\n      swap2\n      jump(tag_205)\n    tag_206:\n      dup3\n      add\n      swap2\n      swap1\n      0x00\n      mstore\n      keccak256(0x00, 0x20)\n      swap1\n    tag_207:\n      dup2\n      sload\n      dup2\n      mstore\n      swap1\n      0x01\n      add\n      swap1\n      0x20\n      add\n      dup1\n      dup4\n      gt\n      tag_207\n      jumpi\n      dup3\n      swap1\n      sub\n      0x1f\n      and\n      dup3\n      add\n      swap2\n    tag_205:\n      pop\n      pop\n      pop\n      pop\n      pop\n      swap1\n      dup1\n      0x01\n      add\n      dup1\n      sload\n      tag_208\n      swap1\n      tag_151\n      jump\t// in\n    tag_208:\n      dup1\n      0x1f\n      add\n      0x20\n      dup1\n      swap2\n      div\n      mul\n      0x20\n      add\n      mload(0x40)\n      swap1\n      dup2\n      add\n      0x40\n      mstore\n      dup1\n      swap3\n      swap2\n      swap1\n      dup2\n      dup2\n      mstore\n      0x20\n      add\n      dup3\n      dup1\n      sload\n      tag_209\n      swap1\n      tag_151\n      jump\t// in\n    tag_209:\n      dup1\n      iszero\n      tag_210\n      jumpi\n      dup1\n      0x1f\n      lt\n      tag_211\n      jumpi\n      0x0100\n      dup1\n      dup4\n      sload\n      div\n      mul\n      dup4\n      mstore\n      swap2\n      0x20\n      add\n      swap2\n      jump(tag_210)\n    tag_211:\n      dup3\n      add\n      swap2\n      swap1\n      0x00\n      mstore\n      keccak256(0x00, 0x20)\n      swap1\n    tag_212:\n      dup2\n      sload\n      dup2\n      mstore\n      swap1\n      0x01\n      add\n      swap1\n      0x20\n      add\n      dup1\n      dup4\n      gt\n      tag_212\n      jumpi\n      dup3\n      swap1\n      sub\n      0x1f\n      and\n      dup3\n      add\n      swap2\n    tag_210:\n      pop\n      pop\n      pop\n      pop\n      pop\n      swap1\n      dup1\n      0x02\n      add\n      sload\n      swap1\n      pop\n      dup4\n      jump\t// out\n        /* \"MyHomeToken.sol\":3455:4090  function buy() public payable {... */\n    tag_115:\n        /* \"MyHomeToken.sol\":3495:3511  uint256 tokenNum */\n      0x00\n        /* \"MyHomeToken.sol\":3524:3534  tokenPrice */\n      sload(0x07)\n        /* \"MyHomeToken.sol\":3514:3523  msg.value */\n      callvalue\n        /* \"MyHomeToken.sol\":3514:3534  msg.value/tokenPrice */\n      tag_214\n      swap2\n      swap1\n      tag_215\n      jump\t// in\n    tag_214:\n        /* \"MyHomeToken.sol\":3495:3534  uint256 tokenNum = msg.value/tokenPrice */\n      swap1\n      pop\n        /* \"MyHomeToken.sol\":3596:3597  0 */\n      0x00\n        /* \"MyHomeToken.sol\":3584:3593  msg.value */\n      callvalue\n        /* \"MyHomeToken.sol\":3584:3597  msg.value > 0 */\n      gt\n        /* \"MyHomeToken.sol\":3576:3598  require(msg.value > 0) */\n      tag_216\n      jumpi\n      0x00\n      dup1\n      revert\n    tag_216:\n        /* \"MyHomeToken.sol\":3667:3677  shareLimit */\n      sload(0x08)\n        /* \"MyHomeToken.sol\":3655:3663  tokenNum */\n      dup2\n        /* \"MyHomeToken.sol\":3655:3677  tokenNum <= shareLimit */\n      gt\n      iszero\n        /* \"MyHomeToken.sol\":3647:3717  require(tokenNum <= shareLimit, \"Number of shares exceeded the limit\") */\n      tag_217\n      jumpi\n      mload(0x40)\n      0x08c379a000000000000000000000000000000000000000000000000000000000\n      dup2\n      mstore\n      0x04\n      add\n      tag_218\n      swap1\n      tag_219\n      jump\t// in\n    tag_218:\n      mload(0x40)\n      dup1\n      swap2\n      sub\n      swap1\n      revert\n    tag_217:\n        /* \"MyHomeToken.sol\":3766:3771  owner */\n      0x00\n      dup1\n      sload\n      swap1\n      0x0100\n      exp\n      swap1\n      div\n      0xffffffffffffffffffffffffffffffffffffffff\n      and\n        /* \"MyHomeToken.sol\":3766:3780  owner.transfer */\n      0xffffffffffffffffffffffffffffffffffffffff\n      and\n        /* \"MyHomeToken.sol\":3766:3791  owner.transfer(msg.value) */\n      0x08fc\n        /* \"MyHomeToken.sol\":3781:3790  msg.value */\n      callvalue\n        /* \"MyHomeToken.sol\":3766:3791  owner.transfer(msg.value) */\n      swap1\n      dup2\n      iszero\n      mul\n      swap1\n      mload(0x40)\n      0x00\n      mload(0x40)\n      dup1\n      dup4\n      sub\n      dup2\n      dup6\n      dup9\n      dup9\n      call\n      swap4\n      pop\n      pop\n      pop\n      pop\n      iszero\n      dup1\n      iszero\n      tag_221\n      jumpi\n      returndatasize\n      0x00\n      dup1\n      returndatacopy\n      revert(0x00, returndatasize)\n    tag_221:\n      pop\n        /* \"MyHomeToken.sol\":3885:3893  tokenNum */\n      dup1\n        /* \"MyHomeToken.sol\":3866:3874  balances */\n      0x0d\n        /* \"MyHomeToken.sol\":3866:3881  balances[owner] */\n      0x00\n        /* \"MyHomeToken.sol\":3875:3880  owner */\n      dup1\n      0x00\n      swap1\n      sload\n      swap1\n      0x0100\n      exp\n      swap1\n      div\n      0xffffffffffffffffffffffffffffffffffffffff\n      and\n        /* \"MyHomeToken.sol\":3866:3881  balances[owner] */\n      0xffffffffffffffffffffffffffffffffffffffff\n      and\n      0xffffffffffffffffffffffffffffffffffffffff\n      and\n      dup2\n      mstore\n      0x20\n      add\n      swap1\n      dup2\n      mstore\n      0x20\n      add\n      0x00\n      keccak256\n      0x00\n        /* \"MyHomeToken.sol\":3866:3893  balances[owner] -= tokenNum */\n      dup3\n      dup3\n      sload\n      tag_222\n      swap2\n      swap1\n      tag_223\n      jump\t// in\n    tag_222:\n      swap3\n      pop\n      pop\n      dup2\n      swap1\n      sstore\n      pop\n        /* \"MyHomeToken.sol\":3985:3993  tokenNum */\n      dup1\n        /* \"MyHomeToken.sol\":3961:3969  balances */\n      0x0d\n        /* \"MyHomeToken.sol\":3961:3981  balances[msg.sender] */\n      0x00\n        /* \"MyHomeToken.sol\":3970:3980  msg.sender */\n      caller\n        /* \"MyHomeToken.sol\":3961:3981  balances[msg.sender] */\n      0xffffffffffffffffffffffffffffffffffffffff\n      and\n      0xffffffffffffffffffffffffffffffffffffffff\n      and\n      dup2\n      mstore\n      0x20\n      add\n      swap1\n      dup2\n      mstore\n      0x20\n      add\n      0x00\n      keccak256\n      0x00\n        /* \"MyHomeToken.sol\":3961:3993  balances[msg.sender] += tokenNum */\n      dup3\n      dup3\n      sload\n      tag_224\n      swap2\n      swap1\n      tag_225\n      jump\t// in\n    tag_224:\n      swap3\n      pop\n      pop\n      dup2\n      swap1\n      sstore\n      pop\n        /* \"MyHomeToken.sol\":4057:4083  addShareHolder(msg.sender) */\n      tag_226\n        /* \"MyHomeToken.sol\":4072:4082  msg.sender */\n      caller\n        /* \"MyHomeToken.sol\":4057:4071  addShareHolder */\n      tag_128\n        /* \"MyHomeToken.sol\":4057:4083  addShareHolder(msg.sender) */\n      jump\t// in\n    tag_226:\n        /* \"MyHomeToken.sol\":3485:4090  {... */\n      pop\n        /* \"MyHomeToken.sol\":3455:4090  function buy() public payable {... */\n      jump\t// out\n        /* \"MyHomeToken.sol\":3229:3449  function transfer(address _to, uint256 _value) public {... */\n    tag_120:\n        /* \"MyHomeToken.sol\":3326:3332  _value */\n      dup1\n        /* \"MyHomeToken.sol\":3302:3310  balances */\n      0x0d\n        /* \"MyHomeToken.sol\":3302:3322  balances[msg.sender] */\n      0x00\n        /* \"MyHomeToken.sol\":3311:3321  msg.sender */\n      caller\n        /* \"MyHomeToken.sol\":3302:3322  balances[msg.sender] */\n      0xffffffffffffffffffffffffffffffffffffffff\n      and\n      0xffffffffffffffffffffffffffffffffffffffff\n      and\n      dup2\n      mstore\n      0x20\n      add\n      swap1\n      dup2\n      mstore\n      0x20\n      add\n      0x00\n      keccak256\n      sload\n        /* \"MyHomeToken.sol\":3302:3332  balances[msg.sender] >= _value */\n      lt\n      iszero\n        /* \"MyHomeToken.sol\":3293:3333  require (balances[msg.sender] >= _value) */\n      tag_228\n      jumpi\n      0x00\n      dup1\n      revert\n    tag_228:\n        /* \"MyHomeToken.sol\":3365:3370  owner */\n      0x00\n      dup1\n      sload\n      swap1\n      0x0100\n      exp\n      swap1\n      div\n      0xffffffffffffffffffffffffffffffffffffffff\n      and\n        /* \"MyHomeToken.sol\":3351:3370  msg.sender == owner */\n      0xffffffffffffffffffffffffffffffffffffffff\n      and\n        /* \"MyHomeToken.sol\":3351:3361  msg.sender */\n      caller\n        /* \"MyHomeToken.sol\":3351:3370  msg.sender == owner */\n      0xffffffffffffffffffffffffffffffffffffffff\n      and\n      eq\n        /* \"MyHomeToken.sol\":3343:3371  require(msg.sender == owner) */\n      tag_229\n      jumpi\n      0x00\n      dup1\n      revert\n    tag_229:\n        /* \"MyHomeToken.sol\":3405:3411  _value */\n      dup1\n        /* \"MyHomeToken.sol\":3381:3389  balances */\n      0x0d\n        /* \"MyHomeToken.sol\":3381:3401  balances[msg.sender] */\n      0x00\n        /* \"MyHomeToken.sol\":3390:3400  msg.sender */\n      caller\n        /* \"MyHomeToken.sol\":3381:3401  balances[msg.sender] */\n      0xffffffffffffffffffffffffffffffffffffffff\n      and\n      0xffffffffffffffffffffffffffffffffffffffff\n      and\n      dup2\n      mstore\n      0x20\n      add\n      swap1\n      dup2\n      mstore\n      0x20\n      add\n      0x00\n      keccak256\n      0x00\n        /* \"MyHomeToken.sol\":3381:3411  balances[msg.sender] -= _value */\n      dup3\n      dup3\n      sload\n      tag_230\n      swap2\n      swap1\n      tag_223\n      jump\t// in\n    tag_230:\n      swap3\n      pop\n      pop\n      dup2\n      swap1\n      sstore\n      pop\n        /* \"MyHomeToken.sol\":3436:3442  _value */\n      dup1\n        /* \"MyHomeToken.sol\":3421:3429  balances */\n      0x0d\n        /* \"MyHomeToken.sol\":3421:3434  balances[_to] */\n      0x00\n        /* \"MyHomeToken.sol\":3430:3433  _to */\n      dup5\n        /* \"MyHomeToken.sol\":3421:3434  balances[_to] */\n      0xffffffffffffffffffffffffffffffffffffffff\n      and\n      0xffffffffffffffffffffffffffffffffffffffff\n      and\n      dup2\n      mstore\n      0x20\n      add\n      swap1\n      dup2\n      mstore\n      0x20\n      add\n      0x00\n      keccak256\n      0x00\n        /* \"MyHomeToken.sol\":3421:3442  balances[_to]+=_value */\n      dup3\n      dup3\n      sload\n      tag_231\n      swap2\n      swap1\n      tag_225\n      jump\t// in\n    tag_231:\n      swap3\n      pop\n      pop\n      dup2\n      swap1\n      sstore\n      pop\n        /* \"MyHomeToken.sol\":3229:3449  function transfer(address _to, uint256 _value) public {... */\n      pop\n      pop\n      jump\t// out\n        /* \"MyHomeToken.sol\":598:628  address public ballotInitiator */\n    tag_123:\n      0x0e\n      0x01\n      swap1\n      sload\n      swap1\n      0x0100\n      exp\n      swap1\n      div\n      0xffffffffffffffffffffffffffffffffffffffff\n      and\n      dup2\n      jump\t// out\n        /* \"MyHomeToken.sol\":2873:3223  function addShareHolder(address _shareHolderAddress)... */\n    tag_128:\n        /* \"MyHomeToken.sol\":2963:2992  contains(_shareHolderAddress) */\n      tag_233\n        /* \"MyHomeToken.sol\":2972:2991  _shareHolderAddress */\n      dup2\n        /* \"MyHomeToken.sol\":2963:2971  contains */\n      tag_234\n        /* \"MyHomeToken.sol\":2963:2992  contains(_shareHolderAddress) */\n      jump\t// in\n    tag_233:\n        /* \"MyHomeToken.sol\":2959:3208  if(!contains(_shareHolderAddress)) {... */\n      tag_235\n      jumpi\n        /* \"MyHomeToken.sol\":3051:3056  false */\n      0x00\n        /* \"MyHomeToken.sol\":3008:3027  shareHolderRegistry */\n      0x0c\n        /* \"MyHomeToken.sol\":3008:3048  shareHolderRegistry[_shareHolderAddress] */\n      0x00\n        /* \"MyHomeToken.sol\":3028:3047  _shareHolderAddress */\n      dup4\n        /* \"MyHomeToken.sol\":3008:3048  shareHolderRegistry[_shareHolderAddress] */\n      0xffffffffffffffffffffffffffffffffffffffff\n      and\n      0xffffffffffffffffffffffffffffffffffffffff\n      and\n      dup2\n      mstore\n      0x20\n      add\n      swap1\n      dup2\n      mstore\n      0x20\n      add\n      0x00\n      keccak256\n      0x00\n        /* \"MyHomeToken.sol\":3008:3056  shareHolderRegistry[_shareHolderAddress] = false */\n      0x0100\n      exp\n      dup2\n      sload\n      dup2\n      0xff\n      mul\n      not\n      and\n      swap1\n      dup4\n      iszero\n      iszero\n      mul\n      or\n      swap1\n      sstore\n      pop\n        /* \"MyHomeToken.sol\":3070:3082  shareHolders */\n      0x0b\n        /* \"MyHomeToken.sol\":3088:3107  _shareHolderAddress */\n      dup2\n        /* \"MyHomeToken.sol\":3070:3108  shareHolders.push(_shareHolderAddress) */\n      swap1\n      dup1\n      0x01\n      dup2\n      sload\n      add\n      dup1\n      dup3\n      sstore\n      dup1\n      swap2\n      pop\n      pop\n      0x01\n      swap1\n      sub\n      swap1\n      0x00\n      mstore\n      keccak256(0x00, 0x20)\n      add\n      0x00\n      swap1\n      swap2\n      swap1\n      swap2\n      swap1\n      swap2\n      0x0100\n      exp\n      dup2\n      sload\n      dup2\n      0xffffffffffffffffffffffffffffffffffffffff\n      mul\n      not\n      and\n      swap1\n      dup4\n      0xffffffffffffffffffffffffffffffffffffffff\n      and\n      mul\n      or\n      swap1\n      sstore\n      pop\n        /* \"MyHomeToken.sol\":3122:3139  totalShareHolders */\n      0x09\n      0x00\n        /* \"MyHomeToken.sol\":3122:3141  totalShareHolders++ */\n      dup2\n      sload\n      dup1\n      swap3\n      swap2\n      swap1\n      tag_237\n      swap1\n      tag_198\n      jump\t// in\n    tag_237:\n      swap2\n      swap1\n      pop\n      sstore\n      pop\n        /* \"MyHomeToken.sol\":3160:3197  ShareHolderAdded(_shareHolderAddress) */\n      0x30040c92e8da146ac410fb6841ea0f60af3b8f3788e5e7354e48d97d018f39dd\n        /* \"MyHomeToken.sol\":3177:3196  _shareHolderAddress */\n      dup2\n        /* \"MyHomeToken.sol\":3160:3197  ShareHolderAdded(_shareHolderAddress) */\n      mload(0x40)\n      tag_238\n      swap2\n      swap1\n      tag_84\n      jump\t// in\n    tag_238:\n      mload(0x40)\n      dup1\n      swap2\n      sub\n      swap1\n      log1\n        /* \"MyHomeToken.sol\":2959:3208  if(!contains(_shareHolderAddress)) {... */\n    tag_235:\n        /* \"MyHomeToken.sol\":2873:3223  function addShareHolder(address _shareHolderAddress)... */\n      pop\n      jump\t// out\n        /* \"MyHomeToken.sol\":5382:5610  function endVote()... */\n    tag_131:\n        /* \"MyHomeToken.sol\":5438:5456  BallotState.Voting */\n      0x01\n        /* \"MyHomeToken.sol\":1726:1732  _state */\n      dup1\n        /* \"MyHomeToken.sol\":1711:1732  ballotState == _state */\n      0x02\n      dup2\n      gt\n      iszero\n      tag_240\n      jumpi\n      tag_241\n      tag_161\n      jump\t// in\n    tag_241:\n    tag_240:\n        /* \"MyHomeToken.sol\":1711:1722  ballotState */\n      0x0e\n      0x00\n      swap1\n      sload\n      swap1\n      0x0100\n      exp\n      swap1\n      div\n      0xff\n      and\n        /* \"MyHomeToken.sol\":1711:1732  ballotState == _state */\n      0x02\n      dup2\n      gt\n      iszero\n      tag_242\n      jumpi\n      tag_243\n      tag_161\n      jump\t// in\n    tag_243:\n    tag_242:\n      eq\n        /* \"MyHomeToken.sol\":1703:1733  require(ballotState == _state) */\n      tag_244\n      jumpi\n      0x00\n      dup1\n      revert\n    tag_244:\n        /* \"MyHomeToken.sol\":1628:1643  ballotInitiator */\n      0x0e\n      0x01\n      swap1\n      sload\n      swap1\n      0x0100\n      exp\n      swap1\n      div\n      0xffffffffffffffffffffffffffffffffffffffff\n      and\n        /* \"MyHomeToken.sol\":1614:1643  msg.sender == ballotInitiator */\n      0xffffffffffffffffffffffffffffffffffffffff\n      and\n        /* \"MyHomeToken.sol\":1614:1624  msg.sender */\n      caller\n        /* \"MyHomeToken.sol\":1614:1643  msg.sender == ballotInitiator */\n      0xffffffffffffffffffffffffffffffffffffffff\n      and\n      eq\n        /* \"MyHomeToken.sol\":1606:1644  require(msg.sender == ballotInitiator) */\n      tag_246\n      jumpi\n      0x00\n      dup1\n      revert\n    tag_246:\n        /* \"MyHomeToken.sol\":5514:5531  BallotState.Ended */\n      0x02\n        /* \"MyHomeToken.sol\":5500:5511  ballotState */\n      0x0e\n      0x00\n        /* \"MyHomeToken.sol\":5500:5531  ballotState = BallotState.Ended */\n      0x0100\n      exp\n      dup2\n      sload\n      dup2\n      0xff\n      mul\n      not\n      and\n      swap1\n      dup4\n      0x02\n      dup2\n      gt\n      iszero\n      tag_248\n      jumpi\n      tag_249\n      tag_161\n      jump\t// in\n    tag_249:\n    tag_248:\n      mul\n      or\n      swap1\n      sstore\n      pop\n        /* \"MyHomeToken.sol\":5555:5566  resultCount */\n      sload(0x11)\n        /* \"MyHomeToken.sol\":5541:5552  finalResult */\n      0x12\n        /* \"MyHomeToken.sol\":5541:5566  finalResult = resultCount */\n      dup2\n      swap1\n      sstore\n      pop\n        /* \"MyHomeToken.sol\":5581:5603  voteEnded(finalResult) */\n      0xb43a401dcdbe02a8afa41feb6c651425997908d1a4b79cf505188ba1dd3fd872\n        /* \"MyHomeToken.sol\":5591:5602  finalResult */\n      sload(0x12)\n        /* \"MyHomeToken.sol\":5581:5603  voteEnded(finalResult) */\n      mload(0x40)\n      tag_250\n      swap2\n      swap1\n      tag_37\n      jump\t// in\n    tag_250:\n      mload(0x40)\n      dup1\n      swap2\n      sub\n      swap1\n      log1\n        /* \"MyHomeToken.sol\":5382:5610  function endVote()... */\n      pop\n      jump\t// out\n        /* \"MyHomeToken.sol\":2015:2119  function etherBalance(address _addr) public view returns (uint256) {... */\n    tag_135:\n        /* \"MyHomeToken.sol\":2073:2080  uint256 */\n      0x00\n        /* \"MyHomeToken.sol\":2099:2104  _addr */\n      dup2\n        /* \"MyHomeToken.sol\":2099:2112  _addr.balance */\n      0xffffffffffffffffffffffffffffffffffffffff\n      and\n      balance\n        /* \"MyHomeToken.sol\":2092:2112  return _addr.balance */\n      swap1\n      pop\n        /* \"MyHomeToken.sol\":2015:2119  function etherBalance(address _addr) public view returns (uint256) {... */\n      swap2\n      swap1\n      pop\n      jump\t// out\n        /* \"MyHomeToken.sol\":128:152  HousingPackage public hp */\n    tag_139:\n      0x01\n      dup1\n      0x00\n      add\n      dup1\n      sload\n      tag_252\n      swap1\n      tag_151\n      jump\t// in\n    tag_252:\n      dup1\n      0x1f\n      add\n      0x20\n      dup1\n      swap2\n      div\n      mul\n      0x20\n      add\n      mload(0x40)\n      swap1\n      dup2\n      add\n      0x40\n      mstore\n      dup1\n      swap3\n      swap2\n      swap1\n      dup2\n      dup2\n      mstore\n      0x20\n      add\n      dup3\n      dup1\n      sload\n      tag_253\n      swap1\n      tag_151\n      jump\t// in\n    tag_253:\n      dup1\n      iszero\n      tag_254\n      jumpi\n      dup1\n      0x1f\n      lt\n      tag_255\n      jumpi\n      0x0100\n      dup1\n      dup4\n      sload\n      div\n      mul\n      dup4\n      mstore\n      swap2\n      0x20\n      add\n      swap2\n      jump(tag_254)\n    tag_255:\n      dup3\n      add\n      swap2\n      swap1\n      0x00\n      mstore\n      keccak256(0x00, 0x20)\n      swap1\n    tag_256:\n      dup2\n      sload\n      dup2\n      mstore\n      swap1\n      0x01\n      add\n      swap1\n      0x20\n      add\n      dup1\n      dup4\n      gt\n      tag_256\n      jumpi\n      dup3\n      swap1\n      sub\n      0x1f\n      and\n      dup3\n      add\n      swap2\n    tag_254:\n      pop\n      pop\n      pop\n      pop\n      pop\n      swap1\n      dup1\n      0x01\n      add\n      dup1\n      sload\n      tag_257\n      swap1\n      tag_151\n      jump\t// in\n    tag_257:\n      dup1\n      0x1f\n      add\n      0x20\n      dup1\n      swap2\n      div\n      mul\n      0x20\n      add\n      mload(0x40)\n      swap1\n      dup2\n      add\n      0x40\n      mstore\n      dup1\n      swap3\n      swap2\n      swap1\n      dup2\n      dup2\n      mstore\n      0x20\n      add\n      dup3\n      dup1\n      sload\n      tag_258\n      swap1\n      tag_151\n      jump\t// in\n    tag_258:\n      dup1\n      iszero\n      tag_259\n      jumpi\n      dup1\n      0x1f\n      lt\n      tag_260\n      jumpi\n      0x0100\n      dup1\n      dup4\n      sload\n      div\n      mul\n      dup4\n      mstore\n      swap2\n      0x20\n      add\n      swap2\n      jump(tag_259)\n    tag_260:\n      dup3\n      add\n      swap2\n      swap1\n      0x00\n      mstore\n      keccak256(0x00, 0x20)\n      swap1\n    tag_261:\n      dup2\n      sload\n      dup2\n      mstore\n      swap1\n      0x01\n      add\n      swap1\n      0x20\n      add\n      dup1\n      dup4\n      gt\n      tag_261\n      jumpi\n      dup3\n      swap1\n      sub\n      0x1f\n      and\n      dup3\n      add\n      swap2\n    tag_259:\n      pop\n      pop\n      pop\n      pop\n      pop\n      swap1\n      dup1\n      0x02\n      add\n      sload\n      swap1\n      pop\n      dup4\n      jump\t// out\n        /* \"MyHomeToken.sol\":2219:2589  function addHouse(string memory _registrationId, string memory location, uint256 price) ... */\n    tag_145:\n        /* \"MyHomeToken.sol\":1476:1481  owner */\n      0x00\n      dup1\n      sload\n      swap1\n      0x0100\n      exp\n      swap1\n      div\n      0xffffffffffffffffffffffffffffffffffffffff\n      and\n        /* \"MyHomeToken.sol\":1462:1481  msg.sender == owner */\n      0xffffffffffffffffffffffffffffffffffffffff\n      and\n        /* \"MyHomeToken.sol\":1462:1472  msg.sender */\n      caller\n        /* \"MyHomeToken.sol\":1462:1481  msg.sender == owner */\n      0xffffffffffffffffffffffffffffffffffffffff\n      and\n      eq\n        /* \"MyHomeToken.sol\":1454:1482  require(msg.sender == owner) */\n      tag_263\n      jumpi\n      0x00\n      dup1\n      revert\n    tag_263:\n        /* \"MyHomeToken.sol\":2362:2375  State.Created */\n      0x00\n        /* \"MyHomeToken.sol\":1549:1555  _state */\n      dup1\n        /* \"MyHomeToken.sol\":1540:1555  state == _state */\n      0x01\n      dup2\n      gt\n      iszero\n      tag_265\n      jumpi\n      tag_266\n      tag_161\n      jump\t// in\n    tag_266:\n    tag_265:\n        /* \"MyHomeToken.sol\":1540:1545  state */\n      0x0a\n      0x00\n      swap1\n      sload\n      swap1\n      0x0100\n      exp\n      swap1\n      div\n      0xff\n      and\n        /* \"MyHomeToken.sol\":1540:1555  state == _state */\n      0x01\n      dup2\n      gt\n      iszero\n      tag_267\n      jumpi\n      tag_268\n      tag_161\n      jump\t// in\n    tag_268:\n    tag_267:\n      eq\n        /* \"MyHomeToken.sol\":1532:1556  require(state == _state) */\n      tag_269\n      jumpi\n      0x00\n      dup1\n      revert\n    tag_269:\n        /* \"MyHomeToken.sol\":2392:2406  House memory h */\n      0x00\n        /* \"MyHomeToken.sol\":2409:2448  House(_registrationId, location, price) */\n      mload(0x40)\n      dup1\n      0x60\n      add\n      0x40\n      mstore\n      dup1\n        /* \"MyHomeToken.sol\":2415:2430  _registrationId */\n      dup7\n        /* \"MyHomeToken.sol\":2409:2448  House(_registrationId, location, price) */\n      dup2\n      mstore\n      0x20\n      add\n        /* \"MyHomeToken.sol\":2432:2440  location */\n      dup6\n        /* \"MyHomeToken.sol\":2409:2448  House(_registrationId, location, price) */\n      dup2\n      mstore\n      0x20\n      add\n        /* \"MyHomeToken.sol\":2442:2447  price */\n      dup5\n        /* \"MyHomeToken.sol\":2409:2448  House(_registrationId, location, price) */\n      dup2\n      mstore\n      pop\n        /* \"MyHomeToken.sol\":2392:2448  House memory h = House(_registrationId, location, price) */\n      swap1\n      pop\n        /* \"MyHomeToken.sol\":2475:2480  price */\n      dup3\n        /* \"MyHomeToken.sol\":2458:2460  hp */\n      0x01\n        /* \"MyHomeToken.sol\":2458:2471  hp.totalValue */\n      0x02\n      add\n      0x00\n        /* \"MyHomeToken.sol\":2458:2480  hp.totalValue += price */\n      dup3\n      dup3\n      sload\n      tag_271\n      swap2\n      swap1\n      tag_225\n      jump\t// in\n    tag_271:\n      swap3\n      pop\n      pop\n      dup2\n      swap1\n      sstore\n      pop\n        /* \"MyHomeToken.sol\":2490:2503  houseRegister */\n      0x04\n        /* \"MyHomeToken.sol\":2509:2510  h */\n      dup2\n        /* \"MyHomeToken.sol\":2490:2511  houseRegister.push(h) */\n      swap1\n      dup1\n      0x01\n      dup2\n      sload\n      add\n      dup1\n      dup3\n      sstore\n      dup1\n      swap2\n      pop\n      pop\n      0x01\n      swap1\n      sub\n      swap1\n      0x00\n      mstore\n      keccak256(0x00, 0x20)\n      swap1\n      0x03\n      mul\n      add\n      0x00\n      swap1\n      swap2\n      swap1\n      swap2\n      swap1\n      swap2\n      pop\n      0x00\n      dup3\n      add\n      mload\n      dup2\n      0x00\n      add\n      swap1\n      dup1\n      mload\n      swap1\n      0x20\n      add\n      swap1\n      tag_273\n      swap3\n      swap2\n      swap1\n      tag_177\n      jump\t// in\n    tag_273:\n      pop\n      0x20\n      dup3\n      add\n      mload\n      dup2\n      0x01\n      add\n      swap1\n      dup1\n      mload\n      swap1\n      0x20\n      add\n      swap1\n      tag_274\n      swap3\n      swap2\n      swap1\n      tag_177\n      jump\t// in\n    tag_274:\n      pop\n      0x40\n      dup3\n      add\n      mload\n      dup2\n      0x02\n      add\n      sstore\n      pop\n      pop\n        /* \"MyHomeToken.sol\":2536:2537  1 */\n      0x01\n        /* \"MyHomeToken.sol\":2521:2532  totalHouses */\n      0x05\n      0x00\n        /* \"MyHomeToken.sol\":2521:2537  totalHouses += 1 */\n      dup3\n      dup3\n      sload\n      tag_275\n      swap2\n      swap1\n      tag_225\n      jump\t// in\n    tag_275:\n      swap3\n      pop\n      pop\n      dup2\n      swap1\n      sstore\n      pop\n        /* \"MyHomeToken.sol\":2552:2582  NewHouseAdded(_registrationId) */\n      0x4578fe17eaab41ae382abe3462bb0cf04bcfee4168d2aad3ce9d5d225d0e27f6\n        /* \"MyHomeToken.sol\":2566:2581  _registrationId */\n      dup6\n        /* \"MyHomeToken.sol\":2552:2582  NewHouseAdded(_registrationId) */\n      mload(0x40)\n      tag_276\n      swap2\n      swap1\n      tag_46\n      jump\t// in\n    tag_276:\n      mload(0x40)\n      dup1\n      swap2\n      sub\n      swap1\n      log1\n        /* \"MyHomeToken.sol\":2382:2589  {... */\n      pop\n        /* \"MyHomeToken.sol\":1486:1487  _ */\n      pop\n        /* \"MyHomeToken.sol\":2219:2589  function addHouse(string memory _registrationId, string memory location, uint256 price) ... */\n      pop\n      pop\n      pop\n      jump\t// out\n        /* \"MyHomeToken.sol\":726:753  uint public finalResult = 0 */\n    tag_148:\n      sload(0x12)\n      dup2\n      jump\t// out\n        /* \"MyHomeToken.sol\":2595:2867  function contains(address _shareHolderAddress) private view returns(bool) {... */\n    tag_234:\n        /* \"MyHomeToken.sol\":2663:2667  bool */\n      0x00\n        /* \"MyHomeToken.sol\":2684:2690  uint i */\n      dup1\n        /* \"MyHomeToken.sol\":2693:2694  0 */\n      0x00\n        /* \"MyHomeToken.sol\":2684:2694  uint i = 0 */\n      swap1\n      pop\n        /* \"MyHomeToken.sol\":2679:2838  for (uint i = 0; i < shareHolders.length; i++) {... */\n    tag_278:\n        /* \"MyHomeToken.sol\":2700:2712  shareHolders */\n      0x0b\n        /* \"MyHomeToken.sol\":2700:2719  shareHolders.length */\n      dup1\n      sload\n      swap1\n      pop\n        /* \"MyHomeToken.sol\":2696:2697  i */\n      dup2\n        /* \"MyHomeToken.sol\":2696:2719  i < shareHolders.length */\n      lt\n        /* \"MyHomeToken.sol\":2679:2838  for (uint i = 0; i < shareHolders.length; i++) {... */\n      iszero\n      tag_279\n      jumpi\n        /* \"MyHomeToken.sol\":2763:2782  _shareHolderAddress */\n      dup3\n        /* \"MyHomeToken.sol\":2744:2782  shareHolders[i] == _shareHolderAddress */\n      0xffffffffffffffffffffffffffffffffffffffff\n      and\n        /* \"MyHomeToken.sol\":2744:2756  shareHolders */\n      0x0b\n        /* \"MyHomeToken.sol\":2757:2758  i */\n      dup3\n        /* \"MyHomeToken.sol\":2744:2759  shareHolders[i] */\n      dup2\n      sload\n      dup2\n      lt\n      tag_281\n      jumpi\n      tag_282\n      tag_283\n      jump\t// in\n    tag_282:\n    tag_281:\n      swap1\n      0x00\n      mstore\n      keccak256(0x00, 0x20)\n      add\n      0x00\n      swap1\n      sload\n      swap1\n      0x0100\n      exp\n      swap1\n      div\n      0xffffffffffffffffffffffffffffffffffffffff\n      and\n        /* \"MyHomeToken.sol\":2744:2782  shareHolders[i] == _shareHolderAddress */\n      0xffffffffffffffffffffffffffffffffffffffff\n      and\n      eq\n        /* \"MyHomeToken.sol\":2740:2828  if (shareHolders[i] == _shareHolderAddress) {... */\n      iszero\n      tag_285\n      jumpi\n        /* \"MyHomeToken.sol\":2809:2813  true */\n      0x01\n        /* \"MyHomeToken.sol\":2802:2813  return true */\n      swap2\n      pop\n      pop\n      jump(tag_277)\n        /* \"MyHomeToken.sol\":2740:2828  if (shareHolders[i] == _shareHolderAddress) {... */\n    tag_285:\n        /* \"MyHomeToken.sol\":2721:2724  i++ */\n      dup1\n      dup1\n      tag_286\n      swap1\n      tag_198\n      jump\t// in\n    tag_286:\n      swap2\n      pop\n      pop\n        /* \"MyHomeToken.sol\":2679:2838  for (uint i = 0; i < shareHolders.length; i++) {... */\n      jump(tag_278)\n    tag_279:\n      pop\n        /* \"MyHomeToken.sol\":2855:2860  false */\n      0x00\n        /* \"MyHomeToken.sol\":2848:2860  return false */\n      swap1\n      pop\n        /* \"MyHomeToken.sol\":2595:2867  function contains(address _shareHolderAddress) private view returns(bool) {... */\n    tag_277:\n      swap2\n      swap1\n      pop\n      jump\t// out\n    tag_177:\n      dup3\n      dup1\n      sload\n      tag_287\n      swap1\n      tag_151\n      jump\t// in\n    tag_287:\n      swap1\n      0x00\n      mstore\n      keccak256(0x00, 0x20)\n      swap1\n      0x1f\n      add\n      0x20\n      swap1\n      div\n      dup2\n      add\n      swap3\n      dup3\n      tag_289\n      jumpi\n      0x00\n      dup6\n      sstore\n      jump(tag_288)\n    tag_289:\n      dup3\n      0x1f\n      lt\n      tag_290\n      jumpi\n      dup1\n      mload\n      not(0xff)\n      and\n      dup4\n      dup1\n      add\n      or\n      dup6\n      sstore\n      jump(tag_288)\n    tag_290:\n      dup3\n      dup1\n      add\n      0x01\n      add\n      dup6\n      sstore\n      dup3\n      iszero\n      tag_288\n      jumpi\n      swap2\n      dup3\n      add\n    tag_291:\n      dup3\n      dup2\n      gt\n      iszero\n      tag_292\n      jumpi\n      dup3\n      mload\n      dup3\n      sstore\n      swap2\n      0x20\n      add\n      swap2\n      swap1\n      0x01\n      add\n      swap1\n      jump(tag_291)\n    tag_292:\n    tag_288:\n      pop\n      swap1\n      pop\n      tag_293\n      swap2\n      swap1\n      tag_294\n      jump\t// in\n    tag_293:\n      pop\n      swap1\n      jump\t// out\n    tag_195:\n      mload(0x40)\n      dup1\n      0x40\n      add\n      0x40\n      mstore\n      dup1\n      and(0xffffffffffffffffffffffffffffffffffffffff, 0x00)\n      dup2\n      mstore\n      0x20\n      add\n      iszero(iszero(0x00))\n      dup2\n      mstore\n      pop\n      swap1\n      jump\t// out\n    tag_294:\n    tag_295:\n      dup1\n      dup3\n      gt\n      iszero\n      tag_296\n      jumpi\n      0x00\n      dup2\n      0x00\n      swap1\n      sstore\n      pop\n      0x01\n      add\n      jump(tag_295)\n    tag_296:\n      pop\n      swap1\n      jump\t// out\n        /* \"#utility.yul\":7:419   */\n    tag_298:\n        /* \"#utility.yul\":85:90   */\n      0x00\n        /* \"#utility.yul\":110:176   */\n      tag_300\n        /* \"#utility.yul\":126:175   */\n      tag_301\n        /* \"#utility.yul\":168:174   */\n      dup5\n        /* \"#utility.yul\":126:175   */\n      tag_302\n      jump\t// in\n    tag_301:\n        /* \"#utility.yul\":110:176   */\n      tag_303\n      jump\t// in\n    tag_300:\n        /* \"#utility.yul\":101:176   */\n      swap1\n      pop\n        /* \"#utility.yul\":199:205   */\n      dup3\n        /* \"#utility.yul\":192:197   */\n      dup2\n        /* \"#utility.yul\":185:206   */\n      mstore\n        /* \"#utility.yul\":237:241   */\n      0x20\n        /* \"#utility.yul\":230:235   */\n      dup2\n        /* \"#utility.yul\":226:242   */\n      add\n        /* \"#utility.yul\":275:278   */\n      dup5\n        /* \"#utility.yul\":266:272   */\n      dup5\n        /* \"#utility.yul\":261:264   */\n      dup5\n        /* \"#utility.yul\":257:273   */\n      add\n        /* \"#utility.yul\":254:279   */\n      gt\n        /* \"#utility.yul\":251:363   */\n      iszero\n      tag_304\n      jumpi\n        /* \"#utility.yul\":282:361   */\n      tag_305\n      tag_306\n      jump\t// in\n    tag_305:\n        /* \"#utility.yul\":251:363   */\n    tag_304:\n        /* \"#utility.yul\":372:413   */\n      tag_307\n        /* \"#utility.yul\":406:412   */\n      dup5\n        /* \"#utility.yul\":401:404   */\n      dup3\n        /* \"#utility.yul\":396:399   */\n      dup6\n        /* \"#utility.yul\":372:413   */\n      tag_308\n      jump\t// in\n    tag_307:\n        /* \"#utility.yul\":91:419   */\n      pop\n        /* \"#utility.yul\":7:419   */\n      swap4\n      swap3\n      pop\n      pop\n      pop\n      jump\t// out\n        /* \"#utility.yul\":425:564   */\n    tag_309:\n        /* \"#utility.yul\":471:476   */\n      0x00\n        /* \"#utility.yul\":509:515   */\n      dup2\n        /* \"#utility.yul\":496:516   */\n      calldataload\n        /* \"#utility.yul\":487:516   */\n      swap1\n      pop\n        /* \"#utility.yul\":525:558   */\n      tag_311\n        /* \"#utility.yul\":552:557   */\n      dup2\n        /* \"#utility.yul\":525:558   */\n      tag_312\n      jump\t// in\n    tag_311:\n        /* \"#utility.yul\":425:564   */\n      swap3\n      swap2\n      pop\n      pop\n      jump\t// out\n        /* \"#utility.yul\":570:703   */\n    tag_313:\n        /* \"#utility.yul\":613:618   */\n      0x00\n        /* \"#utility.yul\":651:657   */\n      dup2\n        /* \"#utility.yul\":638:658   */\n      calldataload\n        /* \"#utility.yul\":629:658   */\n      swap1\n      pop\n        /* \"#utility.yul\":667:697   */\n      tag_315\n        /* \"#utility.yul\":691:696   */\n      dup2\n        /* \"#utility.yul\":667:697   */\n      tag_316\n      jump\t// in\n    tag_315:\n        /* \"#utility.yul\":570:703   */\n      swap3\n      swap2\n      pop\n      pop\n      jump\t// out\n        /* \"#utility.yul\":723:1063   */\n    tag_317:\n        /* \"#utility.yul\":779:784   */\n      0x00\n        /* \"#utility.yul\":828:831   */\n      dup3\n        /* \"#utility.yul\":821:825   */\n      0x1f\n        /* \"#utility.yul\":813:819   */\n      dup4\n        /* \"#utility.yul\":809:826   */\n      add\n        /* \"#utility.yul\":805:832   */\n      slt\n        /* \"#utility.yul\":795:917   */\n      tag_319\n      jumpi\n        /* \"#utility.yul\":836:915   */\n      tag_320\n      tag_321\n      jump\t// in\n    tag_320:\n        /* \"#utility.yul\":795:917   */\n    tag_319:\n        /* \"#utility.yul\":953:959   */\n      dup2\n        /* \"#utility.yul\":940:960   */\n      calldataload\n        /* \"#utility.yul\":978:1057   */\n      tag_322\n        /* \"#utility.yul\":1053:1056   */\n      dup5\n        /* \"#utility.yul\":1045:1051   */\n      dup3\n        /* \"#utility.yul\":1038:1042   */\n      0x20\n        /* \"#utility.yul\":1030:1036   */\n      dup7\n        /* \"#utility.yul\":1026:1043   */\n      add\n        /* \"#utility.yul\":978:1057   */\n      tag_298\n      jump\t// in\n    tag_322:\n        /* \"#utility.yul\":969:1057   */\n      swap2\n      pop\n        /* \"#utility.yul\":785:1063   */\n      pop\n        /* \"#utility.yul\":723:1063   */\n      swap3\n      swap2\n      pop\n      pop\n      jump\t// out\n        /* \"#utility.yul\":1069:1208   */\n    tag_323:\n        /* \"#utility.yul\":1115:1120   */\n      0x00\n        /* \"#utility.yul\":1153:1159   */\n      dup2\n        /* \"#utility.yul\":1140:1160   */\n      calldataload\n        /* \"#utility.yul\":1131:1160   */\n      swap1\n      pop\n        /* \"#utility.yul\":1169:1202   */\n      tag_325\n        /* \"#utility.yul\":1196:1201   */\n      dup2\n        /* \"#utility.yul\":1169:1202   */\n      tag_326\n      jump\t// in\n    tag_325:\n        /* \"#utility.yul\":1069:1208   */\n      swap3\n      swap2\n      pop\n      pop\n      jump\t// out\n        /* \"#utility.yul\":1214:1543   */\n    tag_50:\n        /* \"#utility.yul\":1273:1279   */\n      0x00\n        /* \"#utility.yul\":1322:1324   */\n      0x20\n        /* \"#utility.yul\":1310:1319   */\n      dup3\n        /* \"#utility.yul\":1301:1308   */\n      dup5\n        /* \"#utility.yul\":1297:1320   */\n      sub\n        /* \"#utility.yul\":1293:1325   */\n      slt\n        /* \"#utility.yul\":1290:1409   */\n      iszero\n      tag_328\n      jumpi\n        /* \"#utility.yul\":1328:1407   */\n      tag_329\n      tag_330\n      jump\t// in\n    tag_329:\n        /* \"#utility.yul\":1290:1409   */\n    tag_328:\n        /* \"#utility.yul\":1448:1449   */\n      0x00\n        /* \"#utility.yul\":1473:1526   */\n      tag_331\n        /* \"#utility.yul\":1518:1525   */\n      dup5\n        /* \"#utility.yul\":1509:1515   */\n      dup3\n        /* \"#utility.yul\":1498:1507   */\n      dup6\n        /* \"#utility.yul\":1494:1516   */\n      add\n        /* \"#utility.yul\":1473:1526   */\n      tag_309\n      jump\t// in\n    tag_331:\n        /* \"#utility.yul\":1463:1526   */\n      swap2\n      pop\n        /* \"#utility.yul\":1419:1536   */\n      pop\n        /* \"#utility.yul\":1214:1543   */\n      swap3\n      swap2\n      pop\n      pop\n      jump\t// out\n        /* \"#utility.yul\":1549:2023   */\n    tag_119:\n        /* \"#utility.yul\":1617:1623   */\n      0x00\n        /* \"#utility.yul\":1625:1631   */\n      dup1\n        /* \"#utility.yul\":1674:1676   */\n      0x40\n        /* \"#utility.yul\":1662:1671   */\n      dup4\n        /* \"#utility.yul\":1653:1660   */\n      dup6\n        /* \"#utility.yul\":1649:1672   */\n      sub\n        /* \"#utility.yul\":1645:1677   */\n      slt\n        /* \"#utility.yul\":1642:1761   */\n      iszero\n      tag_333\n      jumpi\n        /* \"#utility.yul\":1680:1759   */\n      tag_334\n      tag_330\n      jump\t// in\n    tag_334:\n        /* \"#utility.yul\":1642:1761   */\n    tag_333:\n        /* \"#utility.yul\":1800:1801   */\n      0x00\n        /* \"#utility.yul\":1825:1878   */\n      tag_335\n        /* \"#utility.yul\":1870:1877   */\n      dup6\n        /* \"#utility.yul\":1861:1867   */\n      dup3\n        /* \"#utility.yul\":1850:1859   */\n      dup7\n        /* \"#utility.yul\":1846:1868   */\n      add\n        /* \"#utility.yul\":1825:1878   */\n      tag_309\n      jump\t// in\n    tag_335:\n        /* \"#utility.yul\":1815:1878   */\n      swap3\n      pop\n        /* \"#utility.yul\":1771:1888   */\n      pop\n        /* \"#utility.yul\":1927:1929   */\n      0x20\n        /* \"#utility.yul\":1953:2006   */\n      tag_336\n        /* \"#utility.yul\":1998:2005   */\n      dup6\n        /* \"#utility.yul\":1989:1995   */\n      dup3\n        /* \"#utility.yul\":1978:1987   */\n      dup7\n        /* \"#utility.yul\":1974:1996   */\n      add\n        /* \"#utility.yul\":1953:2006   */\n      tag_323\n      jump\t// in\n    tag_336:\n        /* \"#utility.yul\":1943:2006   */\n      swap2\n      pop\n        /* \"#utility.yul\":1898:2016   */\n      pop\n        /* \"#utility.yul\":1549:2023   */\n      swap3\n      pop\n      swap3\n      swap1\n      pop\n      jump\t// out\n        /* \"#utility.yul\":2029:2352   */\n    tag_96:\n        /* \"#utility.yul\":2085:2091   */\n      0x00\n        /* \"#utility.yul\":2134:2136   */\n      0x20\n        /* \"#utility.yul\":2122:2131   */\n      dup3\n        /* \"#utility.yul\":2113:2120   */\n      dup5\n        /* \"#utility.yul\":2109:2132   */\n      sub\n        /* \"#utility.yul\":2105:2137   */\n      slt\n        /* \"#utility.yul\":2102:2221   */\n      iszero\n      tag_338\n      jumpi\n        /* \"#utility.yul\":2140:2219   */\n      tag_339\n      tag_330\n      jump\t// in\n    tag_339:\n        /* \"#utility.yul\":2102:2221   */\n    tag_338:\n        /* \"#utility.yul\":2260:2261   */\n      0x00\n        /* \"#utility.yul\":2285:2335   */\n      tag_340\n        /* \"#utility.yul\":2327:2334   */\n      dup5\n        /* \"#utility.yul\":2318:2324   */\n      dup3\n        /* \"#utility.yul\":2307:2316   */\n      dup6\n        /* \"#utility.yul\":2303:2325   */\n      add\n        /* \"#utility.yul\":2285:2335   */\n      tag_313\n      jump\t// in\n    tag_340:\n        /* \"#utility.yul\":2275:2335   */\n      swap2\n      pop\n        /* \"#utility.yul\":2231:2345   */\n      pop\n        /* \"#utility.yul\":2029:2352   */\n      swap3\n      swap2\n      pop\n      pop\n      jump\t// out\n        /* \"#utility.yul\":2358:3192   */\n    tag_76:\n        /* \"#utility.yul\":2446:2452   */\n      0x00\n        /* \"#utility.yul\":2454:2460   */\n      dup1\n        /* \"#utility.yul\":2503:2505   */\n      0x40\n        /* \"#utility.yul\":2491:2500   */\n      dup4\n        /* \"#utility.yul\":2482:2489   */\n      dup6\n        /* \"#utility.yul\":2478:2501   */\n      sub\n        /* \"#utility.yul\":2474:2506   */\n      slt\n        /* \"#utility.yul\":2471:2590   */\n      iszero\n      tag_342\n      jumpi\n        /* \"#utility.yul\":2509:2588   */\n      tag_343\n      tag_330\n      jump\t// in\n    tag_343:\n        /* \"#utility.yul\":2471:2590   */\n    tag_342:\n        /* \"#utility.yul\":2657:2658   */\n      0x00\n        /* \"#utility.yul\":2646:2655   */\n      dup4\n        /* \"#utility.yul\":2642:2659   */\n      add\n        /* \"#utility.yul\":2629:2660   */\n      calldataload\n        /* \"#utility.yul\":2687:2705   */\n      0xffffffffffffffff\n        /* \"#utility.yul\":2679:2685   */\n      dup2\n        /* \"#utility.yul\":2676:2706   */\n      gt\n        /* \"#utility.yul\":2673:2790   */\n      iszero\n      tag_344\n      jumpi\n        /* \"#utility.yul\":2709:2788   */\n      tag_345\n      tag_346\n      jump\t// in\n    tag_345:\n        /* \"#utility.yul\":2673:2790   */\n    tag_344:\n        /* \"#utility.yul\":2814:2877   */\n      tag_347\n        /* \"#utility.yul\":2869:2876   */\n      dup6\n        /* \"#utility.yul\":2860:2866   */\n      dup3\n        /* \"#utility.yul\":2849:2858   */\n      dup7\n        /* \"#utility.yul\":2845:2867   */\n      add\n        /* \"#utility.yul\":2814:2877   */\n      tag_317\n      jump\t// in\n    tag_347:\n        /* \"#utility.yul\":2804:2877   */\n      swap3\n      pop\n        /* \"#utility.yul\":2600:2887   */\n      pop\n        /* \"#utility.yul\":2954:2956   */\n      0x20\n        /* \"#utility.yul\":2943:2952   */\n      dup4\n        /* \"#utility.yul\":2939:2957   */\n      add\n        /* \"#utility.yul\":2926:2958   */\n      calldataload\n        /* \"#utility.yul\":2985:3003   */\n      0xffffffffffffffff\n        /* \"#utility.yul\":2977:2983   */\n      dup2\n        /* \"#utility.yul\":2974:3004   */\n      gt\n        /* \"#utility.yul\":2971:3088   */\n      iszero\n      tag_348\n      jumpi\n        /* \"#utility.yul\":3007:3086   */\n      tag_349\n      tag_346\n      jump\t// in\n    tag_349:\n        /* \"#utility.yul\":2971:3088   */\n    tag_348:\n        /* \"#utility.yul\":3112:3175   */\n      tag_350\n        /* \"#utility.yul\":3167:3174   */\n      dup6\n        /* \"#utility.yul\":3158:3164   */\n      dup3\n        /* \"#utility.yul\":3147:3156   */\n      dup7\n        /* \"#utility.yul\":3143:3165   */\n      add\n        /* \"#utility.yul\":3112:3175   */\n      tag_317\n      jump\t// in\n    tag_350:\n        /* \"#utility.yul\":3102:3175   */\n      swap2\n      pop\n        /* \"#utility.yul\":2897:3185   */\n      pop\n        /* \"#utility.yul\":2358:3192   */\n      swap3\n      pop\n      swap3\n      swap1\n      pop\n      jump\t// out\n        /* \"#utility.yul\":3198:4177   */\n    tag_144:\n        /* \"#utility.yul\":3295:3301   */\n      0x00\n        /* \"#utility.yul\":3303:3309   */\n      dup1\n        /* \"#utility.yul\":3311:3317   */\n      0x00\n        /* \"#utility.yul\":3360:3362   */\n      0x60\n        /* \"#utility.yul\":3348:3357   */\n      dup5\n        /* \"#utility.yul\":3339:3346   */\n      dup7\n        /* \"#utility.yul\":3335:3358   */\n      sub\n        /* \"#utility.yul\":3331:3363   */\n      slt\n        /* \"#utility.yul\":3328:3447   */\n      iszero\n      tag_352\n      jumpi\n        /* \"#utility.yul\":3366:3445   */\n      tag_353\n      tag_330\n      jump\t// in\n    tag_353:\n        /* \"#utility.yul\":3328:3447   */\n    tag_352:\n        /* \"#utility.yul\":3514:3515   */\n      0x00\n        /* \"#utility.yul\":3503:3512   */\n      dup5\n        /* \"#utility.yul\":3499:3516   */\n      add\n        /* \"#utility.yul\":3486:3517   */\n      calldataload\n        /* \"#utility.yul\":3544:3562   */\n      0xffffffffffffffff\n        /* \"#utility.yul\":3536:3542   */\n      dup2\n        /* \"#utility.yul\":3533:3563   */\n      gt\n        /* \"#utility.yul\":3530:3647   */\n      iszero\n      tag_354\n      jumpi\n        /* \"#utility.yul\":3566:3645   */\n      tag_355\n      tag_346\n      jump\t// in\n    tag_355:\n        /* \"#utility.yul\":3530:3647   */\n    tag_354:\n        /* \"#utility.yul\":3671:3734   */\n      tag_356\n        /* \"#utility.yul\":3726:3733   */\n      dup7\n        /* \"#utility.yul\":3717:3723   */\n      dup3\n        /* \"#utility.yul\":3706:3715   */\n      dup8\n        /* \"#utility.yul\":3702:3724   */\n      add\n        /* \"#utility.yul\":3671:3734   */\n      tag_317\n      jump\t// in\n    tag_356:\n        /* \"#utility.yul\":3661:3734   */\n      swap4\n      pop\n        /* \"#utility.yul\":3457:3744   */\n      pop\n        /* \"#utility.yul\":3811:3813   */\n      0x20\n        /* \"#utility.yul\":3800:3809   */\n      dup5\n        /* \"#utility.yul\":3796:3814   */\n      add\n        /* \"#utility.yul\":3783:3815   */\n      calldataload\n        /* \"#utility.yul\":3842:3860   */\n      0xffffffffffffffff\n        /* \"#utility.yul\":3834:3840   */\n      dup2\n        /* \"#utility.yul\":3831:3861   */\n      gt\n        /* \"#utility.yul\":3828:3945   */\n      iszero\n      tag_357\n      jumpi\n        /* \"#utility.yul\":3864:3943   */\n      tag_358\n      tag_346\n      jump\t// in\n    tag_358:\n        /* \"#utility.yul\":3828:3945   */\n    tag_357:\n        /* \"#utility.yul\":3969:4032   */\n      tag_359\n        /* \"#utility.yul\":4024:4031   */\n      dup7\n        /* \"#utility.yul\":4015:4021   */\n      dup3\n        /* \"#utility.yul\":4004:4013   */\n      dup8\n        /* \"#utility.yul\":4000:4022   */\n      add\n        /* \"#utility.yul\":3969:4032   */\n      tag_317\n      jump\t// in\n    tag_359:\n        /* \"#utility.yul\":3959:4032   */\n      swap3\n      pop\n        /* \"#utility.yul\":3754:4042   */\n      pop\n        /* \"#utility.yul\":4081:4083   */\n      0x40\n        /* \"#utility.yul\":4107:4160   */\n      tag_360\n        /* \"#utility.yul\":4152:4159   */\n      dup7\n        /* \"#utility.yul\":4143:4149   */\n      dup3\n        /* \"#utility.yul\":4132:4141   */\n      dup8\n        /* \"#utility.yul\":4128:4150   */\n      add\n        /* \"#utility.yul\":4107:4160   */\n      tag_323\n      jump\t// in\n    tag_360:\n        /* \"#utility.yul\":4097:4160   */\n      swap2\n      pop\n        /* \"#utility.yul\":4052:4170   */\n      pop\n        /* \"#utility.yul\":3198:4177   */\n      swap3\n      pop\n      swap3\n      pop\n      swap3\n      jump\t// out\n        /* \"#utility.yul\":4183:4512   */\n    tag_81:\n        /* \"#utility.yul\":4242:4248   */\n      0x00\n        /* \"#utility.yul\":4291:4293   */\n      0x20\n        /* \"#utility.yul\":4279:4288   */\n      dup3\n        /* \"#utility.yul\":4270:4277   */\n      dup5\n        /* \"#utility.yul\":4266:4289   */\n      sub\n        /* \"#utility.yul\":4262:4294   */\n      slt\n        /* \"#utility.yul\":4259:4378   */\n      iszero\n      tag_362\n      jumpi\n        /* \"#utility.yul\":4297:4376   */\n      tag_363\n      tag_330\n      jump\t// in\n    tag_363:\n        /* \"#utility.yul\":4259:4378   */\n    tag_362:\n        /* \"#utility.yul\":4417:4418   */\n      0x00\n        /* \"#utility.yul\":4442:4495   */\n      tag_364\n        /* \"#utility.yul\":4487:4494   */\n      dup5\n        /* \"#utility.yul\":4478:4484   */\n      dup3\n        /* \"#utility.yul\":4467:4476   */\n      dup6\n        /* \"#utility.yul\":4463:4485   */\n      add\n        /* \"#utility.yul\":4442:4495   */\n      tag_323\n      jump\t// in\n    tag_364:\n        /* \"#utility.yul\":4432:4495   */\n      swap2\n      pop\n        /* \"#utility.yul\":4388:4505   */\n      pop\n        /* \"#utility.yul\":4183:4512   */\n      swap3\n      swap2\n      pop\n      pop\n      jump\t// out\n        /* \"#utility.yul\":4518:4660   */\n    tag_365:\n        /* \"#utility.yul\":4621:4653   */\n      tag_367\n        /* \"#utility.yul\":4647:4652   */\n      dup2\n        /* \"#utility.yul\":4621:4653   */\n      tag_368\n      jump\t// in\n    tag_367:\n        /* \"#utility.yul\":4616:4619   */\n      dup3\n        /* \"#utility.yul\":4609:4654   */\n      mstore\n        /* \"#utility.yul\":4518:4660   */\n      pop\n      pop\n      jump\t// out\n        /* \"#utility.yul\":4666:4784   */\n    tag_369:\n        /* \"#utility.yul\":4753:4777   */\n      tag_371\n        /* \"#utility.yul\":4771:4776   */\n      dup2\n        /* \"#utility.yul\":4753:4777   */\n      tag_372\n      jump\t// in\n    tag_371:\n        /* \"#utility.yul\":4748:4751   */\n      dup3\n        /* \"#utility.yul\":4741:4778   */\n      mstore\n        /* \"#utility.yul\":4666:4784   */\n      pop\n      pop\n      jump\t// out\n        /* \"#utility.yul\":4790:4899   */\n    tag_373:\n        /* \"#utility.yul\":4871:4892   */\n      tag_375\n        /* \"#utility.yul\":4886:4891   */\n      dup2\n        /* \"#utility.yul\":4871:4892   */\n      tag_376\n      jump\t// in\n    tag_375:\n        /* \"#utility.yul\":4866:4869   */\n      dup3\n        /* \"#utility.yul\":4859:4893   */\n      mstore\n        /* \"#utility.yul\":4790:4899   */\n      pop\n      pop\n      jump\t// out\n        /* \"#utility.yul\":4905:5269   */\n    tag_377:\n        /* \"#utility.yul\":4993:4996   */\n      0x00\n        /* \"#utility.yul\":5021:5060   */\n      tag_379\n        /* \"#utility.yul\":5054:5059   */\n      dup3\n        /* \"#utility.yul\":5021:5060   */\n      tag_380\n      jump\t// in\n    tag_379:\n        /* \"#utility.yul\":5076:5147   */\n      tag_381\n        /* \"#utility.yul\":5140:5146   */\n      dup2\n        /* \"#utility.yul\":5135:5138   */\n      dup6\n        /* \"#utility.yul\":5076:5147   */\n      tag_382\n      jump\t// in\n    tag_381:\n        /* \"#utility.yul\":5069:5147   */\n      swap4\n      pop\n        /* \"#utility.yul\":5156:5208   */\n      tag_383\n        /* \"#utility.yul\":5201:5207   */\n      dup2\n        /* \"#utility.yul\":5196:5199   */\n      dup6\n        /* \"#utility.yul\":5189:5193   */\n      0x20\n        /* \"#utility.yul\":5182:5187   */\n      dup7\n        /* \"#utility.yul\":5178:5194   */\n      add\n        /* \"#utility.yul\":5156:5208   */\n      tag_384\n      jump\t// in\n    tag_383:\n        /* \"#utility.yul\":5233:5262   */\n      tag_385\n        /* \"#utility.yul\":5255:5261   */\n      dup2\n        /* \"#utility.yul\":5233:5262   */\n      tag_386\n      jump\t// in\n    tag_385:\n        /* \"#utility.yul\":5228:5231   */\n      dup5\n        /* \"#utility.yul\":5224:5263   */\n      add\n        /* \"#utility.yul\":5217:5263   */\n      swap2\n      pop\n        /* \"#utility.yul\":4997:5269   */\n      pop\n        /* \"#utility.yul\":4905:5269   */\n      swap3\n      swap2\n      pop\n      pop\n      jump\t// out\n        /* \"#utility.yul\":5275:5641   */\n    tag_387:\n        /* \"#utility.yul\":5417:5420   */\n      0x00\n        /* \"#utility.yul\":5438:5505   */\n      tag_389\n        /* \"#utility.yul\":5502:5504   */\n      0x23\n        /* \"#utility.yul\":5497:5500   */\n      dup4\n        /* \"#utility.yul\":5438:5505   */\n      tag_382\n      jump\t// in\n    tag_389:\n        /* \"#utility.yul\":5431:5505   */\n      swap2\n      pop\n        /* \"#utility.yul\":5514:5607   */\n      tag_390\n        /* \"#utility.yul\":5603:5606   */\n      dup3\n        /* \"#utility.yul\":5514:5607   */\n      tag_391\n      jump\t// in\n    tag_390:\n        /* \"#utility.yul\":5632:5634   */\n      0x40\n        /* \"#utility.yul\":5627:5630   */\n      dup3\n        /* \"#utility.yul\":5623:5635   */\n      add\n        /* \"#utility.yul\":5616:5635   */\n      swap1\n      pop\n        /* \"#utility.yul\":5275:5641   */\n      swap2\n      swap1\n      pop\n      jump\t// out\n        /* \"#utility.yul\":5647:5765   */\n    tag_392:\n        /* \"#utility.yul\":5734:5758   */\n      tag_394\n        /* \"#utility.yul\":5752:5757   */\n      dup2\n        /* \"#utility.yul\":5734:5758   */\n      tag_395\n      jump\t// in\n    tag_394:\n        /* \"#utility.yul\":5729:5732   */\n      dup3\n        /* \"#utility.yul\":5722:5759   */\n      mstore\n        /* \"#utility.yul\":5647:5765   */\n      pop\n      pop\n      jump\t// out\n        /* \"#utility.yul\":5771:5993   */\n    tag_84:\n        /* \"#utility.yul\":5864:5868   */\n      0x00\n        /* \"#utility.yul\":5902:5904   */\n      0x20\n        /* \"#utility.yul\":5891:5900   */\n      dup3\n        /* \"#utility.yul\":5887:5905   */\n      add\n        /* \"#utility.yul\":5879:5905   */\n      swap1\n      pop\n        /* \"#utility.yul\":5915:5986   */\n      tag_397\n        /* \"#utility.yul\":5983:5984   */\n      0x00\n        /* \"#utility.yul\":5972:5981   */\n      dup4\n        /* \"#utility.yul\":5968:5985   */\n      add\n        /* \"#utility.yul\":5959:5965   */\n      dup5\n        /* \"#utility.yul\":5915:5986   */\n      tag_369\n      jump\t// in\n    tag_397:\n        /* \"#utility.yul\":5771:5993   */\n      swap3\n      swap2\n      pop\n      pop\n      jump\t// out\n        /* \"#utility.yul\":5999:6253   */\n    tag_103:\n        /* \"#utility.yul\":6108:6112   */\n      0x00\n        /* \"#utility.yul\":6146:6148   */\n      0x20\n        /* \"#utility.yul\":6135:6144   */\n      dup3\n        /* \"#utility.yul\":6131:6149   */\n      add\n        /* \"#utility.yul\":6123:6149   */\n      swap1\n      pop\n        /* \"#utility.yul\":6159:6246   */\n      tag_399\n        /* \"#utility.yul\":6243:6244   */\n      0x00\n        /* \"#utility.yul\":6232:6241   */\n      dup4\n        /* \"#utility.yul\":6228:6245   */\n      add\n        /* \"#utility.yul\":6219:6225   */\n      dup5\n        /* \"#utility.yul\":6159:6246   */\n      tag_365\n      jump\t// in\n    tag_399:\n        /* \"#utility.yul\":5999:6253   */\n      swap3\n      swap2\n      pop\n      pop\n      jump\t// out\n        /* \"#utility.yul\":6259:6469   */\n    tag_72:\n        /* \"#utility.yul\":6346:6350   */\n      0x00\n        /* \"#utility.yul\":6384:6386   */\n      0x20\n        /* \"#utility.yul\":6373:6382   */\n      dup3\n        /* \"#utility.yul\":6369:6387   */\n      add\n        /* \"#utility.yul\":6361:6387   */\n      swap1\n      pop\n        /* \"#utility.yul\":6397:6462   */\n      tag_401\n        /* \"#utility.yul\":6459:6460   */\n      0x00\n        /* \"#utility.yul\":6448:6457   */\n      dup4\n        /* \"#utility.yul\":6444:6461   */\n      add\n        /* \"#utility.yul\":6435:6441   */\n      dup5\n        /* \"#utility.yul\":6397:6462   */\n      tag_373\n      jump\t// in\n    tag_401:\n        /* \"#utility.yul\":6259:6469   */\n      swap3\n      swap2\n      pop\n      pop\n      jump\t// out\n        /* \"#utility.yul\":6475:6788   */\n    tag_46:\n        /* \"#utility.yul\":6588:6592   */\n      0x00\n        /* \"#utility.yul\":6626:6628   */\n      0x20\n        /* \"#utility.yul\":6615:6624   */\n      dup3\n        /* \"#utility.yul\":6611:6629   */\n      add\n        /* \"#utility.yul\":6603:6629   */\n      swap1\n      pop\n        /* \"#utility.yul\":6675:6684   */\n      dup2\n        /* \"#utility.yul\":6669:6673   */\n      dup2\n        /* \"#utility.yul\":6665:6685   */\n      sub\n        /* \"#utility.yul\":6661:6662   */\n      0x00\n        /* \"#utility.yul\":6650:6659   */\n      dup4\n        /* \"#utility.yul\":6646:6663   */\n      add\n        /* \"#utility.yul\":6639:6686   */\n      mstore\n        /* \"#utility.yul\":6703:6781   */\n      tag_403\n        /* \"#utility.yul\":6776:6780   */\n      dup2\n        /* \"#utility.yul\":6767:6773   */\n      dup5\n        /* \"#utility.yul\":6703:6781   */\n      tag_377\n      jump\t// in\n    tag_403:\n        /* \"#utility.yul\":6695:6781   */\n      swap1\n      pop\n        /* \"#utility.yul\":6475:6788   */\n      swap3\n      swap2\n      pop\n      pop\n      jump\t// out\n        /* \"#utility.yul\":6794:7418   */\n    tag_113:\n        /* \"#utility.yul\":6983:6987   */\n      0x00\n        /* \"#utility.yul\":7021:7023   */\n      0x60\n        /* \"#utility.yul\":7010:7019   */\n      dup3\n        /* \"#utility.yul\":7006:7024   */\n      add\n        /* \"#utility.yul\":6998:7024   */\n      swap1\n      pop\n        /* \"#utility.yul\":7070:7079   */\n      dup2\n        /* \"#utility.yul\":7064:7068   */\n      dup2\n        /* \"#utility.yul\":7060:7080   */\n      sub\n        /* \"#utility.yul\":7056:7057   */\n      0x00\n        /* \"#utility.yul\":7045:7054   */\n      dup4\n        /* \"#utility.yul\":7041:7058   */\n      add\n        /* \"#utility.yul\":7034:7081   */\n      mstore\n        /* \"#utility.yul\":7098:7176   */\n      tag_405\n        /* \"#utility.yul\":7171:7175   */\n      dup2\n        /* \"#utility.yul\":7162:7168   */\n      dup7\n        /* \"#utility.yul\":7098:7176   */\n      tag_377\n      jump\t// in\n    tag_405:\n        /* \"#utility.yul\":7090:7176   */\n      swap1\n      pop\n        /* \"#utility.yul\":7223:7232   */\n      dup2\n        /* \"#utility.yul\":7217:7221   */\n      dup2\n        /* \"#utility.yul\":7213:7233   */\n      sub\n        /* \"#utility.yul\":7208:7210   */\n      0x20\n        /* \"#utility.yul\":7197:7206   */\n      dup4\n        /* \"#utility.yul\":7193:7211   */\n      add\n        /* \"#utility.yul\":7186:7234   */\n      mstore\n        /* \"#utility.yul\":7251:7329   */\n      tag_406\n        /* \"#utility.yul\":7324:7328   */\n      dup2\n        /* \"#utility.yul\":7315:7321   */\n      dup6\n        /* \"#utility.yul\":7251:7329   */\n      tag_377\n      jump\t// in\n    tag_406:\n        /* \"#utility.yul\":7243:7329   */\n      swap1\n      pop\n        /* \"#utility.yul\":7339:7411   */\n      tag_407\n        /* \"#utility.yul\":7407:7409   */\n      0x40\n        /* \"#utility.yul\":7396:7405   */\n      dup4\n        /* \"#utility.yul\":7392:7410   */\n      add\n        /* \"#utility.yul\":7383:7389   */\n      dup5\n        /* \"#utility.yul\":7339:7411   */\n      tag_392\n      jump\t// in\n    tag_407:\n        /* \"#utility.yul\":6794:7418   */\n      swap5\n      swap4\n      pop\n      pop\n      pop\n      pop\n      jump\t// out\n        /* \"#utility.yul\":7424:7843   */\n    tag_219:\n        /* \"#utility.yul\":7590:7594   */\n      0x00\n        /* \"#utility.yul\":7628:7630   */\n      0x20\n        /* \"#utility.yul\":7617:7626   */\n      dup3\n        /* \"#utility.yul\":7613:7631   */\n      add\n        /* \"#utility.yul\":7605:7631   */\n      swap1\n      pop\n        /* \"#utility.yul\":7677:7686   */\n      dup2\n        /* \"#utility.yul\":7671:7675   */\n      dup2\n        /* \"#utility.yul\":7667:7687   */\n      sub\n        /* \"#utility.yul\":7663:7664   */\n      0x00\n        /* \"#utility.yul\":7652:7661   */\n      dup4\n        /* \"#utility.yul\":7648:7665   */\n      add\n        /* \"#utility.yul\":7641:7688   */\n      mstore\n        /* \"#utility.yul\":7705:7836   */\n      tag_409\n        /* \"#utility.yul\":7831:7835   */\n      dup2\n        /* \"#utility.yul\":7705:7836   */\n      tag_387\n      jump\t// in\n    tag_409:\n        /* \"#utility.yul\":7697:7836   */\n      swap1\n      pop\n        /* \"#utility.yul\":7424:7843   */\n      swap2\n      swap1\n      pop\n      jump\t// out\n        /* \"#utility.yul\":7849:8071   */\n    tag_37:\n        /* \"#utility.yul\":7942:7946   */\n      0x00\n        /* \"#utility.yul\":7980:7982   */\n      0x20\n        /* \"#utility.yul\":7969:7978   */\n      dup3\n        /* \"#utility.yul\":7965:7983   */\n      add\n        /* \"#utility.yul\":7957:7983   */\n      swap1\n      pop\n        /* \"#utility.yul\":7993:8064   */\n      tag_411\n        /* \"#utility.yul\":8061:8062   */\n      0x00\n        /* \"#utility.yul\":8050:8059   */\n      dup4\n        /* \"#utility.yul\":8046:8063   */\n      add\n        /* \"#utility.yul\":8037:8043   */\n      dup5\n        /* \"#utility.yul\":7993:8064   */\n      tag_392\n      jump\t// in\n    tag_411:\n        /* \"#utility.yul\":7849:8071   */\n      swap3\n      swap2\n      pop\n      pop\n      jump\t// out\n        /* \"#utility.yul\":8077:8206   */\n    tag_303:\n        /* \"#utility.yul\":8111:8117   */\n      0x00\n        /* \"#utility.yul\":8138:8158   */\n      tag_413\n      tag_414\n      jump\t// in\n    tag_413:\n        /* \"#utility.yul\":8128:8158   */\n      swap1\n      pop\n        /* \"#utility.yul\":8167:8200   */\n      tag_415\n        /* \"#utility.yul\":8195:8199   */\n      dup3\n        /* \"#utility.yul\":8187:8193   */\n      dup3\n        /* \"#utility.yul\":8167:8200   */\n      tag_416\n      jump\t// in\n    tag_415:\n        /* \"#utility.yul\":8077:8206   */\n      swap2\n      swap1\n      pop\n      jump\t// out\n        /* \"#utility.yul\":8212:8287   */\n    tag_414:\n        /* \"#utility.yul\":8245:8251   */\n      0x00\n        /* \"#utility.yul\":8278:8280   */\n      0x40\n        /* \"#utility.yul\":8272:8281   */\n      mload\n        /* \"#utility.yul\":8262:8281   */\n      swap1\n      pop\n        /* \"#utility.yul\":8212:8287   */\n      swap1\n      jump\t// out\n        /* \"#utility.yul\":8293:8601   */\n    tag_302:\n        /* \"#utility.yul\":8355:8359   */\n      0x00\n        /* \"#utility.yul\":8445:8463   */\n      0xffffffffffffffff\n        /* \"#utility.yul\":8437:8443   */\n      dup3\n        /* \"#utility.yul\":8434:8464   */\n      gt\n        /* \"#utility.yul\":8431:8487   */\n      iszero\n      tag_419\n      jumpi\n        /* \"#utility.yul\":8467:8485   */\n      tag_420\n      tag_421\n      jump\t// in\n    tag_420:\n        /* \"#utility.yul\":8431:8487   */\n    tag_419:\n        /* \"#utility.yul\":8505:8534   */\n      tag_422\n        /* \"#utility.yul\":8527:8533   */\n      dup3\n        /* \"#utility.yul\":8505:8534   */\n      tag_386\n      jump\t// in\n    tag_422:\n        /* \"#utility.yul\":8497:8534   */\n      swap1\n      pop\n        /* \"#utility.yul\":8589:8593   */\n      0x20\n        /* \"#utility.yul\":8583:8587   */\n      dup2\n        /* \"#utility.yul\":8579:8594   */\n      add\n        /* \"#utility.yul\":8571:8594   */\n      swap1\n      pop\n        /* \"#utility.yul\":8293:8601   */\n      swap2\n      swap1\n      pop\n      jump\t// out\n        /* \"#utility.yul\":8607:8706   */\n    tag_380:\n        /* \"#utility.yul\":8659:8665   */\n      0x00\n        /* \"#utility.yul\":8693:8698   */\n      dup2\n        /* \"#utility.yul\":8687:8699   */\n      mload\n        /* \"#utility.yul\":8677:8699   */\n      swap1\n      pop\n        /* \"#utility.yul\":8607:8706   */\n      swap2\n      swap1\n      pop\n      jump\t// out\n        /* \"#utility.yul\":8712:8881   */\n    tag_382:\n        /* \"#utility.yul\":8796:8807   */\n      0x00\n        /* \"#utility.yul\":8830:8836   */\n      dup3\n        /* \"#utility.yul\":8825:8828   */\n      dup3\n        /* \"#utility.yul\":8818:8837   */\n      mstore\n        /* \"#utility.yul\":8870:8874   */\n      0x20\n        /* \"#utility.yul\":8865:8868   */\n      dup3\n        /* \"#utility.yul\":8861:8875   */\n      add\n        /* \"#utility.yul\":8846:8875   */\n      swap1\n      pop\n        /* \"#utility.yul\":8712:8881   */\n      swap3\n      swap2\n      pop\n      pop\n      jump\t// out\n        /* \"#utility.yul\":8887:9192   */\n    tag_225:\n        /* \"#utility.yul\":8927:8930   */\n      0x00\n        /* \"#utility.yul\":8946:8966   */\n      tag_426\n        /* \"#utility.yul\":8964:8965   */\n      dup3\n        /* \"#utility.yul\":8946:8966   */\n      tag_395\n      jump\t// in\n    tag_426:\n        /* \"#utility.yul\":8941:8966   */\n      swap2\n      pop\n        /* \"#utility.yul\":8980:9000   */\n      tag_427\n        /* \"#utility.yul\":8998:8999   */\n      dup4\n        /* \"#utility.yul\":8980:9000   */\n      tag_395\n      jump\t// in\n    tag_427:\n        /* \"#utility.yul\":8975:9000   */\n      swap3\n      pop\n        /* \"#utility.yul\":9134:9135   */\n      dup3\n        /* \"#utility.yul\":9066:9132   */\n      0xffffffffffffffffffffffffffffffffffffffffffffffffffffffffffffffff\n        /* \"#utility.yul\":9062:9136   */\n      sub\n        /* \"#utility.yul\":9059:9060   */\n      dup3\n        /* \"#utility.yul\":9056:9137   */\n      gt\n        /* \"#utility.yul\":9053:9160   */\n      iszero\n      tag_428\n      jumpi\n        /* \"#utility.yul\":9140:9158   */\n      tag_429\n      tag_430\n      jump\t// in\n    tag_429:\n        /* \"#utility.yul\":9053:9160   */\n    tag_428:\n        /* \"#utility.yul\":9184:9185   */\n      dup3\n        /* \"#utility.yul\":9181:9182   */\n      dup3\n        /* \"#utility.yul\":9177:9186   */\n      add\n        /* \"#utility.yul\":9170:9186   */\n      swap1\n      pop\n        /* \"#utility.yul\":8887:9192   */\n      swap3\n      swap2\n      pop\n      pop\n      jump\t// out\n        /* \"#utility.yul\":9198:9383   */\n    tag_215:\n        /* \"#utility.yul\":9238:9239   */\n      0x00\n        /* \"#utility.yul\":9255:9275   */\n      tag_432\n        /* \"#utility.yul\":9273:9274   */\n      dup3\n        /* \"#utility.yul\":9255:9275   */\n      tag_395\n      jump\t// in\n    tag_432:\n        /* \"#utility.yul\":9250:9275   */\n      swap2\n      pop\n        /* \"#utility.yul\":9289:9309   */\n      tag_433\n        /* \"#utility.yul\":9307:9308   */\n      dup4\n        /* \"#utility.yul\":9289:9309   */\n      tag_395\n      jump\t// in\n    tag_433:\n        /* \"#utility.yul\":9284:9309   */\n      swap3\n      pop\n        /* \"#utility.yul\":9328:9329   */\n      dup3\n        /* \"#utility.yul\":9318:9353   */\n      tag_434\n      jumpi\n        /* \"#utility.yul\":9333:9351   */\n      tag_435\n      tag_436\n      jump\t// in\n    tag_435:\n        /* \"#utility.yul\":9318:9353   */\n    tag_434:\n        /* \"#utility.yul\":9375:9376   */\n      dup3\n        /* \"#utility.yul\":9372:9373   */\n      dup3\n        /* \"#utility.yul\":9368:9377   */\n      div\n        /* \"#utility.yul\":9363:9377   */\n      swap1\n      pop\n        /* \"#utility.yul\":9198:9383   */\n      swap3\n      swap2\n      pop\n      pop\n      jump\t// out\n        /* \"#utility.yul\":9389:9580   */\n    tag_223:\n        /* \"#utility.yul\":9429:9433   */\n      0x00\n        /* \"#utility.yul\":9449:9469   */\n      tag_438\n        /* \"#utility.yul\":9467:9468   */\n      dup3\n        /* \"#utility.yul\":9449:9469   */\n      tag_395\n      jump\t// in\n    tag_438:\n        /* \"#utility.yul\":9444:9469   */\n      swap2\n      pop\n        /* \"#utility.yul\":9483:9503   */\n      tag_439\n        /* \"#utility.yul\":9501:9502   */\n      dup4\n        /* \"#utility.yul\":9483:9503   */\n      tag_395\n      jump\t// in\n    tag_439:\n        /* \"#utility.yul\":9478:9503   */\n      swap3\n      pop\n        /* \"#utility.yul\":9522:9523   */\n      dup3\n        /* \"#utility.yul\":9519:9520   */\n      dup3\n        /* \"#utility.yul\":9516:9524   */\n      lt\n        /* \"#utility.yul\":9513:9547   */\n      iszero\n      tag_440\n      jumpi\n        /* \"#utility.yul\":9527:9545   */\n      tag_441\n      tag_430\n      jump\t// in\n    tag_441:\n        /* \"#utility.yul\":9513:9547   */\n    tag_440:\n        /* \"#utility.yul\":9572:9573   */\n      dup3\n        /* \"#utility.yul\":9569:9570   */\n      dup3\n        /* \"#utility.yul\":9565:9574   */\n      sub\n        /* \"#utility.yul\":9557:9574   */\n      swap1\n      pop\n        /* \"#utility.yul\":9389:9580   */\n      swap3\n      swap2\n      pop\n      pop\n      jump\t// out\n        /* \"#utility.yul\":9586:9682   */\n    tag_372:\n        /* \"#utility.yul\":9623:9630   */\n      0x00\n        /* \"#utility.yul\":9652:9676   */\n      tag_443\n        /* \"#utility.yul\":9670:9675   */\n      dup3\n        /* \"#utility.yul\":9652:9676   */\n      tag_444\n      jump\t// in\n    tag_443:\n        /* \"#utility.yul\":9641:9676   */\n      swap1\n      pop\n        /* \"#utility.yul\":9586:9682   */\n      swap2\n      swap1\n      pop\n      jump\t// out\n        /* \"#utility.yul\":9688:9792   */\n    tag_368:\n        /* \"#utility.yul\":9733:9740   */\n      0x00\n        /* \"#utility.yul\":9762:9786   */\n      tag_446\n        /* \"#utility.yul\":9780:9785   */\n      dup3\n        /* \"#utility.yul\":9762:9786   */\n      tag_444\n      jump\t// in\n    tag_446:\n        /* \"#utility.yul\":9751:9786   */\n      swap1\n      pop\n        /* \"#utility.yul\":9688:9792   */\n      swap2\n      swap1\n      pop\n      jump\t// out\n        /* \"#utility.yul\":9798:9888   */\n    tag_376:\n        /* \"#utility.yul\":9832:9839   */\n      0x00\n        /* \"#utility.yul\":9875:9880   */\n      dup2\n        /* \"#utility.yul\":9868:9881   */\n      iszero\n        /* \"#utility.yul\":9861:9882   */\n      iszero\n        /* \"#utility.yul\":9850:9882   */\n      swap1\n      pop\n        /* \"#utility.yul\":9798:9888   */\n      swap2\n      swap1\n      pop\n      jump\t// out\n        /* \"#utility.yul\":9894:10020   */\n    tag_444:\n        /* \"#utility.yul\":9931:9938   */\n      0x00\n        /* \"#utility.yul\":9971:10013   */\n      0xffffffffffffffffffffffffffffffffffffffff\n        /* \"#utility.yul\":9964:9969   */\n      dup3\n        /* \"#utility.yul\":9960:10014   */\n      and\n        /* \"#utility.yul\":9949:10014   */\n      swap1\n      pop\n        /* \"#utility.yul\":9894:10020   */\n      swap2\n      swap1\n      pop\n      jump\t// out\n        /* \"#utility.yul\":10026:10103   */\n    tag_395:\n        /* \"#utility.yul\":10063:10070   */\n      0x00\n        /* \"#utility.yul\":10092:10097   */\n      dup2\n        /* \"#utility.yul\":10081:10097   */\n      swap1\n      pop\n        /* \"#utility.yul\":10026:10103   */\n      swap2\n      swap1\n      pop\n      jump\t// out\n        /* \"#utility.yul\":10109:10263   */\n    tag_308:\n        /* \"#utility.yul\":10193:10199   */\n      dup3\n        /* \"#utility.yul\":10188:10191   */\n      dup2\n        /* \"#utility.yul\":10183:10186   */\n      dup4\n        /* \"#utility.yul\":10170:10200   */\n      calldatacopy\n        /* \"#utility.yul\":10255:10256   */\n      0x00\n        /* \"#utility.yul\":10246:10252   */\n      dup4\n        /* \"#utility.yul\":10241:10244   */\n      dup4\n        /* \"#utility.yul\":10237:10253   */\n      add\n        /* \"#utility.yul\":10230:10257   */\n      mstore\n        /* \"#utility.yul\":10109:10263   */\n      pop\n      pop\n      pop\n      jump\t// out\n        /* \"#utility.yul\":10269:10576   */\n    tag_384:\n        /* \"#utility.yul\":10337:10338   */\n      0x00\n        /* \"#utility.yul\":10347:10460   */\n    tag_452:\n        /* \"#utility.yul\":10361:10367   */\n      dup4\n        /* \"#utility.yul\":10358:10359   */\n      dup2\n        /* \"#utility.yul\":10355:10368   */\n      lt\n        /* \"#utility.yul\":10347:10460   */\n      iszero\n      tag_454\n      jumpi\n        /* \"#utility.yul\":10446:10447   */\n      dup1\n        /* \"#utility.yul\":10441:10444   */\n      dup3\n        /* \"#utility.yul\":10437:10448   */\n      add\n        /* \"#utility.yul\":10431:10449   */\n      mload\n        /* \"#utility.yul\":10427:10428   */\n      dup2\n        /* \"#utility.yul\":10422:10425   */\n      dup5\n        /* \"#utility.yul\":10418:10429   */\n      add\n        /* \"#utility.yul\":10411:10450   */\n      mstore\n        /* \"#utility.yul\":10383:10385   */\n      0x20\n        /* \"#utility.yul\":10380:10381   */\n      dup2\n        /* \"#utility.yul\":10376:10386   */\n      add\n        /* \"#utility.yul\":10371:10386   */\n      swap1\n      pop\n        /* \"#utility.yul\":10347:10460   */\n      jump(tag_452)\n    tag_454:\n        /* \"#utility.yul\":10478:10484   */\n      dup4\n        /* \"#utility.yul\":10475:10476   */\n      dup2\n        /* \"#utility.yul\":10472:10485   */\n      gt\n        /* \"#utility.yul\":10469:10570   */\n      iszero\n      tag_455\n      jumpi\n        /* \"#utility.yul\":10558:10559   */\n      0x00\n        /* \"#utility.yul\":10549:10555   */\n      dup5\n        /* \"#utility.yul\":10544:10547   */\n      dup5\n        /* \"#utility.yul\":10540:10556   */\n      add\n        /* \"#utility.yul\":10533:10560   */\n      mstore\n        /* \"#utility.yul\":10469:10570   */\n    tag_455:\n        /* \"#utility.yul\":10318:10576   */\n      pop\n        /* \"#utility.yul\":10269:10576   */\n      pop\n      pop\n      pop\n      jump\t// out\n        /* \"#utility.yul\":10582:10902   */\n    tag_151:\n        /* \"#utility.yul\":10626:10632   */\n      0x00\n        /* \"#utility.yul\":10663:10664   */\n      0x02\n        /* \"#utility.yul\":10657:10661   */\n      dup3\n        /* \"#utility.yul\":10653:10665   */\n      div\n        /* \"#utility.yul\":10643:10665   */\n      swap1\n      pop\n        /* \"#utility.yul\":10710:10711   */\n      0x01\n        /* \"#utility.yul\":10704:10708   */\n      dup3\n        /* \"#utility.yul\":10700:10712   */\n      and\n        /* \"#utility.yul\":10731:10749   */\n      dup1\n        /* \"#utility.yul\":10721:10802   */\n      tag_457\n      jumpi\n        /* \"#utility.yul\":10787:10791   */\n      0x7f\n        /* \"#utility.yul\":10779:10785   */\n      dup3\n        /* \"#utility.yul\":10775:10792   */\n      and\n        /* \"#utility.yul\":10765:10792   */\n      swap2\n      pop\n        /* \"#utility.yul\":10721:10802   */\n    tag_457:\n        /* \"#utility.yul\":10849:10851   */\n      0x20\n        /* \"#utility.yul\":10841:10847   */\n      dup3\n        /* \"#utility.yul\":10838:10852   */\n      lt\n        /* \"#utility.yul\":10818:10836   */\n      dup2\n        /* \"#utility.yul\":10815:10853   */\n      eq\n        /* \"#utility.yul\":10812:10896   */\n      iszero\n      tag_458\n      jumpi\n        /* \"#utility.yul\":10868:10886   */\n      tag_459\n      tag_460\n      jump\t// in\n    tag_459:\n        /* \"#utility.yul\":10812:10896   */\n    tag_458:\n        /* \"#utility.yul\":10633:10902   */\n      pop\n        /* \"#utility.yul\":10582:10902   */\n      swap2\n      swap1\n      pop\n      jump\t// out\n        /* \"#utility.yul\":10908:11189   */\n    tag_416:\n        /* \"#utility.yul\":10991:11018   */\n      tag_462\n        /* \"#utility.yul\":11013:11017   */\n      dup3\n        /* \"#utility.yul\":10991:11018   */\n      tag_386\n      jump\t// in\n    tag_462:\n        /* \"#utility.yul\":10983:10989   */\n      dup2\n        /* \"#utility.yul\":10979:11019   */\n      add\n        /* \"#utility.yul\":11121:11127   */\n      dup2\n        /* \"#utility.yul\":11109:11119   */\n      dup2\n        /* \"#utility.yul\":11106:11128   */\n      lt\n        /* \"#utility.yul\":11085:11103   */\n      0xffffffffffffffff\n        /* \"#utility.yul\":11073:11083   */\n      dup3\n        /* \"#utility.yul\":11070:11104   */\n      gt\n        /* \"#utility.yul\":11067:11129   */\n      or\n        /* \"#utility.yul\":11064:11152   */\n      iszero\n      tag_463\n      jumpi\n        /* \"#utility.yul\":11132:11150   */\n      tag_464\n      tag_421\n      jump\t// in\n    tag_464:\n        /* \"#utility.yul\":11064:11152   */\n    tag_463:\n        /* \"#utility.yul\":11172:11182   */\n      dup1\n        /* \"#utility.yul\":11168:11170   */\n      0x40\n        /* \"#utility.yul\":11161:11183   */\n      mstore\n        /* \"#utility.yul\":10951:11189   */\n      pop\n        /* \"#utility.yul\":10908:11189   */\n      pop\n      pop\n      jump\t// out\n        /* \"#utility.yul\":11195:11428   */\n    tag_198:\n        /* \"#utility.yul\":11234:11237   */\n      0x00\n        /* \"#utility.yul\":11257:11281   */\n      tag_466\n        /* \"#utility.yul\":11275:11280   */\n      dup3\n        /* \"#utility.yul\":11257:11281   */\n      tag_395\n      jump\t// in\n    tag_466:\n        /* \"#utility.yul\":11248:11281   */\n      swap2\n      pop\n        /* \"#utility.yul\":11303:11369   */\n      0xffffffffffffffffffffffffffffffffffffffffffffffffffffffffffffffff\n        /* \"#utility.yul\":11296:11301   */\n      dup3\n        /* \"#utility.yul\":11293:11370   */\n      eq\n        /* \"#utility.yul\":11290:11393   */\n      iszero\n      tag_467\n      jumpi\n        /* \"#utility.yul\":11373:11391   */\n      tag_468\n      tag_430\n      jump\t// in\n    tag_468:\n        /* \"#utility.yul\":11290:11393   */\n    tag_467:\n        /* \"#utility.yul\":11420:11421   */\n      0x01\n        /* \"#utility.yul\":11413:11418   */\n      dup3\n        /* \"#utility.yul\":11409:11422   */\n      add\n        /* \"#utility.yul\":11402:11422   */\n      swap1\n      pop\n        /* \"#utility.yul\":11195:11428   */\n      swap2\n      swap1\n      pop\n      jump\t// out\n        /* \"#utility.yul\":11434:11614   */\n    tag_430:\n        /* \"#utility.yul\":11482:11559   */\n      0x4e487b7100000000000000000000000000000000000000000000000000000000\n        /* \"#utility.yul\":11479:11480   */\n      0x00\n        /* \"#utility.yul\":11472:11560   */\n      mstore\n        /* \"#utility.yul\":11579:11583   */\n      0x11\n        /* \"#utility.yul\":11576:11577   */\n      0x04\n        /* \"#utility.yul\":11569:11584   */\n      mstore\n        /* \"#utility.yul\":11603:11607   */\n      0x24\n        /* \"#utility.yul\":11600:11601   */\n      0x00\n        /* \"#utility.yul\":11593:11608   */\n      revert\n        /* \"#utility.yul\":11620:11800   */\n    tag_436:\n        /* \"#utility.yul\":11668:11745   */\n      0x4e487b7100000000000000000000000000000000000000000000000000000000\n        /* \"#utility.yul\":11665:11666   */\n      0x00\n        /* \"#utility.yul\":11658:11746   */\n      mstore\n        /* \"#utility.yul\":11765:11769   */\n      0x12\n        /* \"#utility.yul\":11762:11763   */\n      0x04\n        /* \"#utility.yul\":11755:11770   */\n      mstore\n        /* \"#utility.yul\":11789:11793   */\n      0x24\n        /* \"#utility.yul\":11786:11787   */\n      0x00\n        /* \"#utility.yul\":11779:11794   */\n      revert\n        /* \"#utility.yul\":11806:11986   */\n    tag_161:\n        /* \"#utility.yul\":11854:11931   */\n      0x4e487b7100000000000000000000000000000000000000000000000000000000\n        /* \"#utility.yul\":11851:11852   */\n      0x00\n        /* \"#utility.yul\":11844:11932   */\n      mstore\n        /* \"#utility.yul\":11951:11955   */\n      0x21\n        /* \"#utility.yul\":11948:11949   */\n      0x04\n        /* \"#utility.yul\":11941:11956   */\n      mstore\n        /* \"#utility.yul\":11975:11979   */\n      0x24\n        /* \"#utility.yul\":11972:11973   */\n      0x00\n        /* \"#utility.yul\":11965:11980   */\n      revert\n        /* \"#utility.yul\":11992:12172   */\n    tag_460:\n        /* \"#utility.yul\":12040:12117   */\n      0x4e487b7100000000000000000000000000000000000000000000000000000000\n        /* \"#utility.yul\":12037:12038   */\n      0x00\n        /* \"#utility.yul\":12030:12118   */\n      mstore\n        /* \"#utility.yul\":12137:12141   */\n      0x22\n        /* \"#utility.yul\":12134:12135   */\n      0x04\n        /* \"#utility.yul\":12127:12142   */\n      mstore\n        /* \"#utility.yul\":12161:12165   */\n      0x24\n        /* \"#utility.yul\":12158:12159   */\n      0x00\n        /* \"#utility.yul\":12151:12166   */\n      revert\n        /* \"#utility.yul\":12178:12358   */\n    tag_283:\n        /* \"#utility.yul\":12226:12303   */\n      0x4e487b7100000000000000000000000000000000000000000000000000000000\n        /* \"#utility.yul\":12223:12224   */\n      0x00\n        /* \"#utility.yul\":12216:12304   */\n      mstore\n        /* \"#utility.yul\":12323:12327   */\n      0x32\n        /* \"#utility.yul\":12320:12321   */\n      0x04\n        /* \"#utility.yul\":12313:12328   */\n      mstore\n        /* \"#utility.yul\":12347:12351   */\n      0x24\n        /* \"#utility.yul\":12344:12345   */\n      0x00\n        /* \"#utility.yul\":12337:12352   */\n      revert\n        /* \"#utility.yul\":12364:12544   */\n    tag_421:\n        /* \"#utility.yul\":12412:12489   */\n      0x4e487b7100000000000000000000000000000000000000000000000000000000\n        /* \"#utility.yul\":12409:12410   */\n      0x00\n        /* \"#utility.yul\":12402:12490   */\n      mstore\n        /* \"#utility.yul\":12509:12513   */\n      0x41\n        /* \"#utility.yul\":12506:12507   */\n      0x04\n        /* \"#utility.yul\":12499:12514   */\n      mstore\n        /* \"#utility.yul\":12533:12537   */\n      0x24\n        /* \"#utility.yul\":12530:12531   */\n      0x00\n        /* \"#utility.yul\":12523:12538   */\n      revert\n        /* \"#utility.yul\":12550:12667   */\n    tag_321:\n        /* \"#utility.yul\":12659:12660   */\n      0x00\n        /* \"#utility.yul\":12656:12657   */\n      dup1\n        /* \"#utility.yul\":12649:12661   */\n      revert\n        /* \"#utility.yul\":12673:12790   */\n    tag_306:\n        /* \"#utility.yul\":12782:12783   */\n      0x00\n        /* \"#utility.yul\":12779:12780   */\n      dup1\n        /* \"#utility.yul\":12772:12784   */\n      revert\n        /* \"#utility.yul\":12796:12913   */\n    tag_346:\n        /* \"#utility.yul\":12905:12906   */\n      0x00\n        /* \"#utility.yul\":12902:12903   */\n      dup1\n        /* \"#utility.yul\":12895:12907   */\n      revert\n        /* \"#utility.yul\":12919:13036   */\n    tag_330:\n        /* \"#utility.yul\":13028:13029   */\n      0x00\n        /* \"#utility.yul\":13025:13026   */\n      dup1\n        /* \"#utility.yul\":13018:13030   */\n      revert\n        /* \"#utility.yul\":13042:13144   */\n    tag_386:\n        /* \"#utility.yul\":13083:13089   */\n      0x00\n        /* \"#utility.yul\":13134:13136   */\n      0x1f\n        /* \"#utility.yul\":13130:13137   */\n      not\n        /* \"#utility.yul\":13125:13127   */\n      0x1f\n        /* \"#utility.yul\":13118:13123   */\n      dup4\n        /* \"#utility.yul\":13114:13128   */\n      add\n        /* \"#utility.yul\":13110:13138   */\n      and\n        /* \"#utility.yul\":13100:13138   */\n      swap1\n      pop\n        /* \"#utility.yul\":13042:13144   */\n      swap2\n      swap1\n      pop\n      jump\t// out\n        /* \"#utility.yul\":13150:13372   */\n    tag_391:\n        /* \"#utility.yul\":13290:13324   */\n      0x4e756d626572206f662073686172657320657863656564656420746865206c69\n        /* \"#utility.yul\":13286:13287   */\n      0x00\n        /* \"#utility.yul\":13278:13284   */\n      dup3\n        /* \"#utility.yul\":13274:13288   */\n      add\n        /* \"#utility.yul\":13267:13325   */\n      mstore\n        /* \"#utility.yul\":13359:13364   */\n      0x6d69740000000000000000000000000000000000000000000000000000000000\n        /* \"#utility.yul\":13354:13356   */\n      0x20\n        /* \"#utility.yul\":13346:13352   */\n      dup3\n        /* \"#utility.yul\":13342:13357   */\n      add\n        /* \"#utility.yul\":13335:13365   */\n      mstore\n        /* \"#utility.yul\":13150:13372   */\n      pop\n      jump\t// out\n        /* \"#utility.yul\":13378:13500   */\n    tag_312:\n        /* \"#utility.yul\":13451:13475   */\n      tag_482\n        /* \"#utility.yul\":13469:13474   */\n      dup2\n        /* \"#utility.yul\":13451:13475   */\n      tag_372\n      jump\t// in\n    tag_482:\n        /* \"#utility.yul\":13444:13449   */\n      dup2\n        /* \"#utility.yul\":13441:13476   */\n      eq\n        /* \"#utility.yul\":13431:13494   */\n      tag_483\n      jumpi\n        /* \"#utility.yul\":13490:13491   */\n      0x00\n        /* \"#utility.yul\":13487:13488   */\n      dup1\n        /* \"#utility.yul\":13480:13492   */\n      revert\n        /* \"#utility.yul\":13431:13494   */\n    tag_483:\n        /* \"#utility.yul\":13378:13500   */\n      pop\n      jump\t// out\n        /* \"#utility.yul\":13506:13622   */\n    tag_316:\n        /* \"#utility.yul\":13576:13597   */\n      tag_485\n        /* \"#utility.yul\":13591:13596   */\n      dup2\n        /* \"#utility.yul\":13576:13597   */\n      tag_376\n      jump\t// in\n    tag_485:\n        /* \"#utility.yul\":13569:13574   */\n      dup2\n        /* \"#utility.yul\":13566:13598   */\n      eq\n        /* \"#utility.yul\":13556:13616   */\n      tag_486\n      jumpi\n        /* \"#utility.yul\":13612:13613   */\n      0x00\n        /* \"#utility.yul\":13609:13610   */\n      dup1\n        /* \"#utility.yul\":13602:13614   */\n      revert\n        /* \"#utility.yul\":13556:13616   */\n    tag_486:\n        /* \"#utility.yul\":13506:13622   */\n      pop\n      jump\t// out\n        /* \"#utility.yul\":13628:13750   */\n    tag_326:\n        /* \"#utility.yul\":13701:13725   */\n      tag_488\n        /* \"#utility.yul\":13719:13724   */\n      dup2\n        /* \"#utility.yul\":13701:13725   */\n      tag_395\n      jump\t// in\n    tag_488:\n        /* \"#utility.yul\":13694:13699   */\n      dup2\n        /* \"#utility.yul\":13691:13726   */\n      eq\n        /* \"#utility.yul\":13681:13744   */\n      tag_489\n      jumpi\n        /* \"#utility.yul\":13740:13741   */\n      0x00\n        /* \"#utility.yul\":13737:13738   */\n      dup1\n        /* \"#utility.yul\":13730:13742   */\n      revert\n        /* \"#utility.yul\":13681:13744   */\n    tag_489:\n        /* \"#utility.yul\":13628:13750   */\n      pop\n      jump\t// out\n\n    auxdata: 0xa26469706673582212205fbef2d77dc3f70d7aaca03e6a4407489e0b1852bad0346a4582ae95f51128db64736f6c63430008070033\n}\n",
				"bytecode": {
					"linkReferences": {},
					"object": "6080604052600060055560646006556001600755600a6008556000600955600060115560006012556000601355604051620024643803806200246483398181016040528101906200005191906200027d565b336000806101000a81548173ffffffffffffffffffffffffffffffffffffffff021916908373ffffffffffffffffffffffffffffffffffffffff160217905550600654600d60003373ffffffffffffffffffffffffffffffffffffffff1673ffffffffffffffffffffffffffffffffffffffff168152602001908152602001600020819055508160016000019080519060200190620000f29291906200014f565b50806001800190805190602001906200010d9291906200014f565b5060006001600201819055506000600a60006101000a81548160ff0219169083600181111562000142576200014162000403565b5b02179055505050620004b5565b8280546200015d9062000397565b90600052602060002090601f016020900481019282620001815760008555620001cd565b82601f106200019c57805160ff1916838001178555620001cd565b82800160010185558215620001cd579182015b82811115620001cc578251825591602001919060010190620001af565b5b509050620001dc9190620001e0565b5090565b5b80821115620001fb576000816000905550600101620001e1565b5090565b60006200021662000210846200032b565b62000302565b90508281526020810184848401111562000235576200023462000495565b5b6200024284828562000361565b509392505050565b600082601f83011262000262576200026162000490565b5b815162000274848260208601620001ff565b91505092915050565b600080604083850312156200029757620002966200049f565b5b600083015167ffffffffffffffff811115620002b857620002b76200049a565b5b620002c6858286016200024a565b925050602083015167ffffffffffffffff811115620002ea57620002e96200049a565b5b620002f8858286016200024a565b9150509250929050565b60006200030e62000321565b90506200031c8282620003cd565b919050565b6000604051905090565b600067ffffffffffffffff82111562000349576200034862000461565b5b6200035482620004a4565b9050602081019050919050565b60005b838110156200038157808201518184015260208101905062000364565b8381111562000391576000848401525b50505050565b60006002820490506001821680620003b057607f821691505b60208210811415620003c757620003c662000432565b5b50919050565b620003d882620004a4565b810181811067ffffffffffffffff82111715620003fa57620003f962000461565b5b80604052505050565b7f4e487b7100000000000000000000000000000000000000000000000000000000600052602160045260246000fd5b7f4e487b7100000000000000000000000000000000000000000000000000000000600052602260045260246000fd5b7f4e487b7100000000000000000000000000000000000000000000000000000000600052604160045260246000fd5b600080fd5b600080fd5b600080fd5b600080fd5b6000601f19601f8301169050919050565b611f9f80620004c56000396000f3fe6080604052600436106101815760003560e01c806387caea78116100d1578063ad3494421161008a578063cd0c589611610064578063cd0c589614610531578063d8124c5f1461056e578063df0944091461059b578063f3a8286f146105c457610181565b8063ad349442146104c6578063af769c64146104f1578063b92239461461051a57610181565b806387caea78146103c15780638da5cb5b146103fe5780639a98241614610429578063a14ba98714610454578063a6f2ae3a14610493578063a9059cbb1461049d57610181565b80633be75aa31161013e5780636fa4f103116101185780636fa4f103146103055780637427a40c1461032e578063753ec1031461036b5780637ff9b5961461039657610181565b80633be75aa3146102865780634c0a6af0146102b157806359ea0173146102c857610181565b80630d15fd7714610186578063162d8afb146101b15780631b26586c146101dc57806327e235e314610207578063293230b8146102445780633a98ef391461025b575b600080fd5b34801561019257600080fd5b5061019b6105ef565b6040516101a89190611b06565b60405180910390f35b3480156101bd57600080fd5b506101c66105f5565b6040516101d39190611b06565b60405180910390f35b3480156101e857600080fd5b506101f16105fb565b6040516101fe9190611a7f565b60405180910390f35b34801561021357600080fd5b5061022e600480360381019061022991906117cc565b610689565b60405161023b9190611b06565b60405180910390f35b34801561025057600080fd5b506102596106a1565b005b34801561026757600080fd5b50610270610726565b60405161027d9190611b06565b60405180910390f35b34801561029257600080fd5b5061029b61072c565b6040516102a89190611b06565b60405180910390f35b3480156102bd57600080fd5b506102c6610732565b005b3480156102d457600080fd5b506102ef60048036038101906102ea91906117cc565b610827565b6040516102fc9190611a64565b60405180910390f35b34801561031157600080fd5b5061032c60048036038101906103279190611866565b610847565b005b34801561033a57600080fd5b5061035560048036038101906103509190611969565b6108e5565b6040516103629190611a2e565b60405180910390f35b34801561037757600080fd5b50610380610924565b60405161038d9190611a7f565b60405180910390f35b3480156103a257600080fd5b506103ab6109b2565b6040516103b89190611b06565b60405180910390f35b3480156103cd57600080fd5b506103e860048036038101906103e39190611839565b6109b8565b6040516103f59190611a64565b60405180910390f35b34801561040a57600080fd5b50610413610bf4565b6040516104209190611a49565b60405180910390f35b34801561043557600080fd5b5061043e610c18565b60405161044b9190611b06565b60405180910390f35b34801561046057600080fd5b5061047b60048036038101906104769190611969565b610c1e565b60405161048a93929190611aa1565b60405180910390f35b61049b610d68565b005b3480156104a957600080fd5b506104c460048036038101906104bf91906117f9565b610f0c565b005b3480156104d257600080fd5b506104db611060565b6040516104e89190611a2e565b60405180910390f35b3480156104fd57600080fd5b50610518600480360381019061051391906117cc565b611086565b005b34801561052657600080fd5b5061052f6111a1565b005b34801561053d57600080fd5b50610558600480360381019061055391906117cc565b6112ac565b6040516105659190611b06565b60405180910390f35b34801561057a57600080fd5b506105836112cd565b60405161059293929190611aa1565b60405180910390f35b3480156105a757600080fd5b506105c260048036038101906105bd91906118de565b6113f5565b005b3480156105d057600080fd5b506105d9611593565b6040516105e69190611b06565b60405180910390f35b60135481565b60055481565b600f805461060890611cea565b80601f016020809104026020016040519081016040528092919081815260200182805461063490611cea565b80156106815780601f1061065657610100808354040283529160200191610681565b820191906000526020600020905b81548152906001019060200180831161066457829003601f168201915b505050505081565b600d6020528060005260406000206000915090505481565b60008054906101000a900473ffffffffffffffffffffffffffffffffffffffff1673ffffffffffffffffffffffffffffffffffffffff163373ffffffffffffffffffffffffffffffffffffffff16146106f957600080fd5b6001600a60006101000a81548160ff0219169083600181111561071f5761071e611df4565b5b0217905550565b60065481565b60085481565b600080600281111561074757610746611df4565b5b600e60009054906101000a900460ff16600281111561076957610768611df4565b5b1461077357600080fd5b600e60019054906101000a900473ffffffffffffffffffffffffffffffffffffffff1673ffffffffffffffffffffffffffffffffffffffff163373ffffffffffffffffffffffffffffffffffffffff16146107cd57600080fd5b6001600e60006101000a81548160ff021916908360028111156107f3576107f2611df4565b5b02179055507fd0dc01800a369fef30d3fced5275b8b916549867622e79efca5245c479fda4ea60405160405180910390a150565b600c6020528060005260406000206000915054906101000a900460ff1681565b6000600e60006101000a81548160ff0219169083600281111561086d5761086c611df4565b5b021790555081600f9080519060200190610888929190611648565b50806010908051906020019061089f929190611648565b5033600e60016101000a81548173ffffffffffffffffffffffffffffffffffffffff021916908373ffffffffffffffffffffffffffffffffffffffff1602179055505050565b600b81815481106108f557600080fd5b906000526020600020016000915054906101000a900473ffffffffffffffffffffffffffffffffffffffff1681565b6010805461093190611cea565b80601f016020809104026020016040519081016040528092919081815260200182805461095d90611cea565b80156109aa5780601f1061097f576101008083540402835291602001916109aa565b820191906000526020600020905b81548152906001019060200180831161098d57829003601f168201915b505050505081565b60075481565b600060018060028111156109cf576109ce611df4565b5b600e60009054906101000a900460ff1660028111156109f1576109f0611df4565b5b146109fb57600080fd5b6000600c60003373ffffffffffffffffffffffffffffffffffffffff1673ffffffffffffffffffffffffffffffffffffffff16815260200190815260200160002060009054906101000a900460ff16610bb3576001600c60003373ffffffffffffffffffffffffffffffffffffffff1673ffffffffffffffffffffffffffffffffffffffff16815260200190815260200160002060006101000a81548160ff021916908315150217905550610aae6116ce565b33816000019073ffffffffffffffffffffffffffffffffffffffff16908173ffffffffffffffffffffffffffffffffffffffff1681525050848160200190151590811515815250508415610b155760116000815480929190610b0f90611d4d565b91905055505b8060146000601354815260200190815260200160002060008201518160000160006101000a81548173ffffffffffffffffffffffffffffffffffffffff021916908373ffffffffffffffffffffffffffffffffffffffff16021790555060208201518160000160146101000a81548160ff02191690831515021790555090505060136000815480929190610ba890611d4d565b919050555060019150505b7f55c65cf9526efdf6c2252fe9757889dbd93e10172cad0f2edb1df619c88dbf7d33604051610be29190611a2e565b60405180910390a18092505050919050565b60008054906101000a900473ffffffffffffffffffffffffffffffffffffffff1681565b60095481565b60048181548110610c2e57600080fd5b9060005260206000209060030201600091509050806000018054610c5190611cea565b80601f0160208091040260200160405190810160405280929190818152602001828054610c7d90611cea565b8015610cca5780601f10610c9f57610100808354040283529160200191610cca565b820191906000526020600020905b815481529060010190602001808311610cad57829003601f168201915b505050505090806001018054610cdf90611cea565b80601f0160208091040260200160405190810160405280929190818152602001828054610d0b90611cea565b8015610d585780601f10610d2d57610100808354040283529160200191610d58565b820191906000526020600020905b815481529060010190602001808311610d3b57829003601f168201915b5050505050908060020154905083565b600060075434610d789190611be9565b905060003411610d8757600080fd5b600854811115610dcc576040517f08c379a0000000000000000000000000000000000000000000000000000000008152600401610dc390611ae6565b60405180910390fd5b60008054906101000a900473ffffffffffffffffffffffffffffffffffffffff1673ffffffffffffffffffffffffffffffffffffffff166108fc349081150290604051600060405180830381858888f19350505050158015610e32573d6000803e3d6000fd5b5080600d60008060009054906101000a900473ffffffffffffffffffffffffffffffffffffffff1673ffffffffffffffffffffffffffffffffffffffff1673ffffffffffffffffffffffffffffffffffffffff1681526020019081526020016000206000828254610ea39190611c1a565b9250508190555080600d60003373ffffffffffffffffffffffffffffffffffffffff1673ffffffffffffffffffffffffffffffffffffffff1681526020019081526020016000206000828254610ef99190611b93565b92505081905550610f0933611086565b50565b80600d60003373ffffffffffffffffffffffffffffffffffffffff1673ffffffffffffffffffffffffffffffffffffffff168152602001908152602001600020541015610f5857600080fd5b60008054906101000a900473ffffffffffffffffffffffffffffffffffffffff1673ffffffffffffffffffffffffffffffffffffffff163373ffffffffffffffffffffffffffffffffffffffff1614610fb057600080fd5b80600d60003373ffffffffffffffffffffffffffffffffffffffff1673ffffffffffffffffffffffffffffffffffffffff1681526020019081526020016000206000828254610fff9190611c1a565b9250508190555080600d60008473ffffffffffffffffffffffffffffffffffffffff1673ffffffffffffffffffffffffffffffffffffffff16815260200190815260200160002060008282546110559190611b93565b925050819055505050565b600e60019054906101000a900473ffffffffffffffffffffffffffffffffffffffff1681565b61108f81611599565b61119e576000600c60008373ffffffffffffffffffffffffffffffffffffffff1673ffffffffffffffffffffffffffffffffffffffff16815260200190815260200160002060006101000a81548160ff021916908315150217905550600b819080600181540180825580915050600190039060005260206000200160009091909190916101000a81548173ffffffffffffffffffffffffffffffffffffffff021916908373ffffffffffffffffffffffffffffffffffffffff1602179055506009600081548092919061116190611d4d565b91905055507f30040c92e8da146ac410fb6841ea0f60af3b8f3788e5e7354e48d97d018f39dd816040516111959190611a2e565b60405180910390a15b50565b60018060028111156111b6576111b5611df4565b5b600e60009054906101000a900460ff1660028111156111d8576111d7611df4565b5b146111e257600080fd5b600e60019054906101000a900473ffffffffffffffffffffffffffffffffffffffff1673ffffffffffffffffffffffffffffffffffffffff163373ffffffffffffffffffffffffffffffffffffffff161461123c57600080fd5b6002600e60006101000a81548160ff0219169083600281111561126257611261611df4565b5b02179055506011546012819055507fb43a401dcdbe02a8afa41feb6c651425997908d1a4b79cf505188ba1dd3fd8726012546040516112a19190611b06565b60405180910390a150565b60008173ffffffffffffffffffffffffffffffffffffffff16319050919050565b60018060000180546112de90611cea565b80601f016020809104026020016040519081016040528092919081815260200182805461130a90611cea565b80156113575780601f1061132c57610100808354040283529160200191611357565b820191906000526020600020905b81548152906001019060200180831161133a57829003601f168201915b50505050509080600101805461136c90611cea565b80601f016020809104026020016040519081016040528092919081815260200182805461139890611cea565b80156113e55780601f106113ba576101008083540402835291602001916113e5565b820191906000526020600020905b8154815290600101906020018083116113c857829003601f168201915b5050505050908060020154905083565b60008054906101000a900473ffffffffffffffffffffffffffffffffffffffff1673ffffffffffffffffffffffffffffffffffffffff163373ffffffffffffffffffffffffffffffffffffffff161461144d57600080fd5b600080600181111561146257611461611df4565b5b600a60009054906101000a900460ff16600181111561148457611483611df4565b5b1461148e57600080fd5b6000604051806060016040528086815260200185815260200184815250905082600160020160008282546114c29190611b93565b9250508190555060048190806001815401808255809150506001900390600052602060002090600302016000909190919091506000820151816000019080519060200190611511929190611648565b50602082015181600101908051906020019061152e929190611648565b5060408201518160020155505060016005600082825461154e9190611b93565b925050819055507f4578fe17eaab41ae382abe3462bb0cf04bcfee4168d2aad3ce9d5d225d0e27f6856040516115849190611a7f565b60405180910390a15050505050565b60125481565b600080600090505b600b8054905081101561163d578273ffffffffffffffffffffffffffffffffffffffff16600b82815481106115d9576115d8611e52565b5b9060005260206000200160009054906101000a900473ffffffffffffffffffffffffffffffffffffffff1673ffffffffffffffffffffffffffffffffffffffff16141561162a576001915050611643565b808061163590611d4d565b9150506115a1565b50600090505b919050565b82805461165490611cea565b90600052602060002090601f01602090048101928261167657600085556116bd565b82601f1061168f57805160ff19168380011785556116bd565b828001600101855582156116bd579182015b828111156116bc5782518255916020019190600101906116a1565b5b5090506116ca9190611700565b5090565b6040518060400160405280600073ffffffffffffffffffffffffffffffffffffffff1681526020016000151581525090565b5b80821115611719576000816000905550600101611701565b5090565b600061173061172b84611b46565b611b21565b90508281526020810184848401111561174c5761174b611eb5565b5b611757848285611ca8565b509392505050565b60008135905061176e81611f24565b92915050565b60008135905061178381611f3b565b92915050565b600082601f83011261179e5761179d611eb0565b5b81356117ae84826020860161171d565b91505092915050565b6000813590506117c681611f52565b92915050565b6000602082840312156117e2576117e1611ebf565b5b60006117f08482850161175f565b91505092915050565b600080604083850312156118105761180f611ebf565b5b600061181e8582860161175f565b925050602061182f858286016117b7565b9150509250929050565b60006020828403121561184f5761184e611ebf565b5b600061185d84828501611774565b91505092915050565b6000806040838503121561187d5761187c611ebf565b5b600083013567ffffffffffffffff81111561189b5761189a611eba565b5b6118a785828601611789565b925050602083013567ffffffffffffffff8111156118c8576118c7611eba565b5b6118d485828601611789565b9150509250929050565b6000806000606084860312156118f7576118f6611ebf565b5b600084013567ffffffffffffffff81111561191557611914611eba565b5b61192186828701611789565b935050602084013567ffffffffffffffff81111561194257611941611eba565b5b61194e86828701611789565b925050604061195f868287016117b7565b9150509250925092565b60006020828403121561197f5761197e611ebf565b5b600061198d848285016117b7565b91505092915050565b61199f81611c60565b82525050565b6119ae81611c4e565b82525050565b6119bd81611c72565b82525050565b60006119ce82611b77565b6119d88185611b82565b93506119e8818560208601611cb7565b6119f181611ec4565b840191505092915050565b6000611a09602383611b82565b9150611a1482611ed5565b604082019050919050565b611a2881611c9e565b82525050565b6000602082019050611a4360008301846119a5565b92915050565b6000602082019050611a5e6000830184611996565b92915050565b6000602082019050611a7960008301846119b4565b92915050565b60006020820190508181036000830152611a9981846119c3565b905092915050565b60006060820190508181036000830152611abb81866119c3565b90508181036020830152611acf81856119c3565b9050611ade6040830184611a1f565b949350505050565b60006020820190508181036000830152611aff816119fc565b9050919050565b6000602082019050611b1b6000830184611a1f565b92915050565b6000611b2b611b3c565b9050611b378282611d1c565b919050565b6000604051905090565b600067ffffffffffffffff821115611b6157611b60611e81565b5b611b6a82611ec4565b9050602081019050919050565b600081519050919050565b600082825260208201905092915050565b6000611b9e82611c9e565b9150611ba983611c9e565b9250827fffffffffffffffffffffffffffffffffffffffffffffffffffffffffffffffff03821115611bde57611bdd611d96565b5b828201905092915050565b6000611bf482611c9e565b9150611bff83611c9e565b925082611c0f57611c0e611dc5565b5b828204905092915050565b6000611c2582611c9e565b9150611c3083611c9e565b925082821015611c4357611c42611d96565b5b828203905092915050565b6000611c5982611c7e565b9050919050565b6000611c6b82611c7e565b9050919050565b60008115159050919050565b600073ffffffffffffffffffffffffffffffffffffffff82169050919050565b6000819050919050565b82818337600083830152505050565b60005b83811015611cd5578082015181840152602081019050611cba565b83811115611ce4576000848401525b50505050565b60006002820490506001821680611d0257607f821691505b60208210811415611d1657611d15611e23565b5b50919050565b611d2582611ec4565b810181811067ffffffffffffffff82111715611d4457611d43611e81565b5b80604052505050565b6000611d5882611c9e565b91507fffffffffffffffffffffffffffffffffffffffffffffffffffffffffffffffff821415611d8b57611d8a611d96565b5b600182019050919050565b7f4e487b7100000000000000000000000000000000000000000000000000000000600052601160045260246000fd5b7f4e487b7100000000000000000000000000000000000000000000000000000000600052601260045260246000fd5b7f4e487b7100000000000000000000000000000000000000000000000000000000600052602160045260246000fd5b7f4e487b7100000000000000000000000000000000000000000000000000000000600052602260045260246000fd5b7f4e487b7100000000000000000000000000000000000000000000000000000000600052603260045260246000fd5b7f4e487b7100000000000000000000000000000000000000000000000000000000600052604160045260246000fd5b600080fd5b600080fd5b600080fd5b600080fd5b6000601f19601f8301169050919050565b7f4e756d626572206f662073686172657320657863656564656420746865206c6960008201527f6d69740000000000000000000000000000000000000000000000000000000000602082015250565b611f2d81611c4e565b8114611f3857600080fd5b50565b611f4481611c72565b8114611f4f57600080fd5b50565b611f5b81611c9e565b8114611f6657600080fd5b5056fea26469706673582212205fbef2d77dc3f70d7aaca03e6a4407489e0b1852bad0346a4582ae95f51128db64736f6c63430008070033",
					"opcodes": "PUSH1 0x80 PUSH1 0x40 MSTORE PUSH1 0x0 PUSH1 0x5 SSTORE PUSH1 0x64 PUSH1 0x6 SSTORE PUSH1 0x1 PUSH1 0x7 SSTORE PUSH1 0xA PUSH1 0x8 SSTORE PUSH1 0x0 PUSH1 0x9 SSTORE PUSH1 0x0 PUSH1 0x11 SSTORE PUSH1 0x0 PUSH1 0x12 SSTORE PUSH1 0x0 PUSH1 0x13 SSTORE PUSH1 0x40 MLOAD PUSH3 0x2464 CODESIZE SUB DUP1 PUSH3 0x2464 DUP4 CODECOPY DUP2 DUP2 ADD PUSH1 0x40 MSTORE DUP2 ADD SWAP1 PUSH3 0x51 SWAP2 SWAP1 PUSH3 0x27D JUMP JUMPDEST CALLER PUSH1 0x0 DUP1 PUSH2 0x100 EXP DUP2 SLOAD DUP2 PUSH20 0xFFFFFFFFFFFFFFFFFFFFFFFFFFFFFFFFFFFFFFFF MUL NOT AND SWAP1 DUP4 PUSH20 0xFFFFFFFFFFFFFFFFFFFFFFFFFFFFFFFFFFFFFFFF AND MUL OR SWAP1 SSTORE POP PUSH1 0x6 SLOAD PUSH1 0xD PUSH1 0x0 CALLER PUSH20 0xFFFFFFFFFFFFFFFFFFFFFFFFFFFFFFFFFFFFFFFF AND PUSH20 0xFFFFFFFFFFFFFFFFFFFFFFFFFFFFFFFFFFFFFFFF AND DUP2 MSTORE PUSH1 0x20 ADD SWAP1 DUP2 MSTORE PUSH1 0x20 ADD PUSH1 0x0 KECCAK256 DUP2 SWAP1 SSTORE POP DUP2 PUSH1 0x1 PUSH1 0x0 ADD SWAP1 DUP1 MLOAD SWAP1 PUSH1 0x20 ADD SWAP1 PUSH3 0xF2 SWAP3 SWAP2 SWAP1 PUSH3 0x14F JUMP JUMPDEST POP DUP1 PUSH1 0x1 DUP1 ADD SWAP1 DUP1 MLOAD SWAP1 PUSH1 0x20 ADD SWAP1 PUSH3 0x10D SWAP3 SWAP2 SWAP1 PUSH3 0x14F JUMP JUMPDEST POP PUSH1 0x0 PUSH1 0x1 PUSH1 0x2 ADD DUP2 SWAP1 SSTORE POP PUSH1 0x0 PUSH1 0xA PUSH1 0x0 PUSH2 0x100 EXP DUP2 SLOAD DUP2 PUSH1 0xFF MUL NOT AND SWAP1 DUP4 PUSH1 0x1 DUP2 GT ISZERO PUSH3 0x142 JUMPI PUSH3 0x141 PUSH3 0x403 JUMP JUMPDEST JUMPDEST MUL OR SWAP1 SSTORE POP POP POP PUSH3 0x4B5 JUMP JUMPDEST DUP3 DUP1 SLOAD PUSH3 0x15D SWAP1 PUSH3 0x397 JUMP JUMPDEST SWAP1 PUSH1 0x0 MSTORE PUSH1 0x20 PUSH1 0x0 KECCAK256 SWAP1 PUSH1 0x1F ADD PUSH1 0x20 SWAP1 DIV DUP2 ADD SWAP3 DUP3 PUSH3 0x181 JUMPI PUSH1 0x0 DUP6 SSTORE PUSH3 0x1CD JUMP JUMPDEST DUP3 PUSH1 0x1F LT PUSH3 0x19C JUMPI DUP1 MLOAD PUSH1 0xFF NOT AND DUP4 DUP1 ADD OR DUP6 SSTORE PUSH3 0x1CD JUMP JUMPDEST DUP3 DUP1 ADD PUSH1 0x1 ADD DUP6 SSTORE DUP3 ISZERO PUSH3 0x1CD JUMPI SWAP2 DUP3 ADD JUMPDEST DUP3 DUP2 GT ISZERO PUSH3 0x1CC JUMPI DUP3 MLOAD DUP3 SSTORE SWAP2 PUSH1 0x20 ADD SWAP2 SWAP1 PUSH1 0x1 ADD SWAP1 PUSH3 0x1AF JUMP JUMPDEST JUMPDEST POP SWAP1 POP PUSH3 0x1DC SWAP2 SWAP1 PUSH3 0x1E0 JUMP JUMPDEST POP SWAP1 JUMP JUMPDEST JUMPDEST DUP1 DUP3 GT ISZERO PUSH3 0x1FB JUMPI PUSH1 0x0 DUP2 PUSH1 0x0 SWAP1 SSTORE POP PUSH1 0x1 ADD PUSH3 0x1E1 JUMP JUMPDEST POP SWAP1 JUMP JUMPDEST PUSH1 0x0 PUSH3 0x216 PUSH3 0x210 DUP5 PUSH3 0x32B JUMP JUMPDEST PUSH3 0x302 JUMP JUMPDEST SWAP1 POP DUP3 DUP2 MSTORE PUSH1 0x20 DUP2 ADD DUP5 DUP5 DUP5 ADD GT ISZERO PUSH3 0x235 JUMPI PUSH3 0x234 PUSH3 0x495 JUMP JUMPDEST JUMPDEST PUSH3 0x242 DUP5 DUP3 DUP6 PUSH3 0x361 JUMP JUMPDEST POP SWAP4 SWAP3 POP POP POP JUMP JUMPDEST PUSH1 0x0 DUP3 PUSH1 0x1F DUP4 ADD SLT PUSH3 0x262 JUMPI PUSH3 0x261 PUSH3 0x490 JUMP JUMPDEST JUMPDEST DUP2 MLOAD PUSH3 0x274 DUP5 DUP3 PUSH1 0x20 DUP7 ADD PUSH3 0x1FF JUMP JUMPDEST SWAP2 POP POP SWAP3 SWAP2 POP POP JUMP JUMPDEST PUSH1 0x0 DUP1 PUSH1 0x40 DUP4 DUP6 SUB SLT ISZERO PUSH3 0x297 JUMPI PUSH3 0x296 PUSH3 0x49F JUMP JUMPDEST JUMPDEST PUSH1 0x0 DUP4 ADD MLOAD PUSH8 0xFFFFFFFFFFFFFFFF DUP2 GT ISZERO PUSH3 0x2B8 JUMPI PUSH3 0x2B7 PUSH3 0x49A JUMP JUMPDEST JUMPDEST PUSH3 0x2C6 DUP6 DUP3 DUP7 ADD PUSH3 0x24A JUMP JUMPDEST SWAP3 POP POP PUSH1 0x20 DUP4 ADD MLOAD PUSH8 0xFFFFFFFFFFFFFFFF DUP2 GT ISZERO PUSH3 0x2EA JUMPI PUSH3 0x2E9 PUSH3 0x49A JUMP JUMPDEST JUMPDEST PUSH3 0x2F8 DUP6 DUP3 DUP7 ADD PUSH3 0x24A JUMP JUMPDEST SWAP2 POP POP SWAP3 POP SWAP3 SWAP1 POP JUMP JUMPDEST PUSH1 0x0 PUSH3 0x30E PUSH3 0x321 JUMP JUMPDEST SWAP1 POP PUSH3 0x31C DUP3 DUP3 PUSH3 0x3CD JUMP JUMPDEST SWAP2 SWAP1 POP JUMP JUMPDEST PUSH1 0x0 PUSH1 0x40 MLOAD SWAP1 POP SWAP1 JUMP JUMPDEST PUSH1 0x0 PUSH8 0xFFFFFFFFFFFFFFFF DUP3 GT ISZERO PUSH3 0x349 JUMPI PUSH3 0x348 PUSH3 0x461 JUMP JUMPDEST JUMPDEST PUSH3 0x354 DUP3 PUSH3 0x4A4 JUMP JUMPDEST SWAP1 POP PUSH1 0x20 DUP2 ADD SWAP1 POP SWAP2 SWAP1 POP JUMP JUMPDEST PUSH1 0x0 JUMPDEST DUP4 DUP2 LT ISZERO PUSH3 0x381 JUMPI DUP1 DUP3 ADD MLOAD DUP2 DUP5 ADD MSTORE PUSH1 0x20 DUP2 ADD SWAP1 POP PUSH3 0x364 JUMP JUMPDEST DUP4 DUP2 GT ISZERO PUSH3 0x391 JUMPI PUSH1 0x0 DUP5 DUP5 ADD MSTORE JUMPDEST POP POP POP POP JUMP JUMPDEST PUSH1 0x0 PUSH1 0x2 DUP3 DIV SWAP1 POP PUSH1 0x1 DUP3 AND DUP1 PUSH3 0x3B0 JUMPI PUSH1 0x7F DUP3 AND SWAP2 POP JUMPDEST PUSH1 0x20 DUP3 LT DUP2 EQ ISZERO PUSH3 0x3C7 JUMPI PUSH3 0x3C6 PUSH3 0x432 JUMP JUMPDEST JUMPDEST POP SWAP2 SWAP1 POP JUMP JUMPDEST PUSH3 0x3D8 DUP3 PUSH3 0x4A4 JUMP JUMPDEST DUP2 ADD DUP2 DUP2 LT PUSH8 0xFFFFFFFFFFFFFFFF DUP3 GT OR ISZERO PUSH3 0x3FA JUMPI PUSH3 0x3F9 PUSH3 0x461 JUMP JUMPDEST JUMPDEST DUP1 PUSH1 0x40 MSTORE POP POP POP JUMP JUMPDEST PUSH32 0x4E487B7100000000000000000000000000000000000000000000000000000000 PUSH1 0x0 MSTORE PUSH1 0x21 PUSH1 0x4 MSTORE PUSH1 0x24 PUSH1 0x0 REVERT JUMPDEST PUSH32 0x4E487B7100000000000000000000000000000000000000000000000000000000 PUSH1 0x0 MSTORE PUSH1 0x22 PUSH1 0x4 MSTORE PUSH1 0x24 PUSH1 0x0 REVERT JUMPDEST PUSH32 0x4E487B7100000000000000000000000000000000000000000000000000000000 PUSH1 0x0 MSTORE PUSH1 0x41 PUSH1 0x4 MSTORE PUSH1 0x24 PUSH1 0x0 REVERT JUMPDEST PUSH1 0x0 DUP1 REVERT JUMPDEST PUSH1 0x0 DUP1 REVERT JUMPDEST PUSH1 0x0 DUP1 REVERT JUMPDEST PUSH1 0x0 DUP1 REVERT JUMPDEST PUSH1 0x0 PUSH1 0x1F NOT PUSH1 0x1F DUP4 ADD AND SWAP1 POP SWAP2 SWAP1 POP JUMP JUMPDEST PUSH2 0x1F9F DUP1 PUSH3 0x4C5 PUSH1 0x0 CODECOPY PUSH1 0x0 RETURN INVALID PUSH1 0x80 PUSH1 0x40 MSTORE PUSH1 0x4 CALLDATASIZE LT PUSH2 0x181 JUMPI PUSH1 0x0 CALLDATALOAD PUSH1 0xE0 SHR DUP1 PUSH4 0x87CAEA78 GT PUSH2 0xD1 JUMPI DUP1 PUSH4 0xAD349442 GT PUSH2 0x8A JUMPI DUP1 PUSH4 0xCD0C5896 GT PUSH2 0x64 JUMPI DUP1 PUSH4 0xCD0C5896 EQ PUSH2 0x531 JUMPI DUP1 PUSH4 0xD8124C5F EQ PUSH2 0x56E JUMPI DUP1 PUSH4 0xDF094409 EQ PUSH2 0x59B JUMPI DUP1 PUSH4 0xF3A8286F EQ PUSH2 0x5C4 JUMPI PUSH2 0x181 JUMP JUMPDEST DUP1 PUSH4 0xAD349442 EQ PUSH2 0x4C6 JUMPI DUP1 PUSH4 0xAF769C64 EQ PUSH2 0x4F1 JUMPI DUP1 PUSH4 0xB9223946 EQ PUSH2 0x51A JUMPI PUSH2 0x181 JUMP JUMPDEST DUP1 PUSH4 0x87CAEA78 EQ PUSH2 0x3C1 JUMPI DUP1 PUSH4 0x8DA5CB5B EQ PUSH2 0x3FE JUMPI DUP1 PUSH4 0x9A982416 EQ PUSH2 0x429 JUMPI DUP1 PUSH4 0xA14BA987 EQ PUSH2 0x454 JUMPI DUP1 PUSH4 0xA6F2AE3A EQ PUSH2 0x493 JUMPI DUP1 PUSH4 0xA9059CBB EQ PUSH2 0x49D JUMPI PUSH2 0x181 JUMP JUMPDEST DUP1 PUSH4 0x3BE75AA3 GT PUSH2 0x13E JUMPI DUP1 PUSH4 0x6FA4F103 GT PUSH2 0x118 JUMPI DUP1 PUSH4 0x6FA4F103 EQ PUSH2 0x305 JUMPI DUP1 PUSH4 0x7427A40C EQ PUSH2 0x32E JUMPI DUP1 PUSH4 0x753EC103 EQ PUSH2 0x36B JUMPI DUP1 PUSH4 0x7FF9B596 EQ PUSH2 0x396 JUMPI PUSH2 0x181 JUMP JUMPDEST DUP1 PUSH4 0x3BE75AA3 EQ PUSH2 0x286 JUMPI DUP1 PUSH4 0x4C0A6AF0 EQ PUSH2 0x2B1 JUMPI DUP1 PUSH4 0x59EA0173 EQ PUSH2 0x2C8 JUMPI PUSH2 0x181 JUMP JUMPDEST DUP1 PUSH4 0xD15FD77 EQ PUSH2 0x186 JUMPI DUP1 PUSH4 0x162D8AFB EQ PUSH2 0x1B1 JUMPI DUP1 PUSH4 0x1B26586C EQ PUSH2 0x1DC JUMPI DUP1 PUSH4 0x27E235E3 EQ PUSH2 0x207 JUMPI DUP1 PUSH4 0x293230B8 EQ PUSH2 0x244 JUMPI DUP1 PUSH4 0x3A98EF39 EQ PUSH2 0x25B JUMPI JUMPDEST PUSH1 0x0 DUP1 REVERT JUMPDEST CALLVALUE DUP1 ISZERO PUSH2 0x192 JUMPI PUSH1 0x0 DUP1 REVERT JUMPDEST POP PUSH2 0x19B PUSH2 0x5EF JUMP JUMPDEST PUSH1 0x40 MLOAD PUSH2 0x1A8 SWAP2 SWAP1 PUSH2 0x1B06 JUMP JUMPDEST PUSH1 0x40 MLOAD DUP1 SWAP2 SUB SWAP1 RETURN JUMPDEST CALLVALUE DUP1 ISZERO PUSH2 0x1BD JUMPI PUSH1 0x0 DUP1 REVERT JUMPDEST POP PUSH2 0x1C6 PUSH2 0x5F5 JUMP JUMPDEST PUSH1 0x40 MLOAD PUSH2 0x1D3 SWAP2 SWAP1 PUSH2 0x1B06 JUMP JUMPDEST PUSH1 0x40 MLOAD DUP1 SWAP2 SUB SWAP1 RETURN JUMPDEST CALLVALUE DUP1 ISZERO PUSH2 0x1E8 JUMPI PUSH1 0x0 DUP1 REVERT JUMPDEST POP PUSH2 0x1F1 PUSH2 0x5FB JUMP JUMPDEST PUSH1 0x40 MLOAD PUSH2 0x1FE SWAP2 SWAP1 PUSH2 0x1A7F JUMP JUMPDEST PUSH1 0x40 MLOAD DUP1 SWAP2 SUB SWAP1 RETURN JUMPDEST CALLVALUE DUP1 ISZERO PUSH2 0x213 JUMPI PUSH1 0x0 DUP1 REVERT JUMPDEST POP PUSH2 0x22E PUSH1 0x4 DUP1 CALLDATASIZE SUB DUP2 ADD SWAP1 PUSH2 0x229 SWAP2 SWAP1 PUSH2 0x17CC JUMP JUMPDEST PUSH2 0x689 JUMP JUMPDEST PUSH1 0x40 MLOAD PUSH2 0x23B SWAP2 SWAP1 PUSH2 0x1B06 JUMP JUMPDEST PUSH1 0x40 MLOAD DUP1 SWAP2 SUB SWAP1 RETURN JUMPDEST CALLVALUE DUP1 ISZERO PUSH2 0x250 JUMPI PUSH1 0x0 DUP1 REVERT JUMPDEST POP PUSH2 0x259 PUSH2 0x6A1 JUMP JUMPDEST STOP JUMPDEST CALLVALUE DUP1 ISZERO PUSH2 0x267 JUMPI PUSH1 0x0 DUP1 REVERT JUMPDEST POP PUSH2 0x270 PUSH2 0x726 JUMP JUMPDEST PUSH1 0x40 MLOAD PUSH2 0x27D SWAP2 SWAP1 PUSH2 0x1B06 JUMP JUMPDEST PUSH1 0x40 MLOAD DUP1 SWAP2 SUB SWAP1 RETURN JUMPDEST CALLVALUE DUP1 ISZERO PUSH2 0x292 JUMPI PUSH1 0x0 DUP1 REVERT JUMPDEST POP PUSH2 0x29B PUSH2 0x72C JUMP JUMPDEST PUSH1 0x40 MLOAD PUSH2 0x2A8 SWAP2 SWAP1 PUSH2 0x1B06 JUMP JUMPDEST PUSH1 0x40 MLOAD DUP1 SWAP2 SUB SWAP1 RETURN JUMPDEST CALLVALUE DUP1 ISZERO PUSH2 0x2BD JUMPI PUSH1 0x0 DUP1 REVERT JUMPDEST POP PUSH2 0x2C6 PUSH2 0x732 JUMP JUMPDEST STOP JUMPDEST CALLVALUE DUP1 ISZERO PUSH2 0x2D4 JUMPI PUSH1 0x0 DUP1 REVERT JUMPDEST POP PUSH2 0x2EF PUSH1 0x4 DUP1 CALLDATASIZE SUB DUP2 ADD SWAP1 PUSH2 0x2EA SWAP2 SWAP1 PUSH2 0x17CC JUMP JUMPDEST PUSH2 0x827 JUMP JUMPDEST PUSH1 0x40 MLOAD PUSH2 0x2FC SWAP2 SWAP1 PUSH2 0x1A64 JUMP JUMPDEST PUSH1 0x40 MLOAD DUP1 SWAP2 SUB SWAP1 RETURN JUMPDEST CALLVALUE DUP1 ISZERO PUSH2 0x311 JUMPI PUSH1 0x0 DUP1 REVERT JUMPDEST POP PUSH2 0x32C PUSH1 0x4 DUP1 CALLDATASIZE SUB DUP2 ADD SWAP1 PUSH2 0x327 SWAP2 SWAP1 PUSH2 0x1866 JUMP JUMPDEST PUSH2 0x847 JUMP JUMPDEST STOP JUMPDEST CALLVALUE DUP1 ISZERO PUSH2 0x33A JUMPI PUSH1 0x0 DUP1 REVERT JUMPDEST POP PUSH2 0x355 PUSH1 0x4 DUP1 CALLDATASIZE SUB DUP2 ADD SWAP1 PUSH2 0x350 SWAP2 SWAP1 PUSH2 0x1969 JUMP JUMPDEST PUSH2 0x8E5 JUMP JUMPDEST PUSH1 0x40 MLOAD PUSH2 0x362 SWAP2 SWAP1 PUSH2 0x1A2E JUMP JUMPDEST PUSH1 0x40 MLOAD DUP1 SWAP2 SUB SWAP1 RETURN JUMPDEST CALLVALUE DUP1 ISZERO PUSH2 0x377 JUMPI PUSH1 0x0 DUP1 REVERT JUMPDEST POP PUSH2 0x380 PUSH2 0x924 JUMP JUMPDEST PUSH1 0x40 MLOAD PUSH2 0x38D SWAP2 SWAP1 PUSH2 0x1A7F JUMP JUMPDEST PUSH1 0x40 MLOAD DUP1 SWAP2 SUB SWAP1 RETURN JUMPDEST CALLVALUE DUP1 ISZERO PUSH2 0x3A2 JUMPI PUSH1 0x0 DUP1 REVERT JUMPDEST POP PUSH2 0x3AB PUSH2 0x9B2 JUMP JUMPDEST PUSH1 0x40 MLOAD PUSH2 0x3B8 SWAP2 SWAP1 PUSH2 0x1B06 JUMP JUMPDEST PUSH1 0x40 MLOAD DUP1 SWAP2 SUB SWAP1 RETURN JUMPDEST CALLVALUE DUP1 ISZERO PUSH2 0x3CD JUMPI PUSH1 0x0 DUP1 REVERT JUMPDEST POP PUSH2 0x3E8 PUSH1 0x4 DUP1 CALLDATASIZE SUB DUP2 ADD SWAP1 PUSH2 0x3E3 SWAP2 SWAP1 PUSH2 0x1839 JUMP JUMPDEST PUSH2 0x9B8 JUMP JUMPDEST PUSH1 0x40 MLOAD PUSH2 0x3F5 SWAP2 SWAP1 PUSH2 0x1A64 JUMP JUMPDEST PUSH1 0x40 MLOAD DUP1 SWAP2 SUB SWAP1 RETURN JUMPDEST CALLVALUE DUP1 ISZERO PUSH2 0x40A JUMPI PUSH1 0x0 DUP1 REVERT JUMPDEST POP PUSH2 0x413 PUSH2 0xBF4 JUMP JUMPDEST PUSH1 0x40 MLOAD PUSH2 0x420 SWAP2 SWAP1 PUSH2 0x1A49 JUMP JUMPDEST PUSH1 0x40 MLOAD DUP1 SWAP2 SUB SWAP1 RETURN JUMPDEST CALLVALUE DUP1 ISZERO PUSH2 0x435 JUMPI PUSH1 0x0 DUP1 REVERT JUMPDEST POP PUSH2 0x43E PUSH2 0xC18 JUMP JUMPDEST PUSH1 0x40 MLOAD PUSH2 0x44B SWAP2 SWAP1 PUSH2 0x1B06 JUMP JUMPDEST PUSH1 0x40 MLOAD DUP1 SWAP2 SUB SWAP1 RETURN JUMPDEST CALLVALUE DUP1 ISZERO PUSH2 0x460 JUMPI PUSH1 0x0 DUP1 REVERT JUMPDEST POP PUSH2 0x47B PUSH1 0x4 DUP1 CALLDATASIZE SUB DUP2 ADD SWAP1 PUSH2 0x476 SWAP2 SWAP1 PUSH2 0x1969 JUMP JUMPDEST PUSH2 0xC1E JUMP JUMPDEST PUSH1 0x40 MLOAD PUSH2 0x48A SWAP4 SWAP3 SWAP2 SWAP1 PUSH2 0x1AA1 JUMP JUMPDEST PUSH1 0x40 MLOAD DUP1 SWAP2 SUB SWAP1 RETURN JUMPDEST PUSH2 0x49B PUSH2 0xD68 JUMP JUMPDEST STOP JUMPDEST CALLVALUE DUP1 ISZERO PUSH2 0x4A9 JUMPI PUSH1 0x0 DUP1 REVERT JUMPDEST POP PUSH2 0x4C4 PUSH1 0x4 DUP1 CALLDATASIZE SUB DUP2 ADD SWAP1 PUSH2 0x4BF SWAP2 SWAP1 PUSH2 0x17F9 JUMP JUMPDEST PUSH2 0xF0C JUMP JUMPDEST STOP JUMPDEST CALLVALUE DUP1 ISZERO PUSH2 0x4D2 JUMPI PUSH1 0x0 DUP1 REVERT JUMPDEST POP PUSH2 0x4DB PUSH2 0x1060 JUMP JUMPDEST PUSH1 0x40 MLOAD PUSH2 0x4E8 SWAP2 SWAP1 PUSH2 0x1A2E JUMP JUMPDEST PUSH1 0x40 MLOAD DUP1 SWAP2 SUB SWAP1 RETURN JUMPDEST CALLVALUE DUP1 ISZERO PUSH2 0x4FD JUMPI PUSH1 0x0 DUP1 REVERT JUMPDEST POP PUSH2 0x518 PUSH1 0x4 DUP1 CALLDATASIZE SUB DUP2 ADD SWAP1 PUSH2 0x513 SWAP2 SWAP1 PUSH2 0x17CC JUMP JUMPDEST PUSH2 0x1086 JUMP JUMPDEST STOP JUMPDEST CALLVALUE DUP1 ISZERO PUSH2 0x526 JUMPI PUSH1 0x0 DUP1 REVERT JUMPDEST POP PUSH2 0x52F PUSH2 0x11A1 JUMP JUMPDEST STOP JUMPDEST CALLVALUE DUP1 ISZERO PUSH2 0x53D JUMPI PUSH1 0x0 DUP1 REVERT JUMPDEST POP PUSH2 0x558 PUSH1 0x4 DUP1 CALLDATASIZE SUB DUP2 ADD SWAP1 PUSH2 0x553 SWAP2 SWAP1 PUSH2 0x17CC JUMP JUMPDEST PUSH2 0x12AC JUMP JUMPDEST PUSH1 0x40 MLOAD PUSH2 0x565 SWAP2 SWAP1 PUSH2 0x1B06 JUMP JUMPDEST PUSH1 0x40 MLOAD DUP1 SWAP2 SUB SWAP1 RETURN JUMPDEST CALLVALUE DUP1 ISZERO PUSH2 0x57A JUMPI PUSH1 0x0 DUP1 REVERT JUMPDEST POP PUSH2 0x583 PUSH2 0x12CD JUMP JUMPDEST PUSH1 0x40 MLOAD PUSH2 0x592 SWAP4 SWAP3 SWAP2 SWAP1 PUSH2 0x1AA1 JUMP JUMPDEST PUSH1 0x40 MLOAD DUP1 SWAP2 SUB SWAP1 RETURN JUMPDEST CALLVALUE DUP1 ISZERO PUSH2 0x5A7 JUMPI PUSH1 0x0 DUP1 REVERT JUMPDEST POP PUSH2 0x5C2 PUSH1 0x4 DUP1 CALLDATASIZE SUB DUP2 ADD SWAP1 PUSH2 0x5BD SWAP2 SWAP1 PUSH2 0x18DE JUMP JUMPDEST PUSH2 0x13F5 JUMP JUMPDEST STOP JUMPDEST CALLVALUE DUP1 ISZERO PUSH2 0x5D0 JUMPI PUSH1 0x0 DUP1 REVERT JUMPDEST POP PUSH2 0x5D9 PUSH2 0x1593 JUMP JUMPDEST PUSH1 0x40 MLOAD PUSH2 0x5E6 SWAP2 SWAP1 PUSH2 0x1B06 JUMP JUMPDEST PUSH1 0x40 MLOAD DUP1 SWAP2 SUB SWAP1 RETURN JUMPDEST PUSH1 0x13 SLOAD DUP2 JUMP JUMPDEST PUSH1 0x5 SLOAD DUP2 JUMP JUMPDEST PUSH1 0xF DUP1 SLOAD PUSH2 0x608 SWAP1 PUSH2 0x1CEA JUMP JUMPDEST DUP1 PUSH1 0x1F ADD PUSH1 0x20 DUP1 SWAP2 DIV MUL PUSH1 0x20 ADD PUSH1 0x40 MLOAD SWAP1 DUP2 ADD PUSH1 0x40 MSTORE DUP1 SWAP3 SWAP2 SWAP1 DUP2 DUP2 MSTORE PUSH1 0x20 ADD DUP3 DUP1 SLOAD PUSH2 0x634 SWAP1 PUSH2 0x1CEA JUMP JUMPDEST DUP1 ISZERO PUSH2 0x681 JUMPI DUP1 PUSH1 0x1F LT PUSH2 0x656 JUMPI PUSH2 0x100 DUP1 DUP4 SLOAD DIV MUL DUP4 MSTORE SWAP2 PUSH1 0x20 ADD SWAP2 PUSH2 0x681 JUMP JUMPDEST DUP3 ADD SWAP2 SWAP1 PUSH1 0x0 MSTORE PUSH1 0x20 PUSH1 0x0 KECCAK256 SWAP1 JUMPDEST DUP2 SLOAD DUP2 MSTORE SWAP1 PUSH1 0x1 ADD SWAP1 PUSH1 0x20 ADD DUP1 DUP4 GT PUSH2 0x664 JUMPI DUP3 SWAP1 SUB PUSH1 0x1F AND DUP3 ADD SWAP2 JUMPDEST POP POP POP POP POP DUP2 JUMP JUMPDEST PUSH1 0xD PUSH1 0x20 MSTORE DUP1 PUSH1 0x0 MSTORE PUSH1 0x40 PUSH1 0x0 KECCAK256 PUSH1 0x0 SWAP2 POP SWAP1 POP SLOAD DUP2 JUMP JUMPDEST PUSH1 0x0 DUP1 SLOAD SWAP1 PUSH2 0x100 EXP SWAP1 DIV PUSH20 0xFFFFFFFFFFFFFFFFFFFFFFFFFFFFFFFFFFFFFFFF AND PUSH20 0xFFFFFFFFFFFFFFFFFFFFFFFFFFFFFFFFFFFFFFFF AND CALLER PUSH20 0xFFFFFFFFFFFFFFFFFFFFFFFFFFFFFFFFFFFFFFFF AND EQ PUSH2 0x6F9 JUMPI PUSH1 0x0 DUP1 REVERT JUMPDEST PUSH1 0x1 PUSH1 0xA PUSH1 0x0 PUSH2 0x100 EXP DUP2 SLOAD DUP2 PUSH1 0xFF MUL NOT AND SWAP1 DUP4 PUSH1 0x1 DUP2 GT ISZERO PUSH2 0x71F JUMPI PUSH2 0x71E PUSH2 0x1DF4 JUMP JUMPDEST JUMPDEST MUL OR SWAP1 SSTORE POP JUMP JUMPDEST PUSH1 0x6 SLOAD DUP2 JUMP JUMPDEST PUSH1 0x8 SLOAD DUP2 JUMP JUMPDEST PUSH1 0x0 DUP1 PUSH1 0x2 DUP2 GT ISZERO PUSH2 0x747 JUMPI PUSH2 0x746 PUSH2 0x1DF4 JUMP JUMPDEST JUMPDEST PUSH1 0xE PUSH1 0x0 SWAP1 SLOAD SWAP1 PUSH2 0x100 EXP SWAP1 DIV PUSH1 0xFF AND PUSH1 0x2 DUP2 GT ISZERO PUSH2 0x769 JUMPI PUSH2 0x768 PUSH2 0x1DF4 JUMP JUMPDEST JUMPDEST EQ PUSH2 0x773 JUMPI PUSH1 0x0 DUP1 REVERT JUMPDEST PUSH1 0xE PUSH1 0x1 SWAP1 SLOAD SWAP1 PUSH2 0x100 EXP SWAP1 DIV PUSH20 0xFFFFFFFFFFFFFFFFFFFFFFFFFFFFFFFFFFFFFFFF AND PUSH20 0xFFFFFFFFFFFFFFFFFFFFFFFFFFFFFFFFFFFFFFFF AND CALLER PUSH20 0xFFFFFFFFFFFFFFFFFFFFFFFFFFFFFFFFFFFFFFFF AND EQ PUSH2 0x7CD JUMPI PUSH1 0x0 DUP1 REVERT JUMPDEST PUSH1 0x1 PUSH1 0xE PUSH1 0x0 PUSH2 0x100 EXP DUP2 SLOAD DUP2 PUSH1 0xFF MUL NOT AND SWAP1 DUP4 PUSH1 0x2 DUP2 GT ISZERO PUSH2 0x7F3 JUMPI PUSH2 0x7F2 PUSH2 0x1DF4 JUMP JUMPDEST JUMPDEST MUL OR SWAP1 SSTORE POP PUSH32 0xD0DC01800A369FEF30D3FCED5275B8B916549867622E79EFCA5245C479FDA4EA PUSH1 0x40 MLOAD PUSH1 0x40 MLOAD DUP1 SWAP2 SUB SWAP1 LOG1 POP JUMP JUMPDEST PUSH1 0xC PUSH1 0x20 MSTORE DUP1 PUSH1 0x0 MSTORE PUSH1 0x40 PUSH1 0x0 KECCAK256 PUSH1 0x0 SWAP2 POP SLOAD SWAP1 PUSH2 0x100 EXP SWAP1 DIV PUSH1 0xFF AND DUP2 JUMP JUMPDEST PUSH1 0x0 PUSH1 0xE PUSH1 0x0 PUSH2 0x100 EXP DUP2 SLOAD DUP2 PUSH1 0xFF MUL NOT AND SWAP1 DUP4 PUSH1 0x2 DUP2 GT ISZERO PUSH2 0x86D JUMPI PUSH2 0x86C PUSH2 0x1DF4 JUMP JUMPDEST JUMPDEST MUL OR SWAP1 SSTORE POP DUP2 PUSH1 0xF SWAP1 DUP1 MLOAD SWAP1 PUSH1 0x20 ADD SWAP1 PUSH2 0x888 SWAP3 SWAP2 SWAP1 PUSH2 0x1648 JUMP JUMPDEST POP DUP1 PUSH1 0x10 SWAP1 DUP1 MLOAD SWAP1 PUSH1 0x20 ADD SWAP1 PUSH2 0x89F SWAP3 SWAP2 SWAP1 PUSH2 0x1648 JUMP JUMPDEST POP CALLER PUSH1 0xE PUSH1 0x1 PUSH2 0x100 EXP DUP2 SLOAD DUP2 PUSH20 0xFFFFFFFFFFFFFFFFFFFFFFFFFFFFFFFFFFFFFFFF MUL NOT AND SWAP1 DUP4 PUSH20 0xFFFFFFFFFFFFFFFFFFFFFFFFFFFFFFFFFFFFFFFF AND MUL OR SWAP1 SSTORE POP POP POP JUMP JUMPDEST PUSH1 0xB DUP2 DUP2 SLOAD DUP2 LT PUSH2 0x8F5 JUMPI PUSH1 0x0 DUP1 REVERT JUMPDEST SWAP1 PUSH1 0x0 MSTORE PUSH1 0x20 PUSH1 0x0 KECCAK256 ADD PUSH1 0x0 SWAP2 POP SLOAD SWAP1 PUSH2 0x100 EXP SWAP1 DIV PUSH20 0xFFFFFFFFFFFFFFFFFFFFFFFFFFFFFFFFFFFFFFFF AND DUP2 JUMP JUMPDEST PUSH1 0x10 DUP1 SLOAD PUSH2 0x931 SWAP1 PUSH2 0x1CEA JUMP JUMPDEST DUP1 PUSH1 0x1F ADD PUSH1 0x20 DUP1 SWAP2 DIV MUL PUSH1 0x20 ADD PUSH1 0x40 MLOAD SWAP1 DUP2 ADD PUSH1 0x40 MSTORE DUP1 SWAP3 SWAP2 SWAP1 DUP2 DUP2 MSTORE PUSH1 0x20 ADD DUP3 DUP1 SLOAD PUSH2 0x95D SWAP1 PUSH2 0x1CEA JUMP JUMPDEST DUP1 ISZERO PUSH2 0x9AA JUMPI DUP1 PUSH1 0x1F LT PUSH2 0x97F JUMPI PUSH2 0x100 DUP1 DUP4 SLOAD DIV MUL DUP4 MSTORE SWAP2 PUSH1 0x20 ADD SWAP2 PUSH2 0x9AA JUMP JUMPDEST DUP3 ADD SWAP2 SWAP1 PUSH1 0x0 MSTORE PUSH1 0x20 PUSH1 0x0 KECCAK256 SWAP1 JUMPDEST DUP2 SLOAD DUP2 MSTORE SWAP1 PUSH1 0x1 ADD SWAP1 PUSH1 0x20 ADD DUP1 DUP4 GT PUSH2 0x98D JUMPI DUP3 SWAP1 SUB PUSH1 0x1F AND DUP3 ADD SWAP2 JUMPDEST POP POP POP POP POP DUP2 JUMP JUMPDEST PUSH1 0x7 SLOAD DUP2 JUMP JUMPDEST PUSH1 0x0 PUSH1 0x1 DUP1 PUSH1 0x2 DUP2 GT ISZERO PUSH2 0x9CF JUMPI PUSH2 0x9CE PUSH2 0x1DF4 JUMP JUMPDEST JUMPDEST PUSH1 0xE PUSH1 0x0 SWAP1 SLOAD SWAP1 PUSH2 0x100 EXP SWAP1 DIV PUSH1 0xFF AND PUSH1 0x2 DUP2 GT ISZERO PUSH2 0x9F1 JUMPI PUSH2 0x9F0 PUSH2 0x1DF4 JUMP JUMPDEST JUMPDEST EQ PUSH2 0x9FB JUMPI PUSH1 0x0 DUP1 REVERT JUMPDEST PUSH1 0x0 PUSH1 0xC PUSH1 0x0 CALLER PUSH20 0xFFFFFFFFFFFFFFFFFFFFFFFFFFFFFFFFFFFFFFFF AND PUSH20 0xFFFFFFFFFFFFFFFFFFFFFFFFFFFFFFFFFFFFFFFF AND DUP2 MSTORE PUSH1 0x20 ADD SWAP1 DUP2 MSTORE PUSH1 0x20 ADD PUSH1 0x0 KECCAK256 PUSH1 0x0 SWAP1 SLOAD SWAP1 PUSH2 0x100 EXP SWAP1 DIV PUSH1 0xFF AND PUSH2 0xBB3 JUMPI PUSH1 0x1 PUSH1 0xC PUSH1 0x0 CALLER PUSH20 0xFFFFFFFFFFFFFFFFFFFFFFFFFFFFFFFFFFFFFFFF AND PUSH20 0xFFFFFFFFFFFFFFFFFFFFFFFFFFFFFFFFFFFFFFFF AND DUP2 MSTORE PUSH1 0x20 ADD SWAP1 DUP2 MSTORE PUSH1 0x20 ADD PUSH1 0x0 KECCAK256 PUSH1 0x0 PUSH2 0x100 EXP DUP2 SLOAD DUP2 PUSH1 0xFF MUL NOT AND SWAP1 DUP4 ISZERO ISZERO MUL OR SWAP1 SSTORE POP PUSH2 0xAAE PUSH2 0x16CE JUMP JUMPDEST CALLER DUP2 PUSH1 0x0 ADD SWAP1 PUSH20 0xFFFFFFFFFFFFFFFFFFFFFFFFFFFFFFFFFFFFFFFF AND SWAP1 DUP2 PUSH20 0xFFFFFFFFFFFFFFFFFFFFFFFFFFFFFFFFFFFFFFFF AND DUP2 MSTORE POP POP DUP5 DUP2 PUSH1 0x20 ADD SWAP1 ISZERO ISZERO SWAP1 DUP2 ISZERO ISZERO DUP2 MSTORE POP POP DUP5 ISZERO PUSH2 0xB15 JUMPI PUSH1 0x11 PUSH1 0x0 DUP2 SLOAD DUP1 SWAP3 SWAP2 SWAP1 PUSH2 0xB0F SWAP1 PUSH2 0x1D4D JUMP JUMPDEST SWAP2 SWAP1 POP SSTORE POP JUMPDEST DUP1 PUSH1 0x14 PUSH1 0x0 PUSH1 0x13 SLOAD DUP2 MSTORE PUSH1 0x20 ADD SWAP1 DUP2 MSTORE PUSH1 0x20 ADD PUSH1 0x0 KECCAK256 PUSH1 0x0 DUP3 ADD MLOAD DUP2 PUSH1 0x0 ADD PUSH1 0x0 PUSH2 0x100 EXP DUP2 SLOAD DUP2 PUSH20 0xFFFFFFFFFFFFFFFFFFFFFFFFFFFFFFFFFFFFFFFF MUL NOT AND SWAP1 DUP4 PUSH20 0xFFFFFFFFFFFFFFFFFFFFFFFFFFFFFFFFFFFFFFFF AND MUL OR SWAP1 SSTORE POP PUSH1 0x20 DUP3 ADD MLOAD DUP2 PUSH1 0x0 ADD PUSH1 0x14 PUSH2 0x100 EXP DUP2 SLOAD DUP2 PUSH1 0xFF MUL NOT AND SWAP1 DUP4 ISZERO ISZERO MUL OR SWAP1 SSTORE POP SWAP1 POP POP PUSH1 0x13 PUSH1 0x0 DUP2 SLOAD DUP1 SWAP3 SWAP2 SWAP1 PUSH2 0xBA8 SWAP1 PUSH2 0x1D4D JUMP JUMPDEST SWAP2 SWAP1 POP SSTORE POP PUSH1 0x1 SWAP2 POP POP JUMPDEST PUSH32 0x55C65CF9526EFDF6C2252FE9757889DBD93E10172CAD0F2EDB1DF619C88DBF7D CALLER PUSH1 0x40 MLOAD PUSH2 0xBE2 SWAP2 SWAP1 PUSH2 0x1A2E JUMP JUMPDEST PUSH1 0x40 MLOAD DUP1 SWAP2 SUB SWAP1 LOG1 DUP1 SWAP3 POP POP POP SWAP2 SWAP1 POP JUMP JUMPDEST PUSH1 0x0 DUP1 SLOAD SWAP1 PUSH2 0x100 EXP SWAP1 DIV PUSH20 0xFFFFFFFFFFFFFFFFFFFFFFFFFFFFFFFFFFFFFFFF AND DUP2 JUMP JUMPDEST PUSH1 0x9 SLOAD DUP2 JUMP JUMPDEST PUSH1 0x4 DUP2 DUP2 SLOAD DUP2 LT PUSH2 0xC2E JUMPI PUSH1 0x0 DUP1 REVERT JUMPDEST SWAP1 PUSH1 0x0 MSTORE PUSH1 0x20 PUSH1 0x0 KECCAK256 SWAP1 PUSH1 0x3 MUL ADD PUSH1 0x0 SWAP2 POP SWAP1 POP DUP1 PUSH1 0x0 ADD DUP1 SLOAD PUSH2 0xC51 SWAP1 PUSH2 0x1CEA JUMP JUMPDEST DUP1 PUSH1 0x1F ADD PUSH1 0x20 DUP1 SWAP2 DIV MUL PUSH1 0x20 ADD PUSH1 0x40 MLOAD SWAP1 DUP2 ADD PUSH1 0x40 MSTORE DUP1 SWAP3 SWAP2 SWAP1 DUP2 DUP2 MSTORE PUSH1 0x20 ADD DUP3 DUP1 SLOAD PUSH2 0xC7D SWAP1 PUSH2 0x1CEA JUMP JUMPDEST DUP1 ISZERO PUSH2 0xCCA JUMPI DUP1 PUSH1 0x1F LT PUSH2 0xC9F JUMPI PUSH2 0x100 DUP1 DUP4 SLOAD DIV MUL DUP4 MSTORE SWAP2 PUSH1 0x20 ADD SWAP2 PUSH2 0xCCA JUMP JUMPDEST DUP3 ADD SWAP2 SWAP1 PUSH1 0x0 MSTORE PUSH1 0x20 PUSH1 0x0 KECCAK256 SWAP1 JUMPDEST DUP2 SLOAD DUP2 MSTORE SWAP1 PUSH1 0x1 ADD SWAP1 PUSH1 0x20 ADD DUP1 DUP4 GT PUSH2 0xCAD JUMPI DUP3 SWAP1 SUB PUSH1 0x1F AND DUP3 ADD SWAP2 JUMPDEST POP POP POP POP POP SWAP1 DUP1 PUSH1 0x1 ADD DUP1 SLOAD PUSH2 0xCDF SWAP1 PUSH2 0x1CEA JUMP JUMPDEST DUP1 PUSH1 0x1F ADD PUSH1 0x20 DUP1 SWAP2 DIV MUL PUSH1 0x20 ADD PUSH1 0x40 MLOAD SWAP1 DUP2 ADD PUSH1 0x40 MSTORE DUP1 SWAP3 SWAP2 SWAP1 DUP2 DUP2 MSTORE PUSH1 0x20 ADD DUP3 DUP1 SLOAD PUSH2 0xD0B SWAP1 PUSH2 0x1CEA JUMP JUMPDEST DUP1 ISZERO PUSH2 0xD58 JUMPI DUP1 PUSH1 0x1F LT PUSH2 0xD2D JUMPI PUSH2 0x100 DUP1 DUP4 SLOAD DIV MUL DUP4 MSTORE SWAP2 PUSH1 0x20 ADD SWAP2 PUSH2 0xD58 JUMP JUMPDEST DUP3 ADD SWAP2 SWAP1 PUSH1 0x0 MSTORE PUSH1 0x20 PUSH1 0x0 KECCAK256 SWAP1 JUMPDEST DUP2 SLOAD DUP2 MSTORE SWAP1 PUSH1 0x1 ADD SWAP1 PUSH1 0x20 ADD DUP1 DUP4 GT PUSH2 0xD3B JUMPI DUP3 SWAP1 SUB PUSH1 0x1F AND DUP3 ADD SWAP2 JUMPDEST POP POP POP POP POP SWAP1 DUP1 PUSH1 0x2 ADD SLOAD SWAP1 POP DUP4 JUMP JUMPDEST PUSH1 0x0 PUSH1 0x7 SLOAD CALLVALUE PUSH2 0xD78 SWAP2 SWAP1 PUSH2 0x1BE9 JUMP JUMPDEST SWAP1 POP PUSH1 0x0 CALLVALUE GT PUSH2 0xD87 JUMPI PUSH1 0x0 DUP1 REVERT JUMPDEST PUSH1 0x8 SLOAD DUP2 GT ISZERO PUSH2 0xDCC JUMPI PUSH1 0x40 MLOAD PUSH32 0x8C379A000000000000000000000000000000000000000000000000000000000 DUP2 MSTORE PUSH1 0x4 ADD PUSH2 0xDC3 SWAP1 PUSH2 0x1AE6 JUMP JUMPDEST PUSH1 0x40 MLOAD DUP1 SWAP2 SUB SWAP1 REVERT JUMPDEST PUSH1 0x0 DUP1 SLOAD SWAP1 PUSH2 0x100 EXP SWAP1 DIV PUSH20 0xFFFFFFFFFFFFFFFFFFFFFFFFFFFFFFFFFFFFFFFF AND PUSH20 0xFFFFFFFFFFFFFFFFFFFFFFFFFFFFFFFFFFFFFFFF AND PUSH2 0x8FC CALLVALUE SWAP1 DUP2 ISZERO MUL SWAP1 PUSH1 0x40 MLOAD PUSH1 0x0 PUSH1 0x40 MLOAD DUP1 DUP4 SUB DUP2 DUP6 DUP9 DUP9 CALL SWAP4 POP POP POP POP ISZERO DUP1 ISZERO PUSH2 0xE32 JUMPI RETURNDATASIZE PUSH1 0x0 DUP1 RETURNDATACOPY RETURNDATASIZE PUSH1 0x0 REVERT JUMPDEST POP DUP1 PUSH1 0xD PUSH1 0x0 DUP1 PUSH1 0x0 SWAP1 SLOAD SWAP1 PUSH2 0x100 EXP SWAP1 DIV PUSH20 0xFFFFFFFFFFFFFFFFFFFFFFFFFFFFFFFFFFFFFFFF AND PUSH20 0xFFFFFFFFFFFFFFFFFFFFFFFFFFFFFFFFFFFFFFFF AND PUSH20 0xFFFFFFFFFFFFFFFFFFFFFFFFFFFFFFFFFFFFFFFF AND DUP2 MSTORE PUSH1 0x20 ADD SWAP1 DUP2 MSTORE PUSH1 0x20 ADD PUSH1 0x0 KECCAK256 PUSH1 0x0 DUP3 DUP3 SLOAD PUSH2 0xEA3 SWAP2 SWAP1 PUSH2 0x1C1A JUMP JUMPDEST SWAP3 POP POP DUP2 SWAP1 SSTORE POP DUP1 PUSH1 0xD PUSH1 0x0 CALLER PUSH20 0xFFFFFFFFFFFFFFFFFFFFFFFFFFFFFFFFFFFFFFFF AND PUSH20 0xFFFFFFFFFFFFFFFFFFFFFFFFFFFFFFFFFFFFFFFF AND DUP2 MSTORE PUSH1 0x20 ADD SWAP1 DUP2 MSTORE PUSH1 0x20 ADD PUSH1 0x0 KECCAK256 PUSH1 0x0 DUP3 DUP3 SLOAD PUSH2 0xEF9 SWAP2 SWAP1 PUSH2 0x1B93 JUMP JUMPDEST SWAP3 POP POP DUP2 SWAP1 SSTORE POP PUSH2 0xF09 CALLER PUSH2 0x1086 JUMP JUMPDEST POP JUMP JUMPDEST DUP1 PUSH1 0xD PUSH1 0x0 CALLER PUSH20 0xFFFFFFFFFFFFFFFFFFFFFFFFFFFFFFFFFFFFFFFF AND PUSH20 0xFFFFFFFFFFFFFFFFFFFFFFFFFFFFFFFFFFFFFFFF AND DUP2 MSTORE PUSH1 0x20 ADD SWAP1 DUP2 MSTORE PUSH1 0x20 ADD PUSH1 0x0 KECCAK256 SLOAD LT ISZERO PUSH2 0xF58 JUMPI PUSH1 0x0 DUP1 REVERT JUMPDEST PUSH1 0x0 DUP1 SLOAD SWAP1 PUSH2 0x100 EXP SWAP1 DIV PUSH20 0xFFFFFFFFFFFFFFFFFFFFFFFFFFFFFFFFFFFFFFFF AND PUSH20 0xFFFFFFFFFFFFFFFFFFFFFFFFFFFFFFFFFFFFFFFF AND CALLER PUSH20 0xFFFFFFFFFFFFFFFFFFFFFFFFFFFFFFFFFFFFFFFF AND EQ PUSH2 0xFB0 JUMPI PUSH1 0x0 DUP1 REVERT JUMPDEST DUP1 PUSH1 0xD PUSH1 0x0 CALLER PUSH20 0xFFFFFFFFFFFFFFFFFFFFFFFFFFFFFFFFFFFFFFFF AND PUSH20 0xFFFFFFFFFFFFFFFFFFFFFFFFFFFFFFFFFFFFFFFF AND DUP2 MSTORE PUSH1 0x20 ADD SWAP1 DUP2 MSTORE PUSH1 0x20 ADD PUSH1 0x0 KECCAK256 PUSH1 0x0 DUP3 DUP3 SLOAD PUSH2 0xFFF SWAP2 SWAP1 PUSH2 0x1C1A JUMP JUMPDEST SWAP3 POP POP DUP2 SWAP1 SSTORE POP DUP1 PUSH1 0xD PUSH1 0x0 DUP5 PUSH20 0xFFFFFFFFFFFFFFFFFFFFFFFFFFFFFFFFFFFFFFFF AND PUSH20 0xFFFFFFFFFFFFFFFFFFFFFFFFFFFFFFFFFFFFFFFF AND DUP2 MSTORE PUSH1 0x20 ADD SWAP1 DUP2 MSTORE PUSH1 0x20 ADD PUSH1 0x0 KECCAK256 PUSH1 0x0 DUP3 DUP3 SLOAD PUSH2 0x1055 SWAP2 SWAP1 PUSH2 0x1B93 JUMP JUMPDEST SWAP3 POP POP DUP2 SWAP1 SSTORE POP POP POP JUMP JUMPDEST PUSH1 0xE PUSH1 0x1 SWAP1 SLOAD SWAP1 PUSH2 0x100 EXP SWAP1 DIV PUSH20 0xFFFFFFFFFFFFFFFFFFFFFFFFFFFFFFFFFFFFFFFF AND DUP2 JUMP JUMPDEST PUSH2 0x108F DUP2 PUSH2 0x1599 JUMP JUMPDEST PUSH2 0x119E JUMPI PUSH1 0x0 PUSH1 0xC PUSH1 0x0 DUP4 PUSH20 0xFFFFFFFFFFFFFFFFFFFFFFFFFFFFFFFFFFFFFFFF AND PUSH20 0xFFFFFFFFFFFFFFFFFFFFFFFFFFFFFFFFFFFFFFFF AND DUP2 MSTORE PUSH1 0x20 ADD SWAP1 DUP2 MSTORE PUSH1 0x20 ADD PUSH1 0x0 KECCAK256 PUSH1 0x0 PUSH2 0x100 EXP DUP2 SLOAD DUP2 PUSH1 0xFF MUL NOT AND SWAP1 DUP4 ISZERO ISZERO MUL OR SWAP1 SSTORE POP PUSH1 0xB DUP2 SWAP1 DUP1 PUSH1 0x1 DUP2 SLOAD ADD DUP1 DUP3 SSTORE DUP1 SWAP2 POP POP PUSH1 0x1 SWAP1 SUB SWAP1 PUSH1 0x0 MSTORE PUSH1 0x20 PUSH1 0x0 KECCAK256 ADD PUSH1 0x0 SWAP1 SWAP2 SWAP1 SWAP2 SWAP1 SWAP2 PUSH2 0x100 EXP DUP2 SLOAD DUP2 PUSH20 0xFFFFFFFFFFFFFFFFFFFFFFFFFFFFFFFFFFFFFFFF MUL NOT AND SWAP1 DUP4 PUSH20 0xFFFFFFFFFFFFFFFFFFFFFFFFFFFFFFFFFFFFFFFF AND MUL OR SWAP1 SSTORE POP PUSH1 0x9 PUSH1 0x0 DUP2 SLOAD DUP1 SWAP3 SWAP2 SWAP1 PUSH2 0x1161 SWAP1 PUSH2 0x1D4D JUMP JUMPDEST SWAP2 SWAP1 POP SSTORE POP PUSH32 0x30040C92E8DA146AC410FB6841EA0F60AF3B8F3788E5E7354E48D97D018F39DD DUP2 PUSH1 0x40 MLOAD PUSH2 0x1195 SWAP2 SWAP1 PUSH2 0x1A2E JUMP JUMPDEST PUSH1 0x40 MLOAD DUP1 SWAP2 SUB SWAP1 LOG1 JUMPDEST POP JUMP JUMPDEST PUSH1 0x1 DUP1 PUSH1 0x2 DUP2 GT ISZERO PUSH2 0x11B6 JUMPI PUSH2 0x11B5 PUSH2 0x1DF4 JUMP JUMPDEST JUMPDEST PUSH1 0xE PUSH1 0x0 SWAP1 SLOAD SWAP1 PUSH2 0x100 EXP SWAP1 DIV PUSH1 0xFF AND PUSH1 0x2 DUP2 GT ISZERO PUSH2 0x11D8 JUMPI PUSH2 0x11D7 PUSH2 0x1DF4 JUMP JUMPDEST JUMPDEST EQ PUSH2 0x11E2 JUMPI PUSH1 0x0 DUP1 REVERT JUMPDEST PUSH1 0xE PUSH1 0x1 SWAP1 SLOAD SWAP1 PUSH2 0x100 EXP SWAP1 DIV PUSH20 0xFFFFFFFFFFFFFFFFFFFFFFFFFFFFFFFFFFFFFFFF AND PUSH20 0xFFFFFFFFFFFFFFFFFFFFFFFFFFFFFFFFFFFFFFFF AND CALLER PUSH20 0xFFFFFFFFFFFFFFFFFFFFFFFFFFFFFFFFFFFFFFFF AND EQ PUSH2 0x123C JUMPI PUSH1 0x0 DUP1 REVERT JUMPDEST PUSH1 0x2 PUSH1 0xE PUSH1 0x0 PUSH2 0x100 EXP DUP2 SLOAD DUP2 PUSH1 0xFF MUL NOT AND SWAP1 DUP4 PUSH1 0x2 DUP2 GT ISZERO PUSH2 0x1262 JUMPI PUSH2 0x1261 PUSH2 0x1DF4 JUMP JUMPDEST JUMPDEST MUL OR SWAP1 SSTORE POP PUSH1 0x11 SLOAD PUSH1 0x12 DUP2 SWAP1 SSTORE POP PUSH32 0xB43A401DCDBE02A8AFA41FEB6C651425997908D1A4B79CF505188BA1DD3FD872 PUSH1 0x12 SLOAD PUSH1 0x40 MLOAD PUSH2 0x12A1 SWAP2 SWAP1 PUSH2 0x1B06 JUMP JUMPDEST PUSH1 0x40 MLOAD DUP1 SWAP2 SUB SWAP1 LOG1 POP JUMP JUMPDEST PUSH1 0x0 DUP2 PUSH20 0xFFFFFFFFFFFFFFFFFFFFFFFFFFFFFFFFFFFFFFFF AND BALANCE SWAP1 POP SWAP2 SWAP1 POP JUMP JUMPDEST PUSH1 0x1 DUP1 PUSH1 0x0 ADD DUP1 SLOAD PUSH2 0x12DE SWAP1 PUSH2 0x1CEA JUMP JUMPDEST DUP1 PUSH1 0x1F ADD PUSH1 0x20 DUP1 SWAP2 DIV MUL PUSH1 0x20 ADD PUSH1 0x40 MLOAD SWAP1 DUP2 ADD PUSH1 0x40 MSTORE DUP1 SWAP3 SWAP2 SWAP1 DUP2 DUP2 MSTORE PUSH1 0x20 ADD DUP3 DUP1 SLOAD PUSH2 0x130A SWAP1 PUSH2 0x1CEA JUMP JUMPDEST DUP1 ISZERO PUSH2 0x1357 JUMPI DUP1 PUSH1 0x1F LT PUSH2 0x132C JUMPI PUSH2 0x100 DUP1 DUP4 SLOAD DIV MUL DUP4 MSTORE SWAP2 PUSH1 0x20 ADD SWAP2 PUSH2 0x1357 JUMP JUMPDEST DUP3 ADD SWAP2 SWAP1 PUSH1 0x0 MSTORE PUSH1 0x20 PUSH1 0x0 KECCAK256 SWAP1 JUMPDEST DUP2 SLOAD DUP2 MSTORE SWAP1 PUSH1 0x1 ADD SWAP1 PUSH1 0x20 ADD DUP1 DUP4 GT PUSH2 0x133A JUMPI DUP3 SWAP1 SUB PUSH1 0x1F AND DUP3 ADD SWAP2 JUMPDEST POP POP POP POP POP SWAP1 DUP1 PUSH1 0x1 ADD DUP1 SLOAD PUSH2 0x136C SWAP1 PUSH2 0x1CEA JUMP JUMPDEST DUP1 PUSH1 0x1F ADD PUSH1 0x20 DUP1 SWAP2 DIV MUL PUSH1 0x20 ADD PUSH1 0x40 MLOAD SWAP1 DUP2 ADD PUSH1 0x40 MSTORE DUP1 SWAP3 SWAP2 SWAP1 DUP2 DUP2 MSTORE PUSH1 0x20 ADD DUP3 DUP1 SLOAD PUSH2 0x1398 SWAP1 PUSH2 0x1CEA JUMP JUMPDEST DUP1 ISZERO PUSH2 0x13E5 JUMPI DUP1 PUSH1 0x1F LT PUSH2 0x13BA JUMPI PUSH2 0x100 DUP1 DUP4 SLOAD DIV MUL DUP4 MSTORE SWAP2 PUSH1 0x20 ADD SWAP2 PUSH2 0x13E5 JUMP JUMPDEST DUP3 ADD SWAP2 SWAP1 PUSH1 0x0 MSTORE PUSH1 0x20 PUSH1 0x0 KECCAK256 SWAP1 JUMPDEST DUP2 SLOAD DUP2 MSTORE SWAP1 PUSH1 0x1 ADD SWAP1 PUSH1 0x20 ADD DUP1 DUP4 GT PUSH2 0x13C8 JUMPI DUP3 SWAP1 SUB PUSH1 0x1F AND DUP3 ADD SWAP2 JUMPDEST POP POP POP POP POP SWAP1 DUP1 PUSH1 0x2 ADD SLOAD SWAP1 POP DUP4 JUMP JUMPDEST PUSH1 0x0 DUP1 SLOAD SWAP1 PUSH2 0x100 EXP SWAP1 DIV PUSH20 0xFFFFFFFFFFFFFFFFFFFFFFFFFFFFFFFFFFFFFFFF AND PUSH20 0xFFFFFFFFFFFFFFFFFFFFFFFFFFFFFFFFFFFFFFFF AND CALLER PUSH20 0xFFFFFFFFFFFFFFFFFFFFFFFFFFFFFFFFFFFFFFFF AND EQ PUSH2 0x144D JUMPI PUSH1 0x0 DUP1 REVERT JUMPDEST PUSH1 0x0 DUP1 PUSH1 0x1 DUP2 GT ISZERO PUSH2 0x1462 JUMPI PUSH2 0x1461 PUSH2 0x1DF4 JUMP JUMPDEST JUMPDEST PUSH1 0xA PUSH1 0x0 SWAP1 SLOAD SWAP1 PUSH2 0x100 EXP SWAP1 DIV PUSH1 0xFF AND PUSH1 0x1 DUP2 GT ISZERO PUSH2 0x1484 JUMPI PUSH2 0x1483 PUSH2 0x1DF4 JUMP JUMPDEST JUMPDEST EQ PUSH2 0x148E JUMPI PUSH1 0x0 DUP1 REVERT JUMPDEST PUSH1 0x0 PUSH1 0x40 MLOAD DUP1 PUSH1 0x60 ADD PUSH1 0x40 MSTORE DUP1 DUP7 DUP2 MSTORE PUSH1 0x20 ADD DUP6 DUP2 MSTORE PUSH1 0x20 ADD DUP5 DUP2 MSTORE POP SWAP1 POP DUP3 PUSH1 0x1 PUSH1 0x2 ADD PUSH1 0x0 DUP3 DUP3 SLOAD PUSH2 0x14C2 SWAP2 SWAP1 PUSH2 0x1B93 JUMP JUMPDEST SWAP3 POP POP DUP2 SWAP1 SSTORE POP PUSH1 0x4 DUP2 SWAP1 DUP1 PUSH1 0x1 DUP2 SLOAD ADD DUP1 DUP3 SSTORE DUP1 SWAP2 POP POP PUSH1 0x1 SWAP1 SUB SWAP1 PUSH1 0x0 MSTORE PUSH1 0x20 PUSH1 0x0 KECCAK256 SWAP1 PUSH1 0x3 MUL ADD PUSH1 0x0 SWAP1 SWAP2 SWAP1 SWAP2 SWAP1 SWAP2 POP PUSH1 0x0 DUP3 ADD MLOAD DUP2 PUSH1 0x0 ADD SWAP1 DUP1 MLOAD SWAP1 PUSH1 0x20 ADD SWAP1 PUSH2 0x1511 SWAP3 SWAP2 SWAP1 PUSH2 0x1648 JUMP JUMPDEST POP PUSH1 0x20 DUP3 ADD MLOAD DUP2 PUSH1 0x1 ADD SWAP1 DUP1 MLOAD SWAP1 PUSH1 0x20 ADD SWAP1 PUSH2 0x152E SWAP3 SWAP2 SWAP1 PUSH2 0x1648 JUMP JUMPDEST POP PUSH1 0x40 DUP3 ADD MLOAD DUP2 PUSH1 0x2 ADD SSTORE POP POP PUSH1 0x1 PUSH1 0x5 PUSH1 0x0 DUP3 DUP3 SLOAD PUSH2 0x154E SWAP2 SWAP1 PUSH2 0x1B93 JUMP JUMPDEST SWAP3 POP POP DUP2 SWAP1 SSTORE POP PUSH32 0x4578FE17EAAB41AE382ABE3462BB0CF04BCFEE4168D2AAD3CE9D5D225D0E27F6 DUP6 PUSH1 0x40 MLOAD PUSH2 0x1584 SWAP2 SWAP1 PUSH2 0x1A7F JUMP JUMPDEST PUSH1 0x40 MLOAD DUP1 SWAP2 SUB SWAP1 LOG1 POP POP POP POP POP JUMP JUMPDEST PUSH1 0x12 SLOAD DUP2 JUMP JUMPDEST PUSH1 0x0 DUP1 PUSH1 0x0 SWAP1 POP JUMPDEST PUSH1 0xB DUP1 SLOAD SWAP1 POP DUP2 LT ISZERO PUSH2 0x163D JUMPI DUP3 PUSH20 0xFFFFFFFFFFFFFFFFFFFFFFFFFFFFFFFFFFFFFFFF AND PUSH1 0xB DUP3 DUP2 SLOAD DUP2 LT PUSH2 0x15D9 JUMPI PUSH2 0x15D8 PUSH2 0x1E52 JUMP JUMPDEST JUMPDEST SWAP1 PUSH1 0x0 MSTORE PUSH1 0x20 PUSH1 0x0 KECCAK256 ADD PUSH1 0x0 SWAP1 SLOAD SWAP1 PUSH2 0x100 EXP SWAP1 DIV PUSH20 0xFFFFFFFFFFFFFFFFFFFFFFFFFFFFFFFFFFFFFFFF AND PUSH20 0xFFFFFFFFFFFFFFFFFFFFFFFFFFFFFFFFFFFFFFFF AND EQ ISZERO PUSH2 0x162A JUMPI PUSH1 0x1 SWAP2 POP POP PUSH2 0x1643 JUMP JUMPDEST DUP1 DUP1 PUSH2 0x1635 SWAP1 PUSH2 0x1D4D JUMP JUMPDEST SWAP2 POP POP PUSH2 0x15A1 JUMP JUMPDEST POP PUSH1 0x0 SWAP1 POP JUMPDEST SWAP2 SWAP1 POP JUMP JUMPDEST DUP3 DUP1 SLOAD PUSH2 0x1654 SWAP1 PUSH2 0x1CEA JUMP JUMPDEST SWAP1 PUSH1 0x0 MSTORE PUSH1 0x20 PUSH1 0x0 KECCAK256 SWAP1 PUSH1 0x1F ADD PUSH1 0x20 SWAP1 DIV DUP2 ADD SWAP3 DUP3 PUSH2 0x1676 JUMPI PUSH1 0x0 DUP6 SSTORE PUSH2 0x16BD JUMP JUMPDEST DUP3 PUSH1 0x1F LT PUSH2 0x168F JUMPI DUP1 MLOAD PUSH1 0xFF NOT AND DUP4 DUP1 ADD OR DUP6 SSTORE PUSH2 0x16BD JUMP JUMPDEST DUP3 DUP1 ADD PUSH1 0x1 ADD DUP6 SSTORE DUP3 ISZERO PUSH2 0x16BD JUMPI SWAP2 DUP3 ADD JUMPDEST DUP3 DUP2 GT ISZERO PUSH2 0x16BC JUMPI DUP3 MLOAD DUP3 SSTORE SWAP2 PUSH1 0x20 ADD SWAP2 SWAP1 PUSH1 0x1 ADD SWAP1 PUSH2 0x16A1 JUMP JUMPDEST JUMPDEST POP SWAP1 POP PUSH2 0x16CA SWAP2 SWAP1 PUSH2 0x1700 JUMP JUMPDEST POP SWAP1 JUMP JUMPDEST PUSH1 0x40 MLOAD DUP1 PUSH1 0x40 ADD PUSH1 0x40 MSTORE DUP1 PUSH1 0x0 PUSH20 0xFFFFFFFFFFFFFFFFFFFFFFFFFFFFFFFFFFFFFFFF AND DUP2 MSTORE PUSH1 0x20 ADD PUSH1 0x0 ISZERO ISZERO DUP2 MSTORE POP SWAP1 JUMP JUMPDEST JUMPDEST DUP1 DUP3 GT ISZERO PUSH2 0x1719 JUMPI PUSH1 0x0 DUP2 PUSH1 0x0 SWAP1 SSTORE POP PUSH1 0x1 ADD PUSH2 0x1701 JUMP JUMPDEST POP SWAP1 JUMP JUMPDEST PUSH1 0x0 PUSH2 0x1730 PUSH2 0x172B DUP5 PUSH2 0x1B46 JUMP JUMPDEST PUSH2 0x1B21 JUMP JUMPDEST SWAP1 POP DUP3 DUP2 MSTORE PUSH1 0x20 DUP2 ADD DUP5 DUP5 DUP5 ADD GT ISZERO PUSH2 0x174C JUMPI PUSH2 0x174B PUSH2 0x1EB5 JUMP JUMPDEST JUMPDEST PUSH2 0x1757 DUP5 DUP3 DUP6 PUSH2 0x1CA8 JUMP JUMPDEST POP SWAP4 SWAP3 POP POP POP JUMP JUMPDEST PUSH1 0x0 DUP2 CALLDATALOAD SWAP1 POP PUSH2 0x176E DUP2 PUSH2 0x1F24 JUMP JUMPDEST SWAP3 SWAP2 POP POP JUMP JUMPDEST PUSH1 0x0 DUP2 CALLDATALOAD SWAP1 POP PUSH2 0x1783 DUP2 PUSH2 0x1F3B JUMP JUMPDEST SWAP3 SWAP2 POP POP JUMP JUMPDEST PUSH1 0x0 DUP3 PUSH1 0x1F DUP4 ADD SLT PUSH2 0x179E JUMPI PUSH2 0x179D PUSH2 0x1EB0 JUMP JUMPDEST JUMPDEST DUP2 CALLDATALOAD PUSH2 0x17AE DUP5 DUP3 PUSH1 0x20 DUP7 ADD PUSH2 0x171D JUMP JUMPDEST SWAP2 POP POP SWAP3 SWAP2 POP POP JUMP JUMPDEST PUSH1 0x0 DUP2 CALLDATALOAD SWAP1 POP PUSH2 0x17C6 DUP2 PUSH2 0x1F52 JUMP JUMPDEST SWAP3 SWAP2 POP POP JUMP JUMPDEST PUSH1 0x0 PUSH1 0x20 DUP3 DUP5 SUB SLT ISZERO PUSH2 0x17E2 JUMPI PUSH2 0x17E1 PUSH2 0x1EBF JUMP JUMPDEST JUMPDEST PUSH1 0x0 PUSH2 0x17F0 DUP5 DUP3 DUP6 ADD PUSH2 0x175F JUMP JUMPDEST SWAP2 POP POP SWAP3 SWAP2 POP POP JUMP JUMPDEST PUSH1 0x0 DUP1 PUSH1 0x40 DUP4 DUP6 SUB SLT ISZERO PUSH2 0x1810 JUMPI PUSH2 0x180F PUSH2 0x1EBF JUMP JUMPDEST JUMPDEST PUSH1 0x0 PUSH2 0x181E DUP6 DUP3 DUP7 ADD PUSH2 0x175F JUMP JUMPDEST SWAP3 POP POP PUSH1 0x20 PUSH2 0x182F DUP6 DUP3 DUP7 ADD PUSH2 0x17B7 JUMP JUMPDEST SWAP2 POP POP SWAP3 POP SWAP3 SWAP1 POP JUMP JUMPDEST PUSH1 0x0 PUSH1 0x20 DUP3 DUP5 SUB SLT ISZERO PUSH2 0x184F JUMPI PUSH2 0x184E PUSH2 0x1EBF JUMP JUMPDEST JUMPDEST PUSH1 0x0 PUSH2 0x185D DUP5 DUP3 DUP6 ADD PUSH2 0x1774 JUMP JUMPDEST SWAP2 POP POP SWAP3 SWAP2 POP POP JUMP JUMPDEST PUSH1 0x0 DUP1 PUSH1 0x40 DUP4 DUP6 SUB SLT ISZERO PUSH2 0x187D JUMPI PUSH2 0x187C PUSH2 0x1EBF JUMP JUMPDEST JUMPDEST PUSH1 0x0 DUP4 ADD CALLDATALOAD PUSH8 0xFFFFFFFFFFFFFFFF DUP2 GT ISZERO PUSH2 0x189B JUMPI PUSH2 0x189A PUSH2 0x1EBA JUMP JUMPDEST JUMPDEST PUSH2 0x18A7 DUP6 DUP3 DUP7 ADD PUSH2 0x1789 JUMP JUMPDEST SWAP3 POP POP PUSH1 0x20 DUP4 ADD CALLDATALOAD PUSH8 0xFFFFFFFFFFFFFFFF DUP2 GT ISZERO PUSH2 0x18C8 JUMPI PUSH2 0x18C7 PUSH2 0x1EBA JUMP JUMPDEST JUMPDEST PUSH2 0x18D4 DUP6 DUP3 DUP7 ADD PUSH2 0x1789 JUMP JUMPDEST SWAP2 POP POP SWAP3 POP SWAP3 SWAP1 POP JUMP JUMPDEST PUSH1 0x0 DUP1 PUSH1 0x0 PUSH1 0x60 DUP5 DUP7 SUB SLT ISZERO PUSH2 0x18F7 JUMPI PUSH2 0x18F6 PUSH2 0x1EBF JUMP JUMPDEST JUMPDEST PUSH1 0x0 DUP5 ADD CALLDATALOAD PUSH8 0xFFFFFFFFFFFFFFFF DUP2 GT ISZERO PUSH2 0x1915 JUMPI PUSH2 0x1914 PUSH2 0x1EBA JUMP JUMPDEST JUMPDEST PUSH2 0x1921 DUP7 DUP3 DUP8 ADD PUSH2 0x1789 JUMP JUMPDEST SWAP4 POP POP PUSH1 0x20 DUP5 ADD CALLDATALOAD PUSH8 0xFFFFFFFFFFFFFFFF DUP2 GT ISZERO PUSH2 0x1942 JUMPI PUSH2 0x1941 PUSH2 0x1EBA JUMP JUMPDEST JUMPDEST PUSH2 0x194E DUP7 DUP3 DUP8 ADD PUSH2 0x1789 JUMP JUMPDEST SWAP3 POP POP PUSH1 0x40 PUSH2 0x195F DUP7 DUP3 DUP8 ADD PUSH2 0x17B7 JUMP JUMPDEST SWAP2 POP POP SWAP3 POP SWAP3 POP SWAP3 JUMP JUMPDEST PUSH1 0x0 PUSH1 0x20 DUP3 DUP5 SUB SLT ISZERO PUSH2 0x197F JUMPI PUSH2 0x197E PUSH2 0x1EBF JUMP JUMPDEST JUMPDEST PUSH1 0x0 PUSH2 0x198D DUP5 DUP3 DUP6 ADD PUSH2 0x17B7 JUMP JUMPDEST SWAP2 POP POP SWAP3 SWAP2 POP POP JUMP JUMPDEST PUSH2 0x199F DUP2 PUSH2 0x1C60 JUMP JUMPDEST DUP3 MSTORE POP POP JUMP JUMPDEST PUSH2 0x19AE DUP2 PUSH2 0x1C4E JUMP JUMPDEST DUP3 MSTORE POP POP JUMP JUMPDEST PUSH2 0x19BD DUP2 PUSH2 0x1C72 JUMP JUMPDEST DUP3 MSTORE POP POP JUMP JUMPDEST PUSH1 0x0 PUSH2 0x19CE DUP3 PUSH2 0x1B77 JUMP JUMPDEST PUSH2 0x19D8 DUP2 DUP6 PUSH2 0x1B82 JUMP JUMPDEST SWAP4 POP PUSH2 0x19E8 DUP2 DUP6 PUSH1 0x20 DUP7 ADD PUSH2 0x1CB7 JUMP JUMPDEST PUSH2 0x19F1 DUP2 PUSH2 0x1EC4 JUMP JUMPDEST DUP5 ADD SWAP2 POP POP SWAP3 SWAP2 POP POP JUMP JUMPDEST PUSH1 0x0 PUSH2 0x1A09 PUSH1 0x23 DUP4 PUSH2 0x1B82 JUMP JUMPDEST SWAP2 POP PUSH2 0x1A14 DUP3 PUSH2 0x1ED5 JUMP JUMPDEST PUSH1 0x40 DUP3 ADD SWAP1 POP SWAP2 SWAP1 POP JUMP JUMPDEST PUSH2 0x1A28 DUP2 PUSH2 0x1C9E JUMP JUMPDEST DUP3 MSTORE POP POP JUMP JUMPDEST PUSH1 0x0 PUSH1 0x20 DUP3 ADD SWAP1 POP PUSH2 0x1A43 PUSH1 0x0 DUP4 ADD DUP5 PUSH2 0x19A5 JUMP JUMPDEST SWAP3 SWAP2 POP POP JUMP JUMPDEST PUSH1 0x0 PUSH1 0x20 DUP3 ADD SWAP1 POP PUSH2 0x1A5E PUSH1 0x0 DUP4 ADD DUP5 PUSH2 0x1996 JUMP JUMPDEST SWAP3 SWAP2 POP POP JUMP JUMPDEST PUSH1 0x0 PUSH1 0x20 DUP3 ADD SWAP1 POP PUSH2 0x1A79 PUSH1 0x0 DUP4 ADD DUP5 PUSH2 0x19B4 JUMP JUMPDEST SWAP3 SWAP2 POP POP JUMP JUMPDEST PUSH1 0x0 PUSH1 0x20 DUP3 ADD SWAP1 POP DUP2 DUP2 SUB PUSH1 0x0 DUP4 ADD MSTORE PUSH2 0x1A99 DUP2 DUP5 PUSH2 0x19C3 JUMP JUMPDEST SWAP1 POP SWAP3 SWAP2 POP POP JUMP JUMPDEST PUSH1 0x0 PUSH1 0x60 DUP3 ADD SWAP1 POP DUP2 DUP2 SUB PUSH1 0x0 DUP4 ADD MSTORE PUSH2 0x1ABB DUP2 DUP7 PUSH2 0x19C3 JUMP JUMPDEST SWAP1 POP DUP2 DUP2 SUB PUSH1 0x20 DUP4 ADD MSTORE PUSH2 0x1ACF DUP2 DUP6 PUSH2 0x19C3 JUMP JUMPDEST SWAP1 POP PUSH2 0x1ADE PUSH1 0x40 DUP4 ADD DUP5 PUSH2 0x1A1F JUMP JUMPDEST SWAP5 SWAP4 POP POP POP POP JUMP JUMPDEST PUSH1 0x0 PUSH1 0x20 DUP3 ADD SWAP1 POP DUP2 DUP2 SUB PUSH1 0x0 DUP4 ADD MSTORE PUSH2 0x1AFF DUP2 PUSH2 0x19FC JUMP JUMPDEST SWAP1 POP SWAP2 SWAP1 POP JUMP JUMPDEST PUSH1 0x0 PUSH1 0x20 DUP3 ADD SWAP1 POP PUSH2 0x1B1B PUSH1 0x0 DUP4 ADD DUP5 PUSH2 0x1A1F JUMP JUMPDEST SWAP3 SWAP2 POP POP JUMP JUMPDEST PUSH1 0x0 PUSH2 0x1B2B PUSH2 0x1B3C JUMP JUMPDEST SWAP1 POP PUSH2 0x1B37 DUP3 DUP3 PUSH2 0x1D1C JUMP JUMPDEST SWAP2 SWAP1 POP JUMP JUMPDEST PUSH1 0x0 PUSH1 0x40 MLOAD SWAP1 POP SWAP1 JUMP JUMPDEST PUSH1 0x0 PUSH8 0xFFFFFFFFFFFFFFFF DUP3 GT ISZERO PUSH2 0x1B61 JUMPI PUSH2 0x1B60 PUSH2 0x1E81 JUMP JUMPDEST JUMPDEST PUSH2 0x1B6A DUP3 PUSH2 0x1EC4 JUMP JUMPDEST SWAP1 POP PUSH1 0x20 DUP2 ADD SWAP1 POP SWAP2 SWAP1 POP JUMP JUMPDEST PUSH1 0x0 DUP2 MLOAD SWAP1 POP SWAP2 SWAP1 POP JUMP JUMPDEST PUSH1 0x0 DUP3 DUP3 MSTORE PUSH1 0x20 DUP3 ADD SWAP1 POP SWAP3 SWAP2 POP POP JUMP JUMPDEST PUSH1 0x0 PUSH2 0x1B9E DUP3 PUSH2 0x1C9E JUMP JUMPDEST SWAP2 POP PUSH2 0x1BA9 DUP4 PUSH2 0x1C9E JUMP JUMPDEST SWAP3 POP DUP3 PUSH32 0xFFFFFFFFFFFFFFFFFFFFFFFFFFFFFFFFFFFFFFFFFFFFFFFFFFFFFFFFFFFFFFFF SUB DUP3 GT ISZERO PUSH2 0x1BDE JUMPI PUSH2 0x1BDD PUSH2 0x1D96 JUMP JUMPDEST JUMPDEST DUP3 DUP3 ADD SWAP1 POP SWAP3 SWAP2 POP POP JUMP JUMPDEST PUSH1 0x0 PUSH2 0x1BF4 DUP3 PUSH2 0x1C9E JUMP JUMPDEST SWAP2 POP PUSH2 0x1BFF DUP4 PUSH2 0x1C9E JUMP JUMPDEST SWAP3 POP DUP3 PUSH2 0x1C0F JUMPI PUSH2 0x1C0E PUSH2 0x1DC5 JUMP JUMPDEST JUMPDEST DUP3 DUP3 DIV SWAP1 POP SWAP3 SWAP2 POP POP JUMP JUMPDEST PUSH1 0x0 PUSH2 0x1C25 DUP3 PUSH2 0x1C9E JUMP JUMPDEST SWAP2 POP PUSH2 0x1C30 DUP4 PUSH2 0x1C9E JUMP JUMPDEST SWAP3 POP DUP3 DUP3 LT ISZERO PUSH2 0x1C43 JUMPI PUSH2 0x1C42 PUSH2 0x1D96 JUMP JUMPDEST JUMPDEST DUP3 DUP3 SUB SWAP1 POP SWAP3 SWAP2 POP POP JUMP JUMPDEST PUSH1 0x0 PUSH2 0x1C59 DUP3 PUSH2 0x1C7E JUMP JUMPDEST SWAP1 POP SWAP2 SWAP1 POP JUMP JUMPDEST PUSH1 0x0 PUSH2 0x1C6B DUP3 PUSH2 0x1C7E JUMP JUMPDEST SWAP1 POP SWAP2 SWAP1 POP JUMP JUMPDEST PUSH1 0x0 DUP2 ISZERO ISZERO SWAP1 POP SWAP2 SWAP1 POP JUMP JUMPDEST PUSH1 0x0 PUSH20 0xFFFFFFFFFFFFFFFFFFFFFFFFFFFFFFFFFFFFFFFF DUP3 AND SWAP1 POP SWAP2 SWAP1 POP JUMP JUMPDEST PUSH1 0x0 DUP2 SWAP1 POP SWAP2 SWAP1 POP JUMP JUMPDEST DUP3 DUP2 DUP4 CALLDATACOPY PUSH1 0x0 DUP4 DUP4 ADD MSTORE POP POP POP JUMP JUMPDEST PUSH1 0x0 JUMPDEST DUP4 DUP2 LT ISZERO PUSH2 0x1CD5 JUMPI DUP1 DUP3 ADD MLOAD DUP2 DUP5 ADD MSTORE PUSH1 0x20 DUP2 ADD SWAP1 POP PUSH2 0x1CBA JUMP JUMPDEST DUP4 DUP2 GT ISZERO PUSH2 0x1CE4 JUMPI PUSH1 0x0 DUP5 DUP5 ADD MSTORE JUMPDEST POP POP POP POP JUMP JUMPDEST PUSH1 0x0 PUSH1 0x2 DUP3 DIV SWAP1 POP PUSH1 0x1 DUP3 AND DUP1 PUSH2 0x1D02 JUMPI PUSH1 0x7F DUP3 AND SWAP2 POP JUMPDEST PUSH1 0x20 DUP3 LT DUP2 EQ ISZERO PUSH2 0x1D16 JUMPI PUSH2 0x1D15 PUSH2 0x1E23 JUMP JUMPDEST JUMPDEST POP SWAP2 SWAP1 POP JUMP JUMPDEST PUSH2 0x1D25 DUP3 PUSH2 0x1EC4 JUMP JUMPDEST DUP2 ADD DUP2 DUP2 LT PUSH8 0xFFFFFFFFFFFFFFFF DUP3 GT OR ISZERO PUSH2 0x1D44 JUMPI PUSH2 0x1D43 PUSH2 0x1E81 JUMP JUMPDEST JUMPDEST DUP1 PUSH1 0x40 MSTORE POP POP POP JUMP JUMPDEST PUSH1 0x0 PUSH2 0x1D58 DUP3 PUSH2 0x1C9E JUMP JUMPDEST SWAP2 POP PUSH32 0xFFFFFFFFFFFFFFFFFFFFFFFFFFFFFFFFFFFFFFFFFFFFFFFFFFFFFFFFFFFFFFFF DUP3 EQ ISZERO PUSH2 0x1D8B JUMPI PUSH2 0x1D8A PUSH2 0x1D96 JUMP JUMPDEST JUMPDEST PUSH1 0x1 DUP3 ADD SWAP1 POP SWAP2 SWAP1 POP JUMP JUMPDEST PUSH32 0x4E487B7100000000000000000000000000000000000000000000000000000000 PUSH1 0x0 MSTORE PUSH1 0x11 PUSH1 0x4 MSTORE PUSH1 0x24 PUSH1 0x0 REVERT JUMPDEST PUSH32 0x4E487B7100000000000000000000000000000000000000000000000000000000 PUSH1 0x0 MSTORE PUSH1 0x12 PUSH1 0x4 MSTORE PUSH1 0x24 PUSH1 0x0 REVERT JUMPDEST PUSH32 0x4E487B7100000000000000000000000000000000000000000000000000000000 PUSH1 0x0 MSTORE PUSH1 0x21 PUSH1 0x4 MSTORE PUSH1 0x24 PUSH1 0x0 REVERT JUMPDEST PUSH32 0x4E487B7100000000000000000000000000000000000000000000000000000000 PUSH1 0x0 MSTORE PUSH1 0x22 PUSH1 0x4 MSTORE PUSH1 0x24 PUSH1 0x0 REVERT JUMPDEST PUSH32 0x4E487B7100000000000000000000000000000000000000000000000000000000 PUSH1 0x0 MSTORE PUSH1 0x32 PUSH1 0x4 MSTORE PUSH1 0x24 PUSH1 0x0 REVERT JUMPDEST PUSH32 0x4E487B7100000000000000000000000000000000000000000000000000000000 PUSH1 0x0 MSTORE PUSH1 0x41 PUSH1 0x4 MSTORE PUSH1 0x24 PUSH1 0x0 REVERT JUMPDEST PUSH1 0x0 DUP1 REVERT JUMPDEST PUSH1 0x0 DUP1 REVERT JUMPDEST PUSH1 0x0 DUP1 REVERT JUMPDEST PUSH1 0x0 DUP1 REVERT JUMPDEST PUSH1 0x0 PUSH1 0x1F NOT PUSH1 0x1F DUP4 ADD AND SWAP1 POP SWAP2 SWAP1 POP JUMP JUMPDEST PUSH32 0x4E756D626572206F662073686172657320657863656564656420746865206C69 PUSH1 0x0 DUP3 ADD MSTORE PUSH32 0x6D69740000000000000000000000000000000000000000000000000000000000 PUSH1 0x20 DUP3 ADD MSTORE POP JUMP JUMPDEST PUSH2 0x1F2D DUP2 PUSH2 0x1C4E JUMP JUMPDEST DUP2 EQ PUSH2 0x1F38 JUMPI PUSH1 0x0 DUP1 REVERT JUMPDEST POP JUMP JUMPDEST PUSH2 0x1F44 DUP2 PUSH2 0x1C72 JUMP JUMPDEST DUP2 EQ PUSH2 0x1F4F JUMPI PUSH1 0x0 DUP1 REVERT JUMPDEST POP JUMP JUMPDEST PUSH2 0x1F5B DUP2 PUSH2 0x1C9E JUMP JUMPDEST DUP2 EQ PUSH2 0x1F66 JUMPI PUSH1 0x0 DUP1 REVERT JUMPDEST POP JUMP INVALID LOG2 PUSH5 0x6970667358 0x22 SLT KECCAK256 0x5F 0xBE CALLCODE 0xD7 PUSH30 0xC3F70D7AACA03E6A4407489E0B1852BAD0346A4582AE95F51128DB64736F PUSH13 0x63430008070033000000000000 "
				},
				"gasEstimates": {
					"creation": {
						"codeDepositCost": "1619000",
						"executionCost": "infinite",
						"totalCost": "infinite"
					},
					"external": {
						"addHouse(string,string,uint256)": "infinite",
						"addShareHolder(address)": "infinite",
						"balances(address)": "2904",
						"ballotInitiator()": "2609",
						"ballotName()": "infinite",
						"buy()": "infinite",
						"createBallot(string,string)": "infinite",
						"doVote(bool)": "infinite",
						"endVote()": "56461",
						"etherBalance(address)": "3301",
						"finalResult()": "2539",
						"houseRegister(uint256)": "infinite",
						"hp()": "infinite",
						"owner()": "2556",
						"proposal()": "infinite",
						"shareHolderRegistry(address)": "2935",
						"shareHolders(uint256)": "5023",
						"shareLimit()": "2475",
						"startTrading()": "26710",
						"startVote()": "29712",
						"tokenPrice()": "2540",
						"totalHouses()": "2475",
						"totalShareHolders()": "2496",
						"totalShares()": "2563",
						"totalVotes()": "2453",
						"transfer(address,uint256)": "infinite"
					},
					"internal": {
						"contains(address)": "infinite"
					}
				},
				"methodIdentifiers": {
					"addHouse(string,string,uint256)": "df094409",
					"addShareHolder(address)": "af769c64",
					"balances(address)": "27e235e3",
					"ballotInitiator()": "ad349442",
					"ballotName()": "1b26586c",
					"buy()": "a6f2ae3a",
					"createBallot(string,string)": "6fa4f103",
					"doVote(bool)": "87caea78",
					"endVote()": "b9223946",
					"etherBalance(address)": "cd0c5896",
					"finalResult()": "f3a8286f",
					"houseRegister(uint256)": "a14ba987",
					"hp()": "d8124c5f",
					"owner()": "8da5cb5b",
					"proposal()": "753ec103",
					"shareHolderRegistry(address)": "59ea0173",
					"shareHolders(uint256)": "7427a40c",
					"shareLimit()": "3be75aa3",
					"startTrading()": "293230b8",
					"startVote()": "4c0a6af0",
					"tokenPrice()": "7ff9b596",
					"totalHouses()": "162d8afb",
					"totalShareHolders()": "9a982416",
					"totalShares()": "3a98ef39",
					"totalVotes()": "0d15fd77",
					"transfer(address,uint256)": "a9059cbb"
				}
			},
			"storageLayout": {
				"storage": [
					{
						"astId": 3,
						"contract": "MyHomeToken.sol:MyHomesToken",
						"label": "owner",
						"offset": 0,
						"slot": "0",
						"type": "t_address_payable"
					},
					{
						"astId": 6,
						"contract": "MyHomeToken.sol:MyHomesToken",
						"label": "hp",
						"offset": 0,
						"slot": "1",
						"type": "t_struct(HousingPackage)122_storage"
					},
					{
						"astId": 10,
						"contract": "MyHomeToken.sol:MyHomesToken",
						"label": "houseRegister",
						"offset": 0,
						"slot": "4",
						"type": "t_array(t_struct(House)115_storage)dyn_storage"
					},
					{
						"astId": 13,
						"contract": "MyHomeToken.sol:MyHomesToken",
						"label": "totalHouses",
						"offset": 0,
						"slot": "5",
						"type": "t_uint256"
					},
					{
						"astId": 16,
						"contract": "MyHomeToken.sol:MyHomesToken",
						"label": "totalShares",
						"offset": 0,
						"slot": "6",
						"type": "t_uint256"
					},
					{
						"astId": 19,
						"contract": "MyHomeToken.sol:MyHomesToken",
						"label": "tokenPrice",
						"offset": 0,
						"slot": "7",
						"type": "t_uint256"
					},
					{
						"astId": 22,
						"contract": "MyHomeToken.sol:MyHomesToken",
						"label": "shareLimit",
						"offset": 0,
						"slot": "8",
						"type": "t_uint256"
					},
					{
						"astId": 25,
						"contract": "MyHomeToken.sol:MyHomesToken",
						"label": "totalShareHolders",
						"offset": 0,
						"slot": "9",
						"type": "t_uint256"
					},
					{
						"astId": 28,
						"contract": "MyHomeToken.sol:MyHomesToken",
						"label": "state",
						"offset": 0,
						"slot": "10",
						"type": "t_enum(State)200"
					},
					{
						"astId": 31,
						"contract": "MyHomeToken.sol:MyHomesToken",
						"label": "shareHolders",
						"offset": 0,
						"slot": "11",
						"type": "t_array(t_address)dyn_storage"
					},
					{
						"astId": 35,
						"contract": "MyHomeToken.sol:MyHomesToken",
						"label": "shareHolderRegistry",
						"offset": 0,
						"slot": "12",
						"type": "t_mapping(t_address,t_bool)"
					},
					{
						"astId": 39,
						"contract": "MyHomeToken.sol:MyHomesToken",
						"label": "balances",
						"offset": 0,
						"slot": "13",
						"type": "t_mapping(t_address,t_uint256)"
					},
					{
						"astId": 42,
						"contract": "MyHomeToken.sol:MyHomesToken",
						"label": "ballotState",
						"offset": 0,
						"slot": "14",
						"type": "t_enum(BallotState)197"
					},
					{
						"astId": 44,
						"contract": "MyHomeToken.sol:MyHomesToken",
						"label": "ballotInitiator",
						"offset": 1,
						"slot": "14",
						"type": "t_address"
					},
					{
						"astId": 46,
						"contract": "MyHomeToken.sol:MyHomesToken",
						"label": "ballotName",
						"offset": 0,
						"slot": "15",
						"type": "t_string_storage"
					},
					{
						"astId": 48,
						"contract": "MyHomeToken.sol:MyHomesToken",
						"label": "proposal",
						"offset": 0,
						"slot": "16",
						"type": "t_string_storage"
					},
					{
						"astId": 51,
						"contract": "MyHomeToken.sol:MyHomesToken",
						"label": "resultCount",
						"offset": 0,
						"slot": "17",
						"type": "t_uint256"
					},
					{
						"astId": 54,
						"contract": "MyHomeToken.sol:MyHomesToken",
						"label": "finalResult",
						"offset": 0,
						"slot": "18",
						"type": "t_uint256"
					},
					{
						"astId": 57,
						"contract": "MyHomeToken.sol:MyHomesToken",
						"label": "totalVotes",
						"offset": 0,
						"slot": "19",
						"type": "t_uint256"
					},
					{
						"astId": 62,
						"contract": "MyHomeToken.sol:MyHomesToken",
						"label": "votes",
						"offset": 0,
						"slot": "20",
						"type": "t_mapping(t_uint256,t_struct(Vote)127_storage)"
					}
				],
				"types": {
					"t_address": {
						"encoding": "inplace",
						"label": "address",
						"numberOfBytes": "20"
					},
					"t_address_payable": {
						"encoding": "inplace",
						"label": "address payable",
						"numberOfBytes": "20"
					},
					"t_array(t_address)dyn_storage": {
						"base": "t_address",
						"encoding": "dynamic_array",
						"label": "address[]",
						"numberOfBytes": "32"
					},
					"t_array(t_struct(House)115_storage)dyn_storage": {
						"base": "t_struct(House)115_storage",
						"encoding": "dynamic_array",
						"label": "struct MyHomesToken.House[]",
						"numberOfBytes": "32"
					},
					"t_bool": {
						"encoding": "inplace",
						"label": "bool",
						"numberOfBytes": "1"
					},
					"t_enum(BallotState)197": {
						"encoding": "inplace",
						"label": "enum MyHomesToken.BallotState",
						"numberOfBytes": "1"
					},
					"t_enum(State)200": {
						"encoding": "inplace",
						"label": "enum MyHomesToken.State",
						"numberOfBytes": "1"
					},
					"t_mapping(t_address,t_bool)": {
						"encoding": "mapping",
						"key": "t_address",
						"label": "mapping(address => bool)",
						"numberOfBytes": "32",
						"value": "t_bool"
					},
					"t_mapping(t_address,t_uint256)": {
						"encoding": "mapping",
						"key": "t_address",
						"label": "mapping(address => uint256)",
						"numberOfBytes": "32",
						"value": "t_uint256"
					},
					"t_mapping(t_uint256,t_struct(Vote)127_storage)": {
						"encoding": "mapping",
						"key": "t_uint256",
						"label": "mapping(uint256 => struct MyHomesToken.Vote)",
						"numberOfBytes": "32",
						"value": "t_struct(Vote)127_storage"
					},
					"t_string_storage": {
						"encoding": "bytes",
						"label": "string",
						"numberOfBytes": "32"
					},
					"t_struct(House)115_storage": {
						"encoding": "inplace",
						"label": "struct MyHomesToken.House",
						"members": [
							{
								"astId": 110,
								"contract": "MyHomeToken.sol:MyHomesToken",
								"label": "registrationId",
								"offset": 0,
								"slot": "0",
								"type": "t_string_storage"
							},
							{
								"astId": 112,
								"contract": "MyHomeToken.sol:MyHomesToken",
								"label": "physicalAddress",
								"offset": 0,
								"slot": "1",
								"type": "t_string_storage"
							},
							{
								"astId": 114,
								"contract": "MyHomeToken.sol:MyHomesToken",
								"label": "price",
								"offset": 0,
								"slot": "2",
								"type": "t_uint256"
							}
						],
						"numberOfBytes": "96"
					},
					"t_struct(HousingPackage)122_storage": {
						"encoding": "inplace",
						"label": "struct MyHomesToken.HousingPackage",
						"members": [
							{
								"astId": 117,
								"contract": "MyHomeToken.sol:MyHomesToken",
								"label": "name",
								"offset": 0,
								"slot": "0",
								"type": "t_string_storage"
							},
							{
								"astId": 119,
								"contract": "MyHomeToken.sol:MyHomesToken",
								"label": "description",
								"offset": 0,
								"slot": "1",
								"type": "t_string_storage"
							},
							{
								"astId": 121,
								"contract": "MyHomeToken.sol:MyHomesToken",
								"label": "totalValue",
								"offset": 0,
								"slot": "2",
								"type": "t_uint256"
							}
						],
						"numberOfBytes": "96"
					},
					"t_struct(Vote)127_storage": {
						"encoding": "inplace",
						"label": "struct MyHomesToken.Vote",
						"members": [
							{
								"astId": 124,
								"contract": "MyHomeToken.sol:MyHomesToken",
								"label": "shareHolderAddress",
								"offset": 0,
								"slot": "0",
								"type": "t_address"
							},
							{
								"astId": 126,
								"contract": "MyHomeToken.sol:MyHomesToken",
								"label": "choice",
								"offset": 20,
								"slot": "0",
								"type": "t_bool"
							}
						],
						"numberOfBytes": "32"
					},
					"t_uint256": {
						"encoding": "inplace",
						"label": "uint256",
						"numberOfBytes": "32"
					}
				}
			},
			"userdoc": {
				"kind": "user",
				"methods": {},
				"version": 1
			}
		}
	}
}