{
	"MyHomeToken.sol": {
		"MyHomesToken": {
			"abi": [
				{
					"inputs": [
						{
							"internalType": "string",
							"name": "_name",
							"type": "string"
						},
						{
							"internalType": "string",
							"name": "_description",
							"type": "string"
						}
					],
					"stateMutability": "payable",
					"type": "constructor"
				},
				{
					"anonymous": false,
					"inputs": [
						{
							"indexed": false,
							"internalType": "string",
							"name": "id",
							"type": "string"
						}
					],
					"name": "NewHouseAdded",
					"type": "event"
				},
				{
					"anonymous": false,
					"inputs": [
						{
							"indexed": false,
							"internalType": "address",
							"name": "sh",
							"type": "address"
						}
					],
					"name": "ShareHolderAdded",
					"type": "event"
				},
				{
					"anonymous": false,
					"inputs": [
						{
							"indexed": false,
							"internalType": "address",
							"name": "shareHolder",
							"type": "address"
						}
					],
					"name": "voteDone",
					"type": "event"
				},
				{
					"anonymous": false,
					"inputs": [
						{
							"indexed": false,
							"internalType": "uint256",
							"name": "finalResult",
							"type": "uint256"
						}
					],
					"name": "voteEnded",
					"type": "event"
				},
				{
					"anonymous": false,
					"inputs": [],
					"name": "voteStarted",
					"type": "event"
				},
				{
					"inputs": [
						{
							"internalType": "string",
							"name": "_registrationId",
							"type": "string"
						},
						{
							"internalType": "string",
							"name": "location",
							"type": "string"
						},
						{
							"internalType": "uint256",
							"name": "price",
							"type": "uint256"
						}
					],
					"name": "addHouse",
					"outputs": [],
					"stateMutability": "nonpayable",
					"type": "function"
				},
				{
					"inputs": [
						{
							"internalType": "address",
							"name": "_shareHolderAddress",
							"type": "address"
						}
					],
					"name": "addShareHolder",
					"outputs": [],
					"stateMutability": "nonpayable",
					"type": "function"
				},
				{
					"inputs": [
						{
							"internalType": "address",
							"name": "",
							"type": "address"
						}
					],
					"name": "balances",
					"outputs": [
						{
							"internalType": "uint256",
							"name": "",
							"type": "uint256"
						}
					],
					"stateMutability": "view",
					"type": "function"
				},
				{
					"inputs": [
						{
							"internalType": "uint256",
							"name": "",
							"type": "uint256"
						}
					],
					"name": "ballotHistory",
					"outputs": [
						{
							"internalType": "string",
							"name": "ballotId",
							"type": "string"
						},
						{
							"internalType": "address",
							"name": "ballotOwner",
							"type": "address"
						},
						{
							"internalType": "string",
							"name": "proposal",
							"type": "string"
						},
						{
							"internalType": "uint256",
							"name": "finalResult",
							"type": "uint256"
						},
						{
							"internalType": "uint256",
							"name": "totalVotes",
							"type": "uint256"
						}
					],
					"stateMutability": "view",
					"type": "function"
				},
				{
					"inputs": [
						{
							"internalType": "uint256",
							"name": "tokenNum",
							"type": "uint256"
						}
					],
					"name": "buy",
					"outputs": [],
					"stateMutability": "payable",
					"type": "function"
				},
				{
					"inputs": [
						{
							"internalType": "string",
							"name": "_proposal",
							"type": "string"
						}
					],
					"name": "createBallot",
					"outputs": [],
					"stateMutability": "nonpayable",
					"type": "function"
				},
				{
					"inputs": [],
					"name": "currentBallot",
					"outputs": [
						{
							"internalType": "string",
							"name": "ballotId",
							"type": "string"
						},
						{
							"internalType": "address",
							"name": "ballotOwner",
							"type": "address"
						},
						{
							"internalType": "string",
							"name": "proposal",
							"type": "string"
						},
						{
							"internalType": "uint256",
							"name": "finalResult",
							"type": "uint256"
						},
						{
							"internalType": "uint256",
							"name": "totalVotes",
							"type": "uint256"
						}
					],
					"stateMutability": "view",
					"type": "function"
				},
				{
					"inputs": [
						{
							"internalType": "bool",
							"name": "_choice",
							"type": "bool"
						}
					],
					"name": "doVote",
					"outputs": [
						{
							"internalType": "bool",
							"name": "voted",
							"type": "bool"
						}
					],
					"stateMutability": "nonpayable",
					"type": "function"
				},
				{
					"inputs": [],
					"name": "endVote",
					"outputs": [],
					"stateMutability": "nonpayable",
					"type": "function"
				},
				{
					"inputs": [
						{
							"internalType": "address",
							"name": "_addr",
							"type": "address"
						}
					],
					"name": "etherBalance",
					"outputs": [
						{
							"internalType": "uint256",
							"name": "",
							"type": "uint256"
						}
					],
					"stateMutability": "view",
					"type": "function"
				},
				{
					"inputs": [],
					"name": "getMyVote",
					"outputs": [
						{
							"internalType": "bool",
							"name": "vote",
							"type": "bool"
						}
					],
					"stateMutability": "view",
					"type": "function"
				},
				{
					"inputs": [
						{
							"internalType": "uint256",
							"name": "",
							"type": "uint256"
						}
					],
					"name": "houseRegister",
					"outputs": [
						{
							"internalType": "string",
							"name": "registrationId",
							"type": "string"
						},
						{
							"internalType": "string",
							"name": "physicalAddress",
							"type": "string"
						},
						{
							"internalType": "uint256",
							"name": "price",
							"type": "uint256"
						}
					],
					"stateMutability": "view",
					"type": "function"
				},
				{
					"inputs": [],
					"name": "hp",
					"outputs": [
						{
							"internalType": "string",
							"name": "name",
							"type": "string"
						},
						{
							"internalType": "string",
							"name": "description",
							"type": "string"
						},
						{
							"internalType": "uint256",
							"name": "totalValue",
							"type": "uint256"
						}
					],
					"stateMutability": "view",
					"type": "function"
				},
				{
					"inputs": [],
					"name": "owner",
					"outputs": [
						{
							"internalType": "address payable",
							"name": "",
							"type": "address"
						}
					],
					"stateMutability": "view",
					"type": "function"
				},
				{
					"inputs": [
						{
							"internalType": "address",
							"name": "_shareHolderAddress",
							"type": "address"
						}
					],
					"name": "removeShareHolder",
					"outputs": [],
					"stateMutability": "nonpayable",
					"type": "function"
				},
				{
					"inputs": [
						{
							"internalType": "uint256",
							"name": "tokenNum",
							"type": "uint256"
						}
					],
					"name": "sellToOwner",
					"outputs": [],
					"stateMutability": "payable",
					"type": "function"
				},
				{
					"inputs": [
						{
							"internalType": "address",
							"name": "",
							"type": "address"
						}
					],
					"name": "shareHolderRegistry",
					"outputs": [
						{
							"internalType": "bool",
							"name": "",
							"type": "bool"
						}
					],
					"stateMutability": "view",
					"type": "function"
				},
				{
					"inputs": [
						{
							"internalType": "uint256",
							"name": "",
							"type": "uint256"
						}
					],
					"name": "shareHolders",
					"outputs": [
						{
							"internalType": "address",
							"name": "",
							"type": "address"
						}
					],
					"stateMutability": "view",
					"type": "function"
				},
				{
					"inputs": [],
					"name": "shareLimit",
					"outputs": [
						{
							"internalType": "uint256",
							"name": "",
							"type": "uint256"
						}
					],
					"stateMutability": "view",
					"type": "function"
				},
				{
					"inputs": [],
					"name": "startTrading",
					"outputs": [],
					"stateMutability": "nonpayable",
					"type": "function"
				},
				{
					"inputs": [],
					"name": "startVote",
					"outputs": [],
					"stateMutability": "nonpayable",
					"type": "function"
				},
				{
					"inputs": [],
					"name": "tokenPrice",
					"outputs": [
						{
							"internalType": "uint256",
							"name": "",
							"type": "uint256"
						}
					],
					"stateMutability": "view",
					"type": "function"
				},
				{
					"inputs": [],
					"name": "totalBallots",
					"outputs": [
						{
							"internalType": "uint256",
							"name": "",
							"type": "uint256"
						}
					],
					"stateMutability": "view",
					"type": "function"
				},
				{
					"inputs": [],
					"name": "totalHouses",
					"outputs": [
						{
							"internalType": "uint256",
							"name": "",
							"type": "uint256"
						}
					],
					"stateMutability": "view",
					"type": "function"
				},
				{
					"inputs": [],
					"name": "totalShareHolders",
					"outputs": [
						{
							"internalType": "uint256",
							"name": "",
							"type": "uint256"
						}
					],
					"stateMutability": "view",
					"type": "function"
				},
				{
					"inputs": [],
					"name": "totalShares",
					"outputs": [
						{
							"internalType": "uint256",
							"name": "",
							"type": "uint256"
						}
					],
					"stateMutability": "view",
					"type": "function"
				},
				{
					"inputs": [
						{
							"internalType": "address",
							"name": "_to",
							"type": "address"
						},
						{
							"internalType": "uint256",
							"name": "_value",
							"type": "uint256"
						}
					],
					"name": "transfer",
					"outputs": [],
					"stateMutability": "nonpayable",
					"type": "function"
				}
			],
			"devdoc": {
				"kind": "dev",
				"methods": {},
				"version": 1
			},
			"evm": {
				"assembly": "    /* \"MyHomeToken.sol\":118:7104  contract MyHomesToken {... */\n  mstore(0x40, 0x80)\n    /* \"MyHomeToken.sol\":270:271  0 */\n  0x00\n    /* \"MyHomeToken.sol\":244:271  uint public totalHouses = 0 */\n  0x05\n  sstore\n    /* \"MyHomeToken.sol\":306:309  100 */\n  0x64\n    /* \"MyHomeToken.sol\":277:309  uint256 public totalShares = 100 */\n  0x06\n  sstore\n    /* \"MyHomeToken.sol\":343:344  1 */\n  0x01\n    /* \"MyHomeToken.sol\":315:344  uint256 public tokenPrice = 1 */\n  0x07\n  sstore\n    /* \"MyHomeToken.sol\":378:380  10 */\n  0x0a\n    /* \"MyHomeToken.sol\":350:380  uint256 public shareLimit = 10 */\n  0x08\n  sstore\n    /* \"MyHomeToken.sol\":418:419  0 */\n  0x00\n    /* \"MyHomeToken.sol\":386:419  uint public totalShareHolders = 0 */\n  0x09\n  sstore\n    /* \"MyHomeToken.sol\":685:686  0 */\n  0x00\n    /* \"MyHomeToken.sol\":658:686  uint public totalBallots = 0 */\n  0x0f\n  sstore\n    /* \"MyHomeToken.sol\":834:1113  constructor(string memory _name, string memory _description) payable {... */\n  mload(0x40)\n  sub(codesize, bytecodeSize)\n  dup1\n  bytecodeSize\n  dup4\n  codecopy\n  dup2\n  dup2\n  add\n  0x40\n  mstore\n  dup2\n  add\n  swap1\n  tag_1\n  swap2\n  swap1\n  tag_2\n  jump\t// in\ntag_1:\n    /* \"MyHomeToken.sol\":929:939  msg.sender */\n  caller\n    /* \"MyHomeToken.sol\":913:918  owner */\n  0x00\n  dup1\n    /* \"MyHomeToken.sol\":913:940  owner = payable(msg.sender) */\n  0x0100\n  exp\n  dup2\n  sload\n  dup2\n  0xffffffffffffffffffffffffffffffffffffffff\n  mul\n  not\n  and\n  swap1\n  dup4\n  0xffffffffffffffffffffffffffffffffffffffff\n  and\n  mul\n  or\n  swap1\n  sstore\n  pop\n    /* \"MyHomeToken.sol\":973:984  totalShares */\n  sload(0x06)\n    /* \"MyHomeToken.sol\":950:958  balances */\n  0x0d\n    /* \"MyHomeToken.sol\":950:970  balances[msg.sender] */\n  0x00\n    /* \"MyHomeToken.sol\":959:969  msg.sender */\n  caller\n    /* \"MyHomeToken.sol\":950:970  balances[msg.sender] */\n  0xffffffffffffffffffffffffffffffffffffffff\n  and\n  0xffffffffffffffffffffffffffffffffffffffff\n  and\n  dup2\n  mstore\n  0x20\n  add\n  swap1\n  dup2\n  mstore\n  0x20\n  add\n  0x00\n  keccak256\n    /* \"MyHomeToken.sol\":950:984  balances[msg.sender] = totalShares */\n  dup2\n  swap1\n  sstore\n  pop\n    /* \"MyHomeToken.sol\":1004:1009  _name */\n  dup2\n    /* \"MyHomeToken.sol\":994:996  hp */\n  0x01\n    /* \"MyHomeToken.sol\":994:1001  hp.name */\n  0x00\n  add\n    /* \"MyHomeToken.sol\":994:1009  hp.name = _name */\n  swap1\n  dup1\n  mload\n  swap1\n  0x20\n  add\n  swap1\n  tag_5\n  swap3\n  swap2\n  swap1\n  tag_6\n  jump\t// in\ntag_5:\n  pop\n    /* \"MyHomeToken.sol\":1036:1048  _description */\n  dup1\n    /* \"MyHomeToken.sol\":1019:1021  hp */\n  0x01\n    /* \"MyHomeToken.sol\":1019:1033  hp.description */\n  dup1\n  add\n    /* \"MyHomeToken.sol\":1019:1048  hp.description = _description */\n  swap1\n  dup1\n  mload\n  swap1\n  0x20\n  add\n  swap1\n  tag_7\n  swap3\n  swap2\n  swap1\n  tag_6\n  jump\t// in\ntag_7:\n  pop\n    /* \"MyHomeToken.sol\":1074:1075  0 */\n  0x00\n    /* \"MyHomeToken.sol\":1058:1060  hp */\n  0x01\n    /* \"MyHomeToken.sol\":1058:1071  hp.totalValue */\n  0x02\n  add\n    /* \"MyHomeToken.sol\":1058:1075  hp.totalValue = 0 */\n  dup2\n  swap1\n  sstore\n  pop\n    /* \"MyHomeToken.sol\":1093:1106  State.Created */\n  0x00\n    /* \"MyHomeToken.sol\":1085:1090  state */\n  0x0a\n  0x00\n    /* \"MyHomeToken.sol\":1085:1106  state = State.Created */\n  0x0100\n  exp\n  dup2\n  sload\n  dup2\n  0xff\n  mul\n  not\n  and\n  swap1\n  dup4\n  0x01\n  dup2\n  gt\n  iszero\n  tag_8\n  jumpi\n  tag_9\n  tag_10\n  jump\t// in\ntag_9:\ntag_8:\n  mul\n  or\n  swap1\n  sstore\n  pop\n    /* \"MyHomeToken.sol\":834:1113  constructor(string memory _name, string memory _description) payable {... */\n  pop\n  pop\n    /* \"MyHomeToken.sol\":118:7104  contract MyHomesToken {... */\n  jump(tag_11)\ntag_6:\n  dup3\n  dup1\n  sload\n  tag_12\n  swap1\n  tag_13\n  jump\t// in\ntag_12:\n  swap1\n  0x00\n  mstore\n  keccak256(0x00, 0x20)\n  swap1\n  0x1f\n  add\n  0x20\n  swap1\n  div\n  dup2\n  add\n  swap3\n  dup3\n  tag_15\n  jumpi\n  0x00\n  dup6\n  sstore\n  jump(tag_14)\ntag_15:\n  dup3\n  0x1f\n  lt\n  tag_16\n  jumpi\n  dup1\n  mload\n  not(0xff)\n  and\n  dup4\n  dup1\n  add\n  or\n  dup6\n  sstore\n  jump(tag_14)\ntag_16:\n  dup3\n  dup1\n  add\n  0x01\n  add\n  dup6\n  sstore\n  dup3\n  iszero\n  tag_14\n  jumpi\n  swap2\n  dup3\n  add\ntag_17:\n  dup3\n  dup2\n  gt\n  iszero\n  tag_18\n  jumpi\n  dup3\n  mload\n  dup3\n  sstore\n  swap2\n  0x20\n  add\n  swap2\n  swap1\n  0x01\n  add\n  swap1\n  jump(tag_17)\ntag_18:\ntag_14:\n  pop\n  swap1\n  pop\n  tag_19\n  swap2\n  swap1\n  tag_20\n  jump\t// in\ntag_19:\n  pop\n  swap1\n  jump\t// out\ntag_20:\ntag_21:\n  dup1\n  dup3\n  gt\n  iszero\n  tag_22\n  jumpi\n  0x00\n  dup2\n  0x00\n  swap1\n  sstore\n  pop\n  0x01\n  add\n  jump(tag_21)\ntag_22:\n  pop\n  swap1\n  jump\t// out\n    /* \"#utility.yul\":7:428   */\ntag_24:\n    /* \"#utility.yul\":96:101   */\n  0x00\n    /* \"#utility.yul\":121:187   */\n  tag_26\n    /* \"#utility.yul\":137:186   */\n  tag_27\n    /* \"#utility.yul\":179:185   */\n  dup5\n    /* \"#utility.yul\":137:186   */\n  tag_28\n  jump\t// in\ntag_27:\n    /* \"#utility.yul\":121:187   */\n  tag_29\n  jump\t// in\ntag_26:\n    /* \"#utility.yul\":112:187   */\n  swap1\n  pop\n    /* \"#utility.yul\":210:216   */\n  dup3\n    /* \"#utility.yul\":203:208   */\n  dup2\n    /* \"#utility.yul\":196:217   */\n  mstore\n    /* \"#utility.yul\":248:252   */\n  0x20\n    /* \"#utility.yul\":241:246   */\n  dup2\n    /* \"#utility.yul\":237:253   */\n  add\n    /* \"#utility.yul\":286:289   */\n  dup5\n    /* \"#utility.yul\":277:283   */\n  dup5\n    /* \"#utility.yul\":272:275   */\n  dup5\n    /* \"#utility.yul\":268:284   */\n  add\n    /* \"#utility.yul\":265:290   */\n  gt\n    /* \"#utility.yul\":262:374   */\n  iszero\n  tag_30\n  jumpi\n    /* \"#utility.yul\":293:372   */\n  tag_31\n  tag_32\n  jump\t// in\ntag_31:\n    /* \"#utility.yul\":262:374   */\ntag_30:\n    /* \"#utility.yul\":383:422   */\n  tag_33\n    /* \"#utility.yul\":415:421   */\n  dup5\n    /* \"#utility.yul\":410:413   */\n  dup3\n    /* \"#utility.yul\":405:408   */\n  dup6\n    /* \"#utility.yul\":383:422   */\n  tag_34\n  jump\t// in\ntag_33:\n    /* \"#utility.yul\":102:428   */\n  pop\n    /* \"#utility.yul\":7:428   */\n  swap4\n  swap3\n  pop\n  pop\n  pop\n  jump\t// out\n    /* \"#utility.yul\":448:803   */\ntag_35:\n    /* \"#utility.yul\":515:520   */\n  0x00\n    /* \"#utility.yul\":564:567   */\n  dup3\n    /* \"#utility.yul\":557:561   */\n  0x1f\n    /* \"#utility.yul\":549:555   */\n  dup4\n    /* \"#utility.yul\":545:562   */\n  add\n    /* \"#utility.yul\":541:568   */\n  slt\n    /* \"#utility.yul\":531:653   */\n  tag_37\n  jumpi\n    /* \"#utility.yul\":572:651   */\n  tag_38\n  tag_39\n  jump\t// in\ntag_38:\n    /* \"#utility.yul\":531:653   */\ntag_37:\n    /* \"#utility.yul\":682:688   */\n  dup2\n    /* \"#utility.yul\":676:689   */\n  mload\n    /* \"#utility.yul\":707:797   */\n  tag_40\n    /* \"#utility.yul\":793:796   */\n  dup5\n    /* \"#utility.yul\":785:791   */\n  dup3\n    /* \"#utility.yul\":778:782   */\n  0x20\n    /* \"#utility.yul\":770:776   */\n  dup7\n    /* \"#utility.yul\":766:783   */\n  add\n    /* \"#utility.yul\":707:797   */\n  tag_24\n  jump\t// in\ntag_40:\n    /* \"#utility.yul\":698:797   */\n  swap2\n  pop\n    /* \"#utility.yul\":521:803   */\n  pop\n    /* \"#utility.yul\":448:803   */\n  swap3\n  swap2\n  pop\n  pop\n  jump\t// out\n    /* \"#utility.yul\":809:1662   */\ntag_2:\n    /* \"#utility.yul\":908:914   */\n  0x00\n    /* \"#utility.yul\":916:922   */\n  dup1\n    /* \"#utility.yul\":965:967   */\n  0x40\n    /* \"#utility.yul\":953:962   */\n  dup4\n    /* \"#utility.yul\":944:951   */\n  dup6\n    /* \"#utility.yul\":940:963   */\n  sub\n    /* \"#utility.yul\":936:968   */\n  slt\n    /* \"#utility.yul\":933:1052   */\n  iszero\n  tag_42\n  jumpi\n    /* \"#utility.yul\":971:1050   */\n  tag_43\n  tag_44\n  jump\t// in\ntag_43:\n    /* \"#utility.yul\":933:1052   */\ntag_42:\n    /* \"#utility.yul\":1112:1113   */\n  0x00\n    /* \"#utility.yul\":1101:1110   */\n  dup4\n    /* \"#utility.yul\":1097:1114   */\n  add\n    /* \"#utility.yul\":1091:1115   */\n  mload\n    /* \"#utility.yul\":1142:1160   */\n  0xffffffffffffffff\n    /* \"#utility.yul\":1134:1140   */\n  dup2\n    /* \"#utility.yul\":1131:1161   */\n  gt\n    /* \"#utility.yul\":1128:1245   */\n  iszero\n  tag_45\n  jumpi\n    /* \"#utility.yul\":1164:1243   */\n  tag_46\n  tag_47\n  jump\t// in\ntag_46:\n    /* \"#utility.yul\":1128:1245   */\ntag_45:\n    /* \"#utility.yul\":1269:1343   */\n  tag_48\n    /* \"#utility.yul\":1335:1342   */\n  dup6\n    /* \"#utility.yul\":1326:1332   */\n  dup3\n    /* \"#utility.yul\":1315:1324   */\n  dup7\n    /* \"#utility.yul\":1311:1333   */\n  add\n    /* \"#utility.yul\":1269:1343   */\n  tag_35\n  jump\t// in\ntag_48:\n    /* \"#utility.yul\":1259:1343   */\n  swap3\n  pop\n    /* \"#utility.yul\":1062:1353   */\n  pop\n    /* \"#utility.yul\":1413:1415   */\n  0x20\n    /* \"#utility.yul\":1402:1411   */\n  dup4\n    /* \"#utility.yul\":1398:1416   */\n  add\n    /* \"#utility.yul\":1392:1417   */\n  mload\n    /* \"#utility.yul\":1444:1462   */\n  0xffffffffffffffff\n    /* \"#utility.yul\":1436:1442   */\n  dup2\n    /* \"#utility.yul\":1433:1463   */\n  gt\n    /* \"#utility.yul\":1430:1547   */\n  iszero\n  tag_49\n  jumpi\n    /* \"#utility.yul\":1466:1545   */\n  tag_50\n  tag_47\n  jump\t// in\ntag_50:\n    /* \"#utility.yul\":1430:1547   */\ntag_49:\n    /* \"#utility.yul\":1571:1645   */\n  tag_51\n    /* \"#utility.yul\":1637:1644   */\n  dup6\n    /* \"#utility.yul\":1628:1634   */\n  dup3\n    /* \"#utility.yul\":1617:1626   */\n  dup7\n    /* \"#utility.yul\":1613:1635   */\n  add\n    /* \"#utility.yul\":1571:1645   */\n  tag_35\n  jump\t// in\ntag_51:\n    /* \"#utility.yul\":1561:1645   */\n  swap2\n  pop\n    /* \"#utility.yul\":1363:1655   */\n  pop\n    /* \"#utility.yul\":809:1662   */\n  swap3\n  pop\n  swap3\n  swap1\n  pop\n  jump\t// out\n    /* \"#utility.yul\":1668:1797   */\ntag_29:\n    /* \"#utility.yul\":1702:1708   */\n  0x00\n    /* \"#utility.yul\":1729:1749   */\n  tag_53\n  tag_54\n  jump\t// in\ntag_53:\n    /* \"#utility.yul\":1719:1749   */\n  swap1\n  pop\n    /* \"#utility.yul\":1758:1791   */\n  tag_55\n    /* \"#utility.yul\":1786:1790   */\n  dup3\n    /* \"#utility.yul\":1778:1784   */\n  dup3\n    /* \"#utility.yul\":1758:1791   */\n  tag_56\n  jump\t// in\ntag_55:\n    /* \"#utility.yul\":1668:1797   */\n  swap2\n  swap1\n  pop\n  jump\t// out\n    /* \"#utility.yul\":1803:1878   */\ntag_54:\n    /* \"#utility.yul\":1836:1842   */\n  0x00\n    /* \"#utility.yul\":1869:1871   */\n  0x40\n    /* \"#utility.yul\":1863:1872   */\n  mload\n    /* \"#utility.yul\":1853:1872   */\n  swap1\n  pop\n    /* \"#utility.yul\":1803:1878   */\n  swap1\n  jump\t// out\n    /* \"#utility.yul\":1884:2192   */\ntag_28:\n    /* \"#utility.yul\":1946:1950   */\n  0x00\n    /* \"#utility.yul\":2036:2054   */\n  0xffffffffffffffff\n    /* \"#utility.yul\":2028:2034   */\n  dup3\n    /* \"#utility.yul\":2025:2055   */\n  gt\n    /* \"#utility.yul\":2022:2078   */\n  iszero\n  tag_59\n  jumpi\n    /* \"#utility.yul\":2058:2076   */\n  tag_60\n  tag_61\n  jump\t// in\ntag_60:\n    /* \"#utility.yul\":2022:2078   */\ntag_59:\n    /* \"#utility.yul\":2096:2125   */\n  tag_62\n    /* \"#utility.yul\":2118:2124   */\n  dup3\n    /* \"#utility.yul\":2096:2125   */\n  tag_63\n  jump\t// in\ntag_62:\n    /* \"#utility.yul\":2088:2125   */\n  swap1\n  pop\n    /* \"#utility.yul\":2180:2184   */\n  0x20\n    /* \"#utility.yul\":2174:2178   */\n  dup2\n    /* \"#utility.yul\":2170:2185   */\n  add\n    /* \"#utility.yul\":2162:2185   */\n  swap1\n  pop\n    /* \"#utility.yul\":1884:2192   */\n  swap2\n  swap1\n  pop\n  jump\t// out\n    /* \"#utility.yul\":2198:2505   */\ntag_34:\n    /* \"#utility.yul\":2266:2267   */\n  0x00\n    /* \"#utility.yul\":2276:2389   */\ntag_65:\n    /* \"#utility.yul\":2290:2296   */\n  dup4\n    /* \"#utility.yul\":2287:2288   */\n  dup2\n    /* \"#utility.yul\":2284:2297   */\n  lt\n    /* \"#utility.yul\":2276:2389   */\n  iszero\n  tag_67\n  jumpi\n    /* \"#utility.yul\":2375:2376   */\n  dup1\n    /* \"#utility.yul\":2370:2373   */\n  dup3\n    /* \"#utility.yul\":2366:2377   */\n  add\n    /* \"#utility.yul\":2360:2378   */\n  mload\n    /* \"#utility.yul\":2356:2357   */\n  dup2\n    /* \"#utility.yul\":2351:2354   */\n  dup5\n    /* \"#utility.yul\":2347:2358   */\n  add\n    /* \"#utility.yul\":2340:2379   */\n  mstore\n    /* \"#utility.yul\":2312:2314   */\n  0x20\n    /* \"#utility.yul\":2309:2310   */\n  dup2\n    /* \"#utility.yul\":2305:2315   */\n  add\n    /* \"#utility.yul\":2300:2315   */\n  swap1\n  pop\n    /* \"#utility.yul\":2276:2389   */\n  jump(tag_65)\ntag_67:\n    /* \"#utility.yul\":2407:2413   */\n  dup4\n    /* \"#utility.yul\":2404:2405   */\n  dup2\n    /* \"#utility.yul\":2401:2414   */\n  gt\n    /* \"#utility.yul\":2398:2499   */\n  iszero\n  tag_68\n  jumpi\n    /* \"#utility.yul\":2487:2488   */\n  0x00\n    /* \"#utility.yul\":2478:2484   */\n  dup5\n    /* \"#utility.yul\":2473:2476   */\n  dup5\n    /* \"#utility.yul\":2469:2485   */\n  add\n    /* \"#utility.yul\":2462:2489   */\n  mstore\n    /* \"#utility.yul\":2398:2499   */\ntag_68:\n    /* \"#utility.yul\":2247:2505   */\n  pop\n    /* \"#utility.yul\":2198:2505   */\n  pop\n  pop\n  pop\n  jump\t// out\n    /* \"#utility.yul\":2511:2831   */\ntag_13:\n    /* \"#utility.yul\":2555:2561   */\n  0x00\n    /* \"#utility.yul\":2592:2593   */\n  0x02\n    /* \"#utility.yul\":2586:2590   */\n  dup3\n    /* \"#utility.yul\":2582:2594   */\n  div\n    /* \"#utility.yul\":2572:2594   */\n  swap1\n  pop\n    /* \"#utility.yul\":2639:2640   */\n  0x01\n    /* \"#utility.yul\":2633:2637   */\n  dup3\n    /* \"#utility.yul\":2629:2641   */\n  and\n    /* \"#utility.yul\":2660:2678   */\n  dup1\n    /* \"#utility.yul\":2650:2731   */\n  tag_70\n  jumpi\n    /* \"#utility.yul\":2716:2720   */\n  0x7f\n    /* \"#utility.yul\":2708:2714   */\n  dup3\n    /* \"#utility.yul\":2704:2721   */\n  and\n    /* \"#utility.yul\":2694:2721   */\n  swap2\n  pop\n    /* \"#utility.yul\":2650:2731   */\ntag_70:\n    /* \"#utility.yul\":2778:2780   */\n  0x20\n    /* \"#utility.yul\":2770:2776   */\n  dup3\n    /* \"#utility.yul\":2767:2781   */\n  lt\n    /* \"#utility.yul\":2747:2765   */\n  dup2\n    /* \"#utility.yul\":2744:2782   */\n  eq\n    /* \"#utility.yul\":2741:2825   */\n  iszero\n  tag_71\n  jumpi\n    /* \"#utility.yul\":2797:2815   */\n  tag_72\n  tag_73\n  jump\t// in\ntag_72:\n    /* \"#utility.yul\":2741:2825   */\ntag_71:\n    /* \"#utility.yul\":2562:2831   */\n  pop\n    /* \"#utility.yul\":2511:2831   */\n  swap2\n  swap1\n  pop\n  jump\t// out\n    /* \"#utility.yul\":2837:3118   */\ntag_56:\n    /* \"#utility.yul\":2920:2947   */\n  tag_75\n    /* \"#utility.yul\":2942:2946   */\n  dup3\n    /* \"#utility.yul\":2920:2947   */\n  tag_63\n  jump\t// in\ntag_75:\n    /* \"#utility.yul\":2912:2918   */\n  dup2\n    /* \"#utility.yul\":2908:2948   */\n  add\n    /* \"#utility.yul\":3050:3056   */\n  dup2\n    /* \"#utility.yul\":3038:3048   */\n  dup2\n    /* \"#utility.yul\":3035:3057   */\n  lt\n    /* \"#utility.yul\":3014:3032   */\n  0xffffffffffffffff\n    /* \"#utility.yul\":3002:3012   */\n  dup3\n    /* \"#utility.yul\":2999:3033   */\n  gt\n    /* \"#utility.yul\":2996:3058   */\n  or\n    /* \"#utility.yul\":2993:3081   */\n  iszero\n  tag_76\n  jumpi\n    /* \"#utility.yul\":3061:3079   */\n  tag_77\n  tag_61\n  jump\t// in\ntag_77:\n    /* \"#utility.yul\":2993:3081   */\ntag_76:\n    /* \"#utility.yul\":3101:3111   */\n  dup1\n    /* \"#utility.yul\":3097:3099   */\n  0x40\n    /* \"#utility.yul\":3090:3112   */\n  mstore\n    /* \"#utility.yul\":2880:3118   */\n  pop\n    /* \"#utility.yul\":2837:3118   */\n  pop\n  pop\n  jump\t// out\n    /* \"#utility.yul\":3124:3304   */\ntag_10:\n    /* \"#utility.yul\":3172:3249   */\n  0x4e487b7100000000000000000000000000000000000000000000000000000000\n    /* \"#utility.yul\":3169:3170   */\n  0x00\n    /* \"#utility.yul\":3162:3250   */\n  mstore\n    /* \"#utility.yul\":3269:3273   */\n  0x21\n    /* \"#utility.yul\":3266:3267   */\n  0x04\n    /* \"#utility.yul\":3259:3274   */\n  mstore\n    /* \"#utility.yul\":3293:3297   */\n  0x24\n    /* \"#utility.yul\":3290:3291   */\n  0x00\n    /* \"#utility.yul\":3283:3298   */\n  revert\n    /* \"#utility.yul\":3310:3490   */\ntag_73:\n    /* \"#utility.yul\":3358:3435   */\n  0x4e487b7100000000000000000000000000000000000000000000000000000000\n    /* \"#utility.yul\":3355:3356   */\n  0x00\n    /* \"#utility.yul\":3348:3436   */\n  mstore\n    /* \"#utility.yul\":3455:3459   */\n  0x22\n    /* \"#utility.yul\":3452:3453   */\n  0x04\n    /* \"#utility.yul\":3445:3460   */\n  mstore\n    /* \"#utility.yul\":3479:3483   */\n  0x24\n    /* \"#utility.yul\":3476:3477   */\n  0x00\n    /* \"#utility.yul\":3469:3484   */\n  revert\n    /* \"#utility.yul\":3496:3676   */\ntag_61:\n    /* \"#utility.yul\":3544:3621   */\n  0x4e487b7100000000000000000000000000000000000000000000000000000000\n    /* \"#utility.yul\":3541:3542   */\n  0x00\n    /* \"#utility.yul\":3534:3622   */\n  mstore\n    /* \"#utility.yul\":3641:3645   */\n  0x41\n    /* \"#utility.yul\":3638:3639   */\n  0x04\n    /* \"#utility.yul\":3631:3646   */\n  mstore\n    /* \"#utility.yul\":3665:3669   */\n  0x24\n    /* \"#utility.yul\":3662:3663   */\n  0x00\n    /* \"#utility.yul\":3655:3670   */\n  revert\n    /* \"#utility.yul\":3682:3799   */\ntag_39:\n    /* \"#utility.yul\":3791:3792   */\n  0x00\n    /* \"#utility.yul\":3788:3789   */\n  dup1\n    /* \"#utility.yul\":3781:3793   */\n  revert\n    /* \"#utility.yul\":3805:3922   */\ntag_32:\n    /* \"#utility.yul\":3914:3915   */\n  0x00\n    /* \"#utility.yul\":3911:3912   */\n  dup1\n    /* \"#utility.yul\":3904:3916   */\n  revert\n    /* \"#utility.yul\":3928:4045   */\ntag_47:\n    /* \"#utility.yul\":4037:4038   */\n  0x00\n    /* \"#utility.yul\":4034:4035   */\n  dup1\n    /* \"#utility.yul\":4027:4039   */\n  revert\n    /* \"#utility.yul\":4051:4168   */\ntag_44:\n    /* \"#utility.yul\":4160:4161   */\n  0x00\n    /* \"#utility.yul\":4157:4158   */\n  dup1\n    /* \"#utility.yul\":4150:4162   */\n  revert\n    /* \"#utility.yul\":4174:4276   */\ntag_63:\n    /* \"#utility.yul\":4215:4221   */\n  0x00\n    /* \"#utility.yul\":4266:4268   */\n  0x1f\n    /* \"#utility.yul\":4262:4269   */\n  not\n    /* \"#utility.yul\":4257:4259   */\n  0x1f\n    /* \"#utility.yul\":4250:4255   */\n  dup4\n    /* \"#utility.yul\":4246:4260   */\n  add\n    /* \"#utility.yul\":4242:4270   */\n  and\n    /* \"#utility.yul\":4232:4270   */\n  swap1\n  pop\n    /* \"#utility.yul\":4174:4276   */\n  swap2\n  swap1\n  pop\n  jump\t// out\n    /* \"MyHomeToken.sol\":118:7104  contract MyHomesToken {... */\ntag_11:\n  dataSize(sub_0)\n  dup1\n  dataOffset(sub_0)\n  0x00\n  codecopy\n  0x00\n  return\nstop\n\nsub_0: assembly {\n        /* \"MyHomeToken.sol\":118:7104  contract MyHomesToken {... */\n      mstore(0x40, 0x80)\n      jumpi(tag_1, lt(calldatasize, 0x04))\n      shr(0xe0, calldataload(0x00))\n      dup1\n      0x87caea78\n      gt\n      tag_29\n      jumpi\n      dup1\n      0xaf769c64\n      gt\n      tag_30\n      jumpi\n      dup1\n      0xd8124c5f\n      gt\n      tag_31\n      jumpi\n      dup1\n      0xd8124c5f\n      eq\n      tag_25\n      jumpi\n      dup1\n      0xd96a094a\n      eq\n      tag_26\n      jumpi\n      dup1\n      0xdf094409\n      eq\n      tag_27\n      jumpi\n      dup1\n      0xf80723a8\n      eq\n      tag_28\n      jumpi\n      jump(tag_1)\n    tag_31:\n      dup1\n      0xaf769c64\n      eq\n      tag_22\n      jumpi\n      dup1\n      0xb9223946\n      eq\n      tag_23\n      jumpi\n      dup1\n      0xcd0c5896\n      eq\n      tag_24\n      jumpi\n      jump(tag_1)\n    tag_30:\n      dup1\n      0x8eb54c6f\n      gt\n      tag_32\n      jumpi\n      dup1\n      0x8eb54c6f\n      eq\n      tag_18\n      jumpi\n      dup1\n      0x9a982416\n      eq\n      tag_19\n      jumpi\n      dup1\n      0xa14ba987\n      eq\n      tag_20\n      jumpi\n      dup1\n      0xa9059cbb\n      eq\n      tag_21\n      jumpi\n      jump(tag_1)\n    tag_32:\n      dup1\n      0x87caea78\n      eq\n      tag_15\n      jumpi\n      dup1\n      0x8cb647d3\n      eq\n      tag_16\n      jumpi\n      dup1\n      0x8da5cb5b\n      eq\n      tag_17\n      jumpi\n      jump(tag_1)\n    tag_29:\n      dup1\n      0x46a86576\n      gt\n      tag_33\n      jumpi\n      dup1\n      0x5ab59720\n      gt\n      tag_34\n      jumpi\n      dup1\n      0x5ab59720\n      eq\n      tag_11\n      jumpi\n      dup1\n      0x612fb2ec\n      eq\n      tag_12\n      jumpi\n      dup1\n      0x7427a40c\n      eq\n      tag_13\n      jumpi\n      dup1\n      0x7ff9b596\n      eq\n      tag_14\n      jumpi\n      jump(tag_1)\n    tag_34:\n      dup1\n      0x46a86576\n      eq\n      tag_8\n      jumpi\n      dup1\n      0x4c0a6af0\n      eq\n      tag_9\n      jumpi\n      dup1\n      0x59ea0173\n      eq\n      tag_10\n      jumpi\n      jump(tag_1)\n    tag_33:\n      dup1\n      0x162d8afb\n      eq\n      tag_2\n      jumpi\n      dup1\n      0x27e235e3\n      eq\n      tag_3\n      jumpi\n      dup1\n      0x293230b8\n      eq\n      tag_4\n      jumpi\n      dup1\n      0x2cd39acc\n      eq\n      tag_5\n      jumpi\n      dup1\n      0x3a98ef39\n      eq\n      tag_6\n      jumpi\n      dup1\n      0x3be75aa3\n      eq\n      tag_7\n      jumpi\n    tag_1:\n      0x00\n      dup1\n      revert\n        /* \"MyHomeToken.sol\":244:271  uint public totalHouses = 0 */\n    tag_2:\n      callvalue\n      dup1\n      iszero\n      tag_35\n      jumpi\n      0x00\n      dup1\n      revert\n    tag_35:\n      pop\n      tag_36\n      tag_37\n      jump\t// in\n    tag_36:\n      mload(0x40)\n      tag_38\n      swap2\n      swap1\n      tag_39\n      jump\t// in\n    tag_38:\n      mload(0x40)\n      dup1\n      swap2\n      sub\n      swap1\n      return\n        /* \"MyHomeToken.sol\":542:586  mapping (address => uint256) public balances */\n    tag_3:\n      callvalue\n      dup1\n      iszero\n      tag_40\n      jumpi\n      0x00\n      dup1\n      revert\n    tag_40:\n      pop\n      tag_41\n      0x04\n      dup1\n      calldatasize\n      sub\n      dup2\n      add\n      swap1\n      tag_42\n      swap2\n      swap1\n      tag_43\n      jump\t// in\n    tag_42:\n      tag_44\n      jump\t// in\n    tag_41:\n      mload(0x40)\n      tag_45\n      swap2\n      swap1\n      tag_39\n      jump\t// in\n    tag_45:\n      mload(0x40)\n      dup1\n      swap2\n      sub\n      swap1\n      return\n        /* \"MyHomeToken.sol\":2710:2793  function startTrading() public onlyRegulator {... */\n    tag_4:\n      callvalue\n      dup1\n      iszero\n      tag_46\n      jumpi\n      0x00\n      dup1\n      revert\n    tag_46:\n      pop\n      tag_47\n      tag_48\n      jump\t// in\n    tag_47:\n      stop\n        /* \"MyHomeToken.sol\":608:652  mapping(uint => Ballot) public ballotHistory */\n    tag_5:\n      callvalue\n      dup1\n      iszero\n      tag_49\n      jumpi\n      0x00\n      dup1\n      revert\n    tag_49:\n      pop\n      tag_50\n      0x04\n      dup1\n      calldatasize\n      sub\n      dup2\n      add\n      swap1\n      tag_51\n      swap2\n      swap1\n      tag_52\n      jump\t// in\n    tag_51:\n      tag_53\n      jump\t// in\n    tag_50:\n      mload(0x40)\n      tag_54\n      swap6\n      swap5\n      swap4\n      swap3\n      swap2\n      swap1\n      tag_55\n      jump\t// in\n    tag_54:\n      mload(0x40)\n      dup1\n      swap2\n      sub\n      swap1\n      return\n        /* \"MyHomeToken.sol\":277:309  uint256 public totalShares = 100 */\n    tag_6:\n      callvalue\n      dup1\n      iszero\n      tag_56\n      jumpi\n      0x00\n      dup1\n      revert\n    tag_56:\n      pop\n      tag_57\n      tag_58\n      jump\t// in\n    tag_57:\n      mload(0x40)\n      tag_59\n      swap2\n      swap1\n      tag_39\n      jump\t// in\n    tag_59:\n      mload(0x40)\n      dup1\n      swap2\n      sub\n      swap1\n      return\n        /* \"MyHomeToken.sol\":350:380  uint256 public shareLimit = 10 */\n    tag_7:\n      callvalue\n      dup1\n      iszero\n      tag_60\n      jumpi\n      0x00\n      dup1\n      revert\n    tag_60:\n      pop\n      tag_61\n      tag_62\n      jump\t// in\n    tag_61:\n      mload(0x40)\n      tag_63\n      swap2\n      swap1\n      tag_39\n      jump\t// in\n    tag_63:\n      mload(0x40)\n      dup1\n      swap2\n      sub\n      swap1\n      return\n        /* \"MyHomeToken.sol\":5258:5702  function createBallot(string memory _proposal) public canVote(msg.sender) {... */\n    tag_8:\n      callvalue\n      dup1\n      iszero\n      tag_64\n      jumpi\n      0x00\n      dup1\n      revert\n    tag_64:\n      pop\n      tag_65\n      0x04\n      dup1\n      calldatasize\n      sub\n      dup2\n      add\n      swap1\n      tag_66\n      swap2\n      swap1\n      tag_67\n      jump\t// in\n    tag_66:\n      tag_68\n      jump\t// in\n    tag_65:\n      stop\n        /* \"MyHomeToken.sol\":5708:5899  function startVote()... */\n    tag_9:\n      callvalue\n      dup1\n      iszero\n      tag_69\n      jumpi\n      0x00\n      dup1\n      revert\n    tag_69:\n      pop\n      tag_70\n      tag_71\n      jump\t// in\n    tag_70:\n      stop\n        /* \"MyHomeToken.sol\":485:536  mapping(address => bool) public shareHolderRegistry */\n    tag_10:\n      callvalue\n      dup1\n      iszero\n      tag_72\n      jumpi\n      0x00\n      dup1\n      revert\n    tag_72:\n      pop\n      tag_73\n      0x04\n      dup1\n      calldatasize\n      sub\n      dup2\n      add\n      swap1\n      tag_74\n      swap2\n      swap1\n      tag_43\n      jump\t// in\n    tag_74:\n      tag_75\n      jump\t// in\n    tag_73:\n      mload(0x40)\n      tag_76\n      swap2\n      swap1\n      tag_77\n      jump\t// in\n    tag_76:\n      mload(0x40)\n      dup1\n      swap2\n      sub\n      swap1\n      return\n        /* \"MyHomeToken.sol\":3808:4108  function removeShareHolder(address _shareHolderAddress)... */\n    tag_11:\n      callvalue\n      dup1\n      iszero\n      tag_78\n      jumpi\n      0x00\n      dup1\n      revert\n    tag_78:\n      pop\n      tag_79\n      0x04\n      dup1\n      calldatasize\n      sub\n      dup2\n      add\n      swap1\n      tag_80\n      swap2\n      swap1\n      tag_43\n      jump\t// in\n    tag_80:\n      tag_81\n      jump\t// in\n    tag_79:\n      stop\n        /* \"MyHomeToken.sol\":658:686  uint public totalBallots = 0 */\n    tag_12:\n      callvalue\n      dup1\n      iszero\n      tag_82\n      jumpi\n      0x00\n      dup1\n      revert\n    tag_82:\n      pop\n      tag_83\n      tag_84\n      jump\t// in\n    tag_83:\n      mload(0x40)\n      tag_85\n      swap2\n      swap1\n      tag_39\n      jump\t// in\n    tag_85:\n      mload(0x40)\n      dup1\n      swap2\n      sub\n      swap1\n      return\n        /* \"MyHomeToken.sol\":450:479  address[] public shareHolders */\n    tag_13:\n      callvalue\n      dup1\n      iszero\n      tag_86\n      jumpi\n      0x00\n      dup1\n      revert\n    tag_86:\n      pop\n      tag_87\n      0x04\n      dup1\n      calldatasize\n      sub\n      dup2\n      add\n      swap1\n      tag_88\n      swap2\n      swap1\n      tag_52\n      jump\t// in\n    tag_88:\n      tag_89\n      jump\t// in\n    tag_87:\n      mload(0x40)\n      tag_90\n      swap2\n      swap1\n      tag_91\n      jump\t// in\n    tag_90:\n      mload(0x40)\n      dup1\n      swap2\n      sub\n      swap1\n      return\n        /* \"MyHomeToken.sol\":315:344  uint256 public tokenPrice = 1 */\n    tag_14:\n      callvalue\n      dup1\n      iszero\n      tag_92\n      jumpi\n      0x00\n      dup1\n      revert\n    tag_92:\n      pop\n      tag_93\n      tag_94\n      jump\t// in\n    tag_93:\n      mload(0x40)\n      tag_95\n      swap2\n      swap1\n      tag_39\n      jump\t// in\n    tag_95:\n      mload(0x40)\n      dup1\n      swap2\n      sub\n      swap1\n      return\n        /* \"MyHomeToken.sol\":5905:6567  function doVote(bool _choice)... */\n    tag_15:\n      callvalue\n      dup1\n      iszero\n      tag_96\n      jumpi\n      0x00\n      dup1\n      revert\n    tag_96:\n      pop\n      tag_97\n      0x04\n      dup1\n      calldatasize\n      sub\n      dup2\n      add\n      swap1\n      tag_98\n      swap2\n      swap1\n      tag_99\n      jump\t// in\n    tag_98:\n      tag_100\n      jump\t// in\n    tag_97:\n      mload(0x40)\n      tag_101\n      swap2\n      swap1\n      tag_77\n      jump\t// in\n    tag_101:\n      mload(0x40)\n      dup1\n      swap2\n      sub\n      swap1\n      return\n        /* \"MyHomeToken.sol\":6573:6840  function getMyVote() public view canVote(msg.sender) returns (bool vote) {... */\n    tag_16:\n      callvalue\n      dup1\n      iszero\n      tag_102\n      jumpi\n      0x00\n      dup1\n      revert\n    tag_102:\n      pop\n      tag_103\n      tag_104\n      jump\t// in\n    tag_103:\n      mload(0x40)\n      tag_105\n      swap2\n      swap1\n      tag_77\n      jump\t// in\n    tag_105:\n      mload(0x40)\n      dup1\n      swap2\n      sub\n      swap1\n      return\n        /* \"MyHomeToken.sol\":146:174  address payable public owner */\n    tag_17:\n      callvalue\n      dup1\n      iszero\n      tag_106\n      jumpi\n      0x00\n      dup1\n      revert\n    tag_106:\n      pop\n      tag_107\n      tag_108\n      jump\t// in\n    tag_107:\n      mload(0x40)\n      tag_109\n      swap2\n      swap1\n      tag_110\n      jump\t// in\n    tag_109:\n      mload(0x40)\n      dup1\n      swap2\n      sub\n      swap1\n      return\n        /* \"MyHomeToken.sol\":4340:4769  function sellToOwner(uint tokenNum) public payable {... */\n    tag_18:\n      tag_111\n      0x04\n      dup1\n      calldatasize\n      sub\n      dup2\n      add\n      swap1\n      tag_112\n      swap2\n      swap1\n      tag_52\n      jump\t// in\n    tag_112:\n      tag_113\n      jump\t// in\n    tag_111:\n      stop\n        /* \"MyHomeToken.sol\":386:419  uint public totalShareHolders = 0 */\n    tag_19:\n      callvalue\n      dup1\n      iszero\n      tag_114\n      jumpi\n      0x00\n      dup1\n      revert\n    tag_114:\n      pop\n      tag_115\n      tag_116\n      jump\t// in\n    tag_115:\n      mload(0x40)\n      tag_117\n      swap2\n      swap1\n      tag_39\n      jump\t// in\n    tag_117:\n      mload(0x40)\n      dup1\n      swap2\n      sub\n      swap1\n      return\n        /* \"MyHomeToken.sol\":210:238  House[] public houseRegister */\n    tag_20:\n      callvalue\n      dup1\n      iszero\n      tag_118\n      jumpi\n      0x00\n      dup1\n      revert\n    tag_118:\n      pop\n      tag_119\n      0x04\n      dup1\n      calldatasize\n      sub\n      dup2\n      add\n      swap1\n      tag_120\n      swap2\n      swap1\n      tag_52\n      jump\t// in\n    tag_120:\n      tag_121\n      jump\t// in\n    tag_119:\n      mload(0x40)\n      tag_122\n      swap4\n      swap3\n      swap2\n      swap1\n      tag_123\n      jump\t// in\n    tag_122:\n      mload(0x40)\n      dup1\n      swap2\n      sub\n      swap1\n      return\n        /* \"MyHomeToken.sol\":4114:4334  function transfer(address _to, uint256 _value) public {... */\n    tag_21:\n      callvalue\n      dup1\n      iszero\n      tag_124\n      jumpi\n      0x00\n      dup1\n      revert\n    tag_124:\n      pop\n      tag_125\n      0x04\n      dup1\n      calldatasize\n      sub\n      dup2\n      add\n      swap1\n      tag_126\n      swap2\n      swap1\n      tag_127\n      jump\t// in\n    tag_126:\n      tag_128\n      jump\t// in\n    tag_125:\n      stop\n        /* \"MyHomeToken.sol\":3453:3802  function addShareHolder(address _shareHolderAddress)... */\n    tag_22:\n      callvalue\n      dup1\n      iszero\n      tag_129\n      jumpi\n      0x00\n      dup1\n      revert\n    tag_129:\n      pop\n      tag_130\n      0x04\n      dup1\n      calldatasize\n      sub\n      dup2\n      add\n      swap1\n      tag_131\n      swap2\n      swap1\n      tag_43\n      jump\t// in\n    tag_131:\n      tag_132\n      jump\t// in\n    tag_130:\n      stop\n        /* \"MyHomeToken.sol\":6846:7102  function endVote()... */\n    tag_23:\n      callvalue\n      dup1\n      iszero\n      tag_133\n      jumpi\n      0x00\n      dup1\n      revert\n    tag_133:\n      pop\n      tag_134\n      tag_135\n      jump\t// in\n    tag_134:\n      stop\n        /* \"MyHomeToken.sol\":2600:2704  function etherBalance(address _addr) public view returns (uint256) {... */\n    tag_24:\n      callvalue\n      dup1\n      iszero\n      tag_136\n      jumpi\n      0x00\n      dup1\n      revert\n    tag_136:\n      pop\n      tag_137\n      0x04\n      dup1\n      calldatasize\n      sub\n      dup2\n      add\n      swap1\n      tag_138\n      swap2\n      swap1\n      tag_43\n      jump\t// in\n    tag_138:\n      tag_139\n      jump\t// in\n    tag_137:\n      mload(0x40)\n      tag_140\n      swap2\n      swap1\n      tag_39\n      jump\t// in\n    tag_140:\n      mload(0x40)\n      dup1\n      swap2\n      sub\n      swap1\n      return\n        /* \"MyHomeToken.sol\":180:204  HousingPackage public hp */\n    tag_25:\n      callvalue\n      dup1\n      iszero\n      tag_141\n      jumpi\n      0x00\n      dup1\n      revert\n    tag_141:\n      pop\n      tag_142\n      tag_143\n      jump\t// in\n    tag_142:\n      mload(0x40)\n      tag_144\n      swap4\n      swap3\n      swap2\n      swap1\n      tag_123\n      jump\t// in\n    tag_144:\n      mload(0x40)\n      dup1\n      swap2\n      sub\n      swap1\n      return\n        /* \"MyHomeToken.sol\":4775:5252  function buy(uint tokenNum) public payable {... */\n    tag_26:\n      tag_145\n      0x04\n      dup1\n      calldatasize\n      sub\n      dup2\n      add\n      swap1\n      tag_146\n      swap2\n      swap1\n      tag_52\n      jump\t// in\n    tag_146:\n      tag_147\n      jump\t// in\n    tag_145:\n      stop\n        /* \"MyHomeToken.sol\":2799:3169  function addHouse(string memory _registrationId, string memory location, uint256 price) ... */\n    tag_27:\n      callvalue\n      dup1\n      iszero\n      tag_148\n      jumpi\n      0x00\n      dup1\n      revert\n    tag_148:\n      pop\n      tag_149\n      0x04\n      dup1\n      calldatasize\n      sub\n      dup2\n      add\n      swap1\n      tag_150\n      swap2\n      swap1\n      tag_151\n      jump\t// in\n    tag_150:\n      tag_152\n      jump\t// in\n    tag_149:\n      stop\n        /* \"MyHomeToken.sol\":692:719  Ballot public currentBallot */\n    tag_28:\n      callvalue\n      dup1\n      iszero\n      tag_153\n      jumpi\n      0x00\n      dup1\n      revert\n    tag_153:\n      pop\n      tag_154\n      tag_155\n      jump\t// in\n    tag_154:\n      mload(0x40)\n      tag_156\n      swap6\n      swap5\n      swap4\n      swap3\n      swap2\n      swap1\n      tag_55\n      jump\t// in\n    tag_156:\n      mload(0x40)\n      dup1\n      swap2\n      sub\n      swap1\n      return\n        /* \"MyHomeToken.sol\":244:271  uint public totalHouses = 0 */\n    tag_37:\n      sload(0x05)\n      dup2\n      jump\t// out\n        /* \"MyHomeToken.sol\":542:586  mapping (address => uint256) public balances */\n    tag_44:\n      mstore(0x20, 0x0d)\n      dup1\n      0x00\n      mstore\n      keccak256(0x00, 0x40)\n      0x00\n      swap2\n      pop\n      swap1\n      pop\n      sload\n      dup2\n      jump\t// out\n        /* \"MyHomeToken.sol\":2710:2793  function startTrading() public onlyRegulator {... */\n    tag_48:\n        /* \"MyHomeToken.sol\":1633:1638  owner */\n      0x00\n      dup1\n      sload\n      swap1\n      0x0100\n      exp\n      swap1\n      div\n      0xffffffffffffffffffffffffffffffffffffffff\n      and\n        /* \"MyHomeToken.sol\":1619:1638  msg.sender == owner */\n      0xffffffffffffffffffffffffffffffffffffffff\n      and\n        /* \"MyHomeToken.sol\":1619:1629  msg.sender */\n      caller\n        /* \"MyHomeToken.sol\":1619:1638  msg.sender == owner */\n      0xffffffffffffffffffffffffffffffffffffffff\n      and\n      eq\n        /* \"MyHomeToken.sol\":1611:1639  require(msg.sender == owner) */\n      tag_158\n      jumpi\n      0x00\n      dup1\n      revert\n    tag_158:\n        /* \"MyHomeToken.sol\":2773:2786  State.Running */\n      0x01\n        /* \"MyHomeToken.sol\":2765:2770  state */\n      0x0a\n      0x00\n        /* \"MyHomeToken.sol\":2765:2786  state = State.Running */\n      0x0100\n      exp\n      dup2\n      sload\n      dup2\n      0xff\n      mul\n      not\n      and\n      swap1\n      dup4\n      0x01\n      dup2\n      gt\n      iszero\n      tag_160\n      jumpi\n      tag_161\n      tag_162\n      jump\t// in\n    tag_161:\n    tag_160:\n      mul\n      or\n      swap1\n      sstore\n      pop\n        /* \"MyHomeToken.sol\":2710:2793  function startTrading() public onlyRegulator {... */\n      jump\t// out\n        /* \"MyHomeToken.sol\":608:652  mapping(uint => Ballot) public ballotHistory */\n    tag_53:\n      mstore(0x20, 0x0e)\n      dup1\n      0x00\n      mstore\n      keccak256(0x00, 0x40)\n      0x00\n      swap2\n      pop\n      swap1\n      pop\n      dup1\n      0x00\n      add\n      dup1\n      sload\n      tag_163\n      swap1\n      tag_164\n      jump\t// in\n    tag_163:\n      dup1\n      0x1f\n      add\n      0x20\n      dup1\n      swap2\n      div\n      mul\n      0x20\n      add\n      mload(0x40)\n      swap1\n      dup2\n      add\n      0x40\n      mstore\n      dup1\n      swap3\n      swap2\n      swap1\n      dup2\n      dup2\n      mstore\n      0x20\n      add\n      dup3\n      dup1\n      sload\n      tag_165\n      swap1\n      tag_164\n      jump\t// in\n    tag_165:\n      dup1\n      iszero\n      tag_166\n      jumpi\n      dup1\n      0x1f\n      lt\n      tag_167\n      jumpi\n      0x0100\n      dup1\n      dup4\n      sload\n      div\n      mul\n      dup4\n      mstore\n      swap2\n      0x20\n      add\n      swap2\n      jump(tag_166)\n    tag_167:\n      dup3\n      add\n      swap2\n      swap1\n      0x00\n      mstore\n      keccak256(0x00, 0x20)\n      swap1\n    tag_168:\n      dup2\n      sload\n      dup2\n      mstore\n      swap1\n      0x01\n      add\n      swap1\n      0x20\n      add\n      dup1\n      dup4\n      gt\n      tag_168\n      jumpi\n      dup3\n      swap1\n      sub\n      0x1f\n      and\n      dup3\n      add\n      swap2\n    tag_166:\n      pop\n      pop\n      pop\n      pop\n      pop\n      swap1\n      dup1\n      0x01\n      add\n      0x00\n      swap1\n      sload\n      swap1\n      0x0100\n      exp\n      swap1\n      div\n      0xffffffffffffffffffffffffffffffffffffffff\n      and\n      swap1\n      dup1\n      0x02\n      add\n      dup1\n      sload\n      tag_169\n      swap1\n      tag_164\n      jump\t// in\n    tag_169:\n      dup1\n      0x1f\n      add\n      0x20\n      dup1\n      swap2\n      div\n      mul\n      0x20\n      add\n      mload(0x40)\n      swap1\n      dup2\n      add\n      0x40\n      mstore\n      dup1\n      swap3\n      swap2\n      swap1\n      dup2\n      dup2\n      mstore\n      0x20\n      add\n      dup3\n      dup1\n      sload\n      tag_170\n      swap1\n      tag_164\n      jump\t// in\n    tag_170:\n      dup1\n      iszero\n      tag_171\n      jumpi\n      dup1\n      0x1f\n      lt\n      tag_172\n      jumpi\n      0x0100\n      dup1\n      dup4\n      sload\n      div\n      mul\n      dup4\n      mstore\n      swap2\n      0x20\n      add\n      swap2\n      jump(tag_171)\n    tag_172:\n      dup3\n      add\n      swap2\n      swap1\n      0x00\n      mstore\n      keccak256(0x00, 0x20)\n      swap1\n    tag_173:\n      dup2\n      sload\n      dup2\n      mstore\n      swap1\n      0x01\n      add\n      swap1\n      0x20\n      add\n      dup1\n      dup4\n      gt\n      tag_173\n      jumpi\n      dup3\n      swap1\n      sub\n      0x1f\n      and\n      dup3\n      add\n      swap2\n    tag_171:\n      pop\n      pop\n      pop\n      pop\n      pop\n      swap1\n      dup1\n      0x03\n      add\n      sload\n      swap1\n      dup1\n      0x04\n      add\n      sload\n      swap1\n      pop\n      dup6\n      jump\t// out\n        /* \"MyHomeToken.sol\":277:309  uint256 public totalShares = 100 */\n    tag_58:\n      sload(0x06)\n      dup2\n      jump\t// out\n        /* \"MyHomeToken.sol\":350:380  uint256 public shareLimit = 10 */\n    tag_62:\n      sload(0x08)\n      dup2\n      jump\t// out\n        /* \"MyHomeToken.sol\":5258:5702  function createBallot(string memory _proposal) public canVote(msg.sender) {... */\n    tag_68:\n        /* \"MyHomeToken.sol\":5320:5330  msg.sender */\n      caller\n        /* \"MyHomeToken.sol\":1997:2003  sender */\n      dup1\n        /* \"MyHomeToken.sol\":1988:2003  owner != sender */\n      0xffffffffffffffffffffffffffffffffffffffff\n      and\n        /* \"MyHomeToken.sol\":1988:1993  owner */\n      0x00\n      dup1\n      sload\n      swap1\n      0x0100\n      exp\n      swap1\n      div\n      0xffffffffffffffffffffffffffffffffffffffff\n      and\n        /* \"MyHomeToken.sol\":1988:2003  owner != sender */\n      0xffffffffffffffffffffffffffffffffffffffff\n      and\n      eq\n        /* \"MyHomeToken.sol\":1984:2316  if (owner != sender) {... */\n      tag_175\n      jumpi\n        /* \"MyHomeToken.sol\":2019:2029  bool found */\n      0x00\n        /* \"MyHomeToken.sol\":2056:2062  uint i */\n      dup1\n        /* \"MyHomeToken.sol\":2051:2229  for (uint i = 0; i<totalShareHolders; i++) {... */\n    tag_176:\n        /* \"MyHomeToken.sol\":2070:2087  totalShareHolders */\n      sload(0x09)\n        /* \"MyHomeToken.sol\":2068:2069  i */\n      dup2\n        /* \"MyHomeToken.sol\":2068:2087  i<totalShareHolders */\n      lt\n        /* \"MyHomeToken.sol\":2051:2229  for (uint i = 0; i<totalShareHolders; i++) {... */\n      iszero\n      tag_177\n      jumpi\n        /* \"MyHomeToken.sol\":2135:2141  sender */\n      dup3\n        /* \"MyHomeToken.sol\":2116:2141  shareHolders[i] == sender */\n      0xffffffffffffffffffffffffffffffffffffffff\n      and\n        /* \"MyHomeToken.sol\":2116:2128  shareHolders */\n      0x0b\n        /* \"MyHomeToken.sol\":2129:2130  i */\n      dup3\n        /* \"MyHomeToken.sol\":2116:2131  shareHolders[i] */\n      dup2\n      sload\n      dup2\n      lt\n      tag_179\n      jumpi\n      tag_180\n      tag_181\n      jump\t// in\n    tag_180:\n    tag_179:\n      swap1\n      0x00\n      mstore\n      keccak256(0x00, 0x20)\n      add\n      0x00\n      swap1\n      sload\n      swap1\n      0x0100\n      exp\n      swap1\n      div\n      0xffffffffffffffffffffffffffffffffffffffff\n      and\n        /* \"MyHomeToken.sol\":2116:2141  shareHolders[i] == sender */\n      0xffffffffffffffffffffffffffffffffffffffff\n      and\n      eq\n        /* \"MyHomeToken.sol\":2116:2160  shareHolders[i] == sender || owner == sender */\n      dup1\n      tag_183\n      jumpi\n      pop\n        /* \"MyHomeToken.sol\":2154:2160  sender */\n      dup3\n        /* \"MyHomeToken.sol\":2145:2160  owner == sender */\n      0xffffffffffffffffffffffffffffffffffffffff\n      and\n        /* \"MyHomeToken.sol\":2145:2150  owner */\n      0x00\n      dup1\n      sload\n      swap1\n      0x0100\n      exp\n      swap1\n      div\n      0xffffffffffffffffffffffffffffffffffffffff\n      and\n        /* \"MyHomeToken.sol\":2145:2160  owner == sender */\n      0xffffffffffffffffffffffffffffffffffffffff\n      and\n      eq\n        /* \"MyHomeToken.sol\":2116:2160  shareHolders[i] == sender || owner == sender */\n    tag_183:\n        /* \"MyHomeToken.sol\":2112:2215  if (shareHolders[i] == sender || owner == sender) {... */\n      iszero\n      tag_184\n      jumpi\n        /* \"MyHomeToken.sol\":2192:2196  true */\n      0x01\n        /* \"MyHomeToken.sol\":2184:2196  found = true */\n      swap2\n      pop\n        /* \"MyHomeToken.sol\":2112:2215  if (shareHolders[i] == sender || owner == sender) {... */\n    tag_184:\n        /* \"MyHomeToken.sol\":2089:2092  i++ */\n      dup1\n      dup1\n      tag_185\n      swap1\n      tag_186\n      jump\t// in\n    tag_185:\n      swap2\n      pop\n      pop\n        /* \"MyHomeToken.sol\":2051:2229  for (uint i = 0; i<totalShareHolders; i++) {... */\n      jump(tag_176)\n    tag_177:\n      pop\n        /* \"MyHomeToken.sol\":2260:2264  true */\n      0x01\n        /* \"MyHomeToken.sol\":2251:2264  found == true */\n      iszero\n      iszero\n        /* \"MyHomeToken.sol\":2251:2256  found */\n      dup2\n        /* \"MyHomeToken.sol\":2251:2264  found == true */\n      iszero\n      iszero\n      eq\n        /* \"MyHomeToken.sol\":2243:2305  require(found == true, \"You have no rights to create ballot!\") */\n      tag_187\n      jumpi\n      mload(0x40)\n      0x08c379a000000000000000000000000000000000000000000000000000000000\n      dup2\n      mstore\n      0x04\n      add\n      tag_188\n      swap1\n      tag_189\n      jump\t// in\n    tag_188:\n      mload(0x40)\n      dup1\n      swap2\n      sub\n      swap1\n      revert\n    tag_187:\n        /* \"MyHomeToken.sol\":2005:2316  {... */\n      pop\n        /* \"MyHomeToken.sol\":1984:2316  if (owner != sender) {... */\n    tag_175:\n        /* \"MyHomeToken.sol\":5358:5425  Ballot(Strings.toString(totalBallots), msg.sender, _proposal, 0, 0) */\n      mload(0x40)\n      dup1\n      0xa0\n      add\n      0x40\n      mstore\n      dup1\n        /* \"MyHomeToken.sol\":5365:5395  Strings.toString(totalBallots) */\n      tag_191\n        /* \"MyHomeToken.sol\":5382:5394  totalBallots */\n      sload(0x0f)\n        /* \"MyHomeToken.sol\":5365:5381  Strings.toString */\n      tag_192\n        /* \"MyHomeToken.sol\":5365:5395  Strings.toString(totalBallots) */\n      jump\t// in\n    tag_191:\n        /* \"MyHomeToken.sol\":5358:5425  Ballot(Strings.toString(totalBallots), msg.sender, _proposal, 0, 0) */\n      dup2\n      mstore\n      0x20\n      add\n        /* \"MyHomeToken.sol\":5397:5407  msg.sender */\n      caller\n        /* \"MyHomeToken.sol\":5358:5425  Ballot(Strings.toString(totalBallots), msg.sender, _proposal, 0, 0) */\n      0xffffffffffffffffffffffffffffffffffffffff\n      and\n      dup2\n      mstore\n      0x20\n      add\n        /* \"MyHomeToken.sol\":5409:5418  _proposal */\n      dup4\n        /* \"MyHomeToken.sol\":5358:5425  Ballot(Strings.toString(totalBallots), msg.sender, _proposal, 0, 0) */\n      dup2\n      mstore\n      0x20\n      add\n        /* \"MyHomeToken.sol\":5420:5421  0 */\n      0x00\n        /* \"MyHomeToken.sol\":5358:5425  Ballot(Strings.toString(totalBallots), msg.sender, _proposal, 0, 0) */\n      dup2\n      mstore\n      0x20\n      add\n        /* \"MyHomeToken.sol\":5423:5424  0 */\n      0x00\n        /* \"MyHomeToken.sol\":5358:5425  Ballot(Strings.toString(totalBallots), msg.sender, _proposal, 0, 0) */\n      dup2\n      mstore\n      pop\n        /* \"MyHomeToken.sol\":5342:5355  currentBallot */\n      0x10\n        /* \"MyHomeToken.sol\":5342:5425  currentBallot = Ballot(Strings.toString(totalBallots), msg.sender, _proposal, 0, 0) */\n      0x00\n      dup3\n      add\n      mload\n      dup2\n      0x00\n      add\n      swap1\n      dup1\n      mload\n      swap1\n      0x20\n      add\n      swap1\n      tag_193\n      swap3\n      swap2\n      swap1\n      tag_194\n      jump\t// in\n    tag_193:\n      pop\n      0x20\n      dup3\n      add\n      mload\n      dup2\n      0x01\n      add\n      exp(0x0100, 0x00)\n      dup2\n      sload\n      dup2\n      0xffffffffffffffffffffffffffffffffffffffff\n      mul\n      not\n      and\n      swap1\n      dup4\n      0xffffffffffffffffffffffffffffffffffffffff\n      and\n      mul\n      or\n      swap1\n      sstore\n      pop\n      0x40\n      dup3\n      add\n      mload\n      dup2\n      0x02\n      add\n      swap1\n      dup1\n      mload\n      swap1\n      0x20\n      add\n      swap1\n      tag_195\n      swap3\n      swap2\n      swap1\n      tag_194\n      jump\t// in\n    tag_195:\n      pop\n      0x60\n      dup3\n      add\n      mload\n      dup2\n      0x03\n      add\n      sstore\n      0x80\n      dup3\n      add\n      mload\n      dup2\n      0x04\n      add\n      sstore\n      swap1\n      pop\n      pop\n        /* \"MyHomeToken.sol\":5449:5468  BallotState.Created */\n      0x00\n        /* \"MyHomeToken.sol\":5435:5446  ballotState */\n      0x15\n      0x00\n        /* \"MyHomeToken.sol\":5435:5468  ballotState = BallotState.Created */\n      0x0100\n      exp\n      dup2\n      sload\n      dup2\n      0xff\n      mul\n      not\n      and\n      swap1\n      dup4\n      0x02\n      dup2\n      gt\n      iszero\n      tag_196\n      jumpi\n      tag_197\n      tag_162\n      jump\t// in\n    tag_197:\n    tag_196:\n      mul\n      or\n      swap1\n      sstore\n      pop\n        /* \"MyHomeToken.sol\":5508:5521  currentBallot */\n      0x10\n        /* \"MyHomeToken.sol\":5478:5491  ballotHistory */\n      0x0e\n        /* \"MyHomeToken.sol\":5478:5505  ballotHistory[totalBallots] */\n      0x00\n        /* \"MyHomeToken.sol\":5492:5504  totalBallots */\n      sload(0x0f)\n        /* \"MyHomeToken.sol\":5478:5505  ballotHistory[totalBallots] */\n      dup2\n      mstore\n      0x20\n      add\n      swap1\n      dup2\n      mstore\n      0x20\n      add\n      0x00\n      keccak256\n        /* \"MyHomeToken.sol\":5478:5521  ballotHistory[totalBallots] = currentBallot */\n      0x00\n      dup3\n      add\n      dup2\n      0x00\n      add\n      swap1\n      dup1\n      sload\n      tag_198\n      swap1\n      tag_164\n      jump\t// in\n    tag_198:\n      tag_199\n      swap3\n      swap2\n      swap1\n      tag_200\n      jump\t// in\n    tag_199:\n      pop\n      0x01\n      dup3\n      add\n      0x00\n      swap1\n      sload\n      swap1\n      0x0100\n      exp\n      swap1\n      div\n      0xffffffffffffffffffffffffffffffffffffffff\n      and\n      dup2\n      0x01\n      add\n      exp(0x0100, 0x00)\n      dup2\n      sload\n      dup2\n      0xffffffffffffffffffffffffffffffffffffffff\n      mul\n      not\n      and\n      swap1\n      dup4\n      0xffffffffffffffffffffffffffffffffffffffff\n      and\n      mul\n      or\n      swap1\n      sstore\n      pop\n      0x02\n      dup3\n      add\n      dup2\n      0x02\n      add\n      swap1\n      dup1\n      sload\n      tag_201\n      swap1\n      tag_164\n      jump\t// in\n    tag_201:\n      tag_202\n      swap3\n      swap2\n      swap1\n      tag_200\n      jump\t// in\n    tag_202:\n      pop\n      0x03\n      dup3\n      add\n      sload\n      dup2\n      0x03\n      add\n      sstore\n      0x04\n      dup3\n      add\n      sload\n      dup2\n      0x04\n      add\n      sstore\n      swap1\n      pop\n      pop\n        /* \"MyHomeToken.sol\":5531:5543  totalBallots */\n      0x0f\n      0x00\n        /* \"MyHomeToken.sol\":5531:5545  totalBallots++ */\n      dup2\n      sload\n      dup1\n      swap3\n      swap2\n      swap1\n      tag_203\n      swap1\n      tag_186\n      jump\t// in\n    tag_203:\n      swap2\n      swap1\n      pop\n      sstore\n      pop\n        /* \"MyHomeToken.sol\":5560:5566  uint i */\n      0x00\n        /* \"MyHomeToken.sol\":5555:5696  for (uint i = 0; i<totalShareHolders; i++) {... */\n    tag_204:\n        /* \"MyHomeToken.sol\":5574:5591  totalShareHolders */\n      sload(0x09)\n        /* \"MyHomeToken.sol\":5572:5573  i */\n      dup2\n        /* \"MyHomeToken.sol\":5572:5591  i<totalShareHolders */\n      lt\n        /* \"MyHomeToken.sol\":5555:5696  for (uint i = 0; i<totalShareHolders; i++) {... */\n      iszero\n      tag_205\n      jumpi\n        /* \"MyHomeToken.sol\":5612:5622  address sh */\n      0x00\n        /* \"MyHomeToken.sol\":5625:5637  shareHolders */\n      0x0b\n        /* \"MyHomeToken.sol\":5638:5639  i */\n      dup3\n        /* \"MyHomeToken.sol\":5625:5640  shareHolders[i] */\n      dup2\n      sload\n      dup2\n      lt\n      tag_207\n      jumpi\n      tag_208\n      tag_181\n      jump\t// in\n    tag_208:\n    tag_207:\n      swap1\n      0x00\n      mstore\n      keccak256(0x00, 0x20)\n      add\n      0x00\n      swap1\n      sload\n      swap1\n      0x0100\n      exp\n      swap1\n      div\n      0xffffffffffffffffffffffffffffffffffffffff\n      and\n        /* \"MyHomeToken.sol\":5612:5640  address sh = shareHolders[i] */\n      swap1\n      pop\n        /* \"MyHomeToken.sol\":5680:5685  false */\n      0x00\n        /* \"MyHomeToken.sol\":5654:5673  shareHolderRegistry */\n      0x0c\n        /* \"MyHomeToken.sol\":5654:5677  shareHolderRegistry[sh] */\n      0x00\n        /* \"MyHomeToken.sol\":5674:5676  sh */\n      dup4\n        /* \"MyHomeToken.sol\":5654:5677  shareHolderRegistry[sh] */\n      0xffffffffffffffffffffffffffffffffffffffff\n      and\n      0xffffffffffffffffffffffffffffffffffffffff\n      and\n      dup2\n      mstore\n      0x20\n      add\n      swap1\n      dup2\n      mstore\n      0x20\n      add\n      0x00\n      keccak256\n      0x00\n        /* \"MyHomeToken.sol\":5654:5685  shareHolderRegistry[sh] = false */\n      0x0100\n      exp\n      dup2\n      sload\n      dup2\n      0xff\n      mul\n      not\n      and\n      swap1\n      dup4\n      iszero\n      iszero\n      mul\n      or\n      swap1\n      sstore\n      pop\n        /* \"MyHomeToken.sol\":5598:5696  {... */\n      pop\n        /* \"MyHomeToken.sol\":5593:5596  i++ */\n      dup1\n      dup1\n      tag_210\n      swap1\n      tag_186\n      jump\t// in\n    tag_210:\n      swap2\n      pop\n      pop\n        /* \"MyHomeToken.sol\":5555:5696  for (uint i = 0; i<totalShareHolders; i++) {... */\n      jump(tag_204)\n    tag_205:\n      pop\n        /* \"MyHomeToken.sol\":5258:5702  function createBallot(string memory _proposal) public canVote(msg.sender) {... */\n      pop\n      pop\n      jump\t// out\n        /* \"MyHomeToken.sol\":5708:5899  function startVote()... */\n    tag_71:\n        /* \"MyHomeToken.sol\":5766:5785  BallotState.Created */\n      0x00\n        /* \"MyHomeToken.sol\":1893:1899  _state */\n      dup1\n        /* \"MyHomeToken.sol\":1878:1899  ballotState == _state */\n      0x02\n      dup2\n      gt\n      iszero\n      tag_212\n      jumpi\n      tag_213\n      tag_162\n      jump\t// in\n    tag_213:\n    tag_212:\n        /* \"MyHomeToken.sol\":1878:1889  ballotState */\n      0x15\n      0x00\n      swap1\n      sload\n      swap1\n      0x0100\n      exp\n      swap1\n      div\n      0xff\n      and\n        /* \"MyHomeToken.sol\":1878:1899  ballotState == _state */\n      0x02\n      dup2\n      gt\n      iszero\n      tag_214\n      jumpi\n      tag_215\n      tag_162\n      jump\t// in\n    tag_215:\n    tag_214:\n      eq\n        /* \"MyHomeToken.sol\":1870:1926  require(ballotState == _state, \"Voting has not started\") */\n      tag_216\n      jumpi\n      mload(0x40)\n      0x08c379a000000000000000000000000000000000000000000000000000000000\n      dup2\n      mstore\n      0x04\n      add\n      tag_217\n      swap1\n      tag_218\n      jump\t// in\n    tag_217:\n      mload(0x40)\n      dup1\n      swap2\n      sub\n      swap1\n      revert\n    tag_216:\n        /* \"MyHomeToken.sol\":1785:1798  currentBallot */\n      0x10\n        /* \"MyHomeToken.sol\":1785:1810  currentBallot.ballotOwner */\n      0x01\n      add\n      0x00\n      swap1\n      sload\n      swap1\n      0x0100\n      exp\n      swap1\n      div\n      0xffffffffffffffffffffffffffffffffffffffff\n      and\n        /* \"MyHomeToken.sol\":1771:1810  msg.sender == currentBallot.ballotOwner */\n      0xffffffffffffffffffffffffffffffffffffffff\n      and\n        /* \"MyHomeToken.sol\":1771:1781  msg.sender */\n      caller\n        /* \"MyHomeToken.sol\":1771:1810  msg.sender == currentBallot.ballotOwner */\n      0xffffffffffffffffffffffffffffffffffffffff\n      and\n      eq\n        /* \"MyHomeToken.sol\":1763:1811  require(msg.sender == currentBallot.ballotOwner) */\n      tag_220\n      jumpi\n      0x00\n      dup1\n      revert\n    tag_220:\n        /* \"MyHomeToken.sol\":5843:5861  BallotState.Voting */\n      0x01\n        /* \"MyHomeToken.sol\":5829:5840  ballotState */\n      0x15\n      0x00\n        /* \"MyHomeToken.sol\":5829:5861  ballotState = BallotState.Voting */\n      0x0100\n      exp\n      dup2\n      sload\n      dup2\n      0xff\n      mul\n      not\n      and\n      swap1\n      dup4\n      0x02\n      dup2\n      gt\n      iszero\n      tag_222\n      jumpi\n      tag_223\n      tag_162\n      jump\t// in\n    tag_223:\n    tag_222:\n      mul\n      or\n      swap1\n      sstore\n      pop\n        /* \"MyHomeToken.sol\":5879:5892  voteStarted() */\n      0xd0dc01800a369fef30d3fced5275b8b916549867622e79efca5245c479fda4ea\n      mload(0x40)\n      mload(0x40)\n      dup1\n      swap2\n      sub\n      swap1\n      log1\n        /* \"MyHomeToken.sol\":5708:5899  function startVote()... */\n      pop\n      jump\t// out\n        /* \"MyHomeToken.sol\":485:536  mapping(address => bool) public shareHolderRegistry */\n    tag_75:\n      mstore(0x20, 0x0c)\n      dup1\n      0x00\n      mstore\n      keccak256(0x00, 0x40)\n      0x00\n      swap2\n      pop\n      sload\n      swap1\n      0x0100\n      exp\n      swap1\n      div\n      0xff\n      and\n      dup2\n      jump\t// out\n        /* \"MyHomeToken.sol\":3808:4108  function removeShareHolder(address _shareHolderAddress)... */\n    tag_81:\n        /* \"MyHomeToken.sol\":3901:3907  uint i */\n      0x00\n        /* \"MyHomeToken.sol\":3896:4099  for (uint i = 0; i<totalShareHolders; i++) {... */\n    tag_225:\n        /* \"MyHomeToken.sol\":3915:3932  totalShareHolders */\n      sload(0x09)\n        /* \"MyHomeToken.sol\":3913:3914  i */\n      dup2\n        /* \"MyHomeToken.sol\":3913:3932  i<totalShareHolders */\n      lt\n        /* \"MyHomeToken.sol\":3896:4099  for (uint i = 0; i<totalShareHolders; i++) {... */\n      iszero\n      tag_226\n      jumpi\n        /* \"MyHomeToken.sol\":3976:3995  _shareHolderAddress */\n      dup2\n        /* \"MyHomeToken.sol\":3957:3995  shareHolders[i] == _shareHolderAddress */\n      0xffffffffffffffffffffffffffffffffffffffff\n      and\n        /* \"MyHomeToken.sol\":3957:3969  shareHolders */\n      0x0b\n        /* \"MyHomeToken.sol\":3970:3971  i */\n      dup3\n        /* \"MyHomeToken.sol\":3957:3972  shareHolders[i] */\n      dup2\n      sload\n      dup2\n      lt\n      tag_228\n      jumpi\n      tag_229\n      tag_181\n      jump\t// in\n    tag_229:\n    tag_228:\n      swap1\n      0x00\n      mstore\n      keccak256(0x00, 0x20)\n      add\n      0x00\n      swap1\n      sload\n      swap1\n      0x0100\n      exp\n      swap1\n      div\n      0xffffffffffffffffffffffffffffffffffffffff\n      and\n        /* \"MyHomeToken.sol\":3957:3995  shareHolders[i] == _shareHolderAddress */\n      0xffffffffffffffffffffffffffffffffffffffff\n      and\n      eq\n        /* \"MyHomeToken.sol\":3953:4089  if (shareHolders[i] == _shareHolderAddress) {... */\n      iszero\n      tag_231\n      jumpi\n        /* \"MyHomeToken.sol\":4022:4034  shareHolders */\n      0x0b\n        /* \"MyHomeToken.sol\":4035:4036  i */\n      dup2\n        /* \"MyHomeToken.sol\":4022:4037  shareHolders[i] */\n      dup2\n      sload\n      dup2\n      lt\n      tag_232\n      jumpi\n      tag_233\n      tag_181\n      jump\t// in\n    tag_233:\n    tag_232:\n      swap1\n      0x00\n      mstore\n      keccak256(0x00, 0x20)\n      add\n      0x00\n        /* \"MyHomeToken.sol\":4015:4037  delete shareHolders[i] */\n      0x0100\n      exp\n      dup2\n      sload\n      swap1\n      0xffffffffffffffffffffffffffffffffffffffff\n      mul\n      not\n      and\n      swap1\n      sstore\n        /* \"MyHomeToken.sol\":4055:4072  totalShareHolders */\n      0x09\n      0x00\n        /* \"MyHomeToken.sol\":4055:4074  totalShareHolders-- */\n      dup2\n      sload\n      dup1\n      swap3\n      swap2\n      swap1\n      tag_235\n      swap1\n      tag_236\n      jump\t// in\n    tag_235:\n      swap2\n      swap1\n      pop\n      sstore\n      pop\n        /* \"MyHomeToken.sol\":3953:4089  if (shareHolders[i] == _shareHolderAddress) {... */\n    tag_231:\n        /* \"MyHomeToken.sol\":3934:3937  i++ */\n      dup1\n      dup1\n      tag_237\n      swap1\n      tag_186\n      jump\t// in\n    tag_237:\n      swap2\n      pop\n      pop\n        /* \"MyHomeToken.sol\":3896:4099  for (uint i = 0; i<totalShareHolders; i++) {... */\n      jump(tag_225)\n    tag_226:\n      pop\n        /* \"MyHomeToken.sol\":3808:4108  function removeShareHolder(address _shareHolderAddress)... */\n      pop\n      jump\t// out\n        /* \"MyHomeToken.sol\":658:686  uint public totalBallots = 0 */\n    tag_84:\n      sload(0x0f)\n      dup2\n      jump\t// out\n        /* \"MyHomeToken.sol\":450:479  address[] public shareHolders */\n    tag_89:\n      0x0b\n      dup2\n      dup2\n      sload\n      dup2\n      lt\n      tag_238\n      jumpi\n      0x00\n      dup1\n      revert\n    tag_238:\n      swap1\n      0x00\n      mstore\n      keccak256(0x00, 0x20)\n      add\n      0x00\n      swap2\n      pop\n      sload\n      swap1\n      0x0100\n      exp\n      swap1\n      div\n      0xffffffffffffffffffffffffffffffffffffffff\n      and\n      dup2\n      jump\t// out\n        /* \"MyHomeToken.sol\":315:344  uint256 public tokenPrice = 1 */\n    tag_94:\n      sload(0x07)\n      dup2\n      jump\t// out\n        /* \"MyHomeToken.sol\":5905:6567  function doVote(bool _choice)... */\n    tag_100:\n        /* \"MyHomeToken.sol\":6037:6047  bool voted */\n      0x00\n        /* \"MyHomeToken.sol\":5972:5990  BallotState.Voting */\n      0x01\n        /* \"MyHomeToken.sol\":1893:1899  _state */\n      dup1\n        /* \"MyHomeToken.sol\":1878:1899  ballotState == _state */\n      0x02\n      dup2\n      gt\n      iszero\n      tag_241\n      jumpi\n      tag_242\n      tag_162\n      jump\t// in\n    tag_242:\n    tag_241:\n        /* \"MyHomeToken.sol\":1878:1889  ballotState */\n      0x15\n      0x00\n      swap1\n      sload\n      swap1\n      0x0100\n      exp\n      swap1\n      div\n      0xff\n      and\n        /* \"MyHomeToken.sol\":1878:1899  ballotState == _state */\n      0x02\n      dup2\n      gt\n      iszero\n      tag_243\n      jumpi\n      tag_244\n      tag_162\n      jump\t// in\n    tag_244:\n    tag_243:\n      eq\n        /* \"MyHomeToken.sol\":1870:1926  require(ballotState == _state, \"Voting has not started\") */\n      tag_245\n      jumpi\n      mload(0x40)\n      0x08c379a000000000000000000000000000000000000000000000000000000000\n      dup2\n      mstore\n      0x04\n      add\n      tag_246\n      swap1\n      tag_218\n      jump\t// in\n    tag_246:\n      mload(0x40)\n      dup1\n      swap2\n      sub\n      swap1\n      revert\n    tag_245:\n        /* \"MyHomeToken.sol\":6008:6018  msg.sender */\n      caller\n        /* \"MyHomeToken.sol\":1997:2003  sender */\n      dup1\n        /* \"MyHomeToken.sol\":1988:2003  owner != sender */\n      0xffffffffffffffffffffffffffffffffffffffff\n      and\n        /* \"MyHomeToken.sol\":1988:1993  owner */\n      0x00\n      dup1\n      sload\n      swap1\n      0x0100\n      exp\n      swap1\n      div\n      0xffffffffffffffffffffffffffffffffffffffff\n      and\n        /* \"MyHomeToken.sol\":1988:2003  owner != sender */\n      0xffffffffffffffffffffffffffffffffffffffff\n      and\n      eq\n        /* \"MyHomeToken.sol\":1984:2316  if (owner != sender) {... */\n      tag_248\n      jumpi\n        /* \"MyHomeToken.sol\":2019:2029  bool found */\n      0x00\n        /* \"MyHomeToken.sol\":2056:2062  uint i */\n      dup1\n        /* \"MyHomeToken.sol\":2051:2229  for (uint i = 0; i<totalShareHolders; i++) {... */\n    tag_249:\n        /* \"MyHomeToken.sol\":2070:2087  totalShareHolders */\n      sload(0x09)\n        /* \"MyHomeToken.sol\":2068:2069  i */\n      dup2\n        /* \"MyHomeToken.sol\":2068:2087  i<totalShareHolders */\n      lt\n        /* \"MyHomeToken.sol\":2051:2229  for (uint i = 0; i<totalShareHolders; i++) {... */\n      iszero\n      tag_250\n      jumpi\n        /* \"MyHomeToken.sol\":2135:2141  sender */\n      dup3\n        /* \"MyHomeToken.sol\":2116:2141  shareHolders[i] == sender */\n      0xffffffffffffffffffffffffffffffffffffffff\n      and\n        /* \"MyHomeToken.sol\":2116:2128  shareHolders */\n      0x0b\n        /* \"MyHomeToken.sol\":2129:2130  i */\n      dup3\n        /* \"MyHomeToken.sol\":2116:2131  shareHolders[i] */\n      dup2\n      sload\n      dup2\n      lt\n      tag_252\n      jumpi\n      tag_253\n      tag_181\n      jump\t// in\n    tag_253:\n    tag_252:\n      swap1\n      0x00\n      mstore\n      keccak256(0x00, 0x20)\n      add\n      0x00\n      swap1\n      sload\n      swap1\n      0x0100\n      exp\n      swap1\n      div\n      0xffffffffffffffffffffffffffffffffffffffff\n      and\n        /* \"MyHomeToken.sol\":2116:2141  shareHolders[i] == sender */\n      0xffffffffffffffffffffffffffffffffffffffff\n      and\n      eq\n        /* \"MyHomeToken.sol\":2116:2160  shareHolders[i] == sender || owner == sender */\n      dup1\n      tag_255\n      jumpi\n      pop\n        /* \"MyHomeToken.sol\":2154:2160  sender */\n      dup3\n        /* \"MyHomeToken.sol\":2145:2160  owner == sender */\n      0xffffffffffffffffffffffffffffffffffffffff\n      and\n        /* \"MyHomeToken.sol\":2145:2150  owner */\n      0x00\n      dup1\n      sload\n      swap1\n      0x0100\n      exp\n      swap1\n      div\n      0xffffffffffffffffffffffffffffffffffffffff\n      and\n        /* \"MyHomeToken.sol\":2145:2160  owner == sender */\n      0xffffffffffffffffffffffffffffffffffffffff\n      and\n      eq\n        /* \"MyHomeToken.sol\":2116:2160  shareHolders[i] == sender || owner == sender */\n    tag_255:\n        /* \"MyHomeToken.sol\":2112:2215  if (shareHolders[i] == sender || owner == sender) {... */\n      iszero\n      tag_256\n      jumpi\n        /* \"MyHomeToken.sol\":2192:2196  true */\n      0x01\n        /* \"MyHomeToken.sol\":2184:2196  found = true */\n      swap2\n      pop\n        /* \"MyHomeToken.sol\":2112:2215  if (shareHolders[i] == sender || owner == sender) {... */\n    tag_256:\n        /* \"MyHomeToken.sol\":2089:2092  i++ */\n      dup1\n      dup1\n      tag_257\n      swap1\n      tag_186\n      jump\t// in\n    tag_257:\n      swap2\n      pop\n      pop\n        /* \"MyHomeToken.sol\":2051:2229  for (uint i = 0; i<totalShareHolders; i++) {... */\n      jump(tag_249)\n    tag_250:\n      pop\n        /* \"MyHomeToken.sol\":2260:2264  true */\n      0x01\n        /* \"MyHomeToken.sol\":2251:2264  found == true */\n      iszero\n      iszero\n        /* \"MyHomeToken.sol\":2251:2256  found */\n      dup2\n        /* \"MyHomeToken.sol\":2251:2264  found == true */\n      iszero\n      iszero\n      eq\n        /* \"MyHomeToken.sol\":2243:2305  require(found == true, \"You have no rights to create ballot!\") */\n      tag_258\n      jumpi\n      mload(0x40)\n      0x08c379a000000000000000000000000000000000000000000000000000000000\n      dup2\n      mstore\n      0x04\n      add\n      tag_259\n      swap1\n      tag_189\n      jump\t// in\n    tag_259:\n      mload(0x40)\n      dup1\n      swap2\n      sub\n      swap1\n      revert\n    tag_258:\n        /* \"MyHomeToken.sol\":2005:2316  {... */\n      pop\n        /* \"MyHomeToken.sol\":1984:2316  if (owner != sender) {... */\n    tag_248:\n        /* \"MyHomeToken.sol\":6063:6073  bool found */\n      0x00\n        /* \"MyHomeToken.sol\":6096:6115  shareHolderRegistry */\n      0x0c\n        /* \"MyHomeToken.sol\":6096:6127  shareHolderRegistry[msg.sender] */\n      0x00\n        /* \"MyHomeToken.sol\":6116:6126  msg.sender */\n      caller\n        /* \"MyHomeToken.sol\":6096:6127  shareHolderRegistry[msg.sender] */\n      0xffffffffffffffffffffffffffffffffffffffff\n      and\n      0xffffffffffffffffffffffffffffffffffffffff\n      and\n      dup2\n      mstore\n      0x20\n      add\n      swap1\n      dup2\n      mstore\n      0x20\n      add\n      0x00\n      keccak256\n      0x00\n      swap1\n      sload\n      swap1\n      0x0100\n      exp\n      swap1\n      div\n      0xff\n      and\n        /* \"MyHomeToken.sol\":6091:6504  if (!shareHolderRegistry[msg.sender]){... */\n      tag_261\n      jumpi\n        /* \"MyHomeToken.sol\":6176:6180  true */\n      0x01\n        /* \"MyHomeToken.sol\":6142:6161  shareHolderRegistry */\n      0x0c\n        /* \"MyHomeToken.sol\":6142:6173  shareHolderRegistry[msg.sender] */\n      0x00\n        /* \"MyHomeToken.sol\":6162:6172  msg.sender */\n      caller\n        /* \"MyHomeToken.sol\":6142:6173  shareHolderRegistry[msg.sender] */\n      0xffffffffffffffffffffffffffffffffffffffff\n      and\n      0xffffffffffffffffffffffffffffffffffffffff\n      and\n      dup2\n      mstore\n      0x20\n      add\n      swap1\n      dup2\n      mstore\n      0x20\n      add\n      0x00\n      keccak256\n      0x00\n        /* \"MyHomeToken.sol\":6142:6180  shareHolderRegistry[msg.sender] = true */\n      0x0100\n      exp\n      dup2\n      sload\n      dup2\n      0xff\n      mul\n      not\n      and\n      swap1\n      dup4\n      iszero\n      iszero\n      mul\n      or\n      swap1\n      sstore\n      pop\n        /* \"MyHomeToken.sol\":6194:6207  Vote memory v */\n      tag_262\n      tag_263\n      jump\t// in\n    tag_262:\n        /* \"MyHomeToken.sol\":6244:6254  msg.sender */\n      caller\n        /* \"MyHomeToken.sol\":6221:6222  v */\n      dup2\n        /* \"MyHomeToken.sol\":6221:6241  v.shareHolderAddress */\n      0x00\n      add\n        /* \"MyHomeToken.sol\":6221:6254  v.shareHolderAddress = msg.sender */\n      swap1\n      0xffffffffffffffffffffffffffffffffffffffff\n      and\n      swap1\n      dup2\n      0xffffffffffffffffffffffffffffffffffffffff\n      and\n      dup2\n      mstore\n      pop\n      pop\n        /* \"MyHomeToken.sol\":6279:6286  _choice */\n      dup6\n        /* \"MyHomeToken.sol\":6268:6269  v */\n      dup2\n        /* \"MyHomeToken.sol\":6268:6276  v.choice */\n      0x20\n      add\n        /* \"MyHomeToken.sol\":6268:6286  v.choice = _choice */\n      swap1\n      iszero\n      iszero\n      swap1\n      dup2\n      iszero\n      iszero\n      dup2\n      mstore\n      pop\n      pop\n        /* \"MyHomeToken.sol\":6304:6311  _choice */\n      dup6\n        /* \"MyHomeToken.sol\":6300:6379  if (_choice){... */\n      iszero\n      tag_264\n      jumpi\n        /* \"MyHomeToken.sol\":6330:6341  resultCount */\n      0x17\n      0x00\n        /* \"MyHomeToken.sol\":6330:6343  resultCount++ */\n      dup2\n      sload\n      dup1\n      swap3\n      swap2\n      swap1\n      tag_265\n      swap1\n      tag_186\n      jump\t// in\n    tag_265:\n      swap2\n      swap1\n      pop\n      sstore\n      pop\n        /* \"MyHomeToken.sol\":6300:6379  if (_choice){... */\n    tag_264:\n        /* \"MyHomeToken.sol\":6426:6427  v */\n      dup1\n        /* \"MyHomeToken.sol\":6392:6397  votes */\n      0x16\n        /* \"MyHomeToken.sol\":6392:6423  votes[currentBallot.totalVotes] */\n      0x00\n        /* \"MyHomeToken.sol\":6398:6411  currentBallot */\n      0x10\n        /* \"MyHomeToken.sol\":6398:6422  currentBallot.totalVotes */\n      0x04\n      add\n      sload\n        /* \"MyHomeToken.sol\":6392:6423  votes[currentBallot.totalVotes] */\n      dup2\n      mstore\n      0x20\n      add\n      swap1\n      dup2\n      mstore\n      0x20\n      add\n      0x00\n      keccak256\n        /* \"MyHomeToken.sol\":6392:6427  votes[currentBallot.totalVotes] = v */\n      0x00\n      dup3\n      add\n      mload\n      dup2\n      0x00\n      add\n      exp(0x0100, 0x00)\n      dup2\n      sload\n      dup2\n      0xffffffffffffffffffffffffffffffffffffffff\n      mul\n      not\n      and\n      swap1\n      dup4\n      0xffffffffffffffffffffffffffffffffffffffff\n      and\n      mul\n      or\n      swap1\n      sstore\n      pop\n      0x20\n      dup3\n      add\n      mload\n      dup2\n      0x00\n      add\n      exp(0x0100, 0x14)\n      dup2\n      sload\n      dup2\n      0xff\n      mul\n      not\n      and\n      swap1\n      dup4\n      iszero\n      iszero\n      mul\n      or\n      swap1\n      sstore\n      pop\n      swap1\n      pop\n      pop\n        /* \"MyHomeToken.sol\":6441:6454  currentBallot */\n      0x10\n        /* \"MyHomeToken.sol\":6441:6465  currentBallot.totalVotes */\n      0x04\n      add\n      0x00\n        /* \"MyHomeToken.sol\":6441:6467  currentBallot.totalVotes++ */\n      dup2\n      sload\n      dup1\n      swap3\n      swap2\n      swap1\n      tag_266\n      swap1\n      tag_186\n      jump\t// in\n    tag_266:\n      swap2\n      swap1\n      pop\n      sstore\n      pop\n        /* \"MyHomeToken.sol\":6489:6493  true */\n      0x01\n        /* \"MyHomeToken.sol\":6481:6493  found = true */\n      swap2\n      pop\n        /* \"MyHomeToken.sol\":6128:6504  {... */\n      pop\n        /* \"MyHomeToken.sol\":6091:6504  if (!shareHolderRegistry[msg.sender]){... */\n    tag_261:\n        /* \"MyHomeToken.sol\":6518:6538  voteDone(msg.sender) */\n      0x55c65cf9526efdf6c2252fe9757889dbd93e10172cad0f2edb1df619c88dbf7d\n        /* \"MyHomeToken.sol\":6527:6537  msg.sender */\n      caller\n        /* \"MyHomeToken.sol\":6518:6538  voteDone(msg.sender) */\n      mload(0x40)\n      tag_267\n      swap2\n      swap1\n      tag_91\n      jump\t// in\n    tag_267:\n      mload(0x40)\n      dup1\n      swap2\n      sub\n      swap1\n      log1\n        /* \"MyHomeToken.sol\":6555:6560  found */\n      dup1\n        /* \"MyHomeToken.sol\":6548:6560  return found */\n      swap4\n      pop\n      pop\n        /* \"MyHomeToken.sol\":1930:1931  _ */\n      pop\n        /* \"MyHomeToken.sol\":5905:6567  function doVote(bool _choice)... */\n      pop\n      swap2\n      swap1\n      pop\n      jump\t// out\n        /* \"MyHomeToken.sol\":6573:6840  function getMyVote() public view canVote(msg.sender) returns (bool vote) {... */\n    tag_104:\n        /* \"MyHomeToken.sol\":6635:6644  bool vote */\n      0x00\n        /* \"MyHomeToken.sol\":6614:6624  msg.sender */\n      caller\n        /* \"MyHomeToken.sol\":1997:2003  sender */\n      dup1\n        /* \"MyHomeToken.sol\":1988:2003  owner != sender */\n      0xffffffffffffffffffffffffffffffffffffffff\n      and\n        /* \"MyHomeToken.sol\":1988:1993  owner */\n      0x00\n      dup1\n      sload\n      swap1\n      0x0100\n      exp\n      swap1\n      div\n      0xffffffffffffffffffffffffffffffffffffffff\n      and\n        /* \"MyHomeToken.sol\":1988:2003  owner != sender */\n      0xffffffffffffffffffffffffffffffffffffffff\n      and\n      eq\n        /* \"MyHomeToken.sol\":1984:2316  if (owner != sender) {... */\n      tag_269\n      jumpi\n        /* \"MyHomeToken.sol\":2019:2029  bool found */\n      0x00\n        /* \"MyHomeToken.sol\":2056:2062  uint i */\n      dup1\n        /* \"MyHomeToken.sol\":2051:2229  for (uint i = 0; i<totalShareHolders; i++) {... */\n    tag_270:\n        /* \"MyHomeToken.sol\":2070:2087  totalShareHolders */\n      sload(0x09)\n        /* \"MyHomeToken.sol\":2068:2069  i */\n      dup2\n        /* \"MyHomeToken.sol\":2068:2087  i<totalShareHolders */\n      lt\n        /* \"MyHomeToken.sol\":2051:2229  for (uint i = 0; i<totalShareHolders; i++) {... */\n      iszero\n      tag_271\n      jumpi\n        /* \"MyHomeToken.sol\":2135:2141  sender */\n      dup3\n        /* \"MyHomeToken.sol\":2116:2141  shareHolders[i] == sender */\n      0xffffffffffffffffffffffffffffffffffffffff\n      and\n        /* \"MyHomeToken.sol\":2116:2128  shareHolders */\n      0x0b\n        /* \"MyHomeToken.sol\":2129:2130  i */\n      dup3\n        /* \"MyHomeToken.sol\":2116:2131  shareHolders[i] */\n      dup2\n      sload\n      dup2\n      lt\n      tag_273\n      jumpi\n      tag_274\n      tag_181\n      jump\t// in\n    tag_274:\n    tag_273:\n      swap1\n      0x00\n      mstore\n      keccak256(0x00, 0x20)\n      add\n      0x00\n      swap1\n      sload\n      swap1\n      0x0100\n      exp\n      swap1\n      div\n      0xffffffffffffffffffffffffffffffffffffffff\n      and\n        /* \"MyHomeToken.sol\":2116:2141  shareHolders[i] == sender */\n      0xffffffffffffffffffffffffffffffffffffffff\n      and\n      eq\n        /* \"MyHomeToken.sol\":2116:2160  shareHolders[i] == sender || owner == sender */\n      dup1\n      tag_276\n      jumpi\n      pop\n        /* \"MyHomeToken.sol\":2154:2160  sender */\n      dup3\n        /* \"MyHomeToken.sol\":2145:2160  owner == sender */\n      0xffffffffffffffffffffffffffffffffffffffff\n      and\n        /* \"MyHomeToken.sol\":2145:2150  owner */\n      0x00\n      dup1\n      sload\n      swap1\n      0x0100\n      exp\n      swap1\n      div\n      0xffffffffffffffffffffffffffffffffffffffff\n      and\n        /* \"MyHomeToken.sol\":2145:2160  owner == sender */\n      0xffffffffffffffffffffffffffffffffffffffff\n      and\n      eq\n        /* \"MyHomeToken.sol\":2116:2160  shareHolders[i] == sender || owner == sender */\n    tag_276:\n        /* \"MyHomeToken.sol\":2112:2215  if (shareHolders[i] == sender || owner == sender) {... */\n      iszero\n      tag_277\n      jumpi\n        /* \"MyHomeToken.sol\":2192:2196  true */\n      0x01\n        /* \"MyHomeToken.sol\":2184:2196  found = true */\n      swap2\n      pop\n        /* \"MyHomeToken.sol\":2112:2215  if (shareHolders[i] == sender || owner == sender) {... */\n    tag_277:\n        /* \"MyHomeToken.sol\":2089:2092  i++ */\n      dup1\n      dup1\n      tag_278\n      swap1\n      tag_186\n      jump\t// in\n    tag_278:\n      swap2\n      pop\n      pop\n        /* \"MyHomeToken.sol\":2051:2229  for (uint i = 0; i<totalShareHolders; i++) {... */\n      jump(tag_270)\n    tag_271:\n      pop\n        /* \"MyHomeToken.sol\":2260:2264  true */\n      0x01\n        /* \"MyHomeToken.sol\":2251:2264  found == true */\n      iszero\n      iszero\n        /* \"MyHomeToken.sol\":2251:2256  found */\n      dup2\n        /* \"MyHomeToken.sol\":2251:2264  found == true */\n      iszero\n      iszero\n      eq\n        /* \"MyHomeToken.sol\":2243:2305  require(found == true, \"You have no rights to create ballot!\") */\n      tag_279\n      jumpi\n      mload(0x40)\n      0x08c379a000000000000000000000000000000000000000000000000000000000\n      dup2\n      mstore\n      0x04\n      add\n      tag_280\n      swap1\n      tag_189\n      jump\t// in\n    tag_280:\n      mload(0x40)\n      dup1\n      swap2\n      sub\n      swap1\n      revert\n    tag_279:\n        /* \"MyHomeToken.sol\":2005:2316  {... */\n      pop\n        /* \"MyHomeToken.sol\":1984:2316  if (owner != sender) {... */\n    tag_269:\n        /* \"MyHomeToken.sol\":6661:6667  uint i */\n      0x00\n        /* \"MyHomeToken.sol\":6656:6834  for (uint i = 0; i < currentBallot.totalVotes; i++) {... */\n    tag_282:\n        /* \"MyHomeToken.sol\":6677:6690  currentBallot */\n      0x10\n        /* \"MyHomeToken.sol\":6677:6701  currentBallot.totalVotes */\n      0x04\n      add\n      sload\n        /* \"MyHomeToken.sol\":6673:6674  i */\n      dup2\n        /* \"MyHomeToken.sol\":6673:6701  i < currentBallot.totalVotes */\n      lt\n        /* \"MyHomeToken.sol\":6656:6834  for (uint i = 0; i < currentBallot.totalVotes; i++) {... */\n      iszero\n      tag_283\n      jumpi\n        /* \"MyHomeToken.sol\":6757:6767  msg.sender */\n      caller\n        /* \"MyHomeToken.sol\":6726:6767  votes[i].shareHolderAddress == msg.sender */\n      0xffffffffffffffffffffffffffffffffffffffff\n      and\n        /* \"MyHomeToken.sol\":6726:6731  votes */\n      0x16\n        /* \"MyHomeToken.sol\":6726:6734  votes[i] */\n      0x00\n        /* \"MyHomeToken.sol\":6732:6733  i */\n      dup4\n        /* \"MyHomeToken.sol\":6726:6734  votes[i] */\n      dup2\n      mstore\n      0x20\n      add\n      swap1\n      dup2\n      mstore\n      0x20\n      add\n      0x00\n      keccak256\n        /* \"MyHomeToken.sol\":6726:6753  votes[i].shareHolderAddress */\n      0x00\n      add\n      0x00\n      swap1\n      sload\n      swap1\n      0x0100\n      exp\n      swap1\n      div\n      0xffffffffffffffffffffffffffffffffffffffff\n      and\n        /* \"MyHomeToken.sol\":6726:6767  votes[i].shareHolderAddress == msg.sender */\n      0xffffffffffffffffffffffffffffffffffffffff\n      and\n      eq\n        /* \"MyHomeToken.sol\":6722:6824  if (votes[i].shareHolderAddress == msg.sender) {... */\n      iszero\n      tag_285\n      jumpi\n        /* \"MyHomeToken.sol\":6794:6799  votes */\n      0x16\n        /* \"MyHomeToken.sol\":6794:6802  votes[i] */\n      0x00\n        /* \"MyHomeToken.sol\":6800:6801  i */\n      dup3\n        /* \"MyHomeToken.sol\":6794:6802  votes[i] */\n      dup2\n      mstore\n      0x20\n      add\n      swap1\n      dup2\n      mstore\n      0x20\n      add\n      0x00\n      keccak256\n        /* \"MyHomeToken.sol\":6794:6809  votes[i].choice */\n      0x00\n      add\n      0x14\n      swap1\n      sload\n      swap1\n      0x0100\n      exp\n      swap1\n      div\n      0xff\n      and\n        /* \"MyHomeToken.sol\":6787:6809  return votes[i].choice */\n      swap3\n      pop\n      pop\n      jump(tag_281)\n        /* \"MyHomeToken.sol\":6722:6824  if (votes[i].shareHolderAddress == msg.sender) {... */\n    tag_285:\n        /* \"MyHomeToken.sol\":6703:6706  i++ */\n      dup1\n      dup1\n      tag_286\n      swap1\n      tag_186\n      jump\t// in\n    tag_286:\n      swap2\n      pop\n      pop\n        /* \"MyHomeToken.sol\":6656:6834  for (uint i = 0; i < currentBallot.totalVotes; i++) {... */\n      jump(tag_282)\n    tag_283:\n      pop\n        /* \"MyHomeToken.sol\":2322:2323  _ */\n    tag_281:\n        /* \"MyHomeToken.sol\":6573:6840  function getMyVote() public view canVote(msg.sender) returns (bool vote) {... */\n      pop\n      swap1\n      jump\t// out\n        /* \"MyHomeToken.sol\":146:174  address payable public owner */\n    tag_108:\n      0x00\n      dup1\n      sload\n      swap1\n      0x0100\n      exp\n      swap1\n      div\n      0xffffffffffffffffffffffffffffffffffffffff\n      and\n      dup2\n      jump\t// out\n        /* \"MyHomeToken.sol\":4340:4769  function sellToOwner(uint tokenNum) public payable {... */\n    tag_113:\n        /* \"MyHomeToken.sol\":4421:4429  balances */\n      0x0d\n        /* \"MyHomeToken.sol\":4421:4441  balances[msg.sender] */\n      0x00\n        /* \"MyHomeToken.sol\":4430:4440  msg.sender */\n      caller\n        /* \"MyHomeToken.sol\":4421:4441  balances[msg.sender] */\n      0xffffffffffffffffffffffffffffffffffffffff\n      and\n      0xffffffffffffffffffffffffffffffffffffffff\n      and\n      dup2\n      mstore\n      0x20\n      add\n      swap1\n      dup2\n      mstore\n      0x20\n      add\n      0x00\n      keccak256\n      sload\n        /* \"MyHomeToken.sol\":4409:4417  tokenNum */\n      dup2\n        /* \"MyHomeToken.sol\":4409:4441  tokenNum <= balances[msg.sender] */\n      gt\n      iszero\n        /* \"MyHomeToken.sol\":4401:4479  require(tokenNum <= balances[msg.sender], \"Cannot sell shares you do not own\") */\n      tag_288\n      jumpi\n      mload(0x40)\n      0x08c379a000000000000000000000000000000000000000000000000000000000\n      dup2\n      mstore\n      0x04\n      add\n      tag_289\n      swap1\n      tag_290\n      jump\t// in\n    tag_289:\n      mload(0x40)\n      dup1\n      swap2\n      sub\n      swap1\n      revert\n    tag_288:\n        /* \"MyHomeToken.sol\":4489:4513  address payable receiver */\n      0x00\n        /* \"MyHomeToken.sol\":4524:4534  msg.sender */\n      caller\n        /* \"MyHomeToken.sol\":4489:4535  address payable receiver = payable(msg.sender) */\n      swap1\n      pop\n        /* \"MyHomeToken.sol\":4545:4553  receiver */\n      dup1\n        /* \"MyHomeToken.sol\":4545:4562  receiver.transfer */\n      0xffffffffffffffffffffffffffffffffffffffff\n      and\n        /* \"MyHomeToken.sol\":4545:4573  receiver.transfer(msg.value) */\n      0x08fc\n        /* \"MyHomeToken.sol\":4563:4572  msg.value */\n      callvalue\n        /* \"MyHomeToken.sol\":4545:4573  receiver.transfer(msg.value) */\n      swap1\n      dup2\n      iszero\n      mul\n      swap1\n      mload(0x40)\n      0x00\n      mload(0x40)\n      dup1\n      dup4\n      sub\n      dup2\n      dup6\n      dup9\n      dup9\n      call\n      swap4\n      pop\n      pop\n      pop\n      pop\n      iszero\n      dup1\n      iszero\n      tag_292\n      jumpi\n      returndatasize\n      0x00\n      dup1\n      returndatacopy\n      revert(0x00, returndatasize)\n    tag_292:\n      pop\n        /* \"MyHomeToken.sol\":4599:4607  balances */\n      0x0d\n        /* \"MyHomeToken.sol\":4599:4619  balances[msg.sender] */\n      0x00\n        /* \"MyHomeToken.sol\":4608:4618  msg.sender */\n      caller\n        /* \"MyHomeToken.sol\":4599:4619  balances[msg.sender] */\n      0xffffffffffffffffffffffffffffffffffffffff\n      and\n      0xffffffffffffffffffffffffffffffffffffffff\n      and\n      dup2\n      mstore\n      0x20\n      add\n      swap1\n      dup2\n      mstore\n      0x20\n      add\n      0x00\n      keccak256\n      sload\n        /* \"MyHomeToken.sol\":4587:4595  tokenNum */\n      dup3\n        /* \"MyHomeToken.sol\":4587:4619  tokenNum == balances[msg.sender] */\n      eq\n        /* \"MyHomeToken.sol\":4583:4675  if (tokenNum == balances[msg.sender]) {... */\n      iszero\n      tag_293\n      jumpi\n        /* \"MyHomeToken.sol\":4635:4664  removeShareHolder(msg.sender) */\n      tag_294\n        /* \"MyHomeToken.sol\":4653:4663  msg.sender */\n      caller\n        /* \"MyHomeToken.sol\":4635:4652  removeShareHolder */\n      tag_81\n        /* \"MyHomeToken.sol\":4635:4664  removeShareHolder(msg.sender) */\n      jump\t// in\n    tag_294:\n        /* \"MyHomeToken.sol\":4583:4675  if (tokenNum == balances[msg.sender]) {... */\n    tag_293:\n        /* \"MyHomeToken.sol\":4709:4717  tokenNum */\n      dup2\n        /* \"MyHomeToken.sol\":4685:4693  balances */\n      0x0d\n        /* \"MyHomeToken.sol\":4685:4705  balances[msg.sender] */\n      0x00\n        /* \"MyHomeToken.sol\":4694:4704  msg.sender */\n      caller\n        /* \"MyHomeToken.sol\":4685:4705  balances[msg.sender] */\n      0xffffffffffffffffffffffffffffffffffffffff\n      and\n      0xffffffffffffffffffffffffffffffffffffffff\n      and\n      dup2\n      mstore\n      0x20\n      add\n      swap1\n      dup2\n      mstore\n      0x20\n      add\n      0x00\n      keccak256\n      0x00\n        /* \"MyHomeToken.sol\":4685:4717  balances[msg.sender] -= tokenNum */\n      dup3\n      dup3\n      sload\n      tag_295\n      swap2\n      swap1\n      tag_296\n      jump\t// in\n    tag_295:\n      swap3\n      pop\n      pop\n      dup2\n      swap1\n      sstore\n      pop\n        /* \"MyHomeToken.sol\":4746:4754  tokenNum */\n      dup2\n        /* \"MyHomeToken.sol\":4727:4735  balances */\n      0x0d\n        /* \"MyHomeToken.sol\":4727:4742  balances[owner] */\n      0x00\n        /* \"MyHomeToken.sol\":4736:4741  owner */\n      dup1\n      0x00\n      swap1\n      sload\n      swap1\n      0x0100\n      exp\n      swap1\n      div\n      0xffffffffffffffffffffffffffffffffffffffff\n      and\n        /* \"MyHomeToken.sol\":4727:4742  balances[owner] */\n      0xffffffffffffffffffffffffffffffffffffffff\n      and\n      0xffffffffffffffffffffffffffffffffffffffff\n      and\n      dup2\n      mstore\n      0x20\n      add\n      swap1\n      dup2\n      mstore\n      0x20\n      add\n      0x00\n      keccak256\n      0x00\n        /* \"MyHomeToken.sol\":4727:4754  balances[owner] += tokenNum */\n      dup3\n      dup3\n      sload\n      tag_297\n      swap2\n      swap1\n      tag_298\n      jump\t// in\n    tag_297:\n      swap3\n      pop\n      pop\n      dup2\n      swap1\n      sstore\n      pop\n        /* \"MyHomeToken.sol\":4391:4769  {... */\n      pop\n        /* \"MyHomeToken.sol\":4340:4769  function sellToOwner(uint tokenNum) public payable {... */\n      pop\n      jump\t// out\n        /* \"MyHomeToken.sol\":386:419  uint public totalShareHolders = 0 */\n    tag_116:\n      sload(0x09)\n      dup2\n      jump\t// out\n        /* \"MyHomeToken.sol\":210:238  House[] public houseRegister */\n    tag_121:\n      0x04\n      dup2\n      dup2\n      sload\n      dup2\n      lt\n      tag_299\n      jumpi\n      0x00\n      dup1\n      revert\n    tag_299:\n      swap1\n      0x00\n      mstore\n      keccak256(0x00, 0x20)\n      swap1\n      0x03\n      mul\n      add\n      0x00\n      swap2\n      pop\n      swap1\n      pop\n      dup1\n      0x00\n      add\n      dup1\n      sload\n      tag_301\n      swap1\n      tag_164\n      jump\t// in\n    tag_301:\n      dup1\n      0x1f\n      add\n      0x20\n      dup1\n      swap2\n      div\n      mul\n      0x20\n      add\n      mload(0x40)\n      swap1\n      dup2\n      add\n      0x40\n      mstore\n      dup1\n      swap3\n      swap2\n      swap1\n      dup2\n      dup2\n      mstore\n      0x20\n      add\n      dup3\n      dup1\n      sload\n      tag_302\n      swap1\n      tag_164\n      jump\t// in\n    tag_302:\n      dup1\n      iszero\n      tag_303\n      jumpi\n      dup1\n      0x1f\n      lt\n      tag_304\n      jumpi\n      0x0100\n      dup1\n      dup4\n      sload\n      div\n      mul\n      dup4\n      mstore\n      swap2\n      0x20\n      add\n      swap2\n      jump(tag_303)\n    tag_304:\n      dup3\n      add\n      swap2\n      swap1\n      0x00\n      mstore\n      keccak256(0x00, 0x20)\n      swap1\n    tag_305:\n      dup2\n      sload\n      dup2\n      mstore\n      swap1\n      0x01\n      add\n      swap1\n      0x20\n      add\n      dup1\n      dup4\n      gt\n      tag_305\n      jumpi\n      dup3\n      swap1\n      sub\n      0x1f\n      and\n      dup3\n      add\n      swap2\n    tag_303:\n      pop\n      pop\n      pop\n      pop\n      pop\n      swap1\n      dup1\n      0x01\n      add\n      dup1\n      sload\n      tag_306\n      swap1\n      tag_164\n      jump\t// in\n    tag_306:\n      dup1\n      0x1f\n      add\n      0x20\n      dup1\n      swap2\n      div\n      mul\n      0x20\n      add\n      mload(0x40)\n      swap1\n      dup2\n      add\n      0x40\n      mstore\n      dup1\n      swap3\n      swap2\n      swap1\n      dup2\n      dup2\n      mstore\n      0x20\n      add\n      dup3\n      dup1\n      sload\n      tag_307\n      swap1\n      tag_164\n      jump\t// in\n    tag_307:\n      dup1\n      iszero\n      tag_308\n      jumpi\n      dup1\n      0x1f\n      lt\n      tag_309\n      jumpi\n      0x0100\n      dup1\n      dup4\n      sload\n      div\n      mul\n      dup4\n      mstore\n      swap2\n      0x20\n      add\n      swap2\n      jump(tag_308)\n    tag_309:\n      dup3\n      add\n      swap2\n      swap1\n      0x00\n      mstore\n      keccak256(0x00, 0x20)\n      swap1\n    tag_310:\n      dup2\n      sload\n      dup2\n      mstore\n      swap1\n      0x01\n      add\n      swap1\n      0x20\n      add\n      dup1\n      dup4\n      gt\n      tag_310\n      jumpi\n      dup3\n      swap1\n      sub\n      0x1f\n      and\n      dup3\n      add\n      swap2\n    tag_308:\n      pop\n      pop\n      pop\n      pop\n      pop\n      swap1\n      dup1\n      0x02\n      add\n      sload\n      swap1\n      pop\n      dup4\n      jump\t// out\n        /* \"MyHomeToken.sol\":4114:4334  function transfer(address _to, uint256 _value) public {... */\n    tag_128:\n        /* \"MyHomeToken.sol\":4211:4217  _value */\n      dup1\n        /* \"MyHomeToken.sol\":4187:4195  balances */\n      0x0d\n        /* \"MyHomeToken.sol\":4187:4207  balances[msg.sender] */\n      0x00\n        /* \"MyHomeToken.sol\":4196:4206  msg.sender */\n      caller\n        /* \"MyHomeToken.sol\":4187:4207  balances[msg.sender] */\n      0xffffffffffffffffffffffffffffffffffffffff\n      and\n      0xffffffffffffffffffffffffffffffffffffffff\n      and\n      dup2\n      mstore\n      0x20\n      add\n      swap1\n      dup2\n      mstore\n      0x20\n      add\n      0x00\n      keccak256\n      sload\n        /* \"MyHomeToken.sol\":4187:4217  balances[msg.sender] >= _value */\n      lt\n      iszero\n        /* \"MyHomeToken.sol\":4178:4218  require (balances[msg.sender] >= _value) */\n      tag_312\n      jumpi\n      0x00\n      dup1\n      revert\n    tag_312:\n        /* \"MyHomeToken.sol\":4250:4255  owner */\n      0x00\n      dup1\n      sload\n      swap1\n      0x0100\n      exp\n      swap1\n      div\n      0xffffffffffffffffffffffffffffffffffffffff\n      and\n        /* \"MyHomeToken.sol\":4236:4255  msg.sender == owner */\n      0xffffffffffffffffffffffffffffffffffffffff\n      and\n        /* \"MyHomeToken.sol\":4236:4246  msg.sender */\n      caller\n        /* \"MyHomeToken.sol\":4236:4255  msg.sender == owner */\n      0xffffffffffffffffffffffffffffffffffffffff\n      and\n      eq\n        /* \"MyHomeToken.sol\":4228:4256  require(msg.sender == owner) */\n      tag_313\n      jumpi\n      0x00\n      dup1\n      revert\n    tag_313:\n        /* \"MyHomeToken.sol\":4290:4296  _value */\n      dup1\n        /* \"MyHomeToken.sol\":4266:4274  balances */\n      0x0d\n        /* \"MyHomeToken.sol\":4266:4286  balances[msg.sender] */\n      0x00\n        /* \"MyHomeToken.sol\":4275:4285  msg.sender */\n      caller\n        /* \"MyHomeToken.sol\":4266:4286  balances[msg.sender] */\n      0xffffffffffffffffffffffffffffffffffffffff\n      and\n      0xffffffffffffffffffffffffffffffffffffffff\n      and\n      dup2\n      mstore\n      0x20\n      add\n      swap1\n      dup2\n      mstore\n      0x20\n      add\n      0x00\n      keccak256\n      0x00\n        /* \"MyHomeToken.sol\":4266:4296  balances[msg.sender] -= _value */\n      dup3\n      dup3\n      sload\n      tag_314\n      swap2\n      swap1\n      tag_296\n      jump\t// in\n    tag_314:\n      swap3\n      pop\n      pop\n      dup2\n      swap1\n      sstore\n      pop\n        /* \"MyHomeToken.sol\":4321:4327  _value */\n      dup1\n        /* \"MyHomeToken.sol\":4306:4314  balances */\n      0x0d\n        /* \"MyHomeToken.sol\":4306:4319  balances[_to] */\n      0x00\n        /* \"MyHomeToken.sol\":4315:4318  _to */\n      dup5\n        /* \"MyHomeToken.sol\":4306:4319  balances[_to] */\n      0xffffffffffffffffffffffffffffffffffffffff\n      and\n      0xffffffffffffffffffffffffffffffffffffffff\n      and\n      dup2\n      mstore\n      0x20\n      add\n      swap1\n      dup2\n      mstore\n      0x20\n      add\n      0x00\n      keccak256\n      0x00\n        /* \"MyHomeToken.sol\":4306:4327  balances[_to]+=_value */\n      dup3\n      dup3\n      sload\n      tag_315\n      swap2\n      swap1\n      tag_298\n      jump\t// in\n    tag_315:\n      swap3\n      pop\n      pop\n      dup2\n      swap1\n      sstore\n      pop\n        /* \"MyHomeToken.sol\":4114:4334  function transfer(address _to, uint256 _value) public {... */\n      pop\n      pop\n      jump\t// out\n        /* \"MyHomeToken.sol\":3453:3802  function addShareHolder(address _shareHolderAddress)... */\n    tag_132:\n        /* \"MyHomeToken.sol\":3542:3571  contains(_shareHolderAddress) */\n      tag_317\n        /* \"MyHomeToken.sol\":3551:3570  _shareHolderAddress */\n      dup2\n        /* \"MyHomeToken.sol\":3542:3550  contains */\n      tag_318\n        /* \"MyHomeToken.sol\":3542:3571  contains(_shareHolderAddress) */\n      jump\t// in\n    tag_317:\n        /* \"MyHomeToken.sol\":3538:3787  if(!contains(_shareHolderAddress)) {... */\n      tag_319\n      jumpi\n        /* \"MyHomeToken.sol\":3630:3635  false */\n      0x00\n        /* \"MyHomeToken.sol\":3587:3606  shareHolderRegistry */\n      0x0c\n        /* \"MyHomeToken.sol\":3587:3627  shareHolderRegistry[_shareHolderAddress] */\n      0x00\n        /* \"MyHomeToken.sol\":3607:3626  _shareHolderAddress */\n      dup4\n        /* \"MyHomeToken.sol\":3587:3627  shareHolderRegistry[_shareHolderAddress] */\n      0xffffffffffffffffffffffffffffffffffffffff\n      and\n      0xffffffffffffffffffffffffffffffffffffffff\n      and\n      dup2\n      mstore\n      0x20\n      add\n      swap1\n      dup2\n      mstore\n      0x20\n      add\n      0x00\n      keccak256\n      0x00\n        /* \"MyHomeToken.sol\":3587:3635  shareHolderRegistry[_shareHolderAddress] = false */\n      0x0100\n      exp\n      dup2\n      sload\n      dup2\n      0xff\n      mul\n      not\n      and\n      swap1\n      dup4\n      iszero\n      iszero\n      mul\n      or\n      swap1\n      sstore\n      pop\n        /* \"MyHomeToken.sol\":3649:3661  shareHolders */\n      0x0b\n        /* \"MyHomeToken.sol\":3667:3686  _shareHolderAddress */\n      dup2\n        /* \"MyHomeToken.sol\":3649:3687  shareHolders.push(_shareHolderAddress) */\n      swap1\n      dup1\n      0x01\n      dup2\n      sload\n      add\n      dup1\n      dup3\n      sstore\n      dup1\n      swap2\n      pop\n      pop\n      0x01\n      swap1\n      sub\n      swap1\n      0x00\n      mstore\n      keccak256(0x00, 0x20)\n      add\n      0x00\n      swap1\n      swap2\n      swap1\n      swap2\n      swap1\n      swap2\n      0x0100\n      exp\n      dup2\n      sload\n      dup2\n      0xffffffffffffffffffffffffffffffffffffffff\n      mul\n      not\n      and\n      swap1\n      dup4\n      0xffffffffffffffffffffffffffffffffffffffff\n      and\n      mul\n      or\n      swap1\n      sstore\n      pop\n        /* \"MyHomeToken.sol\":3701:3718  totalShareHolders */\n      0x09\n      0x00\n        /* \"MyHomeToken.sol\":3701:3720  totalShareHolders++ */\n      dup2\n      sload\n      dup1\n      swap3\n      swap2\n      swap1\n      tag_321\n      swap1\n      tag_186\n      jump\t// in\n    tag_321:\n      swap2\n      swap1\n      pop\n      sstore\n      pop\n        /* \"MyHomeToken.sol\":3739:3776  ShareHolderAdded(_shareHolderAddress) */\n      0x30040c92e8da146ac410fb6841ea0f60af3b8f3788e5e7354e48d97d018f39dd\n        /* \"MyHomeToken.sol\":3756:3775  _shareHolderAddress */\n      dup2\n        /* \"MyHomeToken.sol\":3739:3776  ShareHolderAdded(_shareHolderAddress) */\n      mload(0x40)\n      tag_322\n      swap2\n      swap1\n      tag_91\n      jump\t// in\n    tag_322:\n      mload(0x40)\n      dup1\n      swap2\n      sub\n      swap1\n      log1\n        /* \"MyHomeToken.sol\":3538:3787  if(!contains(_shareHolderAddress)) {... */\n    tag_319:\n        /* \"MyHomeToken.sol\":3453:3802  function addShareHolder(address _shareHolderAddress)... */\n      pop\n      jump\t// out\n        /* \"MyHomeToken.sol\":6846:7102  function endVote()... */\n    tag_135:\n        /* \"MyHomeToken.sol\":6902:6920  BallotState.Voting */\n      0x01\n        /* \"MyHomeToken.sol\":1893:1899  _state */\n      dup1\n        /* \"MyHomeToken.sol\":1878:1899  ballotState == _state */\n      0x02\n      dup2\n      gt\n      iszero\n      tag_324\n      jumpi\n      tag_325\n      tag_162\n      jump\t// in\n    tag_325:\n    tag_324:\n        /* \"MyHomeToken.sol\":1878:1889  ballotState */\n      0x15\n      0x00\n      swap1\n      sload\n      swap1\n      0x0100\n      exp\n      swap1\n      div\n      0xff\n      and\n        /* \"MyHomeToken.sol\":1878:1899  ballotState == _state */\n      0x02\n      dup2\n      gt\n      iszero\n      tag_326\n      jumpi\n      tag_327\n      tag_162\n      jump\t// in\n    tag_327:\n    tag_326:\n      eq\n        /* \"MyHomeToken.sol\":1870:1926  require(ballotState == _state, \"Voting has not started\") */\n      tag_328\n      jumpi\n      mload(0x40)\n      0x08c379a000000000000000000000000000000000000000000000000000000000\n      dup2\n      mstore\n      0x04\n      add\n      tag_329\n      swap1\n      tag_218\n      jump\t// in\n    tag_329:\n      mload(0x40)\n      dup1\n      swap2\n      sub\n      swap1\n      revert\n    tag_328:\n        /* \"MyHomeToken.sol\":1785:1798  currentBallot */\n      0x10\n        /* \"MyHomeToken.sol\":1785:1810  currentBallot.ballotOwner */\n      0x01\n      add\n      0x00\n      swap1\n      sload\n      swap1\n      0x0100\n      exp\n      swap1\n      div\n      0xffffffffffffffffffffffffffffffffffffffff\n      and\n        /* \"MyHomeToken.sol\":1771:1810  msg.sender == currentBallot.ballotOwner */\n      0xffffffffffffffffffffffffffffffffffffffff\n      and\n        /* \"MyHomeToken.sol\":1771:1781  msg.sender */\n      caller\n        /* \"MyHomeToken.sol\":1771:1810  msg.sender == currentBallot.ballotOwner */\n      0xffffffffffffffffffffffffffffffffffffffff\n      and\n      eq\n        /* \"MyHomeToken.sol\":1763:1811  require(msg.sender == currentBallot.ballotOwner) */\n      tag_331\n      jumpi\n      0x00\n      dup1\n      revert\n    tag_331:\n        /* \"MyHomeToken.sol\":6978:6995  BallotState.Ended */\n      0x02\n        /* \"MyHomeToken.sol\":6964:6975  ballotState */\n      0x15\n      0x00\n        /* \"MyHomeToken.sol\":6964:6995  ballotState = BallotState.Ended */\n      0x0100\n      exp\n      dup2\n      sload\n      dup2\n      0xff\n      mul\n      not\n      and\n      swap1\n      dup4\n      0x02\n      dup2\n      gt\n      iszero\n      tag_333\n      jumpi\n      tag_334\n      tag_162\n      jump\t// in\n    tag_334:\n    tag_333:\n      mul\n      or\n      swap1\n      sstore\n      pop\n        /* \"MyHomeToken.sol\":7033:7044  resultCount */\n      sload(0x17)\n        /* \"MyHomeToken.sol\":7005:7018  currentBallot */\n      0x10\n        /* \"MyHomeToken.sol\":7005:7030  currentBallot.finalResult */\n      0x03\n      add\n        /* \"MyHomeToken.sol\":7005:7044  currentBallot.finalResult = resultCount */\n      dup2\n      swap1\n      sstore\n      pop\n        /* \"MyHomeToken.sol\":7059:7095  voteEnded(currentBallot.finalResult) */\n      0xb43a401dcdbe02a8afa41feb6c651425997908d1a4b79cf505188ba1dd3fd872\n        /* \"MyHomeToken.sol\":7069:7082  currentBallot */\n      0x10\n        /* \"MyHomeToken.sol\":7069:7094  currentBallot.finalResult */\n      0x03\n      add\n      sload\n        /* \"MyHomeToken.sol\":7059:7095  voteEnded(currentBallot.finalResult) */\n      mload(0x40)\n      tag_335\n      swap2\n      swap1\n      tag_39\n      jump\t// in\n    tag_335:\n      mload(0x40)\n      dup1\n      swap2\n      sub\n      swap1\n      log1\n        /* \"MyHomeToken.sol\":6846:7102  function endVote()... */\n      pop\n      jump\t// out\n        /* \"MyHomeToken.sol\":2600:2704  function etherBalance(address _addr) public view returns (uint256) {... */\n    tag_139:\n        /* \"MyHomeToken.sol\":2658:2665  uint256 */\n      0x00\n        /* \"MyHomeToken.sol\":2684:2689  _addr */\n      dup2\n        /* \"MyHomeToken.sol\":2684:2697  _addr.balance */\n      0xffffffffffffffffffffffffffffffffffffffff\n      and\n      balance\n        /* \"MyHomeToken.sol\":2677:2697  return _addr.balance */\n      swap1\n      pop\n        /* \"MyHomeToken.sol\":2600:2704  function etherBalance(address _addr) public view returns (uint256) {... */\n      swap2\n      swap1\n      pop\n      jump\t// out\n        /* \"MyHomeToken.sol\":180:204  HousingPackage public hp */\n    tag_143:\n      0x01\n      dup1\n      0x00\n      add\n      dup1\n      sload\n      tag_337\n      swap1\n      tag_164\n      jump\t// in\n    tag_337:\n      dup1\n      0x1f\n      add\n      0x20\n      dup1\n      swap2\n      div\n      mul\n      0x20\n      add\n      mload(0x40)\n      swap1\n      dup2\n      add\n      0x40\n      mstore\n      dup1\n      swap3\n      swap2\n      swap1\n      dup2\n      dup2\n      mstore\n      0x20\n      add\n      dup3\n      dup1\n      sload\n      tag_338\n      swap1\n      tag_164\n      jump\t// in\n    tag_338:\n      dup1\n      iszero\n      tag_339\n      jumpi\n      dup1\n      0x1f\n      lt\n      tag_340\n      jumpi\n      0x0100\n      dup1\n      dup4\n      sload\n      div\n      mul\n      dup4\n      mstore\n      swap2\n      0x20\n      add\n      swap2\n      jump(tag_339)\n    tag_340:\n      dup3\n      add\n      swap2\n      swap1\n      0x00\n      mstore\n      keccak256(0x00, 0x20)\n      swap1\n    tag_341:\n      dup2\n      sload\n      dup2\n      mstore\n      swap1\n      0x01\n      add\n      swap1\n      0x20\n      add\n      dup1\n      dup4\n      gt\n      tag_341\n      jumpi\n      dup3\n      swap1\n      sub\n      0x1f\n      and\n      dup3\n      add\n      swap2\n    tag_339:\n      pop\n      pop\n      pop\n      pop\n      pop\n      swap1\n      dup1\n      0x01\n      add\n      dup1\n      sload\n      tag_342\n      swap1\n      tag_164\n      jump\t// in\n    tag_342:\n      dup1\n      0x1f\n      add\n      0x20\n      dup1\n      swap2\n      div\n      mul\n      0x20\n      add\n      mload(0x40)\n      swap1\n      dup2\n      add\n      0x40\n      mstore\n      dup1\n      swap3\n      swap2\n      swap1\n      dup2\n      dup2\n      mstore\n      0x20\n      add\n      dup3\n      dup1\n      sload\n      tag_343\n      swap1\n      tag_164\n      jump\t// in\n    tag_343:\n      dup1\n      iszero\n      tag_344\n      jumpi\n      dup1\n      0x1f\n      lt\n      tag_345\n      jumpi\n      0x0100\n      dup1\n      dup4\n      sload\n      div\n      mul\n      dup4\n      mstore\n      swap2\n      0x20\n      add\n      swap2\n      jump(tag_344)\n    tag_345:\n      dup3\n      add\n      swap2\n      swap1\n      0x00\n      mstore\n      keccak256(0x00, 0x20)\n      swap1\n    tag_346:\n      dup2\n      sload\n      dup2\n      mstore\n      swap1\n      0x01\n      add\n      swap1\n      0x20\n      add\n      dup1\n      dup4\n      gt\n      tag_346\n      jumpi\n      dup3\n      swap1\n      sub\n      0x1f\n      and\n      dup3\n      add\n      swap2\n    tag_344:\n      pop\n      pop\n      pop\n      pop\n      pop\n      swap1\n      dup1\n      0x02\n      add\n      sload\n      swap1\n      pop\n      dup4\n      jump\t// out\n        /* \"MyHomeToken.sol\":4775:5252  function buy(uint tokenNum) public payable {... */\n    tag_147:\n        /* \"MyHomeToken.sol\":4828:4845  uint256 unitPrice */\n      0x00\n        /* \"MyHomeToken.sol\":4862:4873  totalShares */\n      sload(0x06)\n        /* \"MyHomeToken.sol\":4848:4850  hp */\n      0x01\n        /* \"MyHomeToken.sol\":4848:4861  hp.totalValue */\n      0x02\n      add\n      sload\n        /* \"MyHomeToken.sol\":4848:4873  hp.totalValue/totalShares */\n      tag_348\n      swap2\n      swap1\n      tag_349\n      jump\t// in\n    tag_348:\n        /* \"MyHomeToken.sol\":4828:4873  uint256 unitPrice = hp.totalValue/totalShares */\n      swap1\n      pop\n        /* \"MyHomeToken.sol\":4883:4906  uint requiredWeiBalance */\n      0x00\n        /* \"MyHomeToken.sol\":4921:4929  tokenNum */\n      dup3\n        /* \"MyHomeToken.sol\":4909:4918  unitPrice */\n      dup3\n        /* \"MyHomeToken.sol\":4909:4929  unitPrice * tokenNum */\n      tag_350\n      swap2\n      swap1\n      tag_351\n      jump\t// in\n    tag_350:\n        /* \"MyHomeToken.sol\":4883:4929  uint requiredWeiBalance = unitPrice * tokenNum */\n      swap1\n      pop\n        /* \"MyHomeToken.sol\":4960:4978  requiredWeiBalance */\n      dup1\n        /* \"MyHomeToken.sol\":4947:4956  msg.value */\n      callvalue\n        /* \"MyHomeToken.sol\":4947:4978  msg.value == requiredWeiBalance */\n      eq\n        /* \"MyHomeToken.sol\":4939:5014  require(msg.value == requiredWeiBalance, \"Incorrect wei amount submitted!\") */\n      tag_352\n      jumpi\n      mload(0x40)\n      0x08c379a000000000000000000000000000000000000000000000000000000000\n      dup2\n      mstore\n      0x04\n      add\n      tag_353\n      swap1\n      tag_354\n      jump\t// in\n    tag_353:\n      mload(0x40)\n      dup1\n      swap2\n      sub\n      swap1\n      revert\n    tag_352:\n        /* \"MyHomeToken.sol\":5045:5055  shareLimit */\n      sload(0x08)\n        /* \"MyHomeToken.sol\":5033:5041  tokenNum */\n      dup4\n        /* \"MyHomeToken.sol\":5033:5055  tokenNum <= shareLimit */\n      gt\n      iszero\n        /* \"MyHomeToken.sol\":5025:5095  require(tokenNum <= shareLimit, \"Number of shares exceeded the limit\") */\n      tag_355\n      jumpi\n      mload(0x40)\n      0x08c379a000000000000000000000000000000000000000000000000000000000\n      dup2\n      mstore\n      0x04\n      add\n      tag_356\n      swap1\n      tag_357\n      jump\t// in\n    tag_356:\n      mload(0x40)\n      dup1\n      swap2\n      sub\n      swap1\n      revert\n    tag_355:\n        /* \"MyHomeToken.sol\":5105:5110  owner */\n      0x00\n      dup1\n      sload\n      swap1\n      0x0100\n      exp\n      swap1\n      div\n      0xffffffffffffffffffffffffffffffffffffffff\n      and\n        /* \"MyHomeToken.sol\":5105:5119  owner.transfer */\n      0xffffffffffffffffffffffffffffffffffffffff\n      and\n        /* \"MyHomeToken.sol\":5105:5130  owner.transfer(msg.value) */\n      0x08fc\n        /* \"MyHomeToken.sol\":5120:5129  msg.value */\n      callvalue\n        /* \"MyHomeToken.sol\":5105:5130  owner.transfer(msg.value) */\n      swap1\n      dup2\n      iszero\n      mul\n      swap1\n      mload(0x40)\n      0x00\n      mload(0x40)\n      dup1\n      dup4\n      sub\n      dup2\n      dup6\n      dup9\n      dup9\n      call\n      swap4\n      pop\n      pop\n      pop\n      pop\n      iszero\n      dup1\n      iszero\n      tag_359\n      jumpi\n      returndatasize\n      0x00\n      dup1\n      returndatacopy\n      revert(0x00, returndatasize)\n    tag_359:\n      pop\n        /* \"MyHomeToken.sol\":5159:5167  tokenNum */\n      dup3\n        /* \"MyHomeToken.sol\":5140:5148  balances */\n      0x0d\n        /* \"MyHomeToken.sol\":5140:5155  balances[owner] */\n      0x00\n        /* \"MyHomeToken.sol\":5149:5154  owner */\n      dup1\n      0x00\n      swap1\n      sload\n      swap1\n      0x0100\n      exp\n      swap1\n      div\n      0xffffffffffffffffffffffffffffffffffffffff\n      and\n        /* \"MyHomeToken.sol\":5140:5155  balances[owner] */\n      0xffffffffffffffffffffffffffffffffffffffff\n      and\n      0xffffffffffffffffffffffffffffffffffffffff\n      and\n      dup2\n      mstore\n      0x20\n      add\n      swap1\n      dup2\n      mstore\n      0x20\n      add\n      0x00\n      keccak256\n      0x00\n        /* \"MyHomeToken.sol\":5140:5167  balances[owner] -= tokenNum */\n      dup3\n      dup3\n      sload\n      tag_360\n      swap2\n      swap1\n      tag_296\n      jump\t// in\n    tag_360:\n      swap3\n      pop\n      pop\n      dup2\n      swap1\n      sstore\n      pop\n        /* \"MyHomeToken.sol\":5201:5209  tokenNum */\n      dup3\n        /* \"MyHomeToken.sol\":5177:5185  balances */\n      0x0d\n        /* \"MyHomeToken.sol\":5177:5197  balances[msg.sender] */\n      0x00\n        /* \"MyHomeToken.sol\":5186:5196  msg.sender */\n      caller\n        /* \"MyHomeToken.sol\":5177:5197  balances[msg.sender] */\n      0xffffffffffffffffffffffffffffffffffffffff\n      and\n      0xffffffffffffffffffffffffffffffffffffffff\n      and\n      dup2\n      mstore\n      0x20\n      add\n      swap1\n      dup2\n      mstore\n      0x20\n      add\n      0x00\n      keccak256\n      0x00\n        /* \"MyHomeToken.sol\":5177:5209  balances[msg.sender] += tokenNum */\n      dup3\n      dup3\n      sload\n      tag_361\n      swap2\n      swap1\n      tag_298\n      jump\t// in\n    tag_361:\n      swap3\n      pop\n      pop\n      dup2\n      swap1\n      sstore\n      pop\n        /* \"MyHomeToken.sol\":5219:5245  addShareHolder(msg.sender) */\n      tag_362\n        /* \"MyHomeToken.sol\":5234:5244  msg.sender */\n      caller\n        /* \"MyHomeToken.sol\":5219:5233  addShareHolder */\n      tag_132\n        /* \"MyHomeToken.sol\":5219:5245  addShareHolder(msg.sender) */\n      jump\t// in\n    tag_362:\n        /* \"MyHomeToken.sol\":4818:5252  {... */\n      pop\n      pop\n        /* \"MyHomeToken.sol\":4775:5252  function buy(uint tokenNum) public payable {... */\n      pop\n      jump\t// out\n        /* \"MyHomeToken.sol\":2799:3169  function addHouse(string memory _registrationId, string memory location, uint256 price) ... */\n    tag_152:\n        /* \"MyHomeToken.sol\":1633:1638  owner */\n      0x00\n      dup1\n      sload\n      swap1\n      0x0100\n      exp\n      swap1\n      div\n      0xffffffffffffffffffffffffffffffffffffffff\n      and\n        /* \"MyHomeToken.sol\":1619:1638  msg.sender == owner */\n      0xffffffffffffffffffffffffffffffffffffffff\n      and\n        /* \"MyHomeToken.sol\":1619:1629  msg.sender */\n      caller\n        /* \"MyHomeToken.sol\":1619:1638  msg.sender == owner */\n      0xffffffffffffffffffffffffffffffffffffffff\n      and\n      eq\n        /* \"MyHomeToken.sol\":1611:1639  require(msg.sender == owner) */\n      tag_364\n      jumpi\n      0x00\n      dup1\n      revert\n    tag_364:\n        /* \"MyHomeToken.sol\":2942:2955  State.Created */\n      0x00\n        /* \"MyHomeToken.sol\":1706:1712  _state */\n      dup1\n        /* \"MyHomeToken.sol\":1697:1712  state == _state */\n      0x01\n      dup2\n      gt\n      iszero\n      tag_366\n      jumpi\n      tag_367\n      tag_162\n      jump\t// in\n    tag_367:\n    tag_366:\n        /* \"MyHomeToken.sol\":1697:1702  state */\n      0x0a\n      0x00\n      swap1\n      sload\n      swap1\n      0x0100\n      exp\n      swap1\n      div\n      0xff\n      and\n        /* \"MyHomeToken.sol\":1697:1712  state == _state */\n      0x01\n      dup2\n      gt\n      iszero\n      tag_368\n      jumpi\n      tag_369\n      tag_162\n      jump\t// in\n    tag_369:\n    tag_368:\n      eq\n        /* \"MyHomeToken.sol\":1689:1713  require(state == _state) */\n      tag_370\n      jumpi\n      0x00\n      dup1\n      revert\n    tag_370:\n        /* \"MyHomeToken.sol\":2972:2986  House memory h */\n      0x00\n        /* \"MyHomeToken.sol\":2989:3028  House(_registrationId, location, price) */\n      mload(0x40)\n      dup1\n      0x60\n      add\n      0x40\n      mstore\n      dup1\n        /* \"MyHomeToken.sol\":2995:3010  _registrationId */\n      dup7\n        /* \"MyHomeToken.sol\":2989:3028  House(_registrationId, location, price) */\n      dup2\n      mstore\n      0x20\n      add\n        /* \"MyHomeToken.sol\":3012:3020  location */\n      dup6\n        /* \"MyHomeToken.sol\":2989:3028  House(_registrationId, location, price) */\n      dup2\n      mstore\n      0x20\n      add\n        /* \"MyHomeToken.sol\":3022:3027  price */\n      dup5\n        /* \"MyHomeToken.sol\":2989:3028  House(_registrationId, location, price) */\n      dup2\n      mstore\n      pop\n        /* \"MyHomeToken.sol\":2972:3028  House memory h = House(_registrationId, location, price) */\n      swap1\n      pop\n        /* \"MyHomeToken.sol\":3055:3060  price */\n      dup3\n        /* \"MyHomeToken.sol\":3038:3040  hp */\n      0x01\n        /* \"MyHomeToken.sol\":3038:3051  hp.totalValue */\n      0x02\n      add\n      0x00\n        /* \"MyHomeToken.sol\":3038:3060  hp.totalValue += price */\n      dup3\n      dup3\n      sload\n      tag_372\n      swap2\n      swap1\n      tag_298\n      jump\t// in\n    tag_372:\n      swap3\n      pop\n      pop\n      dup2\n      swap1\n      sstore\n      pop\n        /* \"MyHomeToken.sol\":3070:3083  houseRegister */\n      0x04\n        /* \"MyHomeToken.sol\":3089:3090  h */\n      dup2\n        /* \"MyHomeToken.sol\":3070:3091  houseRegister.push(h) */\n      swap1\n      dup1\n      0x01\n      dup2\n      sload\n      add\n      dup1\n      dup3\n      sstore\n      dup1\n      swap2\n      pop\n      pop\n      0x01\n      swap1\n      sub\n      swap1\n      0x00\n      mstore\n      keccak256(0x00, 0x20)\n      swap1\n      0x03\n      mul\n      add\n      0x00\n      swap1\n      swap2\n      swap1\n      swap2\n      swap1\n      swap2\n      pop\n      0x00\n      dup3\n      add\n      mload\n      dup2\n      0x00\n      add\n      swap1\n      dup1\n      mload\n      swap1\n      0x20\n      add\n      swap1\n      tag_374\n      swap3\n      swap2\n      swap1\n      tag_194\n      jump\t// in\n    tag_374:\n      pop\n      0x20\n      dup3\n      add\n      mload\n      dup2\n      0x01\n      add\n      swap1\n      dup1\n      mload\n      swap1\n      0x20\n      add\n      swap1\n      tag_375\n      swap3\n      swap2\n      swap1\n      tag_194\n      jump\t// in\n    tag_375:\n      pop\n      0x40\n      dup3\n      add\n      mload\n      dup2\n      0x02\n      add\n      sstore\n      pop\n      pop\n        /* \"MyHomeToken.sol\":3116:3117  1 */\n      0x01\n        /* \"MyHomeToken.sol\":3101:3112  totalHouses */\n      0x05\n      0x00\n        /* \"MyHomeToken.sol\":3101:3117  totalHouses += 1 */\n      dup3\n      dup3\n      sload\n      tag_376\n      swap2\n      swap1\n      tag_298\n      jump\t// in\n    tag_376:\n      swap3\n      pop\n      pop\n      dup2\n      swap1\n      sstore\n      pop\n        /* \"MyHomeToken.sol\":3132:3162  NewHouseAdded(_registrationId) */\n      0x4578fe17eaab41ae382abe3462bb0cf04bcfee4168d2aad3ce9d5d225d0e27f6\n        /* \"MyHomeToken.sol\":3146:3161  _registrationId */\n      dup6\n        /* \"MyHomeToken.sol\":3132:3162  NewHouseAdded(_registrationId) */\n      mload(0x40)\n      tag_377\n      swap2\n      swap1\n      tag_378\n      jump\t// in\n    tag_377:\n      mload(0x40)\n      dup1\n      swap2\n      sub\n      swap1\n      log1\n        /* \"MyHomeToken.sol\":2962:3169  {... */\n      pop\n        /* \"MyHomeToken.sol\":1643:1644  _ */\n      pop\n        /* \"MyHomeToken.sol\":2799:3169  function addHouse(string memory _registrationId, string memory location, uint256 price) ... */\n      pop\n      pop\n      pop\n      jump\t// out\n        /* \"MyHomeToken.sol\":692:719  Ballot public currentBallot */\n    tag_155:\n      0x10\n      dup1\n      0x00\n      add\n      dup1\n      sload\n      tag_379\n      swap1\n      tag_164\n      jump\t// in\n    tag_379:\n      dup1\n      0x1f\n      add\n      0x20\n      dup1\n      swap2\n      div\n      mul\n      0x20\n      add\n      mload(0x40)\n      swap1\n      dup2\n      add\n      0x40\n      mstore\n      dup1\n      swap3\n      swap2\n      swap1\n      dup2\n      dup2\n      mstore\n      0x20\n      add\n      dup3\n      dup1\n      sload\n      tag_380\n      swap1\n      tag_164\n      jump\t// in\n    tag_380:\n      dup1\n      iszero\n      tag_381\n      jumpi\n      dup1\n      0x1f\n      lt\n      tag_382\n      jumpi\n      0x0100\n      dup1\n      dup4\n      sload\n      div\n      mul\n      dup4\n      mstore\n      swap2\n      0x20\n      add\n      swap2\n      jump(tag_381)\n    tag_382:\n      dup3\n      add\n      swap2\n      swap1\n      0x00\n      mstore\n      keccak256(0x00, 0x20)\n      swap1\n    tag_383:\n      dup2\n      sload\n      dup2\n      mstore\n      swap1\n      0x01\n      add\n      swap1\n      0x20\n      add\n      dup1\n      dup4\n      gt\n      tag_383\n      jumpi\n      dup3\n      swap1\n      sub\n      0x1f\n      and\n      dup3\n      add\n      swap2\n    tag_381:\n      pop\n      pop\n      pop\n      pop\n      pop\n      swap1\n      dup1\n      0x01\n      add\n      0x00\n      swap1\n      sload\n      swap1\n      0x0100\n      exp\n      swap1\n      div\n      0xffffffffffffffffffffffffffffffffffffffff\n      and\n      swap1\n      dup1\n      0x02\n      add\n      dup1\n      sload\n      tag_384\n      swap1\n      tag_164\n      jump\t// in\n    tag_384:\n      dup1\n      0x1f\n      add\n      0x20\n      dup1\n      swap2\n      div\n      mul\n      0x20\n      add\n      mload(0x40)\n      swap1\n      dup2\n      add\n      0x40\n      mstore\n      dup1\n      swap3\n      swap2\n      swap1\n      dup2\n      dup2\n      mstore\n      0x20\n      add\n      dup3\n      dup1\n      sload\n      tag_385\n      swap1\n      tag_164\n      jump\t// in\n    tag_385:\n      dup1\n      iszero\n      tag_386\n      jumpi\n      dup1\n      0x1f\n      lt\n      tag_387\n      jumpi\n      0x0100\n      dup1\n      dup4\n      sload\n      div\n      mul\n      dup4\n      mstore\n      swap2\n      0x20\n      add\n      swap2\n      jump(tag_386)\n    tag_387:\n      dup3\n      add\n      swap2\n      swap1\n      0x00\n      mstore\n      keccak256(0x00, 0x20)\n      swap1\n    tag_388:\n      dup2\n      sload\n      dup2\n      mstore\n      swap1\n      0x01\n      add\n      swap1\n      0x20\n      add\n      dup1\n      dup4\n      gt\n      tag_388\n      jumpi\n      dup3\n      swap1\n      sub\n      0x1f\n      and\n      dup3\n      add\n      swap2\n    tag_386:\n      pop\n      pop\n      pop\n      pop\n      pop\n      swap1\n      dup1\n      0x03\n      add\n      sload\n      swap1\n      dup1\n      0x04\n      add\n      sload\n      swap1\n      pop\n      dup6\n      jump\t// out\n        /* \"@openzeppelin/contracts/utils/Strings.sol\":392:1095  function toString(uint256 value) internal pure returns (string memory) {... */\n    tag_192:\n        /* \"@openzeppelin/contracts/utils/Strings.sol\":448:461  string memory */\n      0x60\n        /* \"@openzeppelin/contracts/utils/Strings.sol\":674:675  0 */\n      0x00\n        /* \"@openzeppelin/contracts/utils/Strings.sol\":665:670  value */\n      dup3\n        /* \"@openzeppelin/contracts/utils/Strings.sol\":665:675  value == 0 */\n      eq\n        /* \"@openzeppelin/contracts/utils/Strings.sol\":661:712  if (value == 0) {... */\n      iszero\n      tag_390\n      jumpi\n        /* \"@openzeppelin/contracts/utils/Strings.sol\":691:701  return \"0\" */\n      mload(0x40)\n      dup1\n      0x40\n      add\n      0x40\n      mstore\n      dup1\n      0x01\n      dup2\n      mstore\n      0x20\n      add\n      0x3000000000000000000000000000000000000000000000000000000000000000\n      dup2\n      mstore\n      pop\n      swap1\n      pop\n      jump(tag_389)\n        /* \"@openzeppelin/contracts/utils/Strings.sol\":661:712  if (value == 0) {... */\n    tag_390:\n        /* \"@openzeppelin/contracts/utils/Strings.sol\":721:733  uint256 temp */\n      0x00\n        /* \"@openzeppelin/contracts/utils/Strings.sol\":736:741  value */\n      dup3\n        /* \"@openzeppelin/contracts/utils/Strings.sol\":721:741  uint256 temp = value */\n      swap1\n      pop\n        /* \"@openzeppelin/contracts/utils/Strings.sol\":751:765  uint256 digits */\n      0x00\n        /* \"@openzeppelin/contracts/utils/Strings.sol\":775:850  while (temp != 0) {... */\n    tag_391:\n        /* \"@openzeppelin/contracts/utils/Strings.sol\":790:791  0 */\n      0x00\n        /* \"@openzeppelin/contracts/utils/Strings.sol\":782:786  temp */\n      dup3\n        /* \"@openzeppelin/contracts/utils/Strings.sol\":782:791  temp != 0 */\n      eq\n        /* \"@openzeppelin/contracts/utils/Strings.sol\":775:850  while (temp != 0) {... */\n      tag_392\n      jumpi\n        /* \"@openzeppelin/contracts/utils/Strings.sol\":807:815  digits++ */\n      dup1\n      dup1\n      tag_393\n      swap1\n      tag_186\n      jump\t// in\n    tag_393:\n      swap2\n      pop\n      pop\n        /* \"@openzeppelin/contracts/utils/Strings.sol\":837:839  10 */\n      0x0a\n        /* \"@openzeppelin/contracts/utils/Strings.sol\":829:839  temp /= 10 */\n      dup3\n      tag_394\n      swap2\n      swap1\n      tag_349\n      jump\t// in\n    tag_394:\n      swap2\n      pop\n        /* \"@openzeppelin/contracts/utils/Strings.sol\":775:850  while (temp != 0) {... */\n      jump(tag_391)\n    tag_392:\n        /* \"@openzeppelin/contracts/utils/Strings.sol\":859:878  bytes memory buffer */\n      0x00\n        /* \"@openzeppelin/contracts/utils/Strings.sol\":891:897  digits */\n      dup2\n        /* \"@openzeppelin/contracts/utils/Strings.sol\":881:898  new bytes(digits) */\n      0xffffffffffffffff\n      dup2\n      gt\n      iszero\n      tag_395\n      jumpi\n      tag_396\n      tag_397\n      jump\t// in\n    tag_396:\n    tag_395:\n      mload(0x40)\n      swap1\n      dup1\n      dup3\n      mstore\n      dup1\n      0x1f\n      add\n      not(0x1f)\n      and\n      0x20\n      add\n      dup3\n      add\n      0x40\n      mstore\n      dup1\n      iszero\n      tag_398\n      jumpi\n      dup2\n      0x20\n      add\n      0x01\n      dup3\n      mul\n      dup1\n      calldatasize\n      dup4\n      calldatacopy\n      dup1\n      dup3\n      add\n      swap2\n      pop\n      pop\n      swap1\n      pop\n    tag_398:\n      pop\n        /* \"@openzeppelin/contracts/utils/Strings.sol\":859:898  bytes memory buffer = new bytes(digits) */\n      swap1\n      pop\n        /* \"@openzeppelin/contracts/utils/Strings.sol\":908:1058  while (value != 0) {... */\n    tag_399:\n        /* \"@openzeppelin/contracts/utils/Strings.sol\":924:925  0 */\n      0x00\n        /* \"@openzeppelin/contracts/utils/Strings.sol\":915:920  value */\n      dup6\n        /* \"@openzeppelin/contracts/utils/Strings.sol\":915:925  value != 0 */\n      eq\n        /* \"@openzeppelin/contracts/utils/Strings.sol\":908:1058  while (value != 0) {... */\n      tag_400\n      jumpi\n        /* \"@openzeppelin/contracts/utils/Strings.sol\":951:952  1 */\n      0x01\n        /* \"@openzeppelin/contracts/utils/Strings.sol\":941:952  digits -= 1 */\n      dup3\n      tag_401\n      swap2\n      swap1\n      tag_296\n      jump\t// in\n    tag_401:\n      swap2\n      pop\n        /* \"@openzeppelin/contracts/utils/Strings.sol\":1017:1019  10 */\n      0x0a\n        /* \"@openzeppelin/contracts/utils/Strings.sol\":1009:1014  value */\n      dup6\n        /* \"@openzeppelin/contracts/utils/Strings.sol\":1009:1019  value % 10 */\n      tag_402\n      swap2\n      swap1\n      tag_403\n      jump\t// in\n    tag_402:\n        /* \"@openzeppelin/contracts/utils/Strings.sol\":996:998  48 */\n      0x30\n        /* \"@openzeppelin/contracts/utils/Strings.sol\":996:1020  48 + uint256(value % 10) */\n      tag_404\n      swap2\n      swap1\n      tag_298\n      jump\t// in\n    tag_404:\n        /* \"@openzeppelin/contracts/utils/Strings.sol\":983:1022  bytes1(uint8(48 + uint256(value % 10))) */\n      0xf8\n      shl\n        /* \"@openzeppelin/contracts/utils/Strings.sol\":966:972  buffer */\n      dup2\n        /* \"@openzeppelin/contracts/utils/Strings.sol\":973:979  digits */\n      dup4\n        /* \"@openzeppelin/contracts/utils/Strings.sol\":966:980  buffer[digits] */\n      dup2\n      mload\n      dup2\n      lt\n      tag_405\n      jumpi\n      tag_406\n      tag_181\n      jump\t// in\n    tag_406:\n    tag_405:\n      0x20\n      add\n      add\n        /* \"@openzeppelin/contracts/utils/Strings.sol\":966:1022  buffer[digits] = bytes1(uint8(48 + uint256(value % 10))) */\n      swap1\n      not(0xffffffffffffffffffffffffffffffffffffffffffffffffffffffffffffff)\n      and\n      swap1\n      dup2\n      0x00\n      byte\n      swap1\n      mstore8\n      pop\n        /* \"@openzeppelin/contracts/utils/Strings.sol\":1045:1047  10 */\n      0x0a\n        /* \"@openzeppelin/contracts/utils/Strings.sol\":1036:1047  value /= 10 */\n      dup6\n      tag_407\n      swap2\n      swap1\n      tag_349\n      jump\t// in\n    tag_407:\n      swap5\n      pop\n        /* \"@openzeppelin/contracts/utils/Strings.sol\":908:1058  while (value != 0) {... */\n      jump(tag_399)\n    tag_400:\n        /* \"@openzeppelin/contracts/utils/Strings.sol\":1081:1087  buffer */\n      dup1\n        /* \"@openzeppelin/contracts/utils/Strings.sol\":1067:1088  return string(buffer) */\n      swap4\n      pop\n      pop\n      pop\n      pop\n        /* \"@openzeppelin/contracts/utils/Strings.sol\":392:1095  function toString(uint256 value) internal pure returns (string memory) {... */\n    tag_389:\n      swap2\n      swap1\n      pop\n      jump\t// out\n        /* \"MyHomeToken.sol\":3175:3447  function contains(address _shareHolderAddress) private view returns(bool) {... */\n    tag_318:\n        /* \"MyHomeToken.sol\":3243:3247  bool */\n      0x00\n        /* \"MyHomeToken.sol\":3264:3270  uint i */\n      dup1\n        /* \"MyHomeToken.sol\":3273:3274  0 */\n      0x00\n        /* \"MyHomeToken.sol\":3264:3274  uint i = 0 */\n      swap1\n      pop\n        /* \"MyHomeToken.sol\":3259:3418  for (uint i = 0; i < shareHolders.length; i++) {... */\n    tag_409:\n        /* \"MyHomeToken.sol\":3280:3292  shareHolders */\n      0x0b\n        /* \"MyHomeToken.sol\":3280:3299  shareHolders.length */\n      dup1\n      sload\n      swap1\n      pop\n        /* \"MyHomeToken.sol\":3276:3277  i */\n      dup2\n        /* \"MyHomeToken.sol\":3276:3299  i < shareHolders.length */\n      lt\n        /* \"MyHomeToken.sol\":3259:3418  for (uint i = 0; i < shareHolders.length; i++) {... */\n      iszero\n      tag_410\n      jumpi\n        /* \"MyHomeToken.sol\":3343:3362  _shareHolderAddress */\n      dup3\n        /* \"MyHomeToken.sol\":3324:3362  shareHolders[i] == _shareHolderAddress */\n      0xffffffffffffffffffffffffffffffffffffffff\n      and\n        /* \"MyHomeToken.sol\":3324:3336  shareHolders */\n      0x0b\n        /* \"MyHomeToken.sol\":3337:3338  i */\n      dup3\n        /* \"MyHomeToken.sol\":3324:3339  shareHolders[i] */\n      dup2\n      sload\n      dup2\n      lt\n      tag_412\n      jumpi\n      tag_413\n      tag_181\n      jump\t// in\n    tag_413:\n    tag_412:\n      swap1\n      0x00\n      mstore\n      keccak256(0x00, 0x20)\n      add\n      0x00\n      swap1\n      sload\n      swap1\n      0x0100\n      exp\n      swap1\n      div\n      0xffffffffffffffffffffffffffffffffffffffff\n      and\n        /* \"MyHomeToken.sol\":3324:3362  shareHolders[i] == _shareHolderAddress */\n      0xffffffffffffffffffffffffffffffffffffffff\n      and\n      eq\n        /* \"MyHomeToken.sol\":3320:3408  if (shareHolders[i] == _shareHolderAddress) {... */\n      iszero\n      tag_415\n      jumpi\n        /* \"MyHomeToken.sol\":3389:3393  true */\n      0x01\n        /* \"MyHomeToken.sol\":3382:3393  return true */\n      swap2\n      pop\n      pop\n      jump(tag_408)\n        /* \"MyHomeToken.sol\":3320:3408  if (shareHolders[i] == _shareHolderAddress) {... */\n    tag_415:\n        /* \"MyHomeToken.sol\":3301:3304  i++ */\n      dup1\n      dup1\n      tag_416\n      swap1\n      tag_186\n      jump\t// in\n    tag_416:\n      swap2\n      pop\n      pop\n        /* \"MyHomeToken.sol\":3259:3418  for (uint i = 0; i < shareHolders.length; i++) {... */\n      jump(tag_409)\n    tag_410:\n      pop\n        /* \"MyHomeToken.sol\":3435:3440  false */\n      0x00\n        /* \"MyHomeToken.sol\":3428:3440  return false */\n      swap1\n      pop\n        /* \"MyHomeToken.sol\":3175:3447  function contains(address _shareHolderAddress) private view returns(bool) {... */\n    tag_408:\n      swap2\n      swap1\n      pop\n      jump\t// out\n    tag_194:\n      dup3\n      dup1\n      sload\n      tag_417\n      swap1\n      tag_164\n      jump\t// in\n    tag_417:\n      swap1\n      0x00\n      mstore\n      keccak256(0x00, 0x20)\n      swap1\n      0x1f\n      add\n      0x20\n      swap1\n      div\n      dup2\n      add\n      swap3\n      dup3\n      tag_419\n      jumpi\n      0x00\n      dup6\n      sstore\n      jump(tag_418)\n    tag_419:\n      dup3\n      0x1f\n      lt\n      tag_420\n      jumpi\n      dup1\n      mload\n      not(0xff)\n      and\n      dup4\n      dup1\n      add\n      or\n      dup6\n      sstore\n      jump(tag_418)\n    tag_420:\n      dup3\n      dup1\n      add\n      0x01\n      add\n      dup6\n      sstore\n      dup3\n      iszero\n      tag_418\n      jumpi\n      swap2\n      dup3\n      add\n    tag_421:\n      dup3\n      dup2\n      gt\n      iszero\n      tag_422\n      jumpi\n      dup3\n      mload\n      dup3\n      sstore\n      swap2\n      0x20\n      add\n      swap2\n      swap1\n      0x01\n      add\n      swap1\n      jump(tag_421)\n    tag_422:\n    tag_418:\n      pop\n      swap1\n      pop\n      tag_423\n      swap2\n      swap1\n      tag_424\n      jump\t// in\n    tag_423:\n      pop\n      swap1\n      jump\t// out\n    tag_200:\n      dup3\n      dup1\n      sload\n      tag_425\n      swap1\n      tag_164\n      jump\t// in\n    tag_425:\n      swap1\n      0x00\n      mstore\n      keccak256(0x00, 0x20)\n      swap1\n      0x1f\n      add\n      0x20\n      swap1\n      div\n      dup2\n      add\n      swap3\n      dup3\n      tag_427\n      jumpi\n      0x00\n      dup6\n      sstore\n      jump(tag_426)\n    tag_427:\n      dup3\n      0x1f\n      lt\n      tag_428\n      jumpi\n      dup1\n      sload\n      dup6\n      sstore\n      jump(tag_426)\n    tag_428:\n      dup3\n      dup1\n      add\n      0x01\n      add\n      dup6\n      sstore\n      dup3\n      iszero\n      tag_426\n      jumpi\n      0x00\n      mstore\n      keccak256(0x00, 0x20)\n      swap2\n      0x1f\n      add\n      0x20\n      swap1\n      div\n      dup3\n      add\n    tag_429:\n      dup3\n      dup2\n      gt\n      iszero\n      tag_430\n      jumpi\n      dup3\n      sload\n      dup3\n      sstore\n      swap2\n      0x01\n      add\n      swap2\n      swap1\n      0x01\n      add\n      swap1\n      jump(tag_429)\n    tag_430:\n    tag_426:\n      pop\n      swap1\n      pop\n      tag_431\n      swap2\n      swap1\n      tag_424\n      jump\t// in\n    tag_431:\n      pop\n      swap1\n      jump\t// out\n    tag_263:\n      mload(0x40)\n      dup1\n      0x40\n      add\n      0x40\n      mstore\n      dup1\n      and(0xffffffffffffffffffffffffffffffffffffffff, 0x00)\n      dup2\n      mstore\n      0x20\n      add\n      iszero(iszero(0x00))\n      dup2\n      mstore\n      pop\n      swap1\n      jump\t// out\n    tag_424:\n    tag_432:\n      dup1\n      dup3\n      gt\n      iszero\n      tag_433\n      jumpi\n      0x00\n      dup2\n      0x00\n      swap1\n      sstore\n      pop\n      0x01\n      add\n      jump(tag_432)\n    tag_433:\n      pop\n      swap1\n      jump\t// out\n        /* \"#utility.yul\":7:419   */\n    tag_435:\n        /* \"#utility.yul\":85:90   */\n      0x00\n        /* \"#utility.yul\":110:176   */\n      tag_437\n        /* \"#utility.yul\":126:175   */\n      tag_438\n        /* \"#utility.yul\":168:174   */\n      dup5\n        /* \"#utility.yul\":126:175   */\n      tag_439\n      jump\t// in\n    tag_438:\n        /* \"#utility.yul\":110:176   */\n      tag_440\n      jump\t// in\n    tag_437:\n        /* \"#utility.yul\":101:176   */\n      swap1\n      pop\n        /* \"#utility.yul\":199:205   */\n      dup3\n        /* \"#utility.yul\":192:197   */\n      dup2\n        /* \"#utility.yul\":185:206   */\n      mstore\n        /* \"#utility.yul\":237:241   */\n      0x20\n        /* \"#utility.yul\":230:235   */\n      dup2\n        /* \"#utility.yul\":226:242   */\n      add\n        /* \"#utility.yul\":275:278   */\n      dup5\n        /* \"#utility.yul\":266:272   */\n      dup5\n        /* \"#utility.yul\":261:264   */\n      dup5\n        /* \"#utility.yul\":257:273   */\n      add\n        /* \"#utility.yul\":254:279   */\n      gt\n        /* \"#utility.yul\":251:363   */\n      iszero\n      tag_441\n      jumpi\n        /* \"#utility.yul\":282:361   */\n      tag_442\n      tag_443\n      jump\t// in\n    tag_442:\n        /* \"#utility.yul\":251:363   */\n    tag_441:\n        /* \"#utility.yul\":372:413   */\n      tag_444\n        /* \"#utility.yul\":406:412   */\n      dup5\n        /* \"#utility.yul\":401:404   */\n      dup3\n        /* \"#utility.yul\":396:399   */\n      dup6\n        /* \"#utility.yul\":372:413   */\n      tag_445\n      jump\t// in\n    tag_444:\n        /* \"#utility.yul\":91:419   */\n      pop\n        /* \"#utility.yul\":7:419   */\n      swap4\n      swap3\n      pop\n      pop\n      pop\n      jump\t// out\n        /* \"#utility.yul\":425:564   */\n    tag_446:\n        /* \"#utility.yul\":471:476   */\n      0x00\n        /* \"#utility.yul\":509:515   */\n      dup2\n        /* \"#utility.yul\":496:516   */\n      calldataload\n        /* \"#utility.yul\":487:516   */\n      swap1\n      pop\n        /* \"#utility.yul\":525:558   */\n      tag_448\n        /* \"#utility.yul\":552:557   */\n      dup2\n        /* \"#utility.yul\":525:558   */\n      tag_449\n      jump\t// in\n    tag_448:\n        /* \"#utility.yul\":425:564   */\n      swap3\n      swap2\n      pop\n      pop\n      jump\t// out\n        /* \"#utility.yul\":570:703   */\n    tag_450:\n        /* \"#utility.yul\":613:618   */\n      0x00\n        /* \"#utility.yul\":651:657   */\n      dup2\n        /* \"#utility.yul\":638:658   */\n      calldataload\n        /* \"#utility.yul\":629:658   */\n      swap1\n      pop\n        /* \"#utility.yul\":667:697   */\n      tag_452\n        /* \"#utility.yul\":691:696   */\n      dup2\n        /* \"#utility.yul\":667:697   */\n      tag_453\n      jump\t// in\n    tag_452:\n        /* \"#utility.yul\":570:703   */\n      swap3\n      swap2\n      pop\n      pop\n      jump\t// out\n        /* \"#utility.yul\":723:1063   */\n    tag_454:\n        /* \"#utility.yul\":779:784   */\n      0x00\n        /* \"#utility.yul\":828:831   */\n      dup3\n        /* \"#utility.yul\":821:825   */\n      0x1f\n        /* \"#utility.yul\":813:819   */\n      dup4\n        /* \"#utility.yul\":809:826   */\n      add\n        /* \"#utility.yul\":805:832   */\n      slt\n        /* \"#utility.yul\":795:917   */\n      tag_456\n      jumpi\n        /* \"#utility.yul\":836:915   */\n      tag_457\n      tag_458\n      jump\t// in\n    tag_457:\n        /* \"#utility.yul\":795:917   */\n    tag_456:\n        /* \"#utility.yul\":953:959   */\n      dup2\n        /* \"#utility.yul\":940:960   */\n      calldataload\n        /* \"#utility.yul\":978:1057   */\n      tag_459\n        /* \"#utility.yul\":1053:1056   */\n      dup5\n        /* \"#utility.yul\":1045:1051   */\n      dup3\n        /* \"#utility.yul\":1038:1042   */\n      0x20\n        /* \"#utility.yul\":1030:1036   */\n      dup7\n        /* \"#utility.yul\":1026:1043   */\n      add\n        /* \"#utility.yul\":978:1057   */\n      tag_435\n      jump\t// in\n    tag_459:\n        /* \"#utility.yul\":969:1057   */\n      swap2\n      pop\n        /* \"#utility.yul\":785:1063   */\n      pop\n        /* \"#utility.yul\":723:1063   */\n      swap3\n      swap2\n      pop\n      pop\n      jump\t// out\n        /* \"#utility.yul\":1069:1208   */\n    tag_460:\n        /* \"#utility.yul\":1115:1120   */\n      0x00\n        /* \"#utility.yul\":1153:1159   */\n      dup2\n        /* \"#utility.yul\":1140:1160   */\n      calldataload\n        /* \"#utility.yul\":1131:1160   */\n      swap1\n      pop\n        /* \"#utility.yul\":1169:1202   */\n      tag_462\n        /* \"#utility.yul\":1196:1201   */\n      dup2\n        /* \"#utility.yul\":1169:1202   */\n      tag_463\n      jump\t// in\n    tag_462:\n        /* \"#utility.yul\":1069:1208   */\n      swap3\n      swap2\n      pop\n      pop\n      jump\t// out\n        /* \"#utility.yul\":1214:1543   */\n    tag_43:\n        /* \"#utility.yul\":1273:1279   */\n      0x00\n        /* \"#utility.yul\":1322:1324   */\n      0x20\n        /* \"#utility.yul\":1310:1319   */\n      dup3\n        /* \"#utility.yul\":1301:1308   */\n      dup5\n        /* \"#utility.yul\":1297:1320   */\n      sub\n        /* \"#utility.yul\":1293:1325   */\n      slt\n        /* \"#utility.yul\":1290:1409   */\n      iszero\n      tag_465\n      jumpi\n        /* \"#utility.yul\":1328:1407   */\n      tag_466\n      tag_467\n      jump\t// in\n    tag_466:\n        /* \"#utility.yul\":1290:1409   */\n    tag_465:\n        /* \"#utility.yul\":1448:1449   */\n      0x00\n        /* \"#utility.yul\":1473:1526   */\n      tag_468\n        /* \"#utility.yul\":1518:1525   */\n      dup5\n        /* \"#utility.yul\":1509:1515   */\n      dup3\n        /* \"#utility.yul\":1498:1507   */\n      dup6\n        /* \"#utility.yul\":1494:1516   */\n      add\n        /* \"#utility.yul\":1473:1526   */\n      tag_446\n      jump\t// in\n    tag_468:\n        /* \"#utility.yul\":1463:1526   */\n      swap2\n      pop\n        /* \"#utility.yul\":1419:1536   */\n      pop\n        /* \"#utility.yul\":1214:1543   */\n      swap3\n      swap2\n      pop\n      pop\n      jump\t// out\n        /* \"#utility.yul\":1549:2023   */\n    tag_127:\n        /* \"#utility.yul\":1617:1623   */\n      0x00\n        /* \"#utility.yul\":1625:1631   */\n      dup1\n        /* \"#utility.yul\":1674:1676   */\n      0x40\n        /* \"#utility.yul\":1662:1671   */\n      dup4\n        /* \"#utility.yul\":1653:1660   */\n      dup6\n        /* \"#utility.yul\":1649:1672   */\n      sub\n        /* \"#utility.yul\":1645:1677   */\n      slt\n        /* \"#utility.yul\":1642:1761   */\n      iszero\n      tag_470\n      jumpi\n        /* \"#utility.yul\":1680:1759   */\n      tag_471\n      tag_467\n      jump\t// in\n    tag_471:\n        /* \"#utility.yul\":1642:1761   */\n    tag_470:\n        /* \"#utility.yul\":1800:1801   */\n      0x00\n        /* \"#utility.yul\":1825:1878   */\n      tag_472\n        /* \"#utility.yul\":1870:1877   */\n      dup6\n        /* \"#utility.yul\":1861:1867   */\n      dup3\n        /* \"#utility.yul\":1850:1859   */\n      dup7\n        /* \"#utility.yul\":1846:1868   */\n      add\n        /* \"#utility.yul\":1825:1878   */\n      tag_446\n      jump\t// in\n    tag_472:\n        /* \"#utility.yul\":1815:1878   */\n      swap3\n      pop\n        /* \"#utility.yul\":1771:1888   */\n      pop\n        /* \"#utility.yul\":1927:1929   */\n      0x20\n        /* \"#utility.yul\":1953:2006   */\n      tag_473\n        /* \"#utility.yul\":1998:2005   */\n      dup6\n        /* \"#utility.yul\":1989:1995   */\n      dup3\n        /* \"#utility.yul\":1978:1987   */\n      dup7\n        /* \"#utility.yul\":1974:1996   */\n      add\n        /* \"#utility.yul\":1953:2006   */\n      tag_460\n      jump\t// in\n    tag_473:\n        /* \"#utility.yul\":1943:2006   */\n      swap2\n      pop\n        /* \"#utility.yul\":1898:2016   */\n      pop\n        /* \"#utility.yul\":1549:2023   */\n      swap3\n      pop\n      swap3\n      swap1\n      pop\n      jump\t// out\n        /* \"#utility.yul\":2029:2352   */\n    tag_99:\n        /* \"#utility.yul\":2085:2091   */\n      0x00\n        /* \"#utility.yul\":2134:2136   */\n      0x20\n        /* \"#utility.yul\":2122:2131   */\n      dup3\n        /* \"#utility.yul\":2113:2120   */\n      dup5\n        /* \"#utility.yul\":2109:2132   */\n      sub\n        /* \"#utility.yul\":2105:2137   */\n      slt\n        /* \"#utility.yul\":2102:2221   */\n      iszero\n      tag_475\n      jumpi\n        /* \"#utility.yul\":2140:2219   */\n      tag_476\n      tag_467\n      jump\t// in\n    tag_476:\n        /* \"#utility.yul\":2102:2221   */\n    tag_475:\n        /* \"#utility.yul\":2260:2261   */\n      0x00\n        /* \"#utility.yul\":2285:2335   */\n      tag_477\n        /* \"#utility.yul\":2327:2334   */\n      dup5\n        /* \"#utility.yul\":2318:2324   */\n      dup3\n        /* \"#utility.yul\":2307:2316   */\n      dup6\n        /* \"#utility.yul\":2303:2325   */\n      add\n        /* \"#utility.yul\":2285:2335   */\n      tag_450\n      jump\t// in\n    tag_477:\n        /* \"#utility.yul\":2275:2335   */\n      swap2\n      pop\n        /* \"#utility.yul\":2231:2345   */\n      pop\n        /* \"#utility.yul\":2029:2352   */\n      swap3\n      swap2\n      pop\n      pop\n      jump\t// out\n        /* \"#utility.yul\":2358:2867   */\n    tag_67:\n        /* \"#utility.yul\":2427:2433   */\n      0x00\n        /* \"#utility.yul\":2476:2478   */\n      0x20\n        /* \"#utility.yul\":2464:2473   */\n      dup3\n        /* \"#utility.yul\":2455:2462   */\n      dup5\n        /* \"#utility.yul\":2451:2474   */\n      sub\n        /* \"#utility.yul\":2447:2479   */\n      slt\n        /* \"#utility.yul\":2444:2563   */\n      iszero\n      tag_479\n      jumpi\n        /* \"#utility.yul\":2482:2561   */\n      tag_480\n      tag_467\n      jump\t// in\n    tag_480:\n        /* \"#utility.yul\":2444:2563   */\n    tag_479:\n        /* \"#utility.yul\":2630:2631   */\n      0x00\n        /* \"#utility.yul\":2619:2628   */\n      dup3\n        /* \"#utility.yul\":2615:2632   */\n      add\n        /* \"#utility.yul\":2602:2633   */\n      calldataload\n        /* \"#utility.yul\":2660:2678   */\n      0xffffffffffffffff\n        /* \"#utility.yul\":2652:2658   */\n      dup2\n        /* \"#utility.yul\":2649:2679   */\n      gt\n        /* \"#utility.yul\":2646:2763   */\n      iszero\n      tag_481\n      jumpi\n        /* \"#utility.yul\":2682:2761   */\n      tag_482\n      tag_483\n      jump\t// in\n    tag_482:\n        /* \"#utility.yul\":2646:2763   */\n    tag_481:\n        /* \"#utility.yul\":2787:2850   */\n      tag_484\n        /* \"#utility.yul\":2842:2849   */\n      dup5\n        /* \"#utility.yul\":2833:2839   */\n      dup3\n        /* \"#utility.yul\":2822:2831   */\n      dup6\n        /* \"#utility.yul\":2818:2840   */\n      add\n        /* \"#utility.yul\":2787:2850   */\n      tag_454\n      jump\t// in\n    tag_484:\n        /* \"#utility.yul\":2777:2850   */\n      swap2\n      pop\n        /* \"#utility.yul\":2573:2860   */\n      pop\n        /* \"#utility.yul\":2358:2867   */\n      swap3\n      swap2\n      pop\n      pop\n      jump\t// out\n        /* \"#utility.yul\":2873:3852   */\n    tag_151:\n        /* \"#utility.yul\":2970:2976   */\n      0x00\n        /* \"#utility.yul\":2978:2984   */\n      dup1\n        /* \"#utility.yul\":2986:2992   */\n      0x00\n        /* \"#utility.yul\":3035:3037   */\n      0x60\n        /* \"#utility.yul\":3023:3032   */\n      dup5\n        /* \"#utility.yul\":3014:3021   */\n      dup7\n        /* \"#utility.yul\":3010:3033   */\n      sub\n        /* \"#utility.yul\":3006:3038   */\n      slt\n        /* \"#utility.yul\":3003:3122   */\n      iszero\n      tag_486\n      jumpi\n        /* \"#utility.yul\":3041:3120   */\n      tag_487\n      tag_467\n      jump\t// in\n    tag_487:\n        /* \"#utility.yul\":3003:3122   */\n    tag_486:\n        /* \"#utility.yul\":3189:3190   */\n      0x00\n        /* \"#utility.yul\":3178:3187   */\n      dup5\n        /* \"#utility.yul\":3174:3191   */\n      add\n        /* \"#utility.yul\":3161:3192   */\n      calldataload\n        /* \"#utility.yul\":3219:3237   */\n      0xffffffffffffffff\n        /* \"#utility.yul\":3211:3217   */\n      dup2\n        /* \"#utility.yul\":3208:3238   */\n      gt\n        /* \"#utility.yul\":3205:3322   */\n      iszero\n      tag_488\n      jumpi\n        /* \"#utility.yul\":3241:3320   */\n      tag_489\n      tag_483\n      jump\t// in\n    tag_489:\n        /* \"#utility.yul\":3205:3322   */\n    tag_488:\n        /* \"#utility.yul\":3346:3409   */\n      tag_490\n        /* \"#utility.yul\":3401:3408   */\n      dup7\n        /* \"#utility.yul\":3392:3398   */\n      dup3\n        /* \"#utility.yul\":3381:3390   */\n      dup8\n        /* \"#utility.yul\":3377:3399   */\n      add\n        /* \"#utility.yul\":3346:3409   */\n      tag_454\n      jump\t// in\n    tag_490:\n        /* \"#utility.yul\":3336:3409   */\n      swap4\n      pop\n        /* \"#utility.yul\":3132:3419   */\n      pop\n        /* \"#utility.yul\":3486:3488   */\n      0x20\n        /* \"#utility.yul\":3475:3484   */\n      dup5\n        /* \"#utility.yul\":3471:3489   */\n      add\n        /* \"#utility.yul\":3458:3490   */\n      calldataload\n        /* \"#utility.yul\":3517:3535   */\n      0xffffffffffffffff\n        /* \"#utility.yul\":3509:3515   */\n      dup2\n        /* \"#utility.yul\":3506:3536   */\n      gt\n        /* \"#utility.yul\":3503:3620   */\n      iszero\n      tag_491\n      jumpi\n        /* \"#utility.yul\":3539:3618   */\n      tag_492\n      tag_483\n      jump\t// in\n    tag_492:\n        /* \"#utility.yul\":3503:3620   */\n    tag_491:\n        /* \"#utility.yul\":3644:3707   */\n      tag_493\n        /* \"#utility.yul\":3699:3706   */\n      dup7\n        /* \"#utility.yul\":3690:3696   */\n      dup3\n        /* \"#utility.yul\":3679:3688   */\n      dup8\n        /* \"#utility.yul\":3675:3697   */\n      add\n        /* \"#utility.yul\":3644:3707   */\n      tag_454\n      jump\t// in\n    tag_493:\n        /* \"#utility.yul\":3634:3707   */\n      swap3\n      pop\n        /* \"#utility.yul\":3429:3717   */\n      pop\n        /* \"#utility.yul\":3756:3758   */\n      0x40\n        /* \"#utility.yul\":3782:3835   */\n      tag_494\n        /* \"#utility.yul\":3827:3834   */\n      dup7\n        /* \"#utility.yul\":3818:3824   */\n      dup3\n        /* \"#utility.yul\":3807:3816   */\n      dup8\n        /* \"#utility.yul\":3803:3825   */\n      add\n        /* \"#utility.yul\":3782:3835   */\n      tag_460\n      jump\t// in\n    tag_494:\n        /* \"#utility.yul\":3772:3835   */\n      swap2\n      pop\n        /* \"#utility.yul\":3727:3845   */\n      pop\n        /* \"#utility.yul\":2873:3852   */\n      swap3\n      pop\n      swap3\n      pop\n      swap3\n      jump\t// out\n        /* \"#utility.yul\":3858:4187   */\n    tag_52:\n        /* \"#utility.yul\":3917:3923   */\n      0x00\n        /* \"#utility.yul\":3966:3968   */\n      0x20\n        /* \"#utility.yul\":3954:3963   */\n      dup3\n        /* \"#utility.yul\":3945:3952   */\n      dup5\n        /* \"#utility.yul\":3941:3964   */\n      sub\n        /* \"#utility.yul\":3937:3969   */\n      slt\n        /* \"#utility.yul\":3934:4053   */\n      iszero\n      tag_496\n      jumpi\n        /* \"#utility.yul\":3972:4051   */\n      tag_497\n      tag_467\n      jump\t// in\n    tag_497:\n        /* \"#utility.yul\":3934:4053   */\n    tag_496:\n        /* \"#utility.yul\":4092:4093   */\n      0x00\n        /* \"#utility.yul\":4117:4170   */\n      tag_498\n        /* \"#utility.yul\":4162:4169   */\n      dup5\n        /* \"#utility.yul\":4153:4159   */\n      dup3\n        /* \"#utility.yul\":4142:4151   */\n      dup6\n        /* \"#utility.yul\":4138:4160   */\n      add\n        /* \"#utility.yul\":4117:4170   */\n      tag_460\n      jump\t// in\n    tag_498:\n        /* \"#utility.yul\":4107:4170   */\n      swap2\n      pop\n        /* \"#utility.yul\":4063:4180   */\n      pop\n        /* \"#utility.yul\":3858:4187   */\n      swap3\n      swap2\n      pop\n      pop\n      jump\t// out\n        /* \"#utility.yul\":4193:4335   */\n    tag_499:\n        /* \"#utility.yul\":4296:4328   */\n      tag_501\n        /* \"#utility.yul\":4322:4327   */\n      dup2\n        /* \"#utility.yul\":4296:4328   */\n      tag_502\n      jump\t// in\n    tag_501:\n        /* \"#utility.yul\":4291:4294   */\n      dup3\n        /* \"#utility.yul\":4284:4329   */\n      mstore\n        /* \"#utility.yul\":4193:4335   */\n      pop\n      pop\n      jump\t// out\n        /* \"#utility.yul\":4341:4459   */\n    tag_503:\n        /* \"#utility.yul\":4428:4452   */\n      tag_505\n        /* \"#utility.yul\":4446:4451   */\n      dup2\n        /* \"#utility.yul\":4428:4452   */\n      tag_506\n      jump\t// in\n    tag_505:\n        /* \"#utility.yul\":4423:4426   */\n      dup3\n        /* \"#utility.yul\":4416:4453   */\n      mstore\n        /* \"#utility.yul\":4341:4459   */\n      pop\n      pop\n      jump\t// out\n        /* \"#utility.yul\":4465:4574   */\n    tag_507:\n        /* \"#utility.yul\":4546:4567   */\n      tag_509\n        /* \"#utility.yul\":4561:4566   */\n      dup2\n        /* \"#utility.yul\":4546:4567   */\n      tag_510\n      jump\t// in\n    tag_509:\n        /* \"#utility.yul\":4541:4544   */\n      dup3\n        /* \"#utility.yul\":4534:4568   */\n      mstore\n        /* \"#utility.yul\":4465:4574   */\n      pop\n      pop\n      jump\t// out\n        /* \"#utility.yul\":4580:4944   */\n    tag_511:\n        /* \"#utility.yul\":4668:4671   */\n      0x00\n        /* \"#utility.yul\":4696:4735   */\n      tag_513\n        /* \"#utility.yul\":4729:4734   */\n      dup3\n        /* \"#utility.yul\":4696:4735   */\n      tag_514\n      jump\t// in\n    tag_513:\n        /* \"#utility.yul\":4751:4822   */\n      tag_515\n        /* \"#utility.yul\":4815:4821   */\n      dup2\n        /* \"#utility.yul\":4810:4813   */\n      dup6\n        /* \"#utility.yul\":4751:4822   */\n      tag_516\n      jump\t// in\n    tag_515:\n        /* \"#utility.yul\":4744:4822   */\n      swap4\n      pop\n        /* \"#utility.yul\":4831:4883   */\n      tag_517\n        /* \"#utility.yul\":4876:4882   */\n      dup2\n        /* \"#utility.yul\":4871:4874   */\n      dup6\n        /* \"#utility.yul\":4864:4868   */\n      0x20\n        /* \"#utility.yul\":4857:4862   */\n      dup7\n        /* \"#utility.yul\":4853:4869   */\n      add\n        /* \"#utility.yul\":4831:4883   */\n      tag_518\n      jump\t// in\n    tag_517:\n        /* \"#utility.yul\":4908:4937   */\n      tag_519\n        /* \"#utility.yul\":4930:4936   */\n      dup2\n        /* \"#utility.yul\":4908:4937   */\n      tag_520\n      jump\t// in\n    tag_519:\n        /* \"#utility.yul\":4903:4906   */\n      dup5\n        /* \"#utility.yul\":4899:4938   */\n      add\n        /* \"#utility.yul\":4892:4938   */\n      swap2\n      pop\n        /* \"#utility.yul\":4672:4944   */\n      pop\n        /* \"#utility.yul\":4580:4944   */\n      swap3\n      swap2\n      pop\n      pop\n      jump\t// out\n        /* \"#utility.yul\":4950:5316   */\n    tag_521:\n        /* \"#utility.yul\":5092:5095   */\n      0x00\n        /* \"#utility.yul\":5113:5180   */\n      tag_523\n        /* \"#utility.yul\":5177:5179   */\n      0x23\n        /* \"#utility.yul\":5172:5175   */\n      dup4\n        /* \"#utility.yul\":5113:5180   */\n      tag_516\n      jump\t// in\n    tag_523:\n        /* \"#utility.yul\":5106:5180   */\n      swap2\n      pop\n        /* \"#utility.yul\":5189:5282   */\n      tag_524\n        /* \"#utility.yul\":5278:5281   */\n      dup3\n        /* \"#utility.yul\":5189:5282   */\n      tag_525\n      jump\t// in\n    tag_524:\n        /* \"#utility.yul\":5307:5309   */\n      0x40\n        /* \"#utility.yul\":5302:5305   */\n      dup3\n        /* \"#utility.yul\":5298:5310   */\n      add\n        /* \"#utility.yul\":5291:5310   */\n      swap1\n      pop\n        /* \"#utility.yul\":4950:5316   */\n      swap2\n      swap1\n      pop\n      jump\t// out\n        /* \"#utility.yul\":5322:5688   */\n    tag_526:\n        /* \"#utility.yul\":5464:5467   */\n      0x00\n        /* \"#utility.yul\":5485:5552   */\n      tag_528\n        /* \"#utility.yul\":5549:5551   */\n      0x16\n        /* \"#utility.yul\":5544:5547   */\n      dup4\n        /* \"#utility.yul\":5485:5552   */\n      tag_516\n      jump\t// in\n    tag_528:\n        /* \"#utility.yul\":5478:5552   */\n      swap2\n      pop\n        /* \"#utility.yul\":5561:5654   */\n      tag_529\n        /* \"#utility.yul\":5650:5653   */\n      dup3\n        /* \"#utility.yul\":5561:5654   */\n      tag_530\n      jump\t// in\n    tag_529:\n        /* \"#utility.yul\":5679:5681   */\n      0x20\n        /* \"#utility.yul\":5674:5677   */\n      dup3\n        /* \"#utility.yul\":5670:5682   */\n      add\n        /* \"#utility.yul\":5663:5682   */\n      swap1\n      pop\n        /* \"#utility.yul\":5322:5688   */\n      swap2\n      swap1\n      pop\n      jump\t// out\n        /* \"#utility.yul\":5694:6060   */\n    tag_531:\n        /* \"#utility.yul\":5836:5839   */\n      0x00\n        /* \"#utility.yul\":5857:5924   */\n      tag_533\n        /* \"#utility.yul\":5921:5923   */\n      0x1f\n        /* \"#utility.yul\":5916:5919   */\n      dup4\n        /* \"#utility.yul\":5857:5924   */\n      tag_516\n      jump\t// in\n    tag_533:\n        /* \"#utility.yul\":5850:5924   */\n      swap2\n      pop\n        /* \"#utility.yul\":5933:6026   */\n      tag_534\n        /* \"#utility.yul\":6022:6025   */\n      dup3\n        /* \"#utility.yul\":5933:6026   */\n      tag_535\n      jump\t// in\n    tag_534:\n        /* \"#utility.yul\":6051:6053   */\n      0x20\n        /* \"#utility.yul\":6046:6049   */\n      dup3\n        /* \"#utility.yul\":6042:6054   */\n      add\n        /* \"#utility.yul\":6035:6054   */\n      swap1\n      pop\n        /* \"#utility.yul\":5694:6060   */\n      swap2\n      swap1\n      pop\n      jump\t// out\n        /* \"#utility.yul\":6066:6432   */\n    tag_536:\n        /* \"#utility.yul\":6208:6211   */\n      0x00\n        /* \"#utility.yul\":6229:6296   */\n      tag_538\n        /* \"#utility.yul\":6293:6295   */\n      0x24\n        /* \"#utility.yul\":6288:6291   */\n      dup4\n        /* \"#utility.yul\":6229:6296   */\n      tag_516\n      jump\t// in\n    tag_538:\n        /* \"#utility.yul\":6222:6296   */\n      swap2\n      pop\n        /* \"#utility.yul\":6305:6398   */\n      tag_539\n        /* \"#utility.yul\":6394:6397   */\n      dup3\n        /* \"#utility.yul\":6305:6398   */\n      tag_540\n      jump\t// in\n    tag_539:\n        /* \"#utility.yul\":6423:6425   */\n      0x40\n        /* \"#utility.yul\":6418:6421   */\n      dup3\n        /* \"#utility.yul\":6414:6426   */\n      add\n        /* \"#utility.yul\":6407:6426   */\n      swap1\n      pop\n        /* \"#utility.yul\":6066:6432   */\n      swap2\n      swap1\n      pop\n      jump\t// out\n        /* \"#utility.yul\":6438:6804   */\n    tag_541:\n        /* \"#utility.yul\":6580:6583   */\n      0x00\n        /* \"#utility.yul\":6601:6668   */\n      tag_543\n        /* \"#utility.yul\":6665:6667   */\n      0x21\n        /* \"#utility.yul\":6660:6663   */\n      dup4\n        /* \"#utility.yul\":6601:6668   */\n      tag_516\n      jump\t// in\n    tag_543:\n        /* \"#utility.yul\":6594:6668   */\n      swap2\n      pop\n        /* \"#utility.yul\":6677:6770   */\n      tag_544\n        /* \"#utility.yul\":6766:6769   */\n      dup3\n        /* \"#utility.yul\":6677:6770   */\n      tag_545\n      jump\t// in\n    tag_544:\n        /* \"#utility.yul\":6795:6797   */\n      0x40\n        /* \"#utility.yul\":6790:6793   */\n      dup3\n        /* \"#utility.yul\":6786:6798   */\n      add\n        /* \"#utility.yul\":6779:6798   */\n      swap1\n      pop\n        /* \"#utility.yul\":6438:6804   */\n      swap2\n      swap1\n      pop\n      jump\t// out\n        /* \"#utility.yul\":6810:6928   */\n    tag_546:\n        /* \"#utility.yul\":6897:6921   */\n      tag_548\n        /* \"#utility.yul\":6915:6920   */\n      dup2\n        /* \"#utility.yul\":6897:6921   */\n      tag_549\n      jump\t// in\n    tag_548:\n        /* \"#utility.yul\":6892:6895   */\n      dup3\n        /* \"#utility.yul\":6885:6922   */\n      mstore\n        /* \"#utility.yul\":6810:6928   */\n      pop\n      pop\n      jump\t// out\n        /* \"#utility.yul\":6934:7156   */\n    tag_91:\n        /* \"#utility.yul\":7027:7031   */\n      0x00\n        /* \"#utility.yul\":7065:7067   */\n      0x20\n        /* \"#utility.yul\":7054:7063   */\n      dup3\n        /* \"#utility.yul\":7050:7068   */\n      add\n        /* \"#utility.yul\":7042:7068   */\n      swap1\n      pop\n        /* \"#utility.yul\":7078:7149   */\n      tag_551\n        /* \"#utility.yul\":7146:7147   */\n      0x00\n        /* \"#utility.yul\":7135:7144   */\n      dup4\n        /* \"#utility.yul\":7131:7148   */\n      add\n        /* \"#utility.yul\":7122:7128   */\n      dup5\n        /* \"#utility.yul\":7078:7149   */\n      tag_503\n      jump\t// in\n    tag_551:\n        /* \"#utility.yul\":6934:7156   */\n      swap3\n      swap2\n      pop\n      pop\n      jump\t// out\n        /* \"#utility.yul\":7162:7416   */\n    tag_110:\n        /* \"#utility.yul\":7271:7275   */\n      0x00\n        /* \"#utility.yul\":7309:7311   */\n      0x20\n        /* \"#utility.yul\":7298:7307   */\n      dup3\n        /* \"#utility.yul\":7294:7312   */\n      add\n        /* \"#utility.yul\":7286:7312   */\n      swap1\n      pop\n        /* \"#utility.yul\":7322:7409   */\n      tag_553\n        /* \"#utility.yul\":7406:7407   */\n      0x00\n        /* \"#utility.yul\":7395:7404   */\n      dup4\n        /* \"#utility.yul\":7391:7408   */\n      add\n        /* \"#utility.yul\":7382:7388   */\n      dup5\n        /* \"#utility.yul\":7322:7409   */\n      tag_499\n      jump\t// in\n    tag_553:\n        /* \"#utility.yul\":7162:7416   */\n      swap3\n      swap2\n      pop\n      pop\n      jump\t// out\n        /* \"#utility.yul\":7422:7632   */\n    tag_77:\n        /* \"#utility.yul\":7509:7513   */\n      0x00\n        /* \"#utility.yul\":7547:7549   */\n      0x20\n        /* \"#utility.yul\":7536:7545   */\n      dup3\n        /* \"#utility.yul\":7532:7550   */\n      add\n        /* \"#utility.yul\":7524:7550   */\n      swap1\n      pop\n        /* \"#utility.yul\":7560:7625   */\n      tag_555\n        /* \"#utility.yul\":7622:7623   */\n      0x00\n        /* \"#utility.yul\":7611:7620   */\n      dup4\n        /* \"#utility.yul\":7607:7624   */\n      add\n        /* \"#utility.yul\":7598:7604   */\n      dup5\n        /* \"#utility.yul\":7560:7625   */\n      tag_507\n      jump\t// in\n    tag_555:\n        /* \"#utility.yul\":7422:7632   */\n      swap3\n      swap2\n      pop\n      pop\n      jump\t// out\n        /* \"#utility.yul\":7638:7951   */\n    tag_378:\n        /* \"#utility.yul\":7751:7755   */\n      0x00\n        /* \"#utility.yul\":7789:7791   */\n      0x20\n        /* \"#utility.yul\":7778:7787   */\n      dup3\n        /* \"#utility.yul\":7774:7792   */\n      add\n        /* \"#utility.yul\":7766:7792   */\n      swap1\n      pop\n        /* \"#utility.yul\":7838:7847   */\n      dup2\n        /* \"#utility.yul\":7832:7836   */\n      dup2\n        /* \"#utility.yul\":7828:7848   */\n      sub\n        /* \"#utility.yul\":7824:7825   */\n      0x00\n        /* \"#utility.yul\":7813:7822   */\n      dup4\n        /* \"#utility.yul\":7809:7826   */\n      add\n        /* \"#utility.yul\":7802:7849   */\n      mstore\n        /* \"#utility.yul\":7866:7944   */\n      tag_557\n        /* \"#utility.yul\":7939:7943   */\n      dup2\n        /* \"#utility.yul\":7930:7936   */\n      dup5\n        /* \"#utility.yul\":7866:7944   */\n      tag_511\n      jump\t// in\n    tag_557:\n        /* \"#utility.yul\":7858:7944   */\n      swap1\n      pop\n        /* \"#utility.yul\":7638:7951   */\n      swap3\n      swap2\n      pop\n      pop\n      jump\t// out\n        /* \"#utility.yul\":7957:8803   */\n    tag_55:\n        /* \"#utility.yul\":8202:8206   */\n      0x00\n        /* \"#utility.yul\":8240:8243   */\n      0xa0\n        /* \"#utility.yul\":8229:8238   */\n      dup3\n        /* \"#utility.yul\":8225:8244   */\n      add\n        /* \"#utility.yul\":8217:8244   */\n      swap1\n      pop\n        /* \"#utility.yul\":8290:8299   */\n      dup2\n        /* \"#utility.yul\":8284:8288   */\n      dup2\n        /* \"#utility.yul\":8280:8300   */\n      sub\n        /* \"#utility.yul\":8276:8277   */\n      0x00\n        /* \"#utility.yul\":8265:8274   */\n      dup4\n        /* \"#utility.yul\":8261:8278   */\n      add\n        /* \"#utility.yul\":8254:8301   */\n      mstore\n        /* \"#utility.yul\":8318:8396   */\n      tag_559\n        /* \"#utility.yul\":8391:8395   */\n      dup2\n        /* \"#utility.yul\":8382:8388   */\n      dup9\n        /* \"#utility.yul\":8318:8396   */\n      tag_511\n      jump\t// in\n    tag_559:\n        /* \"#utility.yul\":8310:8396   */\n      swap1\n      pop\n        /* \"#utility.yul\":8406:8478   */\n      tag_560\n        /* \"#utility.yul\":8474:8476   */\n      0x20\n        /* \"#utility.yul\":8463:8472   */\n      dup4\n        /* \"#utility.yul\":8459:8477   */\n      add\n        /* \"#utility.yul\":8450:8456   */\n      dup8\n        /* \"#utility.yul\":8406:8478   */\n      tag_503\n      jump\t// in\n    tag_560:\n        /* \"#utility.yul\":8525:8534   */\n      dup2\n        /* \"#utility.yul\":8519:8523   */\n      dup2\n        /* \"#utility.yul\":8515:8535   */\n      sub\n        /* \"#utility.yul\":8510:8512   */\n      0x40\n        /* \"#utility.yul\":8499:8508   */\n      dup4\n        /* \"#utility.yul\":8495:8513   */\n      add\n        /* \"#utility.yul\":8488:8536   */\n      mstore\n        /* \"#utility.yul\":8553:8631   */\n      tag_561\n        /* \"#utility.yul\":8626:8630   */\n      dup2\n        /* \"#utility.yul\":8617:8623   */\n      dup7\n        /* \"#utility.yul\":8553:8631   */\n      tag_511\n      jump\t// in\n    tag_561:\n        /* \"#utility.yul\":8545:8631   */\n      swap1\n      pop\n        /* \"#utility.yul\":8641:8713   */\n      tag_562\n        /* \"#utility.yul\":8709:8711   */\n      0x60\n        /* \"#utility.yul\":8698:8707   */\n      dup4\n        /* \"#utility.yul\":8694:8712   */\n      add\n        /* \"#utility.yul\":8685:8691   */\n      dup6\n        /* \"#utility.yul\":8641:8713   */\n      tag_546\n      jump\t// in\n    tag_562:\n        /* \"#utility.yul\":8723:8796   */\n      tag_563\n        /* \"#utility.yul\":8791:8794   */\n      0x80\n        /* \"#utility.yul\":8780:8789   */\n      dup4\n        /* \"#utility.yul\":8776:8795   */\n      add\n        /* \"#utility.yul\":8767:8773   */\n      dup5\n        /* \"#utility.yul\":8723:8796   */\n      tag_546\n      jump\t// in\n    tag_563:\n        /* \"#utility.yul\":7957:8803   */\n      swap7\n      swap6\n      pop\n      pop\n      pop\n      pop\n      pop\n      pop\n      jump\t// out\n        /* \"#utility.yul\":8809:9433   */\n    tag_123:\n        /* \"#utility.yul\":8998:9002   */\n      0x00\n        /* \"#utility.yul\":9036:9038   */\n      0x60\n        /* \"#utility.yul\":9025:9034   */\n      dup3\n        /* \"#utility.yul\":9021:9039   */\n      add\n        /* \"#utility.yul\":9013:9039   */\n      swap1\n      pop\n        /* \"#utility.yul\":9085:9094   */\n      dup2\n        /* \"#utility.yul\":9079:9083   */\n      dup2\n        /* \"#utility.yul\":9075:9095   */\n      sub\n        /* \"#utility.yul\":9071:9072   */\n      0x00\n        /* \"#utility.yul\":9060:9069   */\n      dup4\n        /* \"#utility.yul\":9056:9073   */\n      add\n        /* \"#utility.yul\":9049:9096   */\n      mstore\n        /* \"#utility.yul\":9113:9191   */\n      tag_565\n        /* \"#utility.yul\":9186:9190   */\n      dup2\n        /* \"#utility.yul\":9177:9183   */\n      dup7\n        /* \"#utility.yul\":9113:9191   */\n      tag_511\n      jump\t// in\n    tag_565:\n        /* \"#utility.yul\":9105:9191   */\n      swap1\n      pop\n        /* \"#utility.yul\":9238:9247   */\n      dup2\n        /* \"#utility.yul\":9232:9236   */\n      dup2\n        /* \"#utility.yul\":9228:9248   */\n      sub\n        /* \"#utility.yul\":9223:9225   */\n      0x20\n        /* \"#utility.yul\":9212:9221   */\n      dup4\n        /* \"#utility.yul\":9208:9226   */\n      add\n        /* \"#utility.yul\":9201:9249   */\n      mstore\n        /* \"#utility.yul\":9266:9344   */\n      tag_566\n        /* \"#utility.yul\":9339:9343   */\n      dup2\n        /* \"#utility.yul\":9330:9336   */\n      dup6\n        /* \"#utility.yul\":9266:9344   */\n      tag_511\n      jump\t// in\n    tag_566:\n        /* \"#utility.yul\":9258:9344   */\n      swap1\n      pop\n        /* \"#utility.yul\":9354:9426   */\n      tag_567\n        /* \"#utility.yul\":9422:9424   */\n      0x40\n        /* \"#utility.yul\":9411:9420   */\n      dup4\n        /* \"#utility.yul\":9407:9425   */\n      add\n        /* \"#utility.yul\":9398:9404   */\n      dup5\n        /* \"#utility.yul\":9354:9426   */\n      tag_546\n      jump\t// in\n    tag_567:\n        /* \"#utility.yul\":8809:9433   */\n      swap5\n      swap4\n      pop\n      pop\n      pop\n      pop\n      jump\t// out\n        /* \"#utility.yul\":9439:9858   */\n    tag_357:\n        /* \"#utility.yul\":9605:9609   */\n      0x00\n        /* \"#utility.yul\":9643:9645   */\n      0x20\n        /* \"#utility.yul\":9632:9641   */\n      dup3\n        /* \"#utility.yul\":9628:9646   */\n      add\n        /* \"#utility.yul\":9620:9646   */\n      swap1\n      pop\n        /* \"#utility.yul\":9692:9701   */\n      dup2\n        /* \"#utility.yul\":9686:9690   */\n      dup2\n        /* \"#utility.yul\":9682:9702   */\n      sub\n        /* \"#utility.yul\":9678:9679   */\n      0x00\n        /* \"#utility.yul\":9667:9676   */\n      dup4\n        /* \"#utility.yul\":9663:9680   */\n      add\n        /* \"#utility.yul\":9656:9703   */\n      mstore\n        /* \"#utility.yul\":9720:9851   */\n      tag_569\n        /* \"#utility.yul\":9846:9850   */\n      dup2\n        /* \"#utility.yul\":9720:9851   */\n      tag_521\n      jump\t// in\n    tag_569:\n        /* \"#utility.yul\":9712:9851   */\n      swap1\n      pop\n        /* \"#utility.yul\":9439:9858   */\n      swap2\n      swap1\n      pop\n      jump\t// out\n        /* \"#utility.yul\":9864:10283   */\n    tag_218:\n        /* \"#utility.yul\":10030:10034   */\n      0x00\n        /* \"#utility.yul\":10068:10070   */\n      0x20\n        /* \"#utility.yul\":10057:10066   */\n      dup3\n        /* \"#utility.yul\":10053:10071   */\n      add\n        /* \"#utility.yul\":10045:10071   */\n      swap1\n      pop\n        /* \"#utility.yul\":10117:10126   */\n      dup2\n        /* \"#utility.yul\":10111:10115   */\n      dup2\n        /* \"#utility.yul\":10107:10127   */\n      sub\n        /* \"#utility.yul\":10103:10104   */\n      0x00\n        /* \"#utility.yul\":10092:10101   */\n      dup4\n        /* \"#utility.yul\":10088:10105   */\n      add\n        /* \"#utility.yul\":10081:10128   */\n      mstore\n        /* \"#utility.yul\":10145:10276   */\n      tag_571\n        /* \"#utility.yul\":10271:10275   */\n      dup2\n        /* \"#utility.yul\":10145:10276   */\n      tag_526\n      jump\t// in\n    tag_571:\n        /* \"#utility.yul\":10137:10276   */\n      swap1\n      pop\n        /* \"#utility.yul\":9864:10283   */\n      swap2\n      swap1\n      pop\n      jump\t// out\n        /* \"#utility.yul\":10289:10708   */\n    tag_354:\n        /* \"#utility.yul\":10455:10459   */\n      0x00\n        /* \"#utility.yul\":10493:10495   */\n      0x20\n        /* \"#utility.yul\":10482:10491   */\n      dup3\n        /* \"#utility.yul\":10478:10496   */\n      add\n        /* \"#utility.yul\":10470:10496   */\n      swap1\n      pop\n        /* \"#utility.yul\":10542:10551   */\n      dup2\n        /* \"#utility.yul\":10536:10540   */\n      dup2\n        /* \"#utility.yul\":10532:10552   */\n      sub\n        /* \"#utility.yul\":10528:10529   */\n      0x00\n        /* \"#utility.yul\":10517:10526   */\n      dup4\n        /* \"#utility.yul\":10513:10530   */\n      add\n        /* \"#utility.yul\":10506:10553   */\n      mstore\n        /* \"#utility.yul\":10570:10701   */\n      tag_573\n        /* \"#utility.yul\":10696:10700   */\n      dup2\n        /* \"#utility.yul\":10570:10701   */\n      tag_531\n      jump\t// in\n    tag_573:\n        /* \"#utility.yul\":10562:10701   */\n      swap1\n      pop\n        /* \"#utility.yul\":10289:10708   */\n      swap2\n      swap1\n      pop\n      jump\t// out\n        /* \"#utility.yul\":10714:11133   */\n    tag_189:\n        /* \"#utility.yul\":10880:10884   */\n      0x00\n        /* \"#utility.yul\":10918:10920   */\n      0x20\n        /* \"#utility.yul\":10907:10916   */\n      dup3\n        /* \"#utility.yul\":10903:10921   */\n      add\n        /* \"#utility.yul\":10895:10921   */\n      swap1\n      pop\n        /* \"#utility.yul\":10967:10976   */\n      dup2\n        /* \"#utility.yul\":10961:10965   */\n      dup2\n        /* \"#utility.yul\":10957:10977   */\n      sub\n        /* \"#utility.yul\":10953:10954   */\n      0x00\n        /* \"#utility.yul\":10942:10951   */\n      dup4\n        /* \"#utility.yul\":10938:10955   */\n      add\n        /* \"#utility.yul\":10931:10978   */\n      mstore\n        /* \"#utility.yul\":10995:11126   */\n      tag_575\n        /* \"#utility.yul\":11121:11125   */\n      dup2\n        /* \"#utility.yul\":10995:11126   */\n      tag_536\n      jump\t// in\n    tag_575:\n        /* \"#utility.yul\":10987:11126   */\n      swap1\n      pop\n        /* \"#utility.yul\":10714:11133   */\n      swap2\n      swap1\n      pop\n      jump\t// out\n        /* \"#utility.yul\":11139:11558   */\n    tag_290:\n        /* \"#utility.yul\":11305:11309   */\n      0x00\n        /* \"#utility.yul\":11343:11345   */\n      0x20\n        /* \"#utility.yul\":11332:11341   */\n      dup3\n        /* \"#utility.yul\":11328:11346   */\n      add\n        /* \"#utility.yul\":11320:11346   */\n      swap1\n      pop\n        /* \"#utility.yul\":11392:11401   */\n      dup2\n        /* \"#utility.yul\":11386:11390   */\n      dup2\n        /* \"#utility.yul\":11382:11402   */\n      sub\n        /* \"#utility.yul\":11378:11379   */\n      0x00\n        /* \"#utility.yul\":11367:11376   */\n      dup4\n        /* \"#utility.yul\":11363:11380   */\n      add\n        /* \"#utility.yul\":11356:11403   */\n      mstore\n        /* \"#utility.yul\":11420:11551   */\n      tag_577\n        /* \"#utility.yul\":11546:11550   */\n      dup2\n        /* \"#utility.yul\":11420:11551   */\n      tag_541\n      jump\t// in\n    tag_577:\n        /* \"#utility.yul\":11412:11551   */\n      swap1\n      pop\n        /* \"#utility.yul\":11139:11558   */\n      swap2\n      swap1\n      pop\n      jump\t// out\n        /* \"#utility.yul\":11564:11786   */\n    tag_39:\n        /* \"#utility.yul\":11657:11661   */\n      0x00\n        /* \"#utility.yul\":11695:11697   */\n      0x20\n        /* \"#utility.yul\":11684:11693   */\n      dup3\n        /* \"#utility.yul\":11680:11698   */\n      add\n        /* \"#utility.yul\":11672:11698   */\n      swap1\n      pop\n        /* \"#utility.yul\":11708:11779   */\n      tag_579\n        /* \"#utility.yul\":11776:11777   */\n      0x00\n        /* \"#utility.yul\":11765:11774   */\n      dup4\n        /* \"#utility.yul\":11761:11778   */\n      add\n        /* \"#utility.yul\":11752:11758   */\n      dup5\n        /* \"#utility.yul\":11708:11779   */\n      tag_546\n      jump\t// in\n    tag_579:\n        /* \"#utility.yul\":11564:11786   */\n      swap3\n      swap2\n      pop\n      pop\n      jump\t// out\n        /* \"#utility.yul\":11792:11921   */\n    tag_440:\n        /* \"#utility.yul\":11826:11832   */\n      0x00\n        /* \"#utility.yul\":11853:11873   */\n      tag_581\n      tag_582\n      jump\t// in\n    tag_581:\n        /* \"#utility.yul\":11843:11873   */\n      swap1\n      pop\n        /* \"#utility.yul\":11882:11915   */\n      tag_583\n        /* \"#utility.yul\":11910:11914   */\n      dup3\n        /* \"#utility.yul\":11902:11908   */\n      dup3\n        /* \"#utility.yul\":11882:11915   */\n      tag_584\n      jump\t// in\n    tag_583:\n        /* \"#utility.yul\":11792:11921   */\n      swap2\n      swap1\n      pop\n      jump\t// out\n        /* \"#utility.yul\":11927:12002   */\n    tag_582:\n        /* \"#utility.yul\":11960:11966   */\n      0x00\n        /* \"#utility.yul\":11993:11995   */\n      0x40\n        /* \"#utility.yul\":11987:11996   */\n      mload\n        /* \"#utility.yul\":11977:11996   */\n      swap1\n      pop\n        /* \"#utility.yul\":11927:12002   */\n      swap1\n      jump\t// out\n        /* \"#utility.yul\":12008:12316   */\n    tag_439:\n        /* \"#utility.yul\":12070:12074   */\n      0x00\n        /* \"#utility.yul\":12160:12178   */\n      0xffffffffffffffff\n        /* \"#utility.yul\":12152:12158   */\n      dup3\n        /* \"#utility.yul\":12149:12179   */\n      gt\n        /* \"#utility.yul\":12146:12202   */\n      iszero\n      tag_587\n      jumpi\n        /* \"#utility.yul\":12182:12200   */\n      tag_588\n      tag_397\n      jump\t// in\n    tag_588:\n        /* \"#utility.yul\":12146:12202   */\n    tag_587:\n        /* \"#utility.yul\":12220:12249   */\n      tag_589\n        /* \"#utility.yul\":12242:12248   */\n      dup3\n        /* \"#utility.yul\":12220:12249   */\n      tag_520\n      jump\t// in\n    tag_589:\n        /* \"#utility.yul\":12212:12249   */\n      swap1\n      pop\n        /* \"#utility.yul\":12304:12308   */\n      0x20\n        /* \"#utility.yul\":12298:12302   */\n      dup2\n        /* \"#utility.yul\":12294:12309   */\n      add\n        /* \"#utility.yul\":12286:12309   */\n      swap1\n      pop\n        /* \"#utility.yul\":12008:12316   */\n      swap2\n      swap1\n      pop\n      jump\t// out\n        /* \"#utility.yul\":12322:12421   */\n    tag_514:\n        /* \"#utility.yul\":12374:12380   */\n      0x00\n        /* \"#utility.yul\":12408:12413   */\n      dup2\n        /* \"#utility.yul\":12402:12414   */\n      mload\n        /* \"#utility.yul\":12392:12414   */\n      swap1\n      pop\n        /* \"#utility.yul\":12322:12421   */\n      swap2\n      swap1\n      pop\n      jump\t// out\n        /* \"#utility.yul\":12427:12596   */\n    tag_516:\n        /* \"#utility.yul\":12511:12522   */\n      0x00\n        /* \"#utility.yul\":12545:12551   */\n      dup3\n        /* \"#utility.yul\":12540:12543   */\n      dup3\n        /* \"#utility.yul\":12533:12552   */\n      mstore\n        /* \"#utility.yul\":12585:12589   */\n      0x20\n        /* \"#utility.yul\":12580:12583   */\n      dup3\n        /* \"#utility.yul\":12576:12590   */\n      add\n        /* \"#utility.yul\":12561:12590   */\n      swap1\n      pop\n        /* \"#utility.yul\":12427:12596   */\n      swap3\n      swap2\n      pop\n      pop\n      jump\t// out\n        /* \"#utility.yul\":12602:12907   */\n    tag_298:\n        /* \"#utility.yul\":12642:12645   */\n      0x00\n        /* \"#utility.yul\":12661:12681   */\n      tag_593\n        /* \"#utility.yul\":12679:12680   */\n      dup3\n        /* \"#utility.yul\":12661:12681   */\n      tag_549\n      jump\t// in\n    tag_593:\n        /* \"#utility.yul\":12656:12681   */\n      swap2\n      pop\n        /* \"#utility.yul\":12695:12715   */\n      tag_594\n        /* \"#utility.yul\":12713:12714   */\n      dup4\n        /* \"#utility.yul\":12695:12715   */\n      tag_549\n      jump\t// in\n    tag_594:\n        /* \"#utility.yul\":12690:12715   */\n      swap3\n      pop\n        /* \"#utility.yul\":12849:12850   */\n      dup3\n        /* \"#utility.yul\":12781:12847   */\n      0xffffffffffffffffffffffffffffffffffffffffffffffffffffffffffffffff\n        /* \"#utility.yul\":12777:12851   */\n      sub\n        /* \"#utility.yul\":12774:12775   */\n      dup3\n        /* \"#utility.yul\":12771:12852   */\n      gt\n        /* \"#utility.yul\":12768:12875   */\n      iszero\n      tag_595\n      jumpi\n        /* \"#utility.yul\":12855:12873   */\n      tag_596\n      tag_597\n      jump\t// in\n    tag_596:\n        /* \"#utility.yul\":12768:12875   */\n    tag_595:\n        /* \"#utility.yul\":12899:12900   */\n      dup3\n        /* \"#utility.yul\":12896:12897   */\n      dup3\n        /* \"#utility.yul\":12892:12901   */\n      add\n        /* \"#utility.yul\":12885:12901   */\n      swap1\n      pop\n        /* \"#utility.yul\":12602:12907   */\n      swap3\n      swap2\n      pop\n      pop\n      jump\t// out\n        /* \"#utility.yul\":12913:13098   */\n    tag_349:\n        /* \"#utility.yul\":12953:12954   */\n      0x00\n        /* \"#utility.yul\":12970:12990   */\n      tag_599\n        /* \"#utility.yul\":12988:12989   */\n      dup3\n        /* \"#utility.yul\":12970:12990   */\n      tag_549\n      jump\t// in\n    tag_599:\n        /* \"#utility.yul\":12965:12990   */\n      swap2\n      pop\n        /* \"#utility.yul\":13004:13024   */\n      tag_600\n        /* \"#utility.yul\":13022:13023   */\n      dup4\n        /* \"#utility.yul\":13004:13024   */\n      tag_549\n      jump\t// in\n    tag_600:\n        /* \"#utility.yul\":12999:13024   */\n      swap3\n      pop\n        /* \"#utility.yul\":13043:13044   */\n      dup3\n        /* \"#utility.yul\":13033:13068   */\n      tag_601\n      jumpi\n        /* \"#utility.yul\":13048:13066   */\n      tag_602\n      tag_603\n      jump\t// in\n    tag_602:\n        /* \"#utility.yul\":13033:13068   */\n    tag_601:\n        /* \"#utility.yul\":13090:13091   */\n      dup3\n        /* \"#utility.yul\":13087:13088   */\n      dup3\n        /* \"#utility.yul\":13083:13092   */\n      div\n        /* \"#utility.yul\":13078:13092   */\n      swap1\n      pop\n        /* \"#utility.yul\":12913:13098   */\n      swap3\n      swap2\n      pop\n      pop\n      jump\t// out\n        /* \"#utility.yul\":13104:13452   */\n    tag_351:\n        /* \"#utility.yul\":13144:13151   */\n      0x00\n        /* \"#utility.yul\":13167:13187   */\n      tag_605\n        /* \"#utility.yul\":13185:13186   */\n      dup3\n        /* \"#utility.yul\":13167:13187   */\n      tag_549\n      jump\t// in\n    tag_605:\n        /* \"#utility.yul\":13162:13187   */\n      swap2\n      pop\n        /* \"#utility.yul\":13201:13221   */\n      tag_606\n        /* \"#utility.yul\":13219:13220   */\n      dup4\n        /* \"#utility.yul\":13201:13221   */\n      tag_549\n      jump\t// in\n    tag_606:\n        /* \"#utility.yul\":13196:13221   */\n      swap3\n      pop\n        /* \"#utility.yul\":13389:13390   */\n      dup2\n        /* \"#utility.yul\":13321:13387   */\n      0xffffffffffffffffffffffffffffffffffffffffffffffffffffffffffffffff\n        /* \"#utility.yul\":13317:13391   */\n      div\n        /* \"#utility.yul\":13314:13315   */\n      dup4\n        /* \"#utility.yul\":13311:13392   */\n      gt\n        /* \"#utility.yul\":13306:13307   */\n      dup3\n        /* \"#utility.yul\":13299:13308   */\n      iszero\n        /* \"#utility.yul\":13292:13309   */\n      iszero\n        /* \"#utility.yul\":13288:13393   */\n      and\n        /* \"#utility.yul\":13285:13416   */\n      iszero\n      tag_607\n      jumpi\n        /* \"#utility.yul\":13396:13414   */\n      tag_608\n      tag_597\n      jump\t// in\n    tag_608:\n        /* \"#utility.yul\":13285:13416   */\n    tag_607:\n        /* \"#utility.yul\":13444:13445   */\n      dup3\n        /* \"#utility.yul\":13441:13442   */\n      dup3\n        /* \"#utility.yul\":13437:13446   */\n      mul\n        /* \"#utility.yul\":13426:13446   */\n      swap1\n      pop\n        /* \"#utility.yul\":13104:13452   */\n      swap3\n      swap2\n      pop\n      pop\n      jump\t// out\n        /* \"#utility.yul\":13458:13649   */\n    tag_296:\n        /* \"#utility.yul\":13498:13502   */\n      0x00\n        /* \"#utility.yul\":13518:13538   */\n      tag_610\n        /* \"#utility.yul\":13536:13537   */\n      dup3\n        /* \"#utility.yul\":13518:13538   */\n      tag_549\n      jump\t// in\n    tag_610:\n        /* \"#utility.yul\":13513:13538   */\n      swap2\n      pop\n        /* \"#utility.yul\":13552:13572   */\n      tag_611\n        /* \"#utility.yul\":13570:13571   */\n      dup4\n        /* \"#utility.yul\":13552:13572   */\n      tag_549\n      jump\t// in\n    tag_611:\n        /* \"#utility.yul\":13547:13572   */\n      swap3\n      pop\n        /* \"#utility.yul\":13591:13592   */\n      dup3\n        /* \"#utility.yul\":13588:13589   */\n      dup3\n        /* \"#utility.yul\":13585:13593   */\n      lt\n        /* \"#utility.yul\":13582:13616   */\n      iszero\n      tag_612\n      jumpi\n        /* \"#utility.yul\":13596:13614   */\n      tag_613\n      tag_597\n      jump\t// in\n    tag_613:\n        /* \"#utility.yul\":13582:13616   */\n    tag_612:\n        /* \"#utility.yul\":13641:13642   */\n      dup3\n        /* \"#utility.yul\":13638:13639   */\n      dup3\n        /* \"#utility.yul\":13634:13643   */\n      sub\n        /* \"#utility.yul\":13626:13643   */\n      swap1\n      pop\n        /* \"#utility.yul\":13458:13649   */\n      swap3\n      swap2\n      pop\n      pop\n      jump\t// out\n        /* \"#utility.yul\":13655:13751   */\n    tag_506:\n        /* \"#utility.yul\":13692:13699   */\n      0x00\n        /* \"#utility.yul\":13721:13745   */\n      tag_615\n        /* \"#utility.yul\":13739:13744   */\n      dup3\n        /* \"#utility.yul\":13721:13745   */\n      tag_616\n      jump\t// in\n    tag_615:\n        /* \"#utility.yul\":13710:13745   */\n      swap1\n      pop\n        /* \"#utility.yul\":13655:13751   */\n      swap2\n      swap1\n      pop\n      jump\t// out\n        /* \"#utility.yul\":13757:13861   */\n    tag_502:\n        /* \"#utility.yul\":13802:13809   */\n      0x00\n        /* \"#utility.yul\":13831:13855   */\n      tag_618\n        /* \"#utility.yul\":13849:13854   */\n      dup3\n        /* \"#utility.yul\":13831:13855   */\n      tag_616\n      jump\t// in\n    tag_618:\n        /* \"#utility.yul\":13820:13855   */\n      swap1\n      pop\n        /* \"#utility.yul\":13757:13861   */\n      swap2\n      swap1\n      pop\n      jump\t// out\n        /* \"#utility.yul\":13867:13957   */\n    tag_510:\n        /* \"#utility.yul\":13901:13908   */\n      0x00\n        /* \"#utility.yul\":13944:13949   */\n      dup2\n        /* \"#utility.yul\":13937:13950   */\n      iszero\n        /* \"#utility.yul\":13930:13951   */\n      iszero\n        /* \"#utility.yul\":13919:13951   */\n      swap1\n      pop\n        /* \"#utility.yul\":13867:13957   */\n      swap2\n      swap1\n      pop\n      jump\t// out\n        /* \"#utility.yul\":13963:14089   */\n    tag_616:\n        /* \"#utility.yul\":14000:14007   */\n      0x00\n        /* \"#utility.yul\":14040:14082   */\n      0xffffffffffffffffffffffffffffffffffffffff\n        /* \"#utility.yul\":14033:14038   */\n      dup3\n        /* \"#utility.yul\":14029:14083   */\n      and\n        /* \"#utility.yul\":14018:14083   */\n      swap1\n      pop\n        /* \"#utility.yul\":13963:14089   */\n      swap2\n      swap1\n      pop\n      jump\t// out\n        /* \"#utility.yul\":14095:14172   */\n    tag_549:\n        /* \"#utility.yul\":14132:14139   */\n      0x00\n        /* \"#utility.yul\":14161:14166   */\n      dup2\n        /* \"#utility.yul\":14150:14166   */\n      swap1\n      pop\n        /* \"#utility.yul\":14095:14172   */\n      swap2\n      swap1\n      pop\n      jump\t// out\n        /* \"#utility.yul\":14178:14332   */\n    tag_445:\n        /* \"#utility.yul\":14262:14268   */\n      dup3\n        /* \"#utility.yul\":14257:14260   */\n      dup2\n        /* \"#utility.yul\":14252:14255   */\n      dup4\n        /* \"#utility.yul\":14239:14269   */\n      calldatacopy\n        /* \"#utility.yul\":14324:14325   */\n      0x00\n        /* \"#utility.yul\":14315:14321   */\n      dup4\n        /* \"#utility.yul\":14310:14313   */\n      dup4\n        /* \"#utility.yul\":14306:14322   */\n      add\n        /* \"#utility.yul\":14299:14326   */\n      mstore\n        /* \"#utility.yul\":14178:14332   */\n      pop\n      pop\n      pop\n      jump\t// out\n        /* \"#utility.yul\":14338:14645   */\n    tag_518:\n        /* \"#utility.yul\":14406:14407   */\n      0x00\n        /* \"#utility.yul\":14416:14529   */\n    tag_624:\n        /* \"#utility.yul\":14430:14436   */\n      dup4\n        /* \"#utility.yul\":14427:14428   */\n      dup2\n        /* \"#utility.yul\":14424:14437   */\n      lt\n        /* \"#utility.yul\":14416:14529   */\n      iszero\n      tag_626\n      jumpi\n        /* \"#utility.yul\":14515:14516   */\n      dup1\n        /* \"#utility.yul\":14510:14513   */\n      dup3\n        /* \"#utility.yul\":14506:14517   */\n      add\n        /* \"#utility.yul\":14500:14518   */\n      mload\n        /* \"#utility.yul\":14496:14497   */\n      dup2\n        /* \"#utility.yul\":14491:14494   */\n      dup5\n        /* \"#utility.yul\":14487:14498   */\n      add\n        /* \"#utility.yul\":14480:14519   */\n      mstore\n        /* \"#utility.yul\":14452:14454   */\n      0x20\n        /* \"#utility.yul\":14449:14450   */\n      dup2\n        /* \"#utility.yul\":14445:14455   */\n      add\n        /* \"#utility.yul\":14440:14455   */\n      swap1\n      pop\n        /* \"#utility.yul\":14416:14529   */\n      jump(tag_624)\n    tag_626:\n        /* \"#utility.yul\":14547:14553   */\n      dup4\n        /* \"#utility.yul\":14544:14545   */\n      dup2\n        /* \"#utility.yul\":14541:14554   */\n      gt\n        /* \"#utility.yul\":14538:14639   */\n      iszero\n      tag_627\n      jumpi\n        /* \"#utility.yul\":14627:14628   */\n      0x00\n        /* \"#utility.yul\":14618:14624   */\n      dup5\n        /* \"#utility.yul\":14613:14616   */\n      dup5\n        /* \"#utility.yul\":14609:14625   */\n      add\n        /* \"#utility.yul\":14602:14629   */\n      mstore\n        /* \"#utility.yul\":14538:14639   */\n    tag_627:\n        /* \"#utility.yul\":14387:14645   */\n      pop\n        /* \"#utility.yul\":14338:14645   */\n      pop\n      pop\n      pop\n      jump\t// out\n        /* \"#utility.yul\":14651:14822   */\n    tag_236:\n        /* \"#utility.yul\":14690:14693   */\n      0x00\n        /* \"#utility.yul\":14713:14737   */\n      tag_629\n        /* \"#utility.yul\":14731:14736   */\n      dup3\n        /* \"#utility.yul\":14713:14737   */\n      tag_549\n      jump\t// in\n    tag_629:\n        /* \"#utility.yul\":14704:14737   */\n      swap2\n      pop\n        /* \"#utility.yul\":14759:14763   */\n      0x00\n        /* \"#utility.yul\":14752:14757   */\n      dup3\n        /* \"#utility.yul\":14749:14764   */\n      eq\n        /* \"#utility.yul\":14746:14787   */\n      iszero\n      tag_630\n      jumpi\n        /* \"#utility.yul\":14767:14785   */\n      tag_631\n      tag_597\n      jump\t// in\n    tag_631:\n        /* \"#utility.yul\":14746:14787   */\n    tag_630:\n        /* \"#utility.yul\":14814:14815   */\n      0x01\n        /* \"#utility.yul\":14807:14812   */\n      dup3\n        /* \"#utility.yul\":14803:14816   */\n      sub\n        /* \"#utility.yul\":14796:14816   */\n      swap1\n      pop\n        /* \"#utility.yul\":14651:14822   */\n      swap2\n      swap1\n      pop\n      jump\t// out\n        /* \"#utility.yul\":14828:15148   */\n    tag_164:\n        /* \"#utility.yul\":14872:14878   */\n      0x00\n        /* \"#utility.yul\":14909:14910   */\n      0x02\n        /* \"#utility.yul\":14903:14907   */\n      dup3\n        /* \"#utility.yul\":14899:14911   */\n      div\n        /* \"#utility.yul\":14889:14911   */\n      swap1\n      pop\n        /* \"#utility.yul\":14956:14957   */\n      0x01\n        /* \"#utility.yul\":14950:14954   */\n      dup3\n        /* \"#utility.yul\":14946:14958   */\n      and\n        /* \"#utility.yul\":14977:14995   */\n      dup1\n        /* \"#utility.yul\":14967:15048   */\n      tag_633\n      jumpi\n        /* \"#utility.yul\":15033:15037   */\n      0x7f\n        /* \"#utility.yul\":15025:15031   */\n      dup3\n        /* \"#utility.yul\":15021:15038   */\n      and\n        /* \"#utility.yul\":15011:15038   */\n      swap2\n      pop\n        /* \"#utility.yul\":14967:15048   */\n    tag_633:\n        /* \"#utility.yul\":15095:15097   */\n      0x20\n        /* \"#utility.yul\":15087:15093   */\n      dup3\n        /* \"#utility.yul\":15084:15098   */\n      lt\n        /* \"#utility.yul\":15064:15082   */\n      dup2\n        /* \"#utility.yul\":15061:15099   */\n      eq\n        /* \"#utility.yul\":15058:15142   */\n      iszero\n      tag_634\n      jumpi\n        /* \"#utility.yul\":15114:15132   */\n      tag_635\n      tag_636\n      jump\t// in\n    tag_635:\n        /* \"#utility.yul\":15058:15142   */\n    tag_634:\n        /* \"#utility.yul\":14879:15148   */\n      pop\n        /* \"#utility.yul\":14828:15148   */\n      swap2\n      swap1\n      pop\n      jump\t// out\n        /* \"#utility.yul\":15154:15435   */\n    tag_584:\n        /* \"#utility.yul\":15237:15264   */\n      tag_638\n        /* \"#utility.yul\":15259:15263   */\n      dup3\n        /* \"#utility.yul\":15237:15264   */\n      tag_520\n      jump\t// in\n    tag_638:\n        /* \"#utility.yul\":15229:15235   */\n      dup2\n        /* \"#utility.yul\":15225:15265   */\n      add\n        /* \"#utility.yul\":15367:15373   */\n      dup2\n        /* \"#utility.yul\":15355:15365   */\n      dup2\n        /* \"#utility.yul\":15352:15374   */\n      lt\n        /* \"#utility.yul\":15331:15349   */\n      0xffffffffffffffff\n        /* \"#utility.yul\":15319:15329   */\n      dup3\n        /* \"#utility.yul\":15316:15350   */\n      gt\n        /* \"#utility.yul\":15313:15375   */\n      or\n        /* \"#utility.yul\":15310:15398   */\n      iszero\n      tag_639\n      jumpi\n        /* \"#utility.yul\":15378:15396   */\n      tag_640\n      tag_397\n      jump\t// in\n    tag_640:\n        /* \"#utility.yul\":15310:15398   */\n    tag_639:\n        /* \"#utility.yul\":15418:15428   */\n      dup1\n        /* \"#utility.yul\":15414:15416   */\n      0x40\n        /* \"#utility.yul\":15407:15429   */\n      mstore\n        /* \"#utility.yul\":15197:15435   */\n      pop\n        /* \"#utility.yul\":15154:15435   */\n      pop\n      pop\n      jump\t// out\n        /* \"#utility.yul\":15441:15674   */\n    tag_186:\n        /* \"#utility.yul\":15480:15483   */\n      0x00\n        /* \"#utility.yul\":15503:15527   */\n      tag_642\n        /* \"#utility.yul\":15521:15526   */\n      dup3\n        /* \"#utility.yul\":15503:15527   */\n      tag_549\n      jump\t// in\n    tag_642:\n        /* \"#utility.yul\":15494:15527   */\n      swap2\n      pop\n        /* \"#utility.yul\":15549:15615   */\n      0xffffffffffffffffffffffffffffffffffffffffffffffffffffffffffffffff\n        /* \"#utility.yul\":15542:15547   */\n      dup3\n        /* \"#utility.yul\":15539:15616   */\n      eq\n        /* \"#utility.yul\":15536:15639   */\n      iszero\n      tag_643\n      jumpi\n        /* \"#utility.yul\":15619:15637   */\n      tag_644\n      tag_597\n      jump\t// in\n    tag_644:\n        /* \"#utility.yul\":15536:15639   */\n    tag_643:\n        /* \"#utility.yul\":15666:15667   */\n      0x01\n        /* \"#utility.yul\":15659:15664   */\n      dup3\n        /* \"#utility.yul\":15655:15668   */\n      add\n        /* \"#utility.yul\":15648:15668   */\n      swap1\n      pop\n        /* \"#utility.yul\":15441:15674   */\n      swap2\n      swap1\n      pop\n      jump\t// out\n        /* \"#utility.yul\":15680:15856   */\n    tag_403:\n        /* \"#utility.yul\":15712:15713   */\n      0x00\n        /* \"#utility.yul\":15729:15749   */\n      tag_646\n        /* \"#utility.yul\":15747:15748   */\n      dup3\n        /* \"#utility.yul\":15729:15749   */\n      tag_549\n      jump\t// in\n    tag_646:\n        /* \"#utility.yul\":15724:15749   */\n      swap2\n      pop\n        /* \"#utility.yul\":15763:15783   */\n      tag_647\n        /* \"#utility.yul\":15781:15782   */\n      dup4\n        /* \"#utility.yul\":15763:15783   */\n      tag_549\n      jump\t// in\n    tag_647:\n        /* \"#utility.yul\":15758:15783   */\n      swap3\n      pop\n        /* \"#utility.yul\":15802:15803   */\n      dup3\n        /* \"#utility.yul\":15792:15827   */\n      tag_648\n      jumpi\n        /* \"#utility.yul\":15807:15825   */\n      tag_649\n      tag_603\n      jump\t// in\n    tag_649:\n        /* \"#utility.yul\":15792:15827   */\n    tag_648:\n        /* \"#utility.yul\":15848:15849   */\n      dup3\n        /* \"#utility.yul\":15845:15846   */\n      dup3\n        /* \"#utility.yul\":15841:15850   */\n      mod\n        /* \"#utility.yul\":15836:15850   */\n      swap1\n      pop\n        /* \"#utility.yul\":15680:15856   */\n      swap3\n      swap2\n      pop\n      pop\n      jump\t// out\n        /* \"#utility.yul\":15862:16042   */\n    tag_597:\n        /* \"#utility.yul\":15910:15987   */\n      0x4e487b7100000000000000000000000000000000000000000000000000000000\n        /* \"#utility.yul\":15907:15908   */\n      0x00\n        /* \"#utility.yul\":15900:15988   */\n      mstore\n        /* \"#utility.yul\":16007:16011   */\n      0x11\n        /* \"#utility.yul\":16004:16005   */\n      0x04\n        /* \"#utility.yul\":15997:16012   */\n      mstore\n        /* \"#utility.yul\":16031:16035   */\n      0x24\n        /* \"#utility.yul\":16028:16029   */\n      0x00\n        /* \"#utility.yul\":16021:16036   */\n      revert\n        /* \"#utility.yul\":16048:16228   */\n    tag_603:\n        /* \"#utility.yul\":16096:16173   */\n      0x4e487b7100000000000000000000000000000000000000000000000000000000\n        /* \"#utility.yul\":16093:16094   */\n      0x00\n        /* \"#utility.yul\":16086:16174   */\n      mstore\n        /* \"#utility.yul\":16193:16197   */\n      0x12\n        /* \"#utility.yul\":16190:16191   */\n      0x04\n        /* \"#utility.yul\":16183:16198   */\n      mstore\n        /* \"#utility.yul\":16217:16221   */\n      0x24\n        /* \"#utility.yul\":16214:16215   */\n      0x00\n        /* \"#utility.yul\":16207:16222   */\n      revert\n        /* \"#utility.yul\":16234:16414   */\n    tag_162:\n        /* \"#utility.yul\":16282:16359   */\n      0x4e487b7100000000000000000000000000000000000000000000000000000000\n        /* \"#utility.yul\":16279:16280   */\n      0x00\n        /* \"#utility.yul\":16272:16360   */\n      mstore\n        /* \"#utility.yul\":16379:16383   */\n      0x21\n        /* \"#utility.yul\":16376:16377   */\n      0x04\n        /* \"#utility.yul\":16369:16384   */\n      mstore\n        /* \"#utility.yul\":16403:16407   */\n      0x24\n        /* \"#utility.yul\":16400:16401   */\n      0x00\n        /* \"#utility.yul\":16393:16408   */\n      revert\n        /* \"#utility.yul\":16420:16600   */\n    tag_636:\n        /* \"#utility.yul\":16468:16545   */\n      0x4e487b7100000000000000000000000000000000000000000000000000000000\n        /* \"#utility.yul\":16465:16466   */\n      0x00\n        /* \"#utility.yul\":16458:16546   */\n      mstore\n        /* \"#utility.yul\":16565:16569   */\n      0x22\n        /* \"#utility.yul\":16562:16563   */\n      0x04\n        /* \"#utility.yul\":16555:16570   */\n      mstore\n        /* \"#utility.yul\":16589:16593   */\n      0x24\n        /* \"#utility.yul\":16586:16587   */\n      0x00\n        /* \"#utility.yul\":16579:16594   */\n      revert\n        /* \"#utility.yul\":16606:16786   */\n    tag_181:\n        /* \"#utility.yul\":16654:16731   */\n      0x4e487b7100000000000000000000000000000000000000000000000000000000\n        /* \"#utility.yul\":16651:16652   */\n      0x00\n        /* \"#utility.yul\":16644:16732   */\n      mstore\n        /* \"#utility.yul\":16751:16755   */\n      0x32\n        /* \"#utility.yul\":16748:16749   */\n      0x04\n        /* \"#utility.yul\":16741:16756   */\n      mstore\n        /* \"#utility.yul\":16775:16779   */\n      0x24\n        /* \"#utility.yul\":16772:16773   */\n      0x00\n        /* \"#utility.yul\":16765:16780   */\n      revert\n        /* \"#utility.yul\":16792:16972   */\n    tag_397:\n        /* \"#utility.yul\":16840:16917   */\n      0x4e487b7100000000000000000000000000000000000000000000000000000000\n        /* \"#utility.yul\":16837:16838   */\n      0x00\n        /* \"#utility.yul\":16830:16918   */\n      mstore\n        /* \"#utility.yul\":16937:16941   */\n      0x41\n        /* \"#utility.yul\":16934:16935   */\n      0x04\n        /* \"#utility.yul\":16927:16942   */\n      mstore\n        /* \"#utility.yul\":16961:16965   */\n      0x24\n        /* \"#utility.yul\":16958:16959   */\n      0x00\n        /* \"#utility.yul\":16951:16966   */\n      revert\n        /* \"#utility.yul\":16978:17095   */\n    tag_458:\n        /* \"#utility.yul\":17087:17088   */\n      0x00\n        /* \"#utility.yul\":17084:17085   */\n      dup1\n        /* \"#utility.yul\":17077:17089   */\n      revert\n        /* \"#utility.yul\":17101:17218   */\n    tag_443:\n        /* \"#utility.yul\":17210:17211   */\n      0x00\n        /* \"#utility.yul\":17207:17208   */\n      dup1\n        /* \"#utility.yul\":17200:17212   */\n      revert\n        /* \"#utility.yul\":17224:17341   */\n    tag_483:\n        /* \"#utility.yul\":17333:17334   */\n      0x00\n        /* \"#utility.yul\":17330:17331   */\n      dup1\n        /* \"#utility.yul\":17323:17335   */\n      revert\n        /* \"#utility.yul\":17347:17464   */\n    tag_467:\n        /* \"#utility.yul\":17456:17457   */\n      0x00\n        /* \"#utility.yul\":17453:17454   */\n      dup1\n        /* \"#utility.yul\":17446:17458   */\n      revert\n        /* \"#utility.yul\":17470:17572   */\n    tag_520:\n        /* \"#utility.yul\":17511:17517   */\n      0x00\n        /* \"#utility.yul\":17562:17564   */\n      0x1f\n        /* \"#utility.yul\":17558:17565   */\n      not\n        /* \"#utility.yul\":17553:17555   */\n      0x1f\n        /* \"#utility.yul\":17546:17551   */\n      dup4\n        /* \"#utility.yul\":17542:17556   */\n      add\n        /* \"#utility.yul\":17538:17566   */\n      and\n        /* \"#utility.yul\":17528:17566   */\n      swap1\n      pop\n        /* \"#utility.yul\":17470:17572   */\n      swap2\n      swap1\n      pop\n      jump\t// out\n        /* \"#utility.yul\":17578:17800   */\n    tag_525:\n        /* \"#utility.yul\":17718:17752   */\n      0x4e756d626572206f662073686172657320657863656564656420746865206c69\n        /* \"#utility.yul\":17714:17715   */\n      0x00\n        /* \"#utility.yul\":17706:17712   */\n      dup3\n        /* \"#utility.yul\":17702:17716   */\n      add\n        /* \"#utility.yul\":17695:17753   */\n      mstore\n        /* \"#utility.yul\":17787:17792   */\n      0x6d69740000000000000000000000000000000000000000000000000000000000\n        /* \"#utility.yul\":17782:17784   */\n      0x20\n        /* \"#utility.yul\":17774:17780   */\n      dup3\n        /* \"#utility.yul\":17770:17785   */\n      add\n        /* \"#utility.yul\":17763:17793   */\n      mstore\n        /* \"#utility.yul\":17578:17800   */\n      pop\n      jump\t// out\n        /* \"#utility.yul\":17806:17978   */\n    tag_530:\n        /* \"#utility.yul\":17946:17970   */\n      0x566f74696e6720686173206e6f74207374617274656400000000000000000000\n        /* \"#utility.yul\":17942:17943   */\n      0x00\n        /* \"#utility.yul\":17934:17940   */\n      dup3\n        /* \"#utility.yul\":17930:17944   */\n      add\n        /* \"#utility.yul\":17923:17971   */\n      mstore\n        /* \"#utility.yul\":17806:17978   */\n      pop\n      jump\t// out\n        /* \"#utility.yul\":17984:18165   */\n    tag_535:\n        /* \"#utility.yul\":18124:18157   */\n      0x496e636f72726563742077656920616d6f756e74207375626d69747465642100\n        /* \"#utility.yul\":18120:18121   */\n      0x00\n        /* \"#utility.yul\":18112:18118   */\n      dup3\n        /* \"#utility.yul\":18108:18122   */\n      add\n        /* \"#utility.yul\":18101:18158   */\n      mstore\n        /* \"#utility.yul\":17984:18165   */\n      pop\n      jump\t// out\n        /* \"#utility.yul\":18171:18394   */\n    tag_540:\n        /* \"#utility.yul\":18311:18345   */\n      0x596f752068617665206e6f2072696768747320746f206372656174652062616c\n        /* \"#utility.yul\":18307:18308   */\n      0x00\n        /* \"#utility.yul\":18299:18305   */\n      dup3\n        /* \"#utility.yul\":18295:18309   */\n      add\n        /* \"#utility.yul\":18288:18346   */\n      mstore\n        /* \"#utility.yul\":18380:18386   */\n      0x6c6f742100000000000000000000000000000000000000000000000000000000\n        /* \"#utility.yul\":18375:18377   */\n      0x20\n        /* \"#utility.yul\":18367:18373   */\n      dup3\n        /* \"#utility.yul\":18363:18378   */\n      add\n        /* \"#utility.yul\":18356:18387   */\n      mstore\n        /* \"#utility.yul\":18171:18394   */\n      pop\n      jump\t// out\n        /* \"#utility.yul\":18400:18620   */\n    tag_545:\n        /* \"#utility.yul\":18540:18574   */\n      0x43616e6e6f742073656c6c2073686172657320796f7520646f206e6f74206f77\n        /* \"#utility.yul\":18536:18537   */\n      0x00\n        /* \"#utility.yul\":18528:18534   */\n      dup3\n        /* \"#utility.yul\":18524:18538   */\n      add\n        /* \"#utility.yul\":18517:18575   */\n      mstore\n        /* \"#utility.yul\":18609:18612   */\n      0x6e00000000000000000000000000000000000000000000000000000000000000\n        /* \"#utility.yul\":18604:18606   */\n      0x20\n        /* \"#utility.yul\":18596:18602   */\n      dup3\n        /* \"#utility.yul\":18592:18607   */\n      add\n        /* \"#utility.yul\":18585:18613   */\n      mstore\n        /* \"#utility.yul\":18400:18620   */\n      pop\n      jump\t// out\n        /* \"#utility.yul\":18626:18748   */\n    tag_449:\n        /* \"#utility.yul\":18699:18723   */\n      tag_667\n        /* \"#utility.yul\":18717:18722   */\n      dup2\n        /* \"#utility.yul\":18699:18723   */\n      tag_506\n      jump\t// in\n    tag_667:\n        /* \"#utility.yul\":18692:18697   */\n      dup2\n        /* \"#utility.yul\":18689:18724   */\n      eq\n        /* \"#utility.yul\":18679:18742   */\n      tag_668\n      jumpi\n        /* \"#utility.yul\":18738:18739   */\n      0x00\n        /* \"#utility.yul\":18735:18736   */\n      dup1\n        /* \"#utility.yul\":18728:18740   */\n      revert\n        /* \"#utility.yul\":18679:18742   */\n    tag_668:\n        /* \"#utility.yul\":18626:18748   */\n      pop\n      jump\t// out\n        /* \"#utility.yul\":18754:18870   */\n    tag_453:\n        /* \"#utility.yul\":18824:18845   */\n      tag_670\n        /* \"#utility.yul\":18839:18844   */\n      dup2\n        /* \"#utility.yul\":18824:18845   */\n      tag_510\n      jump\t// in\n    tag_670:\n        /* \"#utility.yul\":18817:18822   */\n      dup2\n        /* \"#utility.yul\":18814:18846   */\n      eq\n        /* \"#utility.yul\":18804:18864   */\n      tag_671\n      jumpi\n        /* \"#utility.yul\":18860:18861   */\n      0x00\n        /* \"#utility.yul\":18857:18858   */\n      dup1\n        /* \"#utility.yul\":18850:18862   */\n      revert\n        /* \"#utility.yul\":18804:18864   */\n    tag_671:\n        /* \"#utility.yul\":18754:18870   */\n      pop\n      jump\t// out\n        /* \"#utility.yul\":18876:18998   */\n    tag_463:\n        /* \"#utility.yul\":18949:18973   */\n      tag_673\n        /* \"#utility.yul\":18967:18972   */\n      dup2\n        /* \"#utility.yul\":18949:18973   */\n      tag_549\n      jump\t// in\n    tag_673:\n        /* \"#utility.yul\":18942:18947   */\n      dup2\n        /* \"#utility.yul\":18939:18974   */\n      eq\n        /* \"#utility.yul\":18929:18992   */\n      tag_674\n      jumpi\n        /* \"#utility.yul\":18988:18989   */\n      0x00\n        /* \"#utility.yul\":18985:18986   */\n      dup1\n        /* \"#utility.yul\":18978:18990   */\n      revert\n        /* \"#utility.yul\":18929:18992   */\n    tag_674:\n        /* \"#utility.yul\":18876:18998   */\n      pop\n      jump\t// out\n\n    auxdata: 0xa26469706673582212205a0e77a6036cf1946d8523210abf92b978c3c3674f65b0fc1fbff46b0bc667e164736f6c63430008070033\n}\n",
				"bytecode": {
					"linkReferences": {},
					"object": "6080604052600060055560646006556001600755600a60085560006009556000600f556040516200366238038062003662833981810160405281019062000047919062000273565b336000806101000a81548173ffffffffffffffffffffffffffffffffffffffff021916908373ffffffffffffffffffffffffffffffffffffffff160217905550600654600d60003373ffffffffffffffffffffffffffffffffffffffff1673ffffffffffffffffffffffffffffffffffffffff168152602001908152602001600020819055508160016000019080519060200190620000e892919062000145565b50806001800190805190602001906200010392919062000145565b5060006001600201819055506000600a60006101000a81548160ff02191690836001811115620001385762000137620003f9565b5b02179055505050620004ab565b82805462000153906200038d565b90600052602060002090601f016020900481019282620001775760008555620001c3565b82601f106200019257805160ff1916838001178555620001c3565b82800160010185558215620001c3579182015b82811115620001c2578251825591602001919060010190620001a5565b5b509050620001d29190620001d6565b5090565b5b80821115620001f1576000816000905550600101620001d7565b5090565b60006200020c620002068462000321565b620002f8565b9050828152602081018484840111156200022b576200022a6200048b565b5b6200023884828562000357565b509392505050565b600082601f83011262000258576200025762000486565b5b81516200026a848260208601620001f5565b91505092915050565b600080604083850312156200028d576200028c62000495565b5b600083015167ffffffffffffffff811115620002ae57620002ad62000490565b5b620002bc8582860162000240565b925050602083015167ffffffffffffffff811115620002e057620002df62000490565b5b620002ee8582860162000240565b9150509250929050565b60006200030462000317565b9050620003128282620003c3565b919050565b6000604051905090565b600067ffffffffffffffff8211156200033f576200033e62000457565b5b6200034a826200049a565b9050602081019050919050565b60005b83811015620003775780820151818401526020810190506200035a565b8381111562000387576000848401525b50505050565b60006002820490506001821680620003a657607f821691505b60208210811415620003bd57620003bc62000428565b5b50919050565b620003ce826200049a565b810181811067ffffffffffffffff82111715620003f057620003ef62000457565b5b80604052505050565b7f4e487b7100000000000000000000000000000000000000000000000000000000600052602160045260246000fd5b7f4e487b7100000000000000000000000000000000000000000000000000000000600052602260045260246000fd5b7f4e487b7100000000000000000000000000000000000000000000000000000000600052604160045260246000fd5b600080fd5b600080fd5b600080fd5b600080fd5b6000601f19601f8301169050919050565b6131a780620004bb6000396000f3fe60806040526004361061019c5760003560e01c806387caea78116100ec578063af769c641161008a578063d8124c5f11610064578063d8124c5f146105af578063d96a094a146105dc578063df094409146105f8578063f80723a8146106215761019c565b8063af769c6414610532578063b92239461461055b578063cd0c5896146105725761019c565b80638eb54c6f116100c65780638eb54c6f146104835780639a9824161461049f578063a14ba987146104ca578063a9059cbb146105095761019c565b806387caea78146103f05780638cb647d31461042d5780638da5cb5b146104585761019c565b806346a86576116101595780635ab59720116101335780635ab5972014610334578063612fb2ec1461035d5780637427a40c146103885780637ff9b596146103c55761019c565b806346a86576146102b75780634c0a6af0146102e057806359ea0173146102f75761019c565b8063162d8afb146101a157806327e235e3146101cc578063293230b8146102095780632cd39acc146102205780633a98ef39146102615780633be75aa31461028c575b600080fd5b3480156101ad57600080fd5b506101b6610650565b6040516101c39190612b69565b60405180910390f35b3480156101d857600080fd5b506101f360048036038101906101ee91906126f1565b610656565b6040516102009190612b69565b60405180910390f35b34801561021557600080fd5b5061021e61066e565b005b34801561022c57600080fd5b506102476004803603810190610242919061285f565b6106f3565b604051610258959493929190612a23565b60405180910390f35b34801561026d57600080fd5b50610276610859565b6040516102839190612b69565b60405180910390f35b34801561029857600080fd5b506102a161085f565b6040516102ae9190612b69565b60405180910390f35b3480156102c357600080fd5b506102de60048036038101906102d9919061278b565b610865565b005b3480156102ec57600080fd5b506102f5610cad565b005b34801561030357600080fd5b5061031e600480360381019061031991906126f1565b610ddb565b60405161032b91906129e6565b60405180910390f35b34801561034057600080fd5b5061035b600480360381019061035691906126f1565b610dfb565b005b34801561036957600080fd5b50610372610eeb565b60405161037f9190612b69565b60405180910390f35b34801561039457600080fd5b506103af60048036038101906103aa919061285f565b610ef1565b6040516103bc91906129b0565b60405180910390f35b3480156103d157600080fd5b506103da610f30565b6040516103e79190612b69565b60405180910390f35b3480156103fc57600080fd5b506104176004803603810190610412919061275e565b610f36565b60405161042491906129e6565b60405180910390f35b34801561043957600080fd5b5061044261133b565b60405161044f91906129e6565b60405180910390f35b34801561046457600080fd5b5061046d611588565b60405161047a91906129cb565b60405180910390f35b61049d6004803603810190610498919061285f565b6115ac565b005b3480156104ab57600080fd5b506104b461179c565b6040516104c19190612b69565b60405180910390f35b3480156104d657600080fd5b506104f160048036038101906104ec919061285f565b6117a2565b60405161050093929190612a84565b60405180910390f35b34801561051557600080fd5b50610530600480360381019061052b919061271e565b6118ec565b005b34801561053e57600080fd5b50610559600480360381019061055491906126f1565b611a40565b005b34801561056757600080fd5b50610570611b5b565b005b34801561057e57600080fd5b50610599600480360381019061059491906126f1565b611ca5565b6040516105a69190612b69565b60405180910390f35b3480156105bb57600080fd5b506105c4611cc6565b6040516105d393929190612a84565b60405180910390f35b6105f660048036038101906105f1919061285f565b611dee565b005b34801561060457600080fd5b5061061f600480360381019061061a91906127d4565b611fde565b005b34801561062d57600080fd5b5061063661217c565b604051610647959493929190612a23565b60405180910390f35b60055481565b600d6020528060005260406000206000915090505481565b60008054906101000a900473ffffffffffffffffffffffffffffffffffffffff1673ffffffffffffffffffffffffffffffffffffffff163373ffffffffffffffffffffffffffffffffffffffff16146106c657600080fd5b6001600a60006101000a81548160ff021916908360018111156106ec576106eb612f0c565b5b0217905550565b600e60205280600052604060002060009150905080600001805461071690612dd1565b80601f016020809104026020016040519081016040528092919081815260200182805461074290612dd1565b801561078f5780601f106107645761010080835404028352916020019161078f565b820191906000526020600020905b81548152906001019060200180831161077257829003601f168201915b5050505050908060010160009054906101000a900473ffffffffffffffffffffffffffffffffffffffff16908060020180546107ca90612dd1565b80601f01602080910402602001604051908101604052809291908181526020018280546107f690612dd1565b80156108435780601f1061081857610100808354040283529160200191610843565b820191906000526020600020905b81548152906001019060200180831161082657829003601f168201915b5050505050908060030154908060040154905085565b60065481565b60085481565b338073ffffffffffffffffffffffffffffffffffffffff1660008054906101000a900473ffffffffffffffffffffffffffffffffffffffff1673ffffffffffffffffffffffffffffffffffffffff16146109f1576000805b6009548110156109a7578273ffffffffffffffffffffffffffffffffffffffff16600b82815481106108f2576108f1612f6a565b5b9060005260206000200160009054906101000a900473ffffffffffffffffffffffffffffffffffffffff1673ffffffffffffffffffffffffffffffffffffffff16148061098a57508273ffffffffffffffffffffffffffffffffffffffff1660008054906101000a900473ffffffffffffffffffffffffffffffffffffffff1673ffffffffffffffffffffffffffffffffffffffff16145b1561099457600191505b808061099f90612e34565b9150506108bd565b5060011515811515146109ef576040517f08c379a00000000000000000000000000000000000000000000000000000000081526004016109e690612b29565b60405180910390fd5b505b6040518060a00160405280610a07600f546122d0565b81526020013373ffffffffffffffffffffffffffffffffffffffff16815260200183815260200160008152602001600081525060106000820151816000019080519060200190610a589291906124e0565b5060208201518160010160006101000a81548173ffffffffffffffffffffffffffffffffffffffff021916908373ffffffffffffffffffffffffffffffffffffffff1602179055506040820151816002019080519060200190610abc9291906124e0565b5060608201518160030155608082015181600401559050506000601560006101000a81548160ff02191690836002811115610afa57610af9612f0c565b5b02179055506010600e6000600f5481526020019081526020016000206000820181600001908054610b2a90612dd1565b610b35929190612566565b506001820160009054906101000a900473ffffffffffffffffffffffffffffffffffffffff168160010160006101000a81548173ffffffffffffffffffffffffffffffffffffffff021916908373ffffffffffffffffffffffffffffffffffffffff1602179055506002820181600201908054610bb190612dd1565b610bbc929190612566565b506003820154816003015560048201548160040155905050600f6000815480929190610be790612e34565b919050555060005b600954811015610ca8576000600b8281548110610c0f57610c0e612f6a565b5b9060005260206000200160009054906101000a900473ffffffffffffffffffffffffffffffffffffffff1690506000600c60008373ffffffffffffffffffffffffffffffffffffffff1673ffffffffffffffffffffffffffffffffffffffff16815260200190815260200160002060006101000a81548160ff021916908315150217905550508080610ca090612e34565b915050610bef565b505050565b6000806002811115610cc257610cc1612f0c565b5b601560009054906101000a900460ff166002811115610ce457610ce3612f0c565b5b14610d24576040517f08c379a0000000000000000000000000000000000000000000000000000000008152600401610d1b90612ae9565b60405180910390fd5b601060010160009054906101000a900473ffffffffffffffffffffffffffffffffffffffff1673ffffffffffffffffffffffffffffffffffffffff163373ffffffffffffffffffffffffffffffffffffffff1614610d8157600080fd5b6001601560006101000a81548160ff02191690836002811115610da757610da6612f0c565b5b02179055507fd0dc01800a369fef30d3fced5275b8b916549867622e79efca5245c479fda4ea60405160405180910390a150565b600c6020528060005260406000206000915054906101000a900460ff1681565b60005b600954811015610ee7578173ffffffffffffffffffffffffffffffffffffffff16600b8281548110610e3357610e32612f6a565b5b9060005260206000200160009054906101000a900473ffffffffffffffffffffffffffffffffffffffff1673ffffffffffffffffffffffffffffffffffffffff161415610ed457600b8181548110610e8e57610e8d612f6a565b5b9060005260206000200160006101000a81549073ffffffffffffffffffffffffffffffffffffffff021916905560096000815480929190610ece90612da7565b91905055505b8080610edf90612e34565b915050610dfe565b5050565b600f5481565b600b8181548110610f0157600080fd5b906000526020600020016000915054906101000a900473ffffffffffffffffffffffffffffffffffffffff1681565b60075481565b60006001806002811115610f4d57610f4c612f0c565b5b601560009054906101000a900460ff166002811115610f6f57610f6e612f0c565b5b14610faf576040517f08c379a0000000000000000000000000000000000000000000000000000000008152600401610fa690612ae9565b60405180910390fd5b338073ffffffffffffffffffffffffffffffffffffffff1660008054906101000a900473ffffffffffffffffffffffffffffffffffffffff1673ffffffffffffffffffffffffffffffffffffffff161461113b576000805b6009548110156110f1578273ffffffffffffffffffffffffffffffffffffffff16600b828154811061103c5761103b612f6a565b5b9060005260206000200160009054906101000a900473ffffffffffffffffffffffffffffffffffffffff1673ffffffffffffffffffffffffffffffffffffffff1614806110d457508273ffffffffffffffffffffffffffffffffffffffff1660008054906101000a900473ffffffffffffffffffffffffffffffffffffffff1673ffffffffffffffffffffffffffffffffffffffff16145b156110de57600191505b80806110e990612e34565b915050611007565b506001151581151514611139576040517f08c379a000000000000000000000000000000000000000000000000000000000815260040161113090612b29565b60405180910390fd5b505b6000600c60003373ffffffffffffffffffffffffffffffffffffffff1673ffffffffffffffffffffffffffffffffffffffff16815260200190815260200160002060009054906101000a900460ff166112f9576001600c60003373ffffffffffffffffffffffffffffffffffffffff1673ffffffffffffffffffffffffffffffffffffffff16815260200190815260200160002060006101000a81548160ff0219169083151502179055506111ee6125f3565b33816000019073ffffffffffffffffffffffffffffffffffffffff16908173ffffffffffffffffffffffffffffffffffffffff1681525050858160200190151590811515815250508515611255576017600081548092919061124f90612e34565b91905055505b8060166000601060040154815260200190815260200160002060008201518160000160006101000a81548173ffffffffffffffffffffffffffffffffffffffff021916908373ffffffffffffffffffffffffffffffffffffffff16021790555060208201518160000160146101000a81548160ff021916908315150217905550905050601060040160008154809291906112ee90612e34565b919050555060019150505b7f55c65cf9526efdf6c2252fe9757889dbd93e10172cad0f2edb1df619c88dbf7d3360405161132891906129b0565b60405180910390a1809350505050919050565b6000338073ffffffffffffffffffffffffffffffffffffffff1660008054906101000a900473ffffffffffffffffffffffffffffffffffffffff1673ffffffffffffffffffffffffffffffffffffffff16146114c9576000805b60095481101561147f578273ffffffffffffffffffffffffffffffffffffffff16600b82815481106113ca576113c9612f6a565b5b9060005260206000200160009054906101000a900473ffffffffffffffffffffffffffffffffffffffff1673ffffffffffffffffffffffffffffffffffffffff16148061146257508273ffffffffffffffffffffffffffffffffffffffff1660008054906101000a900473ffffffffffffffffffffffffffffffffffffffff1673ffffffffffffffffffffffffffffffffffffffff16145b1561146c57600191505b808061147790612e34565b915050611395565b5060011515811515146114c7576040517f08c379a00000000000000000000000000000000000000000000000000000000081526004016114be90612b29565b60405180910390fd5b505b60005b601060040154811015611582573373ffffffffffffffffffffffffffffffffffffffff166016600083815260200190815260200160002060000160009054906101000a900473ffffffffffffffffffffffffffffffffffffffff1673ffffffffffffffffffffffffffffffffffffffff16141561156f576016600082815260200190815260200160002060000160149054906101000a900460ff16925050611584565b808061157a90612e34565b9150506114cc565b505b5090565b60008054906101000a900473ffffffffffffffffffffffffffffffffffffffff1681565b600d60003373ffffffffffffffffffffffffffffffffffffffff1673ffffffffffffffffffffffffffffffffffffffff1681526020019081526020016000205481111561162e576040517f08c379a000000000000000000000000000000000000000000000000000000000815260040161162590612b49565b60405180910390fd5b60003390508073ffffffffffffffffffffffffffffffffffffffff166108fc349081150290604051600060405180830381858888f19350505050158015611679573d6000803e3d6000fd5b50600d60003373ffffffffffffffffffffffffffffffffffffffff1673ffffffffffffffffffffffffffffffffffffffff168152602001908152602001600020548214156116cb576116ca33610dfb565b5b81600d60003373ffffffffffffffffffffffffffffffffffffffff1673ffffffffffffffffffffffffffffffffffffffff168152602001908152602001600020600082825461171a9190612cd7565b9250508190555081600d60008060009054906101000a900473ffffffffffffffffffffffffffffffffffffffff1673ffffffffffffffffffffffffffffffffffffffff1673ffffffffffffffffffffffffffffffffffffffff16815260200190815260200160002060008282546117919190612bf6565b925050819055505050565b60095481565b600481815481106117b257600080fd5b90600052602060002090600302016000915090508060000180546117d590612dd1565b80601f016020809104026020016040519081016040528092919081815260200182805461180190612dd1565b801561184e5780601f106118235761010080835404028352916020019161184e565b820191906000526020600020905b81548152906001019060200180831161183157829003601f168201915b50505050509080600101805461186390612dd1565b80601f016020809104026020016040519081016040528092919081815260200182805461188f90612dd1565b80156118dc5780601f106118b1576101008083540402835291602001916118dc565b820191906000526020600020905b8154815290600101906020018083116118bf57829003601f168201915b5050505050908060020154905083565b80600d60003373ffffffffffffffffffffffffffffffffffffffff1673ffffffffffffffffffffffffffffffffffffffff16815260200190815260200160002054101561193857600080fd5b60008054906101000a900473ffffffffffffffffffffffffffffffffffffffff1673ffffffffffffffffffffffffffffffffffffffff163373ffffffffffffffffffffffffffffffffffffffff161461199057600080fd5b80600d60003373ffffffffffffffffffffffffffffffffffffffff1673ffffffffffffffffffffffffffffffffffffffff16815260200190815260200160002060008282546119df9190612cd7565b9250508190555080600d60008473ffffffffffffffffffffffffffffffffffffffff1673ffffffffffffffffffffffffffffffffffffffff1681526020019081526020016000206000828254611a359190612bf6565b925050819055505050565b611a4981612431565b611b58576000600c60008373ffffffffffffffffffffffffffffffffffffffff1673ffffffffffffffffffffffffffffffffffffffff16815260200190815260200160002060006101000a81548160ff021916908315150217905550600b819080600181540180825580915050600190039060005260206000200160009091909190916101000a81548173ffffffffffffffffffffffffffffffffffffffff021916908373ffffffffffffffffffffffffffffffffffffffff16021790555060096000815480929190611b1b90612e34565b91905055507f30040c92e8da146ac410fb6841ea0f60af3b8f3788e5e7354e48d97d018f39dd81604051611b4f91906129b0565b60405180910390a15b50565b6001806002811115611b7057611b6f612f0c565b5b601560009054906101000a900460ff166002811115611b9257611b91612f0c565b5b14611bd2576040517f08c379a0000000000000000000000000000000000000000000000000000000008152600401611bc990612ae9565b60405180910390fd5b601060010160009054906101000a900473ffffffffffffffffffffffffffffffffffffffff1673ffffffffffffffffffffffffffffffffffffffff163373ffffffffffffffffffffffffffffffffffffffff1614611c2f57600080fd5b6002601560006101000a81548160ff02191690836002811115611c5557611c54612f0c565b5b02179055506017546010600301819055507fb43a401dcdbe02a8afa41feb6c651425997908d1a4b79cf505188ba1dd3fd872601060030154604051611c9a9190612b69565b60405180910390a150565b60008173ffffffffffffffffffffffffffffffffffffffff16319050919050565b6001806000018054611cd790612dd1565b80601f0160208091040260200160405190810160405280929190818152602001828054611d0390612dd1565b8015611d505780601f10611d2557610100808354040283529160200191611d50565b820191906000526020600020905b815481529060010190602001808311611d3357829003601f168201915b505050505090806001018054611d6590612dd1565b80601f0160208091040260200160405190810160405280929190818152602001828054611d9190612dd1565b8015611dde5780601f10611db357610100808354040283529160200191611dde565b820191906000526020600020905b815481529060010190602001808311611dc157829003601f168201915b5050505050908060020154905083565b6000600654600160020154611e039190612c4c565b905060008282611e139190612c7d565b9050803414611e57576040517f08c379a0000000000000000000000000000000000000000000000000000000008152600401611e4e90612b09565b60405180910390fd5b600854831115611e9c576040517f08c379a0000000000000000000000000000000000000000000000000000000008152600401611e9390612ac9565b60405180910390fd5b60008054906101000a900473ffffffffffffffffffffffffffffffffffffffff1673ffffffffffffffffffffffffffffffffffffffff166108fc349081150290604051600060405180830381858888f19350505050158015611f02573d6000803e3d6000fd5b5082600d60008060009054906101000a900473ffffffffffffffffffffffffffffffffffffffff1673ffffffffffffffffffffffffffffffffffffffff1673ffffffffffffffffffffffffffffffffffffffff1681526020019081526020016000206000828254611f739190612cd7565b9250508190555082600d60003373ffffffffffffffffffffffffffffffffffffffff1673ffffffffffffffffffffffffffffffffffffffff1681526020019081526020016000206000828254611fc99190612bf6565b92505081905550611fd933611a40565b505050565b60008054906101000a900473ffffffffffffffffffffffffffffffffffffffff1673ffffffffffffffffffffffffffffffffffffffff163373ffffffffffffffffffffffffffffffffffffffff161461203657600080fd5b600080600181111561204b5761204a612f0c565b5b600a60009054906101000a900460ff16600181111561206d5761206c612f0c565b5b1461207757600080fd5b6000604051806060016040528086815260200185815260200184815250905082600160020160008282546120ab9190612bf6565b92505081905550600481908060018154018082558091505060019003906000526020600020906003020160009091909190915060008201518160000190805190602001906120fa9291906124e0565b5060208201518160010190805190602001906121179291906124e0565b506040820151816002015550506001600560008282546121379190612bf6565b925050819055507f4578fe17eaab41ae382abe3462bb0cf04bcfee4168d2aad3ce9d5d225d0e27f68560405161216d9190612a01565b60405180910390a15050505050565b601080600001805461218d90612dd1565b80601f01602080910402602001604051908101604052809291908181526020018280546121b990612dd1565b80156122065780601f106121db57610100808354040283529160200191612206565b820191906000526020600020905b8154815290600101906020018083116121e957829003601f168201915b5050505050908060010160009054906101000a900473ffffffffffffffffffffffffffffffffffffffff169080600201805461224190612dd1565b80601f016020809104026020016040519081016040528092919081815260200182805461226d90612dd1565b80156122ba5780601f1061228f576101008083540402835291602001916122ba565b820191906000526020600020905b81548152906001019060200180831161229d57829003601f168201915b5050505050908060030154908060040154905085565b60606000821415612318576040518060400160405280600181526020017f3000000000000000000000000000000000000000000000000000000000000000815250905061242c565b600082905060005b6000821461234a57808061233390612e34565b915050600a826123439190612c4c565b9150612320565b60008167ffffffffffffffff81111561236657612365612f99565b5b6040519080825280601f01601f1916602001820160405280156123985781602001600182028036833780820191505090505b5090505b60008514612425576001826123b19190612cd7565b9150600a856123c09190612e7d565b60306123cc9190612bf6565b60f81b8183815181106123e2576123e1612f6a565b5b60200101907effffffffffffffffffffffffffffffffffffffffffffffffffffffffffffff1916908160001a905350600a8561241e9190612c4c565b945061239c565b8093505050505b919050565b600080600090505b600b805490508110156124d5578273ffffffffffffffffffffffffffffffffffffffff16600b828154811061247157612470612f6a565b5b9060005260206000200160009054906101000a900473ffffffffffffffffffffffffffffffffffffffff1673ffffffffffffffffffffffffffffffffffffffff1614156124c25760019150506124db565b80806124cd90612e34565b915050612439565b50600090505b919050565b8280546124ec90612dd1565b90600052602060002090601f01602090048101928261250e5760008555612555565b82601f1061252757805160ff1916838001178555612555565b82800160010185558215612555579182015b82811115612554578251825591602001919060010190612539565b5b5090506125629190612625565b5090565b82805461257290612dd1565b90600052602060002090601f01602090048101928261259457600085556125e2565b82601f106125a557805485556125e2565b828001600101855582156125e257600052602060002091601f016020900482015b828111156125e15782548255916001019190600101906125c6565b5b5090506125ef9190612625565b5090565b6040518060400160405280600073ffffffffffffffffffffffffffffffffffffffff1681526020016000151581525090565b5b8082111561263e576000816000905550600101612626565b5090565b600061265561265084612ba9565b612b84565b90508281526020810184848401111561267157612670612fcd565b5b61267c848285612d65565b509392505050565b6000813590506126938161312c565b92915050565b6000813590506126a881613143565b92915050565b600082601f8301126126c3576126c2612fc8565b5b81356126d3848260208601612642565b91505092915050565b6000813590506126eb8161315a565b92915050565b60006020828403121561270757612706612fd7565b5b600061271584828501612684565b91505092915050565b6000806040838503121561273557612734612fd7565b5b600061274385828601612684565b9250506020612754858286016126dc565b9150509250929050565b60006020828403121561277457612773612fd7565b5b600061278284828501612699565b91505092915050565b6000602082840312156127a1576127a0612fd7565b5b600082013567ffffffffffffffff8111156127bf576127be612fd2565b5b6127cb848285016126ae565b91505092915050565b6000806000606084860312156127ed576127ec612fd7565b5b600084013567ffffffffffffffff81111561280b5761280a612fd2565b5b612817868287016126ae565b935050602084013567ffffffffffffffff81111561283857612837612fd2565b5b612844868287016126ae565b9250506040612855868287016126dc565b9150509250925092565b60006020828403121561287557612874612fd7565b5b6000612883848285016126dc565b91505092915050565b61289581612d1d565b82525050565b6128a481612d0b565b82525050565b6128b381612d2f565b82525050565b60006128c482612bda565b6128ce8185612be5565b93506128de818560208601612d74565b6128e781612fdc565b840191505092915050565b60006128ff602383612be5565b915061290a82612fed565b604082019050919050565b6000612922601683612be5565b915061292d8261303c565b602082019050919050565b6000612945601f83612be5565b915061295082613065565b602082019050919050565b6000612968602483612be5565b91506129738261308e565b604082019050919050565b600061298b602183612be5565b9150612996826130dd565b604082019050919050565b6129aa81612d5b565b82525050565b60006020820190506129c5600083018461289b565b92915050565b60006020820190506129e0600083018461288c565b92915050565b60006020820190506129fb60008301846128aa565b92915050565b60006020820190508181036000830152612a1b81846128b9565b905092915050565b600060a0820190508181036000830152612a3d81886128b9565b9050612a4c602083018761289b565b8181036040830152612a5e81866128b9565b9050612a6d60608301856129a1565b612a7a60808301846129a1565b9695505050505050565b60006060820190508181036000830152612a9e81866128b9565b90508181036020830152612ab281856128b9565b9050612ac160408301846129a1565b949350505050565b60006020820190508181036000830152612ae2816128f2565b9050919050565b60006020820190508181036000830152612b0281612915565b9050919050565b60006020820190508181036000830152612b2281612938565b9050919050565b60006020820190508181036000830152612b428161295b565b9050919050565b60006020820190508181036000830152612b628161297e565b9050919050565b6000602082019050612b7e60008301846129a1565b92915050565b6000612b8e612b9f565b9050612b9a8282612e03565b919050565b6000604051905090565b600067ffffffffffffffff821115612bc457612bc3612f99565b5b612bcd82612fdc565b9050602081019050919050565b600081519050919050565b600082825260208201905092915050565b6000612c0182612d5b565b9150612c0c83612d5b565b9250827fffffffffffffffffffffffffffffffffffffffffffffffffffffffffffffffff03821115612c4157612c40612eae565b5b828201905092915050565b6000612c5782612d5b565b9150612c6283612d5b565b925082612c7257612c71612edd565b5b828204905092915050565b6000612c8882612d5b565b9150612c9383612d5b565b9250817fffffffffffffffffffffffffffffffffffffffffffffffffffffffffffffffff0483118215151615612ccc57612ccb612eae565b5b828202905092915050565b6000612ce282612d5b565b9150612ced83612d5b565b925082821015612d0057612cff612eae565b5b828203905092915050565b6000612d1682612d3b565b9050919050565b6000612d2882612d3b565b9050919050565b60008115159050919050565b600073ffffffffffffffffffffffffffffffffffffffff82169050919050565b6000819050919050565b82818337600083830152505050565b60005b83811015612d92578082015181840152602081019050612d77565b83811115612da1576000848401525b50505050565b6000612db282612d5b565b91506000821415612dc657612dc5612eae565b5b600182039050919050565b60006002820490506001821680612de957607f821691505b60208210811415612dfd57612dfc612f3b565b5b50919050565b612e0c82612fdc565b810181811067ffffffffffffffff82111715612e2b57612e2a612f99565b5b80604052505050565b6000612e3f82612d5b565b91507fffffffffffffffffffffffffffffffffffffffffffffffffffffffffffffffff821415612e7257612e71612eae565b5b600182019050919050565b6000612e8882612d5b565b9150612e9383612d5b565b925082612ea357612ea2612edd565b5b828206905092915050565b7f4e487b7100000000000000000000000000000000000000000000000000000000600052601160045260246000fd5b7f4e487b7100000000000000000000000000000000000000000000000000000000600052601260045260246000fd5b7f4e487b7100000000000000000000000000000000000000000000000000000000600052602160045260246000fd5b7f4e487b7100000000000000000000000000000000000000000000000000000000600052602260045260246000fd5b7f4e487b7100000000000000000000000000000000000000000000000000000000600052603260045260246000fd5b7f4e487b7100000000000000000000000000000000000000000000000000000000600052604160045260246000fd5b600080fd5b600080fd5b600080fd5b600080fd5b6000601f19601f8301169050919050565b7f4e756d626572206f662073686172657320657863656564656420746865206c6960008201527f6d69740000000000000000000000000000000000000000000000000000000000602082015250565b7f566f74696e6720686173206e6f74207374617274656400000000000000000000600082015250565b7f496e636f72726563742077656920616d6f756e74207375626d69747465642100600082015250565b7f596f752068617665206e6f2072696768747320746f206372656174652062616c60008201527f6c6f742100000000000000000000000000000000000000000000000000000000602082015250565b7f43616e6e6f742073656c6c2073686172657320796f7520646f206e6f74206f7760008201527f6e00000000000000000000000000000000000000000000000000000000000000602082015250565b61313581612d0b565b811461314057600080fd5b50565b61314c81612d2f565b811461315757600080fd5b50565b61316381612d5b565b811461316e57600080fd5b5056fea26469706673582212205a0e77a6036cf1946d8523210abf92b978c3c3674f65b0fc1fbff46b0bc667e164736f6c63430008070033",
					"opcodes": "PUSH1 0x80 PUSH1 0x40 MSTORE PUSH1 0x0 PUSH1 0x5 SSTORE PUSH1 0x64 PUSH1 0x6 SSTORE PUSH1 0x1 PUSH1 0x7 SSTORE PUSH1 0xA PUSH1 0x8 SSTORE PUSH1 0x0 PUSH1 0x9 SSTORE PUSH1 0x0 PUSH1 0xF SSTORE PUSH1 0x40 MLOAD PUSH3 0x3662 CODESIZE SUB DUP1 PUSH3 0x3662 DUP4 CODECOPY DUP2 DUP2 ADD PUSH1 0x40 MSTORE DUP2 ADD SWAP1 PUSH3 0x47 SWAP2 SWAP1 PUSH3 0x273 JUMP JUMPDEST CALLER PUSH1 0x0 DUP1 PUSH2 0x100 EXP DUP2 SLOAD DUP2 PUSH20 0xFFFFFFFFFFFFFFFFFFFFFFFFFFFFFFFFFFFFFFFF MUL NOT AND SWAP1 DUP4 PUSH20 0xFFFFFFFFFFFFFFFFFFFFFFFFFFFFFFFFFFFFFFFF AND MUL OR SWAP1 SSTORE POP PUSH1 0x6 SLOAD PUSH1 0xD PUSH1 0x0 CALLER PUSH20 0xFFFFFFFFFFFFFFFFFFFFFFFFFFFFFFFFFFFFFFFF AND PUSH20 0xFFFFFFFFFFFFFFFFFFFFFFFFFFFFFFFFFFFFFFFF AND DUP2 MSTORE PUSH1 0x20 ADD SWAP1 DUP2 MSTORE PUSH1 0x20 ADD PUSH1 0x0 KECCAK256 DUP2 SWAP1 SSTORE POP DUP2 PUSH1 0x1 PUSH1 0x0 ADD SWAP1 DUP1 MLOAD SWAP1 PUSH1 0x20 ADD SWAP1 PUSH3 0xE8 SWAP3 SWAP2 SWAP1 PUSH3 0x145 JUMP JUMPDEST POP DUP1 PUSH1 0x1 DUP1 ADD SWAP1 DUP1 MLOAD SWAP1 PUSH1 0x20 ADD SWAP1 PUSH3 0x103 SWAP3 SWAP2 SWAP1 PUSH3 0x145 JUMP JUMPDEST POP PUSH1 0x0 PUSH1 0x1 PUSH1 0x2 ADD DUP2 SWAP1 SSTORE POP PUSH1 0x0 PUSH1 0xA PUSH1 0x0 PUSH2 0x100 EXP DUP2 SLOAD DUP2 PUSH1 0xFF MUL NOT AND SWAP1 DUP4 PUSH1 0x1 DUP2 GT ISZERO PUSH3 0x138 JUMPI PUSH3 0x137 PUSH3 0x3F9 JUMP JUMPDEST JUMPDEST MUL OR SWAP1 SSTORE POP POP POP PUSH3 0x4AB JUMP JUMPDEST DUP3 DUP1 SLOAD PUSH3 0x153 SWAP1 PUSH3 0x38D JUMP JUMPDEST SWAP1 PUSH1 0x0 MSTORE PUSH1 0x20 PUSH1 0x0 KECCAK256 SWAP1 PUSH1 0x1F ADD PUSH1 0x20 SWAP1 DIV DUP2 ADD SWAP3 DUP3 PUSH3 0x177 JUMPI PUSH1 0x0 DUP6 SSTORE PUSH3 0x1C3 JUMP JUMPDEST DUP3 PUSH1 0x1F LT PUSH3 0x192 JUMPI DUP1 MLOAD PUSH1 0xFF NOT AND DUP4 DUP1 ADD OR DUP6 SSTORE PUSH3 0x1C3 JUMP JUMPDEST DUP3 DUP1 ADD PUSH1 0x1 ADD DUP6 SSTORE DUP3 ISZERO PUSH3 0x1C3 JUMPI SWAP2 DUP3 ADD JUMPDEST DUP3 DUP2 GT ISZERO PUSH3 0x1C2 JUMPI DUP3 MLOAD DUP3 SSTORE SWAP2 PUSH1 0x20 ADD SWAP2 SWAP1 PUSH1 0x1 ADD SWAP1 PUSH3 0x1A5 JUMP JUMPDEST JUMPDEST POP SWAP1 POP PUSH3 0x1D2 SWAP2 SWAP1 PUSH3 0x1D6 JUMP JUMPDEST POP SWAP1 JUMP JUMPDEST JUMPDEST DUP1 DUP3 GT ISZERO PUSH3 0x1F1 JUMPI PUSH1 0x0 DUP2 PUSH1 0x0 SWAP1 SSTORE POP PUSH1 0x1 ADD PUSH3 0x1D7 JUMP JUMPDEST POP SWAP1 JUMP JUMPDEST PUSH1 0x0 PUSH3 0x20C PUSH3 0x206 DUP5 PUSH3 0x321 JUMP JUMPDEST PUSH3 0x2F8 JUMP JUMPDEST SWAP1 POP DUP3 DUP2 MSTORE PUSH1 0x20 DUP2 ADD DUP5 DUP5 DUP5 ADD GT ISZERO PUSH3 0x22B JUMPI PUSH3 0x22A PUSH3 0x48B JUMP JUMPDEST JUMPDEST PUSH3 0x238 DUP5 DUP3 DUP6 PUSH3 0x357 JUMP JUMPDEST POP SWAP4 SWAP3 POP POP POP JUMP JUMPDEST PUSH1 0x0 DUP3 PUSH1 0x1F DUP4 ADD SLT PUSH3 0x258 JUMPI PUSH3 0x257 PUSH3 0x486 JUMP JUMPDEST JUMPDEST DUP2 MLOAD PUSH3 0x26A DUP5 DUP3 PUSH1 0x20 DUP7 ADD PUSH3 0x1F5 JUMP JUMPDEST SWAP2 POP POP SWAP3 SWAP2 POP POP JUMP JUMPDEST PUSH1 0x0 DUP1 PUSH1 0x40 DUP4 DUP6 SUB SLT ISZERO PUSH3 0x28D JUMPI PUSH3 0x28C PUSH3 0x495 JUMP JUMPDEST JUMPDEST PUSH1 0x0 DUP4 ADD MLOAD PUSH8 0xFFFFFFFFFFFFFFFF DUP2 GT ISZERO PUSH3 0x2AE JUMPI PUSH3 0x2AD PUSH3 0x490 JUMP JUMPDEST JUMPDEST PUSH3 0x2BC DUP6 DUP3 DUP7 ADD PUSH3 0x240 JUMP JUMPDEST SWAP3 POP POP PUSH1 0x20 DUP4 ADD MLOAD PUSH8 0xFFFFFFFFFFFFFFFF DUP2 GT ISZERO PUSH3 0x2E0 JUMPI PUSH3 0x2DF PUSH3 0x490 JUMP JUMPDEST JUMPDEST PUSH3 0x2EE DUP6 DUP3 DUP7 ADD PUSH3 0x240 JUMP JUMPDEST SWAP2 POP POP SWAP3 POP SWAP3 SWAP1 POP JUMP JUMPDEST PUSH1 0x0 PUSH3 0x304 PUSH3 0x317 JUMP JUMPDEST SWAP1 POP PUSH3 0x312 DUP3 DUP3 PUSH3 0x3C3 JUMP JUMPDEST SWAP2 SWAP1 POP JUMP JUMPDEST PUSH1 0x0 PUSH1 0x40 MLOAD SWAP1 POP SWAP1 JUMP JUMPDEST PUSH1 0x0 PUSH8 0xFFFFFFFFFFFFFFFF DUP3 GT ISZERO PUSH3 0x33F JUMPI PUSH3 0x33E PUSH3 0x457 JUMP JUMPDEST JUMPDEST PUSH3 0x34A DUP3 PUSH3 0x49A JUMP JUMPDEST SWAP1 POP PUSH1 0x20 DUP2 ADD SWAP1 POP SWAP2 SWAP1 POP JUMP JUMPDEST PUSH1 0x0 JUMPDEST DUP4 DUP2 LT ISZERO PUSH3 0x377 JUMPI DUP1 DUP3 ADD MLOAD DUP2 DUP5 ADD MSTORE PUSH1 0x20 DUP2 ADD SWAP1 POP PUSH3 0x35A JUMP JUMPDEST DUP4 DUP2 GT ISZERO PUSH3 0x387 JUMPI PUSH1 0x0 DUP5 DUP5 ADD MSTORE JUMPDEST POP POP POP POP JUMP JUMPDEST PUSH1 0x0 PUSH1 0x2 DUP3 DIV SWAP1 POP PUSH1 0x1 DUP3 AND DUP1 PUSH3 0x3A6 JUMPI PUSH1 0x7F DUP3 AND SWAP2 POP JUMPDEST PUSH1 0x20 DUP3 LT DUP2 EQ ISZERO PUSH3 0x3BD JUMPI PUSH3 0x3BC PUSH3 0x428 JUMP JUMPDEST JUMPDEST POP SWAP2 SWAP1 POP JUMP JUMPDEST PUSH3 0x3CE DUP3 PUSH3 0x49A JUMP JUMPDEST DUP2 ADD DUP2 DUP2 LT PUSH8 0xFFFFFFFFFFFFFFFF DUP3 GT OR ISZERO PUSH3 0x3F0 JUMPI PUSH3 0x3EF PUSH3 0x457 JUMP JUMPDEST JUMPDEST DUP1 PUSH1 0x40 MSTORE POP POP POP JUMP JUMPDEST PUSH32 0x4E487B7100000000000000000000000000000000000000000000000000000000 PUSH1 0x0 MSTORE PUSH1 0x21 PUSH1 0x4 MSTORE PUSH1 0x24 PUSH1 0x0 REVERT JUMPDEST PUSH32 0x4E487B7100000000000000000000000000000000000000000000000000000000 PUSH1 0x0 MSTORE PUSH1 0x22 PUSH1 0x4 MSTORE PUSH1 0x24 PUSH1 0x0 REVERT JUMPDEST PUSH32 0x4E487B7100000000000000000000000000000000000000000000000000000000 PUSH1 0x0 MSTORE PUSH1 0x41 PUSH1 0x4 MSTORE PUSH1 0x24 PUSH1 0x0 REVERT JUMPDEST PUSH1 0x0 DUP1 REVERT JUMPDEST PUSH1 0x0 DUP1 REVERT JUMPDEST PUSH1 0x0 DUP1 REVERT JUMPDEST PUSH1 0x0 DUP1 REVERT JUMPDEST PUSH1 0x0 PUSH1 0x1F NOT PUSH1 0x1F DUP4 ADD AND SWAP1 POP SWAP2 SWAP1 POP JUMP JUMPDEST PUSH2 0x31A7 DUP1 PUSH3 0x4BB PUSH1 0x0 CODECOPY PUSH1 0x0 RETURN INVALID PUSH1 0x80 PUSH1 0x40 MSTORE PUSH1 0x4 CALLDATASIZE LT PUSH2 0x19C JUMPI PUSH1 0x0 CALLDATALOAD PUSH1 0xE0 SHR DUP1 PUSH4 0x87CAEA78 GT PUSH2 0xEC JUMPI DUP1 PUSH4 0xAF769C64 GT PUSH2 0x8A JUMPI DUP1 PUSH4 0xD8124C5F GT PUSH2 0x64 JUMPI DUP1 PUSH4 0xD8124C5F EQ PUSH2 0x5AF JUMPI DUP1 PUSH4 0xD96A094A EQ PUSH2 0x5DC JUMPI DUP1 PUSH4 0xDF094409 EQ PUSH2 0x5F8 JUMPI DUP1 PUSH4 0xF80723A8 EQ PUSH2 0x621 JUMPI PUSH2 0x19C JUMP JUMPDEST DUP1 PUSH4 0xAF769C64 EQ PUSH2 0x532 JUMPI DUP1 PUSH4 0xB9223946 EQ PUSH2 0x55B JUMPI DUP1 PUSH4 0xCD0C5896 EQ PUSH2 0x572 JUMPI PUSH2 0x19C JUMP JUMPDEST DUP1 PUSH4 0x8EB54C6F GT PUSH2 0xC6 JUMPI DUP1 PUSH4 0x8EB54C6F EQ PUSH2 0x483 JUMPI DUP1 PUSH4 0x9A982416 EQ PUSH2 0x49F JUMPI DUP1 PUSH4 0xA14BA987 EQ PUSH2 0x4CA JUMPI DUP1 PUSH4 0xA9059CBB EQ PUSH2 0x509 JUMPI PUSH2 0x19C JUMP JUMPDEST DUP1 PUSH4 0x87CAEA78 EQ PUSH2 0x3F0 JUMPI DUP1 PUSH4 0x8CB647D3 EQ PUSH2 0x42D JUMPI DUP1 PUSH4 0x8DA5CB5B EQ PUSH2 0x458 JUMPI PUSH2 0x19C JUMP JUMPDEST DUP1 PUSH4 0x46A86576 GT PUSH2 0x159 JUMPI DUP1 PUSH4 0x5AB59720 GT PUSH2 0x133 JUMPI DUP1 PUSH4 0x5AB59720 EQ PUSH2 0x334 JUMPI DUP1 PUSH4 0x612FB2EC EQ PUSH2 0x35D JUMPI DUP1 PUSH4 0x7427A40C EQ PUSH2 0x388 JUMPI DUP1 PUSH4 0x7FF9B596 EQ PUSH2 0x3C5 JUMPI PUSH2 0x19C JUMP JUMPDEST DUP1 PUSH4 0x46A86576 EQ PUSH2 0x2B7 JUMPI DUP1 PUSH4 0x4C0A6AF0 EQ PUSH2 0x2E0 JUMPI DUP1 PUSH4 0x59EA0173 EQ PUSH2 0x2F7 JUMPI PUSH2 0x19C JUMP JUMPDEST DUP1 PUSH4 0x162D8AFB EQ PUSH2 0x1A1 JUMPI DUP1 PUSH4 0x27E235E3 EQ PUSH2 0x1CC JUMPI DUP1 PUSH4 0x293230B8 EQ PUSH2 0x209 JUMPI DUP1 PUSH4 0x2CD39ACC EQ PUSH2 0x220 JUMPI DUP1 PUSH4 0x3A98EF39 EQ PUSH2 0x261 JUMPI DUP1 PUSH4 0x3BE75AA3 EQ PUSH2 0x28C JUMPI JUMPDEST PUSH1 0x0 DUP1 REVERT JUMPDEST CALLVALUE DUP1 ISZERO PUSH2 0x1AD JUMPI PUSH1 0x0 DUP1 REVERT JUMPDEST POP PUSH2 0x1B6 PUSH2 0x650 JUMP JUMPDEST PUSH1 0x40 MLOAD PUSH2 0x1C3 SWAP2 SWAP1 PUSH2 0x2B69 JUMP JUMPDEST PUSH1 0x40 MLOAD DUP1 SWAP2 SUB SWAP1 RETURN JUMPDEST CALLVALUE DUP1 ISZERO PUSH2 0x1D8 JUMPI PUSH1 0x0 DUP1 REVERT JUMPDEST POP PUSH2 0x1F3 PUSH1 0x4 DUP1 CALLDATASIZE SUB DUP2 ADD SWAP1 PUSH2 0x1EE SWAP2 SWAP1 PUSH2 0x26F1 JUMP JUMPDEST PUSH2 0x656 JUMP JUMPDEST PUSH1 0x40 MLOAD PUSH2 0x200 SWAP2 SWAP1 PUSH2 0x2B69 JUMP JUMPDEST PUSH1 0x40 MLOAD DUP1 SWAP2 SUB SWAP1 RETURN JUMPDEST CALLVALUE DUP1 ISZERO PUSH2 0x215 JUMPI PUSH1 0x0 DUP1 REVERT JUMPDEST POP PUSH2 0x21E PUSH2 0x66E JUMP JUMPDEST STOP JUMPDEST CALLVALUE DUP1 ISZERO PUSH2 0x22C JUMPI PUSH1 0x0 DUP1 REVERT JUMPDEST POP PUSH2 0x247 PUSH1 0x4 DUP1 CALLDATASIZE SUB DUP2 ADD SWAP1 PUSH2 0x242 SWAP2 SWAP1 PUSH2 0x285F JUMP JUMPDEST PUSH2 0x6F3 JUMP JUMPDEST PUSH1 0x40 MLOAD PUSH2 0x258 SWAP6 SWAP5 SWAP4 SWAP3 SWAP2 SWAP1 PUSH2 0x2A23 JUMP JUMPDEST PUSH1 0x40 MLOAD DUP1 SWAP2 SUB SWAP1 RETURN JUMPDEST CALLVALUE DUP1 ISZERO PUSH2 0x26D JUMPI PUSH1 0x0 DUP1 REVERT JUMPDEST POP PUSH2 0x276 PUSH2 0x859 JUMP JUMPDEST PUSH1 0x40 MLOAD PUSH2 0x283 SWAP2 SWAP1 PUSH2 0x2B69 JUMP JUMPDEST PUSH1 0x40 MLOAD DUP1 SWAP2 SUB SWAP1 RETURN JUMPDEST CALLVALUE DUP1 ISZERO PUSH2 0x298 JUMPI PUSH1 0x0 DUP1 REVERT JUMPDEST POP PUSH2 0x2A1 PUSH2 0x85F JUMP JUMPDEST PUSH1 0x40 MLOAD PUSH2 0x2AE SWAP2 SWAP1 PUSH2 0x2B69 JUMP JUMPDEST PUSH1 0x40 MLOAD DUP1 SWAP2 SUB SWAP1 RETURN JUMPDEST CALLVALUE DUP1 ISZERO PUSH2 0x2C3 JUMPI PUSH1 0x0 DUP1 REVERT JUMPDEST POP PUSH2 0x2DE PUSH1 0x4 DUP1 CALLDATASIZE SUB DUP2 ADD SWAP1 PUSH2 0x2D9 SWAP2 SWAP1 PUSH2 0x278B JUMP JUMPDEST PUSH2 0x865 JUMP JUMPDEST STOP JUMPDEST CALLVALUE DUP1 ISZERO PUSH2 0x2EC JUMPI PUSH1 0x0 DUP1 REVERT JUMPDEST POP PUSH2 0x2F5 PUSH2 0xCAD JUMP JUMPDEST STOP JUMPDEST CALLVALUE DUP1 ISZERO PUSH2 0x303 JUMPI PUSH1 0x0 DUP1 REVERT JUMPDEST POP PUSH2 0x31E PUSH1 0x4 DUP1 CALLDATASIZE SUB DUP2 ADD SWAP1 PUSH2 0x319 SWAP2 SWAP1 PUSH2 0x26F1 JUMP JUMPDEST PUSH2 0xDDB JUMP JUMPDEST PUSH1 0x40 MLOAD PUSH2 0x32B SWAP2 SWAP1 PUSH2 0x29E6 JUMP JUMPDEST PUSH1 0x40 MLOAD DUP1 SWAP2 SUB SWAP1 RETURN JUMPDEST CALLVALUE DUP1 ISZERO PUSH2 0x340 JUMPI PUSH1 0x0 DUP1 REVERT JUMPDEST POP PUSH2 0x35B PUSH1 0x4 DUP1 CALLDATASIZE SUB DUP2 ADD SWAP1 PUSH2 0x356 SWAP2 SWAP1 PUSH2 0x26F1 JUMP JUMPDEST PUSH2 0xDFB JUMP JUMPDEST STOP JUMPDEST CALLVALUE DUP1 ISZERO PUSH2 0x369 JUMPI PUSH1 0x0 DUP1 REVERT JUMPDEST POP PUSH2 0x372 PUSH2 0xEEB JUMP JUMPDEST PUSH1 0x40 MLOAD PUSH2 0x37F SWAP2 SWAP1 PUSH2 0x2B69 JUMP JUMPDEST PUSH1 0x40 MLOAD DUP1 SWAP2 SUB SWAP1 RETURN JUMPDEST CALLVALUE DUP1 ISZERO PUSH2 0x394 JUMPI PUSH1 0x0 DUP1 REVERT JUMPDEST POP PUSH2 0x3AF PUSH1 0x4 DUP1 CALLDATASIZE SUB DUP2 ADD SWAP1 PUSH2 0x3AA SWAP2 SWAP1 PUSH2 0x285F JUMP JUMPDEST PUSH2 0xEF1 JUMP JUMPDEST PUSH1 0x40 MLOAD PUSH2 0x3BC SWAP2 SWAP1 PUSH2 0x29B0 JUMP JUMPDEST PUSH1 0x40 MLOAD DUP1 SWAP2 SUB SWAP1 RETURN JUMPDEST CALLVALUE DUP1 ISZERO PUSH2 0x3D1 JUMPI PUSH1 0x0 DUP1 REVERT JUMPDEST POP PUSH2 0x3DA PUSH2 0xF30 JUMP JUMPDEST PUSH1 0x40 MLOAD PUSH2 0x3E7 SWAP2 SWAP1 PUSH2 0x2B69 JUMP JUMPDEST PUSH1 0x40 MLOAD DUP1 SWAP2 SUB SWAP1 RETURN JUMPDEST CALLVALUE DUP1 ISZERO PUSH2 0x3FC JUMPI PUSH1 0x0 DUP1 REVERT JUMPDEST POP PUSH2 0x417 PUSH1 0x4 DUP1 CALLDATASIZE SUB DUP2 ADD SWAP1 PUSH2 0x412 SWAP2 SWAP1 PUSH2 0x275E JUMP JUMPDEST PUSH2 0xF36 JUMP JUMPDEST PUSH1 0x40 MLOAD PUSH2 0x424 SWAP2 SWAP1 PUSH2 0x29E6 JUMP JUMPDEST PUSH1 0x40 MLOAD DUP1 SWAP2 SUB SWAP1 RETURN JUMPDEST CALLVALUE DUP1 ISZERO PUSH2 0x439 JUMPI PUSH1 0x0 DUP1 REVERT JUMPDEST POP PUSH2 0x442 PUSH2 0x133B JUMP JUMPDEST PUSH1 0x40 MLOAD PUSH2 0x44F SWAP2 SWAP1 PUSH2 0x29E6 JUMP JUMPDEST PUSH1 0x40 MLOAD DUP1 SWAP2 SUB SWAP1 RETURN JUMPDEST CALLVALUE DUP1 ISZERO PUSH2 0x464 JUMPI PUSH1 0x0 DUP1 REVERT JUMPDEST POP PUSH2 0x46D PUSH2 0x1588 JUMP JUMPDEST PUSH1 0x40 MLOAD PUSH2 0x47A SWAP2 SWAP1 PUSH2 0x29CB JUMP JUMPDEST PUSH1 0x40 MLOAD DUP1 SWAP2 SUB SWAP1 RETURN JUMPDEST PUSH2 0x49D PUSH1 0x4 DUP1 CALLDATASIZE SUB DUP2 ADD SWAP1 PUSH2 0x498 SWAP2 SWAP1 PUSH2 0x285F JUMP JUMPDEST PUSH2 0x15AC JUMP JUMPDEST STOP JUMPDEST CALLVALUE DUP1 ISZERO PUSH2 0x4AB JUMPI PUSH1 0x0 DUP1 REVERT JUMPDEST POP PUSH2 0x4B4 PUSH2 0x179C JUMP JUMPDEST PUSH1 0x40 MLOAD PUSH2 0x4C1 SWAP2 SWAP1 PUSH2 0x2B69 JUMP JUMPDEST PUSH1 0x40 MLOAD DUP1 SWAP2 SUB SWAP1 RETURN JUMPDEST CALLVALUE DUP1 ISZERO PUSH2 0x4D6 JUMPI PUSH1 0x0 DUP1 REVERT JUMPDEST POP PUSH2 0x4F1 PUSH1 0x4 DUP1 CALLDATASIZE SUB DUP2 ADD SWAP1 PUSH2 0x4EC SWAP2 SWAP1 PUSH2 0x285F JUMP JUMPDEST PUSH2 0x17A2 JUMP JUMPDEST PUSH1 0x40 MLOAD PUSH2 0x500 SWAP4 SWAP3 SWAP2 SWAP1 PUSH2 0x2A84 JUMP JUMPDEST PUSH1 0x40 MLOAD DUP1 SWAP2 SUB SWAP1 RETURN JUMPDEST CALLVALUE DUP1 ISZERO PUSH2 0x515 JUMPI PUSH1 0x0 DUP1 REVERT JUMPDEST POP PUSH2 0x530 PUSH1 0x4 DUP1 CALLDATASIZE SUB DUP2 ADD SWAP1 PUSH2 0x52B SWAP2 SWAP1 PUSH2 0x271E JUMP JUMPDEST PUSH2 0x18EC JUMP JUMPDEST STOP JUMPDEST CALLVALUE DUP1 ISZERO PUSH2 0x53E JUMPI PUSH1 0x0 DUP1 REVERT JUMPDEST POP PUSH2 0x559 PUSH1 0x4 DUP1 CALLDATASIZE SUB DUP2 ADD SWAP1 PUSH2 0x554 SWAP2 SWAP1 PUSH2 0x26F1 JUMP JUMPDEST PUSH2 0x1A40 JUMP JUMPDEST STOP JUMPDEST CALLVALUE DUP1 ISZERO PUSH2 0x567 JUMPI PUSH1 0x0 DUP1 REVERT JUMPDEST POP PUSH2 0x570 PUSH2 0x1B5B JUMP JUMPDEST STOP JUMPDEST CALLVALUE DUP1 ISZERO PUSH2 0x57E JUMPI PUSH1 0x0 DUP1 REVERT JUMPDEST POP PUSH2 0x599 PUSH1 0x4 DUP1 CALLDATASIZE SUB DUP2 ADD SWAP1 PUSH2 0x594 SWAP2 SWAP1 PUSH2 0x26F1 JUMP JUMPDEST PUSH2 0x1CA5 JUMP JUMPDEST PUSH1 0x40 MLOAD PUSH2 0x5A6 SWAP2 SWAP1 PUSH2 0x2B69 JUMP JUMPDEST PUSH1 0x40 MLOAD DUP1 SWAP2 SUB SWAP1 RETURN JUMPDEST CALLVALUE DUP1 ISZERO PUSH2 0x5BB JUMPI PUSH1 0x0 DUP1 REVERT JUMPDEST POP PUSH2 0x5C4 PUSH2 0x1CC6 JUMP JUMPDEST PUSH1 0x40 MLOAD PUSH2 0x5D3 SWAP4 SWAP3 SWAP2 SWAP1 PUSH2 0x2A84 JUMP JUMPDEST PUSH1 0x40 MLOAD DUP1 SWAP2 SUB SWAP1 RETURN JUMPDEST PUSH2 0x5F6 PUSH1 0x4 DUP1 CALLDATASIZE SUB DUP2 ADD SWAP1 PUSH2 0x5F1 SWAP2 SWAP1 PUSH2 0x285F JUMP JUMPDEST PUSH2 0x1DEE JUMP JUMPDEST STOP JUMPDEST CALLVALUE DUP1 ISZERO PUSH2 0x604 JUMPI PUSH1 0x0 DUP1 REVERT JUMPDEST POP PUSH2 0x61F PUSH1 0x4 DUP1 CALLDATASIZE SUB DUP2 ADD SWAP1 PUSH2 0x61A SWAP2 SWAP1 PUSH2 0x27D4 JUMP JUMPDEST PUSH2 0x1FDE JUMP JUMPDEST STOP JUMPDEST CALLVALUE DUP1 ISZERO PUSH2 0x62D JUMPI PUSH1 0x0 DUP1 REVERT JUMPDEST POP PUSH2 0x636 PUSH2 0x217C JUMP JUMPDEST PUSH1 0x40 MLOAD PUSH2 0x647 SWAP6 SWAP5 SWAP4 SWAP3 SWAP2 SWAP1 PUSH2 0x2A23 JUMP JUMPDEST PUSH1 0x40 MLOAD DUP1 SWAP2 SUB SWAP1 RETURN JUMPDEST PUSH1 0x5 SLOAD DUP2 JUMP JUMPDEST PUSH1 0xD PUSH1 0x20 MSTORE DUP1 PUSH1 0x0 MSTORE PUSH1 0x40 PUSH1 0x0 KECCAK256 PUSH1 0x0 SWAP2 POP SWAP1 POP SLOAD DUP2 JUMP JUMPDEST PUSH1 0x0 DUP1 SLOAD SWAP1 PUSH2 0x100 EXP SWAP1 DIV PUSH20 0xFFFFFFFFFFFFFFFFFFFFFFFFFFFFFFFFFFFFFFFF AND PUSH20 0xFFFFFFFFFFFFFFFFFFFFFFFFFFFFFFFFFFFFFFFF AND CALLER PUSH20 0xFFFFFFFFFFFFFFFFFFFFFFFFFFFFFFFFFFFFFFFF AND EQ PUSH2 0x6C6 JUMPI PUSH1 0x0 DUP1 REVERT JUMPDEST PUSH1 0x1 PUSH1 0xA PUSH1 0x0 PUSH2 0x100 EXP DUP2 SLOAD DUP2 PUSH1 0xFF MUL NOT AND SWAP1 DUP4 PUSH1 0x1 DUP2 GT ISZERO PUSH2 0x6EC JUMPI PUSH2 0x6EB PUSH2 0x2F0C JUMP JUMPDEST JUMPDEST MUL OR SWAP1 SSTORE POP JUMP JUMPDEST PUSH1 0xE PUSH1 0x20 MSTORE DUP1 PUSH1 0x0 MSTORE PUSH1 0x40 PUSH1 0x0 KECCAK256 PUSH1 0x0 SWAP2 POP SWAP1 POP DUP1 PUSH1 0x0 ADD DUP1 SLOAD PUSH2 0x716 SWAP1 PUSH2 0x2DD1 JUMP JUMPDEST DUP1 PUSH1 0x1F ADD PUSH1 0x20 DUP1 SWAP2 DIV MUL PUSH1 0x20 ADD PUSH1 0x40 MLOAD SWAP1 DUP2 ADD PUSH1 0x40 MSTORE DUP1 SWAP3 SWAP2 SWAP1 DUP2 DUP2 MSTORE PUSH1 0x20 ADD DUP3 DUP1 SLOAD PUSH2 0x742 SWAP1 PUSH2 0x2DD1 JUMP JUMPDEST DUP1 ISZERO PUSH2 0x78F JUMPI DUP1 PUSH1 0x1F LT PUSH2 0x764 JUMPI PUSH2 0x100 DUP1 DUP4 SLOAD DIV MUL DUP4 MSTORE SWAP2 PUSH1 0x20 ADD SWAP2 PUSH2 0x78F JUMP JUMPDEST DUP3 ADD SWAP2 SWAP1 PUSH1 0x0 MSTORE PUSH1 0x20 PUSH1 0x0 KECCAK256 SWAP1 JUMPDEST DUP2 SLOAD DUP2 MSTORE SWAP1 PUSH1 0x1 ADD SWAP1 PUSH1 0x20 ADD DUP1 DUP4 GT PUSH2 0x772 JUMPI DUP3 SWAP1 SUB PUSH1 0x1F AND DUP3 ADD SWAP2 JUMPDEST POP POP POP POP POP SWAP1 DUP1 PUSH1 0x1 ADD PUSH1 0x0 SWAP1 SLOAD SWAP1 PUSH2 0x100 EXP SWAP1 DIV PUSH20 0xFFFFFFFFFFFFFFFFFFFFFFFFFFFFFFFFFFFFFFFF AND SWAP1 DUP1 PUSH1 0x2 ADD DUP1 SLOAD PUSH2 0x7CA SWAP1 PUSH2 0x2DD1 JUMP JUMPDEST DUP1 PUSH1 0x1F ADD PUSH1 0x20 DUP1 SWAP2 DIV MUL PUSH1 0x20 ADD PUSH1 0x40 MLOAD SWAP1 DUP2 ADD PUSH1 0x40 MSTORE DUP1 SWAP3 SWAP2 SWAP1 DUP2 DUP2 MSTORE PUSH1 0x20 ADD DUP3 DUP1 SLOAD PUSH2 0x7F6 SWAP1 PUSH2 0x2DD1 JUMP JUMPDEST DUP1 ISZERO PUSH2 0x843 JUMPI DUP1 PUSH1 0x1F LT PUSH2 0x818 JUMPI PUSH2 0x100 DUP1 DUP4 SLOAD DIV MUL DUP4 MSTORE SWAP2 PUSH1 0x20 ADD SWAP2 PUSH2 0x843 JUMP JUMPDEST DUP3 ADD SWAP2 SWAP1 PUSH1 0x0 MSTORE PUSH1 0x20 PUSH1 0x0 KECCAK256 SWAP1 JUMPDEST DUP2 SLOAD DUP2 MSTORE SWAP1 PUSH1 0x1 ADD SWAP1 PUSH1 0x20 ADD DUP1 DUP4 GT PUSH2 0x826 JUMPI DUP3 SWAP1 SUB PUSH1 0x1F AND DUP3 ADD SWAP2 JUMPDEST POP POP POP POP POP SWAP1 DUP1 PUSH1 0x3 ADD SLOAD SWAP1 DUP1 PUSH1 0x4 ADD SLOAD SWAP1 POP DUP6 JUMP JUMPDEST PUSH1 0x6 SLOAD DUP2 JUMP JUMPDEST PUSH1 0x8 SLOAD DUP2 JUMP JUMPDEST CALLER DUP1 PUSH20 0xFFFFFFFFFFFFFFFFFFFFFFFFFFFFFFFFFFFFFFFF AND PUSH1 0x0 DUP1 SLOAD SWAP1 PUSH2 0x100 EXP SWAP1 DIV PUSH20 0xFFFFFFFFFFFFFFFFFFFFFFFFFFFFFFFFFFFFFFFF AND PUSH20 0xFFFFFFFFFFFFFFFFFFFFFFFFFFFFFFFFFFFFFFFF AND EQ PUSH2 0x9F1 JUMPI PUSH1 0x0 DUP1 JUMPDEST PUSH1 0x9 SLOAD DUP2 LT ISZERO PUSH2 0x9A7 JUMPI DUP3 PUSH20 0xFFFFFFFFFFFFFFFFFFFFFFFFFFFFFFFFFFFFFFFF AND PUSH1 0xB DUP3 DUP2 SLOAD DUP2 LT PUSH2 0x8F2 JUMPI PUSH2 0x8F1 PUSH2 0x2F6A JUMP JUMPDEST JUMPDEST SWAP1 PUSH1 0x0 MSTORE PUSH1 0x20 PUSH1 0x0 KECCAK256 ADD PUSH1 0x0 SWAP1 SLOAD SWAP1 PUSH2 0x100 EXP SWAP1 DIV PUSH20 0xFFFFFFFFFFFFFFFFFFFFFFFFFFFFFFFFFFFFFFFF AND PUSH20 0xFFFFFFFFFFFFFFFFFFFFFFFFFFFFFFFFFFFFFFFF AND EQ DUP1 PUSH2 0x98A JUMPI POP DUP3 PUSH20 0xFFFFFFFFFFFFFFFFFFFFFFFFFFFFFFFFFFFFFFFF AND PUSH1 0x0 DUP1 SLOAD SWAP1 PUSH2 0x100 EXP SWAP1 DIV PUSH20 0xFFFFFFFFFFFFFFFFFFFFFFFFFFFFFFFFFFFFFFFF AND PUSH20 0xFFFFFFFFFFFFFFFFFFFFFFFFFFFFFFFFFFFFFFFF AND EQ JUMPDEST ISZERO PUSH2 0x994 JUMPI PUSH1 0x1 SWAP2 POP JUMPDEST DUP1 DUP1 PUSH2 0x99F SWAP1 PUSH2 0x2E34 JUMP JUMPDEST SWAP2 POP POP PUSH2 0x8BD JUMP JUMPDEST POP PUSH1 0x1 ISZERO ISZERO DUP2 ISZERO ISZERO EQ PUSH2 0x9EF JUMPI PUSH1 0x40 MLOAD PUSH32 0x8C379A000000000000000000000000000000000000000000000000000000000 DUP2 MSTORE PUSH1 0x4 ADD PUSH2 0x9E6 SWAP1 PUSH2 0x2B29 JUMP JUMPDEST PUSH1 0x40 MLOAD DUP1 SWAP2 SUB SWAP1 REVERT JUMPDEST POP JUMPDEST PUSH1 0x40 MLOAD DUP1 PUSH1 0xA0 ADD PUSH1 0x40 MSTORE DUP1 PUSH2 0xA07 PUSH1 0xF SLOAD PUSH2 0x22D0 JUMP JUMPDEST DUP2 MSTORE PUSH1 0x20 ADD CALLER PUSH20 0xFFFFFFFFFFFFFFFFFFFFFFFFFFFFFFFFFFFFFFFF AND DUP2 MSTORE PUSH1 0x20 ADD DUP4 DUP2 MSTORE PUSH1 0x20 ADD PUSH1 0x0 DUP2 MSTORE PUSH1 0x20 ADD PUSH1 0x0 DUP2 MSTORE POP PUSH1 0x10 PUSH1 0x0 DUP3 ADD MLOAD DUP2 PUSH1 0x0 ADD SWAP1 DUP1 MLOAD SWAP1 PUSH1 0x20 ADD SWAP1 PUSH2 0xA58 SWAP3 SWAP2 SWAP1 PUSH2 0x24E0 JUMP JUMPDEST POP PUSH1 0x20 DUP3 ADD MLOAD DUP2 PUSH1 0x1 ADD PUSH1 0x0 PUSH2 0x100 EXP DUP2 SLOAD DUP2 PUSH20 0xFFFFFFFFFFFFFFFFFFFFFFFFFFFFFFFFFFFFFFFF MUL NOT AND SWAP1 DUP4 PUSH20 0xFFFFFFFFFFFFFFFFFFFFFFFFFFFFFFFFFFFFFFFF AND MUL OR SWAP1 SSTORE POP PUSH1 0x40 DUP3 ADD MLOAD DUP2 PUSH1 0x2 ADD SWAP1 DUP1 MLOAD SWAP1 PUSH1 0x20 ADD SWAP1 PUSH2 0xABC SWAP3 SWAP2 SWAP1 PUSH2 0x24E0 JUMP JUMPDEST POP PUSH1 0x60 DUP3 ADD MLOAD DUP2 PUSH1 0x3 ADD SSTORE PUSH1 0x80 DUP3 ADD MLOAD DUP2 PUSH1 0x4 ADD SSTORE SWAP1 POP POP PUSH1 0x0 PUSH1 0x15 PUSH1 0x0 PUSH2 0x100 EXP DUP2 SLOAD DUP2 PUSH1 0xFF MUL NOT AND SWAP1 DUP4 PUSH1 0x2 DUP2 GT ISZERO PUSH2 0xAFA JUMPI PUSH2 0xAF9 PUSH2 0x2F0C JUMP JUMPDEST JUMPDEST MUL OR SWAP1 SSTORE POP PUSH1 0x10 PUSH1 0xE PUSH1 0x0 PUSH1 0xF SLOAD DUP2 MSTORE PUSH1 0x20 ADD SWAP1 DUP2 MSTORE PUSH1 0x20 ADD PUSH1 0x0 KECCAK256 PUSH1 0x0 DUP3 ADD DUP2 PUSH1 0x0 ADD SWAP1 DUP1 SLOAD PUSH2 0xB2A SWAP1 PUSH2 0x2DD1 JUMP JUMPDEST PUSH2 0xB35 SWAP3 SWAP2 SWAP1 PUSH2 0x2566 JUMP JUMPDEST POP PUSH1 0x1 DUP3 ADD PUSH1 0x0 SWAP1 SLOAD SWAP1 PUSH2 0x100 EXP SWAP1 DIV PUSH20 0xFFFFFFFFFFFFFFFFFFFFFFFFFFFFFFFFFFFFFFFF AND DUP2 PUSH1 0x1 ADD PUSH1 0x0 PUSH2 0x100 EXP DUP2 SLOAD DUP2 PUSH20 0xFFFFFFFFFFFFFFFFFFFFFFFFFFFFFFFFFFFFFFFF MUL NOT AND SWAP1 DUP4 PUSH20 0xFFFFFFFFFFFFFFFFFFFFFFFFFFFFFFFFFFFFFFFF AND MUL OR SWAP1 SSTORE POP PUSH1 0x2 DUP3 ADD DUP2 PUSH1 0x2 ADD SWAP1 DUP1 SLOAD PUSH2 0xBB1 SWAP1 PUSH2 0x2DD1 JUMP JUMPDEST PUSH2 0xBBC SWAP3 SWAP2 SWAP1 PUSH2 0x2566 JUMP JUMPDEST POP PUSH1 0x3 DUP3 ADD SLOAD DUP2 PUSH1 0x3 ADD SSTORE PUSH1 0x4 DUP3 ADD SLOAD DUP2 PUSH1 0x4 ADD SSTORE SWAP1 POP POP PUSH1 0xF PUSH1 0x0 DUP2 SLOAD DUP1 SWAP3 SWAP2 SWAP1 PUSH2 0xBE7 SWAP1 PUSH2 0x2E34 JUMP JUMPDEST SWAP2 SWAP1 POP SSTORE POP PUSH1 0x0 JUMPDEST PUSH1 0x9 SLOAD DUP2 LT ISZERO PUSH2 0xCA8 JUMPI PUSH1 0x0 PUSH1 0xB DUP3 DUP2 SLOAD DUP2 LT PUSH2 0xC0F JUMPI PUSH2 0xC0E PUSH2 0x2F6A JUMP JUMPDEST JUMPDEST SWAP1 PUSH1 0x0 MSTORE PUSH1 0x20 PUSH1 0x0 KECCAK256 ADD PUSH1 0x0 SWAP1 SLOAD SWAP1 PUSH2 0x100 EXP SWAP1 DIV PUSH20 0xFFFFFFFFFFFFFFFFFFFFFFFFFFFFFFFFFFFFFFFF AND SWAP1 POP PUSH1 0x0 PUSH1 0xC PUSH1 0x0 DUP4 PUSH20 0xFFFFFFFFFFFFFFFFFFFFFFFFFFFFFFFFFFFFFFFF AND PUSH20 0xFFFFFFFFFFFFFFFFFFFFFFFFFFFFFFFFFFFFFFFF AND DUP2 MSTORE PUSH1 0x20 ADD SWAP1 DUP2 MSTORE PUSH1 0x20 ADD PUSH1 0x0 KECCAK256 PUSH1 0x0 PUSH2 0x100 EXP DUP2 SLOAD DUP2 PUSH1 0xFF MUL NOT AND SWAP1 DUP4 ISZERO ISZERO MUL OR SWAP1 SSTORE POP POP DUP1 DUP1 PUSH2 0xCA0 SWAP1 PUSH2 0x2E34 JUMP JUMPDEST SWAP2 POP POP PUSH2 0xBEF JUMP JUMPDEST POP POP POP JUMP JUMPDEST PUSH1 0x0 DUP1 PUSH1 0x2 DUP2 GT ISZERO PUSH2 0xCC2 JUMPI PUSH2 0xCC1 PUSH2 0x2F0C JUMP JUMPDEST JUMPDEST PUSH1 0x15 PUSH1 0x0 SWAP1 SLOAD SWAP1 PUSH2 0x100 EXP SWAP1 DIV PUSH1 0xFF AND PUSH1 0x2 DUP2 GT ISZERO PUSH2 0xCE4 JUMPI PUSH2 0xCE3 PUSH2 0x2F0C JUMP JUMPDEST JUMPDEST EQ PUSH2 0xD24 JUMPI PUSH1 0x40 MLOAD PUSH32 0x8C379A000000000000000000000000000000000000000000000000000000000 DUP2 MSTORE PUSH1 0x4 ADD PUSH2 0xD1B SWAP1 PUSH2 0x2AE9 JUMP JUMPDEST PUSH1 0x40 MLOAD DUP1 SWAP2 SUB SWAP1 REVERT JUMPDEST PUSH1 0x10 PUSH1 0x1 ADD PUSH1 0x0 SWAP1 SLOAD SWAP1 PUSH2 0x100 EXP SWAP1 DIV PUSH20 0xFFFFFFFFFFFFFFFFFFFFFFFFFFFFFFFFFFFFFFFF AND PUSH20 0xFFFFFFFFFFFFFFFFFFFFFFFFFFFFFFFFFFFFFFFF AND CALLER PUSH20 0xFFFFFFFFFFFFFFFFFFFFFFFFFFFFFFFFFFFFFFFF AND EQ PUSH2 0xD81 JUMPI PUSH1 0x0 DUP1 REVERT JUMPDEST PUSH1 0x1 PUSH1 0x15 PUSH1 0x0 PUSH2 0x100 EXP DUP2 SLOAD DUP2 PUSH1 0xFF MUL NOT AND SWAP1 DUP4 PUSH1 0x2 DUP2 GT ISZERO PUSH2 0xDA7 JUMPI PUSH2 0xDA6 PUSH2 0x2F0C JUMP JUMPDEST JUMPDEST MUL OR SWAP1 SSTORE POP PUSH32 0xD0DC01800A369FEF30D3FCED5275B8B916549867622E79EFCA5245C479FDA4EA PUSH1 0x40 MLOAD PUSH1 0x40 MLOAD DUP1 SWAP2 SUB SWAP1 LOG1 POP JUMP JUMPDEST PUSH1 0xC PUSH1 0x20 MSTORE DUP1 PUSH1 0x0 MSTORE PUSH1 0x40 PUSH1 0x0 KECCAK256 PUSH1 0x0 SWAP2 POP SLOAD SWAP1 PUSH2 0x100 EXP SWAP1 DIV PUSH1 0xFF AND DUP2 JUMP JUMPDEST PUSH1 0x0 JUMPDEST PUSH1 0x9 SLOAD DUP2 LT ISZERO PUSH2 0xEE7 JUMPI DUP2 PUSH20 0xFFFFFFFFFFFFFFFFFFFFFFFFFFFFFFFFFFFFFFFF AND PUSH1 0xB DUP3 DUP2 SLOAD DUP2 LT PUSH2 0xE33 JUMPI PUSH2 0xE32 PUSH2 0x2F6A JUMP JUMPDEST JUMPDEST SWAP1 PUSH1 0x0 MSTORE PUSH1 0x20 PUSH1 0x0 KECCAK256 ADD PUSH1 0x0 SWAP1 SLOAD SWAP1 PUSH2 0x100 EXP SWAP1 DIV PUSH20 0xFFFFFFFFFFFFFFFFFFFFFFFFFFFFFFFFFFFFFFFF AND PUSH20 0xFFFFFFFFFFFFFFFFFFFFFFFFFFFFFFFFFFFFFFFF AND EQ ISZERO PUSH2 0xED4 JUMPI PUSH1 0xB DUP2 DUP2 SLOAD DUP2 LT PUSH2 0xE8E JUMPI PUSH2 0xE8D PUSH2 0x2F6A JUMP JUMPDEST JUMPDEST SWAP1 PUSH1 0x0 MSTORE PUSH1 0x20 PUSH1 0x0 KECCAK256 ADD PUSH1 0x0 PUSH2 0x100 EXP DUP2 SLOAD SWAP1 PUSH20 0xFFFFFFFFFFFFFFFFFFFFFFFFFFFFFFFFFFFFFFFF MUL NOT AND SWAP1 SSTORE PUSH1 0x9 PUSH1 0x0 DUP2 SLOAD DUP1 SWAP3 SWAP2 SWAP1 PUSH2 0xECE SWAP1 PUSH2 0x2DA7 JUMP JUMPDEST SWAP2 SWAP1 POP SSTORE POP JUMPDEST DUP1 DUP1 PUSH2 0xEDF SWAP1 PUSH2 0x2E34 JUMP JUMPDEST SWAP2 POP POP PUSH2 0xDFE JUMP JUMPDEST POP POP JUMP JUMPDEST PUSH1 0xF SLOAD DUP2 JUMP JUMPDEST PUSH1 0xB DUP2 DUP2 SLOAD DUP2 LT PUSH2 0xF01 JUMPI PUSH1 0x0 DUP1 REVERT JUMPDEST SWAP1 PUSH1 0x0 MSTORE PUSH1 0x20 PUSH1 0x0 KECCAK256 ADD PUSH1 0x0 SWAP2 POP SLOAD SWAP1 PUSH2 0x100 EXP SWAP1 DIV PUSH20 0xFFFFFFFFFFFFFFFFFFFFFFFFFFFFFFFFFFFFFFFF AND DUP2 JUMP JUMPDEST PUSH1 0x7 SLOAD DUP2 JUMP JUMPDEST PUSH1 0x0 PUSH1 0x1 DUP1 PUSH1 0x2 DUP2 GT ISZERO PUSH2 0xF4D JUMPI PUSH2 0xF4C PUSH2 0x2F0C JUMP JUMPDEST JUMPDEST PUSH1 0x15 PUSH1 0x0 SWAP1 SLOAD SWAP1 PUSH2 0x100 EXP SWAP1 DIV PUSH1 0xFF AND PUSH1 0x2 DUP2 GT ISZERO PUSH2 0xF6F JUMPI PUSH2 0xF6E PUSH2 0x2F0C JUMP JUMPDEST JUMPDEST EQ PUSH2 0xFAF JUMPI PUSH1 0x40 MLOAD PUSH32 0x8C379A000000000000000000000000000000000000000000000000000000000 DUP2 MSTORE PUSH1 0x4 ADD PUSH2 0xFA6 SWAP1 PUSH2 0x2AE9 JUMP JUMPDEST PUSH1 0x40 MLOAD DUP1 SWAP2 SUB SWAP1 REVERT JUMPDEST CALLER DUP1 PUSH20 0xFFFFFFFFFFFFFFFFFFFFFFFFFFFFFFFFFFFFFFFF AND PUSH1 0x0 DUP1 SLOAD SWAP1 PUSH2 0x100 EXP SWAP1 DIV PUSH20 0xFFFFFFFFFFFFFFFFFFFFFFFFFFFFFFFFFFFFFFFF AND PUSH20 0xFFFFFFFFFFFFFFFFFFFFFFFFFFFFFFFFFFFFFFFF AND EQ PUSH2 0x113B JUMPI PUSH1 0x0 DUP1 JUMPDEST PUSH1 0x9 SLOAD DUP2 LT ISZERO PUSH2 0x10F1 JUMPI DUP3 PUSH20 0xFFFFFFFFFFFFFFFFFFFFFFFFFFFFFFFFFFFFFFFF AND PUSH1 0xB DUP3 DUP2 SLOAD DUP2 LT PUSH2 0x103C JUMPI PUSH2 0x103B PUSH2 0x2F6A JUMP JUMPDEST JUMPDEST SWAP1 PUSH1 0x0 MSTORE PUSH1 0x20 PUSH1 0x0 KECCAK256 ADD PUSH1 0x0 SWAP1 SLOAD SWAP1 PUSH2 0x100 EXP SWAP1 DIV PUSH20 0xFFFFFFFFFFFFFFFFFFFFFFFFFFFFFFFFFFFFFFFF AND PUSH20 0xFFFFFFFFFFFFFFFFFFFFFFFFFFFFFFFFFFFFFFFF AND EQ DUP1 PUSH2 0x10D4 JUMPI POP DUP3 PUSH20 0xFFFFFFFFFFFFFFFFFFFFFFFFFFFFFFFFFFFFFFFF AND PUSH1 0x0 DUP1 SLOAD SWAP1 PUSH2 0x100 EXP SWAP1 DIV PUSH20 0xFFFFFFFFFFFFFFFFFFFFFFFFFFFFFFFFFFFFFFFF AND PUSH20 0xFFFFFFFFFFFFFFFFFFFFFFFFFFFFFFFFFFFFFFFF AND EQ JUMPDEST ISZERO PUSH2 0x10DE JUMPI PUSH1 0x1 SWAP2 POP JUMPDEST DUP1 DUP1 PUSH2 0x10E9 SWAP1 PUSH2 0x2E34 JUMP JUMPDEST SWAP2 POP POP PUSH2 0x1007 JUMP JUMPDEST POP PUSH1 0x1 ISZERO ISZERO DUP2 ISZERO ISZERO EQ PUSH2 0x1139 JUMPI PUSH1 0x40 MLOAD PUSH32 0x8C379A000000000000000000000000000000000000000000000000000000000 DUP2 MSTORE PUSH1 0x4 ADD PUSH2 0x1130 SWAP1 PUSH2 0x2B29 JUMP JUMPDEST PUSH1 0x40 MLOAD DUP1 SWAP2 SUB SWAP1 REVERT JUMPDEST POP JUMPDEST PUSH1 0x0 PUSH1 0xC PUSH1 0x0 CALLER PUSH20 0xFFFFFFFFFFFFFFFFFFFFFFFFFFFFFFFFFFFFFFFF AND PUSH20 0xFFFFFFFFFFFFFFFFFFFFFFFFFFFFFFFFFFFFFFFF AND DUP2 MSTORE PUSH1 0x20 ADD SWAP1 DUP2 MSTORE PUSH1 0x20 ADD PUSH1 0x0 KECCAK256 PUSH1 0x0 SWAP1 SLOAD SWAP1 PUSH2 0x100 EXP SWAP1 DIV PUSH1 0xFF AND PUSH2 0x12F9 JUMPI PUSH1 0x1 PUSH1 0xC PUSH1 0x0 CALLER PUSH20 0xFFFFFFFFFFFFFFFFFFFFFFFFFFFFFFFFFFFFFFFF AND PUSH20 0xFFFFFFFFFFFFFFFFFFFFFFFFFFFFFFFFFFFFFFFF AND DUP2 MSTORE PUSH1 0x20 ADD SWAP1 DUP2 MSTORE PUSH1 0x20 ADD PUSH1 0x0 KECCAK256 PUSH1 0x0 PUSH2 0x100 EXP DUP2 SLOAD DUP2 PUSH1 0xFF MUL NOT AND SWAP1 DUP4 ISZERO ISZERO MUL OR SWAP1 SSTORE POP PUSH2 0x11EE PUSH2 0x25F3 JUMP JUMPDEST CALLER DUP2 PUSH1 0x0 ADD SWAP1 PUSH20 0xFFFFFFFFFFFFFFFFFFFFFFFFFFFFFFFFFFFFFFFF AND SWAP1 DUP2 PUSH20 0xFFFFFFFFFFFFFFFFFFFFFFFFFFFFFFFFFFFFFFFF AND DUP2 MSTORE POP POP DUP6 DUP2 PUSH1 0x20 ADD SWAP1 ISZERO ISZERO SWAP1 DUP2 ISZERO ISZERO DUP2 MSTORE POP POP DUP6 ISZERO PUSH2 0x1255 JUMPI PUSH1 0x17 PUSH1 0x0 DUP2 SLOAD DUP1 SWAP3 SWAP2 SWAP1 PUSH2 0x124F SWAP1 PUSH2 0x2E34 JUMP JUMPDEST SWAP2 SWAP1 POP SSTORE POP JUMPDEST DUP1 PUSH1 0x16 PUSH1 0x0 PUSH1 0x10 PUSH1 0x4 ADD SLOAD DUP2 MSTORE PUSH1 0x20 ADD SWAP1 DUP2 MSTORE PUSH1 0x20 ADD PUSH1 0x0 KECCAK256 PUSH1 0x0 DUP3 ADD MLOAD DUP2 PUSH1 0x0 ADD PUSH1 0x0 PUSH2 0x100 EXP DUP2 SLOAD DUP2 PUSH20 0xFFFFFFFFFFFFFFFFFFFFFFFFFFFFFFFFFFFFFFFF MUL NOT AND SWAP1 DUP4 PUSH20 0xFFFFFFFFFFFFFFFFFFFFFFFFFFFFFFFFFFFFFFFF AND MUL OR SWAP1 SSTORE POP PUSH1 0x20 DUP3 ADD MLOAD DUP2 PUSH1 0x0 ADD PUSH1 0x14 PUSH2 0x100 EXP DUP2 SLOAD DUP2 PUSH1 0xFF MUL NOT AND SWAP1 DUP4 ISZERO ISZERO MUL OR SWAP1 SSTORE POP SWAP1 POP POP PUSH1 0x10 PUSH1 0x4 ADD PUSH1 0x0 DUP2 SLOAD DUP1 SWAP3 SWAP2 SWAP1 PUSH2 0x12EE SWAP1 PUSH2 0x2E34 JUMP JUMPDEST SWAP2 SWAP1 POP SSTORE POP PUSH1 0x1 SWAP2 POP POP JUMPDEST PUSH32 0x55C65CF9526EFDF6C2252FE9757889DBD93E10172CAD0F2EDB1DF619C88DBF7D CALLER PUSH1 0x40 MLOAD PUSH2 0x1328 SWAP2 SWAP1 PUSH2 0x29B0 JUMP JUMPDEST PUSH1 0x40 MLOAD DUP1 SWAP2 SUB SWAP1 LOG1 DUP1 SWAP4 POP POP POP POP SWAP2 SWAP1 POP JUMP JUMPDEST PUSH1 0x0 CALLER DUP1 PUSH20 0xFFFFFFFFFFFFFFFFFFFFFFFFFFFFFFFFFFFFFFFF AND PUSH1 0x0 DUP1 SLOAD SWAP1 PUSH2 0x100 EXP SWAP1 DIV PUSH20 0xFFFFFFFFFFFFFFFFFFFFFFFFFFFFFFFFFFFFFFFF AND PUSH20 0xFFFFFFFFFFFFFFFFFFFFFFFFFFFFFFFFFFFFFFFF AND EQ PUSH2 0x14C9 JUMPI PUSH1 0x0 DUP1 JUMPDEST PUSH1 0x9 SLOAD DUP2 LT ISZERO PUSH2 0x147F JUMPI DUP3 PUSH20 0xFFFFFFFFFFFFFFFFFFFFFFFFFFFFFFFFFFFFFFFF AND PUSH1 0xB DUP3 DUP2 SLOAD DUP2 LT PUSH2 0x13CA JUMPI PUSH2 0x13C9 PUSH2 0x2F6A JUMP JUMPDEST JUMPDEST SWAP1 PUSH1 0x0 MSTORE PUSH1 0x20 PUSH1 0x0 KECCAK256 ADD PUSH1 0x0 SWAP1 SLOAD SWAP1 PUSH2 0x100 EXP SWAP1 DIV PUSH20 0xFFFFFFFFFFFFFFFFFFFFFFFFFFFFFFFFFFFFFFFF AND PUSH20 0xFFFFFFFFFFFFFFFFFFFFFFFFFFFFFFFFFFFFFFFF AND EQ DUP1 PUSH2 0x1462 JUMPI POP DUP3 PUSH20 0xFFFFFFFFFFFFFFFFFFFFFFFFFFFFFFFFFFFFFFFF AND PUSH1 0x0 DUP1 SLOAD SWAP1 PUSH2 0x100 EXP SWAP1 DIV PUSH20 0xFFFFFFFFFFFFFFFFFFFFFFFFFFFFFFFFFFFFFFFF AND PUSH20 0xFFFFFFFFFFFFFFFFFFFFFFFFFFFFFFFFFFFFFFFF AND EQ JUMPDEST ISZERO PUSH2 0x146C JUMPI PUSH1 0x1 SWAP2 POP JUMPDEST DUP1 DUP1 PUSH2 0x1477 SWAP1 PUSH2 0x2E34 JUMP JUMPDEST SWAP2 POP POP PUSH2 0x1395 JUMP JUMPDEST POP PUSH1 0x1 ISZERO ISZERO DUP2 ISZERO ISZERO EQ PUSH2 0x14C7 JUMPI PUSH1 0x40 MLOAD PUSH32 0x8C379A000000000000000000000000000000000000000000000000000000000 DUP2 MSTORE PUSH1 0x4 ADD PUSH2 0x14BE SWAP1 PUSH2 0x2B29 JUMP JUMPDEST PUSH1 0x40 MLOAD DUP1 SWAP2 SUB SWAP1 REVERT JUMPDEST POP JUMPDEST PUSH1 0x0 JUMPDEST PUSH1 0x10 PUSH1 0x4 ADD SLOAD DUP2 LT ISZERO PUSH2 0x1582 JUMPI CALLER PUSH20 0xFFFFFFFFFFFFFFFFFFFFFFFFFFFFFFFFFFFFFFFF AND PUSH1 0x16 PUSH1 0x0 DUP4 DUP2 MSTORE PUSH1 0x20 ADD SWAP1 DUP2 MSTORE PUSH1 0x20 ADD PUSH1 0x0 KECCAK256 PUSH1 0x0 ADD PUSH1 0x0 SWAP1 SLOAD SWAP1 PUSH2 0x100 EXP SWAP1 DIV PUSH20 0xFFFFFFFFFFFFFFFFFFFFFFFFFFFFFFFFFFFFFFFF AND PUSH20 0xFFFFFFFFFFFFFFFFFFFFFFFFFFFFFFFFFFFFFFFF AND EQ ISZERO PUSH2 0x156F JUMPI PUSH1 0x16 PUSH1 0x0 DUP3 DUP2 MSTORE PUSH1 0x20 ADD SWAP1 DUP2 MSTORE PUSH1 0x20 ADD PUSH1 0x0 KECCAK256 PUSH1 0x0 ADD PUSH1 0x14 SWAP1 SLOAD SWAP1 PUSH2 0x100 EXP SWAP1 DIV PUSH1 0xFF AND SWAP3 POP POP PUSH2 0x1584 JUMP JUMPDEST DUP1 DUP1 PUSH2 0x157A SWAP1 PUSH2 0x2E34 JUMP JUMPDEST SWAP2 POP POP PUSH2 0x14CC JUMP JUMPDEST POP JUMPDEST POP SWAP1 JUMP JUMPDEST PUSH1 0x0 DUP1 SLOAD SWAP1 PUSH2 0x100 EXP SWAP1 DIV PUSH20 0xFFFFFFFFFFFFFFFFFFFFFFFFFFFFFFFFFFFFFFFF AND DUP2 JUMP JUMPDEST PUSH1 0xD PUSH1 0x0 CALLER PUSH20 0xFFFFFFFFFFFFFFFFFFFFFFFFFFFFFFFFFFFFFFFF AND PUSH20 0xFFFFFFFFFFFFFFFFFFFFFFFFFFFFFFFFFFFFFFFF AND DUP2 MSTORE PUSH1 0x20 ADD SWAP1 DUP2 MSTORE PUSH1 0x20 ADD PUSH1 0x0 KECCAK256 SLOAD DUP2 GT ISZERO PUSH2 0x162E JUMPI PUSH1 0x40 MLOAD PUSH32 0x8C379A000000000000000000000000000000000000000000000000000000000 DUP2 MSTORE PUSH1 0x4 ADD PUSH2 0x1625 SWAP1 PUSH2 0x2B49 JUMP JUMPDEST PUSH1 0x40 MLOAD DUP1 SWAP2 SUB SWAP1 REVERT JUMPDEST PUSH1 0x0 CALLER SWAP1 POP DUP1 PUSH20 0xFFFFFFFFFFFFFFFFFFFFFFFFFFFFFFFFFFFFFFFF AND PUSH2 0x8FC CALLVALUE SWAP1 DUP2 ISZERO MUL SWAP1 PUSH1 0x40 MLOAD PUSH1 0x0 PUSH1 0x40 MLOAD DUP1 DUP4 SUB DUP2 DUP6 DUP9 DUP9 CALL SWAP4 POP POP POP POP ISZERO DUP1 ISZERO PUSH2 0x1679 JUMPI RETURNDATASIZE PUSH1 0x0 DUP1 RETURNDATACOPY RETURNDATASIZE PUSH1 0x0 REVERT JUMPDEST POP PUSH1 0xD PUSH1 0x0 CALLER PUSH20 0xFFFFFFFFFFFFFFFFFFFFFFFFFFFFFFFFFFFFFFFF AND PUSH20 0xFFFFFFFFFFFFFFFFFFFFFFFFFFFFFFFFFFFFFFFF AND DUP2 MSTORE PUSH1 0x20 ADD SWAP1 DUP2 MSTORE PUSH1 0x20 ADD PUSH1 0x0 KECCAK256 SLOAD DUP3 EQ ISZERO PUSH2 0x16CB JUMPI PUSH2 0x16CA CALLER PUSH2 0xDFB JUMP JUMPDEST JUMPDEST DUP2 PUSH1 0xD PUSH1 0x0 CALLER PUSH20 0xFFFFFFFFFFFFFFFFFFFFFFFFFFFFFFFFFFFFFFFF AND PUSH20 0xFFFFFFFFFFFFFFFFFFFFFFFFFFFFFFFFFFFFFFFF AND DUP2 MSTORE PUSH1 0x20 ADD SWAP1 DUP2 MSTORE PUSH1 0x20 ADD PUSH1 0x0 KECCAK256 PUSH1 0x0 DUP3 DUP3 SLOAD PUSH2 0x171A SWAP2 SWAP1 PUSH2 0x2CD7 JUMP JUMPDEST SWAP3 POP POP DUP2 SWAP1 SSTORE POP DUP2 PUSH1 0xD PUSH1 0x0 DUP1 PUSH1 0x0 SWAP1 SLOAD SWAP1 PUSH2 0x100 EXP SWAP1 DIV PUSH20 0xFFFFFFFFFFFFFFFFFFFFFFFFFFFFFFFFFFFFFFFF AND PUSH20 0xFFFFFFFFFFFFFFFFFFFFFFFFFFFFFFFFFFFFFFFF AND PUSH20 0xFFFFFFFFFFFFFFFFFFFFFFFFFFFFFFFFFFFFFFFF AND DUP2 MSTORE PUSH1 0x20 ADD SWAP1 DUP2 MSTORE PUSH1 0x20 ADD PUSH1 0x0 KECCAK256 PUSH1 0x0 DUP3 DUP3 SLOAD PUSH2 0x1791 SWAP2 SWAP1 PUSH2 0x2BF6 JUMP JUMPDEST SWAP3 POP POP DUP2 SWAP1 SSTORE POP POP POP JUMP JUMPDEST PUSH1 0x9 SLOAD DUP2 JUMP JUMPDEST PUSH1 0x4 DUP2 DUP2 SLOAD DUP2 LT PUSH2 0x17B2 JUMPI PUSH1 0x0 DUP1 REVERT JUMPDEST SWAP1 PUSH1 0x0 MSTORE PUSH1 0x20 PUSH1 0x0 KECCAK256 SWAP1 PUSH1 0x3 MUL ADD PUSH1 0x0 SWAP2 POP SWAP1 POP DUP1 PUSH1 0x0 ADD DUP1 SLOAD PUSH2 0x17D5 SWAP1 PUSH2 0x2DD1 JUMP JUMPDEST DUP1 PUSH1 0x1F ADD PUSH1 0x20 DUP1 SWAP2 DIV MUL PUSH1 0x20 ADD PUSH1 0x40 MLOAD SWAP1 DUP2 ADD PUSH1 0x40 MSTORE DUP1 SWAP3 SWAP2 SWAP1 DUP2 DUP2 MSTORE PUSH1 0x20 ADD DUP3 DUP1 SLOAD PUSH2 0x1801 SWAP1 PUSH2 0x2DD1 JUMP JUMPDEST DUP1 ISZERO PUSH2 0x184E JUMPI DUP1 PUSH1 0x1F LT PUSH2 0x1823 JUMPI PUSH2 0x100 DUP1 DUP4 SLOAD DIV MUL DUP4 MSTORE SWAP2 PUSH1 0x20 ADD SWAP2 PUSH2 0x184E JUMP JUMPDEST DUP3 ADD SWAP2 SWAP1 PUSH1 0x0 MSTORE PUSH1 0x20 PUSH1 0x0 KECCAK256 SWAP1 JUMPDEST DUP2 SLOAD DUP2 MSTORE SWAP1 PUSH1 0x1 ADD SWAP1 PUSH1 0x20 ADD DUP1 DUP4 GT PUSH2 0x1831 JUMPI DUP3 SWAP1 SUB PUSH1 0x1F AND DUP3 ADD SWAP2 JUMPDEST POP POP POP POP POP SWAP1 DUP1 PUSH1 0x1 ADD DUP1 SLOAD PUSH2 0x1863 SWAP1 PUSH2 0x2DD1 JUMP JUMPDEST DUP1 PUSH1 0x1F ADD PUSH1 0x20 DUP1 SWAP2 DIV MUL PUSH1 0x20 ADD PUSH1 0x40 MLOAD SWAP1 DUP2 ADD PUSH1 0x40 MSTORE DUP1 SWAP3 SWAP2 SWAP1 DUP2 DUP2 MSTORE PUSH1 0x20 ADD DUP3 DUP1 SLOAD PUSH2 0x188F SWAP1 PUSH2 0x2DD1 JUMP JUMPDEST DUP1 ISZERO PUSH2 0x18DC JUMPI DUP1 PUSH1 0x1F LT PUSH2 0x18B1 JUMPI PUSH2 0x100 DUP1 DUP4 SLOAD DIV MUL DUP4 MSTORE SWAP2 PUSH1 0x20 ADD SWAP2 PUSH2 0x18DC JUMP JUMPDEST DUP3 ADD SWAP2 SWAP1 PUSH1 0x0 MSTORE PUSH1 0x20 PUSH1 0x0 KECCAK256 SWAP1 JUMPDEST DUP2 SLOAD DUP2 MSTORE SWAP1 PUSH1 0x1 ADD SWAP1 PUSH1 0x20 ADD DUP1 DUP4 GT PUSH2 0x18BF JUMPI DUP3 SWAP1 SUB PUSH1 0x1F AND DUP3 ADD SWAP2 JUMPDEST POP POP POP POP POP SWAP1 DUP1 PUSH1 0x2 ADD SLOAD SWAP1 POP DUP4 JUMP JUMPDEST DUP1 PUSH1 0xD PUSH1 0x0 CALLER PUSH20 0xFFFFFFFFFFFFFFFFFFFFFFFFFFFFFFFFFFFFFFFF AND PUSH20 0xFFFFFFFFFFFFFFFFFFFFFFFFFFFFFFFFFFFFFFFF AND DUP2 MSTORE PUSH1 0x20 ADD SWAP1 DUP2 MSTORE PUSH1 0x20 ADD PUSH1 0x0 KECCAK256 SLOAD LT ISZERO PUSH2 0x1938 JUMPI PUSH1 0x0 DUP1 REVERT JUMPDEST PUSH1 0x0 DUP1 SLOAD SWAP1 PUSH2 0x100 EXP SWAP1 DIV PUSH20 0xFFFFFFFFFFFFFFFFFFFFFFFFFFFFFFFFFFFFFFFF AND PUSH20 0xFFFFFFFFFFFFFFFFFFFFFFFFFFFFFFFFFFFFFFFF AND CALLER PUSH20 0xFFFFFFFFFFFFFFFFFFFFFFFFFFFFFFFFFFFFFFFF AND EQ PUSH2 0x1990 JUMPI PUSH1 0x0 DUP1 REVERT JUMPDEST DUP1 PUSH1 0xD PUSH1 0x0 CALLER PUSH20 0xFFFFFFFFFFFFFFFFFFFFFFFFFFFFFFFFFFFFFFFF AND PUSH20 0xFFFFFFFFFFFFFFFFFFFFFFFFFFFFFFFFFFFFFFFF AND DUP2 MSTORE PUSH1 0x20 ADD SWAP1 DUP2 MSTORE PUSH1 0x20 ADD PUSH1 0x0 KECCAK256 PUSH1 0x0 DUP3 DUP3 SLOAD PUSH2 0x19DF SWAP2 SWAP1 PUSH2 0x2CD7 JUMP JUMPDEST SWAP3 POP POP DUP2 SWAP1 SSTORE POP DUP1 PUSH1 0xD PUSH1 0x0 DUP5 PUSH20 0xFFFFFFFFFFFFFFFFFFFFFFFFFFFFFFFFFFFFFFFF AND PUSH20 0xFFFFFFFFFFFFFFFFFFFFFFFFFFFFFFFFFFFFFFFF AND DUP2 MSTORE PUSH1 0x20 ADD SWAP1 DUP2 MSTORE PUSH1 0x20 ADD PUSH1 0x0 KECCAK256 PUSH1 0x0 DUP3 DUP3 SLOAD PUSH2 0x1A35 SWAP2 SWAP1 PUSH2 0x2BF6 JUMP JUMPDEST SWAP3 POP POP DUP2 SWAP1 SSTORE POP POP POP JUMP JUMPDEST PUSH2 0x1A49 DUP2 PUSH2 0x2431 JUMP JUMPDEST PUSH2 0x1B58 JUMPI PUSH1 0x0 PUSH1 0xC PUSH1 0x0 DUP4 PUSH20 0xFFFFFFFFFFFFFFFFFFFFFFFFFFFFFFFFFFFFFFFF AND PUSH20 0xFFFFFFFFFFFFFFFFFFFFFFFFFFFFFFFFFFFFFFFF AND DUP2 MSTORE PUSH1 0x20 ADD SWAP1 DUP2 MSTORE PUSH1 0x20 ADD PUSH1 0x0 KECCAK256 PUSH1 0x0 PUSH2 0x100 EXP DUP2 SLOAD DUP2 PUSH1 0xFF MUL NOT AND SWAP1 DUP4 ISZERO ISZERO MUL OR SWAP1 SSTORE POP PUSH1 0xB DUP2 SWAP1 DUP1 PUSH1 0x1 DUP2 SLOAD ADD DUP1 DUP3 SSTORE DUP1 SWAP2 POP POP PUSH1 0x1 SWAP1 SUB SWAP1 PUSH1 0x0 MSTORE PUSH1 0x20 PUSH1 0x0 KECCAK256 ADD PUSH1 0x0 SWAP1 SWAP2 SWAP1 SWAP2 SWAP1 SWAP2 PUSH2 0x100 EXP DUP2 SLOAD DUP2 PUSH20 0xFFFFFFFFFFFFFFFFFFFFFFFFFFFFFFFFFFFFFFFF MUL NOT AND SWAP1 DUP4 PUSH20 0xFFFFFFFFFFFFFFFFFFFFFFFFFFFFFFFFFFFFFFFF AND MUL OR SWAP1 SSTORE POP PUSH1 0x9 PUSH1 0x0 DUP2 SLOAD DUP1 SWAP3 SWAP2 SWAP1 PUSH2 0x1B1B SWAP1 PUSH2 0x2E34 JUMP JUMPDEST SWAP2 SWAP1 POP SSTORE POP PUSH32 0x30040C92E8DA146AC410FB6841EA0F60AF3B8F3788E5E7354E48D97D018F39DD DUP2 PUSH1 0x40 MLOAD PUSH2 0x1B4F SWAP2 SWAP1 PUSH2 0x29B0 JUMP JUMPDEST PUSH1 0x40 MLOAD DUP1 SWAP2 SUB SWAP1 LOG1 JUMPDEST POP JUMP JUMPDEST PUSH1 0x1 DUP1 PUSH1 0x2 DUP2 GT ISZERO PUSH2 0x1B70 JUMPI PUSH2 0x1B6F PUSH2 0x2F0C JUMP JUMPDEST JUMPDEST PUSH1 0x15 PUSH1 0x0 SWAP1 SLOAD SWAP1 PUSH2 0x100 EXP SWAP1 DIV PUSH1 0xFF AND PUSH1 0x2 DUP2 GT ISZERO PUSH2 0x1B92 JUMPI PUSH2 0x1B91 PUSH2 0x2F0C JUMP JUMPDEST JUMPDEST EQ PUSH2 0x1BD2 JUMPI PUSH1 0x40 MLOAD PUSH32 0x8C379A000000000000000000000000000000000000000000000000000000000 DUP2 MSTORE PUSH1 0x4 ADD PUSH2 0x1BC9 SWAP1 PUSH2 0x2AE9 JUMP JUMPDEST PUSH1 0x40 MLOAD DUP1 SWAP2 SUB SWAP1 REVERT JUMPDEST PUSH1 0x10 PUSH1 0x1 ADD PUSH1 0x0 SWAP1 SLOAD SWAP1 PUSH2 0x100 EXP SWAP1 DIV PUSH20 0xFFFFFFFFFFFFFFFFFFFFFFFFFFFFFFFFFFFFFFFF AND PUSH20 0xFFFFFFFFFFFFFFFFFFFFFFFFFFFFFFFFFFFFFFFF AND CALLER PUSH20 0xFFFFFFFFFFFFFFFFFFFFFFFFFFFFFFFFFFFFFFFF AND EQ PUSH2 0x1C2F JUMPI PUSH1 0x0 DUP1 REVERT JUMPDEST PUSH1 0x2 PUSH1 0x15 PUSH1 0x0 PUSH2 0x100 EXP DUP2 SLOAD DUP2 PUSH1 0xFF MUL NOT AND SWAP1 DUP4 PUSH1 0x2 DUP2 GT ISZERO PUSH2 0x1C55 JUMPI PUSH2 0x1C54 PUSH2 0x2F0C JUMP JUMPDEST JUMPDEST MUL OR SWAP1 SSTORE POP PUSH1 0x17 SLOAD PUSH1 0x10 PUSH1 0x3 ADD DUP2 SWAP1 SSTORE POP PUSH32 0xB43A401DCDBE02A8AFA41FEB6C651425997908D1A4B79CF505188BA1DD3FD872 PUSH1 0x10 PUSH1 0x3 ADD SLOAD PUSH1 0x40 MLOAD PUSH2 0x1C9A SWAP2 SWAP1 PUSH2 0x2B69 JUMP JUMPDEST PUSH1 0x40 MLOAD DUP1 SWAP2 SUB SWAP1 LOG1 POP JUMP JUMPDEST PUSH1 0x0 DUP2 PUSH20 0xFFFFFFFFFFFFFFFFFFFFFFFFFFFFFFFFFFFFFFFF AND BALANCE SWAP1 POP SWAP2 SWAP1 POP JUMP JUMPDEST PUSH1 0x1 DUP1 PUSH1 0x0 ADD DUP1 SLOAD PUSH2 0x1CD7 SWAP1 PUSH2 0x2DD1 JUMP JUMPDEST DUP1 PUSH1 0x1F ADD PUSH1 0x20 DUP1 SWAP2 DIV MUL PUSH1 0x20 ADD PUSH1 0x40 MLOAD SWAP1 DUP2 ADD PUSH1 0x40 MSTORE DUP1 SWAP3 SWAP2 SWAP1 DUP2 DUP2 MSTORE PUSH1 0x20 ADD DUP3 DUP1 SLOAD PUSH2 0x1D03 SWAP1 PUSH2 0x2DD1 JUMP JUMPDEST DUP1 ISZERO PUSH2 0x1D50 JUMPI DUP1 PUSH1 0x1F LT PUSH2 0x1D25 JUMPI PUSH2 0x100 DUP1 DUP4 SLOAD DIV MUL DUP4 MSTORE SWAP2 PUSH1 0x20 ADD SWAP2 PUSH2 0x1D50 JUMP JUMPDEST DUP3 ADD SWAP2 SWAP1 PUSH1 0x0 MSTORE PUSH1 0x20 PUSH1 0x0 KECCAK256 SWAP1 JUMPDEST DUP2 SLOAD DUP2 MSTORE SWAP1 PUSH1 0x1 ADD SWAP1 PUSH1 0x20 ADD DUP1 DUP4 GT PUSH2 0x1D33 JUMPI DUP3 SWAP1 SUB PUSH1 0x1F AND DUP3 ADD SWAP2 JUMPDEST POP POP POP POP POP SWAP1 DUP1 PUSH1 0x1 ADD DUP1 SLOAD PUSH2 0x1D65 SWAP1 PUSH2 0x2DD1 JUMP JUMPDEST DUP1 PUSH1 0x1F ADD PUSH1 0x20 DUP1 SWAP2 DIV MUL PUSH1 0x20 ADD PUSH1 0x40 MLOAD SWAP1 DUP2 ADD PUSH1 0x40 MSTORE DUP1 SWAP3 SWAP2 SWAP1 DUP2 DUP2 MSTORE PUSH1 0x20 ADD DUP3 DUP1 SLOAD PUSH2 0x1D91 SWAP1 PUSH2 0x2DD1 JUMP JUMPDEST DUP1 ISZERO PUSH2 0x1DDE JUMPI DUP1 PUSH1 0x1F LT PUSH2 0x1DB3 JUMPI PUSH2 0x100 DUP1 DUP4 SLOAD DIV MUL DUP4 MSTORE SWAP2 PUSH1 0x20 ADD SWAP2 PUSH2 0x1DDE JUMP JUMPDEST DUP3 ADD SWAP2 SWAP1 PUSH1 0x0 MSTORE PUSH1 0x20 PUSH1 0x0 KECCAK256 SWAP1 JUMPDEST DUP2 SLOAD DUP2 MSTORE SWAP1 PUSH1 0x1 ADD SWAP1 PUSH1 0x20 ADD DUP1 DUP4 GT PUSH2 0x1DC1 JUMPI DUP3 SWAP1 SUB PUSH1 0x1F AND DUP3 ADD SWAP2 JUMPDEST POP POP POP POP POP SWAP1 DUP1 PUSH1 0x2 ADD SLOAD SWAP1 POP DUP4 JUMP JUMPDEST PUSH1 0x0 PUSH1 0x6 SLOAD PUSH1 0x1 PUSH1 0x2 ADD SLOAD PUSH2 0x1E03 SWAP2 SWAP1 PUSH2 0x2C4C JUMP JUMPDEST SWAP1 POP PUSH1 0x0 DUP3 DUP3 PUSH2 0x1E13 SWAP2 SWAP1 PUSH2 0x2C7D JUMP JUMPDEST SWAP1 POP DUP1 CALLVALUE EQ PUSH2 0x1E57 JUMPI PUSH1 0x40 MLOAD PUSH32 0x8C379A000000000000000000000000000000000000000000000000000000000 DUP2 MSTORE PUSH1 0x4 ADD PUSH2 0x1E4E SWAP1 PUSH2 0x2B09 JUMP JUMPDEST PUSH1 0x40 MLOAD DUP1 SWAP2 SUB SWAP1 REVERT JUMPDEST PUSH1 0x8 SLOAD DUP4 GT ISZERO PUSH2 0x1E9C JUMPI PUSH1 0x40 MLOAD PUSH32 0x8C379A000000000000000000000000000000000000000000000000000000000 DUP2 MSTORE PUSH1 0x4 ADD PUSH2 0x1E93 SWAP1 PUSH2 0x2AC9 JUMP JUMPDEST PUSH1 0x40 MLOAD DUP1 SWAP2 SUB SWAP1 REVERT JUMPDEST PUSH1 0x0 DUP1 SLOAD SWAP1 PUSH2 0x100 EXP SWAP1 DIV PUSH20 0xFFFFFFFFFFFFFFFFFFFFFFFFFFFFFFFFFFFFFFFF AND PUSH20 0xFFFFFFFFFFFFFFFFFFFFFFFFFFFFFFFFFFFFFFFF AND PUSH2 0x8FC CALLVALUE SWAP1 DUP2 ISZERO MUL SWAP1 PUSH1 0x40 MLOAD PUSH1 0x0 PUSH1 0x40 MLOAD DUP1 DUP4 SUB DUP2 DUP6 DUP9 DUP9 CALL SWAP4 POP POP POP POP ISZERO DUP1 ISZERO PUSH2 0x1F02 JUMPI RETURNDATASIZE PUSH1 0x0 DUP1 RETURNDATACOPY RETURNDATASIZE PUSH1 0x0 REVERT JUMPDEST POP DUP3 PUSH1 0xD PUSH1 0x0 DUP1 PUSH1 0x0 SWAP1 SLOAD SWAP1 PUSH2 0x100 EXP SWAP1 DIV PUSH20 0xFFFFFFFFFFFFFFFFFFFFFFFFFFFFFFFFFFFFFFFF AND PUSH20 0xFFFFFFFFFFFFFFFFFFFFFFFFFFFFFFFFFFFFFFFF AND PUSH20 0xFFFFFFFFFFFFFFFFFFFFFFFFFFFFFFFFFFFFFFFF AND DUP2 MSTORE PUSH1 0x20 ADD SWAP1 DUP2 MSTORE PUSH1 0x20 ADD PUSH1 0x0 KECCAK256 PUSH1 0x0 DUP3 DUP3 SLOAD PUSH2 0x1F73 SWAP2 SWAP1 PUSH2 0x2CD7 JUMP JUMPDEST SWAP3 POP POP DUP2 SWAP1 SSTORE POP DUP3 PUSH1 0xD PUSH1 0x0 CALLER PUSH20 0xFFFFFFFFFFFFFFFFFFFFFFFFFFFFFFFFFFFFFFFF AND PUSH20 0xFFFFFFFFFFFFFFFFFFFFFFFFFFFFFFFFFFFFFFFF AND DUP2 MSTORE PUSH1 0x20 ADD SWAP1 DUP2 MSTORE PUSH1 0x20 ADD PUSH1 0x0 KECCAK256 PUSH1 0x0 DUP3 DUP3 SLOAD PUSH2 0x1FC9 SWAP2 SWAP1 PUSH2 0x2BF6 JUMP JUMPDEST SWAP3 POP POP DUP2 SWAP1 SSTORE POP PUSH2 0x1FD9 CALLER PUSH2 0x1A40 JUMP JUMPDEST POP POP POP JUMP JUMPDEST PUSH1 0x0 DUP1 SLOAD SWAP1 PUSH2 0x100 EXP SWAP1 DIV PUSH20 0xFFFFFFFFFFFFFFFFFFFFFFFFFFFFFFFFFFFFFFFF AND PUSH20 0xFFFFFFFFFFFFFFFFFFFFFFFFFFFFFFFFFFFFFFFF AND CALLER PUSH20 0xFFFFFFFFFFFFFFFFFFFFFFFFFFFFFFFFFFFFFFFF AND EQ PUSH2 0x2036 JUMPI PUSH1 0x0 DUP1 REVERT JUMPDEST PUSH1 0x0 DUP1 PUSH1 0x1 DUP2 GT ISZERO PUSH2 0x204B JUMPI PUSH2 0x204A PUSH2 0x2F0C JUMP JUMPDEST JUMPDEST PUSH1 0xA PUSH1 0x0 SWAP1 SLOAD SWAP1 PUSH2 0x100 EXP SWAP1 DIV PUSH1 0xFF AND PUSH1 0x1 DUP2 GT ISZERO PUSH2 0x206D JUMPI PUSH2 0x206C PUSH2 0x2F0C JUMP JUMPDEST JUMPDEST EQ PUSH2 0x2077 JUMPI PUSH1 0x0 DUP1 REVERT JUMPDEST PUSH1 0x0 PUSH1 0x40 MLOAD DUP1 PUSH1 0x60 ADD PUSH1 0x40 MSTORE DUP1 DUP7 DUP2 MSTORE PUSH1 0x20 ADD DUP6 DUP2 MSTORE PUSH1 0x20 ADD DUP5 DUP2 MSTORE POP SWAP1 POP DUP3 PUSH1 0x1 PUSH1 0x2 ADD PUSH1 0x0 DUP3 DUP3 SLOAD PUSH2 0x20AB SWAP2 SWAP1 PUSH2 0x2BF6 JUMP JUMPDEST SWAP3 POP POP DUP2 SWAP1 SSTORE POP PUSH1 0x4 DUP2 SWAP1 DUP1 PUSH1 0x1 DUP2 SLOAD ADD DUP1 DUP3 SSTORE DUP1 SWAP2 POP POP PUSH1 0x1 SWAP1 SUB SWAP1 PUSH1 0x0 MSTORE PUSH1 0x20 PUSH1 0x0 KECCAK256 SWAP1 PUSH1 0x3 MUL ADD PUSH1 0x0 SWAP1 SWAP2 SWAP1 SWAP2 SWAP1 SWAP2 POP PUSH1 0x0 DUP3 ADD MLOAD DUP2 PUSH1 0x0 ADD SWAP1 DUP1 MLOAD SWAP1 PUSH1 0x20 ADD SWAP1 PUSH2 0x20FA SWAP3 SWAP2 SWAP1 PUSH2 0x24E0 JUMP JUMPDEST POP PUSH1 0x20 DUP3 ADD MLOAD DUP2 PUSH1 0x1 ADD SWAP1 DUP1 MLOAD SWAP1 PUSH1 0x20 ADD SWAP1 PUSH2 0x2117 SWAP3 SWAP2 SWAP1 PUSH2 0x24E0 JUMP JUMPDEST POP PUSH1 0x40 DUP3 ADD MLOAD DUP2 PUSH1 0x2 ADD SSTORE POP POP PUSH1 0x1 PUSH1 0x5 PUSH1 0x0 DUP3 DUP3 SLOAD PUSH2 0x2137 SWAP2 SWAP1 PUSH2 0x2BF6 JUMP JUMPDEST SWAP3 POP POP DUP2 SWAP1 SSTORE POP PUSH32 0x4578FE17EAAB41AE382ABE3462BB0CF04BCFEE4168D2AAD3CE9D5D225D0E27F6 DUP6 PUSH1 0x40 MLOAD PUSH2 0x216D SWAP2 SWAP1 PUSH2 0x2A01 JUMP JUMPDEST PUSH1 0x40 MLOAD DUP1 SWAP2 SUB SWAP1 LOG1 POP POP POP POP POP JUMP JUMPDEST PUSH1 0x10 DUP1 PUSH1 0x0 ADD DUP1 SLOAD PUSH2 0x218D SWAP1 PUSH2 0x2DD1 JUMP JUMPDEST DUP1 PUSH1 0x1F ADD PUSH1 0x20 DUP1 SWAP2 DIV MUL PUSH1 0x20 ADD PUSH1 0x40 MLOAD SWAP1 DUP2 ADD PUSH1 0x40 MSTORE DUP1 SWAP3 SWAP2 SWAP1 DUP2 DUP2 MSTORE PUSH1 0x20 ADD DUP3 DUP1 SLOAD PUSH2 0x21B9 SWAP1 PUSH2 0x2DD1 JUMP JUMPDEST DUP1 ISZERO PUSH2 0x2206 JUMPI DUP1 PUSH1 0x1F LT PUSH2 0x21DB JUMPI PUSH2 0x100 DUP1 DUP4 SLOAD DIV MUL DUP4 MSTORE SWAP2 PUSH1 0x20 ADD SWAP2 PUSH2 0x2206 JUMP JUMPDEST DUP3 ADD SWAP2 SWAP1 PUSH1 0x0 MSTORE PUSH1 0x20 PUSH1 0x0 KECCAK256 SWAP1 JUMPDEST DUP2 SLOAD DUP2 MSTORE SWAP1 PUSH1 0x1 ADD SWAP1 PUSH1 0x20 ADD DUP1 DUP4 GT PUSH2 0x21E9 JUMPI DUP3 SWAP1 SUB PUSH1 0x1F AND DUP3 ADD SWAP2 JUMPDEST POP POP POP POP POP SWAP1 DUP1 PUSH1 0x1 ADD PUSH1 0x0 SWAP1 SLOAD SWAP1 PUSH2 0x100 EXP SWAP1 DIV PUSH20 0xFFFFFFFFFFFFFFFFFFFFFFFFFFFFFFFFFFFFFFFF AND SWAP1 DUP1 PUSH1 0x2 ADD DUP1 SLOAD PUSH2 0x2241 SWAP1 PUSH2 0x2DD1 JUMP JUMPDEST DUP1 PUSH1 0x1F ADD PUSH1 0x20 DUP1 SWAP2 DIV MUL PUSH1 0x20 ADD PUSH1 0x40 MLOAD SWAP1 DUP2 ADD PUSH1 0x40 MSTORE DUP1 SWAP3 SWAP2 SWAP1 DUP2 DUP2 MSTORE PUSH1 0x20 ADD DUP3 DUP1 SLOAD PUSH2 0x226D SWAP1 PUSH2 0x2DD1 JUMP JUMPDEST DUP1 ISZERO PUSH2 0x22BA JUMPI DUP1 PUSH1 0x1F LT PUSH2 0x228F JUMPI PUSH2 0x100 DUP1 DUP4 SLOAD DIV MUL DUP4 MSTORE SWAP2 PUSH1 0x20 ADD SWAP2 PUSH2 0x22BA JUMP JUMPDEST DUP3 ADD SWAP2 SWAP1 PUSH1 0x0 MSTORE PUSH1 0x20 PUSH1 0x0 KECCAK256 SWAP1 JUMPDEST DUP2 SLOAD DUP2 MSTORE SWAP1 PUSH1 0x1 ADD SWAP1 PUSH1 0x20 ADD DUP1 DUP4 GT PUSH2 0x229D JUMPI DUP3 SWAP1 SUB PUSH1 0x1F AND DUP3 ADD SWAP2 JUMPDEST POP POP POP POP POP SWAP1 DUP1 PUSH1 0x3 ADD SLOAD SWAP1 DUP1 PUSH1 0x4 ADD SLOAD SWAP1 POP DUP6 JUMP JUMPDEST PUSH1 0x60 PUSH1 0x0 DUP3 EQ ISZERO PUSH2 0x2318 JUMPI PUSH1 0x40 MLOAD DUP1 PUSH1 0x40 ADD PUSH1 0x40 MSTORE DUP1 PUSH1 0x1 DUP2 MSTORE PUSH1 0x20 ADD PUSH32 0x3000000000000000000000000000000000000000000000000000000000000000 DUP2 MSTORE POP SWAP1 POP PUSH2 0x242C JUMP JUMPDEST PUSH1 0x0 DUP3 SWAP1 POP PUSH1 0x0 JUMPDEST PUSH1 0x0 DUP3 EQ PUSH2 0x234A JUMPI DUP1 DUP1 PUSH2 0x2333 SWAP1 PUSH2 0x2E34 JUMP JUMPDEST SWAP2 POP POP PUSH1 0xA DUP3 PUSH2 0x2343 SWAP2 SWAP1 PUSH2 0x2C4C JUMP JUMPDEST SWAP2 POP PUSH2 0x2320 JUMP JUMPDEST PUSH1 0x0 DUP2 PUSH8 0xFFFFFFFFFFFFFFFF DUP2 GT ISZERO PUSH2 0x2366 JUMPI PUSH2 0x2365 PUSH2 0x2F99 JUMP JUMPDEST JUMPDEST PUSH1 0x40 MLOAD SWAP1 DUP1 DUP3 MSTORE DUP1 PUSH1 0x1F ADD PUSH1 0x1F NOT AND PUSH1 0x20 ADD DUP3 ADD PUSH1 0x40 MSTORE DUP1 ISZERO PUSH2 0x2398 JUMPI DUP2 PUSH1 0x20 ADD PUSH1 0x1 DUP3 MUL DUP1 CALLDATASIZE DUP4 CALLDATACOPY DUP1 DUP3 ADD SWAP2 POP POP SWAP1 POP JUMPDEST POP SWAP1 POP JUMPDEST PUSH1 0x0 DUP6 EQ PUSH2 0x2425 JUMPI PUSH1 0x1 DUP3 PUSH2 0x23B1 SWAP2 SWAP1 PUSH2 0x2CD7 JUMP JUMPDEST SWAP2 POP PUSH1 0xA DUP6 PUSH2 0x23C0 SWAP2 SWAP1 PUSH2 0x2E7D JUMP JUMPDEST PUSH1 0x30 PUSH2 0x23CC SWAP2 SWAP1 PUSH2 0x2BF6 JUMP JUMPDEST PUSH1 0xF8 SHL DUP2 DUP4 DUP2 MLOAD DUP2 LT PUSH2 0x23E2 JUMPI PUSH2 0x23E1 PUSH2 0x2F6A JUMP JUMPDEST JUMPDEST PUSH1 0x20 ADD ADD SWAP1 PUSH31 0xFFFFFFFFFFFFFFFFFFFFFFFFFFFFFFFFFFFFFFFFFFFFFFFFFFFFFFFFFFFFFF NOT AND SWAP1 DUP2 PUSH1 0x0 BYTE SWAP1 MSTORE8 POP PUSH1 0xA DUP6 PUSH2 0x241E SWAP2 SWAP1 PUSH2 0x2C4C JUMP JUMPDEST SWAP5 POP PUSH2 0x239C JUMP JUMPDEST DUP1 SWAP4 POP POP POP POP JUMPDEST SWAP2 SWAP1 POP JUMP JUMPDEST PUSH1 0x0 DUP1 PUSH1 0x0 SWAP1 POP JUMPDEST PUSH1 0xB DUP1 SLOAD SWAP1 POP DUP2 LT ISZERO PUSH2 0x24D5 JUMPI DUP3 PUSH20 0xFFFFFFFFFFFFFFFFFFFFFFFFFFFFFFFFFFFFFFFF AND PUSH1 0xB DUP3 DUP2 SLOAD DUP2 LT PUSH2 0x2471 JUMPI PUSH2 0x2470 PUSH2 0x2F6A JUMP JUMPDEST JUMPDEST SWAP1 PUSH1 0x0 MSTORE PUSH1 0x20 PUSH1 0x0 KECCAK256 ADD PUSH1 0x0 SWAP1 SLOAD SWAP1 PUSH2 0x100 EXP SWAP1 DIV PUSH20 0xFFFFFFFFFFFFFFFFFFFFFFFFFFFFFFFFFFFFFFFF AND PUSH20 0xFFFFFFFFFFFFFFFFFFFFFFFFFFFFFFFFFFFFFFFF AND EQ ISZERO PUSH2 0x24C2 JUMPI PUSH1 0x1 SWAP2 POP POP PUSH2 0x24DB JUMP JUMPDEST DUP1 DUP1 PUSH2 0x24CD SWAP1 PUSH2 0x2E34 JUMP JUMPDEST SWAP2 POP POP PUSH2 0x2439 JUMP JUMPDEST POP PUSH1 0x0 SWAP1 POP JUMPDEST SWAP2 SWAP1 POP JUMP JUMPDEST DUP3 DUP1 SLOAD PUSH2 0x24EC SWAP1 PUSH2 0x2DD1 JUMP JUMPDEST SWAP1 PUSH1 0x0 MSTORE PUSH1 0x20 PUSH1 0x0 KECCAK256 SWAP1 PUSH1 0x1F ADD PUSH1 0x20 SWAP1 DIV DUP2 ADD SWAP3 DUP3 PUSH2 0x250E JUMPI PUSH1 0x0 DUP6 SSTORE PUSH2 0x2555 JUMP JUMPDEST DUP3 PUSH1 0x1F LT PUSH2 0x2527 JUMPI DUP1 MLOAD PUSH1 0xFF NOT AND DUP4 DUP1 ADD OR DUP6 SSTORE PUSH2 0x2555 JUMP JUMPDEST DUP3 DUP1 ADD PUSH1 0x1 ADD DUP6 SSTORE DUP3 ISZERO PUSH2 0x2555 JUMPI SWAP2 DUP3 ADD JUMPDEST DUP3 DUP2 GT ISZERO PUSH2 0x2554 JUMPI DUP3 MLOAD DUP3 SSTORE SWAP2 PUSH1 0x20 ADD SWAP2 SWAP1 PUSH1 0x1 ADD SWAP1 PUSH2 0x2539 JUMP JUMPDEST JUMPDEST POP SWAP1 POP PUSH2 0x2562 SWAP2 SWAP1 PUSH2 0x2625 JUMP JUMPDEST POP SWAP1 JUMP JUMPDEST DUP3 DUP1 SLOAD PUSH2 0x2572 SWAP1 PUSH2 0x2DD1 JUMP JUMPDEST SWAP1 PUSH1 0x0 MSTORE PUSH1 0x20 PUSH1 0x0 KECCAK256 SWAP1 PUSH1 0x1F ADD PUSH1 0x20 SWAP1 DIV DUP2 ADD SWAP3 DUP3 PUSH2 0x2594 JUMPI PUSH1 0x0 DUP6 SSTORE PUSH2 0x25E2 JUMP JUMPDEST DUP3 PUSH1 0x1F LT PUSH2 0x25A5 JUMPI DUP1 SLOAD DUP6 SSTORE PUSH2 0x25E2 JUMP JUMPDEST DUP3 DUP1 ADD PUSH1 0x1 ADD DUP6 SSTORE DUP3 ISZERO PUSH2 0x25E2 JUMPI PUSH1 0x0 MSTORE PUSH1 0x20 PUSH1 0x0 KECCAK256 SWAP2 PUSH1 0x1F ADD PUSH1 0x20 SWAP1 DIV DUP3 ADD JUMPDEST DUP3 DUP2 GT ISZERO PUSH2 0x25E1 JUMPI DUP3 SLOAD DUP3 SSTORE SWAP2 PUSH1 0x1 ADD SWAP2 SWAP1 PUSH1 0x1 ADD SWAP1 PUSH2 0x25C6 JUMP JUMPDEST JUMPDEST POP SWAP1 POP PUSH2 0x25EF SWAP2 SWAP1 PUSH2 0x2625 JUMP JUMPDEST POP SWAP1 JUMP JUMPDEST PUSH1 0x40 MLOAD DUP1 PUSH1 0x40 ADD PUSH1 0x40 MSTORE DUP1 PUSH1 0x0 PUSH20 0xFFFFFFFFFFFFFFFFFFFFFFFFFFFFFFFFFFFFFFFF AND DUP2 MSTORE PUSH1 0x20 ADD PUSH1 0x0 ISZERO ISZERO DUP2 MSTORE POP SWAP1 JUMP JUMPDEST JUMPDEST DUP1 DUP3 GT ISZERO PUSH2 0x263E JUMPI PUSH1 0x0 DUP2 PUSH1 0x0 SWAP1 SSTORE POP PUSH1 0x1 ADD PUSH2 0x2626 JUMP JUMPDEST POP SWAP1 JUMP JUMPDEST PUSH1 0x0 PUSH2 0x2655 PUSH2 0x2650 DUP5 PUSH2 0x2BA9 JUMP JUMPDEST PUSH2 0x2B84 JUMP JUMPDEST SWAP1 POP DUP3 DUP2 MSTORE PUSH1 0x20 DUP2 ADD DUP5 DUP5 DUP5 ADD GT ISZERO PUSH2 0x2671 JUMPI PUSH2 0x2670 PUSH2 0x2FCD JUMP JUMPDEST JUMPDEST PUSH2 0x267C DUP5 DUP3 DUP6 PUSH2 0x2D65 JUMP JUMPDEST POP SWAP4 SWAP3 POP POP POP JUMP JUMPDEST PUSH1 0x0 DUP2 CALLDATALOAD SWAP1 POP PUSH2 0x2693 DUP2 PUSH2 0x312C JUMP JUMPDEST SWAP3 SWAP2 POP POP JUMP JUMPDEST PUSH1 0x0 DUP2 CALLDATALOAD SWAP1 POP PUSH2 0x26A8 DUP2 PUSH2 0x3143 JUMP JUMPDEST SWAP3 SWAP2 POP POP JUMP JUMPDEST PUSH1 0x0 DUP3 PUSH1 0x1F DUP4 ADD SLT PUSH2 0x26C3 JUMPI PUSH2 0x26C2 PUSH2 0x2FC8 JUMP JUMPDEST JUMPDEST DUP2 CALLDATALOAD PUSH2 0x26D3 DUP5 DUP3 PUSH1 0x20 DUP7 ADD PUSH2 0x2642 JUMP JUMPDEST SWAP2 POP POP SWAP3 SWAP2 POP POP JUMP JUMPDEST PUSH1 0x0 DUP2 CALLDATALOAD SWAP1 POP PUSH2 0x26EB DUP2 PUSH2 0x315A JUMP JUMPDEST SWAP3 SWAP2 POP POP JUMP JUMPDEST PUSH1 0x0 PUSH1 0x20 DUP3 DUP5 SUB SLT ISZERO PUSH2 0x2707 JUMPI PUSH2 0x2706 PUSH2 0x2FD7 JUMP JUMPDEST JUMPDEST PUSH1 0x0 PUSH2 0x2715 DUP5 DUP3 DUP6 ADD PUSH2 0x2684 JUMP JUMPDEST SWAP2 POP POP SWAP3 SWAP2 POP POP JUMP JUMPDEST PUSH1 0x0 DUP1 PUSH1 0x40 DUP4 DUP6 SUB SLT ISZERO PUSH2 0x2735 JUMPI PUSH2 0x2734 PUSH2 0x2FD7 JUMP JUMPDEST JUMPDEST PUSH1 0x0 PUSH2 0x2743 DUP6 DUP3 DUP7 ADD PUSH2 0x2684 JUMP JUMPDEST SWAP3 POP POP PUSH1 0x20 PUSH2 0x2754 DUP6 DUP3 DUP7 ADD PUSH2 0x26DC JUMP JUMPDEST SWAP2 POP POP SWAP3 POP SWAP3 SWAP1 POP JUMP JUMPDEST PUSH1 0x0 PUSH1 0x20 DUP3 DUP5 SUB SLT ISZERO PUSH2 0x2774 JUMPI PUSH2 0x2773 PUSH2 0x2FD7 JUMP JUMPDEST JUMPDEST PUSH1 0x0 PUSH2 0x2782 DUP5 DUP3 DUP6 ADD PUSH2 0x2699 JUMP JUMPDEST SWAP2 POP POP SWAP3 SWAP2 POP POP JUMP JUMPDEST PUSH1 0x0 PUSH1 0x20 DUP3 DUP5 SUB SLT ISZERO PUSH2 0x27A1 JUMPI PUSH2 0x27A0 PUSH2 0x2FD7 JUMP JUMPDEST JUMPDEST PUSH1 0x0 DUP3 ADD CALLDATALOAD PUSH8 0xFFFFFFFFFFFFFFFF DUP2 GT ISZERO PUSH2 0x27BF JUMPI PUSH2 0x27BE PUSH2 0x2FD2 JUMP JUMPDEST JUMPDEST PUSH2 0x27CB DUP5 DUP3 DUP6 ADD PUSH2 0x26AE JUMP JUMPDEST SWAP2 POP POP SWAP3 SWAP2 POP POP JUMP JUMPDEST PUSH1 0x0 DUP1 PUSH1 0x0 PUSH1 0x60 DUP5 DUP7 SUB SLT ISZERO PUSH2 0x27ED JUMPI PUSH2 0x27EC PUSH2 0x2FD7 JUMP JUMPDEST JUMPDEST PUSH1 0x0 DUP5 ADD CALLDATALOAD PUSH8 0xFFFFFFFFFFFFFFFF DUP2 GT ISZERO PUSH2 0x280B JUMPI PUSH2 0x280A PUSH2 0x2FD2 JUMP JUMPDEST JUMPDEST PUSH2 0x2817 DUP7 DUP3 DUP8 ADD PUSH2 0x26AE JUMP JUMPDEST SWAP4 POP POP PUSH1 0x20 DUP5 ADD CALLDATALOAD PUSH8 0xFFFFFFFFFFFFFFFF DUP2 GT ISZERO PUSH2 0x2838 JUMPI PUSH2 0x2837 PUSH2 0x2FD2 JUMP JUMPDEST JUMPDEST PUSH2 0x2844 DUP7 DUP3 DUP8 ADD PUSH2 0x26AE JUMP JUMPDEST SWAP3 POP POP PUSH1 0x40 PUSH2 0x2855 DUP7 DUP3 DUP8 ADD PUSH2 0x26DC JUMP JUMPDEST SWAP2 POP POP SWAP3 POP SWAP3 POP SWAP3 JUMP JUMPDEST PUSH1 0x0 PUSH1 0x20 DUP3 DUP5 SUB SLT ISZERO PUSH2 0x2875 JUMPI PUSH2 0x2874 PUSH2 0x2FD7 JUMP JUMPDEST JUMPDEST PUSH1 0x0 PUSH2 0x2883 DUP5 DUP3 DUP6 ADD PUSH2 0x26DC JUMP JUMPDEST SWAP2 POP POP SWAP3 SWAP2 POP POP JUMP JUMPDEST PUSH2 0x2895 DUP2 PUSH2 0x2D1D JUMP JUMPDEST DUP3 MSTORE POP POP JUMP JUMPDEST PUSH2 0x28A4 DUP2 PUSH2 0x2D0B JUMP JUMPDEST DUP3 MSTORE POP POP JUMP JUMPDEST PUSH2 0x28B3 DUP2 PUSH2 0x2D2F JUMP JUMPDEST DUP3 MSTORE POP POP JUMP JUMPDEST PUSH1 0x0 PUSH2 0x28C4 DUP3 PUSH2 0x2BDA JUMP JUMPDEST PUSH2 0x28CE DUP2 DUP6 PUSH2 0x2BE5 JUMP JUMPDEST SWAP4 POP PUSH2 0x28DE DUP2 DUP6 PUSH1 0x20 DUP7 ADD PUSH2 0x2D74 JUMP JUMPDEST PUSH2 0x28E7 DUP2 PUSH2 0x2FDC JUMP JUMPDEST DUP5 ADD SWAP2 POP POP SWAP3 SWAP2 POP POP JUMP JUMPDEST PUSH1 0x0 PUSH2 0x28FF PUSH1 0x23 DUP4 PUSH2 0x2BE5 JUMP JUMPDEST SWAP2 POP PUSH2 0x290A DUP3 PUSH2 0x2FED JUMP JUMPDEST PUSH1 0x40 DUP3 ADD SWAP1 POP SWAP2 SWAP1 POP JUMP JUMPDEST PUSH1 0x0 PUSH2 0x2922 PUSH1 0x16 DUP4 PUSH2 0x2BE5 JUMP JUMPDEST SWAP2 POP PUSH2 0x292D DUP3 PUSH2 0x303C JUMP JUMPDEST PUSH1 0x20 DUP3 ADD SWAP1 POP SWAP2 SWAP1 POP JUMP JUMPDEST PUSH1 0x0 PUSH2 0x2945 PUSH1 0x1F DUP4 PUSH2 0x2BE5 JUMP JUMPDEST SWAP2 POP PUSH2 0x2950 DUP3 PUSH2 0x3065 JUMP JUMPDEST PUSH1 0x20 DUP3 ADD SWAP1 POP SWAP2 SWAP1 POP JUMP JUMPDEST PUSH1 0x0 PUSH2 0x2968 PUSH1 0x24 DUP4 PUSH2 0x2BE5 JUMP JUMPDEST SWAP2 POP PUSH2 0x2973 DUP3 PUSH2 0x308E JUMP JUMPDEST PUSH1 0x40 DUP3 ADD SWAP1 POP SWAP2 SWAP1 POP JUMP JUMPDEST PUSH1 0x0 PUSH2 0x298B PUSH1 0x21 DUP4 PUSH2 0x2BE5 JUMP JUMPDEST SWAP2 POP PUSH2 0x2996 DUP3 PUSH2 0x30DD JUMP JUMPDEST PUSH1 0x40 DUP3 ADD SWAP1 POP SWAP2 SWAP1 POP JUMP JUMPDEST PUSH2 0x29AA DUP2 PUSH2 0x2D5B JUMP JUMPDEST DUP3 MSTORE POP POP JUMP JUMPDEST PUSH1 0x0 PUSH1 0x20 DUP3 ADD SWAP1 POP PUSH2 0x29C5 PUSH1 0x0 DUP4 ADD DUP5 PUSH2 0x289B JUMP JUMPDEST SWAP3 SWAP2 POP POP JUMP JUMPDEST PUSH1 0x0 PUSH1 0x20 DUP3 ADD SWAP1 POP PUSH2 0x29E0 PUSH1 0x0 DUP4 ADD DUP5 PUSH2 0x288C JUMP JUMPDEST SWAP3 SWAP2 POP POP JUMP JUMPDEST PUSH1 0x0 PUSH1 0x20 DUP3 ADD SWAP1 POP PUSH2 0x29FB PUSH1 0x0 DUP4 ADD DUP5 PUSH2 0x28AA JUMP JUMPDEST SWAP3 SWAP2 POP POP JUMP JUMPDEST PUSH1 0x0 PUSH1 0x20 DUP3 ADD SWAP1 POP DUP2 DUP2 SUB PUSH1 0x0 DUP4 ADD MSTORE PUSH2 0x2A1B DUP2 DUP5 PUSH2 0x28B9 JUMP JUMPDEST SWAP1 POP SWAP3 SWAP2 POP POP JUMP JUMPDEST PUSH1 0x0 PUSH1 0xA0 DUP3 ADD SWAP1 POP DUP2 DUP2 SUB PUSH1 0x0 DUP4 ADD MSTORE PUSH2 0x2A3D DUP2 DUP9 PUSH2 0x28B9 JUMP JUMPDEST SWAP1 POP PUSH2 0x2A4C PUSH1 0x20 DUP4 ADD DUP8 PUSH2 0x289B JUMP JUMPDEST DUP2 DUP2 SUB PUSH1 0x40 DUP4 ADD MSTORE PUSH2 0x2A5E DUP2 DUP7 PUSH2 0x28B9 JUMP JUMPDEST SWAP1 POP PUSH2 0x2A6D PUSH1 0x60 DUP4 ADD DUP6 PUSH2 0x29A1 JUMP JUMPDEST PUSH2 0x2A7A PUSH1 0x80 DUP4 ADD DUP5 PUSH2 0x29A1 JUMP JUMPDEST SWAP7 SWAP6 POP POP POP POP POP POP JUMP JUMPDEST PUSH1 0x0 PUSH1 0x60 DUP3 ADD SWAP1 POP DUP2 DUP2 SUB PUSH1 0x0 DUP4 ADD MSTORE PUSH2 0x2A9E DUP2 DUP7 PUSH2 0x28B9 JUMP JUMPDEST SWAP1 POP DUP2 DUP2 SUB PUSH1 0x20 DUP4 ADD MSTORE PUSH2 0x2AB2 DUP2 DUP6 PUSH2 0x28B9 JUMP JUMPDEST SWAP1 POP PUSH2 0x2AC1 PUSH1 0x40 DUP4 ADD DUP5 PUSH2 0x29A1 JUMP JUMPDEST SWAP5 SWAP4 POP POP POP POP JUMP JUMPDEST PUSH1 0x0 PUSH1 0x20 DUP3 ADD SWAP1 POP DUP2 DUP2 SUB PUSH1 0x0 DUP4 ADD MSTORE PUSH2 0x2AE2 DUP2 PUSH2 0x28F2 JUMP JUMPDEST SWAP1 POP SWAP2 SWAP1 POP JUMP JUMPDEST PUSH1 0x0 PUSH1 0x20 DUP3 ADD SWAP1 POP DUP2 DUP2 SUB PUSH1 0x0 DUP4 ADD MSTORE PUSH2 0x2B02 DUP2 PUSH2 0x2915 JUMP JUMPDEST SWAP1 POP SWAP2 SWAP1 POP JUMP JUMPDEST PUSH1 0x0 PUSH1 0x20 DUP3 ADD SWAP1 POP DUP2 DUP2 SUB PUSH1 0x0 DUP4 ADD MSTORE PUSH2 0x2B22 DUP2 PUSH2 0x2938 JUMP JUMPDEST SWAP1 POP SWAP2 SWAP1 POP JUMP JUMPDEST PUSH1 0x0 PUSH1 0x20 DUP3 ADD SWAP1 POP DUP2 DUP2 SUB PUSH1 0x0 DUP4 ADD MSTORE PUSH2 0x2B42 DUP2 PUSH2 0x295B JUMP JUMPDEST SWAP1 POP SWAP2 SWAP1 POP JUMP JUMPDEST PUSH1 0x0 PUSH1 0x20 DUP3 ADD SWAP1 POP DUP2 DUP2 SUB PUSH1 0x0 DUP4 ADD MSTORE PUSH2 0x2B62 DUP2 PUSH2 0x297E JUMP JUMPDEST SWAP1 POP SWAP2 SWAP1 POP JUMP JUMPDEST PUSH1 0x0 PUSH1 0x20 DUP3 ADD SWAP1 POP PUSH2 0x2B7E PUSH1 0x0 DUP4 ADD DUP5 PUSH2 0x29A1 JUMP JUMPDEST SWAP3 SWAP2 POP POP JUMP JUMPDEST PUSH1 0x0 PUSH2 0x2B8E PUSH2 0x2B9F JUMP JUMPDEST SWAP1 POP PUSH2 0x2B9A DUP3 DUP3 PUSH2 0x2E03 JUMP JUMPDEST SWAP2 SWAP1 POP JUMP JUMPDEST PUSH1 0x0 PUSH1 0x40 MLOAD SWAP1 POP SWAP1 JUMP JUMPDEST PUSH1 0x0 PUSH8 0xFFFFFFFFFFFFFFFF DUP3 GT ISZERO PUSH2 0x2BC4 JUMPI PUSH2 0x2BC3 PUSH2 0x2F99 JUMP JUMPDEST JUMPDEST PUSH2 0x2BCD DUP3 PUSH2 0x2FDC JUMP JUMPDEST SWAP1 POP PUSH1 0x20 DUP2 ADD SWAP1 POP SWAP2 SWAP1 POP JUMP JUMPDEST PUSH1 0x0 DUP2 MLOAD SWAP1 POP SWAP2 SWAP1 POP JUMP JUMPDEST PUSH1 0x0 DUP3 DUP3 MSTORE PUSH1 0x20 DUP3 ADD SWAP1 POP SWAP3 SWAP2 POP POP JUMP JUMPDEST PUSH1 0x0 PUSH2 0x2C01 DUP3 PUSH2 0x2D5B JUMP JUMPDEST SWAP2 POP PUSH2 0x2C0C DUP4 PUSH2 0x2D5B JUMP JUMPDEST SWAP3 POP DUP3 PUSH32 0xFFFFFFFFFFFFFFFFFFFFFFFFFFFFFFFFFFFFFFFFFFFFFFFFFFFFFFFFFFFFFFFF SUB DUP3 GT ISZERO PUSH2 0x2C41 JUMPI PUSH2 0x2C40 PUSH2 0x2EAE JUMP JUMPDEST JUMPDEST DUP3 DUP3 ADD SWAP1 POP SWAP3 SWAP2 POP POP JUMP JUMPDEST PUSH1 0x0 PUSH2 0x2C57 DUP3 PUSH2 0x2D5B JUMP JUMPDEST SWAP2 POP PUSH2 0x2C62 DUP4 PUSH2 0x2D5B JUMP JUMPDEST SWAP3 POP DUP3 PUSH2 0x2C72 JUMPI PUSH2 0x2C71 PUSH2 0x2EDD JUMP JUMPDEST JUMPDEST DUP3 DUP3 DIV SWAP1 POP SWAP3 SWAP2 POP POP JUMP JUMPDEST PUSH1 0x0 PUSH2 0x2C88 DUP3 PUSH2 0x2D5B JUMP JUMPDEST SWAP2 POP PUSH2 0x2C93 DUP4 PUSH2 0x2D5B JUMP JUMPDEST SWAP3 POP DUP2 PUSH32 0xFFFFFFFFFFFFFFFFFFFFFFFFFFFFFFFFFFFFFFFFFFFFFFFFFFFFFFFFFFFFFFFF DIV DUP4 GT DUP3 ISZERO ISZERO AND ISZERO PUSH2 0x2CCC JUMPI PUSH2 0x2CCB PUSH2 0x2EAE JUMP JUMPDEST JUMPDEST DUP3 DUP3 MUL SWAP1 POP SWAP3 SWAP2 POP POP JUMP JUMPDEST PUSH1 0x0 PUSH2 0x2CE2 DUP3 PUSH2 0x2D5B JUMP JUMPDEST SWAP2 POP PUSH2 0x2CED DUP4 PUSH2 0x2D5B JUMP JUMPDEST SWAP3 POP DUP3 DUP3 LT ISZERO PUSH2 0x2D00 JUMPI PUSH2 0x2CFF PUSH2 0x2EAE JUMP JUMPDEST JUMPDEST DUP3 DUP3 SUB SWAP1 POP SWAP3 SWAP2 POP POP JUMP JUMPDEST PUSH1 0x0 PUSH2 0x2D16 DUP3 PUSH2 0x2D3B JUMP JUMPDEST SWAP1 POP SWAP2 SWAP1 POP JUMP JUMPDEST PUSH1 0x0 PUSH2 0x2D28 DUP3 PUSH2 0x2D3B JUMP JUMPDEST SWAP1 POP SWAP2 SWAP1 POP JUMP JUMPDEST PUSH1 0x0 DUP2 ISZERO ISZERO SWAP1 POP SWAP2 SWAP1 POP JUMP JUMPDEST PUSH1 0x0 PUSH20 0xFFFFFFFFFFFFFFFFFFFFFFFFFFFFFFFFFFFFFFFF DUP3 AND SWAP1 POP SWAP2 SWAP1 POP JUMP JUMPDEST PUSH1 0x0 DUP2 SWAP1 POP SWAP2 SWAP1 POP JUMP JUMPDEST DUP3 DUP2 DUP4 CALLDATACOPY PUSH1 0x0 DUP4 DUP4 ADD MSTORE POP POP POP JUMP JUMPDEST PUSH1 0x0 JUMPDEST DUP4 DUP2 LT ISZERO PUSH2 0x2D92 JUMPI DUP1 DUP3 ADD MLOAD DUP2 DUP5 ADD MSTORE PUSH1 0x20 DUP2 ADD SWAP1 POP PUSH2 0x2D77 JUMP JUMPDEST DUP4 DUP2 GT ISZERO PUSH2 0x2DA1 JUMPI PUSH1 0x0 DUP5 DUP5 ADD MSTORE JUMPDEST POP POP POP POP JUMP JUMPDEST PUSH1 0x0 PUSH2 0x2DB2 DUP3 PUSH2 0x2D5B JUMP JUMPDEST SWAP2 POP PUSH1 0x0 DUP3 EQ ISZERO PUSH2 0x2DC6 JUMPI PUSH2 0x2DC5 PUSH2 0x2EAE JUMP JUMPDEST JUMPDEST PUSH1 0x1 DUP3 SUB SWAP1 POP SWAP2 SWAP1 POP JUMP JUMPDEST PUSH1 0x0 PUSH1 0x2 DUP3 DIV SWAP1 POP PUSH1 0x1 DUP3 AND DUP1 PUSH2 0x2DE9 JUMPI PUSH1 0x7F DUP3 AND SWAP2 POP JUMPDEST PUSH1 0x20 DUP3 LT DUP2 EQ ISZERO PUSH2 0x2DFD JUMPI PUSH2 0x2DFC PUSH2 0x2F3B JUMP JUMPDEST JUMPDEST POP SWAP2 SWAP1 POP JUMP JUMPDEST PUSH2 0x2E0C DUP3 PUSH2 0x2FDC JUMP JUMPDEST DUP2 ADD DUP2 DUP2 LT PUSH8 0xFFFFFFFFFFFFFFFF DUP3 GT OR ISZERO PUSH2 0x2E2B JUMPI PUSH2 0x2E2A PUSH2 0x2F99 JUMP JUMPDEST JUMPDEST DUP1 PUSH1 0x40 MSTORE POP POP POP JUMP JUMPDEST PUSH1 0x0 PUSH2 0x2E3F DUP3 PUSH2 0x2D5B JUMP JUMPDEST SWAP2 POP PUSH32 0xFFFFFFFFFFFFFFFFFFFFFFFFFFFFFFFFFFFFFFFFFFFFFFFFFFFFFFFFFFFFFFFF DUP3 EQ ISZERO PUSH2 0x2E72 JUMPI PUSH2 0x2E71 PUSH2 0x2EAE JUMP JUMPDEST JUMPDEST PUSH1 0x1 DUP3 ADD SWAP1 POP SWAP2 SWAP1 POP JUMP JUMPDEST PUSH1 0x0 PUSH2 0x2E88 DUP3 PUSH2 0x2D5B JUMP JUMPDEST SWAP2 POP PUSH2 0x2E93 DUP4 PUSH2 0x2D5B JUMP JUMPDEST SWAP3 POP DUP3 PUSH2 0x2EA3 JUMPI PUSH2 0x2EA2 PUSH2 0x2EDD JUMP JUMPDEST JUMPDEST DUP3 DUP3 MOD SWAP1 POP SWAP3 SWAP2 POP POP JUMP JUMPDEST PUSH32 0x4E487B7100000000000000000000000000000000000000000000000000000000 PUSH1 0x0 MSTORE PUSH1 0x11 PUSH1 0x4 MSTORE PUSH1 0x24 PUSH1 0x0 REVERT JUMPDEST PUSH32 0x4E487B7100000000000000000000000000000000000000000000000000000000 PUSH1 0x0 MSTORE PUSH1 0x12 PUSH1 0x4 MSTORE PUSH1 0x24 PUSH1 0x0 REVERT JUMPDEST PUSH32 0x4E487B7100000000000000000000000000000000000000000000000000000000 PUSH1 0x0 MSTORE PUSH1 0x21 PUSH1 0x4 MSTORE PUSH1 0x24 PUSH1 0x0 REVERT JUMPDEST PUSH32 0x4E487B7100000000000000000000000000000000000000000000000000000000 PUSH1 0x0 MSTORE PUSH1 0x22 PUSH1 0x4 MSTORE PUSH1 0x24 PUSH1 0x0 REVERT JUMPDEST PUSH32 0x4E487B7100000000000000000000000000000000000000000000000000000000 PUSH1 0x0 MSTORE PUSH1 0x32 PUSH1 0x4 MSTORE PUSH1 0x24 PUSH1 0x0 REVERT JUMPDEST PUSH32 0x4E487B7100000000000000000000000000000000000000000000000000000000 PUSH1 0x0 MSTORE PUSH1 0x41 PUSH1 0x4 MSTORE PUSH1 0x24 PUSH1 0x0 REVERT JUMPDEST PUSH1 0x0 DUP1 REVERT JUMPDEST PUSH1 0x0 DUP1 REVERT JUMPDEST PUSH1 0x0 DUP1 REVERT JUMPDEST PUSH1 0x0 DUP1 REVERT JUMPDEST PUSH1 0x0 PUSH1 0x1F NOT PUSH1 0x1F DUP4 ADD AND SWAP1 POP SWAP2 SWAP1 POP JUMP JUMPDEST PUSH32 0x4E756D626572206F662073686172657320657863656564656420746865206C69 PUSH1 0x0 DUP3 ADD MSTORE PUSH32 0x6D69740000000000000000000000000000000000000000000000000000000000 PUSH1 0x20 DUP3 ADD MSTORE POP JUMP JUMPDEST PUSH32 0x566F74696E6720686173206E6F74207374617274656400000000000000000000 PUSH1 0x0 DUP3 ADD MSTORE POP JUMP JUMPDEST PUSH32 0x496E636F72726563742077656920616D6F756E74207375626D69747465642100 PUSH1 0x0 DUP3 ADD MSTORE POP JUMP JUMPDEST PUSH32 0x596F752068617665206E6F2072696768747320746F206372656174652062616C PUSH1 0x0 DUP3 ADD MSTORE PUSH32 0x6C6F742100000000000000000000000000000000000000000000000000000000 PUSH1 0x20 DUP3 ADD MSTORE POP JUMP JUMPDEST PUSH32 0x43616E6E6F742073656C6C2073686172657320796F7520646F206E6F74206F77 PUSH1 0x0 DUP3 ADD MSTORE PUSH32 0x6E00000000000000000000000000000000000000000000000000000000000000 PUSH1 0x20 DUP3 ADD MSTORE POP JUMP JUMPDEST PUSH2 0x3135 DUP2 PUSH2 0x2D0B JUMP JUMPDEST DUP2 EQ PUSH2 0x3140 JUMPI PUSH1 0x0 DUP1 REVERT JUMPDEST POP JUMP JUMPDEST PUSH2 0x314C DUP2 PUSH2 0x2D2F JUMP JUMPDEST DUP2 EQ PUSH2 0x3157 JUMPI PUSH1 0x0 DUP1 REVERT JUMPDEST POP JUMP JUMPDEST PUSH2 0x3163 DUP2 PUSH2 0x2D5B JUMP JUMPDEST DUP2 EQ PUSH2 0x316E JUMPI PUSH1 0x0 DUP1 REVERT JUMPDEST POP JUMP INVALID LOG2 PUSH5 0x6970667358 0x22 SLT KECCAK256 GAS 0xE PUSH24 0xA6036CF1946D8523210ABF92B978C3C3674F65B0FC1FBFF4 PUSH12 0xBC667E164736F6C63430008 SMOD STOP CALLER "
				},
				"gasEstimates": {
					"creation": {
						"codeDepositCost": "2542200",
						"executionCost": "infinite",
						"totalCost": "infinite"
					},
					"external": {
						"addHouse(string,string,uint256)": "infinite",
						"addShareHolder(address)": "infinite",
						"balances(address)": "2860",
						"ballotHistory(uint256)": "infinite",
						"buy(uint256)": "infinite",
						"createBallot(string)": "infinite",
						"currentBallot()": "infinite",
						"doVote(bool)": "infinite",
						"endVote()": "56407",
						"etherBalance(address)": "3346",
						"getMyVote()": "infinite",
						"houseRegister(uint256)": "infinite",
						"hp()": "infinite",
						"owner()": "2601",
						"removeShareHolder(address)": "infinite",
						"sellToOwner(uint256)": "infinite",
						"shareHolderRegistry(address)": "2935",
						"shareHolders(uint256)": "5045",
						"shareLimit()": "2563",
						"startTrading()": "26666",
						"startVote()": "29668",
						"tokenPrice()": "2540",
						"totalBallots()": "2496",
						"totalHouses()": "2453",
						"totalShareHolders()": "2496",
						"totalShares()": "2541",
						"transfer(address,uint256)": "infinite"
					},
					"internal": {
						"contains(address)": "infinite"
					}
				},
				"methodIdentifiers": {
					"addHouse(string,string,uint256)": "df094409",
					"addShareHolder(address)": "af769c64",
					"balances(address)": "27e235e3",
					"ballotHistory(uint256)": "2cd39acc",
					"buy(uint256)": "d96a094a",
					"createBallot(string)": "46a86576",
					"currentBallot()": "f80723a8",
					"doVote(bool)": "87caea78",
					"endVote()": "b9223946",
					"etherBalance(address)": "cd0c5896",
					"getMyVote()": "8cb647d3",
					"houseRegister(uint256)": "a14ba987",
					"hp()": "d8124c5f",
					"owner()": "8da5cb5b",
					"removeShareHolder(address)": "5ab59720",
					"sellToOwner(uint256)": "8eb54c6f",
					"shareHolderRegistry(address)": "59ea0173",
					"shareHolders(uint256)": "7427a40c",
					"shareLimit()": "3be75aa3",
					"startTrading()": "293230b8",
					"startVote()": "4c0a6af0",
					"tokenPrice()": "7ff9b596",
					"totalBallots()": "612fb2ec",
					"totalHouses()": "162d8afb",
					"totalShareHolders()": "9a982416",
					"totalShares()": "3a98ef39",
					"transfer(address,uint256)": "a9059cbb"
				}
			},
			"storageLayout": {
				"storage": [
					{
						"astId": 230,
						"contract": "MyHomeToken.sol:MyHomesToken",
						"label": "owner",
						"offset": 0,
						"slot": "0",
						"type": "t_address_payable"
					},
					{
						"astId": 233,
						"contract": "MyHomeToken.sol:MyHomesToken",
						"label": "hp",
						"offset": 0,
						"slot": "1",
						"type": "t_struct(HousingPackage)347_storage"
					},
					{
						"astId": 237,
						"contract": "MyHomeToken.sol:MyHomesToken",
						"label": "houseRegister",
						"offset": 0,
						"slot": "4",
						"type": "t_array(t_struct(House)340_storage)dyn_storage"
					},
					{
						"astId": 240,
						"contract": "MyHomeToken.sol:MyHomesToken",
						"label": "totalHouses",
						"offset": 0,
						"slot": "5",
						"type": "t_uint256"
					},
					{
						"astId": 243,
						"contract": "MyHomeToken.sol:MyHomesToken",
						"label": "totalShares",
						"offset": 0,
						"slot": "6",
						"type": "t_uint256"
					},
					{
						"astId": 246,
						"contract": "MyHomeToken.sol:MyHomesToken",
						"label": "tokenPrice",
						"offset": 0,
						"slot": "7",
						"type": "t_uint256"
					},
					{
						"astId": 249,
						"contract": "MyHomeToken.sol:MyHomesToken",
						"label": "shareLimit",
						"offset": 0,
						"slot": "8",
						"type": "t_uint256"
					},
					{
						"astId": 252,
						"contract": "MyHomeToken.sol:MyHomesToken",
						"label": "totalShareHolders",
						"offset": 0,
						"slot": "9",
						"type": "t_uint256"
					},
					{
						"astId": 255,
						"contract": "MyHomeToken.sol:MyHomesToken",
						"label": "state",
						"offset": 0,
						"slot": "10",
						"type": "t_enum(State)487"
					},
					{
						"astId": 258,
						"contract": "MyHomeToken.sol:MyHomesToken",
						"label": "shareHolders",
						"offset": 0,
						"slot": "11",
						"type": "t_array(t_address)dyn_storage"
					},
					{
						"astId": 262,
						"contract": "MyHomeToken.sol:MyHomesToken",
						"label": "shareHolderRegistry",
						"offset": 0,
						"slot": "12",
						"type": "t_mapping(t_address,t_bool)"
					},
					{
						"astId": 266,
						"contract": "MyHomeToken.sol:MyHomesToken",
						"label": "balances",
						"offset": 0,
						"slot": "13",
						"type": "t_mapping(t_address,t_uint256)"
					},
					{
						"astId": 271,
						"contract": "MyHomeToken.sol:MyHomesToken",
						"label": "ballotHistory",
						"offset": 0,
						"slot": "14",
						"type": "t_mapping(t_uint256,t_struct(Ballot)363_storage)"
					},
					{
						"astId": 274,
						"contract": "MyHomeToken.sol:MyHomesToken",
						"label": "totalBallots",
						"offset": 0,
						"slot": "15",
						"type": "t_uint256"
					},
					{
						"astId": 277,
						"contract": "MyHomeToken.sol:MyHomesToken",
						"label": "currentBallot",
						"offset": 0,
						"slot": "16",
						"type": "t_struct(Ballot)363_storage"
					},
					{
						"astId": 280,
						"contract": "MyHomeToken.sol:MyHomesToken",
						"label": "ballotState",
						"offset": 0,
						"slot": "21",
						"type": "t_enum(BallotState)484"
					},
					{
						"astId": 285,
						"contract": "MyHomeToken.sol:MyHomesToken",
						"label": "votes",
						"offset": 0,
						"slot": "22",
						"type": "t_mapping(t_uint256,t_struct(Vote)352_storage)"
					},
					{
						"astId": 287,
						"contract": "MyHomeToken.sol:MyHomesToken",
						"label": "resultCount",
						"offset": 0,
						"slot": "23",
						"type": "t_uint256"
					}
				],
				"types": {
					"t_address": {
						"encoding": "inplace",
						"label": "address",
						"numberOfBytes": "20"
					},
					"t_address_payable": {
						"encoding": "inplace",
						"label": "address payable",
						"numberOfBytes": "20"
					},
					"t_array(t_address)dyn_storage": {
						"base": "t_address",
						"encoding": "dynamic_array",
						"label": "address[]",
						"numberOfBytes": "32"
					},
					"t_array(t_struct(House)340_storage)dyn_storage": {
						"base": "t_struct(House)340_storage",
						"encoding": "dynamic_array",
						"label": "struct MyHomesToken.House[]",
						"numberOfBytes": "32"
					},
					"t_bool": {
						"encoding": "inplace",
						"label": "bool",
						"numberOfBytes": "1"
					},
					"t_enum(BallotState)484": {
						"encoding": "inplace",
						"label": "enum MyHomesToken.BallotState",
						"numberOfBytes": "1"
					},
					"t_enum(State)487": {
						"encoding": "inplace",
						"label": "enum MyHomesToken.State",
						"numberOfBytes": "1"
					},
					"t_mapping(t_address,t_bool)": {
						"encoding": "mapping",
						"key": "t_address",
						"label": "mapping(address => bool)",
						"numberOfBytes": "32",
						"value": "t_bool"
					},
					"t_mapping(t_address,t_uint256)": {
						"encoding": "mapping",
						"key": "t_address",
						"label": "mapping(address => uint256)",
						"numberOfBytes": "32",
						"value": "t_uint256"
					},
					"t_mapping(t_uint256,t_struct(Ballot)363_storage)": {
						"encoding": "mapping",
						"key": "t_uint256",
						"label": "mapping(uint256 => struct MyHomesToken.Ballot)",
						"numberOfBytes": "32",
						"value": "t_struct(Ballot)363_storage"
					},
					"t_mapping(t_uint256,t_struct(Vote)352_storage)": {
						"encoding": "mapping",
						"key": "t_uint256",
						"label": "mapping(uint256 => struct MyHomesToken.Vote)",
						"numberOfBytes": "32",
						"value": "t_struct(Vote)352_storage"
					},
					"t_string_storage": {
						"encoding": "bytes",
						"label": "string",
						"numberOfBytes": "32"
					},
					"t_struct(Ballot)363_storage": {
						"encoding": "inplace",
						"label": "struct MyHomesToken.Ballot",
						"members": [
							{
								"astId": 354,
								"contract": "MyHomeToken.sol:MyHomesToken",
								"label": "ballotId",
								"offset": 0,
								"slot": "0",
								"type": "t_string_storage"
							},
							{
								"astId": 356,
								"contract": "MyHomeToken.sol:MyHomesToken",
								"label": "ballotOwner",
								"offset": 0,
								"slot": "1",
								"type": "t_address"
							},
							{
								"astId": 358,
								"contract": "MyHomeToken.sol:MyHomesToken",
								"label": "proposal",
								"offset": 0,
								"slot": "2",
								"type": "t_string_storage"
							},
							{
								"astId": 360,
								"contract": "MyHomeToken.sol:MyHomesToken",
								"label": "finalResult",
								"offset": 0,
								"slot": "3",
								"type": "t_uint256"
							},
							{
								"astId": 362,
								"contract": "MyHomeToken.sol:MyHomesToken",
								"label": "totalVotes",
								"offset": 0,
								"slot": "4",
								"type": "t_uint256"
							}
						],
						"numberOfBytes": "160"
					},
					"t_struct(House)340_storage": {
						"encoding": "inplace",
						"label": "struct MyHomesToken.House",
						"members": [
							{
								"astId": 335,
								"contract": "MyHomeToken.sol:MyHomesToken",
								"label": "registrationId",
								"offset": 0,
								"slot": "0",
								"type": "t_string_storage"
							},
							{
								"astId": 337,
								"contract": "MyHomeToken.sol:MyHomesToken",
								"label": "physicalAddress",
								"offset": 0,
								"slot": "1",
								"type": "t_string_storage"
							},
							{
								"astId": 339,
								"contract": "MyHomeToken.sol:MyHomesToken",
								"label": "price",
								"offset": 0,
								"slot": "2",
								"type": "t_uint256"
							}
						],
						"numberOfBytes": "96"
					},
					"t_struct(HousingPackage)347_storage": {
						"encoding": "inplace",
						"label": "struct MyHomesToken.HousingPackage",
						"members": [
							{
								"astId": 342,
								"contract": "MyHomeToken.sol:MyHomesToken",
								"label": "name",
								"offset": 0,
								"slot": "0",
								"type": "t_string_storage"
							},
							{
								"astId": 344,
								"contract": "MyHomeToken.sol:MyHomesToken",
								"label": "description",
								"offset": 0,
								"slot": "1",
								"type": "t_string_storage"
							},
							{
								"astId": 346,
								"contract": "MyHomeToken.sol:MyHomesToken",
								"label": "totalValue",
								"offset": 0,
								"slot": "2",
								"type": "t_uint256"
							}
						],
						"numberOfBytes": "96"
					},
					"t_struct(Vote)352_storage": {
						"encoding": "inplace",
						"label": "struct MyHomesToken.Vote",
						"members": [
							{
								"astId": 349,
								"contract": "MyHomeToken.sol:MyHomesToken",
								"label": "shareHolderAddress",
								"offset": 0,
								"slot": "0",
								"type": "t_address"
							},
							{
								"astId": 351,
								"contract": "MyHomeToken.sol:MyHomesToken",
								"label": "choice",
								"offset": 20,
								"slot": "0",
								"type": "t_bool"
							}
						],
						"numberOfBytes": "32"
					},
					"t_uint256": {
						"encoding": "inplace",
						"label": "uint256",
						"numberOfBytes": "32"
					}
				}
			},
			"userdoc": {
				"kind": "user",
				"methods": {},
				"version": 1
			}
		}
	}
}