{
	"MyHomeToken.sol": {
		"MyHomesToken": {
			"abi": [
				{
					"inputs": [
						{
							"internalType": "string",
							"name": "_name",
							"type": "string"
						},
						{
							"internalType": "string",
							"name": "_description",
							"type": "string"
						}
					],
					"stateMutability": "nonpayable",
					"type": "constructor"
				},
				{
					"anonymous": false,
					"inputs": [
						{
							"indexed": false,
							"internalType": "string",
							"name": "id",
							"type": "string"
						}
					],
					"name": "NewHouseAdded",
					"type": "event"
				},
				{
					"anonymous": false,
					"inputs": [
						{
							"indexed": false,
							"internalType": "address",
							"name": "sh",
							"type": "address"
						}
					],
					"name": "ShareHolderAdded",
					"type": "event"
				},
				{
					"anonymous": false,
					"inputs": [
						{
							"indexed": false,
							"internalType": "address",
							"name": "shareHolder",
							"type": "address"
						}
					],
					"name": "voteDone",
					"type": "event"
				},
				{
					"anonymous": false,
					"inputs": [
						{
							"indexed": false,
							"internalType": "uint256",
							"name": "finalResult",
							"type": "uint256"
						}
					],
					"name": "voteEnded",
					"type": "event"
				},
				{
					"anonymous": false,
					"inputs": [],
					"name": "voteStarted",
					"type": "event"
				},
				{
					"inputs": [
						{
							"internalType": "string",
							"name": "_registrationId",
							"type": "string"
						},
						{
							"internalType": "string",
							"name": "location",
							"type": "string"
						},
						{
							"internalType": "uint256",
							"name": "price",
							"type": "uint256"
						}
					],
					"name": "addHouse",
					"outputs": [],
					"stateMutability": "nonpayable",
					"type": "function"
				},
				{
					"inputs": [
						{
							"internalType": "address",
							"name": "_shareHolderAddress",
							"type": "address"
						}
					],
					"name": "addShareHolder",
					"outputs": [],
					"stateMutability": "nonpayable",
					"type": "function"
				},
				{
					"inputs": [],
					"name": "ballotInitiator",
					"outputs": [
						{
							"internalType": "address",
							"name": "",
							"type": "address"
						}
					],
					"stateMutability": "view",
					"type": "function"
				},
				{
					"inputs": [],
					"name": "ballotName",
					"outputs": [
						{
							"internalType": "string",
							"name": "",
							"type": "string"
						}
					],
					"stateMutability": "view",
					"type": "function"
				},
				{
					"inputs": [
						{
							"internalType": "uint256",
							"name": "_amount",
							"type": "uint256"
						}
					],
					"name": "buy",
					"outputs": [],
					"stateMutability": "payable",
					"type": "function"
				},
				{
					"inputs": [
						{
							"internalType": "string",
							"name": "_ballotName",
							"type": "string"
						},
						{
							"internalType": "string",
							"name": "_proposal",
							"type": "string"
						}
					],
					"name": "createBallot",
					"outputs": [],
					"stateMutability": "nonpayable",
					"type": "function"
				},
				{
					"inputs": [
						{
							"internalType": "bool",
							"name": "_choice",
							"type": "bool"
						}
					],
					"name": "doVote",
					"outputs": [
						{
							"internalType": "bool",
							"name": "voted",
							"type": "bool"
						}
					],
					"stateMutability": "nonpayable",
					"type": "function"
				},
				{
					"inputs": [],
					"name": "endVote",
					"outputs": [],
					"stateMutability": "nonpayable",
					"type": "function"
				},
				{
					"inputs": [],
					"name": "finalResult",
					"outputs": [
						{
							"internalType": "uint256",
							"name": "",
							"type": "uint256"
						}
					],
					"stateMutability": "view",
					"type": "function"
				},
				{
					"inputs": [
						{
							"internalType": "uint256",
							"name": "id",
							"type": "uint256"
						}
					],
					"name": "getHouse",
					"outputs": [
						{
							"components": [
								{
									"internalType": "string",
									"name": "registrationId",
									"type": "string"
								},
								{
									"internalType": "string",
									"name": "physicalAddress",
									"type": "string"
								},
								{
									"internalType": "uint256",
									"name": "price",
									"type": "uint256"
								}
							],
							"internalType": "struct MyHomesToken.House[]",
							"name": "",
							"type": "tuple[]"
						}
					],
					"stateMutability": "view",
					"type": "function"
				},
				{
					"inputs": [],
					"name": "hp",
					"outputs": [
						{
							"internalType": "string",
							"name": "name",
							"type": "string"
						},
						{
							"internalType": "string",
							"name": "description",
							"type": "string"
						},
						{
							"internalType": "uint256",
							"name": "totalValue",
							"type": "uint256"
						}
					],
					"stateMutability": "view",
					"type": "function"
				},
				{
					"inputs": [],
					"name": "owner",
					"outputs": [
						{
							"internalType": "address",
							"name": "",
							"type": "address"
						}
					],
					"stateMutability": "view",
					"type": "function"
				},
				{
					"inputs": [],
					"name": "proposal",
					"outputs": [
						{
							"internalType": "string",
							"name": "",
							"type": "string"
						}
					],
					"stateMutability": "view",
					"type": "function"
				},
				{
					"inputs": [
						{
							"internalType": "uint256",
							"name": "_amount",
							"type": "uint256"
						}
					],
					"name": "sell",
					"outputs": [],
					"stateMutability": "nonpayable",
					"type": "function"
				},
				{
					"inputs": [
						{
							"internalType": "address",
							"name": "",
							"type": "address"
						}
					],
					"name": "shareHolderRegistry",
					"outputs": [
						{
							"internalType": "bool",
							"name": "",
							"type": "bool"
						}
					],
					"stateMutability": "view",
					"type": "function"
				},
				{
					"inputs": [
						{
							"internalType": "uint256",
							"name": "",
							"type": "uint256"
						}
					],
					"name": "shareHolders",
					"outputs": [
						{
							"internalType": "address",
							"name": "",
							"type": "address"
						}
					],
					"stateMutability": "view",
					"type": "function"
				},
				{
					"inputs": [],
					"name": "shareLimit",
					"outputs": [
						{
							"internalType": "uint256",
							"name": "",
							"type": "uint256"
						}
					],
					"stateMutability": "view",
					"type": "function"
				},
				{
					"inputs": [],
					"name": "startTrading",
					"outputs": [],
					"stateMutability": "nonpayable",
					"type": "function"
				},
				{
					"inputs": [],
					"name": "startVote",
					"outputs": [],
					"stateMutability": "nonpayable",
					"type": "function"
				},
				{
					"inputs": [],
					"name": "tokenPrice",
					"outputs": [
						{
							"internalType": "uint256",
							"name": "",
							"type": "uint256"
						}
					],
					"stateMutability": "view",
					"type": "function"
				},
				{
					"inputs": [],
					"name": "totalShareHolders",
					"outputs": [
						{
							"internalType": "uint256",
							"name": "",
							"type": "uint256"
						}
					],
					"stateMutability": "view",
					"type": "function"
				},
				{
					"inputs": [],
					"name": "totalShares",
					"outputs": [
						{
							"internalType": "uint256",
							"name": "",
							"type": "uint256"
						}
					],
					"stateMutability": "view",
					"type": "function"
				},
				{
					"inputs": [],
					"name": "totalVotes",
					"outputs": [
						{
							"internalType": "uint256",
							"name": "",
							"type": "uint256"
						}
					],
					"stateMutability": "view",
					"type": "function"
				},
				{
					"inputs": [
						{
							"internalType": "address",
							"name": "_to",
							"type": "address"
						},
						{
							"internalType": "uint256",
							"name": "_value",
							"type": "uint256"
						}
					],
					"name": "transfer",
					"outputs": [],
					"stateMutability": "nonpayable",
					"type": "function"
				}
			],
			"devdoc": {
				"kind": "dev",
				"methods": {},
				"version": 1
			},
			"evm": {
				"assembly": "    /* \"MyHomeToken.sol\":66:5256  contract MyHomesToken {... */\n  mstore(0x40, 0x80)\n    /* \"MyHomeToken.sol\":214:217  100 */\n  0x64\n    /* \"MyHomeToken.sol\":185:217  uint256 public totalShares = 100 */\n  0x06\n  sstore\n    /* \"MyHomeToken.sol\":251:252  1 */\n  0x01\n    /* \"MyHomeToken.sol\":223:252  uint256 public tokenPrice = 1 */\n  0x07\n  sstore\n    /* \"MyHomeToken.sol\":286:288  10 */\n  0x0a\n    /* \"MyHomeToken.sol\":258:288  uint256 public shareLimit = 10 */\n  0x08\n  sstore\n    /* \"MyHomeToken.sol\":326:327  0 */\n  0x00\n    /* \"MyHomeToken.sol\":294:327  uint public totalShareHolders = 0 */\n  0x09\n  sstore\n    /* \"MyHomeToken.sol\":676:677  0 */\n  0x00\n    /* \"MyHomeToken.sol\":649:677  uint private resultCount = 0 */\n  0x11\n  sstore\n    /* \"MyHomeToken.sol\":709:710  0 */\n  0x00\n    /* \"MyHomeToken.sol\":683:710  uint public finalResult = 0 */\n  0x12\n  sstore\n    /* \"MyHomeToken.sol\":741:742  0 */\n  0x00\n    /* \"MyHomeToken.sol\":716:742  uint public totalVotes = 0 */\n  0x13\n  sstore\n    /* \"MyHomeToken.sol\":791:1055  constructor(string memory _name, string memory _description) {... */\n  callvalue\n  dup1\n  iszero\n  tag_1\n  jumpi\n  0x00\n  dup1\n  revert\ntag_1:\n  pop\n  mload(0x40)\n  sub(codesize, bytecodeSize)\n  dup1\n  bytecodeSize\n  dup4\n  codecopy\n  dup2\n  dup2\n  add\n  0x40\n  mstore\n  dup2\n  add\n  swap1\n  tag_2\n  swap2\n  swap1\n  tag_3\n  jump\t// in\ntag_2:\n    /* \"MyHomeToken.sol\":870:880  msg.sender */\n  caller\n    /* \"MyHomeToken.sol\":862:867  owner */\n  0x00\n  dup1\n    /* \"MyHomeToken.sol\":862:880  owner = msg.sender */\n  0x0100\n  exp\n  dup2\n  sload\n  dup2\n  0xffffffffffffffffffffffffffffffffffffffff\n  mul\n  not\n  and\n  swap1\n  dup4\n  0xffffffffffffffffffffffffffffffffffffffff\n  and\n  mul\n  or\n  swap1\n  sstore\n  pop\n    /* \"MyHomeToken.sol\":915:926  totalShares */\n  sload(0x06)\n    /* \"MyHomeToken.sol\":890:900  _balanceOf */\n  0x0d\n    /* \"MyHomeToken.sol\":890:912  _balanceOf[msg.sender] */\n  0x00\n    /* \"MyHomeToken.sol\":901:911  msg.sender */\n  caller\n    /* \"MyHomeToken.sol\":890:912  _balanceOf[msg.sender] */\n  0xffffffffffffffffffffffffffffffffffffffff\n  and\n  0xffffffffffffffffffffffffffffffffffffffff\n  and\n  dup2\n  mstore\n  0x20\n  add\n  swap1\n  dup2\n  mstore\n  0x20\n  add\n  0x00\n  keccak256\n    /* \"MyHomeToken.sol\":890:926  _balanceOf[msg.sender] = totalShares */\n  dup2\n  swap1\n  sstore\n  pop\n    /* \"MyHomeToken.sol\":946:951  _name */\n  dup2\n    /* \"MyHomeToken.sol\":936:938  hp */\n  0x01\n    /* \"MyHomeToken.sol\":936:943  hp.name */\n  0x00\n  add\n    /* \"MyHomeToken.sol\":936:951  hp.name = _name */\n  swap1\n  dup1\n  mload\n  swap1\n  0x20\n  add\n  swap1\n  tag_6\n  swap3\n  swap2\n  swap1\n  tag_7\n  jump\t// in\ntag_6:\n  pop\n    /* \"MyHomeToken.sol\":978:990  _description */\n  dup1\n    /* \"MyHomeToken.sol\":961:963  hp */\n  0x01\n    /* \"MyHomeToken.sol\":961:975  hp.description */\n  dup1\n  add\n    /* \"MyHomeToken.sol\":961:990  hp.description = _description */\n  swap1\n  dup1\n  mload\n  swap1\n  0x20\n  add\n  swap1\n  tag_8\n  swap3\n  swap2\n  swap1\n  tag_7\n  jump\t// in\ntag_8:\n  pop\n    /* \"MyHomeToken.sol\":1016:1017  0 */\n  0x00\n    /* \"MyHomeToken.sol\":1000:1002  hp */\n  0x01\n    /* \"MyHomeToken.sol\":1000:1013  hp.totalValue */\n  0x03\n  add\n    /* \"MyHomeToken.sol\":1000:1017  hp.totalValue = 0 */\n  dup2\n  swap1\n  sstore\n  pop\n    /* \"MyHomeToken.sol\":1035:1048  State.Created */\n  0x00\n    /* \"MyHomeToken.sol\":1027:1032  state */\n  0x0a\n  0x00\n    /* \"MyHomeToken.sol\":1027:1048  state = State.Created */\n  0x0100\n  exp\n  dup2\n  sload\n  dup2\n  0xff\n  mul\n  not\n  and\n  swap1\n  dup4\n  0x01\n  dup2\n  gt\n  iszero\n  tag_9\n  jumpi\n  tag_10\n  tag_11\n  jump\t// in\ntag_10:\ntag_9:\n  mul\n  or\n  swap1\n  sstore\n  pop\n    /* \"MyHomeToken.sol\":791:1055  constructor(string memory _name, string memory _description) {... */\n  pop\n  pop\n    /* \"MyHomeToken.sol\":66:5256  contract MyHomesToken {... */\n  jump(tag_12)\ntag_7:\n  dup3\n  dup1\n  sload\n  tag_13\n  swap1\n  tag_14\n  jump\t// in\ntag_13:\n  swap1\n  0x00\n  mstore\n  keccak256(0x00, 0x20)\n  swap1\n  0x1f\n  add\n  0x20\n  swap1\n  div\n  dup2\n  add\n  swap3\n  dup3\n  tag_16\n  jumpi\n  0x00\n  dup6\n  sstore\n  jump(tag_15)\ntag_16:\n  dup3\n  0x1f\n  lt\n  tag_17\n  jumpi\n  dup1\n  mload\n  not(0xff)\n  and\n  dup4\n  dup1\n  add\n  or\n  dup6\n  sstore\n  jump(tag_15)\ntag_17:\n  dup3\n  dup1\n  add\n  0x01\n  add\n  dup6\n  sstore\n  dup3\n  iszero\n  tag_15\n  jumpi\n  swap2\n  dup3\n  add\ntag_18:\n  dup3\n  dup2\n  gt\n  iszero\n  tag_19\n  jumpi\n  dup3\n  mload\n  dup3\n  sstore\n  swap2\n  0x20\n  add\n  swap2\n  swap1\n  0x01\n  add\n  swap1\n  jump(tag_18)\ntag_19:\ntag_15:\n  pop\n  swap1\n  pop\n  tag_20\n  swap2\n  swap1\n  tag_21\n  jump\t// in\ntag_20:\n  pop\n  swap1\n  jump\t// out\ntag_21:\ntag_22:\n  dup1\n  dup3\n  gt\n  iszero\n  tag_23\n  jumpi\n  0x00\n  dup2\n  0x00\n  swap1\n  sstore\n  pop\n  0x01\n  add\n  jump(tag_22)\ntag_23:\n  pop\n  swap1\n  jump\t// out\n    /* \"#utility.yul\":7:428   */\ntag_25:\n    /* \"#utility.yul\":96:101   */\n  0x00\n    /* \"#utility.yul\":121:187   */\n  tag_27\n    /* \"#utility.yul\":137:186   */\n  tag_28\n    /* \"#utility.yul\":179:185   */\n  dup5\n    /* \"#utility.yul\":137:186   */\n  tag_29\n  jump\t// in\ntag_28:\n    /* \"#utility.yul\":121:187   */\n  tag_30\n  jump\t// in\ntag_27:\n    /* \"#utility.yul\":112:187   */\n  swap1\n  pop\n    /* \"#utility.yul\":210:216   */\n  dup3\n    /* \"#utility.yul\":203:208   */\n  dup2\n    /* \"#utility.yul\":196:217   */\n  mstore\n    /* \"#utility.yul\":248:252   */\n  0x20\n    /* \"#utility.yul\":241:246   */\n  dup2\n    /* \"#utility.yul\":237:253   */\n  add\n    /* \"#utility.yul\":286:289   */\n  dup5\n    /* \"#utility.yul\":277:283   */\n  dup5\n    /* \"#utility.yul\":272:275   */\n  dup5\n    /* \"#utility.yul\":268:284   */\n  add\n    /* \"#utility.yul\":265:290   */\n  gt\n    /* \"#utility.yul\":262:374   */\n  iszero\n  tag_31\n  jumpi\n    /* \"#utility.yul\":293:372   */\n  tag_32\n  tag_33\n  jump\t// in\ntag_32:\n    /* \"#utility.yul\":262:374   */\ntag_31:\n    /* \"#utility.yul\":383:422   */\n  tag_34\n    /* \"#utility.yul\":415:421   */\n  dup5\n    /* \"#utility.yul\":410:413   */\n  dup3\n    /* \"#utility.yul\":405:408   */\n  dup6\n    /* \"#utility.yul\":383:422   */\n  tag_35\n  jump\t// in\ntag_34:\n    /* \"#utility.yul\":102:428   */\n  pop\n    /* \"#utility.yul\":7:428   */\n  swap4\n  swap3\n  pop\n  pop\n  pop\n  jump\t// out\n    /* \"#utility.yul\":448:803   */\ntag_36:\n    /* \"#utility.yul\":515:520   */\n  0x00\n    /* \"#utility.yul\":564:567   */\n  dup3\n    /* \"#utility.yul\":557:561   */\n  0x1f\n    /* \"#utility.yul\":549:555   */\n  dup4\n    /* \"#utility.yul\":545:562   */\n  add\n    /* \"#utility.yul\":541:568   */\n  slt\n    /* \"#utility.yul\":531:653   */\n  tag_38\n  jumpi\n    /* \"#utility.yul\":572:651   */\n  tag_39\n  tag_40\n  jump\t// in\ntag_39:\n    /* \"#utility.yul\":531:653   */\ntag_38:\n    /* \"#utility.yul\":682:688   */\n  dup2\n    /* \"#utility.yul\":676:689   */\n  mload\n    /* \"#utility.yul\":707:797   */\n  tag_41\n    /* \"#utility.yul\":793:796   */\n  dup5\n    /* \"#utility.yul\":785:791   */\n  dup3\n    /* \"#utility.yul\":778:782   */\n  0x20\n    /* \"#utility.yul\":770:776   */\n  dup7\n    /* \"#utility.yul\":766:783   */\n  add\n    /* \"#utility.yul\":707:797   */\n  tag_25\n  jump\t// in\ntag_41:\n    /* \"#utility.yul\":698:797   */\n  swap2\n  pop\n    /* \"#utility.yul\":521:803   */\n  pop\n    /* \"#utility.yul\":448:803   */\n  swap3\n  swap2\n  pop\n  pop\n  jump\t// out\n    /* \"#utility.yul\":809:1662   */\ntag_3:\n    /* \"#utility.yul\":908:914   */\n  0x00\n    /* \"#utility.yul\":916:922   */\n  dup1\n    /* \"#utility.yul\":965:967   */\n  0x40\n    /* \"#utility.yul\":953:962   */\n  dup4\n    /* \"#utility.yul\":944:951   */\n  dup6\n    /* \"#utility.yul\":940:963   */\n  sub\n    /* \"#utility.yul\":936:968   */\n  slt\n    /* \"#utility.yul\":933:1052   */\n  iszero\n  tag_43\n  jumpi\n    /* \"#utility.yul\":971:1050   */\n  tag_44\n  tag_45\n  jump\t// in\ntag_44:\n    /* \"#utility.yul\":933:1052   */\ntag_43:\n    /* \"#utility.yul\":1112:1113   */\n  0x00\n    /* \"#utility.yul\":1101:1110   */\n  dup4\n    /* \"#utility.yul\":1097:1114   */\n  add\n    /* \"#utility.yul\":1091:1115   */\n  mload\n    /* \"#utility.yul\":1142:1160   */\n  0xffffffffffffffff\n    /* \"#utility.yul\":1134:1140   */\n  dup2\n    /* \"#utility.yul\":1131:1161   */\n  gt\n    /* \"#utility.yul\":1128:1245   */\n  iszero\n  tag_46\n  jumpi\n    /* \"#utility.yul\":1164:1243   */\n  tag_47\n  tag_48\n  jump\t// in\ntag_47:\n    /* \"#utility.yul\":1128:1245   */\ntag_46:\n    /* \"#utility.yul\":1269:1343   */\n  tag_49\n    /* \"#utility.yul\":1335:1342   */\n  dup6\n    /* \"#utility.yul\":1326:1332   */\n  dup3\n    /* \"#utility.yul\":1315:1324   */\n  dup7\n    /* \"#utility.yul\":1311:1333   */\n  add\n    /* \"#utility.yul\":1269:1343   */\n  tag_36\n  jump\t// in\ntag_49:\n    /* \"#utility.yul\":1259:1343   */\n  swap3\n  pop\n    /* \"#utility.yul\":1062:1353   */\n  pop\n    /* \"#utility.yul\":1413:1415   */\n  0x20\n    /* \"#utility.yul\":1402:1411   */\n  dup4\n    /* \"#utility.yul\":1398:1416   */\n  add\n    /* \"#utility.yul\":1392:1417   */\n  mload\n    /* \"#utility.yul\":1444:1462   */\n  0xffffffffffffffff\n    /* \"#utility.yul\":1436:1442   */\n  dup2\n    /* \"#utility.yul\":1433:1463   */\n  gt\n    /* \"#utility.yul\":1430:1547   */\n  iszero\n  tag_50\n  jumpi\n    /* \"#utility.yul\":1466:1545   */\n  tag_51\n  tag_48\n  jump\t// in\ntag_51:\n    /* \"#utility.yul\":1430:1547   */\ntag_50:\n    /* \"#utility.yul\":1571:1645   */\n  tag_52\n    /* \"#utility.yul\":1637:1644   */\n  dup6\n    /* \"#utility.yul\":1628:1634   */\n  dup3\n    /* \"#utility.yul\":1617:1626   */\n  dup7\n    /* \"#utility.yul\":1613:1635   */\n  add\n    /* \"#utility.yul\":1571:1645   */\n  tag_36\n  jump\t// in\ntag_52:\n    /* \"#utility.yul\":1561:1645   */\n  swap2\n  pop\n    /* \"#utility.yul\":1363:1655   */\n  pop\n    /* \"#utility.yul\":809:1662   */\n  swap3\n  pop\n  swap3\n  swap1\n  pop\n  jump\t// out\n    /* \"#utility.yul\":1668:1797   */\ntag_30:\n    /* \"#utility.yul\":1702:1708   */\n  0x00\n    /* \"#utility.yul\":1729:1749   */\n  tag_54\n  tag_55\n  jump\t// in\ntag_54:\n    /* \"#utility.yul\":1719:1749   */\n  swap1\n  pop\n    /* \"#utility.yul\":1758:1791   */\n  tag_56\n    /* \"#utility.yul\":1786:1790   */\n  dup3\n    /* \"#utility.yul\":1778:1784   */\n  dup3\n    /* \"#utility.yul\":1758:1791   */\n  tag_57\n  jump\t// in\ntag_56:\n    /* \"#utility.yul\":1668:1797   */\n  swap2\n  swap1\n  pop\n  jump\t// out\n    /* \"#utility.yul\":1803:1878   */\ntag_55:\n    /* \"#utility.yul\":1836:1842   */\n  0x00\n    /* \"#utility.yul\":1869:1871   */\n  0x40\n    /* \"#utility.yul\":1863:1872   */\n  mload\n    /* \"#utility.yul\":1853:1872   */\n  swap1\n  pop\n    /* \"#utility.yul\":1803:1878   */\n  swap1\n  jump\t// out\n    /* \"#utility.yul\":1884:2192   */\ntag_29:\n    /* \"#utility.yul\":1946:1950   */\n  0x00\n    /* \"#utility.yul\":2036:2054   */\n  0xffffffffffffffff\n    /* \"#utility.yul\":2028:2034   */\n  dup3\n    /* \"#utility.yul\":2025:2055   */\n  gt\n    /* \"#utility.yul\":2022:2078   */\n  iszero\n  tag_60\n  jumpi\n    /* \"#utility.yul\":2058:2076   */\n  tag_61\n  tag_62\n  jump\t// in\ntag_61:\n    /* \"#utility.yul\":2022:2078   */\ntag_60:\n    /* \"#utility.yul\":2096:2125   */\n  tag_63\n    /* \"#utility.yul\":2118:2124   */\n  dup3\n    /* \"#utility.yul\":2096:2125   */\n  tag_64\n  jump\t// in\ntag_63:\n    /* \"#utility.yul\":2088:2125   */\n  swap1\n  pop\n    /* \"#utility.yul\":2180:2184   */\n  0x20\n    /* \"#utility.yul\":2174:2178   */\n  dup2\n    /* \"#utility.yul\":2170:2185   */\n  add\n    /* \"#utility.yul\":2162:2185   */\n  swap1\n  pop\n    /* \"#utility.yul\":1884:2192   */\n  swap2\n  swap1\n  pop\n  jump\t// out\n    /* \"#utility.yul\":2198:2505   */\ntag_35:\n    /* \"#utility.yul\":2266:2267   */\n  0x00\n    /* \"#utility.yul\":2276:2389   */\ntag_66:\n    /* \"#utility.yul\":2290:2296   */\n  dup4\n    /* \"#utility.yul\":2287:2288   */\n  dup2\n    /* \"#utility.yul\":2284:2297   */\n  lt\n    /* \"#utility.yul\":2276:2389   */\n  iszero\n  tag_68\n  jumpi\n    /* \"#utility.yul\":2375:2376   */\n  dup1\n    /* \"#utility.yul\":2370:2373   */\n  dup3\n    /* \"#utility.yul\":2366:2377   */\n  add\n    /* \"#utility.yul\":2360:2378   */\n  mload\n    /* \"#utility.yul\":2356:2357   */\n  dup2\n    /* \"#utility.yul\":2351:2354   */\n  dup5\n    /* \"#utility.yul\":2347:2358   */\n  add\n    /* \"#utility.yul\":2340:2379   */\n  mstore\n    /* \"#utility.yul\":2312:2314   */\n  0x20\n    /* \"#utility.yul\":2309:2310   */\n  dup2\n    /* \"#utility.yul\":2305:2315   */\n  add\n    /* \"#utility.yul\":2300:2315   */\n  swap1\n  pop\n    /* \"#utility.yul\":2276:2389   */\n  jump(tag_66)\ntag_68:\n    /* \"#utility.yul\":2407:2413   */\n  dup4\n    /* \"#utility.yul\":2404:2405   */\n  dup2\n    /* \"#utility.yul\":2401:2414   */\n  gt\n    /* \"#utility.yul\":2398:2499   */\n  iszero\n  tag_69\n  jumpi\n    /* \"#utility.yul\":2487:2488   */\n  0x00\n    /* \"#utility.yul\":2478:2484   */\n  dup5\n    /* \"#utility.yul\":2473:2476   */\n  dup5\n    /* \"#utility.yul\":2469:2485   */\n  add\n    /* \"#utility.yul\":2462:2489   */\n  mstore\n    /* \"#utility.yul\":2398:2499   */\ntag_69:\n    /* \"#utility.yul\":2247:2505   */\n  pop\n    /* \"#utility.yul\":2198:2505   */\n  pop\n  pop\n  pop\n  jump\t// out\n    /* \"#utility.yul\":2511:2831   */\ntag_14:\n    /* \"#utility.yul\":2555:2561   */\n  0x00\n    /* \"#utility.yul\":2592:2593   */\n  0x02\n    /* \"#utility.yul\":2586:2590   */\n  dup3\n    /* \"#utility.yul\":2582:2594   */\n  div\n    /* \"#utility.yul\":2572:2594   */\n  swap1\n  pop\n    /* \"#utility.yul\":2639:2640   */\n  0x01\n    /* \"#utility.yul\":2633:2637   */\n  dup3\n    /* \"#utility.yul\":2629:2641   */\n  and\n    /* \"#utility.yul\":2660:2678   */\n  dup1\n    /* \"#utility.yul\":2650:2731   */\n  tag_71\n  jumpi\n    /* \"#utility.yul\":2716:2720   */\n  0x7f\n    /* \"#utility.yul\":2708:2714   */\n  dup3\n    /* \"#utility.yul\":2704:2721   */\n  and\n    /* \"#utility.yul\":2694:2721   */\n  swap2\n  pop\n    /* \"#utility.yul\":2650:2731   */\ntag_71:\n    /* \"#utility.yul\":2778:2780   */\n  0x20\n    /* \"#utility.yul\":2770:2776   */\n  dup3\n    /* \"#utility.yul\":2767:2781   */\n  lt\n    /* \"#utility.yul\":2747:2765   */\n  dup2\n    /* \"#utility.yul\":2744:2782   */\n  eq\n    /* \"#utility.yul\":2741:2825   */\n  iszero\n  tag_72\n  jumpi\n    /* \"#utility.yul\":2797:2815   */\n  tag_73\n  tag_74\n  jump\t// in\ntag_73:\n    /* \"#utility.yul\":2741:2825   */\ntag_72:\n    /* \"#utility.yul\":2562:2831   */\n  pop\n    /* \"#utility.yul\":2511:2831   */\n  swap2\n  swap1\n  pop\n  jump\t// out\n    /* \"#utility.yul\":2837:3118   */\ntag_57:\n    /* \"#utility.yul\":2920:2947   */\n  tag_76\n    /* \"#utility.yul\":2942:2946   */\n  dup3\n    /* \"#utility.yul\":2920:2947   */\n  tag_64\n  jump\t// in\ntag_76:\n    /* \"#utility.yul\":2912:2918   */\n  dup2\n    /* \"#utility.yul\":2908:2948   */\n  add\n    /* \"#utility.yul\":3050:3056   */\n  dup2\n    /* \"#utility.yul\":3038:3048   */\n  dup2\n    /* \"#utility.yul\":3035:3057   */\n  lt\n    /* \"#utility.yul\":3014:3032   */\n  0xffffffffffffffff\n    /* \"#utility.yul\":3002:3012   */\n  dup3\n    /* \"#utility.yul\":2999:3033   */\n  gt\n    /* \"#utility.yul\":2996:3058   */\n  or\n    /* \"#utility.yul\":2993:3081   */\n  iszero\n  tag_77\n  jumpi\n    /* \"#utility.yul\":3061:3079   */\n  tag_78\n  tag_62\n  jump\t// in\ntag_78:\n    /* \"#utility.yul\":2993:3081   */\ntag_77:\n    /* \"#utility.yul\":3101:3111   */\n  dup1\n    /* \"#utility.yul\":3097:3099   */\n  0x40\n    /* \"#utility.yul\":3090:3112   */\n  mstore\n    /* \"#utility.yul\":2880:3118   */\n  pop\n    /* \"#utility.yul\":2837:3118   */\n  pop\n  pop\n  jump\t// out\n    /* \"#utility.yul\":3124:3304   */\ntag_11:\n    /* \"#utility.yul\":3172:3249   */\n  0x4e487b7100000000000000000000000000000000000000000000000000000000\n    /* \"#utility.yul\":3169:3170   */\n  0x00\n    /* \"#utility.yul\":3162:3250   */\n  mstore\n    /* \"#utility.yul\":3269:3273   */\n  0x21\n    /* \"#utility.yul\":3266:3267   */\n  0x04\n    /* \"#utility.yul\":3259:3274   */\n  mstore\n    /* \"#utility.yul\":3293:3297   */\n  0x24\n    /* \"#utility.yul\":3290:3291   */\n  0x00\n    /* \"#utility.yul\":3283:3298   */\n  revert\n    /* \"#utility.yul\":3310:3490   */\ntag_74:\n    /* \"#utility.yul\":3358:3435   */\n  0x4e487b7100000000000000000000000000000000000000000000000000000000\n    /* \"#utility.yul\":3355:3356   */\n  0x00\n    /* \"#utility.yul\":3348:3436   */\n  mstore\n    /* \"#utility.yul\":3455:3459   */\n  0x22\n    /* \"#utility.yul\":3452:3453   */\n  0x04\n    /* \"#utility.yul\":3445:3460   */\n  mstore\n    /* \"#utility.yul\":3479:3483   */\n  0x24\n    /* \"#utility.yul\":3476:3477   */\n  0x00\n    /* \"#utility.yul\":3469:3484   */\n  revert\n    /* \"#utility.yul\":3496:3676   */\ntag_62:\n    /* \"#utility.yul\":3544:3621   */\n  0x4e487b7100000000000000000000000000000000000000000000000000000000\n    /* \"#utility.yul\":3541:3542   */\n  0x00\n    /* \"#utility.yul\":3534:3622   */\n  mstore\n    /* \"#utility.yul\":3641:3645   */\n  0x41\n    /* \"#utility.yul\":3638:3639   */\n  0x04\n    /* \"#utility.yul\":3631:3646   */\n  mstore\n    /* \"#utility.yul\":3665:3669   */\n  0x24\n    /* \"#utility.yul\":3662:3663   */\n  0x00\n    /* \"#utility.yul\":3655:3670   */\n  revert\n    /* \"#utility.yul\":3682:3799   */\ntag_40:\n    /* \"#utility.yul\":3791:3792   */\n  0x00\n    /* \"#utility.yul\":3788:3789   */\n  dup1\n    /* \"#utility.yul\":3781:3793   */\n  revert\n    /* \"#utility.yul\":3805:3922   */\ntag_33:\n    /* \"#utility.yul\":3914:3915   */\n  0x00\n    /* \"#utility.yul\":3911:3912   */\n  dup1\n    /* \"#utility.yul\":3904:3916   */\n  revert\n    /* \"#utility.yul\":3928:4045   */\ntag_48:\n    /* \"#utility.yul\":4037:4038   */\n  0x00\n    /* \"#utility.yul\":4034:4035   */\n  dup1\n    /* \"#utility.yul\":4027:4039   */\n  revert\n    /* \"#utility.yul\":4051:4168   */\ntag_45:\n    /* \"#utility.yul\":4160:4161   */\n  0x00\n    /* \"#utility.yul\":4157:4158   */\n  dup1\n    /* \"#utility.yul\":4150:4162   */\n  revert\n    /* \"#utility.yul\":4174:4276   */\ntag_64:\n    /* \"#utility.yul\":4215:4221   */\n  0x00\n    /* \"#utility.yul\":4266:4268   */\n  0x1f\n    /* \"#utility.yul\":4262:4269   */\n  not\n    /* \"#utility.yul\":4257:4259   */\n  0x1f\n    /* \"#utility.yul\":4250:4255   */\n  dup4\n    /* \"#utility.yul\":4246:4260   */\n  add\n    /* \"#utility.yul\":4242:4270   */\n  and\n    /* \"#utility.yul\":4232:4270   */\n  swap1\n  pop\n    /* \"#utility.yul\":4174:4276   */\n  swap2\n  swap1\n  pop\n  jump\t// out\n    /* \"MyHomeToken.sol\":66:5256  contract MyHomesToken {... */\ntag_12:\n  dataSize(sub_0)\n  dup1\n  dataOffset(sub_0)\n  0x00\n  codecopy\n  0x00\n  return\nstop\n\nsub_0: assembly {\n        /* \"MyHomeToken.sol\":66:5256  contract MyHomesToken {... */\n      mstore(0x40, 0x80)\n      jumpi(tag_1, lt(calldatasize, 0x04))\n      shr(0xe0, calldataload(0x00))\n      dup1\n      0x87caea78\n      gt\n      tag_26\n      jumpi\n      dup1\n      0xb9223946\n      gt\n      tag_27\n      jumpi\n      dup1\n      0xb9223946\n      eq\n      tag_20\n      jumpi\n      dup1\n      0xd8124c5f\n      eq\n      tag_21\n      jumpi\n      dup1\n      0xd96a094a\n      eq\n      tag_22\n      jumpi\n      dup1\n      0xdf094409\n      eq\n      tag_23\n      jumpi\n      dup1\n      0xe4849b32\n      eq\n      tag_24\n      jumpi\n      dup1\n      0xf3a8286f\n      eq\n      tag_25\n      jumpi\n      jump(tag_1)\n    tag_27:\n      dup1\n      0x87caea78\n      eq\n      tag_14\n      jumpi\n      dup1\n      0x8da5cb5b\n      eq\n      tag_15\n      jumpi\n      dup1\n      0x9a982416\n      eq\n      tag_16\n      jumpi\n      dup1\n      0xa9059cbb\n      eq\n      tag_17\n      jumpi\n      dup1\n      0xad349442\n      eq\n      tag_18\n      jumpi\n      dup1\n      0xaf769c64\n      eq\n      tag_19\n      jumpi\n      jump(tag_1)\n    tag_26:\n      dup1\n      0x4c0a6af0\n      gt\n      tag_28\n      jumpi\n      dup1\n      0x4c0a6af0\n      eq\n      tag_8\n      jumpi\n      dup1\n      0x59ea0173\n      eq\n      tag_9\n      jumpi\n      dup1\n      0x6fa4f103\n      eq\n      tag_10\n      jumpi\n      dup1\n      0x7427a40c\n      eq\n      tag_11\n      jumpi\n      dup1\n      0x753ec103\n      eq\n      tag_12\n      jumpi\n      dup1\n      0x7ff9b596\n      eq\n      tag_13\n      jumpi\n      jump(tag_1)\n    tag_28:\n      dup1\n      0x0d15fd77\n      eq\n      tag_2\n      jumpi\n      dup1\n      0x1b26586c\n      eq\n      tag_3\n      jumpi\n      dup1\n      0x293230b8\n      eq\n      tag_4\n      jumpi\n      dup1\n      0x3107c99d\n      eq\n      tag_5\n      jumpi\n      dup1\n      0x3a98ef39\n      eq\n      tag_6\n      jumpi\n      dup1\n      0x3be75aa3\n      eq\n      tag_7\n      jumpi\n    tag_1:\n      0x00\n      dup1\n      revert\n        /* \"MyHomeToken.sol\":716:742  uint public totalVotes = 0 */\n    tag_2:\n      callvalue\n      dup1\n      iszero\n      tag_29\n      jumpi\n      0x00\n      dup1\n      revert\n    tag_29:\n      pop\n      tag_30\n      tag_31\n      jump\t// in\n    tag_30:\n      mload(0x40)\n      tag_32\n      swap2\n      swap1\n      tag_33\n      jump\t// in\n    tag_32:\n      mload(0x40)\n      dup1\n      swap2\n      sub\n      swap1\n      return\n        /* \"MyHomeToken.sol\":591:615  string public ballotName */\n    tag_3:\n      callvalue\n      dup1\n      iszero\n      tag_34\n      jumpi\n      0x00\n      dup1\n      revert\n    tag_34:\n      pop\n      tag_35\n      tag_36\n      jump\t// in\n    tag_35:\n      mload(0x40)\n      tag_37\n      swap2\n      swap1\n      tag_38\n      jump\t// in\n    tag_37:\n      mload(0x40)\n      dup1\n      swap2\n      sub\n      swap1\n      return\n        /* \"MyHomeToken.sol\":1985:2068  function startTrading() public onlyRegulator {... */\n    tag_4:\n      callvalue\n      dup1\n      iszero\n      tag_39\n      jumpi\n      0x00\n      dup1\n      revert\n    tag_39:\n      pop\n      tag_40\n      tag_41\n      jump\t// in\n    tag_40:\n      stop\n        /* \"MyHomeToken.sol\":2739:2839  function getHouse(uint id) public view returns(House[] memory) {... */\n    tag_5:\n      callvalue\n      dup1\n      iszero\n      tag_42\n      jumpi\n      0x00\n      dup1\n      revert\n    tag_42:\n      pop\n      tag_43\n      0x04\n      dup1\n      calldatasize\n      sub\n      dup2\n      add\n      swap1\n      tag_44\n      swap2\n      swap1\n      tag_45\n      jump\t// in\n    tag_44:\n      tag_46\n      jump\t// in\n    tag_43:\n      mload(0x40)\n      tag_47\n      swap2\n      swap1\n      tag_48\n      jump\t// in\n    tag_47:\n      mload(0x40)\n      dup1\n      swap2\n      sub\n      swap1\n      return\n        /* \"MyHomeToken.sol\":185:217  uint256 public totalShares = 100 */\n    tag_6:\n      callvalue\n      dup1\n      iszero\n      tag_49\n      jumpi\n      0x00\n      dup1\n      revert\n    tag_49:\n      pop\n      tag_50\n      tag_51\n      jump\t// in\n    tag_50:\n      mload(0x40)\n      tag_52\n      swap2\n      swap1\n      tag_33\n      jump\t// in\n    tag_52:\n      mload(0x40)\n      dup1\n      swap2\n      sub\n      swap1\n      return\n        /* \"MyHomeToken.sol\":258:288  uint256 public shareLimit = 10 */\n    tag_7:\n      callvalue\n      dup1\n      iszero\n      tag_53\n      jumpi\n      0x00\n      dup1\n      revert\n    tag_53:\n      pop\n      tag_54\n      tag_55\n      jump\t// in\n    tag_54:\n      mload(0x40)\n      tag_56\n      swap2\n      swap1\n      tag_33\n      jump\t// in\n    tag_56:\n      mload(0x40)\n      dup1\n      swap2\n      sub\n      swap1\n      return\n        /* \"MyHomeToken.sol\":4213:4404  function startVote()... */\n    tag_8:\n      callvalue\n      dup1\n      iszero\n      tag_57\n      jumpi\n      0x00\n      dup1\n      revert\n    tag_57:\n      pop\n      tag_58\n      tag_59\n      jump\t// in\n    tag_58:\n      stop\n        /* \"MyHomeToken.sol\":393:444  mapping(address => bool) public shareHolderRegistry */\n    tag_9:\n      callvalue\n      dup1\n      iszero\n      tag_60\n      jumpi\n      0x00\n      dup1\n      revert\n    tag_60:\n      pop\n      tag_61\n      0x04\n      dup1\n      calldatasize\n      sub\n      dup2\n      add\n      swap1\n      tag_62\n      swap2\n      swap1\n      tag_63\n      jump\t// in\n    tag_62:\n      tag_64\n      jump\t// in\n    tag_61:\n      mload(0x40)\n      tag_65\n      swap2\n      swap1\n      tag_66\n      jump\t// in\n    tag_65:\n      mload(0x40)\n      dup1\n      swap2\n      sub\n      swap1\n      return\n        /* \"MyHomeToken.sol\":3974:4207  function createBallot(string memory _ballotName, string memory _proposal) public {... */\n    tag_10:\n      callvalue\n      dup1\n      iszero\n      tag_67\n      jumpi\n      0x00\n      dup1\n      revert\n    tag_67:\n      pop\n      tag_68\n      0x04\n      dup1\n      calldatasize\n      sub\n      dup2\n      add\n      swap1\n      tag_69\n      swap2\n      swap1\n      tag_70\n      jump\t// in\n    tag_69:\n      tag_71\n      jump\t// in\n    tag_68:\n      stop\n        /* \"MyHomeToken.sol\":358:387  address[] public shareHolders */\n    tag_11:\n      callvalue\n      dup1\n      iszero\n      tag_72\n      jumpi\n      0x00\n      dup1\n      revert\n    tag_72:\n      pop\n      tag_73\n      0x04\n      dup1\n      calldatasize\n      sub\n      dup2\n      add\n      swap1\n      tag_74\n      swap2\n      swap1\n      tag_45\n      jump\t// in\n    tag_74:\n      tag_75\n      jump\t// in\n    tag_73:\n      mload(0x40)\n      tag_76\n      swap2\n      swap1\n      tag_77\n      jump\t// in\n    tag_76:\n      mload(0x40)\n      dup1\n      swap2\n      sub\n      swap1\n      return\n        /* \"MyHomeToken.sol\":621:643  string public proposal */\n    tag_12:\n      callvalue\n      dup1\n      iszero\n      tag_78\n      jumpi\n      0x00\n      dup1\n      revert\n    tag_78:\n      pop\n      tag_79\n      tag_80\n      jump\t// in\n    tag_79:\n      mload(0x40)\n      tag_81\n      swap2\n      swap1\n      tag_38\n      jump\t// in\n    tag_81:\n      mload(0x40)\n      dup1\n      swap2\n      sub\n      swap1\n      return\n        /* \"MyHomeToken.sol\":223:252  uint256 public tokenPrice = 1 */\n    tag_13:\n      callvalue\n      dup1\n      iszero\n      tag_82\n      jumpi\n      0x00\n      dup1\n      revert\n    tag_82:\n      pop\n      tag_83\n      tag_84\n      jump\t// in\n    tag_83:\n      mload(0x40)\n      tag_85\n      swap2\n      swap1\n      tag_33\n      jump\t// in\n    tag_85:\n      mload(0x40)\n      dup1\n      swap2\n      sub\n      swap1\n      return\n        /* \"MyHomeToken.sol\":4410:5016  function doVote(bool _choice)... */\n    tag_14:\n      callvalue\n      dup1\n      iszero\n      tag_86\n      jumpi\n      0x00\n      dup1\n      revert\n    tag_86:\n      pop\n      tag_87\n      0x04\n      dup1\n      calldatasize\n      sub\n      dup2\n      add\n      swap1\n      tag_88\n      swap2\n      swap1\n      tag_89\n      jump\t// in\n    tag_88:\n      tag_90\n      jump\t// in\n    tag_87:\n      mload(0x40)\n      tag_91\n      swap2\n      swap1\n      tag_66\n      jump\t// in\n    tag_91:\n      mload(0x40)\n      dup1\n      swap2\n      sub\n      swap1\n      return\n        /* \"MyHomeToken.sol\":94:114  address public owner */\n    tag_15:\n      callvalue\n      dup1\n      iszero\n      tag_92\n      jumpi\n      0x00\n      dup1\n      revert\n    tag_92:\n      pop\n      tag_93\n      tag_94\n      jump\t// in\n    tag_93:\n      mload(0x40)\n      tag_95\n      swap2\n      swap1\n      tag_77\n      jump\t// in\n    tag_95:\n      mload(0x40)\n      dup1\n      swap2\n      sub\n      swap1\n      return\n        /* \"MyHomeToken.sol\":294:327  uint public totalShareHolders = 0 */\n    tag_16:\n      callvalue\n      dup1\n      iszero\n      tag_96\n      jumpi\n      0x00\n      dup1\n      revert\n    tag_96:\n      pop\n      tag_97\n      tag_98\n      jump\t// in\n    tag_97:\n      mload(0x40)\n      tag_99\n      swap2\n      swap1\n      tag_33\n      jump\t// in\n    tag_99:\n      mload(0x40)\n      dup1\n      swap2\n      sub\n      swap1\n      return\n        /* \"MyHomeToken.sol\":3223:3461  function transfer(address _to, uint256 _value) public {... */\n    tag_17:\n      callvalue\n      dup1\n      iszero\n      tag_100\n      jumpi\n      0x00\n      dup1\n      revert\n    tag_100:\n      pop\n      tag_101\n      0x04\n      dup1\n      calldatasize\n      sub\n      dup2\n      add\n      swap1\n      tag_102\n      swap2\n      swap1\n      tag_103\n      jump\t// in\n    tag_102:\n      tag_104\n      jump\t// in\n    tag_101:\n      stop\n        /* \"MyHomeToken.sol\":555:585  address public ballotInitiator */\n    tag_18:\n      callvalue\n      dup1\n      iszero\n      tag_105\n      jumpi\n      0x00\n      dup1\n      revert\n    tag_105:\n      pop\n      tag_106\n      tag_107\n      jump\t// in\n    tag_106:\n      mload(0x40)\n      tag_108\n      swap2\n      swap1\n      tag_77\n      jump\t// in\n    tag_108:\n      mload(0x40)\n      dup1\n      swap2\n      sub\n      swap1\n      return\n        /* \"MyHomeToken.sol\":2845:3217  function addShareHolder(address _shareHolderAddress)... */\n    tag_19:\n      callvalue\n      dup1\n      iszero\n      tag_109\n      jumpi\n      0x00\n      dup1\n      revert\n    tag_109:\n      pop\n      tag_110\n      0x04\n      dup1\n      calldatasize\n      sub\n      dup2\n      add\n      swap1\n      tag_111\n      swap2\n      swap1\n      tag_63\n      jump\t// in\n    tag_111:\n      tag_112\n      jump\t// in\n    tag_110:\n      stop\n        /* \"MyHomeToken.sol\":5026:5254  function endVote()... */\n    tag_20:\n      callvalue\n      dup1\n      iszero\n      tag_113\n      jumpi\n      0x00\n      dup1\n      revert\n    tag_113:\n      pop\n      tag_114\n      tag_115\n      jump\t// in\n    tag_114:\n      stop\n        /* \"MyHomeToken.sol\":120:144  HousingPackage public hp */\n    tag_21:\n      callvalue\n      dup1\n      iszero\n      tag_116\n      jumpi\n      0x00\n      dup1\n      revert\n    tag_116:\n      pop\n      tag_117\n      tag_118\n      jump\t// in\n    tag_117:\n      mload(0x40)\n      tag_119\n      swap4\n      swap3\n      swap2\n      swap1\n      tag_120\n      jump\t// in\n    tag_119:\n      mload(0x40)\n      dup1\n      swap2\n      sub\n      swap1\n      return\n        /* \"MyHomeToken.sol\":3467:3745  function buy(uint256 _amount) external payable {... */\n    tag_22:\n      tag_121\n      0x04\n      dup1\n      calldatasize\n      sub\n      dup2\n      add\n      swap1\n      tag_122\n      swap2\n      swap1\n      tag_45\n      jump\t// in\n    tag_122:\n      tag_123\n      jump\t// in\n    tag_121:\n      stop\n        /* \"MyHomeToken.sol\":2074:2454  function addHouse(string memory _registrationId, string memory location, uint256 price) ... */\n    tag_23:\n      callvalue\n      dup1\n      iszero\n      tag_124\n      jumpi\n      0x00\n      dup1\n      revert\n    tag_124:\n      pop\n      tag_125\n      0x04\n      dup1\n      calldatasize\n      sub\n      dup2\n      add\n      swap1\n      tag_126\n      swap2\n      swap1\n      tag_127\n      jump\t// in\n    tag_126:\n      tag_128\n      jump\t// in\n    tag_125:\n      stop\n        /* \"MyHomeToken.sol\":3755:3968  function sell(uint256 _amount) external {... */\n    tag_24:\n      callvalue\n      dup1\n      iszero\n      tag_129\n      jumpi\n      0x00\n      dup1\n      revert\n    tag_129:\n      pop\n      tag_130\n      0x04\n      dup1\n      calldatasize\n      sub\n      dup2\n      add\n      swap1\n      tag_131\n      swap2\n      swap1\n      tag_45\n      jump\t// in\n    tag_131:\n      tag_132\n      jump\t// in\n    tag_130:\n      stop\n        /* \"MyHomeToken.sol\":683:710  uint public finalResult = 0 */\n    tag_25:\n      callvalue\n      dup1\n      iszero\n      tag_133\n      jumpi\n      0x00\n      dup1\n      revert\n    tag_133:\n      pop\n      tag_134\n      tag_135\n      jump\t// in\n    tag_134:\n      mload(0x40)\n      tag_136\n      swap2\n      swap1\n      tag_33\n      jump\t// in\n    tag_136:\n      mload(0x40)\n      dup1\n      swap2\n      sub\n      swap1\n      return\n        /* \"MyHomeToken.sol\":716:742  uint public totalVotes = 0 */\n    tag_31:\n      sload(0x13)\n      dup2\n      jump\t// out\n        /* \"MyHomeToken.sol\":591:615  string public ballotName */\n    tag_36:\n      0x0f\n      dup1\n      sload\n      tag_137\n      swap1\n      tag_138\n      jump\t// in\n    tag_137:\n      dup1\n      0x1f\n      add\n      0x20\n      dup1\n      swap2\n      div\n      mul\n      0x20\n      add\n      mload(0x40)\n      swap1\n      dup2\n      add\n      0x40\n      mstore\n      dup1\n      swap3\n      swap2\n      swap1\n      dup2\n      dup2\n      mstore\n      0x20\n      add\n      dup3\n      dup1\n      sload\n      tag_139\n      swap1\n      tag_138\n      jump\t// in\n    tag_139:\n      dup1\n      iszero\n      tag_140\n      jumpi\n      dup1\n      0x1f\n      lt\n      tag_141\n      jumpi\n      0x0100\n      dup1\n      dup4\n      sload\n      div\n      mul\n      dup4\n      mstore\n      swap2\n      0x20\n      add\n      swap2\n      jump(tag_140)\n    tag_141:\n      dup3\n      add\n      swap2\n      swap1\n      0x00\n      mstore\n      keccak256(0x00, 0x20)\n      swap1\n    tag_142:\n      dup2\n      sload\n      dup2\n      mstore\n      swap1\n      0x01\n      add\n      swap1\n      0x20\n      add\n      dup1\n      dup4\n      gt\n      tag_142\n      jumpi\n      dup3\n      swap1\n      sub\n      0x1f\n      and\n      dup3\n      add\n      swap2\n    tag_140:\n      pop\n      pop\n      pop\n      pop\n      pop\n      dup2\n      jump\t// out\n        /* \"MyHomeToken.sol\":1985:2068  function startTrading() public onlyRegulator {... */\n    tag_41:\n        /* \"MyHomeToken.sol\":1446:1451  owner */\n      0x00\n      dup1\n      sload\n      swap1\n      0x0100\n      exp\n      swap1\n      div\n      0xffffffffffffffffffffffffffffffffffffffff\n      and\n        /* \"MyHomeToken.sol\":1432:1451  msg.sender == owner */\n      0xffffffffffffffffffffffffffffffffffffffff\n      and\n        /* \"MyHomeToken.sol\":1432:1442  msg.sender */\n      caller\n        /* \"MyHomeToken.sol\":1432:1451  msg.sender == owner */\n      0xffffffffffffffffffffffffffffffffffffffff\n      and\n      eq\n        /* \"MyHomeToken.sol\":1424:1452  require(msg.sender == owner) */\n      tag_144\n      jumpi\n      0x00\n      dup1\n      revert\n    tag_144:\n        /* \"MyHomeToken.sol\":2048:2061  State.Running */\n      0x01\n        /* \"MyHomeToken.sol\":2040:2045  state */\n      0x0a\n      0x00\n        /* \"MyHomeToken.sol\":2040:2061  state = State.Running */\n      0x0100\n      exp\n      dup2\n      sload\n      dup2\n      0xff\n      mul\n      not\n      and\n      swap1\n      dup4\n      0x01\n      dup2\n      gt\n      iszero\n      tag_146\n      jumpi\n      tag_147\n      tag_148\n      jump\t// in\n    tag_147:\n    tag_146:\n      mul\n      or\n      swap1\n      sstore\n      pop\n        /* \"MyHomeToken.sol\":1985:2068  function startTrading() public onlyRegulator {... */\n      jump\t// out\n        /* \"MyHomeToken.sol\":2739:2839  function getHouse(uint id) public view returns(House[] memory) {... */\n    tag_46:\n        /* \"MyHomeToken.sol\":2786:2800  House[] memory */\n      0x60\n        /* \"MyHomeToken.sol\":2819:2832  houseRegister */\n      0x05\n        /* \"MyHomeToken.sol\":2812:2832  return houseRegister */\n      dup1\n      sload\n      dup1\n      0x20\n      mul\n      0x20\n      add\n      mload(0x40)\n      swap1\n      dup2\n      add\n      0x40\n      mstore\n      dup1\n      swap3\n      swap2\n      swap1\n      dup2\n      dup2\n      mstore\n      0x20\n      add\n      0x00\n      swap1\n    tag_150:\n      dup3\n      dup3\n      lt\n      iszero\n      tag_151\n      jumpi\n      dup4\n      dup3\n      swap1\n      0x00\n      mstore\n      keccak256(0x00, 0x20)\n      swap1\n      0x03\n      mul\n      add\n      mload(0x40)\n      dup1\n      0x60\n      add\n      0x40\n      mstore\n      swap1\n      dup2\n      0x00\n      dup3\n      add\n      dup1\n      sload\n      tag_153\n      swap1\n      tag_138\n      jump\t// in\n    tag_153:\n      dup1\n      0x1f\n      add\n      0x20\n      dup1\n      swap2\n      div\n      mul\n      0x20\n      add\n      mload(0x40)\n      swap1\n      dup2\n      add\n      0x40\n      mstore\n      dup1\n      swap3\n      swap2\n      swap1\n      dup2\n      dup2\n      mstore\n      0x20\n      add\n      dup3\n      dup1\n      sload\n      tag_154\n      swap1\n      tag_138\n      jump\t// in\n    tag_154:\n      dup1\n      iszero\n      tag_155\n      jumpi\n      dup1\n      0x1f\n      lt\n      tag_156\n      jumpi\n      0x0100\n      dup1\n      dup4\n      sload\n      div\n      mul\n      dup4\n      mstore\n      swap2\n      0x20\n      add\n      swap2\n      jump(tag_155)\n    tag_156:\n      dup3\n      add\n      swap2\n      swap1\n      0x00\n      mstore\n      keccak256(0x00, 0x20)\n      swap1\n    tag_157:\n      dup2\n      sload\n      dup2\n      mstore\n      swap1\n      0x01\n      add\n      swap1\n      0x20\n      add\n      dup1\n      dup4\n      gt\n      tag_157\n      jumpi\n      dup3\n      swap1\n      sub\n      0x1f\n      and\n      dup3\n      add\n      swap2\n    tag_155:\n      pop\n      pop\n      pop\n      pop\n      pop\n      dup2\n      mstore\n      0x20\n      add\n      0x01\n      dup3\n      add\n      dup1\n      sload\n      tag_158\n      swap1\n      tag_138\n      jump\t// in\n    tag_158:\n      dup1\n      0x1f\n      add\n      0x20\n      dup1\n      swap2\n      div\n      mul\n      0x20\n      add\n      mload(0x40)\n      swap1\n      dup2\n      add\n      0x40\n      mstore\n      dup1\n      swap3\n      swap2\n      swap1\n      dup2\n      dup2\n      mstore\n      0x20\n      add\n      dup3\n      dup1\n      sload\n      tag_159\n      swap1\n      tag_138\n      jump\t// in\n    tag_159:\n      dup1\n      iszero\n      tag_160\n      jumpi\n      dup1\n      0x1f\n      lt\n      tag_161\n      jumpi\n      0x0100\n      dup1\n      dup4\n      sload\n      div\n      mul\n      dup4\n      mstore\n      swap2\n      0x20\n      add\n      swap2\n      jump(tag_160)\n    tag_161:\n      dup3\n      add\n      swap2\n      swap1\n      0x00\n      mstore\n      keccak256(0x00, 0x20)\n      swap1\n    tag_162:\n      dup2\n      sload\n      dup2\n      mstore\n      swap1\n      0x01\n      add\n      swap1\n      0x20\n      add\n      dup1\n      dup4\n      gt\n      tag_162\n      jumpi\n      dup3\n      swap1\n      sub\n      0x1f\n      and\n      dup3\n      add\n      swap2\n    tag_160:\n      pop\n      pop\n      pop\n      pop\n      pop\n      dup2\n      mstore\n      0x20\n      add\n      0x02\n      dup3\n      add\n      sload\n      dup2\n      mstore\n      pop\n      pop\n      dup2\n      mstore\n      0x20\n      add\n      swap1\n      0x01\n      add\n      swap1\n      jump(tag_150)\n    tag_151:\n      pop\n      pop\n      pop\n      pop\n      swap1\n      pop\n        /* \"MyHomeToken.sol\":2739:2839  function getHouse(uint id) public view returns(House[] memory) {... */\n      swap2\n      swap1\n      pop\n      jump\t// out\n        /* \"MyHomeToken.sol\":185:217  uint256 public totalShares = 100 */\n    tag_51:\n      sload(0x06)\n      dup2\n      jump\t// out\n        /* \"MyHomeToken.sol\":258:288  uint256 public shareLimit = 10 */\n    tag_55:\n      sload(0x08)\n      dup2\n      jump\t// out\n        /* \"MyHomeToken.sol\":4213:4404  function startVote()... */\n    tag_59:\n        /* \"MyHomeToken.sol\":4271:4290  BallotState.Created */\n      0x00\n        /* \"MyHomeToken.sol\":1696:1702  _state */\n      dup1\n        /* \"MyHomeToken.sol\":1681:1702  ballotState == _state */\n      0x02\n      dup2\n      gt\n      iszero\n      tag_164\n      jumpi\n      tag_165\n      tag_148\n      jump\t// in\n    tag_165:\n    tag_164:\n        /* \"MyHomeToken.sol\":1681:1692  ballotState */\n      0x0e\n      0x00\n      swap1\n      sload\n      swap1\n      0x0100\n      exp\n      swap1\n      div\n      0xff\n      and\n        /* \"MyHomeToken.sol\":1681:1702  ballotState == _state */\n      0x02\n      dup2\n      gt\n      iszero\n      tag_166\n      jumpi\n      tag_167\n      tag_148\n      jump\t// in\n    tag_167:\n    tag_166:\n      eq\n        /* \"MyHomeToken.sol\":1673:1703  require(ballotState == _state) */\n      tag_168\n      jumpi\n      0x00\n      dup1\n      revert\n    tag_168:\n        /* \"MyHomeToken.sol\":1598:1613  ballotInitiator */\n      0x0e\n      0x01\n      swap1\n      sload\n      swap1\n      0x0100\n      exp\n      swap1\n      div\n      0xffffffffffffffffffffffffffffffffffffffff\n      and\n        /* \"MyHomeToken.sol\":1584:1613  msg.sender == ballotInitiator */\n      0xffffffffffffffffffffffffffffffffffffffff\n      and\n        /* \"MyHomeToken.sol\":1584:1594  msg.sender */\n      caller\n        /* \"MyHomeToken.sol\":1584:1613  msg.sender == ballotInitiator */\n      0xffffffffffffffffffffffffffffffffffffffff\n      and\n      eq\n        /* \"MyHomeToken.sol\":1576:1614  require(msg.sender == ballotInitiator) */\n      tag_170\n      jumpi\n      0x00\n      dup1\n      revert\n    tag_170:\n        /* \"MyHomeToken.sol\":4348:4366  BallotState.Voting */\n      0x01\n        /* \"MyHomeToken.sol\":4334:4345  ballotState */\n      0x0e\n      0x00\n        /* \"MyHomeToken.sol\":4334:4366  ballotState = BallotState.Voting */\n      0x0100\n      exp\n      dup2\n      sload\n      dup2\n      0xff\n      mul\n      not\n      and\n      swap1\n      dup4\n      0x02\n      dup2\n      gt\n      iszero\n      tag_172\n      jumpi\n      tag_173\n      tag_148\n      jump\t// in\n    tag_173:\n    tag_172:\n      mul\n      or\n      swap1\n      sstore\n      pop\n        /* \"MyHomeToken.sol\":4384:4397  voteStarted() */\n      0xd0dc01800a369fef30d3fced5275b8b916549867622e79efca5245c479fda4ea\n      mload(0x40)\n      mload(0x40)\n      dup1\n      swap2\n      sub\n      swap1\n      log1\n        /* \"MyHomeToken.sol\":4213:4404  function startVote()... */\n      pop\n      jump\t// out\n        /* \"MyHomeToken.sol\":393:444  mapping(address => bool) public shareHolderRegistry */\n    tag_64:\n      mstore(0x20, 0x0c)\n      dup1\n      0x00\n      mstore\n      keccak256(0x00, 0x40)\n      0x00\n      swap2\n      pop\n      sload\n      swap1\n      0x0100\n      exp\n      swap1\n      div\n      0xff\n      and\n      dup2\n      jump\t// out\n        /* \"MyHomeToken.sol\":3974:4207  function createBallot(string memory _ballotName, string memory _proposal) public {... */\n    tag_71:\n        /* \"MyHomeToken.sol\":4079:4098  BallotState.Created */\n      0x00\n        /* \"MyHomeToken.sol\":4065:4076  ballotState */\n      0x0e\n      0x00\n        /* \"MyHomeToken.sol\":4065:4098  ballotState = BallotState.Created */\n      0x0100\n      exp\n      dup2\n      sload\n      dup2\n      0xff\n      mul\n      not\n      and\n      swap1\n      dup4\n      0x02\n      dup2\n      gt\n      iszero\n      tag_175\n      jumpi\n      tag_176\n      tag_148\n      jump\t// in\n    tag_176:\n    tag_175:\n      mul\n      or\n      swap1\n      sstore\n      pop\n        /* \"MyHomeToken.sol\":4121:4132  _ballotName */\n      dup2\n        /* \"MyHomeToken.sol\":4108:4118  ballotName */\n      0x0f\n        /* \"MyHomeToken.sol\":4108:4132  ballotName = _ballotName */\n      swap1\n      dup1\n      mload\n      swap1\n      0x20\n      add\n      swap1\n      tag_177\n      swap3\n      swap2\n      swap1\n      tag_178\n      jump\t// in\n    tag_177:\n      pop\n        /* \"MyHomeToken.sol\":4153:4162  _proposal */\n      dup1\n        /* \"MyHomeToken.sol\":4142:4150  proposal */\n      0x10\n        /* \"MyHomeToken.sol\":4142:4162  proposal = _proposal */\n      swap1\n      dup1\n      mload\n      swap1\n      0x20\n      add\n      swap1\n      tag_179\n      swap3\n      swap2\n      swap1\n      tag_178\n      jump\t// in\n    tag_179:\n      pop\n        /* \"MyHomeToken.sol\":4190:4200  msg.sender */\n      caller\n        /* \"MyHomeToken.sol\":4172:4187  ballotInitiator */\n      0x0e\n      0x01\n        /* \"MyHomeToken.sol\":4172:4200  ballotInitiator = msg.sender */\n      0x0100\n      exp\n      dup2\n      sload\n      dup2\n      0xffffffffffffffffffffffffffffffffffffffff\n      mul\n      not\n      and\n      swap1\n      dup4\n      0xffffffffffffffffffffffffffffffffffffffff\n      and\n      mul\n      or\n      swap1\n      sstore\n      pop\n        /* \"MyHomeToken.sol\":3974:4207  function createBallot(string memory _ballotName, string memory _proposal) public {... */\n      pop\n      pop\n      jump\t// out\n        /* \"MyHomeToken.sol\":358:387  address[] public shareHolders */\n    tag_75:\n      0x0b\n      dup2\n      dup2\n      sload\n      dup2\n      lt\n      tag_180\n      jumpi\n      0x00\n      dup1\n      revert\n    tag_180:\n      swap1\n      0x00\n      mstore\n      keccak256(0x00, 0x20)\n      add\n      0x00\n      swap2\n      pop\n      sload\n      swap1\n      0x0100\n      exp\n      swap1\n      div\n      0xffffffffffffffffffffffffffffffffffffffff\n      and\n      dup2\n      jump\t// out\n        /* \"MyHomeToken.sol\":621:643  string public proposal */\n    tag_80:\n      0x10\n      dup1\n      sload\n      tag_182\n      swap1\n      tag_138\n      jump\t// in\n    tag_182:\n      dup1\n      0x1f\n      add\n      0x20\n      dup1\n      swap2\n      div\n      mul\n      0x20\n      add\n      mload(0x40)\n      swap1\n      dup2\n      add\n      0x40\n      mstore\n      dup1\n      swap3\n      swap2\n      swap1\n      dup2\n      dup2\n      mstore\n      0x20\n      add\n      dup3\n      dup1\n      sload\n      tag_183\n      swap1\n      tag_138\n      jump\t// in\n    tag_183:\n      dup1\n      iszero\n      tag_184\n      jumpi\n      dup1\n      0x1f\n      lt\n      tag_185\n      jumpi\n      0x0100\n      dup1\n      dup4\n      sload\n      div\n      mul\n      dup4\n      mstore\n      swap2\n      0x20\n      add\n      swap2\n      jump(tag_184)\n    tag_185:\n      dup3\n      add\n      swap2\n      swap1\n      0x00\n      mstore\n      keccak256(0x00, 0x20)\n      swap1\n    tag_186:\n      dup2\n      sload\n      dup2\n      mstore\n      swap1\n      0x01\n      add\n      swap1\n      0x20\n      add\n      dup1\n      dup4\n      gt\n      tag_186\n      jumpi\n      dup3\n      swap1\n      sub\n      0x1f\n      and\n      dup3\n      add\n      swap2\n    tag_184:\n      pop\n      pop\n      pop\n      pop\n      pop\n      dup2\n      jump\t// out\n        /* \"MyHomeToken.sol\":223:252  uint256 public tokenPrice = 1 */\n    tag_84:\n      sload(0x07)\n      dup2\n      jump\t// out\n        /* \"MyHomeToken.sol\":4410:5016  function doVote(bool _choice)... */\n    tag_90:\n        /* \"MyHomeToken.sol\":4514:4524  bool voted */\n      0x00\n        /* \"MyHomeToken.sol\":4477:4495  BallotState.Voting */\n      0x01\n        /* \"MyHomeToken.sol\":1696:1702  _state */\n      dup1\n        /* \"MyHomeToken.sol\":1681:1702  ballotState == _state */\n      0x02\n      dup2\n      gt\n      iszero\n      tag_188\n      jumpi\n      tag_189\n      tag_148\n      jump\t// in\n    tag_189:\n    tag_188:\n        /* \"MyHomeToken.sol\":1681:1692  ballotState */\n      0x0e\n      0x00\n      swap1\n      sload\n      swap1\n      0x0100\n      exp\n      swap1\n      div\n      0xff\n      and\n        /* \"MyHomeToken.sol\":1681:1702  ballotState == _state */\n      0x02\n      dup2\n      gt\n      iszero\n      tag_190\n      jumpi\n      tag_191\n      tag_148\n      jump\t// in\n    tag_191:\n    tag_190:\n      eq\n        /* \"MyHomeToken.sol\":1673:1703  require(ballotState == _state) */\n      tag_192\n      jumpi\n      0x00\n      dup1\n      revert\n    tag_192:\n        /* \"MyHomeToken.sol\":4540:4550  bool found */\n      0x00\n        /* \"MyHomeToken.sol\":4573:4592  shareHolderRegistry */\n      0x0c\n        /* \"MyHomeToken.sol\":4573:4604  shareHolderRegistry[msg.sender] */\n      0x00\n        /* \"MyHomeToken.sol\":4593:4603  msg.sender */\n      caller\n        /* \"MyHomeToken.sol\":4573:4604  shareHolderRegistry[msg.sender] */\n      0xffffffffffffffffffffffffffffffffffffffff\n      and\n      0xffffffffffffffffffffffffffffffffffffffff\n      and\n      dup2\n      mstore\n      0x20\n      add\n      swap1\n      dup2\n      mstore\n      0x20\n      add\n      0x00\n      keccak256\n      0x00\n      swap1\n      sload\n      swap1\n      0x0100\n      exp\n      swap1\n      div\n      0xff\n      and\n        /* \"MyHomeToken.sol\":4568:4953  if (!shareHolderRegistry[msg.sender]){... */\n      tag_194\n      jumpi\n        /* \"MyHomeToken.sol\":4653:4657  true */\n      0x01\n        /* \"MyHomeToken.sol\":4619:4638  shareHolderRegistry */\n      0x0c\n        /* \"MyHomeToken.sol\":4619:4650  shareHolderRegistry[msg.sender] */\n      0x00\n        /* \"MyHomeToken.sol\":4639:4649  msg.sender */\n      caller\n        /* \"MyHomeToken.sol\":4619:4650  shareHolderRegistry[msg.sender] */\n      0xffffffffffffffffffffffffffffffffffffffff\n      and\n      0xffffffffffffffffffffffffffffffffffffffff\n      and\n      dup2\n      mstore\n      0x20\n      add\n      swap1\n      dup2\n      mstore\n      0x20\n      add\n      0x00\n      keccak256\n      0x00\n        /* \"MyHomeToken.sol\":4619:4657  shareHolderRegistry[msg.sender] = true */\n      0x0100\n      exp\n      dup2\n      sload\n      dup2\n      0xff\n      mul\n      not\n      and\n      swap1\n      dup4\n      iszero\n      iszero\n      mul\n      or\n      swap1\n      sstore\n      pop\n        /* \"MyHomeToken.sol\":4671:4684  Vote memory v */\n      tag_195\n      tag_196\n      jump\t// in\n    tag_195:\n        /* \"MyHomeToken.sol\":4721:4731  msg.sender */\n      caller\n        /* \"MyHomeToken.sol\":4698:4699  v */\n      dup2\n        /* \"MyHomeToken.sol\":4698:4718  v.shareHolderAddress */\n      0x00\n      add\n        /* \"MyHomeToken.sol\":4698:4731  v.shareHolderAddress = msg.sender */\n      swap1\n      0xffffffffffffffffffffffffffffffffffffffff\n      and\n      swap1\n      dup2\n      0xffffffffffffffffffffffffffffffffffffffff\n      and\n      dup2\n      mstore\n      pop\n      pop\n        /* \"MyHomeToken.sol\":4756:4763  _choice */\n      dup5\n        /* \"MyHomeToken.sol\":4745:4746  v */\n      dup2\n        /* \"MyHomeToken.sol\":4745:4753  v.choice */\n      0x20\n      add\n        /* \"MyHomeToken.sol\":4745:4763  v.choice = _choice */\n      swap1\n      iszero\n      iszero\n      swap1\n      dup2\n      iszero\n      iszero\n      dup2\n      mstore\n      pop\n      pop\n        /* \"MyHomeToken.sol\":4781:4788  _choice */\n      dup5\n        /* \"MyHomeToken.sol\":4777:4856  if (_choice){... */\n      iszero\n      tag_197\n      jumpi\n        /* \"MyHomeToken.sol\":4807:4818  resultCount */\n      0x11\n      0x00\n        /* \"MyHomeToken.sol\":4807:4820  resultCount++ */\n      dup2\n      sload\n      dup1\n      swap3\n      swap2\n      swap1\n      tag_198\n      swap1\n      tag_199\n      jump\t// in\n    tag_198:\n      swap2\n      swap1\n      pop\n      sstore\n      pop\n        /* \"MyHomeToken.sol\":4777:4856  if (_choice){... */\n    tag_197:\n        /* \"MyHomeToken.sol\":4889:4890  v */\n      dup1\n        /* \"MyHomeToken.sol\":4869:4874  votes */\n      0x14\n        /* \"MyHomeToken.sol\":4869:4886  votes[totalVotes] */\n      0x00\n        /* \"MyHomeToken.sol\":4875:4885  totalVotes */\n      sload(0x13)\n        /* \"MyHomeToken.sol\":4869:4886  votes[totalVotes] */\n      dup2\n      mstore\n      0x20\n      add\n      swap1\n      dup2\n      mstore\n      0x20\n      add\n      0x00\n      keccak256\n        /* \"MyHomeToken.sol\":4869:4890  votes[totalVotes] = v */\n      0x00\n      dup3\n      add\n      mload\n      dup2\n      0x00\n      add\n      exp(0x0100, 0x00)\n      dup2\n      sload\n      dup2\n      0xffffffffffffffffffffffffffffffffffffffff\n      mul\n      not\n      and\n      swap1\n      dup4\n      0xffffffffffffffffffffffffffffffffffffffff\n      and\n      mul\n      or\n      swap1\n      sstore\n      pop\n      0x20\n      dup3\n      add\n      mload\n      dup2\n      0x00\n      add\n      exp(0x0100, 0x14)\n      dup2\n      sload\n      dup2\n      0xff\n      mul\n      not\n      and\n      swap1\n      dup4\n      iszero\n      iszero\n      mul\n      or\n      swap1\n      sstore\n      pop\n      swap1\n      pop\n      pop\n        /* \"MyHomeToken.sol\":4904:4914  totalVotes */\n      0x13\n      0x00\n        /* \"MyHomeToken.sol\":4904:4916  totalVotes++ */\n      dup2\n      sload\n      dup1\n      swap3\n      swap2\n      swap1\n      tag_200\n      swap1\n      tag_199\n      jump\t// in\n    tag_200:\n      swap2\n      swap1\n      pop\n      sstore\n      pop\n        /* \"MyHomeToken.sol\":4938:4942  true */\n      0x01\n        /* \"MyHomeToken.sol\":4930:4942  found = true */\n      swap2\n      pop\n        /* \"MyHomeToken.sol\":4605:4953  {... */\n      pop\n        /* \"MyHomeToken.sol\":4568:4953  if (!shareHolderRegistry[msg.sender]){... */\n    tag_194:\n        /* \"MyHomeToken.sol\":4967:4987  voteDone(msg.sender) */\n      0x55c65cf9526efdf6c2252fe9757889dbd93e10172cad0f2edb1df619c88dbf7d\n        /* \"MyHomeToken.sol\":4976:4986  msg.sender */\n      caller\n        /* \"MyHomeToken.sol\":4967:4987  voteDone(msg.sender) */\n      mload(0x40)\n      tag_201\n      swap2\n      swap1\n      tag_77\n      jump\t// in\n    tag_201:\n      mload(0x40)\n      dup1\n      swap2\n      sub\n      swap1\n      log1\n        /* \"MyHomeToken.sol\":5004:5009  found */\n      dup1\n        /* \"MyHomeToken.sol\":4997:5009  return found */\n      swap3\n      pop\n      pop\n        /* \"MyHomeToken.sol\":4410:5016  function doVote(bool _choice)... */\n      pop\n      swap2\n      swap1\n      pop\n      jump\t// out\n        /* \"MyHomeToken.sol\":94:114  address public owner */\n    tag_94:\n      0x00\n      dup1\n      sload\n      swap1\n      0x0100\n      exp\n      swap1\n      div\n      0xffffffffffffffffffffffffffffffffffffffff\n      and\n      dup2\n      jump\t// out\n        /* \"MyHomeToken.sol\":294:327  uint public totalShareHolders = 0 */\n    tag_98:\n      sload(0x09)\n      dup2\n      jump\t// out\n        /* \"MyHomeToken.sol\":3223:3461  function transfer(address _to, uint256 _value) public {... */\n    tag_104:\n        /* \"MyHomeToken.sol\":3325:3331  _value */\n      dup1\n        /* \"MyHomeToken.sol\":3299:3309  _balanceOf */\n      0x0d\n        /* \"MyHomeToken.sol\":3299:3321  _balanceOf[msg.sender] */\n      0x00\n        /* \"MyHomeToken.sol\":3310:3320  msg.sender */\n      caller\n        /* \"MyHomeToken.sol\":3299:3321  _balanceOf[msg.sender] */\n      0xffffffffffffffffffffffffffffffffffffffff\n      and\n      0xffffffffffffffffffffffffffffffffffffffff\n      and\n      dup2\n      mstore\n      0x20\n      add\n      swap1\n      dup2\n      mstore\n      0x20\n      add\n      0x00\n      keccak256\n      sload\n        /* \"MyHomeToken.sol\":3299:3331  _balanceOf[msg.sender] >= _value */\n      lt\n      iszero\n        /* \"MyHomeToken.sol\":3290:3332  require (_balanceOf[msg.sender] >= _value) */\n      tag_203\n      jumpi\n      0x00\n      dup1\n      revert\n    tag_203:\n        /* \"MyHomeToken.sol\":3367:3372  owner */\n      0x00\n      dup1\n      sload\n      swap1\n      0x0100\n      exp\n      swap1\n      div\n      0xffffffffffffffffffffffffffffffffffffffff\n      and\n        /* \"MyHomeToken.sol\":3353:3372  msg.sender == owner */\n      0xffffffffffffffffffffffffffffffffffffffff\n      and\n        /* \"MyHomeToken.sol\":3353:3363  msg.sender */\n      caller\n        /* \"MyHomeToken.sol\":3353:3372  msg.sender == owner */\n      0xffffffffffffffffffffffffffffffffffffffff\n      and\n      eq\n        /* \"MyHomeToken.sol\":3345:3373  require(msg.sender == owner) */\n      tag_204\n      jumpi\n      0x00\n      dup1\n      revert\n    tag_204:\n        /* \"MyHomeToken.sol\":3412:3418  _value */\n      dup1\n        /* \"MyHomeToken.sol\":3386:3396  _balanceOf */\n      0x0d\n        /* \"MyHomeToken.sol\":3386:3408  _balanceOf[msg.sender] */\n      0x00\n        /* \"MyHomeToken.sol\":3397:3407  msg.sender */\n      caller\n        /* \"MyHomeToken.sol\":3386:3408  _balanceOf[msg.sender] */\n      0xffffffffffffffffffffffffffffffffffffffff\n      and\n      0xffffffffffffffffffffffffffffffffffffffff\n      and\n      dup2\n      mstore\n      0x20\n      add\n      swap1\n      dup2\n      mstore\n      0x20\n      add\n      0x00\n      keccak256\n      0x00\n        /* \"MyHomeToken.sol\":3386:3418  _balanceOf[msg.sender] -= _value */\n      dup3\n      dup3\n      sload\n      tag_205\n      swap2\n      swap1\n      tag_206\n      jump\t// in\n    tag_205:\n      swap3\n      pop\n      pop\n      dup2\n      swap1\n      sstore\n      pop\n        /* \"MyHomeToken.sol\":3448:3454  _value */\n      dup1\n        /* \"MyHomeToken.sol\":3431:3441  _balanceOf */\n      0x0d\n        /* \"MyHomeToken.sol\":3431:3446  _balanceOf[_to] */\n      0x00\n        /* \"MyHomeToken.sol\":3442:3445  _to */\n      dup5\n        /* \"MyHomeToken.sol\":3431:3446  _balanceOf[_to] */\n      0xffffffffffffffffffffffffffffffffffffffff\n      and\n      0xffffffffffffffffffffffffffffffffffffffff\n      and\n      dup2\n      mstore\n      0x20\n      add\n      swap1\n      dup2\n      mstore\n      0x20\n      add\n      0x00\n      keccak256\n      0x00\n        /* \"MyHomeToken.sol\":3431:3454  _balanceOf[_to]+=_value */\n      dup3\n      dup3\n      sload\n      tag_207\n      swap2\n      swap1\n      tag_208\n      jump\t// in\n    tag_207:\n      swap3\n      pop\n      pop\n      dup2\n      swap1\n      sstore\n      pop\n        /* \"MyHomeToken.sol\":3223:3461  function transfer(address _to, uint256 _value) public {... */\n      pop\n      pop\n      jump\t// out\n        /* \"MyHomeToken.sol\":555:585  address public ballotInitiator */\n    tag_107:\n      0x0e\n      0x01\n      swap1\n      sload\n      swap1\n      0x0100\n      exp\n      swap1\n      div\n      0xffffffffffffffffffffffffffffffffffffffff\n      and\n      dup2\n      jump\t// out\n        /* \"MyHomeToken.sol\":2845:3217  function addShareHolder(address _shareHolderAddress)... */\n    tag_112:\n        /* \"MyHomeToken.sol\":1446:1451  owner */\n      0x00\n      dup1\n      sload\n      swap1\n      0x0100\n      exp\n      swap1\n      div\n      0xffffffffffffffffffffffffffffffffffffffff\n      and\n        /* \"MyHomeToken.sol\":1432:1451  msg.sender == owner */\n      0xffffffffffffffffffffffffffffffffffffffff\n      and\n        /* \"MyHomeToken.sol\":1432:1442  msg.sender */\n      caller\n        /* \"MyHomeToken.sol\":1432:1451  msg.sender == owner */\n      0xffffffffffffffffffffffffffffffffffffffff\n      and\n      eq\n        /* \"MyHomeToken.sol\":1424:1452  require(msg.sender == owner) */\n      tag_210\n      jumpi\n      0x00\n      dup1\n      revert\n    tag_210:\n        /* \"MyHomeToken.sol\":2957:2986  contains(_shareHolderAddress) */\n      tag_212\n        /* \"MyHomeToken.sol\":2966:2985  _shareHolderAddress */\n      dup2\n        /* \"MyHomeToken.sol\":2957:2965  contains */\n      tag_213\n        /* \"MyHomeToken.sol\":2957:2986  contains(_shareHolderAddress) */\n      jump\t// in\n    tag_212:\n        /* \"MyHomeToken.sol\":2953:3202  if(!contains(_shareHolderAddress)) {... */\n      tag_214\n      jumpi\n        /* \"MyHomeToken.sol\":3045:3050  false */\n      0x00\n        /* \"MyHomeToken.sol\":3002:3021  shareHolderRegistry */\n      0x0c\n        /* \"MyHomeToken.sol\":3002:3042  shareHolderRegistry[_shareHolderAddress] */\n      0x00\n        /* \"MyHomeToken.sol\":3022:3041  _shareHolderAddress */\n      dup4\n        /* \"MyHomeToken.sol\":3002:3042  shareHolderRegistry[_shareHolderAddress] */\n      0xffffffffffffffffffffffffffffffffffffffff\n      and\n      0xffffffffffffffffffffffffffffffffffffffff\n      and\n      dup2\n      mstore\n      0x20\n      add\n      swap1\n      dup2\n      mstore\n      0x20\n      add\n      0x00\n      keccak256\n      0x00\n        /* \"MyHomeToken.sol\":3002:3050  shareHolderRegistry[_shareHolderAddress] = false */\n      0x0100\n      exp\n      dup2\n      sload\n      dup2\n      0xff\n      mul\n      not\n      and\n      swap1\n      dup4\n      iszero\n      iszero\n      mul\n      or\n      swap1\n      sstore\n      pop\n        /* \"MyHomeToken.sol\":3064:3076  shareHolders */\n      0x0b\n        /* \"MyHomeToken.sol\":3082:3101  _shareHolderAddress */\n      dup2\n        /* \"MyHomeToken.sol\":3064:3102  shareHolders.push(_shareHolderAddress) */\n      swap1\n      dup1\n      0x01\n      dup2\n      sload\n      add\n      dup1\n      dup3\n      sstore\n      dup1\n      swap2\n      pop\n      pop\n      0x01\n      swap1\n      sub\n      swap1\n      0x00\n      mstore\n      keccak256(0x00, 0x20)\n      add\n      0x00\n      swap1\n      swap2\n      swap1\n      swap2\n      swap1\n      swap2\n      0x0100\n      exp\n      dup2\n      sload\n      dup2\n      0xffffffffffffffffffffffffffffffffffffffff\n      mul\n      not\n      and\n      swap1\n      dup4\n      0xffffffffffffffffffffffffffffffffffffffff\n      and\n      mul\n      or\n      swap1\n      sstore\n      pop\n        /* \"MyHomeToken.sol\":3116:3133  totalShareHolders */\n      0x09\n      0x00\n        /* \"MyHomeToken.sol\":3116:3135  totalShareHolders++ */\n      dup2\n      sload\n      dup1\n      swap3\n      swap2\n      swap1\n      tag_216\n      swap1\n      tag_199\n      jump\t// in\n    tag_216:\n      swap2\n      swap1\n      pop\n      sstore\n      pop\n        /* \"MyHomeToken.sol\":3154:3191  ShareHolderAdded(_shareHolderAddress) */\n      0x30040c92e8da146ac410fb6841ea0f60af3b8f3788e5e7354e48d97d018f39dd\n        /* \"MyHomeToken.sol\":3171:3190  _shareHolderAddress */\n      dup2\n        /* \"MyHomeToken.sol\":3154:3191  ShareHolderAdded(_shareHolderAddress) */\n      mload(0x40)\n      tag_217\n      swap2\n      swap1\n      tag_77\n      jump\t// in\n    tag_217:\n      mload(0x40)\n      dup1\n      swap2\n      sub\n      swap1\n      log1\n        /* \"MyHomeToken.sol\":2953:3202  if(!contains(_shareHolderAddress)) {... */\n    tag_214:\n        /* \"MyHomeToken.sol\":2845:3217  function addShareHolder(address _shareHolderAddress)... */\n      pop\n      jump\t// out\n        /* \"MyHomeToken.sol\":5026:5254  function endVote()... */\n    tag_115:\n        /* \"MyHomeToken.sol\":5082:5100  BallotState.Voting */\n      0x01\n        /* \"MyHomeToken.sol\":1696:1702  _state */\n      dup1\n        /* \"MyHomeToken.sol\":1681:1702  ballotState == _state */\n      0x02\n      dup2\n      gt\n      iszero\n      tag_219\n      jumpi\n      tag_220\n      tag_148\n      jump\t// in\n    tag_220:\n    tag_219:\n        /* \"MyHomeToken.sol\":1681:1692  ballotState */\n      0x0e\n      0x00\n      swap1\n      sload\n      swap1\n      0x0100\n      exp\n      swap1\n      div\n      0xff\n      and\n        /* \"MyHomeToken.sol\":1681:1702  ballotState == _state */\n      0x02\n      dup2\n      gt\n      iszero\n      tag_221\n      jumpi\n      tag_222\n      tag_148\n      jump\t// in\n    tag_222:\n    tag_221:\n      eq\n        /* \"MyHomeToken.sol\":1673:1703  require(ballotState == _state) */\n      tag_223\n      jumpi\n      0x00\n      dup1\n      revert\n    tag_223:\n        /* \"MyHomeToken.sol\":1598:1613  ballotInitiator */\n      0x0e\n      0x01\n      swap1\n      sload\n      swap1\n      0x0100\n      exp\n      swap1\n      div\n      0xffffffffffffffffffffffffffffffffffffffff\n      and\n        /* \"MyHomeToken.sol\":1584:1613  msg.sender == ballotInitiator */\n      0xffffffffffffffffffffffffffffffffffffffff\n      and\n        /* \"MyHomeToken.sol\":1584:1594  msg.sender */\n      caller\n        /* \"MyHomeToken.sol\":1584:1613  msg.sender == ballotInitiator */\n      0xffffffffffffffffffffffffffffffffffffffff\n      and\n      eq\n        /* \"MyHomeToken.sol\":1576:1614  require(msg.sender == ballotInitiator) */\n      tag_225\n      jumpi\n      0x00\n      dup1\n      revert\n    tag_225:\n        /* \"MyHomeToken.sol\":5158:5175  BallotState.Ended */\n      0x02\n        /* \"MyHomeToken.sol\":5144:5155  ballotState */\n      0x0e\n      0x00\n        /* \"MyHomeToken.sol\":5144:5175  ballotState = BallotState.Ended */\n      0x0100\n      exp\n      dup2\n      sload\n      dup2\n      0xff\n      mul\n      not\n      and\n      swap1\n      dup4\n      0x02\n      dup2\n      gt\n      iszero\n      tag_227\n      jumpi\n      tag_228\n      tag_148\n      jump\t// in\n    tag_228:\n    tag_227:\n      mul\n      or\n      swap1\n      sstore\n      pop\n        /* \"MyHomeToken.sol\":5199:5210  resultCount */\n      sload(0x11)\n        /* \"MyHomeToken.sol\":5185:5196  finalResult */\n      0x12\n        /* \"MyHomeToken.sol\":5185:5210  finalResult = resultCount */\n      dup2\n      swap1\n      sstore\n      pop\n        /* \"MyHomeToken.sol\":5225:5247  voteEnded(finalResult) */\n      0xb43a401dcdbe02a8afa41feb6c651425997908d1a4b79cf505188ba1dd3fd872\n        /* \"MyHomeToken.sol\":5235:5246  finalResult */\n      sload(0x12)\n        /* \"MyHomeToken.sol\":5225:5247  voteEnded(finalResult) */\n      mload(0x40)\n      tag_229\n      swap2\n      swap1\n      tag_33\n      jump\t// in\n    tag_229:\n      mload(0x40)\n      dup1\n      swap2\n      sub\n      swap1\n      log1\n        /* \"MyHomeToken.sol\":5026:5254  function endVote()... */\n      pop\n      jump\t// out\n        /* \"MyHomeToken.sol\":120:144  HousingPackage public hp */\n    tag_118:\n      0x01\n      dup1\n      0x00\n      add\n      dup1\n      sload\n      tag_230\n      swap1\n      tag_138\n      jump\t// in\n    tag_230:\n      dup1\n      0x1f\n      add\n      0x20\n      dup1\n      swap2\n      div\n      mul\n      0x20\n      add\n      mload(0x40)\n      swap1\n      dup2\n      add\n      0x40\n      mstore\n      dup1\n      swap3\n      swap2\n      swap1\n      dup2\n      dup2\n      mstore\n      0x20\n      add\n      dup3\n      dup1\n      sload\n      tag_231\n      swap1\n      tag_138\n      jump\t// in\n    tag_231:\n      dup1\n      iszero\n      tag_232\n      jumpi\n      dup1\n      0x1f\n      lt\n      tag_233\n      jumpi\n      0x0100\n      dup1\n      dup4\n      sload\n      div\n      mul\n      dup4\n      mstore\n      swap2\n      0x20\n      add\n      swap2\n      jump(tag_232)\n    tag_233:\n      dup3\n      add\n      swap2\n      swap1\n      0x00\n      mstore\n      keccak256(0x00, 0x20)\n      swap1\n    tag_234:\n      dup2\n      sload\n      dup2\n      mstore\n      swap1\n      0x01\n      add\n      swap1\n      0x20\n      add\n      dup1\n      dup4\n      gt\n      tag_234\n      jumpi\n      dup3\n      swap1\n      sub\n      0x1f\n      and\n      dup3\n      add\n      swap2\n    tag_232:\n      pop\n      pop\n      pop\n      pop\n      pop\n      swap1\n      dup1\n      0x01\n      add\n      dup1\n      sload\n      tag_235\n      swap1\n      tag_138\n      jump\t// in\n    tag_235:\n      dup1\n      0x1f\n      add\n      0x20\n      dup1\n      swap2\n      div\n      mul\n      0x20\n      add\n      mload(0x40)\n      swap1\n      dup2\n      add\n      0x40\n      mstore\n      dup1\n      swap3\n      swap2\n      swap1\n      dup2\n      dup2\n      mstore\n      0x20\n      add\n      dup3\n      dup1\n      sload\n      tag_236\n      swap1\n      tag_138\n      jump\t// in\n    tag_236:\n      dup1\n      iszero\n      tag_237\n      jumpi\n      dup1\n      0x1f\n      lt\n      tag_238\n      jumpi\n      0x0100\n      dup1\n      dup4\n      sload\n      div\n      mul\n      dup4\n      mstore\n      swap2\n      0x20\n      add\n      swap2\n      jump(tag_237)\n    tag_238:\n      dup3\n      add\n      swap2\n      swap1\n      0x00\n      mstore\n      keccak256(0x00, 0x20)\n      swap1\n    tag_239:\n      dup2\n      sload\n      dup2\n      mstore\n      swap1\n      0x01\n      add\n      swap1\n      0x20\n      add\n      dup1\n      dup4\n      gt\n      tag_239\n      jumpi\n      dup3\n      swap1\n      sub\n      0x1f\n      and\n      dup3\n      add\n      swap2\n    tag_237:\n      pop\n      pop\n      pop\n      pop\n      pop\n      swap1\n      dup1\n      0x03\n      add\n      sload\n      swap1\n      pop\n      dup4\n      jump\t// out\n        /* \"MyHomeToken.sol\":3467:3745  function buy(uint256 _amount) external payable {... */\n    tag_123:\n        /* \"MyHomeToken.sol\":3543:3553  shareLimit */\n      sload(0x08)\n        /* \"MyHomeToken.sol\":3532:3539  _amount */\n      dup2\n        /* \"MyHomeToken.sol\":3532:3553  _amount <= shareLimit */\n      gt\n      iszero\n        /* \"MyHomeToken.sol\":3524:3593  require(_amount <= shareLimit, \"Number of shares exceeded the limit\") */\n      tag_241\n      jumpi\n      mload(0x40)\n      0x08c379a000000000000000000000000000000000000000000000000000000000\n      dup2\n      mstore\n      0x04\n      add\n      tag_242\n      swap1\n      tag_243\n      jump\t// in\n    tag_242:\n      mload(0x40)\n      dup1\n      swap2\n      sub\n      swap1\n      revert\n    tag_241:\n        /* \"MyHomeToken.sol\":3634:3644  tokenPrice */\n      sload(0x07)\n        /* \"MyHomeToken.sol\":3624:3631  _amount */\n      dup2\n        /* \"MyHomeToken.sol\":3624:3644  _amount * tokenPrice */\n      tag_244\n      swap2\n      swap1\n      tag_245\n      jump\t// in\n    tag_244:\n        /* \"MyHomeToken.sol\":3611:3620  msg.value */\n      callvalue\n        /* \"MyHomeToken.sol\":3611:3644  msg.value >= _amount * tokenPrice */\n      lt\n      iszero\n        /* \"MyHomeToken.sol\":3603:3663  require(msg.value >= _amount * tokenPrice, \"Not enough wei\") */\n      tag_246\n      jumpi\n      mload(0x40)\n      0x08c379a000000000000000000000000000000000000000000000000000000000\n      dup2\n      mstore\n      0x04\n      add\n      tag_247\n      swap1\n      tag_248\n      jump\t// in\n    tag_247:\n      mload(0x40)\n      dup1\n      swap2\n      sub\n      swap1\n      revert\n    tag_246:\n        /* \"MyHomeToken.sol\":3673:3702  transfer(msg.sender, _amount) */\n      tag_249\n        /* \"MyHomeToken.sol\":3682:3692  msg.sender */\n      caller\n        /* \"MyHomeToken.sol\":3694:3701  _amount */\n      dup3\n        /* \"MyHomeToken.sol\":3673:3681  transfer */\n      tag_104\n        /* \"MyHomeToken.sol\":3673:3702  transfer(msg.sender, _amount) */\n      jump\t// in\n    tag_249:\n        /* \"MyHomeToken.sol\":3712:3738  addShareHolder(msg.sender) */\n      tag_250\n        /* \"MyHomeToken.sol\":3727:3737  msg.sender */\n      caller\n        /* \"MyHomeToken.sol\":3712:3726  addShareHolder */\n      tag_112\n        /* \"MyHomeToken.sol\":3712:3738  addShareHolder(msg.sender) */\n      jump\t// in\n    tag_250:\n        /* \"MyHomeToken.sol\":3467:3745  function buy(uint256 _amount) external payable {... */\n      pop\n      jump\t// out\n        /* \"MyHomeToken.sol\":2074:2454  function addHouse(string memory _registrationId, string memory location, uint256 price) ... */\n    tag_128:\n        /* \"MyHomeToken.sol\":1446:1451  owner */\n      0x00\n      dup1\n      sload\n      swap1\n      0x0100\n      exp\n      swap1\n      div\n      0xffffffffffffffffffffffffffffffffffffffff\n      and\n        /* \"MyHomeToken.sol\":1432:1451  msg.sender == owner */\n      0xffffffffffffffffffffffffffffffffffffffff\n      and\n        /* \"MyHomeToken.sol\":1432:1442  msg.sender */\n      caller\n        /* \"MyHomeToken.sol\":1432:1451  msg.sender == owner */\n      0xffffffffffffffffffffffffffffffffffffffff\n      and\n      eq\n        /* \"MyHomeToken.sol\":1424:1452  require(msg.sender == owner) */\n      tag_252\n      jumpi\n      0x00\n      dup1\n      revert\n    tag_252:\n        /* \"MyHomeToken.sol\":2217:2230  State.Created */\n      0x00\n        /* \"MyHomeToken.sol\":1519:1525  _state */\n      dup1\n        /* \"MyHomeToken.sol\":1510:1525  state == _state */\n      0x01\n      dup2\n      gt\n      iszero\n      tag_254\n      jumpi\n      tag_255\n      tag_148\n      jump\t// in\n    tag_255:\n    tag_254:\n        /* \"MyHomeToken.sol\":1510:1515  state */\n      0x0a\n      0x00\n      swap1\n      sload\n      swap1\n      0x0100\n      exp\n      swap1\n      div\n      0xff\n      and\n        /* \"MyHomeToken.sol\":1510:1525  state == _state */\n      0x01\n      dup2\n      gt\n      iszero\n      tag_256\n      jumpi\n      tag_257\n      tag_148\n      jump\t// in\n    tag_257:\n    tag_256:\n      eq\n        /* \"MyHomeToken.sol\":1502:1526  require(state == _state) */\n      tag_258\n      jumpi\n      0x00\n      dup1\n      revert\n    tag_258:\n        /* \"MyHomeToken.sol\":2247:2261  House memory h */\n      0x00\n        /* \"MyHomeToken.sol\":2264:2303  House(_registrationId, location, price) */\n      mload(0x40)\n      dup1\n      0x60\n      add\n      0x40\n      mstore\n      dup1\n        /* \"MyHomeToken.sol\":2270:2285  _registrationId */\n      dup7\n        /* \"MyHomeToken.sol\":2264:2303  House(_registrationId, location, price) */\n      dup2\n      mstore\n      0x20\n      add\n        /* \"MyHomeToken.sol\":2287:2295  location */\n      dup6\n        /* \"MyHomeToken.sol\":2264:2303  House(_registrationId, location, price) */\n      dup2\n      mstore\n      0x20\n      add\n        /* \"MyHomeToken.sol\":2297:2302  price */\n      dup5\n        /* \"MyHomeToken.sol\":2264:2303  House(_registrationId, location, price) */\n      dup2\n      mstore\n      pop\n        /* \"MyHomeToken.sol\":2247:2303  House memory h = House(_registrationId, location, price) */\n      swap1\n      pop\n        /* \"MyHomeToken.sol\":2330:2335  price */\n      dup3\n        /* \"MyHomeToken.sol\":2313:2315  hp */\n      0x01\n        /* \"MyHomeToken.sol\":2313:2326  hp.totalValue */\n      0x03\n      add\n      0x00\n        /* \"MyHomeToken.sol\":2313:2335  hp.totalValue += price */\n      dup3\n      dup3\n      sload\n      tag_260\n      swap2\n      swap1\n      tag_208\n      jump\t// in\n    tag_260:\n      swap3\n      pop\n      pop\n      dup2\n      swap1\n      sstore\n      pop\n        /* \"MyHomeToken.sol\":2345:2347  hp */\n      0x01\n        /* \"MyHomeToken.sol\":2345:2358  hp.residences */\n      0x02\n      add\n        /* \"MyHomeToken.sol\":2364:2365  h */\n      dup2\n        /* \"MyHomeToken.sol\":2345:2366  hp.residences.push(h) */\n      swap1\n      dup1\n      0x01\n      dup2\n      sload\n      add\n      dup1\n      dup3\n      sstore\n      dup1\n      swap2\n      pop\n      pop\n      0x01\n      swap1\n      sub\n      swap1\n      0x00\n      mstore\n      keccak256(0x00, 0x20)\n      swap1\n      0x03\n      mul\n      add\n      0x00\n      swap1\n      swap2\n      swap1\n      swap2\n      swap1\n      swap2\n      pop\n      0x00\n      dup3\n      add\n      mload\n      dup2\n      0x00\n      add\n      swap1\n      dup1\n      mload\n      swap1\n      0x20\n      add\n      swap1\n      tag_262\n      swap3\n      swap2\n      swap1\n      tag_178\n      jump\t// in\n    tag_262:\n      pop\n      0x20\n      dup3\n      add\n      mload\n      dup2\n      0x01\n      add\n      swap1\n      dup1\n      mload\n      swap1\n      0x20\n      add\n      swap1\n      tag_263\n      swap3\n      swap2\n      swap1\n      tag_178\n      jump\t// in\n    tag_263:\n      pop\n      0x40\n      dup3\n      add\n      mload\n      dup2\n      0x02\n      add\n      sstore\n      pop\n      pop\n        /* \"MyHomeToken.sol\":2389:2391  hp */\n      0x01\n        /* \"MyHomeToken.sol\":2389:2402  hp.totalValue */\n      0x03\n      add\n      sload\n        /* \"MyHomeToken.sol\":2376:2386  tokenPrice */\n      0x07\n        /* \"MyHomeToken.sol\":2376:2402  tokenPrice = hp.totalValue */\n      dup2\n      swap1\n      sstore\n      pop\n        /* \"MyHomeToken.sol\":2417:2447  NewHouseAdded(_registrationId) */\n      0x4578fe17eaab41ae382abe3462bb0cf04bcfee4168d2aad3ce9d5d225d0e27f6\n        /* \"MyHomeToken.sol\":2431:2446  _registrationId */\n      dup6\n        /* \"MyHomeToken.sol\":2417:2447  NewHouseAdded(_registrationId) */\n      mload(0x40)\n      tag_264\n      swap2\n      swap1\n      tag_38\n      jump\t// in\n    tag_264:\n      mload(0x40)\n      dup1\n      swap2\n      sub\n      swap1\n      log1\n        /* \"MyHomeToken.sol\":2237:2454  {... */\n      pop\n        /* \"MyHomeToken.sol\":1456:1457  _ */\n      pop\n        /* \"MyHomeToken.sol\":2074:2454  function addHouse(string memory _registrationId, string memory location, uint256 price) ... */\n      pop\n      pop\n      pop\n      jump\t// out\n        /* \"MyHomeToken.sol\":3755:3968  function sell(uint256 _amount) external {... */\n    tag_132:\n        /* \"MyHomeToken.sol\":3813:3833  contains(msg.sender) */\n      tag_266\n        /* \"MyHomeToken.sol\":3822:3832  msg.sender */\n      caller\n        /* \"MyHomeToken.sol\":3813:3821  contains */\n      tag_213\n        /* \"MyHomeToken.sol\":3813:3833  contains(msg.sender) */\n      jump\t// in\n    tag_266:\n        /* \"MyHomeToken.sol\":3805:3872  require(contains(msg.sender), \"This user does not hold any shares\") */\n      tag_267\n      jumpi\n      mload(0x40)\n      0x08c379a000000000000000000000000000000000000000000000000000000000\n      dup2\n      mstore\n      0x04\n      add\n      tag_268\n      swap1\n      tag_269\n      jump\t// in\n    tag_268:\n      mload(0x40)\n      dup1\n      swap2\n      sub\n      swap1\n      revert\n    tag_267:\n        /* \"MyHomeToken.sol\":3908:3915  _amount */\n      dup1\n        /* \"MyHomeToken.sol\":3882:3892  _balanceOf */\n      0x0d\n        /* \"MyHomeToken.sol\":3882:3904  _balanceOf[msg.sender] */\n      0x00\n        /* \"MyHomeToken.sol\":3893:3903  msg.sender */\n      caller\n        /* \"MyHomeToken.sol\":3882:3904  _balanceOf[msg.sender] */\n      0xffffffffffffffffffffffffffffffffffffffff\n      and\n      0xffffffffffffffffffffffffffffffffffffffff\n      and\n      dup2\n      mstore\n      0x20\n      add\n      swap1\n      dup2\n      mstore\n      0x20\n      add\n      0x00\n      keccak256\n      0x00\n        /* \"MyHomeToken.sol\":3882:3915  _balanceOf[msg.sender] -= _amount */\n      dup3\n      dup3\n      sload\n      tag_270\n      swap2\n      swap1\n      tag_206\n      jump\t// in\n    tag_270:\n      swap3\n      pop\n      pop\n      dup2\n      swap1\n      sstore\n      pop\n        /* \"MyHomeToken.sol\":3954:3961  _amount */\n      dup1\n        /* \"MyHomeToken.sol\":3925:3935  _balanceOf */\n      0x0d\n        /* \"MyHomeToken.sol\":3925:3950  _balanceOf[address(this)] */\n      0x00\n        /* \"MyHomeToken.sol\":3944:3948  this */\n      address\n        /* \"MyHomeToken.sol\":3925:3950  _balanceOf[address(this)] */\n      0xffffffffffffffffffffffffffffffffffffffff\n      and\n      0xffffffffffffffffffffffffffffffffffffffff\n      and\n      dup2\n      mstore\n      0x20\n      add\n      swap1\n      dup2\n      mstore\n      0x20\n      add\n      0x00\n      keccak256\n      0x00\n        /* \"MyHomeToken.sol\":3925:3961  _balanceOf[address(this)] += _amount */\n      dup3\n      dup3\n      sload\n      tag_271\n      swap2\n      swap1\n      tag_208\n      jump\t// in\n    tag_271:\n      swap3\n      pop\n      pop\n      dup2\n      swap1\n      sstore\n      pop\n        /* \"MyHomeToken.sol\":3755:3968  function sell(uint256 _amount) external {... */\n      pop\n      jump\t// out\n        /* \"MyHomeToken.sol\":683:710  uint public finalResult = 0 */\n    tag_135:\n      sload(0x12)\n      dup2\n      jump\t// out\n        /* \"MyHomeToken.sol\":2460:2733  function contains(address _shareHolderAddress) private view returns(bool) {... */\n    tag_213:\n        /* \"MyHomeToken.sol\":2528:2532  bool */\n      0x00\n        /* \"MyHomeToken.sol\":2549:2555  uint i */\n      dup1\n        /* \"MyHomeToken.sol\":2558:2559  0 */\n      0x00\n        /* \"MyHomeToken.sol\":2549:2559  uint i = 0 */\n      swap1\n      pop\n        /* \"MyHomeToken.sol\":2544:2704  for (uint i = 0; i <= shareHolders.length; i++) {... */\n    tag_273:\n        /* \"MyHomeToken.sol\":2566:2578  shareHolders */\n      0x0b\n        /* \"MyHomeToken.sol\":2566:2585  shareHolders.length */\n      dup1\n      sload\n      swap1\n      pop\n        /* \"MyHomeToken.sol\":2561:2562  i */\n      dup2\n        /* \"MyHomeToken.sol\":2561:2585  i <= shareHolders.length */\n      gt\n        /* \"MyHomeToken.sol\":2544:2704  for (uint i = 0; i <= shareHolders.length; i++) {... */\n      tag_274\n      jumpi\n        /* \"MyHomeToken.sol\":2629:2648  _shareHolderAddress */\n      dup3\n        /* \"MyHomeToken.sol\":2610:2648  shareHolders[i] == _shareHolderAddress */\n      0xffffffffffffffffffffffffffffffffffffffff\n      and\n        /* \"MyHomeToken.sol\":2610:2622  shareHolders */\n      0x0b\n        /* \"MyHomeToken.sol\":2623:2624  i */\n      dup3\n        /* \"MyHomeToken.sol\":2610:2625  shareHolders[i] */\n      dup2\n      sload\n      dup2\n      lt\n      tag_276\n      jumpi\n      tag_277\n      tag_278\n      jump\t// in\n    tag_277:\n    tag_276:\n      swap1\n      0x00\n      mstore\n      keccak256(0x00, 0x20)\n      add\n      0x00\n      swap1\n      sload\n      swap1\n      0x0100\n      exp\n      swap1\n      div\n      0xffffffffffffffffffffffffffffffffffffffff\n      and\n        /* \"MyHomeToken.sol\":2610:2648  shareHolders[i] == _shareHolderAddress */\n      0xffffffffffffffffffffffffffffffffffffffff\n      and\n      eq\n        /* \"MyHomeToken.sol\":2606:2694  if (shareHolders[i] == _shareHolderAddress) {... */\n      iszero\n      tag_280\n      jumpi\n        /* \"MyHomeToken.sol\":2675:2679  true */\n      0x01\n        /* \"MyHomeToken.sol\":2668:2679  return true */\n      swap2\n      pop\n      pop\n      jump(tag_272)\n        /* \"MyHomeToken.sol\":2606:2694  if (shareHolders[i] == _shareHolderAddress) {... */\n    tag_280:\n        /* \"MyHomeToken.sol\":2587:2590  i++ */\n      dup1\n      dup1\n      tag_281\n      swap1\n      tag_199\n      jump\t// in\n    tag_281:\n      swap2\n      pop\n      pop\n        /* \"MyHomeToken.sol\":2544:2704  for (uint i = 0; i <= shareHolders.length; i++) {... */\n      jump(tag_273)\n    tag_274:\n      pop\n        /* \"MyHomeToken.sol\":2721:2726  false */\n      0x00\n        /* \"MyHomeToken.sol\":2714:2726  return false */\n      swap1\n      pop\n        /* \"MyHomeToken.sol\":2460:2733  function contains(address _shareHolderAddress) private view returns(bool) {... */\n    tag_272:\n      swap2\n      swap1\n      pop\n      jump\t// out\n    tag_178:\n      dup3\n      dup1\n      sload\n      tag_282\n      swap1\n      tag_138\n      jump\t// in\n    tag_282:\n      swap1\n      0x00\n      mstore\n      keccak256(0x00, 0x20)\n      swap1\n      0x1f\n      add\n      0x20\n      swap1\n      div\n      dup2\n      add\n      swap3\n      dup3\n      tag_284\n      jumpi\n      0x00\n      dup6\n      sstore\n      jump(tag_283)\n    tag_284:\n      dup3\n      0x1f\n      lt\n      tag_285\n      jumpi\n      dup1\n      mload\n      not(0xff)\n      and\n      dup4\n      dup1\n      add\n      or\n      dup6\n      sstore\n      jump(tag_283)\n    tag_285:\n      dup3\n      dup1\n      add\n      0x01\n      add\n      dup6\n      sstore\n      dup3\n      iszero\n      tag_283\n      jumpi\n      swap2\n      dup3\n      add\n    tag_286:\n      dup3\n      dup2\n      gt\n      iszero\n      tag_287\n      jumpi\n      dup3\n      mload\n      dup3\n      sstore\n      swap2\n      0x20\n      add\n      swap2\n      swap1\n      0x01\n      add\n      swap1\n      jump(tag_286)\n    tag_287:\n    tag_283:\n      pop\n      swap1\n      pop\n      tag_288\n      swap2\n      swap1\n      tag_289\n      jump\t// in\n    tag_288:\n      pop\n      swap1\n      jump\t// out\n    tag_196:\n      mload(0x40)\n      dup1\n      0x40\n      add\n      0x40\n      mstore\n      dup1\n      and(0xffffffffffffffffffffffffffffffffffffffff, 0x00)\n      dup2\n      mstore\n      0x20\n      add\n      iszero(iszero(0x00))\n      dup2\n      mstore\n      pop\n      swap1\n      jump\t// out\n    tag_289:\n    tag_290:\n      dup1\n      dup3\n      gt\n      iszero\n      tag_291\n      jumpi\n      0x00\n      dup2\n      0x00\n      swap1\n      sstore\n      pop\n      0x01\n      add\n      jump(tag_290)\n    tag_291:\n      pop\n      swap1\n      jump\t// out\n        /* \"#utility.yul\":7:419   */\n    tag_293:\n        /* \"#utility.yul\":85:90   */\n      0x00\n        /* \"#utility.yul\":110:176   */\n      tag_295\n        /* \"#utility.yul\":126:175   */\n      tag_296\n        /* \"#utility.yul\":168:174   */\n      dup5\n        /* \"#utility.yul\":126:175   */\n      tag_297\n      jump\t// in\n    tag_296:\n        /* \"#utility.yul\":110:176   */\n      tag_298\n      jump\t// in\n    tag_295:\n        /* \"#utility.yul\":101:176   */\n      swap1\n      pop\n        /* \"#utility.yul\":199:205   */\n      dup3\n        /* \"#utility.yul\":192:197   */\n      dup2\n        /* \"#utility.yul\":185:206   */\n      mstore\n        /* \"#utility.yul\":237:241   */\n      0x20\n        /* \"#utility.yul\":230:235   */\n      dup2\n        /* \"#utility.yul\":226:242   */\n      add\n        /* \"#utility.yul\":275:278   */\n      dup5\n        /* \"#utility.yul\":266:272   */\n      dup5\n        /* \"#utility.yul\":261:264   */\n      dup5\n        /* \"#utility.yul\":257:273   */\n      add\n        /* \"#utility.yul\":254:279   */\n      gt\n        /* \"#utility.yul\":251:363   */\n      iszero\n      tag_299\n      jumpi\n        /* \"#utility.yul\":282:361   */\n      tag_300\n      tag_301\n      jump\t// in\n    tag_300:\n        /* \"#utility.yul\":251:363   */\n    tag_299:\n        /* \"#utility.yul\":372:413   */\n      tag_302\n        /* \"#utility.yul\":406:412   */\n      dup5\n        /* \"#utility.yul\":401:404   */\n      dup3\n        /* \"#utility.yul\":396:399   */\n      dup6\n        /* \"#utility.yul\":372:413   */\n      tag_303\n      jump\t// in\n    tag_302:\n        /* \"#utility.yul\":91:419   */\n      pop\n        /* \"#utility.yul\":7:419   */\n      swap4\n      swap3\n      pop\n      pop\n      pop\n      jump\t// out\n        /* \"#utility.yul\":425:564   */\n    tag_304:\n        /* \"#utility.yul\":471:476   */\n      0x00\n        /* \"#utility.yul\":509:515   */\n      dup2\n        /* \"#utility.yul\":496:516   */\n      calldataload\n        /* \"#utility.yul\":487:516   */\n      swap1\n      pop\n        /* \"#utility.yul\":525:558   */\n      tag_306\n        /* \"#utility.yul\":552:557   */\n      dup2\n        /* \"#utility.yul\":525:558   */\n      tag_307\n      jump\t// in\n    tag_306:\n        /* \"#utility.yul\":425:564   */\n      swap3\n      swap2\n      pop\n      pop\n      jump\t// out\n        /* \"#utility.yul\":570:703   */\n    tag_308:\n        /* \"#utility.yul\":613:618   */\n      0x00\n        /* \"#utility.yul\":651:657   */\n      dup2\n        /* \"#utility.yul\":638:658   */\n      calldataload\n        /* \"#utility.yul\":629:658   */\n      swap1\n      pop\n        /* \"#utility.yul\":667:697   */\n      tag_310\n        /* \"#utility.yul\":691:696   */\n      dup2\n        /* \"#utility.yul\":667:697   */\n      tag_311\n      jump\t// in\n    tag_310:\n        /* \"#utility.yul\":570:703   */\n      swap3\n      swap2\n      pop\n      pop\n      jump\t// out\n        /* \"#utility.yul\":723:1063   */\n    tag_312:\n        /* \"#utility.yul\":779:784   */\n      0x00\n        /* \"#utility.yul\":828:831   */\n      dup3\n        /* \"#utility.yul\":821:825   */\n      0x1f\n        /* \"#utility.yul\":813:819   */\n      dup4\n        /* \"#utility.yul\":809:826   */\n      add\n        /* \"#utility.yul\":805:832   */\n      slt\n        /* \"#utility.yul\":795:917   */\n      tag_314\n      jumpi\n        /* \"#utility.yul\":836:915   */\n      tag_315\n      tag_316\n      jump\t// in\n    tag_315:\n        /* \"#utility.yul\":795:917   */\n    tag_314:\n        /* \"#utility.yul\":953:959   */\n      dup2\n        /* \"#utility.yul\":940:960   */\n      calldataload\n        /* \"#utility.yul\":978:1057   */\n      tag_317\n        /* \"#utility.yul\":1053:1056   */\n      dup5\n        /* \"#utility.yul\":1045:1051   */\n      dup3\n        /* \"#utility.yul\":1038:1042   */\n      0x20\n        /* \"#utility.yul\":1030:1036   */\n      dup7\n        /* \"#utility.yul\":1026:1043   */\n      add\n        /* \"#utility.yul\":978:1057   */\n      tag_293\n      jump\t// in\n    tag_317:\n        /* \"#utility.yul\":969:1057   */\n      swap2\n      pop\n        /* \"#utility.yul\":785:1063   */\n      pop\n        /* \"#utility.yul\":723:1063   */\n      swap3\n      swap2\n      pop\n      pop\n      jump\t// out\n        /* \"#utility.yul\":1069:1208   */\n    tag_318:\n        /* \"#utility.yul\":1115:1120   */\n      0x00\n        /* \"#utility.yul\":1153:1159   */\n      dup2\n        /* \"#utility.yul\":1140:1160   */\n      calldataload\n        /* \"#utility.yul\":1131:1160   */\n      swap1\n      pop\n        /* \"#utility.yul\":1169:1202   */\n      tag_320\n        /* \"#utility.yul\":1196:1201   */\n      dup2\n        /* \"#utility.yul\":1169:1202   */\n      tag_321\n      jump\t// in\n    tag_320:\n        /* \"#utility.yul\":1069:1208   */\n      swap3\n      swap2\n      pop\n      pop\n      jump\t// out\n        /* \"#utility.yul\":1214:1543   */\n    tag_63:\n        /* \"#utility.yul\":1273:1279   */\n      0x00\n        /* \"#utility.yul\":1322:1324   */\n      0x20\n        /* \"#utility.yul\":1310:1319   */\n      dup3\n        /* \"#utility.yul\":1301:1308   */\n      dup5\n        /* \"#utility.yul\":1297:1320   */\n      sub\n        /* \"#utility.yul\":1293:1325   */\n      slt\n        /* \"#utility.yul\":1290:1409   */\n      iszero\n      tag_323\n      jumpi\n        /* \"#utility.yul\":1328:1407   */\n      tag_324\n      tag_325\n      jump\t// in\n    tag_324:\n        /* \"#utility.yul\":1290:1409   */\n    tag_323:\n        /* \"#utility.yul\":1448:1449   */\n      0x00\n        /* \"#utility.yul\":1473:1526   */\n      tag_326\n        /* \"#utility.yul\":1518:1525   */\n      dup5\n        /* \"#utility.yul\":1509:1515   */\n      dup3\n        /* \"#utility.yul\":1498:1507   */\n      dup6\n        /* \"#utility.yul\":1494:1516   */\n      add\n        /* \"#utility.yul\":1473:1526   */\n      tag_304\n      jump\t// in\n    tag_326:\n        /* \"#utility.yul\":1463:1526   */\n      swap2\n      pop\n        /* \"#utility.yul\":1419:1536   */\n      pop\n        /* \"#utility.yul\":1214:1543   */\n      swap3\n      swap2\n      pop\n      pop\n      jump\t// out\n        /* \"#utility.yul\":1549:2023   */\n    tag_103:\n        /* \"#utility.yul\":1617:1623   */\n      0x00\n        /* \"#utility.yul\":1625:1631   */\n      dup1\n        /* \"#utility.yul\":1674:1676   */\n      0x40\n        /* \"#utility.yul\":1662:1671   */\n      dup4\n        /* \"#utility.yul\":1653:1660   */\n      dup6\n        /* \"#utility.yul\":1649:1672   */\n      sub\n        /* \"#utility.yul\":1645:1677   */\n      slt\n        /* \"#utility.yul\":1642:1761   */\n      iszero\n      tag_328\n      jumpi\n        /* \"#utility.yul\":1680:1759   */\n      tag_329\n      tag_325\n      jump\t// in\n    tag_329:\n        /* \"#utility.yul\":1642:1761   */\n    tag_328:\n        /* \"#utility.yul\":1800:1801   */\n      0x00\n        /* \"#utility.yul\":1825:1878   */\n      tag_330\n        /* \"#utility.yul\":1870:1877   */\n      dup6\n        /* \"#utility.yul\":1861:1867   */\n      dup3\n        /* \"#utility.yul\":1850:1859   */\n      dup7\n        /* \"#utility.yul\":1846:1868   */\n      add\n        /* \"#utility.yul\":1825:1878   */\n      tag_304\n      jump\t// in\n    tag_330:\n        /* \"#utility.yul\":1815:1878   */\n      swap3\n      pop\n        /* \"#utility.yul\":1771:1888   */\n      pop\n        /* \"#utility.yul\":1927:1929   */\n      0x20\n        /* \"#utility.yul\":1953:2006   */\n      tag_331\n        /* \"#utility.yul\":1998:2005   */\n      dup6\n        /* \"#utility.yul\":1989:1995   */\n      dup3\n        /* \"#utility.yul\":1978:1987   */\n      dup7\n        /* \"#utility.yul\":1974:1996   */\n      add\n        /* \"#utility.yul\":1953:2006   */\n      tag_318\n      jump\t// in\n    tag_331:\n        /* \"#utility.yul\":1943:2006   */\n      swap2\n      pop\n        /* \"#utility.yul\":1898:2016   */\n      pop\n        /* \"#utility.yul\":1549:2023   */\n      swap3\n      pop\n      swap3\n      swap1\n      pop\n      jump\t// out\n        /* \"#utility.yul\":2029:2352   */\n    tag_89:\n        /* \"#utility.yul\":2085:2091   */\n      0x00\n        /* \"#utility.yul\":2134:2136   */\n      0x20\n        /* \"#utility.yul\":2122:2131   */\n      dup3\n        /* \"#utility.yul\":2113:2120   */\n      dup5\n        /* \"#utility.yul\":2109:2132   */\n      sub\n        /* \"#utility.yul\":2105:2137   */\n      slt\n        /* \"#utility.yul\":2102:2221   */\n      iszero\n      tag_333\n      jumpi\n        /* \"#utility.yul\":2140:2219   */\n      tag_334\n      tag_325\n      jump\t// in\n    tag_334:\n        /* \"#utility.yul\":2102:2221   */\n    tag_333:\n        /* \"#utility.yul\":2260:2261   */\n      0x00\n        /* \"#utility.yul\":2285:2335   */\n      tag_335\n        /* \"#utility.yul\":2327:2334   */\n      dup5\n        /* \"#utility.yul\":2318:2324   */\n      dup3\n        /* \"#utility.yul\":2307:2316   */\n      dup6\n        /* \"#utility.yul\":2303:2325   */\n      add\n        /* \"#utility.yul\":2285:2335   */\n      tag_308\n      jump\t// in\n    tag_335:\n        /* \"#utility.yul\":2275:2335   */\n      swap2\n      pop\n        /* \"#utility.yul\":2231:2345   */\n      pop\n        /* \"#utility.yul\":2029:2352   */\n      swap3\n      swap2\n      pop\n      pop\n      jump\t// out\n        /* \"#utility.yul\":2358:3192   */\n    tag_70:\n        /* \"#utility.yul\":2446:2452   */\n      0x00\n        /* \"#utility.yul\":2454:2460   */\n      dup1\n        /* \"#utility.yul\":2503:2505   */\n      0x40\n        /* \"#utility.yul\":2491:2500   */\n      dup4\n        /* \"#utility.yul\":2482:2489   */\n      dup6\n        /* \"#utility.yul\":2478:2501   */\n      sub\n        /* \"#utility.yul\":2474:2506   */\n      slt\n        /* \"#utility.yul\":2471:2590   */\n      iszero\n      tag_337\n      jumpi\n        /* \"#utility.yul\":2509:2588   */\n      tag_338\n      tag_325\n      jump\t// in\n    tag_338:\n        /* \"#utility.yul\":2471:2590   */\n    tag_337:\n        /* \"#utility.yul\":2657:2658   */\n      0x00\n        /* \"#utility.yul\":2646:2655   */\n      dup4\n        /* \"#utility.yul\":2642:2659   */\n      add\n        /* \"#utility.yul\":2629:2660   */\n      calldataload\n        /* \"#utility.yul\":2687:2705   */\n      0xffffffffffffffff\n        /* \"#utility.yul\":2679:2685   */\n      dup2\n        /* \"#utility.yul\":2676:2706   */\n      gt\n        /* \"#utility.yul\":2673:2790   */\n      iszero\n      tag_339\n      jumpi\n        /* \"#utility.yul\":2709:2788   */\n      tag_340\n      tag_341\n      jump\t// in\n    tag_340:\n        /* \"#utility.yul\":2673:2790   */\n    tag_339:\n        /* \"#utility.yul\":2814:2877   */\n      tag_342\n        /* \"#utility.yul\":2869:2876   */\n      dup6\n        /* \"#utility.yul\":2860:2866   */\n      dup3\n        /* \"#utility.yul\":2849:2858   */\n      dup7\n        /* \"#utility.yul\":2845:2867   */\n      add\n        /* \"#utility.yul\":2814:2877   */\n      tag_312\n      jump\t// in\n    tag_342:\n        /* \"#utility.yul\":2804:2877   */\n      swap3\n      pop\n        /* \"#utility.yul\":2600:2887   */\n      pop\n        /* \"#utility.yul\":2954:2956   */\n      0x20\n        /* \"#utility.yul\":2943:2952   */\n      dup4\n        /* \"#utility.yul\":2939:2957   */\n      add\n        /* \"#utility.yul\":2926:2958   */\n      calldataload\n        /* \"#utility.yul\":2985:3003   */\n      0xffffffffffffffff\n        /* \"#utility.yul\":2977:2983   */\n      dup2\n        /* \"#utility.yul\":2974:3004   */\n      gt\n        /* \"#utility.yul\":2971:3088   */\n      iszero\n      tag_343\n      jumpi\n        /* \"#utility.yul\":3007:3086   */\n      tag_344\n      tag_341\n      jump\t// in\n    tag_344:\n        /* \"#utility.yul\":2971:3088   */\n    tag_343:\n        /* \"#utility.yul\":3112:3175   */\n      tag_345\n        /* \"#utility.yul\":3167:3174   */\n      dup6\n        /* \"#utility.yul\":3158:3164   */\n      dup3\n        /* \"#utility.yul\":3147:3156   */\n      dup7\n        /* \"#utility.yul\":3143:3165   */\n      add\n        /* \"#utility.yul\":3112:3175   */\n      tag_312\n      jump\t// in\n    tag_345:\n        /* \"#utility.yul\":3102:3175   */\n      swap2\n      pop\n        /* \"#utility.yul\":2897:3185   */\n      pop\n        /* \"#utility.yul\":2358:3192   */\n      swap3\n      pop\n      swap3\n      swap1\n      pop\n      jump\t// out\n        /* \"#utility.yul\":3198:4177   */\n    tag_127:\n        /* \"#utility.yul\":3295:3301   */\n      0x00\n        /* \"#utility.yul\":3303:3309   */\n      dup1\n        /* \"#utility.yul\":3311:3317   */\n      0x00\n        /* \"#utility.yul\":3360:3362   */\n      0x60\n        /* \"#utility.yul\":3348:3357   */\n      dup5\n        /* \"#utility.yul\":3339:3346   */\n      dup7\n        /* \"#utility.yul\":3335:3358   */\n      sub\n        /* \"#utility.yul\":3331:3363   */\n      slt\n        /* \"#utility.yul\":3328:3447   */\n      iszero\n      tag_347\n      jumpi\n        /* \"#utility.yul\":3366:3445   */\n      tag_348\n      tag_325\n      jump\t// in\n    tag_348:\n        /* \"#utility.yul\":3328:3447   */\n    tag_347:\n        /* \"#utility.yul\":3514:3515   */\n      0x00\n        /* \"#utility.yul\":3503:3512   */\n      dup5\n        /* \"#utility.yul\":3499:3516   */\n      add\n        /* \"#utility.yul\":3486:3517   */\n      calldataload\n        /* \"#utility.yul\":3544:3562   */\n      0xffffffffffffffff\n        /* \"#utility.yul\":3536:3542   */\n      dup2\n        /* \"#utility.yul\":3533:3563   */\n      gt\n        /* \"#utility.yul\":3530:3647   */\n      iszero\n      tag_349\n      jumpi\n        /* \"#utility.yul\":3566:3645   */\n      tag_350\n      tag_341\n      jump\t// in\n    tag_350:\n        /* \"#utility.yul\":3530:3647   */\n    tag_349:\n        /* \"#utility.yul\":3671:3734   */\n      tag_351\n        /* \"#utility.yul\":3726:3733   */\n      dup7\n        /* \"#utility.yul\":3717:3723   */\n      dup3\n        /* \"#utility.yul\":3706:3715   */\n      dup8\n        /* \"#utility.yul\":3702:3724   */\n      add\n        /* \"#utility.yul\":3671:3734   */\n      tag_312\n      jump\t// in\n    tag_351:\n        /* \"#utility.yul\":3661:3734   */\n      swap4\n      pop\n        /* \"#utility.yul\":3457:3744   */\n      pop\n        /* \"#utility.yul\":3811:3813   */\n      0x20\n        /* \"#utility.yul\":3800:3809   */\n      dup5\n        /* \"#utility.yul\":3796:3814   */\n      add\n        /* \"#utility.yul\":3783:3815   */\n      calldataload\n        /* \"#utility.yul\":3842:3860   */\n      0xffffffffffffffff\n        /* \"#utility.yul\":3834:3840   */\n      dup2\n        /* \"#utility.yul\":3831:3861   */\n      gt\n        /* \"#utility.yul\":3828:3945   */\n      iszero\n      tag_352\n      jumpi\n        /* \"#utility.yul\":3864:3943   */\n      tag_353\n      tag_341\n      jump\t// in\n    tag_353:\n        /* \"#utility.yul\":3828:3945   */\n    tag_352:\n        /* \"#utility.yul\":3969:4032   */\n      tag_354\n        /* \"#utility.yul\":4024:4031   */\n      dup7\n        /* \"#utility.yul\":4015:4021   */\n      dup3\n        /* \"#utility.yul\":4004:4013   */\n      dup8\n        /* \"#utility.yul\":4000:4022   */\n      add\n        /* \"#utility.yul\":3969:4032   */\n      tag_312\n      jump\t// in\n    tag_354:\n        /* \"#utility.yul\":3959:4032   */\n      swap3\n      pop\n        /* \"#utility.yul\":3754:4042   */\n      pop\n        /* \"#utility.yul\":4081:4083   */\n      0x40\n        /* \"#utility.yul\":4107:4160   */\n      tag_355\n        /* \"#utility.yul\":4152:4159   */\n      dup7\n        /* \"#utility.yul\":4143:4149   */\n      dup3\n        /* \"#utility.yul\":4132:4141   */\n      dup8\n        /* \"#utility.yul\":4128:4150   */\n      add\n        /* \"#utility.yul\":4107:4160   */\n      tag_318\n      jump\t// in\n    tag_355:\n        /* \"#utility.yul\":4097:4160   */\n      swap2\n      pop\n        /* \"#utility.yul\":4052:4170   */\n      pop\n        /* \"#utility.yul\":3198:4177   */\n      swap3\n      pop\n      swap3\n      pop\n      swap3\n      jump\t// out\n        /* \"#utility.yul\":4183:4512   */\n    tag_45:\n        /* \"#utility.yul\":4242:4248   */\n      0x00\n        /* \"#utility.yul\":4291:4293   */\n      0x20\n        /* \"#utility.yul\":4279:4288   */\n      dup3\n        /* \"#utility.yul\":4270:4277   */\n      dup5\n        /* \"#utility.yul\":4266:4289   */\n      sub\n        /* \"#utility.yul\":4262:4294   */\n      slt\n        /* \"#utility.yul\":4259:4378   */\n      iszero\n      tag_357\n      jumpi\n        /* \"#utility.yul\":4297:4376   */\n      tag_358\n      tag_325\n      jump\t// in\n    tag_358:\n        /* \"#utility.yul\":4259:4378   */\n    tag_357:\n        /* \"#utility.yul\":4417:4418   */\n      0x00\n        /* \"#utility.yul\":4442:4495   */\n      tag_359\n        /* \"#utility.yul\":4487:4494   */\n      dup5\n        /* \"#utility.yul\":4478:4484   */\n      dup3\n        /* \"#utility.yul\":4467:4476   */\n      dup6\n        /* \"#utility.yul\":4463:4485   */\n      add\n        /* \"#utility.yul\":4442:4495   */\n      tag_318\n      jump\t// in\n    tag_359:\n        /* \"#utility.yul\":4432:4495   */\n      swap2\n      pop\n        /* \"#utility.yul\":4388:4505   */\n      pop\n        /* \"#utility.yul\":4183:4512   */\n      swap3\n      swap2\n      pop\n      pop\n      jump\t// out\n        /* \"#utility.yul\":4518:4762   */\n    tag_360:\n        /* \"#utility.yul\":4631:4641   */\n      0x00\n        /* \"#utility.yul\":4666:4756   */\n      tag_362\n        /* \"#utility.yul\":4752:4755   */\n      dup4\n        /* \"#utility.yul\":4744:4750   */\n      dup4\n        /* \"#utility.yul\":4666:4756   */\n      tag_363\n      jump\t// in\n    tag_362:\n        /* \"#utility.yul\":4652:4756   */\n      swap1\n      pop\n        /* \"#utility.yul\":4518:4762   */\n      swap3\n      swap2\n      pop\n      pop\n      jump\t// out\n        /* \"#utility.yul\":4768:4886   */\n    tag_364:\n        /* \"#utility.yul\":4855:4879   */\n      tag_366\n        /* \"#utility.yul\":4873:4878   */\n      dup2\n        /* \"#utility.yul\":4855:4879   */\n      tag_367\n      jump\t// in\n    tag_366:\n        /* \"#utility.yul\":4850:4853   */\n      dup3\n        /* \"#utility.yul\":4843:4880   */\n      mstore\n        /* \"#utility.yul\":4768:4886   */\n      pop\n      pop\n      jump\t// out\n        /* \"#utility.yul\":4958:6045   */\n    tag_368:\n        /* \"#utility.yul\":5121:5124   */\n      0x00\n        /* \"#utility.yul\":5150:5226   */\n      tag_370\n        /* \"#utility.yul\":5220:5225   */\n      dup3\n        /* \"#utility.yul\":5150:5226   */\n      tag_371\n      jump\t// in\n    tag_370:\n        /* \"#utility.yul\":5242:5350   */\n      tag_372\n        /* \"#utility.yul\":5343:5349   */\n      dup2\n        /* \"#utility.yul\":5338:5341   */\n      dup6\n        /* \"#utility.yul\":5242:5350   */\n      tag_373\n      jump\t// in\n    tag_372:\n        /* \"#utility.yul\":5235:5350   */\n      swap4\n      pop\n        /* \"#utility.yul\":5376:5379   */\n      dup4\n        /* \"#utility.yul\":5421:5425   */\n      0x20\n        /* \"#utility.yul\":5413:5419   */\n      dup3\n        /* \"#utility.yul\":5409:5426   */\n      mul\n        /* \"#utility.yul\":5404:5407   */\n      dup6\n        /* \"#utility.yul\":5400:5427   */\n      add\n        /* \"#utility.yul\":5451:5529   */\n      tag_374\n        /* \"#utility.yul\":5523:5528   */\n      dup6\n        /* \"#utility.yul\":5451:5529   */\n      tag_375\n      jump\t// in\n    tag_374:\n        /* \"#utility.yul\":5552:5559   */\n      dup1\n        /* \"#utility.yul\":5583:5584   */\n      0x00\n        /* \"#utility.yul\":5568:6000   */\n    tag_376:\n        /* \"#utility.yul\":5593:5599   */\n      dup6\n        /* \"#utility.yul\":5590:5591   */\n      dup2\n        /* \"#utility.yul\":5587:5600   */\n      lt\n        /* \"#utility.yul\":5568:6000   */\n      iszero\n      tag_378\n      jumpi\n        /* \"#utility.yul\":5664:5673   */\n      dup5\n        /* \"#utility.yul\":5658:5662   */\n      dup5\n        /* \"#utility.yul\":5654:5674   */\n      sub\n        /* \"#utility.yul\":5649:5652   */\n      dup10\n        /* \"#utility.yul\":5642:5675   */\n      mstore\n        /* \"#utility.yul\":5715:5721   */\n      dup2\n        /* \"#utility.yul\":5709:5722   */\n      mload\n        /* \"#utility.yul\":5743:5851   */\n      tag_379\n        /* \"#utility.yul\":5846:5850   */\n      dup6\n        /* \"#utility.yul\":5831:5844   */\n      dup3\n        /* \"#utility.yul\":5743:5851   */\n      tag_360\n      jump\t// in\n    tag_379:\n        /* \"#utility.yul\":5735:5851   */\n      swap5\n      pop\n        /* \"#utility.yul\":5874:5956   */\n      tag_380\n        /* \"#utility.yul\":5949:5955   */\n      dup4\n        /* \"#utility.yul\":5874:5956   */\n      tag_381\n      jump\t// in\n    tag_380:\n        /* \"#utility.yul\":5864:5956   */\n      swap3\n      pop\n        /* \"#utility.yul\":5985:5989   */\n      0x20\n        /* \"#utility.yul\":5980:5983   */\n      dup11\n        /* \"#utility.yul\":5976:5990   */\n      add\n        /* \"#utility.yul\":5969:5990   */\n      swap10\n      pop\n        /* \"#utility.yul\":5628:6000   */\n      pop\n        /* \"#utility.yul\":5615:5616   */\n      0x01\n        /* \"#utility.yul\":5612:5613   */\n      dup2\n        /* \"#utility.yul\":5608:5617   */\n      add\n        /* \"#utility.yul\":5603:5617   */\n      swap1\n      pop\n        /* \"#utility.yul\":5568:6000   */\n      jump(tag_376)\n    tag_378:\n        /* \"#utility.yul\":5572:5586   */\n      pop\n        /* \"#utility.yul\":6016:6020   */\n      dup3\n        /* \"#utility.yul\":6009:6020   */\n      swap8\n      pop\n        /* \"#utility.yul\":6036:6039   */\n      dup8\n        /* \"#utility.yul\":6029:6039   */\n      swap6\n      pop\n        /* \"#utility.yul\":5126:6045   */\n      pop\n      pop\n      pop\n      pop\n      pop\n        /* \"#utility.yul\":4958:6045   */\n      swap3\n      swap2\n      pop\n      pop\n      jump\t// out\n        /* \"#utility.yul\":6051:6160   */\n    tag_382:\n        /* \"#utility.yul\":6132:6153   */\n      tag_384\n        /* \"#utility.yul\":6147:6152   */\n      dup2\n        /* \"#utility.yul\":6132:6153   */\n      tag_385\n      jump\t// in\n    tag_384:\n        /* \"#utility.yul\":6127:6130   */\n      dup3\n        /* \"#utility.yul\":6120:6154   */\n      mstore\n        /* \"#utility.yul\":6051:6160   */\n      pop\n      pop\n      jump\t// out\n        /* \"#utility.yul\":6166:6510   */\n    tag_386:\n        /* \"#utility.yul\":6244:6247   */\n      0x00\n        /* \"#utility.yul\":6272:6311   */\n      tag_388\n        /* \"#utility.yul\":6305:6310   */\n      dup3\n        /* \"#utility.yul\":6272:6311   */\n      tag_389\n      jump\t// in\n    tag_388:\n        /* \"#utility.yul\":6327:6388   */\n      tag_390\n        /* \"#utility.yul\":6381:6387   */\n      dup2\n        /* \"#utility.yul\":6376:6379   */\n      dup6\n        /* \"#utility.yul\":6327:6388   */\n      tag_391\n      jump\t// in\n    tag_390:\n        /* \"#utility.yul\":6320:6388   */\n      swap4\n      pop\n        /* \"#utility.yul\":6397:6449   */\n      tag_392\n        /* \"#utility.yul\":6442:6448   */\n      dup2\n        /* \"#utility.yul\":6437:6440   */\n      dup6\n        /* \"#utility.yul\":6430:6434   */\n      0x20\n        /* \"#utility.yul\":6423:6428   */\n      dup7\n        /* \"#utility.yul\":6419:6435   */\n      add\n        /* \"#utility.yul\":6397:6449   */\n      tag_393\n      jump\t// in\n    tag_392:\n        /* \"#utility.yul\":6474:6503   */\n      tag_394\n        /* \"#utility.yul\":6496:6502   */\n      dup2\n        /* \"#utility.yul\":6474:6503   */\n      tag_395\n      jump\t// in\n    tag_394:\n        /* \"#utility.yul\":6469:6472   */\n      dup5\n        /* \"#utility.yul\":6465:6504   */\n      add\n        /* \"#utility.yul\":6458:6504   */\n      swap2\n      pop\n        /* \"#utility.yul\":6248:6510   */\n      pop\n        /* \"#utility.yul\":6166:6510   */\n      swap3\n      swap2\n      pop\n      pop\n      jump\t// out\n        /* \"#utility.yul\":6516:6880   */\n    tag_396:\n        /* \"#utility.yul\":6604:6607   */\n      0x00\n        /* \"#utility.yul\":6632:6671   */\n      tag_398\n        /* \"#utility.yul\":6665:6670   */\n      dup3\n        /* \"#utility.yul\":6632:6671   */\n      tag_389\n      jump\t// in\n    tag_398:\n        /* \"#utility.yul\":6687:6758   */\n      tag_399\n        /* \"#utility.yul\":6751:6757   */\n      dup2\n        /* \"#utility.yul\":6746:6749   */\n      dup6\n        /* \"#utility.yul\":6687:6758   */\n      tag_400\n      jump\t// in\n    tag_399:\n        /* \"#utility.yul\":6680:6758   */\n      swap4\n      pop\n        /* \"#utility.yul\":6767:6819   */\n      tag_401\n        /* \"#utility.yul\":6812:6818   */\n      dup2\n        /* \"#utility.yul\":6807:6810   */\n      dup6\n        /* \"#utility.yul\":6800:6804   */\n      0x20\n        /* \"#utility.yul\":6793:6798   */\n      dup7\n        /* \"#utility.yul\":6789:6805   */\n      add\n        /* \"#utility.yul\":6767:6819   */\n      tag_393\n      jump\t// in\n    tag_401:\n        /* \"#utility.yul\":6844:6873   */\n      tag_402\n        /* \"#utility.yul\":6866:6872   */\n      dup2\n        /* \"#utility.yul\":6844:6873   */\n      tag_395\n      jump\t// in\n    tag_402:\n        /* \"#utility.yul\":6839:6842   */\n      dup5\n        /* \"#utility.yul\":6835:6874   */\n      add\n        /* \"#utility.yul\":6828:6874   */\n      swap2\n      pop\n        /* \"#utility.yul\":6608:6880   */\n      pop\n        /* \"#utility.yul\":6516:6880   */\n      swap3\n      swap2\n      pop\n      pop\n      jump\t// out\n        /* \"#utility.yul\":6886:7252   */\n    tag_403:\n        /* \"#utility.yul\":7028:7031   */\n      0x00\n        /* \"#utility.yul\":7049:7116   */\n      tag_405\n        /* \"#utility.yul\":7113:7115   */\n      0x23\n        /* \"#utility.yul\":7108:7111   */\n      dup4\n        /* \"#utility.yul\":7049:7116   */\n      tag_400\n      jump\t// in\n    tag_405:\n        /* \"#utility.yul\":7042:7116   */\n      swap2\n      pop\n        /* \"#utility.yul\":7125:7218   */\n      tag_406\n        /* \"#utility.yul\":7214:7217   */\n      dup3\n        /* \"#utility.yul\":7125:7218   */\n      tag_407\n      jump\t// in\n    tag_406:\n        /* \"#utility.yul\":7243:7245   */\n      0x40\n        /* \"#utility.yul\":7238:7241   */\n      dup3\n        /* \"#utility.yul\":7234:7246   */\n      add\n        /* \"#utility.yul\":7227:7246   */\n      swap1\n      pop\n        /* \"#utility.yul\":6886:7252   */\n      swap2\n      swap1\n      pop\n      jump\t// out\n        /* \"#utility.yul\":7258:7624   */\n    tag_408:\n        /* \"#utility.yul\":7400:7403   */\n      0x00\n        /* \"#utility.yul\":7421:7488   */\n      tag_410\n        /* \"#utility.yul\":7485:7487   */\n      0x22\n        /* \"#utility.yul\":7480:7483   */\n      dup4\n        /* \"#utility.yul\":7421:7488   */\n      tag_400\n      jump\t// in\n    tag_410:\n        /* \"#utility.yul\":7414:7488   */\n      swap2\n      pop\n        /* \"#utility.yul\":7497:7590   */\n      tag_411\n        /* \"#utility.yul\":7586:7589   */\n      dup3\n        /* \"#utility.yul\":7497:7590   */\n      tag_412\n      jump\t// in\n    tag_411:\n        /* \"#utility.yul\":7615:7617   */\n      0x40\n        /* \"#utility.yul\":7610:7613   */\n      dup3\n        /* \"#utility.yul\":7606:7618   */\n      add\n        /* \"#utility.yul\":7599:7618   */\n      swap1\n      pop\n        /* \"#utility.yul\":7258:7624   */\n      swap2\n      swap1\n      pop\n      jump\t// out\n        /* \"#utility.yul\":7630:7996   */\n    tag_413:\n        /* \"#utility.yul\":7772:7775   */\n      0x00\n        /* \"#utility.yul\":7793:7860   */\n      tag_415\n        /* \"#utility.yul\":7857:7859   */\n      0x0e\n        /* \"#utility.yul\":7852:7855   */\n      dup4\n        /* \"#utility.yul\":7793:7860   */\n      tag_400\n      jump\t// in\n    tag_415:\n        /* \"#utility.yul\":7786:7860   */\n      swap2\n      pop\n        /* \"#utility.yul\":7869:7962   */\n      tag_416\n        /* \"#utility.yul\":7958:7961   */\n      dup3\n        /* \"#utility.yul\":7869:7962   */\n      tag_417\n      jump\t// in\n    tag_416:\n        /* \"#utility.yul\":7987:7989   */\n      0x20\n        /* \"#utility.yul\":7982:7985   */\n      dup3\n        /* \"#utility.yul\":7978:7990   */\n      add\n        /* \"#utility.yul\":7971:7990   */\n      swap1\n      pop\n        /* \"#utility.yul\":7630:7996   */\n      swap2\n      swap1\n      pop\n      jump\t// out\n        /* \"#utility.yul\":8064:8921   */\n    tag_363:\n        /* \"#utility.yul\":8167:8170   */\n      0x00\n        /* \"#utility.yul\":8203:8207   */\n      0x60\n        /* \"#utility.yul\":8198:8201   */\n      dup4\n        /* \"#utility.yul\":8194:8208   */\n      add\n        /* \"#utility.yul\":8300:8304   */\n      0x00\n        /* \"#utility.yul\":8293:8298   */\n      dup4\n        /* \"#utility.yul\":8289:8305   */\n      add\n        /* \"#utility.yul\":8283:8306   */\n      mload\n        /* \"#utility.yul\":8353:8356   */\n      dup5\n        /* \"#utility.yul\":8347:8351   */\n      dup3\n        /* \"#utility.yul\":8343:8357   */\n      sub\n        /* \"#utility.yul\":8336:8340   */\n      0x00\n        /* \"#utility.yul\":8331:8334   */\n      dup7\n        /* \"#utility.yul\":8327:8341   */\n      add\n        /* \"#utility.yul\":8320:8358   */\n      mstore\n        /* \"#utility.yul\":8379:8452   */\n      tag_419\n        /* \"#utility.yul\":8447:8451   */\n      dup3\n        /* \"#utility.yul\":8433:8445   */\n      dup3\n        /* \"#utility.yul\":8379:8452   */\n      tag_386\n      jump\t// in\n    tag_419:\n        /* \"#utility.yul\":8371:8452   */\n      swap2\n      pop\n        /* \"#utility.yul\":8218:8463   */\n      pop\n        /* \"#utility.yul\":8556:8560   */\n      0x20\n        /* \"#utility.yul\":8549:8554   */\n      dup4\n        /* \"#utility.yul\":8545:8561   */\n      add\n        /* \"#utility.yul\":8539:8562   */\n      mload\n        /* \"#utility.yul\":8609:8612   */\n      dup5\n        /* \"#utility.yul\":8603:8607   */\n      dup3\n        /* \"#utility.yul\":8599:8613   */\n      sub\n        /* \"#utility.yul\":8592:8596   */\n      0x20\n        /* \"#utility.yul\":8587:8590   */\n      dup7\n        /* \"#utility.yul\":8583:8597   */\n      add\n        /* \"#utility.yul\":8576:8614   */\n      mstore\n        /* \"#utility.yul\":8635:8708   */\n      tag_420\n        /* \"#utility.yul\":8703:8707   */\n      dup3\n        /* \"#utility.yul\":8689:8701   */\n      dup3\n        /* \"#utility.yul\":8635:8708   */\n      tag_386\n      jump\t// in\n    tag_420:\n        /* \"#utility.yul\":8627:8708   */\n      swap2\n      pop\n        /* \"#utility.yul\":8473:8719   */\n      pop\n        /* \"#utility.yul\":8802:8806   */\n      0x40\n        /* \"#utility.yul\":8795:8800   */\n      dup4\n        /* \"#utility.yul\":8791:8807   */\n      add\n        /* \"#utility.yul\":8785:8808   */\n      mload\n        /* \"#utility.yul\":8821:8884   */\n      tag_421\n        /* \"#utility.yul\":8878:8882   */\n      0x40\n        /* \"#utility.yul\":8873:8876   */\n      dup7\n        /* \"#utility.yul\":8869:8883   */\n      add\n        /* \"#utility.yul\":8855:8867   */\n      dup3\n        /* \"#utility.yul\":8821:8884   */\n      tag_422\n      jump\t// in\n    tag_421:\n        /* \"#utility.yul\":8729:8894   */\n      pop\n        /* \"#utility.yul\":8911:8915   */\n      dup1\n        /* \"#utility.yul\":8904:8915   */\n      swap2\n      pop\n        /* \"#utility.yul\":8172:8921   */\n      pop\n        /* \"#utility.yul\":8064:8921   */\n      swap3\n      swap2\n      pop\n      pop\n      jump\t// out\n        /* \"#utility.yul\":8927:9035   */\n    tag_422:\n        /* \"#utility.yul\":9004:9028   */\n      tag_424\n        /* \"#utility.yul\":9022:9027   */\n      dup2\n        /* \"#utility.yul\":9004:9028   */\n      tag_425\n      jump\t// in\n    tag_424:\n        /* \"#utility.yul\":8999:9002   */\n      dup3\n        /* \"#utility.yul\":8992:9029   */\n      mstore\n        /* \"#utility.yul\":8927:9035   */\n      pop\n      pop\n      jump\t// out\n        /* \"#utility.yul\":9041:9159   */\n    tag_426:\n        /* \"#utility.yul\":9128:9152   */\n      tag_428\n        /* \"#utility.yul\":9146:9151   */\n      dup2\n        /* \"#utility.yul\":9128:9152   */\n      tag_425\n      jump\t// in\n    tag_428:\n        /* \"#utility.yul\":9123:9126   */\n      dup3\n        /* \"#utility.yul\":9116:9153   */\n      mstore\n        /* \"#utility.yul\":9041:9159   */\n      pop\n      pop\n      jump\t// out\n        /* \"#utility.yul\":9165:9387   */\n    tag_77:\n        /* \"#utility.yul\":9258:9262   */\n      0x00\n        /* \"#utility.yul\":9296:9298   */\n      0x20\n        /* \"#utility.yul\":9285:9294   */\n      dup3\n        /* \"#utility.yul\":9281:9299   */\n      add\n        /* \"#utility.yul\":9273:9299   */\n      swap1\n      pop\n        /* \"#utility.yul\":9309:9380   */\n      tag_430\n        /* \"#utility.yul\":9377:9378   */\n      0x00\n        /* \"#utility.yul\":9366:9375   */\n      dup4\n        /* \"#utility.yul\":9362:9379   */\n      add\n        /* \"#utility.yul\":9353:9359   */\n      dup5\n        /* \"#utility.yul\":9309:9380   */\n      tag_364\n      jump\t// in\n    tag_430:\n        /* \"#utility.yul\":9165:9387   */\n      swap3\n      swap2\n      pop\n      pop\n      jump\t// out\n        /* \"#utility.yul\":9393:9854   */\n    tag_48:\n        /* \"#utility.yul\":9580:9584   */\n      0x00\n        /* \"#utility.yul\":9618:9620   */\n      0x20\n        /* \"#utility.yul\":9607:9616   */\n      dup3\n        /* \"#utility.yul\":9603:9621   */\n      add\n        /* \"#utility.yul\":9595:9621   */\n      swap1\n      pop\n        /* \"#utility.yul\":9667:9676   */\n      dup2\n        /* \"#utility.yul\":9661:9665   */\n      dup2\n        /* \"#utility.yul\":9657:9677   */\n      sub\n        /* \"#utility.yul\":9653:9654   */\n      0x00\n        /* \"#utility.yul\":9642:9651   */\n      dup4\n        /* \"#utility.yul\":9638:9655   */\n      add\n        /* \"#utility.yul\":9631:9678   */\n      mstore\n        /* \"#utility.yul\":9695:9847   */\n      tag_432\n        /* \"#utility.yul\":9842:9846   */\n      dup2\n        /* \"#utility.yul\":9833:9839   */\n      dup5\n        /* \"#utility.yul\":9695:9847   */\n      tag_368\n      jump\t// in\n    tag_432:\n        /* \"#utility.yul\":9687:9847   */\n      swap1\n      pop\n        /* \"#utility.yul\":9393:9854   */\n      swap3\n      swap2\n      pop\n      pop\n      jump\t// out\n        /* \"#utility.yul\":9860:10070   */\n    tag_66:\n        /* \"#utility.yul\":9947:9951   */\n      0x00\n        /* \"#utility.yul\":9985:9987   */\n      0x20\n        /* \"#utility.yul\":9974:9983   */\n      dup3\n        /* \"#utility.yul\":9970:9988   */\n      add\n        /* \"#utility.yul\":9962:9988   */\n      swap1\n      pop\n        /* \"#utility.yul\":9998:10063   */\n      tag_434\n        /* \"#utility.yul\":10060:10061   */\n      0x00\n        /* \"#utility.yul\":10049:10058   */\n      dup4\n        /* \"#utility.yul\":10045:10062   */\n      add\n        /* \"#utility.yul\":10036:10042   */\n      dup5\n        /* \"#utility.yul\":9998:10063   */\n      tag_382\n      jump\t// in\n    tag_434:\n        /* \"#utility.yul\":9860:10070   */\n      swap3\n      swap2\n      pop\n      pop\n      jump\t// out\n        /* \"#utility.yul\":10076:10389   */\n    tag_38:\n        /* \"#utility.yul\":10189:10193   */\n      0x00\n        /* \"#utility.yul\":10227:10229   */\n      0x20\n        /* \"#utility.yul\":10216:10225   */\n      dup3\n        /* \"#utility.yul\":10212:10230   */\n      add\n        /* \"#utility.yul\":10204:10230   */\n      swap1\n      pop\n        /* \"#utility.yul\":10276:10285   */\n      dup2\n        /* \"#utility.yul\":10270:10274   */\n      dup2\n        /* \"#utility.yul\":10266:10286   */\n      sub\n        /* \"#utility.yul\":10262:10263   */\n      0x00\n        /* \"#utility.yul\":10251:10260   */\n      dup4\n        /* \"#utility.yul\":10247:10264   */\n      add\n        /* \"#utility.yul\":10240:10287   */\n      mstore\n        /* \"#utility.yul\":10304:10382   */\n      tag_436\n        /* \"#utility.yul\":10377:10381   */\n      dup2\n        /* \"#utility.yul\":10368:10374   */\n      dup5\n        /* \"#utility.yul\":10304:10382   */\n      tag_396\n      jump\t// in\n    tag_436:\n        /* \"#utility.yul\":10296:10382   */\n      swap1\n      pop\n        /* \"#utility.yul\":10076:10389   */\n      swap3\n      swap2\n      pop\n      pop\n      jump\t// out\n        /* \"#utility.yul\":10395:11019   */\n    tag_120:\n        /* \"#utility.yul\":10584:10588   */\n      0x00\n        /* \"#utility.yul\":10622:10624   */\n      0x60\n        /* \"#utility.yul\":10611:10620   */\n      dup3\n        /* \"#utility.yul\":10607:10625   */\n      add\n        /* \"#utility.yul\":10599:10625   */\n      swap1\n      pop\n        /* \"#utility.yul\":10671:10680   */\n      dup2\n        /* \"#utility.yul\":10665:10669   */\n      dup2\n        /* \"#utility.yul\":10661:10681   */\n      sub\n        /* \"#utility.yul\":10657:10658   */\n      0x00\n        /* \"#utility.yul\":10646:10655   */\n      dup4\n        /* \"#utility.yul\":10642:10659   */\n      add\n        /* \"#utility.yul\":10635:10682   */\n      mstore\n        /* \"#utility.yul\":10699:10777   */\n      tag_438\n        /* \"#utility.yul\":10772:10776   */\n      dup2\n        /* \"#utility.yul\":10763:10769   */\n      dup7\n        /* \"#utility.yul\":10699:10777   */\n      tag_396\n      jump\t// in\n    tag_438:\n        /* \"#utility.yul\":10691:10777   */\n      swap1\n      pop\n        /* \"#utility.yul\":10824:10833   */\n      dup2\n        /* \"#utility.yul\":10818:10822   */\n      dup2\n        /* \"#utility.yul\":10814:10834   */\n      sub\n        /* \"#utility.yul\":10809:10811   */\n      0x20\n        /* \"#utility.yul\":10798:10807   */\n      dup4\n        /* \"#utility.yul\":10794:10812   */\n      add\n        /* \"#utility.yul\":10787:10835   */\n      mstore\n        /* \"#utility.yul\":10852:10930   */\n      tag_439\n        /* \"#utility.yul\":10925:10929   */\n      dup2\n        /* \"#utility.yul\":10916:10922   */\n      dup6\n        /* \"#utility.yul\":10852:10930   */\n      tag_396\n      jump\t// in\n    tag_439:\n        /* \"#utility.yul\":10844:10930   */\n      swap1\n      pop\n        /* \"#utility.yul\":10940:11012   */\n      tag_440\n        /* \"#utility.yul\":11008:11010   */\n      0x40\n        /* \"#utility.yul\":10997:11006   */\n      dup4\n        /* \"#utility.yul\":10993:11011   */\n      add\n        /* \"#utility.yul\":10984:10990   */\n      dup5\n        /* \"#utility.yul\":10940:11012   */\n      tag_426\n      jump\t// in\n    tag_440:\n        /* \"#utility.yul\":10395:11019   */\n      swap5\n      swap4\n      pop\n      pop\n      pop\n      pop\n      jump\t// out\n        /* \"#utility.yul\":11025:11444   */\n    tag_243:\n        /* \"#utility.yul\":11191:11195   */\n      0x00\n        /* \"#utility.yul\":11229:11231   */\n      0x20\n        /* \"#utility.yul\":11218:11227   */\n      dup3\n        /* \"#utility.yul\":11214:11232   */\n      add\n        /* \"#utility.yul\":11206:11232   */\n      swap1\n      pop\n        /* \"#utility.yul\":11278:11287   */\n      dup2\n        /* \"#utility.yul\":11272:11276   */\n      dup2\n        /* \"#utility.yul\":11268:11288   */\n      sub\n        /* \"#utility.yul\":11264:11265   */\n      0x00\n        /* \"#utility.yul\":11253:11262   */\n      dup4\n        /* \"#utility.yul\":11249:11266   */\n      add\n        /* \"#utility.yul\":11242:11289   */\n      mstore\n        /* \"#utility.yul\":11306:11437   */\n      tag_442\n        /* \"#utility.yul\":11432:11436   */\n      dup2\n        /* \"#utility.yul\":11306:11437   */\n      tag_403\n      jump\t// in\n    tag_442:\n        /* \"#utility.yul\":11298:11437   */\n      swap1\n      pop\n        /* \"#utility.yul\":11025:11444   */\n      swap2\n      swap1\n      pop\n      jump\t// out\n        /* \"#utility.yul\":11450:11869   */\n    tag_269:\n        /* \"#utility.yul\":11616:11620   */\n      0x00\n        /* \"#utility.yul\":11654:11656   */\n      0x20\n        /* \"#utility.yul\":11643:11652   */\n      dup3\n        /* \"#utility.yul\":11639:11657   */\n      add\n        /* \"#utility.yul\":11631:11657   */\n      swap1\n      pop\n        /* \"#utility.yul\":11703:11712   */\n      dup2\n        /* \"#utility.yul\":11697:11701   */\n      dup2\n        /* \"#utility.yul\":11693:11713   */\n      sub\n        /* \"#utility.yul\":11689:11690   */\n      0x00\n        /* \"#utility.yul\":11678:11687   */\n      dup4\n        /* \"#utility.yul\":11674:11691   */\n      add\n        /* \"#utility.yul\":11667:11714   */\n      mstore\n        /* \"#utility.yul\":11731:11862   */\n      tag_444\n        /* \"#utility.yul\":11857:11861   */\n      dup2\n        /* \"#utility.yul\":11731:11862   */\n      tag_408\n      jump\t// in\n    tag_444:\n        /* \"#utility.yul\":11723:11862   */\n      swap1\n      pop\n        /* \"#utility.yul\":11450:11869   */\n      swap2\n      swap1\n      pop\n      jump\t// out\n        /* \"#utility.yul\":11875:12294   */\n    tag_248:\n        /* \"#utility.yul\":12041:12045   */\n      0x00\n        /* \"#utility.yul\":12079:12081   */\n      0x20\n        /* \"#utility.yul\":12068:12077   */\n      dup3\n        /* \"#utility.yul\":12064:12082   */\n      add\n        /* \"#utility.yul\":12056:12082   */\n      swap1\n      pop\n        /* \"#utility.yul\":12128:12137   */\n      dup2\n        /* \"#utility.yul\":12122:12126   */\n      dup2\n        /* \"#utility.yul\":12118:12138   */\n      sub\n        /* \"#utility.yul\":12114:12115   */\n      0x00\n        /* \"#utility.yul\":12103:12112   */\n      dup4\n        /* \"#utility.yul\":12099:12116   */\n      add\n        /* \"#utility.yul\":12092:12139   */\n      mstore\n        /* \"#utility.yul\":12156:12287   */\n      tag_446\n        /* \"#utility.yul\":12282:12286   */\n      dup2\n        /* \"#utility.yul\":12156:12287   */\n      tag_413\n      jump\t// in\n    tag_446:\n        /* \"#utility.yul\":12148:12287   */\n      swap1\n      pop\n        /* \"#utility.yul\":11875:12294   */\n      swap2\n      swap1\n      pop\n      jump\t// out\n        /* \"#utility.yul\":12300:12522   */\n    tag_33:\n        /* \"#utility.yul\":12393:12397   */\n      0x00\n        /* \"#utility.yul\":12431:12433   */\n      0x20\n        /* \"#utility.yul\":12420:12429   */\n      dup3\n        /* \"#utility.yul\":12416:12434   */\n      add\n        /* \"#utility.yul\":12408:12434   */\n      swap1\n      pop\n        /* \"#utility.yul\":12444:12515   */\n      tag_448\n        /* \"#utility.yul\":12512:12513   */\n      0x00\n        /* \"#utility.yul\":12501:12510   */\n      dup4\n        /* \"#utility.yul\":12497:12514   */\n      add\n        /* \"#utility.yul\":12488:12494   */\n      dup5\n        /* \"#utility.yul\":12444:12515   */\n      tag_426\n      jump\t// in\n    tag_448:\n        /* \"#utility.yul\":12300:12522   */\n      swap3\n      swap2\n      pop\n      pop\n      jump\t// out\n        /* \"#utility.yul\":12528:12657   */\n    tag_298:\n        /* \"#utility.yul\":12562:12568   */\n      0x00\n        /* \"#utility.yul\":12589:12609   */\n      tag_450\n      tag_451\n      jump\t// in\n    tag_450:\n        /* \"#utility.yul\":12579:12609   */\n      swap1\n      pop\n        /* \"#utility.yul\":12618:12651   */\n      tag_452\n        /* \"#utility.yul\":12646:12650   */\n      dup3\n        /* \"#utility.yul\":12638:12644   */\n      dup3\n        /* \"#utility.yul\":12618:12651   */\n      tag_453\n      jump\t// in\n    tag_452:\n        /* \"#utility.yul\":12528:12657   */\n      swap2\n      swap1\n      pop\n      jump\t// out\n        /* \"#utility.yul\":12663:12738   */\n    tag_451:\n        /* \"#utility.yul\":12696:12702   */\n      0x00\n        /* \"#utility.yul\":12729:12731   */\n      0x40\n        /* \"#utility.yul\":12723:12732   */\n      mload\n        /* \"#utility.yul\":12713:12732   */\n      swap1\n      pop\n        /* \"#utility.yul\":12663:12738   */\n      swap1\n      jump\t// out\n        /* \"#utility.yul\":12744:13052   */\n    tag_297:\n        /* \"#utility.yul\":12806:12810   */\n      0x00\n        /* \"#utility.yul\":12896:12914   */\n      0xffffffffffffffff\n        /* \"#utility.yul\":12888:12894   */\n      dup3\n        /* \"#utility.yul\":12885:12915   */\n      gt\n        /* \"#utility.yul\":12882:12938   */\n      iszero\n      tag_456\n      jumpi\n        /* \"#utility.yul\":12918:12936   */\n      tag_457\n      tag_458\n      jump\t// in\n    tag_457:\n        /* \"#utility.yul\":12882:12938   */\n    tag_456:\n        /* \"#utility.yul\":12956:12985   */\n      tag_459\n        /* \"#utility.yul\":12978:12984   */\n      dup3\n        /* \"#utility.yul\":12956:12985   */\n      tag_395\n      jump\t// in\n    tag_459:\n        /* \"#utility.yul\":12948:12985   */\n      swap1\n      pop\n        /* \"#utility.yul\":13040:13044   */\n      0x20\n        /* \"#utility.yul\":13034:13038   */\n      dup2\n        /* \"#utility.yul\":13030:13045   */\n      add\n        /* \"#utility.yul\":13022:13045   */\n      swap1\n      pop\n        /* \"#utility.yul\":12744:13052   */\n      swap2\n      swap1\n      pop\n      jump\t// out\n        /* \"#utility.yul\":13058:13212   */\n    tag_375:\n        /* \"#utility.yul\":13147:13151   */\n      0x00\n        /* \"#utility.yul\":13170:13173   */\n      dup2\n        /* \"#utility.yul\":13162:13173   */\n      swap1\n      pop\n        /* \"#utility.yul\":13200:13204   */\n      0x20\n        /* \"#utility.yul\":13195:13198   */\n      dup3\n        /* \"#utility.yul\":13191:13205   */\n      add\n        /* \"#utility.yul\":13183:13205   */\n      swap1\n      pop\n        /* \"#utility.yul\":13058:13212   */\n      swap2\n      swap1\n      pop\n      jump\t// out\n        /* \"#utility.yul\":13218:13354   */\n    tag_371:\n        /* \"#utility.yul\":13307:13313   */\n      0x00\n        /* \"#utility.yul\":13341:13346   */\n      dup2\n        /* \"#utility.yul\":13335:13347   */\n      mload\n        /* \"#utility.yul\":13325:13347   */\n      swap1\n      pop\n        /* \"#utility.yul\":13218:13354   */\n      swap2\n      swap1\n      pop\n      jump\t// out\n        /* \"#utility.yul\":13360:13459   */\n    tag_389:\n        /* \"#utility.yul\":13412:13418   */\n      0x00\n        /* \"#utility.yul\":13446:13451   */\n      dup2\n        /* \"#utility.yul\":13440:13452   */\n      mload\n        /* \"#utility.yul\":13430:13452   */\n      swap1\n      pop\n        /* \"#utility.yul\":13360:13459   */\n      swap2\n      swap1\n      pop\n      jump\t// out\n        /* \"#utility.yul\":13465:13600   */\n    tag_381:\n        /* \"#utility.yul\":13557:13561   */\n      0x00\n        /* \"#utility.yul\":13589:13593   */\n      0x20\n        /* \"#utility.yul\":13584:13587   */\n      dup3\n        /* \"#utility.yul\":13580:13594   */\n      add\n        /* \"#utility.yul\":13572:13594   */\n      swap1\n      pop\n        /* \"#utility.yul\":13465:13600   */\n      swap2\n      swap1\n      pop\n      jump\t// out\n        /* \"#utility.yul\":13606:13812   */\n    tag_373:\n        /* \"#utility.yul\":13727:13738   */\n      0x00\n        /* \"#utility.yul\":13761:13767   */\n      dup3\n        /* \"#utility.yul\":13756:13759   */\n      dup3\n        /* \"#utility.yul\":13749:13768   */\n      mstore\n        /* \"#utility.yul\":13801:13805   */\n      0x20\n        /* \"#utility.yul\":13796:13799   */\n      dup3\n        /* \"#utility.yul\":13792:13806   */\n      add\n        /* \"#utility.yul\":13777:13806   */\n      swap1\n      pop\n        /* \"#utility.yul\":13606:13812   */\n      swap3\n      swap2\n      pop\n      pop\n      jump\t// out\n        /* \"#utility.yul\":13818:13977   */\n    tag_391:\n        /* \"#utility.yul\":13892:13903   */\n      0x00\n        /* \"#utility.yul\":13926:13932   */\n      dup3\n        /* \"#utility.yul\":13921:13924   */\n      dup3\n        /* \"#utility.yul\":13914:13933   */\n      mstore\n        /* \"#utility.yul\":13966:13970   */\n      0x20\n        /* \"#utility.yul\":13961:13964   */\n      dup3\n        /* \"#utility.yul\":13957:13971   */\n      add\n        /* \"#utility.yul\":13942:13971   */\n      swap1\n      pop\n        /* \"#utility.yul\":13818:13977   */\n      swap3\n      swap2\n      pop\n      pop\n      jump\t// out\n        /* \"#utility.yul\":13983:14152   */\n    tag_400:\n        /* \"#utility.yul\":14067:14078   */\n      0x00\n        /* \"#utility.yul\":14101:14107   */\n      dup3\n        /* \"#utility.yul\":14096:14099   */\n      dup3\n        /* \"#utility.yul\":14089:14108   */\n      mstore\n        /* \"#utility.yul\":14141:14145   */\n      0x20\n        /* \"#utility.yul\":14136:14139   */\n      dup3\n        /* \"#utility.yul\":14132:14146   */\n      add\n        /* \"#utility.yul\":14117:14146   */\n      swap1\n      pop\n        /* \"#utility.yul\":13983:14152   */\n      swap3\n      swap2\n      pop\n      pop\n      jump\t// out\n        /* \"#utility.yul\":14158:14463   */\n    tag_208:\n        /* \"#utility.yul\":14198:14201   */\n      0x00\n        /* \"#utility.yul\":14217:14237   */\n      tag_468\n        /* \"#utility.yul\":14235:14236   */\n      dup3\n        /* \"#utility.yul\":14217:14237   */\n      tag_425\n      jump\t// in\n    tag_468:\n        /* \"#utility.yul\":14212:14237   */\n      swap2\n      pop\n        /* \"#utility.yul\":14251:14271   */\n      tag_469\n        /* \"#utility.yul\":14269:14270   */\n      dup4\n        /* \"#utility.yul\":14251:14271   */\n      tag_425\n      jump\t// in\n    tag_469:\n        /* \"#utility.yul\":14246:14271   */\n      swap3\n      pop\n        /* \"#utility.yul\":14405:14406   */\n      dup3\n        /* \"#utility.yul\":14337:14403   */\n      0xffffffffffffffffffffffffffffffffffffffffffffffffffffffffffffffff\n        /* \"#utility.yul\":14333:14407   */\n      sub\n        /* \"#utility.yul\":14330:14331   */\n      dup3\n        /* \"#utility.yul\":14327:14408   */\n      gt\n        /* \"#utility.yul\":14324:14431   */\n      iszero\n      tag_470\n      jumpi\n        /* \"#utility.yul\":14411:14429   */\n      tag_471\n      tag_472\n      jump\t// in\n    tag_471:\n        /* \"#utility.yul\":14324:14431   */\n    tag_470:\n        /* \"#utility.yul\":14455:14456   */\n      dup3\n        /* \"#utility.yul\":14452:14453   */\n      dup3\n        /* \"#utility.yul\":14448:14457   */\n      add\n        /* \"#utility.yul\":14441:14457   */\n      swap1\n      pop\n        /* \"#utility.yul\":14158:14463   */\n      swap3\n      swap2\n      pop\n      pop\n      jump\t// out\n        /* \"#utility.yul\":14469:14817   */\n    tag_245:\n        /* \"#utility.yul\":14509:14516   */\n      0x00\n        /* \"#utility.yul\":14532:14552   */\n      tag_474\n        /* \"#utility.yul\":14550:14551   */\n      dup3\n        /* \"#utility.yul\":14532:14552   */\n      tag_425\n      jump\t// in\n    tag_474:\n        /* \"#utility.yul\":14527:14552   */\n      swap2\n      pop\n        /* \"#utility.yul\":14566:14586   */\n      tag_475\n        /* \"#utility.yul\":14584:14585   */\n      dup4\n        /* \"#utility.yul\":14566:14586   */\n      tag_425\n      jump\t// in\n    tag_475:\n        /* \"#utility.yul\":14561:14586   */\n      swap3\n      pop\n        /* \"#utility.yul\":14754:14755   */\n      dup2\n        /* \"#utility.yul\":14686:14752   */\n      0xffffffffffffffffffffffffffffffffffffffffffffffffffffffffffffffff\n        /* \"#utility.yul\":14682:14756   */\n      div\n        /* \"#utility.yul\":14679:14680   */\n      dup4\n        /* \"#utility.yul\":14676:14757   */\n      gt\n        /* \"#utility.yul\":14671:14672   */\n      dup3\n        /* \"#utility.yul\":14664:14673   */\n      iszero\n        /* \"#utility.yul\":14657:14674   */\n      iszero\n        /* \"#utility.yul\":14653:14758   */\n      and\n        /* \"#utility.yul\":14650:14781   */\n      iszero\n      tag_476\n      jumpi\n        /* \"#utility.yul\":14761:14779   */\n      tag_477\n      tag_472\n      jump\t// in\n    tag_477:\n        /* \"#utility.yul\":14650:14781   */\n    tag_476:\n        /* \"#utility.yul\":14809:14810   */\n      dup3\n        /* \"#utility.yul\":14806:14807   */\n      dup3\n        /* \"#utility.yul\":14802:14811   */\n      mul\n        /* \"#utility.yul\":14791:14811   */\n      swap1\n      pop\n        /* \"#utility.yul\":14469:14817   */\n      swap3\n      swap2\n      pop\n      pop\n      jump\t// out\n        /* \"#utility.yul\":14823:15014   */\n    tag_206:\n        /* \"#utility.yul\":14863:14867   */\n      0x00\n        /* \"#utility.yul\":14883:14903   */\n      tag_479\n        /* \"#utility.yul\":14901:14902   */\n      dup3\n        /* \"#utility.yul\":14883:14903   */\n      tag_425\n      jump\t// in\n    tag_479:\n        /* \"#utility.yul\":14878:14903   */\n      swap2\n      pop\n        /* \"#utility.yul\":14917:14937   */\n      tag_480\n        /* \"#utility.yul\":14935:14936   */\n      dup4\n        /* \"#utility.yul\":14917:14937   */\n      tag_425\n      jump\t// in\n    tag_480:\n        /* \"#utility.yul\":14912:14937   */\n      swap3\n      pop\n        /* \"#utility.yul\":14956:14957   */\n      dup3\n        /* \"#utility.yul\":14953:14954   */\n      dup3\n        /* \"#utility.yul\":14950:14958   */\n      lt\n        /* \"#utility.yul\":14947:14981   */\n      iszero\n      tag_481\n      jumpi\n        /* \"#utility.yul\":14961:14979   */\n      tag_482\n      tag_472\n      jump\t// in\n    tag_482:\n        /* \"#utility.yul\":14947:14981   */\n    tag_481:\n        /* \"#utility.yul\":15006:15007   */\n      dup3\n        /* \"#utility.yul\":15003:15004   */\n      dup3\n        /* \"#utility.yul\":14999:15008   */\n      sub\n        /* \"#utility.yul\":14991:15008   */\n      swap1\n      pop\n        /* \"#utility.yul\":14823:15014   */\n      swap3\n      swap2\n      pop\n      pop\n      jump\t// out\n        /* \"#utility.yul\":15020:15116   */\n    tag_367:\n        /* \"#utility.yul\":15057:15064   */\n      0x00\n        /* \"#utility.yul\":15086:15110   */\n      tag_484\n        /* \"#utility.yul\":15104:15109   */\n      dup3\n        /* \"#utility.yul\":15086:15110   */\n      tag_485\n      jump\t// in\n    tag_484:\n        /* \"#utility.yul\":15075:15110   */\n      swap1\n      pop\n        /* \"#utility.yul\":15020:15116   */\n      swap2\n      swap1\n      pop\n      jump\t// out\n        /* \"#utility.yul\":15122:15212   */\n    tag_385:\n        /* \"#utility.yul\":15156:15163   */\n      0x00\n        /* \"#utility.yul\":15199:15204   */\n      dup2\n        /* \"#utility.yul\":15192:15205   */\n      iszero\n        /* \"#utility.yul\":15185:15206   */\n      iszero\n        /* \"#utility.yul\":15174:15206   */\n      swap1\n      pop\n        /* \"#utility.yul\":15122:15212   */\n      swap2\n      swap1\n      pop\n      jump\t// out\n        /* \"#utility.yul\":15218:15344   */\n    tag_485:\n        /* \"#utility.yul\":15255:15262   */\n      0x00\n        /* \"#utility.yul\":15295:15337   */\n      0xffffffffffffffffffffffffffffffffffffffff\n        /* \"#utility.yul\":15288:15293   */\n      dup3\n        /* \"#utility.yul\":15284:15338   */\n      and\n        /* \"#utility.yul\":15273:15338   */\n      swap1\n      pop\n        /* \"#utility.yul\":15218:15344   */\n      swap2\n      swap1\n      pop\n      jump\t// out\n        /* \"#utility.yul\":15350:15427   */\n    tag_425:\n        /* \"#utility.yul\":15387:15394   */\n      0x00\n        /* \"#utility.yul\":15416:15421   */\n      dup2\n        /* \"#utility.yul\":15405:15421   */\n      swap1\n      pop\n        /* \"#utility.yul\":15350:15427   */\n      swap2\n      swap1\n      pop\n      jump\t// out\n        /* \"#utility.yul\":15433:15587   */\n    tag_303:\n        /* \"#utility.yul\":15517:15523   */\n      dup3\n        /* \"#utility.yul\":15512:15515   */\n      dup2\n        /* \"#utility.yul\":15507:15510   */\n      dup4\n        /* \"#utility.yul\":15494:15524   */\n      calldatacopy\n        /* \"#utility.yul\":15579:15580   */\n      0x00\n        /* \"#utility.yul\":15570:15576   */\n      dup4\n        /* \"#utility.yul\":15565:15568   */\n      dup4\n        /* \"#utility.yul\":15561:15577   */\n      add\n        /* \"#utility.yul\":15554:15581   */\n      mstore\n        /* \"#utility.yul\":15433:15587   */\n      pop\n      pop\n      pop\n      jump\t// out\n        /* \"#utility.yul\":15593:15900   */\n    tag_393:\n        /* \"#utility.yul\":15661:15662   */\n      0x00\n        /* \"#utility.yul\":15671:15784   */\n    tag_491:\n        /* \"#utility.yul\":15685:15691   */\n      dup4\n        /* \"#utility.yul\":15682:15683   */\n      dup2\n        /* \"#utility.yul\":15679:15692   */\n      lt\n        /* \"#utility.yul\":15671:15784   */\n      iszero\n      tag_493\n      jumpi\n        /* \"#utility.yul\":15770:15771   */\n      dup1\n        /* \"#utility.yul\":15765:15768   */\n      dup3\n        /* \"#utility.yul\":15761:15772   */\n      add\n        /* \"#utility.yul\":15755:15773   */\n      mload\n        /* \"#utility.yul\":15751:15752   */\n      dup2\n        /* \"#utility.yul\":15746:15749   */\n      dup5\n        /* \"#utility.yul\":15742:15753   */\n      add\n        /* \"#utility.yul\":15735:15774   */\n      mstore\n        /* \"#utility.yul\":15707:15709   */\n      0x20\n        /* \"#utility.yul\":15704:15705   */\n      dup2\n        /* \"#utility.yul\":15700:15710   */\n      add\n        /* \"#utility.yul\":15695:15710   */\n      swap1\n      pop\n        /* \"#utility.yul\":15671:15784   */\n      jump(tag_491)\n    tag_493:\n        /* \"#utility.yul\":15802:15808   */\n      dup4\n        /* \"#utility.yul\":15799:15800   */\n      dup2\n        /* \"#utility.yul\":15796:15809   */\n      gt\n        /* \"#utility.yul\":15793:15894   */\n      iszero\n      tag_494\n      jumpi\n        /* \"#utility.yul\":15882:15883   */\n      0x00\n        /* \"#utility.yul\":15873:15879   */\n      dup5\n        /* \"#utility.yul\":15868:15871   */\n      dup5\n        /* \"#utility.yul\":15864:15880   */\n      add\n        /* \"#utility.yul\":15857:15884   */\n      mstore\n        /* \"#utility.yul\":15793:15894   */\n    tag_494:\n        /* \"#utility.yul\":15642:15900   */\n      pop\n        /* \"#utility.yul\":15593:15900   */\n      pop\n      pop\n      pop\n      jump\t// out\n        /* \"#utility.yul\":15906:16226   */\n    tag_138:\n        /* \"#utility.yul\":15950:15956   */\n      0x00\n        /* \"#utility.yul\":15987:15988   */\n      0x02\n        /* \"#utility.yul\":15981:15985   */\n      dup3\n        /* \"#utility.yul\":15977:15989   */\n      div\n        /* \"#utility.yul\":15967:15989   */\n      swap1\n      pop\n        /* \"#utility.yul\":16034:16035   */\n      0x01\n        /* \"#utility.yul\":16028:16032   */\n      dup3\n        /* \"#utility.yul\":16024:16036   */\n      and\n        /* \"#utility.yul\":16055:16073   */\n      dup1\n        /* \"#utility.yul\":16045:16126   */\n      tag_496\n      jumpi\n        /* \"#utility.yul\":16111:16115   */\n      0x7f\n        /* \"#utility.yul\":16103:16109   */\n      dup3\n        /* \"#utility.yul\":16099:16116   */\n      and\n        /* \"#utility.yul\":16089:16116   */\n      swap2\n      pop\n        /* \"#utility.yul\":16045:16126   */\n    tag_496:\n        /* \"#utility.yul\":16173:16175   */\n      0x20\n        /* \"#utility.yul\":16165:16171   */\n      dup3\n        /* \"#utility.yul\":16162:16176   */\n      lt\n        /* \"#utility.yul\":16142:16160   */\n      dup2\n        /* \"#utility.yul\":16139:16177   */\n      eq\n        /* \"#utility.yul\":16136:16220   */\n      iszero\n      tag_497\n      jumpi\n        /* \"#utility.yul\":16192:16210   */\n      tag_498\n      tag_499\n      jump\t// in\n    tag_498:\n        /* \"#utility.yul\":16136:16220   */\n    tag_497:\n        /* \"#utility.yul\":15957:16226   */\n      pop\n        /* \"#utility.yul\":15906:16226   */\n      swap2\n      swap1\n      pop\n      jump\t// out\n        /* \"#utility.yul\":16232:16513   */\n    tag_453:\n        /* \"#utility.yul\":16315:16342   */\n      tag_501\n        /* \"#utility.yul\":16337:16341   */\n      dup3\n        /* \"#utility.yul\":16315:16342   */\n      tag_395\n      jump\t// in\n    tag_501:\n        /* \"#utility.yul\":16307:16313   */\n      dup2\n        /* \"#utility.yul\":16303:16343   */\n      add\n        /* \"#utility.yul\":16445:16451   */\n      dup2\n        /* \"#utility.yul\":16433:16443   */\n      dup2\n        /* \"#utility.yul\":16430:16452   */\n      lt\n        /* \"#utility.yul\":16409:16427   */\n      0xffffffffffffffff\n        /* \"#utility.yul\":16397:16407   */\n      dup3\n        /* \"#utility.yul\":16394:16428   */\n      gt\n        /* \"#utility.yul\":16391:16453   */\n      or\n        /* \"#utility.yul\":16388:16476   */\n      iszero\n      tag_502\n      jumpi\n        /* \"#utility.yul\":16456:16474   */\n      tag_503\n      tag_458\n      jump\t// in\n    tag_503:\n        /* \"#utility.yul\":16388:16476   */\n    tag_502:\n        /* \"#utility.yul\":16496:16506   */\n      dup1\n        /* \"#utility.yul\":16492:16494   */\n      0x40\n        /* \"#utility.yul\":16485:16507   */\n      mstore\n        /* \"#utility.yul\":16275:16513   */\n      pop\n        /* \"#utility.yul\":16232:16513   */\n      pop\n      pop\n      jump\t// out\n        /* \"#utility.yul\":16519:16752   */\n    tag_199:\n        /* \"#utility.yul\":16558:16561   */\n      0x00\n        /* \"#utility.yul\":16581:16605   */\n      tag_505\n        /* \"#utility.yul\":16599:16604   */\n      dup3\n        /* \"#utility.yul\":16581:16605   */\n      tag_425\n      jump\t// in\n    tag_505:\n        /* \"#utility.yul\":16572:16605   */\n      swap2\n      pop\n        /* \"#utility.yul\":16627:16693   */\n      0xffffffffffffffffffffffffffffffffffffffffffffffffffffffffffffffff\n        /* \"#utility.yul\":16620:16625   */\n      dup3\n        /* \"#utility.yul\":16617:16694   */\n      eq\n        /* \"#utility.yul\":16614:16717   */\n      iszero\n      tag_506\n      jumpi\n        /* \"#utility.yul\":16697:16715   */\n      tag_507\n      tag_472\n      jump\t// in\n    tag_507:\n        /* \"#utility.yul\":16614:16717   */\n    tag_506:\n        /* \"#utility.yul\":16744:16745   */\n      0x01\n        /* \"#utility.yul\":16737:16742   */\n      dup3\n        /* \"#utility.yul\":16733:16746   */\n      add\n        /* \"#utility.yul\":16726:16746   */\n      swap1\n      pop\n        /* \"#utility.yul\":16519:16752   */\n      swap2\n      swap1\n      pop\n      jump\t// out\n        /* \"#utility.yul\":16758:16938   */\n    tag_472:\n        /* \"#utility.yul\":16806:16883   */\n      0x4e487b7100000000000000000000000000000000000000000000000000000000\n        /* \"#utility.yul\":16803:16804   */\n      0x00\n        /* \"#utility.yul\":16796:16884   */\n      mstore\n        /* \"#utility.yul\":16903:16907   */\n      0x11\n        /* \"#utility.yul\":16900:16901   */\n      0x04\n        /* \"#utility.yul\":16893:16908   */\n      mstore\n        /* \"#utility.yul\":16927:16931   */\n      0x24\n        /* \"#utility.yul\":16924:16925   */\n      0x00\n        /* \"#utility.yul\":16917:16932   */\n      revert\n        /* \"#utility.yul\":16944:17124   */\n    tag_148:\n        /* \"#utility.yul\":16992:17069   */\n      0x4e487b7100000000000000000000000000000000000000000000000000000000\n        /* \"#utility.yul\":16989:16990   */\n      0x00\n        /* \"#utility.yul\":16982:17070   */\n      mstore\n        /* \"#utility.yul\":17089:17093   */\n      0x21\n        /* \"#utility.yul\":17086:17087   */\n      0x04\n        /* \"#utility.yul\":17079:17094   */\n      mstore\n        /* \"#utility.yul\":17113:17117   */\n      0x24\n        /* \"#utility.yul\":17110:17111   */\n      0x00\n        /* \"#utility.yul\":17103:17118   */\n      revert\n        /* \"#utility.yul\":17130:17310   */\n    tag_499:\n        /* \"#utility.yul\":17178:17255   */\n      0x4e487b7100000000000000000000000000000000000000000000000000000000\n        /* \"#utility.yul\":17175:17176   */\n      0x00\n        /* \"#utility.yul\":17168:17256   */\n      mstore\n        /* \"#utility.yul\":17275:17279   */\n      0x22\n        /* \"#utility.yul\":17272:17273   */\n      0x04\n        /* \"#utility.yul\":17265:17280   */\n      mstore\n        /* \"#utility.yul\":17299:17303   */\n      0x24\n        /* \"#utility.yul\":17296:17297   */\n      0x00\n        /* \"#utility.yul\":17289:17304   */\n      revert\n        /* \"#utility.yul\":17316:17496   */\n    tag_278:\n        /* \"#utility.yul\":17364:17441   */\n      0x4e487b7100000000000000000000000000000000000000000000000000000000\n        /* \"#utility.yul\":17361:17362   */\n      0x00\n        /* \"#utility.yul\":17354:17442   */\n      mstore\n        /* \"#utility.yul\":17461:17465   */\n      0x32\n        /* \"#utility.yul\":17458:17459   */\n      0x04\n        /* \"#utility.yul\":17451:17466   */\n      mstore\n        /* \"#utility.yul\":17485:17489   */\n      0x24\n        /* \"#utility.yul\":17482:17483   */\n      0x00\n        /* \"#utility.yul\":17475:17490   */\n      revert\n        /* \"#utility.yul\":17502:17682   */\n    tag_458:\n        /* \"#utility.yul\":17550:17627   */\n      0x4e487b7100000000000000000000000000000000000000000000000000000000\n        /* \"#utility.yul\":17547:17548   */\n      0x00\n        /* \"#utility.yul\":17540:17628   */\n      mstore\n        /* \"#utility.yul\":17647:17651   */\n      0x41\n        /* \"#utility.yul\":17644:17645   */\n      0x04\n        /* \"#utility.yul\":17637:17652   */\n      mstore\n        /* \"#utility.yul\":17671:17675   */\n      0x24\n        /* \"#utility.yul\":17668:17669   */\n      0x00\n        /* \"#utility.yul\":17661:17676   */\n      revert\n        /* \"#utility.yul\":17688:17805   */\n    tag_316:\n        /* \"#utility.yul\":17797:17798   */\n      0x00\n        /* \"#utility.yul\":17794:17795   */\n      dup1\n        /* \"#utility.yul\":17787:17799   */\n      revert\n        /* \"#utility.yul\":17811:17928   */\n    tag_301:\n        /* \"#utility.yul\":17920:17921   */\n      0x00\n        /* \"#utility.yul\":17917:17918   */\n      dup1\n        /* \"#utility.yul\":17910:17922   */\n      revert\n        /* \"#utility.yul\":17934:18051   */\n    tag_341:\n        /* \"#utility.yul\":18043:18044   */\n      0x00\n        /* \"#utility.yul\":18040:18041   */\n      dup1\n        /* \"#utility.yul\":18033:18045   */\n      revert\n        /* \"#utility.yul\":18057:18174   */\n    tag_325:\n        /* \"#utility.yul\":18166:18167   */\n      0x00\n        /* \"#utility.yul\":18163:18164   */\n      dup1\n        /* \"#utility.yul\":18156:18168   */\n      revert\n        /* \"#utility.yul\":18180:18282   */\n    tag_395:\n        /* \"#utility.yul\":18221:18227   */\n      0x00\n        /* \"#utility.yul\":18272:18274   */\n      0x1f\n        /* \"#utility.yul\":18268:18275   */\n      not\n        /* \"#utility.yul\":18263:18265   */\n      0x1f\n        /* \"#utility.yul\":18256:18261   */\n      dup4\n        /* \"#utility.yul\":18252:18266   */\n      add\n        /* \"#utility.yul\":18248:18276   */\n      and\n        /* \"#utility.yul\":18238:18276   */\n      swap1\n      pop\n        /* \"#utility.yul\":18180:18282   */\n      swap2\n      swap1\n      pop\n      jump\t// out\n        /* \"#utility.yul\":18288:18510   */\n    tag_407:\n        /* \"#utility.yul\":18428:18462   */\n      0x4e756d626572206f662073686172657320657863656564656420746865206c69\n        /* \"#utility.yul\":18424:18425   */\n      0x00\n        /* \"#utility.yul\":18416:18422   */\n      dup3\n        /* \"#utility.yul\":18412:18426   */\n      add\n        /* \"#utility.yul\":18405:18463   */\n      mstore\n        /* \"#utility.yul\":18497:18502   */\n      0x6d69740000000000000000000000000000000000000000000000000000000000\n        /* \"#utility.yul\":18492:18494   */\n      0x20\n        /* \"#utility.yul\":18484:18490   */\n      dup3\n        /* \"#utility.yul\":18480:18495   */\n      add\n        /* \"#utility.yul\":18473:18503   */\n      mstore\n        /* \"#utility.yul\":18288:18510   */\n      pop\n      jump\t// out\n        /* \"#utility.yul\":18516:18737   */\n    tag_412:\n        /* \"#utility.yul\":18656:18690   */\n      0x54686973207573657220646f6573206e6f7420686f6c6420616e792073686172\n        /* \"#utility.yul\":18652:18653   */\n      0x00\n        /* \"#utility.yul\":18644:18650   */\n      dup3\n        /* \"#utility.yul\":18640:18654   */\n      add\n        /* \"#utility.yul\":18633:18691   */\n      mstore\n        /* \"#utility.yul\":18725:18729   */\n      0x6573000000000000000000000000000000000000000000000000000000000000\n        /* \"#utility.yul\":18720:18722   */\n      0x20\n        /* \"#utility.yul\":18712:18718   */\n      dup3\n        /* \"#utility.yul\":18708:18723   */\n      add\n        /* \"#utility.yul\":18701:18730   */\n      mstore\n        /* \"#utility.yul\":18516:18737   */\n      pop\n      jump\t// out\n        /* \"#utility.yul\":18743:18907   */\n    tag_417:\n        /* \"#utility.yul\":18883:18899   */\n      0x4e6f7420656e6f75676820776569000000000000000000000000000000000000\n        /* \"#utility.yul\":18879:18880   */\n      0x00\n        /* \"#utility.yul\":18871:18877   */\n      dup3\n        /* \"#utility.yul\":18867:18881   */\n      add\n        /* \"#utility.yul\":18860:18900   */\n      mstore\n        /* \"#utility.yul\":18743:18907   */\n      pop\n      jump\t// out\n        /* \"#utility.yul\":18913:19035   */\n    tag_307:\n        /* \"#utility.yul\":18986:19010   */\n      tag_522\n        /* \"#utility.yul\":19004:19009   */\n      dup2\n        /* \"#utility.yul\":18986:19010   */\n      tag_367\n      jump\t// in\n    tag_522:\n        /* \"#utility.yul\":18979:18984   */\n      dup2\n        /* \"#utility.yul\":18976:19011   */\n      eq\n        /* \"#utility.yul\":18966:19029   */\n      tag_523\n      jumpi\n        /* \"#utility.yul\":19025:19026   */\n      0x00\n        /* \"#utility.yul\":19022:19023   */\n      dup1\n        /* \"#utility.yul\":19015:19027   */\n      revert\n        /* \"#utility.yul\":18966:19029   */\n    tag_523:\n        /* \"#utility.yul\":18913:19035   */\n      pop\n      jump\t// out\n        /* \"#utility.yul\":19041:19157   */\n    tag_311:\n        /* \"#utility.yul\":19111:19132   */\n      tag_525\n        /* \"#utility.yul\":19126:19131   */\n      dup2\n        /* \"#utility.yul\":19111:19132   */\n      tag_385\n      jump\t// in\n    tag_525:\n        /* \"#utility.yul\":19104:19109   */\n      dup2\n        /* \"#utility.yul\":19101:19133   */\n      eq\n        /* \"#utility.yul\":19091:19151   */\n      tag_526\n      jumpi\n        /* \"#utility.yul\":19147:19148   */\n      0x00\n        /* \"#utility.yul\":19144:19145   */\n      dup1\n        /* \"#utility.yul\":19137:19149   */\n      revert\n        /* \"#utility.yul\":19091:19151   */\n    tag_526:\n        /* \"#utility.yul\":19041:19157   */\n      pop\n      jump\t// out\n        /* \"#utility.yul\":19163:19285   */\n    tag_321:\n        /* \"#utility.yul\":19236:19260   */\n      tag_528\n        /* \"#utility.yul\":19254:19259   */\n      dup2\n        /* \"#utility.yul\":19236:19260   */\n      tag_425\n      jump\t// in\n    tag_528:\n        /* \"#utility.yul\":19229:19234   */\n      dup2\n        /* \"#utility.yul\":19226:19261   */\n      eq\n        /* \"#utility.yul\":19216:19279   */\n      tag_529\n      jumpi\n        /* \"#utility.yul\":19275:19276   */\n      0x00\n        /* \"#utility.yul\":19272:19273   */\n      dup1\n        /* \"#utility.yul\":19265:19277   */\n      revert\n        /* \"#utility.yul\":19216:19279   */\n    tag_529:\n        /* \"#utility.yul\":19163:19285   */\n      pop\n      jump\t// out\n\n    auxdata: 0xa264697066735822122052636ab1d408e84c5d3376f70f984ee9394e7e475a955fc81389a09ffbae725564736f6c63430008070033\n}\n",
				"bytecode": {
					"linkReferences": {},
					"object": "608060405260646006556001600755600a60085560006009556000601155600060125560006013553480156200003457600080fd5b506040516200266b3803806200266b83398181016040528101906200005a919062000286565b336000806101000a81548173ffffffffffffffffffffffffffffffffffffffff021916908373ffffffffffffffffffffffffffffffffffffffff160217905550600654600d60003373ffffffffffffffffffffffffffffffffffffffff1673ffffffffffffffffffffffffffffffffffffffff168152602001908152602001600020819055508160016000019080519060200190620000fb92919062000158565b50806001800190805190602001906200011692919062000158565b5060006001600301819055506000600a60006101000a81548160ff021916908360018111156200014b576200014a6200040c565b5b02179055505050620004be565b8280546200016690620003a0565b90600052602060002090601f0160209004810192826200018a5760008555620001d6565b82601f10620001a557805160ff1916838001178555620001d6565b82800160010185558215620001d6579182015b82811115620001d5578251825591602001919060010190620001b8565b5b509050620001e59190620001e9565b5090565b5b8082111562000204576000816000905550600101620001ea565b5090565b60006200021f620002198462000334565b6200030b565b9050828152602081018484840111156200023e576200023d6200049e565b5b6200024b8482856200036a565b509392505050565b600082601f8301126200026b576200026a62000499565b5b81516200027d84826020860162000208565b91505092915050565b60008060408385031215620002a0576200029f620004a8565b5b600083015167ffffffffffffffff811115620002c157620002c0620004a3565b5b620002cf8582860162000253565b925050602083015167ffffffffffffffff811115620002f357620002f2620004a3565b5b620003018582860162000253565b9150509250929050565b6000620003176200032a565b9050620003258282620003d6565b919050565b6000604051905090565b600067ffffffffffffffff8211156200035257620003516200046a565b5b6200035d82620004ad565b9050602081019050919050565b60005b838110156200038a5780820151818401526020810190506200036d565b838111156200039a576000848401525b50505050565b60006002820490506001821680620003b957607f821691505b60208210811415620003d057620003cf6200043b565b5b50919050565b620003e182620004ad565b810181811067ffffffffffffffff821117156200040357620004026200046a565b5b80604052505050565b7f4e487b7100000000000000000000000000000000000000000000000000000000600052602160045260246000fd5b7f4e487b7100000000000000000000000000000000000000000000000000000000600052602260045260246000fd5b7f4e487b7100000000000000000000000000000000000000000000000000000000600052604160045260246000fd5b600080fd5b600080fd5b600080fd5b600080fd5b6000601f19601f8301169050919050565b61219d80620004ce6000396000f3fe60806040526004361061014b5760003560e01c806387caea78116100b6578063b92239461161006f578063b922394614610470578063d8124c5f14610487578063d96a094a146104b4578063df094409146104d0578063e4849b32146104f9578063f3a8286f146105225761014b565b806387caea78146103605780638da5cb5b1461039d5780639a982416146103c8578063a9059cbb146103f3578063ad3494421461041c578063af769c64146104475761014b565b80634c0a6af0116101085780634c0a6af01461025057806359ea0173146102675780636fa4f103146102a45780637427a40c146102cd578063753ec1031461030a5780637ff9b596146103355761014b565b80630d15fd77146101505780631b26586c1461017b578063293230b8146101a65780633107c99d146101bd5780633a98ef39146101fa5780633be75aa314610225575b600080fd5b34801561015c57600080fd5b5061016561054d565b6040516101729190611c5a565b60405180910390f35b34801561018757600080fd5b50610190610553565b60405161019d9190611b93565b60405180910390f35b3480156101b257600080fd5b506101bb6105e1565b005b3480156101c957600080fd5b506101e460048036038101906101df9190611917565b610666565b6040516101f19190611b56565b60405180910390f35b34801561020657600080fd5b5061020f6107f5565b60405161021c9190611c5a565b60405180910390f35b34801561023157600080fd5b5061023a6107fb565b6040516102479190611c5a565b60405180910390f35b34801561025c57600080fd5b50610265610801565b005b34801561027357600080fd5b5061028e6004803603810190610289919061177a565b6108f6565b60405161029b9190611b78565b60405180910390f35b3480156102b057600080fd5b506102cb60048036038101906102c69190611814565b610916565b005b3480156102d957600080fd5b506102f460048036038101906102ef9190611917565b6109b4565b6040516103019190611b3b565b60405180910390f35b34801561031657600080fd5b5061031f6109f3565b60405161032c9190611b93565b60405180910390f35b34801561034157600080fd5b5061034a610a81565b6040516103579190611c5a565b60405180910390f35b34801561036c57600080fd5b50610387600480360381019061038291906117e7565b610a87565b6040516103949190611b78565b60405180910390f35b3480156103a957600080fd5b506103b2610cc3565b6040516103bf9190611b3b565b60405180910390f35b3480156103d457600080fd5b506103dd610ce7565b6040516103ea9190611c5a565b60405180910390f35b3480156103ff57600080fd5b5061041a600480360381019061041591906117a7565b610ced565b005b34801561042857600080fd5b50610431610e41565b60405161043e9190611b3b565b60405180910390f35b34801561045357600080fd5b5061046e6004803603810190610469919061177a565b610e67565b005b34801561047c57600080fd5b50610485610fda565b005b34801561049357600080fd5b5061049c6110e5565b6040516104ab93929190611bb5565b60405180910390f35b6104ce60048036038101906104c99190611917565b61120d565b005b3480156104dc57600080fd5b506104f760048036038101906104f2919061188c565b6112b8565b005b34801561050557600080fd5b50610520600480360381019061051b9190611917565b61144b565b005b34801561052e57600080fd5b50610537611542565b6040516105449190611c5a565b60405180910390f35b60135481565b600f805461056090611e9f565b80601f016020809104026020016040519081016040528092919081815260200182805461058c90611e9f565b80156105d95780601f106105ae576101008083540402835291602001916105d9565b820191906000526020600020905b8154815290600101906020018083116105bc57829003601f168201915b505050505081565b60008054906101000a900473ffffffffffffffffffffffffffffffffffffffff1673ffffffffffffffffffffffffffffffffffffffff163373ffffffffffffffffffffffffffffffffffffffff161461063957600080fd5b6001600a60006101000a81548160ff0219169083600181111561065f5761065e611f7a565b5b0217905550565b60606005805480602002602001604051908101604052809291908181526020016000905b828210156107ea57838290600052602060002090600302016040518060600160405290816000820180546106bd90611e9f565b80601f01602080910402602001604051908101604052809291908181526020018280546106e990611e9f565b80156107365780601f1061070b57610100808354040283529160200191610736565b820191906000526020600020905b81548152906001019060200180831161071957829003601f168201915b5050505050815260200160018201805461074f90611e9f565b80601f016020809104026020016040519081016040528092919081815260200182805461077b90611e9f565b80156107c85780601f1061079d576101008083540402835291602001916107c8565b820191906000526020600020905b8154815290600101906020018083116107ab57829003601f168201915b505050505081526020016002820154815250508152602001906001019061068a565b505050509050919050565b60065481565b60085481565b600080600281111561081657610815611f7a565b5b600e60009054906101000a900460ff16600281111561083857610837611f7a565b5b1461084257600080fd5b600e60019054906101000a900473ffffffffffffffffffffffffffffffffffffffff1673ffffffffffffffffffffffffffffffffffffffff163373ffffffffffffffffffffffffffffffffffffffff161461089c57600080fd5b6001600e60006101000a81548160ff021916908360028111156108c2576108c1611f7a565b5b02179055507fd0dc01800a369fef30d3fced5275b8b916549867622e79efca5245c479fda4ea60405160405180910390a150565b600c6020528060005260406000206000915054906101000a900460ff1681565b6000600e60006101000a81548160ff0219169083600281111561093c5761093b611f7a565b5b021790555081600f90805190602001906109579291906115f6565b50806010908051906020019061096e9291906115f6565b5033600e60016101000a81548173ffffffffffffffffffffffffffffffffffffffff021916908373ffffffffffffffffffffffffffffffffffffffff1602179055505050565b600b81815481106109c457600080fd5b906000526020600020016000915054906101000a900473ffffffffffffffffffffffffffffffffffffffff1681565b60108054610a0090611e9f565b80601f0160208091040260200160405190810160405280929190818152602001828054610a2c90611e9f565b8015610a795780601f10610a4e57610100808354040283529160200191610a79565b820191906000526020600020905b815481529060010190602001808311610a5c57829003601f168201915b505050505081565b60075481565b60006001806002811115610a9e57610a9d611f7a565b5b600e60009054906101000a900460ff166002811115610ac057610abf611f7a565b5b14610aca57600080fd5b6000600c60003373ffffffffffffffffffffffffffffffffffffffff1673ffffffffffffffffffffffffffffffffffffffff16815260200190815260200160002060009054906101000a900460ff16610c82576001600c60003373ffffffffffffffffffffffffffffffffffffffff1673ffffffffffffffffffffffffffffffffffffffff16815260200190815260200160002060006101000a81548160ff021916908315150217905550610b7d61167c565b33816000019073ffffffffffffffffffffffffffffffffffffffff16908173ffffffffffffffffffffffffffffffffffffffff1681525050848160200190151590811515815250508415610be45760116000815480929190610bde90611f02565b91905055505b8060146000601354815260200190815260200160002060008201518160000160006101000a81548173ffffffffffffffffffffffffffffffffffffffff021916908373ffffffffffffffffffffffffffffffffffffffff16021790555060208201518160000160146101000a81548160ff02191690831515021790555090505060136000815480929190610c7790611f02565b919050555060019150505b7f55c65cf9526efdf6c2252fe9757889dbd93e10172cad0f2edb1df619c88dbf7d33604051610cb19190611b3b565b60405180910390a18092505050919050565b60008054906101000a900473ffffffffffffffffffffffffffffffffffffffff1681565b60095481565b80600d60003373ffffffffffffffffffffffffffffffffffffffff1673ffffffffffffffffffffffffffffffffffffffff168152602001908152602001600020541015610d3957600080fd5b60008054906101000a900473ffffffffffffffffffffffffffffffffffffffff1673ffffffffffffffffffffffffffffffffffffffff163373ffffffffffffffffffffffffffffffffffffffff1614610d9157600080fd5b80600d60003373ffffffffffffffffffffffffffffffffffffffff1673ffffffffffffffffffffffffffffffffffffffff1681526020019081526020016000206000828254610de09190611de1565b9250508190555080600d60008473ffffffffffffffffffffffffffffffffffffffff1673ffffffffffffffffffffffffffffffffffffffff1681526020019081526020016000206000828254610e369190611d31565b925050819055505050565b600e60019054906101000a900473ffffffffffffffffffffffffffffffffffffffff1681565b60008054906101000a900473ffffffffffffffffffffffffffffffffffffffff1673ffffffffffffffffffffffffffffffffffffffff163373ffffffffffffffffffffffffffffffffffffffff1614610ebf57600080fd5b610ec881611548565b610fd7576000600c60008373ffffffffffffffffffffffffffffffffffffffff1673ffffffffffffffffffffffffffffffffffffffff16815260200190815260200160002060006101000a81548160ff021916908315150217905550600b819080600181540180825580915050600190039060005260206000200160009091909190916101000a81548173ffffffffffffffffffffffffffffffffffffffff021916908373ffffffffffffffffffffffffffffffffffffffff16021790555060096000815480929190610f9a90611f02565b91905055507f30040c92e8da146ac410fb6841ea0f60af3b8f3788e5e7354e48d97d018f39dd81604051610fce9190611b3b565b60405180910390a15b50565b6001806002811115610fef57610fee611f7a565b5b600e60009054906101000a900460ff16600281111561101157611010611f7a565b5b1461101b57600080fd5b600e60019054906101000a900473ffffffffffffffffffffffffffffffffffffffff1673ffffffffffffffffffffffffffffffffffffffff163373ffffffffffffffffffffffffffffffffffffffff161461107557600080fd5b6002600e60006101000a81548160ff0219169083600281111561109b5761109a611f7a565b5b02179055506011546012819055507fb43a401dcdbe02a8afa41feb6c651425997908d1a4b79cf505188ba1dd3fd8726012546040516110da9190611c5a565b60405180910390a150565b60018060000180546110f690611e9f565b80601f016020809104026020016040519081016040528092919081815260200182805461112290611e9f565b801561116f5780601f106111445761010080835404028352916020019161116f565b820191906000526020600020905b81548152906001019060200180831161115257829003601f168201915b50505050509080600101805461118490611e9f565b80601f01602080910402602001604051908101604052809291908181526020018280546111b090611e9f565b80156111fd5780601f106111d2576101008083540402835291602001916111fd565b820191906000526020600020905b8154815290600101906020018083116111e057829003601f168201915b5050505050908060030154905083565b600854811115611252576040517f08c379a000000000000000000000000000000000000000000000000000000000815260040161124990611bfa565b60405180910390fd5b600754816112609190611d87565b3410156112a2576040517f08c379a000000000000000000000000000000000000000000000000000000000815260040161129990611c3a565b60405180910390fd5b6112ac3382610ced565b6112b533610e67565b50565b60008054906101000a900473ffffffffffffffffffffffffffffffffffffffff1673ffffffffffffffffffffffffffffffffffffffff163373ffffffffffffffffffffffffffffffffffffffff161461131057600080fd5b600080600181111561132557611324611f7a565b5b600a60009054906101000a900460ff16600181111561134757611346611f7a565b5b1461135157600080fd5b6000604051806060016040528086815260200185815260200184815250905082600160030160008282546113859190611d31565b92505081905550600160020181908060018154018082558091505060019003906000526020600020906003020160009091909190915060008201518160000190805190602001906113d79291906115f6565b5060208201518160010190805190602001906113f49291906115f6565b506040820151816002015550506001600301546007819055507f4578fe17eaab41ae382abe3462bb0cf04bcfee4168d2aad3ce9d5d225d0e27f68560405161143c9190611b93565b60405180910390a15050505050565b61145433611548565b611493576040517f08c379a000000000000000000000000000000000000000000000000000000000815260040161148a90611c1a565b60405180910390fd5b80600d60003373ffffffffffffffffffffffffffffffffffffffff1673ffffffffffffffffffffffffffffffffffffffff16815260200190815260200160002060008282546114e29190611de1565b9250508190555080600d60003073ffffffffffffffffffffffffffffffffffffffff1673ffffffffffffffffffffffffffffffffffffffff16815260200190815260200160002060008282546115389190611d31565b9250508190555050565b60125481565b600080600090505b600b8054905081116115eb578273ffffffffffffffffffffffffffffffffffffffff16600b828154811061158757611586611fd8565b5b9060005260206000200160009054906101000a900473ffffffffffffffffffffffffffffffffffffffff1673ffffffffffffffffffffffffffffffffffffffff1614156115d85760019150506115f1565b80806115e390611f02565b915050611550565b50600090505b919050565b82805461160290611e9f565b90600052602060002090601f016020900481019282611624576000855561166b565b82601f1061163d57805160ff191683800117855561166b565b8280016001018555821561166b579182015b8281111561166a57825182559160200191906001019061164f565b5b50905061167891906116ae565b5090565b6040518060400160405280600073ffffffffffffffffffffffffffffffffffffffff1681526020016000151581525090565b5b808211156116c75760008160009055506001016116af565b5090565b60006116de6116d984611c9a565b611c75565b9050828152602081018484840111156116fa576116f961203b565b5b611705848285611e5d565b509392505050565b60008135905061171c81612122565b92915050565b60008135905061173181612139565b92915050565b600082601f83011261174c5761174b612036565b5b813561175c8482602086016116cb565b91505092915050565b60008135905061177481612150565b92915050565b6000602082840312156117905761178f612045565b5b600061179e8482850161170d565b91505092915050565b600080604083850312156117be576117bd612045565b5b60006117cc8582860161170d565b92505060206117dd85828601611765565b9150509250929050565b6000602082840312156117fd576117fc612045565b5b600061180b84828501611722565b91505092915050565b6000806040838503121561182b5761182a612045565b5b600083013567ffffffffffffffff81111561184957611848612040565b5b61185585828601611737565b925050602083013567ffffffffffffffff81111561187657611875612040565b5b61188285828601611737565b9150509250929050565b6000806000606084860312156118a5576118a4612045565b5b600084013567ffffffffffffffff8111156118c3576118c2612040565b5b6118cf86828701611737565b935050602084013567ffffffffffffffff8111156118f0576118ef612040565b5b6118fc86828701611737565b925050604061190d86828701611765565b9150509250925092565b60006020828403121561192d5761192c612045565b5b600061193b84828501611765565b91505092915050565b60006119508383611ac6565b905092915050565b61196181611e15565b82525050565b600061197282611cdb565b61197c8185611cfe565b93508360208202850161198e85611ccb565b8060005b858110156119ca57848403895281516119ab8582611944565b94506119b683611cf1565b925060208a01995050600181019050611992565b50829750879550505050505092915050565b6119e581611e27565b82525050565b60006119f682611ce6565b611a008185611d0f565b9350611a10818560208601611e6c565b611a198161204a565b840191505092915050565b6000611a2f82611ce6565b611a398185611d20565b9350611a49818560208601611e6c565b611a528161204a565b840191505092915050565b6000611a6a602383611d20565b9150611a758261205b565b604082019050919050565b6000611a8d602283611d20565b9150611a98826120aa565b604082019050919050565b6000611ab0600e83611d20565b9150611abb826120f9565b602082019050919050565b60006060830160008301518482036000860152611ae382826119eb565b91505060208301518482036020860152611afd82826119eb565b9150506040830151611b126040860182611b1d565b508091505092915050565b611b2681611e53565b82525050565b611b3581611e53565b82525050565b6000602082019050611b506000830184611958565b92915050565b60006020820190508181036000830152611b708184611967565b905092915050565b6000602082019050611b8d60008301846119dc565b92915050565b60006020820190508181036000830152611bad8184611a24565b905092915050565b60006060820190508181036000830152611bcf8186611a24565b90508181036020830152611be38185611a24565b9050611bf26040830184611b2c565b949350505050565b60006020820190508181036000830152611c1381611a5d565b9050919050565b60006020820190508181036000830152611c3381611a80565b9050919050565b60006020820190508181036000830152611c5381611aa3565b9050919050565b6000602082019050611c6f6000830184611b2c565b92915050565b6000611c7f611c90565b9050611c8b8282611ed1565b919050565b6000604051905090565b600067ffffffffffffffff821115611cb557611cb4612007565b5b611cbe8261204a565b9050602081019050919050565b6000819050602082019050919050565b600081519050919050565b600081519050919050565b6000602082019050919050565b600082825260208201905092915050565b600082825260208201905092915050565b600082825260208201905092915050565b6000611d3c82611e53565b9150611d4783611e53565b9250827fffffffffffffffffffffffffffffffffffffffffffffffffffffffffffffffff03821115611d7c57611d7b611f4b565b5b828201905092915050565b6000611d9282611e53565b9150611d9d83611e53565b9250817fffffffffffffffffffffffffffffffffffffffffffffffffffffffffffffffff0483118215151615611dd657611dd5611f4b565b5b828202905092915050565b6000611dec82611e53565b9150611df783611e53565b925082821015611e0a57611e09611f4b565b5b828203905092915050565b6000611e2082611e33565b9050919050565b60008115159050919050565b600073ffffffffffffffffffffffffffffffffffffffff82169050919050565b6000819050919050565b82818337600083830152505050565b60005b83811015611e8a578082015181840152602081019050611e6f565b83811115611e99576000848401525b50505050565b60006002820490506001821680611eb757607f821691505b60208210811415611ecb57611eca611fa9565b5b50919050565b611eda8261204a565b810181811067ffffffffffffffff82111715611ef957611ef8612007565b5b80604052505050565b6000611f0d82611e53565b91507fffffffffffffffffffffffffffffffffffffffffffffffffffffffffffffffff821415611f4057611f3f611f4b565b5b600182019050919050565b7f4e487b7100000000000000000000000000000000000000000000000000000000600052601160045260246000fd5b7f4e487b7100000000000000000000000000000000000000000000000000000000600052602160045260246000fd5b7f4e487b7100000000000000000000000000000000000000000000000000000000600052602260045260246000fd5b7f4e487b7100000000000000000000000000000000000000000000000000000000600052603260045260246000fd5b7f4e487b7100000000000000000000000000000000000000000000000000000000600052604160045260246000fd5b600080fd5b600080fd5b600080fd5b600080fd5b6000601f19601f8301169050919050565b7f4e756d626572206f662073686172657320657863656564656420746865206c6960008201527f6d69740000000000000000000000000000000000000000000000000000000000602082015250565b7f54686973207573657220646f6573206e6f7420686f6c6420616e79207368617260008201527f6573000000000000000000000000000000000000000000000000000000000000602082015250565b7f4e6f7420656e6f75676820776569000000000000000000000000000000000000600082015250565b61212b81611e15565b811461213657600080fd5b50565b61214281611e27565b811461214d57600080fd5b50565b61215981611e53565b811461216457600080fd5b5056fea264697066735822122052636ab1d408e84c5d3376f70f984ee9394e7e475a955fc81389a09ffbae725564736f6c63430008070033",
					"opcodes": "PUSH1 0x80 PUSH1 0x40 MSTORE PUSH1 0x64 PUSH1 0x6 SSTORE PUSH1 0x1 PUSH1 0x7 SSTORE PUSH1 0xA PUSH1 0x8 SSTORE PUSH1 0x0 PUSH1 0x9 SSTORE PUSH1 0x0 PUSH1 0x11 SSTORE PUSH1 0x0 PUSH1 0x12 SSTORE PUSH1 0x0 PUSH1 0x13 SSTORE CALLVALUE DUP1 ISZERO PUSH3 0x34 JUMPI PUSH1 0x0 DUP1 REVERT JUMPDEST POP PUSH1 0x40 MLOAD PUSH3 0x266B CODESIZE SUB DUP1 PUSH3 0x266B DUP4 CODECOPY DUP2 DUP2 ADD PUSH1 0x40 MSTORE DUP2 ADD SWAP1 PUSH3 0x5A SWAP2 SWAP1 PUSH3 0x286 JUMP JUMPDEST CALLER PUSH1 0x0 DUP1 PUSH2 0x100 EXP DUP2 SLOAD DUP2 PUSH20 0xFFFFFFFFFFFFFFFFFFFFFFFFFFFFFFFFFFFFFFFF MUL NOT AND SWAP1 DUP4 PUSH20 0xFFFFFFFFFFFFFFFFFFFFFFFFFFFFFFFFFFFFFFFF AND MUL OR SWAP1 SSTORE POP PUSH1 0x6 SLOAD PUSH1 0xD PUSH1 0x0 CALLER PUSH20 0xFFFFFFFFFFFFFFFFFFFFFFFFFFFFFFFFFFFFFFFF AND PUSH20 0xFFFFFFFFFFFFFFFFFFFFFFFFFFFFFFFFFFFFFFFF AND DUP2 MSTORE PUSH1 0x20 ADD SWAP1 DUP2 MSTORE PUSH1 0x20 ADD PUSH1 0x0 KECCAK256 DUP2 SWAP1 SSTORE POP DUP2 PUSH1 0x1 PUSH1 0x0 ADD SWAP1 DUP1 MLOAD SWAP1 PUSH1 0x20 ADD SWAP1 PUSH3 0xFB SWAP3 SWAP2 SWAP1 PUSH3 0x158 JUMP JUMPDEST POP DUP1 PUSH1 0x1 DUP1 ADD SWAP1 DUP1 MLOAD SWAP1 PUSH1 0x20 ADD SWAP1 PUSH3 0x116 SWAP3 SWAP2 SWAP1 PUSH3 0x158 JUMP JUMPDEST POP PUSH1 0x0 PUSH1 0x1 PUSH1 0x3 ADD DUP2 SWAP1 SSTORE POP PUSH1 0x0 PUSH1 0xA PUSH1 0x0 PUSH2 0x100 EXP DUP2 SLOAD DUP2 PUSH1 0xFF MUL NOT AND SWAP1 DUP4 PUSH1 0x1 DUP2 GT ISZERO PUSH3 0x14B JUMPI PUSH3 0x14A PUSH3 0x40C JUMP JUMPDEST JUMPDEST MUL OR SWAP1 SSTORE POP POP POP PUSH3 0x4BE JUMP JUMPDEST DUP3 DUP1 SLOAD PUSH3 0x166 SWAP1 PUSH3 0x3A0 JUMP JUMPDEST SWAP1 PUSH1 0x0 MSTORE PUSH1 0x20 PUSH1 0x0 KECCAK256 SWAP1 PUSH1 0x1F ADD PUSH1 0x20 SWAP1 DIV DUP2 ADD SWAP3 DUP3 PUSH3 0x18A JUMPI PUSH1 0x0 DUP6 SSTORE PUSH3 0x1D6 JUMP JUMPDEST DUP3 PUSH1 0x1F LT PUSH3 0x1A5 JUMPI DUP1 MLOAD PUSH1 0xFF NOT AND DUP4 DUP1 ADD OR DUP6 SSTORE PUSH3 0x1D6 JUMP JUMPDEST DUP3 DUP1 ADD PUSH1 0x1 ADD DUP6 SSTORE DUP3 ISZERO PUSH3 0x1D6 JUMPI SWAP2 DUP3 ADD JUMPDEST DUP3 DUP2 GT ISZERO PUSH3 0x1D5 JUMPI DUP3 MLOAD DUP3 SSTORE SWAP2 PUSH1 0x20 ADD SWAP2 SWAP1 PUSH1 0x1 ADD SWAP1 PUSH3 0x1B8 JUMP JUMPDEST JUMPDEST POP SWAP1 POP PUSH3 0x1E5 SWAP2 SWAP1 PUSH3 0x1E9 JUMP JUMPDEST POP SWAP1 JUMP JUMPDEST JUMPDEST DUP1 DUP3 GT ISZERO PUSH3 0x204 JUMPI PUSH1 0x0 DUP2 PUSH1 0x0 SWAP1 SSTORE POP PUSH1 0x1 ADD PUSH3 0x1EA JUMP JUMPDEST POP SWAP1 JUMP JUMPDEST PUSH1 0x0 PUSH3 0x21F PUSH3 0x219 DUP5 PUSH3 0x334 JUMP JUMPDEST PUSH3 0x30B JUMP JUMPDEST SWAP1 POP DUP3 DUP2 MSTORE PUSH1 0x20 DUP2 ADD DUP5 DUP5 DUP5 ADD GT ISZERO PUSH3 0x23E JUMPI PUSH3 0x23D PUSH3 0x49E JUMP JUMPDEST JUMPDEST PUSH3 0x24B DUP5 DUP3 DUP6 PUSH3 0x36A JUMP JUMPDEST POP SWAP4 SWAP3 POP POP POP JUMP JUMPDEST PUSH1 0x0 DUP3 PUSH1 0x1F DUP4 ADD SLT PUSH3 0x26B JUMPI PUSH3 0x26A PUSH3 0x499 JUMP JUMPDEST JUMPDEST DUP2 MLOAD PUSH3 0x27D DUP5 DUP3 PUSH1 0x20 DUP7 ADD PUSH3 0x208 JUMP JUMPDEST SWAP2 POP POP SWAP3 SWAP2 POP POP JUMP JUMPDEST PUSH1 0x0 DUP1 PUSH1 0x40 DUP4 DUP6 SUB SLT ISZERO PUSH3 0x2A0 JUMPI PUSH3 0x29F PUSH3 0x4A8 JUMP JUMPDEST JUMPDEST PUSH1 0x0 DUP4 ADD MLOAD PUSH8 0xFFFFFFFFFFFFFFFF DUP2 GT ISZERO PUSH3 0x2C1 JUMPI PUSH3 0x2C0 PUSH3 0x4A3 JUMP JUMPDEST JUMPDEST PUSH3 0x2CF DUP6 DUP3 DUP7 ADD PUSH3 0x253 JUMP JUMPDEST SWAP3 POP POP PUSH1 0x20 DUP4 ADD MLOAD PUSH8 0xFFFFFFFFFFFFFFFF DUP2 GT ISZERO PUSH3 0x2F3 JUMPI PUSH3 0x2F2 PUSH3 0x4A3 JUMP JUMPDEST JUMPDEST PUSH3 0x301 DUP6 DUP3 DUP7 ADD PUSH3 0x253 JUMP JUMPDEST SWAP2 POP POP SWAP3 POP SWAP3 SWAP1 POP JUMP JUMPDEST PUSH1 0x0 PUSH3 0x317 PUSH3 0x32A JUMP JUMPDEST SWAP1 POP PUSH3 0x325 DUP3 DUP3 PUSH3 0x3D6 JUMP JUMPDEST SWAP2 SWAP1 POP JUMP JUMPDEST PUSH1 0x0 PUSH1 0x40 MLOAD SWAP1 POP SWAP1 JUMP JUMPDEST PUSH1 0x0 PUSH8 0xFFFFFFFFFFFFFFFF DUP3 GT ISZERO PUSH3 0x352 JUMPI PUSH3 0x351 PUSH3 0x46A JUMP JUMPDEST JUMPDEST PUSH3 0x35D DUP3 PUSH3 0x4AD JUMP JUMPDEST SWAP1 POP PUSH1 0x20 DUP2 ADD SWAP1 POP SWAP2 SWAP1 POP JUMP JUMPDEST PUSH1 0x0 JUMPDEST DUP4 DUP2 LT ISZERO PUSH3 0x38A JUMPI DUP1 DUP3 ADD MLOAD DUP2 DUP5 ADD MSTORE PUSH1 0x20 DUP2 ADD SWAP1 POP PUSH3 0x36D JUMP JUMPDEST DUP4 DUP2 GT ISZERO PUSH3 0x39A JUMPI PUSH1 0x0 DUP5 DUP5 ADD MSTORE JUMPDEST POP POP POP POP JUMP JUMPDEST PUSH1 0x0 PUSH1 0x2 DUP3 DIV SWAP1 POP PUSH1 0x1 DUP3 AND DUP1 PUSH3 0x3B9 JUMPI PUSH1 0x7F DUP3 AND SWAP2 POP JUMPDEST PUSH1 0x20 DUP3 LT DUP2 EQ ISZERO PUSH3 0x3D0 JUMPI PUSH3 0x3CF PUSH3 0x43B JUMP JUMPDEST JUMPDEST POP SWAP2 SWAP1 POP JUMP JUMPDEST PUSH3 0x3E1 DUP3 PUSH3 0x4AD JUMP JUMPDEST DUP2 ADD DUP2 DUP2 LT PUSH8 0xFFFFFFFFFFFFFFFF DUP3 GT OR ISZERO PUSH3 0x403 JUMPI PUSH3 0x402 PUSH3 0x46A JUMP JUMPDEST JUMPDEST DUP1 PUSH1 0x40 MSTORE POP POP POP JUMP JUMPDEST PUSH32 0x4E487B7100000000000000000000000000000000000000000000000000000000 PUSH1 0x0 MSTORE PUSH1 0x21 PUSH1 0x4 MSTORE PUSH1 0x24 PUSH1 0x0 REVERT JUMPDEST PUSH32 0x4E487B7100000000000000000000000000000000000000000000000000000000 PUSH1 0x0 MSTORE PUSH1 0x22 PUSH1 0x4 MSTORE PUSH1 0x24 PUSH1 0x0 REVERT JUMPDEST PUSH32 0x4E487B7100000000000000000000000000000000000000000000000000000000 PUSH1 0x0 MSTORE PUSH1 0x41 PUSH1 0x4 MSTORE PUSH1 0x24 PUSH1 0x0 REVERT JUMPDEST PUSH1 0x0 DUP1 REVERT JUMPDEST PUSH1 0x0 DUP1 REVERT JUMPDEST PUSH1 0x0 DUP1 REVERT JUMPDEST PUSH1 0x0 DUP1 REVERT JUMPDEST PUSH1 0x0 PUSH1 0x1F NOT PUSH1 0x1F DUP4 ADD AND SWAP1 POP SWAP2 SWAP1 POP JUMP JUMPDEST PUSH2 0x219D DUP1 PUSH3 0x4CE PUSH1 0x0 CODECOPY PUSH1 0x0 RETURN INVALID PUSH1 0x80 PUSH1 0x40 MSTORE PUSH1 0x4 CALLDATASIZE LT PUSH2 0x14B JUMPI PUSH1 0x0 CALLDATALOAD PUSH1 0xE0 SHR DUP1 PUSH4 0x87CAEA78 GT PUSH2 0xB6 JUMPI DUP1 PUSH4 0xB9223946 GT PUSH2 0x6F JUMPI DUP1 PUSH4 0xB9223946 EQ PUSH2 0x470 JUMPI DUP1 PUSH4 0xD8124C5F EQ PUSH2 0x487 JUMPI DUP1 PUSH4 0xD96A094A EQ PUSH2 0x4B4 JUMPI DUP1 PUSH4 0xDF094409 EQ PUSH2 0x4D0 JUMPI DUP1 PUSH4 0xE4849B32 EQ PUSH2 0x4F9 JUMPI DUP1 PUSH4 0xF3A8286F EQ PUSH2 0x522 JUMPI PUSH2 0x14B JUMP JUMPDEST DUP1 PUSH4 0x87CAEA78 EQ PUSH2 0x360 JUMPI DUP1 PUSH4 0x8DA5CB5B EQ PUSH2 0x39D JUMPI DUP1 PUSH4 0x9A982416 EQ PUSH2 0x3C8 JUMPI DUP1 PUSH4 0xA9059CBB EQ PUSH2 0x3F3 JUMPI DUP1 PUSH4 0xAD349442 EQ PUSH2 0x41C JUMPI DUP1 PUSH4 0xAF769C64 EQ PUSH2 0x447 JUMPI PUSH2 0x14B JUMP JUMPDEST DUP1 PUSH4 0x4C0A6AF0 GT PUSH2 0x108 JUMPI DUP1 PUSH4 0x4C0A6AF0 EQ PUSH2 0x250 JUMPI DUP1 PUSH4 0x59EA0173 EQ PUSH2 0x267 JUMPI DUP1 PUSH4 0x6FA4F103 EQ PUSH2 0x2A4 JUMPI DUP1 PUSH4 0x7427A40C EQ PUSH2 0x2CD JUMPI DUP1 PUSH4 0x753EC103 EQ PUSH2 0x30A JUMPI DUP1 PUSH4 0x7FF9B596 EQ PUSH2 0x335 JUMPI PUSH2 0x14B JUMP JUMPDEST DUP1 PUSH4 0xD15FD77 EQ PUSH2 0x150 JUMPI DUP1 PUSH4 0x1B26586C EQ PUSH2 0x17B JUMPI DUP1 PUSH4 0x293230B8 EQ PUSH2 0x1A6 JUMPI DUP1 PUSH4 0x3107C99D EQ PUSH2 0x1BD JUMPI DUP1 PUSH4 0x3A98EF39 EQ PUSH2 0x1FA JUMPI DUP1 PUSH4 0x3BE75AA3 EQ PUSH2 0x225 JUMPI JUMPDEST PUSH1 0x0 DUP1 REVERT JUMPDEST CALLVALUE DUP1 ISZERO PUSH2 0x15C JUMPI PUSH1 0x0 DUP1 REVERT JUMPDEST POP PUSH2 0x165 PUSH2 0x54D JUMP JUMPDEST PUSH1 0x40 MLOAD PUSH2 0x172 SWAP2 SWAP1 PUSH2 0x1C5A JUMP JUMPDEST PUSH1 0x40 MLOAD DUP1 SWAP2 SUB SWAP1 RETURN JUMPDEST CALLVALUE DUP1 ISZERO PUSH2 0x187 JUMPI PUSH1 0x0 DUP1 REVERT JUMPDEST POP PUSH2 0x190 PUSH2 0x553 JUMP JUMPDEST PUSH1 0x40 MLOAD PUSH2 0x19D SWAP2 SWAP1 PUSH2 0x1B93 JUMP JUMPDEST PUSH1 0x40 MLOAD DUP1 SWAP2 SUB SWAP1 RETURN JUMPDEST CALLVALUE DUP1 ISZERO PUSH2 0x1B2 JUMPI PUSH1 0x0 DUP1 REVERT JUMPDEST POP PUSH2 0x1BB PUSH2 0x5E1 JUMP JUMPDEST STOP JUMPDEST CALLVALUE DUP1 ISZERO PUSH2 0x1C9 JUMPI PUSH1 0x0 DUP1 REVERT JUMPDEST POP PUSH2 0x1E4 PUSH1 0x4 DUP1 CALLDATASIZE SUB DUP2 ADD SWAP1 PUSH2 0x1DF SWAP2 SWAP1 PUSH2 0x1917 JUMP JUMPDEST PUSH2 0x666 JUMP JUMPDEST PUSH1 0x40 MLOAD PUSH2 0x1F1 SWAP2 SWAP1 PUSH2 0x1B56 JUMP JUMPDEST PUSH1 0x40 MLOAD DUP1 SWAP2 SUB SWAP1 RETURN JUMPDEST CALLVALUE DUP1 ISZERO PUSH2 0x206 JUMPI PUSH1 0x0 DUP1 REVERT JUMPDEST POP PUSH2 0x20F PUSH2 0x7F5 JUMP JUMPDEST PUSH1 0x40 MLOAD PUSH2 0x21C SWAP2 SWAP1 PUSH2 0x1C5A JUMP JUMPDEST PUSH1 0x40 MLOAD DUP1 SWAP2 SUB SWAP1 RETURN JUMPDEST CALLVALUE DUP1 ISZERO PUSH2 0x231 JUMPI PUSH1 0x0 DUP1 REVERT JUMPDEST POP PUSH2 0x23A PUSH2 0x7FB JUMP JUMPDEST PUSH1 0x40 MLOAD PUSH2 0x247 SWAP2 SWAP1 PUSH2 0x1C5A JUMP JUMPDEST PUSH1 0x40 MLOAD DUP1 SWAP2 SUB SWAP1 RETURN JUMPDEST CALLVALUE DUP1 ISZERO PUSH2 0x25C JUMPI PUSH1 0x0 DUP1 REVERT JUMPDEST POP PUSH2 0x265 PUSH2 0x801 JUMP JUMPDEST STOP JUMPDEST CALLVALUE DUP1 ISZERO PUSH2 0x273 JUMPI PUSH1 0x0 DUP1 REVERT JUMPDEST POP PUSH2 0x28E PUSH1 0x4 DUP1 CALLDATASIZE SUB DUP2 ADD SWAP1 PUSH2 0x289 SWAP2 SWAP1 PUSH2 0x177A JUMP JUMPDEST PUSH2 0x8F6 JUMP JUMPDEST PUSH1 0x40 MLOAD PUSH2 0x29B SWAP2 SWAP1 PUSH2 0x1B78 JUMP JUMPDEST PUSH1 0x40 MLOAD DUP1 SWAP2 SUB SWAP1 RETURN JUMPDEST CALLVALUE DUP1 ISZERO PUSH2 0x2B0 JUMPI PUSH1 0x0 DUP1 REVERT JUMPDEST POP PUSH2 0x2CB PUSH1 0x4 DUP1 CALLDATASIZE SUB DUP2 ADD SWAP1 PUSH2 0x2C6 SWAP2 SWAP1 PUSH2 0x1814 JUMP JUMPDEST PUSH2 0x916 JUMP JUMPDEST STOP JUMPDEST CALLVALUE DUP1 ISZERO PUSH2 0x2D9 JUMPI PUSH1 0x0 DUP1 REVERT JUMPDEST POP PUSH2 0x2F4 PUSH1 0x4 DUP1 CALLDATASIZE SUB DUP2 ADD SWAP1 PUSH2 0x2EF SWAP2 SWAP1 PUSH2 0x1917 JUMP JUMPDEST PUSH2 0x9B4 JUMP JUMPDEST PUSH1 0x40 MLOAD PUSH2 0x301 SWAP2 SWAP1 PUSH2 0x1B3B JUMP JUMPDEST PUSH1 0x40 MLOAD DUP1 SWAP2 SUB SWAP1 RETURN JUMPDEST CALLVALUE DUP1 ISZERO PUSH2 0x316 JUMPI PUSH1 0x0 DUP1 REVERT JUMPDEST POP PUSH2 0x31F PUSH2 0x9F3 JUMP JUMPDEST PUSH1 0x40 MLOAD PUSH2 0x32C SWAP2 SWAP1 PUSH2 0x1B93 JUMP JUMPDEST PUSH1 0x40 MLOAD DUP1 SWAP2 SUB SWAP1 RETURN JUMPDEST CALLVALUE DUP1 ISZERO PUSH2 0x341 JUMPI PUSH1 0x0 DUP1 REVERT JUMPDEST POP PUSH2 0x34A PUSH2 0xA81 JUMP JUMPDEST PUSH1 0x40 MLOAD PUSH2 0x357 SWAP2 SWAP1 PUSH2 0x1C5A JUMP JUMPDEST PUSH1 0x40 MLOAD DUP1 SWAP2 SUB SWAP1 RETURN JUMPDEST CALLVALUE DUP1 ISZERO PUSH2 0x36C JUMPI PUSH1 0x0 DUP1 REVERT JUMPDEST POP PUSH2 0x387 PUSH1 0x4 DUP1 CALLDATASIZE SUB DUP2 ADD SWAP1 PUSH2 0x382 SWAP2 SWAP1 PUSH2 0x17E7 JUMP JUMPDEST PUSH2 0xA87 JUMP JUMPDEST PUSH1 0x40 MLOAD PUSH2 0x394 SWAP2 SWAP1 PUSH2 0x1B78 JUMP JUMPDEST PUSH1 0x40 MLOAD DUP1 SWAP2 SUB SWAP1 RETURN JUMPDEST CALLVALUE DUP1 ISZERO PUSH2 0x3A9 JUMPI PUSH1 0x0 DUP1 REVERT JUMPDEST POP PUSH2 0x3B2 PUSH2 0xCC3 JUMP JUMPDEST PUSH1 0x40 MLOAD PUSH2 0x3BF SWAP2 SWAP1 PUSH2 0x1B3B JUMP JUMPDEST PUSH1 0x40 MLOAD DUP1 SWAP2 SUB SWAP1 RETURN JUMPDEST CALLVALUE DUP1 ISZERO PUSH2 0x3D4 JUMPI PUSH1 0x0 DUP1 REVERT JUMPDEST POP PUSH2 0x3DD PUSH2 0xCE7 JUMP JUMPDEST PUSH1 0x40 MLOAD PUSH2 0x3EA SWAP2 SWAP1 PUSH2 0x1C5A JUMP JUMPDEST PUSH1 0x40 MLOAD DUP1 SWAP2 SUB SWAP1 RETURN JUMPDEST CALLVALUE DUP1 ISZERO PUSH2 0x3FF JUMPI PUSH1 0x0 DUP1 REVERT JUMPDEST POP PUSH2 0x41A PUSH1 0x4 DUP1 CALLDATASIZE SUB DUP2 ADD SWAP1 PUSH2 0x415 SWAP2 SWAP1 PUSH2 0x17A7 JUMP JUMPDEST PUSH2 0xCED JUMP JUMPDEST STOP JUMPDEST CALLVALUE DUP1 ISZERO PUSH2 0x428 JUMPI PUSH1 0x0 DUP1 REVERT JUMPDEST POP PUSH2 0x431 PUSH2 0xE41 JUMP JUMPDEST PUSH1 0x40 MLOAD PUSH2 0x43E SWAP2 SWAP1 PUSH2 0x1B3B JUMP JUMPDEST PUSH1 0x40 MLOAD DUP1 SWAP2 SUB SWAP1 RETURN JUMPDEST CALLVALUE DUP1 ISZERO PUSH2 0x453 JUMPI PUSH1 0x0 DUP1 REVERT JUMPDEST POP PUSH2 0x46E PUSH1 0x4 DUP1 CALLDATASIZE SUB DUP2 ADD SWAP1 PUSH2 0x469 SWAP2 SWAP1 PUSH2 0x177A JUMP JUMPDEST PUSH2 0xE67 JUMP JUMPDEST STOP JUMPDEST CALLVALUE DUP1 ISZERO PUSH2 0x47C JUMPI PUSH1 0x0 DUP1 REVERT JUMPDEST POP PUSH2 0x485 PUSH2 0xFDA JUMP JUMPDEST STOP JUMPDEST CALLVALUE DUP1 ISZERO PUSH2 0x493 JUMPI PUSH1 0x0 DUP1 REVERT JUMPDEST POP PUSH2 0x49C PUSH2 0x10E5 JUMP JUMPDEST PUSH1 0x40 MLOAD PUSH2 0x4AB SWAP4 SWAP3 SWAP2 SWAP1 PUSH2 0x1BB5 JUMP JUMPDEST PUSH1 0x40 MLOAD DUP1 SWAP2 SUB SWAP1 RETURN JUMPDEST PUSH2 0x4CE PUSH1 0x4 DUP1 CALLDATASIZE SUB DUP2 ADD SWAP1 PUSH2 0x4C9 SWAP2 SWAP1 PUSH2 0x1917 JUMP JUMPDEST PUSH2 0x120D JUMP JUMPDEST STOP JUMPDEST CALLVALUE DUP1 ISZERO PUSH2 0x4DC JUMPI PUSH1 0x0 DUP1 REVERT JUMPDEST POP PUSH2 0x4F7 PUSH1 0x4 DUP1 CALLDATASIZE SUB DUP2 ADD SWAP1 PUSH2 0x4F2 SWAP2 SWAP1 PUSH2 0x188C JUMP JUMPDEST PUSH2 0x12B8 JUMP JUMPDEST STOP JUMPDEST CALLVALUE DUP1 ISZERO PUSH2 0x505 JUMPI PUSH1 0x0 DUP1 REVERT JUMPDEST POP PUSH2 0x520 PUSH1 0x4 DUP1 CALLDATASIZE SUB DUP2 ADD SWAP1 PUSH2 0x51B SWAP2 SWAP1 PUSH2 0x1917 JUMP JUMPDEST PUSH2 0x144B JUMP JUMPDEST STOP JUMPDEST CALLVALUE DUP1 ISZERO PUSH2 0x52E JUMPI PUSH1 0x0 DUP1 REVERT JUMPDEST POP PUSH2 0x537 PUSH2 0x1542 JUMP JUMPDEST PUSH1 0x40 MLOAD PUSH2 0x544 SWAP2 SWAP1 PUSH2 0x1C5A JUMP JUMPDEST PUSH1 0x40 MLOAD DUP1 SWAP2 SUB SWAP1 RETURN JUMPDEST PUSH1 0x13 SLOAD DUP2 JUMP JUMPDEST PUSH1 0xF DUP1 SLOAD PUSH2 0x560 SWAP1 PUSH2 0x1E9F JUMP JUMPDEST DUP1 PUSH1 0x1F ADD PUSH1 0x20 DUP1 SWAP2 DIV MUL PUSH1 0x20 ADD PUSH1 0x40 MLOAD SWAP1 DUP2 ADD PUSH1 0x40 MSTORE DUP1 SWAP3 SWAP2 SWAP1 DUP2 DUP2 MSTORE PUSH1 0x20 ADD DUP3 DUP1 SLOAD PUSH2 0x58C SWAP1 PUSH2 0x1E9F JUMP JUMPDEST DUP1 ISZERO PUSH2 0x5D9 JUMPI DUP1 PUSH1 0x1F LT PUSH2 0x5AE JUMPI PUSH2 0x100 DUP1 DUP4 SLOAD DIV MUL DUP4 MSTORE SWAP2 PUSH1 0x20 ADD SWAP2 PUSH2 0x5D9 JUMP JUMPDEST DUP3 ADD SWAP2 SWAP1 PUSH1 0x0 MSTORE PUSH1 0x20 PUSH1 0x0 KECCAK256 SWAP1 JUMPDEST DUP2 SLOAD DUP2 MSTORE SWAP1 PUSH1 0x1 ADD SWAP1 PUSH1 0x20 ADD DUP1 DUP4 GT PUSH2 0x5BC JUMPI DUP3 SWAP1 SUB PUSH1 0x1F AND DUP3 ADD SWAP2 JUMPDEST POP POP POP POP POP DUP2 JUMP JUMPDEST PUSH1 0x0 DUP1 SLOAD SWAP1 PUSH2 0x100 EXP SWAP1 DIV PUSH20 0xFFFFFFFFFFFFFFFFFFFFFFFFFFFFFFFFFFFFFFFF AND PUSH20 0xFFFFFFFFFFFFFFFFFFFFFFFFFFFFFFFFFFFFFFFF AND CALLER PUSH20 0xFFFFFFFFFFFFFFFFFFFFFFFFFFFFFFFFFFFFFFFF AND EQ PUSH2 0x639 JUMPI PUSH1 0x0 DUP1 REVERT JUMPDEST PUSH1 0x1 PUSH1 0xA PUSH1 0x0 PUSH2 0x100 EXP DUP2 SLOAD DUP2 PUSH1 0xFF MUL NOT AND SWAP1 DUP4 PUSH1 0x1 DUP2 GT ISZERO PUSH2 0x65F JUMPI PUSH2 0x65E PUSH2 0x1F7A JUMP JUMPDEST JUMPDEST MUL OR SWAP1 SSTORE POP JUMP JUMPDEST PUSH1 0x60 PUSH1 0x5 DUP1 SLOAD DUP1 PUSH1 0x20 MUL PUSH1 0x20 ADD PUSH1 0x40 MLOAD SWAP1 DUP2 ADD PUSH1 0x40 MSTORE DUP1 SWAP3 SWAP2 SWAP1 DUP2 DUP2 MSTORE PUSH1 0x20 ADD PUSH1 0x0 SWAP1 JUMPDEST DUP3 DUP3 LT ISZERO PUSH2 0x7EA JUMPI DUP4 DUP3 SWAP1 PUSH1 0x0 MSTORE PUSH1 0x20 PUSH1 0x0 KECCAK256 SWAP1 PUSH1 0x3 MUL ADD PUSH1 0x40 MLOAD DUP1 PUSH1 0x60 ADD PUSH1 0x40 MSTORE SWAP1 DUP2 PUSH1 0x0 DUP3 ADD DUP1 SLOAD PUSH2 0x6BD SWAP1 PUSH2 0x1E9F JUMP JUMPDEST DUP1 PUSH1 0x1F ADD PUSH1 0x20 DUP1 SWAP2 DIV MUL PUSH1 0x20 ADD PUSH1 0x40 MLOAD SWAP1 DUP2 ADD PUSH1 0x40 MSTORE DUP1 SWAP3 SWAP2 SWAP1 DUP2 DUP2 MSTORE PUSH1 0x20 ADD DUP3 DUP1 SLOAD PUSH2 0x6E9 SWAP1 PUSH2 0x1E9F JUMP JUMPDEST DUP1 ISZERO PUSH2 0x736 JUMPI DUP1 PUSH1 0x1F LT PUSH2 0x70B JUMPI PUSH2 0x100 DUP1 DUP4 SLOAD DIV MUL DUP4 MSTORE SWAP2 PUSH1 0x20 ADD SWAP2 PUSH2 0x736 JUMP JUMPDEST DUP3 ADD SWAP2 SWAP1 PUSH1 0x0 MSTORE PUSH1 0x20 PUSH1 0x0 KECCAK256 SWAP1 JUMPDEST DUP2 SLOAD DUP2 MSTORE SWAP1 PUSH1 0x1 ADD SWAP1 PUSH1 0x20 ADD DUP1 DUP4 GT PUSH2 0x719 JUMPI DUP3 SWAP1 SUB PUSH1 0x1F AND DUP3 ADD SWAP2 JUMPDEST POP POP POP POP POP DUP2 MSTORE PUSH1 0x20 ADD PUSH1 0x1 DUP3 ADD DUP1 SLOAD PUSH2 0x74F SWAP1 PUSH2 0x1E9F JUMP JUMPDEST DUP1 PUSH1 0x1F ADD PUSH1 0x20 DUP1 SWAP2 DIV MUL PUSH1 0x20 ADD PUSH1 0x40 MLOAD SWAP1 DUP2 ADD PUSH1 0x40 MSTORE DUP1 SWAP3 SWAP2 SWAP1 DUP2 DUP2 MSTORE PUSH1 0x20 ADD DUP3 DUP1 SLOAD PUSH2 0x77B SWAP1 PUSH2 0x1E9F JUMP JUMPDEST DUP1 ISZERO PUSH2 0x7C8 JUMPI DUP1 PUSH1 0x1F LT PUSH2 0x79D JUMPI PUSH2 0x100 DUP1 DUP4 SLOAD DIV MUL DUP4 MSTORE SWAP2 PUSH1 0x20 ADD SWAP2 PUSH2 0x7C8 JUMP JUMPDEST DUP3 ADD SWAP2 SWAP1 PUSH1 0x0 MSTORE PUSH1 0x20 PUSH1 0x0 KECCAK256 SWAP1 JUMPDEST DUP2 SLOAD DUP2 MSTORE SWAP1 PUSH1 0x1 ADD SWAP1 PUSH1 0x20 ADD DUP1 DUP4 GT PUSH2 0x7AB JUMPI DUP3 SWAP1 SUB PUSH1 0x1F AND DUP3 ADD SWAP2 JUMPDEST POP POP POP POP POP DUP2 MSTORE PUSH1 0x20 ADD PUSH1 0x2 DUP3 ADD SLOAD DUP2 MSTORE POP POP DUP2 MSTORE PUSH1 0x20 ADD SWAP1 PUSH1 0x1 ADD SWAP1 PUSH2 0x68A JUMP JUMPDEST POP POP POP POP SWAP1 POP SWAP2 SWAP1 POP JUMP JUMPDEST PUSH1 0x6 SLOAD DUP2 JUMP JUMPDEST PUSH1 0x8 SLOAD DUP2 JUMP JUMPDEST PUSH1 0x0 DUP1 PUSH1 0x2 DUP2 GT ISZERO PUSH2 0x816 JUMPI PUSH2 0x815 PUSH2 0x1F7A JUMP JUMPDEST JUMPDEST PUSH1 0xE PUSH1 0x0 SWAP1 SLOAD SWAP1 PUSH2 0x100 EXP SWAP1 DIV PUSH1 0xFF AND PUSH1 0x2 DUP2 GT ISZERO PUSH2 0x838 JUMPI PUSH2 0x837 PUSH2 0x1F7A JUMP JUMPDEST JUMPDEST EQ PUSH2 0x842 JUMPI PUSH1 0x0 DUP1 REVERT JUMPDEST PUSH1 0xE PUSH1 0x1 SWAP1 SLOAD SWAP1 PUSH2 0x100 EXP SWAP1 DIV PUSH20 0xFFFFFFFFFFFFFFFFFFFFFFFFFFFFFFFFFFFFFFFF AND PUSH20 0xFFFFFFFFFFFFFFFFFFFFFFFFFFFFFFFFFFFFFFFF AND CALLER PUSH20 0xFFFFFFFFFFFFFFFFFFFFFFFFFFFFFFFFFFFFFFFF AND EQ PUSH2 0x89C JUMPI PUSH1 0x0 DUP1 REVERT JUMPDEST PUSH1 0x1 PUSH1 0xE PUSH1 0x0 PUSH2 0x100 EXP DUP2 SLOAD DUP2 PUSH1 0xFF MUL NOT AND SWAP1 DUP4 PUSH1 0x2 DUP2 GT ISZERO PUSH2 0x8C2 JUMPI PUSH2 0x8C1 PUSH2 0x1F7A JUMP JUMPDEST JUMPDEST MUL OR SWAP1 SSTORE POP PUSH32 0xD0DC01800A369FEF30D3FCED5275B8B916549867622E79EFCA5245C479FDA4EA PUSH1 0x40 MLOAD PUSH1 0x40 MLOAD DUP1 SWAP2 SUB SWAP1 LOG1 POP JUMP JUMPDEST PUSH1 0xC PUSH1 0x20 MSTORE DUP1 PUSH1 0x0 MSTORE PUSH1 0x40 PUSH1 0x0 KECCAK256 PUSH1 0x0 SWAP2 POP SLOAD SWAP1 PUSH2 0x100 EXP SWAP1 DIV PUSH1 0xFF AND DUP2 JUMP JUMPDEST PUSH1 0x0 PUSH1 0xE PUSH1 0x0 PUSH2 0x100 EXP DUP2 SLOAD DUP2 PUSH1 0xFF MUL NOT AND SWAP1 DUP4 PUSH1 0x2 DUP2 GT ISZERO PUSH2 0x93C JUMPI PUSH2 0x93B PUSH2 0x1F7A JUMP JUMPDEST JUMPDEST MUL OR SWAP1 SSTORE POP DUP2 PUSH1 0xF SWAP1 DUP1 MLOAD SWAP1 PUSH1 0x20 ADD SWAP1 PUSH2 0x957 SWAP3 SWAP2 SWAP1 PUSH2 0x15F6 JUMP JUMPDEST POP DUP1 PUSH1 0x10 SWAP1 DUP1 MLOAD SWAP1 PUSH1 0x20 ADD SWAP1 PUSH2 0x96E SWAP3 SWAP2 SWAP1 PUSH2 0x15F6 JUMP JUMPDEST POP CALLER PUSH1 0xE PUSH1 0x1 PUSH2 0x100 EXP DUP2 SLOAD DUP2 PUSH20 0xFFFFFFFFFFFFFFFFFFFFFFFFFFFFFFFFFFFFFFFF MUL NOT AND SWAP1 DUP4 PUSH20 0xFFFFFFFFFFFFFFFFFFFFFFFFFFFFFFFFFFFFFFFF AND MUL OR SWAP1 SSTORE POP POP POP JUMP JUMPDEST PUSH1 0xB DUP2 DUP2 SLOAD DUP2 LT PUSH2 0x9C4 JUMPI PUSH1 0x0 DUP1 REVERT JUMPDEST SWAP1 PUSH1 0x0 MSTORE PUSH1 0x20 PUSH1 0x0 KECCAK256 ADD PUSH1 0x0 SWAP2 POP SLOAD SWAP1 PUSH2 0x100 EXP SWAP1 DIV PUSH20 0xFFFFFFFFFFFFFFFFFFFFFFFFFFFFFFFFFFFFFFFF AND DUP2 JUMP JUMPDEST PUSH1 0x10 DUP1 SLOAD PUSH2 0xA00 SWAP1 PUSH2 0x1E9F JUMP JUMPDEST DUP1 PUSH1 0x1F ADD PUSH1 0x20 DUP1 SWAP2 DIV MUL PUSH1 0x20 ADD PUSH1 0x40 MLOAD SWAP1 DUP2 ADD PUSH1 0x40 MSTORE DUP1 SWAP3 SWAP2 SWAP1 DUP2 DUP2 MSTORE PUSH1 0x20 ADD DUP3 DUP1 SLOAD PUSH2 0xA2C SWAP1 PUSH2 0x1E9F JUMP JUMPDEST DUP1 ISZERO PUSH2 0xA79 JUMPI DUP1 PUSH1 0x1F LT PUSH2 0xA4E JUMPI PUSH2 0x100 DUP1 DUP4 SLOAD DIV MUL DUP4 MSTORE SWAP2 PUSH1 0x20 ADD SWAP2 PUSH2 0xA79 JUMP JUMPDEST DUP3 ADD SWAP2 SWAP1 PUSH1 0x0 MSTORE PUSH1 0x20 PUSH1 0x0 KECCAK256 SWAP1 JUMPDEST DUP2 SLOAD DUP2 MSTORE SWAP1 PUSH1 0x1 ADD SWAP1 PUSH1 0x20 ADD DUP1 DUP4 GT PUSH2 0xA5C JUMPI DUP3 SWAP1 SUB PUSH1 0x1F AND DUP3 ADD SWAP2 JUMPDEST POP POP POP POP POP DUP2 JUMP JUMPDEST PUSH1 0x7 SLOAD DUP2 JUMP JUMPDEST PUSH1 0x0 PUSH1 0x1 DUP1 PUSH1 0x2 DUP2 GT ISZERO PUSH2 0xA9E JUMPI PUSH2 0xA9D PUSH2 0x1F7A JUMP JUMPDEST JUMPDEST PUSH1 0xE PUSH1 0x0 SWAP1 SLOAD SWAP1 PUSH2 0x100 EXP SWAP1 DIV PUSH1 0xFF AND PUSH1 0x2 DUP2 GT ISZERO PUSH2 0xAC0 JUMPI PUSH2 0xABF PUSH2 0x1F7A JUMP JUMPDEST JUMPDEST EQ PUSH2 0xACA JUMPI PUSH1 0x0 DUP1 REVERT JUMPDEST PUSH1 0x0 PUSH1 0xC PUSH1 0x0 CALLER PUSH20 0xFFFFFFFFFFFFFFFFFFFFFFFFFFFFFFFFFFFFFFFF AND PUSH20 0xFFFFFFFFFFFFFFFFFFFFFFFFFFFFFFFFFFFFFFFF AND DUP2 MSTORE PUSH1 0x20 ADD SWAP1 DUP2 MSTORE PUSH1 0x20 ADD PUSH1 0x0 KECCAK256 PUSH1 0x0 SWAP1 SLOAD SWAP1 PUSH2 0x100 EXP SWAP1 DIV PUSH1 0xFF AND PUSH2 0xC82 JUMPI PUSH1 0x1 PUSH1 0xC PUSH1 0x0 CALLER PUSH20 0xFFFFFFFFFFFFFFFFFFFFFFFFFFFFFFFFFFFFFFFF AND PUSH20 0xFFFFFFFFFFFFFFFFFFFFFFFFFFFFFFFFFFFFFFFF AND DUP2 MSTORE PUSH1 0x20 ADD SWAP1 DUP2 MSTORE PUSH1 0x20 ADD PUSH1 0x0 KECCAK256 PUSH1 0x0 PUSH2 0x100 EXP DUP2 SLOAD DUP2 PUSH1 0xFF MUL NOT AND SWAP1 DUP4 ISZERO ISZERO MUL OR SWAP1 SSTORE POP PUSH2 0xB7D PUSH2 0x167C JUMP JUMPDEST CALLER DUP2 PUSH1 0x0 ADD SWAP1 PUSH20 0xFFFFFFFFFFFFFFFFFFFFFFFFFFFFFFFFFFFFFFFF AND SWAP1 DUP2 PUSH20 0xFFFFFFFFFFFFFFFFFFFFFFFFFFFFFFFFFFFFFFFF AND DUP2 MSTORE POP POP DUP5 DUP2 PUSH1 0x20 ADD SWAP1 ISZERO ISZERO SWAP1 DUP2 ISZERO ISZERO DUP2 MSTORE POP POP DUP5 ISZERO PUSH2 0xBE4 JUMPI PUSH1 0x11 PUSH1 0x0 DUP2 SLOAD DUP1 SWAP3 SWAP2 SWAP1 PUSH2 0xBDE SWAP1 PUSH2 0x1F02 JUMP JUMPDEST SWAP2 SWAP1 POP SSTORE POP JUMPDEST DUP1 PUSH1 0x14 PUSH1 0x0 PUSH1 0x13 SLOAD DUP2 MSTORE PUSH1 0x20 ADD SWAP1 DUP2 MSTORE PUSH1 0x20 ADD PUSH1 0x0 KECCAK256 PUSH1 0x0 DUP3 ADD MLOAD DUP2 PUSH1 0x0 ADD PUSH1 0x0 PUSH2 0x100 EXP DUP2 SLOAD DUP2 PUSH20 0xFFFFFFFFFFFFFFFFFFFFFFFFFFFFFFFFFFFFFFFF MUL NOT AND SWAP1 DUP4 PUSH20 0xFFFFFFFFFFFFFFFFFFFFFFFFFFFFFFFFFFFFFFFF AND MUL OR SWAP1 SSTORE POP PUSH1 0x20 DUP3 ADD MLOAD DUP2 PUSH1 0x0 ADD PUSH1 0x14 PUSH2 0x100 EXP DUP2 SLOAD DUP2 PUSH1 0xFF MUL NOT AND SWAP1 DUP4 ISZERO ISZERO MUL OR SWAP1 SSTORE POP SWAP1 POP POP PUSH1 0x13 PUSH1 0x0 DUP2 SLOAD DUP1 SWAP3 SWAP2 SWAP1 PUSH2 0xC77 SWAP1 PUSH2 0x1F02 JUMP JUMPDEST SWAP2 SWAP1 POP SSTORE POP PUSH1 0x1 SWAP2 POP POP JUMPDEST PUSH32 0x55C65CF9526EFDF6C2252FE9757889DBD93E10172CAD0F2EDB1DF619C88DBF7D CALLER PUSH1 0x40 MLOAD PUSH2 0xCB1 SWAP2 SWAP1 PUSH2 0x1B3B JUMP JUMPDEST PUSH1 0x40 MLOAD DUP1 SWAP2 SUB SWAP1 LOG1 DUP1 SWAP3 POP POP POP SWAP2 SWAP1 POP JUMP JUMPDEST PUSH1 0x0 DUP1 SLOAD SWAP1 PUSH2 0x100 EXP SWAP1 DIV PUSH20 0xFFFFFFFFFFFFFFFFFFFFFFFFFFFFFFFFFFFFFFFF AND DUP2 JUMP JUMPDEST PUSH1 0x9 SLOAD DUP2 JUMP JUMPDEST DUP1 PUSH1 0xD PUSH1 0x0 CALLER PUSH20 0xFFFFFFFFFFFFFFFFFFFFFFFFFFFFFFFFFFFFFFFF AND PUSH20 0xFFFFFFFFFFFFFFFFFFFFFFFFFFFFFFFFFFFFFFFF AND DUP2 MSTORE PUSH1 0x20 ADD SWAP1 DUP2 MSTORE PUSH1 0x20 ADD PUSH1 0x0 KECCAK256 SLOAD LT ISZERO PUSH2 0xD39 JUMPI PUSH1 0x0 DUP1 REVERT JUMPDEST PUSH1 0x0 DUP1 SLOAD SWAP1 PUSH2 0x100 EXP SWAP1 DIV PUSH20 0xFFFFFFFFFFFFFFFFFFFFFFFFFFFFFFFFFFFFFFFF AND PUSH20 0xFFFFFFFFFFFFFFFFFFFFFFFFFFFFFFFFFFFFFFFF AND CALLER PUSH20 0xFFFFFFFFFFFFFFFFFFFFFFFFFFFFFFFFFFFFFFFF AND EQ PUSH2 0xD91 JUMPI PUSH1 0x0 DUP1 REVERT JUMPDEST DUP1 PUSH1 0xD PUSH1 0x0 CALLER PUSH20 0xFFFFFFFFFFFFFFFFFFFFFFFFFFFFFFFFFFFFFFFF AND PUSH20 0xFFFFFFFFFFFFFFFFFFFFFFFFFFFFFFFFFFFFFFFF AND DUP2 MSTORE PUSH1 0x20 ADD SWAP1 DUP2 MSTORE PUSH1 0x20 ADD PUSH1 0x0 KECCAK256 PUSH1 0x0 DUP3 DUP3 SLOAD PUSH2 0xDE0 SWAP2 SWAP1 PUSH2 0x1DE1 JUMP JUMPDEST SWAP3 POP POP DUP2 SWAP1 SSTORE POP DUP1 PUSH1 0xD PUSH1 0x0 DUP5 PUSH20 0xFFFFFFFFFFFFFFFFFFFFFFFFFFFFFFFFFFFFFFFF AND PUSH20 0xFFFFFFFFFFFFFFFFFFFFFFFFFFFFFFFFFFFFFFFF AND DUP2 MSTORE PUSH1 0x20 ADD SWAP1 DUP2 MSTORE PUSH1 0x20 ADD PUSH1 0x0 KECCAK256 PUSH1 0x0 DUP3 DUP3 SLOAD PUSH2 0xE36 SWAP2 SWAP1 PUSH2 0x1D31 JUMP JUMPDEST SWAP3 POP POP DUP2 SWAP1 SSTORE POP POP POP JUMP JUMPDEST PUSH1 0xE PUSH1 0x1 SWAP1 SLOAD SWAP1 PUSH2 0x100 EXP SWAP1 DIV PUSH20 0xFFFFFFFFFFFFFFFFFFFFFFFFFFFFFFFFFFFFFFFF AND DUP2 JUMP JUMPDEST PUSH1 0x0 DUP1 SLOAD SWAP1 PUSH2 0x100 EXP SWAP1 DIV PUSH20 0xFFFFFFFFFFFFFFFFFFFFFFFFFFFFFFFFFFFFFFFF AND PUSH20 0xFFFFFFFFFFFFFFFFFFFFFFFFFFFFFFFFFFFFFFFF AND CALLER PUSH20 0xFFFFFFFFFFFFFFFFFFFFFFFFFFFFFFFFFFFFFFFF AND EQ PUSH2 0xEBF JUMPI PUSH1 0x0 DUP1 REVERT JUMPDEST PUSH2 0xEC8 DUP2 PUSH2 0x1548 JUMP JUMPDEST PUSH2 0xFD7 JUMPI PUSH1 0x0 PUSH1 0xC PUSH1 0x0 DUP4 PUSH20 0xFFFFFFFFFFFFFFFFFFFFFFFFFFFFFFFFFFFFFFFF AND PUSH20 0xFFFFFFFFFFFFFFFFFFFFFFFFFFFFFFFFFFFFFFFF AND DUP2 MSTORE PUSH1 0x20 ADD SWAP1 DUP2 MSTORE PUSH1 0x20 ADD PUSH1 0x0 KECCAK256 PUSH1 0x0 PUSH2 0x100 EXP DUP2 SLOAD DUP2 PUSH1 0xFF MUL NOT AND SWAP1 DUP4 ISZERO ISZERO MUL OR SWAP1 SSTORE POP PUSH1 0xB DUP2 SWAP1 DUP1 PUSH1 0x1 DUP2 SLOAD ADD DUP1 DUP3 SSTORE DUP1 SWAP2 POP POP PUSH1 0x1 SWAP1 SUB SWAP1 PUSH1 0x0 MSTORE PUSH1 0x20 PUSH1 0x0 KECCAK256 ADD PUSH1 0x0 SWAP1 SWAP2 SWAP1 SWAP2 SWAP1 SWAP2 PUSH2 0x100 EXP DUP2 SLOAD DUP2 PUSH20 0xFFFFFFFFFFFFFFFFFFFFFFFFFFFFFFFFFFFFFFFF MUL NOT AND SWAP1 DUP4 PUSH20 0xFFFFFFFFFFFFFFFFFFFFFFFFFFFFFFFFFFFFFFFF AND MUL OR SWAP1 SSTORE POP PUSH1 0x9 PUSH1 0x0 DUP2 SLOAD DUP1 SWAP3 SWAP2 SWAP1 PUSH2 0xF9A SWAP1 PUSH2 0x1F02 JUMP JUMPDEST SWAP2 SWAP1 POP SSTORE POP PUSH32 0x30040C92E8DA146AC410FB6841EA0F60AF3B8F3788E5E7354E48D97D018F39DD DUP2 PUSH1 0x40 MLOAD PUSH2 0xFCE SWAP2 SWAP1 PUSH2 0x1B3B JUMP JUMPDEST PUSH1 0x40 MLOAD DUP1 SWAP2 SUB SWAP1 LOG1 JUMPDEST POP JUMP JUMPDEST PUSH1 0x1 DUP1 PUSH1 0x2 DUP2 GT ISZERO PUSH2 0xFEF JUMPI PUSH2 0xFEE PUSH2 0x1F7A JUMP JUMPDEST JUMPDEST PUSH1 0xE PUSH1 0x0 SWAP1 SLOAD SWAP1 PUSH2 0x100 EXP SWAP1 DIV PUSH1 0xFF AND PUSH1 0x2 DUP2 GT ISZERO PUSH2 0x1011 JUMPI PUSH2 0x1010 PUSH2 0x1F7A JUMP JUMPDEST JUMPDEST EQ PUSH2 0x101B JUMPI PUSH1 0x0 DUP1 REVERT JUMPDEST PUSH1 0xE PUSH1 0x1 SWAP1 SLOAD SWAP1 PUSH2 0x100 EXP SWAP1 DIV PUSH20 0xFFFFFFFFFFFFFFFFFFFFFFFFFFFFFFFFFFFFFFFF AND PUSH20 0xFFFFFFFFFFFFFFFFFFFFFFFFFFFFFFFFFFFFFFFF AND CALLER PUSH20 0xFFFFFFFFFFFFFFFFFFFFFFFFFFFFFFFFFFFFFFFF AND EQ PUSH2 0x1075 JUMPI PUSH1 0x0 DUP1 REVERT JUMPDEST PUSH1 0x2 PUSH1 0xE PUSH1 0x0 PUSH2 0x100 EXP DUP2 SLOAD DUP2 PUSH1 0xFF MUL NOT AND SWAP1 DUP4 PUSH1 0x2 DUP2 GT ISZERO PUSH2 0x109B JUMPI PUSH2 0x109A PUSH2 0x1F7A JUMP JUMPDEST JUMPDEST MUL OR SWAP1 SSTORE POP PUSH1 0x11 SLOAD PUSH1 0x12 DUP2 SWAP1 SSTORE POP PUSH32 0xB43A401DCDBE02A8AFA41FEB6C651425997908D1A4B79CF505188BA1DD3FD872 PUSH1 0x12 SLOAD PUSH1 0x40 MLOAD PUSH2 0x10DA SWAP2 SWAP1 PUSH2 0x1C5A JUMP JUMPDEST PUSH1 0x40 MLOAD DUP1 SWAP2 SUB SWAP1 LOG1 POP JUMP JUMPDEST PUSH1 0x1 DUP1 PUSH1 0x0 ADD DUP1 SLOAD PUSH2 0x10F6 SWAP1 PUSH2 0x1E9F JUMP JUMPDEST DUP1 PUSH1 0x1F ADD PUSH1 0x20 DUP1 SWAP2 DIV MUL PUSH1 0x20 ADD PUSH1 0x40 MLOAD SWAP1 DUP2 ADD PUSH1 0x40 MSTORE DUP1 SWAP3 SWAP2 SWAP1 DUP2 DUP2 MSTORE PUSH1 0x20 ADD DUP3 DUP1 SLOAD PUSH2 0x1122 SWAP1 PUSH2 0x1E9F JUMP JUMPDEST DUP1 ISZERO PUSH2 0x116F JUMPI DUP1 PUSH1 0x1F LT PUSH2 0x1144 JUMPI PUSH2 0x100 DUP1 DUP4 SLOAD DIV MUL DUP4 MSTORE SWAP2 PUSH1 0x20 ADD SWAP2 PUSH2 0x116F JUMP JUMPDEST DUP3 ADD SWAP2 SWAP1 PUSH1 0x0 MSTORE PUSH1 0x20 PUSH1 0x0 KECCAK256 SWAP1 JUMPDEST DUP2 SLOAD DUP2 MSTORE SWAP1 PUSH1 0x1 ADD SWAP1 PUSH1 0x20 ADD DUP1 DUP4 GT PUSH2 0x1152 JUMPI DUP3 SWAP1 SUB PUSH1 0x1F AND DUP3 ADD SWAP2 JUMPDEST POP POP POP POP POP SWAP1 DUP1 PUSH1 0x1 ADD DUP1 SLOAD PUSH2 0x1184 SWAP1 PUSH2 0x1E9F JUMP JUMPDEST DUP1 PUSH1 0x1F ADD PUSH1 0x20 DUP1 SWAP2 DIV MUL PUSH1 0x20 ADD PUSH1 0x40 MLOAD SWAP1 DUP2 ADD PUSH1 0x40 MSTORE DUP1 SWAP3 SWAP2 SWAP1 DUP2 DUP2 MSTORE PUSH1 0x20 ADD DUP3 DUP1 SLOAD PUSH2 0x11B0 SWAP1 PUSH2 0x1E9F JUMP JUMPDEST DUP1 ISZERO PUSH2 0x11FD JUMPI DUP1 PUSH1 0x1F LT PUSH2 0x11D2 JUMPI PUSH2 0x100 DUP1 DUP4 SLOAD DIV MUL DUP4 MSTORE SWAP2 PUSH1 0x20 ADD SWAP2 PUSH2 0x11FD JUMP JUMPDEST DUP3 ADD SWAP2 SWAP1 PUSH1 0x0 MSTORE PUSH1 0x20 PUSH1 0x0 KECCAK256 SWAP1 JUMPDEST DUP2 SLOAD DUP2 MSTORE SWAP1 PUSH1 0x1 ADD SWAP1 PUSH1 0x20 ADD DUP1 DUP4 GT PUSH2 0x11E0 JUMPI DUP3 SWAP1 SUB PUSH1 0x1F AND DUP3 ADD SWAP2 JUMPDEST POP POP POP POP POP SWAP1 DUP1 PUSH1 0x3 ADD SLOAD SWAP1 POP DUP4 JUMP JUMPDEST PUSH1 0x8 SLOAD DUP2 GT ISZERO PUSH2 0x1252 JUMPI PUSH1 0x40 MLOAD PUSH32 0x8C379A000000000000000000000000000000000000000000000000000000000 DUP2 MSTORE PUSH1 0x4 ADD PUSH2 0x1249 SWAP1 PUSH2 0x1BFA JUMP JUMPDEST PUSH1 0x40 MLOAD DUP1 SWAP2 SUB SWAP1 REVERT JUMPDEST PUSH1 0x7 SLOAD DUP2 PUSH2 0x1260 SWAP2 SWAP1 PUSH2 0x1D87 JUMP JUMPDEST CALLVALUE LT ISZERO PUSH2 0x12A2 JUMPI PUSH1 0x40 MLOAD PUSH32 0x8C379A000000000000000000000000000000000000000000000000000000000 DUP2 MSTORE PUSH1 0x4 ADD PUSH2 0x1299 SWAP1 PUSH2 0x1C3A JUMP JUMPDEST PUSH1 0x40 MLOAD DUP1 SWAP2 SUB SWAP1 REVERT JUMPDEST PUSH2 0x12AC CALLER DUP3 PUSH2 0xCED JUMP JUMPDEST PUSH2 0x12B5 CALLER PUSH2 0xE67 JUMP JUMPDEST POP JUMP JUMPDEST PUSH1 0x0 DUP1 SLOAD SWAP1 PUSH2 0x100 EXP SWAP1 DIV PUSH20 0xFFFFFFFFFFFFFFFFFFFFFFFFFFFFFFFFFFFFFFFF AND PUSH20 0xFFFFFFFFFFFFFFFFFFFFFFFFFFFFFFFFFFFFFFFF AND CALLER PUSH20 0xFFFFFFFFFFFFFFFFFFFFFFFFFFFFFFFFFFFFFFFF AND EQ PUSH2 0x1310 JUMPI PUSH1 0x0 DUP1 REVERT JUMPDEST PUSH1 0x0 DUP1 PUSH1 0x1 DUP2 GT ISZERO PUSH2 0x1325 JUMPI PUSH2 0x1324 PUSH2 0x1F7A JUMP JUMPDEST JUMPDEST PUSH1 0xA PUSH1 0x0 SWAP1 SLOAD SWAP1 PUSH2 0x100 EXP SWAP1 DIV PUSH1 0xFF AND PUSH1 0x1 DUP2 GT ISZERO PUSH2 0x1347 JUMPI PUSH2 0x1346 PUSH2 0x1F7A JUMP JUMPDEST JUMPDEST EQ PUSH2 0x1351 JUMPI PUSH1 0x0 DUP1 REVERT JUMPDEST PUSH1 0x0 PUSH1 0x40 MLOAD DUP1 PUSH1 0x60 ADD PUSH1 0x40 MSTORE DUP1 DUP7 DUP2 MSTORE PUSH1 0x20 ADD DUP6 DUP2 MSTORE PUSH1 0x20 ADD DUP5 DUP2 MSTORE POP SWAP1 POP DUP3 PUSH1 0x1 PUSH1 0x3 ADD PUSH1 0x0 DUP3 DUP3 SLOAD PUSH2 0x1385 SWAP2 SWAP1 PUSH2 0x1D31 JUMP JUMPDEST SWAP3 POP POP DUP2 SWAP1 SSTORE POP PUSH1 0x1 PUSH1 0x2 ADD DUP2 SWAP1 DUP1 PUSH1 0x1 DUP2 SLOAD ADD DUP1 DUP3 SSTORE DUP1 SWAP2 POP POP PUSH1 0x1 SWAP1 SUB SWAP1 PUSH1 0x0 MSTORE PUSH1 0x20 PUSH1 0x0 KECCAK256 SWAP1 PUSH1 0x3 MUL ADD PUSH1 0x0 SWAP1 SWAP2 SWAP1 SWAP2 SWAP1 SWAP2 POP PUSH1 0x0 DUP3 ADD MLOAD DUP2 PUSH1 0x0 ADD SWAP1 DUP1 MLOAD SWAP1 PUSH1 0x20 ADD SWAP1 PUSH2 0x13D7 SWAP3 SWAP2 SWAP1 PUSH2 0x15F6 JUMP JUMPDEST POP PUSH1 0x20 DUP3 ADD MLOAD DUP2 PUSH1 0x1 ADD SWAP1 DUP1 MLOAD SWAP1 PUSH1 0x20 ADD SWAP1 PUSH2 0x13F4 SWAP3 SWAP2 SWAP1 PUSH2 0x15F6 JUMP JUMPDEST POP PUSH1 0x40 DUP3 ADD MLOAD DUP2 PUSH1 0x2 ADD SSTORE POP POP PUSH1 0x1 PUSH1 0x3 ADD SLOAD PUSH1 0x7 DUP2 SWAP1 SSTORE POP PUSH32 0x4578FE17EAAB41AE382ABE3462BB0CF04BCFEE4168D2AAD3CE9D5D225D0E27F6 DUP6 PUSH1 0x40 MLOAD PUSH2 0x143C SWAP2 SWAP1 PUSH2 0x1B93 JUMP JUMPDEST PUSH1 0x40 MLOAD DUP1 SWAP2 SUB SWAP1 LOG1 POP POP POP POP POP JUMP JUMPDEST PUSH2 0x1454 CALLER PUSH2 0x1548 JUMP JUMPDEST PUSH2 0x1493 JUMPI PUSH1 0x40 MLOAD PUSH32 0x8C379A000000000000000000000000000000000000000000000000000000000 DUP2 MSTORE PUSH1 0x4 ADD PUSH2 0x148A SWAP1 PUSH2 0x1C1A JUMP JUMPDEST PUSH1 0x40 MLOAD DUP1 SWAP2 SUB SWAP1 REVERT JUMPDEST DUP1 PUSH1 0xD PUSH1 0x0 CALLER PUSH20 0xFFFFFFFFFFFFFFFFFFFFFFFFFFFFFFFFFFFFFFFF AND PUSH20 0xFFFFFFFFFFFFFFFFFFFFFFFFFFFFFFFFFFFFFFFF AND DUP2 MSTORE PUSH1 0x20 ADD SWAP1 DUP2 MSTORE PUSH1 0x20 ADD PUSH1 0x0 KECCAK256 PUSH1 0x0 DUP3 DUP3 SLOAD PUSH2 0x14E2 SWAP2 SWAP1 PUSH2 0x1DE1 JUMP JUMPDEST SWAP3 POP POP DUP2 SWAP1 SSTORE POP DUP1 PUSH1 0xD PUSH1 0x0 ADDRESS PUSH20 0xFFFFFFFFFFFFFFFFFFFFFFFFFFFFFFFFFFFFFFFF AND PUSH20 0xFFFFFFFFFFFFFFFFFFFFFFFFFFFFFFFFFFFFFFFF AND DUP2 MSTORE PUSH1 0x20 ADD SWAP1 DUP2 MSTORE PUSH1 0x20 ADD PUSH1 0x0 KECCAK256 PUSH1 0x0 DUP3 DUP3 SLOAD PUSH2 0x1538 SWAP2 SWAP1 PUSH2 0x1D31 JUMP JUMPDEST SWAP3 POP POP DUP2 SWAP1 SSTORE POP POP JUMP JUMPDEST PUSH1 0x12 SLOAD DUP2 JUMP JUMPDEST PUSH1 0x0 DUP1 PUSH1 0x0 SWAP1 POP JUMPDEST PUSH1 0xB DUP1 SLOAD SWAP1 POP DUP2 GT PUSH2 0x15EB JUMPI DUP3 PUSH20 0xFFFFFFFFFFFFFFFFFFFFFFFFFFFFFFFFFFFFFFFF AND PUSH1 0xB DUP3 DUP2 SLOAD DUP2 LT PUSH2 0x1587 JUMPI PUSH2 0x1586 PUSH2 0x1FD8 JUMP JUMPDEST JUMPDEST SWAP1 PUSH1 0x0 MSTORE PUSH1 0x20 PUSH1 0x0 KECCAK256 ADD PUSH1 0x0 SWAP1 SLOAD SWAP1 PUSH2 0x100 EXP SWAP1 DIV PUSH20 0xFFFFFFFFFFFFFFFFFFFFFFFFFFFFFFFFFFFFFFFF AND PUSH20 0xFFFFFFFFFFFFFFFFFFFFFFFFFFFFFFFFFFFFFFFF AND EQ ISZERO PUSH2 0x15D8 JUMPI PUSH1 0x1 SWAP2 POP POP PUSH2 0x15F1 JUMP JUMPDEST DUP1 DUP1 PUSH2 0x15E3 SWAP1 PUSH2 0x1F02 JUMP JUMPDEST SWAP2 POP POP PUSH2 0x1550 JUMP JUMPDEST POP PUSH1 0x0 SWAP1 POP JUMPDEST SWAP2 SWAP1 POP JUMP JUMPDEST DUP3 DUP1 SLOAD PUSH2 0x1602 SWAP1 PUSH2 0x1E9F JUMP JUMPDEST SWAP1 PUSH1 0x0 MSTORE PUSH1 0x20 PUSH1 0x0 KECCAK256 SWAP1 PUSH1 0x1F ADD PUSH1 0x20 SWAP1 DIV DUP2 ADD SWAP3 DUP3 PUSH2 0x1624 JUMPI PUSH1 0x0 DUP6 SSTORE PUSH2 0x166B JUMP JUMPDEST DUP3 PUSH1 0x1F LT PUSH2 0x163D JUMPI DUP1 MLOAD PUSH1 0xFF NOT AND DUP4 DUP1 ADD OR DUP6 SSTORE PUSH2 0x166B JUMP JUMPDEST DUP3 DUP1 ADD PUSH1 0x1 ADD DUP6 SSTORE DUP3 ISZERO PUSH2 0x166B JUMPI SWAP2 DUP3 ADD JUMPDEST DUP3 DUP2 GT ISZERO PUSH2 0x166A JUMPI DUP3 MLOAD DUP3 SSTORE SWAP2 PUSH1 0x20 ADD SWAP2 SWAP1 PUSH1 0x1 ADD SWAP1 PUSH2 0x164F JUMP JUMPDEST JUMPDEST POP SWAP1 POP PUSH2 0x1678 SWAP2 SWAP1 PUSH2 0x16AE JUMP JUMPDEST POP SWAP1 JUMP JUMPDEST PUSH1 0x40 MLOAD DUP1 PUSH1 0x40 ADD PUSH1 0x40 MSTORE DUP1 PUSH1 0x0 PUSH20 0xFFFFFFFFFFFFFFFFFFFFFFFFFFFFFFFFFFFFFFFF AND DUP2 MSTORE PUSH1 0x20 ADD PUSH1 0x0 ISZERO ISZERO DUP2 MSTORE POP SWAP1 JUMP JUMPDEST JUMPDEST DUP1 DUP3 GT ISZERO PUSH2 0x16C7 JUMPI PUSH1 0x0 DUP2 PUSH1 0x0 SWAP1 SSTORE POP PUSH1 0x1 ADD PUSH2 0x16AF JUMP JUMPDEST POP SWAP1 JUMP JUMPDEST PUSH1 0x0 PUSH2 0x16DE PUSH2 0x16D9 DUP5 PUSH2 0x1C9A JUMP JUMPDEST PUSH2 0x1C75 JUMP JUMPDEST SWAP1 POP DUP3 DUP2 MSTORE PUSH1 0x20 DUP2 ADD DUP5 DUP5 DUP5 ADD GT ISZERO PUSH2 0x16FA JUMPI PUSH2 0x16F9 PUSH2 0x203B JUMP JUMPDEST JUMPDEST PUSH2 0x1705 DUP5 DUP3 DUP6 PUSH2 0x1E5D JUMP JUMPDEST POP SWAP4 SWAP3 POP POP POP JUMP JUMPDEST PUSH1 0x0 DUP2 CALLDATALOAD SWAP1 POP PUSH2 0x171C DUP2 PUSH2 0x2122 JUMP JUMPDEST SWAP3 SWAP2 POP POP JUMP JUMPDEST PUSH1 0x0 DUP2 CALLDATALOAD SWAP1 POP PUSH2 0x1731 DUP2 PUSH2 0x2139 JUMP JUMPDEST SWAP3 SWAP2 POP POP JUMP JUMPDEST PUSH1 0x0 DUP3 PUSH1 0x1F DUP4 ADD SLT PUSH2 0x174C JUMPI PUSH2 0x174B PUSH2 0x2036 JUMP JUMPDEST JUMPDEST DUP2 CALLDATALOAD PUSH2 0x175C DUP5 DUP3 PUSH1 0x20 DUP7 ADD PUSH2 0x16CB JUMP JUMPDEST SWAP2 POP POP SWAP3 SWAP2 POP POP JUMP JUMPDEST PUSH1 0x0 DUP2 CALLDATALOAD SWAP1 POP PUSH2 0x1774 DUP2 PUSH2 0x2150 JUMP JUMPDEST SWAP3 SWAP2 POP POP JUMP JUMPDEST PUSH1 0x0 PUSH1 0x20 DUP3 DUP5 SUB SLT ISZERO PUSH2 0x1790 JUMPI PUSH2 0x178F PUSH2 0x2045 JUMP JUMPDEST JUMPDEST PUSH1 0x0 PUSH2 0x179E DUP5 DUP3 DUP6 ADD PUSH2 0x170D JUMP JUMPDEST SWAP2 POP POP SWAP3 SWAP2 POP POP JUMP JUMPDEST PUSH1 0x0 DUP1 PUSH1 0x40 DUP4 DUP6 SUB SLT ISZERO PUSH2 0x17BE JUMPI PUSH2 0x17BD PUSH2 0x2045 JUMP JUMPDEST JUMPDEST PUSH1 0x0 PUSH2 0x17CC DUP6 DUP3 DUP7 ADD PUSH2 0x170D JUMP JUMPDEST SWAP3 POP POP PUSH1 0x20 PUSH2 0x17DD DUP6 DUP3 DUP7 ADD PUSH2 0x1765 JUMP JUMPDEST SWAP2 POP POP SWAP3 POP SWAP3 SWAP1 POP JUMP JUMPDEST PUSH1 0x0 PUSH1 0x20 DUP3 DUP5 SUB SLT ISZERO PUSH2 0x17FD JUMPI PUSH2 0x17FC PUSH2 0x2045 JUMP JUMPDEST JUMPDEST PUSH1 0x0 PUSH2 0x180B DUP5 DUP3 DUP6 ADD PUSH2 0x1722 JUMP JUMPDEST SWAP2 POP POP SWAP3 SWAP2 POP POP JUMP JUMPDEST PUSH1 0x0 DUP1 PUSH1 0x40 DUP4 DUP6 SUB SLT ISZERO PUSH2 0x182B JUMPI PUSH2 0x182A PUSH2 0x2045 JUMP JUMPDEST JUMPDEST PUSH1 0x0 DUP4 ADD CALLDATALOAD PUSH8 0xFFFFFFFFFFFFFFFF DUP2 GT ISZERO PUSH2 0x1849 JUMPI PUSH2 0x1848 PUSH2 0x2040 JUMP JUMPDEST JUMPDEST PUSH2 0x1855 DUP6 DUP3 DUP7 ADD PUSH2 0x1737 JUMP JUMPDEST SWAP3 POP POP PUSH1 0x20 DUP4 ADD CALLDATALOAD PUSH8 0xFFFFFFFFFFFFFFFF DUP2 GT ISZERO PUSH2 0x1876 JUMPI PUSH2 0x1875 PUSH2 0x2040 JUMP JUMPDEST JUMPDEST PUSH2 0x1882 DUP6 DUP3 DUP7 ADD PUSH2 0x1737 JUMP JUMPDEST SWAP2 POP POP SWAP3 POP SWAP3 SWAP1 POP JUMP JUMPDEST PUSH1 0x0 DUP1 PUSH1 0x0 PUSH1 0x60 DUP5 DUP7 SUB SLT ISZERO PUSH2 0x18A5 JUMPI PUSH2 0x18A4 PUSH2 0x2045 JUMP JUMPDEST JUMPDEST PUSH1 0x0 DUP5 ADD CALLDATALOAD PUSH8 0xFFFFFFFFFFFFFFFF DUP2 GT ISZERO PUSH2 0x18C3 JUMPI PUSH2 0x18C2 PUSH2 0x2040 JUMP JUMPDEST JUMPDEST PUSH2 0x18CF DUP7 DUP3 DUP8 ADD PUSH2 0x1737 JUMP JUMPDEST SWAP4 POP POP PUSH1 0x20 DUP5 ADD CALLDATALOAD PUSH8 0xFFFFFFFFFFFFFFFF DUP2 GT ISZERO PUSH2 0x18F0 JUMPI PUSH2 0x18EF PUSH2 0x2040 JUMP JUMPDEST JUMPDEST PUSH2 0x18FC DUP7 DUP3 DUP8 ADD PUSH2 0x1737 JUMP JUMPDEST SWAP3 POP POP PUSH1 0x40 PUSH2 0x190D DUP7 DUP3 DUP8 ADD PUSH2 0x1765 JUMP JUMPDEST SWAP2 POP POP SWAP3 POP SWAP3 POP SWAP3 JUMP JUMPDEST PUSH1 0x0 PUSH1 0x20 DUP3 DUP5 SUB SLT ISZERO PUSH2 0x192D JUMPI PUSH2 0x192C PUSH2 0x2045 JUMP JUMPDEST JUMPDEST PUSH1 0x0 PUSH2 0x193B DUP5 DUP3 DUP6 ADD PUSH2 0x1765 JUMP JUMPDEST SWAP2 POP POP SWAP3 SWAP2 POP POP JUMP JUMPDEST PUSH1 0x0 PUSH2 0x1950 DUP4 DUP4 PUSH2 0x1AC6 JUMP JUMPDEST SWAP1 POP SWAP3 SWAP2 POP POP JUMP JUMPDEST PUSH2 0x1961 DUP2 PUSH2 0x1E15 JUMP JUMPDEST DUP3 MSTORE POP POP JUMP JUMPDEST PUSH1 0x0 PUSH2 0x1972 DUP3 PUSH2 0x1CDB JUMP JUMPDEST PUSH2 0x197C DUP2 DUP6 PUSH2 0x1CFE JUMP JUMPDEST SWAP4 POP DUP4 PUSH1 0x20 DUP3 MUL DUP6 ADD PUSH2 0x198E DUP6 PUSH2 0x1CCB JUMP JUMPDEST DUP1 PUSH1 0x0 JUMPDEST DUP6 DUP2 LT ISZERO PUSH2 0x19CA JUMPI DUP5 DUP5 SUB DUP10 MSTORE DUP2 MLOAD PUSH2 0x19AB DUP6 DUP3 PUSH2 0x1944 JUMP JUMPDEST SWAP5 POP PUSH2 0x19B6 DUP4 PUSH2 0x1CF1 JUMP JUMPDEST SWAP3 POP PUSH1 0x20 DUP11 ADD SWAP10 POP POP PUSH1 0x1 DUP2 ADD SWAP1 POP PUSH2 0x1992 JUMP JUMPDEST POP DUP3 SWAP8 POP DUP8 SWAP6 POP POP POP POP POP POP SWAP3 SWAP2 POP POP JUMP JUMPDEST PUSH2 0x19E5 DUP2 PUSH2 0x1E27 JUMP JUMPDEST DUP3 MSTORE POP POP JUMP JUMPDEST PUSH1 0x0 PUSH2 0x19F6 DUP3 PUSH2 0x1CE6 JUMP JUMPDEST PUSH2 0x1A00 DUP2 DUP6 PUSH2 0x1D0F JUMP JUMPDEST SWAP4 POP PUSH2 0x1A10 DUP2 DUP6 PUSH1 0x20 DUP7 ADD PUSH2 0x1E6C JUMP JUMPDEST PUSH2 0x1A19 DUP2 PUSH2 0x204A JUMP JUMPDEST DUP5 ADD SWAP2 POP POP SWAP3 SWAP2 POP POP JUMP JUMPDEST PUSH1 0x0 PUSH2 0x1A2F DUP3 PUSH2 0x1CE6 JUMP JUMPDEST PUSH2 0x1A39 DUP2 DUP6 PUSH2 0x1D20 JUMP JUMPDEST SWAP4 POP PUSH2 0x1A49 DUP2 DUP6 PUSH1 0x20 DUP7 ADD PUSH2 0x1E6C JUMP JUMPDEST PUSH2 0x1A52 DUP2 PUSH2 0x204A JUMP JUMPDEST DUP5 ADD SWAP2 POP POP SWAP3 SWAP2 POP POP JUMP JUMPDEST PUSH1 0x0 PUSH2 0x1A6A PUSH1 0x23 DUP4 PUSH2 0x1D20 JUMP JUMPDEST SWAP2 POP PUSH2 0x1A75 DUP3 PUSH2 0x205B JUMP JUMPDEST PUSH1 0x40 DUP3 ADD SWAP1 POP SWAP2 SWAP1 POP JUMP JUMPDEST PUSH1 0x0 PUSH2 0x1A8D PUSH1 0x22 DUP4 PUSH2 0x1D20 JUMP JUMPDEST SWAP2 POP PUSH2 0x1A98 DUP3 PUSH2 0x20AA JUMP JUMPDEST PUSH1 0x40 DUP3 ADD SWAP1 POP SWAP2 SWAP1 POP JUMP JUMPDEST PUSH1 0x0 PUSH2 0x1AB0 PUSH1 0xE DUP4 PUSH2 0x1D20 JUMP JUMPDEST SWAP2 POP PUSH2 0x1ABB DUP3 PUSH2 0x20F9 JUMP JUMPDEST PUSH1 0x20 DUP3 ADD SWAP1 POP SWAP2 SWAP1 POP JUMP JUMPDEST PUSH1 0x0 PUSH1 0x60 DUP4 ADD PUSH1 0x0 DUP4 ADD MLOAD DUP5 DUP3 SUB PUSH1 0x0 DUP7 ADD MSTORE PUSH2 0x1AE3 DUP3 DUP3 PUSH2 0x19EB JUMP JUMPDEST SWAP2 POP POP PUSH1 0x20 DUP4 ADD MLOAD DUP5 DUP3 SUB PUSH1 0x20 DUP7 ADD MSTORE PUSH2 0x1AFD DUP3 DUP3 PUSH2 0x19EB JUMP JUMPDEST SWAP2 POP POP PUSH1 0x40 DUP4 ADD MLOAD PUSH2 0x1B12 PUSH1 0x40 DUP7 ADD DUP3 PUSH2 0x1B1D JUMP JUMPDEST POP DUP1 SWAP2 POP POP SWAP3 SWAP2 POP POP JUMP JUMPDEST PUSH2 0x1B26 DUP2 PUSH2 0x1E53 JUMP JUMPDEST DUP3 MSTORE POP POP JUMP JUMPDEST PUSH2 0x1B35 DUP2 PUSH2 0x1E53 JUMP JUMPDEST DUP3 MSTORE POP POP JUMP JUMPDEST PUSH1 0x0 PUSH1 0x20 DUP3 ADD SWAP1 POP PUSH2 0x1B50 PUSH1 0x0 DUP4 ADD DUP5 PUSH2 0x1958 JUMP JUMPDEST SWAP3 SWAP2 POP POP JUMP JUMPDEST PUSH1 0x0 PUSH1 0x20 DUP3 ADD SWAP1 POP DUP2 DUP2 SUB PUSH1 0x0 DUP4 ADD MSTORE PUSH2 0x1B70 DUP2 DUP5 PUSH2 0x1967 JUMP JUMPDEST SWAP1 POP SWAP3 SWAP2 POP POP JUMP JUMPDEST PUSH1 0x0 PUSH1 0x20 DUP3 ADD SWAP1 POP PUSH2 0x1B8D PUSH1 0x0 DUP4 ADD DUP5 PUSH2 0x19DC JUMP JUMPDEST SWAP3 SWAP2 POP POP JUMP JUMPDEST PUSH1 0x0 PUSH1 0x20 DUP3 ADD SWAP1 POP DUP2 DUP2 SUB PUSH1 0x0 DUP4 ADD MSTORE PUSH2 0x1BAD DUP2 DUP5 PUSH2 0x1A24 JUMP JUMPDEST SWAP1 POP SWAP3 SWAP2 POP POP JUMP JUMPDEST PUSH1 0x0 PUSH1 0x60 DUP3 ADD SWAP1 POP DUP2 DUP2 SUB PUSH1 0x0 DUP4 ADD MSTORE PUSH2 0x1BCF DUP2 DUP7 PUSH2 0x1A24 JUMP JUMPDEST SWAP1 POP DUP2 DUP2 SUB PUSH1 0x20 DUP4 ADD MSTORE PUSH2 0x1BE3 DUP2 DUP6 PUSH2 0x1A24 JUMP JUMPDEST SWAP1 POP PUSH2 0x1BF2 PUSH1 0x40 DUP4 ADD DUP5 PUSH2 0x1B2C JUMP JUMPDEST SWAP5 SWAP4 POP POP POP POP JUMP JUMPDEST PUSH1 0x0 PUSH1 0x20 DUP3 ADD SWAP1 POP DUP2 DUP2 SUB PUSH1 0x0 DUP4 ADD MSTORE PUSH2 0x1C13 DUP2 PUSH2 0x1A5D JUMP JUMPDEST SWAP1 POP SWAP2 SWAP1 POP JUMP JUMPDEST PUSH1 0x0 PUSH1 0x20 DUP3 ADD SWAP1 POP DUP2 DUP2 SUB PUSH1 0x0 DUP4 ADD MSTORE PUSH2 0x1C33 DUP2 PUSH2 0x1A80 JUMP JUMPDEST SWAP1 POP SWAP2 SWAP1 POP JUMP JUMPDEST PUSH1 0x0 PUSH1 0x20 DUP3 ADD SWAP1 POP DUP2 DUP2 SUB PUSH1 0x0 DUP4 ADD MSTORE PUSH2 0x1C53 DUP2 PUSH2 0x1AA3 JUMP JUMPDEST SWAP1 POP SWAP2 SWAP1 POP JUMP JUMPDEST PUSH1 0x0 PUSH1 0x20 DUP3 ADD SWAP1 POP PUSH2 0x1C6F PUSH1 0x0 DUP4 ADD DUP5 PUSH2 0x1B2C JUMP JUMPDEST SWAP3 SWAP2 POP POP JUMP JUMPDEST PUSH1 0x0 PUSH2 0x1C7F PUSH2 0x1C90 JUMP JUMPDEST SWAP1 POP PUSH2 0x1C8B DUP3 DUP3 PUSH2 0x1ED1 JUMP JUMPDEST SWAP2 SWAP1 POP JUMP JUMPDEST PUSH1 0x0 PUSH1 0x40 MLOAD SWAP1 POP SWAP1 JUMP JUMPDEST PUSH1 0x0 PUSH8 0xFFFFFFFFFFFFFFFF DUP3 GT ISZERO PUSH2 0x1CB5 JUMPI PUSH2 0x1CB4 PUSH2 0x2007 JUMP JUMPDEST JUMPDEST PUSH2 0x1CBE DUP3 PUSH2 0x204A JUMP JUMPDEST SWAP1 POP PUSH1 0x20 DUP2 ADD SWAP1 POP SWAP2 SWAP1 POP JUMP JUMPDEST PUSH1 0x0 DUP2 SWAP1 POP PUSH1 0x20 DUP3 ADD SWAP1 POP SWAP2 SWAP1 POP JUMP JUMPDEST PUSH1 0x0 DUP2 MLOAD SWAP1 POP SWAP2 SWAP1 POP JUMP JUMPDEST PUSH1 0x0 DUP2 MLOAD SWAP1 POP SWAP2 SWAP1 POP JUMP JUMPDEST PUSH1 0x0 PUSH1 0x20 DUP3 ADD SWAP1 POP SWAP2 SWAP1 POP JUMP JUMPDEST PUSH1 0x0 DUP3 DUP3 MSTORE PUSH1 0x20 DUP3 ADD SWAP1 POP SWAP3 SWAP2 POP POP JUMP JUMPDEST PUSH1 0x0 DUP3 DUP3 MSTORE PUSH1 0x20 DUP3 ADD SWAP1 POP SWAP3 SWAP2 POP POP JUMP JUMPDEST PUSH1 0x0 DUP3 DUP3 MSTORE PUSH1 0x20 DUP3 ADD SWAP1 POP SWAP3 SWAP2 POP POP JUMP JUMPDEST PUSH1 0x0 PUSH2 0x1D3C DUP3 PUSH2 0x1E53 JUMP JUMPDEST SWAP2 POP PUSH2 0x1D47 DUP4 PUSH2 0x1E53 JUMP JUMPDEST SWAP3 POP DUP3 PUSH32 0xFFFFFFFFFFFFFFFFFFFFFFFFFFFFFFFFFFFFFFFFFFFFFFFFFFFFFFFFFFFFFFFF SUB DUP3 GT ISZERO PUSH2 0x1D7C JUMPI PUSH2 0x1D7B PUSH2 0x1F4B JUMP JUMPDEST JUMPDEST DUP3 DUP3 ADD SWAP1 POP SWAP3 SWAP2 POP POP JUMP JUMPDEST PUSH1 0x0 PUSH2 0x1D92 DUP3 PUSH2 0x1E53 JUMP JUMPDEST SWAP2 POP PUSH2 0x1D9D DUP4 PUSH2 0x1E53 JUMP JUMPDEST SWAP3 POP DUP2 PUSH32 0xFFFFFFFFFFFFFFFFFFFFFFFFFFFFFFFFFFFFFFFFFFFFFFFFFFFFFFFFFFFFFFFF DIV DUP4 GT DUP3 ISZERO ISZERO AND ISZERO PUSH2 0x1DD6 JUMPI PUSH2 0x1DD5 PUSH2 0x1F4B JUMP JUMPDEST JUMPDEST DUP3 DUP3 MUL SWAP1 POP SWAP3 SWAP2 POP POP JUMP JUMPDEST PUSH1 0x0 PUSH2 0x1DEC DUP3 PUSH2 0x1E53 JUMP JUMPDEST SWAP2 POP PUSH2 0x1DF7 DUP4 PUSH2 0x1E53 JUMP JUMPDEST SWAP3 POP DUP3 DUP3 LT ISZERO PUSH2 0x1E0A JUMPI PUSH2 0x1E09 PUSH2 0x1F4B JUMP JUMPDEST JUMPDEST DUP3 DUP3 SUB SWAP1 POP SWAP3 SWAP2 POP POP JUMP JUMPDEST PUSH1 0x0 PUSH2 0x1E20 DUP3 PUSH2 0x1E33 JUMP JUMPDEST SWAP1 POP SWAP2 SWAP1 POP JUMP JUMPDEST PUSH1 0x0 DUP2 ISZERO ISZERO SWAP1 POP SWAP2 SWAP1 POP JUMP JUMPDEST PUSH1 0x0 PUSH20 0xFFFFFFFFFFFFFFFFFFFFFFFFFFFFFFFFFFFFFFFF DUP3 AND SWAP1 POP SWAP2 SWAP1 POP JUMP JUMPDEST PUSH1 0x0 DUP2 SWAP1 POP SWAP2 SWAP1 POP JUMP JUMPDEST DUP3 DUP2 DUP4 CALLDATACOPY PUSH1 0x0 DUP4 DUP4 ADD MSTORE POP POP POP JUMP JUMPDEST PUSH1 0x0 JUMPDEST DUP4 DUP2 LT ISZERO PUSH2 0x1E8A JUMPI DUP1 DUP3 ADD MLOAD DUP2 DUP5 ADD MSTORE PUSH1 0x20 DUP2 ADD SWAP1 POP PUSH2 0x1E6F JUMP JUMPDEST DUP4 DUP2 GT ISZERO PUSH2 0x1E99 JUMPI PUSH1 0x0 DUP5 DUP5 ADD MSTORE JUMPDEST POP POP POP POP JUMP JUMPDEST PUSH1 0x0 PUSH1 0x2 DUP3 DIV SWAP1 POP PUSH1 0x1 DUP3 AND DUP1 PUSH2 0x1EB7 JUMPI PUSH1 0x7F DUP3 AND SWAP2 POP JUMPDEST PUSH1 0x20 DUP3 LT DUP2 EQ ISZERO PUSH2 0x1ECB JUMPI PUSH2 0x1ECA PUSH2 0x1FA9 JUMP JUMPDEST JUMPDEST POP SWAP2 SWAP1 POP JUMP JUMPDEST PUSH2 0x1EDA DUP3 PUSH2 0x204A JUMP JUMPDEST DUP2 ADD DUP2 DUP2 LT PUSH8 0xFFFFFFFFFFFFFFFF DUP3 GT OR ISZERO PUSH2 0x1EF9 JUMPI PUSH2 0x1EF8 PUSH2 0x2007 JUMP JUMPDEST JUMPDEST DUP1 PUSH1 0x40 MSTORE POP POP POP JUMP JUMPDEST PUSH1 0x0 PUSH2 0x1F0D DUP3 PUSH2 0x1E53 JUMP JUMPDEST SWAP2 POP PUSH32 0xFFFFFFFFFFFFFFFFFFFFFFFFFFFFFFFFFFFFFFFFFFFFFFFFFFFFFFFFFFFFFFFF DUP3 EQ ISZERO PUSH2 0x1F40 JUMPI PUSH2 0x1F3F PUSH2 0x1F4B JUMP JUMPDEST JUMPDEST PUSH1 0x1 DUP3 ADD SWAP1 POP SWAP2 SWAP1 POP JUMP JUMPDEST PUSH32 0x4E487B7100000000000000000000000000000000000000000000000000000000 PUSH1 0x0 MSTORE PUSH1 0x11 PUSH1 0x4 MSTORE PUSH1 0x24 PUSH1 0x0 REVERT JUMPDEST PUSH32 0x4E487B7100000000000000000000000000000000000000000000000000000000 PUSH1 0x0 MSTORE PUSH1 0x21 PUSH1 0x4 MSTORE PUSH1 0x24 PUSH1 0x0 REVERT JUMPDEST PUSH32 0x4E487B7100000000000000000000000000000000000000000000000000000000 PUSH1 0x0 MSTORE PUSH1 0x22 PUSH1 0x4 MSTORE PUSH1 0x24 PUSH1 0x0 REVERT JUMPDEST PUSH32 0x4E487B7100000000000000000000000000000000000000000000000000000000 PUSH1 0x0 MSTORE PUSH1 0x32 PUSH1 0x4 MSTORE PUSH1 0x24 PUSH1 0x0 REVERT JUMPDEST PUSH32 0x4E487B7100000000000000000000000000000000000000000000000000000000 PUSH1 0x0 MSTORE PUSH1 0x41 PUSH1 0x4 MSTORE PUSH1 0x24 PUSH1 0x0 REVERT JUMPDEST PUSH1 0x0 DUP1 REVERT JUMPDEST PUSH1 0x0 DUP1 REVERT JUMPDEST PUSH1 0x0 DUP1 REVERT JUMPDEST PUSH1 0x0 DUP1 REVERT JUMPDEST PUSH1 0x0 PUSH1 0x1F NOT PUSH1 0x1F DUP4 ADD AND SWAP1 POP SWAP2 SWAP1 POP JUMP JUMPDEST PUSH32 0x4E756D626572206F662073686172657320657863656564656420746865206C69 PUSH1 0x0 DUP3 ADD MSTORE PUSH32 0x6D69740000000000000000000000000000000000000000000000000000000000 PUSH1 0x20 DUP3 ADD MSTORE POP JUMP JUMPDEST PUSH32 0x54686973207573657220646F6573206E6F7420686F6C6420616E792073686172 PUSH1 0x0 DUP3 ADD MSTORE PUSH32 0x6573000000000000000000000000000000000000000000000000000000000000 PUSH1 0x20 DUP3 ADD MSTORE POP JUMP JUMPDEST PUSH32 0x4E6F7420656E6F75676820776569000000000000000000000000000000000000 PUSH1 0x0 DUP3 ADD MSTORE POP JUMP JUMPDEST PUSH2 0x212B DUP2 PUSH2 0x1E15 JUMP JUMPDEST DUP2 EQ PUSH2 0x2136 JUMPI PUSH1 0x0 DUP1 REVERT JUMPDEST POP JUMP JUMPDEST PUSH2 0x2142 DUP2 PUSH2 0x1E27 JUMP JUMPDEST DUP2 EQ PUSH2 0x214D JUMPI PUSH1 0x0 DUP1 REVERT JUMPDEST POP JUMP JUMPDEST PUSH2 0x2159 DUP2 PUSH2 0x1E53 JUMP JUMPDEST DUP2 EQ PUSH2 0x2164 JUMPI PUSH1 0x0 DUP1 REVERT JUMPDEST POP JUMP INVALID LOG2 PUSH5 0x6970667358 0x22 SLT KECCAK256 MSTORE PUSH4 0x6AB1D408 0xE8 0x4C 0x5D CALLER PUSH23 0xF70F984EE9394E7E475A955FC81389A09FFBAE72556473 PUSH16 0x6C634300080700330000000000000000 "
				},
				"gasEstimates": {
					"creation": {
						"codeDepositCost": "1721000",
						"executionCost": "infinite",
						"totalCost": "infinite"
					},
					"external": {
						"addHouse(string,string,uint256)": "infinite",
						"addShareHolder(address)": "infinite",
						"ballotInitiator()": "2675",
						"ballotName()": "infinite",
						"buy(uint256)": "infinite",
						"createBallot(string,string)": "infinite",
						"doVote(bool)": "infinite",
						"endVote()": "56394",
						"finalResult()": "2561",
						"getHouse(uint256)": "infinite",
						"hp()": "infinite",
						"owner()": "2556",
						"proposal()": "infinite",
						"sell(uint256)": "infinite",
						"shareHolderRegistry(address)": "2890",
						"shareHolders(uint256)": "5045",
						"shareLimit()": "2563",
						"startTrading()": "26666",
						"startVote()": "29667",
						"tokenPrice()": "2562",
						"totalShareHolders()": "2496",
						"totalShares()": "2541",
						"totalVotes()": "2453",
						"transfer(address,uint256)": "infinite"
					},
					"internal": {
						"contains(address)": "infinite"
					}
				},
				"methodIdentifiers": {
					"addHouse(string,string,uint256)": "df094409",
					"addShareHolder(address)": "af769c64",
					"ballotInitiator()": "ad349442",
					"ballotName()": "1b26586c",
					"buy(uint256)": "d96a094a",
					"createBallot(string,string)": "6fa4f103",
					"doVote(bool)": "87caea78",
					"endVote()": "b9223946",
					"finalResult()": "f3a8286f",
					"getHouse(uint256)": "3107c99d",
					"hp()": "d8124c5f",
					"owner()": "8da5cb5b",
					"proposal()": "753ec103",
					"sell(uint256)": "e4849b32",
					"shareHolderRegistry(address)": "59ea0173",
					"shareHolders(uint256)": "7427a40c",
					"shareLimit()": "3be75aa3",
					"startTrading()": "293230b8",
					"startVote()": "4c0a6af0",
					"tokenPrice()": "7ff9b596",
					"totalShareHolders()": "9a982416",
					"totalShares()": "3a98ef39",
					"totalVotes()": "0d15fd77",
					"transfer(address,uint256)": "a9059cbb"
				}
			},
			"storageLayout": {
				"storage": [
					{
						"astId": 3,
						"contract": "MyHomeToken.sol:MyHomesToken",
						"label": "owner",
						"offset": 0,
						"slot": "0",
						"type": "t_address"
					},
					{
						"astId": 6,
						"contract": "MyHomeToken.sol:MyHomesToken",
						"label": "hp",
						"offset": 0,
						"slot": "1",
						"type": "t_struct(HousingPackage)120_storage"
					},
					{
						"astId": 10,
						"contract": "MyHomeToken.sol:MyHomesToken",
						"label": "houseRegister",
						"offset": 0,
						"slot": "5",
						"type": "t_array(t_struct(House)109_storage)dyn_storage"
					},
					{
						"astId": 13,
						"contract": "MyHomeToken.sol:MyHomesToken",
						"label": "totalShares",
						"offset": 0,
						"slot": "6",
						"type": "t_uint256"
					},
					{
						"astId": 16,
						"contract": "MyHomeToken.sol:MyHomesToken",
						"label": "tokenPrice",
						"offset": 0,
						"slot": "7",
						"type": "t_uint256"
					},
					{
						"astId": 19,
						"contract": "MyHomeToken.sol:MyHomesToken",
						"label": "shareLimit",
						"offset": 0,
						"slot": "8",
						"type": "t_uint256"
					},
					{
						"astId": 22,
						"contract": "MyHomeToken.sol:MyHomesToken",
						"label": "totalShareHolders",
						"offset": 0,
						"slot": "9",
						"type": "t_uint256"
					},
					{
						"astId": 25,
						"contract": "MyHomeToken.sol:MyHomesToken",
						"label": "state",
						"offset": 0,
						"slot": "10",
						"type": "t_enum(State)198"
					},
					{
						"astId": 28,
						"contract": "MyHomeToken.sol:MyHomesToken",
						"label": "shareHolders",
						"offset": 0,
						"slot": "11",
						"type": "t_array(t_address)dyn_storage"
					},
					{
						"astId": 32,
						"contract": "MyHomeToken.sol:MyHomesToken",
						"label": "shareHolderRegistry",
						"offset": 0,
						"slot": "12",
						"type": "t_mapping(t_address,t_bool)"
					},
					{
						"astId": 36,
						"contract": "MyHomeToken.sol:MyHomesToken",
						"label": "_balanceOf",
						"offset": 0,
						"slot": "13",
						"type": "t_mapping(t_address,t_uint256)"
					},
					{
						"astId": 39,
						"contract": "MyHomeToken.sol:MyHomesToken",
						"label": "ballotState",
						"offset": 0,
						"slot": "14",
						"type": "t_enum(BallotState)195"
					},
					{
						"astId": 41,
						"contract": "MyHomeToken.sol:MyHomesToken",
						"label": "ballotInitiator",
						"offset": 1,
						"slot": "14",
						"type": "t_address"
					},
					{
						"astId": 43,
						"contract": "MyHomeToken.sol:MyHomesToken",
						"label": "ballotName",
						"offset": 0,
						"slot": "15",
						"type": "t_string_storage"
					},
					{
						"astId": 45,
						"contract": "MyHomeToken.sol:MyHomesToken",
						"label": "proposal",
						"offset": 0,
						"slot": "16",
						"type": "t_string_storage"
					},
					{
						"astId": 48,
						"contract": "MyHomeToken.sol:MyHomesToken",
						"label": "resultCount",
						"offset": 0,
						"slot": "17",
						"type": "t_uint256"
					},
					{
						"astId": 51,
						"contract": "MyHomeToken.sol:MyHomesToken",
						"label": "finalResult",
						"offset": 0,
						"slot": "18",
						"type": "t_uint256"
					},
					{
						"astId": 54,
						"contract": "MyHomeToken.sol:MyHomesToken",
						"label": "totalVotes",
						"offset": 0,
						"slot": "19",
						"type": "t_uint256"
					},
					{
						"astId": 59,
						"contract": "MyHomeToken.sol:MyHomesToken",
						"label": "votes",
						"offset": 0,
						"slot": "20",
						"type": "t_mapping(t_uint256,t_struct(Vote)125_storage)"
					}
				],
				"types": {
					"t_address": {
						"encoding": "inplace",
						"label": "address",
						"numberOfBytes": "20"
					},
					"t_array(t_address)dyn_storage": {
						"base": "t_address",
						"encoding": "dynamic_array",
						"label": "address[]",
						"numberOfBytes": "32"
					},
					"t_array(t_struct(House)109_storage)dyn_storage": {
						"base": "t_struct(House)109_storage",
						"encoding": "dynamic_array",
						"label": "struct MyHomesToken.House[]",
						"numberOfBytes": "32"
					},
					"t_bool": {
						"encoding": "inplace",
						"label": "bool",
						"numberOfBytes": "1"
					},
					"t_enum(BallotState)195": {
						"encoding": "inplace",
						"label": "enum MyHomesToken.BallotState",
						"numberOfBytes": "1"
					},
					"t_enum(State)198": {
						"encoding": "inplace",
						"label": "enum MyHomesToken.State",
						"numberOfBytes": "1"
					},
					"t_mapping(t_address,t_bool)": {
						"encoding": "mapping",
						"key": "t_address",
						"label": "mapping(address => bool)",
						"numberOfBytes": "32",
						"value": "t_bool"
					},
					"t_mapping(t_address,t_uint256)": {
						"encoding": "mapping",
						"key": "t_address",
						"label": "mapping(address => uint256)",
						"numberOfBytes": "32",
						"value": "t_uint256"
					},
					"t_mapping(t_uint256,t_struct(Vote)125_storage)": {
						"encoding": "mapping",
						"key": "t_uint256",
						"label": "mapping(uint256 => struct MyHomesToken.Vote)",
						"numberOfBytes": "32",
						"value": "t_struct(Vote)125_storage"
					},
					"t_string_storage": {
						"encoding": "bytes",
						"label": "string",
						"numberOfBytes": "32"
					},
					"t_struct(House)109_storage": {
						"encoding": "inplace",
						"label": "struct MyHomesToken.House",
						"members": [
							{
								"astId": 104,
								"contract": "MyHomeToken.sol:MyHomesToken",
								"label": "registrationId",
								"offset": 0,
								"slot": "0",
								"type": "t_string_storage"
							},
							{
								"astId": 106,
								"contract": "MyHomeToken.sol:MyHomesToken",
								"label": "physicalAddress",
								"offset": 0,
								"slot": "1",
								"type": "t_string_storage"
							},
							{
								"astId": 108,
								"contract": "MyHomeToken.sol:MyHomesToken",
								"label": "price",
								"offset": 0,
								"slot": "2",
								"type": "t_uint256"
							}
						],
						"numberOfBytes": "96"
					},
					"t_struct(HousingPackage)120_storage": {
						"encoding": "inplace",
						"label": "struct MyHomesToken.HousingPackage",
						"members": [
							{
								"astId": 111,
								"contract": "MyHomeToken.sol:MyHomesToken",
								"label": "name",
								"offset": 0,
								"slot": "0",
								"type": "t_string_storage"
							},
							{
								"astId": 113,
								"contract": "MyHomeToken.sol:MyHomesToken",
								"label": "description",
								"offset": 0,
								"slot": "1",
								"type": "t_string_storage"
							},
							{
								"astId": 117,
								"contract": "MyHomeToken.sol:MyHomesToken",
								"label": "residences",
								"offset": 0,
								"slot": "2",
								"type": "t_array(t_struct(House)109_storage)dyn_storage"
							},
							{
								"astId": 119,
								"contract": "MyHomeToken.sol:MyHomesToken",
								"label": "totalValue",
								"offset": 0,
								"slot": "3",
								"type": "t_uint256"
							}
						],
						"numberOfBytes": "128"
					},
					"t_struct(Vote)125_storage": {
						"encoding": "inplace",
						"label": "struct MyHomesToken.Vote",
						"members": [
							{
								"astId": 122,
								"contract": "MyHomeToken.sol:MyHomesToken",
								"label": "shareHolderAddress",
								"offset": 0,
								"slot": "0",
								"type": "t_address"
							},
							{
								"astId": 124,
								"contract": "MyHomeToken.sol:MyHomesToken",
								"label": "choice",
								"offset": 20,
								"slot": "0",
								"type": "t_bool"
							}
						],
						"numberOfBytes": "32"
					},
					"t_uint256": {
						"encoding": "inplace",
						"label": "uint256",
						"numberOfBytes": "32"
					}
				}
			},
			"userdoc": {
				"kind": "user",
				"methods": {},
				"version": 1
			}
		}
	}
}