{
	"MyHomeToken.sol": {
		"MyHomesToken": {
			"abi": [
				{
					"inputs": [
						{
							"internalType": "string",
							"name": "_name",
							"type": "string"
						},
						{
							"internalType": "string",
							"name": "_description",
							"type": "string"
						}
					],
					"stateMutability": "payable",
					"type": "constructor"
				},
				{
					"anonymous": false,
					"inputs": [
						{
							"indexed": false,
							"internalType": "string",
							"name": "id",
							"type": "string"
						}
					],
					"name": "NewHouseAdded",
					"type": "event"
				},
				{
					"anonymous": false,
					"inputs": [
						{
							"indexed": false,
							"internalType": "address",
							"name": "sh",
							"type": "address"
						}
					],
					"name": "ShareHolderAdded",
					"type": "event"
				},
				{
					"anonymous": false,
					"inputs": [
						{
							"indexed": false,
							"internalType": "address",
							"name": "shareHolder",
							"type": "address"
						}
					],
					"name": "voteDone",
					"type": "event"
				},
				{
					"anonymous": false,
					"inputs": [
						{
							"indexed": false,
							"internalType": "uint256",
							"name": "finalResult",
							"type": "uint256"
						}
					],
					"name": "voteEnded",
					"type": "event"
				},
				{
					"anonymous": false,
					"inputs": [],
					"name": "voteStarted",
					"type": "event"
				},
				{
					"inputs": [
						{
							"internalType": "string",
							"name": "_registrationId",
							"type": "string"
						},
						{
							"internalType": "string",
							"name": "location",
							"type": "string"
						},
						{
							"internalType": "uint256",
							"name": "price",
							"type": "uint256"
						}
					],
					"name": "addHouse",
					"outputs": [],
					"stateMutability": "nonpayable",
					"type": "function"
				},
				{
					"inputs": [
						{
							"internalType": "address",
							"name": "_shareHolderAddress",
							"type": "address"
						}
					],
					"name": "addShareHolder",
					"outputs": [],
					"stateMutability": "nonpayable",
					"type": "function"
				},
				{
					"inputs": [
						{
							"internalType": "address",
							"name": "",
							"type": "address"
						}
					],
					"name": "balances",
					"outputs": [
						{
							"internalType": "uint256",
							"name": "",
							"type": "uint256"
						}
					],
					"stateMutability": "view",
					"type": "function"
				},
				{
					"inputs": [
						{
							"internalType": "uint256",
							"name": "",
							"type": "uint256"
						}
					],
					"name": "ballotHistory",
					"outputs": [
						{
							"internalType": "string",
							"name": "ballotId",
							"type": "string"
						},
						{
							"internalType": "address",
							"name": "ballotOwner",
							"type": "address"
						},
						{
							"internalType": "string",
							"name": "proposal",
							"type": "string"
						},
						{
							"internalType": "uint256",
							"name": "finalResult",
							"type": "uint256"
						},
						{
							"internalType": "uint256",
							"name": "totalVotes",
							"type": "uint256"
						}
					],
					"stateMutability": "view",
					"type": "function"
				},
				{
					"inputs": [],
					"name": "buy",
					"outputs": [],
					"stateMutability": "payable",
					"type": "function"
				},
				{
					"inputs": [
						{
							"internalType": "string",
							"name": "_proposal",
							"type": "string"
						}
					],
					"name": "createBallot",
					"outputs": [],
					"stateMutability": "nonpayable",
					"type": "function"
				},
				{
					"inputs": [],
					"name": "currentBallot",
					"outputs": [
						{
							"internalType": "string",
							"name": "ballotId",
							"type": "string"
						},
						{
							"internalType": "address",
							"name": "ballotOwner",
							"type": "address"
						},
						{
							"internalType": "string",
							"name": "proposal",
							"type": "string"
						},
						{
							"internalType": "uint256",
							"name": "finalResult",
							"type": "uint256"
						},
						{
							"internalType": "uint256",
							"name": "totalVotes",
							"type": "uint256"
						}
					],
					"stateMutability": "view",
					"type": "function"
				},
				{
					"inputs": [
						{
							"internalType": "bool",
							"name": "_choice",
							"type": "bool"
						}
					],
					"name": "doVote",
					"outputs": [
						{
							"internalType": "bool",
							"name": "voted",
							"type": "bool"
						}
					],
					"stateMutability": "nonpayable",
					"type": "function"
				},
				{
					"inputs": [],
					"name": "endVote",
					"outputs": [],
					"stateMutability": "nonpayable",
					"type": "function"
				},
				{
					"inputs": [
						{
							"internalType": "address",
							"name": "_addr",
							"type": "address"
						}
					],
					"name": "etherBalance",
					"outputs": [
						{
							"internalType": "uint256",
							"name": "",
							"type": "uint256"
						}
					],
					"stateMutability": "view",
					"type": "function"
				},
				{
					"inputs": [
						{
							"internalType": "uint256",
							"name": "",
							"type": "uint256"
						}
					],
					"name": "houseRegister",
					"outputs": [
						{
							"internalType": "string",
							"name": "registrationId",
							"type": "string"
						},
						{
							"internalType": "string",
							"name": "physicalAddress",
							"type": "string"
						},
						{
							"internalType": "uint256",
							"name": "price",
							"type": "uint256"
						}
					],
					"stateMutability": "view",
					"type": "function"
				},
				{
					"inputs": [],
					"name": "hp",
					"outputs": [
						{
							"internalType": "string",
							"name": "name",
							"type": "string"
						},
						{
							"internalType": "string",
							"name": "description",
							"type": "string"
						},
						{
							"internalType": "uint256",
							"name": "totalValue",
							"type": "uint256"
						}
					],
					"stateMutability": "view",
					"type": "function"
				},
				{
					"inputs": [],
					"name": "owner",
					"outputs": [
						{
							"internalType": "address payable",
							"name": "",
							"type": "address"
						}
					],
					"stateMutability": "view",
					"type": "function"
				},
				{
					"inputs": [
						{
							"internalType": "address",
							"name": "",
							"type": "address"
						}
					],
					"name": "shareHolderRegistry",
					"outputs": [
						{
							"internalType": "bool",
							"name": "",
							"type": "bool"
						}
					],
					"stateMutability": "view",
					"type": "function"
				},
				{
					"inputs": [
						{
							"internalType": "uint256",
							"name": "",
							"type": "uint256"
						}
					],
					"name": "shareHolders",
					"outputs": [
						{
							"internalType": "address",
							"name": "",
							"type": "address"
						}
					],
					"stateMutability": "view",
					"type": "function"
				},
				{
					"inputs": [],
					"name": "shareLimit",
					"outputs": [
						{
							"internalType": "uint256",
							"name": "",
							"type": "uint256"
						}
					],
					"stateMutability": "view",
					"type": "function"
				},
				{
					"inputs": [],
					"name": "startTrading",
					"outputs": [],
					"stateMutability": "nonpayable",
					"type": "function"
				},
				{
					"inputs": [],
					"name": "startVote",
					"outputs": [],
					"stateMutability": "nonpayable",
					"type": "function"
				},
				{
					"inputs": [],
					"name": "tokenPrice",
					"outputs": [
						{
							"internalType": "uint256",
							"name": "",
							"type": "uint256"
						}
					],
					"stateMutability": "view",
					"type": "function"
				},
				{
					"inputs": [],
					"name": "totalBallots",
					"outputs": [
						{
							"internalType": "uint256",
							"name": "",
							"type": "uint256"
						}
					],
					"stateMutability": "view",
					"type": "function"
				},
				{
					"inputs": [],
					"name": "totalHouses",
					"outputs": [
						{
							"internalType": "uint256",
							"name": "",
							"type": "uint256"
						}
					],
					"stateMutability": "view",
					"type": "function"
				},
				{
					"inputs": [],
					"name": "totalShareHolders",
					"outputs": [
						{
							"internalType": "uint256",
							"name": "",
							"type": "uint256"
						}
					],
					"stateMutability": "view",
					"type": "function"
				},
				{
					"inputs": [],
					"name": "totalShares",
					"outputs": [
						{
							"internalType": "uint256",
							"name": "",
							"type": "uint256"
						}
					],
					"stateMutability": "view",
					"type": "function"
				},
				{
					"inputs": [
						{
							"internalType": "address",
							"name": "_to",
							"type": "address"
						},
						{
							"internalType": "uint256",
							"name": "_value",
							"type": "uint256"
						}
					],
					"name": "transfer",
					"outputs": [],
					"stateMutability": "nonpayable",
					"type": "function"
				}
			],
			"devdoc": {
				"kind": "dev",
				"methods": {},
				"version": 1
			},
			"evm": {
				"assembly": "    /* \"MyHomeToken.sol\":118:5620  contract MyHomesToken {... */\n  mstore(0x40, 0x80)\n    /* \"MyHomeToken.sol\":270:271  0 */\n  0x00\n    /* \"MyHomeToken.sol\":244:271  uint public totalHouses = 0 */\n  0x05\n  sstore\n    /* \"MyHomeToken.sol\":306:309  100 */\n  0x64\n    /* \"MyHomeToken.sol\":277:309  uint256 public totalShares = 100 */\n  0x06\n  sstore\n    /* \"MyHomeToken.sol\":343:344  1 */\n  0x01\n    /* \"MyHomeToken.sol\":315:344  uint256 public tokenPrice = 1 */\n  0x07\n  sstore\n    /* \"MyHomeToken.sol\":378:380  10 */\n  0x0a\n    /* \"MyHomeToken.sol\":350:380  uint256 public shareLimit = 10 */\n  0x08\n  sstore\n    /* \"MyHomeToken.sol\":418:419  0 */\n  0x00\n    /* \"MyHomeToken.sol\":386:419  uint public totalShareHolders = 0 */\n  0x09\n  sstore\n    /* \"MyHomeToken.sol\":685:686  0 */\n  0x00\n    /* \"MyHomeToken.sol\":658:686  uint public totalBallots = 0 */\n  0x0f\n  sstore\n    /* \"MyHomeToken.sol\":836:1115  constructor(string memory _name, string memory _description) payable {... */\n  mload(0x40)\n  sub(codesize, bytecodeSize)\n  dup1\n  bytecodeSize\n  dup4\n  codecopy\n  dup2\n  dup2\n  add\n  0x40\n  mstore\n  dup2\n  add\n  swap1\n  tag_1\n  swap2\n  swap1\n  tag_2\n  jump\t// in\ntag_1:\n    /* \"MyHomeToken.sol\":931:941  msg.sender */\n  caller\n    /* \"MyHomeToken.sol\":915:920  owner */\n  0x00\n  dup1\n    /* \"MyHomeToken.sol\":915:942  owner = payable(msg.sender) */\n  0x0100\n  exp\n  dup2\n  sload\n  dup2\n  0xffffffffffffffffffffffffffffffffffffffff\n  mul\n  not\n  and\n  swap1\n  dup4\n  0xffffffffffffffffffffffffffffffffffffffff\n  and\n  mul\n  or\n  swap1\n  sstore\n  pop\n    /* \"MyHomeToken.sol\":975:986  totalShares */\n  sload(0x06)\n    /* \"MyHomeToken.sol\":952:960  balances */\n  0x0d\n    /* \"MyHomeToken.sol\":952:972  balances[msg.sender] */\n  0x00\n    /* \"MyHomeToken.sol\":961:971  msg.sender */\n  caller\n    /* \"MyHomeToken.sol\":952:972  balances[msg.sender] */\n  0xffffffffffffffffffffffffffffffffffffffff\n  and\n  0xffffffffffffffffffffffffffffffffffffffff\n  and\n  dup2\n  mstore\n  0x20\n  add\n  swap1\n  dup2\n  mstore\n  0x20\n  add\n  0x00\n  keccak256\n    /* \"MyHomeToken.sol\":952:986  balances[msg.sender] = totalShares */\n  dup2\n  swap1\n  sstore\n  pop\n    /* \"MyHomeToken.sol\":1006:1011  _name */\n  dup2\n    /* \"MyHomeToken.sol\":996:998  hp */\n  0x01\n    /* \"MyHomeToken.sol\":996:1003  hp.name */\n  0x00\n  add\n    /* \"MyHomeToken.sol\":996:1011  hp.name = _name */\n  swap1\n  dup1\n  mload\n  swap1\n  0x20\n  add\n  swap1\n  tag_5\n  swap3\n  swap2\n  swap1\n  tag_6\n  jump\t// in\ntag_5:\n  pop\n    /* \"MyHomeToken.sol\":1038:1050  _description */\n  dup1\n    /* \"MyHomeToken.sol\":1021:1023  hp */\n  0x01\n    /* \"MyHomeToken.sol\":1021:1035  hp.description */\n  dup1\n  add\n    /* \"MyHomeToken.sol\":1021:1050  hp.description = _description */\n  swap1\n  dup1\n  mload\n  swap1\n  0x20\n  add\n  swap1\n  tag_7\n  swap3\n  swap2\n  swap1\n  tag_6\n  jump\t// in\ntag_7:\n  pop\n    /* \"MyHomeToken.sol\":1076:1077  0 */\n  0x00\n    /* \"MyHomeToken.sol\":1060:1062  hp */\n  0x01\n    /* \"MyHomeToken.sol\":1060:1073  hp.totalValue */\n  0x02\n  add\n    /* \"MyHomeToken.sol\":1060:1077  hp.totalValue = 0 */\n  dup2\n  swap1\n  sstore\n  pop\n    /* \"MyHomeToken.sol\":1095:1108  State.Created */\n  0x00\n    /* \"MyHomeToken.sol\":1087:1092  state */\n  0x0a\n  0x00\n    /* \"MyHomeToken.sol\":1087:1108  state = State.Created */\n  0x0100\n  exp\n  dup2\n  sload\n  dup2\n  0xff\n  mul\n  not\n  and\n  swap1\n  dup4\n  0x01\n  dup2\n  gt\n  iszero\n  tag_8\n  jumpi\n  tag_9\n  tag_10\n  jump\t// in\ntag_9:\ntag_8:\n  mul\n  or\n  swap1\n  sstore\n  pop\n    /* \"MyHomeToken.sol\":836:1115  constructor(string memory _name, string memory _description) payable {... */\n  pop\n  pop\n    /* \"MyHomeToken.sol\":118:5620  contract MyHomesToken {... */\n  jump(tag_11)\ntag_6:\n  dup3\n  dup1\n  sload\n  tag_12\n  swap1\n  tag_13\n  jump\t// in\ntag_12:\n  swap1\n  0x00\n  mstore\n  keccak256(0x00, 0x20)\n  swap1\n  0x1f\n  add\n  0x20\n  swap1\n  div\n  dup2\n  add\n  swap3\n  dup3\n  tag_15\n  jumpi\n  0x00\n  dup6\n  sstore\n  jump(tag_14)\ntag_15:\n  dup3\n  0x1f\n  lt\n  tag_16\n  jumpi\n  dup1\n  mload\n  not(0xff)\n  and\n  dup4\n  dup1\n  add\n  or\n  dup6\n  sstore\n  jump(tag_14)\ntag_16:\n  dup3\n  dup1\n  add\n  0x01\n  add\n  dup6\n  sstore\n  dup3\n  iszero\n  tag_14\n  jumpi\n  swap2\n  dup3\n  add\ntag_17:\n  dup3\n  dup2\n  gt\n  iszero\n  tag_18\n  jumpi\n  dup3\n  mload\n  dup3\n  sstore\n  swap2\n  0x20\n  add\n  swap2\n  swap1\n  0x01\n  add\n  swap1\n  jump(tag_17)\ntag_18:\ntag_14:\n  pop\n  swap1\n  pop\n  tag_19\n  swap2\n  swap1\n  tag_20\n  jump\t// in\ntag_19:\n  pop\n  swap1\n  jump\t// out\ntag_20:\ntag_21:\n  dup1\n  dup3\n  gt\n  iszero\n  tag_22\n  jumpi\n  0x00\n  dup2\n  0x00\n  swap1\n  sstore\n  pop\n  0x01\n  add\n  jump(tag_21)\ntag_22:\n  pop\n  swap1\n  jump\t// out\n    /* \"#utility.yul\":7:428   */\ntag_24:\n    /* \"#utility.yul\":96:101   */\n  0x00\n    /* \"#utility.yul\":121:187   */\n  tag_26\n    /* \"#utility.yul\":137:186   */\n  tag_27\n    /* \"#utility.yul\":179:185   */\n  dup5\n    /* \"#utility.yul\":137:186   */\n  tag_28\n  jump\t// in\ntag_27:\n    /* \"#utility.yul\":121:187   */\n  tag_29\n  jump\t// in\ntag_26:\n    /* \"#utility.yul\":112:187   */\n  swap1\n  pop\n    /* \"#utility.yul\":210:216   */\n  dup3\n    /* \"#utility.yul\":203:208   */\n  dup2\n    /* \"#utility.yul\":196:217   */\n  mstore\n    /* \"#utility.yul\":248:252   */\n  0x20\n    /* \"#utility.yul\":241:246   */\n  dup2\n    /* \"#utility.yul\":237:253   */\n  add\n    /* \"#utility.yul\":286:289   */\n  dup5\n    /* \"#utility.yul\":277:283   */\n  dup5\n    /* \"#utility.yul\":272:275   */\n  dup5\n    /* \"#utility.yul\":268:284   */\n  add\n    /* \"#utility.yul\":265:290   */\n  gt\n    /* \"#utility.yul\":262:374   */\n  iszero\n  tag_30\n  jumpi\n    /* \"#utility.yul\":293:372   */\n  tag_31\n  tag_32\n  jump\t// in\ntag_31:\n    /* \"#utility.yul\":262:374   */\ntag_30:\n    /* \"#utility.yul\":383:422   */\n  tag_33\n    /* \"#utility.yul\":415:421   */\n  dup5\n    /* \"#utility.yul\":410:413   */\n  dup3\n    /* \"#utility.yul\":405:408   */\n  dup6\n    /* \"#utility.yul\":383:422   */\n  tag_34\n  jump\t// in\ntag_33:\n    /* \"#utility.yul\":102:428   */\n  pop\n    /* \"#utility.yul\":7:428   */\n  swap4\n  swap3\n  pop\n  pop\n  pop\n  jump\t// out\n    /* \"#utility.yul\":448:803   */\ntag_35:\n    /* \"#utility.yul\":515:520   */\n  0x00\n    /* \"#utility.yul\":564:567   */\n  dup3\n    /* \"#utility.yul\":557:561   */\n  0x1f\n    /* \"#utility.yul\":549:555   */\n  dup4\n    /* \"#utility.yul\":545:562   */\n  add\n    /* \"#utility.yul\":541:568   */\n  slt\n    /* \"#utility.yul\":531:653   */\n  tag_37\n  jumpi\n    /* \"#utility.yul\":572:651   */\n  tag_38\n  tag_39\n  jump\t// in\ntag_38:\n    /* \"#utility.yul\":531:653   */\ntag_37:\n    /* \"#utility.yul\":682:688   */\n  dup2\n    /* \"#utility.yul\":676:689   */\n  mload\n    /* \"#utility.yul\":707:797   */\n  tag_40\n    /* \"#utility.yul\":793:796   */\n  dup5\n    /* \"#utility.yul\":785:791   */\n  dup3\n    /* \"#utility.yul\":778:782   */\n  0x20\n    /* \"#utility.yul\":770:776   */\n  dup7\n    /* \"#utility.yul\":766:783   */\n  add\n    /* \"#utility.yul\":707:797   */\n  tag_24\n  jump\t// in\ntag_40:\n    /* \"#utility.yul\":698:797   */\n  swap2\n  pop\n    /* \"#utility.yul\":521:803   */\n  pop\n    /* \"#utility.yul\":448:803   */\n  swap3\n  swap2\n  pop\n  pop\n  jump\t// out\n    /* \"#utility.yul\":809:1662   */\ntag_2:\n    /* \"#utility.yul\":908:914   */\n  0x00\n    /* \"#utility.yul\":916:922   */\n  dup1\n    /* \"#utility.yul\":965:967   */\n  0x40\n    /* \"#utility.yul\":953:962   */\n  dup4\n    /* \"#utility.yul\":944:951   */\n  dup6\n    /* \"#utility.yul\":940:963   */\n  sub\n    /* \"#utility.yul\":936:968   */\n  slt\n    /* \"#utility.yul\":933:1052   */\n  iszero\n  tag_42\n  jumpi\n    /* \"#utility.yul\":971:1050   */\n  tag_43\n  tag_44\n  jump\t// in\ntag_43:\n    /* \"#utility.yul\":933:1052   */\ntag_42:\n    /* \"#utility.yul\":1112:1113   */\n  0x00\n    /* \"#utility.yul\":1101:1110   */\n  dup4\n    /* \"#utility.yul\":1097:1114   */\n  add\n    /* \"#utility.yul\":1091:1115   */\n  mload\n    /* \"#utility.yul\":1142:1160   */\n  0xffffffffffffffff\n    /* \"#utility.yul\":1134:1140   */\n  dup2\n    /* \"#utility.yul\":1131:1161   */\n  gt\n    /* \"#utility.yul\":1128:1245   */\n  iszero\n  tag_45\n  jumpi\n    /* \"#utility.yul\":1164:1243   */\n  tag_46\n  tag_47\n  jump\t// in\ntag_46:\n    /* \"#utility.yul\":1128:1245   */\ntag_45:\n    /* \"#utility.yul\":1269:1343   */\n  tag_48\n    /* \"#utility.yul\":1335:1342   */\n  dup6\n    /* \"#utility.yul\":1326:1332   */\n  dup3\n    /* \"#utility.yul\":1315:1324   */\n  dup7\n    /* \"#utility.yul\":1311:1333   */\n  add\n    /* \"#utility.yul\":1269:1343   */\n  tag_35\n  jump\t// in\ntag_48:\n    /* \"#utility.yul\":1259:1343   */\n  swap3\n  pop\n    /* \"#utility.yul\":1062:1353   */\n  pop\n    /* \"#utility.yul\":1413:1415   */\n  0x20\n    /* \"#utility.yul\":1402:1411   */\n  dup4\n    /* \"#utility.yul\":1398:1416   */\n  add\n    /* \"#utility.yul\":1392:1417   */\n  mload\n    /* \"#utility.yul\":1444:1462   */\n  0xffffffffffffffff\n    /* \"#utility.yul\":1436:1442   */\n  dup2\n    /* \"#utility.yul\":1433:1463   */\n  gt\n    /* \"#utility.yul\":1430:1547   */\n  iszero\n  tag_49\n  jumpi\n    /* \"#utility.yul\":1466:1545   */\n  tag_50\n  tag_47\n  jump\t// in\ntag_50:\n    /* \"#utility.yul\":1430:1547   */\ntag_49:\n    /* \"#utility.yul\":1571:1645   */\n  tag_51\n    /* \"#utility.yul\":1637:1644   */\n  dup6\n    /* \"#utility.yul\":1628:1634   */\n  dup3\n    /* \"#utility.yul\":1617:1626   */\n  dup7\n    /* \"#utility.yul\":1613:1635   */\n  add\n    /* \"#utility.yul\":1571:1645   */\n  tag_35\n  jump\t// in\ntag_51:\n    /* \"#utility.yul\":1561:1645   */\n  swap2\n  pop\n    /* \"#utility.yul\":1363:1655   */\n  pop\n    /* \"#utility.yul\":809:1662   */\n  swap3\n  pop\n  swap3\n  swap1\n  pop\n  jump\t// out\n    /* \"#utility.yul\":1668:1797   */\ntag_29:\n    /* \"#utility.yul\":1702:1708   */\n  0x00\n    /* \"#utility.yul\":1729:1749   */\n  tag_53\n  tag_54\n  jump\t// in\ntag_53:\n    /* \"#utility.yul\":1719:1749   */\n  swap1\n  pop\n    /* \"#utility.yul\":1758:1791   */\n  tag_55\n    /* \"#utility.yul\":1786:1790   */\n  dup3\n    /* \"#utility.yul\":1778:1784   */\n  dup3\n    /* \"#utility.yul\":1758:1791   */\n  tag_56\n  jump\t// in\ntag_55:\n    /* \"#utility.yul\":1668:1797   */\n  swap2\n  swap1\n  pop\n  jump\t// out\n    /* \"#utility.yul\":1803:1878   */\ntag_54:\n    /* \"#utility.yul\":1836:1842   */\n  0x00\n    /* \"#utility.yul\":1869:1871   */\n  0x40\n    /* \"#utility.yul\":1863:1872   */\n  mload\n    /* \"#utility.yul\":1853:1872   */\n  swap1\n  pop\n    /* \"#utility.yul\":1803:1878   */\n  swap1\n  jump\t// out\n    /* \"#utility.yul\":1884:2192   */\ntag_28:\n    /* \"#utility.yul\":1946:1950   */\n  0x00\n    /* \"#utility.yul\":2036:2054   */\n  0xffffffffffffffff\n    /* \"#utility.yul\":2028:2034   */\n  dup3\n    /* \"#utility.yul\":2025:2055   */\n  gt\n    /* \"#utility.yul\":2022:2078   */\n  iszero\n  tag_59\n  jumpi\n    /* \"#utility.yul\":2058:2076   */\n  tag_60\n  tag_61\n  jump\t// in\ntag_60:\n    /* \"#utility.yul\":2022:2078   */\ntag_59:\n    /* \"#utility.yul\":2096:2125   */\n  tag_62\n    /* \"#utility.yul\":2118:2124   */\n  dup3\n    /* \"#utility.yul\":2096:2125   */\n  tag_63\n  jump\t// in\ntag_62:\n    /* \"#utility.yul\":2088:2125   */\n  swap1\n  pop\n    /* \"#utility.yul\":2180:2184   */\n  0x20\n    /* \"#utility.yul\":2174:2178   */\n  dup2\n    /* \"#utility.yul\":2170:2185   */\n  add\n    /* \"#utility.yul\":2162:2185   */\n  swap1\n  pop\n    /* \"#utility.yul\":1884:2192   */\n  swap2\n  swap1\n  pop\n  jump\t// out\n    /* \"#utility.yul\":2198:2505   */\ntag_34:\n    /* \"#utility.yul\":2266:2267   */\n  0x00\n    /* \"#utility.yul\":2276:2389   */\ntag_65:\n    /* \"#utility.yul\":2290:2296   */\n  dup4\n    /* \"#utility.yul\":2287:2288   */\n  dup2\n    /* \"#utility.yul\":2284:2297   */\n  lt\n    /* \"#utility.yul\":2276:2389   */\n  iszero\n  tag_67\n  jumpi\n    /* \"#utility.yul\":2375:2376   */\n  dup1\n    /* \"#utility.yul\":2370:2373   */\n  dup3\n    /* \"#utility.yul\":2366:2377   */\n  add\n    /* \"#utility.yul\":2360:2378   */\n  mload\n    /* \"#utility.yul\":2356:2357   */\n  dup2\n    /* \"#utility.yul\":2351:2354   */\n  dup5\n    /* \"#utility.yul\":2347:2358   */\n  add\n    /* \"#utility.yul\":2340:2379   */\n  mstore\n    /* \"#utility.yul\":2312:2314   */\n  0x20\n    /* \"#utility.yul\":2309:2310   */\n  dup2\n    /* \"#utility.yul\":2305:2315   */\n  add\n    /* \"#utility.yul\":2300:2315   */\n  swap1\n  pop\n    /* \"#utility.yul\":2276:2389   */\n  jump(tag_65)\ntag_67:\n    /* \"#utility.yul\":2407:2413   */\n  dup4\n    /* \"#utility.yul\":2404:2405   */\n  dup2\n    /* \"#utility.yul\":2401:2414   */\n  gt\n    /* \"#utility.yul\":2398:2499   */\n  iszero\n  tag_68\n  jumpi\n    /* \"#utility.yul\":2487:2488   */\n  0x00\n    /* \"#utility.yul\":2478:2484   */\n  dup5\n    /* \"#utility.yul\":2473:2476   */\n  dup5\n    /* \"#utility.yul\":2469:2485   */\n  add\n    /* \"#utility.yul\":2462:2489   */\n  mstore\n    /* \"#utility.yul\":2398:2499   */\ntag_68:\n    /* \"#utility.yul\":2247:2505   */\n  pop\n    /* \"#utility.yul\":2198:2505   */\n  pop\n  pop\n  pop\n  jump\t// out\n    /* \"#utility.yul\":2511:2831   */\ntag_13:\n    /* \"#utility.yul\":2555:2561   */\n  0x00\n    /* \"#utility.yul\":2592:2593   */\n  0x02\n    /* \"#utility.yul\":2586:2590   */\n  dup3\n    /* \"#utility.yul\":2582:2594   */\n  div\n    /* \"#utility.yul\":2572:2594   */\n  swap1\n  pop\n    /* \"#utility.yul\":2639:2640   */\n  0x01\n    /* \"#utility.yul\":2633:2637   */\n  dup3\n    /* \"#utility.yul\":2629:2641   */\n  and\n    /* \"#utility.yul\":2660:2678   */\n  dup1\n    /* \"#utility.yul\":2650:2731   */\n  tag_70\n  jumpi\n    /* \"#utility.yul\":2716:2720   */\n  0x7f\n    /* \"#utility.yul\":2708:2714   */\n  dup3\n    /* \"#utility.yul\":2704:2721   */\n  and\n    /* \"#utility.yul\":2694:2721   */\n  swap2\n  pop\n    /* \"#utility.yul\":2650:2731   */\ntag_70:\n    /* \"#utility.yul\":2778:2780   */\n  0x20\n    /* \"#utility.yul\":2770:2776   */\n  dup3\n    /* \"#utility.yul\":2767:2781   */\n  lt\n    /* \"#utility.yul\":2747:2765   */\n  dup2\n    /* \"#utility.yul\":2744:2782   */\n  eq\n    /* \"#utility.yul\":2741:2825   */\n  iszero\n  tag_71\n  jumpi\n    /* \"#utility.yul\":2797:2815   */\n  tag_72\n  tag_73\n  jump\t// in\ntag_72:\n    /* \"#utility.yul\":2741:2825   */\ntag_71:\n    /* \"#utility.yul\":2562:2831   */\n  pop\n    /* \"#utility.yul\":2511:2831   */\n  swap2\n  swap1\n  pop\n  jump\t// out\n    /* \"#utility.yul\":2837:3118   */\ntag_56:\n    /* \"#utility.yul\":2920:2947   */\n  tag_75\n    /* \"#utility.yul\":2942:2946   */\n  dup3\n    /* \"#utility.yul\":2920:2947   */\n  tag_63\n  jump\t// in\ntag_75:\n    /* \"#utility.yul\":2912:2918   */\n  dup2\n    /* \"#utility.yul\":2908:2948   */\n  add\n    /* \"#utility.yul\":3050:3056   */\n  dup2\n    /* \"#utility.yul\":3038:3048   */\n  dup2\n    /* \"#utility.yul\":3035:3057   */\n  lt\n    /* \"#utility.yul\":3014:3032   */\n  0xffffffffffffffff\n    /* \"#utility.yul\":3002:3012   */\n  dup3\n    /* \"#utility.yul\":2999:3033   */\n  gt\n    /* \"#utility.yul\":2996:3058   */\n  or\n    /* \"#utility.yul\":2993:3081   */\n  iszero\n  tag_76\n  jumpi\n    /* \"#utility.yul\":3061:3079   */\n  tag_77\n  tag_61\n  jump\t// in\ntag_77:\n    /* \"#utility.yul\":2993:3081   */\ntag_76:\n    /* \"#utility.yul\":3101:3111   */\n  dup1\n    /* \"#utility.yul\":3097:3099   */\n  0x40\n    /* \"#utility.yul\":3090:3112   */\n  mstore\n    /* \"#utility.yul\":2880:3118   */\n  pop\n    /* \"#utility.yul\":2837:3118   */\n  pop\n  pop\n  jump\t// out\n    /* \"#utility.yul\":3124:3304   */\ntag_10:\n    /* \"#utility.yul\":3172:3249   */\n  0x4e487b7100000000000000000000000000000000000000000000000000000000\n    /* \"#utility.yul\":3169:3170   */\n  0x00\n    /* \"#utility.yul\":3162:3250   */\n  mstore\n    /* \"#utility.yul\":3269:3273   */\n  0x21\n    /* \"#utility.yul\":3266:3267   */\n  0x04\n    /* \"#utility.yul\":3259:3274   */\n  mstore\n    /* \"#utility.yul\":3293:3297   */\n  0x24\n    /* \"#utility.yul\":3290:3291   */\n  0x00\n    /* \"#utility.yul\":3283:3298   */\n  revert\n    /* \"#utility.yul\":3310:3490   */\ntag_73:\n    /* \"#utility.yul\":3358:3435   */\n  0x4e487b7100000000000000000000000000000000000000000000000000000000\n    /* \"#utility.yul\":3355:3356   */\n  0x00\n    /* \"#utility.yul\":3348:3436   */\n  mstore\n    /* \"#utility.yul\":3455:3459   */\n  0x22\n    /* \"#utility.yul\":3452:3453   */\n  0x04\n    /* \"#utility.yul\":3445:3460   */\n  mstore\n    /* \"#utility.yul\":3479:3483   */\n  0x24\n    /* \"#utility.yul\":3476:3477   */\n  0x00\n    /* \"#utility.yul\":3469:3484   */\n  revert\n    /* \"#utility.yul\":3496:3676   */\ntag_61:\n    /* \"#utility.yul\":3544:3621   */\n  0x4e487b7100000000000000000000000000000000000000000000000000000000\n    /* \"#utility.yul\":3541:3542   */\n  0x00\n    /* \"#utility.yul\":3534:3622   */\n  mstore\n    /* \"#utility.yul\":3641:3645   */\n  0x41\n    /* \"#utility.yul\":3638:3639   */\n  0x04\n    /* \"#utility.yul\":3631:3646   */\n  mstore\n    /* \"#utility.yul\":3665:3669   */\n  0x24\n    /* \"#utility.yul\":3662:3663   */\n  0x00\n    /* \"#utility.yul\":3655:3670   */\n  revert\n    /* \"#utility.yul\":3682:3799   */\ntag_39:\n    /* \"#utility.yul\":3791:3792   */\n  0x00\n    /* \"#utility.yul\":3788:3789   */\n  dup1\n    /* \"#utility.yul\":3781:3793   */\n  revert\n    /* \"#utility.yul\":3805:3922   */\ntag_32:\n    /* \"#utility.yul\":3914:3915   */\n  0x00\n    /* \"#utility.yul\":3911:3912   */\n  dup1\n    /* \"#utility.yul\":3904:3916   */\n  revert\n    /* \"#utility.yul\":3928:4045   */\ntag_47:\n    /* \"#utility.yul\":4037:4038   */\n  0x00\n    /* \"#utility.yul\":4034:4035   */\n  dup1\n    /* \"#utility.yul\":4027:4039   */\n  revert\n    /* \"#utility.yul\":4051:4168   */\ntag_44:\n    /* \"#utility.yul\":4160:4161   */\n  0x00\n    /* \"#utility.yul\":4157:4158   */\n  dup1\n    /* \"#utility.yul\":4150:4162   */\n  revert\n    /* \"#utility.yul\":4174:4276   */\ntag_63:\n    /* \"#utility.yul\":4215:4221   */\n  0x00\n    /* \"#utility.yul\":4266:4268   */\n  0x1f\n    /* \"#utility.yul\":4262:4269   */\n  not\n    /* \"#utility.yul\":4257:4259   */\n  0x1f\n    /* \"#utility.yul\":4250:4255   */\n  dup4\n    /* \"#utility.yul\":4246:4260   */\n  add\n    /* \"#utility.yul\":4242:4270   */\n  and\n    /* \"#utility.yul\":4232:4270   */\n  swap1\n  pop\n    /* \"#utility.yul\":4174:4276   */\n  swap2\n  swap1\n  pop\n  jump\t// out\n    /* \"MyHomeToken.sol\":118:5620  contract MyHomesToken {... */\ntag_11:\n  dataSize(sub_0)\n  dup1\n  dataOffset(sub_0)\n  0x00\n  codecopy\n  0x00\n  return\nstop\n\nsub_0: assembly {\n        /* \"MyHomeToken.sol\":118:5620  contract MyHomesToken {... */\n      mstore(0x40, 0x80)\n      jumpi(tag_1, lt(calldatasize, 0x04))\n      shr(0xe0, calldataload(0x00))\n      dup1\n      0x87caea78\n      gt\n      tag_26\n      jumpi\n      dup1\n      0xaf769c64\n      gt\n      tag_27\n      jumpi\n      dup1\n      0xaf769c64\n      eq\n      tag_20\n      jumpi\n      dup1\n      0xb9223946\n      eq\n      tag_21\n      jumpi\n      dup1\n      0xcd0c5896\n      eq\n      tag_22\n      jumpi\n      dup1\n      0xd8124c5f\n      eq\n      tag_23\n      jumpi\n      dup1\n      0xdf094409\n      eq\n      tag_24\n      jumpi\n      dup1\n      0xf80723a8\n      eq\n      tag_25\n      jumpi\n      jump(tag_1)\n    tag_27:\n      dup1\n      0x87caea78\n      eq\n      tag_14\n      jumpi\n      dup1\n      0x8da5cb5b\n      eq\n      tag_15\n      jumpi\n      dup1\n      0x9a982416\n      eq\n      tag_16\n      jumpi\n      dup1\n      0xa14ba987\n      eq\n      tag_17\n      jumpi\n      dup1\n      0xa6f2ae3a\n      eq\n      tag_18\n      jumpi\n      dup1\n      0xa9059cbb\n      eq\n      tag_19\n      jumpi\n      jump(tag_1)\n    tag_26:\n      dup1\n      0x46a86576\n      gt\n      tag_28\n      jumpi\n      dup1\n      0x46a86576\n      eq\n      tag_8\n      jumpi\n      dup1\n      0x4c0a6af0\n      eq\n      tag_9\n      jumpi\n      dup1\n      0x59ea0173\n      eq\n      tag_10\n      jumpi\n      dup1\n      0x612fb2ec\n      eq\n      tag_11\n      jumpi\n      dup1\n      0x7427a40c\n      eq\n      tag_12\n      jumpi\n      dup1\n      0x7ff9b596\n      eq\n      tag_13\n      jumpi\n      jump(tag_1)\n    tag_28:\n      dup1\n      0x162d8afb\n      eq\n      tag_2\n      jumpi\n      dup1\n      0x27e235e3\n      eq\n      tag_3\n      jumpi\n      dup1\n      0x293230b8\n      eq\n      tag_4\n      jumpi\n      dup1\n      0x2cd39acc\n      eq\n      tag_5\n      jumpi\n      dup1\n      0x3a98ef39\n      eq\n      tag_6\n      jumpi\n      dup1\n      0x3be75aa3\n      eq\n      tag_7\n      jumpi\n    tag_1:\n      0x00\n      dup1\n      revert\n        /* \"MyHomeToken.sol\":244:271  uint public totalHouses = 0 */\n    tag_2:\n      callvalue\n      dup1\n      iszero\n      tag_29\n      jumpi\n      0x00\n      dup1\n      revert\n    tag_29:\n      pop\n      tag_30\n      tag_31\n      jump\t// in\n    tag_30:\n      mload(0x40)\n      tag_32\n      swap2\n      swap1\n      tag_33\n      jump\t// in\n    tag_32:\n      mload(0x40)\n      dup1\n      swap2\n      sub\n      swap1\n      return\n        /* \"MyHomeToken.sol\":542:586  mapping (address => uint256) public balances */\n    tag_3:\n      callvalue\n      dup1\n      iszero\n      tag_34\n      jumpi\n      0x00\n      dup1\n      revert\n    tag_34:\n      pop\n      tag_35\n      0x04\n      dup1\n      calldatasize\n      sub\n      dup2\n      add\n      swap1\n      tag_36\n      swap2\n      swap1\n      tag_37\n      jump\t// in\n    tag_36:\n      tag_38\n      jump\t// in\n    tag_35:\n      mload(0x40)\n      tag_39\n      swap2\n      swap1\n      tag_33\n      jump\t// in\n    tag_39:\n      mload(0x40)\n      dup1\n      swap2\n      sub\n      swap1\n      return\n        /* \"MyHomeToken.sol\":2299:2382  function startTrading() public onlyRegulator {... */\n    tag_4:\n      callvalue\n      dup1\n      iszero\n      tag_40\n      jumpi\n      0x00\n      dup1\n      revert\n    tag_40:\n      pop\n      tag_41\n      tag_42\n      jump\t// in\n    tag_41:\n      stop\n        /* \"MyHomeToken.sol\":608:652  mapping(uint => Ballot) public ballotHistory */\n    tag_5:\n      callvalue\n      dup1\n      iszero\n      tag_43\n      jumpi\n      0x00\n      dup1\n      revert\n    tag_43:\n      pop\n      tag_44\n      0x04\n      dup1\n      calldatasize\n      sub\n      dup2\n      add\n      swap1\n      tag_45\n      swap2\n      swap1\n      tag_46\n      jump\t// in\n    tag_45:\n      tag_47\n      jump\t// in\n    tag_44:\n      mload(0x40)\n      tag_48\n      swap6\n      swap5\n      swap4\n      swap3\n      swap2\n      swap1\n      tag_49\n      jump\t// in\n    tag_48:\n      mload(0x40)\n      dup1\n      swap2\n      sub\n      swap1\n      return\n        /* \"MyHomeToken.sol\":277:309  uint256 public totalShares = 100 */\n    tag_6:\n      callvalue\n      dup1\n      iszero\n      tag_50\n      jumpi\n      0x00\n      dup1\n      revert\n    tag_50:\n      pop\n      tag_51\n      tag_52\n      jump\t// in\n    tag_51:\n      mload(0x40)\n      tag_53\n      swap2\n      swap1\n      tag_33\n      jump\t// in\n    tag_53:\n      mload(0x40)\n      dup1\n      swap2\n      sub\n      swap1\n      return\n        /* \"MyHomeToken.sol\":350:380  uint256 public shareLimit = 10 */\n    tag_7:\n      callvalue\n      dup1\n      iszero\n      tag_54\n      jumpi\n      0x00\n      dup1\n      revert\n    tag_54:\n      pop\n      tag_55\n      tag_56\n      jump\t// in\n    tag_55:\n      mload(0x40)\n      tag_57\n      swap2\n      swap1\n      tag_33\n      jump\t// in\n    tag_57:\n      mload(0x40)\n      dup1\n      swap2\n      sub\n      swap1\n      return\n        /* \"MyHomeToken.sol\":4265:4515  function createBallot(string memory _proposal) public {... */\n    tag_8:\n      callvalue\n      dup1\n      iszero\n      tag_58\n      jumpi\n      0x00\n      dup1\n      revert\n    tag_58:\n      pop\n      tag_59\n      0x04\n      dup1\n      calldatasize\n      sub\n      dup2\n      add\n      swap1\n      tag_60\n      swap2\n      swap1\n      tag_61\n      jump\t// in\n    tag_60:\n      tag_62\n      jump\t// in\n    tag_59:\n      stop\n        /* \"MyHomeToken.sol\":4521:4712  function startVote()... */\n    tag_9:\n      callvalue\n      dup1\n      iszero\n      tag_63\n      jumpi\n      0x00\n      dup1\n      revert\n    tag_63:\n      pop\n      tag_64\n      tag_65\n      jump\t// in\n    tag_64:\n      stop\n        /* \"MyHomeToken.sol\":485:536  mapping(address => bool) public shareHolderRegistry */\n    tag_10:\n      callvalue\n      dup1\n      iszero\n      tag_66\n      jumpi\n      0x00\n      dup1\n      revert\n    tag_66:\n      pop\n      tag_67\n      0x04\n      dup1\n      calldatasize\n      sub\n      dup2\n      add\n      swap1\n      tag_68\n      swap2\n      swap1\n      tag_37\n      jump\t// in\n    tag_68:\n      tag_69\n      jump\t// in\n    tag_67:\n      mload(0x40)\n      tag_70\n      swap2\n      swap1\n      tag_71\n      jump\t// in\n    tag_70:\n      mload(0x40)\n      dup1\n      swap2\n      sub\n      swap1\n      return\n        /* \"MyHomeToken.sol\":658:686  uint public totalBallots = 0 */\n    tag_11:\n      callvalue\n      dup1\n      iszero\n      tag_72\n      jumpi\n      0x00\n      dup1\n      revert\n    tag_72:\n      pop\n      tag_73\n      tag_74\n      jump\t// in\n    tag_73:\n      mload(0x40)\n      tag_75\n      swap2\n      swap1\n      tag_33\n      jump\t// in\n    tag_75:\n      mload(0x40)\n      dup1\n      swap2\n      sub\n      swap1\n      return\n        /* \"MyHomeToken.sol\":450:479  address[] public shareHolders */\n    tag_12:\n      callvalue\n      dup1\n      iszero\n      tag_76\n      jumpi\n      0x00\n      dup1\n      revert\n    tag_76:\n      pop\n      tag_77\n      0x04\n      dup1\n      calldatasize\n      sub\n      dup2\n      add\n      swap1\n      tag_78\n      swap2\n      swap1\n      tag_46\n      jump\t// in\n    tag_78:\n      tag_79\n      jump\t// in\n    tag_77:\n      mload(0x40)\n      tag_80\n      swap2\n      swap1\n      tag_81\n      jump\t// in\n    tag_80:\n      mload(0x40)\n      dup1\n      swap2\n      sub\n      swap1\n      return\n        /* \"MyHomeToken.sol\":315:344  uint256 public tokenPrice = 1 */\n    tag_13:\n      callvalue\n      dup1\n      iszero\n      tag_82\n      jumpi\n      0x00\n      dup1\n      revert\n    tag_82:\n      pop\n      tag_83\n      tag_84\n      jump\t// in\n    tag_83:\n      mload(0x40)\n      tag_85\n      swap2\n      swap1\n      tag_33\n      jump\t// in\n    tag_85:\n      mload(0x40)\n      dup1\n      swap2\n      sub\n      swap1\n      return\n        /* \"MyHomeToken.sol\":4718:5352  function doVote(bool _choice)... */\n    tag_14:\n      callvalue\n      dup1\n      iszero\n      tag_86\n      jumpi\n      0x00\n      dup1\n      revert\n    tag_86:\n      pop\n      tag_87\n      0x04\n      dup1\n      calldatasize\n      sub\n      dup2\n      add\n      swap1\n      tag_88\n      swap2\n      swap1\n      tag_89\n      jump\t// in\n    tag_88:\n      tag_90\n      jump\t// in\n    tag_87:\n      mload(0x40)\n      tag_91\n      swap2\n      swap1\n      tag_71\n      jump\t// in\n    tag_91:\n      mload(0x40)\n      dup1\n      swap2\n      sub\n      swap1\n      return\n        /* \"MyHomeToken.sol\":146:174  address payable public owner */\n    tag_15:\n      callvalue\n      dup1\n      iszero\n      tag_92\n      jumpi\n      0x00\n      dup1\n      revert\n    tag_92:\n      pop\n      tag_93\n      tag_94\n      jump\t// in\n    tag_93:\n      mload(0x40)\n      tag_95\n      swap2\n      swap1\n      tag_96\n      jump\t// in\n    tag_95:\n      mload(0x40)\n      dup1\n      swap2\n      sub\n      swap1\n      return\n        /* \"MyHomeToken.sol\":386:419  uint public totalShareHolders = 0 */\n    tag_16:\n      callvalue\n      dup1\n      iszero\n      tag_97\n      jumpi\n      0x00\n      dup1\n      revert\n    tag_97:\n      pop\n      tag_98\n      tag_99\n      jump\t// in\n    tag_98:\n      mload(0x40)\n      tag_100\n      swap2\n      swap1\n      tag_33\n      jump\t// in\n    tag_100:\n      mload(0x40)\n      dup1\n      swap2\n      sub\n      swap1\n      return\n        /* \"MyHomeToken.sol\":210:238  House[] public houseRegister */\n    tag_17:\n      callvalue\n      dup1\n      iszero\n      tag_101\n      jumpi\n      0x00\n      dup1\n      revert\n    tag_101:\n      pop\n      tag_102\n      0x04\n      dup1\n      calldatasize\n      sub\n      dup2\n      add\n      swap1\n      tag_103\n      swap2\n      swap1\n      tag_46\n      jump\t// in\n    tag_103:\n      tag_104\n      jump\t// in\n    tag_102:\n      mload(0x40)\n      tag_105\n      swap4\n      swap3\n      swap2\n      swap1\n      tag_106\n      jump\t// in\n    tag_105:\n      mload(0x40)\n      dup1\n      swap2\n      sub\n      swap1\n      return\n        /* \"MyHomeToken.sol\":3624:4259  function buy() public payable {... */\n    tag_18:\n      tag_107\n      tag_108\n      jump\t// in\n    tag_107:\n      stop\n        /* \"MyHomeToken.sol\":3398:3618  function transfer(address _to, uint256 _value) public {... */\n    tag_19:\n      callvalue\n      dup1\n      iszero\n      tag_109\n      jumpi\n      0x00\n      dup1\n      revert\n    tag_109:\n      pop\n      tag_110\n      0x04\n      dup1\n      calldatasize\n      sub\n      dup2\n      add\n      swap1\n      tag_111\n      swap2\n      swap1\n      tag_112\n      jump\t// in\n    tag_111:\n      tag_113\n      jump\t// in\n    tag_110:\n      stop\n        /* \"MyHomeToken.sol\":3042:3392  function addShareHolder(address _shareHolderAddress)... */\n    tag_20:\n      callvalue\n      dup1\n      iszero\n      tag_114\n      jumpi\n      0x00\n      dup1\n      revert\n    tag_114:\n      pop\n      tag_115\n      0x04\n      dup1\n      calldatasize\n      sub\n      dup2\n      add\n      swap1\n      tag_116\n      swap2\n      swap1\n      tag_37\n      jump\t// in\n    tag_116:\n      tag_117\n      jump\t// in\n    tag_115:\n      stop\n        /* \"MyHomeToken.sol\":5362:5618  function endVote()... */\n    tag_21:\n      callvalue\n      dup1\n      iszero\n      tag_118\n      jumpi\n      0x00\n      dup1\n      revert\n    tag_118:\n      pop\n      tag_119\n      tag_120\n      jump\t// in\n    tag_119:\n      stop\n        /* \"MyHomeToken.sol\":2184:2288  function etherBalance(address _addr) public view returns (uint256) {... */\n    tag_22:\n      callvalue\n      dup1\n      iszero\n      tag_121\n      jumpi\n      0x00\n      dup1\n      revert\n    tag_121:\n      pop\n      tag_122\n      0x04\n      dup1\n      calldatasize\n      sub\n      dup2\n      add\n      swap1\n      tag_123\n      swap2\n      swap1\n      tag_37\n      jump\t// in\n    tag_123:\n      tag_124\n      jump\t// in\n    tag_122:\n      mload(0x40)\n      tag_125\n      swap2\n      swap1\n      tag_33\n      jump\t// in\n    tag_125:\n      mload(0x40)\n      dup1\n      swap2\n      sub\n      swap1\n      return\n        /* \"MyHomeToken.sol\":180:204  HousingPackage public hp */\n    tag_23:\n      callvalue\n      dup1\n      iszero\n      tag_126\n      jumpi\n      0x00\n      dup1\n      revert\n    tag_126:\n      pop\n      tag_127\n      tag_128\n      jump\t// in\n    tag_127:\n      mload(0x40)\n      tag_129\n      swap4\n      swap3\n      swap2\n      swap1\n      tag_106\n      jump\t// in\n    tag_129:\n      mload(0x40)\n      dup1\n      swap2\n      sub\n      swap1\n      return\n        /* \"MyHomeToken.sol\":2388:2758  function addHouse(string memory _registrationId, string memory location, uint256 price) ... */\n    tag_24:\n      callvalue\n      dup1\n      iszero\n      tag_130\n      jumpi\n      0x00\n      dup1\n      revert\n    tag_130:\n      pop\n      tag_131\n      0x04\n      dup1\n      calldatasize\n      sub\n      dup2\n      add\n      swap1\n      tag_132\n      swap2\n      swap1\n      tag_133\n      jump\t// in\n    tag_132:\n      tag_134\n      jump\t// in\n    tag_131:\n      stop\n        /* \"MyHomeToken.sol\":692:719  Ballot public currentBallot */\n    tag_25:\n      callvalue\n      dup1\n      iszero\n      tag_135\n      jumpi\n      0x00\n      dup1\n      revert\n    tag_135:\n      pop\n      tag_136\n      tag_137\n      jump\t// in\n    tag_136:\n      mload(0x40)\n      tag_138\n      swap6\n      swap5\n      swap4\n      swap3\n      swap2\n      swap1\n      tag_49\n      jump\t// in\n    tag_138:\n      mload(0x40)\n      dup1\n      swap2\n      sub\n      swap1\n      return\n        /* \"MyHomeToken.sol\":244:271  uint public totalHouses = 0 */\n    tag_31:\n      sload(0x05)\n      dup2\n      jump\t// out\n        /* \"MyHomeToken.sol\":542:586  mapping (address => uint256) public balances */\n    tag_38:\n      mstore(0x20, 0x0d)\n      dup1\n      0x00\n      mstore\n      keccak256(0x00, 0x40)\n      0x00\n      swap2\n      pop\n      swap1\n      pop\n      sload\n      dup2\n      jump\t// out\n        /* \"MyHomeToken.sol\":2299:2382  function startTrading() public onlyRegulator {... */\n    tag_42:\n        /* \"MyHomeToken.sol\":1635:1640  owner */\n      0x00\n      dup1\n      sload\n      swap1\n      0x0100\n      exp\n      swap1\n      div\n      0xffffffffffffffffffffffffffffffffffffffff\n      and\n        /* \"MyHomeToken.sol\":1621:1640  msg.sender == owner */\n      0xffffffffffffffffffffffffffffffffffffffff\n      and\n        /* \"MyHomeToken.sol\":1621:1631  msg.sender */\n      caller\n        /* \"MyHomeToken.sol\":1621:1640  msg.sender == owner */\n      0xffffffffffffffffffffffffffffffffffffffff\n      and\n      eq\n        /* \"MyHomeToken.sol\":1613:1641  require(msg.sender == owner) */\n      tag_140\n      jumpi\n      0x00\n      dup1\n      revert\n    tag_140:\n        /* \"MyHomeToken.sol\":2362:2375  State.Running */\n      0x01\n        /* \"MyHomeToken.sol\":2354:2359  state */\n      0x0a\n      0x00\n        /* \"MyHomeToken.sol\":2354:2375  state = State.Running */\n      0x0100\n      exp\n      dup2\n      sload\n      dup2\n      0xff\n      mul\n      not\n      and\n      swap1\n      dup4\n      0x01\n      dup2\n      gt\n      iszero\n      tag_142\n      jumpi\n      tag_143\n      tag_144\n      jump\t// in\n    tag_143:\n    tag_142:\n      mul\n      or\n      swap1\n      sstore\n      pop\n        /* \"MyHomeToken.sol\":2299:2382  function startTrading() public onlyRegulator {... */\n      jump\t// out\n        /* \"MyHomeToken.sol\":608:652  mapping(uint => Ballot) public ballotHistory */\n    tag_47:\n      mstore(0x20, 0x0e)\n      dup1\n      0x00\n      mstore\n      keccak256(0x00, 0x40)\n      0x00\n      swap2\n      pop\n      swap1\n      pop\n      dup1\n      0x00\n      add\n      dup1\n      sload\n      tag_145\n      swap1\n      tag_146\n      jump\t// in\n    tag_145:\n      dup1\n      0x1f\n      add\n      0x20\n      dup1\n      swap2\n      div\n      mul\n      0x20\n      add\n      mload(0x40)\n      swap1\n      dup2\n      add\n      0x40\n      mstore\n      dup1\n      swap3\n      swap2\n      swap1\n      dup2\n      dup2\n      mstore\n      0x20\n      add\n      dup3\n      dup1\n      sload\n      tag_147\n      swap1\n      tag_146\n      jump\t// in\n    tag_147:\n      dup1\n      iszero\n      tag_148\n      jumpi\n      dup1\n      0x1f\n      lt\n      tag_149\n      jumpi\n      0x0100\n      dup1\n      dup4\n      sload\n      div\n      mul\n      dup4\n      mstore\n      swap2\n      0x20\n      add\n      swap2\n      jump(tag_148)\n    tag_149:\n      dup3\n      add\n      swap2\n      swap1\n      0x00\n      mstore\n      keccak256(0x00, 0x20)\n      swap1\n    tag_150:\n      dup2\n      sload\n      dup2\n      mstore\n      swap1\n      0x01\n      add\n      swap1\n      0x20\n      add\n      dup1\n      dup4\n      gt\n      tag_150\n      jumpi\n      dup3\n      swap1\n      sub\n      0x1f\n      and\n      dup3\n      add\n      swap2\n    tag_148:\n      pop\n      pop\n      pop\n      pop\n      pop\n      swap1\n      dup1\n      0x01\n      add\n      0x00\n      swap1\n      sload\n      swap1\n      0x0100\n      exp\n      swap1\n      div\n      0xffffffffffffffffffffffffffffffffffffffff\n      and\n      swap1\n      dup1\n      0x02\n      add\n      dup1\n      sload\n      tag_151\n      swap1\n      tag_146\n      jump\t// in\n    tag_151:\n      dup1\n      0x1f\n      add\n      0x20\n      dup1\n      swap2\n      div\n      mul\n      0x20\n      add\n      mload(0x40)\n      swap1\n      dup2\n      add\n      0x40\n      mstore\n      dup1\n      swap3\n      swap2\n      swap1\n      dup2\n      dup2\n      mstore\n      0x20\n      add\n      dup3\n      dup1\n      sload\n      tag_152\n      swap1\n      tag_146\n      jump\t// in\n    tag_152:\n      dup1\n      iszero\n      tag_153\n      jumpi\n      dup1\n      0x1f\n      lt\n      tag_154\n      jumpi\n      0x0100\n      dup1\n      dup4\n      sload\n      div\n      mul\n      dup4\n      mstore\n      swap2\n      0x20\n      add\n      swap2\n      jump(tag_153)\n    tag_154:\n      dup3\n      add\n      swap2\n      swap1\n      0x00\n      mstore\n      keccak256(0x00, 0x20)\n      swap1\n    tag_155:\n      dup2\n      sload\n      dup2\n      mstore\n      swap1\n      0x01\n      add\n      swap1\n      0x20\n      add\n      dup1\n      dup4\n      gt\n      tag_155\n      jumpi\n      dup3\n      swap1\n      sub\n      0x1f\n      and\n      dup3\n      add\n      swap2\n    tag_153:\n      pop\n      pop\n      pop\n      pop\n      pop\n      swap1\n      dup1\n      0x03\n      add\n      sload\n      swap1\n      dup1\n      0x04\n      add\n      sload\n      swap1\n      pop\n      dup6\n      jump\t// out\n        /* \"MyHomeToken.sol\":277:309  uint256 public totalShares = 100 */\n    tag_52:\n      sload(0x06)\n      dup2\n      jump\t// out\n        /* \"MyHomeToken.sol\":350:380  uint256 public shareLimit = 10 */\n    tag_56:\n      sload(0x08)\n      dup2\n      jump\t// out\n        /* \"MyHomeToken.sol\":4265:4515  function createBallot(string memory _proposal) public {... */\n    tag_62:\n        /* \"MyHomeToken.sol\":4345:4412  Ballot(Strings.toString(totalBallots), msg.sender, _proposal, 0, 0) */\n      mload(0x40)\n      dup1\n      0xa0\n      add\n      0x40\n      mstore\n      dup1\n        /* \"MyHomeToken.sol\":4352:4382  Strings.toString(totalBallots) */\n      tag_157\n        /* \"MyHomeToken.sol\":4369:4381  totalBallots */\n      sload(0x0f)\n        /* \"MyHomeToken.sol\":4352:4368  Strings.toString */\n      tag_158\n        /* \"MyHomeToken.sol\":4352:4382  Strings.toString(totalBallots) */\n      jump\t// in\n    tag_157:\n        /* \"MyHomeToken.sol\":4345:4412  Ballot(Strings.toString(totalBallots), msg.sender, _proposal, 0, 0) */\n      dup2\n      mstore\n      0x20\n      add\n        /* \"MyHomeToken.sol\":4384:4394  msg.sender */\n      caller\n        /* \"MyHomeToken.sol\":4345:4412  Ballot(Strings.toString(totalBallots), msg.sender, _proposal, 0, 0) */\n      0xffffffffffffffffffffffffffffffffffffffff\n      and\n      dup2\n      mstore\n      0x20\n      add\n        /* \"MyHomeToken.sol\":4396:4405  _proposal */\n      dup3\n        /* \"MyHomeToken.sol\":4345:4412  Ballot(Strings.toString(totalBallots), msg.sender, _proposal, 0, 0) */\n      dup2\n      mstore\n      0x20\n      add\n        /* \"MyHomeToken.sol\":4407:4408  0 */\n      0x00\n        /* \"MyHomeToken.sol\":4345:4412  Ballot(Strings.toString(totalBallots), msg.sender, _proposal, 0, 0) */\n      dup2\n      mstore\n      0x20\n      add\n        /* \"MyHomeToken.sol\":4410:4411  0 */\n      0x00\n        /* \"MyHomeToken.sol\":4345:4412  Ballot(Strings.toString(totalBallots), msg.sender, _proposal, 0, 0) */\n      dup2\n      mstore\n      pop\n        /* \"MyHomeToken.sol\":4329:4342  currentBallot */\n      0x10\n        /* \"MyHomeToken.sol\":4329:4412  currentBallot = Ballot(Strings.toString(totalBallots), msg.sender, _proposal, 0, 0) */\n      0x00\n      dup3\n      add\n      mload\n      dup2\n      0x00\n      add\n      swap1\n      dup1\n      mload\n      swap1\n      0x20\n      add\n      swap1\n      tag_159\n      swap3\n      swap2\n      swap1\n      tag_160\n      jump\t// in\n    tag_159:\n      pop\n      0x20\n      dup3\n      add\n      mload\n      dup2\n      0x01\n      add\n      exp(0x0100, 0x00)\n      dup2\n      sload\n      dup2\n      0xffffffffffffffffffffffffffffffffffffffff\n      mul\n      not\n      and\n      swap1\n      dup4\n      0xffffffffffffffffffffffffffffffffffffffff\n      and\n      mul\n      or\n      swap1\n      sstore\n      pop\n      0x40\n      dup3\n      add\n      mload\n      dup2\n      0x02\n      add\n      swap1\n      dup1\n      mload\n      swap1\n      0x20\n      add\n      swap1\n      tag_161\n      swap3\n      swap2\n      swap1\n      tag_160\n      jump\t// in\n    tag_161:\n      pop\n      0x60\n      dup3\n      add\n      mload\n      dup2\n      0x03\n      add\n      sstore\n      0x80\n      dup3\n      add\n      mload\n      dup2\n      0x04\n      add\n      sstore\n      swap1\n      pop\n      pop\n        /* \"MyHomeToken.sol\":4436:4455  BallotState.Created */\n      0x00\n        /* \"MyHomeToken.sol\":4422:4433  ballotState */\n      0x15\n      0x00\n        /* \"MyHomeToken.sol\":4422:4455  ballotState = BallotState.Created */\n      0x0100\n      exp\n      dup2\n      sload\n      dup2\n      0xff\n      mul\n      not\n      and\n      swap1\n      dup4\n      0x02\n      dup2\n      gt\n      iszero\n      tag_162\n      jumpi\n      tag_163\n      tag_144\n      jump\t// in\n    tag_163:\n    tag_162:\n      mul\n      or\n      swap1\n      sstore\n      pop\n        /* \"MyHomeToken.sol\":4495:4508  currentBallot */\n      0x10\n        /* \"MyHomeToken.sol\":4465:4478  ballotHistory */\n      0x0e\n        /* \"MyHomeToken.sol\":4465:4492  ballotHistory[totalBallots] */\n      0x00\n        /* \"MyHomeToken.sol\":4479:4491  totalBallots */\n      sload(0x0f)\n        /* \"MyHomeToken.sol\":4465:4492  ballotHistory[totalBallots] */\n      dup2\n      mstore\n      0x20\n      add\n      swap1\n      dup2\n      mstore\n      0x20\n      add\n      0x00\n      keccak256\n        /* \"MyHomeToken.sol\":4465:4508  ballotHistory[totalBallots] = currentBallot */\n      0x00\n      dup3\n      add\n      dup2\n      0x00\n      add\n      swap1\n      dup1\n      sload\n      tag_164\n      swap1\n      tag_146\n      jump\t// in\n    tag_164:\n      tag_165\n      swap3\n      swap2\n      swap1\n      tag_166\n      jump\t// in\n    tag_165:\n      pop\n      0x01\n      dup3\n      add\n      0x00\n      swap1\n      sload\n      swap1\n      0x0100\n      exp\n      swap1\n      div\n      0xffffffffffffffffffffffffffffffffffffffff\n      and\n      dup2\n      0x01\n      add\n      exp(0x0100, 0x00)\n      dup2\n      sload\n      dup2\n      0xffffffffffffffffffffffffffffffffffffffff\n      mul\n      not\n      and\n      swap1\n      dup4\n      0xffffffffffffffffffffffffffffffffffffffff\n      and\n      mul\n      or\n      swap1\n      sstore\n      pop\n      0x02\n      dup3\n      add\n      dup2\n      0x02\n      add\n      swap1\n      dup1\n      sload\n      tag_167\n      swap1\n      tag_146\n      jump\t// in\n    tag_167:\n      tag_168\n      swap3\n      swap2\n      swap1\n      tag_166\n      jump\t// in\n    tag_168:\n      pop\n      0x03\n      dup3\n      add\n      sload\n      dup2\n      0x03\n      add\n      sstore\n      0x04\n      dup3\n      add\n      sload\n      dup2\n      0x04\n      add\n      sstore\n      swap1\n      pop\n      pop\n        /* \"MyHomeToken.sol\":4265:4515  function createBallot(string memory _proposal) public {... */\n      pop\n      jump\t// out\n        /* \"MyHomeToken.sol\":4521:4712  function startVote()... */\n    tag_65:\n        /* \"MyHomeToken.sol\":4579:4598  BallotState.Created */\n      0x00\n        /* \"MyHomeToken.sol\":1895:1901  _state */\n      dup1\n        /* \"MyHomeToken.sol\":1880:1901  ballotState == _state */\n      0x02\n      dup2\n      gt\n      iszero\n      tag_170\n      jumpi\n      tag_171\n      tag_144\n      jump\t// in\n    tag_171:\n    tag_170:\n        /* \"MyHomeToken.sol\":1880:1891  ballotState */\n      0x15\n      0x00\n      swap1\n      sload\n      swap1\n      0x0100\n      exp\n      swap1\n      div\n      0xff\n      and\n        /* \"MyHomeToken.sol\":1880:1901  ballotState == _state */\n      0x02\n      dup2\n      gt\n      iszero\n      tag_172\n      jumpi\n      tag_173\n      tag_144\n      jump\t// in\n    tag_173:\n    tag_172:\n      eq\n        /* \"MyHomeToken.sol\":1872:1902  require(ballotState == _state) */\n      tag_174\n      jumpi\n      0x00\n      dup1\n      revert\n    tag_174:\n        /* \"MyHomeToken.sol\":1787:1800  currentBallot */\n      0x10\n        /* \"MyHomeToken.sol\":1787:1812  currentBallot.ballotOwner */\n      0x01\n      add\n      0x00\n      swap1\n      sload\n      swap1\n      0x0100\n      exp\n      swap1\n      div\n      0xffffffffffffffffffffffffffffffffffffffff\n      and\n        /* \"MyHomeToken.sol\":1773:1812  msg.sender == currentBallot.ballotOwner */\n      0xffffffffffffffffffffffffffffffffffffffff\n      and\n        /* \"MyHomeToken.sol\":1773:1783  msg.sender */\n      caller\n        /* \"MyHomeToken.sol\":1773:1812  msg.sender == currentBallot.ballotOwner */\n      0xffffffffffffffffffffffffffffffffffffffff\n      and\n      eq\n        /* \"MyHomeToken.sol\":1765:1813  require(msg.sender == currentBallot.ballotOwner) */\n      tag_176\n      jumpi\n      0x00\n      dup1\n      revert\n    tag_176:\n        /* \"MyHomeToken.sol\":4656:4674  BallotState.Voting */\n      0x01\n        /* \"MyHomeToken.sol\":4642:4653  ballotState */\n      0x15\n      0x00\n        /* \"MyHomeToken.sol\":4642:4674  ballotState = BallotState.Voting */\n      0x0100\n      exp\n      dup2\n      sload\n      dup2\n      0xff\n      mul\n      not\n      and\n      swap1\n      dup4\n      0x02\n      dup2\n      gt\n      iszero\n      tag_178\n      jumpi\n      tag_179\n      tag_144\n      jump\t// in\n    tag_179:\n    tag_178:\n      mul\n      or\n      swap1\n      sstore\n      pop\n        /* \"MyHomeToken.sol\":4692:4705  voteStarted() */\n      0xd0dc01800a369fef30d3fced5275b8b916549867622e79efca5245c479fda4ea\n      mload(0x40)\n      mload(0x40)\n      dup1\n      swap2\n      sub\n      swap1\n      log1\n        /* \"MyHomeToken.sol\":4521:4712  function startVote()... */\n      pop\n      jump\t// out\n        /* \"MyHomeToken.sol\":485:536  mapping(address => bool) public shareHolderRegistry */\n    tag_69:\n      mstore(0x20, 0x0c)\n      dup1\n      0x00\n      mstore\n      keccak256(0x00, 0x40)\n      0x00\n      swap2\n      pop\n      sload\n      swap1\n      0x0100\n      exp\n      swap1\n      div\n      0xff\n      and\n      dup2\n      jump\t// out\n        /* \"MyHomeToken.sol\":658:686  uint public totalBallots = 0 */\n    tag_74:\n      sload(0x0f)\n      dup2\n      jump\t// out\n        /* \"MyHomeToken.sol\":450:479  address[] public shareHolders */\n    tag_79:\n      0x0b\n      dup2\n      dup2\n      sload\n      dup2\n      lt\n      tag_180\n      jumpi\n      0x00\n      dup1\n      revert\n    tag_180:\n      swap1\n      0x00\n      mstore\n      keccak256(0x00, 0x20)\n      add\n      0x00\n      swap2\n      pop\n      sload\n      swap1\n      0x0100\n      exp\n      swap1\n      div\n      0xffffffffffffffffffffffffffffffffffffffff\n      and\n      dup2\n      jump\t// out\n        /* \"MyHomeToken.sol\":315:344  uint256 public tokenPrice = 1 */\n    tag_84:\n      sload(0x07)\n      dup2\n      jump\t// out\n        /* \"MyHomeToken.sol\":4718:5352  function doVote(bool _choice)... */\n    tag_90:\n        /* \"MyHomeToken.sol\":4822:4832  bool voted */\n      0x00\n        /* \"MyHomeToken.sol\":4785:4803  BallotState.Voting */\n      0x01\n        /* \"MyHomeToken.sol\":1895:1901  _state */\n      dup1\n        /* \"MyHomeToken.sol\":1880:1901  ballotState == _state */\n      0x02\n      dup2\n      gt\n      iszero\n      tag_183\n      jumpi\n      tag_184\n      tag_144\n      jump\t// in\n    tag_184:\n    tag_183:\n        /* \"MyHomeToken.sol\":1880:1891  ballotState */\n      0x15\n      0x00\n      swap1\n      sload\n      swap1\n      0x0100\n      exp\n      swap1\n      div\n      0xff\n      and\n        /* \"MyHomeToken.sol\":1880:1901  ballotState == _state */\n      0x02\n      dup2\n      gt\n      iszero\n      tag_185\n      jumpi\n      tag_186\n      tag_144\n      jump\t// in\n    tag_186:\n    tag_185:\n      eq\n        /* \"MyHomeToken.sol\":1872:1902  require(ballotState == _state) */\n      tag_187\n      jumpi\n      0x00\n      dup1\n      revert\n    tag_187:\n        /* \"MyHomeToken.sol\":4848:4858  bool found */\n      0x00\n        /* \"MyHomeToken.sol\":4881:4900  shareHolderRegistry */\n      0x0c\n        /* \"MyHomeToken.sol\":4881:4912  shareHolderRegistry[msg.sender] */\n      0x00\n        /* \"MyHomeToken.sol\":4901:4911  msg.sender */\n      caller\n        /* \"MyHomeToken.sol\":4881:4912  shareHolderRegistry[msg.sender] */\n      0xffffffffffffffffffffffffffffffffffffffff\n      and\n      0xffffffffffffffffffffffffffffffffffffffff\n      and\n      dup2\n      mstore\n      0x20\n      add\n      swap1\n      dup2\n      mstore\n      0x20\n      add\n      0x00\n      keccak256\n      0x00\n      swap1\n      sload\n      swap1\n      0x0100\n      exp\n      swap1\n      div\n      0xff\n      and\n        /* \"MyHomeToken.sol\":4876:5289  if (!shareHolderRegistry[msg.sender]){... */\n      tag_189\n      jumpi\n        /* \"MyHomeToken.sol\":4961:4965  true */\n      0x01\n        /* \"MyHomeToken.sol\":4927:4946  shareHolderRegistry */\n      0x0c\n        /* \"MyHomeToken.sol\":4927:4958  shareHolderRegistry[msg.sender] */\n      0x00\n        /* \"MyHomeToken.sol\":4947:4957  msg.sender */\n      caller\n        /* \"MyHomeToken.sol\":4927:4958  shareHolderRegistry[msg.sender] */\n      0xffffffffffffffffffffffffffffffffffffffff\n      and\n      0xffffffffffffffffffffffffffffffffffffffff\n      and\n      dup2\n      mstore\n      0x20\n      add\n      swap1\n      dup2\n      mstore\n      0x20\n      add\n      0x00\n      keccak256\n      0x00\n        /* \"MyHomeToken.sol\":4927:4965  shareHolderRegistry[msg.sender] = true */\n      0x0100\n      exp\n      dup2\n      sload\n      dup2\n      0xff\n      mul\n      not\n      and\n      swap1\n      dup4\n      iszero\n      iszero\n      mul\n      or\n      swap1\n      sstore\n      pop\n        /* \"MyHomeToken.sol\":4979:4992  Vote memory v */\n      tag_190\n      tag_191\n      jump\t// in\n    tag_190:\n        /* \"MyHomeToken.sol\":5029:5039  msg.sender */\n      caller\n        /* \"MyHomeToken.sol\":5006:5007  v */\n      dup2\n        /* \"MyHomeToken.sol\":5006:5026  v.shareHolderAddress */\n      0x00\n      add\n        /* \"MyHomeToken.sol\":5006:5039  v.shareHolderAddress = msg.sender */\n      swap1\n      0xffffffffffffffffffffffffffffffffffffffff\n      and\n      swap1\n      dup2\n      0xffffffffffffffffffffffffffffffffffffffff\n      and\n      dup2\n      mstore\n      pop\n      pop\n        /* \"MyHomeToken.sol\":5064:5071  _choice */\n      dup5\n        /* \"MyHomeToken.sol\":5053:5054  v */\n      dup2\n        /* \"MyHomeToken.sol\":5053:5061  v.choice */\n      0x20\n      add\n        /* \"MyHomeToken.sol\":5053:5071  v.choice = _choice */\n      swap1\n      iszero\n      iszero\n      swap1\n      dup2\n      iszero\n      iszero\n      dup2\n      mstore\n      pop\n      pop\n        /* \"MyHomeToken.sol\":5089:5096  _choice */\n      dup5\n        /* \"MyHomeToken.sol\":5085:5164  if (_choice){... */\n      iszero\n      tag_192\n      jumpi\n        /* \"MyHomeToken.sol\":5115:5126  resultCount */\n      0x17\n      0x00\n        /* \"MyHomeToken.sol\":5115:5128  resultCount++ */\n      dup2\n      sload\n      dup1\n      swap3\n      swap2\n      swap1\n      tag_193\n      swap1\n      tag_194\n      jump\t// in\n    tag_193:\n      swap2\n      swap1\n      pop\n      sstore\n      pop\n        /* \"MyHomeToken.sol\":5085:5164  if (_choice){... */\n    tag_192:\n        /* \"MyHomeToken.sol\":5211:5212  v */\n      dup1\n        /* \"MyHomeToken.sol\":5177:5182  votes */\n      0x16\n        /* \"MyHomeToken.sol\":5177:5208  votes[currentBallot.totalVotes] */\n      0x00\n        /* \"MyHomeToken.sol\":5183:5196  currentBallot */\n      0x10\n        /* \"MyHomeToken.sol\":5183:5207  currentBallot.totalVotes */\n      0x04\n      add\n      sload\n        /* \"MyHomeToken.sol\":5177:5208  votes[currentBallot.totalVotes] */\n      dup2\n      mstore\n      0x20\n      add\n      swap1\n      dup2\n      mstore\n      0x20\n      add\n      0x00\n      keccak256\n        /* \"MyHomeToken.sol\":5177:5212  votes[currentBallot.totalVotes] = v */\n      0x00\n      dup3\n      add\n      mload\n      dup2\n      0x00\n      add\n      exp(0x0100, 0x00)\n      dup2\n      sload\n      dup2\n      0xffffffffffffffffffffffffffffffffffffffff\n      mul\n      not\n      and\n      swap1\n      dup4\n      0xffffffffffffffffffffffffffffffffffffffff\n      and\n      mul\n      or\n      swap1\n      sstore\n      pop\n      0x20\n      dup3\n      add\n      mload\n      dup2\n      0x00\n      add\n      exp(0x0100, 0x14)\n      dup2\n      sload\n      dup2\n      0xff\n      mul\n      not\n      and\n      swap1\n      dup4\n      iszero\n      iszero\n      mul\n      or\n      swap1\n      sstore\n      pop\n      swap1\n      pop\n      pop\n        /* \"MyHomeToken.sol\":5226:5239  currentBallot */\n      0x10\n        /* \"MyHomeToken.sol\":5226:5250  currentBallot.totalVotes */\n      0x04\n      add\n      0x00\n        /* \"MyHomeToken.sol\":5226:5252  currentBallot.totalVotes++ */\n      dup2\n      sload\n      dup1\n      swap3\n      swap2\n      swap1\n      tag_195\n      swap1\n      tag_194\n      jump\t// in\n    tag_195:\n      swap2\n      swap1\n      pop\n      sstore\n      pop\n        /* \"MyHomeToken.sol\":5274:5278  true */\n      0x01\n        /* \"MyHomeToken.sol\":5266:5278  found = true */\n      swap2\n      pop\n        /* \"MyHomeToken.sol\":4913:5289  {... */\n      pop\n        /* \"MyHomeToken.sol\":4876:5289  if (!shareHolderRegistry[msg.sender]){... */\n    tag_189:\n        /* \"MyHomeToken.sol\":5303:5323  voteDone(msg.sender) */\n      0x55c65cf9526efdf6c2252fe9757889dbd93e10172cad0f2edb1df619c88dbf7d\n        /* \"MyHomeToken.sol\":5312:5322  msg.sender */\n      caller\n        /* \"MyHomeToken.sol\":5303:5323  voteDone(msg.sender) */\n      mload(0x40)\n      tag_196\n      swap2\n      swap1\n      tag_81\n      jump\t// in\n    tag_196:\n      mload(0x40)\n      dup1\n      swap2\n      sub\n      swap1\n      log1\n        /* \"MyHomeToken.sol\":5340:5345  found */\n      dup1\n        /* \"MyHomeToken.sol\":5333:5345  return found */\n      swap3\n      pop\n      pop\n        /* \"MyHomeToken.sol\":4718:5352  function doVote(bool _choice)... */\n      pop\n      swap2\n      swap1\n      pop\n      jump\t// out\n        /* \"MyHomeToken.sol\":146:174  address payable public owner */\n    tag_94:\n      0x00\n      dup1\n      sload\n      swap1\n      0x0100\n      exp\n      swap1\n      div\n      0xffffffffffffffffffffffffffffffffffffffff\n      and\n      dup2\n      jump\t// out\n        /* \"MyHomeToken.sol\":386:419  uint public totalShareHolders = 0 */\n    tag_99:\n      sload(0x09)\n      dup2\n      jump\t// out\n        /* \"MyHomeToken.sol\":210:238  House[] public houseRegister */\n    tag_104:\n      0x04\n      dup2\n      dup2\n      sload\n      dup2\n      lt\n      tag_197\n      jumpi\n      0x00\n      dup1\n      revert\n    tag_197:\n      swap1\n      0x00\n      mstore\n      keccak256(0x00, 0x20)\n      swap1\n      0x03\n      mul\n      add\n      0x00\n      swap2\n      pop\n      swap1\n      pop\n      dup1\n      0x00\n      add\n      dup1\n      sload\n      tag_199\n      swap1\n      tag_146\n      jump\t// in\n    tag_199:\n      dup1\n      0x1f\n      add\n      0x20\n      dup1\n      swap2\n      div\n      mul\n      0x20\n      add\n      mload(0x40)\n      swap1\n      dup2\n      add\n      0x40\n      mstore\n      dup1\n      swap3\n      swap2\n      swap1\n      dup2\n      dup2\n      mstore\n      0x20\n      add\n      dup3\n      dup1\n      sload\n      tag_200\n      swap1\n      tag_146\n      jump\t// in\n    tag_200:\n      dup1\n      iszero\n      tag_201\n      jumpi\n      dup1\n      0x1f\n      lt\n      tag_202\n      jumpi\n      0x0100\n      dup1\n      dup4\n      sload\n      div\n      mul\n      dup4\n      mstore\n      swap2\n      0x20\n      add\n      swap2\n      jump(tag_201)\n    tag_202:\n      dup3\n      add\n      swap2\n      swap1\n      0x00\n      mstore\n      keccak256(0x00, 0x20)\n      swap1\n    tag_203:\n      dup2\n      sload\n      dup2\n      mstore\n      swap1\n      0x01\n      add\n      swap1\n      0x20\n      add\n      dup1\n      dup4\n      gt\n      tag_203\n      jumpi\n      dup3\n      swap1\n      sub\n      0x1f\n      and\n      dup3\n      add\n      swap2\n    tag_201:\n      pop\n      pop\n      pop\n      pop\n      pop\n      swap1\n      dup1\n      0x01\n      add\n      dup1\n      sload\n      tag_204\n      swap1\n      tag_146\n      jump\t// in\n    tag_204:\n      dup1\n      0x1f\n      add\n      0x20\n      dup1\n      swap2\n      div\n      mul\n      0x20\n      add\n      mload(0x40)\n      swap1\n      dup2\n      add\n      0x40\n      mstore\n      dup1\n      swap3\n      swap2\n      swap1\n      dup2\n      dup2\n      mstore\n      0x20\n      add\n      dup3\n      dup1\n      sload\n      tag_205\n      swap1\n      tag_146\n      jump\t// in\n    tag_205:\n      dup1\n      iszero\n      tag_206\n      jumpi\n      dup1\n      0x1f\n      lt\n      tag_207\n      jumpi\n      0x0100\n      dup1\n      dup4\n      sload\n      div\n      mul\n      dup4\n      mstore\n      swap2\n      0x20\n      add\n      swap2\n      jump(tag_206)\n    tag_207:\n      dup3\n      add\n      swap2\n      swap1\n      0x00\n      mstore\n      keccak256(0x00, 0x20)\n      swap1\n    tag_208:\n      dup2\n      sload\n      dup2\n      mstore\n      swap1\n      0x01\n      add\n      swap1\n      0x20\n      add\n      dup1\n      dup4\n      gt\n      tag_208\n      jumpi\n      dup3\n      swap1\n      sub\n      0x1f\n      and\n      dup3\n      add\n      swap2\n    tag_206:\n      pop\n      pop\n      pop\n      pop\n      pop\n      swap1\n      dup1\n      0x02\n      add\n      sload\n      swap1\n      pop\n      dup4\n      jump\t// out\n        /* \"MyHomeToken.sol\":3624:4259  function buy() public payable {... */\n    tag_108:\n        /* \"MyHomeToken.sol\":3664:3680  uint256 tokenNum */\n      0x00\n        /* \"MyHomeToken.sol\":3693:3703  tokenPrice */\n      sload(0x07)\n        /* \"MyHomeToken.sol\":3683:3692  msg.value */\n      callvalue\n        /* \"MyHomeToken.sol\":3683:3703  msg.value/tokenPrice */\n      tag_210\n      swap2\n      swap1\n      tag_211\n      jump\t// in\n    tag_210:\n        /* \"MyHomeToken.sol\":3664:3703  uint256 tokenNum = msg.value/tokenPrice */\n      swap1\n      pop\n        /* \"MyHomeToken.sol\":3765:3766  0 */\n      0x00\n        /* \"MyHomeToken.sol\":3753:3762  msg.value */\n      callvalue\n        /* \"MyHomeToken.sol\":3753:3766  msg.value > 0 */\n      gt\n        /* \"MyHomeToken.sol\":3745:3767  require(msg.value > 0) */\n      tag_212\n      jumpi\n      0x00\n      dup1\n      revert\n    tag_212:\n        /* \"MyHomeToken.sol\":3836:3846  shareLimit */\n      sload(0x08)\n        /* \"MyHomeToken.sol\":3824:3832  tokenNum */\n      dup2\n        /* \"MyHomeToken.sol\":3824:3846  tokenNum <= shareLimit */\n      gt\n      iszero\n        /* \"MyHomeToken.sol\":3816:3886  require(tokenNum <= shareLimit, \"Number of shares exceeded the limit\") */\n      tag_213\n      jumpi\n      mload(0x40)\n      0x08c379a000000000000000000000000000000000000000000000000000000000\n      dup2\n      mstore\n      0x04\n      add\n      tag_214\n      swap1\n      tag_215\n      jump\t// in\n    tag_214:\n      mload(0x40)\n      dup1\n      swap2\n      sub\n      swap1\n      revert\n    tag_213:\n        /* \"MyHomeToken.sol\":3935:3940  owner */\n      0x00\n      dup1\n      sload\n      swap1\n      0x0100\n      exp\n      swap1\n      div\n      0xffffffffffffffffffffffffffffffffffffffff\n      and\n        /* \"MyHomeToken.sol\":3935:3949  owner.transfer */\n      0xffffffffffffffffffffffffffffffffffffffff\n      and\n        /* \"MyHomeToken.sol\":3935:3960  owner.transfer(msg.value) */\n      0x08fc\n        /* \"MyHomeToken.sol\":3950:3959  msg.value */\n      callvalue\n        /* \"MyHomeToken.sol\":3935:3960  owner.transfer(msg.value) */\n      swap1\n      dup2\n      iszero\n      mul\n      swap1\n      mload(0x40)\n      0x00\n      mload(0x40)\n      dup1\n      dup4\n      sub\n      dup2\n      dup6\n      dup9\n      dup9\n      call\n      swap4\n      pop\n      pop\n      pop\n      pop\n      iszero\n      dup1\n      iszero\n      tag_217\n      jumpi\n      returndatasize\n      0x00\n      dup1\n      returndatacopy\n      revert(0x00, returndatasize)\n    tag_217:\n      pop\n        /* \"MyHomeToken.sol\":4054:4062  tokenNum */\n      dup1\n        /* \"MyHomeToken.sol\":4035:4043  balances */\n      0x0d\n        /* \"MyHomeToken.sol\":4035:4050  balances[owner] */\n      0x00\n        /* \"MyHomeToken.sol\":4044:4049  owner */\n      dup1\n      0x00\n      swap1\n      sload\n      swap1\n      0x0100\n      exp\n      swap1\n      div\n      0xffffffffffffffffffffffffffffffffffffffff\n      and\n        /* \"MyHomeToken.sol\":4035:4050  balances[owner] */\n      0xffffffffffffffffffffffffffffffffffffffff\n      and\n      0xffffffffffffffffffffffffffffffffffffffff\n      and\n      dup2\n      mstore\n      0x20\n      add\n      swap1\n      dup2\n      mstore\n      0x20\n      add\n      0x00\n      keccak256\n      0x00\n        /* \"MyHomeToken.sol\":4035:4062  balances[owner] -= tokenNum */\n      dup3\n      dup3\n      sload\n      tag_218\n      swap2\n      swap1\n      tag_219\n      jump\t// in\n    tag_218:\n      swap3\n      pop\n      pop\n      dup2\n      swap1\n      sstore\n      pop\n        /* \"MyHomeToken.sol\":4154:4162  tokenNum */\n      dup1\n        /* \"MyHomeToken.sol\":4130:4138  balances */\n      0x0d\n        /* \"MyHomeToken.sol\":4130:4150  balances[msg.sender] */\n      0x00\n        /* \"MyHomeToken.sol\":4139:4149  msg.sender */\n      caller\n        /* \"MyHomeToken.sol\":4130:4150  balances[msg.sender] */\n      0xffffffffffffffffffffffffffffffffffffffff\n      and\n      0xffffffffffffffffffffffffffffffffffffffff\n      and\n      dup2\n      mstore\n      0x20\n      add\n      swap1\n      dup2\n      mstore\n      0x20\n      add\n      0x00\n      keccak256\n      0x00\n        /* \"MyHomeToken.sol\":4130:4162  balances[msg.sender] += tokenNum */\n      dup3\n      dup3\n      sload\n      tag_220\n      swap2\n      swap1\n      tag_221\n      jump\t// in\n    tag_220:\n      swap3\n      pop\n      pop\n      dup2\n      swap1\n      sstore\n      pop\n        /* \"MyHomeToken.sol\":4226:4252  addShareHolder(msg.sender) */\n      tag_222\n        /* \"MyHomeToken.sol\":4241:4251  msg.sender */\n      caller\n        /* \"MyHomeToken.sol\":4226:4240  addShareHolder */\n      tag_117\n        /* \"MyHomeToken.sol\":4226:4252  addShareHolder(msg.sender) */\n      jump\t// in\n    tag_222:\n        /* \"MyHomeToken.sol\":3654:4259  {... */\n      pop\n        /* \"MyHomeToken.sol\":3624:4259  function buy() public payable {... */\n      jump\t// out\n        /* \"MyHomeToken.sol\":3398:3618  function transfer(address _to, uint256 _value) public {... */\n    tag_113:\n        /* \"MyHomeToken.sol\":3495:3501  _value */\n      dup1\n        /* \"MyHomeToken.sol\":3471:3479  balances */\n      0x0d\n        /* \"MyHomeToken.sol\":3471:3491  balances[msg.sender] */\n      0x00\n        /* \"MyHomeToken.sol\":3480:3490  msg.sender */\n      caller\n        /* \"MyHomeToken.sol\":3471:3491  balances[msg.sender] */\n      0xffffffffffffffffffffffffffffffffffffffff\n      and\n      0xffffffffffffffffffffffffffffffffffffffff\n      and\n      dup2\n      mstore\n      0x20\n      add\n      swap1\n      dup2\n      mstore\n      0x20\n      add\n      0x00\n      keccak256\n      sload\n        /* \"MyHomeToken.sol\":3471:3501  balances[msg.sender] >= _value */\n      lt\n      iszero\n        /* \"MyHomeToken.sol\":3462:3502  require (balances[msg.sender] >= _value) */\n      tag_224\n      jumpi\n      0x00\n      dup1\n      revert\n    tag_224:\n        /* \"MyHomeToken.sol\":3534:3539  owner */\n      0x00\n      dup1\n      sload\n      swap1\n      0x0100\n      exp\n      swap1\n      div\n      0xffffffffffffffffffffffffffffffffffffffff\n      and\n        /* \"MyHomeToken.sol\":3520:3539  msg.sender == owner */\n      0xffffffffffffffffffffffffffffffffffffffff\n      and\n        /* \"MyHomeToken.sol\":3520:3530  msg.sender */\n      caller\n        /* \"MyHomeToken.sol\":3520:3539  msg.sender == owner */\n      0xffffffffffffffffffffffffffffffffffffffff\n      and\n      eq\n        /* \"MyHomeToken.sol\":3512:3540  require(msg.sender == owner) */\n      tag_225\n      jumpi\n      0x00\n      dup1\n      revert\n    tag_225:\n        /* \"MyHomeToken.sol\":3574:3580  _value */\n      dup1\n        /* \"MyHomeToken.sol\":3550:3558  balances */\n      0x0d\n        /* \"MyHomeToken.sol\":3550:3570  balances[msg.sender] */\n      0x00\n        /* \"MyHomeToken.sol\":3559:3569  msg.sender */\n      caller\n        /* \"MyHomeToken.sol\":3550:3570  balances[msg.sender] */\n      0xffffffffffffffffffffffffffffffffffffffff\n      and\n      0xffffffffffffffffffffffffffffffffffffffff\n      and\n      dup2\n      mstore\n      0x20\n      add\n      swap1\n      dup2\n      mstore\n      0x20\n      add\n      0x00\n      keccak256\n      0x00\n        /* \"MyHomeToken.sol\":3550:3580  balances[msg.sender] -= _value */\n      dup3\n      dup3\n      sload\n      tag_226\n      swap2\n      swap1\n      tag_219\n      jump\t// in\n    tag_226:\n      swap3\n      pop\n      pop\n      dup2\n      swap1\n      sstore\n      pop\n        /* \"MyHomeToken.sol\":3605:3611  _value */\n      dup1\n        /* \"MyHomeToken.sol\":3590:3598  balances */\n      0x0d\n        /* \"MyHomeToken.sol\":3590:3603  balances[_to] */\n      0x00\n        /* \"MyHomeToken.sol\":3599:3602  _to */\n      dup5\n        /* \"MyHomeToken.sol\":3590:3603  balances[_to] */\n      0xffffffffffffffffffffffffffffffffffffffff\n      and\n      0xffffffffffffffffffffffffffffffffffffffff\n      and\n      dup2\n      mstore\n      0x20\n      add\n      swap1\n      dup2\n      mstore\n      0x20\n      add\n      0x00\n      keccak256\n      0x00\n        /* \"MyHomeToken.sol\":3590:3611  balances[_to]+=_value */\n      dup3\n      dup3\n      sload\n      tag_227\n      swap2\n      swap1\n      tag_221\n      jump\t// in\n    tag_227:\n      swap3\n      pop\n      pop\n      dup2\n      swap1\n      sstore\n      pop\n        /* \"MyHomeToken.sol\":3398:3618  function transfer(address _to, uint256 _value) public {... */\n      pop\n      pop\n      jump\t// out\n        /* \"MyHomeToken.sol\":3042:3392  function addShareHolder(address _shareHolderAddress)... */\n    tag_117:\n        /* \"MyHomeToken.sol\":3132:3161  contains(_shareHolderAddress) */\n      tag_229\n        /* \"MyHomeToken.sol\":3141:3160  _shareHolderAddress */\n      dup2\n        /* \"MyHomeToken.sol\":3132:3140  contains */\n      tag_230\n        /* \"MyHomeToken.sol\":3132:3161  contains(_shareHolderAddress) */\n      jump\t// in\n    tag_229:\n        /* \"MyHomeToken.sol\":3128:3377  if(!contains(_shareHolderAddress)) {... */\n      tag_231\n      jumpi\n        /* \"MyHomeToken.sol\":3220:3225  false */\n      0x00\n        /* \"MyHomeToken.sol\":3177:3196  shareHolderRegistry */\n      0x0c\n        /* \"MyHomeToken.sol\":3177:3217  shareHolderRegistry[_shareHolderAddress] */\n      0x00\n        /* \"MyHomeToken.sol\":3197:3216  _shareHolderAddress */\n      dup4\n        /* \"MyHomeToken.sol\":3177:3217  shareHolderRegistry[_shareHolderAddress] */\n      0xffffffffffffffffffffffffffffffffffffffff\n      and\n      0xffffffffffffffffffffffffffffffffffffffff\n      and\n      dup2\n      mstore\n      0x20\n      add\n      swap1\n      dup2\n      mstore\n      0x20\n      add\n      0x00\n      keccak256\n      0x00\n        /* \"MyHomeToken.sol\":3177:3225  shareHolderRegistry[_shareHolderAddress] = false */\n      0x0100\n      exp\n      dup2\n      sload\n      dup2\n      0xff\n      mul\n      not\n      and\n      swap1\n      dup4\n      iszero\n      iszero\n      mul\n      or\n      swap1\n      sstore\n      pop\n        /* \"MyHomeToken.sol\":3239:3251  shareHolders */\n      0x0b\n        /* \"MyHomeToken.sol\":3257:3276  _shareHolderAddress */\n      dup2\n        /* \"MyHomeToken.sol\":3239:3277  shareHolders.push(_shareHolderAddress) */\n      swap1\n      dup1\n      0x01\n      dup2\n      sload\n      add\n      dup1\n      dup3\n      sstore\n      dup1\n      swap2\n      pop\n      pop\n      0x01\n      swap1\n      sub\n      swap1\n      0x00\n      mstore\n      keccak256(0x00, 0x20)\n      add\n      0x00\n      swap1\n      swap2\n      swap1\n      swap2\n      swap1\n      swap2\n      0x0100\n      exp\n      dup2\n      sload\n      dup2\n      0xffffffffffffffffffffffffffffffffffffffff\n      mul\n      not\n      and\n      swap1\n      dup4\n      0xffffffffffffffffffffffffffffffffffffffff\n      and\n      mul\n      or\n      swap1\n      sstore\n      pop\n        /* \"MyHomeToken.sol\":3291:3308  totalShareHolders */\n      0x09\n      0x00\n        /* \"MyHomeToken.sol\":3291:3310  totalShareHolders++ */\n      dup2\n      sload\n      dup1\n      swap3\n      swap2\n      swap1\n      tag_233\n      swap1\n      tag_194\n      jump\t// in\n    tag_233:\n      swap2\n      swap1\n      pop\n      sstore\n      pop\n        /* \"MyHomeToken.sol\":3329:3366  ShareHolderAdded(_shareHolderAddress) */\n      0x30040c92e8da146ac410fb6841ea0f60af3b8f3788e5e7354e48d97d018f39dd\n        /* \"MyHomeToken.sol\":3346:3365  _shareHolderAddress */\n      dup2\n        /* \"MyHomeToken.sol\":3329:3366  ShareHolderAdded(_shareHolderAddress) */\n      mload(0x40)\n      tag_234\n      swap2\n      swap1\n      tag_81\n      jump\t// in\n    tag_234:\n      mload(0x40)\n      dup1\n      swap2\n      sub\n      swap1\n      log1\n        /* \"MyHomeToken.sol\":3128:3377  if(!contains(_shareHolderAddress)) {... */\n    tag_231:\n        /* \"MyHomeToken.sol\":3042:3392  function addShareHolder(address _shareHolderAddress)... */\n      pop\n      jump\t// out\n        /* \"MyHomeToken.sol\":5362:5618  function endVote()... */\n    tag_120:\n        /* \"MyHomeToken.sol\":5418:5436  BallotState.Voting */\n      0x01\n        /* \"MyHomeToken.sol\":1895:1901  _state */\n      dup1\n        /* \"MyHomeToken.sol\":1880:1901  ballotState == _state */\n      0x02\n      dup2\n      gt\n      iszero\n      tag_236\n      jumpi\n      tag_237\n      tag_144\n      jump\t// in\n    tag_237:\n    tag_236:\n        /* \"MyHomeToken.sol\":1880:1891  ballotState */\n      0x15\n      0x00\n      swap1\n      sload\n      swap1\n      0x0100\n      exp\n      swap1\n      div\n      0xff\n      and\n        /* \"MyHomeToken.sol\":1880:1901  ballotState == _state */\n      0x02\n      dup2\n      gt\n      iszero\n      tag_238\n      jumpi\n      tag_239\n      tag_144\n      jump\t// in\n    tag_239:\n    tag_238:\n      eq\n        /* \"MyHomeToken.sol\":1872:1902  require(ballotState == _state) */\n      tag_240\n      jumpi\n      0x00\n      dup1\n      revert\n    tag_240:\n        /* \"MyHomeToken.sol\":1787:1800  currentBallot */\n      0x10\n        /* \"MyHomeToken.sol\":1787:1812  currentBallot.ballotOwner */\n      0x01\n      add\n      0x00\n      swap1\n      sload\n      swap1\n      0x0100\n      exp\n      swap1\n      div\n      0xffffffffffffffffffffffffffffffffffffffff\n      and\n        /* \"MyHomeToken.sol\":1773:1812  msg.sender == currentBallot.ballotOwner */\n      0xffffffffffffffffffffffffffffffffffffffff\n      and\n        /* \"MyHomeToken.sol\":1773:1783  msg.sender */\n      caller\n        /* \"MyHomeToken.sol\":1773:1812  msg.sender == currentBallot.ballotOwner */\n      0xffffffffffffffffffffffffffffffffffffffff\n      and\n      eq\n        /* \"MyHomeToken.sol\":1765:1813  require(msg.sender == currentBallot.ballotOwner) */\n      tag_242\n      jumpi\n      0x00\n      dup1\n      revert\n    tag_242:\n        /* \"MyHomeToken.sol\":5494:5511  BallotState.Ended */\n      0x02\n        /* \"MyHomeToken.sol\":5480:5491  ballotState */\n      0x15\n      0x00\n        /* \"MyHomeToken.sol\":5480:5511  ballotState = BallotState.Ended */\n      0x0100\n      exp\n      dup2\n      sload\n      dup2\n      0xff\n      mul\n      not\n      and\n      swap1\n      dup4\n      0x02\n      dup2\n      gt\n      iszero\n      tag_244\n      jumpi\n      tag_245\n      tag_144\n      jump\t// in\n    tag_245:\n    tag_244:\n      mul\n      or\n      swap1\n      sstore\n      pop\n        /* \"MyHomeToken.sol\":5549:5560  resultCount */\n      sload(0x17)\n        /* \"MyHomeToken.sol\":5521:5534  currentBallot */\n      0x10\n        /* \"MyHomeToken.sol\":5521:5546  currentBallot.finalResult */\n      0x03\n      add\n        /* \"MyHomeToken.sol\":5521:5560  currentBallot.finalResult = resultCount */\n      dup2\n      swap1\n      sstore\n      pop\n        /* \"MyHomeToken.sol\":5575:5611  voteEnded(currentBallot.finalResult) */\n      0xb43a401dcdbe02a8afa41feb6c651425997908d1a4b79cf505188ba1dd3fd872\n        /* \"MyHomeToken.sol\":5585:5598  currentBallot */\n      0x10\n        /* \"MyHomeToken.sol\":5585:5610  currentBallot.finalResult */\n      0x03\n      add\n      sload\n        /* \"MyHomeToken.sol\":5575:5611  voteEnded(currentBallot.finalResult) */\n      mload(0x40)\n      tag_246\n      swap2\n      swap1\n      tag_33\n      jump\t// in\n    tag_246:\n      mload(0x40)\n      dup1\n      swap2\n      sub\n      swap1\n      log1\n        /* \"MyHomeToken.sol\":5362:5618  function endVote()... */\n      pop\n      jump\t// out\n        /* \"MyHomeToken.sol\":2184:2288  function etherBalance(address _addr) public view returns (uint256) {... */\n    tag_124:\n        /* \"MyHomeToken.sol\":2242:2249  uint256 */\n      0x00\n        /* \"MyHomeToken.sol\":2268:2273  _addr */\n      dup2\n        /* \"MyHomeToken.sol\":2268:2281  _addr.balance */\n      0xffffffffffffffffffffffffffffffffffffffff\n      and\n      balance\n        /* \"MyHomeToken.sol\":2261:2281  return _addr.balance */\n      swap1\n      pop\n        /* \"MyHomeToken.sol\":2184:2288  function etherBalance(address _addr) public view returns (uint256) {... */\n      swap2\n      swap1\n      pop\n      jump\t// out\n        /* \"MyHomeToken.sol\":180:204  HousingPackage public hp */\n    tag_128:\n      0x01\n      dup1\n      0x00\n      add\n      dup1\n      sload\n      tag_248\n      swap1\n      tag_146\n      jump\t// in\n    tag_248:\n      dup1\n      0x1f\n      add\n      0x20\n      dup1\n      swap2\n      div\n      mul\n      0x20\n      add\n      mload(0x40)\n      swap1\n      dup2\n      add\n      0x40\n      mstore\n      dup1\n      swap3\n      swap2\n      swap1\n      dup2\n      dup2\n      mstore\n      0x20\n      add\n      dup3\n      dup1\n      sload\n      tag_249\n      swap1\n      tag_146\n      jump\t// in\n    tag_249:\n      dup1\n      iszero\n      tag_250\n      jumpi\n      dup1\n      0x1f\n      lt\n      tag_251\n      jumpi\n      0x0100\n      dup1\n      dup4\n      sload\n      div\n      mul\n      dup4\n      mstore\n      swap2\n      0x20\n      add\n      swap2\n      jump(tag_250)\n    tag_251:\n      dup3\n      add\n      swap2\n      swap1\n      0x00\n      mstore\n      keccak256(0x00, 0x20)\n      swap1\n    tag_252:\n      dup2\n      sload\n      dup2\n      mstore\n      swap1\n      0x01\n      add\n      swap1\n      0x20\n      add\n      dup1\n      dup4\n      gt\n      tag_252\n      jumpi\n      dup3\n      swap1\n      sub\n      0x1f\n      and\n      dup3\n      add\n      swap2\n    tag_250:\n      pop\n      pop\n      pop\n      pop\n      pop\n      swap1\n      dup1\n      0x01\n      add\n      dup1\n      sload\n      tag_253\n      swap1\n      tag_146\n      jump\t// in\n    tag_253:\n      dup1\n      0x1f\n      add\n      0x20\n      dup1\n      swap2\n      div\n      mul\n      0x20\n      add\n      mload(0x40)\n      swap1\n      dup2\n      add\n      0x40\n      mstore\n      dup1\n      swap3\n      swap2\n      swap1\n      dup2\n      dup2\n      mstore\n      0x20\n      add\n      dup3\n      dup1\n      sload\n      tag_254\n      swap1\n      tag_146\n      jump\t// in\n    tag_254:\n      dup1\n      iszero\n      tag_255\n      jumpi\n      dup1\n      0x1f\n      lt\n      tag_256\n      jumpi\n      0x0100\n      dup1\n      dup4\n      sload\n      div\n      mul\n      dup4\n      mstore\n      swap2\n      0x20\n      add\n      swap2\n      jump(tag_255)\n    tag_256:\n      dup3\n      add\n      swap2\n      swap1\n      0x00\n      mstore\n      keccak256(0x00, 0x20)\n      swap1\n    tag_257:\n      dup2\n      sload\n      dup2\n      mstore\n      swap1\n      0x01\n      add\n      swap1\n      0x20\n      add\n      dup1\n      dup4\n      gt\n      tag_257\n      jumpi\n      dup3\n      swap1\n      sub\n      0x1f\n      and\n      dup3\n      add\n      swap2\n    tag_255:\n      pop\n      pop\n      pop\n      pop\n      pop\n      swap1\n      dup1\n      0x02\n      add\n      sload\n      swap1\n      pop\n      dup4\n      jump\t// out\n        /* \"MyHomeToken.sol\":2388:2758  function addHouse(string memory _registrationId, string memory location, uint256 price) ... */\n    tag_134:\n        /* \"MyHomeToken.sol\":1635:1640  owner */\n      0x00\n      dup1\n      sload\n      swap1\n      0x0100\n      exp\n      swap1\n      div\n      0xffffffffffffffffffffffffffffffffffffffff\n      and\n        /* \"MyHomeToken.sol\":1621:1640  msg.sender == owner */\n      0xffffffffffffffffffffffffffffffffffffffff\n      and\n        /* \"MyHomeToken.sol\":1621:1631  msg.sender */\n      caller\n        /* \"MyHomeToken.sol\":1621:1640  msg.sender == owner */\n      0xffffffffffffffffffffffffffffffffffffffff\n      and\n      eq\n        /* \"MyHomeToken.sol\":1613:1641  require(msg.sender == owner) */\n      tag_259\n      jumpi\n      0x00\n      dup1\n      revert\n    tag_259:\n        /* \"MyHomeToken.sol\":2531:2544  State.Created */\n      0x00\n        /* \"MyHomeToken.sol\":1708:1714  _state */\n      dup1\n        /* \"MyHomeToken.sol\":1699:1714  state == _state */\n      0x01\n      dup2\n      gt\n      iszero\n      tag_261\n      jumpi\n      tag_262\n      tag_144\n      jump\t// in\n    tag_262:\n    tag_261:\n        /* \"MyHomeToken.sol\":1699:1704  state */\n      0x0a\n      0x00\n      swap1\n      sload\n      swap1\n      0x0100\n      exp\n      swap1\n      div\n      0xff\n      and\n        /* \"MyHomeToken.sol\":1699:1714  state == _state */\n      0x01\n      dup2\n      gt\n      iszero\n      tag_263\n      jumpi\n      tag_264\n      tag_144\n      jump\t// in\n    tag_264:\n    tag_263:\n      eq\n        /* \"MyHomeToken.sol\":1691:1715  require(state == _state) */\n      tag_265\n      jumpi\n      0x00\n      dup1\n      revert\n    tag_265:\n        /* \"MyHomeToken.sol\":2561:2575  House memory h */\n      0x00\n        /* \"MyHomeToken.sol\":2578:2617  House(_registrationId, location, price) */\n      mload(0x40)\n      dup1\n      0x60\n      add\n      0x40\n      mstore\n      dup1\n        /* \"MyHomeToken.sol\":2584:2599  _registrationId */\n      dup7\n        /* \"MyHomeToken.sol\":2578:2617  House(_registrationId, location, price) */\n      dup2\n      mstore\n      0x20\n      add\n        /* \"MyHomeToken.sol\":2601:2609  location */\n      dup6\n        /* \"MyHomeToken.sol\":2578:2617  House(_registrationId, location, price) */\n      dup2\n      mstore\n      0x20\n      add\n        /* \"MyHomeToken.sol\":2611:2616  price */\n      dup5\n        /* \"MyHomeToken.sol\":2578:2617  House(_registrationId, location, price) */\n      dup2\n      mstore\n      pop\n        /* \"MyHomeToken.sol\":2561:2617  House memory h = House(_registrationId, location, price) */\n      swap1\n      pop\n        /* \"MyHomeToken.sol\":2644:2649  price */\n      dup3\n        /* \"MyHomeToken.sol\":2627:2629  hp */\n      0x01\n        /* \"MyHomeToken.sol\":2627:2640  hp.totalValue */\n      0x02\n      add\n      0x00\n        /* \"MyHomeToken.sol\":2627:2649  hp.totalValue += price */\n      dup3\n      dup3\n      sload\n      tag_267\n      swap2\n      swap1\n      tag_221\n      jump\t// in\n    tag_267:\n      swap3\n      pop\n      pop\n      dup2\n      swap1\n      sstore\n      pop\n        /* \"MyHomeToken.sol\":2659:2672  houseRegister */\n      0x04\n        /* \"MyHomeToken.sol\":2678:2679  h */\n      dup2\n        /* \"MyHomeToken.sol\":2659:2680  houseRegister.push(h) */\n      swap1\n      dup1\n      0x01\n      dup2\n      sload\n      add\n      dup1\n      dup3\n      sstore\n      dup1\n      swap2\n      pop\n      pop\n      0x01\n      swap1\n      sub\n      swap1\n      0x00\n      mstore\n      keccak256(0x00, 0x20)\n      swap1\n      0x03\n      mul\n      add\n      0x00\n      swap1\n      swap2\n      swap1\n      swap2\n      swap1\n      swap2\n      pop\n      0x00\n      dup3\n      add\n      mload\n      dup2\n      0x00\n      add\n      swap1\n      dup1\n      mload\n      swap1\n      0x20\n      add\n      swap1\n      tag_269\n      swap3\n      swap2\n      swap1\n      tag_160\n      jump\t// in\n    tag_269:\n      pop\n      0x20\n      dup3\n      add\n      mload\n      dup2\n      0x01\n      add\n      swap1\n      dup1\n      mload\n      swap1\n      0x20\n      add\n      swap1\n      tag_270\n      swap3\n      swap2\n      swap1\n      tag_160\n      jump\t// in\n    tag_270:\n      pop\n      0x40\n      dup3\n      add\n      mload\n      dup2\n      0x02\n      add\n      sstore\n      pop\n      pop\n        /* \"MyHomeToken.sol\":2705:2706  1 */\n      0x01\n        /* \"MyHomeToken.sol\":2690:2701  totalHouses */\n      0x05\n      0x00\n        /* \"MyHomeToken.sol\":2690:2706  totalHouses += 1 */\n      dup3\n      dup3\n      sload\n      tag_271\n      swap2\n      swap1\n      tag_221\n      jump\t// in\n    tag_271:\n      swap3\n      pop\n      pop\n      dup2\n      swap1\n      sstore\n      pop\n        /* \"MyHomeToken.sol\":2721:2751  NewHouseAdded(_registrationId) */\n      0x4578fe17eaab41ae382abe3462bb0cf04bcfee4168d2aad3ce9d5d225d0e27f6\n        /* \"MyHomeToken.sol\":2735:2750  _registrationId */\n      dup6\n        /* \"MyHomeToken.sol\":2721:2751  NewHouseAdded(_registrationId) */\n      mload(0x40)\n      tag_272\n      swap2\n      swap1\n      tag_273\n      jump\t// in\n    tag_272:\n      mload(0x40)\n      dup1\n      swap2\n      sub\n      swap1\n      log1\n        /* \"MyHomeToken.sol\":2551:2758  {... */\n      pop\n        /* \"MyHomeToken.sol\":1645:1646  _ */\n      pop\n        /* \"MyHomeToken.sol\":2388:2758  function addHouse(string memory _registrationId, string memory location, uint256 price) ... */\n      pop\n      pop\n      pop\n      jump\t// out\n        /* \"MyHomeToken.sol\":692:719  Ballot public currentBallot */\n    tag_137:\n      0x10\n      dup1\n      0x00\n      add\n      dup1\n      sload\n      tag_274\n      swap1\n      tag_146\n      jump\t// in\n    tag_274:\n      dup1\n      0x1f\n      add\n      0x20\n      dup1\n      swap2\n      div\n      mul\n      0x20\n      add\n      mload(0x40)\n      swap1\n      dup2\n      add\n      0x40\n      mstore\n      dup1\n      swap3\n      swap2\n      swap1\n      dup2\n      dup2\n      mstore\n      0x20\n      add\n      dup3\n      dup1\n      sload\n      tag_275\n      swap1\n      tag_146\n      jump\t// in\n    tag_275:\n      dup1\n      iszero\n      tag_276\n      jumpi\n      dup1\n      0x1f\n      lt\n      tag_277\n      jumpi\n      0x0100\n      dup1\n      dup4\n      sload\n      div\n      mul\n      dup4\n      mstore\n      swap2\n      0x20\n      add\n      swap2\n      jump(tag_276)\n    tag_277:\n      dup3\n      add\n      swap2\n      swap1\n      0x00\n      mstore\n      keccak256(0x00, 0x20)\n      swap1\n    tag_278:\n      dup2\n      sload\n      dup2\n      mstore\n      swap1\n      0x01\n      add\n      swap1\n      0x20\n      add\n      dup1\n      dup4\n      gt\n      tag_278\n      jumpi\n      dup3\n      swap1\n      sub\n      0x1f\n      and\n      dup3\n      add\n      swap2\n    tag_276:\n      pop\n      pop\n      pop\n      pop\n      pop\n      swap1\n      dup1\n      0x01\n      add\n      0x00\n      swap1\n      sload\n      swap1\n      0x0100\n      exp\n      swap1\n      div\n      0xffffffffffffffffffffffffffffffffffffffff\n      and\n      swap1\n      dup1\n      0x02\n      add\n      dup1\n      sload\n      tag_279\n      swap1\n      tag_146\n      jump\t// in\n    tag_279:\n      dup1\n      0x1f\n      add\n      0x20\n      dup1\n      swap2\n      div\n      mul\n      0x20\n      add\n      mload(0x40)\n      swap1\n      dup2\n      add\n      0x40\n      mstore\n      dup1\n      swap3\n      swap2\n      swap1\n      dup2\n      dup2\n      mstore\n      0x20\n      add\n      dup3\n      dup1\n      sload\n      tag_280\n      swap1\n      tag_146\n      jump\t// in\n    tag_280:\n      dup1\n      iszero\n      tag_281\n      jumpi\n      dup1\n      0x1f\n      lt\n      tag_282\n      jumpi\n      0x0100\n      dup1\n      dup4\n      sload\n      div\n      mul\n      dup4\n      mstore\n      swap2\n      0x20\n      add\n      swap2\n      jump(tag_281)\n    tag_282:\n      dup3\n      add\n      swap2\n      swap1\n      0x00\n      mstore\n      keccak256(0x00, 0x20)\n      swap1\n    tag_283:\n      dup2\n      sload\n      dup2\n      mstore\n      swap1\n      0x01\n      add\n      swap1\n      0x20\n      add\n      dup1\n      dup4\n      gt\n      tag_283\n      jumpi\n      dup3\n      swap1\n      sub\n      0x1f\n      and\n      dup3\n      add\n      swap2\n    tag_281:\n      pop\n      pop\n      pop\n      pop\n      pop\n      swap1\n      dup1\n      0x03\n      add\n      sload\n      swap1\n      dup1\n      0x04\n      add\n      sload\n      swap1\n      pop\n      dup6\n      jump\t// out\n        /* \"@openzeppelin/contracts/utils/Strings.sol\":392:1095  function toString(uint256 value) internal pure returns (string memory) {... */\n    tag_158:\n        /* \"@openzeppelin/contracts/utils/Strings.sol\":448:461  string memory */\n      0x60\n        /* \"@openzeppelin/contracts/utils/Strings.sol\":674:675  0 */\n      0x00\n        /* \"@openzeppelin/contracts/utils/Strings.sol\":665:670  value */\n      dup3\n        /* \"@openzeppelin/contracts/utils/Strings.sol\":665:675  value == 0 */\n      eq\n        /* \"@openzeppelin/contracts/utils/Strings.sol\":661:712  if (value == 0) {... */\n      iszero\n      tag_285\n      jumpi\n        /* \"@openzeppelin/contracts/utils/Strings.sol\":691:701  return \"0\" */\n      mload(0x40)\n      dup1\n      0x40\n      add\n      0x40\n      mstore\n      dup1\n      0x01\n      dup2\n      mstore\n      0x20\n      add\n      0x3000000000000000000000000000000000000000000000000000000000000000\n      dup2\n      mstore\n      pop\n      swap1\n      pop\n      jump(tag_284)\n        /* \"@openzeppelin/contracts/utils/Strings.sol\":661:712  if (value == 0) {... */\n    tag_285:\n        /* \"@openzeppelin/contracts/utils/Strings.sol\":721:733  uint256 temp */\n      0x00\n        /* \"@openzeppelin/contracts/utils/Strings.sol\":736:741  value */\n      dup3\n        /* \"@openzeppelin/contracts/utils/Strings.sol\":721:741  uint256 temp = value */\n      swap1\n      pop\n        /* \"@openzeppelin/contracts/utils/Strings.sol\":751:765  uint256 digits */\n      0x00\n        /* \"@openzeppelin/contracts/utils/Strings.sol\":775:850  while (temp != 0) {... */\n    tag_286:\n        /* \"@openzeppelin/contracts/utils/Strings.sol\":790:791  0 */\n      0x00\n        /* \"@openzeppelin/contracts/utils/Strings.sol\":782:786  temp */\n      dup3\n        /* \"@openzeppelin/contracts/utils/Strings.sol\":782:791  temp != 0 */\n      eq\n        /* \"@openzeppelin/contracts/utils/Strings.sol\":775:850  while (temp != 0) {... */\n      tag_287\n      jumpi\n        /* \"@openzeppelin/contracts/utils/Strings.sol\":807:815  digits++ */\n      dup1\n      dup1\n      tag_288\n      swap1\n      tag_194\n      jump\t// in\n    tag_288:\n      swap2\n      pop\n      pop\n        /* \"@openzeppelin/contracts/utils/Strings.sol\":837:839  10 */\n      0x0a\n        /* \"@openzeppelin/contracts/utils/Strings.sol\":829:839  temp /= 10 */\n      dup3\n      tag_289\n      swap2\n      swap1\n      tag_211\n      jump\t// in\n    tag_289:\n      swap2\n      pop\n        /* \"@openzeppelin/contracts/utils/Strings.sol\":775:850  while (temp != 0) {... */\n      jump(tag_286)\n    tag_287:\n        /* \"@openzeppelin/contracts/utils/Strings.sol\":859:878  bytes memory buffer */\n      0x00\n        /* \"@openzeppelin/contracts/utils/Strings.sol\":891:897  digits */\n      dup2\n        /* \"@openzeppelin/contracts/utils/Strings.sol\":881:898  new bytes(digits) */\n      0xffffffffffffffff\n      dup2\n      gt\n      iszero\n      tag_290\n      jumpi\n      tag_291\n      tag_292\n      jump\t// in\n    tag_291:\n    tag_290:\n      mload(0x40)\n      swap1\n      dup1\n      dup3\n      mstore\n      dup1\n      0x1f\n      add\n      not(0x1f)\n      and\n      0x20\n      add\n      dup3\n      add\n      0x40\n      mstore\n      dup1\n      iszero\n      tag_293\n      jumpi\n      dup2\n      0x20\n      add\n      0x01\n      dup3\n      mul\n      dup1\n      calldatasize\n      dup4\n      calldatacopy\n      dup1\n      dup3\n      add\n      swap2\n      pop\n      pop\n      swap1\n      pop\n    tag_293:\n      pop\n        /* \"@openzeppelin/contracts/utils/Strings.sol\":859:898  bytes memory buffer = new bytes(digits) */\n      swap1\n      pop\n        /* \"@openzeppelin/contracts/utils/Strings.sol\":908:1058  while (value != 0) {... */\n    tag_294:\n        /* \"@openzeppelin/contracts/utils/Strings.sol\":924:925  0 */\n      0x00\n        /* \"@openzeppelin/contracts/utils/Strings.sol\":915:920  value */\n      dup6\n        /* \"@openzeppelin/contracts/utils/Strings.sol\":915:925  value != 0 */\n      eq\n        /* \"@openzeppelin/contracts/utils/Strings.sol\":908:1058  while (value != 0) {... */\n      tag_295\n      jumpi\n        /* \"@openzeppelin/contracts/utils/Strings.sol\":951:952  1 */\n      0x01\n        /* \"@openzeppelin/contracts/utils/Strings.sol\":941:952  digits -= 1 */\n      dup3\n      tag_296\n      swap2\n      swap1\n      tag_219\n      jump\t// in\n    tag_296:\n      swap2\n      pop\n        /* \"@openzeppelin/contracts/utils/Strings.sol\":1017:1019  10 */\n      0x0a\n        /* \"@openzeppelin/contracts/utils/Strings.sol\":1009:1014  value */\n      dup6\n        /* \"@openzeppelin/contracts/utils/Strings.sol\":1009:1019  value % 10 */\n      tag_297\n      swap2\n      swap1\n      tag_298\n      jump\t// in\n    tag_297:\n        /* \"@openzeppelin/contracts/utils/Strings.sol\":996:998  48 */\n      0x30\n        /* \"@openzeppelin/contracts/utils/Strings.sol\":996:1020  48 + uint256(value % 10) */\n      tag_299\n      swap2\n      swap1\n      tag_221\n      jump\t// in\n    tag_299:\n        /* \"@openzeppelin/contracts/utils/Strings.sol\":983:1022  bytes1(uint8(48 + uint256(value % 10))) */\n      0xf8\n      shl\n        /* \"@openzeppelin/contracts/utils/Strings.sol\":966:972  buffer */\n      dup2\n        /* \"@openzeppelin/contracts/utils/Strings.sol\":973:979  digits */\n      dup4\n        /* \"@openzeppelin/contracts/utils/Strings.sol\":966:980  buffer[digits] */\n      dup2\n      mload\n      dup2\n      lt\n      tag_300\n      jumpi\n      tag_301\n      tag_302\n      jump\t// in\n    tag_301:\n    tag_300:\n      0x20\n      add\n      add\n        /* \"@openzeppelin/contracts/utils/Strings.sol\":966:1022  buffer[digits] = bytes1(uint8(48 + uint256(value % 10))) */\n      swap1\n      not(0xffffffffffffffffffffffffffffffffffffffffffffffffffffffffffffff)\n      and\n      swap1\n      dup2\n      0x00\n      byte\n      swap1\n      mstore8\n      pop\n        /* \"@openzeppelin/contracts/utils/Strings.sol\":1045:1047  10 */\n      0x0a\n        /* \"@openzeppelin/contracts/utils/Strings.sol\":1036:1047  value /= 10 */\n      dup6\n      tag_303\n      swap2\n      swap1\n      tag_211\n      jump\t// in\n    tag_303:\n      swap5\n      pop\n        /* \"@openzeppelin/contracts/utils/Strings.sol\":908:1058  while (value != 0) {... */\n      jump(tag_294)\n    tag_295:\n        /* \"@openzeppelin/contracts/utils/Strings.sol\":1081:1087  buffer */\n      dup1\n        /* \"@openzeppelin/contracts/utils/Strings.sol\":1067:1088  return string(buffer) */\n      swap4\n      pop\n      pop\n      pop\n      pop\n        /* \"@openzeppelin/contracts/utils/Strings.sol\":392:1095  function toString(uint256 value) internal pure returns (string memory) {... */\n    tag_284:\n      swap2\n      swap1\n      pop\n      jump\t// out\n        /* \"MyHomeToken.sol\":2764:3036  function contains(address _shareHolderAddress) private view returns(bool) {... */\n    tag_230:\n        /* \"MyHomeToken.sol\":2832:2836  bool */\n      0x00\n        /* \"MyHomeToken.sol\":2853:2859  uint i */\n      dup1\n        /* \"MyHomeToken.sol\":2862:2863  0 */\n      0x00\n        /* \"MyHomeToken.sol\":2853:2863  uint i = 0 */\n      swap1\n      pop\n        /* \"MyHomeToken.sol\":2848:3007  for (uint i = 0; i < shareHolders.length; i++) {... */\n    tag_305:\n        /* \"MyHomeToken.sol\":2869:2881  shareHolders */\n      0x0b\n        /* \"MyHomeToken.sol\":2869:2888  shareHolders.length */\n      dup1\n      sload\n      swap1\n      pop\n        /* \"MyHomeToken.sol\":2865:2866  i */\n      dup2\n        /* \"MyHomeToken.sol\":2865:2888  i < shareHolders.length */\n      lt\n        /* \"MyHomeToken.sol\":2848:3007  for (uint i = 0; i < shareHolders.length; i++) {... */\n      iszero\n      tag_306\n      jumpi\n        /* \"MyHomeToken.sol\":2932:2951  _shareHolderAddress */\n      dup3\n        /* \"MyHomeToken.sol\":2913:2951  shareHolders[i] == _shareHolderAddress */\n      0xffffffffffffffffffffffffffffffffffffffff\n      and\n        /* \"MyHomeToken.sol\":2913:2925  shareHolders */\n      0x0b\n        /* \"MyHomeToken.sol\":2926:2927  i */\n      dup3\n        /* \"MyHomeToken.sol\":2913:2928  shareHolders[i] */\n      dup2\n      sload\n      dup2\n      lt\n      tag_308\n      jumpi\n      tag_309\n      tag_302\n      jump\t// in\n    tag_309:\n    tag_308:\n      swap1\n      0x00\n      mstore\n      keccak256(0x00, 0x20)\n      add\n      0x00\n      swap1\n      sload\n      swap1\n      0x0100\n      exp\n      swap1\n      div\n      0xffffffffffffffffffffffffffffffffffffffff\n      and\n        /* \"MyHomeToken.sol\":2913:2951  shareHolders[i] == _shareHolderAddress */\n      0xffffffffffffffffffffffffffffffffffffffff\n      and\n      eq\n        /* \"MyHomeToken.sol\":2909:2997  if (shareHolders[i] == _shareHolderAddress) {... */\n      iszero\n      tag_311\n      jumpi\n        /* \"MyHomeToken.sol\":2978:2982  true */\n      0x01\n        /* \"MyHomeToken.sol\":2971:2982  return true */\n      swap2\n      pop\n      pop\n      jump(tag_304)\n        /* \"MyHomeToken.sol\":2909:2997  if (shareHolders[i] == _shareHolderAddress) {... */\n    tag_311:\n        /* \"MyHomeToken.sol\":2890:2893  i++ */\n      dup1\n      dup1\n      tag_312\n      swap1\n      tag_194\n      jump\t// in\n    tag_312:\n      swap2\n      pop\n      pop\n        /* \"MyHomeToken.sol\":2848:3007  for (uint i = 0; i < shareHolders.length; i++) {... */\n      jump(tag_305)\n    tag_306:\n      pop\n        /* \"MyHomeToken.sol\":3024:3029  false */\n      0x00\n        /* \"MyHomeToken.sol\":3017:3029  return false */\n      swap1\n      pop\n        /* \"MyHomeToken.sol\":2764:3036  function contains(address _shareHolderAddress) private view returns(bool) {... */\n    tag_304:\n      swap2\n      swap1\n      pop\n      jump\t// out\n    tag_160:\n      dup3\n      dup1\n      sload\n      tag_313\n      swap1\n      tag_146\n      jump\t// in\n    tag_313:\n      swap1\n      0x00\n      mstore\n      keccak256(0x00, 0x20)\n      swap1\n      0x1f\n      add\n      0x20\n      swap1\n      div\n      dup2\n      add\n      swap3\n      dup3\n      tag_315\n      jumpi\n      0x00\n      dup6\n      sstore\n      jump(tag_314)\n    tag_315:\n      dup3\n      0x1f\n      lt\n      tag_316\n      jumpi\n      dup1\n      mload\n      not(0xff)\n      and\n      dup4\n      dup1\n      add\n      or\n      dup6\n      sstore\n      jump(tag_314)\n    tag_316:\n      dup3\n      dup1\n      add\n      0x01\n      add\n      dup6\n      sstore\n      dup3\n      iszero\n      tag_314\n      jumpi\n      swap2\n      dup3\n      add\n    tag_317:\n      dup3\n      dup2\n      gt\n      iszero\n      tag_318\n      jumpi\n      dup3\n      mload\n      dup3\n      sstore\n      swap2\n      0x20\n      add\n      swap2\n      swap1\n      0x01\n      add\n      swap1\n      jump(tag_317)\n    tag_318:\n    tag_314:\n      pop\n      swap1\n      pop\n      tag_319\n      swap2\n      swap1\n      tag_320\n      jump\t// in\n    tag_319:\n      pop\n      swap1\n      jump\t// out\n    tag_166:\n      dup3\n      dup1\n      sload\n      tag_321\n      swap1\n      tag_146\n      jump\t// in\n    tag_321:\n      swap1\n      0x00\n      mstore\n      keccak256(0x00, 0x20)\n      swap1\n      0x1f\n      add\n      0x20\n      swap1\n      div\n      dup2\n      add\n      swap3\n      dup3\n      tag_323\n      jumpi\n      0x00\n      dup6\n      sstore\n      jump(tag_322)\n    tag_323:\n      dup3\n      0x1f\n      lt\n      tag_324\n      jumpi\n      dup1\n      sload\n      dup6\n      sstore\n      jump(tag_322)\n    tag_324:\n      dup3\n      dup1\n      add\n      0x01\n      add\n      dup6\n      sstore\n      dup3\n      iszero\n      tag_322\n      jumpi\n      0x00\n      mstore\n      keccak256(0x00, 0x20)\n      swap2\n      0x1f\n      add\n      0x20\n      swap1\n      div\n      dup3\n      add\n    tag_325:\n      dup3\n      dup2\n      gt\n      iszero\n      tag_326\n      jumpi\n      dup3\n      sload\n      dup3\n      sstore\n      swap2\n      0x01\n      add\n      swap2\n      swap1\n      0x01\n      add\n      swap1\n      jump(tag_325)\n    tag_326:\n    tag_322:\n      pop\n      swap1\n      pop\n      tag_327\n      swap2\n      swap1\n      tag_320\n      jump\t// in\n    tag_327:\n      pop\n      swap1\n      jump\t// out\n    tag_191:\n      mload(0x40)\n      dup1\n      0x40\n      add\n      0x40\n      mstore\n      dup1\n      and(0xffffffffffffffffffffffffffffffffffffffff, 0x00)\n      dup2\n      mstore\n      0x20\n      add\n      iszero(iszero(0x00))\n      dup2\n      mstore\n      pop\n      swap1\n      jump\t// out\n    tag_320:\n    tag_328:\n      dup1\n      dup3\n      gt\n      iszero\n      tag_329\n      jumpi\n      0x00\n      dup2\n      0x00\n      swap1\n      sstore\n      pop\n      0x01\n      add\n      jump(tag_328)\n    tag_329:\n      pop\n      swap1\n      jump\t// out\n        /* \"#utility.yul\":7:419   */\n    tag_331:\n        /* \"#utility.yul\":85:90   */\n      0x00\n        /* \"#utility.yul\":110:176   */\n      tag_333\n        /* \"#utility.yul\":126:175   */\n      tag_334\n        /* \"#utility.yul\":168:174   */\n      dup5\n        /* \"#utility.yul\":126:175   */\n      tag_335\n      jump\t// in\n    tag_334:\n        /* \"#utility.yul\":110:176   */\n      tag_336\n      jump\t// in\n    tag_333:\n        /* \"#utility.yul\":101:176   */\n      swap1\n      pop\n        /* \"#utility.yul\":199:205   */\n      dup3\n        /* \"#utility.yul\":192:197   */\n      dup2\n        /* \"#utility.yul\":185:206   */\n      mstore\n        /* \"#utility.yul\":237:241   */\n      0x20\n        /* \"#utility.yul\":230:235   */\n      dup2\n        /* \"#utility.yul\":226:242   */\n      add\n        /* \"#utility.yul\":275:278   */\n      dup5\n        /* \"#utility.yul\":266:272   */\n      dup5\n        /* \"#utility.yul\":261:264   */\n      dup5\n        /* \"#utility.yul\":257:273   */\n      add\n        /* \"#utility.yul\":254:279   */\n      gt\n        /* \"#utility.yul\":251:363   */\n      iszero\n      tag_337\n      jumpi\n        /* \"#utility.yul\":282:361   */\n      tag_338\n      tag_339\n      jump\t// in\n    tag_338:\n        /* \"#utility.yul\":251:363   */\n    tag_337:\n        /* \"#utility.yul\":372:413   */\n      tag_340\n        /* \"#utility.yul\":406:412   */\n      dup5\n        /* \"#utility.yul\":401:404   */\n      dup3\n        /* \"#utility.yul\":396:399   */\n      dup6\n        /* \"#utility.yul\":372:413   */\n      tag_341\n      jump\t// in\n    tag_340:\n        /* \"#utility.yul\":91:419   */\n      pop\n        /* \"#utility.yul\":7:419   */\n      swap4\n      swap3\n      pop\n      pop\n      pop\n      jump\t// out\n        /* \"#utility.yul\":425:564   */\n    tag_342:\n        /* \"#utility.yul\":471:476   */\n      0x00\n        /* \"#utility.yul\":509:515   */\n      dup2\n        /* \"#utility.yul\":496:516   */\n      calldataload\n        /* \"#utility.yul\":487:516   */\n      swap1\n      pop\n        /* \"#utility.yul\":525:558   */\n      tag_344\n        /* \"#utility.yul\":552:557   */\n      dup2\n        /* \"#utility.yul\":525:558   */\n      tag_345\n      jump\t// in\n    tag_344:\n        /* \"#utility.yul\":425:564   */\n      swap3\n      swap2\n      pop\n      pop\n      jump\t// out\n        /* \"#utility.yul\":570:703   */\n    tag_346:\n        /* \"#utility.yul\":613:618   */\n      0x00\n        /* \"#utility.yul\":651:657   */\n      dup2\n        /* \"#utility.yul\":638:658   */\n      calldataload\n        /* \"#utility.yul\":629:658   */\n      swap1\n      pop\n        /* \"#utility.yul\":667:697   */\n      tag_348\n        /* \"#utility.yul\":691:696   */\n      dup2\n        /* \"#utility.yul\":667:697   */\n      tag_349\n      jump\t// in\n    tag_348:\n        /* \"#utility.yul\":570:703   */\n      swap3\n      swap2\n      pop\n      pop\n      jump\t// out\n        /* \"#utility.yul\":723:1063   */\n    tag_350:\n        /* \"#utility.yul\":779:784   */\n      0x00\n        /* \"#utility.yul\":828:831   */\n      dup3\n        /* \"#utility.yul\":821:825   */\n      0x1f\n        /* \"#utility.yul\":813:819   */\n      dup4\n        /* \"#utility.yul\":809:826   */\n      add\n        /* \"#utility.yul\":805:832   */\n      slt\n        /* \"#utility.yul\":795:917   */\n      tag_352\n      jumpi\n        /* \"#utility.yul\":836:915   */\n      tag_353\n      tag_354\n      jump\t// in\n    tag_353:\n        /* \"#utility.yul\":795:917   */\n    tag_352:\n        /* \"#utility.yul\":953:959   */\n      dup2\n        /* \"#utility.yul\":940:960   */\n      calldataload\n        /* \"#utility.yul\":978:1057   */\n      tag_355\n        /* \"#utility.yul\":1053:1056   */\n      dup5\n        /* \"#utility.yul\":1045:1051   */\n      dup3\n        /* \"#utility.yul\":1038:1042   */\n      0x20\n        /* \"#utility.yul\":1030:1036   */\n      dup7\n        /* \"#utility.yul\":1026:1043   */\n      add\n        /* \"#utility.yul\":978:1057   */\n      tag_331\n      jump\t// in\n    tag_355:\n        /* \"#utility.yul\":969:1057   */\n      swap2\n      pop\n        /* \"#utility.yul\":785:1063   */\n      pop\n        /* \"#utility.yul\":723:1063   */\n      swap3\n      swap2\n      pop\n      pop\n      jump\t// out\n        /* \"#utility.yul\":1069:1208   */\n    tag_356:\n        /* \"#utility.yul\":1115:1120   */\n      0x00\n        /* \"#utility.yul\":1153:1159   */\n      dup2\n        /* \"#utility.yul\":1140:1160   */\n      calldataload\n        /* \"#utility.yul\":1131:1160   */\n      swap1\n      pop\n        /* \"#utility.yul\":1169:1202   */\n      tag_358\n        /* \"#utility.yul\":1196:1201   */\n      dup2\n        /* \"#utility.yul\":1169:1202   */\n      tag_359\n      jump\t// in\n    tag_358:\n        /* \"#utility.yul\":1069:1208   */\n      swap3\n      swap2\n      pop\n      pop\n      jump\t// out\n        /* \"#utility.yul\":1214:1543   */\n    tag_37:\n        /* \"#utility.yul\":1273:1279   */\n      0x00\n        /* \"#utility.yul\":1322:1324   */\n      0x20\n        /* \"#utility.yul\":1310:1319   */\n      dup3\n        /* \"#utility.yul\":1301:1308   */\n      dup5\n        /* \"#utility.yul\":1297:1320   */\n      sub\n        /* \"#utility.yul\":1293:1325   */\n      slt\n        /* \"#utility.yul\":1290:1409   */\n      iszero\n      tag_361\n      jumpi\n        /* \"#utility.yul\":1328:1407   */\n      tag_362\n      tag_363\n      jump\t// in\n    tag_362:\n        /* \"#utility.yul\":1290:1409   */\n    tag_361:\n        /* \"#utility.yul\":1448:1449   */\n      0x00\n        /* \"#utility.yul\":1473:1526   */\n      tag_364\n        /* \"#utility.yul\":1518:1525   */\n      dup5\n        /* \"#utility.yul\":1509:1515   */\n      dup3\n        /* \"#utility.yul\":1498:1507   */\n      dup6\n        /* \"#utility.yul\":1494:1516   */\n      add\n        /* \"#utility.yul\":1473:1526   */\n      tag_342\n      jump\t// in\n    tag_364:\n        /* \"#utility.yul\":1463:1526   */\n      swap2\n      pop\n        /* \"#utility.yul\":1419:1536   */\n      pop\n        /* \"#utility.yul\":1214:1543   */\n      swap3\n      swap2\n      pop\n      pop\n      jump\t// out\n        /* \"#utility.yul\":1549:2023   */\n    tag_112:\n        /* \"#utility.yul\":1617:1623   */\n      0x00\n        /* \"#utility.yul\":1625:1631   */\n      dup1\n        /* \"#utility.yul\":1674:1676   */\n      0x40\n        /* \"#utility.yul\":1662:1671   */\n      dup4\n        /* \"#utility.yul\":1653:1660   */\n      dup6\n        /* \"#utility.yul\":1649:1672   */\n      sub\n        /* \"#utility.yul\":1645:1677   */\n      slt\n        /* \"#utility.yul\":1642:1761   */\n      iszero\n      tag_366\n      jumpi\n        /* \"#utility.yul\":1680:1759   */\n      tag_367\n      tag_363\n      jump\t// in\n    tag_367:\n        /* \"#utility.yul\":1642:1761   */\n    tag_366:\n        /* \"#utility.yul\":1800:1801   */\n      0x00\n        /* \"#utility.yul\":1825:1878   */\n      tag_368\n        /* \"#utility.yul\":1870:1877   */\n      dup6\n        /* \"#utility.yul\":1861:1867   */\n      dup3\n        /* \"#utility.yul\":1850:1859   */\n      dup7\n        /* \"#utility.yul\":1846:1868   */\n      add\n        /* \"#utility.yul\":1825:1878   */\n      tag_342\n      jump\t// in\n    tag_368:\n        /* \"#utility.yul\":1815:1878   */\n      swap3\n      pop\n        /* \"#utility.yul\":1771:1888   */\n      pop\n        /* \"#utility.yul\":1927:1929   */\n      0x20\n        /* \"#utility.yul\":1953:2006   */\n      tag_369\n        /* \"#utility.yul\":1998:2005   */\n      dup6\n        /* \"#utility.yul\":1989:1995   */\n      dup3\n        /* \"#utility.yul\":1978:1987   */\n      dup7\n        /* \"#utility.yul\":1974:1996   */\n      add\n        /* \"#utility.yul\":1953:2006   */\n      tag_356\n      jump\t// in\n    tag_369:\n        /* \"#utility.yul\":1943:2006   */\n      swap2\n      pop\n        /* \"#utility.yul\":1898:2016   */\n      pop\n        /* \"#utility.yul\":1549:2023   */\n      swap3\n      pop\n      swap3\n      swap1\n      pop\n      jump\t// out\n        /* \"#utility.yul\":2029:2352   */\n    tag_89:\n        /* \"#utility.yul\":2085:2091   */\n      0x00\n        /* \"#utility.yul\":2134:2136   */\n      0x20\n        /* \"#utility.yul\":2122:2131   */\n      dup3\n        /* \"#utility.yul\":2113:2120   */\n      dup5\n        /* \"#utility.yul\":2109:2132   */\n      sub\n        /* \"#utility.yul\":2105:2137   */\n      slt\n        /* \"#utility.yul\":2102:2221   */\n      iszero\n      tag_371\n      jumpi\n        /* \"#utility.yul\":2140:2219   */\n      tag_372\n      tag_363\n      jump\t// in\n    tag_372:\n        /* \"#utility.yul\":2102:2221   */\n    tag_371:\n        /* \"#utility.yul\":2260:2261   */\n      0x00\n        /* \"#utility.yul\":2285:2335   */\n      tag_373\n        /* \"#utility.yul\":2327:2334   */\n      dup5\n        /* \"#utility.yul\":2318:2324   */\n      dup3\n        /* \"#utility.yul\":2307:2316   */\n      dup6\n        /* \"#utility.yul\":2303:2325   */\n      add\n        /* \"#utility.yul\":2285:2335   */\n      tag_346\n      jump\t// in\n    tag_373:\n        /* \"#utility.yul\":2275:2335   */\n      swap2\n      pop\n        /* \"#utility.yul\":2231:2345   */\n      pop\n        /* \"#utility.yul\":2029:2352   */\n      swap3\n      swap2\n      pop\n      pop\n      jump\t// out\n        /* \"#utility.yul\":2358:2867   */\n    tag_61:\n        /* \"#utility.yul\":2427:2433   */\n      0x00\n        /* \"#utility.yul\":2476:2478   */\n      0x20\n        /* \"#utility.yul\":2464:2473   */\n      dup3\n        /* \"#utility.yul\":2455:2462   */\n      dup5\n        /* \"#utility.yul\":2451:2474   */\n      sub\n        /* \"#utility.yul\":2447:2479   */\n      slt\n        /* \"#utility.yul\":2444:2563   */\n      iszero\n      tag_375\n      jumpi\n        /* \"#utility.yul\":2482:2561   */\n      tag_376\n      tag_363\n      jump\t// in\n    tag_376:\n        /* \"#utility.yul\":2444:2563   */\n    tag_375:\n        /* \"#utility.yul\":2630:2631   */\n      0x00\n        /* \"#utility.yul\":2619:2628   */\n      dup3\n        /* \"#utility.yul\":2615:2632   */\n      add\n        /* \"#utility.yul\":2602:2633   */\n      calldataload\n        /* \"#utility.yul\":2660:2678   */\n      0xffffffffffffffff\n        /* \"#utility.yul\":2652:2658   */\n      dup2\n        /* \"#utility.yul\":2649:2679   */\n      gt\n        /* \"#utility.yul\":2646:2763   */\n      iszero\n      tag_377\n      jumpi\n        /* \"#utility.yul\":2682:2761   */\n      tag_378\n      tag_379\n      jump\t// in\n    tag_378:\n        /* \"#utility.yul\":2646:2763   */\n    tag_377:\n        /* \"#utility.yul\":2787:2850   */\n      tag_380\n        /* \"#utility.yul\":2842:2849   */\n      dup5\n        /* \"#utility.yul\":2833:2839   */\n      dup3\n        /* \"#utility.yul\":2822:2831   */\n      dup6\n        /* \"#utility.yul\":2818:2840   */\n      add\n        /* \"#utility.yul\":2787:2850   */\n      tag_350\n      jump\t// in\n    tag_380:\n        /* \"#utility.yul\":2777:2850   */\n      swap2\n      pop\n        /* \"#utility.yul\":2573:2860   */\n      pop\n        /* \"#utility.yul\":2358:2867   */\n      swap3\n      swap2\n      pop\n      pop\n      jump\t// out\n        /* \"#utility.yul\":2873:3852   */\n    tag_133:\n        /* \"#utility.yul\":2970:2976   */\n      0x00\n        /* \"#utility.yul\":2978:2984   */\n      dup1\n        /* \"#utility.yul\":2986:2992   */\n      0x00\n        /* \"#utility.yul\":3035:3037   */\n      0x60\n        /* \"#utility.yul\":3023:3032   */\n      dup5\n        /* \"#utility.yul\":3014:3021   */\n      dup7\n        /* \"#utility.yul\":3010:3033   */\n      sub\n        /* \"#utility.yul\":3006:3038   */\n      slt\n        /* \"#utility.yul\":3003:3122   */\n      iszero\n      tag_382\n      jumpi\n        /* \"#utility.yul\":3041:3120   */\n      tag_383\n      tag_363\n      jump\t// in\n    tag_383:\n        /* \"#utility.yul\":3003:3122   */\n    tag_382:\n        /* \"#utility.yul\":3189:3190   */\n      0x00\n        /* \"#utility.yul\":3178:3187   */\n      dup5\n        /* \"#utility.yul\":3174:3191   */\n      add\n        /* \"#utility.yul\":3161:3192   */\n      calldataload\n        /* \"#utility.yul\":3219:3237   */\n      0xffffffffffffffff\n        /* \"#utility.yul\":3211:3217   */\n      dup2\n        /* \"#utility.yul\":3208:3238   */\n      gt\n        /* \"#utility.yul\":3205:3322   */\n      iszero\n      tag_384\n      jumpi\n        /* \"#utility.yul\":3241:3320   */\n      tag_385\n      tag_379\n      jump\t// in\n    tag_385:\n        /* \"#utility.yul\":3205:3322   */\n    tag_384:\n        /* \"#utility.yul\":3346:3409   */\n      tag_386\n        /* \"#utility.yul\":3401:3408   */\n      dup7\n        /* \"#utility.yul\":3392:3398   */\n      dup3\n        /* \"#utility.yul\":3381:3390   */\n      dup8\n        /* \"#utility.yul\":3377:3399   */\n      add\n        /* \"#utility.yul\":3346:3409   */\n      tag_350\n      jump\t// in\n    tag_386:\n        /* \"#utility.yul\":3336:3409   */\n      swap4\n      pop\n        /* \"#utility.yul\":3132:3419   */\n      pop\n        /* \"#utility.yul\":3486:3488   */\n      0x20\n        /* \"#utility.yul\":3475:3484   */\n      dup5\n        /* \"#utility.yul\":3471:3489   */\n      add\n        /* \"#utility.yul\":3458:3490   */\n      calldataload\n        /* \"#utility.yul\":3517:3535   */\n      0xffffffffffffffff\n        /* \"#utility.yul\":3509:3515   */\n      dup2\n        /* \"#utility.yul\":3506:3536   */\n      gt\n        /* \"#utility.yul\":3503:3620   */\n      iszero\n      tag_387\n      jumpi\n        /* \"#utility.yul\":3539:3618   */\n      tag_388\n      tag_379\n      jump\t// in\n    tag_388:\n        /* \"#utility.yul\":3503:3620   */\n    tag_387:\n        /* \"#utility.yul\":3644:3707   */\n      tag_389\n        /* \"#utility.yul\":3699:3706   */\n      dup7\n        /* \"#utility.yul\":3690:3696   */\n      dup3\n        /* \"#utility.yul\":3679:3688   */\n      dup8\n        /* \"#utility.yul\":3675:3697   */\n      add\n        /* \"#utility.yul\":3644:3707   */\n      tag_350\n      jump\t// in\n    tag_389:\n        /* \"#utility.yul\":3634:3707   */\n      swap3\n      pop\n        /* \"#utility.yul\":3429:3717   */\n      pop\n        /* \"#utility.yul\":3756:3758   */\n      0x40\n        /* \"#utility.yul\":3782:3835   */\n      tag_390\n        /* \"#utility.yul\":3827:3834   */\n      dup7\n        /* \"#utility.yul\":3818:3824   */\n      dup3\n        /* \"#utility.yul\":3807:3816   */\n      dup8\n        /* \"#utility.yul\":3803:3825   */\n      add\n        /* \"#utility.yul\":3782:3835   */\n      tag_356\n      jump\t// in\n    tag_390:\n        /* \"#utility.yul\":3772:3835   */\n      swap2\n      pop\n        /* \"#utility.yul\":3727:3845   */\n      pop\n        /* \"#utility.yul\":2873:3852   */\n      swap3\n      pop\n      swap3\n      pop\n      swap3\n      jump\t// out\n        /* \"#utility.yul\":3858:4187   */\n    tag_46:\n        /* \"#utility.yul\":3917:3923   */\n      0x00\n        /* \"#utility.yul\":3966:3968   */\n      0x20\n        /* \"#utility.yul\":3954:3963   */\n      dup3\n        /* \"#utility.yul\":3945:3952   */\n      dup5\n        /* \"#utility.yul\":3941:3964   */\n      sub\n        /* \"#utility.yul\":3937:3969   */\n      slt\n        /* \"#utility.yul\":3934:4053   */\n      iszero\n      tag_392\n      jumpi\n        /* \"#utility.yul\":3972:4051   */\n      tag_393\n      tag_363\n      jump\t// in\n    tag_393:\n        /* \"#utility.yul\":3934:4053   */\n    tag_392:\n        /* \"#utility.yul\":4092:4093   */\n      0x00\n        /* \"#utility.yul\":4117:4170   */\n      tag_394\n        /* \"#utility.yul\":4162:4169   */\n      dup5\n        /* \"#utility.yul\":4153:4159   */\n      dup3\n        /* \"#utility.yul\":4142:4151   */\n      dup6\n        /* \"#utility.yul\":4138:4160   */\n      add\n        /* \"#utility.yul\":4117:4170   */\n      tag_356\n      jump\t// in\n    tag_394:\n        /* \"#utility.yul\":4107:4170   */\n      swap2\n      pop\n        /* \"#utility.yul\":4063:4180   */\n      pop\n        /* \"#utility.yul\":3858:4187   */\n      swap3\n      swap2\n      pop\n      pop\n      jump\t// out\n        /* \"#utility.yul\":4193:4335   */\n    tag_395:\n        /* \"#utility.yul\":4296:4328   */\n      tag_397\n        /* \"#utility.yul\":4322:4327   */\n      dup2\n        /* \"#utility.yul\":4296:4328   */\n      tag_398\n      jump\t// in\n    tag_397:\n        /* \"#utility.yul\":4291:4294   */\n      dup3\n        /* \"#utility.yul\":4284:4329   */\n      mstore\n        /* \"#utility.yul\":4193:4335   */\n      pop\n      pop\n      jump\t// out\n        /* \"#utility.yul\":4341:4459   */\n    tag_399:\n        /* \"#utility.yul\":4428:4452   */\n      tag_401\n        /* \"#utility.yul\":4446:4451   */\n      dup2\n        /* \"#utility.yul\":4428:4452   */\n      tag_402\n      jump\t// in\n    tag_401:\n        /* \"#utility.yul\":4423:4426   */\n      dup3\n        /* \"#utility.yul\":4416:4453   */\n      mstore\n        /* \"#utility.yul\":4341:4459   */\n      pop\n      pop\n      jump\t// out\n        /* \"#utility.yul\":4465:4574   */\n    tag_403:\n        /* \"#utility.yul\":4546:4567   */\n      tag_405\n        /* \"#utility.yul\":4561:4566   */\n      dup2\n        /* \"#utility.yul\":4546:4567   */\n      tag_406\n      jump\t// in\n    tag_405:\n        /* \"#utility.yul\":4541:4544   */\n      dup3\n        /* \"#utility.yul\":4534:4568   */\n      mstore\n        /* \"#utility.yul\":4465:4574   */\n      pop\n      pop\n      jump\t// out\n        /* \"#utility.yul\":4580:4944   */\n    tag_407:\n        /* \"#utility.yul\":4668:4671   */\n      0x00\n        /* \"#utility.yul\":4696:4735   */\n      tag_409\n        /* \"#utility.yul\":4729:4734   */\n      dup3\n        /* \"#utility.yul\":4696:4735   */\n      tag_410\n      jump\t// in\n    tag_409:\n        /* \"#utility.yul\":4751:4822   */\n      tag_411\n        /* \"#utility.yul\":4815:4821   */\n      dup2\n        /* \"#utility.yul\":4810:4813   */\n      dup6\n        /* \"#utility.yul\":4751:4822   */\n      tag_412\n      jump\t// in\n    tag_411:\n        /* \"#utility.yul\":4744:4822   */\n      swap4\n      pop\n        /* \"#utility.yul\":4831:4883   */\n      tag_413\n        /* \"#utility.yul\":4876:4882   */\n      dup2\n        /* \"#utility.yul\":4871:4874   */\n      dup6\n        /* \"#utility.yul\":4864:4868   */\n      0x20\n        /* \"#utility.yul\":4857:4862   */\n      dup7\n        /* \"#utility.yul\":4853:4869   */\n      add\n        /* \"#utility.yul\":4831:4883   */\n      tag_414\n      jump\t// in\n    tag_413:\n        /* \"#utility.yul\":4908:4937   */\n      tag_415\n        /* \"#utility.yul\":4930:4936   */\n      dup2\n        /* \"#utility.yul\":4908:4937   */\n      tag_416\n      jump\t// in\n    tag_415:\n        /* \"#utility.yul\":4903:4906   */\n      dup5\n        /* \"#utility.yul\":4899:4938   */\n      add\n        /* \"#utility.yul\":4892:4938   */\n      swap2\n      pop\n        /* \"#utility.yul\":4672:4944   */\n      pop\n        /* \"#utility.yul\":4580:4944   */\n      swap3\n      swap2\n      pop\n      pop\n      jump\t// out\n        /* \"#utility.yul\":4950:5316   */\n    tag_417:\n        /* \"#utility.yul\":5092:5095   */\n      0x00\n        /* \"#utility.yul\":5113:5180   */\n      tag_419\n        /* \"#utility.yul\":5177:5179   */\n      0x23\n        /* \"#utility.yul\":5172:5175   */\n      dup4\n        /* \"#utility.yul\":5113:5180   */\n      tag_412\n      jump\t// in\n    tag_419:\n        /* \"#utility.yul\":5106:5180   */\n      swap2\n      pop\n        /* \"#utility.yul\":5189:5282   */\n      tag_420\n        /* \"#utility.yul\":5278:5281   */\n      dup3\n        /* \"#utility.yul\":5189:5282   */\n      tag_421\n      jump\t// in\n    tag_420:\n        /* \"#utility.yul\":5307:5309   */\n      0x40\n        /* \"#utility.yul\":5302:5305   */\n      dup3\n        /* \"#utility.yul\":5298:5310   */\n      add\n        /* \"#utility.yul\":5291:5310   */\n      swap1\n      pop\n        /* \"#utility.yul\":4950:5316   */\n      swap2\n      swap1\n      pop\n      jump\t// out\n        /* \"#utility.yul\":5322:5440   */\n    tag_422:\n        /* \"#utility.yul\":5409:5433   */\n      tag_424\n        /* \"#utility.yul\":5427:5432   */\n      dup2\n        /* \"#utility.yul\":5409:5433   */\n      tag_425\n      jump\t// in\n    tag_424:\n        /* \"#utility.yul\":5404:5407   */\n      dup3\n        /* \"#utility.yul\":5397:5434   */\n      mstore\n        /* \"#utility.yul\":5322:5440   */\n      pop\n      pop\n      jump\t// out\n        /* \"#utility.yul\":5446:5668   */\n    tag_81:\n        /* \"#utility.yul\":5539:5543   */\n      0x00\n        /* \"#utility.yul\":5577:5579   */\n      0x20\n        /* \"#utility.yul\":5566:5575   */\n      dup3\n        /* \"#utility.yul\":5562:5580   */\n      add\n        /* \"#utility.yul\":5554:5580   */\n      swap1\n      pop\n        /* \"#utility.yul\":5590:5661   */\n      tag_427\n        /* \"#utility.yul\":5658:5659   */\n      0x00\n        /* \"#utility.yul\":5647:5656   */\n      dup4\n        /* \"#utility.yul\":5643:5660   */\n      add\n        /* \"#utility.yul\":5634:5640   */\n      dup5\n        /* \"#utility.yul\":5590:5661   */\n      tag_399\n      jump\t// in\n    tag_427:\n        /* \"#utility.yul\":5446:5668   */\n      swap3\n      swap2\n      pop\n      pop\n      jump\t// out\n        /* \"#utility.yul\":5674:5928   */\n    tag_96:\n        /* \"#utility.yul\":5783:5787   */\n      0x00\n        /* \"#utility.yul\":5821:5823   */\n      0x20\n        /* \"#utility.yul\":5810:5819   */\n      dup3\n        /* \"#utility.yul\":5806:5824   */\n      add\n        /* \"#utility.yul\":5798:5824   */\n      swap1\n      pop\n        /* \"#utility.yul\":5834:5921   */\n      tag_429\n        /* \"#utility.yul\":5918:5919   */\n      0x00\n        /* \"#utility.yul\":5907:5916   */\n      dup4\n        /* \"#utility.yul\":5903:5920   */\n      add\n        /* \"#utility.yul\":5894:5900   */\n      dup5\n        /* \"#utility.yul\":5834:5921   */\n      tag_395\n      jump\t// in\n    tag_429:\n        /* \"#utility.yul\":5674:5928   */\n      swap3\n      swap2\n      pop\n      pop\n      jump\t// out\n        /* \"#utility.yul\":5934:6144   */\n    tag_71:\n        /* \"#utility.yul\":6021:6025   */\n      0x00\n        /* \"#utility.yul\":6059:6061   */\n      0x20\n        /* \"#utility.yul\":6048:6057   */\n      dup3\n        /* \"#utility.yul\":6044:6062   */\n      add\n        /* \"#utility.yul\":6036:6062   */\n      swap1\n      pop\n        /* \"#utility.yul\":6072:6137   */\n      tag_431\n        /* \"#utility.yul\":6134:6135   */\n      0x00\n        /* \"#utility.yul\":6123:6132   */\n      dup4\n        /* \"#utility.yul\":6119:6136   */\n      add\n        /* \"#utility.yul\":6110:6116   */\n      dup5\n        /* \"#utility.yul\":6072:6137   */\n      tag_403\n      jump\t// in\n    tag_431:\n        /* \"#utility.yul\":5934:6144   */\n      swap3\n      swap2\n      pop\n      pop\n      jump\t// out\n        /* \"#utility.yul\":6150:6463   */\n    tag_273:\n        /* \"#utility.yul\":6263:6267   */\n      0x00\n        /* \"#utility.yul\":6301:6303   */\n      0x20\n        /* \"#utility.yul\":6290:6299   */\n      dup3\n        /* \"#utility.yul\":6286:6304   */\n      add\n        /* \"#utility.yul\":6278:6304   */\n      swap1\n      pop\n        /* \"#utility.yul\":6350:6359   */\n      dup2\n        /* \"#utility.yul\":6344:6348   */\n      dup2\n        /* \"#utility.yul\":6340:6360   */\n      sub\n        /* \"#utility.yul\":6336:6337   */\n      0x00\n        /* \"#utility.yul\":6325:6334   */\n      dup4\n        /* \"#utility.yul\":6321:6338   */\n      add\n        /* \"#utility.yul\":6314:6361   */\n      mstore\n        /* \"#utility.yul\":6378:6456   */\n      tag_433\n        /* \"#utility.yul\":6451:6455   */\n      dup2\n        /* \"#utility.yul\":6442:6448   */\n      dup5\n        /* \"#utility.yul\":6378:6456   */\n      tag_407\n      jump\t// in\n    tag_433:\n        /* \"#utility.yul\":6370:6456   */\n      swap1\n      pop\n        /* \"#utility.yul\":6150:6463   */\n      swap3\n      swap2\n      pop\n      pop\n      jump\t// out\n        /* \"#utility.yul\":6469:7315   */\n    tag_49:\n        /* \"#utility.yul\":6714:6718   */\n      0x00\n        /* \"#utility.yul\":6752:6755   */\n      0xa0\n        /* \"#utility.yul\":6741:6750   */\n      dup3\n        /* \"#utility.yul\":6737:6756   */\n      add\n        /* \"#utility.yul\":6729:6756   */\n      swap1\n      pop\n        /* \"#utility.yul\":6802:6811   */\n      dup2\n        /* \"#utility.yul\":6796:6800   */\n      dup2\n        /* \"#utility.yul\":6792:6812   */\n      sub\n        /* \"#utility.yul\":6788:6789   */\n      0x00\n        /* \"#utility.yul\":6777:6786   */\n      dup4\n        /* \"#utility.yul\":6773:6790   */\n      add\n        /* \"#utility.yul\":6766:6813   */\n      mstore\n        /* \"#utility.yul\":6830:6908   */\n      tag_435\n        /* \"#utility.yul\":6903:6907   */\n      dup2\n        /* \"#utility.yul\":6894:6900   */\n      dup9\n        /* \"#utility.yul\":6830:6908   */\n      tag_407\n      jump\t// in\n    tag_435:\n        /* \"#utility.yul\":6822:6908   */\n      swap1\n      pop\n        /* \"#utility.yul\":6918:6990   */\n      tag_436\n        /* \"#utility.yul\":6986:6988   */\n      0x20\n        /* \"#utility.yul\":6975:6984   */\n      dup4\n        /* \"#utility.yul\":6971:6989   */\n      add\n        /* \"#utility.yul\":6962:6968   */\n      dup8\n        /* \"#utility.yul\":6918:6990   */\n      tag_399\n      jump\t// in\n    tag_436:\n        /* \"#utility.yul\":7037:7046   */\n      dup2\n        /* \"#utility.yul\":7031:7035   */\n      dup2\n        /* \"#utility.yul\":7027:7047   */\n      sub\n        /* \"#utility.yul\":7022:7024   */\n      0x40\n        /* \"#utility.yul\":7011:7020   */\n      dup4\n        /* \"#utility.yul\":7007:7025   */\n      add\n        /* \"#utility.yul\":7000:7048   */\n      mstore\n        /* \"#utility.yul\":7065:7143   */\n      tag_437\n        /* \"#utility.yul\":7138:7142   */\n      dup2\n        /* \"#utility.yul\":7129:7135   */\n      dup7\n        /* \"#utility.yul\":7065:7143   */\n      tag_407\n      jump\t// in\n    tag_437:\n        /* \"#utility.yul\":7057:7143   */\n      swap1\n      pop\n        /* \"#utility.yul\":7153:7225   */\n      tag_438\n        /* \"#utility.yul\":7221:7223   */\n      0x60\n        /* \"#utility.yul\":7210:7219   */\n      dup4\n        /* \"#utility.yul\":7206:7224   */\n      add\n        /* \"#utility.yul\":7197:7203   */\n      dup6\n        /* \"#utility.yul\":7153:7225   */\n      tag_422\n      jump\t// in\n    tag_438:\n        /* \"#utility.yul\":7235:7308   */\n      tag_439\n        /* \"#utility.yul\":7303:7306   */\n      0x80\n        /* \"#utility.yul\":7292:7301   */\n      dup4\n        /* \"#utility.yul\":7288:7307   */\n      add\n        /* \"#utility.yul\":7279:7285   */\n      dup5\n        /* \"#utility.yul\":7235:7308   */\n      tag_422\n      jump\t// in\n    tag_439:\n        /* \"#utility.yul\":6469:7315   */\n      swap7\n      swap6\n      pop\n      pop\n      pop\n      pop\n      pop\n      pop\n      jump\t// out\n        /* \"#utility.yul\":7321:7945   */\n    tag_106:\n        /* \"#utility.yul\":7510:7514   */\n      0x00\n        /* \"#utility.yul\":7548:7550   */\n      0x60\n        /* \"#utility.yul\":7537:7546   */\n      dup3\n        /* \"#utility.yul\":7533:7551   */\n      add\n        /* \"#utility.yul\":7525:7551   */\n      swap1\n      pop\n        /* \"#utility.yul\":7597:7606   */\n      dup2\n        /* \"#utility.yul\":7591:7595   */\n      dup2\n        /* \"#utility.yul\":7587:7607   */\n      sub\n        /* \"#utility.yul\":7583:7584   */\n      0x00\n        /* \"#utility.yul\":7572:7581   */\n      dup4\n        /* \"#utility.yul\":7568:7585   */\n      add\n        /* \"#utility.yul\":7561:7608   */\n      mstore\n        /* \"#utility.yul\":7625:7703   */\n      tag_441\n        /* \"#utility.yul\":7698:7702   */\n      dup2\n        /* \"#utility.yul\":7689:7695   */\n      dup7\n        /* \"#utility.yul\":7625:7703   */\n      tag_407\n      jump\t// in\n    tag_441:\n        /* \"#utility.yul\":7617:7703   */\n      swap1\n      pop\n        /* \"#utility.yul\":7750:7759   */\n      dup2\n        /* \"#utility.yul\":7744:7748   */\n      dup2\n        /* \"#utility.yul\":7740:7760   */\n      sub\n        /* \"#utility.yul\":7735:7737   */\n      0x20\n        /* \"#utility.yul\":7724:7733   */\n      dup4\n        /* \"#utility.yul\":7720:7738   */\n      add\n        /* \"#utility.yul\":7713:7761   */\n      mstore\n        /* \"#utility.yul\":7778:7856   */\n      tag_442\n        /* \"#utility.yul\":7851:7855   */\n      dup2\n        /* \"#utility.yul\":7842:7848   */\n      dup6\n        /* \"#utility.yul\":7778:7856   */\n      tag_407\n      jump\t// in\n    tag_442:\n        /* \"#utility.yul\":7770:7856   */\n      swap1\n      pop\n        /* \"#utility.yul\":7866:7938   */\n      tag_443\n        /* \"#utility.yul\":7934:7936   */\n      0x40\n        /* \"#utility.yul\":7923:7932   */\n      dup4\n        /* \"#utility.yul\":7919:7937   */\n      add\n        /* \"#utility.yul\":7910:7916   */\n      dup5\n        /* \"#utility.yul\":7866:7938   */\n      tag_422\n      jump\t// in\n    tag_443:\n        /* \"#utility.yul\":7321:7945   */\n      swap5\n      swap4\n      pop\n      pop\n      pop\n      pop\n      jump\t// out\n        /* \"#utility.yul\":7951:8370   */\n    tag_215:\n        /* \"#utility.yul\":8117:8121   */\n      0x00\n        /* \"#utility.yul\":8155:8157   */\n      0x20\n        /* \"#utility.yul\":8144:8153   */\n      dup3\n        /* \"#utility.yul\":8140:8158   */\n      add\n        /* \"#utility.yul\":8132:8158   */\n      swap1\n      pop\n        /* \"#utility.yul\":8204:8213   */\n      dup2\n        /* \"#utility.yul\":8198:8202   */\n      dup2\n        /* \"#utility.yul\":8194:8214   */\n      sub\n        /* \"#utility.yul\":8190:8191   */\n      0x00\n        /* \"#utility.yul\":8179:8188   */\n      dup4\n        /* \"#utility.yul\":8175:8192   */\n      add\n        /* \"#utility.yul\":8168:8215   */\n      mstore\n        /* \"#utility.yul\":8232:8363   */\n      tag_445\n        /* \"#utility.yul\":8358:8362   */\n      dup2\n        /* \"#utility.yul\":8232:8363   */\n      tag_417\n      jump\t// in\n    tag_445:\n        /* \"#utility.yul\":8224:8363   */\n      swap1\n      pop\n        /* \"#utility.yul\":7951:8370   */\n      swap2\n      swap1\n      pop\n      jump\t// out\n        /* \"#utility.yul\":8376:8598   */\n    tag_33:\n        /* \"#utility.yul\":8469:8473   */\n      0x00\n        /* \"#utility.yul\":8507:8509   */\n      0x20\n        /* \"#utility.yul\":8496:8505   */\n      dup3\n        /* \"#utility.yul\":8492:8510   */\n      add\n        /* \"#utility.yul\":8484:8510   */\n      swap1\n      pop\n        /* \"#utility.yul\":8520:8591   */\n      tag_447\n        /* \"#utility.yul\":8588:8589   */\n      0x00\n        /* \"#utility.yul\":8577:8586   */\n      dup4\n        /* \"#utility.yul\":8573:8590   */\n      add\n        /* \"#utility.yul\":8564:8570   */\n      dup5\n        /* \"#utility.yul\":8520:8591   */\n      tag_422\n      jump\t// in\n    tag_447:\n        /* \"#utility.yul\":8376:8598   */\n      swap3\n      swap2\n      pop\n      pop\n      jump\t// out\n        /* \"#utility.yul\":8604:8733   */\n    tag_336:\n        /* \"#utility.yul\":8638:8644   */\n      0x00\n        /* \"#utility.yul\":8665:8685   */\n      tag_449\n      tag_450\n      jump\t// in\n    tag_449:\n        /* \"#utility.yul\":8655:8685   */\n      swap1\n      pop\n        /* \"#utility.yul\":8694:8727   */\n      tag_451\n        /* \"#utility.yul\":8722:8726   */\n      dup3\n        /* \"#utility.yul\":8714:8720   */\n      dup3\n        /* \"#utility.yul\":8694:8727   */\n      tag_452\n      jump\t// in\n    tag_451:\n        /* \"#utility.yul\":8604:8733   */\n      swap2\n      swap1\n      pop\n      jump\t// out\n        /* \"#utility.yul\":8739:8814   */\n    tag_450:\n        /* \"#utility.yul\":8772:8778   */\n      0x00\n        /* \"#utility.yul\":8805:8807   */\n      0x40\n        /* \"#utility.yul\":8799:8808   */\n      mload\n        /* \"#utility.yul\":8789:8808   */\n      swap1\n      pop\n        /* \"#utility.yul\":8739:8814   */\n      swap1\n      jump\t// out\n        /* \"#utility.yul\":8820:9128   */\n    tag_335:\n        /* \"#utility.yul\":8882:8886   */\n      0x00\n        /* \"#utility.yul\":8972:8990   */\n      0xffffffffffffffff\n        /* \"#utility.yul\":8964:8970   */\n      dup3\n        /* \"#utility.yul\":8961:8991   */\n      gt\n        /* \"#utility.yul\":8958:9014   */\n      iszero\n      tag_455\n      jumpi\n        /* \"#utility.yul\":8994:9012   */\n      tag_456\n      tag_292\n      jump\t// in\n    tag_456:\n        /* \"#utility.yul\":8958:9014   */\n    tag_455:\n        /* \"#utility.yul\":9032:9061   */\n      tag_457\n        /* \"#utility.yul\":9054:9060   */\n      dup3\n        /* \"#utility.yul\":9032:9061   */\n      tag_416\n      jump\t// in\n    tag_457:\n        /* \"#utility.yul\":9024:9061   */\n      swap1\n      pop\n        /* \"#utility.yul\":9116:9120   */\n      0x20\n        /* \"#utility.yul\":9110:9114   */\n      dup2\n        /* \"#utility.yul\":9106:9121   */\n      add\n        /* \"#utility.yul\":9098:9121   */\n      swap1\n      pop\n        /* \"#utility.yul\":8820:9128   */\n      swap2\n      swap1\n      pop\n      jump\t// out\n        /* \"#utility.yul\":9134:9233   */\n    tag_410:\n        /* \"#utility.yul\":9186:9192   */\n      0x00\n        /* \"#utility.yul\":9220:9225   */\n      dup2\n        /* \"#utility.yul\":9214:9226   */\n      mload\n        /* \"#utility.yul\":9204:9226   */\n      swap1\n      pop\n        /* \"#utility.yul\":9134:9233   */\n      swap2\n      swap1\n      pop\n      jump\t// out\n        /* \"#utility.yul\":9239:9408   */\n    tag_412:\n        /* \"#utility.yul\":9323:9334   */\n      0x00\n        /* \"#utility.yul\":9357:9363   */\n      dup3\n        /* \"#utility.yul\":9352:9355   */\n      dup3\n        /* \"#utility.yul\":9345:9364   */\n      mstore\n        /* \"#utility.yul\":9397:9401   */\n      0x20\n        /* \"#utility.yul\":9392:9395   */\n      dup3\n        /* \"#utility.yul\":9388:9402   */\n      add\n        /* \"#utility.yul\":9373:9402   */\n      swap1\n      pop\n        /* \"#utility.yul\":9239:9408   */\n      swap3\n      swap2\n      pop\n      pop\n      jump\t// out\n        /* \"#utility.yul\":9414:9719   */\n    tag_221:\n        /* \"#utility.yul\":9454:9457   */\n      0x00\n        /* \"#utility.yul\":9473:9493   */\n      tag_461\n        /* \"#utility.yul\":9491:9492   */\n      dup3\n        /* \"#utility.yul\":9473:9493   */\n      tag_425\n      jump\t// in\n    tag_461:\n        /* \"#utility.yul\":9468:9493   */\n      swap2\n      pop\n        /* \"#utility.yul\":9507:9527   */\n      tag_462\n        /* \"#utility.yul\":9525:9526   */\n      dup4\n        /* \"#utility.yul\":9507:9527   */\n      tag_425\n      jump\t// in\n    tag_462:\n        /* \"#utility.yul\":9502:9527   */\n      swap3\n      pop\n        /* \"#utility.yul\":9661:9662   */\n      dup3\n        /* \"#utility.yul\":9593:9659   */\n      0xffffffffffffffffffffffffffffffffffffffffffffffffffffffffffffffff\n        /* \"#utility.yul\":9589:9663   */\n      sub\n        /* \"#utility.yul\":9586:9587   */\n      dup3\n        /* \"#utility.yul\":9583:9664   */\n      gt\n        /* \"#utility.yul\":9580:9687   */\n      iszero\n      tag_463\n      jumpi\n        /* \"#utility.yul\":9667:9685   */\n      tag_464\n      tag_465\n      jump\t// in\n    tag_464:\n        /* \"#utility.yul\":9580:9687   */\n    tag_463:\n        /* \"#utility.yul\":9711:9712   */\n      dup3\n        /* \"#utility.yul\":9708:9709   */\n      dup3\n        /* \"#utility.yul\":9704:9713   */\n      add\n        /* \"#utility.yul\":9697:9713   */\n      swap1\n      pop\n        /* \"#utility.yul\":9414:9719   */\n      swap3\n      swap2\n      pop\n      pop\n      jump\t// out\n        /* \"#utility.yul\":9725:9910   */\n    tag_211:\n        /* \"#utility.yul\":9765:9766   */\n      0x00\n        /* \"#utility.yul\":9782:9802   */\n      tag_467\n        /* \"#utility.yul\":9800:9801   */\n      dup3\n        /* \"#utility.yul\":9782:9802   */\n      tag_425\n      jump\t// in\n    tag_467:\n        /* \"#utility.yul\":9777:9802   */\n      swap2\n      pop\n        /* \"#utility.yul\":9816:9836   */\n      tag_468\n        /* \"#utility.yul\":9834:9835   */\n      dup4\n        /* \"#utility.yul\":9816:9836   */\n      tag_425\n      jump\t// in\n    tag_468:\n        /* \"#utility.yul\":9811:9836   */\n      swap3\n      pop\n        /* \"#utility.yul\":9855:9856   */\n      dup3\n        /* \"#utility.yul\":9845:9880   */\n      tag_469\n      jumpi\n        /* \"#utility.yul\":9860:9878   */\n      tag_470\n      tag_471\n      jump\t// in\n    tag_470:\n        /* \"#utility.yul\":9845:9880   */\n    tag_469:\n        /* \"#utility.yul\":9902:9903   */\n      dup3\n        /* \"#utility.yul\":9899:9900   */\n      dup3\n        /* \"#utility.yul\":9895:9904   */\n      div\n        /* \"#utility.yul\":9890:9904   */\n      swap1\n      pop\n        /* \"#utility.yul\":9725:9910   */\n      swap3\n      swap2\n      pop\n      pop\n      jump\t// out\n        /* \"#utility.yul\":9916:10107   */\n    tag_219:\n        /* \"#utility.yul\":9956:9960   */\n      0x00\n        /* \"#utility.yul\":9976:9996   */\n      tag_473\n        /* \"#utility.yul\":9994:9995   */\n      dup3\n        /* \"#utility.yul\":9976:9996   */\n      tag_425\n      jump\t// in\n    tag_473:\n        /* \"#utility.yul\":9971:9996   */\n      swap2\n      pop\n        /* \"#utility.yul\":10010:10030   */\n      tag_474\n        /* \"#utility.yul\":10028:10029   */\n      dup4\n        /* \"#utility.yul\":10010:10030   */\n      tag_425\n      jump\t// in\n    tag_474:\n        /* \"#utility.yul\":10005:10030   */\n      swap3\n      pop\n        /* \"#utility.yul\":10049:10050   */\n      dup3\n        /* \"#utility.yul\":10046:10047   */\n      dup3\n        /* \"#utility.yul\":10043:10051   */\n      lt\n        /* \"#utility.yul\":10040:10074   */\n      iszero\n      tag_475\n      jumpi\n        /* \"#utility.yul\":10054:10072   */\n      tag_476\n      tag_465\n      jump\t// in\n    tag_476:\n        /* \"#utility.yul\":10040:10074   */\n    tag_475:\n        /* \"#utility.yul\":10099:10100   */\n      dup3\n        /* \"#utility.yul\":10096:10097   */\n      dup3\n        /* \"#utility.yul\":10092:10101   */\n      sub\n        /* \"#utility.yul\":10084:10101   */\n      swap1\n      pop\n        /* \"#utility.yul\":9916:10107   */\n      swap3\n      swap2\n      pop\n      pop\n      jump\t// out\n        /* \"#utility.yul\":10113:10209   */\n    tag_402:\n        /* \"#utility.yul\":10150:10157   */\n      0x00\n        /* \"#utility.yul\":10179:10203   */\n      tag_478\n        /* \"#utility.yul\":10197:10202   */\n      dup3\n        /* \"#utility.yul\":10179:10203   */\n      tag_479\n      jump\t// in\n    tag_478:\n        /* \"#utility.yul\":10168:10203   */\n      swap1\n      pop\n        /* \"#utility.yul\":10113:10209   */\n      swap2\n      swap1\n      pop\n      jump\t// out\n        /* \"#utility.yul\":10215:10319   */\n    tag_398:\n        /* \"#utility.yul\":10260:10267   */\n      0x00\n        /* \"#utility.yul\":10289:10313   */\n      tag_481\n        /* \"#utility.yul\":10307:10312   */\n      dup3\n        /* \"#utility.yul\":10289:10313   */\n      tag_479\n      jump\t// in\n    tag_481:\n        /* \"#utility.yul\":10278:10313   */\n      swap1\n      pop\n        /* \"#utility.yul\":10215:10319   */\n      swap2\n      swap1\n      pop\n      jump\t// out\n        /* \"#utility.yul\":10325:10415   */\n    tag_406:\n        /* \"#utility.yul\":10359:10366   */\n      0x00\n        /* \"#utility.yul\":10402:10407   */\n      dup2\n        /* \"#utility.yul\":10395:10408   */\n      iszero\n        /* \"#utility.yul\":10388:10409   */\n      iszero\n        /* \"#utility.yul\":10377:10409   */\n      swap1\n      pop\n        /* \"#utility.yul\":10325:10415   */\n      swap2\n      swap1\n      pop\n      jump\t// out\n        /* \"#utility.yul\":10421:10547   */\n    tag_479:\n        /* \"#utility.yul\":10458:10465   */\n      0x00\n        /* \"#utility.yul\":10498:10540   */\n      0xffffffffffffffffffffffffffffffffffffffff\n        /* \"#utility.yul\":10491:10496   */\n      dup3\n        /* \"#utility.yul\":10487:10541   */\n      and\n        /* \"#utility.yul\":10476:10541   */\n      swap1\n      pop\n        /* \"#utility.yul\":10421:10547   */\n      swap2\n      swap1\n      pop\n      jump\t// out\n        /* \"#utility.yul\":10553:10630   */\n    tag_425:\n        /* \"#utility.yul\":10590:10597   */\n      0x00\n        /* \"#utility.yul\":10619:10624   */\n      dup2\n        /* \"#utility.yul\":10608:10624   */\n      swap1\n      pop\n        /* \"#utility.yul\":10553:10630   */\n      swap2\n      swap1\n      pop\n      jump\t// out\n        /* \"#utility.yul\":10636:10790   */\n    tag_341:\n        /* \"#utility.yul\":10720:10726   */\n      dup3\n        /* \"#utility.yul\":10715:10718   */\n      dup2\n        /* \"#utility.yul\":10710:10713   */\n      dup4\n        /* \"#utility.yul\":10697:10727   */\n      calldatacopy\n        /* \"#utility.yul\":10782:10783   */\n      0x00\n        /* \"#utility.yul\":10773:10779   */\n      dup4\n        /* \"#utility.yul\":10768:10771   */\n      dup4\n        /* \"#utility.yul\":10764:10780   */\n      add\n        /* \"#utility.yul\":10757:10784   */\n      mstore\n        /* \"#utility.yul\":10636:10790   */\n      pop\n      pop\n      pop\n      jump\t// out\n        /* \"#utility.yul\":10796:11103   */\n    tag_414:\n        /* \"#utility.yul\":10864:10865   */\n      0x00\n        /* \"#utility.yul\":10874:10987   */\n    tag_487:\n        /* \"#utility.yul\":10888:10894   */\n      dup4\n        /* \"#utility.yul\":10885:10886   */\n      dup2\n        /* \"#utility.yul\":10882:10895   */\n      lt\n        /* \"#utility.yul\":10874:10987   */\n      iszero\n      tag_489\n      jumpi\n        /* \"#utility.yul\":10973:10974   */\n      dup1\n        /* \"#utility.yul\":10968:10971   */\n      dup3\n        /* \"#utility.yul\":10964:10975   */\n      add\n        /* \"#utility.yul\":10958:10976   */\n      mload\n        /* \"#utility.yul\":10954:10955   */\n      dup2\n        /* \"#utility.yul\":10949:10952   */\n      dup5\n        /* \"#utility.yul\":10945:10956   */\n      add\n        /* \"#utility.yul\":10938:10977   */\n      mstore\n        /* \"#utility.yul\":10910:10912   */\n      0x20\n        /* \"#utility.yul\":10907:10908   */\n      dup2\n        /* \"#utility.yul\":10903:10913   */\n      add\n        /* \"#utility.yul\":10898:10913   */\n      swap1\n      pop\n        /* \"#utility.yul\":10874:10987   */\n      jump(tag_487)\n    tag_489:\n        /* \"#utility.yul\":11005:11011   */\n      dup4\n        /* \"#utility.yul\":11002:11003   */\n      dup2\n        /* \"#utility.yul\":10999:11012   */\n      gt\n        /* \"#utility.yul\":10996:11097   */\n      iszero\n      tag_490\n      jumpi\n        /* \"#utility.yul\":11085:11086   */\n      0x00\n        /* \"#utility.yul\":11076:11082   */\n      dup5\n        /* \"#utility.yul\":11071:11074   */\n      dup5\n        /* \"#utility.yul\":11067:11083   */\n      add\n        /* \"#utility.yul\":11060:11087   */\n      mstore\n        /* \"#utility.yul\":10996:11097   */\n    tag_490:\n        /* \"#utility.yul\":10845:11103   */\n      pop\n        /* \"#utility.yul\":10796:11103   */\n      pop\n      pop\n      pop\n      jump\t// out\n        /* \"#utility.yul\":11109:11429   */\n    tag_146:\n        /* \"#utility.yul\":11153:11159   */\n      0x00\n        /* \"#utility.yul\":11190:11191   */\n      0x02\n        /* \"#utility.yul\":11184:11188   */\n      dup3\n        /* \"#utility.yul\":11180:11192   */\n      div\n        /* \"#utility.yul\":11170:11192   */\n      swap1\n      pop\n        /* \"#utility.yul\":11237:11238   */\n      0x01\n        /* \"#utility.yul\":11231:11235   */\n      dup3\n        /* \"#utility.yul\":11227:11239   */\n      and\n        /* \"#utility.yul\":11258:11276   */\n      dup1\n        /* \"#utility.yul\":11248:11329   */\n      tag_492\n      jumpi\n        /* \"#utility.yul\":11314:11318   */\n      0x7f\n        /* \"#utility.yul\":11306:11312   */\n      dup3\n        /* \"#utility.yul\":11302:11319   */\n      and\n        /* \"#utility.yul\":11292:11319   */\n      swap2\n      pop\n        /* \"#utility.yul\":11248:11329   */\n    tag_492:\n        /* \"#utility.yul\":11376:11378   */\n      0x20\n        /* \"#utility.yul\":11368:11374   */\n      dup3\n        /* \"#utility.yul\":11365:11379   */\n      lt\n        /* \"#utility.yul\":11345:11363   */\n      dup2\n        /* \"#utility.yul\":11342:11380   */\n      eq\n        /* \"#utility.yul\":11339:11423   */\n      iszero\n      tag_493\n      jumpi\n        /* \"#utility.yul\":11395:11413   */\n      tag_494\n      tag_495\n      jump\t// in\n    tag_494:\n        /* \"#utility.yul\":11339:11423   */\n    tag_493:\n        /* \"#utility.yul\":11160:11429   */\n      pop\n        /* \"#utility.yul\":11109:11429   */\n      swap2\n      swap1\n      pop\n      jump\t// out\n        /* \"#utility.yul\":11435:11716   */\n    tag_452:\n        /* \"#utility.yul\":11518:11545   */\n      tag_497\n        /* \"#utility.yul\":11540:11544   */\n      dup3\n        /* \"#utility.yul\":11518:11545   */\n      tag_416\n      jump\t// in\n    tag_497:\n        /* \"#utility.yul\":11510:11516   */\n      dup2\n        /* \"#utility.yul\":11506:11546   */\n      add\n        /* \"#utility.yul\":11648:11654   */\n      dup2\n        /* \"#utility.yul\":11636:11646   */\n      dup2\n        /* \"#utility.yul\":11633:11655   */\n      lt\n        /* \"#utility.yul\":11612:11630   */\n      0xffffffffffffffff\n        /* \"#utility.yul\":11600:11610   */\n      dup3\n        /* \"#utility.yul\":11597:11631   */\n      gt\n        /* \"#utility.yul\":11594:11656   */\n      or\n        /* \"#utility.yul\":11591:11679   */\n      iszero\n      tag_498\n      jumpi\n        /* \"#utility.yul\":11659:11677   */\n      tag_499\n      tag_292\n      jump\t// in\n    tag_499:\n        /* \"#utility.yul\":11591:11679   */\n    tag_498:\n        /* \"#utility.yul\":11699:11709   */\n      dup1\n        /* \"#utility.yul\":11695:11697   */\n      0x40\n        /* \"#utility.yul\":11688:11710   */\n      mstore\n        /* \"#utility.yul\":11478:11716   */\n      pop\n        /* \"#utility.yul\":11435:11716   */\n      pop\n      pop\n      jump\t// out\n        /* \"#utility.yul\":11722:11955   */\n    tag_194:\n        /* \"#utility.yul\":11761:11764   */\n      0x00\n        /* \"#utility.yul\":11784:11808   */\n      tag_501\n        /* \"#utility.yul\":11802:11807   */\n      dup3\n        /* \"#utility.yul\":11784:11808   */\n      tag_425\n      jump\t// in\n    tag_501:\n        /* \"#utility.yul\":11775:11808   */\n      swap2\n      pop\n        /* \"#utility.yul\":11830:11896   */\n      0xffffffffffffffffffffffffffffffffffffffffffffffffffffffffffffffff\n        /* \"#utility.yul\":11823:11828   */\n      dup3\n        /* \"#utility.yul\":11820:11897   */\n      eq\n        /* \"#utility.yul\":11817:11920   */\n      iszero\n      tag_502\n      jumpi\n        /* \"#utility.yul\":11900:11918   */\n      tag_503\n      tag_465\n      jump\t// in\n    tag_503:\n        /* \"#utility.yul\":11817:11920   */\n    tag_502:\n        /* \"#utility.yul\":11947:11948   */\n      0x01\n        /* \"#utility.yul\":11940:11945   */\n      dup3\n        /* \"#utility.yul\":11936:11949   */\n      add\n        /* \"#utility.yul\":11929:11949   */\n      swap1\n      pop\n        /* \"#utility.yul\":11722:11955   */\n      swap2\n      swap1\n      pop\n      jump\t// out\n        /* \"#utility.yul\":11961:12137   */\n    tag_298:\n        /* \"#utility.yul\":11993:11994   */\n      0x00\n        /* \"#utility.yul\":12010:12030   */\n      tag_505\n        /* \"#utility.yul\":12028:12029   */\n      dup3\n        /* \"#utility.yul\":12010:12030   */\n      tag_425\n      jump\t// in\n    tag_505:\n        /* \"#utility.yul\":12005:12030   */\n      swap2\n      pop\n        /* \"#utility.yul\":12044:12064   */\n      tag_506\n        /* \"#utility.yul\":12062:12063   */\n      dup4\n        /* \"#utility.yul\":12044:12064   */\n      tag_425\n      jump\t// in\n    tag_506:\n        /* \"#utility.yul\":12039:12064   */\n      swap3\n      pop\n        /* \"#utility.yul\":12083:12084   */\n      dup3\n        /* \"#utility.yul\":12073:12108   */\n      tag_507\n      jumpi\n        /* \"#utility.yul\":12088:12106   */\n      tag_508\n      tag_471\n      jump\t// in\n    tag_508:\n        /* \"#utility.yul\":12073:12108   */\n    tag_507:\n        /* \"#utility.yul\":12129:12130   */\n      dup3\n        /* \"#utility.yul\":12126:12127   */\n      dup3\n        /* \"#utility.yul\":12122:12131   */\n      mod\n        /* \"#utility.yul\":12117:12131   */\n      swap1\n      pop\n        /* \"#utility.yul\":11961:12137   */\n      swap3\n      swap2\n      pop\n      pop\n      jump\t// out\n        /* \"#utility.yul\":12143:12323   */\n    tag_465:\n        /* \"#utility.yul\":12191:12268   */\n      0x4e487b7100000000000000000000000000000000000000000000000000000000\n        /* \"#utility.yul\":12188:12189   */\n      0x00\n        /* \"#utility.yul\":12181:12269   */\n      mstore\n        /* \"#utility.yul\":12288:12292   */\n      0x11\n        /* \"#utility.yul\":12285:12286   */\n      0x04\n        /* \"#utility.yul\":12278:12293   */\n      mstore\n        /* \"#utility.yul\":12312:12316   */\n      0x24\n        /* \"#utility.yul\":12309:12310   */\n      0x00\n        /* \"#utility.yul\":12302:12317   */\n      revert\n        /* \"#utility.yul\":12329:12509   */\n    tag_471:\n        /* \"#utility.yul\":12377:12454   */\n      0x4e487b7100000000000000000000000000000000000000000000000000000000\n        /* \"#utility.yul\":12374:12375   */\n      0x00\n        /* \"#utility.yul\":12367:12455   */\n      mstore\n        /* \"#utility.yul\":12474:12478   */\n      0x12\n        /* \"#utility.yul\":12471:12472   */\n      0x04\n        /* \"#utility.yul\":12464:12479   */\n      mstore\n        /* \"#utility.yul\":12498:12502   */\n      0x24\n        /* \"#utility.yul\":12495:12496   */\n      0x00\n        /* \"#utility.yul\":12488:12503   */\n      revert\n        /* \"#utility.yul\":12515:12695   */\n    tag_144:\n        /* \"#utility.yul\":12563:12640   */\n      0x4e487b7100000000000000000000000000000000000000000000000000000000\n        /* \"#utility.yul\":12560:12561   */\n      0x00\n        /* \"#utility.yul\":12553:12641   */\n      mstore\n        /* \"#utility.yul\":12660:12664   */\n      0x21\n        /* \"#utility.yul\":12657:12658   */\n      0x04\n        /* \"#utility.yul\":12650:12665   */\n      mstore\n        /* \"#utility.yul\":12684:12688   */\n      0x24\n        /* \"#utility.yul\":12681:12682   */\n      0x00\n        /* \"#utility.yul\":12674:12689   */\n      revert\n        /* \"#utility.yul\":12701:12881   */\n    tag_495:\n        /* \"#utility.yul\":12749:12826   */\n      0x4e487b7100000000000000000000000000000000000000000000000000000000\n        /* \"#utility.yul\":12746:12747   */\n      0x00\n        /* \"#utility.yul\":12739:12827   */\n      mstore\n        /* \"#utility.yul\":12846:12850   */\n      0x22\n        /* \"#utility.yul\":12843:12844   */\n      0x04\n        /* \"#utility.yul\":12836:12851   */\n      mstore\n        /* \"#utility.yul\":12870:12874   */\n      0x24\n        /* \"#utility.yul\":12867:12868   */\n      0x00\n        /* \"#utility.yul\":12860:12875   */\n      revert\n        /* \"#utility.yul\":12887:13067   */\n    tag_302:\n        /* \"#utility.yul\":12935:13012   */\n      0x4e487b7100000000000000000000000000000000000000000000000000000000\n        /* \"#utility.yul\":12932:12933   */\n      0x00\n        /* \"#utility.yul\":12925:13013   */\n      mstore\n        /* \"#utility.yul\":13032:13036   */\n      0x32\n        /* \"#utility.yul\":13029:13030   */\n      0x04\n        /* \"#utility.yul\":13022:13037   */\n      mstore\n        /* \"#utility.yul\":13056:13060   */\n      0x24\n        /* \"#utility.yul\":13053:13054   */\n      0x00\n        /* \"#utility.yul\":13046:13061   */\n      revert\n        /* \"#utility.yul\":13073:13253   */\n    tag_292:\n        /* \"#utility.yul\":13121:13198   */\n      0x4e487b7100000000000000000000000000000000000000000000000000000000\n        /* \"#utility.yul\":13118:13119   */\n      0x00\n        /* \"#utility.yul\":13111:13199   */\n      mstore\n        /* \"#utility.yul\":13218:13222   */\n      0x41\n        /* \"#utility.yul\":13215:13216   */\n      0x04\n        /* \"#utility.yul\":13208:13223   */\n      mstore\n        /* \"#utility.yul\":13242:13246   */\n      0x24\n        /* \"#utility.yul\":13239:13240   */\n      0x00\n        /* \"#utility.yul\":13232:13247   */\n      revert\n        /* \"#utility.yul\":13259:13376   */\n    tag_354:\n        /* \"#utility.yul\":13368:13369   */\n      0x00\n        /* \"#utility.yul\":13365:13366   */\n      dup1\n        /* \"#utility.yul\":13358:13370   */\n      revert\n        /* \"#utility.yul\":13382:13499   */\n    tag_339:\n        /* \"#utility.yul\":13491:13492   */\n      0x00\n        /* \"#utility.yul\":13488:13489   */\n      dup1\n        /* \"#utility.yul\":13481:13493   */\n      revert\n        /* \"#utility.yul\":13505:13622   */\n    tag_379:\n        /* \"#utility.yul\":13614:13615   */\n      0x00\n        /* \"#utility.yul\":13611:13612   */\n      dup1\n        /* \"#utility.yul\":13604:13616   */\n      revert\n        /* \"#utility.yul\":13628:13745   */\n    tag_363:\n        /* \"#utility.yul\":13737:13738   */\n      0x00\n        /* \"#utility.yul\":13734:13735   */\n      dup1\n        /* \"#utility.yul\":13727:13739   */\n      revert\n        /* \"#utility.yul\":13751:13853   */\n    tag_416:\n        /* \"#utility.yul\":13792:13798   */\n      0x00\n        /* \"#utility.yul\":13843:13845   */\n      0x1f\n        /* \"#utility.yul\":13839:13846   */\n      not\n        /* \"#utility.yul\":13834:13836   */\n      0x1f\n        /* \"#utility.yul\":13827:13832   */\n      dup4\n        /* \"#utility.yul\":13823:13837   */\n      add\n        /* \"#utility.yul\":13819:13847   */\n      and\n        /* \"#utility.yul\":13809:13847   */\n      swap1\n      pop\n        /* \"#utility.yul\":13751:13853   */\n      swap2\n      swap1\n      pop\n      jump\t// out\n        /* \"#utility.yul\":13859:14081   */\n    tag_421:\n        /* \"#utility.yul\":13999:14033   */\n      0x4e756d626572206f662073686172657320657863656564656420746865206c69\n        /* \"#utility.yul\":13995:13996   */\n      0x00\n        /* \"#utility.yul\":13987:13993   */\n      dup3\n        /* \"#utility.yul\":13983:13997   */\n      add\n        /* \"#utility.yul\":13976:14034   */\n      mstore\n        /* \"#utility.yul\":14068:14073   */\n      0x6d69740000000000000000000000000000000000000000000000000000000000\n        /* \"#utility.yul\":14063:14065   */\n      0x20\n        /* \"#utility.yul\":14055:14061   */\n      dup3\n        /* \"#utility.yul\":14051:14066   */\n      add\n        /* \"#utility.yul\":14044:14074   */\n      mstore\n        /* \"#utility.yul\":13859:14081   */\n      pop\n      jump\t// out\n        /* \"#utility.yul\":14087:14209   */\n    tag_345:\n        /* \"#utility.yul\":14160:14184   */\n      tag_522\n        /* \"#utility.yul\":14178:14183   */\n      dup2\n        /* \"#utility.yul\":14160:14184   */\n      tag_402\n      jump\t// in\n    tag_522:\n        /* \"#utility.yul\":14153:14158   */\n      dup2\n        /* \"#utility.yul\":14150:14185   */\n      eq\n        /* \"#utility.yul\":14140:14203   */\n      tag_523\n      jumpi\n        /* \"#utility.yul\":14199:14200   */\n      0x00\n        /* \"#utility.yul\":14196:14197   */\n      dup1\n        /* \"#utility.yul\":14189:14201   */\n      revert\n        /* \"#utility.yul\":14140:14203   */\n    tag_523:\n        /* \"#utility.yul\":14087:14209   */\n      pop\n      jump\t// out\n        /* \"#utility.yul\":14215:14331   */\n    tag_349:\n        /* \"#utility.yul\":14285:14306   */\n      tag_525\n        /* \"#utility.yul\":14300:14305   */\n      dup2\n        /* \"#utility.yul\":14285:14306   */\n      tag_406\n      jump\t// in\n    tag_525:\n        /* \"#utility.yul\":14278:14283   */\n      dup2\n        /* \"#utility.yul\":14275:14307   */\n      eq\n        /* \"#utility.yul\":14265:14325   */\n      tag_526\n      jumpi\n        /* \"#utility.yul\":14321:14322   */\n      0x00\n        /* \"#utility.yul\":14318:14319   */\n      dup1\n        /* \"#utility.yul\":14311:14323   */\n      revert\n        /* \"#utility.yul\":14265:14325   */\n    tag_526:\n        /* \"#utility.yul\":14215:14331   */\n      pop\n      jump\t// out\n        /* \"#utility.yul\":14337:14459   */\n    tag_359:\n        /* \"#utility.yul\":14410:14434   */\n      tag_528\n        /* \"#utility.yul\":14428:14433   */\n      dup2\n        /* \"#utility.yul\":14410:14434   */\n      tag_425\n      jump\t// in\n    tag_528:\n        /* \"#utility.yul\":14403:14408   */\n      dup2\n        /* \"#utility.yul\":14400:14435   */\n      eq\n        /* \"#utility.yul\":14390:14453   */\n      tag_529\n      jumpi\n        /* \"#utility.yul\":14449:14450   */\n      0x00\n        /* \"#utility.yul\":14446:14447   */\n      dup1\n        /* \"#utility.yul\":14439:14451   */\n      revert\n        /* \"#utility.yul\":14390:14453   */\n    tag_529:\n        /* \"#utility.yul\":14337:14459   */\n      pop\n      jump\t// out\n\n    auxdata: 0xa26469706673582212206c507b9c17c56dd02f1189da9c24ffc0b2483673c64c43b196d1dd4f2b36a84164736f6c63430008070033\n}\n",
				"bytecode": {
					"linkReferences": {},
					"object": "6080604052600060055560646006556001600755600a60085560006009556000600f556040516200290538038062002905833981810160405281019062000047919062000273565b336000806101000a81548173ffffffffffffffffffffffffffffffffffffffff021916908373ffffffffffffffffffffffffffffffffffffffff160217905550600654600d60003373ffffffffffffffffffffffffffffffffffffffff1673ffffffffffffffffffffffffffffffffffffffff168152602001908152602001600020819055508160016000019080519060200190620000e892919062000145565b50806001800190805190602001906200010392919062000145565b5060006001600201819055506000600a60006101000a81548160ff02191690836001811115620001385762000137620003f9565b5b02179055505050620004ab565b82805462000153906200038d565b90600052602060002090601f016020900481019282620001775760008555620001c3565b82601f106200019257805160ff1916838001178555620001c3565b82800160010185558215620001c3579182015b82811115620001c2578251825591602001919060010190620001a5565b5b509050620001d29190620001d6565b5090565b5b80821115620001f1576000816000905550600101620001d7565b5090565b60006200020c620002068462000321565b620002f8565b9050828152602081018484840111156200022b576200022a6200048b565b5b6200023884828562000357565b509392505050565b600082601f83011262000258576200025762000486565b5b81516200026a848260208601620001f5565b91505092915050565b600080604083850312156200028d576200028c62000495565b5b600083015167ffffffffffffffff811115620002ae57620002ad62000490565b5b620002bc8582860162000240565b925050602083015167ffffffffffffffff811115620002e057620002df62000490565b5b620002ee8582860162000240565b9150509250929050565b60006200030462000317565b9050620003128282620003c3565b919050565b6000604051905090565b600067ffffffffffffffff8211156200033f576200033e62000457565b5b6200034a826200049a565b9050602081019050919050565b60005b83811015620003775780820151818401526020810190506200035a565b8381111562000387576000848401525b50505050565b60006002820490506001821680620003a657607f821691505b60208210811415620003bd57620003bc62000428565b5b50919050565b620003ce826200049a565b810181811067ffffffffffffffff82111715620003f057620003ef62000457565b5b80604052505050565b7f4e487b7100000000000000000000000000000000000000000000000000000000600052602160045260246000fd5b7f4e487b7100000000000000000000000000000000000000000000000000000000600052602260045260246000fd5b7f4e487b7100000000000000000000000000000000000000000000000000000000600052604160045260246000fd5b600080fd5b600080fd5b600080fd5b600080fd5b6000601f19601f8301169050919050565b61244a80620004bb6000396000f3fe60806040526004361061014b5760003560e01c806387caea78116100b6578063af769c641161006f578063af769c641461047b578063b9223946146104a4578063cd0c5896146104bb578063d8124c5f146104f8578063df09440914610525578063f80723a81461054e5761014b565b806387caea78146103765780638da5cb5b146103b35780639a982416146103de578063a14ba98714610409578063a6f2ae3a14610448578063a9059cbb146104525761014b565b806346a865761161010857806346a86576146102665780634c0a6af01461028f57806359ea0173146102a6578063612fb2ec146102e35780637427a40c1461030e5780637ff9b5961461034b5761014b565b8063162d8afb1461015057806327e235e31461017b578063293230b8146101b85780632cd39acc146101cf5780633a98ef39146102105780633be75aa31461023b575b600080fd5b34801561015c57600080fd5b5061016561057d565b6040516101729190611f80565b60405180910390f35b34801561018757600080fd5b506101a2600480360381019061019d9190611c14565b610583565b6040516101af9190611f80565b60405180910390f35b3480156101c457600080fd5b506101cd61059b565b005b3480156101db57600080fd5b506101f660048036038101906101f19190611d82565b610620565b604051610207959493929190611eba565b60405180910390f35b34801561021c57600080fd5b50610225610786565b6040516102329190611f80565b60405180910390f35b34801561024757600080fd5b5061025061078c565b60405161025d9190611f80565b60405180910390f35b34801561027257600080fd5b5061028d60048036038101906102889190611cae565b610792565b005b34801561029b57600080fd5b506102a4610978565b005b3480156102b257600080fd5b506102cd60048036038101906102c89190611c14565b610a70565b6040516102da9190611e7d565b60405180910390f35b3480156102ef57600080fd5b506102f8610a90565b6040516103059190611f80565b60405180910390f35b34801561031a57600080fd5b5061033560048036038101906103309190611d82565b610a96565b6040516103429190611e47565b60405180910390f35b34801561035757600080fd5b50610360610ad5565b60405161036d9190611f80565b60405180910390f35b34801561038257600080fd5b5061039d60048036038101906103989190611c81565b610adb565b6040516103aa9190611e7d565b60405180910390f35b3480156103bf57600080fd5b506103c8610d1d565b6040516103d59190611e62565b60405180910390f35b3480156103ea57600080fd5b506103f3610d41565b6040516104009190611f80565b60405180910390f35b34801561041557600080fd5b50610430600480360381019061042b9190611d82565b610d47565b60405161043f93929190611f1b565b60405180910390f35b610450610e91565b005b34801561045e57600080fd5b5061047960048036038101906104749190611c41565b611035565b005b34801561048757600080fd5b506104a2600480360381019061049d9190611c14565b611189565b005b3480156104b057600080fd5b506104b96112a4565b005b3480156104c757600080fd5b506104e260048036038101906104dd9190611c14565b6113b8565b6040516104ef9190611f80565b60405180910390f35b34801561050457600080fd5b5061050d6113d9565b60405161051c93929190611f1b565b60405180910390f35b34801561053157600080fd5b5061054c60048036038101906105479190611cf7565b611501565b005b34801561055a57600080fd5b5061056361169f565b604051610574959493929190611eba565b60405180910390f35b60055481565b600d6020528060005260406000206000915090505481565b60008054906101000a900473ffffffffffffffffffffffffffffffffffffffff1673ffffffffffffffffffffffffffffffffffffffff163373ffffffffffffffffffffffffffffffffffffffff16146105f357600080fd5b6001600a60006101000a81548160ff021916908360018111156106195761061861229f565b5b0217905550565b600e60205280600052604060002060009150905080600001805461064390612164565b80601f016020809104026020016040519081016040528092919081815260200182805461066f90612164565b80156106bc5780601f10610691576101008083540402835291602001916106bc565b820191906000526020600020905b81548152906001019060200180831161069f57829003601f168201915b5050505050908060010160009054906101000a900473ffffffffffffffffffffffffffffffffffffffff16908060020180546106f790612164565b80601f016020809104026020016040519081016040528092919081815260200182805461072390612164565b80156107705780601f1061074557610100808354040283529160200191610770565b820191906000526020600020905b81548152906001019060200180831161075357829003601f168201915b5050505050908060030154908060040154905085565b60065481565b60085481565b6040518060a001604052806107a8600f546117f3565b81526020013373ffffffffffffffffffffffffffffffffffffffff168152602001828152602001600081526020016000815250601060008201518160000190805190602001906107f9929190611a03565b5060208201518160010160006101000a81548173ffffffffffffffffffffffffffffffffffffffff021916908373ffffffffffffffffffffffffffffffffffffffff160217905550604082015181600201908051906020019061085d929190611a03565b5060608201518160030155608082015181600401559050506000601560006101000a81548160ff0219169083600281111561089b5761089a61229f565b5b02179055506010600e6000600f54815260200190815260200160002060008201816000019080546108cb90612164565b6108d6929190611a89565b506001820160009054906101000a900473ffffffffffffffffffffffffffffffffffffffff168160010160006101000a81548173ffffffffffffffffffffffffffffffffffffffff021916908373ffffffffffffffffffffffffffffffffffffffff160217905550600282018160020190805461095290612164565b61095d929190611a89565b50600382015481600301556004820154816004015590505050565b600080600281111561098d5761098c61229f565b5b601560009054906101000a900460ff1660028111156109af576109ae61229f565b5b146109b957600080fd5b601060010160009054906101000a900473ffffffffffffffffffffffffffffffffffffffff1673ffffffffffffffffffffffffffffffffffffffff163373ffffffffffffffffffffffffffffffffffffffff1614610a1657600080fd5b6001601560006101000a81548160ff02191690836002811115610a3c57610a3b61229f565b5b02179055507fd0dc01800a369fef30d3fced5275b8b916549867622e79efca5245c479fda4ea60405160405180910390a150565b600c6020528060005260406000206000915054906101000a900460ff1681565b600f5481565b600b8181548110610aa657600080fd5b906000526020600020016000915054906101000a900473ffffffffffffffffffffffffffffffffffffffff1681565b60075481565b60006001806002811115610af257610af161229f565b5b601560009054906101000a900460ff166002811115610b1457610b1361229f565b5b14610b1e57600080fd5b6000600c60003373ffffffffffffffffffffffffffffffffffffffff1673ffffffffffffffffffffffffffffffffffffffff16815260200190815260200160002060009054906101000a900460ff16610cdc576001600c60003373ffffffffffffffffffffffffffffffffffffffff1673ffffffffffffffffffffffffffffffffffffffff16815260200190815260200160002060006101000a81548160ff021916908315150217905550610bd1611b16565b33816000019073ffffffffffffffffffffffffffffffffffffffff16908173ffffffffffffffffffffffffffffffffffffffff1681525050848160200190151590811515815250508415610c385760176000815480929190610c32906121c7565b91905055505b8060166000601060040154815260200190815260200160002060008201518160000160006101000a81548173ffffffffffffffffffffffffffffffffffffffff021916908373ffffffffffffffffffffffffffffffffffffffff16021790555060208201518160000160146101000a81548160ff02191690831515021790555090505060106004016000815480929190610cd1906121c7565b919050555060019150505b7f55c65cf9526efdf6c2252fe9757889dbd93e10172cad0f2edb1df619c88dbf7d33604051610d0b9190611e47565b60405180910390a18092505050919050565b60008054906101000a900473ffffffffffffffffffffffffffffffffffffffff1681565b60095481565b60048181548110610d5757600080fd5b9060005260206000209060030201600091509050806000018054610d7a90612164565b80601f0160208091040260200160405190810160405280929190818152602001828054610da690612164565b8015610df35780601f10610dc857610100808354040283529160200191610df3565b820191906000526020600020905b815481529060010190602001808311610dd657829003601f168201915b505050505090806001018054610e0890612164565b80601f0160208091040260200160405190810160405280929190818152602001828054610e3490612164565b8015610e815780601f10610e5657610100808354040283529160200191610e81565b820191906000526020600020905b815481529060010190602001808311610e6457829003601f168201915b5050505050908060020154905083565b600060075434610ea19190612063565b905060003411610eb057600080fd5b600854811115610ef5576040517f08c379a0000000000000000000000000000000000000000000000000000000008152600401610eec90611f60565b60405180910390fd5b60008054906101000a900473ffffffffffffffffffffffffffffffffffffffff1673ffffffffffffffffffffffffffffffffffffffff166108fc349081150290604051600060405180830381858888f19350505050158015610f5b573d6000803e3d6000fd5b5080600d60008060009054906101000a900473ffffffffffffffffffffffffffffffffffffffff1673ffffffffffffffffffffffffffffffffffffffff1673ffffffffffffffffffffffffffffffffffffffff1681526020019081526020016000206000828254610fcc9190612094565b9250508190555080600d60003373ffffffffffffffffffffffffffffffffffffffff1673ffffffffffffffffffffffffffffffffffffffff1681526020019081526020016000206000828254611022919061200d565b9250508190555061103233611189565b50565b80600d60003373ffffffffffffffffffffffffffffffffffffffff1673ffffffffffffffffffffffffffffffffffffffff16815260200190815260200160002054101561108157600080fd5b60008054906101000a900473ffffffffffffffffffffffffffffffffffffffff1673ffffffffffffffffffffffffffffffffffffffff163373ffffffffffffffffffffffffffffffffffffffff16146110d957600080fd5b80600d60003373ffffffffffffffffffffffffffffffffffffffff1673ffffffffffffffffffffffffffffffffffffffff16815260200190815260200160002060008282546111289190612094565b9250508190555080600d60008473ffffffffffffffffffffffffffffffffffffffff1673ffffffffffffffffffffffffffffffffffffffff168152602001908152602001600020600082825461117e919061200d565b925050819055505050565b61119281611954565b6112a1576000600c60008373ffffffffffffffffffffffffffffffffffffffff1673ffffffffffffffffffffffffffffffffffffffff16815260200190815260200160002060006101000a81548160ff021916908315150217905550600b819080600181540180825580915050600190039060005260206000200160009091909190916101000a81548173ffffffffffffffffffffffffffffffffffffffff021916908373ffffffffffffffffffffffffffffffffffffffff16021790555060096000815480929190611264906121c7565b91905055507f30040c92e8da146ac410fb6841ea0f60af3b8f3788e5e7354e48d97d018f39dd816040516112989190611e47565b60405180910390a15b50565b60018060028111156112b9576112b861229f565b5b601560009054906101000a900460ff1660028111156112db576112da61229f565b5b146112e557600080fd5b601060010160009054906101000a900473ffffffffffffffffffffffffffffffffffffffff1673ffffffffffffffffffffffffffffffffffffffff163373ffffffffffffffffffffffffffffffffffffffff161461134257600080fd5b6002601560006101000a81548160ff021916908360028111156113685761136761229f565b5b02179055506017546010600301819055507fb43a401dcdbe02a8afa41feb6c651425997908d1a4b79cf505188ba1dd3fd8726010600301546040516113ad9190611f80565b60405180910390a150565b60008173ffffffffffffffffffffffffffffffffffffffff16319050919050565b60018060000180546113ea90612164565b80601f016020809104026020016040519081016040528092919081815260200182805461141690612164565b80156114635780601f1061143857610100808354040283529160200191611463565b820191906000526020600020905b81548152906001019060200180831161144657829003601f168201915b50505050509080600101805461147890612164565b80601f01602080910402602001604051908101604052809291908181526020018280546114a490612164565b80156114f15780601f106114c6576101008083540402835291602001916114f1565b820191906000526020600020905b8154815290600101906020018083116114d457829003601f168201915b5050505050908060020154905083565b60008054906101000a900473ffffffffffffffffffffffffffffffffffffffff1673ffffffffffffffffffffffffffffffffffffffff163373ffffffffffffffffffffffffffffffffffffffff161461155957600080fd5b600080600181111561156e5761156d61229f565b5b600a60009054906101000a900460ff1660018111156115905761158f61229f565b5b1461159a57600080fd5b6000604051806060016040528086815260200185815260200184815250905082600160020160008282546115ce919061200d565b925050819055506004819080600181540180825580915050600190039060005260206000209060030201600090919091909150600082015181600001908051906020019061161d929190611a03565b50602082015181600101908051906020019061163a929190611a03565b5060408201518160020155505060016005600082825461165a919061200d565b925050819055507f4578fe17eaab41ae382abe3462bb0cf04bcfee4168d2aad3ce9d5d225d0e27f6856040516116909190611e98565b60405180910390a15050505050565b60108060000180546116b090612164565b80601f01602080910402602001604051908101604052809291908181526020018280546116dc90612164565b80156117295780601f106116fe57610100808354040283529160200191611729565b820191906000526020600020905b81548152906001019060200180831161170c57829003601f168201915b5050505050908060010160009054906101000a900473ffffffffffffffffffffffffffffffffffffffff169080600201805461176490612164565b80601f016020809104026020016040519081016040528092919081815260200182805461179090612164565b80156117dd5780601f106117b2576101008083540402835291602001916117dd565b820191906000526020600020905b8154815290600101906020018083116117c057829003601f168201915b5050505050908060030154908060040154905085565b6060600082141561183b576040518060400160405280600181526020017f3000000000000000000000000000000000000000000000000000000000000000815250905061194f565b600082905060005b6000821461186d578080611856906121c7565b915050600a826118669190612063565b9150611843565b60008167ffffffffffffffff8111156118895761188861232c565b5b6040519080825280601f01601f1916602001820160405280156118bb5781602001600182028036833780820191505090505b5090505b60008514611948576001826118d49190612094565b9150600a856118e39190612210565b60306118ef919061200d565b60f81b818381518110611905576119046122fd565b5b60200101907effffffffffffffffffffffffffffffffffffffffffffffffffffffffffffff1916908160001a905350600a856119419190612063565b94506118bf565b8093505050505b919050565b600080600090505b600b805490508110156119f8578273ffffffffffffffffffffffffffffffffffffffff16600b8281548110611994576119936122fd565b5b9060005260206000200160009054906101000a900473ffffffffffffffffffffffffffffffffffffffff1673ffffffffffffffffffffffffffffffffffffffff1614156119e55760019150506119fe565b80806119f0906121c7565b91505061195c565b50600090505b919050565b828054611a0f90612164565b90600052602060002090601f016020900481019282611a315760008555611a78565b82601f10611a4a57805160ff1916838001178555611a78565b82800160010185558215611a78579182015b82811115611a77578251825591602001919060010190611a5c565b5b509050611a859190611b48565b5090565b828054611a9590612164565b90600052602060002090601f016020900481019282611ab75760008555611b05565b82601f10611ac85780548555611b05565b82800160010185558215611b0557600052602060002091601f016020900482015b82811115611b04578254825591600101919060010190611ae9565b5b509050611b129190611b48565b5090565b6040518060400160405280600073ffffffffffffffffffffffffffffffffffffffff1681526020016000151581525090565b5b80821115611b61576000816000905550600101611b49565b5090565b6000611b78611b7384611fc0565b611f9b565b905082815260208101848484011115611b9457611b93612360565b5b611b9f848285612122565b509392505050565b600081359050611bb6816123cf565b92915050565b600081359050611bcb816123e6565b92915050565b600082601f830112611be657611be561235b565b5b8135611bf6848260208601611b65565b91505092915050565b600081359050611c0e816123fd565b92915050565b600060208284031215611c2a57611c2961236a565b5b6000611c3884828501611ba7565b91505092915050565b60008060408385031215611c5857611c5761236a565b5b6000611c6685828601611ba7565b9250506020611c7785828601611bff565b9150509250929050565b600060208284031215611c9757611c9661236a565b5b6000611ca584828501611bbc565b91505092915050565b600060208284031215611cc457611cc361236a565b5b600082013567ffffffffffffffff811115611ce257611ce1612365565b5b611cee84828501611bd1565b91505092915050565b600080600060608486031215611d1057611d0f61236a565b5b600084013567ffffffffffffffff811115611d2e57611d2d612365565b5b611d3a86828701611bd1565b935050602084013567ffffffffffffffff811115611d5b57611d5a612365565b5b611d6786828701611bd1565b9250506040611d7886828701611bff565b9150509250925092565b600060208284031215611d9857611d9761236a565b5b6000611da684828501611bff565b91505092915050565b611db8816120da565b82525050565b611dc7816120c8565b82525050565b611dd6816120ec565b82525050565b6000611de782611ff1565b611df18185611ffc565b9350611e01818560208601612131565b611e0a8161236f565b840191505092915050565b6000611e22602383611ffc565b9150611e2d82612380565b604082019050919050565b611e4181612118565b82525050565b6000602082019050611e5c6000830184611dbe565b92915050565b6000602082019050611e776000830184611daf565b92915050565b6000602082019050611e926000830184611dcd565b92915050565b60006020820190508181036000830152611eb28184611ddc565b905092915050565b600060a0820190508181036000830152611ed48188611ddc565b9050611ee36020830187611dbe565b8181036040830152611ef58186611ddc565b9050611f046060830185611e38565b611f116080830184611e38565b9695505050505050565b60006060820190508181036000830152611f358186611ddc565b90508181036020830152611f498185611ddc565b9050611f586040830184611e38565b949350505050565b60006020820190508181036000830152611f7981611e15565b9050919050565b6000602082019050611f956000830184611e38565b92915050565b6000611fa5611fb6565b9050611fb18282612196565b919050565b6000604051905090565b600067ffffffffffffffff821115611fdb57611fda61232c565b5b611fe48261236f565b9050602081019050919050565b600081519050919050565b600082825260208201905092915050565b600061201882612118565b915061202383612118565b9250827fffffffffffffffffffffffffffffffffffffffffffffffffffffffffffffffff0382111561205857612057612241565b5b828201905092915050565b600061206e82612118565b915061207983612118565b92508261208957612088612270565b5b828204905092915050565b600061209f82612118565b91506120aa83612118565b9250828210156120bd576120bc612241565b5b828203905092915050565b60006120d3826120f8565b9050919050565b60006120e5826120f8565b9050919050565b60008115159050919050565b600073ffffffffffffffffffffffffffffffffffffffff82169050919050565b6000819050919050565b82818337600083830152505050565b60005b8381101561214f578082015181840152602081019050612134565b8381111561215e576000848401525b50505050565b6000600282049050600182168061217c57607f821691505b602082108114156121905761218f6122ce565b5b50919050565b61219f8261236f565b810181811067ffffffffffffffff821117156121be576121bd61232c565b5b80604052505050565b60006121d282612118565b91507fffffffffffffffffffffffffffffffffffffffffffffffffffffffffffffffff82141561220557612204612241565b5b600182019050919050565b600061221b82612118565b915061222683612118565b92508261223657612235612270565b5b828206905092915050565b7f4e487b7100000000000000000000000000000000000000000000000000000000600052601160045260246000fd5b7f4e487b7100000000000000000000000000000000000000000000000000000000600052601260045260246000fd5b7f4e487b7100000000000000000000000000000000000000000000000000000000600052602160045260246000fd5b7f4e487b7100000000000000000000000000000000000000000000000000000000600052602260045260246000fd5b7f4e487b7100000000000000000000000000000000000000000000000000000000600052603260045260246000fd5b7f4e487b7100000000000000000000000000000000000000000000000000000000600052604160045260246000fd5b600080fd5b600080fd5b600080fd5b600080fd5b6000601f19601f8301169050919050565b7f4e756d626572206f662073686172657320657863656564656420746865206c6960008201527f6d69740000000000000000000000000000000000000000000000000000000000602082015250565b6123d8816120c8565b81146123e357600080fd5b50565b6123ef816120ec565b81146123fa57600080fd5b50565b61240681612118565b811461241157600080fd5b5056fea26469706673582212206c507b9c17c56dd02f1189da9c24ffc0b2483673c64c43b196d1dd4f2b36a84164736f6c63430008070033",
					"opcodes": "PUSH1 0x80 PUSH1 0x40 MSTORE PUSH1 0x0 PUSH1 0x5 SSTORE PUSH1 0x64 PUSH1 0x6 SSTORE PUSH1 0x1 PUSH1 0x7 SSTORE PUSH1 0xA PUSH1 0x8 SSTORE PUSH1 0x0 PUSH1 0x9 SSTORE PUSH1 0x0 PUSH1 0xF SSTORE PUSH1 0x40 MLOAD PUSH3 0x2905 CODESIZE SUB DUP1 PUSH3 0x2905 DUP4 CODECOPY DUP2 DUP2 ADD PUSH1 0x40 MSTORE DUP2 ADD SWAP1 PUSH3 0x47 SWAP2 SWAP1 PUSH3 0x273 JUMP JUMPDEST CALLER PUSH1 0x0 DUP1 PUSH2 0x100 EXP DUP2 SLOAD DUP2 PUSH20 0xFFFFFFFFFFFFFFFFFFFFFFFFFFFFFFFFFFFFFFFF MUL NOT AND SWAP1 DUP4 PUSH20 0xFFFFFFFFFFFFFFFFFFFFFFFFFFFFFFFFFFFFFFFF AND MUL OR SWAP1 SSTORE POP PUSH1 0x6 SLOAD PUSH1 0xD PUSH1 0x0 CALLER PUSH20 0xFFFFFFFFFFFFFFFFFFFFFFFFFFFFFFFFFFFFFFFF AND PUSH20 0xFFFFFFFFFFFFFFFFFFFFFFFFFFFFFFFFFFFFFFFF AND DUP2 MSTORE PUSH1 0x20 ADD SWAP1 DUP2 MSTORE PUSH1 0x20 ADD PUSH1 0x0 KECCAK256 DUP2 SWAP1 SSTORE POP DUP2 PUSH1 0x1 PUSH1 0x0 ADD SWAP1 DUP1 MLOAD SWAP1 PUSH1 0x20 ADD SWAP1 PUSH3 0xE8 SWAP3 SWAP2 SWAP1 PUSH3 0x145 JUMP JUMPDEST POP DUP1 PUSH1 0x1 DUP1 ADD SWAP1 DUP1 MLOAD SWAP1 PUSH1 0x20 ADD SWAP1 PUSH3 0x103 SWAP3 SWAP2 SWAP1 PUSH3 0x145 JUMP JUMPDEST POP PUSH1 0x0 PUSH1 0x1 PUSH1 0x2 ADD DUP2 SWAP1 SSTORE POP PUSH1 0x0 PUSH1 0xA PUSH1 0x0 PUSH2 0x100 EXP DUP2 SLOAD DUP2 PUSH1 0xFF MUL NOT AND SWAP1 DUP4 PUSH1 0x1 DUP2 GT ISZERO PUSH3 0x138 JUMPI PUSH3 0x137 PUSH3 0x3F9 JUMP JUMPDEST JUMPDEST MUL OR SWAP1 SSTORE POP POP POP PUSH3 0x4AB JUMP JUMPDEST DUP3 DUP1 SLOAD PUSH3 0x153 SWAP1 PUSH3 0x38D JUMP JUMPDEST SWAP1 PUSH1 0x0 MSTORE PUSH1 0x20 PUSH1 0x0 KECCAK256 SWAP1 PUSH1 0x1F ADD PUSH1 0x20 SWAP1 DIV DUP2 ADD SWAP3 DUP3 PUSH3 0x177 JUMPI PUSH1 0x0 DUP6 SSTORE PUSH3 0x1C3 JUMP JUMPDEST DUP3 PUSH1 0x1F LT PUSH3 0x192 JUMPI DUP1 MLOAD PUSH1 0xFF NOT AND DUP4 DUP1 ADD OR DUP6 SSTORE PUSH3 0x1C3 JUMP JUMPDEST DUP3 DUP1 ADD PUSH1 0x1 ADD DUP6 SSTORE DUP3 ISZERO PUSH3 0x1C3 JUMPI SWAP2 DUP3 ADD JUMPDEST DUP3 DUP2 GT ISZERO PUSH3 0x1C2 JUMPI DUP3 MLOAD DUP3 SSTORE SWAP2 PUSH1 0x20 ADD SWAP2 SWAP1 PUSH1 0x1 ADD SWAP1 PUSH3 0x1A5 JUMP JUMPDEST JUMPDEST POP SWAP1 POP PUSH3 0x1D2 SWAP2 SWAP1 PUSH3 0x1D6 JUMP JUMPDEST POP SWAP1 JUMP JUMPDEST JUMPDEST DUP1 DUP3 GT ISZERO PUSH3 0x1F1 JUMPI PUSH1 0x0 DUP2 PUSH1 0x0 SWAP1 SSTORE POP PUSH1 0x1 ADD PUSH3 0x1D7 JUMP JUMPDEST POP SWAP1 JUMP JUMPDEST PUSH1 0x0 PUSH3 0x20C PUSH3 0x206 DUP5 PUSH3 0x321 JUMP JUMPDEST PUSH3 0x2F8 JUMP JUMPDEST SWAP1 POP DUP3 DUP2 MSTORE PUSH1 0x20 DUP2 ADD DUP5 DUP5 DUP5 ADD GT ISZERO PUSH3 0x22B JUMPI PUSH3 0x22A PUSH3 0x48B JUMP JUMPDEST JUMPDEST PUSH3 0x238 DUP5 DUP3 DUP6 PUSH3 0x357 JUMP JUMPDEST POP SWAP4 SWAP3 POP POP POP JUMP JUMPDEST PUSH1 0x0 DUP3 PUSH1 0x1F DUP4 ADD SLT PUSH3 0x258 JUMPI PUSH3 0x257 PUSH3 0x486 JUMP JUMPDEST JUMPDEST DUP2 MLOAD PUSH3 0x26A DUP5 DUP3 PUSH1 0x20 DUP7 ADD PUSH3 0x1F5 JUMP JUMPDEST SWAP2 POP POP SWAP3 SWAP2 POP POP JUMP JUMPDEST PUSH1 0x0 DUP1 PUSH1 0x40 DUP4 DUP6 SUB SLT ISZERO PUSH3 0x28D JUMPI PUSH3 0x28C PUSH3 0x495 JUMP JUMPDEST JUMPDEST PUSH1 0x0 DUP4 ADD MLOAD PUSH8 0xFFFFFFFFFFFFFFFF DUP2 GT ISZERO PUSH3 0x2AE JUMPI PUSH3 0x2AD PUSH3 0x490 JUMP JUMPDEST JUMPDEST PUSH3 0x2BC DUP6 DUP3 DUP7 ADD PUSH3 0x240 JUMP JUMPDEST SWAP3 POP POP PUSH1 0x20 DUP4 ADD MLOAD PUSH8 0xFFFFFFFFFFFFFFFF DUP2 GT ISZERO PUSH3 0x2E0 JUMPI PUSH3 0x2DF PUSH3 0x490 JUMP JUMPDEST JUMPDEST PUSH3 0x2EE DUP6 DUP3 DUP7 ADD PUSH3 0x240 JUMP JUMPDEST SWAP2 POP POP SWAP3 POP SWAP3 SWAP1 POP JUMP JUMPDEST PUSH1 0x0 PUSH3 0x304 PUSH3 0x317 JUMP JUMPDEST SWAP1 POP PUSH3 0x312 DUP3 DUP3 PUSH3 0x3C3 JUMP JUMPDEST SWAP2 SWAP1 POP JUMP JUMPDEST PUSH1 0x0 PUSH1 0x40 MLOAD SWAP1 POP SWAP1 JUMP JUMPDEST PUSH1 0x0 PUSH8 0xFFFFFFFFFFFFFFFF DUP3 GT ISZERO PUSH3 0x33F JUMPI PUSH3 0x33E PUSH3 0x457 JUMP JUMPDEST JUMPDEST PUSH3 0x34A DUP3 PUSH3 0x49A JUMP JUMPDEST SWAP1 POP PUSH1 0x20 DUP2 ADD SWAP1 POP SWAP2 SWAP1 POP JUMP JUMPDEST PUSH1 0x0 JUMPDEST DUP4 DUP2 LT ISZERO PUSH3 0x377 JUMPI DUP1 DUP3 ADD MLOAD DUP2 DUP5 ADD MSTORE PUSH1 0x20 DUP2 ADD SWAP1 POP PUSH3 0x35A JUMP JUMPDEST DUP4 DUP2 GT ISZERO PUSH3 0x387 JUMPI PUSH1 0x0 DUP5 DUP5 ADD MSTORE JUMPDEST POP POP POP POP JUMP JUMPDEST PUSH1 0x0 PUSH1 0x2 DUP3 DIV SWAP1 POP PUSH1 0x1 DUP3 AND DUP1 PUSH3 0x3A6 JUMPI PUSH1 0x7F DUP3 AND SWAP2 POP JUMPDEST PUSH1 0x20 DUP3 LT DUP2 EQ ISZERO PUSH3 0x3BD JUMPI PUSH3 0x3BC PUSH3 0x428 JUMP JUMPDEST JUMPDEST POP SWAP2 SWAP1 POP JUMP JUMPDEST PUSH3 0x3CE DUP3 PUSH3 0x49A JUMP JUMPDEST DUP2 ADD DUP2 DUP2 LT PUSH8 0xFFFFFFFFFFFFFFFF DUP3 GT OR ISZERO PUSH3 0x3F0 JUMPI PUSH3 0x3EF PUSH3 0x457 JUMP JUMPDEST JUMPDEST DUP1 PUSH1 0x40 MSTORE POP POP POP JUMP JUMPDEST PUSH32 0x4E487B7100000000000000000000000000000000000000000000000000000000 PUSH1 0x0 MSTORE PUSH1 0x21 PUSH1 0x4 MSTORE PUSH1 0x24 PUSH1 0x0 REVERT JUMPDEST PUSH32 0x4E487B7100000000000000000000000000000000000000000000000000000000 PUSH1 0x0 MSTORE PUSH1 0x22 PUSH1 0x4 MSTORE PUSH1 0x24 PUSH1 0x0 REVERT JUMPDEST PUSH32 0x4E487B7100000000000000000000000000000000000000000000000000000000 PUSH1 0x0 MSTORE PUSH1 0x41 PUSH1 0x4 MSTORE PUSH1 0x24 PUSH1 0x0 REVERT JUMPDEST PUSH1 0x0 DUP1 REVERT JUMPDEST PUSH1 0x0 DUP1 REVERT JUMPDEST PUSH1 0x0 DUP1 REVERT JUMPDEST PUSH1 0x0 DUP1 REVERT JUMPDEST PUSH1 0x0 PUSH1 0x1F NOT PUSH1 0x1F DUP4 ADD AND SWAP1 POP SWAP2 SWAP1 POP JUMP JUMPDEST PUSH2 0x244A DUP1 PUSH3 0x4BB PUSH1 0x0 CODECOPY PUSH1 0x0 RETURN INVALID PUSH1 0x80 PUSH1 0x40 MSTORE PUSH1 0x4 CALLDATASIZE LT PUSH2 0x14B JUMPI PUSH1 0x0 CALLDATALOAD PUSH1 0xE0 SHR DUP1 PUSH4 0x87CAEA78 GT PUSH2 0xB6 JUMPI DUP1 PUSH4 0xAF769C64 GT PUSH2 0x6F JUMPI DUP1 PUSH4 0xAF769C64 EQ PUSH2 0x47B JUMPI DUP1 PUSH4 0xB9223946 EQ PUSH2 0x4A4 JUMPI DUP1 PUSH4 0xCD0C5896 EQ PUSH2 0x4BB JUMPI DUP1 PUSH4 0xD8124C5F EQ PUSH2 0x4F8 JUMPI DUP1 PUSH4 0xDF094409 EQ PUSH2 0x525 JUMPI DUP1 PUSH4 0xF80723A8 EQ PUSH2 0x54E JUMPI PUSH2 0x14B JUMP JUMPDEST DUP1 PUSH4 0x87CAEA78 EQ PUSH2 0x376 JUMPI DUP1 PUSH4 0x8DA5CB5B EQ PUSH2 0x3B3 JUMPI DUP1 PUSH4 0x9A982416 EQ PUSH2 0x3DE JUMPI DUP1 PUSH4 0xA14BA987 EQ PUSH2 0x409 JUMPI DUP1 PUSH4 0xA6F2AE3A EQ PUSH2 0x448 JUMPI DUP1 PUSH4 0xA9059CBB EQ PUSH2 0x452 JUMPI PUSH2 0x14B JUMP JUMPDEST DUP1 PUSH4 0x46A86576 GT PUSH2 0x108 JUMPI DUP1 PUSH4 0x46A86576 EQ PUSH2 0x266 JUMPI DUP1 PUSH4 0x4C0A6AF0 EQ PUSH2 0x28F JUMPI DUP1 PUSH4 0x59EA0173 EQ PUSH2 0x2A6 JUMPI DUP1 PUSH4 0x612FB2EC EQ PUSH2 0x2E3 JUMPI DUP1 PUSH4 0x7427A40C EQ PUSH2 0x30E JUMPI DUP1 PUSH4 0x7FF9B596 EQ PUSH2 0x34B JUMPI PUSH2 0x14B JUMP JUMPDEST DUP1 PUSH4 0x162D8AFB EQ PUSH2 0x150 JUMPI DUP1 PUSH4 0x27E235E3 EQ PUSH2 0x17B JUMPI DUP1 PUSH4 0x293230B8 EQ PUSH2 0x1B8 JUMPI DUP1 PUSH4 0x2CD39ACC EQ PUSH2 0x1CF JUMPI DUP1 PUSH4 0x3A98EF39 EQ PUSH2 0x210 JUMPI DUP1 PUSH4 0x3BE75AA3 EQ PUSH2 0x23B JUMPI JUMPDEST PUSH1 0x0 DUP1 REVERT JUMPDEST CALLVALUE DUP1 ISZERO PUSH2 0x15C JUMPI PUSH1 0x0 DUP1 REVERT JUMPDEST POP PUSH2 0x165 PUSH2 0x57D JUMP JUMPDEST PUSH1 0x40 MLOAD PUSH2 0x172 SWAP2 SWAP1 PUSH2 0x1F80 JUMP JUMPDEST PUSH1 0x40 MLOAD DUP1 SWAP2 SUB SWAP1 RETURN JUMPDEST CALLVALUE DUP1 ISZERO PUSH2 0x187 JUMPI PUSH1 0x0 DUP1 REVERT JUMPDEST POP PUSH2 0x1A2 PUSH1 0x4 DUP1 CALLDATASIZE SUB DUP2 ADD SWAP1 PUSH2 0x19D SWAP2 SWAP1 PUSH2 0x1C14 JUMP JUMPDEST PUSH2 0x583 JUMP JUMPDEST PUSH1 0x40 MLOAD PUSH2 0x1AF SWAP2 SWAP1 PUSH2 0x1F80 JUMP JUMPDEST PUSH1 0x40 MLOAD DUP1 SWAP2 SUB SWAP1 RETURN JUMPDEST CALLVALUE DUP1 ISZERO PUSH2 0x1C4 JUMPI PUSH1 0x0 DUP1 REVERT JUMPDEST POP PUSH2 0x1CD PUSH2 0x59B JUMP JUMPDEST STOP JUMPDEST CALLVALUE DUP1 ISZERO PUSH2 0x1DB JUMPI PUSH1 0x0 DUP1 REVERT JUMPDEST POP PUSH2 0x1F6 PUSH1 0x4 DUP1 CALLDATASIZE SUB DUP2 ADD SWAP1 PUSH2 0x1F1 SWAP2 SWAP1 PUSH2 0x1D82 JUMP JUMPDEST PUSH2 0x620 JUMP JUMPDEST PUSH1 0x40 MLOAD PUSH2 0x207 SWAP6 SWAP5 SWAP4 SWAP3 SWAP2 SWAP1 PUSH2 0x1EBA JUMP JUMPDEST PUSH1 0x40 MLOAD DUP1 SWAP2 SUB SWAP1 RETURN JUMPDEST CALLVALUE DUP1 ISZERO PUSH2 0x21C JUMPI PUSH1 0x0 DUP1 REVERT JUMPDEST POP PUSH2 0x225 PUSH2 0x786 JUMP JUMPDEST PUSH1 0x40 MLOAD PUSH2 0x232 SWAP2 SWAP1 PUSH2 0x1F80 JUMP JUMPDEST PUSH1 0x40 MLOAD DUP1 SWAP2 SUB SWAP1 RETURN JUMPDEST CALLVALUE DUP1 ISZERO PUSH2 0x247 JUMPI PUSH1 0x0 DUP1 REVERT JUMPDEST POP PUSH2 0x250 PUSH2 0x78C JUMP JUMPDEST PUSH1 0x40 MLOAD PUSH2 0x25D SWAP2 SWAP1 PUSH2 0x1F80 JUMP JUMPDEST PUSH1 0x40 MLOAD DUP1 SWAP2 SUB SWAP1 RETURN JUMPDEST CALLVALUE DUP1 ISZERO PUSH2 0x272 JUMPI PUSH1 0x0 DUP1 REVERT JUMPDEST POP PUSH2 0x28D PUSH1 0x4 DUP1 CALLDATASIZE SUB DUP2 ADD SWAP1 PUSH2 0x288 SWAP2 SWAP1 PUSH2 0x1CAE JUMP JUMPDEST PUSH2 0x792 JUMP JUMPDEST STOP JUMPDEST CALLVALUE DUP1 ISZERO PUSH2 0x29B JUMPI PUSH1 0x0 DUP1 REVERT JUMPDEST POP PUSH2 0x2A4 PUSH2 0x978 JUMP JUMPDEST STOP JUMPDEST CALLVALUE DUP1 ISZERO PUSH2 0x2B2 JUMPI PUSH1 0x0 DUP1 REVERT JUMPDEST POP PUSH2 0x2CD PUSH1 0x4 DUP1 CALLDATASIZE SUB DUP2 ADD SWAP1 PUSH2 0x2C8 SWAP2 SWAP1 PUSH2 0x1C14 JUMP JUMPDEST PUSH2 0xA70 JUMP JUMPDEST PUSH1 0x40 MLOAD PUSH2 0x2DA SWAP2 SWAP1 PUSH2 0x1E7D JUMP JUMPDEST PUSH1 0x40 MLOAD DUP1 SWAP2 SUB SWAP1 RETURN JUMPDEST CALLVALUE DUP1 ISZERO PUSH2 0x2EF JUMPI PUSH1 0x0 DUP1 REVERT JUMPDEST POP PUSH2 0x2F8 PUSH2 0xA90 JUMP JUMPDEST PUSH1 0x40 MLOAD PUSH2 0x305 SWAP2 SWAP1 PUSH2 0x1F80 JUMP JUMPDEST PUSH1 0x40 MLOAD DUP1 SWAP2 SUB SWAP1 RETURN JUMPDEST CALLVALUE DUP1 ISZERO PUSH2 0x31A JUMPI PUSH1 0x0 DUP1 REVERT JUMPDEST POP PUSH2 0x335 PUSH1 0x4 DUP1 CALLDATASIZE SUB DUP2 ADD SWAP1 PUSH2 0x330 SWAP2 SWAP1 PUSH2 0x1D82 JUMP JUMPDEST PUSH2 0xA96 JUMP JUMPDEST PUSH1 0x40 MLOAD PUSH2 0x342 SWAP2 SWAP1 PUSH2 0x1E47 JUMP JUMPDEST PUSH1 0x40 MLOAD DUP1 SWAP2 SUB SWAP1 RETURN JUMPDEST CALLVALUE DUP1 ISZERO PUSH2 0x357 JUMPI PUSH1 0x0 DUP1 REVERT JUMPDEST POP PUSH2 0x360 PUSH2 0xAD5 JUMP JUMPDEST PUSH1 0x40 MLOAD PUSH2 0x36D SWAP2 SWAP1 PUSH2 0x1F80 JUMP JUMPDEST PUSH1 0x40 MLOAD DUP1 SWAP2 SUB SWAP1 RETURN JUMPDEST CALLVALUE DUP1 ISZERO PUSH2 0x382 JUMPI PUSH1 0x0 DUP1 REVERT JUMPDEST POP PUSH2 0x39D PUSH1 0x4 DUP1 CALLDATASIZE SUB DUP2 ADD SWAP1 PUSH2 0x398 SWAP2 SWAP1 PUSH2 0x1C81 JUMP JUMPDEST PUSH2 0xADB JUMP JUMPDEST PUSH1 0x40 MLOAD PUSH2 0x3AA SWAP2 SWAP1 PUSH2 0x1E7D JUMP JUMPDEST PUSH1 0x40 MLOAD DUP1 SWAP2 SUB SWAP1 RETURN JUMPDEST CALLVALUE DUP1 ISZERO PUSH2 0x3BF JUMPI PUSH1 0x0 DUP1 REVERT JUMPDEST POP PUSH2 0x3C8 PUSH2 0xD1D JUMP JUMPDEST PUSH1 0x40 MLOAD PUSH2 0x3D5 SWAP2 SWAP1 PUSH2 0x1E62 JUMP JUMPDEST PUSH1 0x40 MLOAD DUP1 SWAP2 SUB SWAP1 RETURN JUMPDEST CALLVALUE DUP1 ISZERO PUSH2 0x3EA JUMPI PUSH1 0x0 DUP1 REVERT JUMPDEST POP PUSH2 0x3F3 PUSH2 0xD41 JUMP JUMPDEST PUSH1 0x40 MLOAD PUSH2 0x400 SWAP2 SWAP1 PUSH2 0x1F80 JUMP JUMPDEST PUSH1 0x40 MLOAD DUP1 SWAP2 SUB SWAP1 RETURN JUMPDEST CALLVALUE DUP1 ISZERO PUSH2 0x415 JUMPI PUSH1 0x0 DUP1 REVERT JUMPDEST POP PUSH2 0x430 PUSH1 0x4 DUP1 CALLDATASIZE SUB DUP2 ADD SWAP1 PUSH2 0x42B SWAP2 SWAP1 PUSH2 0x1D82 JUMP JUMPDEST PUSH2 0xD47 JUMP JUMPDEST PUSH1 0x40 MLOAD PUSH2 0x43F SWAP4 SWAP3 SWAP2 SWAP1 PUSH2 0x1F1B JUMP JUMPDEST PUSH1 0x40 MLOAD DUP1 SWAP2 SUB SWAP1 RETURN JUMPDEST PUSH2 0x450 PUSH2 0xE91 JUMP JUMPDEST STOP JUMPDEST CALLVALUE DUP1 ISZERO PUSH2 0x45E JUMPI PUSH1 0x0 DUP1 REVERT JUMPDEST POP PUSH2 0x479 PUSH1 0x4 DUP1 CALLDATASIZE SUB DUP2 ADD SWAP1 PUSH2 0x474 SWAP2 SWAP1 PUSH2 0x1C41 JUMP JUMPDEST PUSH2 0x1035 JUMP JUMPDEST STOP JUMPDEST CALLVALUE DUP1 ISZERO PUSH2 0x487 JUMPI PUSH1 0x0 DUP1 REVERT JUMPDEST POP PUSH2 0x4A2 PUSH1 0x4 DUP1 CALLDATASIZE SUB DUP2 ADD SWAP1 PUSH2 0x49D SWAP2 SWAP1 PUSH2 0x1C14 JUMP JUMPDEST PUSH2 0x1189 JUMP JUMPDEST STOP JUMPDEST CALLVALUE DUP1 ISZERO PUSH2 0x4B0 JUMPI PUSH1 0x0 DUP1 REVERT JUMPDEST POP PUSH2 0x4B9 PUSH2 0x12A4 JUMP JUMPDEST STOP JUMPDEST CALLVALUE DUP1 ISZERO PUSH2 0x4C7 JUMPI PUSH1 0x0 DUP1 REVERT JUMPDEST POP PUSH2 0x4E2 PUSH1 0x4 DUP1 CALLDATASIZE SUB DUP2 ADD SWAP1 PUSH2 0x4DD SWAP2 SWAP1 PUSH2 0x1C14 JUMP JUMPDEST PUSH2 0x13B8 JUMP JUMPDEST PUSH1 0x40 MLOAD PUSH2 0x4EF SWAP2 SWAP1 PUSH2 0x1F80 JUMP JUMPDEST PUSH1 0x40 MLOAD DUP1 SWAP2 SUB SWAP1 RETURN JUMPDEST CALLVALUE DUP1 ISZERO PUSH2 0x504 JUMPI PUSH1 0x0 DUP1 REVERT JUMPDEST POP PUSH2 0x50D PUSH2 0x13D9 JUMP JUMPDEST PUSH1 0x40 MLOAD PUSH2 0x51C SWAP4 SWAP3 SWAP2 SWAP1 PUSH2 0x1F1B JUMP JUMPDEST PUSH1 0x40 MLOAD DUP1 SWAP2 SUB SWAP1 RETURN JUMPDEST CALLVALUE DUP1 ISZERO PUSH2 0x531 JUMPI PUSH1 0x0 DUP1 REVERT JUMPDEST POP PUSH2 0x54C PUSH1 0x4 DUP1 CALLDATASIZE SUB DUP2 ADD SWAP1 PUSH2 0x547 SWAP2 SWAP1 PUSH2 0x1CF7 JUMP JUMPDEST PUSH2 0x1501 JUMP JUMPDEST STOP JUMPDEST CALLVALUE DUP1 ISZERO PUSH2 0x55A JUMPI PUSH1 0x0 DUP1 REVERT JUMPDEST POP PUSH2 0x563 PUSH2 0x169F JUMP JUMPDEST PUSH1 0x40 MLOAD PUSH2 0x574 SWAP6 SWAP5 SWAP4 SWAP3 SWAP2 SWAP1 PUSH2 0x1EBA JUMP JUMPDEST PUSH1 0x40 MLOAD DUP1 SWAP2 SUB SWAP1 RETURN JUMPDEST PUSH1 0x5 SLOAD DUP2 JUMP JUMPDEST PUSH1 0xD PUSH1 0x20 MSTORE DUP1 PUSH1 0x0 MSTORE PUSH1 0x40 PUSH1 0x0 KECCAK256 PUSH1 0x0 SWAP2 POP SWAP1 POP SLOAD DUP2 JUMP JUMPDEST PUSH1 0x0 DUP1 SLOAD SWAP1 PUSH2 0x100 EXP SWAP1 DIV PUSH20 0xFFFFFFFFFFFFFFFFFFFFFFFFFFFFFFFFFFFFFFFF AND PUSH20 0xFFFFFFFFFFFFFFFFFFFFFFFFFFFFFFFFFFFFFFFF AND CALLER PUSH20 0xFFFFFFFFFFFFFFFFFFFFFFFFFFFFFFFFFFFFFFFF AND EQ PUSH2 0x5F3 JUMPI PUSH1 0x0 DUP1 REVERT JUMPDEST PUSH1 0x1 PUSH1 0xA PUSH1 0x0 PUSH2 0x100 EXP DUP2 SLOAD DUP2 PUSH1 0xFF MUL NOT AND SWAP1 DUP4 PUSH1 0x1 DUP2 GT ISZERO PUSH2 0x619 JUMPI PUSH2 0x618 PUSH2 0x229F JUMP JUMPDEST JUMPDEST MUL OR SWAP1 SSTORE POP JUMP JUMPDEST PUSH1 0xE PUSH1 0x20 MSTORE DUP1 PUSH1 0x0 MSTORE PUSH1 0x40 PUSH1 0x0 KECCAK256 PUSH1 0x0 SWAP2 POP SWAP1 POP DUP1 PUSH1 0x0 ADD DUP1 SLOAD PUSH2 0x643 SWAP1 PUSH2 0x2164 JUMP JUMPDEST DUP1 PUSH1 0x1F ADD PUSH1 0x20 DUP1 SWAP2 DIV MUL PUSH1 0x20 ADD PUSH1 0x40 MLOAD SWAP1 DUP2 ADD PUSH1 0x40 MSTORE DUP1 SWAP3 SWAP2 SWAP1 DUP2 DUP2 MSTORE PUSH1 0x20 ADD DUP3 DUP1 SLOAD PUSH2 0x66F SWAP1 PUSH2 0x2164 JUMP JUMPDEST DUP1 ISZERO PUSH2 0x6BC JUMPI DUP1 PUSH1 0x1F LT PUSH2 0x691 JUMPI PUSH2 0x100 DUP1 DUP4 SLOAD DIV MUL DUP4 MSTORE SWAP2 PUSH1 0x20 ADD SWAP2 PUSH2 0x6BC JUMP JUMPDEST DUP3 ADD SWAP2 SWAP1 PUSH1 0x0 MSTORE PUSH1 0x20 PUSH1 0x0 KECCAK256 SWAP1 JUMPDEST DUP2 SLOAD DUP2 MSTORE SWAP1 PUSH1 0x1 ADD SWAP1 PUSH1 0x20 ADD DUP1 DUP4 GT PUSH2 0x69F JUMPI DUP3 SWAP1 SUB PUSH1 0x1F AND DUP3 ADD SWAP2 JUMPDEST POP POP POP POP POP SWAP1 DUP1 PUSH1 0x1 ADD PUSH1 0x0 SWAP1 SLOAD SWAP1 PUSH2 0x100 EXP SWAP1 DIV PUSH20 0xFFFFFFFFFFFFFFFFFFFFFFFFFFFFFFFFFFFFFFFF AND SWAP1 DUP1 PUSH1 0x2 ADD DUP1 SLOAD PUSH2 0x6F7 SWAP1 PUSH2 0x2164 JUMP JUMPDEST DUP1 PUSH1 0x1F ADD PUSH1 0x20 DUP1 SWAP2 DIV MUL PUSH1 0x20 ADD PUSH1 0x40 MLOAD SWAP1 DUP2 ADD PUSH1 0x40 MSTORE DUP1 SWAP3 SWAP2 SWAP1 DUP2 DUP2 MSTORE PUSH1 0x20 ADD DUP3 DUP1 SLOAD PUSH2 0x723 SWAP1 PUSH2 0x2164 JUMP JUMPDEST DUP1 ISZERO PUSH2 0x770 JUMPI DUP1 PUSH1 0x1F LT PUSH2 0x745 JUMPI PUSH2 0x100 DUP1 DUP4 SLOAD DIV MUL DUP4 MSTORE SWAP2 PUSH1 0x20 ADD SWAP2 PUSH2 0x770 JUMP JUMPDEST DUP3 ADD SWAP2 SWAP1 PUSH1 0x0 MSTORE PUSH1 0x20 PUSH1 0x0 KECCAK256 SWAP1 JUMPDEST DUP2 SLOAD DUP2 MSTORE SWAP1 PUSH1 0x1 ADD SWAP1 PUSH1 0x20 ADD DUP1 DUP4 GT PUSH2 0x753 JUMPI DUP3 SWAP1 SUB PUSH1 0x1F AND DUP3 ADD SWAP2 JUMPDEST POP POP POP POP POP SWAP1 DUP1 PUSH1 0x3 ADD SLOAD SWAP1 DUP1 PUSH1 0x4 ADD SLOAD SWAP1 POP DUP6 JUMP JUMPDEST PUSH1 0x6 SLOAD DUP2 JUMP JUMPDEST PUSH1 0x8 SLOAD DUP2 JUMP JUMPDEST PUSH1 0x40 MLOAD DUP1 PUSH1 0xA0 ADD PUSH1 0x40 MSTORE DUP1 PUSH2 0x7A8 PUSH1 0xF SLOAD PUSH2 0x17F3 JUMP JUMPDEST DUP2 MSTORE PUSH1 0x20 ADD CALLER PUSH20 0xFFFFFFFFFFFFFFFFFFFFFFFFFFFFFFFFFFFFFFFF AND DUP2 MSTORE PUSH1 0x20 ADD DUP3 DUP2 MSTORE PUSH1 0x20 ADD PUSH1 0x0 DUP2 MSTORE PUSH1 0x20 ADD PUSH1 0x0 DUP2 MSTORE POP PUSH1 0x10 PUSH1 0x0 DUP3 ADD MLOAD DUP2 PUSH1 0x0 ADD SWAP1 DUP1 MLOAD SWAP1 PUSH1 0x20 ADD SWAP1 PUSH2 0x7F9 SWAP3 SWAP2 SWAP1 PUSH2 0x1A03 JUMP JUMPDEST POP PUSH1 0x20 DUP3 ADD MLOAD DUP2 PUSH1 0x1 ADD PUSH1 0x0 PUSH2 0x100 EXP DUP2 SLOAD DUP2 PUSH20 0xFFFFFFFFFFFFFFFFFFFFFFFFFFFFFFFFFFFFFFFF MUL NOT AND SWAP1 DUP4 PUSH20 0xFFFFFFFFFFFFFFFFFFFFFFFFFFFFFFFFFFFFFFFF AND MUL OR SWAP1 SSTORE POP PUSH1 0x40 DUP3 ADD MLOAD DUP2 PUSH1 0x2 ADD SWAP1 DUP1 MLOAD SWAP1 PUSH1 0x20 ADD SWAP1 PUSH2 0x85D SWAP3 SWAP2 SWAP1 PUSH2 0x1A03 JUMP JUMPDEST POP PUSH1 0x60 DUP3 ADD MLOAD DUP2 PUSH1 0x3 ADD SSTORE PUSH1 0x80 DUP3 ADD MLOAD DUP2 PUSH1 0x4 ADD SSTORE SWAP1 POP POP PUSH1 0x0 PUSH1 0x15 PUSH1 0x0 PUSH2 0x100 EXP DUP2 SLOAD DUP2 PUSH1 0xFF MUL NOT AND SWAP1 DUP4 PUSH1 0x2 DUP2 GT ISZERO PUSH2 0x89B JUMPI PUSH2 0x89A PUSH2 0x229F JUMP JUMPDEST JUMPDEST MUL OR SWAP1 SSTORE POP PUSH1 0x10 PUSH1 0xE PUSH1 0x0 PUSH1 0xF SLOAD DUP2 MSTORE PUSH1 0x20 ADD SWAP1 DUP2 MSTORE PUSH1 0x20 ADD PUSH1 0x0 KECCAK256 PUSH1 0x0 DUP3 ADD DUP2 PUSH1 0x0 ADD SWAP1 DUP1 SLOAD PUSH2 0x8CB SWAP1 PUSH2 0x2164 JUMP JUMPDEST PUSH2 0x8D6 SWAP3 SWAP2 SWAP1 PUSH2 0x1A89 JUMP JUMPDEST POP PUSH1 0x1 DUP3 ADD PUSH1 0x0 SWAP1 SLOAD SWAP1 PUSH2 0x100 EXP SWAP1 DIV PUSH20 0xFFFFFFFFFFFFFFFFFFFFFFFFFFFFFFFFFFFFFFFF AND DUP2 PUSH1 0x1 ADD PUSH1 0x0 PUSH2 0x100 EXP DUP2 SLOAD DUP2 PUSH20 0xFFFFFFFFFFFFFFFFFFFFFFFFFFFFFFFFFFFFFFFF MUL NOT AND SWAP1 DUP4 PUSH20 0xFFFFFFFFFFFFFFFFFFFFFFFFFFFFFFFFFFFFFFFF AND MUL OR SWAP1 SSTORE POP PUSH1 0x2 DUP3 ADD DUP2 PUSH1 0x2 ADD SWAP1 DUP1 SLOAD PUSH2 0x952 SWAP1 PUSH2 0x2164 JUMP JUMPDEST PUSH2 0x95D SWAP3 SWAP2 SWAP1 PUSH2 0x1A89 JUMP JUMPDEST POP PUSH1 0x3 DUP3 ADD SLOAD DUP2 PUSH1 0x3 ADD SSTORE PUSH1 0x4 DUP3 ADD SLOAD DUP2 PUSH1 0x4 ADD SSTORE SWAP1 POP POP POP JUMP JUMPDEST PUSH1 0x0 DUP1 PUSH1 0x2 DUP2 GT ISZERO PUSH2 0x98D JUMPI PUSH2 0x98C PUSH2 0x229F JUMP JUMPDEST JUMPDEST PUSH1 0x15 PUSH1 0x0 SWAP1 SLOAD SWAP1 PUSH2 0x100 EXP SWAP1 DIV PUSH1 0xFF AND PUSH1 0x2 DUP2 GT ISZERO PUSH2 0x9AF JUMPI PUSH2 0x9AE PUSH2 0x229F JUMP JUMPDEST JUMPDEST EQ PUSH2 0x9B9 JUMPI PUSH1 0x0 DUP1 REVERT JUMPDEST PUSH1 0x10 PUSH1 0x1 ADD PUSH1 0x0 SWAP1 SLOAD SWAP1 PUSH2 0x100 EXP SWAP1 DIV PUSH20 0xFFFFFFFFFFFFFFFFFFFFFFFFFFFFFFFFFFFFFFFF AND PUSH20 0xFFFFFFFFFFFFFFFFFFFFFFFFFFFFFFFFFFFFFFFF AND CALLER PUSH20 0xFFFFFFFFFFFFFFFFFFFFFFFFFFFFFFFFFFFFFFFF AND EQ PUSH2 0xA16 JUMPI PUSH1 0x0 DUP1 REVERT JUMPDEST PUSH1 0x1 PUSH1 0x15 PUSH1 0x0 PUSH2 0x100 EXP DUP2 SLOAD DUP2 PUSH1 0xFF MUL NOT AND SWAP1 DUP4 PUSH1 0x2 DUP2 GT ISZERO PUSH2 0xA3C JUMPI PUSH2 0xA3B PUSH2 0x229F JUMP JUMPDEST JUMPDEST MUL OR SWAP1 SSTORE POP PUSH32 0xD0DC01800A369FEF30D3FCED5275B8B916549867622E79EFCA5245C479FDA4EA PUSH1 0x40 MLOAD PUSH1 0x40 MLOAD DUP1 SWAP2 SUB SWAP1 LOG1 POP JUMP JUMPDEST PUSH1 0xC PUSH1 0x20 MSTORE DUP1 PUSH1 0x0 MSTORE PUSH1 0x40 PUSH1 0x0 KECCAK256 PUSH1 0x0 SWAP2 POP SLOAD SWAP1 PUSH2 0x100 EXP SWAP1 DIV PUSH1 0xFF AND DUP2 JUMP JUMPDEST PUSH1 0xF SLOAD DUP2 JUMP JUMPDEST PUSH1 0xB DUP2 DUP2 SLOAD DUP2 LT PUSH2 0xAA6 JUMPI PUSH1 0x0 DUP1 REVERT JUMPDEST SWAP1 PUSH1 0x0 MSTORE PUSH1 0x20 PUSH1 0x0 KECCAK256 ADD PUSH1 0x0 SWAP2 POP SLOAD SWAP1 PUSH2 0x100 EXP SWAP1 DIV PUSH20 0xFFFFFFFFFFFFFFFFFFFFFFFFFFFFFFFFFFFFFFFF AND DUP2 JUMP JUMPDEST PUSH1 0x7 SLOAD DUP2 JUMP JUMPDEST PUSH1 0x0 PUSH1 0x1 DUP1 PUSH1 0x2 DUP2 GT ISZERO PUSH2 0xAF2 JUMPI PUSH2 0xAF1 PUSH2 0x229F JUMP JUMPDEST JUMPDEST PUSH1 0x15 PUSH1 0x0 SWAP1 SLOAD SWAP1 PUSH2 0x100 EXP SWAP1 DIV PUSH1 0xFF AND PUSH1 0x2 DUP2 GT ISZERO PUSH2 0xB14 JUMPI PUSH2 0xB13 PUSH2 0x229F JUMP JUMPDEST JUMPDEST EQ PUSH2 0xB1E JUMPI PUSH1 0x0 DUP1 REVERT JUMPDEST PUSH1 0x0 PUSH1 0xC PUSH1 0x0 CALLER PUSH20 0xFFFFFFFFFFFFFFFFFFFFFFFFFFFFFFFFFFFFFFFF AND PUSH20 0xFFFFFFFFFFFFFFFFFFFFFFFFFFFFFFFFFFFFFFFF AND DUP2 MSTORE PUSH1 0x20 ADD SWAP1 DUP2 MSTORE PUSH1 0x20 ADD PUSH1 0x0 KECCAK256 PUSH1 0x0 SWAP1 SLOAD SWAP1 PUSH2 0x100 EXP SWAP1 DIV PUSH1 0xFF AND PUSH2 0xCDC JUMPI PUSH1 0x1 PUSH1 0xC PUSH1 0x0 CALLER PUSH20 0xFFFFFFFFFFFFFFFFFFFFFFFFFFFFFFFFFFFFFFFF AND PUSH20 0xFFFFFFFFFFFFFFFFFFFFFFFFFFFFFFFFFFFFFFFF AND DUP2 MSTORE PUSH1 0x20 ADD SWAP1 DUP2 MSTORE PUSH1 0x20 ADD PUSH1 0x0 KECCAK256 PUSH1 0x0 PUSH2 0x100 EXP DUP2 SLOAD DUP2 PUSH1 0xFF MUL NOT AND SWAP1 DUP4 ISZERO ISZERO MUL OR SWAP1 SSTORE POP PUSH2 0xBD1 PUSH2 0x1B16 JUMP JUMPDEST CALLER DUP2 PUSH1 0x0 ADD SWAP1 PUSH20 0xFFFFFFFFFFFFFFFFFFFFFFFFFFFFFFFFFFFFFFFF AND SWAP1 DUP2 PUSH20 0xFFFFFFFFFFFFFFFFFFFFFFFFFFFFFFFFFFFFFFFF AND DUP2 MSTORE POP POP DUP5 DUP2 PUSH1 0x20 ADD SWAP1 ISZERO ISZERO SWAP1 DUP2 ISZERO ISZERO DUP2 MSTORE POP POP DUP5 ISZERO PUSH2 0xC38 JUMPI PUSH1 0x17 PUSH1 0x0 DUP2 SLOAD DUP1 SWAP3 SWAP2 SWAP1 PUSH2 0xC32 SWAP1 PUSH2 0x21C7 JUMP JUMPDEST SWAP2 SWAP1 POP SSTORE POP JUMPDEST DUP1 PUSH1 0x16 PUSH1 0x0 PUSH1 0x10 PUSH1 0x4 ADD SLOAD DUP2 MSTORE PUSH1 0x20 ADD SWAP1 DUP2 MSTORE PUSH1 0x20 ADD PUSH1 0x0 KECCAK256 PUSH1 0x0 DUP3 ADD MLOAD DUP2 PUSH1 0x0 ADD PUSH1 0x0 PUSH2 0x100 EXP DUP2 SLOAD DUP2 PUSH20 0xFFFFFFFFFFFFFFFFFFFFFFFFFFFFFFFFFFFFFFFF MUL NOT AND SWAP1 DUP4 PUSH20 0xFFFFFFFFFFFFFFFFFFFFFFFFFFFFFFFFFFFFFFFF AND MUL OR SWAP1 SSTORE POP PUSH1 0x20 DUP3 ADD MLOAD DUP2 PUSH1 0x0 ADD PUSH1 0x14 PUSH2 0x100 EXP DUP2 SLOAD DUP2 PUSH1 0xFF MUL NOT AND SWAP1 DUP4 ISZERO ISZERO MUL OR SWAP1 SSTORE POP SWAP1 POP POP PUSH1 0x10 PUSH1 0x4 ADD PUSH1 0x0 DUP2 SLOAD DUP1 SWAP3 SWAP2 SWAP1 PUSH2 0xCD1 SWAP1 PUSH2 0x21C7 JUMP JUMPDEST SWAP2 SWAP1 POP SSTORE POP PUSH1 0x1 SWAP2 POP POP JUMPDEST PUSH32 0x55C65CF9526EFDF6C2252FE9757889DBD93E10172CAD0F2EDB1DF619C88DBF7D CALLER PUSH1 0x40 MLOAD PUSH2 0xD0B SWAP2 SWAP1 PUSH2 0x1E47 JUMP JUMPDEST PUSH1 0x40 MLOAD DUP1 SWAP2 SUB SWAP1 LOG1 DUP1 SWAP3 POP POP POP SWAP2 SWAP1 POP JUMP JUMPDEST PUSH1 0x0 DUP1 SLOAD SWAP1 PUSH2 0x100 EXP SWAP1 DIV PUSH20 0xFFFFFFFFFFFFFFFFFFFFFFFFFFFFFFFFFFFFFFFF AND DUP2 JUMP JUMPDEST PUSH1 0x9 SLOAD DUP2 JUMP JUMPDEST PUSH1 0x4 DUP2 DUP2 SLOAD DUP2 LT PUSH2 0xD57 JUMPI PUSH1 0x0 DUP1 REVERT JUMPDEST SWAP1 PUSH1 0x0 MSTORE PUSH1 0x20 PUSH1 0x0 KECCAK256 SWAP1 PUSH1 0x3 MUL ADD PUSH1 0x0 SWAP2 POP SWAP1 POP DUP1 PUSH1 0x0 ADD DUP1 SLOAD PUSH2 0xD7A SWAP1 PUSH2 0x2164 JUMP JUMPDEST DUP1 PUSH1 0x1F ADD PUSH1 0x20 DUP1 SWAP2 DIV MUL PUSH1 0x20 ADD PUSH1 0x40 MLOAD SWAP1 DUP2 ADD PUSH1 0x40 MSTORE DUP1 SWAP3 SWAP2 SWAP1 DUP2 DUP2 MSTORE PUSH1 0x20 ADD DUP3 DUP1 SLOAD PUSH2 0xDA6 SWAP1 PUSH2 0x2164 JUMP JUMPDEST DUP1 ISZERO PUSH2 0xDF3 JUMPI DUP1 PUSH1 0x1F LT PUSH2 0xDC8 JUMPI PUSH2 0x100 DUP1 DUP4 SLOAD DIV MUL DUP4 MSTORE SWAP2 PUSH1 0x20 ADD SWAP2 PUSH2 0xDF3 JUMP JUMPDEST DUP3 ADD SWAP2 SWAP1 PUSH1 0x0 MSTORE PUSH1 0x20 PUSH1 0x0 KECCAK256 SWAP1 JUMPDEST DUP2 SLOAD DUP2 MSTORE SWAP1 PUSH1 0x1 ADD SWAP1 PUSH1 0x20 ADD DUP1 DUP4 GT PUSH2 0xDD6 JUMPI DUP3 SWAP1 SUB PUSH1 0x1F AND DUP3 ADD SWAP2 JUMPDEST POP POP POP POP POP SWAP1 DUP1 PUSH1 0x1 ADD DUP1 SLOAD PUSH2 0xE08 SWAP1 PUSH2 0x2164 JUMP JUMPDEST DUP1 PUSH1 0x1F ADD PUSH1 0x20 DUP1 SWAP2 DIV MUL PUSH1 0x20 ADD PUSH1 0x40 MLOAD SWAP1 DUP2 ADD PUSH1 0x40 MSTORE DUP1 SWAP3 SWAP2 SWAP1 DUP2 DUP2 MSTORE PUSH1 0x20 ADD DUP3 DUP1 SLOAD PUSH2 0xE34 SWAP1 PUSH2 0x2164 JUMP JUMPDEST DUP1 ISZERO PUSH2 0xE81 JUMPI DUP1 PUSH1 0x1F LT PUSH2 0xE56 JUMPI PUSH2 0x100 DUP1 DUP4 SLOAD DIV MUL DUP4 MSTORE SWAP2 PUSH1 0x20 ADD SWAP2 PUSH2 0xE81 JUMP JUMPDEST DUP3 ADD SWAP2 SWAP1 PUSH1 0x0 MSTORE PUSH1 0x20 PUSH1 0x0 KECCAK256 SWAP1 JUMPDEST DUP2 SLOAD DUP2 MSTORE SWAP1 PUSH1 0x1 ADD SWAP1 PUSH1 0x20 ADD DUP1 DUP4 GT PUSH2 0xE64 JUMPI DUP3 SWAP1 SUB PUSH1 0x1F AND DUP3 ADD SWAP2 JUMPDEST POP POP POP POP POP SWAP1 DUP1 PUSH1 0x2 ADD SLOAD SWAP1 POP DUP4 JUMP JUMPDEST PUSH1 0x0 PUSH1 0x7 SLOAD CALLVALUE PUSH2 0xEA1 SWAP2 SWAP1 PUSH2 0x2063 JUMP JUMPDEST SWAP1 POP PUSH1 0x0 CALLVALUE GT PUSH2 0xEB0 JUMPI PUSH1 0x0 DUP1 REVERT JUMPDEST PUSH1 0x8 SLOAD DUP2 GT ISZERO PUSH2 0xEF5 JUMPI PUSH1 0x40 MLOAD PUSH32 0x8C379A000000000000000000000000000000000000000000000000000000000 DUP2 MSTORE PUSH1 0x4 ADD PUSH2 0xEEC SWAP1 PUSH2 0x1F60 JUMP JUMPDEST PUSH1 0x40 MLOAD DUP1 SWAP2 SUB SWAP1 REVERT JUMPDEST PUSH1 0x0 DUP1 SLOAD SWAP1 PUSH2 0x100 EXP SWAP1 DIV PUSH20 0xFFFFFFFFFFFFFFFFFFFFFFFFFFFFFFFFFFFFFFFF AND PUSH20 0xFFFFFFFFFFFFFFFFFFFFFFFFFFFFFFFFFFFFFFFF AND PUSH2 0x8FC CALLVALUE SWAP1 DUP2 ISZERO MUL SWAP1 PUSH1 0x40 MLOAD PUSH1 0x0 PUSH1 0x40 MLOAD DUP1 DUP4 SUB DUP2 DUP6 DUP9 DUP9 CALL SWAP4 POP POP POP POP ISZERO DUP1 ISZERO PUSH2 0xF5B JUMPI RETURNDATASIZE PUSH1 0x0 DUP1 RETURNDATACOPY RETURNDATASIZE PUSH1 0x0 REVERT JUMPDEST POP DUP1 PUSH1 0xD PUSH1 0x0 DUP1 PUSH1 0x0 SWAP1 SLOAD SWAP1 PUSH2 0x100 EXP SWAP1 DIV PUSH20 0xFFFFFFFFFFFFFFFFFFFFFFFFFFFFFFFFFFFFFFFF AND PUSH20 0xFFFFFFFFFFFFFFFFFFFFFFFFFFFFFFFFFFFFFFFF AND PUSH20 0xFFFFFFFFFFFFFFFFFFFFFFFFFFFFFFFFFFFFFFFF AND DUP2 MSTORE PUSH1 0x20 ADD SWAP1 DUP2 MSTORE PUSH1 0x20 ADD PUSH1 0x0 KECCAK256 PUSH1 0x0 DUP3 DUP3 SLOAD PUSH2 0xFCC SWAP2 SWAP1 PUSH2 0x2094 JUMP JUMPDEST SWAP3 POP POP DUP2 SWAP1 SSTORE POP DUP1 PUSH1 0xD PUSH1 0x0 CALLER PUSH20 0xFFFFFFFFFFFFFFFFFFFFFFFFFFFFFFFFFFFFFFFF AND PUSH20 0xFFFFFFFFFFFFFFFFFFFFFFFFFFFFFFFFFFFFFFFF AND DUP2 MSTORE PUSH1 0x20 ADD SWAP1 DUP2 MSTORE PUSH1 0x20 ADD PUSH1 0x0 KECCAK256 PUSH1 0x0 DUP3 DUP3 SLOAD PUSH2 0x1022 SWAP2 SWAP1 PUSH2 0x200D JUMP JUMPDEST SWAP3 POP POP DUP2 SWAP1 SSTORE POP PUSH2 0x1032 CALLER PUSH2 0x1189 JUMP JUMPDEST POP JUMP JUMPDEST DUP1 PUSH1 0xD PUSH1 0x0 CALLER PUSH20 0xFFFFFFFFFFFFFFFFFFFFFFFFFFFFFFFFFFFFFFFF AND PUSH20 0xFFFFFFFFFFFFFFFFFFFFFFFFFFFFFFFFFFFFFFFF AND DUP2 MSTORE PUSH1 0x20 ADD SWAP1 DUP2 MSTORE PUSH1 0x20 ADD PUSH1 0x0 KECCAK256 SLOAD LT ISZERO PUSH2 0x1081 JUMPI PUSH1 0x0 DUP1 REVERT JUMPDEST PUSH1 0x0 DUP1 SLOAD SWAP1 PUSH2 0x100 EXP SWAP1 DIV PUSH20 0xFFFFFFFFFFFFFFFFFFFFFFFFFFFFFFFFFFFFFFFF AND PUSH20 0xFFFFFFFFFFFFFFFFFFFFFFFFFFFFFFFFFFFFFFFF AND CALLER PUSH20 0xFFFFFFFFFFFFFFFFFFFFFFFFFFFFFFFFFFFFFFFF AND EQ PUSH2 0x10D9 JUMPI PUSH1 0x0 DUP1 REVERT JUMPDEST DUP1 PUSH1 0xD PUSH1 0x0 CALLER PUSH20 0xFFFFFFFFFFFFFFFFFFFFFFFFFFFFFFFFFFFFFFFF AND PUSH20 0xFFFFFFFFFFFFFFFFFFFFFFFFFFFFFFFFFFFFFFFF AND DUP2 MSTORE PUSH1 0x20 ADD SWAP1 DUP2 MSTORE PUSH1 0x20 ADD PUSH1 0x0 KECCAK256 PUSH1 0x0 DUP3 DUP3 SLOAD PUSH2 0x1128 SWAP2 SWAP1 PUSH2 0x2094 JUMP JUMPDEST SWAP3 POP POP DUP2 SWAP1 SSTORE POP DUP1 PUSH1 0xD PUSH1 0x0 DUP5 PUSH20 0xFFFFFFFFFFFFFFFFFFFFFFFFFFFFFFFFFFFFFFFF AND PUSH20 0xFFFFFFFFFFFFFFFFFFFFFFFFFFFFFFFFFFFFFFFF AND DUP2 MSTORE PUSH1 0x20 ADD SWAP1 DUP2 MSTORE PUSH1 0x20 ADD PUSH1 0x0 KECCAK256 PUSH1 0x0 DUP3 DUP3 SLOAD PUSH2 0x117E SWAP2 SWAP1 PUSH2 0x200D JUMP JUMPDEST SWAP3 POP POP DUP2 SWAP1 SSTORE POP POP POP JUMP JUMPDEST PUSH2 0x1192 DUP2 PUSH2 0x1954 JUMP JUMPDEST PUSH2 0x12A1 JUMPI PUSH1 0x0 PUSH1 0xC PUSH1 0x0 DUP4 PUSH20 0xFFFFFFFFFFFFFFFFFFFFFFFFFFFFFFFFFFFFFFFF AND PUSH20 0xFFFFFFFFFFFFFFFFFFFFFFFFFFFFFFFFFFFFFFFF AND DUP2 MSTORE PUSH1 0x20 ADD SWAP1 DUP2 MSTORE PUSH1 0x20 ADD PUSH1 0x0 KECCAK256 PUSH1 0x0 PUSH2 0x100 EXP DUP2 SLOAD DUP2 PUSH1 0xFF MUL NOT AND SWAP1 DUP4 ISZERO ISZERO MUL OR SWAP1 SSTORE POP PUSH1 0xB DUP2 SWAP1 DUP1 PUSH1 0x1 DUP2 SLOAD ADD DUP1 DUP3 SSTORE DUP1 SWAP2 POP POP PUSH1 0x1 SWAP1 SUB SWAP1 PUSH1 0x0 MSTORE PUSH1 0x20 PUSH1 0x0 KECCAK256 ADD PUSH1 0x0 SWAP1 SWAP2 SWAP1 SWAP2 SWAP1 SWAP2 PUSH2 0x100 EXP DUP2 SLOAD DUP2 PUSH20 0xFFFFFFFFFFFFFFFFFFFFFFFFFFFFFFFFFFFFFFFF MUL NOT AND SWAP1 DUP4 PUSH20 0xFFFFFFFFFFFFFFFFFFFFFFFFFFFFFFFFFFFFFFFF AND MUL OR SWAP1 SSTORE POP PUSH1 0x9 PUSH1 0x0 DUP2 SLOAD DUP1 SWAP3 SWAP2 SWAP1 PUSH2 0x1264 SWAP1 PUSH2 0x21C7 JUMP JUMPDEST SWAP2 SWAP1 POP SSTORE POP PUSH32 0x30040C92E8DA146AC410FB6841EA0F60AF3B8F3788E5E7354E48D97D018F39DD DUP2 PUSH1 0x40 MLOAD PUSH2 0x1298 SWAP2 SWAP1 PUSH2 0x1E47 JUMP JUMPDEST PUSH1 0x40 MLOAD DUP1 SWAP2 SUB SWAP1 LOG1 JUMPDEST POP JUMP JUMPDEST PUSH1 0x1 DUP1 PUSH1 0x2 DUP2 GT ISZERO PUSH2 0x12B9 JUMPI PUSH2 0x12B8 PUSH2 0x229F JUMP JUMPDEST JUMPDEST PUSH1 0x15 PUSH1 0x0 SWAP1 SLOAD SWAP1 PUSH2 0x100 EXP SWAP1 DIV PUSH1 0xFF AND PUSH1 0x2 DUP2 GT ISZERO PUSH2 0x12DB JUMPI PUSH2 0x12DA PUSH2 0x229F JUMP JUMPDEST JUMPDEST EQ PUSH2 0x12E5 JUMPI PUSH1 0x0 DUP1 REVERT JUMPDEST PUSH1 0x10 PUSH1 0x1 ADD PUSH1 0x0 SWAP1 SLOAD SWAP1 PUSH2 0x100 EXP SWAP1 DIV PUSH20 0xFFFFFFFFFFFFFFFFFFFFFFFFFFFFFFFFFFFFFFFF AND PUSH20 0xFFFFFFFFFFFFFFFFFFFFFFFFFFFFFFFFFFFFFFFF AND CALLER PUSH20 0xFFFFFFFFFFFFFFFFFFFFFFFFFFFFFFFFFFFFFFFF AND EQ PUSH2 0x1342 JUMPI PUSH1 0x0 DUP1 REVERT JUMPDEST PUSH1 0x2 PUSH1 0x15 PUSH1 0x0 PUSH2 0x100 EXP DUP2 SLOAD DUP2 PUSH1 0xFF MUL NOT AND SWAP1 DUP4 PUSH1 0x2 DUP2 GT ISZERO PUSH2 0x1368 JUMPI PUSH2 0x1367 PUSH2 0x229F JUMP JUMPDEST JUMPDEST MUL OR SWAP1 SSTORE POP PUSH1 0x17 SLOAD PUSH1 0x10 PUSH1 0x3 ADD DUP2 SWAP1 SSTORE POP PUSH32 0xB43A401DCDBE02A8AFA41FEB6C651425997908D1A4B79CF505188BA1DD3FD872 PUSH1 0x10 PUSH1 0x3 ADD SLOAD PUSH1 0x40 MLOAD PUSH2 0x13AD SWAP2 SWAP1 PUSH2 0x1F80 JUMP JUMPDEST PUSH1 0x40 MLOAD DUP1 SWAP2 SUB SWAP1 LOG1 POP JUMP JUMPDEST PUSH1 0x0 DUP2 PUSH20 0xFFFFFFFFFFFFFFFFFFFFFFFFFFFFFFFFFFFFFFFF AND BALANCE SWAP1 POP SWAP2 SWAP1 POP JUMP JUMPDEST PUSH1 0x1 DUP1 PUSH1 0x0 ADD DUP1 SLOAD PUSH2 0x13EA SWAP1 PUSH2 0x2164 JUMP JUMPDEST DUP1 PUSH1 0x1F ADD PUSH1 0x20 DUP1 SWAP2 DIV MUL PUSH1 0x20 ADD PUSH1 0x40 MLOAD SWAP1 DUP2 ADD PUSH1 0x40 MSTORE DUP1 SWAP3 SWAP2 SWAP1 DUP2 DUP2 MSTORE PUSH1 0x20 ADD DUP3 DUP1 SLOAD PUSH2 0x1416 SWAP1 PUSH2 0x2164 JUMP JUMPDEST DUP1 ISZERO PUSH2 0x1463 JUMPI DUP1 PUSH1 0x1F LT PUSH2 0x1438 JUMPI PUSH2 0x100 DUP1 DUP4 SLOAD DIV MUL DUP4 MSTORE SWAP2 PUSH1 0x20 ADD SWAP2 PUSH2 0x1463 JUMP JUMPDEST DUP3 ADD SWAP2 SWAP1 PUSH1 0x0 MSTORE PUSH1 0x20 PUSH1 0x0 KECCAK256 SWAP1 JUMPDEST DUP2 SLOAD DUP2 MSTORE SWAP1 PUSH1 0x1 ADD SWAP1 PUSH1 0x20 ADD DUP1 DUP4 GT PUSH2 0x1446 JUMPI DUP3 SWAP1 SUB PUSH1 0x1F AND DUP3 ADD SWAP2 JUMPDEST POP POP POP POP POP SWAP1 DUP1 PUSH1 0x1 ADD DUP1 SLOAD PUSH2 0x1478 SWAP1 PUSH2 0x2164 JUMP JUMPDEST DUP1 PUSH1 0x1F ADD PUSH1 0x20 DUP1 SWAP2 DIV MUL PUSH1 0x20 ADD PUSH1 0x40 MLOAD SWAP1 DUP2 ADD PUSH1 0x40 MSTORE DUP1 SWAP3 SWAP2 SWAP1 DUP2 DUP2 MSTORE PUSH1 0x20 ADD DUP3 DUP1 SLOAD PUSH2 0x14A4 SWAP1 PUSH2 0x2164 JUMP JUMPDEST DUP1 ISZERO PUSH2 0x14F1 JUMPI DUP1 PUSH1 0x1F LT PUSH2 0x14C6 JUMPI PUSH2 0x100 DUP1 DUP4 SLOAD DIV MUL DUP4 MSTORE SWAP2 PUSH1 0x20 ADD SWAP2 PUSH2 0x14F1 JUMP JUMPDEST DUP3 ADD SWAP2 SWAP1 PUSH1 0x0 MSTORE PUSH1 0x20 PUSH1 0x0 KECCAK256 SWAP1 JUMPDEST DUP2 SLOAD DUP2 MSTORE SWAP1 PUSH1 0x1 ADD SWAP1 PUSH1 0x20 ADD DUP1 DUP4 GT PUSH2 0x14D4 JUMPI DUP3 SWAP1 SUB PUSH1 0x1F AND DUP3 ADD SWAP2 JUMPDEST POP POP POP POP POP SWAP1 DUP1 PUSH1 0x2 ADD SLOAD SWAP1 POP DUP4 JUMP JUMPDEST PUSH1 0x0 DUP1 SLOAD SWAP1 PUSH2 0x100 EXP SWAP1 DIV PUSH20 0xFFFFFFFFFFFFFFFFFFFFFFFFFFFFFFFFFFFFFFFF AND PUSH20 0xFFFFFFFFFFFFFFFFFFFFFFFFFFFFFFFFFFFFFFFF AND CALLER PUSH20 0xFFFFFFFFFFFFFFFFFFFFFFFFFFFFFFFFFFFFFFFF AND EQ PUSH2 0x1559 JUMPI PUSH1 0x0 DUP1 REVERT JUMPDEST PUSH1 0x0 DUP1 PUSH1 0x1 DUP2 GT ISZERO PUSH2 0x156E JUMPI PUSH2 0x156D PUSH2 0x229F JUMP JUMPDEST JUMPDEST PUSH1 0xA PUSH1 0x0 SWAP1 SLOAD SWAP1 PUSH2 0x100 EXP SWAP1 DIV PUSH1 0xFF AND PUSH1 0x1 DUP2 GT ISZERO PUSH2 0x1590 JUMPI PUSH2 0x158F PUSH2 0x229F JUMP JUMPDEST JUMPDEST EQ PUSH2 0x159A JUMPI PUSH1 0x0 DUP1 REVERT JUMPDEST PUSH1 0x0 PUSH1 0x40 MLOAD DUP1 PUSH1 0x60 ADD PUSH1 0x40 MSTORE DUP1 DUP7 DUP2 MSTORE PUSH1 0x20 ADD DUP6 DUP2 MSTORE PUSH1 0x20 ADD DUP5 DUP2 MSTORE POP SWAP1 POP DUP3 PUSH1 0x1 PUSH1 0x2 ADD PUSH1 0x0 DUP3 DUP3 SLOAD PUSH2 0x15CE SWAP2 SWAP1 PUSH2 0x200D JUMP JUMPDEST SWAP3 POP POP DUP2 SWAP1 SSTORE POP PUSH1 0x4 DUP2 SWAP1 DUP1 PUSH1 0x1 DUP2 SLOAD ADD DUP1 DUP3 SSTORE DUP1 SWAP2 POP POP PUSH1 0x1 SWAP1 SUB SWAP1 PUSH1 0x0 MSTORE PUSH1 0x20 PUSH1 0x0 KECCAK256 SWAP1 PUSH1 0x3 MUL ADD PUSH1 0x0 SWAP1 SWAP2 SWAP1 SWAP2 SWAP1 SWAP2 POP PUSH1 0x0 DUP3 ADD MLOAD DUP2 PUSH1 0x0 ADD SWAP1 DUP1 MLOAD SWAP1 PUSH1 0x20 ADD SWAP1 PUSH2 0x161D SWAP3 SWAP2 SWAP1 PUSH2 0x1A03 JUMP JUMPDEST POP PUSH1 0x20 DUP3 ADD MLOAD DUP2 PUSH1 0x1 ADD SWAP1 DUP1 MLOAD SWAP1 PUSH1 0x20 ADD SWAP1 PUSH2 0x163A SWAP3 SWAP2 SWAP1 PUSH2 0x1A03 JUMP JUMPDEST POP PUSH1 0x40 DUP3 ADD MLOAD DUP2 PUSH1 0x2 ADD SSTORE POP POP PUSH1 0x1 PUSH1 0x5 PUSH1 0x0 DUP3 DUP3 SLOAD PUSH2 0x165A SWAP2 SWAP1 PUSH2 0x200D JUMP JUMPDEST SWAP3 POP POP DUP2 SWAP1 SSTORE POP PUSH32 0x4578FE17EAAB41AE382ABE3462BB0CF04BCFEE4168D2AAD3CE9D5D225D0E27F6 DUP6 PUSH1 0x40 MLOAD PUSH2 0x1690 SWAP2 SWAP1 PUSH2 0x1E98 JUMP JUMPDEST PUSH1 0x40 MLOAD DUP1 SWAP2 SUB SWAP1 LOG1 POP POP POP POP POP JUMP JUMPDEST PUSH1 0x10 DUP1 PUSH1 0x0 ADD DUP1 SLOAD PUSH2 0x16B0 SWAP1 PUSH2 0x2164 JUMP JUMPDEST DUP1 PUSH1 0x1F ADD PUSH1 0x20 DUP1 SWAP2 DIV MUL PUSH1 0x20 ADD PUSH1 0x40 MLOAD SWAP1 DUP2 ADD PUSH1 0x40 MSTORE DUP1 SWAP3 SWAP2 SWAP1 DUP2 DUP2 MSTORE PUSH1 0x20 ADD DUP3 DUP1 SLOAD PUSH2 0x16DC SWAP1 PUSH2 0x2164 JUMP JUMPDEST DUP1 ISZERO PUSH2 0x1729 JUMPI DUP1 PUSH1 0x1F LT PUSH2 0x16FE JUMPI PUSH2 0x100 DUP1 DUP4 SLOAD DIV MUL DUP4 MSTORE SWAP2 PUSH1 0x20 ADD SWAP2 PUSH2 0x1729 JUMP JUMPDEST DUP3 ADD SWAP2 SWAP1 PUSH1 0x0 MSTORE PUSH1 0x20 PUSH1 0x0 KECCAK256 SWAP1 JUMPDEST DUP2 SLOAD DUP2 MSTORE SWAP1 PUSH1 0x1 ADD SWAP1 PUSH1 0x20 ADD DUP1 DUP4 GT PUSH2 0x170C JUMPI DUP3 SWAP1 SUB PUSH1 0x1F AND DUP3 ADD SWAP2 JUMPDEST POP POP POP POP POP SWAP1 DUP1 PUSH1 0x1 ADD PUSH1 0x0 SWAP1 SLOAD SWAP1 PUSH2 0x100 EXP SWAP1 DIV PUSH20 0xFFFFFFFFFFFFFFFFFFFFFFFFFFFFFFFFFFFFFFFF AND SWAP1 DUP1 PUSH1 0x2 ADD DUP1 SLOAD PUSH2 0x1764 SWAP1 PUSH2 0x2164 JUMP JUMPDEST DUP1 PUSH1 0x1F ADD PUSH1 0x20 DUP1 SWAP2 DIV MUL PUSH1 0x20 ADD PUSH1 0x40 MLOAD SWAP1 DUP2 ADD PUSH1 0x40 MSTORE DUP1 SWAP3 SWAP2 SWAP1 DUP2 DUP2 MSTORE PUSH1 0x20 ADD DUP3 DUP1 SLOAD PUSH2 0x1790 SWAP1 PUSH2 0x2164 JUMP JUMPDEST DUP1 ISZERO PUSH2 0x17DD JUMPI DUP1 PUSH1 0x1F LT PUSH2 0x17B2 JUMPI PUSH2 0x100 DUP1 DUP4 SLOAD DIV MUL DUP4 MSTORE SWAP2 PUSH1 0x20 ADD SWAP2 PUSH2 0x17DD JUMP JUMPDEST DUP3 ADD SWAP2 SWAP1 PUSH1 0x0 MSTORE PUSH1 0x20 PUSH1 0x0 KECCAK256 SWAP1 JUMPDEST DUP2 SLOAD DUP2 MSTORE SWAP1 PUSH1 0x1 ADD SWAP1 PUSH1 0x20 ADD DUP1 DUP4 GT PUSH2 0x17C0 JUMPI DUP3 SWAP1 SUB PUSH1 0x1F AND DUP3 ADD SWAP2 JUMPDEST POP POP POP POP POP SWAP1 DUP1 PUSH1 0x3 ADD SLOAD SWAP1 DUP1 PUSH1 0x4 ADD SLOAD SWAP1 POP DUP6 JUMP JUMPDEST PUSH1 0x60 PUSH1 0x0 DUP3 EQ ISZERO PUSH2 0x183B JUMPI PUSH1 0x40 MLOAD DUP1 PUSH1 0x40 ADD PUSH1 0x40 MSTORE DUP1 PUSH1 0x1 DUP2 MSTORE PUSH1 0x20 ADD PUSH32 0x3000000000000000000000000000000000000000000000000000000000000000 DUP2 MSTORE POP SWAP1 POP PUSH2 0x194F JUMP JUMPDEST PUSH1 0x0 DUP3 SWAP1 POP PUSH1 0x0 JUMPDEST PUSH1 0x0 DUP3 EQ PUSH2 0x186D JUMPI DUP1 DUP1 PUSH2 0x1856 SWAP1 PUSH2 0x21C7 JUMP JUMPDEST SWAP2 POP POP PUSH1 0xA DUP3 PUSH2 0x1866 SWAP2 SWAP1 PUSH2 0x2063 JUMP JUMPDEST SWAP2 POP PUSH2 0x1843 JUMP JUMPDEST PUSH1 0x0 DUP2 PUSH8 0xFFFFFFFFFFFFFFFF DUP2 GT ISZERO PUSH2 0x1889 JUMPI PUSH2 0x1888 PUSH2 0x232C JUMP JUMPDEST JUMPDEST PUSH1 0x40 MLOAD SWAP1 DUP1 DUP3 MSTORE DUP1 PUSH1 0x1F ADD PUSH1 0x1F NOT AND PUSH1 0x20 ADD DUP3 ADD PUSH1 0x40 MSTORE DUP1 ISZERO PUSH2 0x18BB JUMPI DUP2 PUSH1 0x20 ADD PUSH1 0x1 DUP3 MUL DUP1 CALLDATASIZE DUP4 CALLDATACOPY DUP1 DUP3 ADD SWAP2 POP POP SWAP1 POP JUMPDEST POP SWAP1 POP JUMPDEST PUSH1 0x0 DUP6 EQ PUSH2 0x1948 JUMPI PUSH1 0x1 DUP3 PUSH2 0x18D4 SWAP2 SWAP1 PUSH2 0x2094 JUMP JUMPDEST SWAP2 POP PUSH1 0xA DUP6 PUSH2 0x18E3 SWAP2 SWAP1 PUSH2 0x2210 JUMP JUMPDEST PUSH1 0x30 PUSH2 0x18EF SWAP2 SWAP1 PUSH2 0x200D JUMP JUMPDEST PUSH1 0xF8 SHL DUP2 DUP4 DUP2 MLOAD DUP2 LT PUSH2 0x1905 JUMPI PUSH2 0x1904 PUSH2 0x22FD JUMP JUMPDEST JUMPDEST PUSH1 0x20 ADD ADD SWAP1 PUSH31 0xFFFFFFFFFFFFFFFFFFFFFFFFFFFFFFFFFFFFFFFFFFFFFFFFFFFFFFFFFFFFFF NOT AND SWAP1 DUP2 PUSH1 0x0 BYTE SWAP1 MSTORE8 POP PUSH1 0xA DUP6 PUSH2 0x1941 SWAP2 SWAP1 PUSH2 0x2063 JUMP JUMPDEST SWAP5 POP PUSH2 0x18BF JUMP JUMPDEST DUP1 SWAP4 POP POP POP POP JUMPDEST SWAP2 SWAP1 POP JUMP JUMPDEST PUSH1 0x0 DUP1 PUSH1 0x0 SWAP1 POP JUMPDEST PUSH1 0xB DUP1 SLOAD SWAP1 POP DUP2 LT ISZERO PUSH2 0x19F8 JUMPI DUP3 PUSH20 0xFFFFFFFFFFFFFFFFFFFFFFFFFFFFFFFFFFFFFFFF AND PUSH1 0xB DUP3 DUP2 SLOAD DUP2 LT PUSH2 0x1994 JUMPI PUSH2 0x1993 PUSH2 0x22FD JUMP JUMPDEST JUMPDEST SWAP1 PUSH1 0x0 MSTORE PUSH1 0x20 PUSH1 0x0 KECCAK256 ADD PUSH1 0x0 SWAP1 SLOAD SWAP1 PUSH2 0x100 EXP SWAP1 DIV PUSH20 0xFFFFFFFFFFFFFFFFFFFFFFFFFFFFFFFFFFFFFFFF AND PUSH20 0xFFFFFFFFFFFFFFFFFFFFFFFFFFFFFFFFFFFFFFFF AND EQ ISZERO PUSH2 0x19E5 JUMPI PUSH1 0x1 SWAP2 POP POP PUSH2 0x19FE JUMP JUMPDEST DUP1 DUP1 PUSH2 0x19F0 SWAP1 PUSH2 0x21C7 JUMP JUMPDEST SWAP2 POP POP PUSH2 0x195C JUMP JUMPDEST POP PUSH1 0x0 SWAP1 POP JUMPDEST SWAP2 SWAP1 POP JUMP JUMPDEST DUP3 DUP1 SLOAD PUSH2 0x1A0F SWAP1 PUSH2 0x2164 JUMP JUMPDEST SWAP1 PUSH1 0x0 MSTORE PUSH1 0x20 PUSH1 0x0 KECCAK256 SWAP1 PUSH1 0x1F ADD PUSH1 0x20 SWAP1 DIV DUP2 ADD SWAP3 DUP3 PUSH2 0x1A31 JUMPI PUSH1 0x0 DUP6 SSTORE PUSH2 0x1A78 JUMP JUMPDEST DUP3 PUSH1 0x1F LT PUSH2 0x1A4A JUMPI DUP1 MLOAD PUSH1 0xFF NOT AND DUP4 DUP1 ADD OR DUP6 SSTORE PUSH2 0x1A78 JUMP JUMPDEST DUP3 DUP1 ADD PUSH1 0x1 ADD DUP6 SSTORE DUP3 ISZERO PUSH2 0x1A78 JUMPI SWAP2 DUP3 ADD JUMPDEST DUP3 DUP2 GT ISZERO PUSH2 0x1A77 JUMPI DUP3 MLOAD DUP3 SSTORE SWAP2 PUSH1 0x20 ADD SWAP2 SWAP1 PUSH1 0x1 ADD SWAP1 PUSH2 0x1A5C JUMP JUMPDEST JUMPDEST POP SWAP1 POP PUSH2 0x1A85 SWAP2 SWAP1 PUSH2 0x1B48 JUMP JUMPDEST POP SWAP1 JUMP JUMPDEST DUP3 DUP1 SLOAD PUSH2 0x1A95 SWAP1 PUSH2 0x2164 JUMP JUMPDEST SWAP1 PUSH1 0x0 MSTORE PUSH1 0x20 PUSH1 0x0 KECCAK256 SWAP1 PUSH1 0x1F ADD PUSH1 0x20 SWAP1 DIV DUP2 ADD SWAP3 DUP3 PUSH2 0x1AB7 JUMPI PUSH1 0x0 DUP6 SSTORE PUSH2 0x1B05 JUMP JUMPDEST DUP3 PUSH1 0x1F LT PUSH2 0x1AC8 JUMPI DUP1 SLOAD DUP6 SSTORE PUSH2 0x1B05 JUMP JUMPDEST DUP3 DUP1 ADD PUSH1 0x1 ADD DUP6 SSTORE DUP3 ISZERO PUSH2 0x1B05 JUMPI PUSH1 0x0 MSTORE PUSH1 0x20 PUSH1 0x0 KECCAK256 SWAP2 PUSH1 0x1F ADD PUSH1 0x20 SWAP1 DIV DUP3 ADD JUMPDEST DUP3 DUP2 GT ISZERO PUSH2 0x1B04 JUMPI DUP3 SLOAD DUP3 SSTORE SWAP2 PUSH1 0x1 ADD SWAP2 SWAP1 PUSH1 0x1 ADD SWAP1 PUSH2 0x1AE9 JUMP JUMPDEST JUMPDEST POP SWAP1 POP PUSH2 0x1B12 SWAP2 SWAP1 PUSH2 0x1B48 JUMP JUMPDEST POP SWAP1 JUMP JUMPDEST PUSH1 0x40 MLOAD DUP1 PUSH1 0x40 ADD PUSH1 0x40 MSTORE DUP1 PUSH1 0x0 PUSH20 0xFFFFFFFFFFFFFFFFFFFFFFFFFFFFFFFFFFFFFFFF AND DUP2 MSTORE PUSH1 0x20 ADD PUSH1 0x0 ISZERO ISZERO DUP2 MSTORE POP SWAP1 JUMP JUMPDEST JUMPDEST DUP1 DUP3 GT ISZERO PUSH2 0x1B61 JUMPI PUSH1 0x0 DUP2 PUSH1 0x0 SWAP1 SSTORE POP PUSH1 0x1 ADD PUSH2 0x1B49 JUMP JUMPDEST POP SWAP1 JUMP JUMPDEST PUSH1 0x0 PUSH2 0x1B78 PUSH2 0x1B73 DUP5 PUSH2 0x1FC0 JUMP JUMPDEST PUSH2 0x1F9B JUMP JUMPDEST SWAP1 POP DUP3 DUP2 MSTORE PUSH1 0x20 DUP2 ADD DUP5 DUP5 DUP5 ADD GT ISZERO PUSH2 0x1B94 JUMPI PUSH2 0x1B93 PUSH2 0x2360 JUMP JUMPDEST JUMPDEST PUSH2 0x1B9F DUP5 DUP3 DUP6 PUSH2 0x2122 JUMP JUMPDEST POP SWAP4 SWAP3 POP POP POP JUMP JUMPDEST PUSH1 0x0 DUP2 CALLDATALOAD SWAP1 POP PUSH2 0x1BB6 DUP2 PUSH2 0x23CF JUMP JUMPDEST SWAP3 SWAP2 POP POP JUMP JUMPDEST PUSH1 0x0 DUP2 CALLDATALOAD SWAP1 POP PUSH2 0x1BCB DUP2 PUSH2 0x23E6 JUMP JUMPDEST SWAP3 SWAP2 POP POP JUMP JUMPDEST PUSH1 0x0 DUP3 PUSH1 0x1F DUP4 ADD SLT PUSH2 0x1BE6 JUMPI PUSH2 0x1BE5 PUSH2 0x235B JUMP JUMPDEST JUMPDEST DUP2 CALLDATALOAD PUSH2 0x1BF6 DUP5 DUP3 PUSH1 0x20 DUP7 ADD PUSH2 0x1B65 JUMP JUMPDEST SWAP2 POP POP SWAP3 SWAP2 POP POP JUMP JUMPDEST PUSH1 0x0 DUP2 CALLDATALOAD SWAP1 POP PUSH2 0x1C0E DUP2 PUSH2 0x23FD JUMP JUMPDEST SWAP3 SWAP2 POP POP JUMP JUMPDEST PUSH1 0x0 PUSH1 0x20 DUP3 DUP5 SUB SLT ISZERO PUSH2 0x1C2A JUMPI PUSH2 0x1C29 PUSH2 0x236A JUMP JUMPDEST JUMPDEST PUSH1 0x0 PUSH2 0x1C38 DUP5 DUP3 DUP6 ADD PUSH2 0x1BA7 JUMP JUMPDEST SWAP2 POP POP SWAP3 SWAP2 POP POP JUMP JUMPDEST PUSH1 0x0 DUP1 PUSH1 0x40 DUP4 DUP6 SUB SLT ISZERO PUSH2 0x1C58 JUMPI PUSH2 0x1C57 PUSH2 0x236A JUMP JUMPDEST JUMPDEST PUSH1 0x0 PUSH2 0x1C66 DUP6 DUP3 DUP7 ADD PUSH2 0x1BA7 JUMP JUMPDEST SWAP3 POP POP PUSH1 0x20 PUSH2 0x1C77 DUP6 DUP3 DUP7 ADD PUSH2 0x1BFF JUMP JUMPDEST SWAP2 POP POP SWAP3 POP SWAP3 SWAP1 POP JUMP JUMPDEST PUSH1 0x0 PUSH1 0x20 DUP3 DUP5 SUB SLT ISZERO PUSH2 0x1C97 JUMPI PUSH2 0x1C96 PUSH2 0x236A JUMP JUMPDEST JUMPDEST PUSH1 0x0 PUSH2 0x1CA5 DUP5 DUP3 DUP6 ADD PUSH2 0x1BBC JUMP JUMPDEST SWAP2 POP POP SWAP3 SWAP2 POP POP JUMP JUMPDEST PUSH1 0x0 PUSH1 0x20 DUP3 DUP5 SUB SLT ISZERO PUSH2 0x1CC4 JUMPI PUSH2 0x1CC3 PUSH2 0x236A JUMP JUMPDEST JUMPDEST PUSH1 0x0 DUP3 ADD CALLDATALOAD PUSH8 0xFFFFFFFFFFFFFFFF DUP2 GT ISZERO PUSH2 0x1CE2 JUMPI PUSH2 0x1CE1 PUSH2 0x2365 JUMP JUMPDEST JUMPDEST PUSH2 0x1CEE DUP5 DUP3 DUP6 ADD PUSH2 0x1BD1 JUMP JUMPDEST SWAP2 POP POP SWAP3 SWAP2 POP POP JUMP JUMPDEST PUSH1 0x0 DUP1 PUSH1 0x0 PUSH1 0x60 DUP5 DUP7 SUB SLT ISZERO PUSH2 0x1D10 JUMPI PUSH2 0x1D0F PUSH2 0x236A JUMP JUMPDEST JUMPDEST PUSH1 0x0 DUP5 ADD CALLDATALOAD PUSH8 0xFFFFFFFFFFFFFFFF DUP2 GT ISZERO PUSH2 0x1D2E JUMPI PUSH2 0x1D2D PUSH2 0x2365 JUMP JUMPDEST JUMPDEST PUSH2 0x1D3A DUP7 DUP3 DUP8 ADD PUSH2 0x1BD1 JUMP JUMPDEST SWAP4 POP POP PUSH1 0x20 DUP5 ADD CALLDATALOAD PUSH8 0xFFFFFFFFFFFFFFFF DUP2 GT ISZERO PUSH2 0x1D5B JUMPI PUSH2 0x1D5A PUSH2 0x2365 JUMP JUMPDEST JUMPDEST PUSH2 0x1D67 DUP7 DUP3 DUP8 ADD PUSH2 0x1BD1 JUMP JUMPDEST SWAP3 POP POP PUSH1 0x40 PUSH2 0x1D78 DUP7 DUP3 DUP8 ADD PUSH2 0x1BFF JUMP JUMPDEST SWAP2 POP POP SWAP3 POP SWAP3 POP SWAP3 JUMP JUMPDEST PUSH1 0x0 PUSH1 0x20 DUP3 DUP5 SUB SLT ISZERO PUSH2 0x1D98 JUMPI PUSH2 0x1D97 PUSH2 0x236A JUMP JUMPDEST JUMPDEST PUSH1 0x0 PUSH2 0x1DA6 DUP5 DUP3 DUP6 ADD PUSH2 0x1BFF JUMP JUMPDEST SWAP2 POP POP SWAP3 SWAP2 POP POP JUMP JUMPDEST PUSH2 0x1DB8 DUP2 PUSH2 0x20DA JUMP JUMPDEST DUP3 MSTORE POP POP JUMP JUMPDEST PUSH2 0x1DC7 DUP2 PUSH2 0x20C8 JUMP JUMPDEST DUP3 MSTORE POP POP JUMP JUMPDEST PUSH2 0x1DD6 DUP2 PUSH2 0x20EC JUMP JUMPDEST DUP3 MSTORE POP POP JUMP JUMPDEST PUSH1 0x0 PUSH2 0x1DE7 DUP3 PUSH2 0x1FF1 JUMP JUMPDEST PUSH2 0x1DF1 DUP2 DUP6 PUSH2 0x1FFC JUMP JUMPDEST SWAP4 POP PUSH2 0x1E01 DUP2 DUP6 PUSH1 0x20 DUP7 ADD PUSH2 0x2131 JUMP JUMPDEST PUSH2 0x1E0A DUP2 PUSH2 0x236F JUMP JUMPDEST DUP5 ADD SWAP2 POP POP SWAP3 SWAP2 POP POP JUMP JUMPDEST PUSH1 0x0 PUSH2 0x1E22 PUSH1 0x23 DUP4 PUSH2 0x1FFC JUMP JUMPDEST SWAP2 POP PUSH2 0x1E2D DUP3 PUSH2 0x2380 JUMP JUMPDEST PUSH1 0x40 DUP3 ADD SWAP1 POP SWAP2 SWAP1 POP JUMP JUMPDEST PUSH2 0x1E41 DUP2 PUSH2 0x2118 JUMP JUMPDEST DUP3 MSTORE POP POP JUMP JUMPDEST PUSH1 0x0 PUSH1 0x20 DUP3 ADD SWAP1 POP PUSH2 0x1E5C PUSH1 0x0 DUP4 ADD DUP5 PUSH2 0x1DBE JUMP JUMPDEST SWAP3 SWAP2 POP POP JUMP JUMPDEST PUSH1 0x0 PUSH1 0x20 DUP3 ADD SWAP1 POP PUSH2 0x1E77 PUSH1 0x0 DUP4 ADD DUP5 PUSH2 0x1DAF JUMP JUMPDEST SWAP3 SWAP2 POP POP JUMP JUMPDEST PUSH1 0x0 PUSH1 0x20 DUP3 ADD SWAP1 POP PUSH2 0x1E92 PUSH1 0x0 DUP4 ADD DUP5 PUSH2 0x1DCD JUMP JUMPDEST SWAP3 SWAP2 POP POP JUMP JUMPDEST PUSH1 0x0 PUSH1 0x20 DUP3 ADD SWAP1 POP DUP2 DUP2 SUB PUSH1 0x0 DUP4 ADD MSTORE PUSH2 0x1EB2 DUP2 DUP5 PUSH2 0x1DDC JUMP JUMPDEST SWAP1 POP SWAP3 SWAP2 POP POP JUMP JUMPDEST PUSH1 0x0 PUSH1 0xA0 DUP3 ADD SWAP1 POP DUP2 DUP2 SUB PUSH1 0x0 DUP4 ADD MSTORE PUSH2 0x1ED4 DUP2 DUP9 PUSH2 0x1DDC JUMP JUMPDEST SWAP1 POP PUSH2 0x1EE3 PUSH1 0x20 DUP4 ADD DUP8 PUSH2 0x1DBE JUMP JUMPDEST DUP2 DUP2 SUB PUSH1 0x40 DUP4 ADD MSTORE PUSH2 0x1EF5 DUP2 DUP7 PUSH2 0x1DDC JUMP JUMPDEST SWAP1 POP PUSH2 0x1F04 PUSH1 0x60 DUP4 ADD DUP6 PUSH2 0x1E38 JUMP JUMPDEST PUSH2 0x1F11 PUSH1 0x80 DUP4 ADD DUP5 PUSH2 0x1E38 JUMP JUMPDEST SWAP7 SWAP6 POP POP POP POP POP POP JUMP JUMPDEST PUSH1 0x0 PUSH1 0x60 DUP3 ADD SWAP1 POP DUP2 DUP2 SUB PUSH1 0x0 DUP4 ADD MSTORE PUSH2 0x1F35 DUP2 DUP7 PUSH2 0x1DDC JUMP JUMPDEST SWAP1 POP DUP2 DUP2 SUB PUSH1 0x20 DUP4 ADD MSTORE PUSH2 0x1F49 DUP2 DUP6 PUSH2 0x1DDC JUMP JUMPDEST SWAP1 POP PUSH2 0x1F58 PUSH1 0x40 DUP4 ADD DUP5 PUSH2 0x1E38 JUMP JUMPDEST SWAP5 SWAP4 POP POP POP POP JUMP JUMPDEST PUSH1 0x0 PUSH1 0x20 DUP3 ADD SWAP1 POP DUP2 DUP2 SUB PUSH1 0x0 DUP4 ADD MSTORE PUSH2 0x1F79 DUP2 PUSH2 0x1E15 JUMP JUMPDEST SWAP1 POP SWAP2 SWAP1 POP JUMP JUMPDEST PUSH1 0x0 PUSH1 0x20 DUP3 ADD SWAP1 POP PUSH2 0x1F95 PUSH1 0x0 DUP4 ADD DUP5 PUSH2 0x1E38 JUMP JUMPDEST SWAP3 SWAP2 POP POP JUMP JUMPDEST PUSH1 0x0 PUSH2 0x1FA5 PUSH2 0x1FB6 JUMP JUMPDEST SWAP1 POP PUSH2 0x1FB1 DUP3 DUP3 PUSH2 0x2196 JUMP JUMPDEST SWAP2 SWAP1 POP JUMP JUMPDEST PUSH1 0x0 PUSH1 0x40 MLOAD SWAP1 POP SWAP1 JUMP JUMPDEST PUSH1 0x0 PUSH8 0xFFFFFFFFFFFFFFFF DUP3 GT ISZERO PUSH2 0x1FDB JUMPI PUSH2 0x1FDA PUSH2 0x232C JUMP JUMPDEST JUMPDEST PUSH2 0x1FE4 DUP3 PUSH2 0x236F JUMP JUMPDEST SWAP1 POP PUSH1 0x20 DUP2 ADD SWAP1 POP SWAP2 SWAP1 POP JUMP JUMPDEST PUSH1 0x0 DUP2 MLOAD SWAP1 POP SWAP2 SWAP1 POP JUMP JUMPDEST PUSH1 0x0 DUP3 DUP3 MSTORE PUSH1 0x20 DUP3 ADD SWAP1 POP SWAP3 SWAP2 POP POP JUMP JUMPDEST PUSH1 0x0 PUSH2 0x2018 DUP3 PUSH2 0x2118 JUMP JUMPDEST SWAP2 POP PUSH2 0x2023 DUP4 PUSH2 0x2118 JUMP JUMPDEST SWAP3 POP DUP3 PUSH32 0xFFFFFFFFFFFFFFFFFFFFFFFFFFFFFFFFFFFFFFFFFFFFFFFFFFFFFFFFFFFFFFFF SUB DUP3 GT ISZERO PUSH2 0x2058 JUMPI PUSH2 0x2057 PUSH2 0x2241 JUMP JUMPDEST JUMPDEST DUP3 DUP3 ADD SWAP1 POP SWAP3 SWAP2 POP POP JUMP JUMPDEST PUSH1 0x0 PUSH2 0x206E DUP3 PUSH2 0x2118 JUMP JUMPDEST SWAP2 POP PUSH2 0x2079 DUP4 PUSH2 0x2118 JUMP JUMPDEST SWAP3 POP DUP3 PUSH2 0x2089 JUMPI PUSH2 0x2088 PUSH2 0x2270 JUMP JUMPDEST JUMPDEST DUP3 DUP3 DIV SWAP1 POP SWAP3 SWAP2 POP POP JUMP JUMPDEST PUSH1 0x0 PUSH2 0x209F DUP3 PUSH2 0x2118 JUMP JUMPDEST SWAP2 POP PUSH2 0x20AA DUP4 PUSH2 0x2118 JUMP JUMPDEST SWAP3 POP DUP3 DUP3 LT ISZERO PUSH2 0x20BD JUMPI PUSH2 0x20BC PUSH2 0x2241 JUMP JUMPDEST JUMPDEST DUP3 DUP3 SUB SWAP1 POP SWAP3 SWAP2 POP POP JUMP JUMPDEST PUSH1 0x0 PUSH2 0x20D3 DUP3 PUSH2 0x20F8 JUMP JUMPDEST SWAP1 POP SWAP2 SWAP1 POP JUMP JUMPDEST PUSH1 0x0 PUSH2 0x20E5 DUP3 PUSH2 0x20F8 JUMP JUMPDEST SWAP1 POP SWAP2 SWAP1 POP JUMP JUMPDEST PUSH1 0x0 DUP2 ISZERO ISZERO SWAP1 POP SWAP2 SWAP1 POP JUMP JUMPDEST PUSH1 0x0 PUSH20 0xFFFFFFFFFFFFFFFFFFFFFFFFFFFFFFFFFFFFFFFF DUP3 AND SWAP1 POP SWAP2 SWAP1 POP JUMP JUMPDEST PUSH1 0x0 DUP2 SWAP1 POP SWAP2 SWAP1 POP JUMP JUMPDEST DUP3 DUP2 DUP4 CALLDATACOPY PUSH1 0x0 DUP4 DUP4 ADD MSTORE POP POP POP JUMP JUMPDEST PUSH1 0x0 JUMPDEST DUP4 DUP2 LT ISZERO PUSH2 0x214F JUMPI DUP1 DUP3 ADD MLOAD DUP2 DUP5 ADD MSTORE PUSH1 0x20 DUP2 ADD SWAP1 POP PUSH2 0x2134 JUMP JUMPDEST DUP4 DUP2 GT ISZERO PUSH2 0x215E JUMPI PUSH1 0x0 DUP5 DUP5 ADD MSTORE JUMPDEST POP POP POP POP JUMP JUMPDEST PUSH1 0x0 PUSH1 0x2 DUP3 DIV SWAP1 POP PUSH1 0x1 DUP3 AND DUP1 PUSH2 0x217C JUMPI PUSH1 0x7F DUP3 AND SWAP2 POP JUMPDEST PUSH1 0x20 DUP3 LT DUP2 EQ ISZERO PUSH2 0x2190 JUMPI PUSH2 0x218F PUSH2 0x22CE JUMP JUMPDEST JUMPDEST POP SWAP2 SWAP1 POP JUMP JUMPDEST PUSH2 0x219F DUP3 PUSH2 0x236F JUMP JUMPDEST DUP2 ADD DUP2 DUP2 LT PUSH8 0xFFFFFFFFFFFFFFFF DUP3 GT OR ISZERO PUSH2 0x21BE JUMPI PUSH2 0x21BD PUSH2 0x232C JUMP JUMPDEST JUMPDEST DUP1 PUSH1 0x40 MSTORE POP POP POP JUMP JUMPDEST PUSH1 0x0 PUSH2 0x21D2 DUP3 PUSH2 0x2118 JUMP JUMPDEST SWAP2 POP PUSH32 0xFFFFFFFFFFFFFFFFFFFFFFFFFFFFFFFFFFFFFFFFFFFFFFFFFFFFFFFFFFFFFFFF DUP3 EQ ISZERO PUSH2 0x2205 JUMPI PUSH2 0x2204 PUSH2 0x2241 JUMP JUMPDEST JUMPDEST PUSH1 0x1 DUP3 ADD SWAP1 POP SWAP2 SWAP1 POP JUMP JUMPDEST PUSH1 0x0 PUSH2 0x221B DUP3 PUSH2 0x2118 JUMP JUMPDEST SWAP2 POP PUSH2 0x2226 DUP4 PUSH2 0x2118 JUMP JUMPDEST SWAP3 POP DUP3 PUSH2 0x2236 JUMPI PUSH2 0x2235 PUSH2 0x2270 JUMP JUMPDEST JUMPDEST DUP3 DUP3 MOD SWAP1 POP SWAP3 SWAP2 POP POP JUMP JUMPDEST PUSH32 0x4E487B7100000000000000000000000000000000000000000000000000000000 PUSH1 0x0 MSTORE PUSH1 0x11 PUSH1 0x4 MSTORE PUSH1 0x24 PUSH1 0x0 REVERT JUMPDEST PUSH32 0x4E487B7100000000000000000000000000000000000000000000000000000000 PUSH1 0x0 MSTORE PUSH1 0x12 PUSH1 0x4 MSTORE PUSH1 0x24 PUSH1 0x0 REVERT JUMPDEST PUSH32 0x4E487B7100000000000000000000000000000000000000000000000000000000 PUSH1 0x0 MSTORE PUSH1 0x21 PUSH1 0x4 MSTORE PUSH1 0x24 PUSH1 0x0 REVERT JUMPDEST PUSH32 0x4E487B7100000000000000000000000000000000000000000000000000000000 PUSH1 0x0 MSTORE PUSH1 0x22 PUSH1 0x4 MSTORE PUSH1 0x24 PUSH1 0x0 REVERT JUMPDEST PUSH32 0x4E487B7100000000000000000000000000000000000000000000000000000000 PUSH1 0x0 MSTORE PUSH1 0x32 PUSH1 0x4 MSTORE PUSH1 0x24 PUSH1 0x0 REVERT JUMPDEST PUSH32 0x4E487B7100000000000000000000000000000000000000000000000000000000 PUSH1 0x0 MSTORE PUSH1 0x41 PUSH1 0x4 MSTORE PUSH1 0x24 PUSH1 0x0 REVERT JUMPDEST PUSH1 0x0 DUP1 REVERT JUMPDEST PUSH1 0x0 DUP1 REVERT JUMPDEST PUSH1 0x0 DUP1 REVERT JUMPDEST PUSH1 0x0 DUP1 REVERT JUMPDEST PUSH1 0x0 PUSH1 0x1F NOT PUSH1 0x1F DUP4 ADD AND SWAP1 POP SWAP2 SWAP1 POP JUMP JUMPDEST PUSH32 0x4E756D626572206F662073686172657320657863656564656420746865206C69 PUSH1 0x0 DUP3 ADD MSTORE PUSH32 0x6D69740000000000000000000000000000000000000000000000000000000000 PUSH1 0x20 DUP3 ADD MSTORE POP JUMP JUMPDEST PUSH2 0x23D8 DUP2 PUSH2 0x20C8 JUMP JUMPDEST DUP2 EQ PUSH2 0x23E3 JUMPI PUSH1 0x0 DUP1 REVERT JUMPDEST POP JUMP JUMPDEST PUSH2 0x23EF DUP2 PUSH2 0x20EC JUMP JUMPDEST DUP2 EQ PUSH2 0x23FA JUMPI PUSH1 0x0 DUP1 REVERT JUMPDEST POP JUMP JUMPDEST PUSH2 0x2406 DUP2 PUSH2 0x2118 JUMP JUMPDEST DUP2 EQ PUSH2 0x2411 JUMPI PUSH1 0x0 DUP1 REVERT JUMPDEST POP JUMP INVALID LOG2 PUSH5 0x6970667358 0x22 SLT KECCAK256 PUSH13 0x507B9C17C56DD02F1189DA9C24 SELFDESTRUCT 0xC0 0xB2 BASEFEE CALLDATASIZE PUSH20 0xC64C43B196D1DD4F2B36A84164736F6C63430008 SMOD STOP CALLER "
				},
				"gasEstimates": {
					"creation": {
						"codeDepositCost": "1858000",
						"executionCost": "infinite",
						"totalCost": "infinite"
					},
					"external": {
						"addHouse(string,string,uint256)": "infinite",
						"addShareHolder(address)": "infinite",
						"balances(address)": "2860",
						"ballotHistory(uint256)": "infinite",
						"buy()": "infinite",
						"createBallot(string)": "infinite",
						"currentBallot()": "infinite",
						"doVote(bool)": "infinite",
						"endVote()": "56384",
						"etherBalance(address)": "3323",
						"houseRegister(uint256)": "infinite",
						"hp()": "infinite",
						"owner()": "2556",
						"shareHolderRegistry(address)": "2912",
						"shareHolders(uint256)": "5067",
						"shareLimit()": "2563",
						"startTrading()": "26666",
						"startVote()": "29645",
						"tokenPrice()": "2562",
						"totalBallots()": "2518",
						"totalHouses()": "2453",
						"totalShareHolders()": "2496",
						"totalShares()": "2541",
						"transfer(address,uint256)": "infinite"
					},
					"internal": {
						"contains(address)": "infinite"
					}
				},
				"methodIdentifiers": {
					"addHouse(string,string,uint256)": "df094409",
					"addShareHolder(address)": "af769c64",
					"balances(address)": "27e235e3",
					"ballotHistory(uint256)": "2cd39acc",
					"buy()": "a6f2ae3a",
					"createBallot(string)": "46a86576",
					"currentBallot()": "f80723a8",
					"doVote(bool)": "87caea78",
					"endVote()": "b9223946",
					"etherBalance(address)": "cd0c5896",
					"houseRegister(uint256)": "a14ba987",
					"hp()": "d8124c5f",
					"owner()": "8da5cb5b",
					"shareHolderRegistry(address)": "59ea0173",
					"shareHolders(uint256)": "7427a40c",
					"shareLimit()": "3be75aa3",
					"startTrading()": "293230b8",
					"startVote()": "4c0a6af0",
					"tokenPrice()": "7ff9b596",
					"totalBallots()": "612fb2ec",
					"totalHouses()": "162d8afb",
					"totalShareHolders()": "9a982416",
					"totalShares()": "3a98ef39",
					"transfer(address,uint256)": "a9059cbb"
				}
			},
			"storageLayout": {
				"storage": [
					{
						"astId": 230,
						"contract": "MyHomeToken.sol:MyHomesToken",
						"label": "owner",
						"offset": 0,
						"slot": "0",
						"type": "t_address_payable"
					},
					{
						"astId": 233,
						"contract": "MyHomeToken.sol:MyHomesToken",
						"label": "hp",
						"offset": 0,
						"slot": "1",
						"type": "t_struct(HousingPackage)347_storage"
					},
					{
						"astId": 237,
						"contract": "MyHomeToken.sol:MyHomesToken",
						"label": "houseRegister",
						"offset": 0,
						"slot": "4",
						"type": "t_array(t_struct(House)340_storage)dyn_storage"
					},
					{
						"astId": 240,
						"contract": "MyHomeToken.sol:MyHomesToken",
						"label": "totalHouses",
						"offset": 0,
						"slot": "5",
						"type": "t_uint256"
					},
					{
						"astId": 243,
						"contract": "MyHomeToken.sol:MyHomesToken",
						"label": "totalShares",
						"offset": 0,
						"slot": "6",
						"type": "t_uint256"
					},
					{
						"astId": 246,
						"contract": "MyHomeToken.sol:MyHomesToken",
						"label": "tokenPrice",
						"offset": 0,
						"slot": "7",
						"type": "t_uint256"
					},
					{
						"astId": 249,
						"contract": "MyHomeToken.sol:MyHomesToken",
						"label": "shareLimit",
						"offset": 0,
						"slot": "8",
						"type": "t_uint256"
					},
					{
						"astId": 252,
						"contract": "MyHomeToken.sol:MyHomesToken",
						"label": "totalShareHolders",
						"offset": 0,
						"slot": "9",
						"type": "t_uint256"
					},
					{
						"astId": 255,
						"contract": "MyHomeToken.sol:MyHomesToken",
						"label": "state",
						"offset": 0,
						"slot": "10",
						"type": "t_enum(State)437"
					},
					{
						"astId": 258,
						"contract": "MyHomeToken.sol:MyHomesToken",
						"label": "shareHolders",
						"offset": 0,
						"slot": "11",
						"type": "t_array(t_address)dyn_storage"
					},
					{
						"astId": 262,
						"contract": "MyHomeToken.sol:MyHomesToken",
						"label": "shareHolderRegistry",
						"offset": 0,
						"slot": "12",
						"type": "t_mapping(t_address,t_bool)"
					},
					{
						"astId": 266,
						"contract": "MyHomeToken.sol:MyHomesToken",
						"label": "balances",
						"offset": 0,
						"slot": "13",
						"type": "t_mapping(t_address,t_uint256)"
					},
					{
						"astId": 271,
						"contract": "MyHomeToken.sol:MyHomesToken",
						"label": "ballotHistory",
						"offset": 0,
						"slot": "14",
						"type": "t_mapping(t_uint256,t_struct(Ballot)363_storage)"
					},
					{
						"astId": 274,
						"contract": "MyHomeToken.sol:MyHomesToken",
						"label": "totalBallots",
						"offset": 0,
						"slot": "15",
						"type": "t_uint256"
					},
					{
						"astId": 277,
						"contract": "MyHomeToken.sol:MyHomesToken",
						"label": "currentBallot",
						"offset": 0,
						"slot": "16",
						"type": "t_struct(Ballot)363_storage"
					},
					{
						"astId": 280,
						"contract": "MyHomeToken.sol:MyHomesToken",
						"label": "ballotState",
						"offset": 0,
						"slot": "21",
						"type": "t_enum(BallotState)434"
					},
					{
						"astId": 285,
						"contract": "MyHomeToken.sol:MyHomesToken",
						"label": "votes",
						"offset": 0,
						"slot": "22",
						"type": "t_mapping(t_uint256,t_struct(Vote)352_storage)"
					},
					{
						"astId": 287,
						"contract": "MyHomeToken.sol:MyHomesToken",
						"label": "resultCount",
						"offset": 0,
						"slot": "23",
						"type": "t_uint256"
					}
				],
				"types": {
					"t_address": {
						"encoding": "inplace",
						"label": "address",
						"numberOfBytes": "20"
					},
					"t_address_payable": {
						"encoding": "inplace",
						"label": "address payable",
						"numberOfBytes": "20"
					},
					"t_array(t_address)dyn_storage": {
						"base": "t_address",
						"encoding": "dynamic_array",
						"label": "address[]",
						"numberOfBytes": "32"
					},
					"t_array(t_struct(House)340_storage)dyn_storage": {
						"base": "t_struct(House)340_storage",
						"encoding": "dynamic_array",
						"label": "struct MyHomesToken.House[]",
						"numberOfBytes": "32"
					},
					"t_bool": {
						"encoding": "inplace",
						"label": "bool",
						"numberOfBytes": "1"
					},
					"t_enum(BallotState)434": {
						"encoding": "inplace",
						"label": "enum MyHomesToken.BallotState",
						"numberOfBytes": "1"
					},
					"t_enum(State)437": {
						"encoding": "inplace",
						"label": "enum MyHomesToken.State",
						"numberOfBytes": "1"
					},
					"t_mapping(t_address,t_bool)": {
						"encoding": "mapping",
						"key": "t_address",
						"label": "mapping(address => bool)",
						"numberOfBytes": "32",
						"value": "t_bool"
					},
					"t_mapping(t_address,t_uint256)": {
						"encoding": "mapping",
						"key": "t_address",
						"label": "mapping(address => uint256)",
						"numberOfBytes": "32",
						"value": "t_uint256"
					},
					"t_mapping(t_uint256,t_struct(Ballot)363_storage)": {
						"encoding": "mapping",
						"key": "t_uint256",
						"label": "mapping(uint256 => struct MyHomesToken.Ballot)",
						"numberOfBytes": "32",
						"value": "t_struct(Ballot)363_storage"
					},
					"t_mapping(t_uint256,t_struct(Vote)352_storage)": {
						"encoding": "mapping",
						"key": "t_uint256",
						"label": "mapping(uint256 => struct MyHomesToken.Vote)",
						"numberOfBytes": "32",
						"value": "t_struct(Vote)352_storage"
					},
					"t_string_storage": {
						"encoding": "bytes",
						"label": "string",
						"numberOfBytes": "32"
					},
					"t_struct(Ballot)363_storage": {
						"encoding": "inplace",
						"label": "struct MyHomesToken.Ballot",
						"members": [
							{
								"astId": 354,
								"contract": "MyHomeToken.sol:MyHomesToken",
								"label": "ballotId",
								"offset": 0,
								"slot": "0",
								"type": "t_string_storage"
							},
							{
								"astId": 356,
								"contract": "MyHomeToken.sol:MyHomesToken",
								"label": "ballotOwner",
								"offset": 0,
								"slot": "1",
								"type": "t_address"
							},
							{
								"astId": 358,
								"contract": "MyHomeToken.sol:MyHomesToken",
								"label": "proposal",
								"offset": 0,
								"slot": "2",
								"type": "t_string_storage"
							},
							{
								"astId": 360,
								"contract": "MyHomeToken.sol:MyHomesToken",
								"label": "finalResult",
								"offset": 0,
								"slot": "3",
								"type": "t_uint256"
							},
							{
								"astId": 362,
								"contract": "MyHomeToken.sol:MyHomesToken",
								"label": "totalVotes",
								"offset": 0,
								"slot": "4",
								"type": "t_uint256"
							}
						],
						"numberOfBytes": "160"
					},
					"t_struct(House)340_storage": {
						"encoding": "inplace",
						"label": "struct MyHomesToken.House",
						"members": [
							{
								"astId": 335,
								"contract": "MyHomeToken.sol:MyHomesToken",
								"label": "registrationId",
								"offset": 0,
								"slot": "0",
								"type": "t_string_storage"
							},
							{
								"astId": 337,
								"contract": "MyHomeToken.sol:MyHomesToken",
								"label": "physicalAddress",
								"offset": 0,
								"slot": "1",
								"type": "t_string_storage"
							},
							{
								"astId": 339,
								"contract": "MyHomeToken.sol:MyHomesToken",
								"label": "price",
								"offset": 0,
								"slot": "2",
								"type": "t_uint256"
							}
						],
						"numberOfBytes": "96"
					},
					"t_struct(HousingPackage)347_storage": {
						"encoding": "inplace",
						"label": "struct MyHomesToken.HousingPackage",
						"members": [
							{
								"astId": 342,
								"contract": "MyHomeToken.sol:MyHomesToken",
								"label": "name",
								"offset": 0,
								"slot": "0",
								"type": "t_string_storage"
							},
							{
								"astId": 344,
								"contract": "MyHomeToken.sol:MyHomesToken",
								"label": "description",
								"offset": 0,
								"slot": "1",
								"type": "t_string_storage"
							},
							{
								"astId": 346,
								"contract": "MyHomeToken.sol:MyHomesToken",
								"label": "totalValue",
								"offset": 0,
								"slot": "2",
								"type": "t_uint256"
							}
						],
						"numberOfBytes": "96"
					},
					"t_struct(Vote)352_storage": {
						"encoding": "inplace",
						"label": "struct MyHomesToken.Vote",
						"members": [
							{
								"astId": 349,
								"contract": "MyHomeToken.sol:MyHomesToken",
								"label": "shareHolderAddress",
								"offset": 0,
								"slot": "0",
								"type": "t_address"
							},
							{
								"astId": 351,
								"contract": "MyHomeToken.sol:MyHomesToken",
								"label": "choice",
								"offset": 20,
								"slot": "0",
								"type": "t_bool"
							}
						],
						"numberOfBytes": "32"
					},
					"t_uint256": {
						"encoding": "inplace",
						"label": "uint256",
						"numberOfBytes": "32"
					}
				}
			},
			"userdoc": {
				"kind": "user",
				"methods": {},
				"version": 1
			}
		}
	}
}