{
	"Ballot.sol": {
		"Ballot": {
			"abi": [
				{
					"inputs": [
						{
							"internalType": "string",
							"name": "_ballotName",
							"type": "string"
						},
						{
							"internalType": "string",
							"name": "_proposal",
							"type": "string"
						}
					],
					"stateMutability": "nonpayable",
					"type": "constructor"
				},
				{
					"anonymous": false,
					"inputs": [
						{
							"indexed": false,
							"internalType": "address",
							"name": "sh",
							"type": "address"
						}
					],
					"name": "shareHolderAdded",
					"type": "event"
				},
				{
					"anonymous": false,
					"inputs": [
						{
							"indexed": false,
							"internalType": "address",
							"name": "shareHolder",
							"type": "address"
						}
					],
					"name": "voteDone",
					"type": "event"
				},
				{
					"anonymous": false,
					"inputs": [
						{
							"indexed": false,
							"internalType": "uint256",
							"name": "finalResult",
							"type": "uint256"
						}
					],
					"name": "voteEnded",
					"type": "event"
				},
				{
					"anonymous": false,
					"inputs": [],
					"name": "voteStarted",
					"type": "event"
				},
				{
					"inputs": [
						{
							"internalType": "address",
							"name": "_shareHolderAddress",
							"type": "address"
						},
						{
							"internalType": "string",
							"name": "_shareHolderName",
							"type": "string"
						}
					],
					"name": "addVoter",
					"outputs": [],
					"stateMutability": "nonpayable",
					"type": "function"
				},
				{
					"inputs": [],
					"name": "ballotAddress",
					"outputs": [
						{
							"internalType": "address",
							"name": "",
							"type": "address"
						}
					],
					"stateMutability": "view",
					"type": "function"
				},
				{
					"inputs": [],
					"name": "ballotName",
					"outputs": [
						{
							"internalType": "string",
							"name": "",
							"type": "string"
						}
					],
					"stateMutability": "view",
					"type": "function"
				},
				{
					"inputs": [
						{
							"internalType": "bool",
							"name": "_choice",
							"type": "bool"
						}
					],
					"name": "doVote",
					"outputs": [
						{
							"internalType": "bool",
							"name": "voted",
							"type": "bool"
						}
					],
					"stateMutability": "nonpayable",
					"type": "function"
				},
				{
					"inputs": [],
					"name": "endVote",
					"outputs": [],
					"stateMutability": "nonpayable",
					"type": "function"
				},
				{
					"inputs": [],
					"name": "finalResult",
					"outputs": [
						{
							"internalType": "uint256",
							"name": "",
							"type": "uint256"
						}
					],
					"stateMutability": "view",
					"type": "function"
				},
				{
					"inputs": [],
					"name": "proposal",
					"outputs": [
						{
							"internalType": "string",
							"name": "",
							"type": "string"
						}
					],
					"stateMutability": "view",
					"type": "function"
				},
				{
					"inputs": [
						{
							"internalType": "address",
							"name": "",
							"type": "address"
						}
					],
					"name": "shareHolderRegister",
					"outputs": [
						{
							"internalType": "string",
							"name": "name",
							"type": "string"
						},
						{
							"internalType": "bool",
							"name": "voted",
							"type": "bool"
						}
					],
					"stateMutability": "view",
					"type": "function"
				},
				{
					"inputs": [],
					"name": "startVote",
					"outputs": [],
					"stateMutability": "nonpayable",
					"type": "function"
				},
				{
					"inputs": [],
					"name": "state",
					"outputs": [
						{
							"internalType": "enum Ballot.State",
							"name": "",
							"type": "uint8"
						}
					],
					"stateMutability": "view",
					"type": "function"
				},
				{
					"inputs": [],
					"name": "totalShareHolders",
					"outputs": [
						{
							"internalType": "uint256",
							"name": "",
							"type": "uint256"
						}
					],
					"stateMutability": "view",
					"type": "function"
				},
				{
					"inputs": [],
					"name": "totalVotes",
					"outputs": [
						{
							"internalType": "uint256",
							"name": "",
							"type": "uint256"
						}
					],
					"stateMutability": "view",
					"type": "function"
				}
			],
			"devdoc": {
				"kind": "dev",
				"methods": {},
				"version": 1
			},
			"evm": {
				"assembly": "    /* \"Ballot.sol\":56:2819  contract Ballot {    ... */\n  mstore(0x40, 0x80)\n    /* \"Ballot.sol\":207:208  0 */\n  0x00\n    /* \"Ballot.sol\":180:208  uint private resultCount = 0 */\n  0x03\n  sstore\n    /* \"Ballot.sol\":240:241  0 */\n  0x00\n    /* \"Ballot.sol\":214:241  uint public finalResult = 0 */\n  0x04\n  sstore\n    /* \"Ballot.sol\":279:280  0 */\n  0x00\n    /* \"Ballot.sol\":247:280  uint public totalShareHolders = 0 */\n  0x05\n  sstore\n    /* \"Ballot.sol\":311:312  0 */\n  0x00\n    /* \"Ballot.sol\":286:312  uint public totalVotes = 0 */\n  0x06\n  sstore\n    /* \"Ballot.sol\":790:1025  constructor(... */\n  callvalue\n  dup1\n  iszero\n  tag_1\n  jumpi\n  0x00\n  dup1\n  revert\ntag_1:\n  pop\n  mload(0x40)\n  sub(codesize, bytecodeSize)\n  dup1\n  bytecodeSize\n  dup4\n  codecopy\n  dup2\n  dup2\n  add\n  0x40\n  mstore\n  dup2\n  add\n  swap1\n  tag_2\n  swap2\n  swap1\n  tag_3\n  jump\t// in\ntag_2:\n    /* \"Ballot.sol\":904:914  msg.sender */\n  caller\n    /* \"Ballot.sol\":888:901  ballotAddress */\n  0x00\n  dup1\n    /* \"Ballot.sol\":888:914  ballotAddress = msg.sender */\n  0x0100\n  exp\n  dup2\n  sload\n  dup2\n  0xffffffffffffffffffffffffffffffffffffffff\n  mul\n  not\n  and\n  swap1\n  dup4\n  0xffffffffffffffffffffffffffffffffffffffff\n  and\n  mul\n  or\n  swap1\n  sstore\n  pop\n    /* \"Ballot.sol\":937:948  _ballotName */\n  dup2\n    /* \"Ballot.sol\":924:934  ballotName */\n  0x01\n    /* \"Ballot.sol\":924:948  ballotName = _ballotName */\n  swap1\n  dup1\n  mload\n  swap1\n  0x20\n  add\n  swap1\n  tag_6\n  swap3\n  swap2\n  swap1\n  tag_7\n  jump\t// in\ntag_6:\n  pop\n    /* \"Ballot.sol\":969:978  _proposal */\n  dup1\n    /* \"Ballot.sol\":958:966  proposal */\n  0x02\n    /* \"Ballot.sol\":958:978  proposal = _proposal */\n  swap1\n  dup1\n  mload\n  swap1\n  0x20\n  add\n  swap1\n  tag_8\n  swap3\n  swap2\n  swap1\n  tag_7\n  jump\t// in\ntag_8:\n  pop\n    /* \"Ballot.sol\":1005:1018  State.Created */\n  0x00\n    /* \"Ballot.sol\":997:1002  state */\n  0x09\n  0x00\n    /* \"Ballot.sol\":997:1018  state = State.Created */\n  0x0100\n  exp\n  dup2\n  sload\n  dup2\n  0xff\n  mul\n  not\n  and\n  swap1\n  dup4\n  0x02\n  dup2\n  gt\n  iszero\n  tag_9\n  jumpi\n  tag_10\n  tag_11\n  jump\t// in\ntag_10:\ntag_9:\n  mul\n  or\n  swap1\n  sstore\n  pop\n    /* \"Ballot.sol\":790:1025  constructor(... */\n  pop\n  pop\n    /* \"Ballot.sol\":56:2819  contract Ballot {    ... */\n  jump(tag_12)\ntag_7:\n  dup3\n  dup1\n  sload\n  tag_13\n  swap1\n  tag_14\n  jump\t// in\ntag_13:\n  swap1\n  0x00\n  mstore\n  keccak256(0x00, 0x20)\n  swap1\n  0x1f\n  add\n  0x20\n  swap1\n  div\n  dup2\n  add\n  swap3\n  dup3\n  tag_16\n  jumpi\n  0x00\n  dup6\n  sstore\n  jump(tag_15)\ntag_16:\n  dup3\n  0x1f\n  lt\n  tag_17\n  jumpi\n  dup1\n  mload\n  not(0xff)\n  and\n  dup4\n  dup1\n  add\n  or\n  dup6\n  sstore\n  jump(tag_15)\ntag_17:\n  dup3\n  dup1\n  add\n  0x01\n  add\n  dup6\n  sstore\n  dup3\n  iszero\n  tag_15\n  jumpi\n  swap2\n  dup3\n  add\ntag_18:\n  dup3\n  dup2\n  gt\n  iszero\n  tag_19\n  jumpi\n  dup3\n  mload\n  dup3\n  sstore\n  swap2\n  0x20\n  add\n  swap2\n  swap1\n  0x01\n  add\n  swap1\n  jump(tag_18)\ntag_19:\ntag_15:\n  pop\n  swap1\n  pop\n  tag_20\n  swap2\n  swap1\n  tag_21\n  jump\t// in\ntag_20:\n  pop\n  swap1\n  jump\t// out\ntag_21:\ntag_22:\n  dup1\n  dup3\n  gt\n  iszero\n  tag_23\n  jumpi\n  0x00\n  dup2\n  0x00\n  swap1\n  sstore\n  pop\n  0x01\n  add\n  jump(tag_22)\ntag_23:\n  pop\n  swap1\n  jump\t// out\n    /* \"#utility.yul\":7:428   */\ntag_25:\n    /* \"#utility.yul\":96:101   */\n  0x00\n    /* \"#utility.yul\":121:187   */\n  tag_27\n    /* \"#utility.yul\":137:186   */\n  tag_28\n    /* \"#utility.yul\":179:185   */\n  dup5\n    /* \"#utility.yul\":137:186   */\n  tag_29\n  jump\t// in\ntag_28:\n    /* \"#utility.yul\":121:187   */\n  tag_30\n  jump\t// in\ntag_27:\n    /* \"#utility.yul\":112:187   */\n  swap1\n  pop\n    /* \"#utility.yul\":210:216   */\n  dup3\n    /* \"#utility.yul\":203:208   */\n  dup2\n    /* \"#utility.yul\":196:217   */\n  mstore\n    /* \"#utility.yul\":248:252   */\n  0x20\n    /* \"#utility.yul\":241:246   */\n  dup2\n    /* \"#utility.yul\":237:253   */\n  add\n    /* \"#utility.yul\":286:289   */\n  dup5\n    /* \"#utility.yul\":277:283   */\n  dup5\n    /* \"#utility.yul\":272:275   */\n  dup5\n    /* \"#utility.yul\":268:284   */\n  add\n    /* \"#utility.yul\":265:290   */\n  gt\n    /* \"#utility.yul\":262:374   */\n  iszero\n  tag_31\n  jumpi\n    /* \"#utility.yul\":293:372   */\n  tag_32\n  tag_33\n  jump\t// in\ntag_32:\n    /* \"#utility.yul\":262:374   */\ntag_31:\n    /* \"#utility.yul\":383:422   */\n  tag_34\n    /* \"#utility.yul\":415:421   */\n  dup5\n    /* \"#utility.yul\":410:413   */\n  dup3\n    /* \"#utility.yul\":405:408   */\n  dup6\n    /* \"#utility.yul\":383:422   */\n  tag_35\n  jump\t// in\ntag_34:\n    /* \"#utility.yul\":102:428   */\n  pop\n    /* \"#utility.yul\":7:428   */\n  swap4\n  swap3\n  pop\n  pop\n  pop\n  jump\t// out\n    /* \"#utility.yul\":448:803   */\ntag_36:\n    /* \"#utility.yul\":515:520   */\n  0x00\n    /* \"#utility.yul\":564:567   */\n  dup3\n    /* \"#utility.yul\":557:561   */\n  0x1f\n    /* \"#utility.yul\":549:555   */\n  dup4\n    /* \"#utility.yul\":545:562   */\n  add\n    /* \"#utility.yul\":541:568   */\n  slt\n    /* \"#utility.yul\":531:653   */\n  tag_38\n  jumpi\n    /* \"#utility.yul\":572:651   */\n  tag_39\n  tag_40\n  jump\t// in\ntag_39:\n    /* \"#utility.yul\":531:653   */\ntag_38:\n    /* \"#utility.yul\":682:688   */\n  dup2\n    /* \"#utility.yul\":676:689   */\n  mload\n    /* \"#utility.yul\":707:797   */\n  tag_41\n    /* \"#utility.yul\":793:796   */\n  dup5\n    /* \"#utility.yul\":785:791   */\n  dup3\n    /* \"#utility.yul\":778:782   */\n  0x20\n    /* \"#utility.yul\":770:776   */\n  dup7\n    /* \"#utility.yul\":766:783   */\n  add\n    /* \"#utility.yul\":707:797   */\n  tag_25\n  jump\t// in\ntag_41:\n    /* \"#utility.yul\":698:797   */\n  swap2\n  pop\n    /* \"#utility.yul\":521:803   */\n  pop\n    /* \"#utility.yul\":448:803   */\n  swap3\n  swap2\n  pop\n  pop\n  jump\t// out\n    /* \"#utility.yul\":809:1662   */\ntag_3:\n    /* \"#utility.yul\":908:914   */\n  0x00\n    /* \"#utility.yul\":916:922   */\n  dup1\n    /* \"#utility.yul\":965:967   */\n  0x40\n    /* \"#utility.yul\":953:962   */\n  dup4\n    /* \"#utility.yul\":944:951   */\n  dup6\n    /* \"#utility.yul\":940:963   */\n  sub\n    /* \"#utility.yul\":936:968   */\n  slt\n    /* \"#utility.yul\":933:1052   */\n  iszero\n  tag_43\n  jumpi\n    /* \"#utility.yul\":971:1050   */\n  tag_44\n  tag_45\n  jump\t// in\ntag_44:\n    /* \"#utility.yul\":933:1052   */\ntag_43:\n    /* \"#utility.yul\":1112:1113   */\n  0x00\n    /* \"#utility.yul\":1101:1110   */\n  dup4\n    /* \"#utility.yul\":1097:1114   */\n  add\n    /* \"#utility.yul\":1091:1115   */\n  mload\n    /* \"#utility.yul\":1142:1160   */\n  0xffffffffffffffff\n    /* \"#utility.yul\":1134:1140   */\n  dup2\n    /* \"#utility.yul\":1131:1161   */\n  gt\n    /* \"#utility.yul\":1128:1245   */\n  iszero\n  tag_46\n  jumpi\n    /* \"#utility.yul\":1164:1243   */\n  tag_47\n  tag_48\n  jump\t// in\ntag_47:\n    /* \"#utility.yul\":1128:1245   */\ntag_46:\n    /* \"#utility.yul\":1269:1343   */\n  tag_49\n    /* \"#utility.yul\":1335:1342   */\n  dup6\n    /* \"#utility.yul\":1326:1332   */\n  dup3\n    /* \"#utility.yul\":1315:1324   */\n  dup7\n    /* \"#utility.yul\":1311:1333   */\n  add\n    /* \"#utility.yul\":1269:1343   */\n  tag_36\n  jump\t// in\ntag_49:\n    /* \"#utility.yul\":1259:1343   */\n  swap3\n  pop\n    /* \"#utility.yul\":1062:1353   */\n  pop\n    /* \"#utility.yul\":1413:1415   */\n  0x20\n    /* \"#utility.yul\":1402:1411   */\n  dup4\n    /* \"#utility.yul\":1398:1416   */\n  add\n    /* \"#utility.yul\":1392:1417   */\n  mload\n    /* \"#utility.yul\":1444:1462   */\n  0xffffffffffffffff\n    /* \"#utility.yul\":1436:1442   */\n  dup2\n    /* \"#utility.yul\":1433:1463   */\n  gt\n    /* \"#utility.yul\":1430:1547   */\n  iszero\n  tag_50\n  jumpi\n    /* \"#utility.yul\":1466:1545   */\n  tag_51\n  tag_48\n  jump\t// in\ntag_51:\n    /* \"#utility.yul\":1430:1547   */\ntag_50:\n    /* \"#utility.yul\":1571:1645   */\n  tag_52\n    /* \"#utility.yul\":1637:1644   */\n  dup6\n    /* \"#utility.yul\":1628:1634   */\n  dup3\n    /* \"#utility.yul\":1617:1626   */\n  dup7\n    /* \"#utility.yul\":1613:1635   */\n  add\n    /* \"#utility.yul\":1571:1645   */\n  tag_36\n  jump\t// in\ntag_52:\n    /* \"#utility.yul\":1561:1645   */\n  swap2\n  pop\n    /* \"#utility.yul\":1363:1655   */\n  pop\n    /* \"#utility.yul\":809:1662   */\n  swap3\n  pop\n  swap3\n  swap1\n  pop\n  jump\t// out\n    /* \"#utility.yul\":1668:1797   */\ntag_30:\n    /* \"#utility.yul\":1702:1708   */\n  0x00\n    /* \"#utility.yul\":1729:1749   */\n  tag_54\n  tag_55\n  jump\t// in\ntag_54:\n    /* \"#utility.yul\":1719:1749   */\n  swap1\n  pop\n    /* \"#utility.yul\":1758:1791   */\n  tag_56\n    /* \"#utility.yul\":1786:1790   */\n  dup3\n    /* \"#utility.yul\":1778:1784   */\n  dup3\n    /* \"#utility.yul\":1758:1791   */\n  tag_57\n  jump\t// in\ntag_56:\n    /* \"#utility.yul\":1668:1797   */\n  swap2\n  swap1\n  pop\n  jump\t// out\n    /* \"#utility.yul\":1803:1878   */\ntag_55:\n    /* \"#utility.yul\":1836:1842   */\n  0x00\n    /* \"#utility.yul\":1869:1871   */\n  0x40\n    /* \"#utility.yul\":1863:1872   */\n  mload\n    /* \"#utility.yul\":1853:1872   */\n  swap1\n  pop\n    /* \"#utility.yul\":1803:1878   */\n  swap1\n  jump\t// out\n    /* \"#utility.yul\":1884:2192   */\ntag_29:\n    /* \"#utility.yul\":1946:1950   */\n  0x00\n    /* \"#utility.yul\":2036:2054   */\n  0xffffffffffffffff\n    /* \"#utility.yul\":2028:2034   */\n  dup3\n    /* \"#utility.yul\":2025:2055   */\n  gt\n    /* \"#utility.yul\":2022:2078   */\n  iszero\n  tag_60\n  jumpi\n    /* \"#utility.yul\":2058:2076   */\n  tag_61\n  tag_62\n  jump\t// in\ntag_61:\n    /* \"#utility.yul\":2022:2078   */\ntag_60:\n    /* \"#utility.yul\":2096:2125   */\n  tag_63\n    /* \"#utility.yul\":2118:2124   */\n  dup3\n    /* \"#utility.yul\":2096:2125   */\n  tag_64\n  jump\t// in\ntag_63:\n    /* \"#utility.yul\":2088:2125   */\n  swap1\n  pop\n    /* \"#utility.yul\":2180:2184   */\n  0x20\n    /* \"#utility.yul\":2174:2178   */\n  dup2\n    /* \"#utility.yul\":2170:2185   */\n  add\n    /* \"#utility.yul\":2162:2185   */\n  swap1\n  pop\n    /* \"#utility.yul\":1884:2192   */\n  swap2\n  swap1\n  pop\n  jump\t// out\n    /* \"#utility.yul\":2198:2505   */\ntag_35:\n    /* \"#utility.yul\":2266:2267   */\n  0x00\n    /* \"#utility.yul\":2276:2389   */\ntag_66:\n    /* \"#utility.yul\":2290:2296   */\n  dup4\n    /* \"#utility.yul\":2287:2288   */\n  dup2\n    /* \"#utility.yul\":2284:2297   */\n  lt\n    /* \"#utility.yul\":2276:2389   */\n  iszero\n  tag_68\n  jumpi\n    /* \"#utility.yul\":2375:2376   */\n  dup1\n    /* \"#utility.yul\":2370:2373   */\n  dup3\n    /* \"#utility.yul\":2366:2377   */\n  add\n    /* \"#utility.yul\":2360:2378   */\n  mload\n    /* \"#utility.yul\":2356:2357   */\n  dup2\n    /* \"#utility.yul\":2351:2354   */\n  dup5\n    /* \"#utility.yul\":2347:2358   */\n  add\n    /* \"#utility.yul\":2340:2379   */\n  mstore\n    /* \"#utility.yul\":2312:2314   */\n  0x20\n    /* \"#utility.yul\":2309:2310   */\n  dup2\n    /* \"#utility.yul\":2305:2315   */\n  add\n    /* \"#utility.yul\":2300:2315   */\n  swap1\n  pop\n    /* \"#utility.yul\":2276:2389   */\n  jump(tag_66)\ntag_68:\n    /* \"#utility.yul\":2407:2413   */\n  dup4\n    /* \"#utility.yul\":2404:2405   */\n  dup2\n    /* \"#utility.yul\":2401:2414   */\n  gt\n    /* \"#utility.yul\":2398:2499   */\n  iszero\n  tag_69\n  jumpi\n    /* \"#utility.yul\":2487:2488   */\n  0x00\n    /* \"#utility.yul\":2478:2484   */\n  dup5\n    /* \"#utility.yul\":2473:2476   */\n  dup5\n    /* \"#utility.yul\":2469:2485   */\n  add\n    /* \"#utility.yul\":2462:2489   */\n  mstore\n    /* \"#utility.yul\":2398:2499   */\ntag_69:\n    /* \"#utility.yul\":2247:2505   */\n  pop\n    /* \"#utility.yul\":2198:2505   */\n  pop\n  pop\n  pop\n  jump\t// out\n    /* \"#utility.yul\":2511:2831   */\ntag_14:\n    /* \"#utility.yul\":2555:2561   */\n  0x00\n    /* \"#utility.yul\":2592:2593   */\n  0x02\n    /* \"#utility.yul\":2586:2590   */\n  dup3\n    /* \"#utility.yul\":2582:2594   */\n  div\n    /* \"#utility.yul\":2572:2594   */\n  swap1\n  pop\n    /* \"#utility.yul\":2639:2640   */\n  0x01\n    /* \"#utility.yul\":2633:2637   */\n  dup3\n    /* \"#utility.yul\":2629:2641   */\n  and\n    /* \"#utility.yul\":2660:2678   */\n  dup1\n    /* \"#utility.yul\":2650:2731   */\n  tag_71\n  jumpi\n    /* \"#utility.yul\":2716:2720   */\n  0x7f\n    /* \"#utility.yul\":2708:2714   */\n  dup3\n    /* \"#utility.yul\":2704:2721   */\n  and\n    /* \"#utility.yul\":2694:2721   */\n  swap2\n  pop\n    /* \"#utility.yul\":2650:2731   */\ntag_71:\n    /* \"#utility.yul\":2778:2780   */\n  0x20\n    /* \"#utility.yul\":2770:2776   */\n  dup3\n    /* \"#utility.yul\":2767:2781   */\n  lt\n    /* \"#utility.yul\":2747:2765   */\n  dup2\n    /* \"#utility.yul\":2744:2782   */\n  eq\n    /* \"#utility.yul\":2741:2825   */\n  iszero\n  tag_72\n  jumpi\n    /* \"#utility.yul\":2797:2815   */\n  tag_73\n  tag_74\n  jump\t// in\ntag_73:\n    /* \"#utility.yul\":2741:2825   */\ntag_72:\n    /* \"#utility.yul\":2562:2831   */\n  pop\n    /* \"#utility.yul\":2511:2831   */\n  swap2\n  swap1\n  pop\n  jump\t// out\n    /* \"#utility.yul\":2837:3118   */\ntag_57:\n    /* \"#utility.yul\":2920:2947   */\n  tag_76\n    /* \"#utility.yul\":2942:2946   */\n  dup3\n    /* \"#utility.yul\":2920:2947   */\n  tag_64\n  jump\t// in\ntag_76:\n    /* \"#utility.yul\":2912:2918   */\n  dup2\n    /* \"#utility.yul\":2908:2948   */\n  add\n    /* \"#utility.yul\":3050:3056   */\n  dup2\n    /* \"#utility.yul\":3038:3048   */\n  dup2\n    /* \"#utility.yul\":3035:3057   */\n  lt\n    /* \"#utility.yul\":3014:3032   */\n  0xffffffffffffffff\n    /* \"#utility.yul\":3002:3012   */\n  dup3\n    /* \"#utility.yul\":2999:3033   */\n  gt\n    /* \"#utility.yul\":2996:3058   */\n  or\n    /* \"#utility.yul\":2993:3081   */\n  iszero\n  tag_77\n  jumpi\n    /* \"#utility.yul\":3061:3079   */\n  tag_78\n  tag_62\n  jump\t// in\ntag_78:\n    /* \"#utility.yul\":2993:3081   */\ntag_77:\n    /* \"#utility.yul\":3101:3111   */\n  dup1\n    /* \"#utility.yul\":3097:3099   */\n  0x40\n    /* \"#utility.yul\":3090:3112   */\n  mstore\n    /* \"#utility.yul\":2880:3118   */\n  pop\n    /* \"#utility.yul\":2837:3118   */\n  pop\n  pop\n  jump\t// out\n    /* \"#utility.yul\":3124:3304   */\ntag_11:\n    /* \"#utility.yul\":3172:3249   */\n  0x4e487b7100000000000000000000000000000000000000000000000000000000\n    /* \"#utility.yul\":3169:3170   */\n  0x00\n    /* \"#utility.yul\":3162:3250   */\n  mstore\n    /* \"#utility.yul\":3269:3273   */\n  0x21\n    /* \"#utility.yul\":3266:3267   */\n  0x04\n    /* \"#utility.yul\":3259:3274   */\n  mstore\n    /* \"#utility.yul\":3293:3297   */\n  0x24\n    /* \"#utility.yul\":3290:3291   */\n  0x00\n    /* \"#utility.yul\":3283:3298   */\n  revert\n    /* \"#utility.yul\":3310:3490   */\ntag_74:\n    /* \"#utility.yul\":3358:3435   */\n  0x4e487b7100000000000000000000000000000000000000000000000000000000\n    /* \"#utility.yul\":3355:3356   */\n  0x00\n    /* \"#utility.yul\":3348:3436   */\n  mstore\n    /* \"#utility.yul\":3455:3459   */\n  0x22\n    /* \"#utility.yul\":3452:3453   */\n  0x04\n    /* \"#utility.yul\":3445:3460   */\n  mstore\n    /* \"#utility.yul\":3479:3483   */\n  0x24\n    /* \"#utility.yul\":3476:3477   */\n  0x00\n    /* \"#utility.yul\":3469:3484   */\n  revert\n    /* \"#utility.yul\":3496:3676   */\ntag_62:\n    /* \"#utility.yul\":3544:3621   */\n  0x4e487b7100000000000000000000000000000000000000000000000000000000\n    /* \"#utility.yul\":3541:3542   */\n  0x00\n    /* \"#utility.yul\":3534:3622   */\n  mstore\n    /* \"#utility.yul\":3641:3645   */\n  0x41\n    /* \"#utility.yul\":3638:3639   */\n  0x04\n    /* \"#utility.yul\":3631:3646   */\n  mstore\n    /* \"#utility.yul\":3665:3669   */\n  0x24\n    /* \"#utility.yul\":3662:3663   */\n  0x00\n    /* \"#utility.yul\":3655:3670   */\n  revert\n    /* \"#utility.yul\":3682:3799   */\ntag_40:\n    /* \"#utility.yul\":3791:3792   */\n  0x00\n    /* \"#utility.yul\":3788:3789   */\n  dup1\n    /* \"#utility.yul\":3781:3793   */\n  revert\n    /* \"#utility.yul\":3805:3922   */\ntag_33:\n    /* \"#utility.yul\":3914:3915   */\n  0x00\n    /* \"#utility.yul\":3911:3912   */\n  dup1\n    /* \"#utility.yul\":3904:3916   */\n  revert\n    /* \"#utility.yul\":3928:4045   */\ntag_48:\n    /* \"#utility.yul\":4037:4038   */\n  0x00\n    /* \"#utility.yul\":4034:4035   */\n  dup1\n    /* \"#utility.yul\":4027:4039   */\n  revert\n    /* \"#utility.yul\":4051:4168   */\ntag_45:\n    /* \"#utility.yul\":4160:4161   */\n  0x00\n    /* \"#utility.yul\":4157:4158   */\n  dup1\n    /* \"#utility.yul\":4150:4162   */\n  revert\n    /* \"#utility.yul\":4174:4276   */\ntag_64:\n    /* \"#utility.yul\":4215:4221   */\n  0x00\n    /* \"#utility.yul\":4266:4268   */\n  0x1f\n    /* \"#utility.yul\":4262:4269   */\n  not\n    /* \"#utility.yul\":4257:4259   */\n  0x1f\n    /* \"#utility.yul\":4250:4255   */\n  dup4\n    /* \"#utility.yul\":4246:4260   */\n  add\n    /* \"#utility.yul\":4242:4270   */\n  and\n    /* \"#utility.yul\":4232:4270   */\n  swap1\n  pop\n    /* \"#utility.yul\":4174:4276   */\n  swap2\n  swap1\n  pop\n  jump\t// out\n    /* \"Ballot.sol\":56:2819  contract Ballot {    ... */\ntag_12:\n  dataSize(sub_0)\n  dup1\n  dataOffset(sub_0)\n  0x00\n  codecopy\n  0x00\n  return\nstop\n\nsub_0: assembly {\n        /* \"Ballot.sol\":56:2819  contract Ballot {    ... */\n      mstore(0x40, 0x80)\n      callvalue\n      dup1\n      iszero\n      tag_1\n      jumpi\n      0x00\n      dup1\n      revert\n    tag_1:\n      pop\n      jumpi(tag_2, lt(calldatasize, 0x04))\n      shr(0xe0, calldataload(0x00))\n      dup1\n      0x9a982416\n      gt\n      tag_15\n      jumpi\n      dup1\n      0x9a982416\n      eq\n      tag_9\n      jumpi\n      dup1\n      0xb9223946\n      eq\n      tag_10\n      jumpi\n      dup1\n      0xc19d93fb\n      eq\n      tag_11\n      jumpi\n      dup1\n      0xd8335b53\n      eq\n      tag_12\n      jumpi\n      dup1\n      0xd9e95a98\n      eq\n      tag_13\n      jumpi\n      dup1\n      0xf3a8286f\n      eq\n      tag_14\n      jumpi\n      jump(tag_2)\n    tag_15:\n      dup1\n      0x0d15fd77\n      eq\n      tag_3\n      jumpi\n      dup1\n      0x1b26586c\n      eq\n      tag_4\n      jumpi\n      dup1\n      0x4c0a6af0\n      eq\n      tag_5\n      jumpi\n      dup1\n      0x5e169bce\n      eq\n      tag_6\n      jumpi\n      dup1\n      0x753ec103\n      eq\n      tag_7\n      jumpi\n      dup1\n      0x87caea78\n      eq\n      tag_8\n      jumpi\n    tag_2:\n      0x00\n      dup1\n      revert\n        /* \"Ballot.sol\":286:312  uint public totalVotes = 0 */\n    tag_3:\n      tag_16\n      tag_17\n      jump\t// in\n    tag_16:\n      mload(0x40)\n      tag_18\n      swap2\n      swap1\n      tag_19\n      jump\t// in\n    tag_18:\n      mload(0x40)\n      dup1\n      swap2\n      sub\n      swap1\n      return\n        /* \"Ballot.sol\":122:146  string public ballotName */\n    tag_4:\n      tag_20\n      tag_21\n      jump\t// in\n    tag_20:\n      mload(0x40)\n      tag_22\n      swap2\n      swap1\n      tag_23\n      jump\t// in\n    tag_22:\n      mload(0x40)\n      dup1\n      swap2\n      sub\n      swap1\n      return\n        /* \"Ballot.sol\":1685:1847  function startVote()... */\n    tag_5:\n      tag_24\n      tag_25\n      jump\t// in\n    tag_24:\n      stop\n        /* \"Ballot.sol\":359:417  mapping(address => shareHolder) public shareHolderRegister */\n    tag_6:\n      tag_26\n      0x04\n      dup1\n      calldatasize\n      sub\n      dup2\n      add\n      swap1\n      tag_27\n      swap2\n      swap1\n      tag_28\n      jump\t// in\n    tag_27:\n      tag_29\n      jump\t// in\n    tag_26:\n      mload(0x40)\n      tag_30\n      swap3\n      swap2\n      swap1\n      tag_31\n      jump\t// in\n    tag_30:\n      mload(0x40)\n      dup1\n      swap2\n      sub\n      swap1\n      return\n        /* \"Ballot.sol\":152:174  string public proposal */\n    tag_7:\n      tag_32\n      tag_33\n      jump\t// in\n    tag_32:\n      mload(0x40)\n      tag_34\n      swap2\n      swap1\n      tag_23\n      jump\t// in\n    tag_34:\n      mload(0x40)\n      dup1\n      swap2\n      sub\n      swap1\n      return\n        /* \"Ballot.sol\":1911:2594  function doVote(bool _choice)... */\n    tag_8:\n      tag_35\n      0x04\n      dup1\n      calldatasize\n      sub\n      dup2\n      add\n      swap1\n      tag_36\n      swap2\n      swap1\n      tag_37\n      jump\t// in\n    tag_36:\n      tag_38\n      jump\t// in\n    tag_35:\n      mload(0x40)\n      tag_39\n      swap2\n      swap1\n      tag_40\n      jump\t// in\n    tag_39:\n      mload(0x40)\n      dup1\n      swap2\n      sub\n      swap1\n      return\n        /* \"Ballot.sol\":247:280  uint public totalShareHolders = 0 */\n    tag_9:\n      tag_41\n      tag_42\n      jump\t// in\n    tag_41:\n      mload(0x40)\n      tag_43\n      swap2\n      swap1\n      tag_19\n      jump\t// in\n    tag_43:\n      mload(0x40)\n      dup1\n      swap2\n      sub\n      swap1\n      return\n        /* \"Ballot.sol\":2620:2817  function endVote()... */\n    tag_10:\n      tag_44\n      tag_45\n      jump\t// in\n    tag_44:\n      stop\n        /* \"Ballot.sol\":423:441  State public state */\n    tag_11:\n      tag_46\n      tag_47\n      jump\t// in\n    tag_46:\n      mload(0x40)\n      tag_48\n      swap2\n      swap1\n      tag_49\n      jump\t// in\n    tag_48:\n      mload(0x40)\n      dup1\n      swap2\n      sub\n      swap1\n      return\n        /* \"Ballot.sol\":82:110  address public ballotAddress */\n    tag_12:\n      tag_50\n      tag_51\n      jump\t// in\n    tag_50:\n      mload(0x40)\n      tag_52\n      swap2\n      swap1\n      tag_53\n      jump\t// in\n    tag_52:\n      mload(0x40)\n      dup1\n      swap2\n      sub\n      swap1\n      return\n        /* \"Ballot.sol\":1261:1647  function addVoter(address _shareHolderAddress, string memory _shareHolderName)... */\n    tag_13:\n      tag_54\n      0x04\n      dup1\n      calldatasize\n      sub\n      dup2\n      add\n      swap1\n      tag_55\n      swap2\n      swap1\n      tag_56\n      jump\t// in\n    tag_55:\n      tag_57\n      jump\t// in\n    tag_54:\n      stop\n        /* \"Ballot.sol\":214:241  uint public finalResult = 0 */\n    tag_14:\n      tag_58\n      tag_59\n      jump\t// in\n    tag_58:\n      mload(0x40)\n      tag_60\n      swap2\n      swap1\n      tag_19\n      jump\t// in\n    tag_60:\n      mload(0x40)\n      dup1\n      swap2\n      sub\n      swap1\n      return\n        /* \"Ballot.sol\":286:312  uint public totalVotes = 0 */\n    tag_17:\n      sload(0x06)\n      dup2\n      jump\t// out\n        /* \"Ballot.sol\":122:146  string public ballotName */\n    tag_21:\n      0x01\n      dup1\n      sload\n      tag_61\n      swap1\n      tag_62\n      jump\t// in\n    tag_61:\n      dup1\n      0x1f\n      add\n      0x20\n      dup1\n      swap2\n      div\n      mul\n      0x20\n      add\n      mload(0x40)\n      swap1\n      dup2\n      add\n      0x40\n      mstore\n      dup1\n      swap3\n      swap2\n      swap1\n      dup2\n      dup2\n      mstore\n      0x20\n      add\n      dup3\n      dup1\n      sload\n      tag_63\n      swap1\n      tag_62\n      jump\t// in\n    tag_63:\n      dup1\n      iszero\n      tag_64\n      jumpi\n      dup1\n      0x1f\n      lt\n      tag_65\n      jumpi\n      0x0100\n      dup1\n      dup4\n      sload\n      div\n      mul\n      dup4\n      mstore\n      swap2\n      0x20\n      add\n      swap2\n      jump(tag_64)\n    tag_65:\n      dup3\n      add\n      swap2\n      swap1\n      0x00\n      mstore\n      keccak256(0x00, 0x20)\n      swap1\n    tag_66:\n      dup2\n      sload\n      dup2\n      mstore\n      swap1\n      0x01\n      add\n      swap1\n      0x20\n      add\n      dup1\n      dup4\n      gt\n      tag_66\n      jumpi\n      dup3\n      swap1\n      sub\n      0x1f\n      and\n      dup3\n      add\n      swap2\n    tag_64:\n      pop\n      pop\n      pop\n      pop\n      pop\n      dup2\n      jump\t// out\n        /* \"Ballot.sol\":1685:1847  function startVote()... */\n    tag_25:\n        /* \"Ballot.sol\":1737:1750  State.Created */\n      0x00\n        /* \"Ballot.sol\":1235:1241  _state */\n      dup1\n        /* \"Ballot.sol\":1226:1241  state == _state */\n      0x02\n      dup2\n      gt\n      iszero\n      tag_68\n      jumpi\n      tag_69\n      tag_70\n      jump\t// in\n    tag_69:\n    tag_68:\n        /* \"Ballot.sol\":1226:1231  state */\n      0x09\n      0x00\n      swap1\n      sload\n      swap1\n      0x0100\n      exp\n      swap1\n      div\n      0xff\n      and\n        /* \"Ballot.sol\":1226:1241  state == _state */\n      0x02\n      dup2\n      gt\n      iszero\n      tag_71\n      jumpi\n      tag_72\n      tag_70\n      jump\t// in\n    tag_72:\n    tag_71:\n      eq\n        /* \"Ballot.sol\":1218:1242  require(state == _state) */\n      tag_73\n      jumpi\n      0x00\n      dup1\n      revert\n    tag_73:\n        /* \"Ballot.sol\":1157:1170  ballotAddress */\n      0x00\n      dup1\n      sload\n      swap1\n      0x0100\n      exp\n      swap1\n      div\n      0xffffffffffffffffffffffffffffffffffffffff\n      and\n        /* \"Ballot.sol\":1144:1170  msg.sender ==ballotAddress */\n      0xffffffffffffffffffffffffffffffffffffffff\n      and\n        /* \"Ballot.sol\":1144:1154  msg.sender */\n      caller\n        /* \"Ballot.sol\":1144:1170  msg.sender ==ballotAddress */\n      0xffffffffffffffffffffffffffffffffffffffff\n      and\n      eq\n        /* \"Ballot.sol\":1136:1171  require(msg.sender ==ballotAddress) */\n      tag_75\n      jumpi\n      0x00\n      dup1\n      revert\n    tag_75:\n        /* \"Ballot.sol\":1795:1807  State.Voting */\n      0x01\n        /* \"Ballot.sol\":1787:1792  state */\n      0x09\n      0x00\n        /* \"Ballot.sol\":1787:1807  state = State.Voting */\n      0x0100\n      exp\n      dup2\n      sload\n      dup2\n      0xff\n      mul\n      not\n      and\n      swap1\n      dup4\n      0x02\n      dup2\n      gt\n      iszero\n      tag_77\n      jumpi\n      tag_78\n      tag_70\n      jump\t// in\n    tag_78:\n    tag_77:\n      mul\n      or\n      swap1\n      sstore\n      pop\n        /* \"Ballot.sol\":1827:1840  voteStarted() */\n      0xd0dc01800a369fef30d3fced5275b8b916549867622e79efca5245c479fda4ea\n      mload(0x40)\n      mload(0x40)\n      dup1\n      swap2\n      sub\n      swap1\n      log1\n        /* \"Ballot.sol\":1685:1847  function startVote()... */\n      pop\n      jump\t// out\n        /* \"Ballot.sol\":359:417  mapping(address => shareHolder) public shareHolderRegister */\n    tag_29:\n      mstore(0x20, 0x08)\n      dup1\n      0x00\n      mstore\n      keccak256(0x00, 0x40)\n      0x00\n      swap2\n      pop\n      swap1\n      pop\n      dup1\n      0x00\n      add\n      dup1\n      sload\n      tag_79\n      swap1\n      tag_62\n      jump\t// in\n    tag_79:\n      dup1\n      0x1f\n      add\n      0x20\n      dup1\n      swap2\n      div\n      mul\n      0x20\n      add\n      mload(0x40)\n      swap1\n      dup2\n      add\n      0x40\n      mstore\n      dup1\n      swap3\n      swap2\n      swap1\n      dup2\n      dup2\n      mstore\n      0x20\n      add\n      dup3\n      dup1\n      sload\n      tag_80\n      swap1\n      tag_62\n      jump\t// in\n    tag_80:\n      dup1\n      iszero\n      tag_81\n      jumpi\n      dup1\n      0x1f\n      lt\n      tag_82\n      jumpi\n      0x0100\n      dup1\n      dup4\n      sload\n      div\n      mul\n      dup4\n      mstore\n      swap2\n      0x20\n      add\n      swap2\n      jump(tag_81)\n    tag_82:\n      dup3\n      add\n      swap2\n      swap1\n      0x00\n      mstore\n      keccak256(0x00, 0x20)\n      swap1\n    tag_83:\n      dup2\n      sload\n      dup2\n      mstore\n      swap1\n      0x01\n      add\n      swap1\n      0x20\n      add\n      dup1\n      dup4\n      gt\n      tag_83\n      jumpi\n      dup3\n      swap1\n      sub\n      0x1f\n      and\n      dup3\n      add\n      swap2\n    tag_81:\n      pop\n      pop\n      pop\n      pop\n      pop\n      swap1\n      dup1\n      0x01\n      add\n      0x00\n      swap1\n      sload\n      swap1\n      0x0100\n      exp\n      swap1\n      div\n      0xff\n      and\n      swap1\n      pop\n      dup3\n      jump\t// out\n        /* \"Ballot.sol\":152:174  string public proposal */\n    tag_33:\n      0x02\n      dup1\n      sload\n      tag_84\n      swap1\n      tag_62\n      jump\t// in\n    tag_84:\n      dup1\n      0x1f\n      add\n      0x20\n      dup1\n      swap2\n      div\n      mul\n      0x20\n      add\n      mload(0x40)\n      swap1\n      dup2\n      add\n      0x40\n      mstore\n      dup1\n      swap3\n      swap2\n      swap1\n      dup2\n      dup2\n      mstore\n      0x20\n      add\n      dup3\n      dup1\n      sload\n      tag_85\n      swap1\n      tag_62\n      jump\t// in\n    tag_85:\n      dup1\n      iszero\n      tag_86\n      jumpi\n      dup1\n      0x1f\n      lt\n      tag_87\n      jumpi\n      0x0100\n      dup1\n      dup4\n      sload\n      div\n      mul\n      dup4\n      mstore\n      swap2\n      0x20\n      add\n      swap2\n      jump(tag_86)\n    tag_87:\n      dup3\n      add\n      swap2\n      swap1\n      0x00\n      mstore\n      keccak256(0x00, 0x20)\n      swap1\n    tag_88:\n      dup2\n      sload\n      dup2\n      mstore\n      swap1\n      0x01\n      add\n      swap1\n      0x20\n      add\n      dup1\n      dup4\n      gt\n      tag_88\n      jumpi\n      dup3\n      swap1\n      sub\n      0x1f\n      and\n      dup3\n      add\n      swap2\n    tag_86:\n      pop\n      pop\n      pop\n      pop\n      pop\n      dup2\n      jump\t// out\n        /* \"Ballot.sol\":1911:2594  function doVote(bool _choice)... */\n    tag_38:\n        /* \"Ballot.sol\":2003:2013  bool voted */\n      0x00\n        /* \"Ballot.sol\":1972:1984  State.Voting */\n      0x01\n        /* \"Ballot.sol\":1235:1241  _state */\n      dup1\n        /* \"Ballot.sol\":1226:1241  state == _state */\n      0x02\n      dup2\n      gt\n      iszero\n      tag_90\n      jumpi\n      tag_91\n      tag_70\n      jump\t// in\n    tag_91:\n    tag_90:\n        /* \"Ballot.sol\":1226:1231  state */\n      0x09\n      0x00\n      swap1\n      sload\n      swap1\n      0x0100\n      exp\n      swap1\n      div\n      0xff\n      and\n        /* \"Ballot.sol\":1226:1241  state == _state */\n      0x02\n      dup2\n      gt\n      iszero\n      tag_92\n      jumpi\n      tag_93\n      tag_70\n      jump\t// in\n    tag_93:\n    tag_92:\n      eq\n        /* \"Ballot.sol\":1218:1242  require(state == _state) */\n      tag_94\n      jumpi\n      0x00\n      dup1\n      revert\n    tag_94:\n        /* \"Ballot.sol\":2029:2039  bool found */\n      0x00\n        /* \"Ballot.sol\":2124:2125  0 */\n      dup1\n        /* \"Ballot.sol\":2076:2095  shareHolderRegister */\n      0x08\n        /* \"Ballot.sol\":2076:2107  shareHolderRegister[msg.sender] */\n      0x00\n        /* \"Ballot.sol\":2096:2106  msg.sender */\n      caller\n        /* \"Ballot.sol\":2076:2107  shareHolderRegister[msg.sender] */\n      0xffffffffffffffffffffffffffffffffffffffff\n      and\n      0xffffffffffffffffffffffffffffffffffffffff\n      and\n      dup2\n      mstore\n      0x20\n      add\n      swap1\n      dup2\n      mstore\n      0x20\n      add\n      0x00\n      keccak256\n        /* \"Ballot.sol\":2076:2112  shareHolderRegister[msg.sender].name */\n      0x00\n      add\n        /* \"Ballot.sol\":2070:2120  bytes(shareHolderRegister[msg.sender].name).length */\n      dup1\n      sload\n      tag_96\n      swap1\n      tag_62\n      jump\t// in\n    tag_96:\n      swap1\n      pop\n        /* \"Ballot.sol\":2070:2125  bytes(shareHolderRegister[msg.sender].name).length != 0 */\n      eq\n      iszero\n        /* \"Ballot.sol\":2070:2176  bytes(shareHolderRegister[msg.sender].name).length != 0 ... */\n      dup1\n      iszero\n      tag_97\n      jumpi\n      pop\n        /* \"Ballot.sol\":2139:2158  shareHolderRegister */\n      0x08\n        /* \"Ballot.sol\":2139:2170  shareHolderRegister[msg.sender] */\n      0x00\n        /* \"Ballot.sol\":2159:2169  msg.sender */\n      caller\n        /* \"Ballot.sol\":2139:2170  shareHolderRegister[msg.sender] */\n      0xffffffffffffffffffffffffffffffffffffffff\n      and\n      0xffffffffffffffffffffffffffffffffffffffff\n      and\n      dup2\n      mstore\n      0x20\n      add\n      swap1\n      dup2\n      mstore\n      0x20\n      add\n      0x00\n      keccak256\n        /* \"Ballot.sol\":2139:2176  shareHolderRegister[msg.sender].voted */\n      0x01\n      add\n      0x00\n      swap1\n      sload\n      swap1\n      0x0100\n      exp\n      swap1\n      div\n      0xff\n      and\n        /* \"Ballot.sol\":2138:2176  !shareHolderRegister[msg.sender].voted */\n      iszero\n        /* \"Ballot.sol\":2070:2176  bytes(shareHolderRegister[msg.sender].name).length != 0 ... */\n    tag_97:\n        /* \"Ballot.sol\":2066:2531  if (bytes(shareHolderRegister[msg.sender].name).length != 0 ... */\n      iszero\n      tag_98\n      jumpi\n        /* \"Ballot.sol\":2231:2235  true */\n      0x01\n        /* \"Ballot.sol\":2191:2210  shareHolderRegister */\n      0x08\n        /* \"Ballot.sol\":2191:2222  shareHolderRegister[msg.sender] */\n      0x00\n        /* \"Ballot.sol\":2211:2221  msg.sender */\n      caller\n        /* \"Ballot.sol\":2191:2222  shareHolderRegister[msg.sender] */\n      0xffffffffffffffffffffffffffffffffffffffff\n      and\n      0xffffffffffffffffffffffffffffffffffffffff\n      and\n      dup2\n      mstore\n      0x20\n      add\n      swap1\n      dup2\n      mstore\n      0x20\n      add\n      0x00\n      keccak256\n        /* \"Ballot.sol\":2191:2228  shareHolderRegister[msg.sender].voted */\n      0x01\n      add\n      0x00\n        /* \"Ballot.sol\":2191:2235  shareHolderRegister[msg.sender].voted = true */\n      0x0100\n      exp\n      dup2\n      sload\n      dup2\n      0xff\n      mul\n      not\n      and\n      swap1\n      dup4\n      iszero\n      iszero\n      mul\n      or\n      swap1\n      sstore\n      pop\n        /* \"Ballot.sol\":2249:2262  vote memory v */\n      tag_99\n      tag_100\n      jump\t// in\n    tag_99:\n        /* \"Ballot.sol\":2299:2309  msg.sender */\n      caller\n        /* \"Ballot.sol\":2276:2277  v */\n      dup2\n        /* \"Ballot.sol\":2276:2296  v.shareHolderAddress */\n      0x00\n      add\n        /* \"Ballot.sol\":2276:2309  v.shareHolderAddress = msg.sender */\n      swap1\n      0xffffffffffffffffffffffffffffffffffffffff\n      and\n      swap1\n      dup2\n      0xffffffffffffffffffffffffffffffffffffffff\n      and\n      dup2\n      mstore\n      pop\n      pop\n        /* \"Ballot.sol\":2334:2341  _choice */\n      dup5\n        /* \"Ballot.sol\":2323:2324  v */\n      dup2\n        /* \"Ballot.sol\":2323:2331  v.choice */\n      0x20\n      add\n        /* \"Ballot.sol\":2323:2341  v.choice = _choice */\n      swap1\n      iszero\n      iszero\n      swap1\n      dup2\n      iszero\n      iszero\n      dup2\n      mstore\n      pop\n      pop\n        /* \"Ballot.sol\":2359:2366  _choice */\n      dup5\n        /* \"Ballot.sol\":2355:2434  if (_choice){... */\n      iszero\n      tag_101\n      jumpi\n        /* \"Ballot.sol\":2385:2396  resultCount */\n      0x03\n      0x00\n        /* \"Ballot.sol\":2385:2398  resultCount++ */\n      dup2\n      sload\n      dup1\n      swap3\n      swap2\n      swap1\n      tag_102\n      swap1\n      tag_103\n      jump\t// in\n    tag_102:\n      swap2\n      swap1\n      pop\n      sstore\n      pop\n        /* \"Ballot.sol\":2355:2434  if (_choice){... */\n    tag_101:\n        /* \"Ballot.sol\":2467:2468  v */\n      dup1\n        /* \"Ballot.sol\":2447:2452  votes */\n      0x07\n        /* \"Ballot.sol\":2447:2464  votes[totalVotes] */\n      0x00\n        /* \"Ballot.sol\":2453:2463  totalVotes */\n      sload(0x06)\n        /* \"Ballot.sol\":2447:2464  votes[totalVotes] */\n      dup2\n      mstore\n      0x20\n      add\n      swap1\n      dup2\n      mstore\n      0x20\n      add\n      0x00\n      keccak256\n        /* \"Ballot.sol\":2447:2468  votes[totalVotes] = v */\n      0x00\n      dup3\n      add\n      mload\n      dup2\n      0x00\n      add\n      exp(0x0100, 0x00)\n      dup2\n      sload\n      dup2\n      0xffffffffffffffffffffffffffffffffffffffff\n      mul\n      not\n      and\n      swap1\n      dup4\n      0xffffffffffffffffffffffffffffffffffffffff\n      and\n      mul\n      or\n      swap1\n      sstore\n      pop\n      0x20\n      dup3\n      add\n      mload\n      dup2\n      0x00\n      add\n      exp(0x0100, 0x14)\n      dup2\n      sload\n      dup2\n      0xff\n      mul\n      not\n      and\n      swap1\n      dup4\n      iszero\n      iszero\n      mul\n      or\n      swap1\n      sstore\n      pop\n      swap1\n      pop\n      pop\n        /* \"Ballot.sol\":2482:2492  totalVotes */\n      0x06\n      0x00\n        /* \"Ballot.sol\":2482:2494  totalVotes++ */\n      dup2\n      sload\n      dup1\n      swap3\n      swap2\n      swap1\n      tag_104\n      swap1\n      tag_103\n      jump\t// in\n    tag_104:\n      swap2\n      swap1\n      pop\n      sstore\n      pop\n        /* \"Ballot.sol\":2516:2520  true */\n      0x01\n        /* \"Ballot.sol\":2508:2520  found = true */\n      swap2\n      pop\n        /* \"Ballot.sol\":2177:2531  {... */\n      pop\n        /* \"Ballot.sol\":2066:2531  if (bytes(shareHolderRegister[msg.sender].name).length != 0 ... */\n    tag_98:\n        /* \"Ballot.sol\":2545:2565  voteDone(msg.sender) */\n      0x55c65cf9526efdf6c2252fe9757889dbd93e10172cad0f2edb1df619c88dbf7d\n        /* \"Ballot.sol\":2554:2564  msg.sender */\n      caller\n        /* \"Ballot.sol\":2545:2565  voteDone(msg.sender) */\n      mload(0x40)\n      tag_105\n      swap2\n      swap1\n      tag_53\n      jump\t// in\n    tag_105:\n      mload(0x40)\n      dup1\n      swap2\n      sub\n      swap1\n      log1\n        /* \"Ballot.sol\":2582:2587  found */\n      dup1\n        /* \"Ballot.sol\":2575:2587  return found */\n      swap3\n      pop\n      pop\n        /* \"Ballot.sol\":1911:2594  function doVote(bool _choice)... */\n      pop\n      swap2\n      swap1\n      pop\n      jump\t// out\n        /* \"Ballot.sol\":247:280  uint public totalShareHolders = 0 */\n    tag_42:\n      sload(0x05)\n      dup2\n      jump\t// out\n        /* \"Ballot.sol\":2620:2817  function endVote()... */\n    tag_45:\n        /* \"Ballot.sol\":2670:2682  State.Voting */\n      0x01\n        /* \"Ballot.sol\":1235:1241  _state */\n      dup1\n        /* \"Ballot.sol\":1226:1241  state == _state */\n      0x02\n      dup2\n      gt\n      iszero\n      tag_107\n      jumpi\n      tag_108\n      tag_70\n      jump\t// in\n    tag_108:\n    tag_107:\n        /* \"Ballot.sol\":1226:1231  state */\n      0x09\n      0x00\n      swap1\n      sload\n      swap1\n      0x0100\n      exp\n      swap1\n      div\n      0xff\n      and\n        /* \"Ballot.sol\":1226:1241  state == _state */\n      0x02\n      dup2\n      gt\n      iszero\n      tag_109\n      jumpi\n      tag_110\n      tag_70\n      jump\t// in\n    tag_110:\n    tag_109:\n      eq\n        /* \"Ballot.sol\":1218:1242  require(state == _state) */\n      tag_111\n      jumpi\n      0x00\n      dup1\n      revert\n    tag_111:\n        /* \"Ballot.sol\":1157:1170  ballotAddress */\n      0x00\n      dup1\n      sload\n      swap1\n      0x0100\n      exp\n      swap1\n      div\n      0xffffffffffffffffffffffffffffffffffffffff\n      and\n        /* \"Ballot.sol\":1144:1170  msg.sender ==ballotAddress */\n      0xffffffffffffffffffffffffffffffffffffffff\n      and\n        /* \"Ballot.sol\":1144:1154  msg.sender */\n      caller\n        /* \"Ballot.sol\":1144:1170  msg.sender ==ballotAddress */\n      0xffffffffffffffffffffffffffffffffffffffff\n      and\n      eq\n        /* \"Ballot.sol\":1136:1171  require(msg.sender ==ballotAddress) */\n      tag_113\n      jumpi\n      0x00\n      dup1\n      revert\n    tag_113:\n        /* \"Ballot.sol\":2727:2738  State.Ended */\n      0x02\n        /* \"Ballot.sol\":2719:2724  state */\n      0x09\n      0x00\n        /* \"Ballot.sol\":2719:2738  state = State.Ended */\n      0x0100\n      exp\n      dup2\n      sload\n      dup2\n      0xff\n      mul\n      not\n      and\n      swap1\n      dup4\n      0x02\n      dup2\n      gt\n      iszero\n      tag_115\n      jumpi\n      tag_116\n      tag_70\n      jump\t// in\n    tag_116:\n    tag_115:\n      mul\n      or\n      swap1\n      sstore\n      pop\n        /* \"Ballot.sol\":2762:2773  resultCount */\n      sload(0x03)\n        /* \"Ballot.sol\":2748:2759  finalResult */\n      0x04\n        /* \"Ballot.sol\":2748:2773  finalResult = resultCount */\n      dup2\n      swap1\n      sstore\n      pop\n        /* \"Ballot.sol\":2788:2810  voteEnded(finalResult) */\n      0xb43a401dcdbe02a8afa41feb6c651425997908d1a4b79cf505188ba1dd3fd872\n        /* \"Ballot.sol\":2798:2809  finalResult */\n      sload(0x04)\n        /* \"Ballot.sol\":2788:2810  voteEnded(finalResult) */\n      mload(0x40)\n      tag_117\n      swap2\n      swap1\n      tag_19\n      jump\t// in\n    tag_117:\n      mload(0x40)\n      dup1\n      swap2\n      sub\n      swap1\n      log1\n        /* \"Ballot.sol\":2620:2817  function endVote()... */\n      pop\n      jump\t// out\n        /* \"Ballot.sol\":423:441  State public state */\n    tag_47:\n      0x09\n      0x00\n      swap1\n      sload\n      swap1\n      0x0100\n      exp\n      swap1\n      div\n      0xff\n      and\n      dup2\n      jump\t// out\n        /* \"Ballot.sol\":82:110  address public ballotAddress */\n    tag_51:\n      0x00\n      dup1\n      sload\n      swap1\n      0x0100\n      exp\n      swap1\n      div\n      0xffffffffffffffffffffffffffffffffffffffff\n      and\n      dup2\n      jump\t// out\n        /* \"Ballot.sol\":1261:1647  function addVoter(address _shareHolderAddress, string memory _shareHolderName)... */\n    tag_57:\n        /* \"Ballot.sol\":1371:1384  State.Created */\n      0x00\n        /* \"Ballot.sol\":1235:1241  _state */\n      dup1\n        /* \"Ballot.sol\":1226:1241  state == _state */\n      0x02\n      dup2\n      gt\n      iszero\n      tag_119\n      jumpi\n      tag_120\n      tag_70\n      jump\t// in\n    tag_120:\n    tag_119:\n        /* \"Ballot.sol\":1226:1231  state */\n      0x09\n      0x00\n      swap1\n      sload\n      swap1\n      0x0100\n      exp\n      swap1\n      div\n      0xff\n      and\n        /* \"Ballot.sol\":1226:1241  state == _state */\n      0x02\n      dup2\n      gt\n      iszero\n      tag_121\n      jumpi\n      tag_122\n      tag_70\n      jump\t// in\n    tag_122:\n    tag_121:\n      eq\n        /* \"Ballot.sol\":1218:1242  require(state == _state) */\n      tag_123\n      jumpi\n      0x00\n      dup1\n      revert\n    tag_123:\n        /* \"Ballot.sol\":1157:1170  ballotAddress */\n      0x00\n      dup1\n      sload\n      swap1\n      0x0100\n      exp\n      swap1\n      div\n      0xffffffffffffffffffffffffffffffffffffffff\n      and\n        /* \"Ballot.sol\":1144:1170  msg.sender ==ballotAddress */\n      0xffffffffffffffffffffffffffffffffffffffff\n      and\n        /* \"Ballot.sol\":1144:1154  msg.sender */\n      caller\n        /* \"Ballot.sol\":1144:1170  msg.sender ==ballotAddress */\n      0xffffffffffffffffffffffffffffffffffffffff\n      and\n      eq\n        /* \"Ballot.sol\":1136:1171  require(msg.sender ==ballotAddress) */\n      tag_125\n      jumpi\n      0x00\n      dup1\n      revert\n    tag_125:\n        /* \"Ballot.sol\":1421:1442  shareHolder memory sh */\n      tag_127\n      tag_128\n      jump\t// in\n    tag_127:\n        /* \"Ballot.sol\":1462:1478  _shareHolderName */\n      dup3\n        /* \"Ballot.sol\":1452:1454  sh */\n      dup2\n        /* \"Ballot.sol\":1452:1459  sh.name */\n      0x00\n      add\n        /* \"Ballot.sol\":1452:1478  sh.name = _shareHolderName */\n      dup2\n      swap1\n      mstore\n      pop\n        /* \"Ballot.sol\":1499:1504  false */\n      0x00\n        /* \"Ballot.sol\":1488:1490  sh */\n      dup2\n        /* \"Ballot.sol\":1488:1496  sh.voted */\n      0x20\n      add\n        /* \"Ballot.sol\":1488:1504  sh.voted = false */\n      swap1\n      iszero\n      iszero\n      swap1\n      dup2\n      iszero\n      iszero\n      dup2\n      mstore\n      pop\n      pop\n        /* \"Ballot.sol\":1557:1559  sh */\n      dup1\n        /* \"Ballot.sol\":1514:1533  shareHolderRegister */\n      0x08\n        /* \"Ballot.sol\":1514:1554  shareHolderRegister[_shareHolderAddress] */\n      0x00\n        /* \"Ballot.sol\":1534:1553  _shareHolderAddress */\n      dup7\n        /* \"Ballot.sol\":1514:1554  shareHolderRegister[_shareHolderAddress] */\n      0xffffffffffffffffffffffffffffffffffffffff\n      and\n      0xffffffffffffffffffffffffffffffffffffffff\n      and\n      dup2\n      mstore\n      0x20\n      add\n      swap1\n      dup2\n      mstore\n      0x20\n      add\n      0x00\n      keccak256\n        /* \"Ballot.sol\":1514:1559  shareHolderRegister[_shareHolderAddress] = sh */\n      0x00\n      dup3\n      add\n      mload\n      dup2\n      0x00\n      add\n      swap1\n      dup1\n      mload\n      swap1\n      0x20\n      add\n      swap1\n      tag_129\n      swap3\n      swap2\n      swap1\n      tag_130\n      jump\t// in\n    tag_129:\n      pop\n      0x20\n      dup3\n      add\n      mload\n      dup2\n      0x01\n      add\n      exp(0x0100, 0x00)\n      dup2\n      sload\n      dup2\n      0xff\n      mul\n      not\n      and\n      swap1\n      dup4\n      iszero\n      iszero\n      mul\n      or\n      swap1\n      sstore\n      pop\n      swap1\n      pop\n      pop\n        /* \"Ballot.sol\":1569:1586  totalShareHolders */\n      0x05\n      0x00\n        /* \"Ballot.sol\":1569:1588  totalShareHolders++ */\n      dup2\n      sload\n      dup1\n      swap3\n      swap2\n      swap1\n      tag_131\n      swap1\n      tag_103\n      jump\t// in\n    tag_131:\n      swap2\n      swap1\n      pop\n      sstore\n      pop\n        /* \"Ballot.sol\":1603:1640  shareHolderAdded(_shareHolderAddress) */\n      0x56201b074adf978bcfaa3a371cf0b7cc614c9b7e0406460032344b212a4f8761\n        /* \"Ballot.sol\":1620:1639  _shareHolderAddress */\n      dup5\n        /* \"Ballot.sol\":1603:1640  shareHolderAdded(_shareHolderAddress) */\n      mload(0x40)\n      tag_132\n      swap2\n      swap1\n      tag_53\n      jump\t// in\n    tag_132:\n      mload(0x40)\n      dup1\n      swap2\n      sub\n      swap1\n      log1\n        /* \"Ballot.sol\":1411:1647  {... */\n      pop\n        /* \"Ballot.sol\":1261:1647  function addVoter(address _shareHolderAddress, string memory _shareHolderName)... */\n      pop\n      pop\n      pop\n      jump\t// out\n        /* \"Ballot.sol\":214:241  uint public finalResult = 0 */\n    tag_59:\n      sload(0x04)\n      dup2\n      jump\t// out\n    tag_100:\n      mload(0x40)\n      dup1\n      0x40\n      add\n      0x40\n      mstore\n      dup1\n      and(0xffffffffffffffffffffffffffffffffffffffff, 0x00)\n      dup2\n      mstore\n      0x20\n      add\n      iszero(iszero(0x00))\n      dup2\n      mstore\n      pop\n      swap1\n      jump\t// out\n    tag_128:\n      mload(0x40)\n      dup1\n      0x40\n      add\n      0x40\n      mstore\n      dup1\n      0x60\n      dup2\n      mstore\n      0x20\n      add\n      iszero(iszero(0x00))\n      dup2\n      mstore\n      pop\n      swap1\n      jump\t// out\n    tag_130:\n      dup3\n      dup1\n      sload\n      tag_133\n      swap1\n      tag_62\n      jump\t// in\n    tag_133:\n      swap1\n      0x00\n      mstore\n      keccak256(0x00, 0x20)\n      swap1\n      0x1f\n      add\n      0x20\n      swap1\n      div\n      dup2\n      add\n      swap3\n      dup3\n      tag_135\n      jumpi\n      0x00\n      dup6\n      sstore\n      jump(tag_134)\n    tag_135:\n      dup3\n      0x1f\n      lt\n      tag_136\n      jumpi\n      dup1\n      mload\n      not(0xff)\n      and\n      dup4\n      dup1\n      add\n      or\n      dup6\n      sstore\n      jump(tag_134)\n    tag_136:\n      dup3\n      dup1\n      add\n      0x01\n      add\n      dup6\n      sstore\n      dup3\n      iszero\n      tag_134\n      jumpi\n      swap2\n      dup3\n      add\n    tag_137:\n      dup3\n      dup2\n      gt\n      iszero\n      tag_138\n      jumpi\n      dup3\n      mload\n      dup3\n      sstore\n      swap2\n      0x20\n      add\n      swap2\n      swap1\n      0x01\n      add\n      swap1\n      jump(tag_137)\n    tag_138:\n    tag_134:\n      pop\n      swap1\n      pop\n      tag_139\n      swap2\n      swap1\n      tag_140\n      jump\t// in\n    tag_139:\n      pop\n      swap1\n      jump\t// out\n    tag_140:\n    tag_141:\n      dup1\n      dup3\n      gt\n      iszero\n      tag_142\n      jumpi\n      0x00\n      dup2\n      0x00\n      swap1\n      sstore\n      pop\n      0x01\n      add\n      jump(tag_141)\n    tag_142:\n      pop\n      swap1\n      jump\t// out\n        /* \"#utility.yul\":7:419   */\n    tag_144:\n        /* \"#utility.yul\":85:90   */\n      0x00\n        /* \"#utility.yul\":110:176   */\n      tag_146\n        /* \"#utility.yul\":126:175   */\n      tag_147\n        /* \"#utility.yul\":168:174   */\n      dup5\n        /* \"#utility.yul\":126:175   */\n      tag_148\n      jump\t// in\n    tag_147:\n        /* \"#utility.yul\":110:176   */\n      tag_149\n      jump\t// in\n    tag_146:\n        /* \"#utility.yul\":101:176   */\n      swap1\n      pop\n        /* \"#utility.yul\":199:205   */\n      dup3\n        /* \"#utility.yul\":192:197   */\n      dup2\n        /* \"#utility.yul\":185:206   */\n      mstore\n        /* \"#utility.yul\":237:241   */\n      0x20\n        /* \"#utility.yul\":230:235   */\n      dup2\n        /* \"#utility.yul\":226:242   */\n      add\n        /* \"#utility.yul\":275:278   */\n      dup5\n        /* \"#utility.yul\":266:272   */\n      dup5\n        /* \"#utility.yul\":261:264   */\n      dup5\n        /* \"#utility.yul\":257:273   */\n      add\n        /* \"#utility.yul\":254:279   */\n      gt\n        /* \"#utility.yul\":251:363   */\n      iszero\n      tag_150\n      jumpi\n        /* \"#utility.yul\":282:361   */\n      tag_151\n      tag_152\n      jump\t// in\n    tag_151:\n        /* \"#utility.yul\":251:363   */\n    tag_150:\n        /* \"#utility.yul\":372:413   */\n      tag_153\n        /* \"#utility.yul\":406:412   */\n      dup5\n        /* \"#utility.yul\":401:404   */\n      dup3\n        /* \"#utility.yul\":396:399   */\n      dup6\n        /* \"#utility.yul\":372:413   */\n      tag_154\n      jump\t// in\n    tag_153:\n        /* \"#utility.yul\":91:419   */\n      pop\n        /* \"#utility.yul\":7:419   */\n      swap4\n      swap3\n      pop\n      pop\n      pop\n      jump\t// out\n        /* \"#utility.yul\":425:564   */\n    tag_155:\n        /* \"#utility.yul\":471:476   */\n      0x00\n        /* \"#utility.yul\":509:515   */\n      dup2\n        /* \"#utility.yul\":496:516   */\n      calldataload\n        /* \"#utility.yul\":487:516   */\n      swap1\n      pop\n        /* \"#utility.yul\":525:558   */\n      tag_157\n        /* \"#utility.yul\":552:557   */\n      dup2\n        /* \"#utility.yul\":525:558   */\n      tag_158\n      jump\t// in\n    tag_157:\n        /* \"#utility.yul\":425:564   */\n      swap3\n      swap2\n      pop\n      pop\n      jump\t// out\n        /* \"#utility.yul\":570:703   */\n    tag_159:\n        /* \"#utility.yul\":613:618   */\n      0x00\n        /* \"#utility.yul\":651:657   */\n      dup2\n        /* \"#utility.yul\":638:658   */\n      calldataload\n        /* \"#utility.yul\":629:658   */\n      swap1\n      pop\n        /* \"#utility.yul\":667:697   */\n      tag_161\n        /* \"#utility.yul\":691:696   */\n      dup2\n        /* \"#utility.yul\":667:697   */\n      tag_162\n      jump\t// in\n    tag_161:\n        /* \"#utility.yul\":570:703   */\n      swap3\n      swap2\n      pop\n      pop\n      jump\t// out\n        /* \"#utility.yul\":723:1063   */\n    tag_163:\n        /* \"#utility.yul\":779:784   */\n      0x00\n        /* \"#utility.yul\":828:831   */\n      dup3\n        /* \"#utility.yul\":821:825   */\n      0x1f\n        /* \"#utility.yul\":813:819   */\n      dup4\n        /* \"#utility.yul\":809:826   */\n      add\n        /* \"#utility.yul\":805:832   */\n      slt\n        /* \"#utility.yul\":795:917   */\n      tag_165\n      jumpi\n        /* \"#utility.yul\":836:915   */\n      tag_166\n      tag_167\n      jump\t// in\n    tag_166:\n        /* \"#utility.yul\":795:917   */\n    tag_165:\n        /* \"#utility.yul\":953:959   */\n      dup2\n        /* \"#utility.yul\":940:960   */\n      calldataload\n        /* \"#utility.yul\":978:1057   */\n      tag_168\n        /* \"#utility.yul\":1053:1056   */\n      dup5\n        /* \"#utility.yul\":1045:1051   */\n      dup3\n        /* \"#utility.yul\":1038:1042   */\n      0x20\n        /* \"#utility.yul\":1030:1036   */\n      dup7\n        /* \"#utility.yul\":1026:1043   */\n      add\n        /* \"#utility.yul\":978:1057   */\n      tag_144\n      jump\t// in\n    tag_168:\n        /* \"#utility.yul\":969:1057   */\n      swap2\n      pop\n        /* \"#utility.yul\":785:1063   */\n      pop\n        /* \"#utility.yul\":723:1063   */\n      swap3\n      swap2\n      pop\n      pop\n      jump\t// out\n        /* \"#utility.yul\":1069:1398   */\n    tag_28:\n        /* \"#utility.yul\":1128:1134   */\n      0x00\n        /* \"#utility.yul\":1177:1179   */\n      0x20\n        /* \"#utility.yul\":1165:1174   */\n      dup3\n        /* \"#utility.yul\":1156:1163   */\n      dup5\n        /* \"#utility.yul\":1152:1175   */\n      sub\n        /* \"#utility.yul\":1148:1180   */\n      slt\n        /* \"#utility.yul\":1145:1264   */\n      iszero\n      tag_170\n      jumpi\n        /* \"#utility.yul\":1183:1262   */\n      tag_171\n      tag_172\n      jump\t// in\n    tag_171:\n        /* \"#utility.yul\":1145:1264   */\n    tag_170:\n        /* \"#utility.yul\":1303:1304   */\n      0x00\n        /* \"#utility.yul\":1328:1381   */\n      tag_173\n        /* \"#utility.yul\":1373:1380   */\n      dup5\n        /* \"#utility.yul\":1364:1370   */\n      dup3\n        /* \"#utility.yul\":1353:1362   */\n      dup6\n        /* \"#utility.yul\":1349:1371   */\n      add\n        /* \"#utility.yul\":1328:1381   */\n      tag_155\n      jump\t// in\n    tag_173:\n        /* \"#utility.yul\":1318:1381   */\n      swap2\n      pop\n        /* \"#utility.yul\":1274:1391   */\n      pop\n        /* \"#utility.yul\":1069:1398   */\n      swap3\n      swap2\n      pop\n      pop\n      jump\t// out\n        /* \"#utility.yul\":1404:2058   */\n    tag_56:\n        /* \"#utility.yul\":1482:1488   */\n      0x00\n        /* \"#utility.yul\":1490:1496   */\n      dup1\n        /* \"#utility.yul\":1539:1541   */\n      0x40\n        /* \"#utility.yul\":1527:1536   */\n      dup4\n        /* \"#utility.yul\":1518:1525   */\n      dup6\n        /* \"#utility.yul\":1514:1537   */\n      sub\n        /* \"#utility.yul\":1510:1542   */\n      slt\n        /* \"#utility.yul\":1507:1626   */\n      iszero\n      tag_175\n      jumpi\n        /* \"#utility.yul\":1545:1624   */\n      tag_176\n      tag_172\n      jump\t// in\n    tag_176:\n        /* \"#utility.yul\":1507:1626   */\n    tag_175:\n        /* \"#utility.yul\":1665:1666   */\n      0x00\n        /* \"#utility.yul\":1690:1743   */\n      tag_177\n        /* \"#utility.yul\":1735:1742   */\n      dup6\n        /* \"#utility.yul\":1726:1732   */\n      dup3\n        /* \"#utility.yul\":1715:1724   */\n      dup7\n        /* \"#utility.yul\":1711:1733   */\n      add\n        /* \"#utility.yul\":1690:1743   */\n      tag_155\n      jump\t// in\n    tag_177:\n        /* \"#utility.yul\":1680:1743   */\n      swap3\n      pop\n        /* \"#utility.yul\":1636:1753   */\n      pop\n        /* \"#utility.yul\":1820:1822   */\n      0x20\n        /* \"#utility.yul\":1809:1818   */\n      dup4\n        /* \"#utility.yul\":1805:1823   */\n      add\n        /* \"#utility.yul\":1792:1824   */\n      calldataload\n        /* \"#utility.yul\":1851:1869   */\n      0xffffffffffffffff\n        /* \"#utility.yul\":1843:1849   */\n      dup2\n        /* \"#utility.yul\":1840:1870   */\n      gt\n        /* \"#utility.yul\":1837:1954   */\n      iszero\n      tag_178\n      jumpi\n        /* \"#utility.yul\":1873:1952   */\n      tag_179\n      tag_180\n      jump\t// in\n    tag_179:\n        /* \"#utility.yul\":1837:1954   */\n    tag_178:\n        /* \"#utility.yul\":1978:2041   */\n      tag_181\n        /* \"#utility.yul\":2033:2040   */\n      dup6\n        /* \"#utility.yul\":2024:2030   */\n      dup3\n        /* \"#utility.yul\":2013:2022   */\n      dup7\n        /* \"#utility.yul\":2009:2031   */\n      add\n        /* \"#utility.yul\":1978:2041   */\n      tag_163\n      jump\t// in\n    tag_181:\n        /* \"#utility.yul\":1968:2041   */\n      swap2\n      pop\n        /* \"#utility.yul\":1763:2051   */\n      pop\n        /* \"#utility.yul\":1404:2058   */\n      swap3\n      pop\n      swap3\n      swap1\n      pop\n      jump\t// out\n        /* \"#utility.yul\":2064:2387   */\n    tag_37:\n        /* \"#utility.yul\":2120:2126   */\n      0x00\n        /* \"#utility.yul\":2169:2171   */\n      0x20\n        /* \"#utility.yul\":2157:2166   */\n      dup3\n        /* \"#utility.yul\":2148:2155   */\n      dup5\n        /* \"#utility.yul\":2144:2167   */\n      sub\n        /* \"#utility.yul\":2140:2172   */\n      slt\n        /* \"#utility.yul\":2137:2256   */\n      iszero\n      tag_183\n      jumpi\n        /* \"#utility.yul\":2175:2254   */\n      tag_184\n      tag_172\n      jump\t// in\n    tag_184:\n        /* \"#utility.yul\":2137:2256   */\n    tag_183:\n        /* \"#utility.yul\":2295:2296   */\n      0x00\n        /* \"#utility.yul\":2320:2370   */\n      tag_185\n        /* \"#utility.yul\":2362:2369   */\n      dup5\n        /* \"#utility.yul\":2353:2359   */\n      dup3\n        /* \"#utility.yul\":2342:2351   */\n      dup6\n        /* \"#utility.yul\":2338:2360   */\n      add\n        /* \"#utility.yul\":2320:2370   */\n      tag_159\n      jump\t// in\n    tag_185:\n        /* \"#utility.yul\":2310:2370   */\n      swap2\n      pop\n        /* \"#utility.yul\":2266:2380   */\n      pop\n        /* \"#utility.yul\":2064:2387   */\n      swap3\n      swap2\n      pop\n      pop\n      jump\t// out\n        /* \"#utility.yul\":2393:2511   */\n    tag_186:\n        /* \"#utility.yul\":2480:2504   */\n      tag_188\n        /* \"#utility.yul\":2498:2503   */\n      dup2\n        /* \"#utility.yul\":2480:2504   */\n      tag_189\n      jump\t// in\n    tag_188:\n        /* \"#utility.yul\":2475:2478   */\n      dup3\n        /* \"#utility.yul\":2468:2505   */\n      mstore\n        /* \"#utility.yul\":2393:2511   */\n      pop\n      pop\n      jump\t// out\n        /* \"#utility.yul\":2517:2626   */\n    tag_190:\n        /* \"#utility.yul\":2598:2619   */\n      tag_192\n        /* \"#utility.yul\":2613:2618   */\n      dup2\n        /* \"#utility.yul\":2598:2619   */\n      tag_193\n      jump\t// in\n    tag_192:\n        /* \"#utility.yul\":2593:2596   */\n      dup3\n        /* \"#utility.yul\":2586:2620   */\n      mstore\n        /* \"#utility.yul\":2517:2626   */\n      pop\n      pop\n      jump\t// out\n        /* \"#utility.yul\":2632:2775   */\n    tag_194:\n        /* \"#utility.yul\":2725:2768   */\n      tag_196\n        /* \"#utility.yul\":2762:2767   */\n      dup2\n        /* \"#utility.yul\":2725:2768   */\n      tag_197\n      jump\t// in\n    tag_196:\n        /* \"#utility.yul\":2720:2723   */\n      dup3\n        /* \"#utility.yul\":2713:2769   */\n      mstore\n        /* \"#utility.yul\":2632:2775   */\n      pop\n      pop\n      jump\t// out\n        /* \"#utility.yul\":2781:3145   */\n    tag_198:\n        /* \"#utility.yul\":2869:2872   */\n      0x00\n        /* \"#utility.yul\":2897:2936   */\n      tag_200\n        /* \"#utility.yul\":2930:2935   */\n      dup3\n        /* \"#utility.yul\":2897:2936   */\n      tag_201\n      jump\t// in\n    tag_200:\n        /* \"#utility.yul\":2952:3023   */\n      tag_202\n        /* \"#utility.yul\":3016:3022   */\n      dup2\n        /* \"#utility.yul\":3011:3014   */\n      dup6\n        /* \"#utility.yul\":2952:3023   */\n      tag_203\n      jump\t// in\n    tag_202:\n        /* \"#utility.yul\":2945:3023   */\n      swap4\n      pop\n        /* \"#utility.yul\":3032:3084   */\n      tag_204\n        /* \"#utility.yul\":3077:3083   */\n      dup2\n        /* \"#utility.yul\":3072:3075   */\n      dup6\n        /* \"#utility.yul\":3065:3069   */\n      0x20\n        /* \"#utility.yul\":3058:3063   */\n      dup7\n        /* \"#utility.yul\":3054:3070   */\n      add\n        /* \"#utility.yul\":3032:3084   */\n      tag_205\n      jump\t// in\n    tag_204:\n        /* \"#utility.yul\":3109:3138   */\n      tag_206\n        /* \"#utility.yul\":3131:3137   */\n      dup2\n        /* \"#utility.yul\":3109:3138   */\n      tag_207\n      jump\t// in\n    tag_206:\n        /* \"#utility.yul\":3104:3107   */\n      dup5\n        /* \"#utility.yul\":3100:3139   */\n      add\n        /* \"#utility.yul\":3093:3139   */\n      swap2\n      pop\n        /* \"#utility.yul\":2873:3145   */\n      pop\n        /* \"#utility.yul\":2781:3145   */\n      swap3\n      swap2\n      pop\n      pop\n      jump\t// out\n        /* \"#utility.yul\":3151:3269   */\n    tag_208:\n        /* \"#utility.yul\":3238:3262   */\n      tag_210\n        /* \"#utility.yul\":3256:3261   */\n      dup2\n        /* \"#utility.yul\":3238:3262   */\n      tag_211\n      jump\t// in\n    tag_210:\n        /* \"#utility.yul\":3233:3236   */\n      dup3\n        /* \"#utility.yul\":3226:3263   */\n      mstore\n        /* \"#utility.yul\":3151:3269   */\n      pop\n      pop\n      jump\t// out\n        /* \"#utility.yul\":3275:3497   */\n    tag_53:\n        /* \"#utility.yul\":3368:3372   */\n      0x00\n        /* \"#utility.yul\":3406:3408   */\n      0x20\n        /* \"#utility.yul\":3395:3404   */\n      dup3\n        /* \"#utility.yul\":3391:3409   */\n      add\n        /* \"#utility.yul\":3383:3409   */\n      swap1\n      pop\n        /* \"#utility.yul\":3419:3490   */\n      tag_213\n        /* \"#utility.yul\":3487:3488   */\n      0x00\n        /* \"#utility.yul\":3476:3485   */\n      dup4\n        /* \"#utility.yul\":3472:3489   */\n      add\n        /* \"#utility.yul\":3463:3469   */\n      dup5\n        /* \"#utility.yul\":3419:3490   */\n      tag_186\n      jump\t// in\n    tag_213:\n        /* \"#utility.yul\":3275:3497   */\n      swap3\n      swap2\n      pop\n      pop\n      jump\t// out\n        /* \"#utility.yul\":3503:3713   */\n    tag_40:\n        /* \"#utility.yul\":3590:3594   */\n      0x00\n        /* \"#utility.yul\":3628:3630   */\n      0x20\n        /* \"#utility.yul\":3617:3626   */\n      dup3\n        /* \"#utility.yul\":3613:3631   */\n      add\n        /* \"#utility.yul\":3605:3631   */\n      swap1\n      pop\n        /* \"#utility.yul\":3641:3706   */\n      tag_215\n        /* \"#utility.yul\":3703:3704   */\n      0x00\n        /* \"#utility.yul\":3692:3701   */\n      dup4\n        /* \"#utility.yul\":3688:3705   */\n      add\n        /* \"#utility.yul\":3679:3685   */\n      dup5\n        /* \"#utility.yul\":3641:3706   */\n      tag_190\n      jump\t// in\n    tag_215:\n        /* \"#utility.yul\":3503:3713   */\n      swap3\n      swap2\n      pop\n      pop\n      jump\t// out\n        /* \"#utility.yul\":3719:3953   */\n    tag_49:\n        /* \"#utility.yul\":3818:3822   */\n      0x00\n        /* \"#utility.yul\":3856:3858   */\n      0x20\n        /* \"#utility.yul\":3845:3854   */\n      dup3\n        /* \"#utility.yul\":3841:3859   */\n      add\n        /* \"#utility.yul\":3833:3859   */\n      swap1\n      pop\n        /* \"#utility.yul\":3869:3946   */\n      tag_217\n        /* \"#utility.yul\":3943:3944   */\n      0x00\n        /* \"#utility.yul\":3932:3941   */\n      dup4\n        /* \"#utility.yul\":3928:3945   */\n      add\n        /* \"#utility.yul\":3919:3925   */\n      dup5\n        /* \"#utility.yul\":3869:3946   */\n      tag_194\n      jump\t// in\n    tag_217:\n        /* \"#utility.yul\":3719:3953   */\n      swap3\n      swap2\n      pop\n      pop\n      jump\t// out\n        /* \"#utility.yul\":3959:4272   */\n    tag_23:\n        /* \"#utility.yul\":4072:4076   */\n      0x00\n        /* \"#utility.yul\":4110:4112   */\n      0x20\n        /* \"#utility.yul\":4099:4108   */\n      dup3\n        /* \"#utility.yul\":4095:4113   */\n      add\n        /* \"#utility.yul\":4087:4113   */\n      swap1\n      pop\n        /* \"#utility.yul\":4159:4168   */\n      dup2\n        /* \"#utility.yul\":4153:4157   */\n      dup2\n        /* \"#utility.yul\":4149:4169   */\n      sub\n        /* \"#utility.yul\":4145:4146   */\n      0x00\n        /* \"#utility.yul\":4134:4143   */\n      dup4\n        /* \"#utility.yul\":4130:4147   */\n      add\n        /* \"#utility.yul\":4123:4170   */\n      mstore\n        /* \"#utility.yul\":4187:4265   */\n      tag_219\n        /* \"#utility.yul\":4260:4264   */\n      dup2\n        /* \"#utility.yul\":4251:4257   */\n      dup5\n        /* \"#utility.yul\":4187:4265   */\n      tag_198\n      jump\t// in\n    tag_219:\n        /* \"#utility.yul\":4179:4265   */\n      swap1\n      pop\n        /* \"#utility.yul\":3959:4272   */\n      swap3\n      swap2\n      pop\n      pop\n      jump\t// out\n        /* \"#utility.yul\":4278:4689   */\n    tag_31:\n        /* \"#utility.yul\":4413:4417   */\n      0x00\n        /* \"#utility.yul\":4451:4453   */\n      0x40\n        /* \"#utility.yul\":4440:4449   */\n      dup3\n        /* \"#utility.yul\":4436:4454   */\n      add\n        /* \"#utility.yul\":4428:4454   */\n      swap1\n      pop\n        /* \"#utility.yul\":4500:4509   */\n      dup2\n        /* \"#utility.yul\":4494:4498   */\n      dup2\n        /* \"#utility.yul\":4490:4510   */\n      sub\n        /* \"#utility.yul\":4486:4487   */\n      0x00\n        /* \"#utility.yul\":4475:4484   */\n      dup4\n        /* \"#utility.yul\":4471:4488   */\n      add\n        /* \"#utility.yul\":4464:4511   */\n      mstore\n        /* \"#utility.yul\":4528:4606   */\n      tag_221\n        /* \"#utility.yul\":4601:4605   */\n      dup2\n        /* \"#utility.yul\":4592:4598   */\n      dup6\n        /* \"#utility.yul\":4528:4606   */\n      tag_198\n      jump\t// in\n    tag_221:\n        /* \"#utility.yul\":4520:4606   */\n      swap1\n      pop\n        /* \"#utility.yul\":4616:4682   */\n      tag_222\n        /* \"#utility.yul\":4678:4680   */\n      0x20\n        /* \"#utility.yul\":4667:4676   */\n      dup4\n        /* \"#utility.yul\":4663:4681   */\n      add\n        /* \"#utility.yul\":4654:4660   */\n      dup5\n        /* \"#utility.yul\":4616:4682   */\n      tag_190\n      jump\t// in\n    tag_222:\n        /* \"#utility.yul\":4278:4689   */\n      swap4\n      swap3\n      pop\n      pop\n      pop\n      jump\t// out\n        /* \"#utility.yul\":4695:4917   */\n    tag_19:\n        /* \"#utility.yul\":4788:4792   */\n      0x00\n        /* \"#utility.yul\":4826:4828   */\n      0x20\n        /* \"#utility.yul\":4815:4824   */\n      dup3\n        /* \"#utility.yul\":4811:4829   */\n      add\n        /* \"#utility.yul\":4803:4829   */\n      swap1\n      pop\n        /* \"#utility.yul\":4839:4910   */\n      tag_224\n        /* \"#utility.yul\":4907:4908   */\n      0x00\n        /* \"#utility.yul\":4896:4905   */\n      dup4\n        /* \"#utility.yul\":4892:4909   */\n      add\n        /* \"#utility.yul\":4883:4889   */\n      dup5\n        /* \"#utility.yul\":4839:4910   */\n      tag_208\n      jump\t// in\n    tag_224:\n        /* \"#utility.yul\":4695:4917   */\n      swap3\n      swap2\n      pop\n      pop\n      jump\t// out\n        /* \"#utility.yul\":4923:5052   */\n    tag_149:\n        /* \"#utility.yul\":4957:4963   */\n      0x00\n        /* \"#utility.yul\":4984:5004   */\n      tag_226\n      tag_227\n      jump\t// in\n    tag_226:\n        /* \"#utility.yul\":4974:5004   */\n      swap1\n      pop\n        /* \"#utility.yul\":5013:5046   */\n      tag_228\n        /* \"#utility.yul\":5041:5045   */\n      dup3\n        /* \"#utility.yul\":5033:5039   */\n      dup3\n        /* \"#utility.yul\":5013:5046   */\n      tag_229\n      jump\t// in\n    tag_228:\n        /* \"#utility.yul\":4923:5052   */\n      swap2\n      swap1\n      pop\n      jump\t// out\n        /* \"#utility.yul\":5058:5133   */\n    tag_227:\n        /* \"#utility.yul\":5091:5097   */\n      0x00\n        /* \"#utility.yul\":5124:5126   */\n      0x40\n        /* \"#utility.yul\":5118:5127   */\n      mload\n        /* \"#utility.yul\":5108:5127   */\n      swap1\n      pop\n        /* \"#utility.yul\":5058:5133   */\n      swap1\n      jump\t// out\n        /* \"#utility.yul\":5139:5447   */\n    tag_148:\n        /* \"#utility.yul\":5201:5205   */\n      0x00\n        /* \"#utility.yul\":5291:5309   */\n      0xffffffffffffffff\n        /* \"#utility.yul\":5283:5289   */\n      dup3\n        /* \"#utility.yul\":5280:5310   */\n      gt\n        /* \"#utility.yul\":5277:5333   */\n      iszero\n      tag_232\n      jumpi\n        /* \"#utility.yul\":5313:5331   */\n      tag_233\n      tag_234\n      jump\t// in\n    tag_233:\n        /* \"#utility.yul\":5277:5333   */\n    tag_232:\n        /* \"#utility.yul\":5351:5380   */\n      tag_235\n        /* \"#utility.yul\":5373:5379   */\n      dup3\n        /* \"#utility.yul\":5351:5380   */\n      tag_207\n      jump\t// in\n    tag_235:\n        /* \"#utility.yul\":5343:5380   */\n      swap1\n      pop\n        /* \"#utility.yul\":5435:5439   */\n      0x20\n        /* \"#utility.yul\":5429:5433   */\n      dup2\n        /* \"#utility.yul\":5425:5440   */\n      add\n        /* \"#utility.yul\":5417:5440   */\n      swap1\n      pop\n        /* \"#utility.yul\":5139:5447   */\n      swap2\n      swap1\n      pop\n      jump\t// out\n        /* \"#utility.yul\":5453:5552   */\n    tag_201:\n        /* \"#utility.yul\":5505:5511   */\n      0x00\n        /* \"#utility.yul\":5539:5544   */\n      dup2\n        /* \"#utility.yul\":5533:5545   */\n      mload\n        /* \"#utility.yul\":5523:5545   */\n      swap1\n      pop\n        /* \"#utility.yul\":5453:5552   */\n      swap2\n      swap1\n      pop\n      jump\t// out\n        /* \"#utility.yul\":5558:5727   */\n    tag_203:\n        /* \"#utility.yul\":5642:5653   */\n      0x00\n        /* \"#utility.yul\":5676:5682   */\n      dup3\n        /* \"#utility.yul\":5671:5674   */\n      dup3\n        /* \"#utility.yul\":5664:5683   */\n      mstore\n        /* \"#utility.yul\":5716:5720   */\n      0x20\n        /* \"#utility.yul\":5711:5714   */\n      dup3\n        /* \"#utility.yul\":5707:5721   */\n      add\n        /* \"#utility.yul\":5692:5721   */\n      swap1\n      pop\n        /* \"#utility.yul\":5558:5727   */\n      swap3\n      swap2\n      pop\n      pop\n      jump\t// out\n        /* \"#utility.yul\":5733:5829   */\n    tag_189:\n        /* \"#utility.yul\":5770:5777   */\n      0x00\n        /* \"#utility.yul\":5799:5823   */\n      tag_239\n        /* \"#utility.yul\":5817:5822   */\n      dup3\n        /* \"#utility.yul\":5799:5823   */\n      tag_240\n      jump\t// in\n    tag_239:\n        /* \"#utility.yul\":5788:5823   */\n      swap1\n      pop\n        /* \"#utility.yul\":5733:5829   */\n      swap2\n      swap1\n      pop\n      jump\t// out\n        /* \"#utility.yul\":5835:5925   */\n    tag_193:\n        /* \"#utility.yul\":5869:5876   */\n      0x00\n        /* \"#utility.yul\":5912:5917   */\n      dup2\n        /* \"#utility.yul\":5905:5918   */\n      iszero\n        /* \"#utility.yul\":5898:5919   */\n      iszero\n        /* \"#utility.yul\":5887:5919   */\n      swap1\n      pop\n        /* \"#utility.yul\":5835:5925   */\n      swap2\n      swap1\n      pop\n      jump\t// out\n        /* \"#utility.yul\":5931:6058   */\n    tag_242:\n        /* \"#utility.yul\":5976:5983   */\n      0x00\n        /* \"#utility.yul\":6005:6010   */\n      dup2\n        /* \"#utility.yul\":5994:6010   */\n      swap1\n      pop\n        /* \"#utility.yul\":6011:6052   */\n      tag_244\n        /* \"#utility.yul\":6046:6051   */\n      dup3\n        /* \"#utility.yul\":6011:6052   */\n      tag_245\n      jump\t// in\n    tag_244:\n        /* \"#utility.yul\":5931:6058   */\n      swap2\n      swap1\n      pop\n      jump\t// out\n        /* \"#utility.yul\":6064:6190   */\n    tag_240:\n        /* \"#utility.yul\":6101:6108   */\n      0x00\n        /* \"#utility.yul\":6141:6183   */\n      0xffffffffffffffffffffffffffffffffffffffff\n        /* \"#utility.yul\":6134:6139   */\n      dup3\n        /* \"#utility.yul\":6130:6184   */\n      and\n        /* \"#utility.yul\":6119:6184   */\n      swap1\n      pop\n        /* \"#utility.yul\":6064:6190   */\n      swap2\n      swap1\n      pop\n      jump\t// out\n        /* \"#utility.yul\":6196:6273   */\n    tag_211:\n        /* \"#utility.yul\":6233:6240   */\n      0x00\n        /* \"#utility.yul\":6262:6267   */\n      dup2\n        /* \"#utility.yul\":6251:6267   */\n      swap1\n      pop\n        /* \"#utility.yul\":6196:6273   */\n      swap2\n      swap1\n      pop\n      jump\t// out\n        /* \"#utility.yul\":6279:6406   */\n    tag_197:\n        /* \"#utility.yul\":6335:6344   */\n      0x00\n        /* \"#utility.yul\":6368:6400   */\n      tag_249\n        /* \"#utility.yul\":6394:6399   */\n      dup3\n        /* \"#utility.yul\":6368:6400   */\n      tag_242\n      jump\t// in\n    tag_249:\n        /* \"#utility.yul\":6355:6400   */\n      swap1\n      pop\n        /* \"#utility.yul\":6279:6406   */\n      swap2\n      swap1\n      pop\n      jump\t// out\n        /* \"#utility.yul\":6412:6566   */\n    tag_154:\n        /* \"#utility.yul\":6496:6502   */\n      dup3\n        /* \"#utility.yul\":6491:6494   */\n      dup2\n        /* \"#utility.yul\":6486:6489   */\n      dup4\n        /* \"#utility.yul\":6473:6503   */\n      calldatacopy\n        /* \"#utility.yul\":6558:6559   */\n      0x00\n        /* \"#utility.yul\":6549:6555   */\n      dup4\n        /* \"#utility.yul\":6544:6547   */\n      dup4\n        /* \"#utility.yul\":6540:6556   */\n      add\n        /* \"#utility.yul\":6533:6560   */\n      mstore\n        /* \"#utility.yul\":6412:6566   */\n      pop\n      pop\n      pop\n      jump\t// out\n        /* \"#utility.yul\":6572:6879   */\n    tag_205:\n        /* \"#utility.yul\":6640:6641   */\n      0x00\n        /* \"#utility.yul\":6650:6763   */\n    tag_252:\n        /* \"#utility.yul\":6664:6670   */\n      dup4\n        /* \"#utility.yul\":6661:6662   */\n      dup2\n        /* \"#utility.yul\":6658:6671   */\n      lt\n        /* \"#utility.yul\":6650:6763   */\n      iszero\n      tag_254\n      jumpi\n        /* \"#utility.yul\":6749:6750   */\n      dup1\n        /* \"#utility.yul\":6744:6747   */\n      dup3\n        /* \"#utility.yul\":6740:6751   */\n      add\n        /* \"#utility.yul\":6734:6752   */\n      mload\n        /* \"#utility.yul\":6730:6731   */\n      dup2\n        /* \"#utility.yul\":6725:6728   */\n      dup5\n        /* \"#utility.yul\":6721:6732   */\n      add\n        /* \"#utility.yul\":6714:6753   */\n      mstore\n        /* \"#utility.yul\":6686:6688   */\n      0x20\n        /* \"#utility.yul\":6683:6684   */\n      dup2\n        /* \"#utility.yul\":6679:6689   */\n      add\n        /* \"#utility.yul\":6674:6689   */\n      swap1\n      pop\n        /* \"#utility.yul\":6650:6763   */\n      jump(tag_252)\n    tag_254:\n        /* \"#utility.yul\":6781:6787   */\n      dup4\n        /* \"#utility.yul\":6778:6779   */\n      dup2\n        /* \"#utility.yul\":6775:6788   */\n      gt\n        /* \"#utility.yul\":6772:6873   */\n      iszero\n      tag_255\n      jumpi\n        /* \"#utility.yul\":6861:6862   */\n      0x00\n        /* \"#utility.yul\":6852:6858   */\n      dup5\n        /* \"#utility.yul\":6847:6850   */\n      dup5\n        /* \"#utility.yul\":6843:6859   */\n      add\n        /* \"#utility.yul\":6836:6863   */\n      mstore\n        /* \"#utility.yul\":6772:6873   */\n    tag_255:\n        /* \"#utility.yul\":6621:6879   */\n      pop\n        /* \"#utility.yul\":6572:6879   */\n      pop\n      pop\n      pop\n      jump\t// out\n        /* \"#utility.yul\":6885:7205   */\n    tag_62:\n        /* \"#utility.yul\":6929:6935   */\n      0x00\n        /* \"#utility.yul\":6966:6967   */\n      0x02\n        /* \"#utility.yul\":6960:6964   */\n      dup3\n        /* \"#utility.yul\":6956:6968   */\n      div\n        /* \"#utility.yul\":6946:6968   */\n      swap1\n      pop\n        /* \"#utility.yul\":7013:7014   */\n      0x01\n        /* \"#utility.yul\":7007:7011   */\n      dup3\n        /* \"#utility.yul\":7003:7015   */\n      and\n        /* \"#utility.yul\":7034:7052   */\n      dup1\n        /* \"#utility.yul\":7024:7105   */\n      tag_257\n      jumpi\n        /* \"#utility.yul\":7090:7094   */\n      0x7f\n        /* \"#utility.yul\":7082:7088   */\n      dup3\n        /* \"#utility.yul\":7078:7095   */\n      and\n        /* \"#utility.yul\":7068:7095   */\n      swap2\n      pop\n        /* \"#utility.yul\":7024:7105   */\n    tag_257:\n        /* \"#utility.yul\":7152:7154   */\n      0x20\n        /* \"#utility.yul\":7144:7150   */\n      dup3\n        /* \"#utility.yul\":7141:7155   */\n      lt\n        /* \"#utility.yul\":7121:7139   */\n      dup2\n        /* \"#utility.yul\":7118:7156   */\n      eq\n        /* \"#utility.yul\":7115:7199   */\n      iszero\n      tag_258\n      jumpi\n        /* \"#utility.yul\":7171:7189   */\n      tag_259\n      tag_260\n      jump\t// in\n    tag_259:\n        /* \"#utility.yul\":7115:7199   */\n    tag_258:\n        /* \"#utility.yul\":6936:7205   */\n      pop\n        /* \"#utility.yul\":6885:7205   */\n      swap2\n      swap1\n      pop\n      jump\t// out\n        /* \"#utility.yul\":7211:7492   */\n    tag_229:\n        /* \"#utility.yul\":7294:7321   */\n      tag_262\n        /* \"#utility.yul\":7316:7320   */\n      dup3\n        /* \"#utility.yul\":7294:7321   */\n      tag_207\n      jump\t// in\n    tag_262:\n        /* \"#utility.yul\":7286:7292   */\n      dup2\n        /* \"#utility.yul\":7282:7322   */\n      add\n        /* \"#utility.yul\":7424:7430   */\n      dup2\n        /* \"#utility.yul\":7412:7422   */\n      dup2\n        /* \"#utility.yul\":7409:7431   */\n      lt\n        /* \"#utility.yul\":7388:7406   */\n      0xffffffffffffffff\n        /* \"#utility.yul\":7376:7386   */\n      dup3\n        /* \"#utility.yul\":7373:7407   */\n      gt\n        /* \"#utility.yul\":7370:7432   */\n      or\n        /* \"#utility.yul\":7367:7455   */\n      iszero\n      tag_263\n      jumpi\n        /* \"#utility.yul\":7435:7453   */\n      tag_264\n      tag_234\n      jump\t// in\n    tag_264:\n        /* \"#utility.yul\":7367:7455   */\n    tag_263:\n        /* \"#utility.yul\":7475:7485   */\n      dup1\n        /* \"#utility.yul\":7471:7473   */\n      0x40\n        /* \"#utility.yul\":7464:7486   */\n      mstore\n        /* \"#utility.yul\":7254:7492   */\n      pop\n        /* \"#utility.yul\":7211:7492   */\n      pop\n      pop\n      jump\t// out\n        /* \"#utility.yul\":7498:7731   */\n    tag_103:\n        /* \"#utility.yul\":7537:7540   */\n      0x00\n        /* \"#utility.yul\":7560:7584   */\n      tag_266\n        /* \"#utility.yul\":7578:7583   */\n      dup3\n        /* \"#utility.yul\":7560:7584   */\n      tag_211\n      jump\t// in\n    tag_266:\n        /* \"#utility.yul\":7551:7584   */\n      swap2\n      pop\n        /* \"#utility.yul\":7606:7672   */\n      0xffffffffffffffffffffffffffffffffffffffffffffffffffffffffffffffff\n        /* \"#utility.yul\":7599:7604   */\n      dup3\n        /* \"#utility.yul\":7596:7673   */\n      eq\n        /* \"#utility.yul\":7593:7696   */\n      iszero\n      tag_267\n      jumpi\n        /* \"#utility.yul\":7676:7694   */\n      tag_268\n      tag_269\n      jump\t// in\n    tag_268:\n        /* \"#utility.yul\":7593:7696   */\n    tag_267:\n        /* \"#utility.yul\":7723:7724   */\n      0x01\n        /* \"#utility.yul\":7716:7721   */\n      dup3\n        /* \"#utility.yul\":7712:7725   */\n      add\n        /* \"#utility.yul\":7705:7725   */\n      swap1\n      pop\n        /* \"#utility.yul\":7498:7731   */\n      swap2\n      swap1\n      pop\n      jump\t// out\n        /* \"#utility.yul\":7737:7917   */\n    tag_269:\n        /* \"#utility.yul\":7785:7862   */\n      0x4e487b7100000000000000000000000000000000000000000000000000000000\n        /* \"#utility.yul\":7782:7783   */\n      0x00\n        /* \"#utility.yul\":7775:7863   */\n      mstore\n        /* \"#utility.yul\":7882:7886   */\n      0x11\n        /* \"#utility.yul\":7879:7880   */\n      0x04\n        /* \"#utility.yul\":7872:7887   */\n      mstore\n        /* \"#utility.yul\":7906:7910   */\n      0x24\n        /* \"#utility.yul\":7903:7904   */\n      0x00\n        /* \"#utility.yul\":7896:7911   */\n      revert\n        /* \"#utility.yul\":7923:8103   */\n    tag_70:\n        /* \"#utility.yul\":7971:8048   */\n      0x4e487b7100000000000000000000000000000000000000000000000000000000\n        /* \"#utility.yul\":7968:7969   */\n      0x00\n        /* \"#utility.yul\":7961:8049   */\n      mstore\n        /* \"#utility.yul\":8068:8072   */\n      0x21\n        /* \"#utility.yul\":8065:8066   */\n      0x04\n        /* \"#utility.yul\":8058:8073   */\n      mstore\n        /* \"#utility.yul\":8092:8096   */\n      0x24\n        /* \"#utility.yul\":8089:8090   */\n      0x00\n        /* \"#utility.yul\":8082:8097   */\n      revert\n        /* \"#utility.yul\":8109:8289   */\n    tag_260:\n        /* \"#utility.yul\":8157:8234   */\n      0x4e487b7100000000000000000000000000000000000000000000000000000000\n        /* \"#utility.yul\":8154:8155   */\n      0x00\n        /* \"#utility.yul\":8147:8235   */\n      mstore\n        /* \"#utility.yul\":8254:8258   */\n      0x22\n        /* \"#utility.yul\":8251:8252   */\n      0x04\n        /* \"#utility.yul\":8244:8259   */\n      mstore\n        /* \"#utility.yul\":8278:8282   */\n      0x24\n        /* \"#utility.yul\":8275:8276   */\n      0x00\n        /* \"#utility.yul\":8268:8283   */\n      revert\n        /* \"#utility.yul\":8295:8475   */\n    tag_234:\n        /* \"#utility.yul\":8343:8420   */\n      0x4e487b7100000000000000000000000000000000000000000000000000000000\n        /* \"#utility.yul\":8340:8341   */\n      0x00\n        /* \"#utility.yul\":8333:8421   */\n      mstore\n        /* \"#utility.yul\":8440:8444   */\n      0x41\n        /* \"#utility.yul\":8437:8438   */\n      0x04\n        /* \"#utility.yul\":8430:8445   */\n      mstore\n        /* \"#utility.yul\":8464:8468   */\n      0x24\n        /* \"#utility.yul\":8461:8462   */\n      0x00\n        /* \"#utility.yul\":8454:8469   */\n      revert\n        /* \"#utility.yul\":8481:8598   */\n    tag_167:\n        /* \"#utility.yul\":8590:8591   */\n      0x00\n        /* \"#utility.yul\":8587:8588   */\n      dup1\n        /* \"#utility.yul\":8580:8592   */\n      revert\n        /* \"#utility.yul\":8604:8721   */\n    tag_152:\n        /* \"#utility.yul\":8713:8714   */\n      0x00\n        /* \"#utility.yul\":8710:8711   */\n      dup1\n        /* \"#utility.yul\":8703:8715   */\n      revert\n        /* \"#utility.yul\":8727:8844   */\n    tag_180:\n        /* \"#utility.yul\":8836:8837   */\n      0x00\n        /* \"#utility.yul\":8833:8834   */\n      dup1\n        /* \"#utility.yul\":8826:8838   */\n      revert\n        /* \"#utility.yul\":8850:8967   */\n    tag_172:\n        /* \"#utility.yul\":8959:8960   */\n      0x00\n        /* \"#utility.yul\":8956:8957   */\n      dup1\n        /* \"#utility.yul\":8949:8961   */\n      revert\n        /* \"#utility.yul\":8973:9075   */\n    tag_207:\n        /* \"#utility.yul\":9014:9020   */\n      0x00\n        /* \"#utility.yul\":9065:9067   */\n      0x1f\n        /* \"#utility.yul\":9061:9068   */\n      not\n        /* \"#utility.yul\":9056:9058   */\n      0x1f\n        /* \"#utility.yul\":9049:9054   */\n      dup4\n        /* \"#utility.yul\":9045:9059   */\n      add\n        /* \"#utility.yul\":9041:9069   */\n      and\n        /* \"#utility.yul\":9031:9069   */\n      swap1\n      pop\n        /* \"#utility.yul\":8973:9075   */\n      swap2\n      swap1\n      pop\n      jump\t// out\n        /* \"#utility.yul\":9081:9194   */\n    tag_245:\n        /* \"#utility.yul\":9162:9163   */\n      0x03\n        /* \"#utility.yul\":9155:9160   */\n      dup2\n        /* \"#utility.yul\":9152:9164   */\n      lt\n        /* \"#utility.yul\":9142:9188   */\n      tag_280\n      jumpi\n        /* \"#utility.yul\":9168:9186   */\n      tag_281\n      tag_70\n      jump\t// in\n    tag_281:\n        /* \"#utility.yul\":9142:9188   */\n    tag_280:\n        /* \"#utility.yul\":9081:9194   */\n      pop\n      jump\t// out\n        /* \"#utility.yul\":9200:9322   */\n    tag_158:\n        /* \"#utility.yul\":9273:9297   */\n      tag_283\n        /* \"#utility.yul\":9291:9296   */\n      dup2\n        /* \"#utility.yul\":9273:9297   */\n      tag_189\n      jump\t// in\n    tag_283:\n        /* \"#utility.yul\":9266:9271   */\n      dup2\n        /* \"#utility.yul\":9263:9298   */\n      eq\n        /* \"#utility.yul\":9253:9316   */\n      tag_284\n      jumpi\n        /* \"#utility.yul\":9312:9313   */\n      0x00\n        /* \"#utility.yul\":9309:9310   */\n      dup1\n        /* \"#utility.yul\":9302:9314   */\n      revert\n        /* \"#utility.yul\":9253:9316   */\n    tag_284:\n        /* \"#utility.yul\":9200:9322   */\n      pop\n      jump\t// out\n        /* \"#utility.yul\":9328:9444   */\n    tag_162:\n        /* \"#utility.yul\":9398:9419   */\n      tag_286\n        /* \"#utility.yul\":9413:9418   */\n      dup2\n        /* \"#utility.yul\":9398:9419   */\n      tag_193\n      jump\t// in\n    tag_286:\n        /* \"#utility.yul\":9391:9396   */\n      dup2\n        /* \"#utility.yul\":9388:9420   */\n      eq\n        /* \"#utility.yul\":9378:9438   */\n      tag_287\n      jumpi\n        /* \"#utility.yul\":9434:9435   */\n      0x00\n        /* \"#utility.yul\":9431:9432   */\n      dup1\n        /* \"#utility.yul\":9424:9436   */\n      revert\n        /* \"#utility.yul\":9378:9438   */\n    tag_287:\n        /* \"#utility.yul\":9328:9444   */\n      pop\n      jump\t// out\n\n    auxdata: 0xa26469706673582212204dd60c6c62ca2957f807ba7a7622b5b83aa3e39616546e7e4a656c8e938c4baa64736f6c63430008070033\n}\n",
				"bytecode": {
					"linkReferences": {},
					"object": "608060405260006003556000600455600060055560006006553480156200002557600080fd5b50604051620015673803806200156783398181016040528101906200004b919062000221565b336000806101000a81548173ffffffffffffffffffffffffffffffffffffffff021916908373ffffffffffffffffffffffffffffffffffffffff1602179055508160019080519060200190620000a3929190620000f3565b508060029080519060200190620000bc929190620000f3565b506000600960006101000a81548160ff02191690836002811115620000e657620000e5620003a7565b5b0217905550505062000459565b82805462000101906200033b565b90600052602060002090601f01602090048101928262000125576000855562000171565b82601f106200014057805160ff191683800117855562000171565b8280016001018555821562000171579182015b828111156200017057825182559160200191906001019062000153565b5b50905062000180919062000184565b5090565b5b808211156200019f57600081600090555060010162000185565b5090565b6000620001ba620001b484620002cf565b620002a6565b905082815260208101848484011115620001d957620001d862000439565b5b620001e684828562000305565b509392505050565b600082601f83011262000206576200020562000434565b5b815162000218848260208601620001a3565b91505092915050565b600080604083850312156200023b576200023a62000443565b5b600083015167ffffffffffffffff8111156200025c576200025b6200043e565b5b6200026a85828601620001ee565b925050602083015167ffffffffffffffff8111156200028e576200028d6200043e565b5b6200029c85828601620001ee565b9150509250929050565b6000620002b2620002c5565b9050620002c0828262000371565b919050565b6000604051905090565b600067ffffffffffffffff821115620002ed57620002ec62000405565b5b620002f88262000448565b9050602081019050919050565b60005b838110156200032557808201518184015260208101905062000308565b8381111562000335576000848401525b50505050565b600060028204905060018216806200035457607f821691505b602082108114156200036b576200036a620003d6565b5b50919050565b6200037c8262000448565b810181811067ffffffffffffffff821117156200039e576200039d62000405565b5b80604052505050565b7f4e487b7100000000000000000000000000000000000000000000000000000000600052602160045260246000fd5b7f4e487b7100000000000000000000000000000000000000000000000000000000600052602260045260246000fd5b7f4e487b7100000000000000000000000000000000000000000000000000000000600052604160045260246000fd5b600080fd5b600080fd5b600080fd5b600080fd5b6000601f19601f8301169050919050565b6110fe80620004696000396000f3fe608060405234801561001057600080fd5b50600436106100b45760003560e01c80639a982416116100715780639a9824161461017e578063b92239461461019c578063c19d93fb146101a6578063d8335b53146101c4578063d9e95a98146101e2578063f3a8286f146101fe576100b4565b80630d15fd77146100b95780631b26586c146100d75780634c0a6af0146100f55780635e169bce146100ff578063753ec1031461013057806387caea781461014e575b600080fd5b6100c161021c565b6040516100ce9190610dbd565b60405180910390f35b6100df610222565b6040516100ec9190610d6b565b60405180910390f35b6100fd6102b0565b005b61011960048036038101906101149190610bef565b6103a3565b604051610127929190610d8d565b60405180910390f35b61013861045c565b6040516101459190610d6b565b60405180910390f35b61016860048036038101906101639190610c78565b6104ea565b6040516101759190610d35565b60405180910390f35b610186610788565b6040516101939190610dbd565b60405180910390f35b6101a461078e565b005b6101ae610897565b6040516101bb9190610d50565b60405180910390f35b6101cc6108aa565b6040516101d99190610d1a565b60405180910390f35b6101fc60048036038101906101f79190610c1c565b6108ce565b005b610206610a5e565b6040516102139190610dbd565b60405180910390f35b60065481565b6001805461022f90610ef9565b80601f016020809104026020016040519081016040528092919081815260200182805461025b90610ef9565b80156102a85780601f1061027d576101008083540402835291602001916102a8565b820191906000526020600020905b81548152906001019060200180831161028b57829003601f168201915b505050505081565b60008060028111156102c5576102c4610fd4565b5b600960009054906101000a900460ff1660028111156102e7576102e6610fd4565b5b146102f157600080fd5b60008054906101000a900473ffffffffffffffffffffffffffffffffffffffff1673ffffffffffffffffffffffffffffffffffffffff163373ffffffffffffffffffffffffffffffffffffffff161461034957600080fd5b6001600960006101000a81548160ff0219169083600281111561036f5761036e610fd4565b5b02179055507fd0dc01800a369fef30d3fced5275b8b916549867622e79efca5245c479fda4ea60405160405180910390a150565b60086020528060005260406000206000915090508060000180546103c690610ef9565b80601f01602080910402602001604051908101604052809291908181526020018280546103f290610ef9565b801561043f5780601f106104145761010080835404028352916020019161043f565b820191906000526020600020905b81548152906001019060200180831161042257829003601f168201915b5050505050908060010160009054906101000a900460ff16905082565b6002805461046990610ef9565b80601f016020809104026020016040519081016040528092919081815260200182805461049590610ef9565b80156104e25780601f106104b7576101008083540402835291602001916104e2565b820191906000526020600020905b8154815290600101906020018083116104c557829003601f168201915b505050505081565b6000600180600281111561050157610500610fd4565b5b600960009054906101000a900460ff16600281111561052357610522610fd4565b5b1461052d57600080fd5b600080600860003373ffffffffffffffffffffffffffffffffffffffff1673ffffffffffffffffffffffffffffffffffffffff168152602001908152602001600020600001805461057d90610ef9565b9050141580156105da5750600860003373ffffffffffffffffffffffffffffffffffffffff1673ffffffffffffffffffffffffffffffffffffffff16815260200190815260200160002060010160009054906101000a900460ff16155b15610747576001600860003373ffffffffffffffffffffffffffffffffffffffff1673ffffffffffffffffffffffffffffffffffffffff16815260200190815260200160002060010160006101000a81548160ff021916908315150217905550610642610a64565b33816000019073ffffffffffffffffffffffffffffffffffffffff16908173ffffffffffffffffffffffffffffffffffffffff16815250508481602001901515908115158152505084156106a957600360008154809291906106a390610f5c565b91905055505b8060076000600654815260200190815260200160002060008201518160000160006101000a81548173ffffffffffffffffffffffffffffffffffffffff021916908373ffffffffffffffffffffffffffffffffffffffff16021790555060208201518160000160146101000a81548160ff0219169083151502179055509050506006600081548092919061073c90610f5c565b919050555060019150505b7f55c65cf9526efdf6c2252fe9757889dbd93e10172cad0f2edb1df619c88dbf7d336040516107769190610d1a565b60405180910390a18092505050919050565b60055481565b60018060028111156107a3576107a2610fd4565b5b600960009054906101000a900460ff1660028111156107c5576107c4610fd4565b5b146107cf57600080fd5b60008054906101000a900473ffffffffffffffffffffffffffffffffffffffff1673ffffffffffffffffffffffffffffffffffffffff163373ffffffffffffffffffffffffffffffffffffffff161461082757600080fd5b6002600960006101000a81548160ff0219169083600281111561084d5761084c610fd4565b5b02179055506003546004819055507fb43a401dcdbe02a8afa41feb6c651425997908d1a4b79cf505188ba1dd3fd87260045460405161088c9190610dbd565b60405180910390a150565b600960009054906101000a900460ff1681565b60008054906101000a900473ffffffffffffffffffffffffffffffffffffffff1681565b60008060028111156108e3576108e2610fd4565b5b600960009054906101000a900460ff16600281111561090557610904610fd4565b5b1461090f57600080fd5b60008054906101000a900473ffffffffffffffffffffffffffffffffffffffff1673ffffffffffffffffffffffffffffffffffffffff163373ffffffffffffffffffffffffffffffffffffffff161461096757600080fd5b61096f610a96565b828160000181905250600081602001901515908115158152505080600860008673ffffffffffffffffffffffffffffffffffffffff1673ffffffffffffffffffffffffffffffffffffffff16815260200190815260200160002060008201518160000190805190602001906109e5929190610ab2565b5060208201518160010160006101000a81548160ff02191690831515021790555090505060056000815480929190610a1c90610f5c565b91905055507f56201b074adf978bcfaa3a371cf0b7cc614c9b7e0406460032344b212a4f876184604051610a509190610d1a565b60405180910390a150505050565b60045481565b6040518060400160405280600073ffffffffffffffffffffffffffffffffffffffff1681526020016000151581525090565b6040518060400160405280606081526020016000151581525090565b828054610abe90610ef9565b90600052602060002090601f016020900481019282610ae05760008555610b27565b82601f10610af957805160ff1916838001178555610b27565b82800160010185558215610b27579182015b82811115610b26578251825591602001919060010190610b0b565b5b509050610b349190610b38565b5090565b5b80821115610b51576000816000905550600101610b39565b5090565b6000610b68610b6384610dfd565b610dd8565b905082815260208101848484011115610b8457610b83611066565b5b610b8f848285610eb7565b509392505050565b600081359050610ba68161109a565b92915050565b600081359050610bbb816110b1565b92915050565b600082601f830112610bd657610bd5611061565b5b8135610be6848260208601610b55565b91505092915050565b600060208284031215610c0557610c04611070565b5b6000610c1384828501610b97565b91505092915050565b60008060408385031215610c3357610c32611070565b5b6000610c4185828601610b97565b925050602083013567ffffffffffffffff811115610c6257610c6161106b565b5b610c6e85828601610bc1565b9150509250929050565b600060208284031215610c8e57610c8d611070565b5b6000610c9c84828501610bac565b91505092915050565b610cae81610e4a565b82525050565b610cbd81610e5c565b82525050565b610ccc81610ea5565b82525050565b6000610cdd82610e2e565b610ce78185610e39565b9350610cf7818560208601610ec6565b610d0081611075565b840191505092915050565b610d1481610e9b565b82525050565b6000602082019050610d2f6000830184610ca5565b92915050565b6000602082019050610d4a6000830184610cb4565b92915050565b6000602082019050610d656000830184610cc3565b92915050565b60006020820190508181036000830152610d858184610cd2565b905092915050565b60006040820190508181036000830152610da78185610cd2565b9050610db66020830184610cb4565b9392505050565b6000602082019050610dd26000830184610d0b565b92915050565b6000610de2610df3565b9050610dee8282610f2b565b919050565b6000604051905090565b600067ffffffffffffffff821115610e1857610e17611032565b5b610e2182611075565b9050602081019050919050565b600081519050919050565b600082825260208201905092915050565b6000610e5582610e7b565b9050919050565b60008115159050919050565b6000819050610e7682611086565b919050565b600073ffffffffffffffffffffffffffffffffffffffff82169050919050565b6000819050919050565b6000610eb082610e68565b9050919050565b82818337600083830152505050565b60005b83811015610ee4578082015181840152602081019050610ec9565b83811115610ef3576000848401525b50505050565b60006002820490506001821680610f1157607f821691505b60208210811415610f2557610f24611003565b5b50919050565b610f3482611075565b810181811067ffffffffffffffff82111715610f5357610f52611032565b5b80604052505050565b6000610f6782610e9b565b91507fffffffffffffffffffffffffffffffffffffffffffffffffffffffffffffffff821415610f9a57610f99610fa5565b5b600182019050919050565b7f4e487b7100000000000000000000000000000000000000000000000000000000600052601160045260246000fd5b7f4e487b7100000000000000000000000000000000000000000000000000000000600052602160045260246000fd5b7f4e487b7100000000000000000000000000000000000000000000000000000000600052602260045260246000fd5b7f4e487b7100000000000000000000000000000000000000000000000000000000600052604160045260246000fd5b600080fd5b600080fd5b600080fd5b600080fd5b6000601f19601f8301169050919050565b6003811061109757611096610fd4565b5b50565b6110a381610e4a565b81146110ae57600080fd5b50565b6110ba81610e5c565b81146110c557600080fd5b5056fea26469706673582212204dd60c6c62ca2957f807ba7a7622b5b83aa3e39616546e7e4a656c8e938c4baa64736f6c63430008070033",
					"opcodes": "PUSH1 0x80 PUSH1 0x40 MSTORE PUSH1 0x0 PUSH1 0x3 SSTORE PUSH1 0x0 PUSH1 0x4 SSTORE PUSH1 0x0 PUSH1 0x5 SSTORE PUSH1 0x0 PUSH1 0x6 SSTORE CALLVALUE DUP1 ISZERO PUSH3 0x25 JUMPI PUSH1 0x0 DUP1 REVERT JUMPDEST POP PUSH1 0x40 MLOAD PUSH3 0x1567 CODESIZE SUB DUP1 PUSH3 0x1567 DUP4 CODECOPY DUP2 DUP2 ADD PUSH1 0x40 MSTORE DUP2 ADD SWAP1 PUSH3 0x4B SWAP2 SWAP1 PUSH3 0x221 JUMP JUMPDEST CALLER PUSH1 0x0 DUP1 PUSH2 0x100 EXP DUP2 SLOAD DUP2 PUSH20 0xFFFFFFFFFFFFFFFFFFFFFFFFFFFFFFFFFFFFFFFF MUL NOT AND SWAP1 DUP4 PUSH20 0xFFFFFFFFFFFFFFFFFFFFFFFFFFFFFFFFFFFFFFFF AND MUL OR SWAP1 SSTORE POP DUP2 PUSH1 0x1 SWAP1 DUP1 MLOAD SWAP1 PUSH1 0x20 ADD SWAP1 PUSH3 0xA3 SWAP3 SWAP2 SWAP1 PUSH3 0xF3 JUMP JUMPDEST POP DUP1 PUSH1 0x2 SWAP1 DUP1 MLOAD SWAP1 PUSH1 0x20 ADD SWAP1 PUSH3 0xBC SWAP3 SWAP2 SWAP1 PUSH3 0xF3 JUMP JUMPDEST POP PUSH1 0x0 PUSH1 0x9 PUSH1 0x0 PUSH2 0x100 EXP DUP2 SLOAD DUP2 PUSH1 0xFF MUL NOT AND SWAP1 DUP4 PUSH1 0x2 DUP2 GT ISZERO PUSH3 0xE6 JUMPI PUSH3 0xE5 PUSH3 0x3A7 JUMP JUMPDEST JUMPDEST MUL OR SWAP1 SSTORE POP POP POP PUSH3 0x459 JUMP JUMPDEST DUP3 DUP1 SLOAD PUSH3 0x101 SWAP1 PUSH3 0x33B JUMP JUMPDEST SWAP1 PUSH1 0x0 MSTORE PUSH1 0x20 PUSH1 0x0 KECCAK256 SWAP1 PUSH1 0x1F ADD PUSH1 0x20 SWAP1 DIV DUP2 ADD SWAP3 DUP3 PUSH3 0x125 JUMPI PUSH1 0x0 DUP6 SSTORE PUSH3 0x171 JUMP JUMPDEST DUP3 PUSH1 0x1F LT PUSH3 0x140 JUMPI DUP1 MLOAD PUSH1 0xFF NOT AND DUP4 DUP1 ADD OR DUP6 SSTORE PUSH3 0x171 JUMP JUMPDEST DUP3 DUP1 ADD PUSH1 0x1 ADD DUP6 SSTORE DUP3 ISZERO PUSH3 0x171 JUMPI SWAP2 DUP3 ADD JUMPDEST DUP3 DUP2 GT ISZERO PUSH3 0x170 JUMPI DUP3 MLOAD DUP3 SSTORE SWAP2 PUSH1 0x20 ADD SWAP2 SWAP1 PUSH1 0x1 ADD SWAP1 PUSH3 0x153 JUMP JUMPDEST JUMPDEST POP SWAP1 POP PUSH3 0x180 SWAP2 SWAP1 PUSH3 0x184 JUMP JUMPDEST POP SWAP1 JUMP JUMPDEST JUMPDEST DUP1 DUP3 GT ISZERO PUSH3 0x19F JUMPI PUSH1 0x0 DUP2 PUSH1 0x0 SWAP1 SSTORE POP PUSH1 0x1 ADD PUSH3 0x185 JUMP JUMPDEST POP SWAP1 JUMP JUMPDEST PUSH1 0x0 PUSH3 0x1BA PUSH3 0x1B4 DUP5 PUSH3 0x2CF JUMP JUMPDEST PUSH3 0x2A6 JUMP JUMPDEST SWAP1 POP DUP3 DUP2 MSTORE PUSH1 0x20 DUP2 ADD DUP5 DUP5 DUP5 ADD GT ISZERO PUSH3 0x1D9 JUMPI PUSH3 0x1D8 PUSH3 0x439 JUMP JUMPDEST JUMPDEST PUSH3 0x1E6 DUP5 DUP3 DUP6 PUSH3 0x305 JUMP JUMPDEST POP SWAP4 SWAP3 POP POP POP JUMP JUMPDEST PUSH1 0x0 DUP3 PUSH1 0x1F DUP4 ADD SLT PUSH3 0x206 JUMPI PUSH3 0x205 PUSH3 0x434 JUMP JUMPDEST JUMPDEST DUP2 MLOAD PUSH3 0x218 DUP5 DUP3 PUSH1 0x20 DUP7 ADD PUSH3 0x1A3 JUMP JUMPDEST SWAP2 POP POP SWAP3 SWAP2 POP POP JUMP JUMPDEST PUSH1 0x0 DUP1 PUSH1 0x40 DUP4 DUP6 SUB SLT ISZERO PUSH3 0x23B JUMPI PUSH3 0x23A PUSH3 0x443 JUMP JUMPDEST JUMPDEST PUSH1 0x0 DUP4 ADD MLOAD PUSH8 0xFFFFFFFFFFFFFFFF DUP2 GT ISZERO PUSH3 0x25C JUMPI PUSH3 0x25B PUSH3 0x43E JUMP JUMPDEST JUMPDEST PUSH3 0x26A DUP6 DUP3 DUP7 ADD PUSH3 0x1EE JUMP JUMPDEST SWAP3 POP POP PUSH1 0x20 DUP4 ADD MLOAD PUSH8 0xFFFFFFFFFFFFFFFF DUP2 GT ISZERO PUSH3 0x28E JUMPI PUSH3 0x28D PUSH3 0x43E JUMP JUMPDEST JUMPDEST PUSH3 0x29C DUP6 DUP3 DUP7 ADD PUSH3 0x1EE JUMP JUMPDEST SWAP2 POP POP SWAP3 POP SWAP3 SWAP1 POP JUMP JUMPDEST PUSH1 0x0 PUSH3 0x2B2 PUSH3 0x2C5 JUMP JUMPDEST SWAP1 POP PUSH3 0x2C0 DUP3 DUP3 PUSH3 0x371 JUMP JUMPDEST SWAP2 SWAP1 POP JUMP JUMPDEST PUSH1 0x0 PUSH1 0x40 MLOAD SWAP1 POP SWAP1 JUMP JUMPDEST PUSH1 0x0 PUSH8 0xFFFFFFFFFFFFFFFF DUP3 GT ISZERO PUSH3 0x2ED JUMPI PUSH3 0x2EC PUSH3 0x405 JUMP JUMPDEST JUMPDEST PUSH3 0x2F8 DUP3 PUSH3 0x448 JUMP JUMPDEST SWAP1 POP PUSH1 0x20 DUP2 ADD SWAP1 POP SWAP2 SWAP1 POP JUMP JUMPDEST PUSH1 0x0 JUMPDEST DUP4 DUP2 LT ISZERO PUSH3 0x325 JUMPI DUP1 DUP3 ADD MLOAD DUP2 DUP5 ADD MSTORE PUSH1 0x20 DUP2 ADD SWAP1 POP PUSH3 0x308 JUMP JUMPDEST DUP4 DUP2 GT ISZERO PUSH3 0x335 JUMPI PUSH1 0x0 DUP5 DUP5 ADD MSTORE JUMPDEST POP POP POP POP JUMP JUMPDEST PUSH1 0x0 PUSH1 0x2 DUP3 DIV SWAP1 POP PUSH1 0x1 DUP3 AND DUP1 PUSH3 0x354 JUMPI PUSH1 0x7F DUP3 AND SWAP2 POP JUMPDEST PUSH1 0x20 DUP3 LT DUP2 EQ ISZERO PUSH3 0x36B JUMPI PUSH3 0x36A PUSH3 0x3D6 JUMP JUMPDEST JUMPDEST POP SWAP2 SWAP1 POP JUMP JUMPDEST PUSH3 0x37C DUP3 PUSH3 0x448 JUMP JUMPDEST DUP2 ADD DUP2 DUP2 LT PUSH8 0xFFFFFFFFFFFFFFFF DUP3 GT OR ISZERO PUSH3 0x39E JUMPI PUSH3 0x39D PUSH3 0x405 JUMP JUMPDEST JUMPDEST DUP1 PUSH1 0x40 MSTORE POP POP POP JUMP JUMPDEST PUSH32 0x4E487B7100000000000000000000000000000000000000000000000000000000 PUSH1 0x0 MSTORE PUSH1 0x21 PUSH1 0x4 MSTORE PUSH1 0x24 PUSH1 0x0 REVERT JUMPDEST PUSH32 0x4E487B7100000000000000000000000000000000000000000000000000000000 PUSH1 0x0 MSTORE PUSH1 0x22 PUSH1 0x4 MSTORE PUSH1 0x24 PUSH1 0x0 REVERT JUMPDEST PUSH32 0x4E487B7100000000000000000000000000000000000000000000000000000000 PUSH1 0x0 MSTORE PUSH1 0x41 PUSH1 0x4 MSTORE PUSH1 0x24 PUSH1 0x0 REVERT JUMPDEST PUSH1 0x0 DUP1 REVERT JUMPDEST PUSH1 0x0 DUP1 REVERT JUMPDEST PUSH1 0x0 DUP1 REVERT JUMPDEST PUSH1 0x0 DUP1 REVERT JUMPDEST PUSH1 0x0 PUSH1 0x1F NOT PUSH1 0x1F DUP4 ADD AND SWAP1 POP SWAP2 SWAP1 POP JUMP JUMPDEST PUSH2 0x10FE DUP1 PUSH3 0x469 PUSH1 0x0 CODECOPY PUSH1 0x0 RETURN INVALID PUSH1 0x80 PUSH1 0x40 MSTORE CALLVALUE DUP1 ISZERO PUSH2 0x10 JUMPI PUSH1 0x0 DUP1 REVERT JUMPDEST POP PUSH1 0x4 CALLDATASIZE LT PUSH2 0xB4 JUMPI PUSH1 0x0 CALLDATALOAD PUSH1 0xE0 SHR DUP1 PUSH4 0x9A982416 GT PUSH2 0x71 JUMPI DUP1 PUSH4 0x9A982416 EQ PUSH2 0x17E JUMPI DUP1 PUSH4 0xB9223946 EQ PUSH2 0x19C JUMPI DUP1 PUSH4 0xC19D93FB EQ PUSH2 0x1A6 JUMPI DUP1 PUSH4 0xD8335B53 EQ PUSH2 0x1C4 JUMPI DUP1 PUSH4 0xD9E95A98 EQ PUSH2 0x1E2 JUMPI DUP1 PUSH4 0xF3A8286F EQ PUSH2 0x1FE JUMPI PUSH2 0xB4 JUMP JUMPDEST DUP1 PUSH4 0xD15FD77 EQ PUSH2 0xB9 JUMPI DUP1 PUSH4 0x1B26586C EQ PUSH2 0xD7 JUMPI DUP1 PUSH4 0x4C0A6AF0 EQ PUSH2 0xF5 JUMPI DUP1 PUSH4 0x5E169BCE EQ PUSH2 0xFF JUMPI DUP1 PUSH4 0x753EC103 EQ PUSH2 0x130 JUMPI DUP1 PUSH4 0x87CAEA78 EQ PUSH2 0x14E JUMPI JUMPDEST PUSH1 0x0 DUP1 REVERT JUMPDEST PUSH2 0xC1 PUSH2 0x21C JUMP JUMPDEST PUSH1 0x40 MLOAD PUSH2 0xCE SWAP2 SWAP1 PUSH2 0xDBD JUMP JUMPDEST PUSH1 0x40 MLOAD DUP1 SWAP2 SUB SWAP1 RETURN JUMPDEST PUSH2 0xDF PUSH2 0x222 JUMP JUMPDEST PUSH1 0x40 MLOAD PUSH2 0xEC SWAP2 SWAP1 PUSH2 0xD6B JUMP JUMPDEST PUSH1 0x40 MLOAD DUP1 SWAP2 SUB SWAP1 RETURN JUMPDEST PUSH2 0xFD PUSH2 0x2B0 JUMP JUMPDEST STOP JUMPDEST PUSH2 0x119 PUSH1 0x4 DUP1 CALLDATASIZE SUB DUP2 ADD SWAP1 PUSH2 0x114 SWAP2 SWAP1 PUSH2 0xBEF JUMP JUMPDEST PUSH2 0x3A3 JUMP JUMPDEST PUSH1 0x40 MLOAD PUSH2 0x127 SWAP3 SWAP2 SWAP1 PUSH2 0xD8D JUMP JUMPDEST PUSH1 0x40 MLOAD DUP1 SWAP2 SUB SWAP1 RETURN JUMPDEST PUSH2 0x138 PUSH2 0x45C JUMP JUMPDEST PUSH1 0x40 MLOAD PUSH2 0x145 SWAP2 SWAP1 PUSH2 0xD6B JUMP JUMPDEST PUSH1 0x40 MLOAD DUP1 SWAP2 SUB SWAP1 RETURN JUMPDEST PUSH2 0x168 PUSH1 0x4 DUP1 CALLDATASIZE SUB DUP2 ADD SWAP1 PUSH2 0x163 SWAP2 SWAP1 PUSH2 0xC78 JUMP JUMPDEST PUSH2 0x4EA JUMP JUMPDEST PUSH1 0x40 MLOAD PUSH2 0x175 SWAP2 SWAP1 PUSH2 0xD35 JUMP JUMPDEST PUSH1 0x40 MLOAD DUP1 SWAP2 SUB SWAP1 RETURN JUMPDEST PUSH2 0x186 PUSH2 0x788 JUMP JUMPDEST PUSH1 0x40 MLOAD PUSH2 0x193 SWAP2 SWAP1 PUSH2 0xDBD JUMP JUMPDEST PUSH1 0x40 MLOAD DUP1 SWAP2 SUB SWAP1 RETURN JUMPDEST PUSH2 0x1A4 PUSH2 0x78E JUMP JUMPDEST STOP JUMPDEST PUSH2 0x1AE PUSH2 0x897 JUMP JUMPDEST PUSH1 0x40 MLOAD PUSH2 0x1BB SWAP2 SWAP1 PUSH2 0xD50 JUMP JUMPDEST PUSH1 0x40 MLOAD DUP1 SWAP2 SUB SWAP1 RETURN JUMPDEST PUSH2 0x1CC PUSH2 0x8AA JUMP JUMPDEST PUSH1 0x40 MLOAD PUSH2 0x1D9 SWAP2 SWAP1 PUSH2 0xD1A JUMP JUMPDEST PUSH1 0x40 MLOAD DUP1 SWAP2 SUB SWAP1 RETURN JUMPDEST PUSH2 0x1FC PUSH1 0x4 DUP1 CALLDATASIZE SUB DUP2 ADD SWAP1 PUSH2 0x1F7 SWAP2 SWAP1 PUSH2 0xC1C JUMP JUMPDEST PUSH2 0x8CE JUMP JUMPDEST STOP JUMPDEST PUSH2 0x206 PUSH2 0xA5E JUMP JUMPDEST PUSH1 0x40 MLOAD PUSH2 0x213 SWAP2 SWAP1 PUSH2 0xDBD JUMP JUMPDEST PUSH1 0x40 MLOAD DUP1 SWAP2 SUB SWAP1 RETURN JUMPDEST PUSH1 0x6 SLOAD DUP2 JUMP JUMPDEST PUSH1 0x1 DUP1 SLOAD PUSH2 0x22F SWAP1 PUSH2 0xEF9 JUMP JUMPDEST DUP1 PUSH1 0x1F ADD PUSH1 0x20 DUP1 SWAP2 DIV MUL PUSH1 0x20 ADD PUSH1 0x40 MLOAD SWAP1 DUP2 ADD PUSH1 0x40 MSTORE DUP1 SWAP3 SWAP2 SWAP1 DUP2 DUP2 MSTORE PUSH1 0x20 ADD DUP3 DUP1 SLOAD PUSH2 0x25B SWAP1 PUSH2 0xEF9 JUMP JUMPDEST DUP1 ISZERO PUSH2 0x2A8 JUMPI DUP1 PUSH1 0x1F LT PUSH2 0x27D JUMPI PUSH2 0x100 DUP1 DUP4 SLOAD DIV MUL DUP4 MSTORE SWAP2 PUSH1 0x20 ADD SWAP2 PUSH2 0x2A8 JUMP JUMPDEST DUP3 ADD SWAP2 SWAP1 PUSH1 0x0 MSTORE PUSH1 0x20 PUSH1 0x0 KECCAK256 SWAP1 JUMPDEST DUP2 SLOAD DUP2 MSTORE SWAP1 PUSH1 0x1 ADD SWAP1 PUSH1 0x20 ADD DUP1 DUP4 GT PUSH2 0x28B JUMPI DUP3 SWAP1 SUB PUSH1 0x1F AND DUP3 ADD SWAP2 JUMPDEST POP POP POP POP POP DUP2 JUMP JUMPDEST PUSH1 0x0 DUP1 PUSH1 0x2 DUP2 GT ISZERO PUSH2 0x2C5 JUMPI PUSH2 0x2C4 PUSH2 0xFD4 JUMP JUMPDEST JUMPDEST PUSH1 0x9 PUSH1 0x0 SWAP1 SLOAD SWAP1 PUSH2 0x100 EXP SWAP1 DIV PUSH1 0xFF AND PUSH1 0x2 DUP2 GT ISZERO PUSH2 0x2E7 JUMPI PUSH2 0x2E6 PUSH2 0xFD4 JUMP JUMPDEST JUMPDEST EQ PUSH2 0x2F1 JUMPI PUSH1 0x0 DUP1 REVERT JUMPDEST PUSH1 0x0 DUP1 SLOAD SWAP1 PUSH2 0x100 EXP SWAP1 DIV PUSH20 0xFFFFFFFFFFFFFFFFFFFFFFFFFFFFFFFFFFFFFFFF AND PUSH20 0xFFFFFFFFFFFFFFFFFFFFFFFFFFFFFFFFFFFFFFFF AND CALLER PUSH20 0xFFFFFFFFFFFFFFFFFFFFFFFFFFFFFFFFFFFFFFFF AND EQ PUSH2 0x349 JUMPI PUSH1 0x0 DUP1 REVERT JUMPDEST PUSH1 0x1 PUSH1 0x9 PUSH1 0x0 PUSH2 0x100 EXP DUP2 SLOAD DUP2 PUSH1 0xFF MUL NOT AND SWAP1 DUP4 PUSH1 0x2 DUP2 GT ISZERO PUSH2 0x36F JUMPI PUSH2 0x36E PUSH2 0xFD4 JUMP JUMPDEST JUMPDEST MUL OR SWAP1 SSTORE POP PUSH32 0xD0DC01800A369FEF30D3FCED5275B8B916549867622E79EFCA5245C479FDA4EA PUSH1 0x40 MLOAD PUSH1 0x40 MLOAD DUP1 SWAP2 SUB SWAP1 LOG1 POP JUMP JUMPDEST PUSH1 0x8 PUSH1 0x20 MSTORE DUP1 PUSH1 0x0 MSTORE PUSH1 0x40 PUSH1 0x0 KECCAK256 PUSH1 0x0 SWAP2 POP SWAP1 POP DUP1 PUSH1 0x0 ADD DUP1 SLOAD PUSH2 0x3C6 SWAP1 PUSH2 0xEF9 JUMP JUMPDEST DUP1 PUSH1 0x1F ADD PUSH1 0x20 DUP1 SWAP2 DIV MUL PUSH1 0x20 ADD PUSH1 0x40 MLOAD SWAP1 DUP2 ADD PUSH1 0x40 MSTORE DUP1 SWAP3 SWAP2 SWAP1 DUP2 DUP2 MSTORE PUSH1 0x20 ADD DUP3 DUP1 SLOAD PUSH2 0x3F2 SWAP1 PUSH2 0xEF9 JUMP JUMPDEST DUP1 ISZERO PUSH2 0x43F JUMPI DUP1 PUSH1 0x1F LT PUSH2 0x414 JUMPI PUSH2 0x100 DUP1 DUP4 SLOAD DIV MUL DUP4 MSTORE SWAP2 PUSH1 0x20 ADD SWAP2 PUSH2 0x43F JUMP JUMPDEST DUP3 ADD SWAP2 SWAP1 PUSH1 0x0 MSTORE PUSH1 0x20 PUSH1 0x0 KECCAK256 SWAP1 JUMPDEST DUP2 SLOAD DUP2 MSTORE SWAP1 PUSH1 0x1 ADD SWAP1 PUSH1 0x20 ADD DUP1 DUP4 GT PUSH2 0x422 JUMPI DUP3 SWAP1 SUB PUSH1 0x1F AND DUP3 ADD SWAP2 JUMPDEST POP POP POP POP POP SWAP1 DUP1 PUSH1 0x1 ADD PUSH1 0x0 SWAP1 SLOAD SWAP1 PUSH2 0x100 EXP SWAP1 DIV PUSH1 0xFF AND SWAP1 POP DUP3 JUMP JUMPDEST PUSH1 0x2 DUP1 SLOAD PUSH2 0x469 SWAP1 PUSH2 0xEF9 JUMP JUMPDEST DUP1 PUSH1 0x1F ADD PUSH1 0x20 DUP1 SWAP2 DIV MUL PUSH1 0x20 ADD PUSH1 0x40 MLOAD SWAP1 DUP2 ADD PUSH1 0x40 MSTORE DUP1 SWAP3 SWAP2 SWAP1 DUP2 DUP2 MSTORE PUSH1 0x20 ADD DUP3 DUP1 SLOAD PUSH2 0x495 SWAP1 PUSH2 0xEF9 JUMP JUMPDEST DUP1 ISZERO PUSH2 0x4E2 JUMPI DUP1 PUSH1 0x1F LT PUSH2 0x4B7 JUMPI PUSH2 0x100 DUP1 DUP4 SLOAD DIV MUL DUP4 MSTORE SWAP2 PUSH1 0x20 ADD SWAP2 PUSH2 0x4E2 JUMP JUMPDEST DUP3 ADD SWAP2 SWAP1 PUSH1 0x0 MSTORE PUSH1 0x20 PUSH1 0x0 KECCAK256 SWAP1 JUMPDEST DUP2 SLOAD DUP2 MSTORE SWAP1 PUSH1 0x1 ADD SWAP1 PUSH1 0x20 ADD DUP1 DUP4 GT PUSH2 0x4C5 JUMPI DUP3 SWAP1 SUB PUSH1 0x1F AND DUP3 ADD SWAP2 JUMPDEST POP POP POP POP POP DUP2 JUMP JUMPDEST PUSH1 0x0 PUSH1 0x1 DUP1 PUSH1 0x2 DUP2 GT ISZERO PUSH2 0x501 JUMPI PUSH2 0x500 PUSH2 0xFD4 JUMP JUMPDEST JUMPDEST PUSH1 0x9 PUSH1 0x0 SWAP1 SLOAD SWAP1 PUSH2 0x100 EXP SWAP1 DIV PUSH1 0xFF AND PUSH1 0x2 DUP2 GT ISZERO PUSH2 0x523 JUMPI PUSH2 0x522 PUSH2 0xFD4 JUMP JUMPDEST JUMPDEST EQ PUSH2 0x52D JUMPI PUSH1 0x0 DUP1 REVERT JUMPDEST PUSH1 0x0 DUP1 PUSH1 0x8 PUSH1 0x0 CALLER PUSH20 0xFFFFFFFFFFFFFFFFFFFFFFFFFFFFFFFFFFFFFFFF AND PUSH20 0xFFFFFFFFFFFFFFFFFFFFFFFFFFFFFFFFFFFFFFFF AND DUP2 MSTORE PUSH1 0x20 ADD SWAP1 DUP2 MSTORE PUSH1 0x20 ADD PUSH1 0x0 KECCAK256 PUSH1 0x0 ADD DUP1 SLOAD PUSH2 0x57D SWAP1 PUSH2 0xEF9 JUMP JUMPDEST SWAP1 POP EQ ISZERO DUP1 ISZERO PUSH2 0x5DA JUMPI POP PUSH1 0x8 PUSH1 0x0 CALLER PUSH20 0xFFFFFFFFFFFFFFFFFFFFFFFFFFFFFFFFFFFFFFFF AND PUSH20 0xFFFFFFFFFFFFFFFFFFFFFFFFFFFFFFFFFFFFFFFF AND DUP2 MSTORE PUSH1 0x20 ADD SWAP1 DUP2 MSTORE PUSH1 0x20 ADD PUSH1 0x0 KECCAK256 PUSH1 0x1 ADD PUSH1 0x0 SWAP1 SLOAD SWAP1 PUSH2 0x100 EXP SWAP1 DIV PUSH1 0xFF AND ISZERO JUMPDEST ISZERO PUSH2 0x747 JUMPI PUSH1 0x1 PUSH1 0x8 PUSH1 0x0 CALLER PUSH20 0xFFFFFFFFFFFFFFFFFFFFFFFFFFFFFFFFFFFFFFFF AND PUSH20 0xFFFFFFFFFFFFFFFFFFFFFFFFFFFFFFFFFFFFFFFF AND DUP2 MSTORE PUSH1 0x20 ADD SWAP1 DUP2 MSTORE PUSH1 0x20 ADD PUSH1 0x0 KECCAK256 PUSH1 0x1 ADD PUSH1 0x0 PUSH2 0x100 EXP DUP2 SLOAD DUP2 PUSH1 0xFF MUL NOT AND SWAP1 DUP4 ISZERO ISZERO MUL OR SWAP1 SSTORE POP PUSH2 0x642 PUSH2 0xA64 JUMP JUMPDEST CALLER DUP2 PUSH1 0x0 ADD SWAP1 PUSH20 0xFFFFFFFFFFFFFFFFFFFFFFFFFFFFFFFFFFFFFFFF AND SWAP1 DUP2 PUSH20 0xFFFFFFFFFFFFFFFFFFFFFFFFFFFFFFFFFFFFFFFF AND DUP2 MSTORE POP POP DUP5 DUP2 PUSH1 0x20 ADD SWAP1 ISZERO ISZERO SWAP1 DUP2 ISZERO ISZERO DUP2 MSTORE POP POP DUP5 ISZERO PUSH2 0x6A9 JUMPI PUSH1 0x3 PUSH1 0x0 DUP2 SLOAD DUP1 SWAP3 SWAP2 SWAP1 PUSH2 0x6A3 SWAP1 PUSH2 0xF5C JUMP JUMPDEST SWAP2 SWAP1 POP SSTORE POP JUMPDEST DUP1 PUSH1 0x7 PUSH1 0x0 PUSH1 0x6 SLOAD DUP2 MSTORE PUSH1 0x20 ADD SWAP1 DUP2 MSTORE PUSH1 0x20 ADD PUSH1 0x0 KECCAK256 PUSH1 0x0 DUP3 ADD MLOAD DUP2 PUSH1 0x0 ADD PUSH1 0x0 PUSH2 0x100 EXP DUP2 SLOAD DUP2 PUSH20 0xFFFFFFFFFFFFFFFFFFFFFFFFFFFFFFFFFFFFFFFF MUL NOT AND SWAP1 DUP4 PUSH20 0xFFFFFFFFFFFFFFFFFFFFFFFFFFFFFFFFFFFFFFFF AND MUL OR SWAP1 SSTORE POP PUSH1 0x20 DUP3 ADD MLOAD DUP2 PUSH1 0x0 ADD PUSH1 0x14 PUSH2 0x100 EXP DUP2 SLOAD DUP2 PUSH1 0xFF MUL NOT AND SWAP1 DUP4 ISZERO ISZERO MUL OR SWAP1 SSTORE POP SWAP1 POP POP PUSH1 0x6 PUSH1 0x0 DUP2 SLOAD DUP1 SWAP3 SWAP2 SWAP1 PUSH2 0x73C SWAP1 PUSH2 0xF5C JUMP JUMPDEST SWAP2 SWAP1 POP SSTORE POP PUSH1 0x1 SWAP2 POP POP JUMPDEST PUSH32 0x55C65CF9526EFDF6C2252FE9757889DBD93E10172CAD0F2EDB1DF619C88DBF7D CALLER PUSH1 0x40 MLOAD PUSH2 0x776 SWAP2 SWAP1 PUSH2 0xD1A JUMP JUMPDEST PUSH1 0x40 MLOAD DUP1 SWAP2 SUB SWAP1 LOG1 DUP1 SWAP3 POP POP POP SWAP2 SWAP1 POP JUMP JUMPDEST PUSH1 0x5 SLOAD DUP2 JUMP JUMPDEST PUSH1 0x1 DUP1 PUSH1 0x2 DUP2 GT ISZERO PUSH2 0x7A3 JUMPI PUSH2 0x7A2 PUSH2 0xFD4 JUMP JUMPDEST JUMPDEST PUSH1 0x9 PUSH1 0x0 SWAP1 SLOAD SWAP1 PUSH2 0x100 EXP SWAP1 DIV PUSH1 0xFF AND PUSH1 0x2 DUP2 GT ISZERO PUSH2 0x7C5 JUMPI PUSH2 0x7C4 PUSH2 0xFD4 JUMP JUMPDEST JUMPDEST EQ PUSH2 0x7CF JUMPI PUSH1 0x0 DUP1 REVERT JUMPDEST PUSH1 0x0 DUP1 SLOAD SWAP1 PUSH2 0x100 EXP SWAP1 DIV PUSH20 0xFFFFFFFFFFFFFFFFFFFFFFFFFFFFFFFFFFFFFFFF AND PUSH20 0xFFFFFFFFFFFFFFFFFFFFFFFFFFFFFFFFFFFFFFFF AND CALLER PUSH20 0xFFFFFFFFFFFFFFFFFFFFFFFFFFFFFFFFFFFFFFFF AND EQ PUSH2 0x827 JUMPI PUSH1 0x0 DUP1 REVERT JUMPDEST PUSH1 0x2 PUSH1 0x9 PUSH1 0x0 PUSH2 0x100 EXP DUP2 SLOAD DUP2 PUSH1 0xFF MUL NOT AND SWAP1 DUP4 PUSH1 0x2 DUP2 GT ISZERO PUSH2 0x84D JUMPI PUSH2 0x84C PUSH2 0xFD4 JUMP JUMPDEST JUMPDEST MUL OR SWAP1 SSTORE POP PUSH1 0x3 SLOAD PUSH1 0x4 DUP2 SWAP1 SSTORE POP PUSH32 0xB43A401DCDBE02A8AFA41FEB6C651425997908D1A4B79CF505188BA1DD3FD872 PUSH1 0x4 SLOAD PUSH1 0x40 MLOAD PUSH2 0x88C SWAP2 SWAP1 PUSH2 0xDBD JUMP JUMPDEST PUSH1 0x40 MLOAD DUP1 SWAP2 SUB SWAP1 LOG1 POP JUMP JUMPDEST PUSH1 0x9 PUSH1 0x0 SWAP1 SLOAD SWAP1 PUSH2 0x100 EXP SWAP1 DIV PUSH1 0xFF AND DUP2 JUMP JUMPDEST PUSH1 0x0 DUP1 SLOAD SWAP1 PUSH2 0x100 EXP SWAP1 DIV PUSH20 0xFFFFFFFFFFFFFFFFFFFFFFFFFFFFFFFFFFFFFFFF AND DUP2 JUMP JUMPDEST PUSH1 0x0 DUP1 PUSH1 0x2 DUP2 GT ISZERO PUSH2 0x8E3 JUMPI PUSH2 0x8E2 PUSH2 0xFD4 JUMP JUMPDEST JUMPDEST PUSH1 0x9 PUSH1 0x0 SWAP1 SLOAD SWAP1 PUSH2 0x100 EXP SWAP1 DIV PUSH1 0xFF AND PUSH1 0x2 DUP2 GT ISZERO PUSH2 0x905 JUMPI PUSH2 0x904 PUSH2 0xFD4 JUMP JUMPDEST JUMPDEST EQ PUSH2 0x90F JUMPI PUSH1 0x0 DUP1 REVERT JUMPDEST PUSH1 0x0 DUP1 SLOAD SWAP1 PUSH2 0x100 EXP SWAP1 DIV PUSH20 0xFFFFFFFFFFFFFFFFFFFFFFFFFFFFFFFFFFFFFFFF AND PUSH20 0xFFFFFFFFFFFFFFFFFFFFFFFFFFFFFFFFFFFFFFFF AND CALLER PUSH20 0xFFFFFFFFFFFFFFFFFFFFFFFFFFFFFFFFFFFFFFFF AND EQ PUSH2 0x967 JUMPI PUSH1 0x0 DUP1 REVERT JUMPDEST PUSH2 0x96F PUSH2 0xA96 JUMP JUMPDEST DUP3 DUP2 PUSH1 0x0 ADD DUP2 SWAP1 MSTORE POP PUSH1 0x0 DUP2 PUSH1 0x20 ADD SWAP1 ISZERO ISZERO SWAP1 DUP2 ISZERO ISZERO DUP2 MSTORE POP POP DUP1 PUSH1 0x8 PUSH1 0x0 DUP7 PUSH20 0xFFFFFFFFFFFFFFFFFFFFFFFFFFFFFFFFFFFFFFFF AND PUSH20 0xFFFFFFFFFFFFFFFFFFFFFFFFFFFFFFFFFFFFFFFF AND DUP2 MSTORE PUSH1 0x20 ADD SWAP1 DUP2 MSTORE PUSH1 0x20 ADD PUSH1 0x0 KECCAK256 PUSH1 0x0 DUP3 ADD MLOAD DUP2 PUSH1 0x0 ADD SWAP1 DUP1 MLOAD SWAP1 PUSH1 0x20 ADD SWAP1 PUSH2 0x9E5 SWAP3 SWAP2 SWAP1 PUSH2 0xAB2 JUMP JUMPDEST POP PUSH1 0x20 DUP3 ADD MLOAD DUP2 PUSH1 0x1 ADD PUSH1 0x0 PUSH2 0x100 EXP DUP2 SLOAD DUP2 PUSH1 0xFF MUL NOT AND SWAP1 DUP4 ISZERO ISZERO MUL OR SWAP1 SSTORE POP SWAP1 POP POP PUSH1 0x5 PUSH1 0x0 DUP2 SLOAD DUP1 SWAP3 SWAP2 SWAP1 PUSH2 0xA1C SWAP1 PUSH2 0xF5C JUMP JUMPDEST SWAP2 SWAP1 POP SSTORE POP PUSH32 0x56201B074ADF978BCFAA3A371CF0B7CC614C9B7E0406460032344B212A4F8761 DUP5 PUSH1 0x40 MLOAD PUSH2 0xA50 SWAP2 SWAP1 PUSH2 0xD1A JUMP JUMPDEST PUSH1 0x40 MLOAD DUP1 SWAP2 SUB SWAP1 LOG1 POP POP POP POP JUMP JUMPDEST PUSH1 0x4 SLOAD DUP2 JUMP JUMPDEST PUSH1 0x40 MLOAD DUP1 PUSH1 0x40 ADD PUSH1 0x40 MSTORE DUP1 PUSH1 0x0 PUSH20 0xFFFFFFFFFFFFFFFFFFFFFFFFFFFFFFFFFFFFFFFF AND DUP2 MSTORE PUSH1 0x20 ADD PUSH1 0x0 ISZERO ISZERO DUP2 MSTORE POP SWAP1 JUMP JUMPDEST PUSH1 0x40 MLOAD DUP1 PUSH1 0x40 ADD PUSH1 0x40 MSTORE DUP1 PUSH1 0x60 DUP2 MSTORE PUSH1 0x20 ADD PUSH1 0x0 ISZERO ISZERO DUP2 MSTORE POP SWAP1 JUMP JUMPDEST DUP3 DUP1 SLOAD PUSH2 0xABE SWAP1 PUSH2 0xEF9 JUMP JUMPDEST SWAP1 PUSH1 0x0 MSTORE PUSH1 0x20 PUSH1 0x0 KECCAK256 SWAP1 PUSH1 0x1F ADD PUSH1 0x20 SWAP1 DIV DUP2 ADD SWAP3 DUP3 PUSH2 0xAE0 JUMPI PUSH1 0x0 DUP6 SSTORE PUSH2 0xB27 JUMP JUMPDEST DUP3 PUSH1 0x1F LT PUSH2 0xAF9 JUMPI DUP1 MLOAD PUSH1 0xFF NOT AND DUP4 DUP1 ADD OR DUP6 SSTORE PUSH2 0xB27 JUMP JUMPDEST DUP3 DUP1 ADD PUSH1 0x1 ADD DUP6 SSTORE DUP3 ISZERO PUSH2 0xB27 JUMPI SWAP2 DUP3 ADD JUMPDEST DUP3 DUP2 GT ISZERO PUSH2 0xB26 JUMPI DUP3 MLOAD DUP3 SSTORE SWAP2 PUSH1 0x20 ADD SWAP2 SWAP1 PUSH1 0x1 ADD SWAP1 PUSH2 0xB0B JUMP JUMPDEST JUMPDEST POP SWAP1 POP PUSH2 0xB34 SWAP2 SWAP1 PUSH2 0xB38 JUMP JUMPDEST POP SWAP1 JUMP JUMPDEST JUMPDEST DUP1 DUP3 GT ISZERO PUSH2 0xB51 JUMPI PUSH1 0x0 DUP2 PUSH1 0x0 SWAP1 SSTORE POP PUSH1 0x1 ADD PUSH2 0xB39 JUMP JUMPDEST POP SWAP1 JUMP JUMPDEST PUSH1 0x0 PUSH2 0xB68 PUSH2 0xB63 DUP5 PUSH2 0xDFD JUMP JUMPDEST PUSH2 0xDD8 JUMP JUMPDEST SWAP1 POP DUP3 DUP2 MSTORE PUSH1 0x20 DUP2 ADD DUP5 DUP5 DUP5 ADD GT ISZERO PUSH2 0xB84 JUMPI PUSH2 0xB83 PUSH2 0x1066 JUMP JUMPDEST JUMPDEST PUSH2 0xB8F DUP5 DUP3 DUP6 PUSH2 0xEB7 JUMP JUMPDEST POP SWAP4 SWAP3 POP POP POP JUMP JUMPDEST PUSH1 0x0 DUP2 CALLDATALOAD SWAP1 POP PUSH2 0xBA6 DUP2 PUSH2 0x109A JUMP JUMPDEST SWAP3 SWAP2 POP POP JUMP JUMPDEST PUSH1 0x0 DUP2 CALLDATALOAD SWAP1 POP PUSH2 0xBBB DUP2 PUSH2 0x10B1 JUMP JUMPDEST SWAP3 SWAP2 POP POP JUMP JUMPDEST PUSH1 0x0 DUP3 PUSH1 0x1F DUP4 ADD SLT PUSH2 0xBD6 JUMPI PUSH2 0xBD5 PUSH2 0x1061 JUMP JUMPDEST JUMPDEST DUP2 CALLDATALOAD PUSH2 0xBE6 DUP5 DUP3 PUSH1 0x20 DUP7 ADD PUSH2 0xB55 JUMP JUMPDEST SWAP2 POP POP SWAP3 SWAP2 POP POP JUMP JUMPDEST PUSH1 0x0 PUSH1 0x20 DUP3 DUP5 SUB SLT ISZERO PUSH2 0xC05 JUMPI PUSH2 0xC04 PUSH2 0x1070 JUMP JUMPDEST JUMPDEST PUSH1 0x0 PUSH2 0xC13 DUP5 DUP3 DUP6 ADD PUSH2 0xB97 JUMP JUMPDEST SWAP2 POP POP SWAP3 SWAP2 POP POP JUMP JUMPDEST PUSH1 0x0 DUP1 PUSH1 0x40 DUP4 DUP6 SUB SLT ISZERO PUSH2 0xC33 JUMPI PUSH2 0xC32 PUSH2 0x1070 JUMP JUMPDEST JUMPDEST PUSH1 0x0 PUSH2 0xC41 DUP6 DUP3 DUP7 ADD PUSH2 0xB97 JUMP JUMPDEST SWAP3 POP POP PUSH1 0x20 DUP4 ADD CALLDATALOAD PUSH8 0xFFFFFFFFFFFFFFFF DUP2 GT ISZERO PUSH2 0xC62 JUMPI PUSH2 0xC61 PUSH2 0x106B JUMP JUMPDEST JUMPDEST PUSH2 0xC6E DUP6 DUP3 DUP7 ADD PUSH2 0xBC1 JUMP JUMPDEST SWAP2 POP POP SWAP3 POP SWAP3 SWAP1 POP JUMP JUMPDEST PUSH1 0x0 PUSH1 0x20 DUP3 DUP5 SUB SLT ISZERO PUSH2 0xC8E JUMPI PUSH2 0xC8D PUSH2 0x1070 JUMP JUMPDEST JUMPDEST PUSH1 0x0 PUSH2 0xC9C DUP5 DUP3 DUP6 ADD PUSH2 0xBAC JUMP JUMPDEST SWAP2 POP POP SWAP3 SWAP2 POP POP JUMP JUMPDEST PUSH2 0xCAE DUP2 PUSH2 0xE4A JUMP JUMPDEST DUP3 MSTORE POP POP JUMP JUMPDEST PUSH2 0xCBD DUP2 PUSH2 0xE5C JUMP JUMPDEST DUP3 MSTORE POP POP JUMP JUMPDEST PUSH2 0xCCC DUP2 PUSH2 0xEA5 JUMP JUMPDEST DUP3 MSTORE POP POP JUMP JUMPDEST PUSH1 0x0 PUSH2 0xCDD DUP3 PUSH2 0xE2E JUMP JUMPDEST PUSH2 0xCE7 DUP2 DUP6 PUSH2 0xE39 JUMP JUMPDEST SWAP4 POP PUSH2 0xCF7 DUP2 DUP6 PUSH1 0x20 DUP7 ADD PUSH2 0xEC6 JUMP JUMPDEST PUSH2 0xD00 DUP2 PUSH2 0x1075 JUMP JUMPDEST DUP5 ADD SWAP2 POP POP SWAP3 SWAP2 POP POP JUMP JUMPDEST PUSH2 0xD14 DUP2 PUSH2 0xE9B JUMP JUMPDEST DUP3 MSTORE POP POP JUMP JUMPDEST PUSH1 0x0 PUSH1 0x20 DUP3 ADD SWAP1 POP PUSH2 0xD2F PUSH1 0x0 DUP4 ADD DUP5 PUSH2 0xCA5 JUMP JUMPDEST SWAP3 SWAP2 POP POP JUMP JUMPDEST PUSH1 0x0 PUSH1 0x20 DUP3 ADD SWAP1 POP PUSH2 0xD4A PUSH1 0x0 DUP4 ADD DUP5 PUSH2 0xCB4 JUMP JUMPDEST SWAP3 SWAP2 POP POP JUMP JUMPDEST PUSH1 0x0 PUSH1 0x20 DUP3 ADD SWAP1 POP PUSH2 0xD65 PUSH1 0x0 DUP4 ADD DUP5 PUSH2 0xCC3 JUMP JUMPDEST SWAP3 SWAP2 POP POP JUMP JUMPDEST PUSH1 0x0 PUSH1 0x20 DUP3 ADD SWAP1 POP DUP2 DUP2 SUB PUSH1 0x0 DUP4 ADD MSTORE PUSH2 0xD85 DUP2 DUP5 PUSH2 0xCD2 JUMP JUMPDEST SWAP1 POP SWAP3 SWAP2 POP POP JUMP JUMPDEST PUSH1 0x0 PUSH1 0x40 DUP3 ADD SWAP1 POP DUP2 DUP2 SUB PUSH1 0x0 DUP4 ADD MSTORE PUSH2 0xDA7 DUP2 DUP6 PUSH2 0xCD2 JUMP JUMPDEST SWAP1 POP PUSH2 0xDB6 PUSH1 0x20 DUP4 ADD DUP5 PUSH2 0xCB4 JUMP JUMPDEST SWAP4 SWAP3 POP POP POP JUMP JUMPDEST PUSH1 0x0 PUSH1 0x20 DUP3 ADD SWAP1 POP PUSH2 0xDD2 PUSH1 0x0 DUP4 ADD DUP5 PUSH2 0xD0B JUMP JUMPDEST SWAP3 SWAP2 POP POP JUMP JUMPDEST PUSH1 0x0 PUSH2 0xDE2 PUSH2 0xDF3 JUMP JUMPDEST SWAP1 POP PUSH2 0xDEE DUP3 DUP3 PUSH2 0xF2B JUMP JUMPDEST SWAP2 SWAP1 POP JUMP JUMPDEST PUSH1 0x0 PUSH1 0x40 MLOAD SWAP1 POP SWAP1 JUMP JUMPDEST PUSH1 0x0 PUSH8 0xFFFFFFFFFFFFFFFF DUP3 GT ISZERO PUSH2 0xE18 JUMPI PUSH2 0xE17 PUSH2 0x1032 JUMP JUMPDEST JUMPDEST PUSH2 0xE21 DUP3 PUSH2 0x1075 JUMP JUMPDEST SWAP1 POP PUSH1 0x20 DUP2 ADD SWAP1 POP SWAP2 SWAP1 POP JUMP JUMPDEST PUSH1 0x0 DUP2 MLOAD SWAP1 POP SWAP2 SWAP1 POP JUMP JUMPDEST PUSH1 0x0 DUP3 DUP3 MSTORE PUSH1 0x20 DUP3 ADD SWAP1 POP SWAP3 SWAP2 POP POP JUMP JUMPDEST PUSH1 0x0 PUSH2 0xE55 DUP3 PUSH2 0xE7B JUMP JUMPDEST SWAP1 POP SWAP2 SWAP1 POP JUMP JUMPDEST PUSH1 0x0 DUP2 ISZERO ISZERO SWAP1 POP SWAP2 SWAP1 POP JUMP JUMPDEST PUSH1 0x0 DUP2 SWAP1 POP PUSH2 0xE76 DUP3 PUSH2 0x1086 JUMP JUMPDEST SWAP2 SWAP1 POP JUMP JUMPDEST PUSH1 0x0 PUSH20 0xFFFFFFFFFFFFFFFFFFFFFFFFFFFFFFFFFFFFFFFF DUP3 AND SWAP1 POP SWAP2 SWAP1 POP JUMP JUMPDEST PUSH1 0x0 DUP2 SWAP1 POP SWAP2 SWAP1 POP JUMP JUMPDEST PUSH1 0x0 PUSH2 0xEB0 DUP3 PUSH2 0xE68 JUMP JUMPDEST SWAP1 POP SWAP2 SWAP1 POP JUMP JUMPDEST DUP3 DUP2 DUP4 CALLDATACOPY PUSH1 0x0 DUP4 DUP4 ADD MSTORE POP POP POP JUMP JUMPDEST PUSH1 0x0 JUMPDEST DUP4 DUP2 LT ISZERO PUSH2 0xEE4 JUMPI DUP1 DUP3 ADD MLOAD DUP2 DUP5 ADD MSTORE PUSH1 0x20 DUP2 ADD SWAP1 POP PUSH2 0xEC9 JUMP JUMPDEST DUP4 DUP2 GT ISZERO PUSH2 0xEF3 JUMPI PUSH1 0x0 DUP5 DUP5 ADD MSTORE JUMPDEST POP POP POP POP JUMP JUMPDEST PUSH1 0x0 PUSH1 0x2 DUP3 DIV SWAP1 POP PUSH1 0x1 DUP3 AND DUP1 PUSH2 0xF11 JUMPI PUSH1 0x7F DUP3 AND SWAP2 POP JUMPDEST PUSH1 0x20 DUP3 LT DUP2 EQ ISZERO PUSH2 0xF25 JUMPI PUSH2 0xF24 PUSH2 0x1003 JUMP JUMPDEST JUMPDEST POP SWAP2 SWAP1 POP JUMP JUMPDEST PUSH2 0xF34 DUP3 PUSH2 0x1075 JUMP JUMPDEST DUP2 ADD DUP2 DUP2 LT PUSH8 0xFFFFFFFFFFFFFFFF DUP3 GT OR ISZERO PUSH2 0xF53 JUMPI PUSH2 0xF52 PUSH2 0x1032 JUMP JUMPDEST JUMPDEST DUP1 PUSH1 0x40 MSTORE POP POP POP JUMP JUMPDEST PUSH1 0x0 PUSH2 0xF67 DUP3 PUSH2 0xE9B JUMP JUMPDEST SWAP2 POP PUSH32 0xFFFFFFFFFFFFFFFFFFFFFFFFFFFFFFFFFFFFFFFFFFFFFFFFFFFFFFFFFFFFFFFF DUP3 EQ ISZERO PUSH2 0xF9A JUMPI PUSH2 0xF99 PUSH2 0xFA5 JUMP JUMPDEST JUMPDEST PUSH1 0x1 DUP3 ADD SWAP1 POP SWAP2 SWAP1 POP JUMP JUMPDEST PUSH32 0x4E487B7100000000000000000000000000000000000000000000000000000000 PUSH1 0x0 MSTORE PUSH1 0x11 PUSH1 0x4 MSTORE PUSH1 0x24 PUSH1 0x0 REVERT JUMPDEST PUSH32 0x4E487B7100000000000000000000000000000000000000000000000000000000 PUSH1 0x0 MSTORE PUSH1 0x21 PUSH1 0x4 MSTORE PUSH1 0x24 PUSH1 0x0 REVERT JUMPDEST PUSH32 0x4E487B7100000000000000000000000000000000000000000000000000000000 PUSH1 0x0 MSTORE PUSH1 0x22 PUSH1 0x4 MSTORE PUSH1 0x24 PUSH1 0x0 REVERT JUMPDEST PUSH32 0x4E487B7100000000000000000000000000000000000000000000000000000000 PUSH1 0x0 MSTORE PUSH1 0x41 PUSH1 0x4 MSTORE PUSH1 0x24 PUSH1 0x0 REVERT JUMPDEST PUSH1 0x0 DUP1 REVERT JUMPDEST PUSH1 0x0 DUP1 REVERT JUMPDEST PUSH1 0x0 DUP1 REVERT JUMPDEST PUSH1 0x0 DUP1 REVERT JUMPDEST PUSH1 0x0 PUSH1 0x1F NOT PUSH1 0x1F DUP4 ADD AND SWAP1 POP SWAP2 SWAP1 POP JUMP JUMPDEST PUSH1 0x3 DUP2 LT PUSH2 0x1097 JUMPI PUSH2 0x1096 PUSH2 0xFD4 JUMP JUMPDEST JUMPDEST POP JUMP JUMPDEST PUSH2 0x10A3 DUP2 PUSH2 0xE4A JUMP JUMPDEST DUP2 EQ PUSH2 0x10AE JUMPI PUSH1 0x0 DUP1 REVERT JUMPDEST POP JUMP JUMPDEST PUSH2 0x10BA DUP2 PUSH2 0xE5C JUMP JUMPDEST DUP2 EQ PUSH2 0x10C5 JUMPI PUSH1 0x0 DUP1 REVERT JUMPDEST POP JUMP INVALID LOG2 PUSH5 0x6970667358 0x22 SLT KECCAK256 0x4D 0xD6 0xC PUSH13 0x62CA2957F807BA7A7622B5B83A LOG3 0xE3 SWAP7 AND SLOAD PUSH15 0x7E4A656C8E938C4BAA64736F6C6343 STOP ADDMOD SMOD STOP CALLER "
				},
				"gasEstimates": {
					"creation": {
						"codeDepositCost": "870000",
						"executionCost": "infinite",
						"totalCost": "infinite"
					},
					"external": {
						"addVoter(address,string)": "infinite",
						"ballotAddress()": "2577",
						"ballotName()": "infinite",
						"doVote(bool)": "infinite",
						"endVote()": "56341",
						"finalResult()": "2539",
						"proposal()": "infinite",
						"shareHolderRegister(address)": "infinite",
						"startVote()": "29636",
						"state()": "2604",
						"totalShareHolders()": "2429",
						"totalVotes()": "2430"
					}
				},
				"methodIdentifiers": {
					"addVoter(address,string)": "d9e95a98",
					"ballotAddress()": "d8335b53",
					"ballotName()": "1b26586c",
					"doVote(bool)": "87caea78",
					"endVote()": "b9223946",
					"finalResult()": "f3a8286f",
					"proposal()": "753ec103",
					"shareHolderRegister(address)": "5e169bce",
					"startVote()": "4c0a6af0",
					"state()": "c19d93fb",
					"totalShareHolders()": "9a982416",
					"totalVotes()": "0d15fd77"
				}
			},
			"storageLayout": {
				"storage": [
					{
						"astId": 3,
						"contract": "Ballot.sol:Ballot",
						"label": "ballotAddress",
						"offset": 0,
						"slot": "0",
						"type": "t_address"
					},
					{
						"astId": 5,
						"contract": "Ballot.sol:Ballot",
						"label": "ballotName",
						"offset": 0,
						"slot": "1",
						"type": "t_string_storage"
					},
					{
						"astId": 7,
						"contract": "Ballot.sol:Ballot",
						"label": "proposal",
						"offset": 0,
						"slot": "2",
						"type": "t_string_storage"
					},
					{
						"astId": 10,
						"contract": "Ballot.sol:Ballot",
						"label": "resultCount",
						"offset": 0,
						"slot": "3",
						"type": "t_uint256"
					},
					{
						"astId": 13,
						"contract": "Ballot.sol:Ballot",
						"label": "finalResult",
						"offset": 0,
						"slot": "4",
						"type": "t_uint256"
					},
					{
						"astId": 16,
						"contract": "Ballot.sol:Ballot",
						"label": "totalShareHolders",
						"offset": 0,
						"slot": "5",
						"type": "t_uint256"
					},
					{
						"astId": 19,
						"contract": "Ballot.sol:Ballot",
						"label": "totalVotes",
						"offset": 0,
						"slot": "6",
						"type": "t_uint256"
					},
					{
						"astId": 24,
						"contract": "Ballot.sol:Ballot",
						"label": "votes",
						"offset": 0,
						"slot": "7",
						"type": "t_mapping(t_uint256,t_struct(vote)42_storage)"
					},
					{
						"astId": 29,
						"contract": "Ballot.sol:Ballot",
						"label": "shareHolderRegister",
						"offset": 0,
						"slot": "8",
						"type": "t_mapping(t_address,t_struct(shareHolder)37_storage)"
					},
					{
						"astId": 32,
						"contract": "Ballot.sol:Ballot",
						"label": "state",
						"offset": 0,
						"slot": "9",
						"type": "t_enum(State)46"
					}
				],
				"types": {
					"t_address": {
						"encoding": "inplace",
						"label": "address",
						"numberOfBytes": "20"
					},
					"t_bool": {
						"encoding": "inplace",
						"label": "bool",
						"numberOfBytes": "1"
					},
					"t_enum(State)46": {
						"encoding": "inplace",
						"label": "enum Ballot.State",
						"numberOfBytes": "1"
					},
					"t_mapping(t_address,t_struct(shareHolder)37_storage)": {
						"encoding": "mapping",
						"key": "t_address",
						"label": "mapping(address => struct Ballot.shareHolder)",
						"numberOfBytes": "32",
						"value": "t_struct(shareHolder)37_storage"
					},
					"t_mapping(t_uint256,t_struct(vote)42_storage)": {
						"encoding": "mapping",
						"key": "t_uint256",
						"label": "mapping(uint256 => struct Ballot.vote)",
						"numberOfBytes": "32",
						"value": "t_struct(vote)42_storage"
					},
					"t_string_storage": {
						"encoding": "bytes",
						"label": "string",
						"numberOfBytes": "32"
					},
					"t_struct(shareHolder)37_storage": {
						"encoding": "inplace",
						"label": "struct Ballot.shareHolder",
						"members": [
							{
								"astId": 34,
								"contract": "Ballot.sol:Ballot",
								"label": "name",
								"offset": 0,
								"slot": "0",
								"type": "t_string_storage"
							},
							{
								"astId": 36,
								"contract": "Ballot.sol:Ballot",
								"label": "voted",
								"offset": 0,
								"slot": "1",
								"type": "t_bool"
							}
						],
						"numberOfBytes": "64"
					},
					"t_struct(vote)42_storage": {
						"encoding": "inplace",
						"label": "struct Ballot.vote",
						"members": [
							{
								"astId": 39,
								"contract": "Ballot.sol:Ballot",
								"label": "shareHolderAddress",
								"offset": 0,
								"slot": "0",
								"type": "t_address"
							},
							{
								"astId": 41,
								"contract": "Ballot.sol:Ballot",
								"label": "choice",
								"offset": 20,
								"slot": "0",
								"type": "t_bool"
							}
						],
						"numberOfBytes": "32"
					},
					"t_uint256": {
						"encoding": "inplace",
						"label": "uint256",
						"numberOfBytes": "32"
					}
				}
			},
			"userdoc": {
				"kind": "user",
				"methods": {},
				"version": 1
			}
		}
	}
}